{
    "contractName": "FakeProdId",
    "abi": [
        {
            "inputs": [
                {
                    "internalType": "string",
                    "name": "name",
                    "type": "string"
                },
                {
                    "internalType": "uint256",
                    "name": "price",
                    "type": "uint256"
                },
                {
                    "internalType": "string",
                    "name": "description",
                    "type": "string"
                }
            ],
            "name": "addProduct",
            "outputs": [
                {
                    "internalType": "uint256",
                    "name": "",
                    "type": "uint256"
                }
            ],
            "stateMutability": "nonpayable",
            "type": "function"
        },
        {
            "inputs": [
                {
                    "internalType": "string",
                    "name": "name",
                    "type": "string"
                }
            ],
            "name": "createDistributor",
            "outputs": [
                {
                    "internalType": "uint256",
                    "name": "",
                    "type": "uint256"
                }
            ],
            "stateMutability": "nonpayable",
            "type": "function"
        },
        {
            "inputs": [
                {
                    "internalType": "string",
                    "name": "name",
                    "type": "string"
                }
            ],
            "name": "createManufacturer",
            "outputs": [
                {
                    "internalType": "uint256",
                    "name": "",
                    "type": "uint256"
                }
            ],
            "stateMutability": "nonpayable",
            "type": "function"
        },
        {
            "inputs": [
                {
                    "internalType": "string",
                    "name": "name",
                    "type": "string"
                }
            ],
            "name": "createRetailer",
            "outputs": [
                {
                    "internalType": "uint256",
                    "name": "",
                    "type": "uint256"
                }
            ],
            "stateMutability": "nonpayable",
            "type": "function"
        },
        {
            "inputs": [
                {
                    "internalType": "string",
                    "name": "name",
                    "type": "string"
                }
            ],
            "name": "createSupplier",
            "outputs": [
                {
                    "internalType": "uint256",
                    "name": "",
                    "type": "uint256"
                }
            ],
            "stateMutability": "nonpayable",
            "type": "function"
        },
        {
            "inputs": [
                {
                    "internalType": "uint256",
                    "name": "productId",
                    "type": "uint256"
                }
            ],
            "name": "getProduct",
            "outputs": [
                {
                    "components": [
                        {
                            "internalType": "uint256",
                            "name": "productId",
                            "type": "uint256"
                        },
                        {
                            "internalType": "string",
                            "name": "name",
                            "type": "string"
                        },
                        {
                            "internalType": "uint256",
                            "name": "price",
                            "type": "uint256"
                        },
                        {
                            "internalType": "string",
                            "name": "description",
                            "type": "string"
                        },
                        {
                            "internalType": "string",
                            "name": "curOwner",
                            "type": "string"
                        },
                        {
                            "internalType": "string",
                            "name": "curOwnerId",
                            "type": "string"
                        }
                    ],
                    "internalType": "struct FakeProdId.Product",
                    "name": "",
                    "type": "tuple"
                }
            ],
            "stateMutability": "view",
            "type": "function"
        },
        {
            "inputs": [
                {
                    "internalType": "string",
                    "name": "distributorId",
                    "type": "string"
                }
            ],
            "name": "getdistributorDetails",
            "outputs": [
                {
                    "components": [
                        {
                            "internalType": "uint256",
                            "name": "_id",
                            "type": "uint256"
                        },
                        {
                            "internalType": "string",
                            "name": "distributorId",
                            "type": "string"
                        },
                        {
                            "internalType": "string",
                            "name": "name",
                            "type": "string"
                        }
                    ],
                    "internalType": "struct FakeProdId.Distributor",
                    "name": "",
                    "type": "tuple"
                }
            ],
            "stateMutability": "view",
            "type": "function"
        },
        {
            "inputs": [
                {
                    "internalType": "string",
                    "name": "manufacturerId",
                    "type": "string"
                }
            ],
            "name": "getmanufacturerDetails",
            "outputs": [
                {
                    "components": [
                        {
                            "internalType": "uint256",
                            "name": "_id",
                            "type": "uint256"
                        },
                        {
                            "internalType": "string",
                            "name": "manufacturerId",
                            "type": "string"
                        },
                        {
                            "internalType": "string",
                            "name": "name",
                            "type": "string"
                        }
                    ],
                    "internalType": "struct FakeProdId.Manufacturer",
                    "name": "",
                    "type": "tuple"
                }
            ],
            "stateMutability": "view",
            "type": "function"
        },
        {
            "inputs": [
                {
                    "internalType": "string",
                    "name": "retailerId",
                    "type": "string"
                }
            ],
            "name": "getretailerDetails",
            "outputs": [
                {
                    "components": [
                        {
                            "internalType": "uint256",
                            "name": "_id",
                            "type": "uint256"
                        },
                        {
                            "internalType": "string",
                            "name": "retailerId",
                            "type": "string"
                        },
                        {
                            "internalType": "string",
                            "name": "name",
                            "type": "string"
                        }
                    ],
                    "internalType": "struct FakeProdId.Retailer",
                    "name": "",
                    "type": "tuple"
                }
            ],
            "stateMutability": "view",
            "type": "function"
        },
        {
            "inputs": [
                {
                    "internalType": "string",
                    "name": "supplierId",
                    "type": "string"
                }
            ],
            "name": "getsupplierDetails",
            "outputs": [
                {
                    "components": [
                        {
                            "internalType": "uint256",
                            "name": "_id",
                            "type": "uint256"
                        },
                        {
                            "internalType": "string",
                            "name": "supplierId",
                            "type": "string"
                        },
                        {
                            "internalType": "string",
                            "name": "name",
                            "type": "string"
                        }
                    ],
                    "internalType": "struct FakeProdId.Supplier",
                    "name": "",
                    "type": "tuple"
                }
            ],
            "stateMutability": "view",
            "type": "function"
        }
    ],
    "bytecode": "6080604052600080546001600160a01b0319163317905534801561002257600080fd5b50610d68806100326000396000f3fe608060405234801561001057600080fd5b506004361061009e5760003560e01c806372499eb21161006657806372499eb21461012257806385247e38146101355780638e3845fd146101485780638f29695a1461015b578063b9db15b41461016e57600080fd5b80632d36da47146100a35780634d0f37eb146100c9578063581601cc146100e95780635e3e5203146100fc5780635f8b79231461010f575b600080fd5b6100b66100b1366004610ab4565b61018e565b6040519081526020015b60405180910390f35b6100dc6100d7366004610ab4565b610279565b6040516100c09190610b8e565b6100dc6100f7366004610ab4565b6103fb565b6100dc61010a366004610ab4565b61042f565b6100b661011d366004610ab4565b610463565b6100b6610130366004610ab4565b6104f2565b6100b6610143366004610ab4565b610559565b6100dc610156366004610ab4565b6105e8565b6100b6610169366004610ba8565b61061c565b61018161017c366004610c15565b61074e565b6040516100c09190610c2e565b6040805160608082018352600080835260208301829052928201528242446040516020016101be93929190610cb7565b60408051808303601f190181529181528151602092830120808452905161444960f01b9281019290925260228201526042015b60408051601f198184030181529181526020830182905282810185905251829160049161021e9190610cdc565b9081526020016040518091039020600082015181600001556020820151816001019080519060200190610252929190610978565b506040820151805161026e916002840191602090910190610978565b505090519392505050565b61029d60405180606001604052806000815260200160608152602001606081525090565b6003826040516102ad9190610cdc565b9081526020016040518091039020604051806060016040529081600082015481526020016001820180546102e090610cf8565b80601f016020809104026020016040519081016040528092919081815260200182805461030c90610cf8565b80156103595780601f1061032e57610100808354040283529160200191610359565b820191906000526020600020905b81548152906001019060200180831161033c57829003601f168201915b5050505050815260200160028201805461037290610cf8565b80601f016020809104026020016040519081016040528092919081815260200182805461039e90610cf8565b80156103eb5780601f106103c0576101008083540402835291602001916103eb565b820191906000526020600020905b8154815290600101906020018083116103ce57829003601f168201915b5050505050815250509050919050565b61041f60405180606001604052806000815260200160608152602001606081525090565b6004826040516102ad9190610cdc565b61045360405180606001604052806000815260200160608152602001606081525090565b6005826040516102ad9190610cdc565b60408051606080820183526000808352602083018290529282015282424460405160200161049393929190610cb7565b60408051808303601f1901815291815281516020928301208084529051614d4160f01b92810192909252602282015260420160408051601f198184030181529181526020830182905282810185905251829160039161021e9190610cdc565b60408051606080820183526000808352602083018290529282015282424460405160200161052293929190610cb7565b60408051808303601f190181529181528151602092830120808452905161524560f01b9281019290925260228201526042016101f1565b60408051606080820183526000808352602083018290529282015282424460405160200161058993929190610cb7565b60408051808303601f190181529181528151602092830120808452905161535560f01b92810192909252602282015260420160408051601f198184030181529181526020830182905282810185905251829160029161021e9190610cdc565b61060c60405180606001604052806000815260200160608152602001606081525090565b6002826040516102ad9190610cdc565b60006106576040518060c001604052806000815260200160608152602001600081526020016060815260200160608152602001606081525090565b84424460405160200161066c93929190610cb7565b60408051601f19818403018152918152815160209283012083528282018781528382018790526060840186905281518084018352600080825260808601919091528251808501845281815260a08601528451815260018085529290208451815590518051859492936106e393908501920190610978565b506040820151600282015560608201518051610709916003840191602090910190610978565b5060808201518051610725916004840191602090910190610978565b5060a08201518051610741916005840191602090910190610978565b5050905195945050505050565b6107876040518060c001604052806000815260200160608152602001600081526020016060815260200160608152602001606081525090565b600082815260016020818152604092839020835160c08101909452805484529182018054918401916107b890610cf8565b80601f01602080910402602001604051908101604052809291908181526020018280546107e490610cf8565b80156108315780601f1061080657610100808354040283529160200191610831565b820191906000526020600020905b81548152906001019060200180831161081457829003601f168201915b505050505081526020016002820154815260200160038201805461085490610cf8565b80601f016020809104026020016040519081016040528092919081815260200182805461088090610cf8565b80156108cd5780601f106108a2576101008083540402835291602001916108cd565b820191906000526020600020905b8154815290600101906020018083116108b057829003601f168201915b505050505081526020016004820180546108e690610cf8565b80601f016020809104026020016040519081016040528092919081815260200182805461091290610cf8565b801561095f5780601f106109345761010080835404028352916020019161095f565b820191906000526020600020905b81548152906001019060200180831161094257829003601f168201915b5050505050815260200160058201805461037290610cf8565b82805461098490610cf8565b90600052602060002090601f0160209004810192826109a657600085556109ec565b82601f106109bf57805160ff19168380011785556109ec565b828001600101855582156109ec579182015b828111156109ec5782518255916020019190600101906109d1565b506109f89291506109fc565b5090565b5b808211156109f857600081556001016109fd565b634e487b7160e01b600052604160045260246000fd5b600082601f830112610a3857600080fd5b813567ffffffffffffffff80821115610a5357610a53610a11565b604051601f8301601f19908116603f01168101908282118183101715610a7b57610a7b610a11565b81604052838152866020858801011115610a9457600080fd5b836020870160208301376000602085830101528094505050505092915050565b600060208284031215610ac657600080fd5b813567ffffffffffffffff811115610add57600080fd5b610ae984828501610a27565b949350505050565b60005b83811015610b0c578181015183820152602001610af4565b83811115610b1b576000848401525b50505050565b60008151808452610b39816020860160208601610af1565b601f01601f19169290920160200192915050565b805182526000602082015160606020850152610b6c6060850182610b21565b905060408301518482036040860152610b858282610b21565b95945050505050565b602081526000610ba16020830184610b4d565b9392505050565b600080600060608486031215610bbd57600080fd5b833567ffffffffffffffff80821115610bd557600080fd5b610be187838801610a27565b9450602086013593506040860135915080821115610bfe57600080fd5b50610c0b86828701610a27565b9150509250925092565b600060208284031215610c2757600080fd5b5035919050565b60208152815160208201526000602083015160c06040840152610c5460e0840182610b21565b9050604084015160608401526060840151601f1980858403016080860152610c7c8383610b21565b925060808601519150808584030160a0860152610c998383610b21565b925060a08601519150808584030160c086015250610b858282610b21565b606081526000610cca6060830186610b21565b60208301949094525060400152919050565b60008251610cee818460208701610af1565b9190910192915050565b600181811c90821680610d0c57607f821691505b602082108103610d2c57634e487b7160e01b600052602260045260246000fd5b5091905056fea2646970667358221220d69a21303a7f0fa953878baff36e6c1cce58bfbbbb1ad6f994c2607cd3933f2164736f6c634300080d0033",
    "sourcePath": "c:/Users/ASUS/Desktop/cipProj/contracts/FakeProdId.sol",
    "compiler": {
        "name": "solc",
        "version": "0.8.13+commit.abaa5c0e"
    },
    "functionHashes": {
        "addProduct(string,uint256,string)": "8f29695a",
        "createDistributor(string)": "2d36da47",
        "createManufacturer(string)": "5f8b7923",
        "createRetailer(string)": "72499eb2",
        "createSupplier(string)": "85247e38",
        "getProduct(uint256)": "b9db15b4",
        "getdistributorDetails(string)": "581601cc",
        "getmanufacturerDetails(string)": "4d0f37eb",
        "getretailerDetails(string)": "5e3e5203",
        "getsupplierDetails(string)": "8e3845fd"
    },
    "gasEstimates": {
        "creation": {
            "codeDepositCost": "686400",
            "executionCost": "24956",
            "totalCost": "711356"
        },
        "external": {
            "addProduct(string,uint256,string)": "infinite",
            "createDistributor(string)": "infinite",
            "createManufacturer(string)": "infinite",
            "createRetailer(string)": "infinite",
            "createSupplier(string)": "infinite",
            "getProduct(uint256)": "infinite",
            "getdistributorDetails(string)": "infinite",
            "getmanufacturerDetails(string)": "infinite",
            "getretailerDetails(string)": "infinite",
            "getsupplierDetails(string)": "infinite"
        }
    }
}