{
  "contractName": "FakeProdId",
  "abi": [
    {
      "anonymous": false,
      "inputs": [
        {
          "components": [
            {
              "internalType": "uint256",
              "name": "productId",
              "type": "uint256"
            },
            {
              "internalType": "string",
              "name": "name",
              "type": "string"
            },
            {
              "internalType": "uint256",
              "name": "price",
              "type": "uint256"
            },
            {
              "internalType": "string",
              "name": "description",
              "type": "string"
            },
            {
              "internalType": "uint256[]",
              "name": "prevOwners",
              "type": "uint256[]"
            },
            {
              "internalType": "uint256",
              "name": "prevOwnersSize",
              "type": "uint256"
            },
            {
              "internalType": "string",
              "name": "curOwner",
              "type": "string"
            },
            {
              "internalType": "uint256",
              "name": "curOwnerId",
              "type": "uint256"
            }
          ],
          "indexed": false,
          "internalType": "struct FakeProdId.Product",
          "name": "p",
          "type": "tuple"
        },
        {
          "components": [
            {
              "internalType": "uint256",
              "name": "supplierId",
              "type": "uint256"
            },
            {
              "internalType": "string",
              "name": "name",
              "type": "string"
            },
            {
              "internalType": "uint256",
              "name": "prodListSize",
              "type": "uint256"
            },
            {
              "internalType": "uint256[]",
              "name": "productList",
              "type": "uint256[]"
            }
          ],
          "indexed": false,
          "internalType": "struct FakeProdId.Supplier",
          "name": "s",
          "type": "tuple"
        },
        {
          "components": [
            {
              "internalType": "uint256",
              "name": "productId",
              "type": "uint256"
            },
            {
              "internalType": "string",
              "name": "name",
              "type": "string"
            },
            {
              "internalType": "uint256",
              "name": "price",
              "type": "uint256"
            },
            {
              "internalType": "string",
              "name": "description",
              "type": "string"
            },
            {
              "internalType": "uint256[]",
              "name": "prevOwners",
              "type": "uint256[]"
            },
            {
              "internalType": "uint256",
              "name": "prevOwnersSize",
              "type": "uint256"
            },
            {
              "internalType": "string",
              "name": "curOwner",
              "type": "string"
            },
            {
              "internalType": "uint256",
              "name": "curOwnerId",
              "type": "uint256"
            }
          ],
          "indexed": false,
          "internalType": "struct FakeProdId.Product",
          "name": "p1",
          "type": "tuple"
        }
      ],
      "name": "completeSupplierTransaction",
      "type": "event"
    },
    {
      "anonymous": false,
      "inputs": [
        {
          "components": [
            {
              "internalType": "uint256",
              "name": "productId",
              "type": "uint256"
            },
            {
              "internalType": "string",
              "name": "name",
              "type": "string"
            },
            {
              "internalType": "uint256",
              "name": "price",
              "type": "uint256"
            },
            {
              "internalType": "string",
              "name": "description",
              "type": "string"
            },
            {
              "internalType": "uint256[]",
              "name": "prevOwners",
              "type": "uint256[]"
            },
            {
              "internalType": "uint256",
              "name": "prevOwnersSize",
              "type": "uint256"
            },
            {
              "internalType": "string",
              "name": "curOwner",
              "type": "string"
            },
            {
              "internalType": "uint256",
              "name": "curOwnerId",
              "type": "uint256"
            }
          ],
          "indexed": false,
          "internalType": "struct FakeProdId.Product",
          "name": "product",
          "type": "tuple"
        }
      ],
      "name": "completeTransaction",
      "type": "event"
    },
    {
      "anonymous": false,
      "inputs": [
        {
          "components": [
            {
              "internalType": "uint256",
              "name": "distributorId",
              "type": "uint256"
            },
            {
              "internalType": "string",
              "name": "name",
              "type": "string"
            },
            {
              "internalType": "uint256",
              "name": "prodListSize",
              "type": "uint256"
            },
            {
              "internalType": "uint256[]",
              "name": "productList",
              "type": "uint256[]"
            }
          ],
          "indexed": false,
          "internalType": "struct FakeProdId.Distributor",
          "name": "newDistributor",
          "type": "tuple"
        }
      ],
      "name": "distributorDetails",
      "type": "event"
    },
    {
      "anonymous": false,
      "inputs": [
        {
          "components": [
            {
              "internalType": "uint256",
              "name": "manufacturerId",
              "type": "uint256"
            },
            {
              "internalType": "string",
              "name": "name",
              "type": "string"
            },
            {
              "internalType": "uint256",
              "name": "prodListSize",
              "type": "uint256"
            },
            {
              "internalType": "uint256[]",
              "name": "productList",
              "type": "uint256[]"
            }
          ],
          "indexed": false,
          "internalType": "struct FakeProdId.Manufacturer",
          "name": "newManufacturer",
          "type": "tuple"
        }
      ],
      "name": "manufacturerDetails",
      "type": "event"
    },
    {
      "anonymous": false,
      "inputs": [
        {
          "components": [
            {
              "internalType": "uint256",
              "name": "productId",
              "type": "uint256"
            },
            {
              "internalType": "string",
              "name": "name",
              "type": "string"
            },
            {
              "internalType": "uint256",
              "name": "price",
              "type": "uint256"
            },
            {
              "internalType": "string",
              "name": "description",
              "type": "string"
            },
            {
              "internalType": "uint256[]",
              "name": "prevOwners",
              "type": "uint256[]"
            },
            {
              "internalType": "uint256",
              "name": "prevOwnersSize",
              "type": "uint256"
            },
            {
              "internalType": "string",
              "name": "curOwner",
              "type": "string"
            },
            {
              "internalType": "uint256",
              "name": "curOwnerId",
              "type": "uint256"
            }
          ],
          "indexed": false,
          "internalType": "struct FakeProdId.Product",
          "name": "prod",
          "type": "tuple"
        },
        {
          "indexed": false,
          "internalType": "uint256",
          "name": "productSize",
          "type": "uint256"
        }
      ],
      "name": "prodDetails",
      "type": "event"
    },
    {
      "anonymous": false,
      "inputs": [
        {
          "components": [
            {
              "internalType": "uint256",
              "name": "productId",
              "type": "uint256"
            },
            {
              "internalType": "string",
              "name": "name",
              "type": "string"
            },
            {
              "internalType": "uint256",
              "name": "price",
              "type": "uint256"
            },
            {
              "internalType": "string",
              "name": "description",
              "type": "string"
            },
            {
              "internalType": "uint256[]",
              "name": "prevOwners",
              "type": "uint256[]"
            },
            {
              "internalType": "uint256",
              "name": "prevOwnersSize",
              "type": "uint256"
            },
            {
              "internalType": "string",
              "name": "curOwner",
              "type": "string"
            },
            {
              "internalType": "uint256",
              "name": "curOwnerId",
              "type": "uint256"
            }
          ],
          "indexed": false,
          "internalType": "struct FakeProdId.Product",
          "name": "prod",
          "type": "tuple"
        }
      ],
      "name": "productDetails",
      "type": "event"
    },
    {
      "anonymous": false,
      "inputs": [
        {
          "components": [
            {
              "internalType": "uint256",
              "name": "retailerId",
              "type": "uint256"
            },
            {
              "internalType": "string",
              "name": "name",
              "type": "string"
            },
            {
              "internalType": "uint256",
              "name": "prodListSize",
              "type": "uint256"
            },
            {
              "internalType": "uint256[]",
              "name": "productList",
              "type": "uint256[]"
            }
          ],
          "indexed": false,
          "internalType": "struct FakeProdId.Retailer",
          "name": "newRetailer",
          "type": "tuple"
        }
      ],
      "name": "retailerDetails",
      "type": "event"
    },
    {
      "anonymous": false,
      "inputs": [
        {
          "components": [
            {
              "internalType": "uint256",
              "name": "supplierId",
              "type": "uint256"
            },
            {
              "internalType": "string",
              "name": "name",
              "type": "string"
            },
            {
              "internalType": "uint256",
              "name": "prodListSize",
              "type": "uint256"
            },
            {
              "internalType": "uint256[]",
              "name": "productList",
              "type": "uint256[]"
            }
          ],
          "indexed": false,
          "internalType": "struct FakeProdId.Supplier",
          "name": "newSupplier",
          "type": "tuple"
        }
      ],
      "name": "supplierDetails",
      "type": "event"
    },
    {
      "inputs": [
        {
          "internalType": "uint256",
          "name": "",
          "type": "uint256"
        }
      ],
      "name": "distributors",
      "outputs": [
        {
          "internalType": "uint256",
          "name": "distributorId",
          "type": "uint256"
        },
        {
          "internalType": "string",
          "name": "name",
          "type": "string"
        },
        {
          "internalType": "uint256",
          "name": "prodListSize",
          "type": "uint256"
        }
      ],
      "stateMutability": "view",
      "type": "function"
    },
    {
      "inputs": [
        {
          "internalType": "uint256",
          "name": "",
          "type": "uint256"
        }
      ],
      "name": "manufacturers",
      "outputs": [
        {
          "internalType": "uint256",
          "name": "manufacturerId",
          "type": "uint256"
        },
        {
          "internalType": "string",
          "name": "name",
          "type": "string"
        },
        {
          "internalType": "uint256",
          "name": "prodListSize",
          "type": "uint256"
        }
      ],
      "stateMutability": "view",
      "type": "function"
    },
    {
      "inputs": [
        {
          "internalType": "uint256",
          "name": "",
          "type": "uint256"
        }
      ],
      "name": "products",
      "outputs": [
        {
          "internalType": "uint256",
          "name": "productId",
          "type": "uint256"
        },
        {
          "internalType": "string",
          "name": "name",
          "type": "string"
        },
        {
          "internalType": "uint256",
          "name": "price",
          "type": "uint256"
        },
        {
          "internalType": "string",
          "name": "description",
          "type": "string"
        },
        {
          "internalType": "uint256",
          "name": "prevOwnersSize",
          "type": "uint256"
        },
        {
          "internalType": "string",
          "name": "curOwner",
          "type": "string"
        },
        {
          "internalType": "uint256",
          "name": "curOwnerId",
          "type": "uint256"
        }
      ],
      "stateMutability": "view",
      "type": "function"
    },
    {
      "inputs": [
        {
          "internalType": "uint256",
          "name": "",
          "type": "uint256"
        }
      ],
      "name": "retailers",
      "outputs": [
        {
          "internalType": "uint256",
          "name": "retailerId",
          "type": "uint256"
        },
        {
          "internalType": "string",
          "name": "name",
          "type": "string"
        },
        {
          "internalType": "uint256",
          "name": "prodListSize",
          "type": "uint256"
        }
      ],
      "stateMutability": "view",
      "type": "function"
    },
    {
      "inputs": [
        {
          "internalType": "uint256",
          "name": "",
          "type": "uint256"
        }
      ],
      "name": "suppliers",
      "outputs": [
        {
          "internalType": "uint256",
          "name": "supplierId",
          "type": "uint256"
        },
        {
          "internalType": "string",
          "name": "name",
          "type": "string"
        },
        {
          "internalType": "uint256",
          "name": "prodListSize",
          "type": "uint256"
        }
      ],
      "stateMutability": "view",
      "type": "function"
    },
    {
      "inputs": [
        {
          "internalType": "string",
          "name": "name",
          "type": "string"
        },
        {
          "internalType": "uint256",
          "name": "price",
          "type": "uint256"
        },
        {
          "internalType": "string",
          "name": "description",
          "type": "string"
        }
      ],
      "name": "addProduct",
      "outputs": [],
      "stateMutability": "nonpayable",
      "type": "function"
    },
    {
      "inputs": [
        {
          "internalType": "uint256",
          "name": "productId",
          "type": "uint256"
        },
        {
          "internalType": "string",
          "name": "newName",
          "type": "string"
        }
      ],
      "name": "modifyName",
      "outputs": [],
      "stateMutability": "nonpayable",
      "type": "function"
    },
    {
      "inputs": [
        {
          "internalType": "uint256",
          "name": "productId",
          "type": "uint256"
        },
        {
          "internalType": "string",
          "name": "newOwnerName",
          "type": "string"
        }
      ],
      "name": "modifyOwner",
      "outputs": [],
      "stateMutability": "nonpayable",
      "type": "function"
    },
    {
      "inputs": [
        {
          "internalType": "uint256",
          "name": "productId",
          "type": "uint256"
        }
      ],
      "name": "getProduct",
      "outputs": [
        {
          "components": [
            {
              "internalType": "uint256",
              "name": "productId",
              "type": "uint256"
            },
            {
              "internalType": "string",
              "name": "name",
              "type": "string"
            },
            {
              "internalType": "uint256",
              "name": "price",
              "type": "uint256"
            },
            {
              "internalType": "string",
              "name": "description",
              "type": "string"
            },
            {
              "internalType": "uint256[]",
              "name": "prevOwners",
              "type": "uint256[]"
            },
            {
              "internalType": "uint256",
              "name": "prevOwnersSize",
              "type": "uint256"
            },
            {
              "internalType": "string",
              "name": "curOwner",
              "type": "string"
            },
            {
              "internalType": "uint256",
              "name": "curOwnerId",
              "type": "uint256"
            }
          ],
          "internalType": "struct FakeProdId.Product",
          "name": "",
          "type": "tuple"
        }
      ],
      "stateMutability": "view",
      "type": "function"
    },
    {
      "inputs": [
        {
          "internalType": "string",
          "name": "name",
          "type": "string"
        }
      ],
      "name": "addSupplier",
      "outputs": [],
      "stateMutability": "nonpayable",
      "type": "function"
    },
    {
      "inputs": [
        {
          "internalType": "uint256",
          "name": "supplierId",
          "type": "uint256"
        }
      ],
      "name": "getsupplierDetails",
      "outputs": [
        {
          "components": [
            {
              "internalType": "uint256",
              "name": "supplierId",
              "type": "uint256"
            },
            {
              "internalType": "string",
              "name": "name",
              "type": "string"
            },
            {
              "internalType": "uint256",
              "name": "prodListSize",
              "type": "uint256"
            },
            {
              "internalType": "uint256[]",
              "name": "productList",
              "type": "uint256[]"
            }
          ],
          "internalType": "struct FakeProdId.Supplier",
          "name": "",
          "type": "tuple"
        }
      ],
      "stateMutability": "view",
      "type": "function"
    },
    {
      "inputs": [
        {
          "internalType": "string",
          "name": "name",
          "type": "string"
        }
      ],
      "name": "addManufacturer",
      "outputs": [],
      "stateMutability": "nonpayable",
      "type": "function"
    },
    {
      "inputs": [
        {
          "internalType": "uint256",
          "name": "manufacturerId",
          "type": "uint256"
        }
      ],
      "name": "getmanufacturerDetails",
      "outputs": [
        {
          "components": [
            {
              "internalType": "uint256",
              "name": "manufacturerId",
              "type": "uint256"
            },
            {
              "internalType": "string",
              "name": "name",
              "type": "string"
            },
            {
              "internalType": "uint256",
              "name": "prodListSize",
              "type": "uint256"
            },
            {
              "internalType": "uint256[]",
              "name": "productList",
              "type": "uint256[]"
            }
          ],
          "internalType": "struct FakeProdId.Manufacturer",
          "name": "",
          "type": "tuple"
        }
      ],
      "stateMutability": "view",
      "type": "function"
    },
    {
      "inputs": [
        {
          "internalType": "string",
          "name": "name",
          "type": "string"
        }
      ],
      "name": "addDistributor",
      "outputs": [],
      "stateMutability": "nonpayable",
      "type": "function"
    },
    {
      "inputs": [
        {
          "internalType": "uint256",
          "name": "distributorId",
          "type": "uint256"
        }
      ],
      "name": "getdistributorDetails",
      "outputs": [
        {
          "components": [
            {
              "internalType": "uint256",
              "name": "distributorId",
              "type": "uint256"
            },
            {
              "internalType": "string",
              "name": "name",
              "type": "string"
            },
            {
              "internalType": "uint256",
              "name": "prodListSize",
              "type": "uint256"
            },
            {
              "internalType": "uint256[]",
              "name": "productList",
              "type": "uint256[]"
            }
          ],
          "internalType": "struct FakeProdId.Distributor",
          "name": "",
          "type": "tuple"
        }
      ],
      "stateMutability": "view",
      "type": "function"
    },
    {
      "inputs": [
        {
          "internalType": "string",
          "name": "name",
          "type": "string"
        }
      ],
      "name": "addRetailer",
      "outputs": [],
      "stateMutability": "nonpayable",
      "type": "function"
    },
    {
      "inputs": [
        {
          "internalType": "uint256",
          "name": "retailerId",
          "type": "uint256"
        }
      ],
      "name": "getretailerDetails",
      "outputs": [
        {
          "components": [
            {
              "internalType": "uint256",
              "name": "retailerId",
              "type": "uint256"
            },
            {
              "internalType": "string",
              "name": "name",
              "type": "string"
            },
            {
              "internalType": "uint256",
              "name": "prodListSize",
              "type": "uint256"
            },
            {
              "internalType": "uint256[]",
              "name": "productList",
              "type": "uint256[]"
            }
          ],
          "internalType": "struct FakeProdId.Retailer",
          "name": "",
          "type": "tuple"
        }
      ],
      "stateMutability": "view",
      "type": "function"
    },
    {
      "inputs": [
        {
          "internalType": "uint256",
          "name": "productId",
          "type": "uint256"
        },
        {
          "internalType": "uint256",
          "name": "supplierId",
          "type": "uint256"
        }
      ],
      "name": "supplierTransaction",
      "outputs": [],
      "stateMutability": "payable",
      "type": "function"
    },
    {
      "inputs": [
        {
          "internalType": "uint256",
          "name": "productId",
          "type": "uint256"
        },
        {
          "internalType": "uint256",
          "name": "supplierId",
          "type": "uint256"
        },
        {
          "internalType": "uint256",
          "name": "manufacturerId",
          "type": "uint256"
        }
      ],
      "name": "supplierToManufacturer",
      "outputs": [],
      "stateMutability": "payable",
      "type": "function"
    },
    {
      "inputs": [
        {
          "internalType": "uint256",
          "name": "productId",
          "type": "uint256"
        },
        {
          "internalType": "uint256",
          "name": "manufacturerId",
          "type": "uint256"
        },
        {
          "internalType": "uint256",
          "name": "distributorId",
          "type": "uint256"
        }
      ],
      "name": "manufacturerToDistributor",
      "outputs": [],
      "stateMutability": "payable",
      "type": "function"
    },
    {
      "inputs": [
        {
          "internalType": "uint256",
          "name": "productId",
          "type": "uint256"
        },
        {
          "internalType": "uint256",
          "name": "distributorId",
          "type": "uint256"
        },
        {
          "internalType": "uint256",
          "name": "retailerId",
          "type": "uint256"
        }
      ],
      "name": "distributorToRetailer",
      "outputs": [],
      "stateMutability": "payable",
      "type": "function"
    }
  ],
  "bytecode": "0x6080604052600080546001600160a01b0319163317815560025534801561002557600080fd5b506126c1806100356000396000f3fe60806040526004361061012a5760003560e01c806390175af1116100ab578063bbb7b0c31161006f578063bbb7b0c31461033c578063cb80c4191461034f578063cda5e4a51461036f578063cea231211461038f578063d8459464146103af578063f93968b6146103c257600080fd5b806390175af1146102a957806395d00407146102c9578063ae2ce444146102e9578063b55be240146102fc578063b9db15b41461030f57600080fd5b80637acc0b20116100f25780637acc0b20146101f657806381d9def214610229578063897ec7df146102495780638f29695a146102695780638f5ae7991461028957600080fd5b806315533a271461012f578063333f3dd0146101515780633779643f1461018757806350b492ba146101a75780635ee328b3146101d6575b600080fd5b34801561013b57600080fd5b5061014f61014a36600461209f565b6103e2565b005b34801561015d57600080fd5b5061017161016c3660046120dc565b6104fb565b60405161017e91906121c8565b60405180910390f35b34801561019357600080fd5b506101716101a23660046120dc565b610649565b3480156101b357600080fd5b506101c76101c23660046120dc565b6106ac565b60405161017e939291906121e2565b3480156101e257600080fd5b5061014f6101f136600461220b565b610757565b34801561020257600080fd5b506102166102113660046120dc565b6107a9565b60405161017e9796959493929190612252565b34801561023557600080fd5b5061014f61024436600461209f565b61097b565b34801561025557600080fd5b506101c76102643660046120dc565b610a86565b34801561027557600080fd5b5061014f6102843660046122b2565b610aa8565b34801561029557600080fd5b5061014f6102a436600461209f565b610c06565b3480156102b557600080fd5b506101c76102c43660046120dc565b610d11565b3480156102d557600080fd5b5061014f6102e436600461209f565b610d33565b61014f6102f736600461231f565b610e3e565b61014f61030a36600461231f565b6111fb565b34801561031b57600080fd5b5061032f61032a3660046120dc565b611548565b60405161017e91906123e4565b61014f61034a36600461231f565b6117a5565b34801561035b57600080fd5b5061017161036a3660046120dc565b611b55565b34801561037b57600080fd5b5061017161038a3660046120dc565b611bb8565b34801561039b57600080fd5b506101c76103aa3660046120dc565b611c1b565b61014f6103bd3660046123f7565b611c3d565b3480156103ce57600080fd5b5061014f6103dd36600461220b565b611e9f565b61040d6040518060800160405280600081526020016060815260200160008152602001606081525090565b81424460405160200161042293929190612419565b60408051601f19818403018152919052805160209091012080825261044c906305f5e1009061243e565b815260208082018381526040805160008082528185018352606086019190915281850181905284518152600384522083518155905180518493610496926001850192910190611ee4565b5060408201516002820155606082015180516104bc916003840191602090910190611f68565b509050507f6a0d3358a206a867cb0ac893ea0bf823382708098c1786909b7fa08b3f9a824b816040516104ef91906121c8565b60405180910390a15050565b6105266040518060800160405280600081526020016060815260200160008152602001606081525090565b600560008381526020019081526020016000206040518060800160405290816000820154815260200160018201805461055e90612460565b80601f016020809104026020016040519081016040528092919081815260200182805461058a90612460565b80156105d75780601f106105ac576101008083540402835291602001916105d7565b820191906000526020600020905b8154815290600101906020018083116105ba57829003601f168201915b50505050508152602001600282015481526020016003820180548060200260200160405190810160405280929190818152602001828054801561063957602002820191906000526020600020905b815481526020019060010190808311610625575b5050505050815250509050919050565b6106746040518060800160405280600081526020016060815260200160008152602001606081525090565b600360008381526020019081526020016000206040518060800160405290816000820154815260200160018201805461055e90612460565b600560205260009081526040902080546001820180549192916106ce90612460565b80601f01602080910402602001604051908101604052809291908181526020018280546106fa90612460565b80156107475780601f1061071c57610100808354040283529160200191610747565b820191906000526020600020905b81548152906001019060200180831161072a57829003601f168201915b5050505050908060020154905083565b600061076283611548565b9050818160c001819052507f9bde7ea5601cd3a6fe0043effe70407a01c65f8debb56e5893f82ca7deccec918160405161079c91906123e4565b60405180910390a1505050565b6001602081905260009182526040909120805491810180546107ca90612460565b80601f01602080910402602001604051908101604052809291908181526020018280546107f690612460565b80156108435780601f1061081857610100808354040283529160200191610843565b820191906000526020600020905b81548152906001019060200180831161082657829003601f168201915b50505050509080600201549080600301805461085e90612460565b80601f016020809104026020016040519081016040528092919081815260200182805461088a90612460565b80156108d75780601f106108ac576101008083540402835291602001916108d7565b820191906000526020600020905b8154815290600101906020018083116108ba57829003601f168201915b5050505050908060050154908060060180546108f290612460565b80601f016020809104026020016040519081016040528092919081815260200182805461091e90612460565b801561096b5780601f106109405761010080835404028352916020019161096b565b820191906000526020600020905b81548152906001019060200180831161094e57829003601f168201915b5050505050908060070154905087565b6109a66040518060800160405280600081526020016060815260200160008152602001606081525090565b6305f5e1008242446040516020016109c093929190612419565b6040516020818303038152906040528051906020012060001c6109e3919061243e565b815260208082018381526040805160008082528185018352606086019190915281850181905284518152600584522083518155905180518493610a2d926001850192910190611ee4565b506040820151600282015560608201518051610a53916003840191602090910190611f68565b509050507fde4c5619ba74ae7a0920bdd8f4a4b454e730bcdf5dd8d7034a0e6a1a122d7aa6816040516104ef91906121c8565b600660205260009081526040902080546001820180549192916106ce90612460565b610ab0611fa2565b6002548152602080820185905260408083018590526060830184905280518083018252600080825260c085019190915260e08401528051600480825260a082019092529182016080803683375050506080820152600060a08201819052815181526001602081815260409092208351815582840151805185949293610b3a93908501920190611ee4565b506040820151600282015560608201518051610b60916003840191602090910190611ee4565b5060808201518051610b7c916004840191602090910190611f68565b5060a0820151600582015560c08201518051610ba2916006840191602090910190611ee4565b5060e0919091015160079091015560028054906000610bc0836124b0565b91905055507fdd8688f80c62eab88b445b6a5f414e69ff40be1584ddb10b6a9bc6cf68b17f2f81600254604051610bf89291906124c9565b60405180910390a150505050565b610c316040518060800160405280600081526020016060815260200160008152602001606081525090565b6305f5e100824244604051602001610c4b93929190612419565b6040516020818303038152906040528051906020012060001c610c6e919061243e565b815260208082018381526040805160008082528185018352606086019190915281850181905284518152600484522083518155905180518493610cb8926001850192910190611ee4565b506040820151600282015560608201518051610cde916003840191602090910190611f68565b509050507ffc3817a81579163ea44380ad905e2cc0417138a02b06c5b5a85ef88d0c360d72816040516104ef91906121c8565b600460205260009081526040902080546001820180549192916106ce90612460565b610d5e6040518060800160405280600081526020016060815260200160008152602001606081525090565b6305f5e100824244604051602001610d7893929190612419565b6040516020818303038152906040528051906020012060001c610d9b919061243e565b815260208082018381526040805160008082528185018352606086019190915281850181905284518152600684522083518155905180518493610de5926001850192910190611ee4565b506040820151600282015560608201518051610e0b916003840191602090910190611f68565b509050507f48b295dbd2dde57075e837c2add5113c3a864d21ad68e1acb6ec3233afea585f816040516104ef91906121c8565b6000610e4984611548565b9050828160e0015114610ec05760405162461bcd60e51b815260206004820152603460248201527f4d616e756661637475726572206973206e6f74207468652063757272656e74206044820152731bdddb995c881bd9881d1a19481c1c9bd91d58dd60621b60648201526084015b60405180910390fd5b6000610ecb836104fb565b602081015160c0840152805160e084015260a0830151909150600090610ef29060016124eb565b67ffffffffffffffff811115610f0a57610f0a611ffc565b604051908082528060200260200182016040528015610f33578160200160208202803683370190505b50905060005b8360a00151811015610f925783608001518181518110610f5b57610f5b612503565b6020026020010151828281518110610f7557610f75612503565b602090810291909101015280610f8a816124b0565b915050610f39565b5084818460a0015181518110610faa57610faa612503565b602090810291909101015260a08301805190610fc5826124b0565b9052506080830181905260008681526001602081815260409092208551815582860151805187949293610ffd93908501920190611ee4565b506040820151600282015560608201518051611023916003840191602090910190611ee4565b506080820151805161103f916004840191602090910190611f68565b5060a0820151600582015560c08201518051611065916006840191602090910190611ee4565b5060e0820151816007015590505060008260400151600161108691906124eb565b67ffffffffffffffff81111561109e5761109e611ffc565b6040519080825280602002602001820160405280156110c7578160200160208202803683370190505b50905060005b836040015181101561112657836060015181815181106110ef576110ef612503565b602002602001015182828151811061110957611109612503565b60209081029190910101528061111e816124b0565b9150506110cd565b50868184604001518151811061113e5761113e612503565b602090810291909101015260408301805190611159826124b0565b905250606083018190526000858152600560209081526040909120845181558185015180518693611191926001850192910190611ee4565b5060408201516002820155606082015180516111b7916003840191602090910190611f68565b509050507fdb38a0f551885a9e8666b66db8057c351d8f70150c869d99953a3051b52cc36a846040516111ea91906123e4565b60405180910390a150505050505050565b600061120684611548565b9050828160e00151146112775760405162461bcd60e51b815260206004820152603360248201527f4469737472696275746f72206973206e6f74207468652063757272656e74206f6044820152721ddb995c881bd9881d1a19481c1c9bd91d58dd606a1b6064820152608401610eb7565b600061128283611bb8565b602081015160c0840152805160e084015260a08301519091506000906112a99060016124eb565b67ffffffffffffffff8111156112c1576112c1611ffc565b6040519080825280602002602001820160405280156112ea578160200160208202803683370190505b50905060005b8360a00151811015611349578360800151818151811061131257611312612503565b602002602001015182828151811061132c5761132c612503565b602090810291909101015280611341816124b0565b9150506112f0565b5084818460a001518151811061136157611361612503565b602090810291909101015260a0830180519061137c826124b0565b90525060808301819052600086815260016020818152604090922085518155828601518051879492936113b493908501920190611ee4565b5060408201516002820155606082015180516113da916003840191602090910190611ee4565b50608082015180516113f6916004840191602090910190611f68565b5060a0820151600582015560c0820151805161141c916006840191602090910190611ee4565b5060e0820151816007015590505060008260400151600161143d91906124eb565b67ffffffffffffffff81111561145557611455611ffc565b60405190808252806020026020018201604052801561147e578160200160208202803683370190505b50905060005b83604001518110156114dd57836060015181815181106114a6576114a6612503565b60200260200101518282815181106114c0576114c0612503565b6020908102919091010152806114d5816124b0565b915050611484565b5086818460400151815181106114f5576114f5612503565b602090810291909101015260408301805190611510826124b0565b905250606083018190526000858152600660209081526040909120845181558185015180518693611191926001850192910190611ee4565b611550611fa2565b600082815260016020818152604092839020835161010081019094528054845291820180549184019161158290612460565b80601f01602080910402602001604051908101604052809291908181526020018280546115ae90612460565b80156115fb5780601f106115d0576101008083540402835291602001916115fb565b820191906000526020600020905b8154815290600101906020018083116115de57829003601f168201915b505050505081526020016002820154815260200160038201805461161e90612460565b80601f016020809104026020016040519081016040528092919081815260200182805461164a90612460565b80156116975780601f1061166c57610100808354040283529160200191611697565b820191906000526020600020905b81548152906001019060200180831161167a57829003601f168201915b50505050508152602001600482018054806020026020016040519081016040528092919081815260200182805480156116ef57602002820191906000526020600020905b8154815260200190600101908083116116db575b505050505081526020016005820154815260200160068201805461171290612460565b80601f016020809104026020016040519081016040528092919081815260200182805461173e90612460565b801561178b5780601f106117605761010080835404028352916020019161178b565b820191906000526020600020905b81548152906001019060200180831161176e57829003601f168201915b505050505081526020016007820154815250509050919050565b60006117b084611548565b9050828160e001511461181e5760405162461bcd60e51b815260206004820152603060248201527f537570706c696572206973206e6f74207468652063757272656e74206f776e6560448201526f1c881bd9881d1a19481c1c9bd91d58dd60821b6064820152608401610eb7565b600061182983611b55565b602081015160c0840152805160e084015260a08301519091506000906118509060016124eb565b67ffffffffffffffff81111561186857611868611ffc565b604051908082528060200260200182016040528015611891578160200160208202803683370190505b50905060005b8360a001518110156118f057836080015181815181106118b9576118b9612503565b60200260200101518282815181106118d3576118d3612503565b6020908102919091010152806118e8816124b0565b915050611897565b5084818460a001518151811061190857611908612503565b602090810291909101015260a08301805190611923826124b0565b905250608083018190526000868152600160208181526040909220855181558286015180518794929361195b93908501920190611ee4565b506040820151600282015560608201518051611981916003840191602090910190611ee4565b506080820151805161199d916004840191602090910190611f68565b5060a0820151600582015560c082015180516119c3916006840191602090910190611ee4565b5060e082015181600701559050506000826040015160016119e491906124eb565b67ffffffffffffffff8111156119fc576119fc611ffc565b604051908082528060200260200182016040528015611a25578160200160208202803683370190505b50905060005b8360400151811015611a845783606001518181518110611a4d57611a4d612503565b6020026020010151838281518110611a6757611a67612503565b602090810291909101015280611a7c816124b0565b915050611a2b565b508681846040015181518110611a9c57611a9c612503565b602090810291909101015260408301805190611ab7826124b0565b905250606083018190526000858152600460209081526040909120845181558185015180518693611aef926001850192910190611ee4565b506040820151600282015560608201518051611b15916003840191602090910190611f68565b5050506000878152600160205260409081902090517fdb38a0f551885a9e8666b66db8057c351d8f70150c869d99953a3051b52cc36a916111ea916125ed565b611b806040518060800160405280600081526020016060815260200160008152602001606081525090565b600460008381526020019081526020016000206040518060800160405290816000820154815260200160018201805461055e90612460565b611be36040518060800160405280600081526020016060815260200160008152602001606081525090565b600660008381526020019081526020016000206040518060800160405290816000820154815260200160018201805461055e90612460565b600360205260009081526040902080546001820180549192916106ce90612460565b6000611c4882610649565b90506000611c5584611548565b60208084015160c0830152835160e08301526000868152600180835260409091208351815582840151805194955085949193611c9693850192910190611ee4565b506040820151600282015560608201518051611cbc916003840191602090910190611ee4565b5060808201518051611cd8916004840191602090910190611f68565b5060a0820151600582015560c08201518051611cfe916006840191602090910190611ee4565b5060e08201518160070155905050600082604001516001611d1f91906124eb565b67ffffffffffffffff811115611d3757611d37611ffc565b604051908082528060200260200182016040528015611d60578160200160208202803683370190505b50905060005b8360400151811015611dbf5783606001518181518110611d8857611d88612503565b6020026020010151828281518110611da257611da2612503565b602090810291909101015280611db7816124b0565b915050611d66565b508481846040015181518110611dd757611dd7612503565b602090810291909101015260408301805190611df2826124b0565b905250606083018190526000848152600360209081526040909120845181558185015180518693611e2a926001850192910190611ee4565b506040820151600282015560608201518051611e50916003840191602090910190611f68565b5050506000858152600160205260409081902090517fdb38a0f551885a9e8666b66db8057c351d8f70150c869d99953a3051b52cc36a91611e90916125ed565b60405180910390a15050505050565b6000611eaa83611548565b90508181602001819052507f9bde7ea5601cd3a6fe0043effe70407a01c65f8debb56e5893f82ca7deccec918160405161079c91906123e4565b828054611ef090612460565b90600052602060002090601f016020900481019282611f125760008555611f58565b82601f10611f2b57805160ff1916838001178555611f58565b82800160010185558215611f58579182015b82811115611f58578251825591602001919060010190611f3d565b50611f64929150611fe7565b5090565b828054828255906000526020600020908101928215611f585791602002820182811115611f58578251825591602001919060010190611f3d565b60405180610100016040528060008152602001606081526020016000815260200160608152602001606081526020016000815260200160608152602001600081525090565b5b80821115611f645760008155600101611fe8565b634e487b7160e01b600052604160045260246000fd5b600082601f83011261202357600080fd5b813567ffffffffffffffff8082111561203e5761203e611ffc565b604051601f8301601f19908116603f0116810190828211818310171561206657612066611ffc565b8160405283815286602085880101111561207f57600080fd5b836020870160208301376000602085830101528094505050505092915050565b6000602082840312156120b157600080fd5b813567ffffffffffffffff8111156120c857600080fd5b6120d484828501612012565b949350505050565b6000602082840312156120ee57600080fd5b5035919050565b6000815180845260005b8181101561211b576020818501810151868301820152016120ff565b8181111561212d576000602083870101525b50601f01601f19169290920160200192915050565b600081518084526020808501945080840160005b8381101561217257815187529582019590820190600101612156565b509495945050505050565b80518252600060208201516080602085015261219c60808501826120f5565b905060408301516040850152606083015184820360608601526121bf8282612142565b95945050505050565b6020815260006121db602083018461217d565b9392505050565b8381526060602082015260006121fb60608301856120f5565b9050826040830152949350505050565b6000806040838503121561221e57600080fd5b82359150602083013567ffffffffffffffff81111561223c57600080fd5b61224885828601612012565b9150509250929050565b87815260e06020820152600061226b60e08301896120f5565b876040840152828103606084015261228381886120f5565b905085608084015282810360a084015261229d81866120f5565b9150508260c083015298975050505050505050565b6000806000606084860312156122c757600080fd5b833567ffffffffffffffff808211156122df57600080fd5b6122eb87838801612012565b945060208601359350604086013591508082111561230857600080fd5b5061231586828701612012565b9150509250925092565b60008060006060848603121561233457600080fd5b505081359360208301359350604090920135919050565b600061010082518452602083015181602086015261236b828601826120f5565b915050604083015160408501526060830151848203606086015261238f82826120f5565b915050608083015184820360808601526123a98282612142565b91505060a083015160a085015260c083015184820360c08601526123cd82826120f5565b91505060e083015160e08501528091505092915050565b6020815260006121db602083018461234b565b6000806040838503121561240a57600080fd5b50508035926020909101359150565b60608152600061242c60608301866120f5565b60208301949094525060400152919050565b60008261245b57634e487b7160e01b600052601260045260246000fd5b500690565b600181811c9082168061247457607f821691505b60208210810361249457634e487b7160e01b600052602260045260246000fd5b50919050565b634e487b7160e01b600052601160045260246000fd5b6000600182016124c2576124c261249a565b5060010190565b6040815260006124dc604083018561234b565b90508260208301529392505050565b600082198211156124fe576124fe61249a565b500190565b634e487b7160e01b600052603260045260246000fd5b8054600090600181811c908083168061253357607f831692505b6020808410820361255457634e487b7160e01b600052602260045260246000fd5b8388526020880182801561256f5760018114612580576125ab565b60ff198716825282820197506125ab565b60008981526020902060005b878110156125a55781548482015290860190840161258c565b83019850505b5050505050505092915050565b6000815480845260208085019450836000528060002060005b83811015612172578154875295820195600191820191016125d1565b60208152815460208201526000610100806040840152612614610120840160018601612519565b60028501546060850152601f19808583030160808601526126388260038801612519565b9150808583030160a086015261265182600488016125b8565b9150600586015460c0860152808583030160e0860152506126758160068701612519565b905060078501548285015280925050509291505056fea264697066735822122088423c6450aaf7b7a801167926b5f71f3a045ea5d60adf12e43f94846fd4df4764736f6c634300080d0033",
  "immutableReferences": {},
  "source": "// SPDX-License-Identifier: MIT\r\npragma solidity >=0.4.22 <0.9.0;\r\n\r\ncontract FakeProdId {\r\n    address owner = msg.sender;\r\n\r\n    struct Product{\r\n        uint productId;\r\n        string name;\r\n        uint price;\r\n        string description;\r\n        uint[] prevOwners;\r\n        uint prevOwnersSize;\r\n        string curOwner;\r\n        uint curOwnerId;\r\n    }\r\n\r\n    struct Supplier{\r\n        uint supplierId;\r\n        string name;\r\n        uint prodListSize;\r\n        uint[] productList;\r\n    }\r\n\r\n    struct Manufacturer{\r\n        uint manufacturerId;\r\n        string name;\r\n        uint prodListSize;\r\n        uint[] productList;\r\n    }\r\n\r\n    struct Distributor{\r\n        uint distributorId;\r\n        string name;\r\n        uint prodListSize;\r\n        uint[] productList;\r\n    }\r\n\r\n    struct Retailer{\r\n        uint retailerId;\r\n        string name;\r\n        uint prodListSize;\r\n        uint[] productList;\r\n    }\r\n\r\n    event prodDetails(\r\n        Product  prod,\r\n        uint productSize\r\n    );\r\n\r\n    event productDetails(\r\n        Product  prod\r\n    );\r\n\r\n    event supplierDetails(\r\n        Supplier newSupplier\r\n    );\r\n\r\n    event manufacturerDetails(\r\n        Manufacturer newManufacturer\r\n    );\r\n\r\n    event distributorDetails(\r\n        Distributor newDistributor\r\n    );\r\n\r\n    event retailerDetails(\r\n        Retailer newRetailer\r\n    );\r\n    \r\n    event completeSupplierTransaction(\r\n        Product p,\r\n        Supplier s,\r\n        Product p1\r\n    );\r\n    event completeTransaction(\r\n        Product product\r\n    );\r\n\r\n    mapping(uint => Product) public products;\r\n    uint productsSize=0;\r\n    mapping(uint => Supplier) public suppliers;\r\n    mapping(uint => Manufacturer) public manufacturers;\r\n    mapping(uint => Distributor) public distributors;\r\n    mapping(uint => Retailer) public retailers;\r\n\r\n    function addProduct(string memory name,uint price,string memory description) public{\r\n        Product memory newProduct;\r\n        newProduct.productId=productsSize;\r\n        newProduct.name = name;\r\n        newProduct.price = price;\r\n        newProduct.description = description;\r\n        newProduct.curOwner = '';\r\n        newProduct.curOwnerId = 0;\r\n        newProduct.prevOwners = new uint[](4);\r\n        newProduct.prevOwnersSize = 0;\r\n        products[newProduct.productId] = newProduct;\r\n        productsSize++;\r\n        \r\n        emit prodDetails(newProduct,productsSize);\r\n    }\r\n\r\n    function modifyName(uint productId,string memory newName) public{\r\n        Product memory prod = getProduct(productId);\r\n        prod.name = newName;\r\n        emit productDetails(prod);\r\n    }\r\n\r\n    function modifyOwner(uint productId,string memory newOwnerName) public{\r\n        Product memory prod = getProduct(productId);\r\n        prod.curOwner = newOwnerName;\r\n        emit productDetails(prod);\r\n    }\r\n    \r\n    function getProduct(uint productId) public view returns (Product memory){\r\n        return products[productId];\r\n    }\r\n\r\n    function addSupplier(string memory name) public{\r\n        Supplier memory newSupplier;\r\n        newSupplier.supplierId=uint(keccak256(abi.encode(name,block.timestamp,block.difficulty)));\r\n        newSupplier.supplierId = newSupplier.supplierId%100000000;\r\n        newSupplier.name = name;\r\n        newSupplier.productList = new uint[](0);\r\n        newSupplier.prodListSize = 0;\r\n        suppliers[newSupplier.supplierId] = newSupplier;\r\n        emit supplierDetails(newSupplier);\r\n    }\r\n\r\n    function getsupplierDetails(uint supplierId) public view returns (Supplier memory){\r\n        return suppliers[supplierId];\r\n    }\r\n\r\n    function addManufacturer(string memory name) public{\r\n        Manufacturer memory newManufacturer;\r\n        newManufacturer.manufacturerId=uint(keccak256(abi.encode(name,block.timestamp,block.difficulty)))%100000000;\r\n        newManufacturer.name = name;\r\n        newManufacturer.productList = new uint[](0);\r\n        newManufacturer.prodListSize = 0;\r\n\r\n        manufacturers[newManufacturer.manufacturerId] = newManufacturer;\r\n        \r\n        emit manufacturerDetails(newManufacturer);\r\n    }\r\n\r\n    function getmanufacturerDetails(uint manufacturerId) public view returns (Manufacturer memory){\r\n        return manufacturers[manufacturerId];\r\n    }\r\n\r\n    function addDistributor(string memory name) public{\r\n        Distributor memory newDistributor;\r\n        newDistributor.distributorId=uint(keccak256(abi.encode(name,block.timestamp,block.difficulty)))%100000000;\r\n        newDistributor.name = name;\r\n        newDistributor.productList = new uint[](0);\r\n        newDistributor.prodListSize = 0;\r\n\r\n        distributors[newDistributor.distributorId] = newDistributor;\r\n        \r\n        emit distributorDetails(newDistributor);\r\n    }\r\n    \r\n    function getdistributorDetails(uint distributorId) public view returns (Distributor memory){\r\n        return distributors[distributorId];\r\n    }\r\n\r\n    function addRetailer(string memory name) public{\r\n        Retailer memory newRetailer;\r\n        newRetailer.retailerId=uint(keccak256(abi.encode(name,block.timestamp,block.difficulty)))%100000000;\r\n        newRetailer.name = name;\r\n        newRetailer.productList = new uint[](0);\r\n        newRetailer.prodListSize = 0;\r\n        retailers[newRetailer.retailerId] = newRetailer;\r\n        emit retailerDetails(newRetailer);\r\n    }\r\n\r\n    function getretailerDetails(uint retailerId) public view returns (Retailer memory){\r\n        return retailers[retailerId];\r\n    }\r\n\r\n    function supplierTransaction(uint productId,uint supplierId) payable public{\r\n        Supplier memory s = getsupplierDetails(supplierId);\r\n        Product memory p = getProduct(productId);\r\n        \r\n        p.curOwner = s.name;\r\n        p.curOwnerId = s.supplierId;\r\n\r\n        products[productId] = p;\r\n\r\n        uint[] memory temp = new uint[](s.prodListSize+1);\r\n        for(uint i=0;i<s.prodListSize;i++){\r\n            temp[i] = s.productList[i];\r\n        }\r\n        temp[s.prodListSize] = productId;\r\n        s.prodListSize++;\r\n        s.productList = temp;\r\n        \r\n        suppliers[supplierId] = s;\r\n\r\n        emit completeTransaction(products[productId]);\r\n    }\r\n\r\n    function supplierToManufacturer(uint productId,uint supplierId,uint manufacturerId) payable public{\r\n        Product memory p = getProduct(productId);\r\n\r\n        require(p.curOwnerId == supplierId, \"Supplier is not the current owner of the product\");\r\n\r\n        Manufacturer memory m = getmanufacturerDetails(manufacturerId);\r\n\r\n        p.curOwner = m.name;\r\n        p.curOwnerId = m.manufacturerId;\r\n\r\n        uint[] memory temp = new uint[](p.prevOwnersSize+1);\r\n        for(uint i=0;i<p.prevOwnersSize;i++){\r\n            temp[i] = p.prevOwners[i];\r\n        }\r\n        temp[p.prevOwnersSize] = supplierId;\r\n        p.prevOwnersSize++;\r\n        p.prevOwners = temp;\r\n\r\n        products[productId] = p;\r\n\r\n        uint[] memory temp1 = new uint[](m.prodListSize+1);\r\n        for(uint i=0;i<m.prodListSize;i++){\r\n            temp[i] = m.productList[i];\r\n        }\r\n        temp1[m.prodListSize] = productId;\r\n        m.prodListSize++;\r\n        m.productList = temp1;\r\n\r\n        manufacturers[manufacturerId] = m;\r\n\r\n        emit completeTransaction(products[productId]);\r\n    }\r\n\r\n    function manufacturerToDistributor(uint productId,uint manufacturerId,uint distributorId) payable public{\r\n        Product memory p = getProduct(productId);\r\n\r\n        require(p.curOwnerId == manufacturerId, \"Manufacturer is not the current owner of the product\");\r\n        \r\n        Distributor memory d = getdistributorDetails(distributorId);\r\n\r\n        p.curOwner = d.name;\r\n        p.curOwnerId = d.distributorId;\r\n\r\n        uint[] memory temp = new uint[](p.prevOwnersSize+1);\r\n        for(uint i=0;i<p.prevOwnersSize;i++){\r\n            temp[i] = p.prevOwners[i];\r\n        }\r\n        temp[p.prevOwnersSize] = manufacturerId;\r\n        p.prevOwnersSize++;\r\n        p.prevOwners = temp;\r\n\r\n        products[productId] = p;\r\n\r\n        uint[] memory temp1 = new uint[](d.prodListSize+1);\r\n        for(uint i=0;i<d.prodListSize;i++){\r\n            temp1[i] = d.productList[i];\r\n        }\r\n        temp1[d.prodListSize] = productId;\r\n        d.prodListSize++;\r\n        d.productList = temp1;\r\n        distributors[distributorId] = d;\r\n\r\n        emit completeTransaction(p);\r\n    }\r\n\r\n    function distributorToRetailer(uint productId,uint distributorId,uint retailerId) payable public{\r\n        Product memory p = getProduct(productId);\r\n\r\n        require(p.curOwnerId == distributorId, \"Distributor is not the current owner of the product\");\r\n\r\n        Retailer memory r = getretailerDetails(retailerId);\r\n\r\n        p.curOwner = r.name;\r\n        p.curOwnerId = r.retailerId;\r\n        uint[] memory temp = new uint[](p.prevOwnersSize+1);\r\n        for(uint i=0;i<p.prevOwnersSize;i++){\r\n            temp[i] = p.prevOwners[i];\r\n        }\r\n        temp[p.prevOwnersSize] = distributorId;\r\n        p.prevOwnersSize++;\r\n\r\n        p.prevOwners = temp;\r\n\r\n        products[productId] = p;\r\n\r\n        uint[] memory temp1 = new uint[](r.prodListSize+1);\r\n        for(uint i=0;i<r.prodListSize;i++){\r\n            temp1[i] = r.productList[i];\r\n        }\r\n        temp1[r.prodListSize] = productId;\r\n        r.prodListSize++;\r\n        r.productList = temp1;\r\n        retailers[retailerId] = r;\r\n\r\n        emit completeTransaction(p);\r\n    }\r\n    \r\n    // modifier restricted(){\r\n    //     require(msg.sender == owner);\r\n    //     _;\r\n    // }\r\n\r\n    \r\n}\r\n",
  "sourcePath": "C:\\Users\\ASUS\\Desktop\\CounterFeitedProductID\\contracts\\contracts\\FakeProdId.sol",
  "compiler": {
    "name": "solc",
    "version": "0.8.13+commit.abaa5c0e.Emscripten.clang"
  },
  "schemaVersion": "3.4.6",
  "updatedAt": "2022-05-25T06:56:32.040Z",
  "devdoc": {
    "kind": "dev",
    "methods": {},
    "version": 1
  },
  "userdoc": {
    "kind": "user",
    "methods": {},
    "version": 1
  }
}