{
  "contractName": "FakeProdId",
  "abi": [
    {
      "anonymous": false,
      "inputs": [
        {
          "components": [
            {
              "internalType": "uint256",
              "name": "productId",
              "type": "uint256"
            },
            {
              "internalType": "string",
              "name": "name",
              "type": "string"
            },
            {
              "internalType": "uint256",
              "name": "price",
              "type": "uint256"
            },
            {
              "internalType": "string",
              "name": "description",
              "type": "string"
            },
            {
              "internalType": "uint256[]",
              "name": "prevOwners",
              "type": "uint256[]"
            },
            {
              "internalType": "uint256",
              "name": "prevOwnersSize",
              "type": "uint256"
            },
            {
              "internalType": "string",
              "name": "curOwner",
              "type": "string"
            },
            {
              "internalType": "uint256",
              "name": "curOwnerId",
              "type": "uint256"
            }
          ],
          "indexed": false,
          "internalType": "struct FakeProdId.Product",
          "name": "p",
          "type": "tuple"
        },
        {
          "components": [
            {
              "internalType": "uint256",
              "name": "supplierId",
              "type": "uint256"
            },
            {
              "internalType": "string",
              "name": "name",
              "type": "string"
            },
            {
              "internalType": "uint256",
              "name": "prodListSize",
              "type": "uint256"
            },
            {
              "internalType": "uint256[]",
              "name": "productList",
              "type": "uint256[]"
            }
          ],
          "indexed": false,
          "internalType": "struct FakeProdId.Supplier",
          "name": "s",
          "type": "tuple"
        },
        {
          "components": [
            {
              "internalType": "uint256",
              "name": "productId",
              "type": "uint256"
            },
            {
              "internalType": "string",
              "name": "name",
              "type": "string"
            },
            {
              "internalType": "uint256",
              "name": "price",
              "type": "uint256"
            },
            {
              "internalType": "string",
              "name": "description",
              "type": "string"
            },
            {
              "internalType": "uint256[]",
              "name": "prevOwners",
              "type": "uint256[]"
            },
            {
              "internalType": "uint256",
              "name": "prevOwnersSize",
              "type": "uint256"
            },
            {
              "internalType": "string",
              "name": "curOwner",
              "type": "string"
            },
            {
              "internalType": "uint256",
              "name": "curOwnerId",
              "type": "uint256"
            }
          ],
          "indexed": false,
          "internalType": "struct FakeProdId.Product",
          "name": "p1",
          "type": "tuple"
        }
      ],
      "name": "completeSupplierTransaction",
      "type": "event"
    },
    {
      "anonymous": false,
      "inputs": [
        {
          "components": [
            {
              "internalType": "uint256",
              "name": "productId",
              "type": "uint256"
            },
            {
              "internalType": "string",
              "name": "name",
              "type": "string"
            },
            {
              "internalType": "uint256",
              "name": "price",
              "type": "uint256"
            },
            {
              "internalType": "string",
              "name": "description",
              "type": "string"
            },
            {
              "internalType": "uint256[]",
              "name": "prevOwners",
              "type": "uint256[]"
            },
            {
              "internalType": "uint256",
              "name": "prevOwnersSize",
              "type": "uint256"
            },
            {
              "internalType": "string",
              "name": "curOwner",
              "type": "string"
            },
            {
              "internalType": "uint256",
              "name": "curOwnerId",
              "type": "uint256"
            }
          ],
          "indexed": false,
          "internalType": "struct FakeProdId.Product",
          "name": "product",
          "type": "tuple"
        }
      ],
      "name": "completeTransaction",
      "type": "event"
    },
    {
      "anonymous": false,
      "inputs": [
        {
          "components": [
            {
              "internalType": "uint256",
              "name": "distributorId",
              "type": "uint256"
            },
            {
              "internalType": "string",
              "name": "name",
              "type": "string"
            },
            {
              "internalType": "uint256",
              "name": "prodListSize",
              "type": "uint256"
            },
            {
              "internalType": "uint256[]",
              "name": "productList",
              "type": "uint256[]"
            }
          ],
          "indexed": false,
          "internalType": "struct FakeProdId.Distributor",
          "name": "newDistributor",
          "type": "tuple"
        }
      ],
      "name": "distributorDetails",
      "type": "event"
    },
    {
      "anonymous": false,
      "inputs": [
        {
          "components": [
            {
              "internalType": "uint256",
              "name": "manufacturerId",
              "type": "uint256"
            },
            {
              "internalType": "string",
              "name": "name",
              "type": "string"
            },
            {
              "internalType": "uint256",
              "name": "prodListSize",
              "type": "uint256"
            },
            {
              "internalType": "uint256[]",
              "name": "productList",
              "type": "uint256[]"
            }
          ],
          "indexed": false,
          "internalType": "struct FakeProdId.Manufacturer",
          "name": "newManufacturer",
          "type": "tuple"
        }
      ],
      "name": "manufacturerDetails",
      "type": "event"
    },
    {
      "anonymous": false,
      "inputs": [
        {
          "components": [
            {
              "internalType": "uint256",
              "name": "productId",
              "type": "uint256"
            },
            {
              "internalType": "string",
              "name": "name",
              "type": "string"
            },
            {
              "internalType": "uint256",
              "name": "price",
              "type": "uint256"
            },
            {
              "internalType": "string",
              "name": "description",
              "type": "string"
            },
            {
              "internalType": "uint256[]",
              "name": "prevOwners",
              "type": "uint256[]"
            },
            {
              "internalType": "uint256",
              "name": "prevOwnersSize",
              "type": "uint256"
            },
            {
              "internalType": "string",
              "name": "curOwner",
              "type": "string"
            },
            {
              "internalType": "uint256",
              "name": "curOwnerId",
              "type": "uint256"
            }
          ],
          "indexed": false,
          "internalType": "struct FakeProdId.Product",
          "name": "prod",
          "type": "tuple"
        },
        {
          "indexed": false,
          "internalType": "uint256",
          "name": "productSize",
          "type": "uint256"
        }
      ],
      "name": "prodDetails",
      "type": "event"
    },
    {
      "anonymous": false,
      "inputs": [
        {
          "components": [
            {
              "internalType": "uint256",
              "name": "retailerId",
              "type": "uint256"
            },
            {
              "internalType": "string",
              "name": "name",
              "type": "string"
            },
            {
              "internalType": "uint256",
              "name": "prodListSize",
              "type": "uint256"
            },
            {
              "internalType": "uint256[]",
              "name": "productList",
              "type": "uint256[]"
            }
          ],
          "indexed": false,
          "internalType": "struct FakeProdId.Retailer",
          "name": "newRetailer",
          "type": "tuple"
        }
      ],
      "name": "retailerDetails",
      "type": "event"
    },
    {
      "anonymous": false,
      "inputs": [
        {
          "components": [
            {
              "internalType": "uint256",
              "name": "supplierId",
              "type": "uint256"
            },
            {
              "internalType": "string",
              "name": "name",
              "type": "string"
            },
            {
              "internalType": "uint256",
              "name": "prodListSize",
              "type": "uint256"
            },
            {
              "internalType": "uint256[]",
              "name": "productList",
              "type": "uint256[]"
            }
          ],
          "indexed": false,
          "internalType": "struct FakeProdId.Supplier",
          "name": "newSupplier",
          "type": "tuple"
        }
      ],
      "name": "supplierDetails",
      "type": "event"
    },
    {
      "inputs": [
        {
          "internalType": "uint256",
          "name": "",
          "type": "uint256"
        }
      ],
      "name": "distributors",
      "outputs": [
        {
          "internalType": "uint256",
          "name": "distributorId",
          "type": "uint256"
        },
        {
          "internalType": "string",
          "name": "name",
          "type": "string"
        },
        {
          "internalType": "uint256",
          "name": "prodListSize",
          "type": "uint256"
        }
      ],
      "stateMutability": "view",
      "type": "function"
    },
    {
      "inputs": [
        {
          "internalType": "uint256",
          "name": "",
          "type": "uint256"
        }
      ],
      "name": "manufacturers",
      "outputs": [
        {
          "internalType": "uint256",
          "name": "manufacturerId",
          "type": "uint256"
        },
        {
          "internalType": "string",
          "name": "name",
          "type": "string"
        },
        {
          "internalType": "uint256",
          "name": "prodListSize",
          "type": "uint256"
        }
      ],
      "stateMutability": "view",
      "type": "function"
    },
    {
      "inputs": [
        {
          "internalType": "uint256",
          "name": "",
          "type": "uint256"
        }
      ],
      "name": "products",
      "outputs": [
        {
          "internalType": "uint256",
          "name": "productId",
          "type": "uint256"
        },
        {
          "internalType": "string",
          "name": "name",
          "type": "string"
        },
        {
          "internalType": "uint256",
          "name": "price",
          "type": "uint256"
        },
        {
          "internalType": "string",
          "name": "description",
          "type": "string"
        },
        {
          "internalType": "uint256",
          "name": "prevOwnersSize",
          "type": "uint256"
        },
        {
          "internalType": "string",
          "name": "curOwner",
          "type": "string"
        },
        {
          "internalType": "uint256",
          "name": "curOwnerId",
          "type": "uint256"
        }
      ],
      "stateMutability": "view",
      "type": "function"
    },
    {
      "inputs": [
        {
          "internalType": "uint256",
          "name": "",
          "type": "uint256"
        }
      ],
      "name": "retailers",
      "outputs": [
        {
          "internalType": "uint256",
          "name": "retailerId",
          "type": "uint256"
        },
        {
          "internalType": "string",
          "name": "name",
          "type": "string"
        },
        {
          "internalType": "uint256",
          "name": "prodListSize",
          "type": "uint256"
        }
      ],
      "stateMutability": "view",
      "type": "function"
    },
    {
      "inputs": [
        {
          "internalType": "uint256",
          "name": "",
          "type": "uint256"
        }
      ],
      "name": "suppliers",
      "outputs": [
        {
          "internalType": "uint256",
          "name": "supplierId",
          "type": "uint256"
        },
        {
          "internalType": "string",
          "name": "name",
          "type": "string"
        },
        {
          "internalType": "uint256",
          "name": "prodListSize",
          "type": "uint256"
        }
      ],
      "stateMutability": "view",
      "type": "function"
    },
    {
      "inputs": [
        {
          "internalType": "string",
          "name": "name",
          "type": "string"
        },
        {
          "internalType": "uint256",
          "name": "price",
          "type": "uint256"
        },
        {
          "internalType": "string",
          "name": "description",
          "type": "string"
        },
        {
          "internalType": "string",
          "name": "curOwnerName",
          "type": "string"
        }
      ],
      "name": "addProduct",
      "outputs": [],
      "stateMutability": "nonpayable",
      "type": "function"
    },
    {
      "inputs": [
        {
          "internalType": "uint256",
          "name": "productId",
          "type": "uint256"
        }
      ],
      "name": "getProduct",
      "outputs": [
        {
          "components": [
            {
              "internalType": "uint256",
              "name": "productId",
              "type": "uint256"
            },
            {
              "internalType": "string",
              "name": "name",
              "type": "string"
            },
            {
              "internalType": "uint256",
              "name": "price",
              "type": "uint256"
            },
            {
              "internalType": "string",
              "name": "description",
              "type": "string"
            },
            {
              "internalType": "uint256[]",
              "name": "prevOwners",
              "type": "uint256[]"
            },
            {
              "internalType": "uint256",
              "name": "prevOwnersSize",
              "type": "uint256"
            },
            {
              "internalType": "string",
              "name": "curOwner",
              "type": "string"
            },
            {
              "internalType": "uint256",
              "name": "curOwnerId",
              "type": "uint256"
            }
          ],
          "internalType": "struct FakeProdId.Product",
          "name": "",
          "type": "tuple"
        }
      ],
      "stateMutability": "view",
      "type": "function"
    },
    {
      "inputs": [
        {
          "internalType": "string",
          "name": "name",
          "type": "string"
        }
      ],
      "name": "addSupplier",
      "outputs": [],
      "stateMutability": "nonpayable",
      "type": "function"
    },
    {
      "inputs": [
        {
          "internalType": "uint256",
          "name": "supplierId",
          "type": "uint256"
        }
      ],
      "name": "getsupplierDetails",
      "outputs": [
        {
          "components": [
            {
              "internalType": "uint256",
              "name": "supplierId",
              "type": "uint256"
            },
            {
              "internalType": "string",
              "name": "name",
              "type": "string"
            },
            {
              "internalType": "uint256",
              "name": "prodListSize",
              "type": "uint256"
            },
            {
              "internalType": "uint256[]",
              "name": "productList",
              "type": "uint256[]"
            }
          ],
          "internalType": "struct FakeProdId.Supplier",
          "name": "",
          "type": "tuple"
        }
      ],
      "stateMutability": "view",
      "type": "function"
    },
    {
      "inputs": [
        {
          "internalType": "string",
          "name": "name",
          "type": "string"
        }
      ],
      "name": "addManufacturer",
      "outputs": [],
      "stateMutability": "nonpayable",
      "type": "function"
    },
    {
      "inputs": [
        {
          "internalType": "uint256",
          "name": "manufacturerId",
          "type": "uint256"
        }
      ],
      "name": "getmanufacturerDetails",
      "outputs": [
        {
          "components": [
            {
              "internalType": "uint256",
              "name": "manufacturerId",
              "type": "uint256"
            },
            {
              "internalType": "string",
              "name": "name",
              "type": "string"
            },
            {
              "internalType": "uint256",
              "name": "prodListSize",
              "type": "uint256"
            },
            {
              "internalType": "uint256[]",
              "name": "productList",
              "type": "uint256[]"
            }
          ],
          "internalType": "struct FakeProdId.Manufacturer",
          "name": "",
          "type": "tuple"
        }
      ],
      "stateMutability": "view",
      "type": "function"
    },
    {
      "inputs": [
        {
          "internalType": "string",
          "name": "name",
          "type": "string"
        }
      ],
      "name": "addDistributor",
      "outputs": [],
      "stateMutability": "nonpayable",
      "type": "function"
    },
    {
      "inputs": [
        {
          "internalType": "uint256",
          "name": "distributorId",
          "type": "uint256"
        }
      ],
      "name": "getdistributorDetails",
      "outputs": [
        {
          "components": [
            {
              "internalType": "uint256",
              "name": "distributorId",
              "type": "uint256"
            },
            {
              "internalType": "string",
              "name": "name",
              "type": "string"
            },
            {
              "internalType": "uint256",
              "name": "prodListSize",
              "type": "uint256"
            },
            {
              "internalType": "uint256[]",
              "name": "productList",
              "type": "uint256[]"
            }
          ],
          "internalType": "struct FakeProdId.Distributor",
          "name": "",
          "type": "tuple"
        }
      ],
      "stateMutability": "view",
      "type": "function"
    },
    {
      "inputs": [
        {
          "internalType": "string",
          "name": "name",
          "type": "string"
        }
      ],
      "name": "addRetailer",
      "outputs": [],
      "stateMutability": "nonpayable",
      "type": "function"
    },
    {
      "inputs": [
        {
          "internalType": "uint256",
          "name": "retailerId",
          "type": "uint256"
        }
      ],
      "name": "getretailerDetails",
      "outputs": [
        {
          "components": [
            {
              "internalType": "uint256",
              "name": "retailerId",
              "type": "uint256"
            },
            {
              "internalType": "string",
              "name": "name",
              "type": "string"
            },
            {
              "internalType": "uint256",
              "name": "prodListSize",
              "type": "uint256"
            },
            {
              "internalType": "uint256[]",
              "name": "productList",
              "type": "uint256[]"
            }
          ],
          "internalType": "struct FakeProdId.Retailer",
          "name": "",
          "type": "tuple"
        }
      ],
      "stateMutability": "view",
      "type": "function"
    },
    {
      "inputs": [
        {
          "internalType": "uint256",
          "name": "productId",
          "type": "uint256"
        },
        {
          "internalType": "uint256",
          "name": "supplierId",
          "type": "uint256"
        }
      ],
      "name": "supplierTransaction",
      "outputs": [],
      "stateMutability": "payable",
      "type": "function"
    },
    {
      "inputs": [
        {
          "internalType": "uint256",
          "name": "productId",
          "type": "uint256"
        },
        {
          "internalType": "uint256",
          "name": "supplierId",
          "type": "uint256"
        },
        {
          "internalType": "uint256",
          "name": "manufacturerId",
          "type": "uint256"
        }
      ],
      "name": "supplierToManufacturer",
      "outputs": [],
      "stateMutability": "payable",
      "type": "function"
    },
    {
      "inputs": [
        {
          "internalType": "uint256",
          "name": "productId",
          "type": "uint256"
        },
        {
          "internalType": "uint256",
          "name": "manufacturerId",
          "type": "uint256"
        },
        {
          "internalType": "uint256",
          "name": "distributorId",
          "type": "uint256"
        }
      ],
      "name": "manufacturerToDistributor",
      "outputs": [],
      "stateMutability": "payable",
      "type": "function"
    },
    {
      "inputs": [
        {
          "internalType": "uint256",
          "name": "productId",
          "type": "uint256"
        },
        {
          "internalType": "uint256",
          "name": "distributorId",
          "type": "uint256"
        },
        {
          "internalType": "uint256",
          "name": "retailerId",
          "type": "uint256"
        }
      ],
      "name": "distributorToRetailer",
      "outputs": [],
      "stateMutability": "payable",
      "type": "function"
    }
  ],
  "bytecode": "0x6080604052600080546001600160a01b0319163317815560025534801561002557600080fd5b50612599806100356000396000f3fe6080604052600436106101145760003560e01c806395d00407116100a0578063cb80c41911610064578063cb80c419146102f9578063cda5e4a514610319578063cea2312114610339578063d732ce3214610359578063d84594641461037957600080fd5b806395d0040714610273578063ae2ce44414610293578063b55be240146102a6578063b9db15b4146102b9578063bbb7b0c3146102e657600080fd5b80637acc0b20116100e75780637acc0b20146101c057806381d9def2146101f3578063897ec7df146102135780638f5ae7991461023357806390175af11461025357600080fd5b806315533a2714610119578063333f3dd01461013b5780633779643f1461017157806350b492ba14610191575b600080fd5b34801561012557600080fd5b50610139610134366004611f99565b61038c565b005b34801561014757600080fd5b5061015b610156366004611fd6565b6104a5565b60405161016891906120c2565b60405180910390f35b34801561017d57600080fd5b5061015b61018c366004611fd6565b6105f3565b34801561019d57600080fd5b506101b16101ac366004611fd6565b610656565b604051610168939291906120dc565b3480156101cc57600080fd5b506101e06101db366004611fd6565b610701565b6040516101689796959493929190612105565b3480156101ff57600080fd5b5061013961020e366004611f99565b6108d3565b34801561021f57600080fd5b506101b161022e366004611fd6565b6109de565b34801561023f57600080fd5b5061013961024e366004611f99565b610a00565b34801561025f57600080fd5b506101b161026e366004611fd6565b610b0b565b34801561027f57600080fd5b5061013961028e366004611f99565b610b2d565b6101396102a1366004612165565b610c38565b6101396102b4366004612165565b610ff5565b3480156102c557600080fd5b506102d96102d4366004611fd6565b611342565b604051610168919061222a565b6101396102f4366004612165565b61159f565b34801561030557600080fd5b5061015b610314366004611fd6565b61194f565b34801561032557600080fd5b5061015b610334366004611fd6565b6119b2565b34801561034557600080fd5b506101b1610354366004611fd6565b611a15565b34801561036557600080fd5b5061013961037436600461223d565b611a37565b6101396103873660046122cf565b611b8b565b6103b76040518060800160405280600081526020016060815260200160008152602001606081525090565b8142446040516020016103cc939291906122f1565b60408051601f1981840301815291905280516020909101208082526103f6906305f5e10090612316565b815260208082018381526040805160008082528185018352606086019190915281850181905284518152600384522083518155905180518493610440926001850192910190611dde565b506040820151600282015560608201518051610466916003840191602090910190611e62565b509050507f6a0d3358a206a867cb0ac893ea0bf823382708098c1786909b7fa08b3f9a824b8160405161049991906120c2565b60405180910390a15050565b6104d06040518060800160405280600081526020016060815260200160008152602001606081525090565b600560008381526020019081526020016000206040518060800160405290816000820154815260200160018201805461050890612338565b80601f016020809104026020016040519081016040528092919081815260200182805461053490612338565b80156105815780601f1061055657610100808354040283529160200191610581565b820191906000526020600020905b81548152906001019060200180831161056457829003601f168201915b5050505050815260200160028201548152602001600382018054806020026020016040519081016040528092919081815260200182805480156105e357602002820191906000526020600020905b8154815260200190600101908083116105cf575b5050505050815250509050919050565b61061e6040518060800160405280600081526020016060815260200160008152602001606081525090565b600360008381526020019081526020016000206040518060800160405290816000820154815260200160018201805461050890612338565b6005602052600090815260409020805460018201805491929161067890612338565b80601f01602080910402602001604051908101604052809291908181526020018280546106a490612338565b80156106f15780601f106106c6576101008083540402835291602001916106f1565b820191906000526020600020905b8154815290600101906020018083116106d457829003601f168201915b5050505050908060020154905083565b60016020819052600091825260409091208054918101805461072290612338565b80601f016020809104026020016040519081016040528092919081815260200182805461074e90612338565b801561079b5780601f106107705761010080835404028352916020019161079b565b820191906000526020600020905b81548152906001019060200180831161077e57829003601f168201915b5050505050908060020154908060030180546107b690612338565b80601f01602080910402602001604051908101604052809291908181526020018280546107e290612338565b801561082f5780601f106108045761010080835404028352916020019161082f565b820191906000526020600020905b81548152906001019060200180831161081257829003601f168201915b50505050509080600501549080600601805461084a90612338565b80601f016020809104026020016040519081016040528092919081815260200182805461087690612338565b80156108c35780601f10610898576101008083540402835291602001916108c3565b820191906000526020600020905b8154815290600101906020018083116108a657829003601f168201915b5050505050908060070154905087565b6108fe6040518060800160405280600081526020016060815260200160008152602001606081525090565b6305f5e100824244604051602001610918939291906122f1565b6040516020818303038152906040528051906020012060001c61093b9190612316565b815260208082018381526040805160008082528185018352606086019190915281850181905284518152600584522083518155905180518493610985926001850192910190611dde565b5060408201516002820155606082015180516109ab916003840191602090910190611e62565b509050507fde4c5619ba74ae7a0920bdd8f4a4b454e730bcdf5dd8d7034a0e6a1a122d7aa68160405161049991906120c2565b6006602052600090815260409020805460018201805491929161067890612338565b610a2b6040518060800160405280600081526020016060815260200160008152602001606081525090565b6305f5e100824244604051602001610a45939291906122f1565b6040516020818303038152906040528051906020012060001c610a689190612316565b815260208082018381526040805160008082528185018352606086019190915281850181905284518152600484522083518155905180518493610ab2926001850192910190611dde565b506040820151600282015560608201518051610ad8916003840191602090910190611e62565b509050507ffc3817a81579163ea44380ad905e2cc0417138a02b06c5b5a85ef88d0c360d728160405161049991906120c2565b6004602052600090815260409020805460018201805491929161067890612338565b610b586040518060800160405280600081526020016060815260200160008152602001606081525090565b6305f5e100824244604051602001610b72939291906122f1565b6040516020818303038152906040528051906020012060001c610b959190612316565b815260208082018381526040805160008082528185018352606086019190915281850181905284518152600684522083518155905180518493610bdf926001850192910190611dde565b506040820151600282015560608201518051610c05916003840191602090910190611e62565b509050507f48b295dbd2dde57075e837c2add5113c3a864d21ad68e1acb6ec3233afea585f8160405161049991906120c2565b6000610c4384611342565b9050828160e0015114610cba5760405162461bcd60e51b815260206004820152603460248201527f4d616e756661637475726572206973206e6f74207468652063757272656e74206044820152731bdddb995c881bd9881d1a19481c1c9bd91d58dd60621b60648201526084015b60405180910390fd5b6000610cc5836104a5565b602081015160c0840152805160e084015260a0830151909150600090610cec906001612388565b67ffffffffffffffff811115610d0457610d04611ef6565b604051908082528060200260200182016040528015610d2d578160200160208202803683370190505b50905060005b8360a00151811015610d8c5783608001518181518110610d5557610d556123a0565b6020026020010151828281518110610d6f57610d6f6123a0565b602090810291909101015280610d84816123b6565b915050610d33565b5084818460a0015181518110610da457610da46123a0565b602090810291909101015260a08301805190610dbf826123b6565b9052506080830181905260008681526001602081815260409092208551815582860151805187949293610df793908501920190611dde565b506040820151600282015560608201518051610e1d916003840191602090910190611dde565b5060808201518051610e39916004840191602090910190611e62565b5060a0820151600582015560c08201518051610e5f916006840191602090910190611dde565b5060e08201518160070155905050600082604001516001610e809190612388565b67ffffffffffffffff811115610e9857610e98611ef6565b604051908082528060200260200182016040528015610ec1578160200160208202803683370190505b50905060005b8360400151811015610f205783606001518181518110610ee957610ee96123a0565b6020026020010151828281518110610f0357610f036123a0565b602090810291909101015280610f18816123b6565b915050610ec7565b508681846040015181518110610f3857610f386123a0565b602090810291909101015260408301805190610f53826123b6565b905250606083018190526000858152600560209081526040909120845181558185015180518693610f8b926001850192910190611dde565b506040820151600282015560608201518051610fb1916003840191602090910190611e62565b509050507fdb38a0f551885a9e8666b66db8057c351d8f70150c869d99953a3051b52cc36a84604051610fe4919061222a565b60405180910390a150505050505050565b600061100084611342565b9050828160e00151146110715760405162461bcd60e51b815260206004820152603360248201527f4469737472696275746f72206973206e6f74207468652063757272656e74206f6044820152721ddb995c881bd9881d1a19481c1c9bd91d58dd606a1b6064820152608401610cb1565b600061107c836119b2565b602081015160c0840152805160e084015260a08301519091506000906110a3906001612388565b67ffffffffffffffff8111156110bb576110bb611ef6565b6040519080825280602002602001820160405280156110e4578160200160208202803683370190505b50905060005b8360a00151811015611143578360800151818151811061110c5761110c6123a0565b6020026020010151828281518110611126576111266123a0565b60209081029190910101528061113b816123b6565b9150506110ea565b5084818460a001518151811061115b5761115b6123a0565b602090810291909101015260a08301805190611176826123b6565b90525060808301819052600086815260016020818152604090922085518155828601518051879492936111ae93908501920190611dde565b5060408201516002820155606082015180516111d4916003840191602090910190611dde565b50608082015180516111f0916004840191602090910190611e62565b5060a0820151600582015560c08201518051611216916006840191602090910190611dde565b5060e082015181600701559050506000826040015160016112379190612388565b67ffffffffffffffff81111561124f5761124f611ef6565b604051908082528060200260200182016040528015611278578160200160208202803683370190505b50905060005b83604001518110156112d757836060015181815181106112a0576112a06123a0565b60200260200101518282815181106112ba576112ba6123a0565b6020908102919091010152806112cf816123b6565b91505061127e565b5086818460400151815181106112ef576112ef6123a0565b60209081029190910101526040830180519061130a826123b6565b905250606083018190526000858152600660209081526040909120845181558185015180518693610f8b926001850192910190611dde565b61134a611e9c565b600082815260016020818152604092839020835161010081019094528054845291820180549184019161137c90612338565b80601f01602080910402602001604051908101604052809291908181526020018280546113a890612338565b80156113f55780601f106113ca576101008083540402835291602001916113f5565b820191906000526020600020905b8154815290600101906020018083116113d857829003601f168201915b505050505081526020016002820154815260200160038201805461141890612338565b80601f016020809104026020016040519081016040528092919081815260200182805461144490612338565b80156114915780601f1061146657610100808354040283529160200191611491565b820191906000526020600020905b81548152906001019060200180831161147457829003601f168201915b50505050508152602001600482018054806020026020016040519081016040528092919081815260200182805480156114e957602002820191906000526020600020905b8154815260200190600101908083116114d5575b505050505081526020016005820154815260200160068201805461150c90612338565b80601f016020809104026020016040519081016040528092919081815260200182805461153890612338565b80156115855780601f1061155a57610100808354040283529160200191611585565b820191906000526020600020905b81548152906001019060200180831161156857829003601f168201915b505050505081526020016007820154815250509050919050565b60006115aa84611342565b9050828160e00151146116185760405162461bcd60e51b815260206004820152603060248201527f537570706c696572206973206e6f74207468652063757272656e74206f776e6560448201526f1c881bd9881d1a19481c1c9bd91d58dd60821b6064820152608401610cb1565b60006116238361194f565b602081015160c0840152805160e084015260a083015190915060009061164a906001612388565b67ffffffffffffffff81111561166257611662611ef6565b60405190808252806020026020018201604052801561168b578160200160208202803683370190505b50905060005b8360a001518110156116ea57836080015181815181106116b3576116b36123a0565b60200260200101518282815181106116cd576116cd6123a0565b6020908102919091010152806116e2816123b6565b915050611691565b5084818460a0015181518110611702576117026123a0565b602090810291909101015260a0830180519061171d826123b6565b905250608083018190526000868152600160208181526040909220855181558286015180518794929361175593908501920190611dde565b50604082015160028201556060820151805161177b916003840191602090910190611dde565b5060808201518051611797916004840191602090910190611e62565b5060a0820151600582015560c082015180516117bd916006840191602090910190611dde565b5060e082015181600701559050506000826040015160016117de9190612388565b67ffffffffffffffff8111156117f6576117f6611ef6565b60405190808252806020026020018201604052801561181f578160200160208202803683370190505b50905060005b836040015181101561187e5783606001518181518110611847576118476123a0565b6020026020010151838281518110611861576118616123a0565b602090810291909101015280611876816123b6565b915050611825565b508681846040015181518110611896576118966123a0565b6020908102919091010152604083018051906118b1826123b6565b9052506060830181905260008581526004602090815260409091208451815581850151805186936118e9926001850192910190611dde565b50604082015160028201556060820151805161190f916003840191602090910190611e62565b5050506000878152600160205260409081902090517fdb38a0f551885a9e8666b66db8057c351d8f70150c869d99953a3051b52cc36a91610fe4916124a3565b61197a6040518060800160405280600081526020016060815260200160008152602001606081525090565b600460008381526020019081526020016000206040518060800160405290816000820154815260200160018201805461050890612338565b6119dd6040518060800160405280600081526020016060815260200160008152602001606081525090565b600660008381526020019081526020016000206040518060800160405290816000820154815260200160018201805461050890612338565b6003602052600090815260409020805460018201805491929161067890612338565b611a3f611e9c565b6002548152602080820186905260408083018690526060830185905260c08301849052600060e08401528051600480825260a082019092529182016080803683375050506080820152600060a08201819052815181526001602081815260409092208351815582840151805185949293611abe93908501920190611dde565b506040820151600282015560608201518051611ae4916003840191602090910190611dde565b5060808201518051611b00916004840191602090910190611e62565b5060a0820151600582015560c08201518051611b26916006840191602090910190611dde565b5060e0919091015160079091015560028054906000611b44836123b6565b91905055507fdd8688f80c62eab88b445b6a5f414e69ff40be1584ddb10b6a9bc6cf68b17f2f81600254604051611b7c929190612541565b60405180910390a15050505050565b6000611b96826105f3565b90506000611ba384611342565b60208084015160c0830152835160e08301526000868152600180835260409091208351815582840151805194955085949193611be493850192910190611dde565b506040820151600282015560608201518051611c0a916003840191602090910190611dde565b5060808201518051611c26916004840191602090910190611e62565b5060a0820151600582015560c08201518051611c4c916006840191602090910190611dde565b5060e08201518160070155905050600082604001516001611c6d9190612388565b67ffffffffffffffff811115611c8557611c85611ef6565b604051908082528060200260200182016040528015611cae578160200160208202803683370190505b50905060005b8360400151811015611d0d5783606001518181518110611cd657611cd66123a0565b6020026020010151828281518110611cf057611cf06123a0565b602090810291909101015280611d05816123b6565b915050611cb4565b508481846040015181518110611d2557611d256123a0565b602090810291909101015260408301805190611d40826123b6565b905250606083018190526000848152600360209081526040909120845181558185015180518693611d78926001850192910190611dde565b506040820151600282015560608201518051611d9e916003840191602090910190611e62565b5050506000858152600160205260409081902090517fdb38a0f551885a9e8666b66db8057c351d8f70150c869d99953a3051b52cc36a91611b7c916124a3565b828054611dea90612338565b90600052602060002090601f016020900481019282611e0c5760008555611e52565b82601f10611e2557805160ff1916838001178555611e52565b82800160010185558215611e52579182015b82811115611e52578251825591602001919060010190611e37565b50611e5e929150611ee1565b5090565b828054828255906000526020600020908101928215611e525791602002820182811115611e52578251825591602001919060010190611e37565b60405180610100016040528060008152602001606081526020016000815260200160608152602001606081526020016000815260200160608152602001600081525090565b5b80821115611e5e5760008155600101611ee2565b634e487b7160e01b600052604160045260246000fd5b600082601f830112611f1d57600080fd5b813567ffffffffffffffff80821115611f3857611f38611ef6565b604051601f8301601f19908116603f01168101908282118183101715611f6057611f60611ef6565b81604052838152866020858801011115611f7957600080fd5b836020870160208301376000602085830101528094505050505092915050565b600060208284031215611fab57600080fd5b813567ffffffffffffffff811115611fc257600080fd5b611fce84828501611f0c565b949350505050565b600060208284031215611fe857600080fd5b5035919050565b6000815180845260005b8181101561201557602081850181015186830182015201611ff9565b81811115612027576000602083870101525b50601f01601f19169290920160200192915050565b600081518084526020808501945080840160005b8381101561206c57815187529582019590820190600101612050565b509495945050505050565b8051825260006020820151608060208501526120966080850182611fef565b905060408301516040850152606083015184820360608601526120b9828261203c565b95945050505050565b6020815260006120d56020830184612077565b9392505050565b8381526060602082015260006120f56060830185611fef565b9050826040830152949350505050565b87815260e06020820152600061211e60e0830189611fef565b87604084015282810360608401526121368188611fef565b905085608084015282810360a08401526121508186611fef565b9150508260c083015298975050505050505050565b60008060006060848603121561217a57600080fd5b505081359360208301359350604090920135919050565b60006101008251845260208301518160208601526121b182860182611fef565b91505060408301516040850152606083015184820360608601526121d58282611fef565b915050608083015184820360808601526121ef828261203c565b91505060a083015160a085015260c083015184820360c08601526122138282611fef565b91505060e083015160e08501528091505092915050565b6020815260006120d56020830184612191565b6000806000806080858703121561225357600080fd5b843567ffffffffffffffff8082111561226b57600080fd5b61227788838901611f0c565b955060208701359450604087013591508082111561229457600080fd5b6122a088838901611f0c565b935060608701359150808211156122b657600080fd5b506122c387828801611f0c565b91505092959194509250565b600080604083850312156122e257600080fd5b50508035926020909101359150565b6060815260006123046060830186611fef565b60208301949094525060400152919050565b60008261233357634e487b7160e01b600052601260045260246000fd5b500690565b600181811c9082168061234c57607f821691505b60208210810361236c57634e487b7160e01b600052602260045260246000fd5b50919050565b634e487b7160e01b600052601160045260246000fd5b6000821982111561239b5761239b612372565b500190565b634e487b7160e01b600052603260045260246000fd5b6000600182016123c8576123c8612372565b5060010190565b8054600090600181811c90808316806123e957607f831692505b6020808410820361240a57634e487b7160e01b600052602260045260246000fd5b83885260208801828015612425576001811461243657612461565b60ff19871682528282019750612461565b60008981526020902060005b8781101561245b57815484820152908601908401612442565b83019850505b5050505050505092915050565b6000815480845260208085019450836000528060002060005b8381101561206c57815487529582019560019182019101612487565b602081528154602082015260006101008060408401526124ca6101208401600186016123cf565b60028501546060850152601f19808583030160808601526124ee82600388016123cf565b9150808583030160a0860152612507826004880161246e565b9150600586015460c0860152808583030160e08601525061252b81600687016123cf565b9050600785015482850152809250505092915050565b6040815260006125546040830185612191565b9050826020830152939250505056fea2646970667358221220e525dd0fed07d2ee341378d115bb0851fdf3c895120e4cc8ea432855dabd855164736f6c634300080d0033",
  "immutableReferences": {},
  "source": "// SPDX-License-Identifier: MIT\r\npragma solidity >=0.4.22 <0.9.0;\r\n\r\ncontract FakeProdId {\r\n    address owner = msg.sender;\r\n\r\n    struct Product{\r\n        uint productId;\r\n        string name;\r\n        uint price;\r\n        string description;\r\n        uint[] prevOwners;\r\n        uint prevOwnersSize;\r\n        string curOwner;\r\n        uint curOwnerId;\r\n    }\r\n\r\n    struct Supplier{\r\n        uint supplierId;\r\n        string name;\r\n        uint prodListSize;\r\n        uint[] productList;\r\n    }\r\n\r\n    struct Manufacturer{\r\n        uint manufacturerId;\r\n        string name;\r\n        uint prodListSize;\r\n        uint[] productList;\r\n    }\r\n\r\n    struct Distributor{\r\n        uint distributorId;\r\n        string name;\r\n        uint prodListSize;\r\n        uint[] productList;\r\n    }\r\n\r\n    struct Retailer{\r\n        uint retailerId;\r\n        string name;\r\n        uint prodListSize;\r\n        uint[] productList;\r\n    }\r\n\r\n    event prodDetails(\r\n        Product  prod,\r\n        uint productSize\r\n    );\r\n    \r\n    event supplierDetails(\r\n        Supplier newSupplier\r\n    );\r\n\r\n    event manufacturerDetails(\r\n        Manufacturer newManufacturer\r\n    );\r\n\r\n    event distributorDetails(\r\n        Distributor newDistributor\r\n    );\r\n\r\n    event retailerDetails(\r\n        Retailer newRetailer\r\n    );\r\n    \r\n    event completeSupplierTransaction(\r\n        Product p,\r\n        Supplier s,\r\n        Product p1\r\n    );\r\n    event completeTransaction(\r\n        Product product\r\n    );\r\n\r\n    mapping(uint => Product) public products;\r\n    uint productsSize=0;\r\n    mapping(uint => Supplier) public suppliers;\r\n    mapping(uint => Manufacturer) public manufacturers;\r\n    mapping(uint => Distributor) public distributors;\r\n    mapping(uint => Retailer) public retailers;\r\n\r\n    function addProduct(string memory name,uint price,string memory description,string memory curOwnerName) public{\r\n        Product memory newProduct;\r\n        newProduct.productId=productsSize;\r\n        newProduct.name = name;\r\n        newProduct.price = price;\r\n        newProduct.description = description;\r\n        newProduct.curOwner = curOwnerName;\r\n        newProduct.curOwnerId = 0;\r\n        newProduct.prevOwners = new uint[](4);\r\n        newProduct.prevOwnersSize = 0;\r\n        products[newProduct.productId] = newProduct;\r\n        productsSize++;\r\n        \r\n        emit prodDetails(newProduct,productsSize);\r\n    }\r\n\r\n\r\n    function getProduct(uint productId) public view returns (Product memory){\r\n        return products[productId];\r\n    }\r\n\r\n    function addSupplier(string memory name) public{\r\n        Supplier memory newSupplier;\r\n        newSupplier.supplierId=uint(keccak256(abi.encode(name,block.timestamp,block.difficulty)));\r\n        newSupplier.supplierId = newSupplier.supplierId%100000000;\r\n        newSupplier.name = name;\r\n        newSupplier.productList = new uint[](0);\r\n        newSupplier.prodListSize = 0;\r\n        suppliers[newSupplier.supplierId] = newSupplier;\r\n        emit supplierDetails(newSupplier);\r\n    }\r\n\r\n    function getsupplierDetails(uint supplierId) public view returns (Supplier memory){\r\n        return suppliers[supplierId];\r\n    }\r\n\r\n    function addManufacturer(string memory name) public{\r\n        Manufacturer memory newManufacturer;\r\n        newManufacturer.manufacturerId=uint(keccak256(abi.encode(name,block.timestamp,block.difficulty)))%100000000;\r\n        newManufacturer.name = name;\r\n        newManufacturer.productList = new uint[](0);\r\n        newManufacturer.prodListSize = 0;\r\n\r\n        manufacturers[newManufacturer.manufacturerId] = newManufacturer;\r\n        \r\n        emit manufacturerDetails(newManufacturer);\r\n    }\r\n\r\n    function getmanufacturerDetails(uint manufacturerId) public view returns (Manufacturer memory){\r\n        return manufacturers[manufacturerId];\r\n    }\r\n\r\n    function addDistributor(string memory name) public{\r\n        Distributor memory newDistributor;\r\n        newDistributor.distributorId=uint(keccak256(abi.encode(name,block.timestamp,block.difficulty)))%100000000;\r\n        newDistributor.name = name;\r\n        newDistributor.productList = new uint[](0);\r\n        newDistributor.prodListSize = 0;\r\n\r\n        distributors[newDistributor.distributorId] = newDistributor;\r\n        \r\n        emit distributorDetails(newDistributor);\r\n    }\r\n    \r\n    function getdistributorDetails(uint distributorId) public view returns (Distributor memory){\r\n        return distributors[distributorId];\r\n    }\r\n\r\n    function addRetailer(string memory name) public{\r\n        Retailer memory newRetailer;\r\n        newRetailer.retailerId=uint(keccak256(abi.encode(name,block.timestamp,block.difficulty)))%100000000;\r\n        newRetailer.name = name;\r\n        newRetailer.productList = new uint[](0);\r\n        newRetailer.prodListSize = 0;\r\n        retailers[newRetailer.retailerId] = newRetailer;\r\n        emit retailerDetails(newRetailer);\r\n    }\r\n\r\n    function getretailerDetails(uint retailerId) public view returns (Retailer memory){\r\n        return retailers[retailerId];\r\n    }\r\n\r\n    function supplierTransaction(uint productId,uint supplierId) payable public{\r\n        Supplier memory s = getsupplierDetails(supplierId);\r\n        Product memory p = getProduct(productId);\r\n        \r\n        p.curOwner = s.name;\r\n        p.curOwnerId = s.supplierId;\r\n\r\n        products[productId] = p;\r\n\r\n        uint[] memory temp = new uint[](s.prodListSize+1);\r\n        for(uint i=0;i<s.prodListSize;i++){\r\n            temp[i] = s.productList[i];\r\n        }\r\n        temp[s.prodListSize] = productId;\r\n        s.prodListSize++;\r\n        s.productList = temp;\r\n        \r\n        suppliers[supplierId] = s;\r\n\r\n        emit completeTransaction(products[productId]);\r\n    }\r\n\r\n    function supplierToManufacturer(uint productId,uint supplierId,uint manufacturerId) payable public{\r\n        Product memory p = getProduct(productId);\r\n\r\n        require(p.curOwnerId == supplierId, \"Supplier is not the current owner of the product\");\r\n\r\n        Manufacturer memory m = getmanufacturerDetails(manufacturerId);\r\n\r\n        p.curOwner = m.name;\r\n        p.curOwnerId = m.manufacturerId;\r\n\r\n        uint[] memory temp = new uint[](p.prevOwnersSize+1);\r\n        for(uint i=0;i<p.prevOwnersSize;i++){\r\n            temp[i] = p.prevOwners[i];\r\n        }\r\n        temp[p.prevOwnersSize] = supplierId;\r\n        p.prevOwnersSize++;\r\n        p.prevOwners = temp;\r\n\r\n        products[productId] = p;\r\n\r\n        uint[] memory temp1 = new uint[](m.prodListSize+1);\r\n        for(uint i=0;i<m.prodListSize;i++){\r\n            temp[i] = m.productList[i];\r\n        }\r\n        temp1[m.prodListSize] = productId;\r\n        m.prodListSize++;\r\n        m.productList = temp1;\r\n\r\n        manufacturers[manufacturerId] = m;\r\n\r\n        emit completeTransaction(products[productId]);\r\n    }\r\n\r\n    function manufacturerToDistributor(uint productId,uint manufacturerId,uint distributorId) payable public{\r\n        Product memory p = getProduct(productId);\r\n\r\n        require(p.curOwnerId == manufacturerId, \"Manufacturer is not the current owner of the product\");\r\n        \r\n        Distributor memory d = getdistributorDetails(distributorId);\r\n\r\n        p.curOwner = d.name;\r\n        p.curOwnerId = d.distributorId;\r\n\r\n        uint[] memory temp = new uint[](p.prevOwnersSize+1);\r\n        for(uint i=0;i<p.prevOwnersSize;i++){\r\n            temp[i] = p.prevOwners[i];\r\n        }\r\n        temp[p.prevOwnersSize] = manufacturerId;\r\n        p.prevOwnersSize++;\r\n        p.prevOwners = temp;\r\n\r\n        products[productId] = p;\r\n\r\n        uint[] memory temp1 = new uint[](d.prodListSize+1);\r\n        for(uint i=0;i<d.prodListSize;i++){\r\n            temp1[i] = d.productList[i];\r\n        }\r\n        temp1[d.prodListSize] = productId;\r\n        d.prodListSize++;\r\n        d.productList = temp1;\r\n        distributors[distributorId] = d;\r\n\r\n        emit completeTransaction(p);\r\n    }\r\n\r\n    function distributorToRetailer(uint productId,uint distributorId,uint retailerId) payable public{\r\n        Product memory p = getProduct(productId);\r\n\r\n        require(p.curOwnerId == distributorId, \"Distributor is not the current owner of the product\");\r\n\r\n        Retailer memory r = getretailerDetails(retailerId);\r\n\r\n        p.curOwner = r.name;\r\n        p.curOwnerId = r.retailerId;\r\n        uint[] memory temp = new uint[](p.prevOwnersSize+1);\r\n        for(uint i=0;i<p.prevOwnersSize;i++){\r\n            temp[i] = p.prevOwners[i];\r\n        }\r\n        temp[p.prevOwnersSize] = distributorId;\r\n        p.prevOwnersSize++;\r\n\r\n        p.prevOwners = temp;\r\n\r\n        products[productId] = p;\r\n\r\n        uint[] memory temp1 = new uint[](r.prodListSize+1);\r\n        for(uint i=0;i<r.prodListSize;i++){\r\n            temp1[i] = r.productList[i];\r\n        }\r\n        temp1[r.prodListSize] = productId;\r\n        r.prodListSize++;\r\n        r.productList = temp1;\r\n        retailers[retailerId] = r;\r\n\r\n        emit completeTransaction(p);\r\n    }\r\n    \r\n    // modifier restricted(){\r\n    //     require(msg.sender == owner);\r\n    //     _;\r\n    // }\r\n\r\n    \r\n}\r\n",
  "sourcePath": "C:\\Users\\ASUS\\Desktop\\CounterFeitedProductID\\contracts\\contracts\\FakeProdId.sol",
  "compiler": {
    "name": "solc",
    "version": "0.8.13+commit.abaa5c0e.Emscripten.clang"
  },
  "schemaVersion": "3.4.6",
  "updatedAt": "2022-05-24T17:24:28.105Z",
  "devdoc": {
    "kind": "dev",
    "methods": {},
    "version": 1
  },
  "userdoc": {
    "kind": "user",
    "methods": {},
    "version": 1
  }
}