{
	"contracts/FakeProdId.sol": {
		"FakeProdId": {
			"abi": [
				{
					"anonymous": false,
					"inputs": [
						{
							"components": [
								{
									"internalType": "uint256",
									"name": "productId",
									"type": "uint256"
								},
								{
									"internalType": "string",
									"name": "name",
									"type": "string"
								},
								{
									"internalType": "uint256",
									"name": "price",
									"type": "uint256"
								},
								{
									"internalType": "string",
									"name": "description",
									"type": "string"
								},
								{
									"internalType": "uint256[]",
									"name": "prevOwners",
									"type": "uint256[]"
								},
								{
									"internalType": "uint256",
									"name": "prevOwnersSize",
									"type": "uint256"
								},
								{
									"internalType": "string",
									"name": "curOwner",
									"type": "string"
								},
								{
									"internalType": "uint256",
									"name": "curOwnerId",
									"type": "uint256"
								}
							],
							"indexed": false,
							"internalType": "struct FakeProdId.Product",
							"name": "product",
							"type": "tuple"
						}
					],
					"name": "completeTransaction",
					"type": "event"
				},
				{
					"anonymous": false,
					"inputs": [
						{
							"components": [
								{
									"internalType": "uint256",
									"name": "distributorId",
									"type": "uint256"
								},
								{
									"internalType": "string",
									"name": "kind",
									"type": "string"
								},
								{
									"internalType": "string",
									"name": "name",
									"type": "string"
								},
								{
									"internalType": "uint256",
									"name": "prodListSize",
									"type": "uint256"
								},
								{
									"internalType": "uint256[]",
									"name": "productList",
									"type": "uint256[]"
								}
							],
							"indexed": false,
							"internalType": "struct FakeProdId.Distributor",
							"name": "newDistributor",
							"type": "tuple"
						}
					],
					"name": "distributorDetails",
					"type": "event"
				},
				{
					"anonymous": false,
					"inputs": [
						{
							"components": [
								{
									"internalType": "uint256",
									"name": "manufacturerId",
									"type": "uint256"
								},
								{
									"internalType": "string",
									"name": "kind",
									"type": "string"
								},
								{
									"internalType": "string",
									"name": "name",
									"type": "string"
								},
								{
									"internalType": "uint256",
									"name": "prodListSize",
									"type": "uint256"
								},
								{
									"internalType": "uint256[]",
									"name": "productList",
									"type": "uint256[]"
								}
							],
							"indexed": false,
							"internalType": "struct FakeProdId.Manufacturer",
							"name": "newManufacturer",
							"type": "tuple"
						}
					],
					"name": "manufacturerDetails",
					"type": "event"
				},
				{
					"anonymous": false,
					"inputs": [
						{
							"components": [
								{
									"internalType": "uint256",
									"name": "productId",
									"type": "uint256"
								},
								{
									"internalType": "string",
									"name": "name",
									"type": "string"
								},
								{
									"internalType": "uint256",
									"name": "price",
									"type": "uint256"
								},
								{
									"internalType": "string",
									"name": "description",
									"type": "string"
								},
								{
									"internalType": "uint256[]",
									"name": "prevOwners",
									"type": "uint256[]"
								},
								{
									"internalType": "uint256",
									"name": "prevOwnersSize",
									"type": "uint256"
								},
								{
									"internalType": "string",
									"name": "curOwner",
									"type": "string"
								},
								{
									"internalType": "uint256",
									"name": "curOwnerId",
									"type": "uint256"
								}
							],
							"indexed": false,
							"internalType": "struct FakeProdId.Product",
							"name": "prod",
							"type": "tuple"
						},
						{
							"indexed": false,
							"internalType": "uint256",
							"name": "productSize",
							"type": "uint256"
						}
					],
					"name": "prodDetails",
					"type": "event"
				},
				{
					"anonymous": false,
					"inputs": [
						{
							"components": [
								{
									"internalType": "uint256",
									"name": "retailerId",
									"type": "uint256"
								},
								{
									"internalType": "string",
									"name": "name",
									"type": "string"
								},
								{
									"internalType": "uint256",
									"name": "prodListSize",
									"type": "uint256"
								},
								{
									"internalType": "uint256[]",
									"name": "productList",
									"type": "uint256[]"
								}
							],
							"indexed": false,
							"internalType": "struct FakeProdId.Retailer",
							"name": "newRetailer",
							"type": "tuple"
						}
					],
					"name": "retailerDetails",
					"type": "event"
				},
				{
					"anonymous": false,
					"inputs": [
						{
							"components": [
								{
									"internalType": "uint256",
									"name": "supplierId",
									"type": "uint256"
								},
								{
									"internalType": "string",
									"name": "kind",
									"type": "string"
								},
								{
									"internalType": "string",
									"name": "name",
									"type": "string"
								},
								{
									"internalType": "uint256",
									"name": "prodListSize",
									"type": "uint256"
								},
								{
									"internalType": "uint256[]",
									"name": "productList",
									"type": "uint256[]"
								}
							],
							"indexed": false,
							"internalType": "struct FakeProdId.Supplier",
							"name": "newSupplier",
							"type": "tuple"
						}
					],
					"name": "supplierDetails",
					"type": "event"
				},
				{
					"inputs": [
						{
							"internalType": "string",
							"name": "name",
							"type": "string"
						}
					],
					"name": "addDistributor",
					"outputs": [],
					"stateMutability": "nonpayable",
					"type": "function"
				},
				{
					"inputs": [
						{
							"internalType": "string",
							"name": "name",
							"type": "string"
						}
					],
					"name": "addManufacturer",
					"outputs": [],
					"stateMutability": "nonpayable",
					"type": "function"
				},
				{
					"inputs": [
						{
							"internalType": "string",
							"name": "name",
							"type": "string"
						},
						{
							"internalType": "uint256",
							"name": "price",
							"type": "uint256"
						},
						{
							"internalType": "string",
							"name": "description",
							"type": "string"
						}
					],
					"name": "addProduct",
					"outputs": [],
					"stateMutability": "nonpayable",
					"type": "function"
				},
				{
					"inputs": [
						{
							"internalType": "string",
							"name": "name",
							"type": "string"
						}
					],
					"name": "addRetailer",
					"outputs": [],
					"stateMutability": "nonpayable",
					"type": "function"
				},
				{
					"inputs": [
						{
							"internalType": "string",
							"name": "name",
							"type": "string"
						}
					],
					"name": "addSupplier",
					"outputs": [],
					"stateMutability": "nonpayable",
					"type": "function"
				},
				{
					"inputs": [
						{
							"internalType": "uint256",
							"name": "productId",
							"type": "uint256"
						},
						{
							"internalType": "uint256",
							"name": "distributorId",
							"type": "uint256"
						},
						{
							"internalType": "uint256",
							"name": "retailerId",
							"type": "uint256"
						}
					],
					"name": "distributorToRetailer",
					"outputs": [],
					"stateMutability": "nonpayable",
					"type": "function"
				},
				{
					"inputs": [
						{
							"internalType": "uint256",
							"name": "",
							"type": "uint256"
						}
					],
					"name": "distributors",
					"outputs": [
						{
							"internalType": "uint256",
							"name": "distributorId",
							"type": "uint256"
						},
						{
							"internalType": "string",
							"name": "kind",
							"type": "string"
						},
						{
							"internalType": "string",
							"name": "name",
							"type": "string"
						},
						{
							"internalType": "uint256",
							"name": "prodListSize",
							"type": "uint256"
						}
					],
					"stateMutability": "view",
					"type": "function"
				},
				{
					"inputs": [
						{
							"internalType": "uint256",
							"name": "productId",
							"type": "uint256"
						}
					],
					"name": "getProduct",
					"outputs": [
						{
							"components": [
								{
									"internalType": "uint256",
									"name": "productId",
									"type": "uint256"
								},
								{
									"internalType": "string",
									"name": "name",
									"type": "string"
								},
								{
									"internalType": "uint256",
									"name": "price",
									"type": "uint256"
								},
								{
									"internalType": "string",
									"name": "description",
									"type": "string"
								},
								{
									"internalType": "uint256[]",
									"name": "prevOwners",
									"type": "uint256[]"
								},
								{
									"internalType": "uint256",
									"name": "prevOwnersSize",
									"type": "uint256"
								},
								{
									"internalType": "string",
									"name": "curOwner",
									"type": "string"
								},
								{
									"internalType": "uint256",
									"name": "curOwnerId",
									"type": "uint256"
								}
							],
							"internalType": "struct FakeProdId.Product",
							"name": "",
							"type": "tuple"
						}
					],
					"stateMutability": "view",
					"type": "function"
				},
				{
					"inputs": [
						{
							"internalType": "uint256",
							"name": "distributorId",
							"type": "uint256"
						}
					],
					"name": "getdistributorDetails",
					"outputs": [
						{
							"components": [
								{
									"internalType": "uint256",
									"name": "distributorId",
									"type": "uint256"
								},
								{
									"internalType": "string",
									"name": "kind",
									"type": "string"
								},
								{
									"internalType": "string",
									"name": "name",
									"type": "string"
								},
								{
									"internalType": "uint256",
									"name": "prodListSize",
									"type": "uint256"
								},
								{
									"internalType": "uint256[]",
									"name": "productList",
									"type": "uint256[]"
								}
							],
							"internalType": "struct FakeProdId.Distributor",
							"name": "",
							"type": "tuple"
						}
					],
					"stateMutability": "view",
					"type": "function"
				},
				{
					"inputs": [
						{
							"internalType": "uint256",
							"name": "manufacturerId",
							"type": "uint256"
						}
					],
					"name": "getmanufacturerDetails",
					"outputs": [
						{
							"components": [
								{
									"internalType": "uint256",
									"name": "manufacturerId",
									"type": "uint256"
								},
								{
									"internalType": "string",
									"name": "kind",
									"type": "string"
								},
								{
									"internalType": "string",
									"name": "name",
									"type": "string"
								},
								{
									"internalType": "uint256",
									"name": "prodListSize",
									"type": "uint256"
								},
								{
									"internalType": "uint256[]",
									"name": "productList",
									"type": "uint256[]"
								}
							],
							"internalType": "struct FakeProdId.Manufacturer",
							"name": "",
							"type": "tuple"
						}
					],
					"stateMutability": "view",
					"type": "function"
				},
				{
					"inputs": [
						{
							"internalType": "uint256",
							"name": "retailerId",
							"type": "uint256"
						}
					],
					"name": "getretailerDetails",
					"outputs": [
						{
							"components": [
								{
									"internalType": "uint256",
									"name": "retailerId",
									"type": "uint256"
								},
								{
									"internalType": "string",
									"name": "name",
									"type": "string"
								},
								{
									"internalType": "uint256",
									"name": "prodListSize",
									"type": "uint256"
								},
								{
									"internalType": "uint256[]",
									"name": "productList",
									"type": "uint256[]"
								}
							],
							"internalType": "struct FakeProdId.Retailer",
							"name": "",
							"type": "tuple"
						}
					],
					"stateMutability": "view",
					"type": "function"
				},
				{
					"inputs": [
						{
							"internalType": "uint256",
							"name": "supplierId",
							"type": "uint256"
						}
					],
					"name": "getsupplierDetails",
					"outputs": [
						{
							"components": [
								{
									"internalType": "uint256",
									"name": "supplierId",
									"type": "uint256"
								},
								{
									"internalType": "string",
									"name": "kind",
									"type": "string"
								},
								{
									"internalType": "string",
									"name": "name",
									"type": "string"
								},
								{
									"internalType": "uint256",
									"name": "prodListSize",
									"type": "uint256"
								},
								{
									"internalType": "uint256[]",
									"name": "productList",
									"type": "uint256[]"
								}
							],
							"internalType": "struct FakeProdId.Supplier",
							"name": "",
							"type": "tuple"
						}
					],
					"stateMutability": "view",
					"type": "function"
				},
				{
					"inputs": [
						{
							"internalType": "uint256",
							"name": "productId",
							"type": "uint256"
						},
						{
							"internalType": "uint256",
							"name": "manufacturerId",
							"type": "uint256"
						},
						{
							"internalType": "uint256",
							"name": "distributorId",
							"type": "uint256"
						}
					],
					"name": "manufacturerToDistributor",
					"outputs": [],
					"stateMutability": "nonpayable",
					"type": "function"
				},
				{
					"inputs": [
						{
							"internalType": "uint256",
							"name": "",
							"type": "uint256"
						}
					],
					"name": "manufacturers",
					"outputs": [
						{
							"internalType": "uint256",
							"name": "manufacturerId",
							"type": "uint256"
						},
						{
							"internalType": "string",
							"name": "kind",
							"type": "string"
						},
						{
							"internalType": "string",
							"name": "name",
							"type": "string"
						},
						{
							"internalType": "uint256",
							"name": "prodListSize",
							"type": "uint256"
						}
					],
					"stateMutability": "view",
					"type": "function"
				},
				{
					"inputs": [
						{
							"internalType": "uint256",
							"name": "",
							"type": "uint256"
						}
					],
					"name": "products",
					"outputs": [
						{
							"internalType": "uint256",
							"name": "productId",
							"type": "uint256"
						},
						{
							"internalType": "string",
							"name": "name",
							"type": "string"
						},
						{
							"internalType": "uint256",
							"name": "price",
							"type": "uint256"
						},
						{
							"internalType": "string",
							"name": "description",
							"type": "string"
						},
						{
							"internalType": "uint256",
							"name": "prevOwnersSize",
							"type": "uint256"
						},
						{
							"internalType": "string",
							"name": "curOwner",
							"type": "string"
						},
						{
							"internalType": "uint256",
							"name": "curOwnerId",
							"type": "uint256"
						}
					],
					"stateMutability": "view",
					"type": "function"
				},
				{
					"inputs": [
						{
							"internalType": "uint256",
							"name": "",
							"type": "uint256"
						}
					],
					"name": "retailers",
					"outputs": [
						{
							"internalType": "uint256",
							"name": "retailerId",
							"type": "uint256"
						},
						{
							"internalType": "string",
							"name": "name",
							"type": "string"
						},
						{
							"internalType": "uint256",
							"name": "prodListSize",
							"type": "uint256"
						}
					],
					"stateMutability": "view",
					"type": "function"
				},
				{
					"inputs": [
						{
							"internalType": "uint256",
							"name": "productId",
							"type": "uint256"
						},
						{
							"internalType": "uint256",
							"name": "supplierId",
							"type": "uint256"
						},
						{
							"internalType": "uint256",
							"name": "manufacturerId",
							"type": "uint256"
						}
					],
					"name": "supplierToManufacturer",
					"outputs": [],
					"stateMutability": "nonpayable",
					"type": "function"
				},
				{
					"inputs": [
						{
							"internalType": "uint256",
							"name": "productId",
							"type": "uint256"
						},
						{
							"internalType": "uint256",
							"name": "supplierId",
							"type": "uint256"
						}
					],
					"name": "supplierTransaction",
					"outputs": [],
					"stateMutability": "nonpayable",
					"type": "function"
				},
				{
					"inputs": [
						{
							"internalType": "uint256",
							"name": "",
							"type": "uint256"
						}
					],
					"name": "suppliers",
					"outputs": [
						{
							"internalType": "uint256",
							"name": "supplierId",
							"type": "uint256"
						},
						{
							"internalType": "string",
							"name": "kind",
							"type": "string"
						},
						{
							"internalType": "string",
							"name": "name",
							"type": "string"
						},
						{
							"internalType": "uint256",
							"name": "prodListSize",
							"type": "uint256"
						}
					],
					"stateMutability": "view",
					"type": "function"
				}
			],
			"devdoc": {
				"kind": "dev",
				"methods": {},
				"version": 1
			},
			"evm": {
				"assembly": "    /* \"contracts/FakeProdId.sol\":69:7878  contract FakeProdId {\r... */\n  mstore(0x40, 0x80)\n    /* \"contracts/FakeProdId.sol\":112:122  msg.sender */\n  caller\n    /* \"contracts/FakeProdId.sol\":96:122  address owner = msg.sender */\n  0x00\n  dup1\n  0x0100\n  exp\n  dup2\n  sload\n  dup2\n  0xffffffffffffffffffffffffffffffffffffffff\n  mul\n  not\n  and\n  swap1\n  dup4\n  0xffffffffffffffffffffffffffffffffffffffff\n  and\n  mul\n  or\n  swap1\n  sstore\n  pop\n    /* \"contracts/FakeProdId.sol\":1508:1509  0 */\n  0x00\n    /* \"contracts/FakeProdId.sol\":1490:1509  uint productsSize=0 */\n  0x02\n  sstore\n    /* \"contracts/FakeProdId.sol\":69:7878  contract FakeProdId {\r... */\n  callvalue\n  dup1\n  iszero\n  tag_1\n  jumpi\n  0x00\n  dup1\n  revert\ntag_1:\n  pop\n  dataSize(sub_0)\n  dup1\n  dataOffset(sub_0)\n  0x00\n  codecopy\n  0x00\n  return\nstop\n\nsub_0: assembly {\n        /* \"contracts/FakeProdId.sol\":69:7878  contract FakeProdId {\r... */\n      mstore(0x40, 0x80)\n      callvalue\n      dup1\n      iszero\n      tag_1\n      jumpi\n      0x00\n      dup1\n      revert\n    tag_1:\n      pop\n      jumpi(tag_2, lt(calldatasize, 0x04))\n      shr(0xe0, calldataload(0x00))\n      dup1\n      0x90175af1\n      gt\n      tag_22\n      jumpi\n      dup1\n      0xbbb7b0c3\n      gt\n      tag_23\n      jumpi\n      dup1\n      0xbbb7b0c3\n      eq\n      tag_17\n      jumpi\n      dup1\n      0xcb80c419\n      eq\n      tag_18\n      jumpi\n      dup1\n      0xcda5e4a5\n      eq\n      tag_19\n      jumpi\n      dup1\n      0xcea23121\n      eq\n      tag_20\n      jumpi\n      dup1\n      0xd8459464\n      eq\n      tag_21\n      jumpi\n      jump(tag_2)\n    tag_23:\n      dup1\n      0x90175af1\n      eq\n      tag_12\n      jumpi\n      dup1\n      0x95d00407\n      eq\n      tag_13\n      jumpi\n      dup1\n      0xae2ce444\n      eq\n      tag_14\n      jumpi\n      dup1\n      0xb55be240\n      eq\n      tag_15\n      jumpi\n      dup1\n      0xb9db15b4\n      eq\n      tag_16\n      jumpi\n      jump(tag_2)\n    tag_22:\n      dup1\n      0x7acc0b20\n      gt\n      tag_24\n      jumpi\n      dup1\n      0x7acc0b20\n      eq\n      tag_7\n      jumpi\n      dup1\n      0x81d9def2\n      eq\n      tag_8\n      jumpi\n      dup1\n      0x897ec7df\n      eq\n      tag_9\n      jumpi\n      dup1\n      0x8f29695a\n      eq\n      tag_10\n      jumpi\n      dup1\n      0x8f5ae799\n      eq\n      tag_11\n      jumpi\n      jump(tag_2)\n    tag_24:\n      dup1\n      0x15533a27\n      eq\n      tag_3\n      jumpi\n      dup1\n      0x333f3dd0\n      eq\n      tag_4\n      jumpi\n      dup1\n      0x3779643f\n      eq\n      tag_5\n      jumpi\n      dup1\n      0x50b492ba\n      eq\n      tag_6\n      jumpi\n    tag_2:\n      0x00\n      dup1\n      revert\n        /* \"contracts/FakeProdId.sol\":2670:3122  function addSupplier(string memory name) public{\r... */\n    tag_3:\n      tag_25\n      0x04\n      dup1\n      calldatasize\n      sub\n      dup2\n      add\n      swap1\n      tag_26\n      swap2\n      swap1\n      tag_27\n      jump\t// in\n    tag_26:\n      tag_28\n      jump\t// in\n    tag_25:\n      stop\n        /* \"contracts/FakeProdId.sol\":4477:4621  function getdistributorDetails(uint distributorId) public view returns (Distributor memory){\r... */\n    tag_4:\n      tag_29\n      0x04\n      dup1\n      calldatasize\n      sub\n      dup2\n      add\n      swap1\n      tag_30\n      swap2\n      swap1\n      tag_31\n      jump\t// in\n    tag_30:\n      tag_32\n      jump\t// in\n    tag_29:\n      mload(0x40)\n      tag_33\n      swap2\n      swap1\n      tag_34\n      jump\t// in\n    tag_33:\n      mload(0x40)\n      dup1\n      swap2\n      sub\n      swap1\n      return\n        /* \"contracts/FakeProdId.sol\":3130:3259  function getsupplierDetails(uint supplierId) public view returns (Supplier memory){\r... */\n    tag_5:\n      tag_35\n      0x04\n      dup1\n      calldatasize\n      sub\n      dup2\n      add\n      swap1\n      tag_36\n      swap2\n      swap1\n      tag_31\n      jump\t// in\n    tag_36:\n      tag_37\n      jump\t// in\n    tag_35:\n      mload(0x40)\n      tag_38\n      swap2\n      swap1\n      tag_39\n      jump\t// in\n    tag_38:\n      mload(0x40)\n      dup1\n      swap2\n      sub\n      swap1\n      return\n        /* \"contracts/FakeProdId.sol\":1622:1670  mapping(uint => Distributor) public distributors */\n    tag_6:\n      tag_40\n      0x04\n      dup1\n      calldatasize\n      sub\n      dup2\n      add\n      swap1\n      tag_41\n      swap2\n      swap1\n      tag_31\n      jump\t// in\n    tag_41:\n      tag_42\n      jump\t// in\n    tag_40:\n      mload(0x40)\n      tag_43\n      swap5\n      swap4\n      swap3\n      swap2\n      swap1\n      tag_44\n      jump\t// in\n    tag_43:\n      mload(0x40)\n      dup1\n      swap2\n      sub\n      swap1\n      return\n        /* \"contracts/FakeProdId.sol\":1443:1483  mapping(uint => Product) public products */\n    tag_7:\n      tag_45\n      0x04\n      dup1\n      calldatasize\n      sub\n      dup2\n      add\n      swap1\n      tag_46\n      swap2\n      swap1\n      tag_31\n      jump\t// in\n    tag_46:\n      tag_47\n      jump\t// in\n    tag_45:\n      mload(0x40)\n      tag_48\n      swap8\n      swap7\n      swap6\n      swap5\n      swap4\n      swap3\n      swap2\n      swap1\n      tag_49\n      jump\t// in\n    tag_48:\n      mload(0x40)\n      dup1\n      swap2\n      sub\n      swap1\n      return\n        /* \"contracts/FakeProdId.sol\":3956:4465  function addDistributor(string memory name) public{\r... */\n    tag_8:\n      tag_50\n      0x04\n      dup1\n      calldatasize\n      sub\n      dup2\n      add\n      swap1\n      tag_51\n      swap2\n      swap1\n      tag_27\n      jump\t// in\n    tag_51:\n      tag_52\n      jump\t// in\n    tag_50:\n      stop\n        /* \"contracts/FakeProdId.sol\":1677:1719  mapping(uint => Retailer) public retailers */\n    tag_9:\n      tag_53\n      0x04\n      dup1\n      calldatasize\n      sub\n      dup2\n      add\n      swap1\n      tag_54\n      swap2\n      swap1\n      tag_31\n      jump\t// in\n    tag_54:\n      tag_55\n      jump\t// in\n    tag_53:\n      mload(0x40)\n      tag_56\n      swap4\n      swap3\n      swap2\n      swap1\n      tag_57\n      jump\t// in\n    tag_56:\n      mload(0x40)\n      dup1\n      swap2\n      sub\n      swap1\n      return\n        /* \"contracts/FakeProdId.sol\":1728:2358  function addProduct(string memory name,uint price,string memory description) public{\r... */\n    tag_10:\n      tag_58\n      0x04\n      dup1\n      calldatasize\n      sub\n      dup2\n      add\n      swap1\n      tag_59\n      swap2\n      swap1\n      tag_60\n      jump\t// in\n    tag_59:\n      tag_61\n      jump\t// in\n    tag_58:\n      stop\n        /* \"contracts/FakeProdId.sol\":3267:3791  function addManufacturer(string memory name) public{\r... */\n    tag_11:\n      tag_62\n      0x04\n      dup1\n      calldatasize\n      sub\n      dup2\n      add\n      swap1\n      tag_63\n      swap2\n      swap1\n      tag_27\n      jump\t// in\n    tag_63:\n      tag_64\n      jump\t// in\n    tag_62:\n      stop\n        /* \"contracts/FakeProdId.sol\":1565:1615  mapping(uint => Manufacturer) public manufacturers */\n    tag_12:\n      tag_65\n      0x04\n      dup1\n      calldatasize\n      sub\n      dup2\n      add\n      swap1\n      tag_66\n      swap2\n      swap1\n      tag_31\n      jump\t// in\n    tag_66:\n      tag_67\n      jump\t// in\n    tag_65:\n      mload(0x40)\n      tag_68\n      swap5\n      swap4\n      swap3\n      swap2\n      swap1\n      tag_44\n      jump\t// in\n    tag_68:\n      mload(0x40)\n      dup1\n      swap2\n      sub\n      swap1\n      return\n        /* \"contracts/FakeProdId.sol\":4629:5047  function addRetailer(string memory name) public{\r... */\n    tag_13:\n      tag_69\n      0x04\n      dup1\n      calldatasize\n      sub\n      dup2\n      add\n      swap1\n      tag_70\n      swap2\n      swap1\n      tag_27\n      jump\t// in\n    tag_70:\n      tag_71\n      jump\t// in\n    tag_69:\n      stop\n        /* \"contracts/FakeProdId.sol\":6369:7084  function manufacturerToDistributor(uint productId,uint manufacturerId,uint distributorId) public{\r... */\n    tag_14:\n      tag_72\n      0x04\n      dup1\n      calldatasize\n      sub\n      dup2\n      add\n      swap1\n      tag_73\n      swap2\n      swap1\n      tag_74\n      jump\t// in\n    tag_73:\n      tag_75\n      jump\t// in\n    tag_72:\n      stop\n        /* \"contracts/FakeProdId.sol\":7092:7775  function distributorToRetailer(uint productId,uint distributorId,uint retailerId) public{\r... */\n    tag_15:\n      tag_76\n      0x04\n      dup1\n      calldatasize\n      sub\n      dup2\n      add\n      swap1\n      tag_77\n      swap2\n      swap1\n      tag_74\n      jump\t// in\n    tag_77:\n      tag_78\n      jump\t// in\n    tag_76:\n      stop\n        /* \"contracts/FakeProdId.sol\":2481:2662  function getProduct(uint productId) public view returns (Product memory){\r... */\n    tag_16:\n      tag_79\n      0x04\n      dup1\n      calldatasize\n      sub\n      dup2\n      add\n      swap1\n      tag_80\n      swap2\n      swap1\n      tag_31\n      jump\t// in\n    tag_80:\n      tag_81\n      jump\t// in\n    tag_79:\n      mload(0x40)\n      tag_82\n      swap2\n      swap1\n      tag_83\n      jump\t// in\n    tag_82:\n      mload(0x40)\n      dup1\n      swap2\n      sub\n      swap1\n      return\n        /* \"contracts/FakeProdId.sol\":5670:6361  function supplierToManufacturer(uint productId,uint supplierId,uint manufacturerId) public{\r... */\n    tag_17:\n      tag_84\n      0x04\n      dup1\n      calldatasize\n      sub\n      dup2\n      add\n      swap1\n      tag_85\n      swap2\n      swap1\n      tag_74\n      jump\t// in\n    tag_85:\n      tag_86\n      jump\t// in\n    tag_84:\n      stop\n        /* \"contracts/FakeProdId.sol\":3799:3948  function getmanufacturerDetails(uint manufacturerId) public view returns (Manufacturer memory){\r... */\n    tag_18:\n      tag_87\n      0x04\n      dup1\n      calldatasize\n      sub\n      dup2\n      add\n      swap1\n      tag_88\n      swap2\n      swap1\n      tag_31\n      jump\t// in\n    tag_88:\n      tag_89\n      jump\t// in\n    tag_87:\n      mload(0x40)\n      tag_90\n      swap2\n      swap1\n      tag_91\n      jump\t// in\n    tag_90:\n      mload(0x40)\n      dup1\n      swap2\n      sub\n      swap1\n      return\n        /* \"contracts/FakeProdId.sol\":5055:5184  function getretailerDetails(uint retailerId) public view returns (Retailer memory){\r... */\n    tag_19:\n      tag_92\n      0x04\n      dup1\n      calldatasize\n      sub\n      dup2\n      add\n      swap1\n      tag_93\n      swap2\n      swap1\n      tag_31\n      jump\t// in\n    tag_93:\n      tag_94\n      jump\t// in\n    tag_92:\n      mload(0x40)\n      tag_95\n      swap2\n      swap1\n      tag_96\n      jump\t// in\n    tag_95:\n      mload(0x40)\n      dup1\n      swap2\n      sub\n      swap1\n      return\n        /* \"contracts/FakeProdId.sol\":1516:1558  mapping(uint => Supplier) public suppliers */\n    tag_20:\n      tag_97\n      0x04\n      dup1\n      calldatasize\n      sub\n      dup2\n      add\n      swap1\n      tag_98\n      swap2\n      swap1\n      tag_31\n      jump\t// in\n    tag_98:\n      tag_99\n      jump\t// in\n    tag_97:\n      mload(0x40)\n      tag_100\n      swap5\n      swap4\n      swap3\n      swap2\n      swap1\n      tag_44\n      jump\t// in\n    tag_100:\n      mload(0x40)\n      dup1\n      swap2\n      sub\n      swap1\n      return\n        /* \"contracts/FakeProdId.sol\":5192:5662  function supplierTransaction(uint productId,uint supplierId) public{\r... */\n    tag_21:\n      tag_101\n      0x04\n      dup1\n      calldatasize\n      sub\n      dup2\n      add\n      swap1\n      tag_102\n      swap2\n      swap1\n      tag_103\n      jump\t// in\n    tag_102:\n      tag_104\n      jump\t// in\n    tag_101:\n      stop\n        /* \"contracts/FakeProdId.sol\":2670:3122  function addSupplier(string memory name) public{\r... */\n    tag_28:\n        /* \"contracts/FakeProdId.sol\":2728:2755  Supplier memory newSupplier */\n      tag_106\n      tag_107\n      jump\t// in\n    tag_106:\n        /* \"contracts/FakeProdId.sol\":2815:2819  name */\n      dup2\n        /* \"contracts/FakeProdId.sol\":2820:2835  block.timestamp */\n      timestamp\n        /* \"contracts/FakeProdId.sol\":2836:2852  block.difficulty */\n      difficulty\n        /* \"contracts/FakeProdId.sol\":2804:2853  abi.encode(name,block.timestamp,block.difficulty) */\n      add(0x20, mload(0x40))\n      tag_108\n      swap4\n      swap3\n      swap2\n      swap1\n      tag_109\n      jump\t// in\n    tag_108:\n      mload(0x40)\n      0x20\n      dup2\n      dup4\n      sub\n      sub\n      dup2\n      mstore\n      swap1\n      0x40\n      mstore\n        /* \"contracts/FakeProdId.sol\":2794:2854  keccak256(abi.encode(name,block.timestamp,block.difficulty)) */\n      dup1\n      mload\n      swap1\n      0x20\n      add\n      keccak256\n        /* \"contracts/FakeProdId.sol\":2789:2855  uint(keccak256(abi.encode(name,block.timestamp,block.difficulty))) */\n      0x00\n      shr\n        /* \"contracts/FakeProdId.sol\":2766:2777  newSupplier */\n      dup2\n        /* \"contracts/FakeProdId.sol\":2766:2788  newSupplier.supplierId */\n      0x00\n      add\n        /* \"contracts/FakeProdId.sol\":2766:2855  newSupplier.supplierId=uint(keccak256(abi.encode(name,block.timestamp,block.difficulty))) */\n      dup2\n      dup2\n      mstore\n      pop\n      pop\n        /* \"contracts/FakeProdId.sol\":2866:2889  newSupplier.kind = \"SU\" */\n      mload(0x40)\n      dup1\n      0x40\n      add\n      0x40\n      mstore\n      dup1\n      0x02\n      dup2\n      mstore\n      0x20\n      add\n      0x5355000000000000000000000000000000000000000000000000000000000000\n      dup2\n      mstore\n      pop\n        /* \"contracts/FakeProdId.sol\":2866:2877  newSupplier */\n      dup2\n        /* \"contracts/FakeProdId.sol\":2866:2882  newSupplier.kind */\n      0x20\n      add\n        /* \"contracts/FakeProdId.sol\":2866:2889  newSupplier.kind = \"SU\" */\n      dup2\n      swap1\n      mstore\n      pop\n        /* \"contracts/FakeProdId.sol\":2919:2923  name */\n      dup2\n        /* \"contracts/FakeProdId.sol\":2900:2911  newSupplier */\n      dup2\n        /* \"contracts/FakeProdId.sol\":2900:2916  newSupplier.name */\n      0x40\n      add\n        /* \"contracts/FakeProdId.sol\":2900:2923  newSupplier.name = name */\n      dup2\n      swap1\n      mstore\n      pop\n        /* \"contracts/FakeProdId.sol\":2971:2972  0 */\n      0x00\n        /* \"contracts/FakeProdId.sol\":2960:2973  new uint[](0) */\n      0xffffffffffffffff\n      dup2\n      gt\n      iszero\n      tag_110\n      jumpi\n      tag_111\n      tag_112\n      jump\t// in\n    tag_111:\n    tag_110:\n      mload(0x40)\n      swap1\n      dup1\n      dup3\n      mstore\n      dup1\n      0x20\n      mul\n      0x20\n      add\n      dup3\n      add\n      0x40\n      mstore\n      dup1\n      iszero\n      tag_113\n      jumpi\n      dup2\n      0x20\n      add\n      0x20\n      dup3\n      mul\n      dup1\n      calldatasize\n      dup4\n      calldatacopy\n      dup1\n      dup3\n      add\n      swap2\n      pop\n      pop\n      swap1\n      pop\n    tag_113:\n      pop\n        /* \"contracts/FakeProdId.sol\":2934:2945  newSupplier */\n      dup2\n        /* \"contracts/FakeProdId.sol\":2934:2957  newSupplier.productList */\n      0x80\n      add\n        /* \"contracts/FakeProdId.sol\":2934:2973  newSupplier.productList = new uint[](0) */\n      dup2\n      swap1\n      mstore\n      pop\n        /* \"contracts/FakeProdId.sol\":3011:3012  0 */\n      0x00\n        /* \"contracts/FakeProdId.sol\":2984:2995  newSupplier */\n      dup2\n        /* \"contracts/FakeProdId.sol\":2984:3008  newSupplier.prodListSize */\n      0x60\n      add\n        /* \"contracts/FakeProdId.sol\":2984:3012  newSupplier.prodListSize = 0 */\n      dup2\n      dup2\n      mstore\n      pop\n      pop\n        /* \"contracts/FakeProdId.sol\":3059:3070  newSupplier */\n      dup1\n        /* \"contracts/FakeProdId.sol\":3023:3032  suppliers */\n      0x03\n        /* \"contracts/FakeProdId.sol\":3023:3056  suppliers[newSupplier.supplierId] */\n      0x00\n        /* \"contracts/FakeProdId.sol\":3033:3044  newSupplier */\n      dup4\n        /* \"contracts/FakeProdId.sol\":3033:3055  newSupplier.supplierId */\n      0x00\n      add\n      mload\n        /* \"contracts/FakeProdId.sol\":3023:3056  suppliers[newSupplier.supplierId] */\n      dup2\n      mstore\n      0x20\n      add\n      swap1\n      dup2\n      mstore\n      0x20\n      add\n      0x00\n      keccak256\n        /* \"contracts/FakeProdId.sol\":3023:3070  suppliers[newSupplier.supplierId] = newSupplier */\n      0x00\n      dup3\n      add\n      mload\n      dup2\n      0x00\n      add\n      sstore\n      0x20\n      dup3\n      add\n      mload\n      dup2\n      0x01\n      add\n      swap1\n      dup1\n      mload\n      swap1\n      0x20\n      add\n      swap1\n      tag_114\n      swap3\n      swap2\n      swap1\n      tag_115\n      jump\t// in\n    tag_114:\n      pop\n      0x40\n      dup3\n      add\n      mload\n      dup2\n      0x02\n      add\n      swap1\n      dup1\n      mload\n      swap1\n      0x20\n      add\n      swap1\n      tag_116\n      swap3\n      swap2\n      swap1\n      tag_115\n      jump\t// in\n    tag_116:\n      pop\n      0x60\n      dup3\n      add\n      mload\n      dup2\n      0x03\n      add\n      sstore\n      0x80\n      dup3\n      add\n      mload\n      dup2\n      0x04\n      add\n      swap1\n      dup1\n      mload\n      swap1\n      0x20\n      add\n      swap1\n      tag_117\n      swap3\n      swap2\n      swap1\n      tag_118\n      jump\t// in\n    tag_117:\n      pop\n      swap1\n      pop\n      pop\n        /* \"contracts/FakeProdId.sol\":3086:3114  supplierDetails(newSupplier) */\n      0xee9505fb4b731a28d44a5a188b63fa0a798a849227f2c8fc34ce812dc1a4d91f\n        /* \"contracts/FakeProdId.sol\":3102:3113  newSupplier */\n      dup2\n        /* \"contracts/FakeProdId.sol\":3086:3114  supplierDetails(newSupplier) */\n      mload(0x40)\n      tag_119\n      swap2\n      swap1\n      tag_39\n      jump\t// in\n    tag_119:\n      mload(0x40)\n      dup1\n      swap2\n      sub\n      swap1\n      log1\n        /* \"contracts/FakeProdId.sol\":2717:3122  {\r... */\n      pop\n        /* \"contracts/FakeProdId.sol\":2670:3122  function addSupplier(string memory name) public{\r... */\n      pop\n      jump\t// out\n        /* \"contracts/FakeProdId.sol\":4477:4621  function getdistributorDetails(uint distributorId) public view returns (Distributor memory){\r... */\n    tag_32:\n        /* \"contracts/FakeProdId.sol\":4549:4567  Distributor memory */\n      tag_120\n      tag_121\n      jump\t// in\n    tag_120:\n        /* \"contracts/FakeProdId.sol\":4586:4598  distributors */\n      0x05\n        /* \"contracts/FakeProdId.sol\":4586:4613  distributors[distributorId] */\n      0x00\n        /* \"contracts/FakeProdId.sol\":4599:4612  distributorId */\n      dup4\n        /* \"contracts/FakeProdId.sol\":4586:4613  distributors[distributorId] */\n      dup2\n      mstore\n      0x20\n      add\n      swap1\n      dup2\n      mstore\n      0x20\n      add\n      0x00\n      keccak256\n        /* \"contracts/FakeProdId.sol\":4579:4613  return distributors[distributorId] */\n      mload(0x40)\n      dup1\n      0xa0\n      add\n      0x40\n      mstore\n      swap1\n      dup2\n      0x00\n      dup3\n      add\n      sload\n      dup2\n      mstore\n      0x20\n      add\n      0x01\n      dup3\n      add\n      dup1\n      sload\n      tag_123\n      swap1\n      tag_124\n      jump\t// in\n    tag_123:\n      dup1\n      0x1f\n      add\n      0x20\n      dup1\n      swap2\n      div\n      mul\n      0x20\n      add\n      mload(0x40)\n      swap1\n      dup2\n      add\n      0x40\n      mstore\n      dup1\n      swap3\n      swap2\n      swap1\n      dup2\n      dup2\n      mstore\n      0x20\n      add\n      dup3\n      dup1\n      sload\n      tag_125\n      swap1\n      tag_124\n      jump\t// in\n    tag_125:\n      dup1\n      iszero\n      tag_126\n      jumpi\n      dup1\n      0x1f\n      lt\n      tag_127\n      jumpi\n      0x0100\n      dup1\n      dup4\n      sload\n      div\n      mul\n      dup4\n      mstore\n      swap2\n      0x20\n      add\n      swap2\n      jump(tag_126)\n    tag_127:\n      dup3\n      add\n      swap2\n      swap1\n      0x00\n      mstore\n      keccak256(0x00, 0x20)\n      swap1\n    tag_128:\n      dup2\n      sload\n      dup2\n      mstore\n      swap1\n      0x01\n      add\n      swap1\n      0x20\n      add\n      dup1\n      dup4\n      gt\n      tag_128\n      jumpi\n      dup3\n      swap1\n      sub\n      0x1f\n      and\n      dup3\n      add\n      swap2\n    tag_126:\n      pop\n      pop\n      pop\n      pop\n      pop\n      dup2\n      mstore\n      0x20\n      add\n      0x02\n      dup3\n      add\n      dup1\n      sload\n      tag_129\n      swap1\n      tag_124\n      jump\t// in\n    tag_129:\n      dup1\n      0x1f\n      add\n      0x20\n      dup1\n      swap2\n      div\n      mul\n      0x20\n      add\n      mload(0x40)\n      swap1\n      dup2\n      add\n      0x40\n      mstore\n      dup1\n      swap3\n      swap2\n      swap1\n      dup2\n      dup2\n      mstore\n      0x20\n      add\n      dup3\n      dup1\n      sload\n      tag_130\n      swap1\n      tag_124\n      jump\t// in\n    tag_130:\n      dup1\n      iszero\n      tag_131\n      jumpi\n      dup1\n      0x1f\n      lt\n      tag_132\n      jumpi\n      0x0100\n      dup1\n      dup4\n      sload\n      div\n      mul\n      dup4\n      mstore\n      swap2\n      0x20\n      add\n      swap2\n      jump(tag_131)\n    tag_132:\n      dup3\n      add\n      swap2\n      swap1\n      0x00\n      mstore\n      keccak256(0x00, 0x20)\n      swap1\n    tag_133:\n      dup2\n      sload\n      dup2\n      mstore\n      swap1\n      0x01\n      add\n      swap1\n      0x20\n      add\n      dup1\n      dup4\n      gt\n      tag_133\n      jumpi\n      dup3\n      swap1\n      sub\n      0x1f\n      and\n      dup3\n      add\n      swap2\n    tag_131:\n      pop\n      pop\n      pop\n      pop\n      pop\n      dup2\n      mstore\n      0x20\n      add\n      0x03\n      dup3\n      add\n      sload\n      dup2\n      mstore\n      0x20\n      add\n      0x04\n      dup3\n      add\n      dup1\n      sload\n      dup1\n      0x20\n      mul\n      0x20\n      add\n      mload(0x40)\n      swap1\n      dup2\n      add\n      0x40\n      mstore\n      dup1\n      swap3\n      swap2\n      swap1\n      dup2\n      dup2\n      mstore\n      0x20\n      add\n      dup3\n      dup1\n      sload\n      dup1\n      iszero\n      tag_134\n      jumpi\n      0x20\n      mul\n      dup3\n      add\n      swap2\n      swap1\n      0x00\n      mstore\n      keccak256(0x00, 0x20)\n      swap1\n    tag_135:\n      dup2\n      sload\n      dup2\n      mstore\n      0x20\n      add\n      swap1\n      0x01\n      add\n      swap1\n      dup1\n      dup4\n      gt\n      tag_135\n      jumpi\n    tag_134:\n      pop\n      pop\n      pop\n      pop\n      pop\n      dup2\n      mstore\n      pop\n      pop\n      swap1\n      pop\n        /* \"contracts/FakeProdId.sol\":4477:4621  function getdistributorDetails(uint distributorId) public view returns (Distributor memory){\r... */\n      swap2\n      swap1\n      pop\n      jump\t// out\n        /* \"contracts/FakeProdId.sol\":3130:3259  function getsupplierDetails(uint supplierId) public view returns (Supplier memory){\r... */\n    tag_37:\n        /* \"contracts/FakeProdId.sol\":3196:3211  Supplier memory */\n      tag_136\n      tag_107\n      jump\t// in\n    tag_136:\n        /* \"contracts/FakeProdId.sol\":3230:3239  suppliers */\n      0x03\n        /* \"contracts/FakeProdId.sol\":3230:3251  suppliers[supplierId] */\n      0x00\n        /* \"contracts/FakeProdId.sol\":3240:3250  supplierId */\n      dup4\n        /* \"contracts/FakeProdId.sol\":3230:3251  suppliers[supplierId] */\n      dup2\n      mstore\n      0x20\n      add\n      swap1\n      dup2\n      mstore\n      0x20\n      add\n      0x00\n      keccak256\n        /* \"contracts/FakeProdId.sol\":3223:3251  return suppliers[supplierId] */\n      mload(0x40)\n      dup1\n      0xa0\n      add\n      0x40\n      mstore\n      swap1\n      dup2\n      0x00\n      dup3\n      add\n      sload\n      dup2\n      mstore\n      0x20\n      add\n      0x01\n      dup3\n      add\n      dup1\n      sload\n      tag_138\n      swap1\n      tag_124\n      jump\t// in\n    tag_138:\n      dup1\n      0x1f\n      add\n      0x20\n      dup1\n      swap2\n      div\n      mul\n      0x20\n      add\n      mload(0x40)\n      swap1\n      dup2\n      add\n      0x40\n      mstore\n      dup1\n      swap3\n      swap2\n      swap1\n      dup2\n      dup2\n      mstore\n      0x20\n      add\n      dup3\n      dup1\n      sload\n      tag_139\n      swap1\n      tag_124\n      jump\t// in\n    tag_139:\n      dup1\n      iszero\n      tag_140\n      jumpi\n      dup1\n      0x1f\n      lt\n      tag_141\n      jumpi\n      0x0100\n      dup1\n      dup4\n      sload\n      div\n      mul\n      dup4\n      mstore\n      swap2\n      0x20\n      add\n      swap2\n      jump(tag_140)\n    tag_141:\n      dup3\n      add\n      swap2\n      swap1\n      0x00\n      mstore\n      keccak256(0x00, 0x20)\n      swap1\n    tag_142:\n      dup2\n      sload\n      dup2\n      mstore\n      swap1\n      0x01\n      add\n      swap1\n      0x20\n      add\n      dup1\n      dup4\n      gt\n      tag_142\n      jumpi\n      dup3\n      swap1\n      sub\n      0x1f\n      and\n      dup3\n      add\n      swap2\n    tag_140:\n      pop\n      pop\n      pop\n      pop\n      pop\n      dup2\n      mstore\n      0x20\n      add\n      0x02\n      dup3\n      add\n      dup1\n      sload\n      tag_143\n      swap1\n      tag_124\n      jump\t// in\n    tag_143:\n      dup1\n      0x1f\n      add\n      0x20\n      dup1\n      swap2\n      div\n      mul\n      0x20\n      add\n      mload(0x40)\n      swap1\n      dup2\n      add\n      0x40\n      mstore\n      dup1\n      swap3\n      swap2\n      swap1\n      dup2\n      dup2\n      mstore\n      0x20\n      add\n      dup3\n      dup1\n      sload\n      tag_144\n      swap1\n      tag_124\n      jump\t// in\n    tag_144:\n      dup1\n      iszero\n      tag_145\n      jumpi\n      dup1\n      0x1f\n      lt\n      tag_146\n      jumpi\n      0x0100\n      dup1\n      dup4\n      sload\n      div\n      mul\n      dup4\n      mstore\n      swap2\n      0x20\n      add\n      swap2\n      jump(tag_145)\n    tag_146:\n      dup3\n      add\n      swap2\n      swap1\n      0x00\n      mstore\n      keccak256(0x00, 0x20)\n      swap1\n    tag_147:\n      dup2\n      sload\n      dup2\n      mstore\n      swap1\n      0x01\n      add\n      swap1\n      0x20\n      add\n      dup1\n      dup4\n      gt\n      tag_147\n      jumpi\n      dup3\n      swap1\n      sub\n      0x1f\n      and\n      dup3\n      add\n      swap2\n    tag_145:\n      pop\n      pop\n      pop\n      pop\n      pop\n      dup2\n      mstore\n      0x20\n      add\n      0x03\n      dup3\n      add\n      sload\n      dup2\n      mstore\n      0x20\n      add\n      0x04\n      dup3\n      add\n      dup1\n      sload\n      dup1\n      0x20\n      mul\n      0x20\n      add\n      mload(0x40)\n      swap1\n      dup2\n      add\n      0x40\n      mstore\n      dup1\n      swap3\n      swap2\n      swap1\n      dup2\n      dup2\n      mstore\n      0x20\n      add\n      dup3\n      dup1\n      sload\n      dup1\n      iszero\n      tag_148\n      jumpi\n      0x20\n      mul\n      dup3\n      add\n      swap2\n      swap1\n      0x00\n      mstore\n      keccak256(0x00, 0x20)\n      swap1\n    tag_149:\n      dup2\n      sload\n      dup2\n      mstore\n      0x20\n      add\n      swap1\n      0x01\n      add\n      swap1\n      dup1\n      dup4\n      gt\n      tag_149\n      jumpi\n    tag_148:\n      pop\n      pop\n      pop\n      pop\n      pop\n      dup2\n      mstore\n      pop\n      pop\n      swap1\n      pop\n        /* \"contracts/FakeProdId.sol\":3130:3259  function getsupplierDetails(uint supplierId) public view returns (Supplier memory){\r... */\n      swap2\n      swap1\n      pop\n      jump\t// out\n        /* \"contracts/FakeProdId.sol\":1622:1670  mapping(uint => Distributor) public distributors */\n    tag_42:\n      mstore(0x20, 0x05)\n      dup1\n      0x00\n      mstore\n      keccak256(0x00, 0x40)\n      0x00\n      swap2\n      pop\n      swap1\n      pop\n      dup1\n      0x00\n      add\n      sload\n      swap1\n      dup1\n      0x01\n      add\n      dup1\n      sload\n      tag_150\n      swap1\n      tag_124\n      jump\t// in\n    tag_150:\n      dup1\n      0x1f\n      add\n      0x20\n      dup1\n      swap2\n      div\n      mul\n      0x20\n      add\n      mload(0x40)\n      swap1\n      dup2\n      add\n      0x40\n      mstore\n      dup1\n      swap3\n      swap2\n      swap1\n      dup2\n      dup2\n      mstore\n      0x20\n      add\n      dup3\n      dup1\n      sload\n      tag_151\n      swap1\n      tag_124\n      jump\t// in\n    tag_151:\n      dup1\n      iszero\n      tag_152\n      jumpi\n      dup1\n      0x1f\n      lt\n      tag_153\n      jumpi\n      0x0100\n      dup1\n      dup4\n      sload\n      div\n      mul\n      dup4\n      mstore\n      swap2\n      0x20\n      add\n      swap2\n      jump(tag_152)\n    tag_153:\n      dup3\n      add\n      swap2\n      swap1\n      0x00\n      mstore\n      keccak256(0x00, 0x20)\n      swap1\n    tag_154:\n      dup2\n      sload\n      dup2\n      mstore\n      swap1\n      0x01\n      add\n      swap1\n      0x20\n      add\n      dup1\n      dup4\n      gt\n      tag_154\n      jumpi\n      dup3\n      swap1\n      sub\n      0x1f\n      and\n      dup3\n      add\n      swap2\n    tag_152:\n      pop\n      pop\n      pop\n      pop\n      pop\n      swap1\n      dup1\n      0x02\n      add\n      dup1\n      sload\n      tag_155\n      swap1\n      tag_124\n      jump\t// in\n    tag_155:\n      dup1\n      0x1f\n      add\n      0x20\n      dup1\n      swap2\n      div\n      mul\n      0x20\n      add\n      mload(0x40)\n      swap1\n      dup2\n      add\n      0x40\n      mstore\n      dup1\n      swap3\n      swap2\n      swap1\n      dup2\n      dup2\n      mstore\n      0x20\n      add\n      dup3\n      dup1\n      sload\n      tag_156\n      swap1\n      tag_124\n      jump\t// in\n    tag_156:\n      dup1\n      iszero\n      tag_157\n      jumpi\n      dup1\n      0x1f\n      lt\n      tag_158\n      jumpi\n      0x0100\n      dup1\n      dup4\n      sload\n      div\n      mul\n      dup4\n      mstore\n      swap2\n      0x20\n      add\n      swap2\n      jump(tag_157)\n    tag_158:\n      dup3\n      add\n      swap2\n      swap1\n      0x00\n      mstore\n      keccak256(0x00, 0x20)\n      swap1\n    tag_159:\n      dup2\n      sload\n      dup2\n      mstore\n      swap1\n      0x01\n      add\n      swap1\n      0x20\n      add\n      dup1\n      dup4\n      gt\n      tag_159\n      jumpi\n      dup3\n      swap1\n      sub\n      0x1f\n      and\n      dup3\n      add\n      swap2\n    tag_157:\n      pop\n      pop\n      pop\n      pop\n      pop\n      swap1\n      dup1\n      0x03\n      add\n      sload\n      swap1\n      pop\n      dup5\n      jump\t// out\n        /* \"contracts/FakeProdId.sol\":1443:1483  mapping(uint => Product) public products */\n    tag_47:\n      mstore(0x20, 0x01)\n      dup1\n      0x00\n      mstore\n      keccak256(0x00, 0x40)\n      0x00\n      swap2\n      pop\n      swap1\n      pop\n      dup1\n      0x00\n      add\n      sload\n      swap1\n      dup1\n      0x01\n      add\n      dup1\n      sload\n      tag_160\n      swap1\n      tag_124\n      jump\t// in\n    tag_160:\n      dup1\n      0x1f\n      add\n      0x20\n      dup1\n      swap2\n      div\n      mul\n      0x20\n      add\n      mload(0x40)\n      swap1\n      dup2\n      add\n      0x40\n      mstore\n      dup1\n      swap3\n      swap2\n      swap1\n      dup2\n      dup2\n      mstore\n      0x20\n      add\n      dup3\n      dup1\n      sload\n      tag_161\n      swap1\n      tag_124\n      jump\t// in\n    tag_161:\n      dup1\n      iszero\n      tag_162\n      jumpi\n      dup1\n      0x1f\n      lt\n      tag_163\n      jumpi\n      0x0100\n      dup1\n      dup4\n      sload\n      div\n      mul\n      dup4\n      mstore\n      swap2\n      0x20\n      add\n      swap2\n      jump(tag_162)\n    tag_163:\n      dup3\n      add\n      swap2\n      swap1\n      0x00\n      mstore\n      keccak256(0x00, 0x20)\n      swap1\n    tag_164:\n      dup2\n      sload\n      dup2\n      mstore\n      swap1\n      0x01\n      add\n      swap1\n      0x20\n      add\n      dup1\n      dup4\n      gt\n      tag_164\n      jumpi\n      dup3\n      swap1\n      sub\n      0x1f\n      and\n      dup3\n      add\n      swap2\n    tag_162:\n      pop\n      pop\n      pop\n      pop\n      pop\n      swap1\n      dup1\n      0x02\n      add\n      sload\n      swap1\n      dup1\n      0x03\n      add\n      dup1\n      sload\n      tag_165\n      swap1\n      tag_124\n      jump\t// in\n    tag_165:\n      dup1\n      0x1f\n      add\n      0x20\n      dup1\n      swap2\n      div\n      mul\n      0x20\n      add\n      mload(0x40)\n      swap1\n      dup2\n      add\n      0x40\n      mstore\n      dup1\n      swap3\n      swap2\n      swap1\n      dup2\n      dup2\n      mstore\n      0x20\n      add\n      dup3\n      dup1\n      sload\n      tag_166\n      swap1\n      tag_124\n      jump\t// in\n    tag_166:\n      dup1\n      iszero\n      tag_167\n      jumpi\n      dup1\n      0x1f\n      lt\n      tag_168\n      jumpi\n      0x0100\n      dup1\n      dup4\n      sload\n      div\n      mul\n      dup4\n      mstore\n      swap2\n      0x20\n      add\n      swap2\n      jump(tag_167)\n    tag_168:\n      dup3\n      add\n      swap2\n      swap1\n      0x00\n      mstore\n      keccak256(0x00, 0x20)\n      swap1\n    tag_169:\n      dup2\n      sload\n      dup2\n      mstore\n      swap1\n      0x01\n      add\n      swap1\n      0x20\n      add\n      dup1\n      dup4\n      gt\n      tag_169\n      jumpi\n      dup3\n      swap1\n      sub\n      0x1f\n      and\n      dup3\n      add\n      swap2\n    tag_167:\n      pop\n      pop\n      pop\n      pop\n      pop\n      swap1\n      dup1\n      0x05\n      add\n      sload\n      swap1\n      dup1\n      0x06\n      add\n      dup1\n      sload\n      tag_170\n      swap1\n      tag_124\n      jump\t// in\n    tag_170:\n      dup1\n      0x1f\n      add\n      0x20\n      dup1\n      swap2\n      div\n      mul\n      0x20\n      add\n      mload(0x40)\n      swap1\n      dup2\n      add\n      0x40\n      mstore\n      dup1\n      swap3\n      swap2\n      swap1\n      dup2\n      dup2\n      mstore\n      0x20\n      add\n      dup3\n      dup1\n      sload\n      tag_171\n      swap1\n      tag_124\n      jump\t// in\n    tag_171:\n      dup1\n      iszero\n      tag_172\n      jumpi\n      dup1\n      0x1f\n      lt\n      tag_173\n      jumpi\n      0x0100\n      dup1\n      dup4\n      sload\n      div\n      mul\n      dup4\n      mstore\n      swap2\n      0x20\n      add\n      swap2\n      jump(tag_172)\n    tag_173:\n      dup3\n      add\n      swap2\n      swap1\n      0x00\n      mstore\n      keccak256(0x00, 0x20)\n      swap1\n    tag_174:\n      dup2\n      sload\n      dup2\n      mstore\n      swap1\n      0x01\n      add\n      swap1\n      0x20\n      add\n      dup1\n      dup4\n      gt\n      tag_174\n      jumpi\n      dup3\n      swap1\n      sub\n      0x1f\n      and\n      dup3\n      add\n      swap2\n    tag_172:\n      pop\n      pop\n      pop\n      pop\n      pop\n      swap1\n      dup1\n      0x07\n      add\n      sload\n      swap1\n      pop\n      dup8\n      jump\t// out\n        /* \"contracts/FakeProdId.sol\":3956:4465  function addDistributor(string memory name) public{\r... */\n    tag_52:\n        /* \"contracts/FakeProdId.sol\":4017:4050  Distributor memory newDistributor */\n      tag_176\n      tag_121\n      jump\t// in\n    tag_176:\n        /* \"contracts/FakeProdId.sol\":4116:4120  name */\n      dup2\n        /* \"contracts/FakeProdId.sol\":4121:4136  block.timestamp */\n      timestamp\n        /* \"contracts/FakeProdId.sol\":4137:4153  block.difficulty */\n      difficulty\n        /* \"contracts/FakeProdId.sol\":4105:4154  abi.encode(name,block.timestamp,block.difficulty) */\n      add(0x20, mload(0x40))\n      tag_177\n      swap4\n      swap3\n      swap2\n      swap1\n      tag_109\n      jump\t// in\n    tag_177:\n      mload(0x40)\n      0x20\n      dup2\n      dup4\n      sub\n      sub\n      dup2\n      mstore\n      swap1\n      0x40\n      mstore\n        /* \"contracts/FakeProdId.sol\":4095:4155  keccak256(abi.encode(name,block.timestamp,block.difficulty)) */\n      dup1\n      mload\n      swap1\n      0x20\n      add\n      keccak256\n        /* \"contracts/FakeProdId.sol\":4090:4156  uint(keccak256(abi.encode(name,block.timestamp,block.difficulty))) */\n      0x00\n      shr\n        /* \"contracts/FakeProdId.sol\":4061:4075  newDistributor */\n      dup2\n        /* \"contracts/FakeProdId.sol\":4061:4089  newDistributor.distributorId */\n      0x00\n      add\n        /* \"contracts/FakeProdId.sol\":4061:4156  newDistributor.distributorId=uint(keccak256(abi.encode(name,block.timestamp,block.difficulty))) */\n      dup2\n      dup2\n      mstore\n      pop\n      pop\n        /* \"contracts/FakeProdId.sol\":4167:4193  newDistributor.kind = \"DI\" */\n      mload(0x40)\n      dup1\n      0x40\n      add\n      0x40\n      mstore\n      dup1\n      0x02\n      dup2\n      mstore\n      0x20\n      add\n      0x4449000000000000000000000000000000000000000000000000000000000000\n      dup2\n      mstore\n      pop\n        /* \"contracts/FakeProdId.sol\":4167:4181  newDistributor */\n      dup2\n        /* \"contracts/FakeProdId.sol\":4167:4186  newDistributor.kind */\n      0x20\n      add\n        /* \"contracts/FakeProdId.sol\":4167:4193  newDistributor.kind = \"DI\" */\n      dup2\n      swap1\n      mstore\n      pop\n        /* \"contracts/FakeProdId.sol\":4226:4230  name */\n      dup2\n        /* \"contracts/FakeProdId.sol\":4204:4218  newDistributor */\n      dup2\n        /* \"contracts/FakeProdId.sol\":4204:4223  newDistributor.name */\n      0x40\n      add\n        /* \"contracts/FakeProdId.sol\":4204:4230  newDistributor.name = name */\n      dup2\n      swap1\n      mstore\n      pop\n        /* \"contracts/FakeProdId.sol\":4281:4282  0 */\n      0x00\n        /* \"contracts/FakeProdId.sol\":4270:4283  new uint[](0) */\n      0xffffffffffffffff\n      dup2\n      gt\n      iszero\n      tag_178\n      jumpi\n      tag_179\n      tag_112\n      jump\t// in\n    tag_179:\n    tag_178:\n      mload(0x40)\n      swap1\n      dup1\n      dup3\n      mstore\n      dup1\n      0x20\n      mul\n      0x20\n      add\n      dup3\n      add\n      0x40\n      mstore\n      dup1\n      iszero\n      tag_180\n      jumpi\n      dup2\n      0x20\n      add\n      0x20\n      dup3\n      mul\n      dup1\n      calldatasize\n      dup4\n      calldatacopy\n      dup1\n      dup3\n      add\n      swap2\n      pop\n      pop\n      swap1\n      pop\n    tag_180:\n      pop\n        /* \"contracts/FakeProdId.sol\":4241:4255  newDistributor */\n      dup2\n        /* \"contracts/FakeProdId.sol\":4241:4267  newDistributor.productList */\n      0x80\n      add\n        /* \"contracts/FakeProdId.sol\":4241:4283  newDistributor.productList = new uint[](0) */\n      dup2\n      swap1\n      mstore\n      pop\n        /* \"contracts/FakeProdId.sol\":4324:4325  0 */\n      0x00\n        /* \"contracts/FakeProdId.sol\":4294:4308  newDistributor */\n      dup2\n        /* \"contracts/FakeProdId.sol\":4294:4321  newDistributor.prodListSize */\n      0x60\n      add\n        /* \"contracts/FakeProdId.sol\":4294:4325  newDistributor.prodListSize = 0 */\n      dup2\n      dup2\n      mstore\n      pop\n      pop\n        /* \"contracts/FakeProdId.sol\":4383:4397  newDistributor */\n      dup1\n        /* \"contracts/FakeProdId.sol\":4338:4350  distributors */\n      0x05\n        /* \"contracts/FakeProdId.sol\":4338:4380  distributors[newDistributor.distributorId] */\n      0x00\n        /* \"contracts/FakeProdId.sol\":4351:4365  newDistributor */\n      dup4\n        /* \"contracts/FakeProdId.sol\":4351:4379  newDistributor.distributorId */\n      0x00\n      add\n      mload\n        /* \"contracts/FakeProdId.sol\":4338:4380  distributors[newDistributor.distributorId] */\n      dup2\n      mstore\n      0x20\n      add\n      swap1\n      dup2\n      mstore\n      0x20\n      add\n      0x00\n      keccak256\n        /* \"contracts/FakeProdId.sol\":4338:4397  distributors[newDistributor.distributorId] = newDistributor */\n      0x00\n      dup3\n      add\n      mload\n      dup2\n      0x00\n      add\n      sstore\n      0x20\n      dup3\n      add\n      mload\n      dup2\n      0x01\n      add\n      swap1\n      dup1\n      mload\n      swap1\n      0x20\n      add\n      swap1\n      tag_181\n      swap3\n      swap2\n      swap1\n      tag_115\n      jump\t// in\n    tag_181:\n      pop\n      0x40\n      dup3\n      add\n      mload\n      dup2\n      0x02\n      add\n      swap1\n      dup1\n      mload\n      swap1\n      0x20\n      add\n      swap1\n      tag_182\n      swap3\n      swap2\n      swap1\n      tag_115\n      jump\t// in\n    tag_182:\n      pop\n      0x60\n      dup3\n      add\n      mload\n      dup2\n      0x03\n      add\n      sstore\n      0x80\n      dup3\n      add\n      mload\n      dup2\n      0x04\n      add\n      swap1\n      dup1\n      mload\n      swap1\n      0x20\n      add\n      swap1\n      tag_183\n      swap3\n      swap2\n      swap1\n      tag_118\n      jump\t// in\n    tag_183:\n      pop\n      swap1\n      pop\n      pop\n        /* \"contracts/FakeProdId.sol\":4423:4457  distributorDetails(newDistributor) */\n      0x40e1cdda6dd76675162fedde8a906becf47f84719815309b901e098f5d5c3c28\n        /* \"contracts/FakeProdId.sol\":4442:4456  newDistributor */\n      dup2\n        /* \"contracts/FakeProdId.sol\":4423:4457  distributorDetails(newDistributor) */\n      mload(0x40)\n      tag_184\n      swap2\n      swap1\n      tag_34\n      jump\t// in\n    tag_184:\n      mload(0x40)\n      dup1\n      swap2\n      sub\n      swap1\n      log1\n        /* \"contracts/FakeProdId.sol\":4006:4465  {\r... */\n      pop\n        /* \"contracts/FakeProdId.sol\":3956:4465  function addDistributor(string memory name) public{\r... */\n      pop\n      jump\t// out\n        /* \"contracts/FakeProdId.sol\":1677:1719  mapping(uint => Retailer) public retailers */\n    tag_55:\n      mstore(0x20, 0x06)\n      dup1\n      0x00\n      mstore\n      keccak256(0x00, 0x40)\n      0x00\n      swap2\n      pop\n      swap1\n      pop\n      dup1\n      0x00\n      add\n      sload\n      swap1\n      dup1\n      0x01\n      add\n      dup1\n      sload\n      tag_185\n      swap1\n      tag_124\n      jump\t// in\n    tag_185:\n      dup1\n      0x1f\n      add\n      0x20\n      dup1\n      swap2\n      div\n      mul\n      0x20\n      add\n      mload(0x40)\n      swap1\n      dup2\n      add\n      0x40\n      mstore\n      dup1\n      swap3\n      swap2\n      swap1\n      dup2\n      dup2\n      mstore\n      0x20\n      add\n      dup3\n      dup1\n      sload\n      tag_186\n      swap1\n      tag_124\n      jump\t// in\n    tag_186:\n      dup1\n      iszero\n      tag_187\n      jumpi\n      dup1\n      0x1f\n      lt\n      tag_188\n      jumpi\n      0x0100\n      dup1\n      dup4\n      sload\n      div\n      mul\n      dup4\n      mstore\n      swap2\n      0x20\n      add\n      swap2\n      jump(tag_187)\n    tag_188:\n      dup3\n      add\n      swap2\n      swap1\n      0x00\n      mstore\n      keccak256(0x00, 0x20)\n      swap1\n    tag_189:\n      dup2\n      sload\n      dup2\n      mstore\n      swap1\n      0x01\n      add\n      swap1\n      0x20\n      add\n      dup1\n      dup4\n      gt\n      tag_189\n      jumpi\n      dup3\n      swap1\n      sub\n      0x1f\n      and\n      dup3\n      add\n      swap2\n    tag_187:\n      pop\n      pop\n      pop\n      pop\n      pop\n      swap1\n      dup1\n      0x02\n      add\n      sload\n      swap1\n      pop\n      dup4\n      jump\t// out\n        /* \"contracts/FakeProdId.sol\":1728:2358  function addProduct(string memory name,uint price,string memory description) public{\r... */\n    tag_61:\n        /* \"contracts/FakeProdId.sol\":1822:1847  Product memory newProduct */\n      tag_191\n      tag_192\n      jump\t// in\n    tag_191:\n        /* \"contracts/FakeProdId.sol\":1905:1909  name */\n      dup4\n        /* \"contracts/FakeProdId.sol\":1910:1925  block.timestamp */\n      timestamp\n        /* \"contracts/FakeProdId.sol\":1926:1942  block.difficulty */\n      difficulty\n        /* \"contracts/FakeProdId.sol\":1894:1943  abi.encode(name,block.timestamp,block.difficulty) */\n      add(0x20, mload(0x40))\n      tag_193\n      swap4\n      swap3\n      swap2\n      swap1\n      tag_109\n      jump\t// in\n    tag_193:\n      mload(0x40)\n      0x20\n      dup2\n      dup4\n      sub\n      sub\n      dup2\n      mstore\n      swap1\n      0x40\n      mstore\n        /* \"contracts/FakeProdId.sol\":1884:1944  keccak256(abi.encode(name,block.timestamp,block.difficulty)) */\n      dup1\n      mload\n      swap1\n      0x20\n      add\n      keccak256\n        /* \"contracts/FakeProdId.sol\":1879:1945  uint(keccak256(abi.encode(name,block.timestamp,block.difficulty))) */\n      0x00\n      shr\n        /* \"contracts/FakeProdId.sol\":1858:1868  newProduct */\n      dup2\n        /* \"contracts/FakeProdId.sol\":1858:1878  newProduct.productId */\n      0x00\n      add\n        /* \"contracts/FakeProdId.sol\":1858:1945  newProduct.productId=uint(keccak256(abi.encode(name,block.timestamp,block.difficulty))) */\n      dup2\n      dup2\n      mstore\n      pop\n      pop\n        /* \"contracts/FakeProdId.sol\":1974:1978  name */\n      dup4\n        /* \"contracts/FakeProdId.sol\":1956:1966  newProduct */\n      dup2\n        /* \"contracts/FakeProdId.sol\":1956:1971  newProduct.name */\n      0x20\n      add\n        /* \"contracts/FakeProdId.sol\":1956:1978  newProduct.name = name */\n      dup2\n      swap1\n      mstore\n      pop\n        /* \"contracts/FakeProdId.sol\":2008:2013  price */\n      dup3\n        /* \"contracts/FakeProdId.sol\":1989:1999  newProduct */\n      dup2\n        /* \"contracts/FakeProdId.sol\":1989:2005  newProduct.price */\n      0x40\n      add\n        /* \"contracts/FakeProdId.sol\":1989:2013  newProduct.price = price */\n      dup2\n      dup2\n      mstore\n      pop\n      pop\n        /* \"contracts/FakeProdId.sol\":2049:2060  description */\n      dup2\n        /* \"contracts/FakeProdId.sol\":2024:2034  newProduct */\n      dup2\n        /* \"contracts/FakeProdId.sol\":2024:2046  newProduct.description */\n      0x60\n      add\n        /* \"contracts/FakeProdId.sol\":2024:2060  newProduct.description = description */\n      dup2\n      swap1\n      mstore\n      pop\n        /* \"contracts/FakeProdId.sol\":2071:2095  newProduct.curOwner = \"\" */\n      mload(0x40)\n      dup1\n      0x20\n      add\n      0x40\n      mstore\n      dup1\n      0x00\n      dup2\n      mstore\n      pop\n        /* \"contracts/FakeProdId.sol\":2071:2081  newProduct */\n      dup2\n        /* \"contracts/FakeProdId.sol\":2071:2090  newProduct.curOwner */\n      0xc0\n      add\n        /* \"contracts/FakeProdId.sol\":2071:2095  newProduct.curOwner = \"\" */\n      dup2\n      swap1\n      mstore\n      pop\n        /* \"contracts/FakeProdId.sol\":2130:2131  0 */\n      0x00\n        /* \"contracts/FakeProdId.sol\":2106:2116  newProduct */\n      dup2\n        /* \"contracts/FakeProdId.sol\":2106:2127  newProduct.curOwnerId */\n      0xe0\n      add\n        /* \"contracts/FakeProdId.sol\":2106:2131  newProduct.curOwnerId = 0 */\n      dup2\n      dup2\n      mstore\n      pop\n      pop\n        /* \"contracts/FakeProdId.sol\":2177:2178  0 */\n      0x00\n        /* \"contracts/FakeProdId.sol\":2166:2179  new uint[](0) */\n      0xffffffffffffffff\n      dup2\n      gt\n      iszero\n      tag_194\n      jumpi\n      tag_195\n      tag_112\n      jump\t// in\n    tag_195:\n    tag_194:\n      mload(0x40)\n      swap1\n      dup1\n      dup3\n      mstore\n      dup1\n      0x20\n      mul\n      0x20\n      add\n      dup3\n      add\n      0x40\n      mstore\n      dup1\n      iszero\n      tag_196\n      jumpi\n      dup2\n      0x20\n      add\n      0x20\n      dup3\n      mul\n      dup1\n      calldatasize\n      dup4\n      calldatacopy\n      dup1\n      dup3\n      add\n      swap2\n      pop\n      pop\n      swap1\n      pop\n    tag_196:\n      pop\n        /* \"contracts/FakeProdId.sol\":2142:2152  newProduct */\n      dup2\n        /* \"contracts/FakeProdId.sol\":2142:2163  newProduct.prevOwners */\n      0x80\n      add\n        /* \"contracts/FakeProdId.sol\":2142:2179  newProduct.prevOwners = new uint[](0) */\n      dup2\n      swap1\n      mstore\n      pop\n        /* \"contracts/FakeProdId.sol\":2218:2219  0 */\n      0x00\n        /* \"contracts/FakeProdId.sol\":2190:2200  newProduct */\n      dup2\n        /* \"contracts/FakeProdId.sol\":2190:2215  newProduct.prevOwnersSize */\n      0xa0\n      add\n        /* \"contracts/FakeProdId.sol\":2190:2219  newProduct.prevOwnersSize = 0 */\n      dup2\n      dup2\n      mstore\n      pop\n      pop\n        /* \"contracts/FakeProdId.sol\":2263:2273  newProduct */\n      dup1\n        /* \"contracts/FakeProdId.sol\":2230:2238  products */\n      0x01\n        /* \"contracts/FakeProdId.sol\":2230:2260  products[newProduct.productId] */\n      0x00\n        /* \"contracts/FakeProdId.sol\":2239:2249  newProduct */\n      dup4\n        /* \"contracts/FakeProdId.sol\":2239:2259  newProduct.productId */\n      0x00\n      add\n      mload\n        /* \"contracts/FakeProdId.sol\":2230:2260  products[newProduct.productId] */\n      dup2\n      mstore\n      0x20\n      add\n      swap1\n      dup2\n      mstore\n      0x20\n      add\n      0x00\n      keccak256\n        /* \"contracts/FakeProdId.sol\":2230:2273  products[newProduct.productId] = newProduct */\n      0x00\n      dup3\n      add\n      mload\n      dup2\n      0x00\n      add\n      sstore\n      0x20\n      dup3\n      add\n      mload\n      dup2\n      0x01\n      add\n      swap1\n      dup1\n      mload\n      swap1\n      0x20\n      add\n      swap1\n      tag_197\n      swap3\n      swap2\n      swap1\n      tag_115\n      jump\t// in\n    tag_197:\n      pop\n      0x40\n      dup3\n      add\n      mload\n      dup2\n      0x02\n      add\n      sstore\n      0x60\n      dup3\n      add\n      mload\n      dup2\n      0x03\n      add\n      swap1\n      dup1\n      mload\n      swap1\n      0x20\n      add\n      swap1\n      tag_198\n      swap3\n      swap2\n      swap1\n      tag_115\n      jump\t// in\n    tag_198:\n      pop\n      0x80\n      dup3\n      add\n      mload\n      dup2\n      0x04\n      add\n      swap1\n      dup1\n      mload\n      swap1\n      0x20\n      add\n      swap1\n      tag_199\n      swap3\n      swap2\n      swap1\n      tag_118\n      jump\t// in\n    tag_199:\n      pop\n      0xa0\n      dup3\n      add\n      mload\n      dup2\n      0x05\n      add\n      sstore\n      0xc0\n      dup3\n      add\n      mload\n      dup2\n      0x06\n      add\n      swap1\n      dup1\n      mload\n      swap1\n      0x20\n      add\n      swap1\n      tag_200\n      swap3\n      swap2\n      swap1\n      tag_115\n      jump\t// in\n    tag_200:\n      pop\n      0xe0\n      dup3\n      add\n      mload\n      dup2\n      0x07\n      add\n      sstore\n      swap1\n      pop\n      pop\n        /* \"contracts/FakeProdId.sol\":2284:2296  productsSize */\n      0x02\n      0x00\n        /* \"contracts/FakeProdId.sol\":2284:2298  productsSize++ */\n      dup2\n      sload\n      dup1\n      swap3\n      swap2\n      swap1\n      tag_201\n      swap1\n      tag_202\n      jump\t// in\n    tag_201:\n      swap2\n      swap1\n      pop\n      sstore\n      pop\n        /* \"contracts/FakeProdId.sol\":2314:2350  prodDetails(newProduct,productsSize) */\n      0xdd8688f80c62eab88b445b6a5f414e69ff40be1584ddb10b6a9bc6cf68b17f2f\n        /* \"contracts/FakeProdId.sol\":2326:2336  newProduct */\n      dup2\n        /* \"contracts/FakeProdId.sol\":2337:2349  productsSize */\n      sload(0x02)\n        /* \"contracts/FakeProdId.sol\":2314:2350  prodDetails(newProduct,productsSize) */\n      mload(0x40)\n      tag_203\n      swap3\n      swap2\n      swap1\n      tag_204\n      jump\t// in\n    tag_203:\n      mload(0x40)\n      dup1\n      swap2\n      sub\n      swap1\n      log1\n        /* \"contracts/FakeProdId.sol\":1811:2358  {\r... */\n      pop\n        /* \"contracts/FakeProdId.sol\":1728:2358  function addProduct(string memory name,uint price,string memory description) public{\r... */\n      pop\n      pop\n      pop\n      jump\t// out\n        /* \"contracts/FakeProdId.sol\":3267:3791  function addManufacturer(string memory name) public{\r... */\n    tag_64:\n        /* \"contracts/FakeProdId.sol\":3329:3364  Manufacturer memory newManufacturer */\n      tag_206\n      tag_207\n      jump\t// in\n    tag_206:\n        /* \"contracts/FakeProdId.sol\":3432:3436  name */\n      dup2\n        /* \"contracts/FakeProdId.sol\":3437:3452  block.timestamp */\n      timestamp\n        /* \"contracts/FakeProdId.sol\":3453:3469  block.difficulty */\n      difficulty\n        /* \"contracts/FakeProdId.sol\":3421:3470  abi.encode(name,block.timestamp,block.difficulty) */\n      add(0x20, mload(0x40))\n      tag_208\n      swap4\n      swap3\n      swap2\n      swap1\n      tag_109\n      jump\t// in\n    tag_208:\n      mload(0x40)\n      0x20\n      dup2\n      dup4\n      sub\n      sub\n      dup2\n      mstore\n      swap1\n      0x40\n      mstore\n        /* \"contracts/FakeProdId.sol\":3411:3471  keccak256(abi.encode(name,block.timestamp,block.difficulty)) */\n      dup1\n      mload\n      swap1\n      0x20\n      add\n      keccak256\n        /* \"contracts/FakeProdId.sol\":3406:3472  uint(keccak256(abi.encode(name,block.timestamp,block.difficulty))) */\n      0x00\n      shr\n        /* \"contracts/FakeProdId.sol\":3375:3390  newManufacturer */\n      dup2\n        /* \"contracts/FakeProdId.sol\":3375:3405  newManufacturer.manufacturerId */\n      0x00\n      add\n        /* \"contracts/FakeProdId.sol\":3375:3472  newManufacturer.manufacturerId=uint(keccak256(abi.encode(name,block.timestamp,block.difficulty))) */\n      dup2\n      dup2\n      mstore\n      pop\n      pop\n        /* \"contracts/FakeProdId.sol\":3483:3510  newManufacturer.kind = \"MA\" */\n      mload(0x40)\n      dup1\n      0x40\n      add\n      0x40\n      mstore\n      dup1\n      0x02\n      dup2\n      mstore\n      0x20\n      add\n      0x4d41000000000000000000000000000000000000000000000000000000000000\n      dup2\n      mstore\n      pop\n        /* \"contracts/FakeProdId.sol\":3483:3498  newManufacturer */\n      dup2\n        /* \"contracts/FakeProdId.sol\":3483:3503  newManufacturer.kind */\n      0x20\n      add\n        /* \"contracts/FakeProdId.sol\":3483:3510  newManufacturer.kind = \"MA\" */\n      dup2\n      swap1\n      mstore\n      pop\n        /* \"contracts/FakeProdId.sol\":3544:3548  name */\n      dup2\n        /* \"contracts/FakeProdId.sol\":3521:3536  newManufacturer */\n      dup2\n        /* \"contracts/FakeProdId.sol\":3521:3541  newManufacturer.name */\n      0x40\n      add\n        /* \"contracts/FakeProdId.sol\":3521:3548  newManufacturer.name = name */\n      dup2\n      swap1\n      mstore\n      pop\n        /* \"contracts/FakeProdId.sol\":3600:3601  0 */\n      0x00\n        /* \"contracts/FakeProdId.sol\":3589:3602  new uint[](0) */\n      0xffffffffffffffff\n      dup2\n      gt\n      iszero\n      tag_209\n      jumpi\n      tag_210\n      tag_112\n      jump\t// in\n    tag_210:\n    tag_209:\n      mload(0x40)\n      swap1\n      dup1\n      dup3\n      mstore\n      dup1\n      0x20\n      mul\n      0x20\n      add\n      dup3\n      add\n      0x40\n      mstore\n      dup1\n      iszero\n      tag_211\n      jumpi\n      dup2\n      0x20\n      add\n      0x20\n      dup3\n      mul\n      dup1\n      calldatasize\n      dup4\n      calldatacopy\n      dup1\n      dup3\n      add\n      swap2\n      pop\n      pop\n      swap1\n      pop\n    tag_211:\n      pop\n        /* \"contracts/FakeProdId.sol\":3559:3574  newManufacturer */\n      dup2\n        /* \"contracts/FakeProdId.sol\":3559:3586  newManufacturer.productList */\n      0x80\n      add\n        /* \"contracts/FakeProdId.sol\":3559:3602  newManufacturer.productList = new uint[](0) */\n      dup2\n      swap1\n      mstore\n      pop\n        /* \"contracts/FakeProdId.sol\":3644:3645  0 */\n      0x00\n        /* \"contracts/FakeProdId.sol\":3613:3628  newManufacturer */\n      dup2\n        /* \"contracts/FakeProdId.sol\":3613:3641  newManufacturer.prodListSize */\n      0x60\n      add\n        /* \"contracts/FakeProdId.sol\":3613:3645  newManufacturer.prodListSize = 0 */\n      dup2\n      dup2\n      mstore\n      pop\n      pop\n        /* \"contracts/FakeProdId.sol\":3706:3721  newManufacturer */\n      dup1\n        /* \"contracts/FakeProdId.sol\":3658:3671  manufacturers */\n      0x04\n        /* \"contracts/FakeProdId.sol\":3658:3703  manufacturers[newManufacturer.manufacturerId] */\n      0x00\n        /* \"contracts/FakeProdId.sol\":3672:3687  newManufacturer */\n      dup4\n        /* \"contracts/FakeProdId.sol\":3672:3702  newManufacturer.manufacturerId */\n      0x00\n      add\n      mload\n        /* \"contracts/FakeProdId.sol\":3658:3703  manufacturers[newManufacturer.manufacturerId] */\n      dup2\n      mstore\n      0x20\n      add\n      swap1\n      dup2\n      mstore\n      0x20\n      add\n      0x00\n      keccak256\n        /* \"contracts/FakeProdId.sol\":3658:3721  manufacturers[newManufacturer.manufacturerId] = newManufacturer */\n      0x00\n      dup3\n      add\n      mload\n      dup2\n      0x00\n      add\n      sstore\n      0x20\n      dup3\n      add\n      mload\n      dup2\n      0x01\n      add\n      swap1\n      dup1\n      mload\n      swap1\n      0x20\n      add\n      swap1\n      tag_212\n      swap3\n      swap2\n      swap1\n      tag_115\n      jump\t// in\n    tag_212:\n      pop\n      0x40\n      dup3\n      add\n      mload\n      dup2\n      0x02\n      add\n      swap1\n      dup1\n      mload\n      swap1\n      0x20\n      add\n      swap1\n      tag_213\n      swap3\n      swap2\n      swap1\n      tag_115\n      jump\t// in\n    tag_213:\n      pop\n      0x60\n      dup3\n      add\n      mload\n      dup2\n      0x03\n      add\n      sstore\n      0x80\n      dup3\n      add\n      mload\n      dup2\n      0x04\n      add\n      swap1\n      dup1\n      mload\n      swap1\n      0x20\n      add\n      swap1\n      tag_214\n      swap3\n      swap2\n      swap1\n      tag_118\n      jump\t// in\n    tag_214:\n      pop\n      swap1\n      pop\n      pop\n        /* \"contracts/FakeProdId.sol\":3747:3783  manufacturerDetails(newManufacturer) */\n      0xb1e82a9de3004148c987ca0908a70c35e11ef17a995dcda89ee4428f905e9794\n        /* \"contracts/FakeProdId.sol\":3767:3782  newManufacturer */\n      dup2\n        /* \"contracts/FakeProdId.sol\":3747:3783  manufacturerDetails(newManufacturer) */\n      mload(0x40)\n      tag_215\n      swap2\n      swap1\n      tag_91\n      jump\t// in\n    tag_215:\n      mload(0x40)\n      dup1\n      swap2\n      sub\n      swap1\n      log1\n        /* \"contracts/FakeProdId.sol\":3318:3791  {\r... */\n      pop\n        /* \"contracts/FakeProdId.sol\":3267:3791  function addManufacturer(string memory name) public{\r... */\n      pop\n      jump\t// out\n        /* \"contracts/FakeProdId.sol\":1565:1615  mapping(uint => Manufacturer) public manufacturers */\n    tag_67:\n      mstore(0x20, 0x04)\n      dup1\n      0x00\n      mstore\n      keccak256(0x00, 0x40)\n      0x00\n      swap2\n      pop\n      swap1\n      pop\n      dup1\n      0x00\n      add\n      sload\n      swap1\n      dup1\n      0x01\n      add\n      dup1\n      sload\n      tag_216\n      swap1\n      tag_124\n      jump\t// in\n    tag_216:\n      dup1\n      0x1f\n      add\n      0x20\n      dup1\n      swap2\n      div\n      mul\n      0x20\n      add\n      mload(0x40)\n      swap1\n      dup2\n      add\n      0x40\n      mstore\n      dup1\n      swap3\n      swap2\n      swap1\n      dup2\n      dup2\n      mstore\n      0x20\n      add\n      dup3\n      dup1\n      sload\n      tag_217\n      swap1\n      tag_124\n      jump\t// in\n    tag_217:\n      dup1\n      iszero\n      tag_218\n      jumpi\n      dup1\n      0x1f\n      lt\n      tag_219\n      jumpi\n      0x0100\n      dup1\n      dup4\n      sload\n      div\n      mul\n      dup4\n      mstore\n      swap2\n      0x20\n      add\n      swap2\n      jump(tag_218)\n    tag_219:\n      dup3\n      add\n      swap2\n      swap1\n      0x00\n      mstore\n      keccak256(0x00, 0x20)\n      swap1\n    tag_220:\n      dup2\n      sload\n      dup2\n      mstore\n      swap1\n      0x01\n      add\n      swap1\n      0x20\n      add\n      dup1\n      dup4\n      gt\n      tag_220\n      jumpi\n      dup3\n      swap1\n      sub\n      0x1f\n      and\n      dup3\n      add\n      swap2\n    tag_218:\n      pop\n      pop\n      pop\n      pop\n      pop\n      swap1\n      dup1\n      0x02\n      add\n      dup1\n      sload\n      tag_221\n      swap1\n      tag_124\n      jump\t// in\n    tag_221:\n      dup1\n      0x1f\n      add\n      0x20\n      dup1\n      swap2\n      div\n      mul\n      0x20\n      add\n      mload(0x40)\n      swap1\n      dup2\n      add\n      0x40\n      mstore\n      dup1\n      swap3\n      swap2\n      swap1\n      dup2\n      dup2\n      mstore\n      0x20\n      add\n      dup3\n      dup1\n      sload\n      tag_222\n      swap1\n      tag_124\n      jump\t// in\n    tag_222:\n      dup1\n      iszero\n      tag_223\n      jumpi\n      dup1\n      0x1f\n      lt\n      tag_224\n      jumpi\n      0x0100\n      dup1\n      dup4\n      sload\n      div\n      mul\n      dup4\n      mstore\n      swap2\n      0x20\n      add\n      swap2\n      jump(tag_223)\n    tag_224:\n      dup3\n      add\n      swap2\n      swap1\n      0x00\n      mstore\n      keccak256(0x00, 0x20)\n      swap1\n    tag_225:\n      dup2\n      sload\n      dup2\n      mstore\n      swap1\n      0x01\n      add\n      swap1\n      0x20\n      add\n      dup1\n      dup4\n      gt\n      tag_225\n      jumpi\n      dup3\n      swap1\n      sub\n      0x1f\n      and\n      dup3\n      add\n      swap2\n    tag_223:\n      pop\n      pop\n      pop\n      pop\n      pop\n      swap1\n      dup1\n      0x03\n      add\n      sload\n      swap1\n      pop\n      dup5\n      jump\t// out\n        /* \"contracts/FakeProdId.sol\":4629:5047  function addRetailer(string memory name) public{\r... */\n    tag_71:\n        /* \"contracts/FakeProdId.sol\":4687:4714  Retailer memory newRetailer */\n      tag_227\n      tag_228\n      jump\t// in\n    tag_227:\n        /* \"contracts/FakeProdId.sol\":4774:4778  name */\n      dup2\n        /* \"contracts/FakeProdId.sol\":4779:4794  block.timestamp */\n      timestamp\n        /* \"contracts/FakeProdId.sol\":4795:4811  block.difficulty */\n      difficulty\n        /* \"contracts/FakeProdId.sol\":4763:4812  abi.encode(name,block.timestamp,block.difficulty) */\n      add(0x20, mload(0x40))\n      tag_229\n      swap4\n      swap3\n      swap2\n      swap1\n      tag_109\n      jump\t// in\n    tag_229:\n      mload(0x40)\n      0x20\n      dup2\n      dup4\n      sub\n      sub\n      dup2\n      mstore\n      swap1\n      0x40\n      mstore\n        /* \"contracts/FakeProdId.sol\":4753:4813  keccak256(abi.encode(name,block.timestamp,block.difficulty)) */\n      dup1\n      mload\n      swap1\n      0x20\n      add\n      keccak256\n        /* \"contracts/FakeProdId.sol\":4748:4814  uint(keccak256(abi.encode(name,block.timestamp,block.difficulty))) */\n      0x00\n      shr\n        /* \"contracts/FakeProdId.sol\":4725:4736  newRetailer */\n      dup2\n        /* \"contracts/FakeProdId.sol\":4725:4747  newRetailer.retailerId */\n      0x00\n      add\n        /* \"contracts/FakeProdId.sol\":4725:4814  newRetailer.retailerId=uint(keccak256(abi.encode(name,block.timestamp,block.difficulty))) */\n      dup2\n      dup2\n      mstore\n      pop\n      pop\n        /* \"contracts/FakeProdId.sol\":4844:4848  name */\n      dup2\n        /* \"contracts/FakeProdId.sol\":4825:4836  newRetailer */\n      dup2\n        /* \"contracts/FakeProdId.sol\":4825:4841  newRetailer.name */\n      0x20\n      add\n        /* \"contracts/FakeProdId.sol\":4825:4848  newRetailer.name = name */\n      dup2\n      swap1\n      mstore\n      pop\n        /* \"contracts/FakeProdId.sol\":4896:4897  0 */\n      0x00\n        /* \"contracts/FakeProdId.sol\":4885:4898  new uint[](0) */\n      0xffffffffffffffff\n      dup2\n      gt\n      iszero\n      tag_230\n      jumpi\n      tag_231\n      tag_112\n      jump\t// in\n    tag_231:\n    tag_230:\n      mload(0x40)\n      swap1\n      dup1\n      dup3\n      mstore\n      dup1\n      0x20\n      mul\n      0x20\n      add\n      dup3\n      add\n      0x40\n      mstore\n      dup1\n      iszero\n      tag_232\n      jumpi\n      dup2\n      0x20\n      add\n      0x20\n      dup3\n      mul\n      dup1\n      calldatasize\n      dup4\n      calldatacopy\n      dup1\n      dup3\n      add\n      swap2\n      pop\n      pop\n      swap1\n      pop\n    tag_232:\n      pop\n        /* \"contracts/FakeProdId.sol\":4859:4870  newRetailer */\n      dup2\n        /* \"contracts/FakeProdId.sol\":4859:4882  newRetailer.productList */\n      0x60\n      add\n        /* \"contracts/FakeProdId.sol\":4859:4898  newRetailer.productList = new uint[](0) */\n      dup2\n      swap1\n      mstore\n      pop\n        /* \"contracts/FakeProdId.sol\":4936:4937  0 */\n      0x00\n        /* \"contracts/FakeProdId.sol\":4909:4920  newRetailer */\n      dup2\n        /* \"contracts/FakeProdId.sol\":4909:4933  newRetailer.prodListSize */\n      0x40\n      add\n        /* \"contracts/FakeProdId.sol\":4909:4937  newRetailer.prodListSize = 0 */\n      dup2\n      dup2\n      mstore\n      pop\n      pop\n        /* \"contracts/FakeProdId.sol\":4984:4995  newRetailer */\n      dup1\n        /* \"contracts/FakeProdId.sol\":4948:4957  retailers */\n      0x06\n        /* \"contracts/FakeProdId.sol\":4948:4981  retailers[newRetailer.retailerId] */\n      0x00\n        /* \"contracts/FakeProdId.sol\":4958:4969  newRetailer */\n      dup4\n        /* \"contracts/FakeProdId.sol\":4958:4980  newRetailer.retailerId */\n      0x00\n      add\n      mload\n        /* \"contracts/FakeProdId.sol\":4948:4981  retailers[newRetailer.retailerId] */\n      dup2\n      mstore\n      0x20\n      add\n      swap1\n      dup2\n      mstore\n      0x20\n      add\n      0x00\n      keccak256\n        /* \"contracts/FakeProdId.sol\":4948:4995  retailers[newRetailer.retailerId] = newRetailer */\n      0x00\n      dup3\n      add\n      mload\n      dup2\n      0x00\n      add\n      sstore\n      0x20\n      dup3\n      add\n      mload\n      dup2\n      0x01\n      add\n      swap1\n      dup1\n      mload\n      swap1\n      0x20\n      add\n      swap1\n      tag_233\n      swap3\n      swap2\n      swap1\n      tag_115\n      jump\t// in\n    tag_233:\n      pop\n      0x40\n      dup3\n      add\n      mload\n      dup2\n      0x02\n      add\n      sstore\n      0x60\n      dup3\n      add\n      mload\n      dup2\n      0x03\n      add\n      swap1\n      dup1\n      mload\n      swap1\n      0x20\n      add\n      swap1\n      tag_234\n      swap3\n      swap2\n      swap1\n      tag_118\n      jump\t// in\n    tag_234:\n      pop\n      swap1\n      pop\n      pop\n        /* \"contracts/FakeProdId.sol\":5011:5039  retailerDetails(newRetailer) */\n      0x48b295dbd2dde57075e837c2add5113c3a864d21ad68e1acb6ec3233afea585f\n        /* \"contracts/FakeProdId.sol\":5027:5038  newRetailer */\n      dup2\n        /* \"contracts/FakeProdId.sol\":5011:5039  retailerDetails(newRetailer) */\n      mload(0x40)\n      tag_235\n      swap2\n      swap1\n      tag_96\n      jump\t// in\n    tag_235:\n      mload(0x40)\n      dup1\n      swap2\n      sub\n      swap1\n      log1\n        /* \"contracts/FakeProdId.sol\":4676:5047  {\r... */\n      pop\n        /* \"contracts/FakeProdId.sol\":4629:5047  function addRetailer(string memory name) public{\r... */\n      pop\n      jump\t// out\n        /* \"contracts/FakeProdId.sol\":6369:7084  function manufacturerToDistributor(uint productId,uint manufacturerId,uint distributorId) public{\r... */\n    tag_75:\n        /* \"contracts/FakeProdId.sol\":6476:6492  Product memory p */\n      0x00\n        /* \"contracts/FakeProdId.sol\":6495:6516  getProduct(productId) */\n      tag_237\n        /* \"contracts/FakeProdId.sol\":6506:6515  productId */\n      dup5\n        /* \"contracts/FakeProdId.sol\":6495:6505  getProduct */\n      tag_81\n        /* \"contracts/FakeProdId.sol\":6495:6516  getProduct(productId) */\n      jump\t// in\n    tag_237:\n        /* \"contracts/FakeProdId.sol\":6476:6516  Product memory p = getProduct(productId) */\n      swap1\n      pop\n        /* \"contracts/FakeProdId.sol\":6553:6567  manufacturerId */\n      dup3\n        /* \"contracts/FakeProdId.sol\":6537:6538  p */\n      dup2\n        /* \"contracts/FakeProdId.sol\":6537:6549  p.curOwnerId */\n      0xe0\n      add\n      mload\n        /* \"contracts/FakeProdId.sol\":6537:6567  p.curOwnerId == manufacturerId */\n      eq\n        /* \"contracts/FakeProdId.sol\":6529:6624  require(p.curOwnerId == manufacturerId, \"Manufacturer is not the current owner of the product\") */\n      tag_238\n      jumpi\n      mload(0x40)\n      0x08c379a000000000000000000000000000000000000000000000000000000000\n      dup2\n      mstore\n      0x04\n      add\n      tag_239\n      swap1\n      tag_240\n      jump\t// in\n    tag_239:\n      mload(0x40)\n      dup1\n      swap2\n      sub\n      swap1\n      revert\n    tag_238:\n        /* \"contracts/FakeProdId.sol\":6637:6658  Manufacturer memory m */\n      0x00\n        /* \"contracts/FakeProdId.sol\":6661:6699  getmanufacturerDetails(manufacturerId) */\n      tag_241\n        /* \"contracts/FakeProdId.sol\":6684:6698  manufacturerId */\n      dup5\n        /* \"contracts/FakeProdId.sol\":6661:6683  getmanufacturerDetails */\n      tag_89\n        /* \"contracts/FakeProdId.sol\":6661:6699  getmanufacturerDetails(manufacturerId) */\n      jump\t// in\n    tag_241:\n        /* \"contracts/FakeProdId.sol\":6637:6699  Manufacturer memory m = getmanufacturerDetails(manufacturerId) */\n      swap1\n      pop\n        /* \"contracts/FakeProdId.sol\":6710:6730  Distributor memory d */\n      0x00\n        /* \"contracts/FakeProdId.sol\":6733:6769  getdistributorDetails(distributorId) */\n      tag_242\n        /* \"contracts/FakeProdId.sol\":6755:6768  distributorId */\n      dup5\n        /* \"contracts/FakeProdId.sol\":6733:6754  getdistributorDetails */\n      tag_32\n        /* \"contracts/FakeProdId.sol\":6733:6769  getdistributorDetails(distributorId) */\n      jump\t// in\n    tag_242:\n        /* \"contracts/FakeProdId.sol\":6710:6769  Distributor memory d = getdistributorDetails(distributorId) */\n      swap1\n      pop\n        /* \"contracts/FakeProdId.sol\":6795:6796  d */\n      dup1\n        /* \"contracts/FakeProdId.sol\":6795:6801  d.name */\n      0x40\n      add\n      mload\n        /* \"contracts/FakeProdId.sol\":6782:6783  p */\n      dup4\n        /* \"contracts/FakeProdId.sol\":6782:6792  p.curOwner */\n      0xc0\n      add\n        /* \"contracts/FakeProdId.sol\":6782:6801  p.curOwner = d.name */\n      dup2\n      swap1\n      mstore\n      pop\n        /* \"contracts/FakeProdId.sol\":6827:6828  d */\n      dup1\n        /* \"contracts/FakeProdId.sol\":6827:6842  d.distributorId */\n      0x00\n      add\n      mload\n        /* \"contracts/FakeProdId.sol\":6812:6813  p */\n      dup4\n        /* \"contracts/FakeProdId.sol\":6812:6824  p.curOwnerId */\n      0xe0\n      add\n        /* \"contracts/FakeProdId.sol\":6812:6842  p.curOwnerId = d.distributorId */\n      dup2\n      dup2\n      mstore\n      pop\n      pop\n        /* \"contracts/FakeProdId.sol\":6888:6902  manufacturerId */\n      dup5\n        /* \"contracts/FakeProdId.sol\":6853:6854  p */\n      dup4\n        /* \"contracts/FakeProdId.sol\":6853:6865  p.prevOwners */\n      0x80\n      add\n      mload\n        /* \"contracts/FakeProdId.sol\":6866:6867  p */\n      dup5\n        /* \"contracts/FakeProdId.sol\":6866:6882  p.prevOwnersSize */\n      0xa0\n      add\n        /* \"contracts/FakeProdId.sol\":6866:6884  p.prevOwnersSize++ */\n      dup1\n      mload\n      dup1\n      swap2\n      swap1\n      tag_243\n      swap1\n      tag_202\n      jump\t// in\n    tag_243:\n      dup2\n      mstore\n      pop\n        /* \"contracts/FakeProdId.sol\":6853:6885  p.prevOwners[p.prevOwnersSize++] */\n      dup2\n      mload\n      dup2\n      lt\n      tag_244\n      jumpi\n      tag_245\n      tag_246\n      jump\t// in\n    tag_245:\n    tag_244:\n      0x20\n      mul\n      0x20\n      add\n      add\n        /* \"contracts/FakeProdId.sol\":6853:6902  p.prevOwners[p.prevOwnersSize++] = manufacturerId */\n      dup2\n      dup2\n      mstore\n      pop\n      pop\n        /* \"contracts/FakeProdId.sol\":6937:6938  p */\n      dup3\n        /* \"contracts/FakeProdId.sol\":6915:6923  products */\n      0x01\n        /* \"contracts/FakeProdId.sol\":6915:6934  products[productId] */\n      0x00\n        /* \"contracts/FakeProdId.sol\":6924:6933  productId */\n      dup9\n        /* \"contracts/FakeProdId.sol\":6915:6934  products[productId] */\n      dup2\n      mstore\n      0x20\n      add\n      swap1\n      dup2\n      mstore\n      0x20\n      add\n      0x00\n      keccak256\n        /* \"contracts/FakeProdId.sol\":6915:6938  products[productId] = p */\n      0x00\n      dup3\n      add\n      mload\n      dup2\n      0x00\n      add\n      sstore\n      0x20\n      dup3\n      add\n      mload\n      dup2\n      0x01\n      add\n      swap1\n      dup1\n      mload\n      swap1\n      0x20\n      add\n      swap1\n      tag_247\n      swap3\n      swap2\n      swap1\n      tag_115\n      jump\t// in\n    tag_247:\n      pop\n      0x40\n      dup3\n      add\n      mload\n      dup2\n      0x02\n      add\n      sstore\n      0x60\n      dup3\n      add\n      mload\n      dup2\n      0x03\n      add\n      swap1\n      dup1\n      mload\n      swap1\n      0x20\n      add\n      swap1\n      tag_248\n      swap3\n      swap2\n      swap1\n      tag_115\n      jump\t// in\n    tag_248:\n      pop\n      0x80\n      dup3\n      add\n      mload\n      dup2\n      0x04\n      add\n      swap1\n      dup1\n      mload\n      swap1\n      0x20\n      add\n      swap1\n      tag_249\n      swap3\n      swap2\n      swap1\n      tag_118\n      jump\t// in\n    tag_249:\n      pop\n      0xa0\n      dup3\n      add\n      mload\n      dup2\n      0x05\n      add\n      sstore\n      0xc0\n      dup3\n      add\n      mload\n      dup2\n      0x06\n      add\n      swap1\n      dup1\n      mload\n      swap1\n      0x20\n      add\n      swap1\n      tag_250\n      swap3\n      swap2\n      swap1\n      tag_115\n      jump\t// in\n    tag_250:\n      pop\n      0xe0\n      dup3\n      add\n      mload\n      dup2\n      0x07\n      add\n      sstore\n      swap1\n      pop\n      pop\n        /* \"contracts/FakeProdId.sol\":6985:6994  productId */\n      dup6\n        /* \"contracts/FakeProdId.sol\":6951:6952  d */\n      dup2\n        /* \"contracts/FakeProdId.sol\":6951:6964  d.productList */\n      0x80\n      add\n      mload\n        /* \"contracts/FakeProdId.sol\":6965:6966  d */\n      dup3\n        /* \"contracts/FakeProdId.sol\":6965:6979  d.prodListSize */\n      0x60\n      add\n        /* \"contracts/FakeProdId.sol\":6965:6981  d.prodListSize++ */\n      dup1\n      mload\n      dup1\n      swap2\n      swap1\n      tag_251\n      swap1\n      tag_202\n      jump\t// in\n    tag_251:\n      dup2\n      mstore\n      pop\n        /* \"contracts/FakeProdId.sol\":6951:6982  d.productList[d.prodListSize++] */\n      dup2\n      mload\n      dup2\n      lt\n      tag_252\n      jumpi\n      tag_253\n      tag_246\n      jump\t// in\n    tag_253:\n    tag_252:\n      0x20\n      mul\n      0x20\n      add\n      add\n        /* \"contracts/FakeProdId.sol\":6951:6994  d.productList[d.prodListSize++] = productId */\n      dup2\n      dup2\n      mstore\n      pop\n      pop\n        /* \"contracts/FakeProdId.sol\":7035:7036  d */\n      dup1\n        /* \"contracts/FakeProdId.sol\":7005:7017  distributors */\n      0x05\n        /* \"contracts/FakeProdId.sol\":7005:7032  distributors[distributorId] */\n      0x00\n        /* \"contracts/FakeProdId.sol\":7018:7031  distributorId */\n      dup7\n        /* \"contracts/FakeProdId.sol\":7005:7032  distributors[distributorId] */\n      dup2\n      mstore\n      0x20\n      add\n      swap1\n      dup2\n      mstore\n      0x20\n      add\n      0x00\n      keccak256\n        /* \"contracts/FakeProdId.sol\":7005:7036  distributors[distributorId] = d */\n      0x00\n      dup3\n      add\n      mload\n      dup2\n      0x00\n      add\n      sstore\n      0x20\n      dup3\n      add\n      mload\n      dup2\n      0x01\n      add\n      swap1\n      dup1\n      mload\n      swap1\n      0x20\n      add\n      swap1\n      tag_254\n      swap3\n      swap2\n      swap1\n      tag_115\n      jump\t// in\n    tag_254:\n      pop\n      0x40\n      dup3\n      add\n      mload\n      dup2\n      0x02\n      add\n      swap1\n      dup1\n      mload\n      swap1\n      0x20\n      add\n      swap1\n      tag_255\n      swap3\n      swap2\n      swap1\n      tag_115\n      jump\t// in\n    tag_255:\n      pop\n      0x60\n      dup3\n      add\n      mload\n      dup2\n      0x03\n      add\n      sstore\n      0x80\n      dup3\n      add\n      mload\n      dup2\n      0x04\n      add\n      swap1\n      dup1\n      mload\n      swap1\n      0x20\n      add\n      swap1\n      tag_256\n      swap3\n      swap2\n      swap1\n      tag_118\n      jump\t// in\n    tag_256:\n      pop\n      swap1\n      pop\n      pop\n        /* \"contracts/FakeProdId.sol\":7054:7076  completeTransaction(p) */\n      0xdb38a0f551885a9e8666b66db8057c351d8f70150c869d99953a3051b52cc36a\n        /* \"contracts/FakeProdId.sol\":7074:7075  p */\n      dup4\n        /* \"contracts/FakeProdId.sol\":7054:7076  completeTransaction(p) */\n      mload(0x40)\n      tag_257\n      swap2\n      swap1\n      tag_83\n      jump\t// in\n    tag_257:\n      mload(0x40)\n      dup1\n      swap2\n      sub\n      swap1\n      log1\n        /* \"contracts/FakeProdId.sol\":6465:7084  {\r... */\n      pop\n      pop\n      pop\n        /* \"contracts/FakeProdId.sol\":6369:7084  function manufacturerToDistributor(uint productId,uint manufacturerId,uint distributorId) public{\r... */\n      pop\n      pop\n      pop\n      jump\t// out\n        /* \"contracts/FakeProdId.sol\":7092:7775  function distributorToRetailer(uint productId,uint distributorId,uint retailerId) public{\r... */\n    tag_78:\n        /* \"contracts/FakeProdId.sol\":7191:7207  Product memory p */\n      0x00\n        /* \"contracts/FakeProdId.sol\":7210:7231  getProduct(productId) */\n      tag_259\n        /* \"contracts/FakeProdId.sol\":7221:7230  productId */\n      dup5\n        /* \"contracts/FakeProdId.sol\":7210:7220  getProduct */\n      tag_81\n        /* \"contracts/FakeProdId.sol\":7210:7231  getProduct(productId) */\n      jump\t// in\n    tag_259:\n        /* \"contracts/FakeProdId.sol\":7191:7231  Product memory p = getProduct(productId) */\n      swap1\n      pop\n        /* \"contracts/FakeProdId.sol\":7268:7281  distributorId */\n      dup3\n        /* \"contracts/FakeProdId.sol\":7252:7253  p */\n      dup2\n        /* \"contracts/FakeProdId.sol\":7252:7264  p.curOwnerId */\n      0xe0\n      add\n      mload\n        /* \"contracts/FakeProdId.sol\":7252:7281  p.curOwnerId == distributorId */\n      eq\n        /* \"contracts/FakeProdId.sol\":7244:7337  require(p.curOwnerId == distributorId, \"Distributor is not the current owner of the product\") */\n      tag_260\n      jumpi\n      mload(0x40)\n      0x08c379a000000000000000000000000000000000000000000000000000000000\n      dup2\n      mstore\n      0x04\n      add\n      tag_261\n      swap1\n      tag_262\n      jump\t// in\n    tag_261:\n      mload(0x40)\n      dup1\n      swap2\n      sub\n      swap1\n      revert\n    tag_260:\n        /* \"contracts/FakeProdId.sol\":7350:7370  Distributor memory d */\n      0x00\n        /* \"contracts/FakeProdId.sol\":7373:7409  getdistributorDetails(distributorId) */\n      tag_263\n        /* \"contracts/FakeProdId.sol\":7395:7408  distributorId */\n      dup5\n        /* \"contracts/FakeProdId.sol\":7373:7394  getdistributorDetails */\n      tag_32\n        /* \"contracts/FakeProdId.sol\":7373:7409  getdistributorDetails(distributorId) */\n      jump\t// in\n    tag_263:\n        /* \"contracts/FakeProdId.sol\":7350:7409  Distributor memory d = getdistributorDetails(distributorId) */\n      swap1\n      pop\n        /* \"contracts/FakeProdId.sol\":7420:7437  Retailer memory r */\n      0x00\n        /* \"contracts/FakeProdId.sol\":7440:7470  getretailerDetails(retailerId) */\n      tag_264\n        /* \"contracts/FakeProdId.sol\":7459:7469  retailerId */\n      dup5\n        /* \"contracts/FakeProdId.sol\":7440:7458  getretailerDetails */\n      tag_94\n        /* \"contracts/FakeProdId.sol\":7440:7470  getretailerDetails(retailerId) */\n      jump\t// in\n    tag_264:\n        /* \"contracts/FakeProdId.sol\":7420:7470  Retailer memory r = getretailerDetails(retailerId) */\n      swap1\n      pop\n        /* \"contracts/FakeProdId.sol\":7496:7497  r */\n      dup1\n        /* \"contracts/FakeProdId.sol\":7496:7502  r.name */\n      0x20\n      add\n      mload\n        /* \"contracts/FakeProdId.sol\":7483:7484  p */\n      dup4\n        /* \"contracts/FakeProdId.sol\":7483:7493  p.curOwner */\n      0xc0\n      add\n        /* \"contracts/FakeProdId.sol\":7483:7502  p.curOwner = r.name */\n      dup2\n      swap1\n      mstore\n      pop\n        /* \"contracts/FakeProdId.sol\":7528:7529  r */\n      dup1\n        /* \"contracts/FakeProdId.sol\":7528:7540  r.retailerId */\n      0x00\n      add\n      mload\n        /* \"contracts/FakeProdId.sol\":7513:7514  p */\n      dup4\n        /* \"contracts/FakeProdId.sol\":7513:7525  p.curOwnerId */\n      0xe0\n      add\n        /* \"contracts/FakeProdId.sol\":7513:7540  p.curOwnerId = r.retailerId */\n      dup2\n      dup2\n      mstore\n      pop\n      pop\n        /* \"contracts/FakeProdId.sol\":7586:7599  distributorId */\n      dup5\n        /* \"contracts/FakeProdId.sol\":7551:7552  p */\n      dup4\n        /* \"contracts/FakeProdId.sol\":7551:7563  p.prevOwners */\n      0x80\n      add\n      mload\n        /* \"contracts/FakeProdId.sol\":7564:7565  p */\n      dup5\n        /* \"contracts/FakeProdId.sol\":7564:7580  p.prevOwnersSize */\n      0xa0\n      add\n        /* \"contracts/FakeProdId.sol\":7564:7582  p.prevOwnersSize++ */\n      dup1\n      mload\n      dup1\n      swap2\n      swap1\n      tag_265\n      swap1\n      tag_202\n      jump\t// in\n    tag_265:\n      dup2\n      mstore\n      pop\n        /* \"contracts/FakeProdId.sol\":7551:7583  p.prevOwners[p.prevOwnersSize++] */\n      dup2\n      mload\n      dup2\n      lt\n      tag_266\n      jumpi\n      tag_267\n      tag_246\n      jump\t// in\n    tag_267:\n    tag_266:\n      0x20\n      mul\n      0x20\n      add\n      add\n        /* \"contracts/FakeProdId.sol\":7551:7599  p.prevOwners[p.prevOwnersSize++] = distributorId */\n      dup2\n      dup2\n      mstore\n      pop\n      pop\n        /* \"contracts/FakeProdId.sol\":7634:7635  p */\n      dup3\n        /* \"contracts/FakeProdId.sol\":7612:7620  products */\n      0x01\n        /* \"contracts/FakeProdId.sol\":7612:7631  products[productId] */\n      0x00\n        /* \"contracts/FakeProdId.sol\":7621:7630  productId */\n      dup9\n        /* \"contracts/FakeProdId.sol\":7612:7631  products[productId] */\n      dup2\n      mstore\n      0x20\n      add\n      swap1\n      dup2\n      mstore\n      0x20\n      add\n      0x00\n      keccak256\n        /* \"contracts/FakeProdId.sol\":7612:7635  products[productId] = p */\n      0x00\n      dup3\n      add\n      mload\n      dup2\n      0x00\n      add\n      sstore\n      0x20\n      dup3\n      add\n      mload\n      dup2\n      0x01\n      add\n      swap1\n      dup1\n      mload\n      swap1\n      0x20\n      add\n      swap1\n      tag_268\n      swap3\n      swap2\n      swap1\n      tag_115\n      jump\t// in\n    tag_268:\n      pop\n      0x40\n      dup3\n      add\n      mload\n      dup2\n      0x02\n      add\n      sstore\n      0x60\n      dup3\n      add\n      mload\n      dup2\n      0x03\n      add\n      swap1\n      dup1\n      mload\n      swap1\n      0x20\n      add\n      swap1\n      tag_269\n      swap3\n      swap2\n      swap1\n      tag_115\n      jump\t// in\n    tag_269:\n      pop\n      0x80\n      dup3\n      add\n      mload\n      dup2\n      0x04\n      add\n      swap1\n      dup1\n      mload\n      swap1\n      0x20\n      add\n      swap1\n      tag_270\n      swap3\n      swap2\n      swap1\n      tag_118\n      jump\t// in\n    tag_270:\n      pop\n      0xa0\n      dup3\n      add\n      mload\n      dup2\n      0x05\n      add\n      sstore\n      0xc0\n      dup3\n      add\n      mload\n      dup2\n      0x06\n      add\n      swap1\n      dup1\n      mload\n      swap1\n      0x20\n      add\n      swap1\n      tag_271\n      swap3\n      swap2\n      swap1\n      tag_115\n      jump\t// in\n    tag_271:\n      pop\n      0xe0\n      dup3\n      add\n      mload\n      dup2\n      0x07\n      add\n      sstore\n      swap1\n      pop\n      pop\n        /* \"contracts/FakeProdId.sol\":7682:7691  productId */\n      dup6\n        /* \"contracts/FakeProdId.sol\":7648:7649  r */\n      dup2\n        /* \"contracts/FakeProdId.sol\":7648:7661  r.productList */\n      0x60\n      add\n      mload\n        /* \"contracts/FakeProdId.sol\":7662:7663  r */\n      dup3\n        /* \"contracts/FakeProdId.sol\":7662:7676  r.prodListSize */\n      0x40\n      add\n        /* \"contracts/FakeProdId.sol\":7662:7678  r.prodListSize++ */\n      dup1\n      mload\n      dup1\n      swap2\n      swap1\n      tag_272\n      swap1\n      tag_202\n      jump\t// in\n    tag_272:\n      dup2\n      mstore\n      pop\n        /* \"contracts/FakeProdId.sol\":7648:7679  r.productList[r.prodListSize++] */\n      dup2\n      mload\n      dup2\n      lt\n      tag_273\n      jumpi\n      tag_274\n      tag_246\n      jump\t// in\n    tag_274:\n    tag_273:\n      0x20\n      mul\n      0x20\n      add\n      add\n        /* \"contracts/FakeProdId.sol\":7648:7691  r.productList[r.prodListSize++] = productId */\n      dup2\n      dup2\n      mstore\n      pop\n      pop\n        /* \"contracts/FakeProdId.sol\":7726:7727  r */\n      dup1\n        /* \"contracts/FakeProdId.sol\":7702:7711  retailers */\n      0x06\n        /* \"contracts/FakeProdId.sol\":7702:7723  retailers[retailerId] */\n      0x00\n        /* \"contracts/FakeProdId.sol\":7712:7722  retailerId */\n      dup7\n        /* \"contracts/FakeProdId.sol\":7702:7723  retailers[retailerId] */\n      dup2\n      mstore\n      0x20\n      add\n      swap1\n      dup2\n      mstore\n      0x20\n      add\n      0x00\n      keccak256\n        /* \"contracts/FakeProdId.sol\":7702:7727  retailers[retailerId] = r */\n      0x00\n      dup3\n      add\n      mload\n      dup2\n      0x00\n      add\n      sstore\n      0x20\n      dup3\n      add\n      mload\n      dup2\n      0x01\n      add\n      swap1\n      dup1\n      mload\n      swap1\n      0x20\n      add\n      swap1\n      tag_275\n      swap3\n      swap2\n      swap1\n      tag_115\n      jump\t// in\n    tag_275:\n      pop\n      0x40\n      dup3\n      add\n      mload\n      dup2\n      0x02\n      add\n      sstore\n      0x60\n      dup3\n      add\n      mload\n      dup2\n      0x03\n      add\n      swap1\n      dup1\n      mload\n      swap1\n      0x20\n      add\n      swap1\n      tag_276\n      swap3\n      swap2\n      swap1\n      tag_118\n      jump\t// in\n    tag_276:\n      pop\n      swap1\n      pop\n      pop\n        /* \"contracts/FakeProdId.sol\":7745:7767  completeTransaction(p) */\n      0xdb38a0f551885a9e8666b66db8057c351d8f70150c869d99953a3051b52cc36a\n        /* \"contracts/FakeProdId.sol\":7765:7766  p */\n      dup4\n        /* \"contracts/FakeProdId.sol\":7745:7767  completeTransaction(p) */\n      mload(0x40)\n      tag_277\n      swap2\n      swap1\n      tag_83\n      jump\t// in\n    tag_277:\n      mload(0x40)\n      dup1\n      swap2\n      sub\n      swap1\n      log1\n        /* \"contracts/FakeProdId.sol\":7180:7775  {\r... */\n      pop\n      pop\n      pop\n        /* \"contracts/FakeProdId.sol\":7092:7775  function distributorToRetailer(uint productId,uint distributorId,uint retailerId) public{\r... */\n      pop\n      pop\n      pop\n      jump\t// out\n        /* \"contracts/FakeProdId.sol\":2481:2662  function getProduct(uint productId) public view returns (Product memory){\r... */\n    tag_81:\n        /* \"contracts/FakeProdId.sol\":2538:2552  Product memory */\n      tag_278\n      tag_192\n      jump\t// in\n    tag_278:\n        /* \"contracts/FakeProdId.sol\":2635:2643  products */\n      0x01\n        /* \"contracts/FakeProdId.sol\":2635:2654  products[productId] */\n      0x00\n        /* \"contracts/FakeProdId.sol\":2644:2653  productId */\n      dup4\n        /* \"contracts/FakeProdId.sol\":2635:2654  products[productId] */\n      dup2\n      mstore\n      0x20\n      add\n      swap1\n      dup2\n      mstore\n      0x20\n      add\n      0x00\n      keccak256\n        /* \"contracts/FakeProdId.sol\":2628:2654  return products[productId] */\n      mload(0x40)\n      dup1\n      0x0100\n      add\n      0x40\n      mstore\n      swap1\n      dup2\n      0x00\n      dup3\n      add\n      sload\n      dup2\n      mstore\n      0x20\n      add\n      0x01\n      dup3\n      add\n      dup1\n      sload\n      tag_280\n      swap1\n      tag_124\n      jump\t// in\n    tag_280:\n      dup1\n      0x1f\n      add\n      0x20\n      dup1\n      swap2\n      div\n      mul\n      0x20\n      add\n      mload(0x40)\n      swap1\n      dup2\n      add\n      0x40\n      mstore\n      dup1\n      swap3\n      swap2\n      swap1\n      dup2\n      dup2\n      mstore\n      0x20\n      add\n      dup3\n      dup1\n      sload\n      tag_281\n      swap1\n      tag_124\n      jump\t// in\n    tag_281:\n      dup1\n      iszero\n      tag_282\n      jumpi\n      dup1\n      0x1f\n      lt\n      tag_283\n      jumpi\n      0x0100\n      dup1\n      dup4\n      sload\n      div\n      mul\n      dup4\n      mstore\n      swap2\n      0x20\n      add\n      swap2\n      jump(tag_282)\n    tag_283:\n      dup3\n      add\n      swap2\n      swap1\n      0x00\n      mstore\n      keccak256(0x00, 0x20)\n      swap1\n    tag_284:\n      dup2\n      sload\n      dup2\n      mstore\n      swap1\n      0x01\n      add\n      swap1\n      0x20\n      add\n      dup1\n      dup4\n      gt\n      tag_284\n      jumpi\n      dup3\n      swap1\n      sub\n      0x1f\n      and\n      dup3\n      add\n      swap2\n    tag_282:\n      pop\n      pop\n      pop\n      pop\n      pop\n      dup2\n      mstore\n      0x20\n      add\n      0x02\n      dup3\n      add\n      sload\n      dup2\n      mstore\n      0x20\n      add\n      0x03\n      dup3\n      add\n      dup1\n      sload\n      tag_285\n      swap1\n      tag_124\n      jump\t// in\n    tag_285:\n      dup1\n      0x1f\n      add\n      0x20\n      dup1\n      swap2\n      div\n      mul\n      0x20\n      add\n      mload(0x40)\n      swap1\n      dup2\n      add\n      0x40\n      mstore\n      dup1\n      swap3\n      swap2\n      swap1\n      dup2\n      dup2\n      mstore\n      0x20\n      add\n      dup3\n      dup1\n      sload\n      tag_286\n      swap1\n      tag_124\n      jump\t// in\n    tag_286:\n      dup1\n      iszero\n      tag_287\n      jumpi\n      dup1\n      0x1f\n      lt\n      tag_288\n      jumpi\n      0x0100\n      dup1\n      dup4\n      sload\n      div\n      mul\n      dup4\n      mstore\n      swap2\n      0x20\n      add\n      swap2\n      jump(tag_287)\n    tag_288:\n      dup3\n      add\n      swap2\n      swap1\n      0x00\n      mstore\n      keccak256(0x00, 0x20)\n      swap1\n    tag_289:\n      dup2\n      sload\n      dup2\n      mstore\n      swap1\n      0x01\n      add\n      swap1\n      0x20\n      add\n      dup1\n      dup4\n      gt\n      tag_289\n      jumpi\n      dup3\n      swap1\n      sub\n      0x1f\n      and\n      dup3\n      add\n      swap2\n    tag_287:\n      pop\n      pop\n      pop\n      pop\n      pop\n      dup2\n      mstore\n      0x20\n      add\n      0x04\n      dup3\n      add\n      dup1\n      sload\n      dup1\n      0x20\n      mul\n      0x20\n      add\n      mload(0x40)\n      swap1\n      dup2\n      add\n      0x40\n      mstore\n      dup1\n      swap3\n      swap2\n      swap1\n      dup2\n      dup2\n      mstore\n      0x20\n      add\n      dup3\n      dup1\n      sload\n      dup1\n      iszero\n      tag_290\n      jumpi\n      0x20\n      mul\n      dup3\n      add\n      swap2\n      swap1\n      0x00\n      mstore\n      keccak256(0x00, 0x20)\n      swap1\n    tag_291:\n      dup2\n      sload\n      dup2\n      mstore\n      0x20\n      add\n      swap1\n      0x01\n      add\n      swap1\n      dup1\n      dup4\n      gt\n      tag_291\n      jumpi\n    tag_290:\n      pop\n      pop\n      pop\n      pop\n      pop\n      dup2\n      mstore\n      0x20\n      add\n      0x05\n      dup3\n      add\n      sload\n      dup2\n      mstore\n      0x20\n      add\n      0x06\n      dup3\n      add\n      dup1\n      sload\n      tag_292\n      swap1\n      tag_124\n      jump\t// in\n    tag_292:\n      dup1\n      0x1f\n      add\n      0x20\n      dup1\n      swap2\n      div\n      mul\n      0x20\n      add\n      mload(0x40)\n      swap1\n      dup2\n      add\n      0x40\n      mstore\n      dup1\n      swap3\n      swap2\n      swap1\n      dup2\n      dup2\n      mstore\n      0x20\n      add\n      dup3\n      dup1\n      sload\n      tag_293\n      swap1\n      tag_124\n      jump\t// in\n    tag_293:\n      dup1\n      iszero\n      tag_294\n      jumpi\n      dup1\n      0x1f\n      lt\n      tag_295\n      jumpi\n      0x0100\n      dup1\n      dup4\n      sload\n      div\n      mul\n      dup4\n      mstore\n      swap2\n      0x20\n      add\n      swap2\n      jump(tag_294)\n    tag_295:\n      dup3\n      add\n      swap2\n      swap1\n      0x00\n      mstore\n      keccak256(0x00, 0x20)\n      swap1\n    tag_296:\n      dup2\n      sload\n      dup2\n      mstore\n      swap1\n      0x01\n      add\n      swap1\n      0x20\n      add\n      dup1\n      dup4\n      gt\n      tag_296\n      jumpi\n      dup3\n      swap1\n      sub\n      0x1f\n      and\n      dup3\n      add\n      swap2\n    tag_294:\n      pop\n      pop\n      pop\n      pop\n      pop\n      dup2\n      mstore\n      0x20\n      add\n      0x07\n      dup3\n      add\n      sload\n      dup2\n      mstore\n      pop\n      pop\n      swap1\n      pop\n        /* \"contracts/FakeProdId.sol\":2481:2662  function getProduct(uint productId) public view returns (Product memory){\r... */\n      swap2\n      swap1\n      pop\n      jump\t// out\n        /* \"contracts/FakeProdId.sol\":5670:6361  function supplierToManufacturer(uint productId,uint supplierId,uint manufacturerId) public{\r... */\n    tag_86:\n        /* \"contracts/FakeProdId.sol\":5771:5787  Product memory p */\n      0x00\n        /* \"contracts/FakeProdId.sol\":5790:5811  getProduct(productId) */\n      tag_298\n        /* \"contracts/FakeProdId.sol\":5801:5810  productId */\n      dup5\n        /* \"contracts/FakeProdId.sol\":5790:5800  getProduct */\n      tag_81\n        /* \"contracts/FakeProdId.sol\":5790:5811  getProduct(productId) */\n      jump\t// in\n    tag_298:\n        /* \"contracts/FakeProdId.sol\":5771:5811  Product memory p = getProduct(productId) */\n      swap1\n      pop\n        /* \"contracts/FakeProdId.sol\":5848:5858  supplierId */\n      dup3\n        /* \"contracts/FakeProdId.sol\":5832:5833  p */\n      dup2\n        /* \"contracts/FakeProdId.sol\":5832:5844  p.curOwnerId */\n      0xe0\n      add\n      mload\n        /* \"contracts/FakeProdId.sol\":5832:5858  p.curOwnerId == supplierId */\n      eq\n        /* \"contracts/FakeProdId.sol\":5824:5911  require(p.curOwnerId == supplierId, \"Supplier is not the current owner of the product\") */\n      tag_299\n      jumpi\n      mload(0x40)\n      0x08c379a000000000000000000000000000000000000000000000000000000000\n      dup2\n      mstore\n      0x04\n      add\n      tag_300\n      swap1\n      tag_301\n      jump\t// in\n    tag_300:\n      mload(0x40)\n      dup1\n      swap2\n      sub\n      swap1\n      revert\n    tag_299:\n        /* \"contracts/FakeProdId.sol\":5924:5941  Supplier memory s */\n      0x00\n        /* \"contracts/FakeProdId.sol\":5944:5974  getsupplierDetails(supplierId) */\n      tag_302\n        /* \"contracts/FakeProdId.sol\":5963:5973  supplierId */\n      dup5\n        /* \"contracts/FakeProdId.sol\":5944:5962  getsupplierDetails */\n      tag_37\n        /* \"contracts/FakeProdId.sol\":5944:5974  getsupplierDetails(supplierId) */\n      jump\t// in\n    tag_302:\n        /* \"contracts/FakeProdId.sol\":5924:5974  Supplier memory s = getsupplierDetails(supplierId) */\n      swap1\n      pop\n        /* \"contracts/FakeProdId.sol\":5985:6006  Manufacturer memory m */\n      0x00\n        /* \"contracts/FakeProdId.sol\":6009:6047  getmanufacturerDetails(manufacturerId) */\n      tag_303\n        /* \"contracts/FakeProdId.sol\":6032:6046  manufacturerId */\n      dup5\n        /* \"contracts/FakeProdId.sol\":6009:6031  getmanufacturerDetails */\n      tag_89\n        /* \"contracts/FakeProdId.sol\":6009:6047  getmanufacturerDetails(manufacturerId) */\n      jump\t// in\n    tag_303:\n        /* \"contracts/FakeProdId.sol\":5985:6047  Manufacturer memory m = getmanufacturerDetails(manufacturerId) */\n      swap1\n      pop\n        /* \"contracts/FakeProdId.sol\":6073:6074  m */\n      dup1\n        /* \"contracts/FakeProdId.sol\":6073:6079  m.name */\n      0x40\n      add\n      mload\n        /* \"contracts/FakeProdId.sol\":6060:6061  p */\n      dup4\n        /* \"contracts/FakeProdId.sol\":6060:6070  p.curOwner */\n      0xc0\n      add\n        /* \"contracts/FakeProdId.sol\":6060:6079  p.curOwner = m.name */\n      dup2\n      swap1\n      mstore\n      pop\n        /* \"contracts/FakeProdId.sol\":6105:6106  m */\n      dup1\n        /* \"contracts/FakeProdId.sol\":6105:6121  m.manufacturerId */\n      0x00\n      add\n      mload\n        /* \"contracts/FakeProdId.sol\":6090:6091  p */\n      dup4\n        /* \"contracts/FakeProdId.sol\":6090:6102  p.curOwnerId */\n      0xe0\n      add\n        /* \"contracts/FakeProdId.sol\":6090:6121  p.curOwnerId = m.manufacturerId */\n      dup2\n      dup2\n      mstore\n      pop\n      pop\n        /* \"contracts/FakeProdId.sol\":6167:6177  supplierId */\n      dup5\n        /* \"contracts/FakeProdId.sol\":6132:6133  p */\n      dup4\n        /* \"contracts/FakeProdId.sol\":6132:6144  p.prevOwners */\n      0x80\n      add\n      mload\n        /* \"contracts/FakeProdId.sol\":6145:6146  p */\n      dup5\n        /* \"contracts/FakeProdId.sol\":6145:6161  p.prevOwnersSize */\n      0xa0\n      add\n        /* \"contracts/FakeProdId.sol\":6145:6163  p.prevOwnersSize++ */\n      dup1\n      mload\n      dup1\n      swap2\n      swap1\n      tag_304\n      swap1\n      tag_202\n      jump\t// in\n    tag_304:\n      dup2\n      mstore\n      pop\n        /* \"contracts/FakeProdId.sol\":6132:6164  p.prevOwners[p.prevOwnersSize++] */\n      dup2\n      mload\n      dup2\n      lt\n      tag_305\n      jumpi\n      tag_306\n      tag_246\n      jump\t// in\n    tag_306:\n    tag_305:\n      0x20\n      mul\n      0x20\n      add\n      add\n        /* \"contracts/FakeProdId.sol\":6132:6177  p.prevOwners[p.prevOwnersSize++] = supplierId */\n      dup2\n      dup2\n      mstore\n      pop\n      pop\n        /* \"contracts/FakeProdId.sol\":6212:6213  p */\n      dup3\n        /* \"contracts/FakeProdId.sol\":6190:6198  products */\n      0x01\n        /* \"contracts/FakeProdId.sol\":6190:6209  products[productId] */\n      0x00\n        /* \"contracts/FakeProdId.sol\":6199:6208  productId */\n      dup9\n        /* \"contracts/FakeProdId.sol\":6190:6209  products[productId] */\n      dup2\n      mstore\n      0x20\n      add\n      swap1\n      dup2\n      mstore\n      0x20\n      add\n      0x00\n      keccak256\n        /* \"contracts/FakeProdId.sol\":6190:6213  products[productId] = p */\n      0x00\n      dup3\n      add\n      mload\n      dup2\n      0x00\n      add\n      sstore\n      0x20\n      dup3\n      add\n      mload\n      dup2\n      0x01\n      add\n      swap1\n      dup1\n      mload\n      swap1\n      0x20\n      add\n      swap1\n      tag_307\n      swap3\n      swap2\n      swap1\n      tag_115\n      jump\t// in\n    tag_307:\n      pop\n      0x40\n      dup3\n      add\n      mload\n      dup2\n      0x02\n      add\n      sstore\n      0x60\n      dup3\n      add\n      mload\n      dup2\n      0x03\n      add\n      swap1\n      dup1\n      mload\n      swap1\n      0x20\n      add\n      swap1\n      tag_308\n      swap3\n      swap2\n      swap1\n      tag_115\n      jump\t// in\n    tag_308:\n      pop\n      0x80\n      dup3\n      add\n      mload\n      dup2\n      0x04\n      add\n      swap1\n      dup1\n      mload\n      swap1\n      0x20\n      add\n      swap1\n      tag_309\n      swap3\n      swap2\n      swap1\n      tag_118\n      jump\t// in\n    tag_309:\n      pop\n      0xa0\n      dup3\n      add\n      mload\n      dup2\n      0x05\n      add\n      sstore\n      0xc0\n      dup3\n      add\n      mload\n      dup2\n      0x06\n      add\n      swap1\n      dup1\n      mload\n      swap1\n      0x20\n      add\n      swap1\n      tag_310\n      swap3\n      swap2\n      swap1\n      tag_115\n      jump\t// in\n    tag_310:\n      pop\n      0xe0\n      dup3\n      add\n      mload\n      dup2\n      0x07\n      add\n      sstore\n      swap1\n      pop\n      pop\n        /* \"contracts/FakeProdId.sol\":6260:6269  productId */\n      dup6\n        /* \"contracts/FakeProdId.sol\":6226:6227  m */\n      dup2\n        /* \"contracts/FakeProdId.sol\":6226:6239  m.productList */\n      0x80\n      add\n      mload\n        /* \"contracts/FakeProdId.sol\":6240:6241  m */\n      dup3\n        /* \"contracts/FakeProdId.sol\":6240:6254  m.prodListSize */\n      0x60\n      add\n        /* \"contracts/FakeProdId.sol\":6240:6256  m.prodListSize++ */\n      dup1\n      mload\n      dup1\n      swap2\n      swap1\n      tag_311\n      swap1\n      tag_202\n      jump\t// in\n    tag_311:\n      dup2\n      mstore\n      pop\n        /* \"contracts/FakeProdId.sol\":6226:6257  m.productList[m.prodListSize++] */\n      dup2\n      mload\n      dup2\n      lt\n      tag_312\n      jumpi\n      tag_313\n      tag_246\n      jump\t// in\n    tag_313:\n    tag_312:\n      0x20\n      mul\n      0x20\n      add\n      add\n        /* \"contracts/FakeProdId.sol\":6226:6269  m.productList[m.prodListSize++] = productId */\n      dup2\n      dup2\n      mstore\n      pop\n      pop\n        /* \"contracts/FakeProdId.sol\":6312:6313  m */\n      dup1\n        /* \"contracts/FakeProdId.sol\":6280:6293  manufacturers */\n      0x04\n        /* \"contracts/FakeProdId.sol\":6280:6309  manufacturers[manufacturerId] */\n      0x00\n        /* \"contracts/FakeProdId.sol\":6294:6308  manufacturerId */\n      dup7\n        /* \"contracts/FakeProdId.sol\":6280:6309  manufacturers[manufacturerId] */\n      dup2\n      mstore\n      0x20\n      add\n      swap1\n      dup2\n      mstore\n      0x20\n      add\n      0x00\n      keccak256\n        /* \"contracts/FakeProdId.sol\":6280:6313  manufacturers[manufacturerId] = m */\n      0x00\n      dup3\n      add\n      mload\n      dup2\n      0x00\n      add\n      sstore\n      0x20\n      dup3\n      add\n      mload\n      dup2\n      0x01\n      add\n      swap1\n      dup1\n      mload\n      swap1\n      0x20\n      add\n      swap1\n      tag_314\n      swap3\n      swap2\n      swap1\n      tag_115\n      jump\t// in\n    tag_314:\n      pop\n      0x40\n      dup3\n      add\n      mload\n      dup2\n      0x02\n      add\n      swap1\n      dup1\n      mload\n      swap1\n      0x20\n      add\n      swap1\n      tag_315\n      swap3\n      swap2\n      swap1\n      tag_115\n      jump\t// in\n    tag_315:\n      pop\n      0x60\n      dup3\n      add\n      mload\n      dup2\n      0x03\n      add\n      sstore\n      0x80\n      dup3\n      add\n      mload\n      dup2\n      0x04\n      add\n      swap1\n      dup1\n      mload\n      swap1\n      0x20\n      add\n      swap1\n      tag_316\n      swap3\n      swap2\n      swap1\n      tag_118\n      jump\t// in\n    tag_316:\n      pop\n      swap1\n      pop\n      pop\n        /* \"contracts/FakeProdId.sol\":6331:6353  completeTransaction(p) */\n      0xdb38a0f551885a9e8666b66db8057c351d8f70150c869d99953a3051b52cc36a\n        /* \"contracts/FakeProdId.sol\":6351:6352  p */\n      dup4\n        /* \"contracts/FakeProdId.sol\":6331:6353  completeTransaction(p) */\n      mload(0x40)\n      tag_317\n      swap2\n      swap1\n      tag_83\n      jump\t// in\n    tag_317:\n      mload(0x40)\n      dup1\n      swap2\n      sub\n      swap1\n      log1\n        /* \"contracts/FakeProdId.sol\":5760:6361  {\r... */\n      pop\n      pop\n      pop\n        /* \"contracts/FakeProdId.sol\":5670:6361  function supplierToManufacturer(uint productId,uint supplierId,uint manufacturerId) public{\r... */\n      pop\n      pop\n      pop\n      jump\t// out\n        /* \"contracts/FakeProdId.sol\":3799:3948  function getmanufacturerDetails(uint manufacturerId) public view returns (Manufacturer memory){\r... */\n    tag_89:\n        /* \"contracts/FakeProdId.sol\":3873:3892  Manufacturer memory */\n      tag_318\n      tag_207\n      jump\t// in\n    tag_318:\n        /* \"contracts/FakeProdId.sol\":3911:3924  manufacturers */\n      0x04\n        /* \"contracts/FakeProdId.sol\":3911:3940  manufacturers[manufacturerId] */\n      0x00\n        /* \"contracts/FakeProdId.sol\":3925:3939  manufacturerId */\n      dup4\n        /* \"contracts/FakeProdId.sol\":3911:3940  manufacturers[manufacturerId] */\n      dup2\n      mstore\n      0x20\n      add\n      swap1\n      dup2\n      mstore\n      0x20\n      add\n      0x00\n      keccak256\n        /* \"contracts/FakeProdId.sol\":3904:3940  return manufacturers[manufacturerId] */\n      mload(0x40)\n      dup1\n      0xa0\n      add\n      0x40\n      mstore\n      swap1\n      dup2\n      0x00\n      dup3\n      add\n      sload\n      dup2\n      mstore\n      0x20\n      add\n      0x01\n      dup3\n      add\n      dup1\n      sload\n      tag_320\n      swap1\n      tag_124\n      jump\t// in\n    tag_320:\n      dup1\n      0x1f\n      add\n      0x20\n      dup1\n      swap2\n      div\n      mul\n      0x20\n      add\n      mload(0x40)\n      swap1\n      dup2\n      add\n      0x40\n      mstore\n      dup1\n      swap3\n      swap2\n      swap1\n      dup2\n      dup2\n      mstore\n      0x20\n      add\n      dup3\n      dup1\n      sload\n      tag_321\n      swap1\n      tag_124\n      jump\t// in\n    tag_321:\n      dup1\n      iszero\n      tag_322\n      jumpi\n      dup1\n      0x1f\n      lt\n      tag_323\n      jumpi\n      0x0100\n      dup1\n      dup4\n      sload\n      div\n      mul\n      dup4\n      mstore\n      swap2\n      0x20\n      add\n      swap2\n      jump(tag_322)\n    tag_323:\n      dup3\n      add\n      swap2\n      swap1\n      0x00\n      mstore\n      keccak256(0x00, 0x20)\n      swap1\n    tag_324:\n      dup2\n      sload\n      dup2\n      mstore\n      swap1\n      0x01\n      add\n      swap1\n      0x20\n      add\n      dup1\n      dup4\n      gt\n      tag_324\n      jumpi\n      dup3\n      swap1\n      sub\n      0x1f\n      and\n      dup3\n      add\n      swap2\n    tag_322:\n      pop\n      pop\n      pop\n      pop\n      pop\n      dup2\n      mstore\n      0x20\n      add\n      0x02\n      dup3\n      add\n      dup1\n      sload\n      tag_325\n      swap1\n      tag_124\n      jump\t// in\n    tag_325:\n      dup1\n      0x1f\n      add\n      0x20\n      dup1\n      swap2\n      div\n      mul\n      0x20\n      add\n      mload(0x40)\n      swap1\n      dup2\n      add\n      0x40\n      mstore\n      dup1\n      swap3\n      swap2\n      swap1\n      dup2\n      dup2\n      mstore\n      0x20\n      add\n      dup3\n      dup1\n      sload\n      tag_326\n      swap1\n      tag_124\n      jump\t// in\n    tag_326:\n      dup1\n      iszero\n      tag_327\n      jumpi\n      dup1\n      0x1f\n      lt\n      tag_328\n      jumpi\n      0x0100\n      dup1\n      dup4\n      sload\n      div\n      mul\n      dup4\n      mstore\n      swap2\n      0x20\n      add\n      swap2\n      jump(tag_327)\n    tag_328:\n      dup3\n      add\n      swap2\n      swap1\n      0x00\n      mstore\n      keccak256(0x00, 0x20)\n      swap1\n    tag_329:\n      dup2\n      sload\n      dup2\n      mstore\n      swap1\n      0x01\n      add\n      swap1\n      0x20\n      add\n      dup1\n      dup4\n      gt\n      tag_329\n      jumpi\n      dup3\n      swap1\n      sub\n      0x1f\n      and\n      dup3\n      add\n      swap2\n    tag_327:\n      pop\n      pop\n      pop\n      pop\n      pop\n      dup2\n      mstore\n      0x20\n      add\n      0x03\n      dup3\n      add\n      sload\n      dup2\n      mstore\n      0x20\n      add\n      0x04\n      dup3\n      add\n      dup1\n      sload\n      dup1\n      0x20\n      mul\n      0x20\n      add\n      mload(0x40)\n      swap1\n      dup2\n      add\n      0x40\n      mstore\n      dup1\n      swap3\n      swap2\n      swap1\n      dup2\n      dup2\n      mstore\n      0x20\n      add\n      dup3\n      dup1\n      sload\n      dup1\n      iszero\n      tag_330\n      jumpi\n      0x20\n      mul\n      dup3\n      add\n      swap2\n      swap1\n      0x00\n      mstore\n      keccak256(0x00, 0x20)\n      swap1\n    tag_331:\n      dup2\n      sload\n      dup2\n      mstore\n      0x20\n      add\n      swap1\n      0x01\n      add\n      swap1\n      dup1\n      dup4\n      gt\n      tag_331\n      jumpi\n    tag_330:\n      pop\n      pop\n      pop\n      pop\n      pop\n      dup2\n      mstore\n      pop\n      pop\n      swap1\n      pop\n        /* \"contracts/FakeProdId.sol\":3799:3948  function getmanufacturerDetails(uint manufacturerId) public view returns (Manufacturer memory){\r... */\n      swap2\n      swap1\n      pop\n      jump\t// out\n        /* \"contracts/FakeProdId.sol\":5055:5184  function getretailerDetails(uint retailerId) public view returns (Retailer memory){\r... */\n    tag_94:\n        /* \"contracts/FakeProdId.sol\":5121:5136  Retailer memory */\n      tag_332\n      tag_228\n      jump\t// in\n    tag_332:\n        /* \"contracts/FakeProdId.sol\":5155:5164  retailers */\n      0x06\n        /* \"contracts/FakeProdId.sol\":5155:5176  retailers[retailerId] */\n      0x00\n        /* \"contracts/FakeProdId.sol\":5165:5175  retailerId */\n      dup4\n        /* \"contracts/FakeProdId.sol\":5155:5176  retailers[retailerId] */\n      dup2\n      mstore\n      0x20\n      add\n      swap1\n      dup2\n      mstore\n      0x20\n      add\n      0x00\n      keccak256\n        /* \"contracts/FakeProdId.sol\":5148:5176  return retailers[retailerId] */\n      mload(0x40)\n      dup1\n      0x80\n      add\n      0x40\n      mstore\n      swap1\n      dup2\n      0x00\n      dup3\n      add\n      sload\n      dup2\n      mstore\n      0x20\n      add\n      0x01\n      dup3\n      add\n      dup1\n      sload\n      tag_334\n      swap1\n      tag_124\n      jump\t// in\n    tag_334:\n      dup1\n      0x1f\n      add\n      0x20\n      dup1\n      swap2\n      div\n      mul\n      0x20\n      add\n      mload(0x40)\n      swap1\n      dup2\n      add\n      0x40\n      mstore\n      dup1\n      swap3\n      swap2\n      swap1\n      dup2\n      dup2\n      mstore\n      0x20\n      add\n      dup3\n      dup1\n      sload\n      tag_335\n      swap1\n      tag_124\n      jump\t// in\n    tag_335:\n      dup1\n      iszero\n      tag_336\n      jumpi\n      dup1\n      0x1f\n      lt\n      tag_337\n      jumpi\n      0x0100\n      dup1\n      dup4\n      sload\n      div\n      mul\n      dup4\n      mstore\n      swap2\n      0x20\n      add\n      swap2\n      jump(tag_336)\n    tag_337:\n      dup3\n      add\n      swap2\n      swap1\n      0x00\n      mstore\n      keccak256(0x00, 0x20)\n      swap1\n    tag_338:\n      dup2\n      sload\n      dup2\n      mstore\n      swap1\n      0x01\n      add\n      swap1\n      0x20\n      add\n      dup1\n      dup4\n      gt\n      tag_338\n      jumpi\n      dup3\n      swap1\n      sub\n      0x1f\n      and\n      dup3\n      add\n      swap2\n    tag_336:\n      pop\n      pop\n      pop\n      pop\n      pop\n      dup2\n      mstore\n      0x20\n      add\n      0x02\n      dup3\n      add\n      sload\n      dup2\n      mstore\n      0x20\n      add\n      0x03\n      dup3\n      add\n      dup1\n      sload\n      dup1\n      0x20\n      mul\n      0x20\n      add\n      mload(0x40)\n      swap1\n      dup2\n      add\n      0x40\n      mstore\n      dup1\n      swap3\n      swap2\n      swap1\n      dup2\n      dup2\n      mstore\n      0x20\n      add\n      dup3\n      dup1\n      sload\n      dup1\n      iszero\n      tag_339\n      jumpi\n      0x20\n      mul\n      dup3\n      add\n      swap2\n      swap1\n      0x00\n      mstore\n      keccak256(0x00, 0x20)\n      swap1\n    tag_340:\n      dup2\n      sload\n      dup2\n      mstore\n      0x20\n      add\n      swap1\n      0x01\n      add\n      swap1\n      dup1\n      dup4\n      gt\n      tag_340\n      jumpi\n    tag_339:\n      pop\n      pop\n      pop\n      pop\n      pop\n      dup2\n      mstore\n      pop\n      pop\n      swap1\n      pop\n        /* \"contracts/FakeProdId.sol\":5055:5184  function getretailerDetails(uint retailerId) public view returns (Retailer memory){\r... */\n      swap2\n      swap1\n      pop\n      jump\t// out\n        /* \"contracts/FakeProdId.sol\":1516:1558  mapping(uint => Supplier) public suppliers */\n    tag_99:\n      mstore(0x20, 0x03)\n      dup1\n      0x00\n      mstore\n      keccak256(0x00, 0x40)\n      0x00\n      swap2\n      pop\n      swap1\n      pop\n      dup1\n      0x00\n      add\n      sload\n      swap1\n      dup1\n      0x01\n      add\n      dup1\n      sload\n      tag_341\n      swap1\n      tag_124\n      jump\t// in\n    tag_341:\n      dup1\n      0x1f\n      add\n      0x20\n      dup1\n      swap2\n      div\n      mul\n      0x20\n      add\n      mload(0x40)\n      swap1\n      dup2\n      add\n      0x40\n      mstore\n      dup1\n      swap3\n      swap2\n      swap1\n      dup2\n      dup2\n      mstore\n      0x20\n      add\n      dup3\n      dup1\n      sload\n      tag_342\n      swap1\n      tag_124\n      jump\t// in\n    tag_342:\n      dup1\n      iszero\n      tag_343\n      jumpi\n      dup1\n      0x1f\n      lt\n      tag_344\n      jumpi\n      0x0100\n      dup1\n      dup4\n      sload\n      div\n      mul\n      dup4\n      mstore\n      swap2\n      0x20\n      add\n      swap2\n      jump(tag_343)\n    tag_344:\n      dup3\n      add\n      swap2\n      swap1\n      0x00\n      mstore\n      keccak256(0x00, 0x20)\n      swap1\n    tag_345:\n      dup2\n      sload\n      dup2\n      mstore\n      swap1\n      0x01\n      add\n      swap1\n      0x20\n      add\n      dup1\n      dup4\n      gt\n      tag_345\n      jumpi\n      dup3\n      swap1\n      sub\n      0x1f\n      and\n      dup3\n      add\n      swap2\n    tag_343:\n      pop\n      pop\n      pop\n      pop\n      pop\n      swap1\n      dup1\n      0x02\n      add\n      dup1\n      sload\n      tag_346\n      swap1\n      tag_124\n      jump\t// in\n    tag_346:\n      dup1\n      0x1f\n      add\n      0x20\n      dup1\n      swap2\n      div\n      mul\n      0x20\n      add\n      mload(0x40)\n      swap1\n      dup2\n      add\n      0x40\n      mstore\n      dup1\n      swap3\n      swap2\n      swap1\n      dup2\n      dup2\n      mstore\n      0x20\n      add\n      dup3\n      dup1\n      sload\n      tag_347\n      swap1\n      tag_124\n      jump\t// in\n    tag_347:\n      dup1\n      iszero\n      tag_348\n      jumpi\n      dup1\n      0x1f\n      lt\n      tag_349\n      jumpi\n      0x0100\n      dup1\n      dup4\n      sload\n      div\n      mul\n      dup4\n      mstore\n      swap2\n      0x20\n      add\n      swap2\n      jump(tag_348)\n    tag_349:\n      dup3\n      add\n      swap2\n      swap1\n      0x00\n      mstore\n      keccak256(0x00, 0x20)\n      swap1\n    tag_350:\n      dup2\n      sload\n      dup2\n      mstore\n      swap1\n      0x01\n      add\n      swap1\n      0x20\n      add\n      dup1\n      dup4\n      gt\n      tag_350\n      jumpi\n      dup3\n      swap1\n      sub\n      0x1f\n      and\n      dup3\n      add\n      swap2\n    tag_348:\n      pop\n      pop\n      pop\n      pop\n      pop\n      swap1\n      dup1\n      0x03\n      add\n      sload\n      swap1\n      pop\n      dup5\n      jump\t// out\n        /* \"contracts/FakeProdId.sol\":5192:5662  function supplierTransaction(uint productId,uint supplierId) public{\r... */\n    tag_104:\n        /* \"contracts/FakeProdId.sol\":5270:5287  Supplier memory s */\n      0x00\n        /* \"contracts/FakeProdId.sol\":5290:5320  getsupplierDetails(supplierId) */\n      tag_352\n        /* \"contracts/FakeProdId.sol\":5309:5319  supplierId */\n      dup3\n        /* \"contracts/FakeProdId.sol\":5290:5308  getsupplierDetails */\n      tag_37\n        /* \"contracts/FakeProdId.sol\":5290:5320  getsupplierDetails(supplierId) */\n      jump\t// in\n    tag_352:\n        /* \"contracts/FakeProdId.sol\":5270:5320  Supplier memory s = getsupplierDetails(supplierId) */\n      swap1\n      pop\n        /* \"contracts/FakeProdId.sol\":5331:5347  Product memory p */\n      0x00\n        /* \"contracts/FakeProdId.sol\":5350:5371  getProduct(productId) */\n      tag_353\n        /* \"contracts/FakeProdId.sol\":5361:5370  productId */\n      dup5\n        /* \"contracts/FakeProdId.sol\":5350:5360  getProduct */\n      tag_81\n        /* \"contracts/FakeProdId.sol\":5350:5371  getProduct(productId) */\n      jump\t// in\n    tag_353:\n        /* \"contracts/FakeProdId.sol\":5331:5371  Product memory p = getProduct(productId) */\n      swap1\n      pop\n        /* \"contracts/FakeProdId.sol\":5405:5406  s */\n      dup2\n        /* \"contracts/FakeProdId.sol\":5405:5411  s.name */\n      0x40\n      add\n      mload\n        /* \"contracts/FakeProdId.sol\":5392:5393  p */\n      dup2\n        /* \"contracts/FakeProdId.sol\":5392:5402  p.curOwner */\n      0xc0\n      add\n        /* \"contracts/FakeProdId.sol\":5392:5411  p.curOwner = s.name */\n      dup2\n      swap1\n      mstore\n      pop\n        /* \"contracts/FakeProdId.sol\":5437:5438  s */\n      dup2\n        /* \"contracts/FakeProdId.sol\":5437:5449  s.supplierId */\n      0x00\n      add\n      mload\n        /* \"contracts/FakeProdId.sol\":5422:5423  p */\n      dup2\n        /* \"contracts/FakeProdId.sol\":5422:5434  p.curOwnerId */\n      0xe0\n      add\n        /* \"contracts/FakeProdId.sol\":5422:5449  p.curOwnerId = s.supplierId */\n      dup2\n      dup2\n      mstore\n      pop\n      pop\n        /* \"contracts/FakeProdId.sol\":5484:5485  p */\n      dup1\n        /* \"contracts/FakeProdId.sol\":5462:5470  products */\n      0x01\n        /* \"contracts/FakeProdId.sol\":5462:5481  products[productId] */\n      0x00\n        /* \"contracts/FakeProdId.sol\":5471:5480  productId */\n      dup7\n        /* \"contracts/FakeProdId.sol\":5462:5481  products[productId] */\n      dup2\n      mstore\n      0x20\n      add\n      swap1\n      dup2\n      mstore\n      0x20\n      add\n      0x00\n      keccak256\n        /* \"contracts/FakeProdId.sol\":5462:5485  products[productId] = p */\n      0x00\n      dup3\n      add\n      mload\n      dup2\n      0x00\n      add\n      sstore\n      0x20\n      dup3\n      add\n      mload\n      dup2\n      0x01\n      add\n      swap1\n      dup1\n      mload\n      swap1\n      0x20\n      add\n      swap1\n      tag_354\n      swap3\n      swap2\n      swap1\n      tag_115\n      jump\t// in\n    tag_354:\n      pop\n      0x40\n      dup3\n      add\n      mload\n      dup2\n      0x02\n      add\n      sstore\n      0x60\n      dup3\n      add\n      mload\n      dup2\n      0x03\n      add\n      swap1\n      dup1\n      mload\n      swap1\n      0x20\n      add\n      swap1\n      tag_355\n      swap3\n      swap2\n      swap1\n      tag_115\n      jump\t// in\n    tag_355:\n      pop\n      0x80\n      dup3\n      add\n      mload\n      dup2\n      0x04\n      add\n      swap1\n      dup1\n      mload\n      swap1\n      0x20\n      add\n      swap1\n      tag_356\n      swap3\n      swap2\n      swap1\n      tag_118\n      jump\t// in\n    tag_356:\n      pop\n      0xa0\n      dup3\n      add\n      mload\n      dup2\n      0x05\n      add\n      sstore\n      0xc0\n      dup3\n      add\n      mload\n      dup2\n      0x06\n      add\n      swap1\n      dup1\n      mload\n      swap1\n      0x20\n      add\n      swap1\n      tag_357\n      swap3\n      swap2\n      swap1\n      tag_115\n      jump\t// in\n    tag_357:\n      pop\n      0xe0\n      dup3\n      add\n      mload\n      dup2\n      0x07\n      add\n      sstore\n      swap1\n      pop\n      pop\n        /* \"contracts/FakeProdId.sol\":5569:5578  productId */\n      dup4\n        /* \"contracts/FakeProdId.sol\":5535:5536  s */\n      dup3\n        /* \"contracts/FakeProdId.sol\":5535:5548  s.productList */\n      0x80\n      add\n      mload\n        /* \"contracts/FakeProdId.sol\":5549:5550  s */\n      dup4\n        /* \"contracts/FakeProdId.sol\":5549:5563  s.prodListSize */\n      0x60\n      add\n        /* \"contracts/FakeProdId.sol\":5549:5565  s.prodListSize++ */\n      dup1\n      mload\n      dup1\n      swap2\n      swap1\n      tag_358\n      swap1\n      tag_202\n      jump\t// in\n    tag_358:\n      dup2\n      mstore\n      pop\n        /* \"contracts/FakeProdId.sol\":5535:5566  s.productList[s.prodListSize++] */\n      dup2\n      mload\n      dup2\n      lt\n      tag_359\n      jumpi\n      tag_360\n      tag_246\n      jump\t// in\n    tag_360:\n    tag_359:\n      0x20\n      mul\n      0x20\n      add\n      add\n        /* \"contracts/FakeProdId.sol\":5535:5578  s.productList[s.prodListSize++] = productId */\n      dup2\n      dup2\n      mstore\n      pop\n      pop\n        /* \"contracts/FakeProdId.sol\":5613:5614  s */\n      dup2\n        /* \"contracts/FakeProdId.sol\":5589:5598  suppliers */\n      0x03\n        /* \"contracts/FakeProdId.sol\":5589:5610  suppliers[supplierId] */\n      0x00\n        /* \"contracts/FakeProdId.sol\":5599:5609  supplierId */\n      dup6\n        /* \"contracts/FakeProdId.sol\":5589:5610  suppliers[supplierId] */\n      dup2\n      mstore\n      0x20\n      add\n      swap1\n      dup2\n      mstore\n      0x20\n      add\n      0x00\n      keccak256\n        /* \"contracts/FakeProdId.sol\":5589:5614  suppliers[supplierId] = s */\n      0x00\n      dup3\n      add\n      mload\n      dup2\n      0x00\n      add\n      sstore\n      0x20\n      dup3\n      add\n      mload\n      dup2\n      0x01\n      add\n      swap1\n      dup1\n      mload\n      swap1\n      0x20\n      add\n      swap1\n      tag_361\n      swap3\n      swap2\n      swap1\n      tag_115\n      jump\t// in\n    tag_361:\n      pop\n      0x40\n      dup3\n      add\n      mload\n      dup2\n      0x02\n      add\n      swap1\n      dup1\n      mload\n      swap1\n      0x20\n      add\n      swap1\n      tag_362\n      swap3\n      swap2\n      swap1\n      tag_115\n      jump\t// in\n    tag_362:\n      pop\n      0x60\n      dup3\n      add\n      mload\n      dup2\n      0x03\n      add\n      sstore\n      0x80\n      dup3\n      add\n      mload\n      dup2\n      0x04\n      add\n      swap1\n      dup1\n      mload\n      swap1\n      0x20\n      add\n      swap1\n      tag_363\n      swap3\n      swap2\n      swap1\n      tag_118\n      jump\t// in\n    tag_363:\n      pop\n      swap1\n      pop\n      pop\n        /* \"contracts/FakeProdId.sol\":5632:5654  completeTransaction(p) */\n      0xdb38a0f551885a9e8666b66db8057c351d8f70150c869d99953a3051b52cc36a\n        /* \"contracts/FakeProdId.sol\":5652:5653  p */\n      dup2\n        /* \"contracts/FakeProdId.sol\":5632:5654  completeTransaction(p) */\n      mload(0x40)\n      tag_364\n      swap2\n      swap1\n      tag_83\n      jump\t// in\n    tag_364:\n      mload(0x40)\n      dup1\n      swap2\n      sub\n      swap1\n      log1\n        /* \"contracts/FakeProdId.sol\":5259:5662  {\r... */\n      pop\n      pop\n        /* \"contracts/FakeProdId.sol\":5192:5662  function supplierTransaction(uint productId,uint supplierId) public{\r... */\n      pop\n      pop\n      jump\t// out\n    tag_107:\n      mload(0x40)\n      dup1\n      0xa0\n      add\n      0x40\n      mstore\n      dup1\n      0x00\n      dup2\n      mstore\n      0x20\n      add\n      0x60\n      dup2\n      mstore\n      0x20\n      add\n      0x60\n      dup2\n      mstore\n      0x20\n      add\n      0x00\n      dup2\n      mstore\n      0x20\n      add\n      0x60\n      dup2\n      mstore\n      pop\n      swap1\n      jump\t// out\n    tag_115:\n      dup3\n      dup1\n      sload\n      tag_365\n      swap1\n      tag_124\n      jump\t// in\n    tag_365:\n      swap1\n      0x00\n      mstore\n      keccak256(0x00, 0x20)\n      swap1\n      0x1f\n      add\n      0x20\n      swap1\n      div\n      dup2\n      add\n      swap3\n      dup3\n      tag_367\n      jumpi\n      0x00\n      dup6\n      sstore\n      jump(tag_366)\n    tag_367:\n      dup3\n      0x1f\n      lt\n      tag_368\n      jumpi\n      dup1\n      mload\n      not(0xff)\n      and\n      dup4\n      dup1\n      add\n      or\n      dup6\n      sstore\n      jump(tag_366)\n    tag_368:\n      dup3\n      dup1\n      add\n      0x01\n      add\n      dup6\n      sstore\n      dup3\n      iszero\n      tag_366\n      jumpi\n      swap2\n      dup3\n      add\n    tag_369:\n      dup3\n      dup2\n      gt\n      iszero\n      tag_370\n      jumpi\n      dup3\n      mload\n      dup3\n      sstore\n      swap2\n      0x20\n      add\n      swap2\n      swap1\n      0x01\n      add\n      swap1\n      jump(tag_369)\n    tag_370:\n    tag_366:\n      pop\n      swap1\n      pop\n      tag_371\n      swap2\n      swap1\n      tag_372\n      jump\t// in\n    tag_371:\n      pop\n      swap1\n      jump\t// out\n    tag_118:\n      dup3\n      dup1\n      sload\n      dup3\n      dup3\n      sstore\n      swap1\n      0x00\n      mstore\n      keccak256(0x00, 0x20)\n      swap1\n      dup2\n      add\n      swap3\n      dup3\n      iszero\n      tag_373\n      jumpi\n      swap2\n      0x20\n      mul\n      dup3\n      add\n    tag_374:\n      dup3\n      dup2\n      gt\n      iszero\n      tag_375\n      jumpi\n      dup3\n      mload\n      dup3\n      sstore\n      swap2\n      0x20\n      add\n      swap2\n      swap1\n      0x01\n      add\n      swap1\n      jump(tag_374)\n    tag_375:\n    tag_373:\n      pop\n      swap1\n      pop\n      tag_376\n      swap2\n      swap1\n      tag_372\n      jump\t// in\n    tag_376:\n      pop\n      swap1\n      jump\t// out\n    tag_121:\n      mload(0x40)\n      dup1\n      0xa0\n      add\n      0x40\n      mstore\n      dup1\n      0x00\n      dup2\n      mstore\n      0x20\n      add\n      0x60\n      dup2\n      mstore\n      0x20\n      add\n      0x60\n      dup2\n      mstore\n      0x20\n      add\n      0x00\n      dup2\n      mstore\n      0x20\n      add\n      0x60\n      dup2\n      mstore\n      pop\n      swap1\n      jump\t// out\n    tag_192:\n      mload(0x40)\n      dup1\n      0x0100\n      add\n      0x40\n      mstore\n      dup1\n      0x00\n      dup2\n      mstore\n      0x20\n      add\n      0x60\n      dup2\n      mstore\n      0x20\n      add\n      0x00\n      dup2\n      mstore\n      0x20\n      add\n      0x60\n      dup2\n      mstore\n      0x20\n      add\n      0x60\n      dup2\n      mstore\n      0x20\n      add\n      0x00\n      dup2\n      mstore\n      0x20\n      add\n      0x60\n      dup2\n      mstore\n      0x20\n      add\n      0x00\n      dup2\n      mstore\n      pop\n      swap1\n      jump\t// out\n    tag_207:\n      mload(0x40)\n      dup1\n      0xa0\n      add\n      0x40\n      mstore\n      dup1\n      0x00\n      dup2\n      mstore\n      0x20\n      add\n      0x60\n      dup2\n      mstore\n      0x20\n      add\n      0x60\n      dup2\n      mstore\n      0x20\n      add\n      0x00\n      dup2\n      mstore\n      0x20\n      add\n      0x60\n      dup2\n      mstore\n      pop\n      swap1\n      jump\t// out\n    tag_228:\n      mload(0x40)\n      dup1\n      0x80\n      add\n      0x40\n      mstore\n      dup1\n      0x00\n      dup2\n      mstore\n      0x20\n      add\n      0x60\n      dup2\n      mstore\n      0x20\n      add\n      0x00\n      dup2\n      mstore\n      0x20\n      add\n      0x60\n      dup2\n      mstore\n      pop\n      swap1\n      jump\t// out\n    tag_372:\n    tag_377:\n      dup1\n      dup3\n      gt\n      iszero\n      tag_378\n      jumpi\n      0x00\n      dup2\n      0x00\n      swap1\n      sstore\n      pop\n      0x01\n      add\n      jump(tag_377)\n    tag_378:\n      pop\n      swap1\n      jump\t// out\n        /* \"#utility.yul\":7:419   */\n    tag_380:\n        /* \"#utility.yul\":85:90   */\n      0x00\n        /* \"#utility.yul\":110:176   */\n      tag_382\n        /* \"#utility.yul\":126:175   */\n      tag_383\n        /* \"#utility.yul\":168:174   */\n      dup5\n        /* \"#utility.yul\":126:175   */\n      tag_384\n      jump\t// in\n    tag_383:\n        /* \"#utility.yul\":110:176   */\n      tag_385\n      jump\t// in\n    tag_382:\n        /* \"#utility.yul\":101:176   */\n      swap1\n      pop\n        /* \"#utility.yul\":199:205   */\n      dup3\n        /* \"#utility.yul\":192:197   */\n      dup2\n        /* \"#utility.yul\":185:206   */\n      mstore\n        /* \"#utility.yul\":237:241   */\n      0x20\n        /* \"#utility.yul\":230:235   */\n      dup2\n        /* \"#utility.yul\":226:242   */\n      add\n        /* \"#utility.yul\":275:278   */\n      dup5\n        /* \"#utility.yul\":266:272   */\n      dup5\n        /* \"#utility.yul\":261:264   */\n      dup5\n        /* \"#utility.yul\":257:273   */\n      add\n        /* \"#utility.yul\":254:279   */\n      gt\n        /* \"#utility.yul\":251:363   */\n      iszero\n      tag_386\n      jumpi\n        /* \"#utility.yul\":282:361   */\n      tag_387\n      tag_388\n      jump\t// in\n    tag_387:\n        /* \"#utility.yul\":251:363   */\n    tag_386:\n        /* \"#utility.yul\":372:413   */\n      tag_389\n        /* \"#utility.yul\":406:412   */\n      dup5\n        /* \"#utility.yul\":401:404   */\n      dup3\n        /* \"#utility.yul\":396:399   */\n      dup6\n        /* \"#utility.yul\":372:413   */\n      tag_390\n      jump\t// in\n    tag_389:\n        /* \"#utility.yul\":91:419   */\n      pop\n        /* \"#utility.yul\":7:419   */\n      swap4\n      swap3\n      pop\n      pop\n      pop\n      jump\t// out\n        /* \"#utility.yul\":439:779   */\n    tag_391:\n        /* \"#utility.yul\":495:500   */\n      0x00\n        /* \"#utility.yul\":544:547   */\n      dup3\n        /* \"#utility.yul\":537:541   */\n      0x1f\n        /* \"#utility.yul\":529:535   */\n      dup4\n        /* \"#utility.yul\":525:542   */\n      add\n        /* \"#utility.yul\":521:548   */\n      slt\n        /* \"#utility.yul\":511:633   */\n      tag_393\n      jumpi\n        /* \"#utility.yul\":552:631   */\n      tag_394\n      tag_395\n      jump\t// in\n    tag_394:\n        /* \"#utility.yul\":511:633   */\n    tag_393:\n        /* \"#utility.yul\":669:675   */\n      dup2\n        /* \"#utility.yul\":656:676   */\n      calldataload\n        /* \"#utility.yul\":694:773   */\n      tag_396\n        /* \"#utility.yul\":769:772   */\n      dup5\n        /* \"#utility.yul\":761:767   */\n      dup3\n        /* \"#utility.yul\":754:758   */\n      0x20\n        /* \"#utility.yul\":746:752   */\n      dup7\n        /* \"#utility.yul\":742:759   */\n      add\n        /* \"#utility.yul\":694:773   */\n      tag_380\n      jump\t// in\n    tag_396:\n        /* \"#utility.yul\":685:773   */\n      swap2\n      pop\n        /* \"#utility.yul\":501:779   */\n      pop\n        /* \"#utility.yul\":439:779   */\n      swap3\n      swap2\n      pop\n      pop\n      jump\t// out\n        /* \"#utility.yul\":785:924   */\n    tag_397:\n        /* \"#utility.yul\":831:836   */\n      0x00\n        /* \"#utility.yul\":869:875   */\n      dup2\n        /* \"#utility.yul\":856:876   */\n      calldataload\n        /* \"#utility.yul\":847:876   */\n      swap1\n      pop\n        /* \"#utility.yul\":885:918   */\n      tag_399\n        /* \"#utility.yul\":912:917   */\n      dup2\n        /* \"#utility.yul\":885:918   */\n      tag_400\n      jump\t// in\n    tag_399:\n        /* \"#utility.yul\":785:924   */\n      swap3\n      swap2\n      pop\n      pop\n      jump\t// out\n        /* \"#utility.yul\":930:1439   */\n    tag_27:\n        /* \"#utility.yul\":999:1005   */\n      0x00\n        /* \"#utility.yul\":1048:1050   */\n      0x20\n        /* \"#utility.yul\":1036:1045   */\n      dup3\n        /* \"#utility.yul\":1027:1034   */\n      dup5\n        /* \"#utility.yul\":1023:1046   */\n      sub\n        /* \"#utility.yul\":1019:1051   */\n      slt\n        /* \"#utility.yul\":1016:1135   */\n      iszero\n      tag_402\n      jumpi\n        /* \"#utility.yul\":1054:1133   */\n      tag_403\n      tag_404\n      jump\t// in\n    tag_403:\n        /* \"#utility.yul\":1016:1135   */\n    tag_402:\n        /* \"#utility.yul\":1202:1203   */\n      0x00\n        /* \"#utility.yul\":1191:1200   */\n      dup3\n        /* \"#utility.yul\":1187:1204   */\n      add\n        /* \"#utility.yul\":1174:1205   */\n      calldataload\n        /* \"#utility.yul\":1232:1250   */\n      0xffffffffffffffff\n        /* \"#utility.yul\":1224:1230   */\n      dup2\n        /* \"#utility.yul\":1221:1251   */\n      gt\n        /* \"#utility.yul\":1218:1335   */\n      iszero\n      tag_405\n      jumpi\n        /* \"#utility.yul\":1254:1333   */\n      tag_406\n      tag_407\n      jump\t// in\n    tag_406:\n        /* \"#utility.yul\":1218:1335   */\n    tag_405:\n        /* \"#utility.yul\":1359:1422   */\n      tag_408\n        /* \"#utility.yul\":1414:1421   */\n      dup5\n        /* \"#utility.yul\":1405:1411   */\n      dup3\n        /* \"#utility.yul\":1394:1403   */\n      dup6\n        /* \"#utility.yul\":1390:1412   */\n      add\n        /* \"#utility.yul\":1359:1422   */\n      tag_391\n      jump\t// in\n    tag_408:\n        /* \"#utility.yul\":1349:1422   */\n      swap2\n      pop\n        /* \"#utility.yul\":1145:1432   */\n      pop\n        /* \"#utility.yul\":930:1439   */\n      swap3\n      swap2\n      pop\n      pop\n      jump\t// out\n        /* \"#utility.yul\":1445:2424   */\n    tag_60:\n        /* \"#utility.yul\":1542:1548   */\n      0x00\n        /* \"#utility.yul\":1550:1556   */\n      dup1\n        /* \"#utility.yul\":1558:1564   */\n      0x00\n        /* \"#utility.yul\":1607:1609   */\n      0x60\n        /* \"#utility.yul\":1595:1604   */\n      dup5\n        /* \"#utility.yul\":1586:1593   */\n      dup7\n        /* \"#utility.yul\":1582:1605   */\n      sub\n        /* \"#utility.yul\":1578:1610   */\n      slt\n        /* \"#utility.yul\":1575:1694   */\n      iszero\n      tag_410\n      jumpi\n        /* \"#utility.yul\":1613:1692   */\n      tag_411\n      tag_404\n      jump\t// in\n    tag_411:\n        /* \"#utility.yul\":1575:1694   */\n    tag_410:\n        /* \"#utility.yul\":1761:1762   */\n      0x00\n        /* \"#utility.yul\":1750:1759   */\n      dup5\n        /* \"#utility.yul\":1746:1763   */\n      add\n        /* \"#utility.yul\":1733:1764   */\n      calldataload\n        /* \"#utility.yul\":1791:1809   */\n      0xffffffffffffffff\n        /* \"#utility.yul\":1783:1789   */\n      dup2\n        /* \"#utility.yul\":1780:1810   */\n      gt\n        /* \"#utility.yul\":1777:1894   */\n      iszero\n      tag_412\n      jumpi\n        /* \"#utility.yul\":1813:1892   */\n      tag_413\n      tag_407\n      jump\t// in\n    tag_413:\n        /* \"#utility.yul\":1777:1894   */\n    tag_412:\n        /* \"#utility.yul\":1918:1981   */\n      tag_414\n        /* \"#utility.yul\":1973:1980   */\n      dup7\n        /* \"#utility.yul\":1964:1970   */\n      dup3\n        /* \"#utility.yul\":1953:1962   */\n      dup8\n        /* \"#utility.yul\":1949:1971   */\n      add\n        /* \"#utility.yul\":1918:1981   */\n      tag_391\n      jump\t// in\n    tag_414:\n        /* \"#utility.yul\":1908:1981   */\n      swap4\n      pop\n        /* \"#utility.yul\":1704:1991   */\n      pop\n        /* \"#utility.yul\":2030:2032   */\n      0x20\n        /* \"#utility.yul\":2056:2109   */\n      tag_415\n        /* \"#utility.yul\":2101:2108   */\n      dup7\n        /* \"#utility.yul\":2092:2098   */\n      dup3\n        /* \"#utility.yul\":2081:2090   */\n      dup8\n        /* \"#utility.yul\":2077:2099   */\n      add\n        /* \"#utility.yul\":2056:2109   */\n      tag_397\n      jump\t// in\n    tag_415:\n        /* \"#utility.yul\":2046:2109   */\n      swap3\n      pop\n        /* \"#utility.yul\":2001:2119   */\n      pop\n        /* \"#utility.yul\":2186:2188   */\n      0x40\n        /* \"#utility.yul\":2175:2184   */\n      dup5\n        /* \"#utility.yul\":2171:2189   */\n      add\n        /* \"#utility.yul\":2158:2190   */\n      calldataload\n        /* \"#utility.yul\":2217:2235   */\n      0xffffffffffffffff\n        /* \"#utility.yul\":2209:2215   */\n      dup2\n        /* \"#utility.yul\":2206:2236   */\n      gt\n        /* \"#utility.yul\":2203:2320   */\n      iszero\n      tag_416\n      jumpi\n        /* \"#utility.yul\":2239:2318   */\n      tag_417\n      tag_407\n      jump\t// in\n    tag_417:\n        /* \"#utility.yul\":2203:2320   */\n    tag_416:\n        /* \"#utility.yul\":2344:2407   */\n      tag_418\n        /* \"#utility.yul\":2399:2406   */\n      dup7\n        /* \"#utility.yul\":2390:2396   */\n      dup3\n        /* \"#utility.yul\":2379:2388   */\n      dup8\n        /* \"#utility.yul\":2375:2397   */\n      add\n        /* \"#utility.yul\":2344:2407   */\n      tag_391\n      jump\t// in\n    tag_418:\n        /* \"#utility.yul\":2334:2407   */\n      swap2\n      pop\n        /* \"#utility.yul\":2129:2417   */\n      pop\n        /* \"#utility.yul\":1445:2424   */\n      swap3\n      pop\n      swap3\n      pop\n      swap3\n      jump\t// out\n        /* \"#utility.yul\":2430:2759   */\n    tag_31:\n        /* \"#utility.yul\":2489:2495   */\n      0x00\n        /* \"#utility.yul\":2538:2540   */\n      0x20\n        /* \"#utility.yul\":2526:2535   */\n      dup3\n        /* \"#utility.yul\":2517:2524   */\n      dup5\n        /* \"#utility.yul\":2513:2536   */\n      sub\n        /* \"#utility.yul\":2509:2541   */\n      slt\n        /* \"#utility.yul\":2506:2625   */\n      iszero\n      tag_420\n      jumpi\n        /* \"#utility.yul\":2544:2623   */\n      tag_421\n      tag_404\n      jump\t// in\n    tag_421:\n        /* \"#utility.yul\":2506:2625   */\n    tag_420:\n        /* \"#utility.yul\":2664:2665   */\n      0x00\n        /* \"#utility.yul\":2689:2742   */\n      tag_422\n        /* \"#utility.yul\":2734:2741   */\n      dup5\n        /* \"#utility.yul\":2725:2731   */\n      dup3\n        /* \"#utility.yul\":2714:2723   */\n      dup6\n        /* \"#utility.yul\":2710:2732   */\n      add\n        /* \"#utility.yul\":2689:2742   */\n      tag_397\n      jump\t// in\n    tag_422:\n        /* \"#utility.yul\":2679:2742   */\n      swap2\n      pop\n        /* \"#utility.yul\":2635:2752   */\n      pop\n        /* \"#utility.yul\":2430:2759   */\n      swap3\n      swap2\n      pop\n      pop\n      jump\t// out\n        /* \"#utility.yul\":2765:3239   */\n    tag_103:\n        /* \"#utility.yul\":2833:2839   */\n      0x00\n        /* \"#utility.yul\":2841:2847   */\n      dup1\n        /* \"#utility.yul\":2890:2892   */\n      0x40\n        /* \"#utility.yul\":2878:2887   */\n      dup4\n        /* \"#utility.yul\":2869:2876   */\n      dup6\n        /* \"#utility.yul\":2865:2888   */\n      sub\n        /* \"#utility.yul\":2861:2893   */\n      slt\n        /* \"#utility.yul\":2858:2977   */\n      iszero\n      tag_424\n      jumpi\n        /* \"#utility.yul\":2896:2975   */\n      tag_425\n      tag_404\n      jump\t// in\n    tag_425:\n        /* \"#utility.yul\":2858:2977   */\n    tag_424:\n        /* \"#utility.yul\":3016:3017   */\n      0x00\n        /* \"#utility.yul\":3041:3094   */\n      tag_426\n        /* \"#utility.yul\":3086:3093   */\n      dup6\n        /* \"#utility.yul\":3077:3083   */\n      dup3\n        /* \"#utility.yul\":3066:3075   */\n      dup7\n        /* \"#utility.yul\":3062:3084   */\n      add\n        /* \"#utility.yul\":3041:3094   */\n      tag_397\n      jump\t// in\n    tag_426:\n        /* \"#utility.yul\":3031:3094   */\n      swap3\n      pop\n        /* \"#utility.yul\":2987:3104   */\n      pop\n        /* \"#utility.yul\":3143:3145   */\n      0x20\n        /* \"#utility.yul\":3169:3222   */\n      tag_427\n        /* \"#utility.yul\":3214:3221   */\n      dup6\n        /* \"#utility.yul\":3205:3211   */\n      dup3\n        /* \"#utility.yul\":3194:3203   */\n      dup7\n        /* \"#utility.yul\":3190:3212   */\n      add\n        /* \"#utility.yul\":3169:3222   */\n      tag_397\n      jump\t// in\n    tag_427:\n        /* \"#utility.yul\":3159:3222   */\n      swap2\n      pop\n        /* \"#utility.yul\":3114:3232   */\n      pop\n        /* \"#utility.yul\":2765:3239   */\n      swap3\n      pop\n      swap3\n      swap1\n      pop\n      jump\t// out\n        /* \"#utility.yul\":3245:3864   */\n    tag_74:\n        /* \"#utility.yul\":3322:3328   */\n      0x00\n        /* \"#utility.yul\":3330:3336   */\n      dup1\n        /* \"#utility.yul\":3338:3344   */\n      0x00\n        /* \"#utility.yul\":3387:3389   */\n      0x60\n        /* \"#utility.yul\":3375:3384   */\n      dup5\n        /* \"#utility.yul\":3366:3373   */\n      dup7\n        /* \"#utility.yul\":3362:3385   */\n      sub\n        /* \"#utility.yul\":3358:3390   */\n      slt\n        /* \"#utility.yul\":3355:3474   */\n      iszero\n      tag_429\n      jumpi\n        /* \"#utility.yul\":3393:3472   */\n      tag_430\n      tag_404\n      jump\t// in\n    tag_430:\n        /* \"#utility.yul\":3355:3474   */\n    tag_429:\n        /* \"#utility.yul\":3513:3514   */\n      0x00\n        /* \"#utility.yul\":3538:3591   */\n      tag_431\n        /* \"#utility.yul\":3583:3590   */\n      dup7\n        /* \"#utility.yul\":3574:3580   */\n      dup3\n        /* \"#utility.yul\":3563:3572   */\n      dup8\n        /* \"#utility.yul\":3559:3581   */\n      add\n        /* \"#utility.yul\":3538:3591   */\n      tag_397\n      jump\t// in\n    tag_431:\n        /* \"#utility.yul\":3528:3591   */\n      swap4\n      pop\n        /* \"#utility.yul\":3484:3601   */\n      pop\n        /* \"#utility.yul\":3640:3642   */\n      0x20\n        /* \"#utility.yul\":3666:3719   */\n      tag_432\n        /* \"#utility.yul\":3711:3718   */\n      dup7\n        /* \"#utility.yul\":3702:3708   */\n      dup3\n        /* \"#utility.yul\":3691:3700   */\n      dup8\n        /* \"#utility.yul\":3687:3709   */\n      add\n        /* \"#utility.yul\":3666:3719   */\n      tag_397\n      jump\t// in\n    tag_432:\n        /* \"#utility.yul\":3656:3719   */\n      swap3\n      pop\n        /* \"#utility.yul\":3611:3729   */\n      pop\n        /* \"#utility.yul\":3768:3770   */\n      0x40\n        /* \"#utility.yul\":3794:3847   */\n      tag_433\n        /* \"#utility.yul\":3839:3846   */\n      dup7\n        /* \"#utility.yul\":3830:3836   */\n      dup3\n        /* \"#utility.yul\":3819:3828   */\n      dup8\n        /* \"#utility.yul\":3815:3837   */\n      add\n        /* \"#utility.yul\":3794:3847   */\n      tag_397\n      jump\t// in\n    tag_433:\n        /* \"#utility.yul\":3784:3847   */\n      swap2\n      pop\n        /* \"#utility.yul\":3739:3857   */\n      pop\n        /* \"#utility.yul\":3245:3864   */\n      swap3\n      pop\n      swap3\n      pop\n      swap3\n      jump\t// out\n        /* \"#utility.yul\":3870:4049   */\n    tag_434:\n        /* \"#utility.yul\":3939:3949   */\n      0x00\n        /* \"#utility.yul\":3960:4006   */\n      tag_436\n        /* \"#utility.yul\":4002:4005   */\n      dup4\n        /* \"#utility.yul\":3994:4000   */\n      dup4\n        /* \"#utility.yul\":3960:4006   */\n      tag_437\n      jump\t// in\n    tag_436:\n        /* \"#utility.yul\":4038:4042   */\n      0x20\n        /* \"#utility.yul\":4033:4036   */\n      dup4\n        /* \"#utility.yul\":4029:4043   */\n      add\n        /* \"#utility.yul\":4015:4043   */\n      swap1\n      pop\n        /* \"#utility.yul\":3870:4049   */\n      swap3\n      swap2\n      pop\n      pop\n      jump\t// out\n        /* \"#utility.yul\":4085:4797   */\n    tag_438:\n        /* \"#utility.yul\":4194:4197   */\n      0x00\n        /* \"#utility.yul\":4223:4277   */\n      tag_440\n        /* \"#utility.yul\":4271:4276   */\n      dup3\n        /* \"#utility.yul\":4223:4277   */\n      tag_441\n      jump\t// in\n    tag_440:\n        /* \"#utility.yul\":4293:4369   */\n      tag_442\n        /* \"#utility.yul\":4362:4368   */\n      dup2\n        /* \"#utility.yul\":4357:4360   */\n      dup6\n        /* \"#utility.yul\":4293:4369   */\n      tag_443\n      jump\t// in\n    tag_442:\n        /* \"#utility.yul\":4286:4369   */\n      swap4\n      pop\n        /* \"#utility.yul\":4393:4449   */\n      tag_444\n        /* \"#utility.yul\":4443:4448   */\n      dup4\n        /* \"#utility.yul\":4393:4449   */\n      tag_445\n      jump\t// in\n    tag_444:\n        /* \"#utility.yul\":4472:4479   */\n      dup1\n        /* \"#utility.yul\":4503:4504   */\n      0x00\n        /* \"#utility.yul\":4488:4772   */\n    tag_446:\n        /* \"#utility.yul\":4513:4519   */\n      dup4\n        /* \"#utility.yul\":4510:4511   */\n      dup2\n        /* \"#utility.yul\":4507:4520   */\n      lt\n        /* \"#utility.yul\":4488:4772   */\n      iszero\n      tag_448\n      jumpi\n        /* \"#utility.yul\":4589:4595   */\n      dup2\n        /* \"#utility.yul\":4583:4596   */\n      mload\n        /* \"#utility.yul\":4616:4679   */\n      tag_449\n        /* \"#utility.yul\":4675:4678   */\n      dup9\n        /* \"#utility.yul\":4660:4673   */\n      dup3\n        /* \"#utility.yul\":4616:4679   */\n      tag_434\n      jump\t// in\n    tag_449:\n        /* \"#utility.yul\":4609:4679   */\n      swap8\n      pop\n        /* \"#utility.yul\":4702:4762   */\n      tag_450\n        /* \"#utility.yul\":4755:4761   */\n      dup4\n        /* \"#utility.yul\":4702:4762   */\n      tag_451\n      jump\t// in\n    tag_450:\n        /* \"#utility.yul\":4692:4762   */\n      swap3\n      pop\n        /* \"#utility.yul\":4548:4772   */\n      pop\n        /* \"#utility.yul\":4535:4536   */\n      0x01\n        /* \"#utility.yul\":4532:4533   */\n      dup2\n        /* \"#utility.yul\":4528:4537   */\n      add\n        /* \"#utility.yul\":4523:4537   */\n      swap1\n      pop\n        /* \"#utility.yul\":4488:4772   */\n      jump(tag_446)\n    tag_448:\n        /* \"#utility.yul\":4492:4506   */\n      pop\n        /* \"#utility.yul\":4788:4791   */\n      dup6\n        /* \"#utility.yul\":4781:4791   */\n      swap4\n      pop\n        /* \"#utility.yul\":4199:4797   */\n      pop\n      pop\n      pop\n        /* \"#utility.yul\":4085:4797   */\n      swap3\n      swap2\n      pop\n      pop\n      jump\t// out\n        /* \"#utility.yul\":4803:5147   */\n    tag_452:\n        /* \"#utility.yul\":4881:4884   */\n      0x00\n        /* \"#utility.yul\":4909:4948   */\n      tag_454\n        /* \"#utility.yul\":4942:4947   */\n      dup3\n        /* \"#utility.yul\":4909:4948   */\n      tag_455\n      jump\t// in\n    tag_454:\n        /* \"#utility.yul\":4964:5025   */\n      tag_456\n        /* \"#utility.yul\":5018:5024   */\n      dup2\n        /* \"#utility.yul\":5013:5016   */\n      dup6\n        /* \"#utility.yul\":4964:5025   */\n      tag_457\n      jump\t// in\n    tag_456:\n        /* \"#utility.yul\":4957:5025   */\n      swap4\n      pop\n        /* \"#utility.yul\":5034:5086   */\n      tag_458\n        /* \"#utility.yul\":5079:5085   */\n      dup2\n        /* \"#utility.yul\":5074:5077   */\n      dup6\n        /* \"#utility.yul\":5067:5071   */\n      0x20\n        /* \"#utility.yul\":5060:5065   */\n      dup7\n        /* \"#utility.yul\":5056:5072   */\n      add\n        /* \"#utility.yul\":5034:5086   */\n      tag_459\n      jump\t// in\n    tag_458:\n        /* \"#utility.yul\":5111:5140   */\n      tag_460\n        /* \"#utility.yul\":5133:5139   */\n      dup2\n        /* \"#utility.yul\":5111:5140   */\n      tag_461\n      jump\t// in\n    tag_460:\n        /* \"#utility.yul\":5106:5109   */\n      dup5\n        /* \"#utility.yul\":5102:5141   */\n      add\n        /* \"#utility.yul\":5095:5141   */\n      swap2\n      pop\n        /* \"#utility.yul\":4885:5147   */\n      pop\n        /* \"#utility.yul\":4803:5147   */\n      swap3\n      swap2\n      pop\n      pop\n      jump\t// out\n        /* \"#utility.yul\":5153:5517   */\n    tag_462:\n        /* \"#utility.yul\":5241:5244   */\n      0x00\n        /* \"#utility.yul\":5269:5308   */\n      tag_464\n        /* \"#utility.yul\":5302:5307   */\n      dup3\n        /* \"#utility.yul\":5269:5308   */\n      tag_455\n      jump\t// in\n    tag_464:\n        /* \"#utility.yul\":5324:5395   */\n      tag_465\n        /* \"#utility.yul\":5388:5394   */\n      dup2\n        /* \"#utility.yul\":5383:5386   */\n      dup6\n        /* \"#utility.yul\":5324:5395   */\n      tag_466\n      jump\t// in\n    tag_465:\n        /* \"#utility.yul\":5317:5395   */\n      swap4\n      pop\n        /* \"#utility.yul\":5404:5456   */\n      tag_467\n        /* \"#utility.yul\":5449:5455   */\n      dup2\n        /* \"#utility.yul\":5444:5447   */\n      dup6\n        /* \"#utility.yul\":5437:5441   */\n      0x20\n        /* \"#utility.yul\":5430:5435   */\n      dup7\n        /* \"#utility.yul\":5426:5442   */\n      add\n        /* \"#utility.yul\":5404:5456   */\n      tag_459\n      jump\t// in\n    tag_467:\n        /* \"#utility.yul\":5481:5510   */\n      tag_468\n        /* \"#utility.yul\":5503:5509   */\n      dup2\n        /* \"#utility.yul\":5481:5510   */\n      tag_461\n      jump\t// in\n    tag_468:\n        /* \"#utility.yul\":5476:5479   */\n      dup5\n        /* \"#utility.yul\":5472:5511   */\n      add\n        /* \"#utility.yul\":5465:5511   */\n      swap2\n      pop\n        /* \"#utility.yul\":5245:5517   */\n      pop\n        /* \"#utility.yul\":5153:5517   */\n      swap3\n      swap2\n      pop\n      pop\n      jump\t// out\n        /* \"#utility.yul\":5523:5889   */\n    tag_469:\n        /* \"#utility.yul\":5665:5668   */\n      0x00\n        /* \"#utility.yul\":5686:5753   */\n      tag_471\n        /* \"#utility.yul\":5750:5752   */\n      0x34\n        /* \"#utility.yul\":5745:5748   */\n      dup4\n        /* \"#utility.yul\":5686:5753   */\n      tag_466\n      jump\t// in\n    tag_471:\n        /* \"#utility.yul\":5679:5753   */\n      swap2\n      pop\n        /* \"#utility.yul\":5762:5855   */\n      tag_472\n        /* \"#utility.yul\":5851:5854   */\n      dup3\n        /* \"#utility.yul\":5762:5855   */\n      tag_473\n      jump\t// in\n    tag_472:\n        /* \"#utility.yul\":5880:5882   */\n      0x40\n        /* \"#utility.yul\":5875:5878   */\n      dup3\n        /* \"#utility.yul\":5871:5883   */\n      add\n        /* \"#utility.yul\":5864:5883   */\n      swap1\n      pop\n        /* \"#utility.yul\":5523:5889   */\n      swap2\n      swap1\n      pop\n      jump\t// out\n        /* \"#utility.yul\":5895:6261   */\n    tag_474:\n        /* \"#utility.yul\":6037:6040   */\n      0x00\n        /* \"#utility.yul\":6058:6125   */\n      tag_476\n        /* \"#utility.yul\":6122:6124   */\n      0x33\n        /* \"#utility.yul\":6117:6120   */\n      dup4\n        /* \"#utility.yul\":6058:6125   */\n      tag_466\n      jump\t// in\n    tag_476:\n        /* \"#utility.yul\":6051:6125   */\n      swap2\n      pop\n        /* \"#utility.yul\":6134:6227   */\n      tag_477\n        /* \"#utility.yul\":6223:6226   */\n      dup3\n        /* \"#utility.yul\":6134:6227   */\n      tag_478\n      jump\t// in\n    tag_477:\n        /* \"#utility.yul\":6252:6254   */\n      0x40\n        /* \"#utility.yul\":6247:6250   */\n      dup3\n        /* \"#utility.yul\":6243:6255   */\n      add\n        /* \"#utility.yul\":6236:6255   */\n      swap1\n      pop\n        /* \"#utility.yul\":5895:6261   */\n      swap2\n      swap1\n      pop\n      jump\t// out\n        /* \"#utility.yul\":6267:6633   */\n    tag_479:\n        /* \"#utility.yul\":6409:6412   */\n      0x00\n        /* \"#utility.yul\":6430:6497   */\n      tag_481\n        /* \"#utility.yul\":6494:6496   */\n      0x30\n        /* \"#utility.yul\":6489:6492   */\n      dup4\n        /* \"#utility.yul\":6430:6497   */\n      tag_466\n      jump\t// in\n    tag_481:\n        /* \"#utility.yul\":6423:6497   */\n      swap2\n      pop\n        /* \"#utility.yul\":6506:6599   */\n      tag_482\n        /* \"#utility.yul\":6595:6598   */\n      dup3\n        /* \"#utility.yul\":6506:6599   */\n      tag_483\n      jump\t// in\n    tag_482:\n        /* \"#utility.yul\":6624:6626   */\n      0x40\n        /* \"#utility.yul\":6619:6622   */\n      dup3\n        /* \"#utility.yul\":6615:6627   */\n      add\n        /* \"#utility.yul\":6608:6627   */\n      swap1\n      pop\n        /* \"#utility.yul\":6267:6633   */\n      swap2\n      swap1\n      pop\n      jump\t// out\n        /* \"#utility.yul\":6709:8037   */\n    tag_484:\n        /* \"#utility.yul\":6832:6835   */\n      0x00\n        /* \"#utility.yul\":6868:6872   */\n      0xa0\n        /* \"#utility.yul\":6863:6866   */\n      dup4\n        /* \"#utility.yul\":6859:6873   */\n      add\n        /* \"#utility.yul\":6964:6968   */\n      0x00\n        /* \"#utility.yul\":6957:6962   */\n      dup4\n        /* \"#utility.yul\":6953:6969   */\n      add\n        /* \"#utility.yul\":6947:6970   */\n      mload\n        /* \"#utility.yul\":6983:7046   */\n      tag_486\n        /* \"#utility.yul\":7040:7044   */\n      0x00\n        /* \"#utility.yul\":7035:7038   */\n      dup7\n        /* \"#utility.yul\":7031:7045   */\n      add\n        /* \"#utility.yul\":7017:7029   */\n      dup3\n        /* \"#utility.yul\":6983:7046   */\n      tag_437\n      jump\t// in\n    tag_486:\n        /* \"#utility.yul\":6883:7056   */\n      pop\n        /* \"#utility.yul\":7138:7142   */\n      0x20\n        /* \"#utility.yul\":7131:7136   */\n      dup4\n        /* \"#utility.yul\":7127:7143   */\n      add\n        /* \"#utility.yul\":7121:7144   */\n      mload\n        /* \"#utility.yul\":7191:7194   */\n      dup5\n        /* \"#utility.yul\":7185:7189   */\n      dup3\n        /* \"#utility.yul\":7181:7195   */\n      sub\n        /* \"#utility.yul\":7174:7178   */\n      0x20\n        /* \"#utility.yul\":7169:7172   */\n      dup7\n        /* \"#utility.yul\":7165:7179   */\n      add\n        /* \"#utility.yul\":7158:7196   */\n      mstore\n        /* \"#utility.yul\":7217:7290   */\n      tag_487\n        /* \"#utility.yul\":7285:7289   */\n      dup3\n        /* \"#utility.yul\":7271:7283   */\n      dup3\n        /* \"#utility.yul\":7217:7290   */\n      tag_452\n      jump\t// in\n    tag_487:\n        /* \"#utility.yul\":7209:7290   */\n      swap2\n      pop\n        /* \"#utility.yul\":7066:7301   */\n      pop\n        /* \"#utility.yul\":7383:7387   */\n      0x40\n        /* \"#utility.yul\":7376:7381   */\n      dup4\n        /* \"#utility.yul\":7372:7388   */\n      add\n        /* \"#utility.yul\":7366:7389   */\n      mload\n        /* \"#utility.yul\":7436:7439   */\n      dup5\n        /* \"#utility.yul\":7430:7434   */\n      dup3\n        /* \"#utility.yul\":7426:7440   */\n      sub\n        /* \"#utility.yul\":7419:7423   */\n      0x40\n        /* \"#utility.yul\":7414:7417   */\n      dup7\n        /* \"#utility.yul\":7410:7424   */\n      add\n        /* \"#utility.yul\":7403:7441   */\n      mstore\n        /* \"#utility.yul\":7462:7535   */\n      tag_488\n        /* \"#utility.yul\":7530:7534   */\n      dup3\n        /* \"#utility.yul\":7516:7528   */\n      dup3\n        /* \"#utility.yul\":7462:7535   */\n      tag_452\n      jump\t// in\n    tag_488:\n        /* \"#utility.yul\":7454:7535   */\n      swap2\n      pop\n        /* \"#utility.yul\":7311:7546   */\n      pop\n        /* \"#utility.yul\":7636:7640   */\n      0x60\n        /* \"#utility.yul\":7629:7634   */\n      dup4\n        /* \"#utility.yul\":7625:7641   */\n      add\n        /* \"#utility.yul\":7619:7642   */\n      mload\n        /* \"#utility.yul\":7655:7718   */\n      tag_489\n        /* \"#utility.yul\":7712:7716   */\n      0x60\n        /* \"#utility.yul\":7707:7710   */\n      dup7\n        /* \"#utility.yul\":7703:7717   */\n      add\n        /* \"#utility.yul\":7689:7701   */\n      dup3\n        /* \"#utility.yul\":7655:7718   */\n      tag_437\n      jump\t// in\n    tag_489:\n        /* \"#utility.yul\":7556:7728   */\n      pop\n        /* \"#utility.yul\":7817:7821   */\n      0x80\n        /* \"#utility.yul\":7810:7815   */\n      dup4\n        /* \"#utility.yul\":7806:7822   */\n      add\n        /* \"#utility.yul\":7800:7823   */\n      mload\n        /* \"#utility.yul\":7870:7873   */\n      dup5\n        /* \"#utility.yul\":7864:7868   */\n      dup3\n        /* \"#utility.yul\":7860:7874   */\n      sub\n        /* \"#utility.yul\":7853:7857   */\n      0x80\n        /* \"#utility.yul\":7848:7851   */\n      dup7\n        /* \"#utility.yul\":7844:7858   */\n      add\n        /* \"#utility.yul\":7837:7875   */\n      mstore\n        /* \"#utility.yul\":7896:7999   */\n      tag_490\n        /* \"#utility.yul\":7994:7998   */\n      dup3\n        /* \"#utility.yul\":7980:7992   */\n      dup3\n        /* \"#utility.yul\":7896:7999   */\n      tag_438\n      jump\t// in\n    tag_490:\n        /* \"#utility.yul\":7888:7999   */\n      swap2\n      pop\n        /* \"#utility.yul\":7738:8010   */\n      pop\n        /* \"#utility.yul\":8027:8031   */\n      dup1\n        /* \"#utility.yul\":8020:8031   */\n      swap2\n      pop\n        /* \"#utility.yul\":6837:8037   */\n      pop\n        /* \"#utility.yul\":6709:8037   */\n      swap3\n      swap2\n      pop\n      pop\n      jump\t// out\n        /* \"#utility.yul\":8115:9446   */\n    tag_491:\n        /* \"#utility.yul\":8240:8243   */\n      0x00\n        /* \"#utility.yul\":8276:8280   */\n      0xa0\n        /* \"#utility.yul\":8271:8274   */\n      dup4\n        /* \"#utility.yul\":8267:8281   */\n      add\n        /* \"#utility.yul\":8373:8377   */\n      0x00\n        /* \"#utility.yul\":8366:8371   */\n      dup4\n        /* \"#utility.yul\":8362:8378   */\n      add\n        /* \"#utility.yul\":8356:8379   */\n      mload\n        /* \"#utility.yul\":8392:8455   */\n      tag_493\n        /* \"#utility.yul\":8449:8453   */\n      0x00\n        /* \"#utility.yul\":8444:8447   */\n      dup7\n        /* \"#utility.yul\":8440:8454   */\n      add\n        /* \"#utility.yul\":8426:8438   */\n      dup3\n        /* \"#utility.yul\":8392:8455   */\n      tag_437\n      jump\t// in\n    tag_493:\n        /* \"#utility.yul\":8291:8465   */\n      pop\n        /* \"#utility.yul\":8547:8551   */\n      0x20\n        /* \"#utility.yul\":8540:8545   */\n      dup4\n        /* \"#utility.yul\":8536:8552   */\n      add\n        /* \"#utility.yul\":8530:8553   */\n      mload\n        /* \"#utility.yul\":8600:8603   */\n      dup5\n        /* \"#utility.yul\":8594:8598   */\n      dup3\n        /* \"#utility.yul\":8590:8604   */\n      sub\n        /* \"#utility.yul\":8583:8587   */\n      0x20\n        /* \"#utility.yul\":8578:8581   */\n      dup7\n        /* \"#utility.yul\":8574:8588   */\n      add\n        /* \"#utility.yul\":8567:8605   */\n      mstore\n        /* \"#utility.yul\":8626:8699   */\n      tag_494\n        /* \"#utility.yul\":8694:8698   */\n      dup3\n        /* \"#utility.yul\":8680:8692   */\n      dup3\n        /* \"#utility.yul\":8626:8699   */\n      tag_452\n      jump\t// in\n    tag_494:\n        /* \"#utility.yul\":8618:8699   */\n      swap2\n      pop\n        /* \"#utility.yul\":8475:8710   */\n      pop\n        /* \"#utility.yul\":8792:8796   */\n      0x40\n        /* \"#utility.yul\":8785:8790   */\n      dup4\n        /* \"#utility.yul\":8781:8797   */\n      add\n        /* \"#utility.yul\":8775:8798   */\n      mload\n        /* \"#utility.yul\":8845:8848   */\n      dup5\n        /* \"#utility.yul\":8839:8843   */\n      dup3\n        /* \"#utility.yul\":8835:8849   */\n      sub\n        /* \"#utility.yul\":8828:8832   */\n      0x40\n        /* \"#utility.yul\":8823:8826   */\n      dup7\n        /* \"#utility.yul\":8819:8833   */\n      add\n        /* \"#utility.yul\":8812:8850   */\n      mstore\n        /* \"#utility.yul\":8871:8944   */\n      tag_495\n        /* \"#utility.yul\":8939:8943   */\n      dup3\n        /* \"#utility.yul\":8925:8937   */\n      dup3\n        /* \"#utility.yul\":8871:8944   */\n      tag_452\n      jump\t// in\n    tag_495:\n        /* \"#utility.yul\":8863:8944   */\n      swap2\n      pop\n        /* \"#utility.yul\":8720:8955   */\n      pop\n        /* \"#utility.yul\":9045:9049   */\n      0x60\n        /* \"#utility.yul\":9038:9043   */\n      dup4\n        /* \"#utility.yul\":9034:9050   */\n      add\n        /* \"#utility.yul\":9028:9051   */\n      mload\n        /* \"#utility.yul\":9064:9127   */\n      tag_496\n        /* \"#utility.yul\":9121:9125   */\n      0x60\n        /* \"#utility.yul\":9116:9119   */\n      dup7\n        /* \"#utility.yul\":9112:9126   */\n      add\n        /* \"#utility.yul\":9098:9110   */\n      dup3\n        /* \"#utility.yul\":9064:9127   */\n      tag_437\n      jump\t// in\n    tag_496:\n        /* \"#utility.yul\":8965:9137   */\n      pop\n        /* \"#utility.yul\":9226:9230   */\n      0x80\n        /* \"#utility.yul\":9219:9224   */\n      dup4\n        /* \"#utility.yul\":9215:9231   */\n      add\n        /* \"#utility.yul\":9209:9232   */\n      mload\n        /* \"#utility.yul\":9279:9282   */\n      dup5\n        /* \"#utility.yul\":9273:9277   */\n      dup3\n        /* \"#utility.yul\":9269:9283   */\n      sub\n        /* \"#utility.yul\":9262:9266   */\n      0x80\n        /* \"#utility.yul\":9257:9260   */\n      dup7\n        /* \"#utility.yul\":9253:9267   */\n      add\n        /* \"#utility.yul\":9246:9284   */\n      mstore\n        /* \"#utility.yul\":9305:9408   */\n      tag_497\n        /* \"#utility.yul\":9403:9407   */\n      dup3\n        /* \"#utility.yul\":9389:9401   */\n      dup3\n        /* \"#utility.yul\":9305:9408   */\n      tag_438\n      jump\t// in\n    tag_497:\n        /* \"#utility.yul\":9297:9408   */\n      swap2\n      pop\n        /* \"#utility.yul\":9147:9419   */\n      pop\n        /* \"#utility.yul\":9436:9440   */\n      dup1\n        /* \"#utility.yul\":9429:9440   */\n      swap2\n      pop\n        /* \"#utility.yul\":8245:9446   */\n      pop\n        /* \"#utility.yul\":8115:9446   */\n      swap3\n      swap2\n      pop\n      pop\n      jump\t// out\n        /* \"#utility.yul\":9514:11444   */\n    tag_498:\n        /* \"#utility.yul\":9629:9632   */\n      0x00\n        /* \"#utility.yul\":9665:9671   */\n      0x0100\n        /* \"#utility.yul\":9660:9663   */\n      dup4\n        /* \"#utility.yul\":9656:9672   */\n      add\n        /* \"#utility.yul\":9759:9763   */\n      0x00\n        /* \"#utility.yul\":9752:9757   */\n      dup4\n        /* \"#utility.yul\":9748:9764   */\n      add\n        /* \"#utility.yul\":9742:9765   */\n      mload\n        /* \"#utility.yul\":9778:9841   */\n      tag_500\n        /* \"#utility.yul\":9835:9839   */\n      0x00\n        /* \"#utility.yul\":9830:9833   */\n      dup7\n        /* \"#utility.yul\":9826:9840   */\n      add\n        /* \"#utility.yul\":9812:9824   */\n      dup3\n        /* \"#utility.yul\":9778:9841   */\n      tag_437\n      jump\t// in\n    tag_500:\n        /* \"#utility.yul\":9682:9851   */\n      pop\n        /* \"#utility.yul\":9933:9937   */\n      0x20\n        /* \"#utility.yul\":9926:9931   */\n      dup4\n        /* \"#utility.yul\":9922:9938   */\n      add\n        /* \"#utility.yul\":9916:9939   */\n      mload\n        /* \"#utility.yul\":9986:9989   */\n      dup5\n        /* \"#utility.yul\":9980:9984   */\n      dup3\n        /* \"#utility.yul\":9976:9990   */\n      sub\n        /* \"#utility.yul\":9969:9973   */\n      0x20\n        /* \"#utility.yul\":9964:9967   */\n      dup7\n        /* \"#utility.yul\":9960:9974   */\n      add\n        /* \"#utility.yul\":9953:9991   */\n      mstore\n        /* \"#utility.yul\":10012:10085   */\n      tag_501\n        /* \"#utility.yul\":10080:10084   */\n      dup3\n        /* \"#utility.yul\":10066:10078   */\n      dup3\n        /* \"#utility.yul\":10012:10085   */\n      tag_452\n      jump\t// in\n    tag_501:\n        /* \"#utility.yul\":10004:10085   */\n      swap2\n      pop\n        /* \"#utility.yul\":9861:10096   */\n      pop\n        /* \"#utility.yul\":10179:10183   */\n      0x40\n        /* \"#utility.yul\":10172:10177   */\n      dup4\n        /* \"#utility.yul\":10168:10184   */\n      add\n        /* \"#utility.yul\":10162:10185   */\n      mload\n        /* \"#utility.yul\":10198:10261   */\n      tag_502\n        /* \"#utility.yul\":10255:10259   */\n      0x40\n        /* \"#utility.yul\":10250:10253   */\n      dup7\n        /* \"#utility.yul\":10246:10260   */\n      add\n        /* \"#utility.yul\":10232:10244   */\n      dup3\n        /* \"#utility.yul\":10198:10261   */\n      tag_437\n      jump\t// in\n    tag_502:\n        /* \"#utility.yul\":10106:10271   */\n      pop\n        /* \"#utility.yul\":10360:10364   */\n      0x60\n        /* \"#utility.yul\":10353:10358   */\n      dup4\n        /* \"#utility.yul\":10349:10365   */\n      add\n        /* \"#utility.yul\":10343:10366   */\n      mload\n        /* \"#utility.yul\":10413:10416   */\n      dup5\n        /* \"#utility.yul\":10407:10411   */\n      dup3\n        /* \"#utility.yul\":10403:10417   */\n      sub\n        /* \"#utility.yul\":10396:10400   */\n      0x60\n        /* \"#utility.yul\":10391:10394   */\n      dup7\n        /* \"#utility.yul\":10387:10401   */\n      add\n        /* \"#utility.yul\":10380:10418   */\n      mstore\n        /* \"#utility.yul\":10439:10512   */\n      tag_503\n        /* \"#utility.yul\":10507:10511   */\n      dup3\n        /* \"#utility.yul\":10493:10505   */\n      dup3\n        /* \"#utility.yul\":10439:10512   */\n      tag_452\n      jump\t// in\n    tag_503:\n        /* \"#utility.yul\":10431:10512   */\n      swap2\n      pop\n        /* \"#utility.yul\":10281:10523   */\n      pop\n        /* \"#utility.yul\":10611:10615   */\n      0x80\n        /* \"#utility.yul\":10604:10609   */\n      dup4\n        /* \"#utility.yul\":10600:10616   */\n      add\n        /* \"#utility.yul\":10594:10617   */\n      mload\n        /* \"#utility.yul\":10664:10667   */\n      dup5\n        /* \"#utility.yul\":10658:10662   */\n      dup3\n        /* \"#utility.yul\":10654:10668   */\n      sub\n        /* \"#utility.yul\":10647:10651   */\n      0x80\n        /* \"#utility.yul\":10642:10645   */\n      dup7\n        /* \"#utility.yul\":10638:10652   */\n      add\n        /* \"#utility.yul\":10631:10669   */\n      mstore\n        /* \"#utility.yul\":10690:10793   */\n      tag_504\n        /* \"#utility.yul\":10788:10792   */\n      dup3\n        /* \"#utility.yul\":10774:10786   */\n      dup3\n        /* \"#utility.yul\":10690:10793   */\n      tag_438\n      jump\t// in\n    tag_504:\n        /* \"#utility.yul\":10682:10793   */\n      swap2\n      pop\n        /* \"#utility.yul\":10533:10804   */\n      pop\n        /* \"#utility.yul\":10896:10900   */\n      0xa0\n        /* \"#utility.yul\":10889:10894   */\n      dup4\n        /* \"#utility.yul\":10885:10901   */\n      add\n        /* \"#utility.yul\":10879:10902   */\n      mload\n        /* \"#utility.yul\":10915:10978   */\n      tag_505\n        /* \"#utility.yul\":10972:10976   */\n      0xa0\n        /* \"#utility.yul\":10967:10970   */\n      dup7\n        /* \"#utility.yul\":10963:10977   */\n      add\n        /* \"#utility.yul\":10949:10961   */\n      dup3\n        /* \"#utility.yul\":10915:10978   */\n      tag_437\n      jump\t// in\n    tag_505:\n        /* \"#utility.yul\":10814:10988   */\n      pop\n        /* \"#utility.yul\":11074:11078   */\n      0xc0\n        /* \"#utility.yul\":11067:11072   */\n      dup4\n        /* \"#utility.yul\":11063:11079   */\n      add\n        /* \"#utility.yul\":11057:11080   */\n      mload\n        /* \"#utility.yul\":11127:11130   */\n      dup5\n        /* \"#utility.yul\":11121:11125   */\n      dup3\n        /* \"#utility.yul\":11117:11131   */\n      sub\n        /* \"#utility.yul\":11110:11114   */\n      0xc0\n        /* \"#utility.yul\":11105:11108   */\n      dup7\n        /* \"#utility.yul\":11101:11115   */\n      add\n        /* \"#utility.yul\":11094:11132   */\n      mstore\n        /* \"#utility.yul\":11153:11226   */\n      tag_506\n        /* \"#utility.yul\":11221:11225   */\n      dup3\n        /* \"#utility.yul\":11207:11219   */\n      dup3\n        /* \"#utility.yul\":11153:11226   */\n      tag_452\n      jump\t// in\n    tag_506:\n        /* \"#utility.yul\":11145:11226   */\n      swap2\n      pop\n        /* \"#utility.yul\":10998:11237   */\n      pop\n        /* \"#utility.yul\":11325:11329   */\n      0xe0\n        /* \"#utility.yul\":11318:11323   */\n      dup4\n        /* \"#utility.yul\":11314:11330   */\n      add\n        /* \"#utility.yul\":11308:11331   */\n      mload\n        /* \"#utility.yul\":11344:11407   */\n      tag_507\n        /* \"#utility.yul\":11401:11405   */\n      0xe0\n        /* \"#utility.yul\":11396:11399   */\n      dup7\n        /* \"#utility.yul\":11392:11406   */\n      add\n        /* \"#utility.yul\":11378:11390   */\n      dup3\n        /* \"#utility.yul\":11344:11407   */\n      tag_437\n      jump\t// in\n    tag_507:\n        /* \"#utility.yul\":11247:11417   */\n      pop\n        /* \"#utility.yul\":11434:11438   */\n      dup1\n        /* \"#utility.yul\":11427:11438   */\n      swap2\n      pop\n        /* \"#utility.yul\":9634:11444   */\n      pop\n        /* \"#utility.yul\":9514:11444   */\n      swap3\n      swap2\n      pop\n      pop\n      jump\t// out\n        /* \"#utility.yul\":11514:12588   */\n    tag_508:\n        /* \"#utility.yul\":11631:11634   */\n      0x00\n        /* \"#utility.yul\":11667:11671   */\n      0x80\n        /* \"#utility.yul\":11662:11665   */\n      dup4\n        /* \"#utility.yul\":11658:11672   */\n      add\n        /* \"#utility.yul\":11760:11764   */\n      0x00\n        /* \"#utility.yul\":11753:11758   */\n      dup4\n        /* \"#utility.yul\":11749:11765   */\n      add\n        /* \"#utility.yul\":11743:11766   */\n      mload\n        /* \"#utility.yul\":11779:11842   */\n      tag_510\n        /* \"#utility.yul\":11836:11840   */\n      0x00\n        /* \"#utility.yul\":11831:11834   */\n      dup7\n        /* \"#utility.yul\":11827:11841   */\n      add\n        /* \"#utility.yul\":11813:11825   */\n      dup3\n        /* \"#utility.yul\":11779:11842   */\n      tag_437\n      jump\t// in\n    tag_510:\n        /* \"#utility.yul\":11682:11852   */\n      pop\n        /* \"#utility.yul\":11934:11938   */\n      0x20\n        /* \"#utility.yul\":11927:11932   */\n      dup4\n        /* \"#utility.yul\":11923:11939   */\n      add\n        /* \"#utility.yul\":11917:11940   */\n      mload\n        /* \"#utility.yul\":11987:11990   */\n      dup5\n        /* \"#utility.yul\":11981:11985   */\n      dup3\n        /* \"#utility.yul\":11977:11991   */\n      sub\n        /* \"#utility.yul\":11970:11974   */\n      0x20\n        /* \"#utility.yul\":11965:11968   */\n      dup7\n        /* \"#utility.yul\":11961:11975   */\n      add\n        /* \"#utility.yul\":11954:11992   */\n      mstore\n        /* \"#utility.yul\":12013:12086   */\n      tag_511\n        /* \"#utility.yul\":12081:12085   */\n      dup3\n        /* \"#utility.yul\":12067:12079   */\n      dup3\n        /* \"#utility.yul\":12013:12086   */\n      tag_452\n      jump\t// in\n    tag_511:\n        /* \"#utility.yul\":12005:12086   */\n      swap2\n      pop\n        /* \"#utility.yul\":11862:12097   */\n      pop\n        /* \"#utility.yul\":12187:12191   */\n      0x40\n        /* \"#utility.yul\":12180:12185   */\n      dup4\n        /* \"#utility.yul\":12176:12192   */\n      add\n        /* \"#utility.yul\":12170:12193   */\n      mload\n        /* \"#utility.yul\":12206:12269   */\n      tag_512\n        /* \"#utility.yul\":12263:12267   */\n      0x40\n        /* \"#utility.yul\":12258:12261   */\n      dup7\n        /* \"#utility.yul\":12254:12268   */\n      add\n        /* \"#utility.yul\":12240:12252   */\n      dup3\n        /* \"#utility.yul\":12206:12269   */\n      tag_437\n      jump\t// in\n    tag_512:\n        /* \"#utility.yul\":12107:12279   */\n      pop\n        /* \"#utility.yul\":12368:12372   */\n      0x60\n        /* \"#utility.yul\":12361:12366   */\n      dup4\n        /* \"#utility.yul\":12357:12373   */\n      add\n        /* \"#utility.yul\":12351:12374   */\n      mload\n        /* \"#utility.yul\":12421:12424   */\n      dup5\n        /* \"#utility.yul\":12415:12419   */\n      dup3\n        /* \"#utility.yul\":12411:12425   */\n      sub\n        /* \"#utility.yul\":12404:12408   */\n      0x60\n        /* \"#utility.yul\":12399:12402   */\n      dup7\n        /* \"#utility.yul\":12395:12409   */\n      add\n        /* \"#utility.yul\":12388:12426   */\n      mstore\n        /* \"#utility.yul\":12447:12550   */\n      tag_513\n        /* \"#utility.yul\":12545:12549   */\n      dup3\n        /* \"#utility.yul\":12531:12543   */\n      dup3\n        /* \"#utility.yul\":12447:12550   */\n      tag_438\n      jump\t// in\n    tag_513:\n        /* \"#utility.yul\":12439:12550   */\n      swap2\n      pop\n        /* \"#utility.yul\":12289:12561   */\n      pop\n        /* \"#utility.yul\":12578:12582   */\n      dup1\n        /* \"#utility.yul\":12571:12582   */\n      swap2\n      pop\n        /* \"#utility.yul\":11636:12588   */\n      pop\n        /* \"#utility.yul\":11514:12588   */\n      swap3\n      swap2\n      pop\n      pop\n      jump\t// out\n        /* \"#utility.yul\":12658:13977   */\n    tag_514:\n        /* \"#utility.yul\":12775:12778   */\n      0x00\n        /* \"#utility.yul\":12811:12815   */\n      0xa0\n        /* \"#utility.yul\":12806:12809   */\n      dup4\n        /* \"#utility.yul\":12802:12816   */\n      add\n        /* \"#utility.yul\":12904:12908   */\n      0x00\n        /* \"#utility.yul\":12897:12902   */\n      dup4\n        /* \"#utility.yul\":12893:12909   */\n      add\n        /* \"#utility.yul\":12887:12910   */\n      mload\n        /* \"#utility.yul\":12923:12986   */\n      tag_516\n        /* \"#utility.yul\":12980:12984   */\n      0x00\n        /* \"#utility.yul\":12975:12978   */\n      dup7\n        /* \"#utility.yul\":12971:12985   */\n      add\n        /* \"#utility.yul\":12957:12969   */\n      dup3\n        /* \"#utility.yul\":12923:12986   */\n      tag_437\n      jump\t// in\n    tag_516:\n        /* \"#utility.yul\":12826:12996   */\n      pop\n        /* \"#utility.yul\":13078:13082   */\n      0x20\n        /* \"#utility.yul\":13071:13076   */\n      dup4\n        /* \"#utility.yul\":13067:13083   */\n      add\n        /* \"#utility.yul\":13061:13084   */\n      mload\n        /* \"#utility.yul\":13131:13134   */\n      dup5\n        /* \"#utility.yul\":13125:13129   */\n      dup3\n        /* \"#utility.yul\":13121:13135   */\n      sub\n        /* \"#utility.yul\":13114:13118   */\n      0x20\n        /* \"#utility.yul\":13109:13112   */\n      dup7\n        /* \"#utility.yul\":13105:13119   */\n      add\n        /* \"#utility.yul\":13098:13136   */\n      mstore\n        /* \"#utility.yul\":13157:13230   */\n      tag_517\n        /* \"#utility.yul\":13225:13229   */\n      dup3\n        /* \"#utility.yul\":13211:13223   */\n      dup3\n        /* \"#utility.yul\":13157:13230   */\n      tag_452\n      jump\t// in\n    tag_517:\n        /* \"#utility.yul\":13149:13230   */\n      swap2\n      pop\n        /* \"#utility.yul\":13006:13241   */\n      pop\n        /* \"#utility.yul\":13323:13327   */\n      0x40\n        /* \"#utility.yul\":13316:13321   */\n      dup4\n        /* \"#utility.yul\":13312:13328   */\n      add\n        /* \"#utility.yul\":13306:13329   */\n      mload\n        /* \"#utility.yul\":13376:13379   */\n      dup5\n        /* \"#utility.yul\":13370:13374   */\n      dup3\n        /* \"#utility.yul\":13366:13380   */\n      sub\n        /* \"#utility.yul\":13359:13363   */\n      0x40\n        /* \"#utility.yul\":13354:13357   */\n      dup7\n        /* \"#utility.yul\":13350:13364   */\n      add\n        /* \"#utility.yul\":13343:13381   */\n      mstore\n        /* \"#utility.yul\":13402:13475   */\n      tag_518\n        /* \"#utility.yul\":13470:13474   */\n      dup3\n        /* \"#utility.yul\":13456:13468   */\n      dup3\n        /* \"#utility.yul\":13402:13475   */\n      tag_452\n      jump\t// in\n    tag_518:\n        /* \"#utility.yul\":13394:13475   */\n      swap2\n      pop\n        /* \"#utility.yul\":13251:13486   */\n      pop\n        /* \"#utility.yul\":13576:13580   */\n      0x60\n        /* \"#utility.yul\":13569:13574   */\n      dup4\n        /* \"#utility.yul\":13565:13581   */\n      add\n        /* \"#utility.yul\":13559:13582   */\n      mload\n        /* \"#utility.yul\":13595:13658   */\n      tag_519\n        /* \"#utility.yul\":13652:13656   */\n      0x60\n        /* \"#utility.yul\":13647:13650   */\n      dup7\n        /* \"#utility.yul\":13643:13657   */\n      add\n        /* \"#utility.yul\":13629:13641   */\n      dup3\n        /* \"#utility.yul\":13595:13658   */\n      tag_437\n      jump\t// in\n    tag_519:\n        /* \"#utility.yul\":13496:13668   */\n      pop\n        /* \"#utility.yul\":13757:13761   */\n      0x80\n        /* \"#utility.yul\":13750:13755   */\n      dup4\n        /* \"#utility.yul\":13746:13762   */\n      add\n        /* \"#utility.yul\":13740:13763   */\n      mload\n        /* \"#utility.yul\":13810:13813   */\n      dup5\n        /* \"#utility.yul\":13804:13808   */\n      dup3\n        /* \"#utility.yul\":13800:13814   */\n      sub\n        /* \"#utility.yul\":13793:13797   */\n      0x80\n        /* \"#utility.yul\":13788:13791   */\n      dup7\n        /* \"#utility.yul\":13784:13798   */\n      add\n        /* \"#utility.yul\":13777:13815   */\n      mstore\n        /* \"#utility.yul\":13836:13939   */\n      tag_520\n        /* \"#utility.yul\":13934:13938   */\n      dup3\n        /* \"#utility.yul\":13920:13932   */\n      dup3\n        /* \"#utility.yul\":13836:13939   */\n      tag_438\n      jump\t// in\n    tag_520:\n        /* \"#utility.yul\":13828:13939   */\n      swap2\n      pop\n        /* \"#utility.yul\":13678:13950   */\n      pop\n        /* \"#utility.yul\":13967:13971   */\n      dup1\n        /* \"#utility.yul\":13960:13971   */\n      swap2\n      pop\n        /* \"#utility.yul\":12780:13977   */\n      pop\n        /* \"#utility.yul\":12658:13977   */\n      swap3\n      swap2\n      pop\n      pop\n      jump\t// out\n        /* \"#utility.yul\":13983:14091   */\n    tag_437:\n        /* \"#utility.yul\":14060:14084   */\n      tag_522\n        /* \"#utility.yul\":14078:14083   */\n      dup2\n        /* \"#utility.yul\":14060:14084   */\n      tag_523\n      jump\t// in\n    tag_522:\n        /* \"#utility.yul\":14055:14058   */\n      dup3\n        /* \"#utility.yul\":14048:14085   */\n      mstore\n        /* \"#utility.yul\":13983:14091   */\n      pop\n      pop\n      jump\t// out\n        /* \"#utility.yul\":14097:14215   */\n    tag_524:\n        /* \"#utility.yul\":14184:14208   */\n      tag_526\n        /* \"#utility.yul\":14202:14207   */\n      dup2\n        /* \"#utility.yul\":14184:14208   */\n      tag_523\n      jump\t// in\n    tag_526:\n        /* \"#utility.yul\":14179:14182   */\n      dup3\n        /* \"#utility.yul\":14172:14209   */\n      mstore\n        /* \"#utility.yul\":14097:14215   */\n      pop\n      pop\n      jump\t// out\n        /* \"#utility.yul\":14221:14754   */\n    tag_109:\n        /* \"#utility.yul\":14390:14394   */\n      0x00\n        /* \"#utility.yul\":14428:14430   */\n      0x60\n        /* \"#utility.yul\":14417:14426   */\n      dup3\n        /* \"#utility.yul\":14413:14431   */\n      add\n        /* \"#utility.yul\":14405:14431   */\n      swap1\n      pop\n        /* \"#utility.yul\":14477:14486   */\n      dup2\n        /* \"#utility.yul\":14471:14475   */\n      dup2\n        /* \"#utility.yul\":14467:14487   */\n      sub\n        /* \"#utility.yul\":14463:14464   */\n      0x00\n        /* \"#utility.yul\":14452:14461   */\n      dup4\n        /* \"#utility.yul\":14448:14465   */\n      add\n        /* \"#utility.yul\":14441:14488   */\n      mstore\n        /* \"#utility.yul\":14505:14583   */\n      tag_528\n        /* \"#utility.yul\":14578:14582   */\n      dup2\n        /* \"#utility.yul\":14569:14575   */\n      dup7\n        /* \"#utility.yul\":14505:14583   */\n      tag_462\n      jump\t// in\n    tag_528:\n        /* \"#utility.yul\":14497:14583   */\n      swap1\n      pop\n        /* \"#utility.yul\":14593:14665   */\n      tag_529\n        /* \"#utility.yul\":14661:14663   */\n      0x20\n        /* \"#utility.yul\":14650:14659   */\n      dup4\n        /* \"#utility.yul\":14646:14664   */\n      add\n        /* \"#utility.yul\":14637:14643   */\n      dup6\n        /* \"#utility.yul\":14593:14665   */\n      tag_524\n      jump\t// in\n    tag_529:\n        /* \"#utility.yul\":14675:14747   */\n      tag_530\n        /* \"#utility.yul\":14743:14745   */\n      0x40\n        /* \"#utility.yul\":14732:14741   */\n      dup4\n        /* \"#utility.yul\":14728:14746   */\n      add\n        /* \"#utility.yul\":14719:14725   */\n      dup5\n        /* \"#utility.yul\":14675:14747   */\n      tag_524\n      jump\t// in\n    tag_530:\n        /* \"#utility.yul\":14221:14754   */\n      swap5\n      swap4\n      pop\n      pop\n      pop\n      pop\n      jump\t// out\n        /* \"#utility.yul\":14760:15179   */\n    tag_240:\n        /* \"#utility.yul\":14926:14930   */\n      0x00\n        /* \"#utility.yul\":14964:14966   */\n      0x20\n        /* \"#utility.yul\":14953:14962   */\n      dup3\n        /* \"#utility.yul\":14949:14967   */\n      add\n        /* \"#utility.yul\":14941:14967   */\n      swap1\n      pop\n        /* \"#utility.yul\":15013:15022   */\n      dup2\n        /* \"#utility.yul\":15007:15011   */\n      dup2\n        /* \"#utility.yul\":15003:15023   */\n      sub\n        /* \"#utility.yul\":14999:15000   */\n      0x00\n        /* \"#utility.yul\":14988:14997   */\n      dup4\n        /* \"#utility.yul\":14984:15001   */\n      add\n        /* \"#utility.yul\":14977:15024   */\n      mstore\n        /* \"#utility.yul\":15041:15172   */\n      tag_532\n        /* \"#utility.yul\":15167:15171   */\n      dup2\n        /* \"#utility.yul\":15041:15172   */\n      tag_469\n      jump\t// in\n    tag_532:\n        /* \"#utility.yul\":15033:15172   */\n      swap1\n      pop\n        /* \"#utility.yul\":14760:15179   */\n      swap2\n      swap1\n      pop\n      jump\t// out\n        /* \"#utility.yul\":15185:15604   */\n    tag_262:\n        /* \"#utility.yul\":15351:15355   */\n      0x00\n        /* \"#utility.yul\":15389:15391   */\n      0x20\n        /* \"#utility.yul\":15378:15387   */\n      dup3\n        /* \"#utility.yul\":15374:15392   */\n      add\n        /* \"#utility.yul\":15366:15392   */\n      swap1\n      pop\n        /* \"#utility.yul\":15438:15447   */\n      dup2\n        /* \"#utility.yul\":15432:15436   */\n      dup2\n        /* \"#utility.yul\":15428:15448   */\n      sub\n        /* \"#utility.yul\":15424:15425   */\n      0x00\n        /* \"#utility.yul\":15413:15422   */\n      dup4\n        /* \"#utility.yul\":15409:15426   */\n      add\n        /* \"#utility.yul\":15402:15449   */\n      mstore\n        /* \"#utility.yul\":15466:15597   */\n      tag_534\n        /* \"#utility.yul\":15592:15596   */\n      dup2\n        /* \"#utility.yul\":15466:15597   */\n      tag_474\n      jump\t// in\n    tag_534:\n        /* \"#utility.yul\":15458:15597   */\n      swap1\n      pop\n        /* \"#utility.yul\":15185:15604   */\n      swap2\n      swap1\n      pop\n      jump\t// out\n        /* \"#utility.yul\":15610:16029   */\n    tag_301:\n        /* \"#utility.yul\":15776:15780   */\n      0x00\n        /* \"#utility.yul\":15814:15816   */\n      0x20\n        /* \"#utility.yul\":15803:15812   */\n      dup3\n        /* \"#utility.yul\":15799:15817   */\n      add\n        /* \"#utility.yul\":15791:15817   */\n      swap1\n      pop\n        /* \"#utility.yul\":15863:15872   */\n      dup2\n        /* \"#utility.yul\":15857:15861   */\n      dup2\n        /* \"#utility.yul\":15853:15873   */\n      sub\n        /* \"#utility.yul\":15849:15850   */\n      0x00\n        /* \"#utility.yul\":15838:15847   */\n      dup4\n        /* \"#utility.yul\":15834:15851   */\n      add\n        /* \"#utility.yul\":15827:15874   */\n      mstore\n        /* \"#utility.yul\":15891:16022   */\n      tag_536\n        /* \"#utility.yul\":16017:16021   */\n      dup2\n        /* \"#utility.yul\":15891:16022   */\n      tag_479\n      jump\t// in\n    tag_536:\n        /* \"#utility.yul\":15883:16022   */\n      swap1\n      pop\n        /* \"#utility.yul\":15610:16029   */\n      swap2\n      swap1\n      pop\n      jump\t// out\n        /* \"#utility.yul\":16035:16416   */\n    tag_34:\n        /* \"#utility.yul\":16182:16186   */\n      0x00\n        /* \"#utility.yul\":16220:16222   */\n      0x20\n        /* \"#utility.yul\":16209:16218   */\n      dup3\n        /* \"#utility.yul\":16205:16223   */\n      add\n        /* \"#utility.yul\":16197:16223   */\n      swap1\n      pop\n        /* \"#utility.yul\":16269:16278   */\n      dup2\n        /* \"#utility.yul\":16263:16267   */\n      dup2\n        /* \"#utility.yul\":16259:16279   */\n      sub\n        /* \"#utility.yul\":16255:16256   */\n      0x00\n        /* \"#utility.yul\":16244:16253   */\n      dup4\n        /* \"#utility.yul\":16240:16257   */\n      add\n        /* \"#utility.yul\":16233:16280   */\n      mstore\n        /* \"#utility.yul\":16297:16409   */\n      tag_538\n        /* \"#utility.yul\":16404:16408   */\n      dup2\n        /* \"#utility.yul\":16395:16401   */\n      dup5\n        /* \"#utility.yul\":16297:16409   */\n      tag_484\n      jump\t// in\n    tag_538:\n        /* \"#utility.yul\":16289:16409   */\n      swap1\n      pop\n        /* \"#utility.yul\":16035:16416   */\n      swap3\n      swap2\n      pop\n      pop\n      jump\t// out\n        /* \"#utility.yul\":16422:16807   */\n    tag_91:\n        /* \"#utility.yul\":16571:16575   */\n      0x00\n        /* \"#utility.yul\":16609:16611   */\n      0x20\n        /* \"#utility.yul\":16598:16607   */\n      dup3\n        /* \"#utility.yul\":16594:16612   */\n      add\n        /* \"#utility.yul\":16586:16612   */\n      swap1\n      pop\n        /* \"#utility.yul\":16658:16667   */\n      dup2\n        /* \"#utility.yul\":16652:16656   */\n      dup2\n        /* \"#utility.yul\":16648:16668   */\n      sub\n        /* \"#utility.yul\":16644:16645   */\n      0x00\n        /* \"#utility.yul\":16633:16642   */\n      dup4\n        /* \"#utility.yul\":16629:16646   */\n      add\n        /* \"#utility.yul\":16622:16669   */\n      mstore\n        /* \"#utility.yul\":16686:16800   */\n      tag_540\n        /* \"#utility.yul\":16795:16799   */\n      dup2\n        /* \"#utility.yul\":16786:16792   */\n      dup5\n        /* \"#utility.yul\":16686:16800   */\n      tag_491\n      jump\t// in\n    tag_540:\n        /* \"#utility.yul\":16678:16800   */\n      swap1\n      pop\n        /* \"#utility.yul\":16422:16807   */\n      swap3\n      swap2\n      pop\n      pop\n      jump\t// out\n        /* \"#utility.yul\":16813:17178   */\n    tag_83:\n        /* \"#utility.yul\":16952:16956   */\n      0x00\n        /* \"#utility.yul\":16990:16992   */\n      0x20\n        /* \"#utility.yul\":16979:16988   */\n      dup3\n        /* \"#utility.yul\":16975:16993   */\n      add\n        /* \"#utility.yul\":16967:16993   */\n      swap1\n      pop\n        /* \"#utility.yul\":17039:17048   */\n      dup2\n        /* \"#utility.yul\":17033:17037   */\n      dup2\n        /* \"#utility.yul\":17029:17049   */\n      sub\n        /* \"#utility.yul\":17025:17026   */\n      0x00\n        /* \"#utility.yul\":17014:17023   */\n      dup4\n        /* \"#utility.yul\":17010:17027   */\n      add\n        /* \"#utility.yul\":17003:17050   */\n      mstore\n        /* \"#utility.yul\":17067:17171   */\n      tag_542\n        /* \"#utility.yul\":17166:17170   */\n      dup2\n        /* \"#utility.yul\":17157:17163   */\n      dup5\n        /* \"#utility.yul\":17067:17171   */\n      tag_498\n      jump\t// in\n    tag_542:\n        /* \"#utility.yul\":17059:17171   */\n      swap1\n      pop\n        /* \"#utility.yul\":16813:17178   */\n      swap3\n      swap2\n      pop\n      pop\n      jump\t// out\n        /* \"#utility.yul\":17184:17659   */\n    tag_204:\n        /* \"#utility.yul\":17351:17355   */\n      0x00\n        /* \"#utility.yul\":17389:17391   */\n      0x40\n        /* \"#utility.yul\":17378:17387   */\n      dup3\n        /* \"#utility.yul\":17374:17392   */\n      add\n        /* \"#utility.yul\":17366:17392   */\n      swap1\n      pop\n        /* \"#utility.yul\":17438:17447   */\n      dup2\n        /* \"#utility.yul\":17432:17436   */\n      dup2\n        /* \"#utility.yul\":17428:17448   */\n      sub\n        /* \"#utility.yul\":17424:17425   */\n      0x00\n        /* \"#utility.yul\":17413:17422   */\n      dup4\n        /* \"#utility.yul\":17409:17426   */\n      add\n        /* \"#utility.yul\":17402:17449   */\n      mstore\n        /* \"#utility.yul\":17466:17570   */\n      tag_544\n        /* \"#utility.yul\":17565:17569   */\n      dup2\n        /* \"#utility.yul\":17556:17562   */\n      dup6\n        /* \"#utility.yul\":17466:17570   */\n      tag_498\n      jump\t// in\n    tag_544:\n        /* \"#utility.yul\":17458:17570   */\n      swap1\n      pop\n        /* \"#utility.yul\":17580:17652   */\n      tag_545\n        /* \"#utility.yul\":17648:17650   */\n      0x20\n        /* \"#utility.yul\":17637:17646   */\n      dup4\n        /* \"#utility.yul\":17633:17651   */\n      add\n        /* \"#utility.yul\":17624:17630   */\n      dup5\n        /* \"#utility.yul\":17580:17652   */\n      tag_524\n      jump\t// in\n    tag_545:\n        /* \"#utility.yul\":17184:17659   */\n      swap4\n      swap3\n      pop\n      pop\n      pop\n      jump\t// out\n        /* \"#utility.yul\":17665:18034   */\n    tag_96:\n        /* \"#utility.yul\":17806:17810   */\n      0x00\n        /* \"#utility.yul\":17844:17846   */\n      0x20\n        /* \"#utility.yul\":17833:17842   */\n      dup3\n        /* \"#utility.yul\":17829:17847   */\n      add\n        /* \"#utility.yul\":17821:17847   */\n      swap1\n      pop\n        /* \"#utility.yul\":17893:17902   */\n      dup2\n        /* \"#utility.yul\":17887:17891   */\n      dup2\n        /* \"#utility.yul\":17883:17903   */\n      sub\n        /* \"#utility.yul\":17879:17880   */\n      0x00\n        /* \"#utility.yul\":17868:17877   */\n      dup4\n        /* \"#utility.yul\":17864:17881   */\n      add\n        /* \"#utility.yul\":17857:17904   */\n      mstore\n        /* \"#utility.yul\":17921:18027   */\n      tag_547\n        /* \"#utility.yul\":18022:18026   */\n      dup2\n        /* \"#utility.yul\":18013:18019   */\n      dup5\n        /* \"#utility.yul\":17921:18027   */\n      tag_508\n      jump\t// in\n    tag_547:\n        /* \"#utility.yul\":17913:18027   */\n      swap1\n      pop\n        /* \"#utility.yul\":17665:18034   */\n      swap3\n      swap2\n      pop\n      pop\n      jump\t// out\n        /* \"#utility.yul\":18040:18409   */\n    tag_39:\n        /* \"#utility.yul\":18181:18185   */\n      0x00\n        /* \"#utility.yul\":18219:18221   */\n      0x20\n        /* \"#utility.yul\":18208:18217   */\n      dup3\n        /* \"#utility.yul\":18204:18222   */\n      add\n        /* \"#utility.yul\":18196:18222   */\n      swap1\n      pop\n        /* \"#utility.yul\":18268:18277   */\n      dup2\n        /* \"#utility.yul\":18262:18266   */\n      dup2\n        /* \"#utility.yul\":18258:18278   */\n      sub\n        /* \"#utility.yul\":18254:18255   */\n      0x00\n        /* \"#utility.yul\":18243:18252   */\n      dup4\n        /* \"#utility.yul\":18239:18256   */\n      add\n        /* \"#utility.yul\":18232:18279   */\n      mstore\n        /* \"#utility.yul\":18296:18402   */\n      tag_549\n        /* \"#utility.yul\":18397:18401   */\n      dup2\n        /* \"#utility.yul\":18388:18394   */\n      dup5\n        /* \"#utility.yul\":18296:18402   */\n      tag_514\n      jump\t// in\n    tag_549:\n        /* \"#utility.yul\":18288:18402   */\n      swap1\n      pop\n        /* \"#utility.yul\":18040:18409   */\n      swap3\n      swap2\n      pop\n      pop\n      jump\t// out\n        /* \"#utility.yul\":18415:19150   */\n    tag_44:\n        /* \"#utility.yul\":18632:18636   */\n      0x00\n        /* \"#utility.yul\":18670:18673   */\n      0x80\n        /* \"#utility.yul\":18659:18668   */\n      dup3\n        /* \"#utility.yul\":18655:18674   */\n      add\n        /* \"#utility.yul\":18647:18674   */\n      swap1\n      pop\n        /* \"#utility.yul\":18684:18755   */\n      tag_551\n        /* \"#utility.yul\":18752:18753   */\n      0x00\n        /* \"#utility.yul\":18741:18750   */\n      dup4\n        /* \"#utility.yul\":18737:18754   */\n      add\n        /* \"#utility.yul\":18728:18734   */\n      dup8\n        /* \"#utility.yul\":18684:18755   */\n      tag_524\n      jump\t// in\n    tag_551:\n        /* \"#utility.yul\":18802:18811   */\n      dup2\n        /* \"#utility.yul\":18796:18800   */\n      dup2\n        /* \"#utility.yul\":18792:18812   */\n      sub\n        /* \"#utility.yul\":18787:18789   */\n      0x20\n        /* \"#utility.yul\":18776:18785   */\n      dup4\n        /* \"#utility.yul\":18772:18790   */\n      add\n        /* \"#utility.yul\":18765:18813   */\n      mstore\n        /* \"#utility.yul\":18830:18908   */\n      tag_552\n        /* \"#utility.yul\":18903:18907   */\n      dup2\n        /* \"#utility.yul\":18894:18900   */\n      dup7\n        /* \"#utility.yul\":18830:18908   */\n      tag_462\n      jump\t// in\n    tag_552:\n        /* \"#utility.yul\":18822:18908   */\n      swap1\n      pop\n        /* \"#utility.yul\":18955:18964   */\n      dup2\n        /* \"#utility.yul\":18949:18953   */\n      dup2\n        /* \"#utility.yul\":18945:18965   */\n      sub\n        /* \"#utility.yul\":18940:18942   */\n      0x40\n        /* \"#utility.yul\":18929:18938   */\n      dup4\n        /* \"#utility.yul\":18925:18943   */\n      add\n        /* \"#utility.yul\":18918:18966   */\n      mstore\n        /* \"#utility.yul\":18983:19061   */\n      tag_553\n        /* \"#utility.yul\":19056:19060   */\n      dup2\n        /* \"#utility.yul\":19047:19053   */\n      dup6\n        /* \"#utility.yul\":18983:19061   */\n      tag_462\n      jump\t// in\n    tag_553:\n        /* \"#utility.yul\":18975:19061   */\n      swap1\n      pop\n        /* \"#utility.yul\":19071:19143   */\n      tag_554\n        /* \"#utility.yul\":19139:19141   */\n      0x60\n        /* \"#utility.yul\":19128:19137   */\n      dup4\n        /* \"#utility.yul\":19124:19142   */\n      add\n        /* \"#utility.yul\":19115:19121   */\n      dup5\n        /* \"#utility.yul\":19071:19143   */\n      tag_524\n      jump\t// in\n    tag_554:\n        /* \"#utility.yul\":18415:19150   */\n      swap6\n      swap5\n      pop\n      pop\n      pop\n      pop\n      pop\n      jump\t// out\n        /* \"#utility.yul\":19156:19689   */\n    tag_57:\n        /* \"#utility.yul\":19325:19329   */\n      0x00\n        /* \"#utility.yul\":19363:19365   */\n      0x60\n        /* \"#utility.yul\":19352:19361   */\n      dup3\n        /* \"#utility.yul\":19348:19366   */\n      add\n        /* \"#utility.yul\":19340:19366   */\n      swap1\n      pop\n        /* \"#utility.yul\":19376:19447   */\n      tag_556\n        /* \"#utility.yul\":19444:19445   */\n      0x00\n        /* \"#utility.yul\":19433:19442   */\n      dup4\n        /* \"#utility.yul\":19429:19446   */\n      add\n        /* \"#utility.yul\":19420:19426   */\n      dup7\n        /* \"#utility.yul\":19376:19447   */\n      tag_524\n      jump\t// in\n    tag_556:\n        /* \"#utility.yul\":19494:19503   */\n      dup2\n        /* \"#utility.yul\":19488:19492   */\n      dup2\n        /* \"#utility.yul\":19484:19504   */\n      sub\n        /* \"#utility.yul\":19479:19481   */\n      0x20\n        /* \"#utility.yul\":19468:19477   */\n      dup4\n        /* \"#utility.yul\":19464:19482   */\n      add\n        /* \"#utility.yul\":19457:19505   */\n      mstore\n        /* \"#utility.yul\":19522:19600   */\n      tag_557\n        /* \"#utility.yul\":19595:19599   */\n      dup2\n        /* \"#utility.yul\":19586:19592   */\n      dup6\n        /* \"#utility.yul\":19522:19600   */\n      tag_462\n      jump\t// in\n    tag_557:\n        /* \"#utility.yul\":19514:19600   */\n      swap1\n      pop\n        /* \"#utility.yul\":19610:19682   */\n      tag_558\n        /* \"#utility.yul\":19678:19680   */\n      0x40\n        /* \"#utility.yul\":19667:19676   */\n      dup4\n        /* \"#utility.yul\":19663:19681   */\n      add\n        /* \"#utility.yul\":19654:19660   */\n      dup5\n        /* \"#utility.yul\":19610:19682   */\n      tag_524\n      jump\t// in\n    tag_558:\n        /* \"#utility.yul\":19156:19689   */\n      swap5\n      swap4\n      pop\n      pop\n      pop\n      pop\n      jump\t// out\n        /* \"#utility.yul\":19695:20854   */\n    tag_49:\n        /* \"#utility.yul\":20016:20020   */\n      0x00\n        /* \"#utility.yul\":20054:20057   */\n      0xe0\n        /* \"#utility.yul\":20043:20052   */\n      dup3\n        /* \"#utility.yul\":20039:20058   */\n      add\n        /* \"#utility.yul\":20031:20058   */\n      swap1\n      pop\n        /* \"#utility.yul\":20068:20139   */\n      tag_560\n        /* \"#utility.yul\":20136:20137   */\n      0x00\n        /* \"#utility.yul\":20125:20134   */\n      dup4\n        /* \"#utility.yul\":20121:20138   */\n      add\n        /* \"#utility.yul\":20112:20118   */\n      dup11\n        /* \"#utility.yul\":20068:20139   */\n      tag_524\n      jump\t// in\n    tag_560:\n        /* \"#utility.yul\":20186:20195   */\n      dup2\n        /* \"#utility.yul\":20180:20184   */\n      dup2\n        /* \"#utility.yul\":20176:20196   */\n      sub\n        /* \"#utility.yul\":20171:20173   */\n      0x20\n        /* \"#utility.yul\":20160:20169   */\n      dup4\n        /* \"#utility.yul\":20156:20174   */\n      add\n        /* \"#utility.yul\":20149:20197   */\n      mstore\n        /* \"#utility.yul\":20214:20292   */\n      tag_561\n        /* \"#utility.yul\":20287:20291   */\n      dup2\n        /* \"#utility.yul\":20278:20284   */\n      dup10\n        /* \"#utility.yul\":20214:20292   */\n      tag_462\n      jump\t// in\n    tag_561:\n        /* \"#utility.yul\":20206:20292   */\n      swap1\n      pop\n        /* \"#utility.yul\":20302:20374   */\n      tag_562\n        /* \"#utility.yul\":20370:20372   */\n      0x40\n        /* \"#utility.yul\":20359:20368   */\n      dup4\n        /* \"#utility.yul\":20355:20373   */\n      add\n        /* \"#utility.yul\":20346:20352   */\n      dup9\n        /* \"#utility.yul\":20302:20374   */\n      tag_524\n      jump\t// in\n    tag_562:\n        /* \"#utility.yul\":20421:20430   */\n      dup2\n        /* \"#utility.yul\":20415:20419   */\n      dup2\n        /* \"#utility.yul\":20411:20431   */\n      sub\n        /* \"#utility.yul\":20406:20408   */\n      0x60\n        /* \"#utility.yul\":20395:20404   */\n      dup4\n        /* \"#utility.yul\":20391:20409   */\n      add\n        /* \"#utility.yul\":20384:20432   */\n      mstore\n        /* \"#utility.yul\":20449:20527   */\n      tag_563\n        /* \"#utility.yul\":20522:20526   */\n      dup2\n        /* \"#utility.yul\":20513:20519   */\n      dup8\n        /* \"#utility.yul\":20449:20527   */\n      tag_462\n      jump\t// in\n    tag_563:\n        /* \"#utility.yul\":20441:20527   */\n      swap1\n      pop\n        /* \"#utility.yul\":20537:20610   */\n      tag_564\n        /* \"#utility.yul\":20605:20608   */\n      0x80\n        /* \"#utility.yul\":20594:20603   */\n      dup4\n        /* \"#utility.yul\":20590:20609   */\n      add\n        /* \"#utility.yul\":20581:20587   */\n      dup7\n        /* \"#utility.yul\":20537:20610   */\n      tag_524\n      jump\t// in\n    tag_564:\n        /* \"#utility.yul\":20658:20667   */\n      dup2\n        /* \"#utility.yul\":20652:20656   */\n      dup2\n        /* \"#utility.yul\":20648:20668   */\n      sub\n        /* \"#utility.yul\":20642:20645   */\n      0xa0\n        /* \"#utility.yul\":20631:20640   */\n      dup4\n        /* \"#utility.yul\":20627:20646   */\n      add\n        /* \"#utility.yul\":20620:20669   */\n      mstore\n        /* \"#utility.yul\":20686:20764   */\n      tag_565\n        /* \"#utility.yul\":20759:20763   */\n      dup2\n        /* \"#utility.yul\":20750:20756   */\n      dup6\n        /* \"#utility.yul\":20686:20764   */\n      tag_462\n      jump\t// in\n    tag_565:\n        /* \"#utility.yul\":20678:20764   */\n      swap1\n      pop\n        /* \"#utility.yul\":20774:20847   */\n      tag_566\n        /* \"#utility.yul\":20842:20845   */\n      0xc0\n        /* \"#utility.yul\":20831:20840   */\n      dup4\n        /* \"#utility.yul\":20827:20846   */\n      add\n        /* \"#utility.yul\":20818:20824   */\n      dup5\n        /* \"#utility.yul\":20774:20847   */\n      tag_524\n      jump\t// in\n    tag_566:\n        /* \"#utility.yul\":19695:20854   */\n      swap9\n      swap8\n      pop\n      pop\n      pop\n      pop\n      pop\n      pop\n      pop\n      pop\n      jump\t// out\n        /* \"#utility.yul\":20860:20989   */\n    tag_385:\n        /* \"#utility.yul\":20894:20900   */\n      0x00\n        /* \"#utility.yul\":20921:20941   */\n      tag_568\n      tag_569\n      jump\t// in\n    tag_568:\n        /* \"#utility.yul\":20911:20941   */\n      swap1\n      pop\n        /* \"#utility.yul\":20950:20983   */\n      tag_570\n        /* \"#utility.yul\":20978:20982   */\n      dup3\n        /* \"#utility.yul\":20970:20976   */\n      dup3\n        /* \"#utility.yul\":20950:20983   */\n      tag_571\n      jump\t// in\n    tag_570:\n        /* \"#utility.yul\":20860:20989   */\n      swap2\n      swap1\n      pop\n      jump\t// out\n        /* \"#utility.yul\":20995:21070   */\n    tag_569:\n        /* \"#utility.yul\":21028:21034   */\n      0x00\n        /* \"#utility.yul\":21061:21063   */\n      0x40\n        /* \"#utility.yul\":21055:21064   */\n      mload\n        /* \"#utility.yul\":21045:21064   */\n      swap1\n      pop\n        /* \"#utility.yul\":20995:21070   */\n      swap1\n      jump\t// out\n        /* \"#utility.yul\":21076:21384   */\n    tag_384:\n        /* \"#utility.yul\":21138:21142   */\n      0x00\n        /* \"#utility.yul\":21228:21246   */\n      0xffffffffffffffff\n        /* \"#utility.yul\":21220:21226   */\n      dup3\n        /* \"#utility.yul\":21217:21247   */\n      gt\n        /* \"#utility.yul\":21214:21270   */\n      iszero\n      tag_574\n      jumpi\n        /* \"#utility.yul\":21250:21268   */\n      tag_575\n      tag_112\n      jump\t// in\n    tag_575:\n        /* \"#utility.yul\":21214:21270   */\n    tag_574:\n        /* \"#utility.yul\":21288:21317   */\n      tag_576\n        /* \"#utility.yul\":21310:21316   */\n      dup3\n        /* \"#utility.yul\":21288:21317   */\n      tag_461\n      jump\t// in\n    tag_576:\n        /* \"#utility.yul\":21280:21317   */\n      swap1\n      pop\n        /* \"#utility.yul\":21372:21376   */\n      0x20\n        /* \"#utility.yul\":21366:21370   */\n      dup2\n        /* \"#utility.yul\":21362:21377   */\n      add\n        /* \"#utility.yul\":21354:21377   */\n      swap1\n      pop\n        /* \"#utility.yul\":21076:21384   */\n      swap2\n      swap1\n      pop\n      jump\t// out\n        /* \"#utility.yul\":21390:21522   */\n    tag_445:\n        /* \"#utility.yul\":21457:21461   */\n      0x00\n        /* \"#utility.yul\":21480:21483   */\n      dup2\n        /* \"#utility.yul\":21472:21483   */\n      swap1\n      pop\n        /* \"#utility.yul\":21510:21514   */\n      0x20\n        /* \"#utility.yul\":21505:21508   */\n      dup3\n        /* \"#utility.yul\":21501:21515   */\n      add\n        /* \"#utility.yul\":21493:21515   */\n      swap1\n      pop\n        /* \"#utility.yul\":21390:21522   */\n      swap2\n      swap1\n      pop\n      jump\t// out\n        /* \"#utility.yul\":21528:21642   */\n    tag_441:\n        /* \"#utility.yul\":21595:21601   */\n      0x00\n        /* \"#utility.yul\":21629:21634   */\n      dup2\n        /* \"#utility.yul\":21623:21635   */\n      mload\n        /* \"#utility.yul\":21613:21635   */\n      swap1\n      pop\n        /* \"#utility.yul\":21528:21642   */\n      swap2\n      swap1\n      pop\n      jump\t// out\n        /* \"#utility.yul\":21648:21747   */\n    tag_455:\n        /* \"#utility.yul\":21700:21706   */\n      0x00\n        /* \"#utility.yul\":21734:21739   */\n      dup2\n        /* \"#utility.yul\":21728:21740   */\n      mload\n        /* \"#utility.yul\":21718:21740   */\n      swap1\n      pop\n        /* \"#utility.yul\":21648:21747   */\n      swap2\n      swap1\n      pop\n      jump\t// out\n        /* \"#utility.yul\":21753:21866   */\n    tag_451:\n        /* \"#utility.yul\":21823:21827   */\n      0x00\n        /* \"#utility.yul\":21855:21859   */\n      0x20\n        /* \"#utility.yul\":21850:21853   */\n      dup3\n        /* \"#utility.yul\":21846:21860   */\n      add\n        /* \"#utility.yul\":21838:21860   */\n      swap1\n      pop\n        /* \"#utility.yul\":21753:21866   */\n      swap2\n      swap1\n      pop\n      jump\t// out\n        /* \"#utility.yul\":21872:22046   */\n    tag_443:\n        /* \"#utility.yul\":21961:21972   */\n      0x00\n        /* \"#utility.yul\":21995:22001   */\n      dup3\n        /* \"#utility.yul\":21990:21993   */\n      dup3\n        /* \"#utility.yul\":21983:22002   */\n      mstore\n        /* \"#utility.yul\":22035:22039   */\n      0x20\n        /* \"#utility.yul\":22030:22033   */\n      dup3\n        /* \"#utility.yul\":22026:22040   */\n      add\n        /* \"#utility.yul\":22011:22040   */\n      swap1\n      pop\n        /* \"#utility.yul\":21872:22046   */\n      swap3\n      swap2\n      pop\n      pop\n      jump\t// out\n        /* \"#utility.yul\":22052:22211   */\n    tag_457:\n        /* \"#utility.yul\":22126:22137   */\n      0x00\n        /* \"#utility.yul\":22160:22166   */\n      dup3\n        /* \"#utility.yul\":22155:22158   */\n      dup3\n        /* \"#utility.yul\":22148:22167   */\n      mstore\n        /* \"#utility.yul\":22200:22204   */\n      0x20\n        /* \"#utility.yul\":22195:22198   */\n      dup3\n        /* \"#utility.yul\":22191:22205   */\n      add\n        /* \"#utility.yul\":22176:22205   */\n      swap1\n      pop\n        /* \"#utility.yul\":22052:22211   */\n      swap3\n      swap2\n      pop\n      pop\n      jump\t// out\n        /* \"#utility.yul\":22217:22386   */\n    tag_466:\n        /* \"#utility.yul\":22301:22312   */\n      0x00\n        /* \"#utility.yul\":22335:22341   */\n      dup3\n        /* \"#utility.yul\":22330:22333   */\n      dup3\n        /* \"#utility.yul\":22323:22342   */\n      mstore\n        /* \"#utility.yul\":22375:22379   */\n      0x20\n        /* \"#utility.yul\":22370:22373   */\n      dup3\n        /* \"#utility.yul\":22366:22380   */\n      add\n        /* \"#utility.yul\":22351:22380   */\n      swap1\n      pop\n        /* \"#utility.yul\":22217:22386   */\n      swap3\n      swap2\n      pop\n      pop\n      jump\t// out\n        /* \"#utility.yul\":22392:22469   */\n    tag_523:\n        /* \"#utility.yul\":22429:22436   */\n      0x00\n        /* \"#utility.yul\":22458:22463   */\n      dup2\n        /* \"#utility.yul\":22447:22463   */\n      swap1\n      pop\n        /* \"#utility.yul\":22392:22469   */\n      swap2\n      swap1\n      pop\n      jump\t// out\n        /* \"#utility.yul\":22475:22629   */\n    tag_390:\n        /* \"#utility.yul\":22559:22565   */\n      dup3\n        /* \"#utility.yul\":22554:22557   */\n      dup2\n        /* \"#utility.yul\":22549:22552   */\n      dup4\n        /* \"#utility.yul\":22536:22566   */\n      calldatacopy\n        /* \"#utility.yul\":22621:22622   */\n      0x00\n        /* \"#utility.yul\":22612:22618   */\n      dup4\n        /* \"#utility.yul\":22607:22610   */\n      dup4\n        /* \"#utility.yul\":22603:22619   */\n      add\n        /* \"#utility.yul\":22596:22623   */\n      mstore\n        /* \"#utility.yul\":22475:22629   */\n      pop\n      pop\n      pop\n      jump\t// out\n        /* \"#utility.yul\":22635:22942   */\n    tag_459:\n        /* \"#utility.yul\":22703:22704   */\n      0x00\n        /* \"#utility.yul\":22713:22826   */\n    tag_587:\n        /* \"#utility.yul\":22727:22733   */\n      dup4\n        /* \"#utility.yul\":22724:22725   */\n      dup2\n        /* \"#utility.yul\":22721:22734   */\n      lt\n        /* \"#utility.yul\":22713:22826   */\n      iszero\n      tag_589\n      jumpi\n        /* \"#utility.yul\":22812:22813   */\n      dup1\n        /* \"#utility.yul\":22807:22810   */\n      dup3\n        /* \"#utility.yul\":22803:22814   */\n      add\n        /* \"#utility.yul\":22797:22815   */\n      mload\n        /* \"#utility.yul\":22793:22794   */\n      dup2\n        /* \"#utility.yul\":22788:22791   */\n      dup5\n        /* \"#utility.yul\":22784:22795   */\n      add\n        /* \"#utility.yul\":22777:22816   */\n      mstore\n        /* \"#utility.yul\":22749:22751   */\n      0x20\n        /* \"#utility.yul\":22746:22747   */\n      dup2\n        /* \"#utility.yul\":22742:22752   */\n      add\n        /* \"#utility.yul\":22737:22752   */\n      swap1\n      pop\n        /* \"#utility.yul\":22713:22826   */\n      jump(tag_587)\n    tag_589:\n        /* \"#utility.yul\":22844:22850   */\n      dup4\n        /* \"#utility.yul\":22841:22842   */\n      dup2\n        /* \"#utility.yul\":22838:22851   */\n      gt\n        /* \"#utility.yul\":22835:22936   */\n      iszero\n      tag_590\n      jumpi\n        /* \"#utility.yul\":22924:22925   */\n      0x00\n        /* \"#utility.yul\":22915:22921   */\n      dup5\n        /* \"#utility.yul\":22910:22913   */\n      dup5\n        /* \"#utility.yul\":22906:22922   */\n      add\n        /* \"#utility.yul\":22899:22926   */\n      mstore\n        /* \"#utility.yul\":22835:22936   */\n    tag_590:\n        /* \"#utility.yul\":22684:22942   */\n      pop\n        /* \"#utility.yul\":22635:22942   */\n      pop\n      pop\n      pop\n      jump\t// out\n        /* \"#utility.yul\":22948:23268   */\n    tag_124:\n        /* \"#utility.yul\":22992:22998   */\n      0x00\n        /* \"#utility.yul\":23029:23030   */\n      0x02\n        /* \"#utility.yul\":23023:23027   */\n      dup3\n        /* \"#utility.yul\":23019:23031   */\n      div\n        /* \"#utility.yul\":23009:23031   */\n      swap1\n      pop\n        /* \"#utility.yul\":23076:23077   */\n      0x01\n        /* \"#utility.yul\":23070:23074   */\n      dup3\n        /* \"#utility.yul\":23066:23078   */\n      and\n        /* \"#utility.yul\":23097:23115   */\n      dup1\n        /* \"#utility.yul\":23087:23168   */\n      tag_592\n      jumpi\n        /* \"#utility.yul\":23153:23157   */\n      0x7f\n        /* \"#utility.yul\":23145:23151   */\n      dup3\n        /* \"#utility.yul\":23141:23158   */\n      and\n        /* \"#utility.yul\":23131:23158   */\n      swap2\n      pop\n        /* \"#utility.yul\":23087:23168   */\n    tag_592:\n        /* \"#utility.yul\":23215:23217   */\n      0x20\n        /* \"#utility.yul\":23207:23213   */\n      dup3\n        /* \"#utility.yul\":23204:23218   */\n      lt\n        /* \"#utility.yul\":23184:23202   */\n      dup2\n        /* \"#utility.yul\":23181:23219   */\n      eq\n        /* \"#utility.yul\":23178:23262   */\n      iszero\n      tag_593\n      jumpi\n        /* \"#utility.yul\":23234:23252   */\n      tag_594\n      tag_595\n      jump\t// in\n    tag_594:\n        /* \"#utility.yul\":23178:23262   */\n    tag_593:\n        /* \"#utility.yul\":22999:23268   */\n      pop\n        /* \"#utility.yul\":22948:23268   */\n      swap2\n      swap1\n      pop\n      jump\t// out\n        /* \"#utility.yul\":23274:23555   */\n    tag_571:\n        /* \"#utility.yul\":23357:23384   */\n      tag_597\n        /* \"#utility.yul\":23379:23383   */\n      dup3\n        /* \"#utility.yul\":23357:23384   */\n      tag_461\n      jump\t// in\n    tag_597:\n        /* \"#utility.yul\":23349:23355   */\n      dup2\n        /* \"#utility.yul\":23345:23385   */\n      add\n        /* \"#utility.yul\":23487:23493   */\n      dup2\n        /* \"#utility.yul\":23475:23485   */\n      dup2\n        /* \"#utility.yul\":23472:23494   */\n      lt\n        /* \"#utility.yul\":23451:23469   */\n      0xffffffffffffffff\n        /* \"#utility.yul\":23439:23449   */\n      dup3\n        /* \"#utility.yul\":23436:23470   */\n      gt\n        /* \"#utility.yul\":23433:23495   */\n      or\n        /* \"#utility.yul\":23430:23518   */\n      iszero\n      tag_598\n      jumpi\n        /* \"#utility.yul\":23498:23516   */\n      tag_599\n      tag_112\n      jump\t// in\n    tag_599:\n        /* \"#utility.yul\":23430:23518   */\n    tag_598:\n        /* \"#utility.yul\":23538:23548   */\n      dup1\n        /* \"#utility.yul\":23534:23536   */\n      0x40\n        /* \"#utility.yul\":23527:23549   */\n      mstore\n        /* \"#utility.yul\":23317:23555   */\n      pop\n        /* \"#utility.yul\":23274:23555   */\n      pop\n      pop\n      jump\t// out\n        /* \"#utility.yul\":23561:23794   */\n    tag_202:\n        /* \"#utility.yul\":23600:23603   */\n      0x00\n        /* \"#utility.yul\":23623:23647   */\n      tag_601\n        /* \"#utility.yul\":23641:23646   */\n      dup3\n        /* \"#utility.yul\":23623:23647   */\n      tag_523\n      jump\t// in\n    tag_601:\n        /* \"#utility.yul\":23614:23647   */\n      swap2\n      pop\n        /* \"#utility.yul\":23669:23735   */\n      0xffffffffffffffffffffffffffffffffffffffffffffffffffffffffffffffff\n        /* \"#utility.yul\":23662:23667   */\n      dup3\n        /* \"#utility.yul\":23659:23736   */\n      eq\n        /* \"#utility.yul\":23656:23759   */\n      iszero\n      tag_602\n      jumpi\n        /* \"#utility.yul\":23739:23757   */\n      tag_603\n      tag_604\n      jump\t// in\n    tag_603:\n        /* \"#utility.yul\":23656:23759   */\n    tag_602:\n        /* \"#utility.yul\":23786:23787   */\n      0x01\n        /* \"#utility.yul\":23779:23784   */\n      dup3\n        /* \"#utility.yul\":23775:23788   */\n      add\n        /* \"#utility.yul\":23768:23788   */\n      swap1\n      pop\n        /* \"#utility.yul\":23561:23794   */\n      swap2\n      swap1\n      pop\n      jump\t// out\n        /* \"#utility.yul\":23800:23980   */\n    tag_604:\n        /* \"#utility.yul\":23848:23925   */\n      0x4e487b7100000000000000000000000000000000000000000000000000000000\n        /* \"#utility.yul\":23845:23846   */\n      0x00\n        /* \"#utility.yul\":23838:23926   */\n      mstore\n        /* \"#utility.yul\":23945:23949   */\n      0x11\n        /* \"#utility.yul\":23942:23943   */\n      0x04\n        /* \"#utility.yul\":23935:23950   */\n      mstore\n        /* \"#utility.yul\":23969:23973   */\n      0x24\n        /* \"#utility.yul\":23966:23967   */\n      0x00\n        /* \"#utility.yul\":23959:23974   */\n      revert\n        /* \"#utility.yul\":23986:24166   */\n    tag_595:\n        /* \"#utility.yul\":24034:24111   */\n      0x4e487b7100000000000000000000000000000000000000000000000000000000\n        /* \"#utility.yul\":24031:24032   */\n      0x00\n        /* \"#utility.yul\":24024:24112   */\n      mstore\n        /* \"#utility.yul\":24131:24135   */\n      0x22\n        /* \"#utility.yul\":24128:24129   */\n      0x04\n        /* \"#utility.yul\":24121:24136   */\n      mstore\n        /* \"#utility.yul\":24155:24159   */\n      0x24\n        /* \"#utility.yul\":24152:24153   */\n      0x00\n        /* \"#utility.yul\":24145:24160   */\n      revert\n        /* \"#utility.yul\":24172:24352   */\n    tag_246:\n        /* \"#utility.yul\":24220:24297   */\n      0x4e487b7100000000000000000000000000000000000000000000000000000000\n        /* \"#utility.yul\":24217:24218   */\n      0x00\n        /* \"#utility.yul\":24210:24298   */\n      mstore\n        /* \"#utility.yul\":24317:24321   */\n      0x32\n        /* \"#utility.yul\":24314:24315   */\n      0x04\n        /* \"#utility.yul\":24307:24322   */\n      mstore\n        /* \"#utility.yul\":24341:24345   */\n      0x24\n        /* \"#utility.yul\":24338:24339   */\n      0x00\n        /* \"#utility.yul\":24331:24346   */\n      revert\n        /* \"#utility.yul\":24358:24538   */\n    tag_112:\n        /* \"#utility.yul\":24406:24483   */\n      0x4e487b7100000000000000000000000000000000000000000000000000000000\n        /* \"#utility.yul\":24403:24404   */\n      0x00\n        /* \"#utility.yul\":24396:24484   */\n      mstore\n        /* \"#utility.yul\":24503:24507   */\n      0x41\n        /* \"#utility.yul\":24500:24501   */\n      0x04\n        /* \"#utility.yul\":24493:24508   */\n      mstore\n        /* \"#utility.yul\":24527:24531   */\n      0x24\n        /* \"#utility.yul\":24524:24525   */\n      0x00\n        /* \"#utility.yul\":24517:24532   */\n      revert\n        /* \"#utility.yul\":24544:24661   */\n    tag_395:\n        /* \"#utility.yul\":24653:24654   */\n      0x00\n        /* \"#utility.yul\":24650:24651   */\n      dup1\n        /* \"#utility.yul\":24643:24655   */\n      revert\n        /* \"#utility.yul\":24667:24784   */\n    tag_388:\n        /* \"#utility.yul\":24776:24777   */\n      0x00\n        /* \"#utility.yul\":24773:24774   */\n      dup1\n        /* \"#utility.yul\":24766:24778   */\n      revert\n        /* \"#utility.yul\":24790:24907   */\n    tag_407:\n        /* \"#utility.yul\":24899:24900   */\n      0x00\n        /* \"#utility.yul\":24896:24897   */\n      dup1\n        /* \"#utility.yul\":24889:24901   */\n      revert\n        /* \"#utility.yul\":24913:25030   */\n    tag_404:\n        /* \"#utility.yul\":25022:25023   */\n      0x00\n        /* \"#utility.yul\":25019:25020   */\n      dup1\n        /* \"#utility.yul\":25012:25024   */\n      revert\n        /* \"#utility.yul\":25036:25138   */\n    tag_461:\n        /* \"#utility.yul\":25077:25083   */\n      0x00\n        /* \"#utility.yul\":25128:25130   */\n      0x1f\n        /* \"#utility.yul\":25124:25131   */\n      not\n        /* \"#utility.yul\":25119:25121   */\n      0x1f\n        /* \"#utility.yul\":25112:25117   */\n      dup4\n        /* \"#utility.yul\":25108:25122   */\n      add\n        /* \"#utility.yul\":25104:25132   */\n      and\n        /* \"#utility.yul\":25094:25132   */\n      swap1\n      pop\n        /* \"#utility.yul\":25036:25138   */\n      swap2\n      swap1\n      pop\n      jump\t// out\n        /* \"#utility.yul\":25144:25383   */\n    tag_473:\n        /* \"#utility.yul\":25284:25318   */\n      0x4d616e756661637475726572206973206e6f74207468652063757272656e7420\n        /* \"#utility.yul\":25280:25281   */\n      0x00\n        /* \"#utility.yul\":25272:25278   */\n      dup3\n        /* \"#utility.yul\":25268:25282   */\n      add\n        /* \"#utility.yul\":25261:25319   */\n      mstore\n        /* \"#utility.yul\":25353:25375   */\n      0x6f776e6572206f66207468652070726f64756374000000000000000000000000\n        /* \"#utility.yul\":25348:25350   */\n      0x20\n        /* \"#utility.yul\":25340:25346   */\n      dup3\n        /* \"#utility.yul\":25336:25351   */\n      add\n        /* \"#utility.yul\":25329:25376   */\n      mstore\n        /* \"#utility.yul\":25144:25383   */\n      pop\n      jump\t// out\n        /* \"#utility.yul\":25389:25627   */\n    tag_478:\n        /* \"#utility.yul\":25529:25563   */\n      0x4469737472696275746f72206973206e6f74207468652063757272656e74206f\n        /* \"#utility.yul\":25525:25526   */\n      0x00\n        /* \"#utility.yul\":25517:25523   */\n      dup3\n        /* \"#utility.yul\":25513:25527   */\n      add\n        /* \"#utility.yul\":25506:25564   */\n      mstore\n        /* \"#utility.yul\":25598:25619   */\n      0x776e6572206f66207468652070726f6475637400000000000000000000000000\n        /* \"#utility.yul\":25593:25595   */\n      0x20\n        /* \"#utility.yul\":25585:25591   */\n      dup3\n        /* \"#utility.yul\":25581:25596   */\n      add\n        /* \"#utility.yul\":25574:25620   */\n      mstore\n        /* \"#utility.yul\":25389:25627   */\n      pop\n      jump\t// out\n        /* \"#utility.yul\":25633:25868   */\n    tag_483:\n        /* \"#utility.yul\":25773:25807   */\n      0x537570706c696572206973206e6f74207468652063757272656e74206f776e65\n        /* \"#utility.yul\":25769:25770   */\n      0x00\n        /* \"#utility.yul\":25761:25767   */\n      dup3\n        /* \"#utility.yul\":25757:25771   */\n      add\n        /* \"#utility.yul\":25750:25808   */\n      mstore\n        /* \"#utility.yul\":25842:25860   */\n      0x72206f66207468652070726f6475637400000000000000000000000000000000\n        /* \"#utility.yul\":25837:25839   */\n      0x20\n        /* \"#utility.yul\":25829:25835   */\n      dup3\n        /* \"#utility.yul\":25825:25840   */\n      add\n        /* \"#utility.yul\":25818:25861   */\n      mstore\n        /* \"#utility.yul\":25633:25868   */\n      pop\n      jump\t// out\n        /* \"#utility.yul\":25874:25996   */\n    tag_400:\n        /* \"#utility.yul\":25947:25971   */\n      tag_618\n        /* \"#utility.yul\":25965:25970   */\n      dup2\n        /* \"#utility.yul\":25947:25971   */\n      tag_523\n      jump\t// in\n    tag_618:\n        /* \"#utility.yul\":25940:25945   */\n      dup2\n        /* \"#utility.yul\":25937:25972   */\n      eq\n        /* \"#utility.yul\":25927:25990   */\n      tag_619\n      jumpi\n        /* \"#utility.yul\":25986:25987   */\n      0x00\n        /* \"#utility.yul\":25983:25984   */\n      dup1\n        /* \"#utility.yul\":25976:25988   */\n      revert\n        /* \"#utility.yul\":25927:25990   */\n    tag_619:\n        /* \"#utility.yul\":25874:25996   */\n      pop\n      jump\t// out\n\n    auxdata: 0xa2646970667358221220187009bc86f29b10fb99fb4a19d5460f5d2908a8d5fceab99a9d31831316331864736f6c63430008070033\n}\n",
				"bytecode": {
					"linkReferences": {},
					"object": "6080604052336000806101000a81548173ffffffffffffffffffffffffffffffffffffffff021916908373ffffffffffffffffffffffffffffffffffffffff160217905550600060025534801561005557600080fd5b506132d4806100656000396000f3fe608060405234801561001057600080fd5b50600436106101215760003560e01c806390175af1116100ad578063bbb7b0c311610071578063bbb7b0c314610348578063cb80c41914610364578063cda5e4a514610394578063cea23121146103c4578063d8459464146103f757610121565b806390175af11461029157806395d00407146102c4578063ae2ce444146102e0578063b55be240146102fc578063b9db15b41461031857610121565b80637acc0b20116100f45780637acc0b20146101d557806381d9def21461020b578063897ec7df146102275780638f29695a146102595780638f5ae7991461027557610121565b806315533a2714610126578063333f3dd0146101425780633779643f1461017257806350b492ba146101a2575b600080fd5b610140600480360381019061013b91906126ba565b610413565b005b61015c6004803603810190610157919061278e565b6105b7565b6040516101699190612d16565b60405180910390f35b61018c6004803603810190610187919061278e565b610774565b6040516101999190612dce565b60405180910390f35b6101bc60048036038101906101b7919061278e565b610931565b6040516101cc9493929190612df0565b60405180910390f35b6101ef60048036038101906101ea919061278e565b610a71565b6040516102029796959493929190612e81565b60405180910390f35b610225600480360381019061022091906126ba565b610c4b565b005b610241600480360381019061023c919061278e565b610def565b60405161025093929190612e43565b60405180910390f35b610273600480360381019061026e9190612703565b610ea1565b005b61028f600480360381019061028a91906126ba565b61108c565b005b6102ab60048036038101906102a6919061278e565b611230565b6040516102bb9493929190612df0565b60405180910390f35b6102de60048036038101906102d991906126ba565b611370565b005b6102fa60048036038101906102f591906127fb565b6114b9565b005b610316600480360381019061031191906127fb565b611725565b005b610332600480360381019061032d919061278e565b611974565b60405161033f9190612d5a565b60405180910390f35b610362600480360381019061035d91906127fb565b611bd8565b005b61037e6004803603810190610379919061278e565b611e44565b60405161038b9190612d38565b60405180910390f35b6103ae60048036038101906103a9919061278e565b612001565b6040516103bb9190612dac565b60405180910390f35b6103de60048036038101906103d9919061278e565b61212c565b6040516103ee9493929190612df0565b60405180910390f35b610411600480360381019061040c91906127bb565b61226c565b005b61041b61244b565b81424460405160200161043093929190612c78565b6040516020818303038152906040528051906020012060001c8160000181815250506040518060400160405280600281526020017f53550000000000000000000000000000000000000000000000000000000000008152508160200181905250818160400181905250600067ffffffffffffffff8111156104b4576104b3613146565b5b6040519080825280602002602001820160405280156104e25781602001602082028036833780820191505090505b508160800181905250600081606001818152505080600360008360000151815260200190815260200160002060008201518160000155602082015181600101908051906020019061053492919061247a565b50604082015181600201908051906020019061055192919061247a565b50606082015181600301556080820151816004019080519060200190610578929190612500565b509050507fee9505fb4b731a28d44a5a188b63fa0a798a849227f2c8fc34ce812dc1a4d91f816040516105ab9190612dce565b60405180910390a15050565b6105bf61254d565b600560008381526020019081526020016000206040518060a0016040529081600082015481526020016001820180546105f79061300d565b80601f01602080910402602001604051908101604052809291908181526020018280546106239061300d565b80156106705780601f1061064557610100808354040283529160200191610670565b820191906000526020600020905b81548152906001019060200180831161065357829003601f168201915b505050505081526020016002820180546106899061300d565b80601f01602080910402602001604051908101604052809291908181526020018280546106b59061300d565b80156107025780601f106106d757610100808354040283529160200191610702565b820191906000526020600020905b8154815290600101906020018083116106e557829003601f168201915b50505050508152602001600382015481526020016004820180548060200260200160405190810160405280929190818152602001828054801561076457602002820191906000526020600020905b815481526020019060010190808311610750575b5050505050815250509050919050565b61077c61244b565b600360008381526020019081526020016000206040518060a0016040529081600082015481526020016001820180546107b49061300d565b80601f01602080910402602001604051908101604052809291908181526020018280546107e09061300d565b801561082d5780601f106108025761010080835404028352916020019161082d565b820191906000526020600020905b81548152906001019060200180831161081057829003601f168201915b505050505081526020016002820180546108469061300d565b80601f01602080910402602001604051908101604052809291908181526020018280546108729061300d565b80156108bf5780601f10610894576101008083540402835291602001916108bf565b820191906000526020600020905b8154815290600101906020018083116108a257829003601f168201915b50505050508152602001600382015481526020016004820180548060200260200160405190810160405280929190818152602001828054801561092157602002820191906000526020600020905b81548152602001906001019080831161090d575b5050505050815250509050919050565b600560205280600052604060002060009150905080600001549080600101805461095a9061300d565b80601f01602080910402602001604051908101604052809291908181526020018280546109869061300d565b80156109d35780601f106109a8576101008083540402835291602001916109d3565b820191906000526020600020905b8154815290600101906020018083116109b657829003601f168201915b5050505050908060020180546109e89061300d565b80601f0160208091040260200160405190810160405280929190818152602001828054610a149061300d565b8015610a615780601f10610a3657610100808354040283529160200191610a61565b820191906000526020600020905b815481529060010190602001808311610a4457829003601f168201915b5050505050908060030154905084565b6001602052806000526040600020600091509050806000015490806001018054610a9a9061300d565b80601f0160208091040260200160405190810160405280929190818152602001828054610ac69061300d565b8015610b135780601f10610ae857610100808354040283529160200191610b13565b820191906000526020600020905b815481529060010190602001808311610af657829003601f168201915b505050505090806002015490806003018054610b2e9061300d565b80601f0160208091040260200160405190810160405280929190818152602001828054610b5a9061300d565b8015610ba75780601f10610b7c57610100808354040283529160200191610ba7565b820191906000526020600020905b815481529060010190602001808311610b8a57829003601f168201915b505050505090806005015490806006018054610bc29061300d565b80601f0160208091040260200160405190810160405280929190818152602001828054610bee9061300d565b8015610c3b5780601f10610c1057610100808354040283529160200191610c3b565b820191906000526020600020905b815481529060010190602001808311610c1e57829003601f168201915b5050505050908060070154905087565b610c5361254d565b814244604051602001610c6893929190612c78565b6040516020818303038152906040528051906020012060001c8160000181815250506040518060400160405280600281526020017f44490000000000000000000000000000000000000000000000000000000000008152508160200181905250818160400181905250600067ffffffffffffffff811115610cec57610ceb613146565b5b604051908082528060200260200182016040528015610d1a5781602001602082028036833780820191505090505b5081608001819052506000816060018181525050806005600083600001518152602001908152602001600020600082015181600001556020820151816001019080519060200190610d6c92919061247a565b506040820151816002019080519060200190610d8992919061247a565b50606082015181600301556080820151816004019080519060200190610db0929190612500565b509050507f40e1cdda6dd76675162fedde8a906becf47f84719815309b901e098f5d5c3c2881604051610de39190612d16565b60405180910390a15050565b6006602052806000526040600020600091509050806000015490806001018054610e189061300d565b80601f0160208091040260200160405190810160405280929190818152602001828054610e449061300d565b8015610e915780601f10610e6657610100808354040283529160200191610e91565b820191906000526020600020905b815481529060010190602001808311610e7457829003601f168201915b5050505050908060020154905083565b610ea961257c565b834244604051602001610ebe93929190612c78565b6040516020818303038152906040528051906020012060001c81600001818152505083816020018190525082816040018181525050818160600181905250604051806020016040528060008152508160c0018190525060008160e0018181525050600067ffffffffffffffff811115610f3a57610f39613146565b5b604051908082528060200260200182016040528015610f685781602001602082028036833780820191505090505b50816080018190525060008160a0018181525050806001600083600001518152602001908152602001600020600082015181600001556020820151816001019080519060200190610fba92919061247a565b50604082015181600201556060820151816003019080519060200190610fe192919061247a565b506080820151816004019080519060200190610ffe929190612500565b5060a0820151816005015560c082015181600601908051906020019061102592919061247a565b5060e082015181600701559050506002600081548092919061104690613070565b91905055507fdd8688f80c62eab88b445b6a5f414e69ff40be1584ddb10b6a9bc6cf68b17f2f8160025460405161107e929190612d7c565b60405180910390a150505050565b6110946125c1565b8142446040516020016110a993929190612c78565b6040516020818303038152906040528051906020012060001c8160000181815250506040518060400160405280600281526020017f4d410000000000000000000000000000000000000000000000000000000000008152508160200181905250818160400181905250600067ffffffffffffffff81111561112d5761112c613146565b5b60405190808252806020026020018201604052801561115b5781602001602082028036833780820191505090505b50816080018190525060008160600181815250508060046000836000015181526020019081526020016000206000820151816000015560208201518160010190805190602001906111ad92919061247a565b5060408201518160020190805190602001906111ca92919061247a565b506060820151816003015560808201518160040190805190602001906111f1929190612500565b509050507fb1e82a9de3004148c987ca0908a70c35e11ef17a995dcda89ee4428f905e9794816040516112249190612d38565b60405180910390a15050565b60046020528060005260406000206000915090508060000154908060010180546112599061300d565b80601f01602080910402602001604051908101604052809291908181526020018280546112859061300d565b80156112d25780601f106112a7576101008083540402835291602001916112d2565b820191906000526020600020905b8154815290600101906020018083116112b557829003601f168201915b5050505050908060020180546112e79061300d565b80601f01602080910402602001604051908101604052809291908181526020018280546113139061300d565b80156113605780601f1061133557610100808354040283529160200191611360565b820191906000526020600020905b81548152906001019060200180831161134357829003601f168201915b5050505050908060030154905084565b6113786125f0565b81424460405160200161138d93929190612c78565b6040516020818303038152906040528051906020012060001c816000018181525050818160200181905250600067ffffffffffffffff8111156113d3576113d2613146565b5b6040519080825280602002602001820160405280156114015781602001602082028036833780820191505090505b508160600181905250600081604001818152505080600660008360000151815260200190815260200160002060008201518160000155602082015181600101908051906020019061145392919061247a565b5060408201518160020155606082015181600301908051906020019061147a929190612500565b509050507f48b295dbd2dde57075e837c2add5113c3a864d21ad68e1acb6ec3233afea585f816040516114ad9190612dac565b60405180910390a15050565b60006114c484611974565b9050828160e001511461150c576040517f08c379a000000000000000000000000000000000000000000000000000000000815260040161150390612cb6565b60405180910390fd5b600061151784611e44565b90506000611524846105b7565b905080604001518360c0018190525080600001518360e00181815250508483608001518460a001805180919061155990613070565b8152508151811061156d5761156c613117565b5b60200260200101818152505082600160008881526020019081526020016000206000820151816000015560208201518160010190805190602001906115b392919061247a565b506040820151816002015560608201518160030190805190602001906115da92919061247a565b5060808201518160040190805190602001906115f7929190612500565b5060a0820151816005015560c082015181600601908051906020019061161e92919061247a565b5060e0820151816007015590505085816080015182606001805180919061164490613070565b8152508151811061165857611657613117565b5b602002602001018181525050806005600086815260200190815260200160002060008201518160000155602082015181600101908051906020019061169e92919061247a565b5060408201518160020190805190602001906116bb92919061247a565b506060820151816003015560808201518160040190805190602001906116e2929190612500565b509050507fdb38a0f551885a9e8666b66db8057c351d8f70150c869d99953a3051b52cc36a836040516117159190612d5a565b60405180910390a1505050505050565b600061173084611974565b9050828160e0015114611778576040517f08c379a000000000000000000000000000000000000000000000000000000000815260040161176f90612cd6565b60405180910390fd5b6000611783846105b7565b9050600061179084612001565b905080602001518360c0018190525080600001518360e00181815250508483608001518460a00180518091906117c590613070565b815250815181106117d9576117d8613117565b5b602002602001018181525050826001600088815260200190815260200160002060008201518160000155602082015181600101908051906020019061181f92919061247a565b5060408201518160020155606082015181600301908051906020019061184692919061247a565b506080820151816004019080519060200190611863929190612500565b5060a0820151816005015560c082015181600601908051906020019061188a92919061247a565b5060e082015181600701559050508581606001518260400180518091906118b090613070565b815250815181106118c4576118c3613117565b5b602002602001018181525050806006600086815260200190815260200160002060008201518160000155602082015181600101908051906020019061190a92919061247a565b50604082015181600201556060820151816003019080519060200190611931929190612500565b509050507fdb38a0f551885a9e8666b66db8057c351d8f70150c869d99953a3051b52cc36a836040516119649190612d5a565b60405180910390a1505050505050565b61197c61257c565b6001600083815260200190815260200160002060405180610100016040529081600082015481526020016001820180546119b59061300d565b80601f01602080910402602001604051908101604052809291908181526020018280546119e19061300d565b8015611a2e5780601f10611a0357610100808354040283529160200191611a2e565b820191906000526020600020905b815481529060010190602001808311611a1157829003601f168201915b5050505050815260200160028201548152602001600382018054611a519061300d565b80601f0160208091040260200160405190810160405280929190818152602001828054611a7d9061300d565b8015611aca5780601f10611a9f57610100808354040283529160200191611aca565b820191906000526020600020905b815481529060010190602001808311611aad57829003601f168201915b5050505050815260200160048201805480602002602001604051908101604052809291908181526020018280548015611b2257602002820191906000526020600020905b815481526020019060010190808311611b0e575b5050505050815260200160058201548152602001600682018054611b459061300d565b80601f0160208091040260200160405190810160405280929190818152602001828054611b719061300d565b8015611bbe5780601f10611b9357610100808354040283529160200191611bbe565b820191906000526020600020905b815481529060010190602001808311611ba157829003601f168201915b505050505081526020016007820154815250509050919050565b6000611be384611974565b9050828160e0015114611c2b576040517f08c379a0000000000000000000000000000000000000000000000000000000008152600401611c2290612cf6565b60405180910390fd5b6000611c3684610774565b90506000611c4384611e44565b905080604001518360c0018190525080600001518360e00181815250508483608001518460a0018051809190611c7890613070565b81525081518110611c8c57611c8b613117565b5b6020026020010181815250508260016000888152602001908152602001600020600082015181600001556020820151816001019080519060200190611cd292919061247a565b50604082015181600201556060820151816003019080519060200190611cf992919061247a565b506080820151816004019080519060200190611d16929190612500565b5060a0820151816005015560c0820151816006019080519060200190611d3d92919061247a565b5060e08201518160070155905050858160800151826060018051809190611d6390613070565b81525081518110611d7757611d76613117565b5b6020026020010181815250508060046000868152602001908152602001600020600082015181600001556020820151816001019080519060200190611dbd92919061247a565b506040820151816002019080519060200190611dda92919061247a565b50606082015181600301556080820151816004019080519060200190611e01929190612500565b509050507fdb38a0f551885a9e8666b66db8057c351d8f70150c869d99953a3051b52cc36a83604051611e349190612d5a565b60405180910390a1505050505050565b611e4c6125c1565b600460008381526020019081526020016000206040518060a001604052908160008201548152602001600182018054611e849061300d565b80601f0160208091040260200160405190810160405280929190818152602001828054611eb09061300d565b8015611efd5780601f10611ed257610100808354040283529160200191611efd565b820191906000526020600020905b815481529060010190602001808311611ee057829003601f168201915b50505050508152602001600282018054611f169061300d565b80601f0160208091040260200160405190810160405280929190818152602001828054611f429061300d565b8015611f8f5780601f10611f6457610100808354040283529160200191611f8f565b820191906000526020600020905b815481529060010190602001808311611f7257829003601f168201915b505050505081526020016003820154815260200160048201805480602002602001604051908101604052809291908181526020018280548015611ff157602002820191906000526020600020905b815481526020019060010190808311611fdd575b5050505050815250509050919050565b6120096125f0565b60066000838152602001908152602001600020604051806080016040529081600082015481526020016001820180546120419061300d565b80601f016020809104026020016040519081016040528092919081815260200182805461206d9061300d565b80156120ba5780601f1061208f576101008083540402835291602001916120ba565b820191906000526020600020905b81548152906001019060200180831161209d57829003601f168201915b50505050508152602001600282015481526020016003820180548060200260200160405190810160405280929190818152602001828054801561211c57602002820191906000526020600020905b815481526020019060010190808311612108575b5050505050815250509050919050565b60036020528060005260406000206000915090508060000154908060010180546121559061300d565b80601f01602080910402602001604051908101604052809291908181526020018280546121819061300d565b80156121ce5780601f106121a3576101008083540402835291602001916121ce565b820191906000526020600020905b8154815290600101906020018083116121b157829003601f168201915b5050505050908060020180546121e39061300d565b80601f016020809104026020016040519081016040528092919081815260200182805461220f9061300d565b801561225c5780601f106122315761010080835404028352916020019161225c565b820191906000526020600020905b81548152906001019060200180831161223f57829003601f168201915b5050505050908060030154905084565b600061227782610774565b9050600061228484611974565b905081604001518160c0018190525081600001518160e001818152505080600160008681526020019081526020016000206000820151816000015560208201518160010190805190602001906122db92919061247a565b5060408201518160020155606082015181600301908051906020019061230292919061247a565b50608082015181600401908051906020019061231f929190612500565b5060a0820151816005015560c082015181600601908051906020019061234692919061247a565b5060e0820151816007015590505083826080015183606001805180919061236c90613070565b815250815181106123805761237f613117565b5b60200260200101818152505081600360008581526020019081526020016000206000820151816000015560208201518160010190805190602001906123c692919061247a565b5060408201518160020190805190602001906123e392919061247a565b5060608201518160030155608082015181600401908051906020019061240a929190612500565b509050507fdb38a0f551885a9e8666b66db8057c351d8f70150c869d99953a3051b52cc36a8160405161243d9190612d5a565b60405180910390a150505050565b6040518060a0016040528060008152602001606081526020016060815260200160008152602001606081525090565b8280546124869061300d565b90600052602060002090601f0160209004810192826124a857600085556124ef565b82601f106124c157805160ff19168380011785556124ef565b828001600101855582156124ef579182015b828111156124ee5782518255916020019190600101906124d3565b5b5090506124fc9190612618565b5090565b82805482825590600052602060002090810192821561253c579160200282015b8281111561253b578251825591602001919060010190612520565b5b5090506125499190612618565b5090565b6040518060a0016040528060008152602001606081526020016060815260200160008152602001606081525090565b60405180610100016040528060008152602001606081526020016000815260200160608152602001606081526020016000815260200160608152602001600081525090565b6040518060a0016040528060008152602001606081526020016060815260200160008152602001606081525090565b6040518060800160405280600081526020016060815260200160008152602001606081525090565b5b80821115612631576000816000905550600101612619565b5090565b600061264861264384612f2a565b612f05565b9050828152602081018484840111156126645761266361317a565b5b61266f848285612fcb565b509392505050565b600082601f83011261268c5761268b613175565b5b813561269c848260208601612635565b91505092915050565b6000813590506126b481613287565b92915050565b6000602082840312156126d0576126cf613184565b5b600082013567ffffffffffffffff8111156126ee576126ed61317f565b5b6126fa84828501612677565b91505092915050565b60008060006060848603121561271c5761271b613184565b5b600084013567ffffffffffffffff81111561273a5761273961317f565b5b61274686828701612677565b9350506020612757868287016126a5565b925050604084013567ffffffffffffffff8111156127785761277761317f565b5b61278486828701612677565b9150509250925092565b6000602082840312156127a4576127a3613184565b5b60006127b2848285016126a5565b91505092915050565b600080604083850312156127d2576127d1613184565b5b60006127e0858286016126a5565b92505060206127f1858286016126a5565b9150509250929050565b60008060006060848603121561281457612813613184565b5b6000612822868287016126a5565b9350506020612833868287016126a5565b9250506040612844868287016126a5565b9150509250925092565b600061285a8383612c5a565b60208301905092915050565b600061287182612f6b565b61287b8185612f8e565b935061288683612f5b565b8060005b838110156128b757815161289e888261284e565b97506128a983612f81565b92505060018101905061288a565b5085935050505092915050565b60006128cf82612f76565b6128d98185612f9f565b93506128e9818560208601612fda565b6128f281613189565b840191505092915050565b600061290882612f76565b6129128185612fb0565b9350612922818560208601612fda565b61292b81613189565b840191505092915050565b6000612943603483612fb0565b915061294e8261319a565b604082019050919050565b6000612966603383612fb0565b9150612971826131e9565b604082019050919050565b6000612989603083612fb0565b915061299482613238565b604082019050919050565b600060a0830160008301516129b76000860182612c5a565b50602083015184820360208601526129cf82826128c4565b915050604083015184820360408601526129e982826128c4565b91505060608301516129fe6060860182612c5a565b5060808301518482036080860152612a168282612866565b9150508091505092915050565b600060a083016000830151612a3b6000860182612c5a565b5060208301518482036020860152612a5382826128c4565b91505060408301518482036040860152612a6d82826128c4565b9150506060830151612a826060860182612c5a565b5060808301518482036080860152612a9a8282612866565b9150508091505092915050565b600061010083016000830151612ac06000860182612c5a565b5060208301518482036020860152612ad882826128c4565b9150506040830151612aed6040860182612c5a565b5060608301518482036060860152612b0582826128c4565b91505060808301518482036080860152612b1f8282612866565b91505060a0830151612b3460a0860182612c5a565b5060c083015184820360c0860152612b4c82826128c4565b91505060e0830151612b6160e0860182612c5a565b508091505092915050565b6000608083016000830151612b846000860182612c5a565b5060208301518482036020860152612b9c82826128c4565b9150506040830151612bb16040860182612c5a565b5060608301518482036060860152612bc98282612866565b9150508091505092915050565b600060a083016000830151612bee6000860182612c5a565b5060208301518482036020860152612c0682826128c4565b91505060408301518482036040860152612c2082826128c4565b9150506060830151612c356060860182612c5a565b5060808301518482036080860152612c4d8282612866565b9150508091505092915050565b612c6381612fc1565b82525050565b612c7281612fc1565b82525050565b60006060820190508181036000830152612c9281866128fd565b9050612ca16020830185612c69565b612cae6040830184612c69565b949350505050565b60006020820190508181036000830152612ccf81612936565b9050919050565b60006020820190508181036000830152612cef81612959565b9050919050565b60006020820190508181036000830152612d0f8161297c565b9050919050565b60006020820190508181036000830152612d30818461299f565b905092915050565b60006020820190508181036000830152612d528184612a23565b905092915050565b60006020820190508181036000830152612d748184612aa7565b905092915050565b60006040820190508181036000830152612d968185612aa7565b9050612da56020830184612c69565b9392505050565b60006020820190508181036000830152612dc68184612b6c565b905092915050565b60006020820190508181036000830152612de88184612bd6565b905092915050565b6000608082019050612e056000830187612c69565b8181036020830152612e1781866128fd565b90508181036040830152612e2b81856128fd565b9050612e3a6060830184612c69565b95945050505050565b6000606082019050612e586000830186612c69565b8181036020830152612e6a81856128fd565b9050612e796040830184612c69565b949350505050565b600060e082019050612e96600083018a612c69565b8181036020830152612ea881896128fd565b9050612eb76040830188612c69565b8181036060830152612ec981876128fd565b9050612ed86080830186612c69565b81810360a0830152612eea81856128fd565b9050612ef960c0830184612c69565b98975050505050505050565b6000612f0f612f20565b9050612f1b828261303f565b919050565b6000604051905090565b600067ffffffffffffffff821115612f4557612f44613146565b5b612f4e82613189565b9050602081019050919050565b6000819050602082019050919050565b600081519050919050565b600081519050919050565b6000602082019050919050565b600082825260208201905092915050565b600082825260208201905092915050565b600082825260208201905092915050565b6000819050919050565b82818337600083830152505050565b60005b83811015612ff8578082015181840152602081019050612fdd565b83811115613007576000848401525b50505050565b6000600282049050600182168061302557607f821691505b60208210811415613039576130386130e8565b5b50919050565b61304882613189565b810181811067ffffffffffffffff8211171561306757613066613146565b5b80604052505050565b600061307b82612fc1565b91507fffffffffffffffffffffffffffffffffffffffffffffffffffffffffffffffff8214156130ae576130ad6130b9565b5b600182019050919050565b7f4e487b7100000000000000000000000000000000000000000000000000000000600052601160045260246000fd5b7f4e487b7100000000000000000000000000000000000000000000000000000000600052602260045260246000fd5b7f4e487b7100000000000000000000000000000000000000000000000000000000600052603260045260246000fd5b7f4e487b7100000000000000000000000000000000000000000000000000000000600052604160045260246000fd5b600080fd5b600080fd5b600080fd5b600080fd5b6000601f19601f8301169050919050565b7f4d616e756661637475726572206973206e6f74207468652063757272656e742060008201527f6f776e6572206f66207468652070726f64756374000000000000000000000000602082015250565b7f4469737472696275746f72206973206e6f74207468652063757272656e74206f60008201527f776e6572206f66207468652070726f6475637400000000000000000000000000602082015250565b7f537570706c696572206973206e6f74207468652063757272656e74206f776e6560008201527f72206f66207468652070726f6475637400000000000000000000000000000000602082015250565b61329081612fc1565b811461329b57600080fd5b5056fea2646970667358221220187009bc86f29b10fb99fb4a19d5460f5d2908a8d5fceab99a9d31831316331864736f6c63430008070033",
					"opcodes": "PUSH1 0x80 PUSH1 0x40 MSTORE CALLER PUSH1 0x0 DUP1 PUSH2 0x100 EXP DUP2 SLOAD DUP2 PUSH20 0xFFFFFFFFFFFFFFFFFFFFFFFFFFFFFFFFFFFFFFFF MUL NOT AND SWAP1 DUP4 PUSH20 0xFFFFFFFFFFFFFFFFFFFFFFFFFFFFFFFFFFFFFFFF AND MUL OR SWAP1 SSTORE POP PUSH1 0x0 PUSH1 0x2 SSTORE CALLVALUE DUP1 ISZERO PUSH2 0x55 JUMPI PUSH1 0x0 DUP1 REVERT JUMPDEST POP PUSH2 0x32D4 DUP1 PUSH2 0x65 PUSH1 0x0 CODECOPY PUSH1 0x0 RETURN INVALID PUSH1 0x80 PUSH1 0x40 MSTORE CALLVALUE DUP1 ISZERO PUSH2 0x10 JUMPI PUSH1 0x0 DUP1 REVERT JUMPDEST POP PUSH1 0x4 CALLDATASIZE LT PUSH2 0x121 JUMPI PUSH1 0x0 CALLDATALOAD PUSH1 0xE0 SHR DUP1 PUSH4 0x90175AF1 GT PUSH2 0xAD JUMPI DUP1 PUSH4 0xBBB7B0C3 GT PUSH2 0x71 JUMPI DUP1 PUSH4 0xBBB7B0C3 EQ PUSH2 0x348 JUMPI DUP1 PUSH4 0xCB80C419 EQ PUSH2 0x364 JUMPI DUP1 PUSH4 0xCDA5E4A5 EQ PUSH2 0x394 JUMPI DUP1 PUSH4 0xCEA23121 EQ PUSH2 0x3C4 JUMPI DUP1 PUSH4 0xD8459464 EQ PUSH2 0x3F7 JUMPI PUSH2 0x121 JUMP JUMPDEST DUP1 PUSH4 0x90175AF1 EQ PUSH2 0x291 JUMPI DUP1 PUSH4 0x95D00407 EQ PUSH2 0x2C4 JUMPI DUP1 PUSH4 0xAE2CE444 EQ PUSH2 0x2E0 JUMPI DUP1 PUSH4 0xB55BE240 EQ PUSH2 0x2FC JUMPI DUP1 PUSH4 0xB9DB15B4 EQ PUSH2 0x318 JUMPI PUSH2 0x121 JUMP JUMPDEST DUP1 PUSH4 0x7ACC0B20 GT PUSH2 0xF4 JUMPI DUP1 PUSH4 0x7ACC0B20 EQ PUSH2 0x1D5 JUMPI DUP1 PUSH4 0x81D9DEF2 EQ PUSH2 0x20B JUMPI DUP1 PUSH4 0x897EC7DF EQ PUSH2 0x227 JUMPI DUP1 PUSH4 0x8F29695A EQ PUSH2 0x259 JUMPI DUP1 PUSH4 0x8F5AE799 EQ PUSH2 0x275 JUMPI PUSH2 0x121 JUMP JUMPDEST DUP1 PUSH4 0x15533A27 EQ PUSH2 0x126 JUMPI DUP1 PUSH4 0x333F3DD0 EQ PUSH2 0x142 JUMPI DUP1 PUSH4 0x3779643F EQ PUSH2 0x172 JUMPI DUP1 PUSH4 0x50B492BA EQ PUSH2 0x1A2 JUMPI JUMPDEST PUSH1 0x0 DUP1 REVERT JUMPDEST PUSH2 0x140 PUSH1 0x4 DUP1 CALLDATASIZE SUB DUP2 ADD SWAP1 PUSH2 0x13B SWAP2 SWAP1 PUSH2 0x26BA JUMP JUMPDEST PUSH2 0x413 JUMP JUMPDEST STOP JUMPDEST PUSH2 0x15C PUSH1 0x4 DUP1 CALLDATASIZE SUB DUP2 ADD SWAP1 PUSH2 0x157 SWAP2 SWAP1 PUSH2 0x278E JUMP JUMPDEST PUSH2 0x5B7 JUMP JUMPDEST PUSH1 0x40 MLOAD PUSH2 0x169 SWAP2 SWAP1 PUSH2 0x2D16 JUMP JUMPDEST PUSH1 0x40 MLOAD DUP1 SWAP2 SUB SWAP1 RETURN JUMPDEST PUSH2 0x18C PUSH1 0x4 DUP1 CALLDATASIZE SUB DUP2 ADD SWAP1 PUSH2 0x187 SWAP2 SWAP1 PUSH2 0x278E JUMP JUMPDEST PUSH2 0x774 JUMP JUMPDEST PUSH1 0x40 MLOAD PUSH2 0x199 SWAP2 SWAP1 PUSH2 0x2DCE JUMP JUMPDEST PUSH1 0x40 MLOAD DUP1 SWAP2 SUB SWAP1 RETURN JUMPDEST PUSH2 0x1BC PUSH1 0x4 DUP1 CALLDATASIZE SUB DUP2 ADD SWAP1 PUSH2 0x1B7 SWAP2 SWAP1 PUSH2 0x278E JUMP JUMPDEST PUSH2 0x931 JUMP JUMPDEST PUSH1 0x40 MLOAD PUSH2 0x1CC SWAP5 SWAP4 SWAP3 SWAP2 SWAP1 PUSH2 0x2DF0 JUMP JUMPDEST PUSH1 0x40 MLOAD DUP1 SWAP2 SUB SWAP1 RETURN JUMPDEST PUSH2 0x1EF PUSH1 0x4 DUP1 CALLDATASIZE SUB DUP2 ADD SWAP1 PUSH2 0x1EA SWAP2 SWAP1 PUSH2 0x278E JUMP JUMPDEST PUSH2 0xA71 JUMP JUMPDEST PUSH1 0x40 MLOAD PUSH2 0x202 SWAP8 SWAP7 SWAP6 SWAP5 SWAP4 SWAP3 SWAP2 SWAP1 PUSH2 0x2E81 JUMP JUMPDEST PUSH1 0x40 MLOAD DUP1 SWAP2 SUB SWAP1 RETURN JUMPDEST PUSH2 0x225 PUSH1 0x4 DUP1 CALLDATASIZE SUB DUP2 ADD SWAP1 PUSH2 0x220 SWAP2 SWAP1 PUSH2 0x26BA JUMP JUMPDEST PUSH2 0xC4B JUMP JUMPDEST STOP JUMPDEST PUSH2 0x241 PUSH1 0x4 DUP1 CALLDATASIZE SUB DUP2 ADD SWAP1 PUSH2 0x23C SWAP2 SWAP1 PUSH2 0x278E JUMP JUMPDEST PUSH2 0xDEF JUMP JUMPDEST PUSH1 0x40 MLOAD PUSH2 0x250 SWAP4 SWAP3 SWAP2 SWAP1 PUSH2 0x2E43 JUMP JUMPDEST PUSH1 0x40 MLOAD DUP1 SWAP2 SUB SWAP1 RETURN JUMPDEST PUSH2 0x273 PUSH1 0x4 DUP1 CALLDATASIZE SUB DUP2 ADD SWAP1 PUSH2 0x26E SWAP2 SWAP1 PUSH2 0x2703 JUMP JUMPDEST PUSH2 0xEA1 JUMP JUMPDEST STOP JUMPDEST PUSH2 0x28F PUSH1 0x4 DUP1 CALLDATASIZE SUB DUP2 ADD SWAP1 PUSH2 0x28A SWAP2 SWAP1 PUSH2 0x26BA JUMP JUMPDEST PUSH2 0x108C JUMP JUMPDEST STOP JUMPDEST PUSH2 0x2AB PUSH1 0x4 DUP1 CALLDATASIZE SUB DUP2 ADD SWAP1 PUSH2 0x2A6 SWAP2 SWAP1 PUSH2 0x278E JUMP JUMPDEST PUSH2 0x1230 JUMP JUMPDEST PUSH1 0x40 MLOAD PUSH2 0x2BB SWAP5 SWAP4 SWAP3 SWAP2 SWAP1 PUSH2 0x2DF0 JUMP JUMPDEST PUSH1 0x40 MLOAD DUP1 SWAP2 SUB SWAP1 RETURN JUMPDEST PUSH2 0x2DE PUSH1 0x4 DUP1 CALLDATASIZE SUB DUP2 ADD SWAP1 PUSH2 0x2D9 SWAP2 SWAP1 PUSH2 0x26BA JUMP JUMPDEST PUSH2 0x1370 JUMP JUMPDEST STOP JUMPDEST PUSH2 0x2FA PUSH1 0x4 DUP1 CALLDATASIZE SUB DUP2 ADD SWAP1 PUSH2 0x2F5 SWAP2 SWAP1 PUSH2 0x27FB JUMP JUMPDEST PUSH2 0x14B9 JUMP JUMPDEST STOP JUMPDEST PUSH2 0x316 PUSH1 0x4 DUP1 CALLDATASIZE SUB DUP2 ADD SWAP1 PUSH2 0x311 SWAP2 SWAP1 PUSH2 0x27FB JUMP JUMPDEST PUSH2 0x1725 JUMP JUMPDEST STOP JUMPDEST PUSH2 0x332 PUSH1 0x4 DUP1 CALLDATASIZE SUB DUP2 ADD SWAP1 PUSH2 0x32D SWAP2 SWAP1 PUSH2 0x278E JUMP JUMPDEST PUSH2 0x1974 JUMP JUMPDEST PUSH1 0x40 MLOAD PUSH2 0x33F SWAP2 SWAP1 PUSH2 0x2D5A JUMP JUMPDEST PUSH1 0x40 MLOAD DUP1 SWAP2 SUB SWAP1 RETURN JUMPDEST PUSH2 0x362 PUSH1 0x4 DUP1 CALLDATASIZE SUB DUP2 ADD SWAP1 PUSH2 0x35D SWAP2 SWAP1 PUSH2 0x27FB JUMP JUMPDEST PUSH2 0x1BD8 JUMP JUMPDEST STOP JUMPDEST PUSH2 0x37E PUSH1 0x4 DUP1 CALLDATASIZE SUB DUP2 ADD SWAP1 PUSH2 0x379 SWAP2 SWAP1 PUSH2 0x278E JUMP JUMPDEST PUSH2 0x1E44 JUMP JUMPDEST PUSH1 0x40 MLOAD PUSH2 0x38B SWAP2 SWAP1 PUSH2 0x2D38 JUMP JUMPDEST PUSH1 0x40 MLOAD DUP1 SWAP2 SUB SWAP1 RETURN JUMPDEST PUSH2 0x3AE PUSH1 0x4 DUP1 CALLDATASIZE SUB DUP2 ADD SWAP1 PUSH2 0x3A9 SWAP2 SWAP1 PUSH2 0x278E JUMP JUMPDEST PUSH2 0x2001 JUMP JUMPDEST PUSH1 0x40 MLOAD PUSH2 0x3BB SWAP2 SWAP1 PUSH2 0x2DAC JUMP JUMPDEST PUSH1 0x40 MLOAD DUP1 SWAP2 SUB SWAP1 RETURN JUMPDEST PUSH2 0x3DE PUSH1 0x4 DUP1 CALLDATASIZE SUB DUP2 ADD SWAP1 PUSH2 0x3D9 SWAP2 SWAP1 PUSH2 0x278E JUMP JUMPDEST PUSH2 0x212C JUMP JUMPDEST PUSH1 0x40 MLOAD PUSH2 0x3EE SWAP5 SWAP4 SWAP3 SWAP2 SWAP1 PUSH2 0x2DF0 JUMP JUMPDEST PUSH1 0x40 MLOAD DUP1 SWAP2 SUB SWAP1 RETURN JUMPDEST PUSH2 0x411 PUSH1 0x4 DUP1 CALLDATASIZE SUB DUP2 ADD SWAP1 PUSH2 0x40C SWAP2 SWAP1 PUSH2 0x27BB JUMP JUMPDEST PUSH2 0x226C JUMP JUMPDEST STOP JUMPDEST PUSH2 0x41B PUSH2 0x244B JUMP JUMPDEST DUP2 TIMESTAMP DIFFICULTY PUSH1 0x40 MLOAD PUSH1 0x20 ADD PUSH2 0x430 SWAP4 SWAP3 SWAP2 SWAP1 PUSH2 0x2C78 JUMP JUMPDEST PUSH1 0x40 MLOAD PUSH1 0x20 DUP2 DUP4 SUB SUB DUP2 MSTORE SWAP1 PUSH1 0x40 MSTORE DUP1 MLOAD SWAP1 PUSH1 0x20 ADD KECCAK256 PUSH1 0x0 SHR DUP2 PUSH1 0x0 ADD DUP2 DUP2 MSTORE POP POP PUSH1 0x40 MLOAD DUP1 PUSH1 0x40 ADD PUSH1 0x40 MSTORE DUP1 PUSH1 0x2 DUP2 MSTORE PUSH1 0x20 ADD PUSH32 0x5355000000000000000000000000000000000000000000000000000000000000 DUP2 MSTORE POP DUP2 PUSH1 0x20 ADD DUP2 SWAP1 MSTORE POP DUP2 DUP2 PUSH1 0x40 ADD DUP2 SWAP1 MSTORE POP PUSH1 0x0 PUSH8 0xFFFFFFFFFFFFFFFF DUP2 GT ISZERO PUSH2 0x4B4 JUMPI PUSH2 0x4B3 PUSH2 0x3146 JUMP JUMPDEST JUMPDEST PUSH1 0x40 MLOAD SWAP1 DUP1 DUP3 MSTORE DUP1 PUSH1 0x20 MUL PUSH1 0x20 ADD DUP3 ADD PUSH1 0x40 MSTORE DUP1 ISZERO PUSH2 0x4E2 JUMPI DUP2 PUSH1 0x20 ADD PUSH1 0x20 DUP3 MUL DUP1 CALLDATASIZE DUP4 CALLDATACOPY DUP1 DUP3 ADD SWAP2 POP POP SWAP1 POP JUMPDEST POP DUP2 PUSH1 0x80 ADD DUP2 SWAP1 MSTORE POP PUSH1 0x0 DUP2 PUSH1 0x60 ADD DUP2 DUP2 MSTORE POP POP DUP1 PUSH1 0x3 PUSH1 0x0 DUP4 PUSH1 0x0 ADD MLOAD DUP2 MSTORE PUSH1 0x20 ADD SWAP1 DUP2 MSTORE PUSH1 0x20 ADD PUSH1 0x0 KECCAK256 PUSH1 0x0 DUP3 ADD MLOAD DUP2 PUSH1 0x0 ADD SSTORE PUSH1 0x20 DUP3 ADD MLOAD DUP2 PUSH1 0x1 ADD SWAP1 DUP1 MLOAD SWAP1 PUSH1 0x20 ADD SWAP1 PUSH2 0x534 SWAP3 SWAP2 SWAP1 PUSH2 0x247A JUMP JUMPDEST POP PUSH1 0x40 DUP3 ADD MLOAD DUP2 PUSH1 0x2 ADD SWAP1 DUP1 MLOAD SWAP1 PUSH1 0x20 ADD SWAP1 PUSH2 0x551 SWAP3 SWAP2 SWAP1 PUSH2 0x247A JUMP JUMPDEST POP PUSH1 0x60 DUP3 ADD MLOAD DUP2 PUSH1 0x3 ADD SSTORE PUSH1 0x80 DUP3 ADD MLOAD DUP2 PUSH1 0x4 ADD SWAP1 DUP1 MLOAD SWAP1 PUSH1 0x20 ADD SWAP1 PUSH2 0x578 SWAP3 SWAP2 SWAP1 PUSH2 0x2500 JUMP JUMPDEST POP SWAP1 POP POP PUSH32 0xEE9505FB4B731A28D44A5A188B63FA0A798A849227F2C8FC34CE812DC1A4D91F DUP2 PUSH1 0x40 MLOAD PUSH2 0x5AB SWAP2 SWAP1 PUSH2 0x2DCE JUMP JUMPDEST PUSH1 0x40 MLOAD DUP1 SWAP2 SUB SWAP1 LOG1 POP POP JUMP JUMPDEST PUSH2 0x5BF PUSH2 0x254D JUMP JUMPDEST PUSH1 0x5 PUSH1 0x0 DUP4 DUP2 MSTORE PUSH1 0x20 ADD SWAP1 DUP2 MSTORE PUSH1 0x20 ADD PUSH1 0x0 KECCAK256 PUSH1 0x40 MLOAD DUP1 PUSH1 0xA0 ADD PUSH1 0x40 MSTORE SWAP1 DUP2 PUSH1 0x0 DUP3 ADD SLOAD DUP2 MSTORE PUSH1 0x20 ADD PUSH1 0x1 DUP3 ADD DUP1 SLOAD PUSH2 0x5F7 SWAP1 PUSH2 0x300D JUMP JUMPDEST DUP1 PUSH1 0x1F ADD PUSH1 0x20 DUP1 SWAP2 DIV MUL PUSH1 0x20 ADD PUSH1 0x40 MLOAD SWAP1 DUP2 ADD PUSH1 0x40 MSTORE DUP1 SWAP3 SWAP2 SWAP1 DUP2 DUP2 MSTORE PUSH1 0x20 ADD DUP3 DUP1 SLOAD PUSH2 0x623 SWAP1 PUSH2 0x300D JUMP JUMPDEST DUP1 ISZERO PUSH2 0x670 JUMPI DUP1 PUSH1 0x1F LT PUSH2 0x645 JUMPI PUSH2 0x100 DUP1 DUP4 SLOAD DIV MUL DUP4 MSTORE SWAP2 PUSH1 0x20 ADD SWAP2 PUSH2 0x670 JUMP JUMPDEST DUP3 ADD SWAP2 SWAP1 PUSH1 0x0 MSTORE PUSH1 0x20 PUSH1 0x0 KECCAK256 SWAP1 JUMPDEST DUP2 SLOAD DUP2 MSTORE SWAP1 PUSH1 0x1 ADD SWAP1 PUSH1 0x20 ADD DUP1 DUP4 GT PUSH2 0x653 JUMPI DUP3 SWAP1 SUB PUSH1 0x1F AND DUP3 ADD SWAP2 JUMPDEST POP POP POP POP POP DUP2 MSTORE PUSH1 0x20 ADD PUSH1 0x2 DUP3 ADD DUP1 SLOAD PUSH2 0x689 SWAP1 PUSH2 0x300D JUMP JUMPDEST DUP1 PUSH1 0x1F ADD PUSH1 0x20 DUP1 SWAP2 DIV MUL PUSH1 0x20 ADD PUSH1 0x40 MLOAD SWAP1 DUP2 ADD PUSH1 0x40 MSTORE DUP1 SWAP3 SWAP2 SWAP1 DUP2 DUP2 MSTORE PUSH1 0x20 ADD DUP3 DUP1 SLOAD PUSH2 0x6B5 SWAP1 PUSH2 0x300D JUMP JUMPDEST DUP1 ISZERO PUSH2 0x702 JUMPI DUP1 PUSH1 0x1F LT PUSH2 0x6D7 JUMPI PUSH2 0x100 DUP1 DUP4 SLOAD DIV MUL DUP4 MSTORE SWAP2 PUSH1 0x20 ADD SWAP2 PUSH2 0x702 JUMP JUMPDEST DUP3 ADD SWAP2 SWAP1 PUSH1 0x0 MSTORE PUSH1 0x20 PUSH1 0x0 KECCAK256 SWAP1 JUMPDEST DUP2 SLOAD DUP2 MSTORE SWAP1 PUSH1 0x1 ADD SWAP1 PUSH1 0x20 ADD DUP1 DUP4 GT PUSH2 0x6E5 JUMPI DUP3 SWAP1 SUB PUSH1 0x1F AND DUP3 ADD SWAP2 JUMPDEST POP POP POP POP POP DUP2 MSTORE PUSH1 0x20 ADD PUSH1 0x3 DUP3 ADD SLOAD DUP2 MSTORE PUSH1 0x20 ADD PUSH1 0x4 DUP3 ADD DUP1 SLOAD DUP1 PUSH1 0x20 MUL PUSH1 0x20 ADD PUSH1 0x40 MLOAD SWAP1 DUP2 ADD PUSH1 0x40 MSTORE DUP1 SWAP3 SWAP2 SWAP1 DUP2 DUP2 MSTORE PUSH1 0x20 ADD DUP3 DUP1 SLOAD DUP1 ISZERO PUSH2 0x764 JUMPI PUSH1 0x20 MUL DUP3 ADD SWAP2 SWAP1 PUSH1 0x0 MSTORE PUSH1 0x20 PUSH1 0x0 KECCAK256 SWAP1 JUMPDEST DUP2 SLOAD DUP2 MSTORE PUSH1 0x20 ADD SWAP1 PUSH1 0x1 ADD SWAP1 DUP1 DUP4 GT PUSH2 0x750 JUMPI JUMPDEST POP POP POP POP POP DUP2 MSTORE POP POP SWAP1 POP SWAP2 SWAP1 POP JUMP JUMPDEST PUSH2 0x77C PUSH2 0x244B JUMP JUMPDEST PUSH1 0x3 PUSH1 0x0 DUP4 DUP2 MSTORE PUSH1 0x20 ADD SWAP1 DUP2 MSTORE PUSH1 0x20 ADD PUSH1 0x0 KECCAK256 PUSH1 0x40 MLOAD DUP1 PUSH1 0xA0 ADD PUSH1 0x40 MSTORE SWAP1 DUP2 PUSH1 0x0 DUP3 ADD SLOAD DUP2 MSTORE PUSH1 0x20 ADD PUSH1 0x1 DUP3 ADD DUP1 SLOAD PUSH2 0x7B4 SWAP1 PUSH2 0x300D JUMP JUMPDEST DUP1 PUSH1 0x1F ADD PUSH1 0x20 DUP1 SWAP2 DIV MUL PUSH1 0x20 ADD PUSH1 0x40 MLOAD SWAP1 DUP2 ADD PUSH1 0x40 MSTORE DUP1 SWAP3 SWAP2 SWAP1 DUP2 DUP2 MSTORE PUSH1 0x20 ADD DUP3 DUP1 SLOAD PUSH2 0x7E0 SWAP1 PUSH2 0x300D JUMP JUMPDEST DUP1 ISZERO PUSH2 0x82D JUMPI DUP1 PUSH1 0x1F LT PUSH2 0x802 JUMPI PUSH2 0x100 DUP1 DUP4 SLOAD DIV MUL DUP4 MSTORE SWAP2 PUSH1 0x20 ADD SWAP2 PUSH2 0x82D JUMP JUMPDEST DUP3 ADD SWAP2 SWAP1 PUSH1 0x0 MSTORE PUSH1 0x20 PUSH1 0x0 KECCAK256 SWAP1 JUMPDEST DUP2 SLOAD DUP2 MSTORE SWAP1 PUSH1 0x1 ADD SWAP1 PUSH1 0x20 ADD DUP1 DUP4 GT PUSH2 0x810 JUMPI DUP3 SWAP1 SUB PUSH1 0x1F AND DUP3 ADD SWAP2 JUMPDEST POP POP POP POP POP DUP2 MSTORE PUSH1 0x20 ADD PUSH1 0x2 DUP3 ADD DUP1 SLOAD PUSH2 0x846 SWAP1 PUSH2 0x300D JUMP JUMPDEST DUP1 PUSH1 0x1F ADD PUSH1 0x20 DUP1 SWAP2 DIV MUL PUSH1 0x20 ADD PUSH1 0x40 MLOAD SWAP1 DUP2 ADD PUSH1 0x40 MSTORE DUP1 SWAP3 SWAP2 SWAP1 DUP2 DUP2 MSTORE PUSH1 0x20 ADD DUP3 DUP1 SLOAD PUSH2 0x872 SWAP1 PUSH2 0x300D JUMP JUMPDEST DUP1 ISZERO PUSH2 0x8BF JUMPI DUP1 PUSH1 0x1F LT PUSH2 0x894 JUMPI PUSH2 0x100 DUP1 DUP4 SLOAD DIV MUL DUP4 MSTORE SWAP2 PUSH1 0x20 ADD SWAP2 PUSH2 0x8BF JUMP JUMPDEST DUP3 ADD SWAP2 SWAP1 PUSH1 0x0 MSTORE PUSH1 0x20 PUSH1 0x0 KECCAK256 SWAP1 JUMPDEST DUP2 SLOAD DUP2 MSTORE SWAP1 PUSH1 0x1 ADD SWAP1 PUSH1 0x20 ADD DUP1 DUP4 GT PUSH2 0x8A2 JUMPI DUP3 SWAP1 SUB PUSH1 0x1F AND DUP3 ADD SWAP2 JUMPDEST POP POP POP POP POP DUP2 MSTORE PUSH1 0x20 ADD PUSH1 0x3 DUP3 ADD SLOAD DUP2 MSTORE PUSH1 0x20 ADD PUSH1 0x4 DUP3 ADD DUP1 SLOAD DUP1 PUSH1 0x20 MUL PUSH1 0x20 ADD PUSH1 0x40 MLOAD SWAP1 DUP2 ADD PUSH1 0x40 MSTORE DUP1 SWAP3 SWAP2 SWAP1 DUP2 DUP2 MSTORE PUSH1 0x20 ADD DUP3 DUP1 SLOAD DUP1 ISZERO PUSH2 0x921 JUMPI PUSH1 0x20 MUL DUP3 ADD SWAP2 SWAP1 PUSH1 0x0 MSTORE PUSH1 0x20 PUSH1 0x0 KECCAK256 SWAP1 JUMPDEST DUP2 SLOAD DUP2 MSTORE PUSH1 0x20 ADD SWAP1 PUSH1 0x1 ADD SWAP1 DUP1 DUP4 GT PUSH2 0x90D JUMPI JUMPDEST POP POP POP POP POP DUP2 MSTORE POP POP SWAP1 POP SWAP2 SWAP1 POP JUMP JUMPDEST PUSH1 0x5 PUSH1 0x20 MSTORE DUP1 PUSH1 0x0 MSTORE PUSH1 0x40 PUSH1 0x0 KECCAK256 PUSH1 0x0 SWAP2 POP SWAP1 POP DUP1 PUSH1 0x0 ADD SLOAD SWAP1 DUP1 PUSH1 0x1 ADD DUP1 SLOAD PUSH2 0x95A SWAP1 PUSH2 0x300D JUMP JUMPDEST DUP1 PUSH1 0x1F ADD PUSH1 0x20 DUP1 SWAP2 DIV MUL PUSH1 0x20 ADD PUSH1 0x40 MLOAD SWAP1 DUP2 ADD PUSH1 0x40 MSTORE DUP1 SWAP3 SWAP2 SWAP1 DUP2 DUP2 MSTORE PUSH1 0x20 ADD DUP3 DUP1 SLOAD PUSH2 0x986 SWAP1 PUSH2 0x300D JUMP JUMPDEST DUP1 ISZERO PUSH2 0x9D3 JUMPI DUP1 PUSH1 0x1F LT PUSH2 0x9A8 JUMPI PUSH2 0x100 DUP1 DUP4 SLOAD DIV MUL DUP4 MSTORE SWAP2 PUSH1 0x20 ADD SWAP2 PUSH2 0x9D3 JUMP JUMPDEST DUP3 ADD SWAP2 SWAP1 PUSH1 0x0 MSTORE PUSH1 0x20 PUSH1 0x0 KECCAK256 SWAP1 JUMPDEST DUP2 SLOAD DUP2 MSTORE SWAP1 PUSH1 0x1 ADD SWAP1 PUSH1 0x20 ADD DUP1 DUP4 GT PUSH2 0x9B6 JUMPI DUP3 SWAP1 SUB PUSH1 0x1F AND DUP3 ADD SWAP2 JUMPDEST POP POP POP POP POP SWAP1 DUP1 PUSH1 0x2 ADD DUP1 SLOAD PUSH2 0x9E8 SWAP1 PUSH2 0x300D JUMP JUMPDEST DUP1 PUSH1 0x1F ADD PUSH1 0x20 DUP1 SWAP2 DIV MUL PUSH1 0x20 ADD PUSH1 0x40 MLOAD SWAP1 DUP2 ADD PUSH1 0x40 MSTORE DUP1 SWAP3 SWAP2 SWAP1 DUP2 DUP2 MSTORE PUSH1 0x20 ADD DUP3 DUP1 SLOAD PUSH2 0xA14 SWAP1 PUSH2 0x300D JUMP JUMPDEST DUP1 ISZERO PUSH2 0xA61 JUMPI DUP1 PUSH1 0x1F LT PUSH2 0xA36 JUMPI PUSH2 0x100 DUP1 DUP4 SLOAD DIV MUL DUP4 MSTORE SWAP2 PUSH1 0x20 ADD SWAP2 PUSH2 0xA61 JUMP JUMPDEST DUP3 ADD SWAP2 SWAP1 PUSH1 0x0 MSTORE PUSH1 0x20 PUSH1 0x0 KECCAK256 SWAP1 JUMPDEST DUP2 SLOAD DUP2 MSTORE SWAP1 PUSH1 0x1 ADD SWAP1 PUSH1 0x20 ADD DUP1 DUP4 GT PUSH2 0xA44 JUMPI DUP3 SWAP1 SUB PUSH1 0x1F AND DUP3 ADD SWAP2 JUMPDEST POP POP POP POP POP SWAP1 DUP1 PUSH1 0x3 ADD SLOAD SWAP1 POP DUP5 JUMP JUMPDEST PUSH1 0x1 PUSH1 0x20 MSTORE DUP1 PUSH1 0x0 MSTORE PUSH1 0x40 PUSH1 0x0 KECCAK256 PUSH1 0x0 SWAP2 POP SWAP1 POP DUP1 PUSH1 0x0 ADD SLOAD SWAP1 DUP1 PUSH1 0x1 ADD DUP1 SLOAD PUSH2 0xA9A SWAP1 PUSH2 0x300D JUMP JUMPDEST DUP1 PUSH1 0x1F ADD PUSH1 0x20 DUP1 SWAP2 DIV MUL PUSH1 0x20 ADD PUSH1 0x40 MLOAD SWAP1 DUP2 ADD PUSH1 0x40 MSTORE DUP1 SWAP3 SWAP2 SWAP1 DUP2 DUP2 MSTORE PUSH1 0x20 ADD DUP3 DUP1 SLOAD PUSH2 0xAC6 SWAP1 PUSH2 0x300D JUMP JUMPDEST DUP1 ISZERO PUSH2 0xB13 JUMPI DUP1 PUSH1 0x1F LT PUSH2 0xAE8 JUMPI PUSH2 0x100 DUP1 DUP4 SLOAD DIV MUL DUP4 MSTORE SWAP2 PUSH1 0x20 ADD SWAP2 PUSH2 0xB13 JUMP JUMPDEST DUP3 ADD SWAP2 SWAP1 PUSH1 0x0 MSTORE PUSH1 0x20 PUSH1 0x0 KECCAK256 SWAP1 JUMPDEST DUP2 SLOAD DUP2 MSTORE SWAP1 PUSH1 0x1 ADD SWAP1 PUSH1 0x20 ADD DUP1 DUP4 GT PUSH2 0xAF6 JUMPI DUP3 SWAP1 SUB PUSH1 0x1F AND DUP3 ADD SWAP2 JUMPDEST POP POP POP POP POP SWAP1 DUP1 PUSH1 0x2 ADD SLOAD SWAP1 DUP1 PUSH1 0x3 ADD DUP1 SLOAD PUSH2 0xB2E SWAP1 PUSH2 0x300D JUMP JUMPDEST DUP1 PUSH1 0x1F ADD PUSH1 0x20 DUP1 SWAP2 DIV MUL PUSH1 0x20 ADD PUSH1 0x40 MLOAD SWAP1 DUP2 ADD PUSH1 0x40 MSTORE DUP1 SWAP3 SWAP2 SWAP1 DUP2 DUP2 MSTORE PUSH1 0x20 ADD DUP3 DUP1 SLOAD PUSH2 0xB5A SWAP1 PUSH2 0x300D JUMP JUMPDEST DUP1 ISZERO PUSH2 0xBA7 JUMPI DUP1 PUSH1 0x1F LT PUSH2 0xB7C JUMPI PUSH2 0x100 DUP1 DUP4 SLOAD DIV MUL DUP4 MSTORE SWAP2 PUSH1 0x20 ADD SWAP2 PUSH2 0xBA7 JUMP JUMPDEST DUP3 ADD SWAP2 SWAP1 PUSH1 0x0 MSTORE PUSH1 0x20 PUSH1 0x0 KECCAK256 SWAP1 JUMPDEST DUP2 SLOAD DUP2 MSTORE SWAP1 PUSH1 0x1 ADD SWAP1 PUSH1 0x20 ADD DUP1 DUP4 GT PUSH2 0xB8A JUMPI DUP3 SWAP1 SUB PUSH1 0x1F AND DUP3 ADD SWAP2 JUMPDEST POP POP POP POP POP SWAP1 DUP1 PUSH1 0x5 ADD SLOAD SWAP1 DUP1 PUSH1 0x6 ADD DUP1 SLOAD PUSH2 0xBC2 SWAP1 PUSH2 0x300D JUMP JUMPDEST DUP1 PUSH1 0x1F ADD PUSH1 0x20 DUP1 SWAP2 DIV MUL PUSH1 0x20 ADD PUSH1 0x40 MLOAD SWAP1 DUP2 ADD PUSH1 0x40 MSTORE DUP1 SWAP3 SWAP2 SWAP1 DUP2 DUP2 MSTORE PUSH1 0x20 ADD DUP3 DUP1 SLOAD PUSH2 0xBEE SWAP1 PUSH2 0x300D JUMP JUMPDEST DUP1 ISZERO PUSH2 0xC3B JUMPI DUP1 PUSH1 0x1F LT PUSH2 0xC10 JUMPI PUSH2 0x100 DUP1 DUP4 SLOAD DIV MUL DUP4 MSTORE SWAP2 PUSH1 0x20 ADD SWAP2 PUSH2 0xC3B JUMP JUMPDEST DUP3 ADD SWAP2 SWAP1 PUSH1 0x0 MSTORE PUSH1 0x20 PUSH1 0x0 KECCAK256 SWAP1 JUMPDEST DUP2 SLOAD DUP2 MSTORE SWAP1 PUSH1 0x1 ADD SWAP1 PUSH1 0x20 ADD DUP1 DUP4 GT PUSH2 0xC1E JUMPI DUP3 SWAP1 SUB PUSH1 0x1F AND DUP3 ADD SWAP2 JUMPDEST POP POP POP POP POP SWAP1 DUP1 PUSH1 0x7 ADD SLOAD SWAP1 POP DUP8 JUMP JUMPDEST PUSH2 0xC53 PUSH2 0x254D JUMP JUMPDEST DUP2 TIMESTAMP DIFFICULTY PUSH1 0x40 MLOAD PUSH1 0x20 ADD PUSH2 0xC68 SWAP4 SWAP3 SWAP2 SWAP1 PUSH2 0x2C78 JUMP JUMPDEST PUSH1 0x40 MLOAD PUSH1 0x20 DUP2 DUP4 SUB SUB DUP2 MSTORE SWAP1 PUSH1 0x40 MSTORE DUP1 MLOAD SWAP1 PUSH1 0x20 ADD KECCAK256 PUSH1 0x0 SHR DUP2 PUSH1 0x0 ADD DUP2 DUP2 MSTORE POP POP PUSH1 0x40 MLOAD DUP1 PUSH1 0x40 ADD PUSH1 0x40 MSTORE DUP1 PUSH1 0x2 DUP2 MSTORE PUSH1 0x20 ADD PUSH32 0x4449000000000000000000000000000000000000000000000000000000000000 DUP2 MSTORE POP DUP2 PUSH1 0x20 ADD DUP2 SWAP1 MSTORE POP DUP2 DUP2 PUSH1 0x40 ADD DUP2 SWAP1 MSTORE POP PUSH1 0x0 PUSH8 0xFFFFFFFFFFFFFFFF DUP2 GT ISZERO PUSH2 0xCEC JUMPI PUSH2 0xCEB PUSH2 0x3146 JUMP JUMPDEST JUMPDEST PUSH1 0x40 MLOAD SWAP1 DUP1 DUP3 MSTORE DUP1 PUSH1 0x20 MUL PUSH1 0x20 ADD DUP3 ADD PUSH1 0x40 MSTORE DUP1 ISZERO PUSH2 0xD1A JUMPI DUP2 PUSH1 0x20 ADD PUSH1 0x20 DUP3 MUL DUP1 CALLDATASIZE DUP4 CALLDATACOPY DUP1 DUP3 ADD SWAP2 POP POP SWAP1 POP JUMPDEST POP DUP2 PUSH1 0x80 ADD DUP2 SWAP1 MSTORE POP PUSH1 0x0 DUP2 PUSH1 0x60 ADD DUP2 DUP2 MSTORE POP POP DUP1 PUSH1 0x5 PUSH1 0x0 DUP4 PUSH1 0x0 ADD MLOAD DUP2 MSTORE PUSH1 0x20 ADD SWAP1 DUP2 MSTORE PUSH1 0x20 ADD PUSH1 0x0 KECCAK256 PUSH1 0x0 DUP3 ADD MLOAD DUP2 PUSH1 0x0 ADD SSTORE PUSH1 0x20 DUP3 ADD MLOAD DUP2 PUSH1 0x1 ADD SWAP1 DUP1 MLOAD SWAP1 PUSH1 0x20 ADD SWAP1 PUSH2 0xD6C SWAP3 SWAP2 SWAP1 PUSH2 0x247A JUMP JUMPDEST POP PUSH1 0x40 DUP3 ADD MLOAD DUP2 PUSH1 0x2 ADD SWAP1 DUP1 MLOAD SWAP1 PUSH1 0x20 ADD SWAP1 PUSH2 0xD89 SWAP3 SWAP2 SWAP1 PUSH2 0x247A JUMP JUMPDEST POP PUSH1 0x60 DUP3 ADD MLOAD DUP2 PUSH1 0x3 ADD SSTORE PUSH1 0x80 DUP3 ADD MLOAD DUP2 PUSH1 0x4 ADD SWAP1 DUP1 MLOAD SWAP1 PUSH1 0x20 ADD SWAP1 PUSH2 0xDB0 SWAP3 SWAP2 SWAP1 PUSH2 0x2500 JUMP JUMPDEST POP SWAP1 POP POP PUSH32 0x40E1CDDA6DD76675162FEDDE8A906BECF47F84719815309B901E098F5D5C3C28 DUP2 PUSH1 0x40 MLOAD PUSH2 0xDE3 SWAP2 SWAP1 PUSH2 0x2D16 JUMP JUMPDEST PUSH1 0x40 MLOAD DUP1 SWAP2 SUB SWAP1 LOG1 POP POP JUMP JUMPDEST PUSH1 0x6 PUSH1 0x20 MSTORE DUP1 PUSH1 0x0 MSTORE PUSH1 0x40 PUSH1 0x0 KECCAK256 PUSH1 0x0 SWAP2 POP SWAP1 POP DUP1 PUSH1 0x0 ADD SLOAD SWAP1 DUP1 PUSH1 0x1 ADD DUP1 SLOAD PUSH2 0xE18 SWAP1 PUSH2 0x300D JUMP JUMPDEST DUP1 PUSH1 0x1F ADD PUSH1 0x20 DUP1 SWAP2 DIV MUL PUSH1 0x20 ADD PUSH1 0x40 MLOAD SWAP1 DUP2 ADD PUSH1 0x40 MSTORE DUP1 SWAP3 SWAP2 SWAP1 DUP2 DUP2 MSTORE PUSH1 0x20 ADD DUP3 DUP1 SLOAD PUSH2 0xE44 SWAP1 PUSH2 0x300D JUMP JUMPDEST DUP1 ISZERO PUSH2 0xE91 JUMPI DUP1 PUSH1 0x1F LT PUSH2 0xE66 JUMPI PUSH2 0x100 DUP1 DUP4 SLOAD DIV MUL DUP4 MSTORE SWAP2 PUSH1 0x20 ADD SWAP2 PUSH2 0xE91 JUMP JUMPDEST DUP3 ADD SWAP2 SWAP1 PUSH1 0x0 MSTORE PUSH1 0x20 PUSH1 0x0 KECCAK256 SWAP1 JUMPDEST DUP2 SLOAD DUP2 MSTORE SWAP1 PUSH1 0x1 ADD SWAP1 PUSH1 0x20 ADD DUP1 DUP4 GT PUSH2 0xE74 JUMPI DUP3 SWAP1 SUB PUSH1 0x1F AND DUP3 ADD SWAP2 JUMPDEST POP POP POP POP POP SWAP1 DUP1 PUSH1 0x2 ADD SLOAD SWAP1 POP DUP4 JUMP JUMPDEST PUSH2 0xEA9 PUSH2 0x257C JUMP JUMPDEST DUP4 TIMESTAMP DIFFICULTY PUSH1 0x40 MLOAD PUSH1 0x20 ADD PUSH2 0xEBE SWAP4 SWAP3 SWAP2 SWAP1 PUSH2 0x2C78 JUMP JUMPDEST PUSH1 0x40 MLOAD PUSH1 0x20 DUP2 DUP4 SUB SUB DUP2 MSTORE SWAP1 PUSH1 0x40 MSTORE DUP1 MLOAD SWAP1 PUSH1 0x20 ADD KECCAK256 PUSH1 0x0 SHR DUP2 PUSH1 0x0 ADD DUP2 DUP2 MSTORE POP POP DUP4 DUP2 PUSH1 0x20 ADD DUP2 SWAP1 MSTORE POP DUP3 DUP2 PUSH1 0x40 ADD DUP2 DUP2 MSTORE POP POP DUP2 DUP2 PUSH1 0x60 ADD DUP2 SWAP1 MSTORE POP PUSH1 0x40 MLOAD DUP1 PUSH1 0x20 ADD PUSH1 0x40 MSTORE DUP1 PUSH1 0x0 DUP2 MSTORE POP DUP2 PUSH1 0xC0 ADD DUP2 SWAP1 MSTORE POP PUSH1 0x0 DUP2 PUSH1 0xE0 ADD DUP2 DUP2 MSTORE POP POP PUSH1 0x0 PUSH8 0xFFFFFFFFFFFFFFFF DUP2 GT ISZERO PUSH2 0xF3A JUMPI PUSH2 0xF39 PUSH2 0x3146 JUMP JUMPDEST JUMPDEST PUSH1 0x40 MLOAD SWAP1 DUP1 DUP3 MSTORE DUP1 PUSH1 0x20 MUL PUSH1 0x20 ADD DUP3 ADD PUSH1 0x40 MSTORE DUP1 ISZERO PUSH2 0xF68 JUMPI DUP2 PUSH1 0x20 ADD PUSH1 0x20 DUP3 MUL DUP1 CALLDATASIZE DUP4 CALLDATACOPY DUP1 DUP3 ADD SWAP2 POP POP SWAP1 POP JUMPDEST POP DUP2 PUSH1 0x80 ADD DUP2 SWAP1 MSTORE POP PUSH1 0x0 DUP2 PUSH1 0xA0 ADD DUP2 DUP2 MSTORE POP POP DUP1 PUSH1 0x1 PUSH1 0x0 DUP4 PUSH1 0x0 ADD MLOAD DUP2 MSTORE PUSH1 0x20 ADD SWAP1 DUP2 MSTORE PUSH1 0x20 ADD PUSH1 0x0 KECCAK256 PUSH1 0x0 DUP3 ADD MLOAD DUP2 PUSH1 0x0 ADD SSTORE PUSH1 0x20 DUP3 ADD MLOAD DUP2 PUSH1 0x1 ADD SWAP1 DUP1 MLOAD SWAP1 PUSH1 0x20 ADD SWAP1 PUSH2 0xFBA SWAP3 SWAP2 SWAP1 PUSH2 0x247A JUMP JUMPDEST POP PUSH1 0x40 DUP3 ADD MLOAD DUP2 PUSH1 0x2 ADD SSTORE PUSH1 0x60 DUP3 ADD MLOAD DUP2 PUSH1 0x3 ADD SWAP1 DUP1 MLOAD SWAP1 PUSH1 0x20 ADD SWAP1 PUSH2 0xFE1 SWAP3 SWAP2 SWAP1 PUSH2 0x247A JUMP JUMPDEST POP PUSH1 0x80 DUP3 ADD MLOAD DUP2 PUSH1 0x4 ADD SWAP1 DUP1 MLOAD SWAP1 PUSH1 0x20 ADD SWAP1 PUSH2 0xFFE SWAP3 SWAP2 SWAP1 PUSH2 0x2500 JUMP JUMPDEST POP PUSH1 0xA0 DUP3 ADD MLOAD DUP2 PUSH1 0x5 ADD SSTORE PUSH1 0xC0 DUP3 ADD MLOAD DUP2 PUSH1 0x6 ADD SWAP1 DUP1 MLOAD SWAP1 PUSH1 0x20 ADD SWAP1 PUSH2 0x1025 SWAP3 SWAP2 SWAP1 PUSH2 0x247A JUMP JUMPDEST POP PUSH1 0xE0 DUP3 ADD MLOAD DUP2 PUSH1 0x7 ADD SSTORE SWAP1 POP POP PUSH1 0x2 PUSH1 0x0 DUP2 SLOAD DUP1 SWAP3 SWAP2 SWAP1 PUSH2 0x1046 SWAP1 PUSH2 0x3070 JUMP JUMPDEST SWAP2 SWAP1 POP SSTORE POP PUSH32 0xDD8688F80C62EAB88B445B6A5F414E69FF40BE1584DDB10B6A9BC6CF68B17F2F DUP2 PUSH1 0x2 SLOAD PUSH1 0x40 MLOAD PUSH2 0x107E SWAP3 SWAP2 SWAP1 PUSH2 0x2D7C JUMP JUMPDEST PUSH1 0x40 MLOAD DUP1 SWAP2 SUB SWAP1 LOG1 POP POP POP POP JUMP JUMPDEST PUSH2 0x1094 PUSH2 0x25C1 JUMP JUMPDEST DUP2 TIMESTAMP DIFFICULTY PUSH1 0x40 MLOAD PUSH1 0x20 ADD PUSH2 0x10A9 SWAP4 SWAP3 SWAP2 SWAP1 PUSH2 0x2C78 JUMP JUMPDEST PUSH1 0x40 MLOAD PUSH1 0x20 DUP2 DUP4 SUB SUB DUP2 MSTORE SWAP1 PUSH1 0x40 MSTORE DUP1 MLOAD SWAP1 PUSH1 0x20 ADD KECCAK256 PUSH1 0x0 SHR DUP2 PUSH1 0x0 ADD DUP2 DUP2 MSTORE POP POP PUSH1 0x40 MLOAD DUP1 PUSH1 0x40 ADD PUSH1 0x40 MSTORE DUP1 PUSH1 0x2 DUP2 MSTORE PUSH1 0x20 ADD PUSH32 0x4D41000000000000000000000000000000000000000000000000000000000000 DUP2 MSTORE POP DUP2 PUSH1 0x20 ADD DUP2 SWAP1 MSTORE POP DUP2 DUP2 PUSH1 0x40 ADD DUP2 SWAP1 MSTORE POP PUSH1 0x0 PUSH8 0xFFFFFFFFFFFFFFFF DUP2 GT ISZERO PUSH2 0x112D JUMPI PUSH2 0x112C PUSH2 0x3146 JUMP JUMPDEST JUMPDEST PUSH1 0x40 MLOAD SWAP1 DUP1 DUP3 MSTORE DUP1 PUSH1 0x20 MUL PUSH1 0x20 ADD DUP3 ADD PUSH1 0x40 MSTORE DUP1 ISZERO PUSH2 0x115B JUMPI DUP2 PUSH1 0x20 ADD PUSH1 0x20 DUP3 MUL DUP1 CALLDATASIZE DUP4 CALLDATACOPY DUP1 DUP3 ADD SWAP2 POP POP SWAP1 POP JUMPDEST POP DUP2 PUSH1 0x80 ADD DUP2 SWAP1 MSTORE POP PUSH1 0x0 DUP2 PUSH1 0x60 ADD DUP2 DUP2 MSTORE POP POP DUP1 PUSH1 0x4 PUSH1 0x0 DUP4 PUSH1 0x0 ADD MLOAD DUP2 MSTORE PUSH1 0x20 ADD SWAP1 DUP2 MSTORE PUSH1 0x20 ADD PUSH1 0x0 KECCAK256 PUSH1 0x0 DUP3 ADD MLOAD DUP2 PUSH1 0x0 ADD SSTORE PUSH1 0x20 DUP3 ADD MLOAD DUP2 PUSH1 0x1 ADD SWAP1 DUP1 MLOAD SWAP1 PUSH1 0x20 ADD SWAP1 PUSH2 0x11AD SWAP3 SWAP2 SWAP1 PUSH2 0x247A JUMP JUMPDEST POP PUSH1 0x40 DUP3 ADD MLOAD DUP2 PUSH1 0x2 ADD SWAP1 DUP1 MLOAD SWAP1 PUSH1 0x20 ADD SWAP1 PUSH2 0x11CA SWAP3 SWAP2 SWAP1 PUSH2 0x247A JUMP JUMPDEST POP PUSH1 0x60 DUP3 ADD MLOAD DUP2 PUSH1 0x3 ADD SSTORE PUSH1 0x80 DUP3 ADD MLOAD DUP2 PUSH1 0x4 ADD SWAP1 DUP1 MLOAD SWAP1 PUSH1 0x20 ADD SWAP1 PUSH2 0x11F1 SWAP3 SWAP2 SWAP1 PUSH2 0x2500 JUMP JUMPDEST POP SWAP1 POP POP PUSH32 0xB1E82A9DE3004148C987CA0908A70C35E11EF17A995DCDA89EE4428F905E9794 DUP2 PUSH1 0x40 MLOAD PUSH2 0x1224 SWAP2 SWAP1 PUSH2 0x2D38 JUMP JUMPDEST PUSH1 0x40 MLOAD DUP1 SWAP2 SUB SWAP1 LOG1 POP POP JUMP JUMPDEST PUSH1 0x4 PUSH1 0x20 MSTORE DUP1 PUSH1 0x0 MSTORE PUSH1 0x40 PUSH1 0x0 KECCAK256 PUSH1 0x0 SWAP2 POP SWAP1 POP DUP1 PUSH1 0x0 ADD SLOAD SWAP1 DUP1 PUSH1 0x1 ADD DUP1 SLOAD PUSH2 0x1259 SWAP1 PUSH2 0x300D JUMP JUMPDEST DUP1 PUSH1 0x1F ADD PUSH1 0x20 DUP1 SWAP2 DIV MUL PUSH1 0x20 ADD PUSH1 0x40 MLOAD SWAP1 DUP2 ADD PUSH1 0x40 MSTORE DUP1 SWAP3 SWAP2 SWAP1 DUP2 DUP2 MSTORE PUSH1 0x20 ADD DUP3 DUP1 SLOAD PUSH2 0x1285 SWAP1 PUSH2 0x300D JUMP JUMPDEST DUP1 ISZERO PUSH2 0x12D2 JUMPI DUP1 PUSH1 0x1F LT PUSH2 0x12A7 JUMPI PUSH2 0x100 DUP1 DUP4 SLOAD DIV MUL DUP4 MSTORE SWAP2 PUSH1 0x20 ADD SWAP2 PUSH2 0x12D2 JUMP JUMPDEST DUP3 ADD SWAP2 SWAP1 PUSH1 0x0 MSTORE PUSH1 0x20 PUSH1 0x0 KECCAK256 SWAP1 JUMPDEST DUP2 SLOAD DUP2 MSTORE SWAP1 PUSH1 0x1 ADD SWAP1 PUSH1 0x20 ADD DUP1 DUP4 GT PUSH2 0x12B5 JUMPI DUP3 SWAP1 SUB PUSH1 0x1F AND DUP3 ADD SWAP2 JUMPDEST POP POP POP POP POP SWAP1 DUP1 PUSH1 0x2 ADD DUP1 SLOAD PUSH2 0x12E7 SWAP1 PUSH2 0x300D JUMP JUMPDEST DUP1 PUSH1 0x1F ADD PUSH1 0x20 DUP1 SWAP2 DIV MUL PUSH1 0x20 ADD PUSH1 0x40 MLOAD SWAP1 DUP2 ADD PUSH1 0x40 MSTORE DUP1 SWAP3 SWAP2 SWAP1 DUP2 DUP2 MSTORE PUSH1 0x20 ADD DUP3 DUP1 SLOAD PUSH2 0x1313 SWAP1 PUSH2 0x300D JUMP JUMPDEST DUP1 ISZERO PUSH2 0x1360 JUMPI DUP1 PUSH1 0x1F LT PUSH2 0x1335 JUMPI PUSH2 0x100 DUP1 DUP4 SLOAD DIV MUL DUP4 MSTORE SWAP2 PUSH1 0x20 ADD SWAP2 PUSH2 0x1360 JUMP JUMPDEST DUP3 ADD SWAP2 SWAP1 PUSH1 0x0 MSTORE PUSH1 0x20 PUSH1 0x0 KECCAK256 SWAP1 JUMPDEST DUP2 SLOAD DUP2 MSTORE SWAP1 PUSH1 0x1 ADD SWAP1 PUSH1 0x20 ADD DUP1 DUP4 GT PUSH2 0x1343 JUMPI DUP3 SWAP1 SUB PUSH1 0x1F AND DUP3 ADD SWAP2 JUMPDEST POP POP POP POP POP SWAP1 DUP1 PUSH1 0x3 ADD SLOAD SWAP1 POP DUP5 JUMP JUMPDEST PUSH2 0x1378 PUSH2 0x25F0 JUMP JUMPDEST DUP2 TIMESTAMP DIFFICULTY PUSH1 0x40 MLOAD PUSH1 0x20 ADD PUSH2 0x138D SWAP4 SWAP3 SWAP2 SWAP1 PUSH2 0x2C78 JUMP JUMPDEST PUSH1 0x40 MLOAD PUSH1 0x20 DUP2 DUP4 SUB SUB DUP2 MSTORE SWAP1 PUSH1 0x40 MSTORE DUP1 MLOAD SWAP1 PUSH1 0x20 ADD KECCAK256 PUSH1 0x0 SHR DUP2 PUSH1 0x0 ADD DUP2 DUP2 MSTORE POP POP DUP2 DUP2 PUSH1 0x20 ADD DUP2 SWAP1 MSTORE POP PUSH1 0x0 PUSH8 0xFFFFFFFFFFFFFFFF DUP2 GT ISZERO PUSH2 0x13D3 JUMPI PUSH2 0x13D2 PUSH2 0x3146 JUMP JUMPDEST JUMPDEST PUSH1 0x40 MLOAD SWAP1 DUP1 DUP3 MSTORE DUP1 PUSH1 0x20 MUL PUSH1 0x20 ADD DUP3 ADD PUSH1 0x40 MSTORE DUP1 ISZERO PUSH2 0x1401 JUMPI DUP2 PUSH1 0x20 ADD PUSH1 0x20 DUP3 MUL DUP1 CALLDATASIZE DUP4 CALLDATACOPY DUP1 DUP3 ADD SWAP2 POP POP SWAP1 POP JUMPDEST POP DUP2 PUSH1 0x60 ADD DUP2 SWAP1 MSTORE POP PUSH1 0x0 DUP2 PUSH1 0x40 ADD DUP2 DUP2 MSTORE POP POP DUP1 PUSH1 0x6 PUSH1 0x0 DUP4 PUSH1 0x0 ADD MLOAD DUP2 MSTORE PUSH1 0x20 ADD SWAP1 DUP2 MSTORE PUSH1 0x20 ADD PUSH1 0x0 KECCAK256 PUSH1 0x0 DUP3 ADD MLOAD DUP2 PUSH1 0x0 ADD SSTORE PUSH1 0x20 DUP3 ADD MLOAD DUP2 PUSH1 0x1 ADD SWAP1 DUP1 MLOAD SWAP1 PUSH1 0x20 ADD SWAP1 PUSH2 0x1453 SWAP3 SWAP2 SWAP1 PUSH2 0x247A JUMP JUMPDEST POP PUSH1 0x40 DUP3 ADD MLOAD DUP2 PUSH1 0x2 ADD SSTORE PUSH1 0x60 DUP3 ADD MLOAD DUP2 PUSH1 0x3 ADD SWAP1 DUP1 MLOAD SWAP1 PUSH1 0x20 ADD SWAP1 PUSH2 0x147A SWAP3 SWAP2 SWAP1 PUSH2 0x2500 JUMP JUMPDEST POP SWAP1 POP POP PUSH32 0x48B295DBD2DDE57075E837C2ADD5113C3A864D21AD68E1ACB6EC3233AFEA585F DUP2 PUSH1 0x40 MLOAD PUSH2 0x14AD SWAP2 SWAP1 PUSH2 0x2DAC JUMP JUMPDEST PUSH1 0x40 MLOAD DUP1 SWAP2 SUB SWAP1 LOG1 POP POP JUMP JUMPDEST PUSH1 0x0 PUSH2 0x14C4 DUP5 PUSH2 0x1974 JUMP JUMPDEST SWAP1 POP DUP3 DUP2 PUSH1 0xE0 ADD MLOAD EQ PUSH2 0x150C JUMPI PUSH1 0x40 MLOAD PUSH32 0x8C379A000000000000000000000000000000000000000000000000000000000 DUP2 MSTORE PUSH1 0x4 ADD PUSH2 0x1503 SWAP1 PUSH2 0x2CB6 JUMP JUMPDEST PUSH1 0x40 MLOAD DUP1 SWAP2 SUB SWAP1 REVERT JUMPDEST PUSH1 0x0 PUSH2 0x1517 DUP5 PUSH2 0x1E44 JUMP JUMPDEST SWAP1 POP PUSH1 0x0 PUSH2 0x1524 DUP5 PUSH2 0x5B7 JUMP JUMPDEST SWAP1 POP DUP1 PUSH1 0x40 ADD MLOAD DUP4 PUSH1 0xC0 ADD DUP2 SWAP1 MSTORE POP DUP1 PUSH1 0x0 ADD MLOAD DUP4 PUSH1 0xE0 ADD DUP2 DUP2 MSTORE POP POP DUP5 DUP4 PUSH1 0x80 ADD MLOAD DUP5 PUSH1 0xA0 ADD DUP1 MLOAD DUP1 SWAP2 SWAP1 PUSH2 0x1559 SWAP1 PUSH2 0x3070 JUMP JUMPDEST DUP2 MSTORE POP DUP2 MLOAD DUP2 LT PUSH2 0x156D JUMPI PUSH2 0x156C PUSH2 0x3117 JUMP JUMPDEST JUMPDEST PUSH1 0x20 MUL PUSH1 0x20 ADD ADD DUP2 DUP2 MSTORE POP POP DUP3 PUSH1 0x1 PUSH1 0x0 DUP9 DUP2 MSTORE PUSH1 0x20 ADD SWAP1 DUP2 MSTORE PUSH1 0x20 ADD PUSH1 0x0 KECCAK256 PUSH1 0x0 DUP3 ADD MLOAD DUP2 PUSH1 0x0 ADD SSTORE PUSH1 0x20 DUP3 ADD MLOAD DUP2 PUSH1 0x1 ADD SWAP1 DUP1 MLOAD SWAP1 PUSH1 0x20 ADD SWAP1 PUSH2 0x15B3 SWAP3 SWAP2 SWAP1 PUSH2 0x247A JUMP JUMPDEST POP PUSH1 0x40 DUP3 ADD MLOAD DUP2 PUSH1 0x2 ADD SSTORE PUSH1 0x60 DUP3 ADD MLOAD DUP2 PUSH1 0x3 ADD SWAP1 DUP1 MLOAD SWAP1 PUSH1 0x20 ADD SWAP1 PUSH2 0x15DA SWAP3 SWAP2 SWAP1 PUSH2 0x247A JUMP JUMPDEST POP PUSH1 0x80 DUP3 ADD MLOAD DUP2 PUSH1 0x4 ADD SWAP1 DUP1 MLOAD SWAP1 PUSH1 0x20 ADD SWAP1 PUSH2 0x15F7 SWAP3 SWAP2 SWAP1 PUSH2 0x2500 JUMP JUMPDEST POP PUSH1 0xA0 DUP3 ADD MLOAD DUP2 PUSH1 0x5 ADD SSTORE PUSH1 0xC0 DUP3 ADD MLOAD DUP2 PUSH1 0x6 ADD SWAP1 DUP1 MLOAD SWAP1 PUSH1 0x20 ADD SWAP1 PUSH2 0x161E SWAP3 SWAP2 SWAP1 PUSH2 0x247A JUMP JUMPDEST POP PUSH1 0xE0 DUP3 ADD MLOAD DUP2 PUSH1 0x7 ADD SSTORE SWAP1 POP POP DUP6 DUP2 PUSH1 0x80 ADD MLOAD DUP3 PUSH1 0x60 ADD DUP1 MLOAD DUP1 SWAP2 SWAP1 PUSH2 0x1644 SWAP1 PUSH2 0x3070 JUMP JUMPDEST DUP2 MSTORE POP DUP2 MLOAD DUP2 LT PUSH2 0x1658 JUMPI PUSH2 0x1657 PUSH2 0x3117 JUMP JUMPDEST JUMPDEST PUSH1 0x20 MUL PUSH1 0x20 ADD ADD DUP2 DUP2 MSTORE POP POP DUP1 PUSH1 0x5 PUSH1 0x0 DUP7 DUP2 MSTORE PUSH1 0x20 ADD SWAP1 DUP2 MSTORE PUSH1 0x20 ADD PUSH1 0x0 KECCAK256 PUSH1 0x0 DUP3 ADD MLOAD DUP2 PUSH1 0x0 ADD SSTORE PUSH1 0x20 DUP3 ADD MLOAD DUP2 PUSH1 0x1 ADD SWAP1 DUP1 MLOAD SWAP1 PUSH1 0x20 ADD SWAP1 PUSH2 0x169E SWAP3 SWAP2 SWAP1 PUSH2 0x247A JUMP JUMPDEST POP PUSH1 0x40 DUP3 ADD MLOAD DUP2 PUSH1 0x2 ADD SWAP1 DUP1 MLOAD SWAP1 PUSH1 0x20 ADD SWAP1 PUSH2 0x16BB SWAP3 SWAP2 SWAP1 PUSH2 0x247A JUMP JUMPDEST POP PUSH1 0x60 DUP3 ADD MLOAD DUP2 PUSH1 0x3 ADD SSTORE PUSH1 0x80 DUP3 ADD MLOAD DUP2 PUSH1 0x4 ADD SWAP1 DUP1 MLOAD SWAP1 PUSH1 0x20 ADD SWAP1 PUSH2 0x16E2 SWAP3 SWAP2 SWAP1 PUSH2 0x2500 JUMP JUMPDEST POP SWAP1 POP POP PUSH32 0xDB38A0F551885A9E8666B66DB8057C351D8F70150C869D99953A3051B52CC36A DUP4 PUSH1 0x40 MLOAD PUSH2 0x1715 SWAP2 SWAP1 PUSH2 0x2D5A JUMP JUMPDEST PUSH1 0x40 MLOAD DUP1 SWAP2 SUB SWAP1 LOG1 POP POP POP POP POP POP JUMP JUMPDEST PUSH1 0x0 PUSH2 0x1730 DUP5 PUSH2 0x1974 JUMP JUMPDEST SWAP1 POP DUP3 DUP2 PUSH1 0xE0 ADD MLOAD EQ PUSH2 0x1778 JUMPI PUSH1 0x40 MLOAD PUSH32 0x8C379A000000000000000000000000000000000000000000000000000000000 DUP2 MSTORE PUSH1 0x4 ADD PUSH2 0x176F SWAP1 PUSH2 0x2CD6 JUMP JUMPDEST PUSH1 0x40 MLOAD DUP1 SWAP2 SUB SWAP1 REVERT JUMPDEST PUSH1 0x0 PUSH2 0x1783 DUP5 PUSH2 0x5B7 JUMP JUMPDEST SWAP1 POP PUSH1 0x0 PUSH2 0x1790 DUP5 PUSH2 0x2001 JUMP JUMPDEST SWAP1 POP DUP1 PUSH1 0x20 ADD MLOAD DUP4 PUSH1 0xC0 ADD DUP2 SWAP1 MSTORE POP DUP1 PUSH1 0x0 ADD MLOAD DUP4 PUSH1 0xE0 ADD DUP2 DUP2 MSTORE POP POP DUP5 DUP4 PUSH1 0x80 ADD MLOAD DUP5 PUSH1 0xA0 ADD DUP1 MLOAD DUP1 SWAP2 SWAP1 PUSH2 0x17C5 SWAP1 PUSH2 0x3070 JUMP JUMPDEST DUP2 MSTORE POP DUP2 MLOAD DUP2 LT PUSH2 0x17D9 JUMPI PUSH2 0x17D8 PUSH2 0x3117 JUMP JUMPDEST JUMPDEST PUSH1 0x20 MUL PUSH1 0x20 ADD ADD DUP2 DUP2 MSTORE POP POP DUP3 PUSH1 0x1 PUSH1 0x0 DUP9 DUP2 MSTORE PUSH1 0x20 ADD SWAP1 DUP2 MSTORE PUSH1 0x20 ADD PUSH1 0x0 KECCAK256 PUSH1 0x0 DUP3 ADD MLOAD DUP2 PUSH1 0x0 ADD SSTORE PUSH1 0x20 DUP3 ADD MLOAD DUP2 PUSH1 0x1 ADD SWAP1 DUP1 MLOAD SWAP1 PUSH1 0x20 ADD SWAP1 PUSH2 0x181F SWAP3 SWAP2 SWAP1 PUSH2 0x247A JUMP JUMPDEST POP PUSH1 0x40 DUP3 ADD MLOAD DUP2 PUSH1 0x2 ADD SSTORE PUSH1 0x60 DUP3 ADD MLOAD DUP2 PUSH1 0x3 ADD SWAP1 DUP1 MLOAD SWAP1 PUSH1 0x20 ADD SWAP1 PUSH2 0x1846 SWAP3 SWAP2 SWAP1 PUSH2 0x247A JUMP JUMPDEST POP PUSH1 0x80 DUP3 ADD MLOAD DUP2 PUSH1 0x4 ADD SWAP1 DUP1 MLOAD SWAP1 PUSH1 0x20 ADD SWAP1 PUSH2 0x1863 SWAP3 SWAP2 SWAP1 PUSH2 0x2500 JUMP JUMPDEST POP PUSH1 0xA0 DUP3 ADD MLOAD DUP2 PUSH1 0x5 ADD SSTORE PUSH1 0xC0 DUP3 ADD MLOAD DUP2 PUSH1 0x6 ADD SWAP1 DUP1 MLOAD SWAP1 PUSH1 0x20 ADD SWAP1 PUSH2 0x188A SWAP3 SWAP2 SWAP1 PUSH2 0x247A JUMP JUMPDEST POP PUSH1 0xE0 DUP3 ADD MLOAD DUP2 PUSH1 0x7 ADD SSTORE SWAP1 POP POP DUP6 DUP2 PUSH1 0x60 ADD MLOAD DUP3 PUSH1 0x40 ADD DUP1 MLOAD DUP1 SWAP2 SWAP1 PUSH2 0x18B0 SWAP1 PUSH2 0x3070 JUMP JUMPDEST DUP2 MSTORE POP DUP2 MLOAD DUP2 LT PUSH2 0x18C4 JUMPI PUSH2 0x18C3 PUSH2 0x3117 JUMP JUMPDEST JUMPDEST PUSH1 0x20 MUL PUSH1 0x20 ADD ADD DUP2 DUP2 MSTORE POP POP DUP1 PUSH1 0x6 PUSH1 0x0 DUP7 DUP2 MSTORE PUSH1 0x20 ADD SWAP1 DUP2 MSTORE PUSH1 0x20 ADD PUSH1 0x0 KECCAK256 PUSH1 0x0 DUP3 ADD MLOAD DUP2 PUSH1 0x0 ADD SSTORE PUSH1 0x20 DUP3 ADD MLOAD DUP2 PUSH1 0x1 ADD SWAP1 DUP1 MLOAD SWAP1 PUSH1 0x20 ADD SWAP1 PUSH2 0x190A SWAP3 SWAP2 SWAP1 PUSH2 0x247A JUMP JUMPDEST POP PUSH1 0x40 DUP3 ADD MLOAD DUP2 PUSH1 0x2 ADD SSTORE PUSH1 0x60 DUP3 ADD MLOAD DUP2 PUSH1 0x3 ADD SWAP1 DUP1 MLOAD SWAP1 PUSH1 0x20 ADD SWAP1 PUSH2 0x1931 SWAP3 SWAP2 SWAP1 PUSH2 0x2500 JUMP JUMPDEST POP SWAP1 POP POP PUSH32 0xDB38A0F551885A9E8666B66DB8057C351D8F70150C869D99953A3051B52CC36A DUP4 PUSH1 0x40 MLOAD PUSH2 0x1964 SWAP2 SWAP1 PUSH2 0x2D5A JUMP JUMPDEST PUSH1 0x40 MLOAD DUP1 SWAP2 SUB SWAP1 LOG1 POP POP POP POP POP POP JUMP JUMPDEST PUSH2 0x197C PUSH2 0x257C JUMP JUMPDEST PUSH1 0x1 PUSH1 0x0 DUP4 DUP2 MSTORE PUSH1 0x20 ADD SWAP1 DUP2 MSTORE PUSH1 0x20 ADD PUSH1 0x0 KECCAK256 PUSH1 0x40 MLOAD DUP1 PUSH2 0x100 ADD PUSH1 0x40 MSTORE SWAP1 DUP2 PUSH1 0x0 DUP3 ADD SLOAD DUP2 MSTORE PUSH1 0x20 ADD PUSH1 0x1 DUP3 ADD DUP1 SLOAD PUSH2 0x19B5 SWAP1 PUSH2 0x300D JUMP JUMPDEST DUP1 PUSH1 0x1F ADD PUSH1 0x20 DUP1 SWAP2 DIV MUL PUSH1 0x20 ADD PUSH1 0x40 MLOAD SWAP1 DUP2 ADD PUSH1 0x40 MSTORE DUP1 SWAP3 SWAP2 SWAP1 DUP2 DUP2 MSTORE PUSH1 0x20 ADD DUP3 DUP1 SLOAD PUSH2 0x19E1 SWAP1 PUSH2 0x300D JUMP JUMPDEST DUP1 ISZERO PUSH2 0x1A2E JUMPI DUP1 PUSH1 0x1F LT PUSH2 0x1A03 JUMPI PUSH2 0x100 DUP1 DUP4 SLOAD DIV MUL DUP4 MSTORE SWAP2 PUSH1 0x20 ADD SWAP2 PUSH2 0x1A2E JUMP JUMPDEST DUP3 ADD SWAP2 SWAP1 PUSH1 0x0 MSTORE PUSH1 0x20 PUSH1 0x0 KECCAK256 SWAP1 JUMPDEST DUP2 SLOAD DUP2 MSTORE SWAP1 PUSH1 0x1 ADD SWAP1 PUSH1 0x20 ADD DUP1 DUP4 GT PUSH2 0x1A11 JUMPI DUP3 SWAP1 SUB PUSH1 0x1F AND DUP3 ADD SWAP2 JUMPDEST POP POP POP POP POP DUP2 MSTORE PUSH1 0x20 ADD PUSH1 0x2 DUP3 ADD SLOAD DUP2 MSTORE PUSH1 0x20 ADD PUSH1 0x3 DUP3 ADD DUP1 SLOAD PUSH2 0x1A51 SWAP1 PUSH2 0x300D JUMP JUMPDEST DUP1 PUSH1 0x1F ADD PUSH1 0x20 DUP1 SWAP2 DIV MUL PUSH1 0x20 ADD PUSH1 0x40 MLOAD SWAP1 DUP2 ADD PUSH1 0x40 MSTORE DUP1 SWAP3 SWAP2 SWAP1 DUP2 DUP2 MSTORE PUSH1 0x20 ADD DUP3 DUP1 SLOAD PUSH2 0x1A7D SWAP1 PUSH2 0x300D JUMP JUMPDEST DUP1 ISZERO PUSH2 0x1ACA JUMPI DUP1 PUSH1 0x1F LT PUSH2 0x1A9F JUMPI PUSH2 0x100 DUP1 DUP4 SLOAD DIV MUL DUP4 MSTORE SWAP2 PUSH1 0x20 ADD SWAP2 PUSH2 0x1ACA JUMP JUMPDEST DUP3 ADD SWAP2 SWAP1 PUSH1 0x0 MSTORE PUSH1 0x20 PUSH1 0x0 KECCAK256 SWAP1 JUMPDEST DUP2 SLOAD DUP2 MSTORE SWAP1 PUSH1 0x1 ADD SWAP1 PUSH1 0x20 ADD DUP1 DUP4 GT PUSH2 0x1AAD JUMPI DUP3 SWAP1 SUB PUSH1 0x1F AND DUP3 ADD SWAP2 JUMPDEST POP POP POP POP POP DUP2 MSTORE PUSH1 0x20 ADD PUSH1 0x4 DUP3 ADD DUP1 SLOAD DUP1 PUSH1 0x20 MUL PUSH1 0x20 ADD PUSH1 0x40 MLOAD SWAP1 DUP2 ADD PUSH1 0x40 MSTORE DUP1 SWAP3 SWAP2 SWAP1 DUP2 DUP2 MSTORE PUSH1 0x20 ADD DUP3 DUP1 SLOAD DUP1 ISZERO PUSH2 0x1B22 JUMPI PUSH1 0x20 MUL DUP3 ADD SWAP2 SWAP1 PUSH1 0x0 MSTORE PUSH1 0x20 PUSH1 0x0 KECCAK256 SWAP1 JUMPDEST DUP2 SLOAD DUP2 MSTORE PUSH1 0x20 ADD SWAP1 PUSH1 0x1 ADD SWAP1 DUP1 DUP4 GT PUSH2 0x1B0E JUMPI JUMPDEST POP POP POP POP POP DUP2 MSTORE PUSH1 0x20 ADD PUSH1 0x5 DUP3 ADD SLOAD DUP2 MSTORE PUSH1 0x20 ADD PUSH1 0x6 DUP3 ADD DUP1 SLOAD PUSH2 0x1B45 SWAP1 PUSH2 0x300D JUMP JUMPDEST DUP1 PUSH1 0x1F ADD PUSH1 0x20 DUP1 SWAP2 DIV MUL PUSH1 0x20 ADD PUSH1 0x40 MLOAD SWAP1 DUP2 ADD PUSH1 0x40 MSTORE DUP1 SWAP3 SWAP2 SWAP1 DUP2 DUP2 MSTORE PUSH1 0x20 ADD DUP3 DUP1 SLOAD PUSH2 0x1B71 SWAP1 PUSH2 0x300D JUMP JUMPDEST DUP1 ISZERO PUSH2 0x1BBE JUMPI DUP1 PUSH1 0x1F LT PUSH2 0x1B93 JUMPI PUSH2 0x100 DUP1 DUP4 SLOAD DIV MUL DUP4 MSTORE SWAP2 PUSH1 0x20 ADD SWAP2 PUSH2 0x1BBE JUMP JUMPDEST DUP3 ADD SWAP2 SWAP1 PUSH1 0x0 MSTORE PUSH1 0x20 PUSH1 0x0 KECCAK256 SWAP1 JUMPDEST DUP2 SLOAD DUP2 MSTORE SWAP1 PUSH1 0x1 ADD SWAP1 PUSH1 0x20 ADD DUP1 DUP4 GT PUSH2 0x1BA1 JUMPI DUP3 SWAP1 SUB PUSH1 0x1F AND DUP3 ADD SWAP2 JUMPDEST POP POP POP POP POP DUP2 MSTORE PUSH1 0x20 ADD PUSH1 0x7 DUP3 ADD SLOAD DUP2 MSTORE POP POP SWAP1 POP SWAP2 SWAP1 POP JUMP JUMPDEST PUSH1 0x0 PUSH2 0x1BE3 DUP5 PUSH2 0x1974 JUMP JUMPDEST SWAP1 POP DUP3 DUP2 PUSH1 0xE0 ADD MLOAD EQ PUSH2 0x1C2B JUMPI PUSH1 0x40 MLOAD PUSH32 0x8C379A000000000000000000000000000000000000000000000000000000000 DUP2 MSTORE PUSH1 0x4 ADD PUSH2 0x1C22 SWAP1 PUSH2 0x2CF6 JUMP JUMPDEST PUSH1 0x40 MLOAD DUP1 SWAP2 SUB SWAP1 REVERT JUMPDEST PUSH1 0x0 PUSH2 0x1C36 DUP5 PUSH2 0x774 JUMP JUMPDEST SWAP1 POP PUSH1 0x0 PUSH2 0x1C43 DUP5 PUSH2 0x1E44 JUMP JUMPDEST SWAP1 POP DUP1 PUSH1 0x40 ADD MLOAD DUP4 PUSH1 0xC0 ADD DUP2 SWAP1 MSTORE POP DUP1 PUSH1 0x0 ADD MLOAD DUP4 PUSH1 0xE0 ADD DUP2 DUP2 MSTORE POP POP DUP5 DUP4 PUSH1 0x80 ADD MLOAD DUP5 PUSH1 0xA0 ADD DUP1 MLOAD DUP1 SWAP2 SWAP1 PUSH2 0x1C78 SWAP1 PUSH2 0x3070 JUMP JUMPDEST DUP2 MSTORE POP DUP2 MLOAD DUP2 LT PUSH2 0x1C8C JUMPI PUSH2 0x1C8B PUSH2 0x3117 JUMP JUMPDEST JUMPDEST PUSH1 0x20 MUL PUSH1 0x20 ADD ADD DUP2 DUP2 MSTORE POP POP DUP3 PUSH1 0x1 PUSH1 0x0 DUP9 DUP2 MSTORE PUSH1 0x20 ADD SWAP1 DUP2 MSTORE PUSH1 0x20 ADD PUSH1 0x0 KECCAK256 PUSH1 0x0 DUP3 ADD MLOAD DUP2 PUSH1 0x0 ADD SSTORE PUSH1 0x20 DUP3 ADD MLOAD DUP2 PUSH1 0x1 ADD SWAP1 DUP1 MLOAD SWAP1 PUSH1 0x20 ADD SWAP1 PUSH2 0x1CD2 SWAP3 SWAP2 SWAP1 PUSH2 0x247A JUMP JUMPDEST POP PUSH1 0x40 DUP3 ADD MLOAD DUP2 PUSH1 0x2 ADD SSTORE PUSH1 0x60 DUP3 ADD MLOAD DUP2 PUSH1 0x3 ADD SWAP1 DUP1 MLOAD SWAP1 PUSH1 0x20 ADD SWAP1 PUSH2 0x1CF9 SWAP3 SWAP2 SWAP1 PUSH2 0x247A JUMP JUMPDEST POP PUSH1 0x80 DUP3 ADD MLOAD DUP2 PUSH1 0x4 ADD SWAP1 DUP1 MLOAD SWAP1 PUSH1 0x20 ADD SWAP1 PUSH2 0x1D16 SWAP3 SWAP2 SWAP1 PUSH2 0x2500 JUMP JUMPDEST POP PUSH1 0xA0 DUP3 ADD MLOAD DUP2 PUSH1 0x5 ADD SSTORE PUSH1 0xC0 DUP3 ADD MLOAD DUP2 PUSH1 0x6 ADD SWAP1 DUP1 MLOAD SWAP1 PUSH1 0x20 ADD SWAP1 PUSH2 0x1D3D SWAP3 SWAP2 SWAP1 PUSH2 0x247A JUMP JUMPDEST POP PUSH1 0xE0 DUP3 ADD MLOAD DUP2 PUSH1 0x7 ADD SSTORE SWAP1 POP POP DUP6 DUP2 PUSH1 0x80 ADD MLOAD DUP3 PUSH1 0x60 ADD DUP1 MLOAD DUP1 SWAP2 SWAP1 PUSH2 0x1D63 SWAP1 PUSH2 0x3070 JUMP JUMPDEST DUP2 MSTORE POP DUP2 MLOAD DUP2 LT PUSH2 0x1D77 JUMPI PUSH2 0x1D76 PUSH2 0x3117 JUMP JUMPDEST JUMPDEST PUSH1 0x20 MUL PUSH1 0x20 ADD ADD DUP2 DUP2 MSTORE POP POP DUP1 PUSH1 0x4 PUSH1 0x0 DUP7 DUP2 MSTORE PUSH1 0x20 ADD SWAP1 DUP2 MSTORE PUSH1 0x20 ADD PUSH1 0x0 KECCAK256 PUSH1 0x0 DUP3 ADD MLOAD DUP2 PUSH1 0x0 ADD SSTORE PUSH1 0x20 DUP3 ADD MLOAD DUP2 PUSH1 0x1 ADD SWAP1 DUP1 MLOAD SWAP1 PUSH1 0x20 ADD SWAP1 PUSH2 0x1DBD SWAP3 SWAP2 SWAP1 PUSH2 0x247A JUMP JUMPDEST POP PUSH1 0x40 DUP3 ADD MLOAD DUP2 PUSH1 0x2 ADD SWAP1 DUP1 MLOAD SWAP1 PUSH1 0x20 ADD SWAP1 PUSH2 0x1DDA SWAP3 SWAP2 SWAP1 PUSH2 0x247A JUMP JUMPDEST POP PUSH1 0x60 DUP3 ADD MLOAD DUP2 PUSH1 0x3 ADD SSTORE PUSH1 0x80 DUP3 ADD MLOAD DUP2 PUSH1 0x4 ADD SWAP1 DUP1 MLOAD SWAP1 PUSH1 0x20 ADD SWAP1 PUSH2 0x1E01 SWAP3 SWAP2 SWAP1 PUSH2 0x2500 JUMP JUMPDEST POP SWAP1 POP POP PUSH32 0xDB38A0F551885A9E8666B66DB8057C351D8F70150C869D99953A3051B52CC36A DUP4 PUSH1 0x40 MLOAD PUSH2 0x1E34 SWAP2 SWAP1 PUSH2 0x2D5A JUMP JUMPDEST PUSH1 0x40 MLOAD DUP1 SWAP2 SUB SWAP1 LOG1 POP POP POP POP POP POP JUMP JUMPDEST PUSH2 0x1E4C PUSH2 0x25C1 JUMP JUMPDEST PUSH1 0x4 PUSH1 0x0 DUP4 DUP2 MSTORE PUSH1 0x20 ADD SWAP1 DUP2 MSTORE PUSH1 0x20 ADD PUSH1 0x0 KECCAK256 PUSH1 0x40 MLOAD DUP1 PUSH1 0xA0 ADD PUSH1 0x40 MSTORE SWAP1 DUP2 PUSH1 0x0 DUP3 ADD SLOAD DUP2 MSTORE PUSH1 0x20 ADD PUSH1 0x1 DUP3 ADD DUP1 SLOAD PUSH2 0x1E84 SWAP1 PUSH2 0x300D JUMP JUMPDEST DUP1 PUSH1 0x1F ADD PUSH1 0x20 DUP1 SWAP2 DIV MUL PUSH1 0x20 ADD PUSH1 0x40 MLOAD SWAP1 DUP2 ADD PUSH1 0x40 MSTORE DUP1 SWAP3 SWAP2 SWAP1 DUP2 DUP2 MSTORE PUSH1 0x20 ADD DUP3 DUP1 SLOAD PUSH2 0x1EB0 SWAP1 PUSH2 0x300D JUMP JUMPDEST DUP1 ISZERO PUSH2 0x1EFD JUMPI DUP1 PUSH1 0x1F LT PUSH2 0x1ED2 JUMPI PUSH2 0x100 DUP1 DUP4 SLOAD DIV MUL DUP4 MSTORE SWAP2 PUSH1 0x20 ADD SWAP2 PUSH2 0x1EFD JUMP JUMPDEST DUP3 ADD SWAP2 SWAP1 PUSH1 0x0 MSTORE PUSH1 0x20 PUSH1 0x0 KECCAK256 SWAP1 JUMPDEST DUP2 SLOAD DUP2 MSTORE SWAP1 PUSH1 0x1 ADD SWAP1 PUSH1 0x20 ADD DUP1 DUP4 GT PUSH2 0x1EE0 JUMPI DUP3 SWAP1 SUB PUSH1 0x1F AND DUP3 ADD SWAP2 JUMPDEST POP POP POP POP POP DUP2 MSTORE PUSH1 0x20 ADD PUSH1 0x2 DUP3 ADD DUP1 SLOAD PUSH2 0x1F16 SWAP1 PUSH2 0x300D JUMP JUMPDEST DUP1 PUSH1 0x1F ADD PUSH1 0x20 DUP1 SWAP2 DIV MUL PUSH1 0x20 ADD PUSH1 0x40 MLOAD SWAP1 DUP2 ADD PUSH1 0x40 MSTORE DUP1 SWAP3 SWAP2 SWAP1 DUP2 DUP2 MSTORE PUSH1 0x20 ADD DUP3 DUP1 SLOAD PUSH2 0x1F42 SWAP1 PUSH2 0x300D JUMP JUMPDEST DUP1 ISZERO PUSH2 0x1F8F JUMPI DUP1 PUSH1 0x1F LT PUSH2 0x1F64 JUMPI PUSH2 0x100 DUP1 DUP4 SLOAD DIV MUL DUP4 MSTORE SWAP2 PUSH1 0x20 ADD SWAP2 PUSH2 0x1F8F JUMP JUMPDEST DUP3 ADD SWAP2 SWAP1 PUSH1 0x0 MSTORE PUSH1 0x20 PUSH1 0x0 KECCAK256 SWAP1 JUMPDEST DUP2 SLOAD DUP2 MSTORE SWAP1 PUSH1 0x1 ADD SWAP1 PUSH1 0x20 ADD DUP1 DUP4 GT PUSH2 0x1F72 JUMPI DUP3 SWAP1 SUB PUSH1 0x1F AND DUP3 ADD SWAP2 JUMPDEST POP POP POP POP POP DUP2 MSTORE PUSH1 0x20 ADD PUSH1 0x3 DUP3 ADD SLOAD DUP2 MSTORE PUSH1 0x20 ADD PUSH1 0x4 DUP3 ADD DUP1 SLOAD DUP1 PUSH1 0x20 MUL PUSH1 0x20 ADD PUSH1 0x40 MLOAD SWAP1 DUP2 ADD PUSH1 0x40 MSTORE DUP1 SWAP3 SWAP2 SWAP1 DUP2 DUP2 MSTORE PUSH1 0x20 ADD DUP3 DUP1 SLOAD DUP1 ISZERO PUSH2 0x1FF1 JUMPI PUSH1 0x20 MUL DUP3 ADD SWAP2 SWAP1 PUSH1 0x0 MSTORE PUSH1 0x20 PUSH1 0x0 KECCAK256 SWAP1 JUMPDEST DUP2 SLOAD DUP2 MSTORE PUSH1 0x20 ADD SWAP1 PUSH1 0x1 ADD SWAP1 DUP1 DUP4 GT PUSH2 0x1FDD JUMPI JUMPDEST POP POP POP POP POP DUP2 MSTORE POP POP SWAP1 POP SWAP2 SWAP1 POP JUMP JUMPDEST PUSH2 0x2009 PUSH2 0x25F0 JUMP JUMPDEST PUSH1 0x6 PUSH1 0x0 DUP4 DUP2 MSTORE PUSH1 0x20 ADD SWAP1 DUP2 MSTORE PUSH1 0x20 ADD PUSH1 0x0 KECCAK256 PUSH1 0x40 MLOAD DUP1 PUSH1 0x80 ADD PUSH1 0x40 MSTORE SWAP1 DUP2 PUSH1 0x0 DUP3 ADD SLOAD DUP2 MSTORE PUSH1 0x20 ADD PUSH1 0x1 DUP3 ADD DUP1 SLOAD PUSH2 0x2041 SWAP1 PUSH2 0x300D JUMP JUMPDEST DUP1 PUSH1 0x1F ADD PUSH1 0x20 DUP1 SWAP2 DIV MUL PUSH1 0x20 ADD PUSH1 0x40 MLOAD SWAP1 DUP2 ADD PUSH1 0x40 MSTORE DUP1 SWAP3 SWAP2 SWAP1 DUP2 DUP2 MSTORE PUSH1 0x20 ADD DUP3 DUP1 SLOAD PUSH2 0x206D SWAP1 PUSH2 0x300D JUMP JUMPDEST DUP1 ISZERO PUSH2 0x20BA JUMPI DUP1 PUSH1 0x1F LT PUSH2 0x208F JUMPI PUSH2 0x100 DUP1 DUP4 SLOAD DIV MUL DUP4 MSTORE SWAP2 PUSH1 0x20 ADD SWAP2 PUSH2 0x20BA JUMP JUMPDEST DUP3 ADD SWAP2 SWAP1 PUSH1 0x0 MSTORE PUSH1 0x20 PUSH1 0x0 KECCAK256 SWAP1 JUMPDEST DUP2 SLOAD DUP2 MSTORE SWAP1 PUSH1 0x1 ADD SWAP1 PUSH1 0x20 ADD DUP1 DUP4 GT PUSH2 0x209D JUMPI DUP3 SWAP1 SUB PUSH1 0x1F AND DUP3 ADD SWAP2 JUMPDEST POP POP POP POP POP DUP2 MSTORE PUSH1 0x20 ADD PUSH1 0x2 DUP3 ADD SLOAD DUP2 MSTORE PUSH1 0x20 ADD PUSH1 0x3 DUP3 ADD DUP1 SLOAD DUP1 PUSH1 0x20 MUL PUSH1 0x20 ADD PUSH1 0x40 MLOAD SWAP1 DUP2 ADD PUSH1 0x40 MSTORE DUP1 SWAP3 SWAP2 SWAP1 DUP2 DUP2 MSTORE PUSH1 0x20 ADD DUP3 DUP1 SLOAD DUP1 ISZERO PUSH2 0x211C JUMPI PUSH1 0x20 MUL DUP3 ADD SWAP2 SWAP1 PUSH1 0x0 MSTORE PUSH1 0x20 PUSH1 0x0 KECCAK256 SWAP1 JUMPDEST DUP2 SLOAD DUP2 MSTORE PUSH1 0x20 ADD SWAP1 PUSH1 0x1 ADD SWAP1 DUP1 DUP4 GT PUSH2 0x2108 JUMPI JUMPDEST POP POP POP POP POP DUP2 MSTORE POP POP SWAP1 POP SWAP2 SWAP1 POP JUMP JUMPDEST PUSH1 0x3 PUSH1 0x20 MSTORE DUP1 PUSH1 0x0 MSTORE PUSH1 0x40 PUSH1 0x0 KECCAK256 PUSH1 0x0 SWAP2 POP SWAP1 POP DUP1 PUSH1 0x0 ADD SLOAD SWAP1 DUP1 PUSH1 0x1 ADD DUP1 SLOAD PUSH2 0x2155 SWAP1 PUSH2 0x300D JUMP JUMPDEST DUP1 PUSH1 0x1F ADD PUSH1 0x20 DUP1 SWAP2 DIV MUL PUSH1 0x20 ADD PUSH1 0x40 MLOAD SWAP1 DUP2 ADD PUSH1 0x40 MSTORE DUP1 SWAP3 SWAP2 SWAP1 DUP2 DUP2 MSTORE PUSH1 0x20 ADD DUP3 DUP1 SLOAD PUSH2 0x2181 SWAP1 PUSH2 0x300D JUMP JUMPDEST DUP1 ISZERO PUSH2 0x21CE JUMPI DUP1 PUSH1 0x1F LT PUSH2 0x21A3 JUMPI PUSH2 0x100 DUP1 DUP4 SLOAD DIV MUL DUP4 MSTORE SWAP2 PUSH1 0x20 ADD SWAP2 PUSH2 0x21CE JUMP JUMPDEST DUP3 ADD SWAP2 SWAP1 PUSH1 0x0 MSTORE PUSH1 0x20 PUSH1 0x0 KECCAK256 SWAP1 JUMPDEST DUP2 SLOAD DUP2 MSTORE SWAP1 PUSH1 0x1 ADD SWAP1 PUSH1 0x20 ADD DUP1 DUP4 GT PUSH2 0x21B1 JUMPI DUP3 SWAP1 SUB PUSH1 0x1F AND DUP3 ADD SWAP2 JUMPDEST POP POP POP POP POP SWAP1 DUP1 PUSH1 0x2 ADD DUP1 SLOAD PUSH2 0x21E3 SWAP1 PUSH2 0x300D JUMP JUMPDEST DUP1 PUSH1 0x1F ADD PUSH1 0x20 DUP1 SWAP2 DIV MUL PUSH1 0x20 ADD PUSH1 0x40 MLOAD SWAP1 DUP2 ADD PUSH1 0x40 MSTORE DUP1 SWAP3 SWAP2 SWAP1 DUP2 DUP2 MSTORE PUSH1 0x20 ADD DUP3 DUP1 SLOAD PUSH2 0x220F SWAP1 PUSH2 0x300D JUMP JUMPDEST DUP1 ISZERO PUSH2 0x225C JUMPI DUP1 PUSH1 0x1F LT PUSH2 0x2231 JUMPI PUSH2 0x100 DUP1 DUP4 SLOAD DIV MUL DUP4 MSTORE SWAP2 PUSH1 0x20 ADD SWAP2 PUSH2 0x225C JUMP JUMPDEST DUP3 ADD SWAP2 SWAP1 PUSH1 0x0 MSTORE PUSH1 0x20 PUSH1 0x0 KECCAK256 SWAP1 JUMPDEST DUP2 SLOAD DUP2 MSTORE SWAP1 PUSH1 0x1 ADD SWAP1 PUSH1 0x20 ADD DUP1 DUP4 GT PUSH2 0x223F JUMPI DUP3 SWAP1 SUB PUSH1 0x1F AND DUP3 ADD SWAP2 JUMPDEST POP POP POP POP POP SWAP1 DUP1 PUSH1 0x3 ADD SLOAD SWAP1 POP DUP5 JUMP JUMPDEST PUSH1 0x0 PUSH2 0x2277 DUP3 PUSH2 0x774 JUMP JUMPDEST SWAP1 POP PUSH1 0x0 PUSH2 0x2284 DUP5 PUSH2 0x1974 JUMP JUMPDEST SWAP1 POP DUP2 PUSH1 0x40 ADD MLOAD DUP2 PUSH1 0xC0 ADD DUP2 SWAP1 MSTORE POP DUP2 PUSH1 0x0 ADD MLOAD DUP2 PUSH1 0xE0 ADD DUP2 DUP2 MSTORE POP POP DUP1 PUSH1 0x1 PUSH1 0x0 DUP7 DUP2 MSTORE PUSH1 0x20 ADD SWAP1 DUP2 MSTORE PUSH1 0x20 ADD PUSH1 0x0 KECCAK256 PUSH1 0x0 DUP3 ADD MLOAD DUP2 PUSH1 0x0 ADD SSTORE PUSH1 0x20 DUP3 ADD MLOAD DUP2 PUSH1 0x1 ADD SWAP1 DUP1 MLOAD SWAP1 PUSH1 0x20 ADD SWAP1 PUSH2 0x22DB SWAP3 SWAP2 SWAP1 PUSH2 0x247A JUMP JUMPDEST POP PUSH1 0x40 DUP3 ADD MLOAD DUP2 PUSH1 0x2 ADD SSTORE PUSH1 0x60 DUP3 ADD MLOAD DUP2 PUSH1 0x3 ADD SWAP1 DUP1 MLOAD SWAP1 PUSH1 0x20 ADD SWAP1 PUSH2 0x2302 SWAP3 SWAP2 SWAP1 PUSH2 0x247A JUMP JUMPDEST POP PUSH1 0x80 DUP3 ADD MLOAD DUP2 PUSH1 0x4 ADD SWAP1 DUP1 MLOAD SWAP1 PUSH1 0x20 ADD SWAP1 PUSH2 0x231F SWAP3 SWAP2 SWAP1 PUSH2 0x2500 JUMP JUMPDEST POP PUSH1 0xA0 DUP3 ADD MLOAD DUP2 PUSH1 0x5 ADD SSTORE PUSH1 0xC0 DUP3 ADD MLOAD DUP2 PUSH1 0x6 ADD SWAP1 DUP1 MLOAD SWAP1 PUSH1 0x20 ADD SWAP1 PUSH2 0x2346 SWAP3 SWAP2 SWAP1 PUSH2 0x247A JUMP JUMPDEST POP PUSH1 0xE0 DUP3 ADD MLOAD DUP2 PUSH1 0x7 ADD SSTORE SWAP1 POP POP DUP4 DUP3 PUSH1 0x80 ADD MLOAD DUP4 PUSH1 0x60 ADD DUP1 MLOAD DUP1 SWAP2 SWAP1 PUSH2 0x236C SWAP1 PUSH2 0x3070 JUMP JUMPDEST DUP2 MSTORE POP DUP2 MLOAD DUP2 LT PUSH2 0x2380 JUMPI PUSH2 0x237F PUSH2 0x3117 JUMP JUMPDEST JUMPDEST PUSH1 0x20 MUL PUSH1 0x20 ADD ADD DUP2 DUP2 MSTORE POP POP DUP2 PUSH1 0x3 PUSH1 0x0 DUP6 DUP2 MSTORE PUSH1 0x20 ADD SWAP1 DUP2 MSTORE PUSH1 0x20 ADD PUSH1 0x0 KECCAK256 PUSH1 0x0 DUP3 ADD MLOAD DUP2 PUSH1 0x0 ADD SSTORE PUSH1 0x20 DUP3 ADD MLOAD DUP2 PUSH1 0x1 ADD SWAP1 DUP1 MLOAD SWAP1 PUSH1 0x20 ADD SWAP1 PUSH2 0x23C6 SWAP3 SWAP2 SWAP1 PUSH2 0x247A JUMP JUMPDEST POP PUSH1 0x40 DUP3 ADD MLOAD DUP2 PUSH1 0x2 ADD SWAP1 DUP1 MLOAD SWAP1 PUSH1 0x20 ADD SWAP1 PUSH2 0x23E3 SWAP3 SWAP2 SWAP1 PUSH2 0x247A JUMP JUMPDEST POP PUSH1 0x60 DUP3 ADD MLOAD DUP2 PUSH1 0x3 ADD SSTORE PUSH1 0x80 DUP3 ADD MLOAD DUP2 PUSH1 0x4 ADD SWAP1 DUP1 MLOAD SWAP1 PUSH1 0x20 ADD SWAP1 PUSH2 0x240A SWAP3 SWAP2 SWAP1 PUSH2 0x2500 JUMP JUMPDEST POP SWAP1 POP POP PUSH32 0xDB38A0F551885A9E8666B66DB8057C351D8F70150C869D99953A3051B52CC36A DUP2 PUSH1 0x40 MLOAD PUSH2 0x243D SWAP2 SWAP1 PUSH2 0x2D5A JUMP JUMPDEST PUSH1 0x40 MLOAD DUP1 SWAP2 SUB SWAP1 LOG1 POP POP POP POP JUMP JUMPDEST PUSH1 0x40 MLOAD DUP1 PUSH1 0xA0 ADD PUSH1 0x40 MSTORE DUP1 PUSH1 0x0 DUP2 MSTORE PUSH1 0x20 ADD PUSH1 0x60 DUP2 MSTORE PUSH1 0x20 ADD PUSH1 0x60 DUP2 MSTORE PUSH1 0x20 ADD PUSH1 0x0 DUP2 MSTORE PUSH1 0x20 ADD PUSH1 0x60 DUP2 MSTORE POP SWAP1 JUMP JUMPDEST DUP3 DUP1 SLOAD PUSH2 0x2486 SWAP1 PUSH2 0x300D JUMP JUMPDEST SWAP1 PUSH1 0x0 MSTORE PUSH1 0x20 PUSH1 0x0 KECCAK256 SWAP1 PUSH1 0x1F ADD PUSH1 0x20 SWAP1 DIV DUP2 ADD SWAP3 DUP3 PUSH2 0x24A8 JUMPI PUSH1 0x0 DUP6 SSTORE PUSH2 0x24EF JUMP JUMPDEST DUP3 PUSH1 0x1F LT PUSH2 0x24C1 JUMPI DUP1 MLOAD PUSH1 0xFF NOT AND DUP4 DUP1 ADD OR DUP6 SSTORE PUSH2 0x24EF JUMP JUMPDEST DUP3 DUP1 ADD PUSH1 0x1 ADD DUP6 SSTORE DUP3 ISZERO PUSH2 0x24EF JUMPI SWAP2 DUP3 ADD JUMPDEST DUP3 DUP2 GT ISZERO PUSH2 0x24EE JUMPI DUP3 MLOAD DUP3 SSTORE SWAP2 PUSH1 0x20 ADD SWAP2 SWAP1 PUSH1 0x1 ADD SWAP1 PUSH2 0x24D3 JUMP JUMPDEST JUMPDEST POP SWAP1 POP PUSH2 0x24FC SWAP2 SWAP1 PUSH2 0x2618 JUMP JUMPDEST POP SWAP1 JUMP JUMPDEST DUP3 DUP1 SLOAD DUP3 DUP3 SSTORE SWAP1 PUSH1 0x0 MSTORE PUSH1 0x20 PUSH1 0x0 KECCAK256 SWAP1 DUP2 ADD SWAP3 DUP3 ISZERO PUSH2 0x253C JUMPI SWAP2 PUSH1 0x20 MUL DUP3 ADD JUMPDEST DUP3 DUP2 GT ISZERO PUSH2 0x253B JUMPI DUP3 MLOAD DUP3 SSTORE SWAP2 PUSH1 0x20 ADD SWAP2 SWAP1 PUSH1 0x1 ADD SWAP1 PUSH2 0x2520 JUMP JUMPDEST JUMPDEST POP SWAP1 POP PUSH2 0x2549 SWAP2 SWAP1 PUSH2 0x2618 JUMP JUMPDEST POP SWAP1 JUMP JUMPDEST PUSH1 0x40 MLOAD DUP1 PUSH1 0xA0 ADD PUSH1 0x40 MSTORE DUP1 PUSH1 0x0 DUP2 MSTORE PUSH1 0x20 ADD PUSH1 0x60 DUP2 MSTORE PUSH1 0x20 ADD PUSH1 0x60 DUP2 MSTORE PUSH1 0x20 ADD PUSH1 0x0 DUP2 MSTORE PUSH1 0x20 ADD PUSH1 0x60 DUP2 MSTORE POP SWAP1 JUMP JUMPDEST PUSH1 0x40 MLOAD DUP1 PUSH2 0x100 ADD PUSH1 0x40 MSTORE DUP1 PUSH1 0x0 DUP2 MSTORE PUSH1 0x20 ADD PUSH1 0x60 DUP2 MSTORE PUSH1 0x20 ADD PUSH1 0x0 DUP2 MSTORE PUSH1 0x20 ADD PUSH1 0x60 DUP2 MSTORE PUSH1 0x20 ADD PUSH1 0x60 DUP2 MSTORE PUSH1 0x20 ADD PUSH1 0x0 DUP2 MSTORE PUSH1 0x20 ADD PUSH1 0x60 DUP2 MSTORE PUSH1 0x20 ADD PUSH1 0x0 DUP2 MSTORE POP SWAP1 JUMP JUMPDEST PUSH1 0x40 MLOAD DUP1 PUSH1 0xA0 ADD PUSH1 0x40 MSTORE DUP1 PUSH1 0x0 DUP2 MSTORE PUSH1 0x20 ADD PUSH1 0x60 DUP2 MSTORE PUSH1 0x20 ADD PUSH1 0x60 DUP2 MSTORE PUSH1 0x20 ADD PUSH1 0x0 DUP2 MSTORE PUSH1 0x20 ADD PUSH1 0x60 DUP2 MSTORE POP SWAP1 JUMP JUMPDEST PUSH1 0x40 MLOAD DUP1 PUSH1 0x80 ADD PUSH1 0x40 MSTORE DUP1 PUSH1 0x0 DUP2 MSTORE PUSH1 0x20 ADD PUSH1 0x60 DUP2 MSTORE PUSH1 0x20 ADD PUSH1 0x0 DUP2 MSTORE PUSH1 0x20 ADD PUSH1 0x60 DUP2 MSTORE POP SWAP1 JUMP JUMPDEST JUMPDEST DUP1 DUP3 GT ISZERO PUSH2 0x2631 JUMPI PUSH1 0x0 DUP2 PUSH1 0x0 SWAP1 SSTORE POP PUSH1 0x1 ADD PUSH2 0x2619 JUMP JUMPDEST POP SWAP1 JUMP JUMPDEST PUSH1 0x0 PUSH2 0x2648 PUSH2 0x2643 DUP5 PUSH2 0x2F2A JUMP JUMPDEST PUSH2 0x2F05 JUMP JUMPDEST SWAP1 POP DUP3 DUP2 MSTORE PUSH1 0x20 DUP2 ADD DUP5 DUP5 DUP5 ADD GT ISZERO PUSH2 0x2664 JUMPI PUSH2 0x2663 PUSH2 0x317A JUMP JUMPDEST JUMPDEST PUSH2 0x266F DUP5 DUP3 DUP6 PUSH2 0x2FCB JUMP JUMPDEST POP SWAP4 SWAP3 POP POP POP JUMP JUMPDEST PUSH1 0x0 DUP3 PUSH1 0x1F DUP4 ADD SLT PUSH2 0x268C JUMPI PUSH2 0x268B PUSH2 0x3175 JUMP JUMPDEST JUMPDEST DUP2 CALLDATALOAD PUSH2 0x269C DUP5 DUP3 PUSH1 0x20 DUP7 ADD PUSH2 0x2635 JUMP JUMPDEST SWAP2 POP POP SWAP3 SWAP2 POP POP JUMP JUMPDEST PUSH1 0x0 DUP2 CALLDATALOAD SWAP1 POP PUSH2 0x26B4 DUP2 PUSH2 0x3287 JUMP JUMPDEST SWAP3 SWAP2 POP POP JUMP JUMPDEST PUSH1 0x0 PUSH1 0x20 DUP3 DUP5 SUB SLT ISZERO PUSH2 0x26D0 JUMPI PUSH2 0x26CF PUSH2 0x3184 JUMP JUMPDEST JUMPDEST PUSH1 0x0 DUP3 ADD CALLDATALOAD PUSH8 0xFFFFFFFFFFFFFFFF DUP2 GT ISZERO PUSH2 0x26EE JUMPI PUSH2 0x26ED PUSH2 0x317F JUMP JUMPDEST JUMPDEST PUSH2 0x26FA DUP5 DUP3 DUP6 ADD PUSH2 0x2677 JUMP JUMPDEST SWAP2 POP POP SWAP3 SWAP2 POP POP JUMP JUMPDEST PUSH1 0x0 DUP1 PUSH1 0x0 PUSH1 0x60 DUP5 DUP7 SUB SLT ISZERO PUSH2 0x271C JUMPI PUSH2 0x271B PUSH2 0x3184 JUMP JUMPDEST JUMPDEST PUSH1 0x0 DUP5 ADD CALLDATALOAD PUSH8 0xFFFFFFFFFFFFFFFF DUP2 GT ISZERO PUSH2 0x273A JUMPI PUSH2 0x2739 PUSH2 0x317F JUMP JUMPDEST JUMPDEST PUSH2 0x2746 DUP7 DUP3 DUP8 ADD PUSH2 0x2677 JUMP JUMPDEST SWAP4 POP POP PUSH1 0x20 PUSH2 0x2757 DUP7 DUP3 DUP8 ADD PUSH2 0x26A5 JUMP JUMPDEST SWAP3 POP POP PUSH1 0x40 DUP5 ADD CALLDATALOAD PUSH8 0xFFFFFFFFFFFFFFFF DUP2 GT ISZERO PUSH2 0x2778 JUMPI PUSH2 0x2777 PUSH2 0x317F JUMP JUMPDEST JUMPDEST PUSH2 0x2784 DUP7 DUP3 DUP8 ADD PUSH2 0x2677 JUMP JUMPDEST SWAP2 POP POP SWAP3 POP SWAP3 POP SWAP3 JUMP JUMPDEST PUSH1 0x0 PUSH1 0x20 DUP3 DUP5 SUB SLT ISZERO PUSH2 0x27A4 JUMPI PUSH2 0x27A3 PUSH2 0x3184 JUMP JUMPDEST JUMPDEST PUSH1 0x0 PUSH2 0x27B2 DUP5 DUP3 DUP6 ADD PUSH2 0x26A5 JUMP JUMPDEST SWAP2 POP POP SWAP3 SWAP2 POP POP JUMP JUMPDEST PUSH1 0x0 DUP1 PUSH1 0x40 DUP4 DUP6 SUB SLT ISZERO PUSH2 0x27D2 JUMPI PUSH2 0x27D1 PUSH2 0x3184 JUMP JUMPDEST JUMPDEST PUSH1 0x0 PUSH2 0x27E0 DUP6 DUP3 DUP7 ADD PUSH2 0x26A5 JUMP JUMPDEST SWAP3 POP POP PUSH1 0x20 PUSH2 0x27F1 DUP6 DUP3 DUP7 ADD PUSH2 0x26A5 JUMP JUMPDEST SWAP2 POP POP SWAP3 POP SWAP3 SWAP1 POP JUMP JUMPDEST PUSH1 0x0 DUP1 PUSH1 0x0 PUSH1 0x60 DUP5 DUP7 SUB SLT ISZERO PUSH2 0x2814 JUMPI PUSH2 0x2813 PUSH2 0x3184 JUMP JUMPDEST JUMPDEST PUSH1 0x0 PUSH2 0x2822 DUP7 DUP3 DUP8 ADD PUSH2 0x26A5 JUMP JUMPDEST SWAP4 POP POP PUSH1 0x20 PUSH2 0x2833 DUP7 DUP3 DUP8 ADD PUSH2 0x26A5 JUMP JUMPDEST SWAP3 POP POP PUSH1 0x40 PUSH2 0x2844 DUP7 DUP3 DUP8 ADD PUSH2 0x26A5 JUMP JUMPDEST SWAP2 POP POP SWAP3 POP SWAP3 POP SWAP3 JUMP JUMPDEST PUSH1 0x0 PUSH2 0x285A DUP4 DUP4 PUSH2 0x2C5A JUMP JUMPDEST PUSH1 0x20 DUP4 ADD SWAP1 POP SWAP3 SWAP2 POP POP JUMP JUMPDEST PUSH1 0x0 PUSH2 0x2871 DUP3 PUSH2 0x2F6B JUMP JUMPDEST PUSH2 0x287B DUP2 DUP6 PUSH2 0x2F8E JUMP JUMPDEST SWAP4 POP PUSH2 0x2886 DUP4 PUSH2 0x2F5B JUMP JUMPDEST DUP1 PUSH1 0x0 JUMPDEST DUP4 DUP2 LT ISZERO PUSH2 0x28B7 JUMPI DUP2 MLOAD PUSH2 0x289E DUP9 DUP3 PUSH2 0x284E JUMP JUMPDEST SWAP8 POP PUSH2 0x28A9 DUP4 PUSH2 0x2F81 JUMP JUMPDEST SWAP3 POP POP PUSH1 0x1 DUP2 ADD SWAP1 POP PUSH2 0x288A JUMP JUMPDEST POP DUP6 SWAP4 POP POP POP POP SWAP3 SWAP2 POP POP JUMP JUMPDEST PUSH1 0x0 PUSH2 0x28CF DUP3 PUSH2 0x2F76 JUMP JUMPDEST PUSH2 0x28D9 DUP2 DUP6 PUSH2 0x2F9F JUMP JUMPDEST SWAP4 POP PUSH2 0x28E9 DUP2 DUP6 PUSH1 0x20 DUP7 ADD PUSH2 0x2FDA JUMP JUMPDEST PUSH2 0x28F2 DUP2 PUSH2 0x3189 JUMP JUMPDEST DUP5 ADD SWAP2 POP POP SWAP3 SWAP2 POP POP JUMP JUMPDEST PUSH1 0x0 PUSH2 0x2908 DUP3 PUSH2 0x2F76 JUMP JUMPDEST PUSH2 0x2912 DUP2 DUP6 PUSH2 0x2FB0 JUMP JUMPDEST SWAP4 POP PUSH2 0x2922 DUP2 DUP6 PUSH1 0x20 DUP7 ADD PUSH2 0x2FDA JUMP JUMPDEST PUSH2 0x292B DUP2 PUSH2 0x3189 JUMP JUMPDEST DUP5 ADD SWAP2 POP POP SWAP3 SWAP2 POP POP JUMP JUMPDEST PUSH1 0x0 PUSH2 0x2943 PUSH1 0x34 DUP4 PUSH2 0x2FB0 JUMP JUMPDEST SWAP2 POP PUSH2 0x294E DUP3 PUSH2 0x319A JUMP JUMPDEST PUSH1 0x40 DUP3 ADD SWAP1 POP SWAP2 SWAP1 POP JUMP JUMPDEST PUSH1 0x0 PUSH2 0x2966 PUSH1 0x33 DUP4 PUSH2 0x2FB0 JUMP JUMPDEST SWAP2 POP PUSH2 0x2971 DUP3 PUSH2 0x31E9 JUMP JUMPDEST PUSH1 0x40 DUP3 ADD SWAP1 POP SWAP2 SWAP1 POP JUMP JUMPDEST PUSH1 0x0 PUSH2 0x2989 PUSH1 0x30 DUP4 PUSH2 0x2FB0 JUMP JUMPDEST SWAP2 POP PUSH2 0x2994 DUP3 PUSH2 0x3238 JUMP JUMPDEST PUSH1 0x40 DUP3 ADD SWAP1 POP SWAP2 SWAP1 POP JUMP JUMPDEST PUSH1 0x0 PUSH1 0xA0 DUP4 ADD PUSH1 0x0 DUP4 ADD MLOAD PUSH2 0x29B7 PUSH1 0x0 DUP7 ADD DUP3 PUSH2 0x2C5A JUMP JUMPDEST POP PUSH1 0x20 DUP4 ADD MLOAD DUP5 DUP3 SUB PUSH1 0x20 DUP7 ADD MSTORE PUSH2 0x29CF DUP3 DUP3 PUSH2 0x28C4 JUMP JUMPDEST SWAP2 POP POP PUSH1 0x40 DUP4 ADD MLOAD DUP5 DUP3 SUB PUSH1 0x40 DUP7 ADD MSTORE PUSH2 0x29E9 DUP3 DUP3 PUSH2 0x28C4 JUMP JUMPDEST SWAP2 POP POP PUSH1 0x60 DUP4 ADD MLOAD PUSH2 0x29FE PUSH1 0x60 DUP7 ADD DUP3 PUSH2 0x2C5A JUMP JUMPDEST POP PUSH1 0x80 DUP4 ADD MLOAD DUP5 DUP3 SUB PUSH1 0x80 DUP7 ADD MSTORE PUSH2 0x2A16 DUP3 DUP3 PUSH2 0x2866 JUMP JUMPDEST SWAP2 POP POP DUP1 SWAP2 POP POP SWAP3 SWAP2 POP POP JUMP JUMPDEST PUSH1 0x0 PUSH1 0xA0 DUP4 ADD PUSH1 0x0 DUP4 ADD MLOAD PUSH2 0x2A3B PUSH1 0x0 DUP7 ADD DUP3 PUSH2 0x2C5A JUMP JUMPDEST POP PUSH1 0x20 DUP4 ADD MLOAD DUP5 DUP3 SUB PUSH1 0x20 DUP7 ADD MSTORE PUSH2 0x2A53 DUP3 DUP3 PUSH2 0x28C4 JUMP JUMPDEST SWAP2 POP POP PUSH1 0x40 DUP4 ADD MLOAD DUP5 DUP3 SUB PUSH1 0x40 DUP7 ADD MSTORE PUSH2 0x2A6D DUP3 DUP3 PUSH2 0x28C4 JUMP JUMPDEST SWAP2 POP POP PUSH1 0x60 DUP4 ADD MLOAD PUSH2 0x2A82 PUSH1 0x60 DUP7 ADD DUP3 PUSH2 0x2C5A JUMP JUMPDEST POP PUSH1 0x80 DUP4 ADD MLOAD DUP5 DUP3 SUB PUSH1 0x80 DUP7 ADD MSTORE PUSH2 0x2A9A DUP3 DUP3 PUSH2 0x2866 JUMP JUMPDEST SWAP2 POP POP DUP1 SWAP2 POP POP SWAP3 SWAP2 POP POP JUMP JUMPDEST PUSH1 0x0 PUSH2 0x100 DUP4 ADD PUSH1 0x0 DUP4 ADD MLOAD PUSH2 0x2AC0 PUSH1 0x0 DUP7 ADD DUP3 PUSH2 0x2C5A JUMP JUMPDEST POP PUSH1 0x20 DUP4 ADD MLOAD DUP5 DUP3 SUB PUSH1 0x20 DUP7 ADD MSTORE PUSH2 0x2AD8 DUP3 DUP3 PUSH2 0x28C4 JUMP JUMPDEST SWAP2 POP POP PUSH1 0x40 DUP4 ADD MLOAD PUSH2 0x2AED PUSH1 0x40 DUP7 ADD DUP3 PUSH2 0x2C5A JUMP JUMPDEST POP PUSH1 0x60 DUP4 ADD MLOAD DUP5 DUP3 SUB PUSH1 0x60 DUP7 ADD MSTORE PUSH2 0x2B05 DUP3 DUP3 PUSH2 0x28C4 JUMP JUMPDEST SWAP2 POP POP PUSH1 0x80 DUP4 ADD MLOAD DUP5 DUP3 SUB PUSH1 0x80 DUP7 ADD MSTORE PUSH2 0x2B1F DUP3 DUP3 PUSH2 0x2866 JUMP JUMPDEST SWAP2 POP POP PUSH1 0xA0 DUP4 ADD MLOAD PUSH2 0x2B34 PUSH1 0xA0 DUP7 ADD DUP3 PUSH2 0x2C5A JUMP JUMPDEST POP PUSH1 0xC0 DUP4 ADD MLOAD DUP5 DUP3 SUB PUSH1 0xC0 DUP7 ADD MSTORE PUSH2 0x2B4C DUP3 DUP3 PUSH2 0x28C4 JUMP JUMPDEST SWAP2 POP POP PUSH1 0xE0 DUP4 ADD MLOAD PUSH2 0x2B61 PUSH1 0xE0 DUP7 ADD DUP3 PUSH2 0x2C5A JUMP JUMPDEST POP DUP1 SWAP2 POP POP SWAP3 SWAP2 POP POP JUMP JUMPDEST PUSH1 0x0 PUSH1 0x80 DUP4 ADD PUSH1 0x0 DUP4 ADD MLOAD PUSH2 0x2B84 PUSH1 0x0 DUP7 ADD DUP3 PUSH2 0x2C5A JUMP JUMPDEST POP PUSH1 0x20 DUP4 ADD MLOAD DUP5 DUP3 SUB PUSH1 0x20 DUP7 ADD MSTORE PUSH2 0x2B9C DUP3 DUP3 PUSH2 0x28C4 JUMP JUMPDEST SWAP2 POP POP PUSH1 0x40 DUP4 ADD MLOAD PUSH2 0x2BB1 PUSH1 0x40 DUP7 ADD DUP3 PUSH2 0x2C5A JUMP JUMPDEST POP PUSH1 0x60 DUP4 ADD MLOAD DUP5 DUP3 SUB PUSH1 0x60 DUP7 ADD MSTORE PUSH2 0x2BC9 DUP3 DUP3 PUSH2 0x2866 JUMP JUMPDEST SWAP2 POP POP DUP1 SWAP2 POP POP SWAP3 SWAP2 POP POP JUMP JUMPDEST PUSH1 0x0 PUSH1 0xA0 DUP4 ADD PUSH1 0x0 DUP4 ADD MLOAD PUSH2 0x2BEE PUSH1 0x0 DUP7 ADD DUP3 PUSH2 0x2C5A JUMP JUMPDEST POP PUSH1 0x20 DUP4 ADD MLOAD DUP5 DUP3 SUB PUSH1 0x20 DUP7 ADD MSTORE PUSH2 0x2C06 DUP3 DUP3 PUSH2 0x28C4 JUMP JUMPDEST SWAP2 POP POP PUSH1 0x40 DUP4 ADD MLOAD DUP5 DUP3 SUB PUSH1 0x40 DUP7 ADD MSTORE PUSH2 0x2C20 DUP3 DUP3 PUSH2 0x28C4 JUMP JUMPDEST SWAP2 POP POP PUSH1 0x60 DUP4 ADD MLOAD PUSH2 0x2C35 PUSH1 0x60 DUP7 ADD DUP3 PUSH2 0x2C5A JUMP JUMPDEST POP PUSH1 0x80 DUP4 ADD MLOAD DUP5 DUP3 SUB PUSH1 0x80 DUP7 ADD MSTORE PUSH2 0x2C4D DUP3 DUP3 PUSH2 0x2866 JUMP JUMPDEST SWAP2 POP POP DUP1 SWAP2 POP POP SWAP3 SWAP2 POP POP JUMP JUMPDEST PUSH2 0x2C63 DUP2 PUSH2 0x2FC1 JUMP JUMPDEST DUP3 MSTORE POP POP JUMP JUMPDEST PUSH2 0x2C72 DUP2 PUSH2 0x2FC1 JUMP JUMPDEST DUP3 MSTORE POP POP JUMP JUMPDEST PUSH1 0x0 PUSH1 0x60 DUP3 ADD SWAP1 POP DUP2 DUP2 SUB PUSH1 0x0 DUP4 ADD MSTORE PUSH2 0x2C92 DUP2 DUP7 PUSH2 0x28FD JUMP JUMPDEST SWAP1 POP PUSH2 0x2CA1 PUSH1 0x20 DUP4 ADD DUP6 PUSH2 0x2C69 JUMP JUMPDEST PUSH2 0x2CAE PUSH1 0x40 DUP4 ADD DUP5 PUSH2 0x2C69 JUMP JUMPDEST SWAP5 SWAP4 POP POP POP POP JUMP JUMPDEST PUSH1 0x0 PUSH1 0x20 DUP3 ADD SWAP1 POP DUP2 DUP2 SUB PUSH1 0x0 DUP4 ADD MSTORE PUSH2 0x2CCF DUP2 PUSH2 0x2936 JUMP JUMPDEST SWAP1 POP SWAP2 SWAP1 POP JUMP JUMPDEST PUSH1 0x0 PUSH1 0x20 DUP3 ADD SWAP1 POP DUP2 DUP2 SUB PUSH1 0x0 DUP4 ADD MSTORE PUSH2 0x2CEF DUP2 PUSH2 0x2959 JUMP JUMPDEST SWAP1 POP SWAP2 SWAP1 POP JUMP JUMPDEST PUSH1 0x0 PUSH1 0x20 DUP3 ADD SWAP1 POP DUP2 DUP2 SUB PUSH1 0x0 DUP4 ADD MSTORE PUSH2 0x2D0F DUP2 PUSH2 0x297C JUMP JUMPDEST SWAP1 POP SWAP2 SWAP1 POP JUMP JUMPDEST PUSH1 0x0 PUSH1 0x20 DUP3 ADD SWAP1 POP DUP2 DUP2 SUB PUSH1 0x0 DUP4 ADD MSTORE PUSH2 0x2D30 DUP2 DUP5 PUSH2 0x299F JUMP JUMPDEST SWAP1 POP SWAP3 SWAP2 POP POP JUMP JUMPDEST PUSH1 0x0 PUSH1 0x20 DUP3 ADD SWAP1 POP DUP2 DUP2 SUB PUSH1 0x0 DUP4 ADD MSTORE PUSH2 0x2D52 DUP2 DUP5 PUSH2 0x2A23 JUMP JUMPDEST SWAP1 POP SWAP3 SWAP2 POP POP JUMP JUMPDEST PUSH1 0x0 PUSH1 0x20 DUP3 ADD SWAP1 POP DUP2 DUP2 SUB PUSH1 0x0 DUP4 ADD MSTORE PUSH2 0x2D74 DUP2 DUP5 PUSH2 0x2AA7 JUMP JUMPDEST SWAP1 POP SWAP3 SWAP2 POP POP JUMP JUMPDEST PUSH1 0x0 PUSH1 0x40 DUP3 ADD SWAP1 POP DUP2 DUP2 SUB PUSH1 0x0 DUP4 ADD MSTORE PUSH2 0x2D96 DUP2 DUP6 PUSH2 0x2AA7 JUMP JUMPDEST SWAP1 POP PUSH2 0x2DA5 PUSH1 0x20 DUP4 ADD DUP5 PUSH2 0x2C69 JUMP JUMPDEST SWAP4 SWAP3 POP POP POP JUMP JUMPDEST PUSH1 0x0 PUSH1 0x20 DUP3 ADD SWAP1 POP DUP2 DUP2 SUB PUSH1 0x0 DUP4 ADD MSTORE PUSH2 0x2DC6 DUP2 DUP5 PUSH2 0x2B6C JUMP JUMPDEST SWAP1 POP SWAP3 SWAP2 POP POP JUMP JUMPDEST PUSH1 0x0 PUSH1 0x20 DUP3 ADD SWAP1 POP DUP2 DUP2 SUB PUSH1 0x0 DUP4 ADD MSTORE PUSH2 0x2DE8 DUP2 DUP5 PUSH2 0x2BD6 JUMP JUMPDEST SWAP1 POP SWAP3 SWAP2 POP POP JUMP JUMPDEST PUSH1 0x0 PUSH1 0x80 DUP3 ADD SWAP1 POP PUSH2 0x2E05 PUSH1 0x0 DUP4 ADD DUP8 PUSH2 0x2C69 JUMP JUMPDEST DUP2 DUP2 SUB PUSH1 0x20 DUP4 ADD MSTORE PUSH2 0x2E17 DUP2 DUP7 PUSH2 0x28FD JUMP JUMPDEST SWAP1 POP DUP2 DUP2 SUB PUSH1 0x40 DUP4 ADD MSTORE PUSH2 0x2E2B DUP2 DUP6 PUSH2 0x28FD JUMP JUMPDEST SWAP1 POP PUSH2 0x2E3A PUSH1 0x60 DUP4 ADD DUP5 PUSH2 0x2C69 JUMP JUMPDEST SWAP6 SWAP5 POP POP POP POP POP JUMP JUMPDEST PUSH1 0x0 PUSH1 0x60 DUP3 ADD SWAP1 POP PUSH2 0x2E58 PUSH1 0x0 DUP4 ADD DUP7 PUSH2 0x2C69 JUMP JUMPDEST DUP2 DUP2 SUB PUSH1 0x20 DUP4 ADD MSTORE PUSH2 0x2E6A DUP2 DUP6 PUSH2 0x28FD JUMP JUMPDEST SWAP1 POP PUSH2 0x2E79 PUSH1 0x40 DUP4 ADD DUP5 PUSH2 0x2C69 JUMP JUMPDEST SWAP5 SWAP4 POP POP POP POP JUMP JUMPDEST PUSH1 0x0 PUSH1 0xE0 DUP3 ADD SWAP1 POP PUSH2 0x2E96 PUSH1 0x0 DUP4 ADD DUP11 PUSH2 0x2C69 JUMP JUMPDEST DUP2 DUP2 SUB PUSH1 0x20 DUP4 ADD MSTORE PUSH2 0x2EA8 DUP2 DUP10 PUSH2 0x28FD JUMP JUMPDEST SWAP1 POP PUSH2 0x2EB7 PUSH1 0x40 DUP4 ADD DUP9 PUSH2 0x2C69 JUMP JUMPDEST DUP2 DUP2 SUB PUSH1 0x60 DUP4 ADD MSTORE PUSH2 0x2EC9 DUP2 DUP8 PUSH2 0x28FD JUMP JUMPDEST SWAP1 POP PUSH2 0x2ED8 PUSH1 0x80 DUP4 ADD DUP7 PUSH2 0x2C69 JUMP JUMPDEST DUP2 DUP2 SUB PUSH1 0xA0 DUP4 ADD MSTORE PUSH2 0x2EEA DUP2 DUP6 PUSH2 0x28FD JUMP JUMPDEST SWAP1 POP PUSH2 0x2EF9 PUSH1 0xC0 DUP4 ADD DUP5 PUSH2 0x2C69 JUMP JUMPDEST SWAP9 SWAP8 POP POP POP POP POP POP POP POP JUMP JUMPDEST PUSH1 0x0 PUSH2 0x2F0F PUSH2 0x2F20 JUMP JUMPDEST SWAP1 POP PUSH2 0x2F1B DUP3 DUP3 PUSH2 0x303F JUMP JUMPDEST SWAP2 SWAP1 POP JUMP JUMPDEST PUSH1 0x0 PUSH1 0x40 MLOAD SWAP1 POP SWAP1 JUMP JUMPDEST PUSH1 0x0 PUSH8 0xFFFFFFFFFFFFFFFF DUP3 GT ISZERO PUSH2 0x2F45 JUMPI PUSH2 0x2F44 PUSH2 0x3146 JUMP JUMPDEST JUMPDEST PUSH2 0x2F4E DUP3 PUSH2 0x3189 JUMP JUMPDEST SWAP1 POP PUSH1 0x20 DUP2 ADD SWAP1 POP SWAP2 SWAP1 POP JUMP JUMPDEST PUSH1 0x0 DUP2 SWAP1 POP PUSH1 0x20 DUP3 ADD SWAP1 POP SWAP2 SWAP1 POP JUMP JUMPDEST PUSH1 0x0 DUP2 MLOAD SWAP1 POP SWAP2 SWAP1 POP JUMP JUMPDEST PUSH1 0x0 DUP2 MLOAD SWAP1 POP SWAP2 SWAP1 POP JUMP JUMPDEST PUSH1 0x0 PUSH1 0x20 DUP3 ADD SWAP1 POP SWAP2 SWAP1 POP JUMP JUMPDEST PUSH1 0x0 DUP3 DUP3 MSTORE PUSH1 0x20 DUP3 ADD SWAP1 POP SWAP3 SWAP2 POP POP JUMP JUMPDEST PUSH1 0x0 DUP3 DUP3 MSTORE PUSH1 0x20 DUP3 ADD SWAP1 POP SWAP3 SWAP2 POP POP JUMP JUMPDEST PUSH1 0x0 DUP3 DUP3 MSTORE PUSH1 0x20 DUP3 ADD SWAP1 POP SWAP3 SWAP2 POP POP JUMP JUMPDEST PUSH1 0x0 DUP2 SWAP1 POP SWAP2 SWAP1 POP JUMP JUMPDEST DUP3 DUP2 DUP4 CALLDATACOPY PUSH1 0x0 DUP4 DUP4 ADD MSTORE POP POP POP JUMP JUMPDEST PUSH1 0x0 JUMPDEST DUP4 DUP2 LT ISZERO PUSH2 0x2FF8 JUMPI DUP1 DUP3 ADD MLOAD DUP2 DUP5 ADD MSTORE PUSH1 0x20 DUP2 ADD SWAP1 POP PUSH2 0x2FDD JUMP JUMPDEST DUP4 DUP2 GT ISZERO PUSH2 0x3007 JUMPI PUSH1 0x0 DUP5 DUP5 ADD MSTORE JUMPDEST POP POP POP POP JUMP JUMPDEST PUSH1 0x0 PUSH1 0x2 DUP3 DIV SWAP1 POP PUSH1 0x1 DUP3 AND DUP1 PUSH2 0x3025 JUMPI PUSH1 0x7F DUP3 AND SWAP2 POP JUMPDEST PUSH1 0x20 DUP3 LT DUP2 EQ ISZERO PUSH2 0x3039 JUMPI PUSH2 0x3038 PUSH2 0x30E8 JUMP JUMPDEST JUMPDEST POP SWAP2 SWAP1 POP JUMP JUMPDEST PUSH2 0x3048 DUP3 PUSH2 0x3189 JUMP JUMPDEST DUP2 ADD DUP2 DUP2 LT PUSH8 0xFFFFFFFFFFFFFFFF DUP3 GT OR ISZERO PUSH2 0x3067 JUMPI PUSH2 0x3066 PUSH2 0x3146 JUMP JUMPDEST JUMPDEST DUP1 PUSH1 0x40 MSTORE POP POP POP JUMP JUMPDEST PUSH1 0x0 PUSH2 0x307B DUP3 PUSH2 0x2FC1 JUMP JUMPDEST SWAP2 POP PUSH32 0xFFFFFFFFFFFFFFFFFFFFFFFFFFFFFFFFFFFFFFFFFFFFFFFFFFFFFFFFFFFFFFFF DUP3 EQ ISZERO PUSH2 0x30AE JUMPI PUSH2 0x30AD PUSH2 0x30B9 JUMP JUMPDEST JUMPDEST PUSH1 0x1 DUP3 ADD SWAP1 POP SWAP2 SWAP1 POP JUMP JUMPDEST PUSH32 0x4E487B7100000000000000000000000000000000000000000000000000000000 PUSH1 0x0 MSTORE PUSH1 0x11 PUSH1 0x4 MSTORE PUSH1 0x24 PUSH1 0x0 REVERT JUMPDEST PUSH32 0x4E487B7100000000000000000000000000000000000000000000000000000000 PUSH1 0x0 MSTORE PUSH1 0x22 PUSH1 0x4 MSTORE PUSH1 0x24 PUSH1 0x0 REVERT JUMPDEST PUSH32 0x4E487B7100000000000000000000000000000000000000000000000000000000 PUSH1 0x0 MSTORE PUSH1 0x32 PUSH1 0x4 MSTORE PUSH1 0x24 PUSH1 0x0 REVERT JUMPDEST PUSH32 0x4E487B7100000000000000000000000000000000000000000000000000000000 PUSH1 0x0 MSTORE PUSH1 0x41 PUSH1 0x4 MSTORE PUSH1 0x24 PUSH1 0x0 REVERT JUMPDEST PUSH1 0x0 DUP1 REVERT JUMPDEST PUSH1 0x0 DUP1 REVERT JUMPDEST PUSH1 0x0 DUP1 REVERT JUMPDEST PUSH1 0x0 DUP1 REVERT JUMPDEST PUSH1 0x0 PUSH1 0x1F NOT PUSH1 0x1F DUP4 ADD AND SWAP1 POP SWAP2 SWAP1 POP JUMP JUMPDEST PUSH32 0x4D616E756661637475726572206973206E6F74207468652063757272656E7420 PUSH1 0x0 DUP3 ADD MSTORE PUSH32 0x6F776E6572206F66207468652070726F64756374000000000000000000000000 PUSH1 0x20 DUP3 ADD MSTORE POP JUMP JUMPDEST PUSH32 0x4469737472696275746F72206973206E6F74207468652063757272656E74206F PUSH1 0x0 DUP3 ADD MSTORE PUSH32 0x776E6572206F66207468652070726F6475637400000000000000000000000000 PUSH1 0x20 DUP3 ADD MSTORE POP JUMP JUMPDEST PUSH32 0x537570706C696572206973206E6F74207468652063757272656E74206F776E65 PUSH1 0x0 DUP3 ADD MSTORE PUSH32 0x72206F66207468652070726F6475637400000000000000000000000000000000 PUSH1 0x20 DUP3 ADD MSTORE POP JUMP JUMPDEST PUSH2 0x3290 DUP2 PUSH2 0x2FC1 JUMP JUMPDEST DUP2 EQ PUSH2 0x329B JUMPI PUSH1 0x0 DUP1 REVERT JUMPDEST POP JUMP INVALID LOG2 PUSH5 0x6970667358 0x22 SLT KECCAK256 XOR PUSH17 0x9BC86F29B10FB99FB4A19D5460F5D2908 0xA8 0xD5 0xFC 0xEA 0xB9 SWAP11 SWAP14 BALANCE DUP4 SGT AND CALLER XOR PUSH5 0x736F6C6343 STOP ADDMOD SMOD STOP CALLER "
				},
				"gasEstimates": {
					"creation": {
						"codeDepositCost": "2602400",
						"executionCost": "32088",
						"totalCost": "2634488"
					},
					"external": {
						"addDistributor(string)": "infinite",
						"addManufacturer(string)": "infinite",
						"addProduct(string,uint256,string)": "infinite",
						"addRetailer(string)": "infinite",
						"addSupplier(string)": "infinite",
						"distributorToRetailer(uint256,uint256,uint256)": "infinite",
						"distributors(uint256)": "infinite",
						"getProduct(uint256)": "infinite",
						"getdistributorDetails(uint256)": "infinite",
						"getmanufacturerDetails(uint256)": "infinite",
						"getretailerDetails(uint256)": "infinite",
						"getsupplierDetails(uint256)": "infinite",
						"manufacturerToDistributor(uint256,uint256,uint256)": "infinite",
						"manufacturers(uint256)": "infinite",
						"products(uint256)": "infinite",
						"retailers(uint256)": "infinite",
						"supplierToManufacturer(uint256,uint256,uint256)": "infinite",
						"supplierTransaction(uint256,uint256)": "infinite",
						"suppliers(uint256)": "infinite"
					}
				},
				"methodIdentifiers": {
					"addDistributor(string)": "81d9def2",
					"addManufacturer(string)": "8f5ae799",
					"addProduct(string,uint256,string)": "8f29695a",
					"addRetailer(string)": "95d00407",
					"addSupplier(string)": "15533a27",
					"distributorToRetailer(uint256,uint256,uint256)": "b55be240",
					"distributors(uint256)": "50b492ba",
					"getProduct(uint256)": "b9db15b4",
					"getdistributorDetails(uint256)": "333f3dd0",
					"getmanufacturerDetails(uint256)": "cb80c419",
					"getretailerDetails(uint256)": "cda5e4a5",
					"getsupplierDetails(uint256)": "3779643f",
					"manufacturerToDistributor(uint256,uint256,uint256)": "ae2ce444",
					"manufacturers(uint256)": "90175af1",
					"products(uint256)": "7acc0b20",
					"retailers(uint256)": "897ec7df",
					"supplierToManufacturer(uint256,uint256,uint256)": "bbb7b0c3",
					"supplierTransaction(uint256,uint256)": "d8459464",
					"suppliers(uint256)": "cea23121"
				}
			},
			"storageLayout": {
				"storage": [
					{
						"astId": 5,
						"contract": "contracts/FakeProdId.sol:FakeProdId",
						"label": "owner",
						"offset": 0,
						"slot": "0",
						"type": "t_address"
					},
					{
						"astId": 106,
						"contract": "contracts/FakeProdId.sol:FakeProdId",
						"label": "products",
						"offset": 0,
						"slot": "1",
						"type": "t_mapping(t_uint256,t_struct(Product)23_storage)"
					},
					{
						"astId": 109,
						"contract": "contracts/FakeProdId.sol:FakeProdId",
						"label": "productsSize",
						"offset": 0,
						"slot": "2",
						"type": "t_uint256"
					},
					{
						"astId": 114,
						"contract": "contracts/FakeProdId.sol:FakeProdId",
						"label": "suppliers",
						"offset": 0,
						"slot": "3",
						"type": "t_mapping(t_uint256,t_struct(Supplier)35_storage)"
					},
					{
						"astId": 119,
						"contract": "contracts/FakeProdId.sol:FakeProdId",
						"label": "manufacturers",
						"offset": 0,
						"slot": "4",
						"type": "t_mapping(t_uint256,t_struct(Manufacturer)47_storage)"
					},
					{
						"astId": 124,
						"contract": "contracts/FakeProdId.sol:FakeProdId",
						"label": "distributors",
						"offset": 0,
						"slot": "5",
						"type": "t_mapping(t_uint256,t_struct(Distributor)59_storage)"
					},
					{
						"astId": 129,
						"contract": "contracts/FakeProdId.sol:FakeProdId",
						"label": "retailers",
						"offset": 0,
						"slot": "6",
						"type": "t_mapping(t_uint256,t_struct(Retailer)69_storage)"
					}
				],
				"types": {
					"t_address": {
						"encoding": "inplace",
						"label": "address",
						"numberOfBytes": "20"
					},
					"t_array(t_uint256)dyn_storage": {
						"base": "t_uint256",
						"encoding": "dynamic_array",
						"label": "uint256[]",
						"numberOfBytes": "32"
					},
					"t_mapping(t_uint256,t_struct(Distributor)59_storage)": {
						"encoding": "mapping",
						"key": "t_uint256",
						"label": "mapping(uint256 => struct FakeProdId.Distributor)",
						"numberOfBytes": "32",
						"value": "t_struct(Distributor)59_storage"
					},
					"t_mapping(t_uint256,t_struct(Manufacturer)47_storage)": {
						"encoding": "mapping",
						"key": "t_uint256",
						"label": "mapping(uint256 => struct FakeProdId.Manufacturer)",
						"numberOfBytes": "32",
						"value": "t_struct(Manufacturer)47_storage"
					},
					"t_mapping(t_uint256,t_struct(Product)23_storage)": {
						"encoding": "mapping",
						"key": "t_uint256",
						"label": "mapping(uint256 => struct FakeProdId.Product)",
						"numberOfBytes": "32",
						"value": "t_struct(Product)23_storage"
					},
					"t_mapping(t_uint256,t_struct(Retailer)69_storage)": {
						"encoding": "mapping",
						"key": "t_uint256",
						"label": "mapping(uint256 => struct FakeProdId.Retailer)",
						"numberOfBytes": "32",
						"value": "t_struct(Retailer)69_storage"
					},
					"t_mapping(t_uint256,t_struct(Supplier)35_storage)": {
						"encoding": "mapping",
						"key": "t_uint256",
						"label": "mapping(uint256 => struct FakeProdId.Supplier)",
						"numberOfBytes": "32",
						"value": "t_struct(Supplier)35_storage"
					},
					"t_string_storage": {
						"encoding": "bytes",
						"label": "string",
						"numberOfBytes": "32"
					},
					"t_struct(Distributor)59_storage": {
						"encoding": "inplace",
						"label": "struct FakeProdId.Distributor",
						"members": [
							{
								"astId": 49,
								"contract": "contracts/FakeProdId.sol:FakeProdId",
								"label": "distributorId",
								"offset": 0,
								"slot": "0",
								"type": "t_uint256"
							},
							{
								"astId": 51,
								"contract": "contracts/FakeProdId.sol:FakeProdId",
								"label": "kind",
								"offset": 0,
								"slot": "1",
								"type": "t_string_storage"
							},
							{
								"astId": 53,
								"contract": "contracts/FakeProdId.sol:FakeProdId",
								"label": "name",
								"offset": 0,
								"slot": "2",
								"type": "t_string_storage"
							},
							{
								"astId": 55,
								"contract": "contracts/FakeProdId.sol:FakeProdId",
								"label": "prodListSize",
								"offset": 0,
								"slot": "3",
								"type": "t_uint256"
							},
							{
								"astId": 58,
								"contract": "contracts/FakeProdId.sol:FakeProdId",
								"label": "productList",
								"offset": 0,
								"slot": "4",
								"type": "t_array(t_uint256)dyn_storage"
							}
						],
						"numberOfBytes": "160"
					},
					"t_struct(Manufacturer)47_storage": {
						"encoding": "inplace",
						"label": "struct FakeProdId.Manufacturer",
						"members": [
							{
								"astId": 37,
								"contract": "contracts/FakeProdId.sol:FakeProdId",
								"label": "manufacturerId",
								"offset": 0,
								"slot": "0",
								"type": "t_uint256"
							},
							{
								"astId": 39,
								"contract": "contracts/FakeProdId.sol:FakeProdId",
								"label": "kind",
								"offset": 0,
								"slot": "1",
								"type": "t_string_storage"
							},
							{
								"astId": 41,
								"contract": "contracts/FakeProdId.sol:FakeProdId",
								"label": "name",
								"offset": 0,
								"slot": "2",
								"type": "t_string_storage"
							},
							{
								"astId": 43,
								"contract": "contracts/FakeProdId.sol:FakeProdId",
								"label": "prodListSize",
								"offset": 0,
								"slot": "3",
								"type": "t_uint256"
							},
							{
								"astId": 46,
								"contract": "contracts/FakeProdId.sol:FakeProdId",
								"label": "productList",
								"offset": 0,
								"slot": "4",
								"type": "t_array(t_uint256)dyn_storage"
							}
						],
						"numberOfBytes": "160"
					},
					"t_struct(Product)23_storage": {
						"encoding": "inplace",
						"label": "struct FakeProdId.Product",
						"members": [
							{
								"astId": 7,
								"contract": "contracts/FakeProdId.sol:FakeProdId",
								"label": "productId",
								"offset": 0,
								"slot": "0",
								"type": "t_uint256"
							},
							{
								"astId": 9,
								"contract": "contracts/FakeProdId.sol:FakeProdId",
								"label": "name",
								"offset": 0,
								"slot": "1",
								"type": "t_string_storage"
							},
							{
								"astId": 11,
								"contract": "contracts/FakeProdId.sol:FakeProdId",
								"label": "price",
								"offset": 0,
								"slot": "2",
								"type": "t_uint256"
							},
							{
								"astId": 13,
								"contract": "contracts/FakeProdId.sol:FakeProdId",
								"label": "description",
								"offset": 0,
								"slot": "3",
								"type": "t_string_storage"
							},
							{
								"astId": 16,
								"contract": "contracts/FakeProdId.sol:FakeProdId",
								"label": "prevOwners",
								"offset": 0,
								"slot": "4",
								"type": "t_array(t_uint256)dyn_storage"
							},
							{
								"astId": 18,
								"contract": "contracts/FakeProdId.sol:FakeProdId",
								"label": "prevOwnersSize",
								"offset": 0,
								"slot": "5",
								"type": "t_uint256"
							},
							{
								"astId": 20,
								"contract": "contracts/FakeProdId.sol:FakeProdId",
								"label": "curOwner",
								"offset": 0,
								"slot": "6",
								"type": "t_string_storage"
							},
							{
								"astId": 22,
								"contract": "contracts/FakeProdId.sol:FakeProdId",
								"label": "curOwnerId",
								"offset": 0,
								"slot": "7",
								"type": "t_uint256"
							}
						],
						"numberOfBytes": "256"
					},
					"t_struct(Retailer)69_storage": {
						"encoding": "inplace",
						"label": "struct FakeProdId.Retailer",
						"members": [
							{
								"astId": 61,
								"contract": "contracts/FakeProdId.sol:FakeProdId",
								"label": "retailerId",
								"offset": 0,
								"slot": "0",
								"type": "t_uint256"
							},
							{
								"astId": 63,
								"contract": "contracts/FakeProdId.sol:FakeProdId",
								"label": "name",
								"offset": 0,
								"slot": "1",
								"type": "t_string_storage"
							},
							{
								"astId": 65,
								"contract": "contracts/FakeProdId.sol:FakeProdId",
								"label": "prodListSize",
								"offset": 0,
								"slot": "2",
								"type": "t_uint256"
							},
							{
								"astId": 68,
								"contract": "contracts/FakeProdId.sol:FakeProdId",
								"label": "productList",
								"offset": 0,
								"slot": "3",
								"type": "t_array(t_uint256)dyn_storage"
							}
						],
						"numberOfBytes": "128"
					},
					"t_struct(Supplier)35_storage": {
						"encoding": "inplace",
						"label": "struct FakeProdId.Supplier",
						"members": [
							{
								"astId": 25,
								"contract": "contracts/FakeProdId.sol:FakeProdId",
								"label": "supplierId",
								"offset": 0,
								"slot": "0",
								"type": "t_uint256"
							},
							{
								"astId": 27,
								"contract": "contracts/FakeProdId.sol:FakeProdId",
								"label": "kind",
								"offset": 0,
								"slot": "1",
								"type": "t_string_storage"
							},
							{
								"astId": 29,
								"contract": "contracts/FakeProdId.sol:FakeProdId",
								"label": "name",
								"offset": 0,
								"slot": "2",
								"type": "t_string_storage"
							},
							{
								"astId": 31,
								"contract": "contracts/FakeProdId.sol:FakeProdId",
								"label": "prodListSize",
								"offset": 0,
								"slot": "3",
								"type": "t_uint256"
							},
							{
								"astId": 34,
								"contract": "contracts/FakeProdId.sol:FakeProdId",
								"label": "productList",
								"offset": 0,
								"slot": "4",
								"type": "t_array(t_uint256)dyn_storage"
							}
						],
						"numberOfBytes": "160"
					},
					"t_uint256": {
						"encoding": "inplace",
						"label": "uint256",
						"numberOfBytes": "32"
					}
				}
			},
			"userdoc": {
				"kind": "user",
				"methods": {},
				"version": 1
			}
		}
	}
}