{
	"contracts/FakeProdId.sol": {
		"FakeProdId": {
			"abi": [
				{
					"anonymous": false,
					"inputs": [
						{
							"components": [
								{
									"internalType": "uint256",
									"name": "distributorId",
									"type": "uint256"
								},
								{
									"internalType": "string",
									"name": "kind",
									"type": "string"
								},
								{
									"internalType": "string",
									"name": "name",
									"type": "string"
								},
								{
									"internalType": "uint256[]",
									"name": "productList",
									"type": "uint256[]"
								}
							],
							"indexed": false,
							"internalType": "struct FakeProdId.Distributor",
							"name": "newDistributor",
							"type": "tuple"
						}
					],
					"name": "distributorDetails",
					"type": "event"
				},
				{
					"anonymous": false,
					"inputs": [
						{
							"components": [
								{
									"internalType": "uint256",
									"name": "manufacturerId",
									"type": "uint256"
								},
								{
									"internalType": "string",
									"name": "kind",
									"type": "string"
								},
								{
									"internalType": "string",
									"name": "name",
									"type": "string"
								},
								{
									"internalType": "uint256[]",
									"name": "productList",
									"type": "uint256[]"
								}
							],
							"indexed": false,
							"internalType": "struct FakeProdId.Manufacturer",
							"name": "newManufacturer",
							"type": "tuple"
						}
					],
					"name": "manufacturerDetails",
					"type": "event"
				},
				{
					"anonymous": false,
					"inputs": [
						{
							"components": [
								{
									"internalType": "uint256",
									"name": "productId",
									"type": "uint256"
								},
								{
									"internalType": "string",
									"name": "name",
									"type": "string"
								},
								{
									"internalType": "uint256",
									"name": "price",
									"type": "uint256"
								},
								{
									"internalType": "string",
									"name": "description",
									"type": "string"
								},
								{
									"internalType": "string",
									"name": "curOwner",
									"type": "string"
								},
								{
									"internalType": "uint256",
									"name": "curOwnerId",
									"type": "uint256"
								}
							],
							"indexed": false,
							"internalType": "struct FakeProdId.Product",
							"name": "prod",
							"type": "tuple"
						},
						{
							"indexed": false,
							"internalType": "uint256",
							"name": "productSize",
							"type": "uint256"
						}
					],
					"name": "prodDetails",
					"type": "event"
				},
				{
					"anonymous": false,
					"inputs": [
						{
							"components": [
								{
									"internalType": "uint256",
									"name": "retailerId",
									"type": "uint256"
								},
								{
									"internalType": "string",
									"name": "name",
									"type": "string"
								},
								{
									"internalType": "uint256[]",
									"name": "productList",
									"type": "uint256[]"
								}
							],
							"indexed": false,
							"internalType": "struct FakeProdId.Retailer",
							"name": "newRetailer",
							"type": "tuple"
						}
					],
					"name": "retailerDetails",
					"type": "event"
				},
				{
					"anonymous": false,
					"inputs": [
						{
							"components": [
								{
									"internalType": "uint256",
									"name": "supplierId",
									"type": "uint256"
								},
								{
									"internalType": "string",
									"name": "kind",
									"type": "string"
								},
								{
									"internalType": "string",
									"name": "name",
									"type": "string"
								},
								{
									"internalType": "uint256[]",
									"name": "productList",
									"type": "uint256[]"
								}
							],
							"indexed": false,
							"internalType": "struct FakeProdId.Supplier",
							"name": "newSupplier",
							"type": "tuple"
						}
					],
					"name": "supplierDetails",
					"type": "event"
				},
				{
					"inputs": [
						{
							"internalType": "string",
							"name": "name",
							"type": "string"
						}
					],
					"name": "addDistributor",
					"outputs": [],
					"stateMutability": "nonpayable",
					"type": "function"
				},
				{
					"inputs": [
						{
							"internalType": "string",
							"name": "name",
							"type": "string"
						}
					],
					"name": "addManufacturer",
					"outputs": [],
					"stateMutability": "nonpayable",
					"type": "function"
				},
				{
					"inputs": [
						{
							"internalType": "string",
							"name": "name",
							"type": "string"
						},
						{
							"internalType": "uint256",
							"name": "price",
							"type": "uint256"
						},
						{
							"internalType": "string",
							"name": "description",
							"type": "string"
						}
					],
					"name": "addProduct",
					"outputs": [],
					"stateMutability": "nonpayable",
					"type": "function"
				},
				{
					"inputs": [
						{
							"internalType": "string",
							"name": "name",
							"type": "string"
						}
					],
					"name": "addRetailer",
					"outputs": [],
					"stateMutability": "nonpayable",
					"type": "function"
				},
				{
					"inputs": [
						{
							"internalType": "string",
							"name": "name",
							"type": "string"
						}
					],
					"name": "addSupplier",
					"outputs": [],
					"stateMutability": "nonpayable",
					"type": "function"
				},
				{
					"inputs": [
						{
							"internalType": "uint256",
							"name": "",
							"type": "uint256"
						}
					],
					"name": "distributors",
					"outputs": [
						{
							"internalType": "uint256",
							"name": "distributorId",
							"type": "uint256"
						},
						{
							"internalType": "string",
							"name": "kind",
							"type": "string"
						},
						{
							"internalType": "string",
							"name": "name",
							"type": "string"
						}
					],
					"stateMutability": "view",
					"type": "function"
				},
				{
					"inputs": [
						{
							"internalType": "uint256",
							"name": "productId",
							"type": "uint256"
						}
					],
					"name": "getProduct",
					"outputs": [
						{
							"components": [
								{
									"internalType": "uint256",
									"name": "productId",
									"type": "uint256"
								},
								{
									"internalType": "string",
									"name": "name",
									"type": "string"
								},
								{
									"internalType": "uint256",
									"name": "price",
									"type": "uint256"
								},
								{
									"internalType": "string",
									"name": "description",
									"type": "string"
								},
								{
									"internalType": "string",
									"name": "curOwner",
									"type": "string"
								},
								{
									"internalType": "uint256",
									"name": "curOwnerId",
									"type": "uint256"
								}
							],
							"internalType": "struct FakeProdId.Product",
							"name": "",
							"type": "tuple"
						}
					],
					"stateMutability": "view",
					"type": "function"
				},
				{
					"inputs": [
						{
							"internalType": "uint256",
							"name": "distributorId",
							"type": "uint256"
						}
					],
					"name": "getdistributorDetails",
					"outputs": [
						{
							"components": [
								{
									"internalType": "uint256",
									"name": "distributorId",
									"type": "uint256"
								},
								{
									"internalType": "string",
									"name": "kind",
									"type": "string"
								},
								{
									"internalType": "string",
									"name": "name",
									"type": "string"
								},
								{
									"internalType": "uint256[]",
									"name": "productList",
									"type": "uint256[]"
								}
							],
							"internalType": "struct FakeProdId.Distributor",
							"name": "",
							"type": "tuple"
						}
					],
					"stateMutability": "view",
					"type": "function"
				},
				{
					"inputs": [
						{
							"internalType": "uint256",
							"name": "manufacturerId",
							"type": "uint256"
						}
					],
					"name": "getmanufacturerDetails",
					"outputs": [
						{
							"components": [
								{
									"internalType": "uint256",
									"name": "manufacturerId",
									"type": "uint256"
								},
								{
									"internalType": "string",
									"name": "kind",
									"type": "string"
								},
								{
									"internalType": "string",
									"name": "name",
									"type": "string"
								},
								{
									"internalType": "uint256[]",
									"name": "productList",
									"type": "uint256[]"
								}
							],
							"internalType": "struct FakeProdId.Manufacturer",
							"name": "",
							"type": "tuple"
						}
					],
					"stateMutability": "view",
					"type": "function"
				},
				{
					"inputs": [
						{
							"internalType": "uint256",
							"name": "retailerId",
							"type": "uint256"
						}
					],
					"name": "getretailerDetails",
					"outputs": [
						{
							"components": [
								{
									"internalType": "uint256",
									"name": "retailerId",
									"type": "uint256"
								},
								{
									"internalType": "string",
									"name": "name",
									"type": "string"
								},
								{
									"internalType": "uint256[]",
									"name": "productList",
									"type": "uint256[]"
								}
							],
							"internalType": "struct FakeProdId.Retailer",
							"name": "",
							"type": "tuple"
						}
					],
					"stateMutability": "view",
					"type": "function"
				},
				{
					"inputs": [
						{
							"internalType": "uint256",
							"name": "supplierId",
							"type": "uint256"
						}
					],
					"name": "getsupplierDetails",
					"outputs": [
						{
							"components": [
								{
									"internalType": "uint256",
									"name": "supplierId",
									"type": "uint256"
								},
								{
									"internalType": "string",
									"name": "kind",
									"type": "string"
								},
								{
									"internalType": "string",
									"name": "name",
									"type": "string"
								},
								{
									"internalType": "uint256[]",
									"name": "productList",
									"type": "uint256[]"
								}
							],
							"internalType": "struct FakeProdId.Supplier",
							"name": "",
							"type": "tuple"
						}
					],
					"stateMutability": "view",
					"type": "function"
				},
				{
					"inputs": [
						{
							"internalType": "uint256",
							"name": "",
							"type": "uint256"
						}
					],
					"name": "manufacturers",
					"outputs": [
						{
							"internalType": "uint256",
							"name": "manufacturerId",
							"type": "uint256"
						},
						{
							"internalType": "string",
							"name": "kind",
							"type": "string"
						},
						{
							"internalType": "string",
							"name": "name",
							"type": "string"
						}
					],
					"stateMutability": "view",
					"type": "function"
				},
				{
					"inputs": [
						{
							"internalType": "uint256",
							"name": "",
							"type": "uint256"
						}
					],
					"name": "products",
					"outputs": [
						{
							"internalType": "uint256",
							"name": "productId",
							"type": "uint256"
						},
						{
							"internalType": "string",
							"name": "name",
							"type": "string"
						},
						{
							"internalType": "uint256",
							"name": "price",
							"type": "uint256"
						},
						{
							"internalType": "string",
							"name": "description",
							"type": "string"
						},
						{
							"internalType": "string",
							"name": "curOwner",
							"type": "string"
						},
						{
							"internalType": "uint256",
							"name": "curOwnerId",
							"type": "uint256"
						}
					],
					"stateMutability": "view",
					"type": "function"
				},
				{
					"inputs": [
						{
							"internalType": "uint256",
							"name": "",
							"type": "uint256"
						}
					],
					"name": "retailers",
					"outputs": [
						{
							"internalType": "uint256",
							"name": "retailerId",
							"type": "uint256"
						},
						{
							"internalType": "string",
							"name": "name",
							"type": "string"
						}
					],
					"stateMutability": "view",
					"type": "function"
				},
				{
					"inputs": [
						{
							"internalType": "uint256",
							"name": "",
							"type": "uint256"
						}
					],
					"name": "suppliers",
					"outputs": [
						{
							"internalType": "uint256",
							"name": "supplierId",
							"type": "uint256"
						},
						{
							"internalType": "string",
							"name": "kind",
							"type": "string"
						},
						{
							"internalType": "string",
							"name": "name",
							"type": "string"
						}
					],
					"stateMutability": "view",
					"type": "function"
				},
				{
					"inputs": [
						{
							"internalType": "uint256",
							"name": "ProductId",
							"type": "uint256"
						},
						{
							"internalType": "uint256",
							"name": "curOwnerId",
							"type": "uint256"
						},
						{
							"internalType": "uint256",
							"name": "newOwnerId",
							"type": "uint256"
						}
					],
					"name": "transferOwnership",
					"outputs": [],
					"stateMutability": "nonpayable",
					"type": "function"
				}
			],
			"devdoc": {
				"kind": "dev",
				"methods": {},
				"version": 1
			},
			"evm": {
				"assembly": "    /* \"contracts/FakeProdId.sol\":69:4689  contract FakeProdId {\r... */\n  mstore(0x40, 0x80)\n    /* \"contracts/FakeProdId.sol\":112:122  msg.sender */\n  caller\n    /* \"contracts/FakeProdId.sol\":96:122  address owner = msg.sender */\n  0x00\n  dup1\n  0x0100\n  exp\n  dup2\n  sload\n  dup2\n  0xffffffffffffffffffffffffffffffffffffffff\n  mul\n  not\n  and\n  swap1\n  dup4\n  0xffffffffffffffffffffffffffffffffffffffff\n  and\n  mul\n  or\n  swap1\n  sstore\n  pop\n    /* \"contracts/FakeProdId.sol\":1271:1272  0 */\n  0x00\n    /* \"contracts/FakeProdId.sol\":1253:1272  uint productsSize=0 */\n  0x02\n  sstore\n    /* \"contracts/FakeProdId.sol\":69:4689  contract FakeProdId {\r... */\n  callvalue\n  dup1\n  iszero\n  tag_1\n  jumpi\n  0x00\n  dup1\n  revert\ntag_1:\n  pop\n  dataSize(sub_0)\n  dup1\n  dataOffset(sub_0)\n  0x00\n  codecopy\n  0x00\n  return\nstop\n\nsub_0: assembly {\n        /* \"contracts/FakeProdId.sol\":69:4689  contract FakeProdId {\r... */\n      mstore(0x40, 0x80)\n      callvalue\n      dup1\n      iszero\n      tag_1\n      jumpi\n      0x00\n      dup1\n      revert\n    tag_1:\n      pop\n      jumpi(tag_2, lt(calldatasize, 0x04))\n      shr(0xe0, calldataload(0x00))\n      dup1\n      0x8f5ae799\n      gt\n      tag_19\n      jumpi\n      dup1\n      0xcb80c419\n      gt\n      tag_20\n      jumpi\n      dup1\n      0xcb80c419\n      eq\n      tag_15\n      jumpi\n      dup1\n      0xcda5e4a5\n      eq\n      tag_16\n      jumpi\n      dup1\n      0xcea23121\n      eq\n      tag_17\n      jumpi\n      dup1\n      0xf032edec\n      eq\n      tag_18\n      jumpi\n      jump(tag_2)\n    tag_20:\n      dup1\n      0x8f5ae799\n      eq\n      tag_11\n      jumpi\n      dup1\n      0x90175af1\n      eq\n      tag_12\n      jumpi\n      dup1\n      0x95d00407\n      eq\n      tag_13\n      jumpi\n      dup1\n      0xb9db15b4\n      eq\n      tag_14\n      jumpi\n      jump(tag_2)\n    tag_19:\n      dup1\n      0x7acc0b20\n      gt\n      tag_21\n      jumpi\n      dup1\n      0x7acc0b20\n      eq\n      tag_7\n      jumpi\n      dup1\n      0x81d9def2\n      eq\n      tag_8\n      jumpi\n      dup1\n      0x897ec7df\n      eq\n      tag_9\n      jumpi\n      dup1\n      0x8f29695a\n      eq\n      tag_10\n      jumpi\n      jump(tag_2)\n    tag_21:\n      dup1\n      0x15533a27\n      eq\n      tag_3\n      jumpi\n      dup1\n      0x333f3dd0\n      eq\n      tag_4\n      jumpi\n      dup1\n      0x3779643f\n      eq\n      tag_5\n      jumpi\n      dup1\n      0x50b492ba\n      eq\n      tag_6\n      jumpi\n    tag_2:\n      0x00\n      dup1\n      revert\n        /* \"contracts/FakeProdId.sol\":2166:2579  function addSupplier(string memory name) public{\r... */\n    tag_3:\n      tag_22\n      0x04\n      dup1\n      calldatasize\n      sub\n      dup2\n      add\n      swap1\n      tag_23\n      swap2\n      swap1\n      tag_24\n      jump\t// in\n    tag_23:\n      tag_25\n      jump\t// in\n    tag_22:\n      stop\n        /* \"contracts/FakeProdId.sol\":3825:3969  function getdistributorDetails(uint distributorId) public view returns (Distributor memory){\r... */\n    tag_4:\n      tag_26\n      0x04\n      dup1\n      calldatasize\n      sub\n      dup2\n      add\n      swap1\n      tag_27\n      swap2\n      swap1\n      tag_28\n      jump\t// in\n    tag_27:\n      tag_29\n      jump\t// in\n    tag_26:\n      mload(0x40)\n      tag_30\n      swap2\n      swap1\n      tag_31\n      jump\t// in\n    tag_30:\n      mload(0x40)\n      dup1\n      swap2\n      sub\n      swap1\n      return\n        /* \"contracts/FakeProdId.sol\":2587:2716  function getsupplierDetails(uint supplierId) public view returns (Supplier memory){\r... */\n    tag_5:\n      tag_32\n      0x04\n      dup1\n      calldatasize\n      sub\n      dup2\n      add\n      swap1\n      tag_33\n      swap2\n      swap1\n      tag_28\n      jump\t// in\n    tag_33:\n      tag_34\n      jump\t// in\n    tag_32:\n      mload(0x40)\n      tag_35\n      swap2\n      swap1\n      tag_36\n      jump\t// in\n    tag_35:\n      mload(0x40)\n      dup1\n      swap2\n      sub\n      swap1\n      return\n        /* \"contracts/FakeProdId.sol\":1385:1433  mapping(uint => Distributor) public distributors */\n    tag_6:\n      tag_37\n      0x04\n      dup1\n      calldatasize\n      sub\n      dup2\n      add\n      swap1\n      tag_38\n      swap2\n      swap1\n      tag_28\n      jump\t// in\n    tag_38:\n      tag_39\n      jump\t// in\n    tag_37:\n      mload(0x40)\n      tag_40\n      swap4\n      swap3\n      swap2\n      swap1\n      tag_41\n      jump\t// in\n    tag_40:\n      mload(0x40)\n      dup1\n      swap2\n      sub\n      swap1\n      return\n        /* \"contracts/FakeProdId.sol\":1206:1246  mapping(uint => Product) public products */\n    tag_7:\n      tag_42\n      0x04\n      dup1\n      calldatasize\n      sub\n      dup2\n      add\n      swap1\n      tag_43\n      swap2\n      swap1\n      tag_28\n      jump\t// in\n    tag_43:\n      tag_44\n      jump\t// in\n    tag_42:\n      mload(0x40)\n      tag_45\n      swap7\n      swap6\n      swap5\n      swap4\n      swap3\n      swap2\n      swap1\n      tag_46\n      jump\t// in\n    tag_45:\n      mload(0x40)\n      dup1\n      swap2\n      sub\n      swap1\n      return\n        /* \"contracts/FakeProdId.sol\":3358:3813  function addDistributor(string memory name) public{\r... */\n    tag_8:\n      tag_47\n      0x04\n      dup1\n      calldatasize\n      sub\n      dup2\n      add\n      swap1\n      tag_48\n      swap2\n      swap1\n      tag_24\n      jump\t// in\n    tag_48:\n      tag_49\n      jump\t// in\n    tag_47:\n      stop\n        /* \"contracts/FakeProdId.sol\":1440:1482  mapping(uint => Retailer) public retailers */\n    tag_9:\n      tag_50\n      0x04\n      dup1\n      calldatasize\n      sub\n      dup2\n      add\n      swap1\n      tag_51\n      swap2\n      swap1\n      tag_28\n      jump\t// in\n    tag_51:\n      tag_52\n      jump\t// in\n    tag_50:\n      mload(0x40)\n      tag_53\n      swap3\n      swap2\n      swap1\n      tag_54\n      jump\t// in\n    tag_53:\n      mload(0x40)\n      dup1\n      swap2\n      sub\n      swap1\n      return\n        /* \"contracts/FakeProdId.sol\":1491:2033  function addProduct(string memory name,uint price,string memory description) public{\r... */\n    tag_10:\n      tag_55\n      0x04\n      dup1\n      calldatasize\n      sub\n      dup2\n      add\n      swap1\n      tag_56\n      swap2\n      swap1\n      tag_57\n      jump\t// in\n    tag_56:\n      tag_58\n      jump\t// in\n    tag_55:\n      stop\n        /* \"contracts/FakeProdId.sol\":2724:3193  function addManufacturer(string memory name) public{\r... */\n    tag_11:\n      tag_59\n      0x04\n      dup1\n      calldatasize\n      sub\n      dup2\n      add\n      swap1\n      tag_60\n      swap2\n      swap1\n      tag_24\n      jump\t// in\n    tag_60:\n      tag_61\n      jump\t// in\n    tag_59:\n      stop\n        /* \"contracts/FakeProdId.sol\":1328:1378  mapping(uint => Manufacturer) public manufacturers */\n    tag_12:\n      tag_62\n      0x04\n      dup1\n      calldatasize\n      sub\n      dup2\n      add\n      swap1\n      tag_63\n      swap2\n      swap1\n      tag_28\n      jump\t// in\n    tag_63:\n      tag_64\n      jump\t// in\n    tag_62:\n      mload(0x40)\n      tag_65\n      swap4\n      swap3\n      swap2\n      swap1\n      tag_41\n      jump\t// in\n    tag_65:\n      mload(0x40)\n      dup1\n      swap2\n      sub\n      swap1\n      return\n        /* \"contracts/FakeProdId.sol\":3977:4356  function addRetailer(string memory name) public{\r... */\n    tag_13:\n      tag_66\n      0x04\n      dup1\n      calldatasize\n      sub\n      dup2\n      add\n      swap1\n      tag_67\n      swap2\n      swap1\n      tag_24\n      jump\t// in\n    tag_67:\n      tag_68\n      jump\t// in\n    tag_66:\n      stop\n        /* \"contracts/FakeProdId.sol\":2041:2158  function getProduct(uint productId) public view returns (Product memory){\r... */\n    tag_14:\n      tag_69\n      0x04\n      dup1\n      calldatasize\n      sub\n      dup2\n      add\n      swap1\n      tag_70\n      swap2\n      swap1\n      tag_28\n      jump\t// in\n    tag_70:\n      tag_71\n      jump\t// in\n    tag_69:\n      mload(0x40)\n      tag_72\n      swap2\n      swap1\n      tag_73\n      jump\t// in\n    tag_72:\n      mload(0x40)\n      dup1\n      swap2\n      sub\n      swap1\n      return\n        /* \"contracts/FakeProdId.sol\":3201:3350  function getmanufacturerDetails(uint manufacturerId) public view returns (Manufacturer memory){\r... */\n    tag_15:\n      tag_74\n      0x04\n      dup1\n      calldatasize\n      sub\n      dup2\n      add\n      swap1\n      tag_75\n      swap2\n      swap1\n      tag_28\n      jump\t// in\n    tag_75:\n      tag_76\n      jump\t// in\n    tag_74:\n      mload(0x40)\n      tag_77\n      swap2\n      swap1\n      tag_78\n      jump\t// in\n    tag_77:\n      mload(0x40)\n      dup1\n      swap2\n      sub\n      swap1\n      return\n        /* \"contracts/FakeProdId.sol\":4364:4493  function getretailerDetails(uint retailerId) public view returns (Retailer memory){\r... */\n    tag_16:\n      tag_79\n      0x04\n      dup1\n      calldatasize\n      sub\n      dup2\n      add\n      swap1\n      tag_80\n      swap2\n      swap1\n      tag_28\n      jump\t// in\n    tag_80:\n      tag_81\n      jump\t// in\n    tag_79:\n      mload(0x40)\n      tag_82\n      swap2\n      swap1\n      tag_83\n      jump\t// in\n    tag_82:\n      mload(0x40)\n      dup1\n      swap2\n      sub\n      swap1\n      return\n        /* \"contracts/FakeProdId.sol\":1279:1321  mapping(uint => Supplier) public suppliers */\n    tag_17:\n      tag_84\n      0x04\n      dup1\n      calldatasize\n      sub\n      dup2\n      add\n      swap1\n      tag_85\n      swap2\n      swap1\n      tag_28\n      jump\t// in\n    tag_85:\n      tag_86\n      jump\t// in\n    tag_84:\n      mload(0x40)\n      tag_87\n      swap4\n      swap3\n      swap2\n      swap1\n      tag_41\n      jump\t// in\n    tag_87:\n      mload(0x40)\n      dup1\n      swap2\n      sub\n      swap1\n      return\n        /* \"contracts/FakeProdId.sol\":4501:4590  function transferOwnership(uint ProductId,uint curOwnerId,uint newOwnerId) public{\r... */\n    tag_18:\n      tag_88\n      0x04\n      dup1\n      calldatasize\n      sub\n      dup2\n      add\n      swap1\n      tag_89\n      swap2\n      swap1\n      tag_90\n      jump\t// in\n    tag_89:\n      tag_91\n      jump\t// in\n    tag_88:\n      stop\n        /* \"contracts/FakeProdId.sol\":2166:2579  function addSupplier(string memory name) public{\r... */\n    tag_25:\n        /* \"contracts/FakeProdId.sol\":2224:2251  Supplier memory newSupplier */\n      tag_93\n      tag_94\n      jump\t// in\n    tag_93:\n        /* \"contracts/FakeProdId.sol\":2311:2315  name */\n      dup2\n        /* \"contracts/FakeProdId.sol\":2316:2331  block.timestamp */\n      timestamp\n        /* \"contracts/FakeProdId.sol\":2332:2348  block.difficulty */\n      difficulty\n        /* \"contracts/FakeProdId.sol\":2300:2349  abi.encode(name,block.timestamp,block.difficulty) */\n      add(0x20, mload(0x40))\n      tag_95\n      swap4\n      swap3\n      swap2\n      swap1\n      tag_96\n      jump\t// in\n    tag_95:\n      mload(0x40)\n      0x20\n      dup2\n      dup4\n      sub\n      sub\n      dup2\n      mstore\n      swap1\n      0x40\n      mstore\n        /* \"contracts/FakeProdId.sol\":2290:2350  keccak256(abi.encode(name,block.timestamp,block.difficulty)) */\n      dup1\n      mload\n      swap1\n      0x20\n      add\n      keccak256\n        /* \"contracts/FakeProdId.sol\":2285:2351  uint(keccak256(abi.encode(name,block.timestamp,block.difficulty))) */\n      0x00\n      shr\n        /* \"contracts/FakeProdId.sol\":2262:2273  newSupplier */\n      dup2\n        /* \"contracts/FakeProdId.sol\":2262:2284  newSupplier.supplierId */\n      0x00\n      add\n        /* \"contracts/FakeProdId.sol\":2262:2351  newSupplier.supplierId=uint(keccak256(abi.encode(name,block.timestamp,block.difficulty))) */\n      dup2\n      dup2\n      mstore\n      pop\n      pop\n        /* \"contracts/FakeProdId.sol\":2362:2385  newSupplier.kind = \"SU\" */\n      mload(0x40)\n      dup1\n      0x40\n      add\n      0x40\n      mstore\n      dup1\n      0x02\n      dup2\n      mstore\n      0x20\n      add\n      0x5355000000000000000000000000000000000000000000000000000000000000\n      dup2\n      mstore\n      pop\n        /* \"contracts/FakeProdId.sol\":2362:2373  newSupplier */\n      dup2\n        /* \"contracts/FakeProdId.sol\":2362:2378  newSupplier.kind */\n      0x20\n      add\n        /* \"contracts/FakeProdId.sol\":2362:2385  newSupplier.kind = \"SU\" */\n      dup2\n      swap1\n      mstore\n      pop\n        /* \"contracts/FakeProdId.sol\":2415:2419  name */\n      dup2\n        /* \"contracts/FakeProdId.sol\":2396:2407  newSupplier */\n      dup2\n        /* \"contracts/FakeProdId.sol\":2396:2412  newSupplier.name */\n      0x40\n      add\n        /* \"contracts/FakeProdId.sol\":2396:2419  newSupplier.name = name */\n      dup2\n      swap1\n      mstore\n      pop\n        /* \"contracts/FakeProdId.sol\":2467:2468  0 */\n      0x00\n        /* \"contracts/FakeProdId.sol\":2456:2469  new uint[](0) */\n      0xffffffffffffffff\n      dup2\n      gt\n      iszero\n      tag_97\n      jumpi\n      tag_98\n      tag_99\n      jump\t// in\n    tag_98:\n    tag_97:\n      mload(0x40)\n      swap1\n      dup1\n      dup3\n      mstore\n      dup1\n      0x20\n      mul\n      0x20\n      add\n      dup3\n      add\n      0x40\n      mstore\n      dup1\n      iszero\n      tag_100\n      jumpi\n      dup2\n      0x20\n      add\n      0x20\n      dup3\n      mul\n      dup1\n      calldatasize\n      dup4\n      calldatacopy\n      dup1\n      dup3\n      add\n      swap2\n      pop\n      pop\n      swap1\n      pop\n    tag_100:\n      pop\n        /* \"contracts/FakeProdId.sol\":2430:2441  newSupplier */\n      dup2\n        /* \"contracts/FakeProdId.sol\":2430:2453  newSupplier.productList */\n      0x60\n      add\n        /* \"contracts/FakeProdId.sol\":2430:2469  newSupplier.productList = new uint[](0) */\n      dup2\n      swap1\n      mstore\n      pop\n        /* \"contracts/FakeProdId.sol\":2516:2527  newSupplier */\n      dup1\n        /* \"contracts/FakeProdId.sol\":2480:2489  suppliers */\n      0x03\n        /* \"contracts/FakeProdId.sol\":2480:2513  suppliers[newSupplier.supplierId] */\n      0x00\n        /* \"contracts/FakeProdId.sol\":2490:2501  newSupplier */\n      dup4\n        /* \"contracts/FakeProdId.sol\":2490:2512  newSupplier.supplierId */\n      0x00\n      add\n      mload\n        /* \"contracts/FakeProdId.sol\":2480:2513  suppliers[newSupplier.supplierId] */\n      dup2\n      mstore\n      0x20\n      add\n      swap1\n      dup2\n      mstore\n      0x20\n      add\n      0x00\n      keccak256\n        /* \"contracts/FakeProdId.sol\":2480:2527  suppliers[newSupplier.supplierId] = newSupplier */\n      0x00\n      dup3\n      add\n      mload\n      dup2\n      0x00\n      add\n      sstore\n      0x20\n      dup3\n      add\n      mload\n      dup2\n      0x01\n      add\n      swap1\n      dup1\n      mload\n      swap1\n      0x20\n      add\n      swap1\n      tag_101\n      swap3\n      swap2\n      swap1\n      tag_102\n      jump\t// in\n    tag_101:\n      pop\n      0x40\n      dup3\n      add\n      mload\n      dup2\n      0x02\n      add\n      swap1\n      dup1\n      mload\n      swap1\n      0x20\n      add\n      swap1\n      tag_103\n      swap3\n      swap2\n      swap1\n      tag_102\n      jump\t// in\n    tag_103:\n      pop\n      0x60\n      dup3\n      add\n      mload\n      dup2\n      0x03\n      add\n      swap1\n      dup1\n      mload\n      swap1\n      0x20\n      add\n      swap1\n      tag_104\n      swap3\n      swap2\n      swap1\n      tag_105\n      jump\t// in\n    tag_104:\n      pop\n      swap1\n      pop\n      pop\n        /* \"contracts/FakeProdId.sol\":2543:2571  supplierDetails(newSupplier) */\n      0x0e2879159e80c92c57341e91920c4b1af102eebab99c1eca0e8a3c081fbf95ba\n        /* \"contracts/FakeProdId.sol\":2559:2570  newSupplier */\n      dup2\n        /* \"contracts/FakeProdId.sol\":2543:2571  supplierDetails(newSupplier) */\n      mload(0x40)\n      tag_106\n      swap2\n      swap1\n      tag_36\n      jump\t// in\n    tag_106:\n      mload(0x40)\n      dup1\n      swap2\n      sub\n      swap1\n      log1\n        /* \"contracts/FakeProdId.sol\":2213:2579  {\r... */\n      pop\n        /* \"contracts/FakeProdId.sol\":2166:2579  function addSupplier(string memory name) public{\r... */\n      pop\n      jump\t// out\n        /* \"contracts/FakeProdId.sol\":3825:3969  function getdistributorDetails(uint distributorId) public view returns (Distributor memory){\r... */\n    tag_29:\n        /* \"contracts/FakeProdId.sol\":3897:3915  Distributor memory */\n      tag_107\n      tag_108\n      jump\t// in\n    tag_107:\n        /* \"contracts/FakeProdId.sol\":3934:3946  distributors */\n      0x05\n        /* \"contracts/FakeProdId.sol\":3934:3961  distributors[distributorId] */\n      0x00\n        /* \"contracts/FakeProdId.sol\":3947:3960  distributorId */\n      dup4\n        /* \"contracts/FakeProdId.sol\":3934:3961  distributors[distributorId] */\n      dup2\n      mstore\n      0x20\n      add\n      swap1\n      dup2\n      mstore\n      0x20\n      add\n      0x00\n      keccak256\n        /* \"contracts/FakeProdId.sol\":3927:3961  return distributors[distributorId] */\n      mload(0x40)\n      dup1\n      0x80\n      add\n      0x40\n      mstore\n      swap1\n      dup2\n      0x00\n      dup3\n      add\n      sload\n      dup2\n      mstore\n      0x20\n      add\n      0x01\n      dup3\n      add\n      dup1\n      sload\n      tag_110\n      swap1\n      tag_111\n      jump\t// in\n    tag_110:\n      dup1\n      0x1f\n      add\n      0x20\n      dup1\n      swap2\n      div\n      mul\n      0x20\n      add\n      mload(0x40)\n      swap1\n      dup2\n      add\n      0x40\n      mstore\n      dup1\n      swap3\n      swap2\n      swap1\n      dup2\n      dup2\n      mstore\n      0x20\n      add\n      dup3\n      dup1\n      sload\n      tag_112\n      swap1\n      tag_111\n      jump\t// in\n    tag_112:\n      dup1\n      iszero\n      tag_113\n      jumpi\n      dup1\n      0x1f\n      lt\n      tag_114\n      jumpi\n      0x0100\n      dup1\n      dup4\n      sload\n      div\n      mul\n      dup4\n      mstore\n      swap2\n      0x20\n      add\n      swap2\n      jump(tag_113)\n    tag_114:\n      dup3\n      add\n      swap2\n      swap1\n      0x00\n      mstore\n      keccak256(0x00, 0x20)\n      swap1\n    tag_115:\n      dup2\n      sload\n      dup2\n      mstore\n      swap1\n      0x01\n      add\n      swap1\n      0x20\n      add\n      dup1\n      dup4\n      gt\n      tag_115\n      jumpi\n      dup3\n      swap1\n      sub\n      0x1f\n      and\n      dup3\n      add\n      swap2\n    tag_113:\n      pop\n      pop\n      pop\n      pop\n      pop\n      dup2\n      mstore\n      0x20\n      add\n      0x02\n      dup3\n      add\n      dup1\n      sload\n      tag_116\n      swap1\n      tag_111\n      jump\t// in\n    tag_116:\n      dup1\n      0x1f\n      add\n      0x20\n      dup1\n      swap2\n      div\n      mul\n      0x20\n      add\n      mload(0x40)\n      swap1\n      dup2\n      add\n      0x40\n      mstore\n      dup1\n      swap3\n      swap2\n      swap1\n      dup2\n      dup2\n      mstore\n      0x20\n      add\n      dup3\n      dup1\n      sload\n      tag_117\n      swap1\n      tag_111\n      jump\t// in\n    tag_117:\n      dup1\n      iszero\n      tag_118\n      jumpi\n      dup1\n      0x1f\n      lt\n      tag_119\n      jumpi\n      0x0100\n      dup1\n      dup4\n      sload\n      div\n      mul\n      dup4\n      mstore\n      swap2\n      0x20\n      add\n      swap2\n      jump(tag_118)\n    tag_119:\n      dup3\n      add\n      swap2\n      swap1\n      0x00\n      mstore\n      keccak256(0x00, 0x20)\n      swap1\n    tag_120:\n      dup2\n      sload\n      dup2\n      mstore\n      swap1\n      0x01\n      add\n      swap1\n      0x20\n      add\n      dup1\n      dup4\n      gt\n      tag_120\n      jumpi\n      dup3\n      swap1\n      sub\n      0x1f\n      and\n      dup3\n      add\n      swap2\n    tag_118:\n      pop\n      pop\n      pop\n      pop\n      pop\n      dup2\n      mstore\n      0x20\n      add\n      0x03\n      dup3\n      add\n      dup1\n      sload\n      dup1\n      0x20\n      mul\n      0x20\n      add\n      mload(0x40)\n      swap1\n      dup2\n      add\n      0x40\n      mstore\n      dup1\n      swap3\n      swap2\n      swap1\n      dup2\n      dup2\n      mstore\n      0x20\n      add\n      dup3\n      dup1\n      sload\n      dup1\n      iszero\n      tag_121\n      jumpi\n      0x20\n      mul\n      dup3\n      add\n      swap2\n      swap1\n      0x00\n      mstore\n      keccak256(0x00, 0x20)\n      swap1\n    tag_122:\n      dup2\n      sload\n      dup2\n      mstore\n      0x20\n      add\n      swap1\n      0x01\n      add\n      swap1\n      dup1\n      dup4\n      gt\n      tag_122\n      jumpi\n    tag_121:\n      pop\n      pop\n      pop\n      pop\n      pop\n      dup2\n      mstore\n      pop\n      pop\n      swap1\n      pop\n        /* \"contracts/FakeProdId.sol\":3825:3969  function getdistributorDetails(uint distributorId) public view returns (Distributor memory){\r... */\n      swap2\n      swap1\n      pop\n      jump\t// out\n        /* \"contracts/FakeProdId.sol\":2587:2716  function getsupplierDetails(uint supplierId) public view returns (Supplier memory){\r... */\n    tag_34:\n        /* \"contracts/FakeProdId.sol\":2653:2668  Supplier memory */\n      tag_123\n      tag_94\n      jump\t// in\n    tag_123:\n        /* \"contracts/FakeProdId.sol\":2687:2696  suppliers */\n      0x03\n        /* \"contracts/FakeProdId.sol\":2687:2708  suppliers[supplierId] */\n      0x00\n        /* \"contracts/FakeProdId.sol\":2697:2707  supplierId */\n      dup4\n        /* \"contracts/FakeProdId.sol\":2687:2708  suppliers[supplierId] */\n      dup2\n      mstore\n      0x20\n      add\n      swap1\n      dup2\n      mstore\n      0x20\n      add\n      0x00\n      keccak256\n        /* \"contracts/FakeProdId.sol\":2680:2708  return suppliers[supplierId] */\n      mload(0x40)\n      dup1\n      0x80\n      add\n      0x40\n      mstore\n      swap1\n      dup2\n      0x00\n      dup3\n      add\n      sload\n      dup2\n      mstore\n      0x20\n      add\n      0x01\n      dup3\n      add\n      dup1\n      sload\n      tag_125\n      swap1\n      tag_111\n      jump\t// in\n    tag_125:\n      dup1\n      0x1f\n      add\n      0x20\n      dup1\n      swap2\n      div\n      mul\n      0x20\n      add\n      mload(0x40)\n      swap1\n      dup2\n      add\n      0x40\n      mstore\n      dup1\n      swap3\n      swap2\n      swap1\n      dup2\n      dup2\n      mstore\n      0x20\n      add\n      dup3\n      dup1\n      sload\n      tag_126\n      swap1\n      tag_111\n      jump\t// in\n    tag_126:\n      dup1\n      iszero\n      tag_127\n      jumpi\n      dup1\n      0x1f\n      lt\n      tag_128\n      jumpi\n      0x0100\n      dup1\n      dup4\n      sload\n      div\n      mul\n      dup4\n      mstore\n      swap2\n      0x20\n      add\n      swap2\n      jump(tag_127)\n    tag_128:\n      dup3\n      add\n      swap2\n      swap1\n      0x00\n      mstore\n      keccak256(0x00, 0x20)\n      swap1\n    tag_129:\n      dup2\n      sload\n      dup2\n      mstore\n      swap1\n      0x01\n      add\n      swap1\n      0x20\n      add\n      dup1\n      dup4\n      gt\n      tag_129\n      jumpi\n      dup3\n      swap1\n      sub\n      0x1f\n      and\n      dup3\n      add\n      swap2\n    tag_127:\n      pop\n      pop\n      pop\n      pop\n      pop\n      dup2\n      mstore\n      0x20\n      add\n      0x02\n      dup3\n      add\n      dup1\n      sload\n      tag_130\n      swap1\n      tag_111\n      jump\t// in\n    tag_130:\n      dup1\n      0x1f\n      add\n      0x20\n      dup1\n      swap2\n      div\n      mul\n      0x20\n      add\n      mload(0x40)\n      swap1\n      dup2\n      add\n      0x40\n      mstore\n      dup1\n      swap3\n      swap2\n      swap1\n      dup2\n      dup2\n      mstore\n      0x20\n      add\n      dup3\n      dup1\n      sload\n      tag_131\n      swap1\n      tag_111\n      jump\t// in\n    tag_131:\n      dup1\n      iszero\n      tag_132\n      jumpi\n      dup1\n      0x1f\n      lt\n      tag_133\n      jumpi\n      0x0100\n      dup1\n      dup4\n      sload\n      div\n      mul\n      dup4\n      mstore\n      swap2\n      0x20\n      add\n      swap2\n      jump(tag_132)\n    tag_133:\n      dup3\n      add\n      swap2\n      swap1\n      0x00\n      mstore\n      keccak256(0x00, 0x20)\n      swap1\n    tag_134:\n      dup2\n      sload\n      dup2\n      mstore\n      swap1\n      0x01\n      add\n      swap1\n      0x20\n      add\n      dup1\n      dup4\n      gt\n      tag_134\n      jumpi\n      dup3\n      swap1\n      sub\n      0x1f\n      and\n      dup3\n      add\n      swap2\n    tag_132:\n      pop\n      pop\n      pop\n      pop\n      pop\n      dup2\n      mstore\n      0x20\n      add\n      0x03\n      dup3\n      add\n      dup1\n      sload\n      dup1\n      0x20\n      mul\n      0x20\n      add\n      mload(0x40)\n      swap1\n      dup2\n      add\n      0x40\n      mstore\n      dup1\n      swap3\n      swap2\n      swap1\n      dup2\n      dup2\n      mstore\n      0x20\n      add\n      dup3\n      dup1\n      sload\n      dup1\n      iszero\n      tag_135\n      jumpi\n      0x20\n      mul\n      dup3\n      add\n      swap2\n      swap1\n      0x00\n      mstore\n      keccak256(0x00, 0x20)\n      swap1\n    tag_136:\n      dup2\n      sload\n      dup2\n      mstore\n      0x20\n      add\n      swap1\n      0x01\n      add\n      swap1\n      dup1\n      dup4\n      gt\n      tag_136\n      jumpi\n    tag_135:\n      pop\n      pop\n      pop\n      pop\n      pop\n      dup2\n      mstore\n      pop\n      pop\n      swap1\n      pop\n        /* \"contracts/FakeProdId.sol\":2587:2716  function getsupplierDetails(uint supplierId) public view returns (Supplier memory){\r... */\n      swap2\n      swap1\n      pop\n      jump\t// out\n        /* \"contracts/FakeProdId.sol\":1385:1433  mapping(uint => Distributor) public distributors */\n    tag_39:\n      mstore(0x20, 0x05)\n      dup1\n      0x00\n      mstore\n      keccak256(0x00, 0x40)\n      0x00\n      swap2\n      pop\n      swap1\n      pop\n      dup1\n      0x00\n      add\n      sload\n      swap1\n      dup1\n      0x01\n      add\n      dup1\n      sload\n      tag_137\n      swap1\n      tag_111\n      jump\t// in\n    tag_137:\n      dup1\n      0x1f\n      add\n      0x20\n      dup1\n      swap2\n      div\n      mul\n      0x20\n      add\n      mload(0x40)\n      swap1\n      dup2\n      add\n      0x40\n      mstore\n      dup1\n      swap3\n      swap2\n      swap1\n      dup2\n      dup2\n      mstore\n      0x20\n      add\n      dup3\n      dup1\n      sload\n      tag_138\n      swap1\n      tag_111\n      jump\t// in\n    tag_138:\n      dup1\n      iszero\n      tag_139\n      jumpi\n      dup1\n      0x1f\n      lt\n      tag_140\n      jumpi\n      0x0100\n      dup1\n      dup4\n      sload\n      div\n      mul\n      dup4\n      mstore\n      swap2\n      0x20\n      add\n      swap2\n      jump(tag_139)\n    tag_140:\n      dup3\n      add\n      swap2\n      swap1\n      0x00\n      mstore\n      keccak256(0x00, 0x20)\n      swap1\n    tag_141:\n      dup2\n      sload\n      dup2\n      mstore\n      swap1\n      0x01\n      add\n      swap1\n      0x20\n      add\n      dup1\n      dup4\n      gt\n      tag_141\n      jumpi\n      dup3\n      swap1\n      sub\n      0x1f\n      and\n      dup3\n      add\n      swap2\n    tag_139:\n      pop\n      pop\n      pop\n      pop\n      pop\n      swap1\n      dup1\n      0x02\n      add\n      dup1\n      sload\n      tag_142\n      swap1\n      tag_111\n      jump\t// in\n    tag_142:\n      dup1\n      0x1f\n      add\n      0x20\n      dup1\n      swap2\n      div\n      mul\n      0x20\n      add\n      mload(0x40)\n      swap1\n      dup2\n      add\n      0x40\n      mstore\n      dup1\n      swap3\n      swap2\n      swap1\n      dup2\n      dup2\n      mstore\n      0x20\n      add\n      dup3\n      dup1\n      sload\n      tag_143\n      swap1\n      tag_111\n      jump\t// in\n    tag_143:\n      dup1\n      iszero\n      tag_144\n      jumpi\n      dup1\n      0x1f\n      lt\n      tag_145\n      jumpi\n      0x0100\n      dup1\n      dup4\n      sload\n      div\n      mul\n      dup4\n      mstore\n      swap2\n      0x20\n      add\n      swap2\n      jump(tag_144)\n    tag_145:\n      dup3\n      add\n      swap2\n      swap1\n      0x00\n      mstore\n      keccak256(0x00, 0x20)\n      swap1\n    tag_146:\n      dup2\n      sload\n      dup2\n      mstore\n      swap1\n      0x01\n      add\n      swap1\n      0x20\n      add\n      dup1\n      dup4\n      gt\n      tag_146\n      jumpi\n      dup3\n      swap1\n      sub\n      0x1f\n      and\n      dup3\n      add\n      swap2\n    tag_144:\n      pop\n      pop\n      pop\n      pop\n      pop\n      swap1\n      pop\n      dup4\n      jump\t// out\n        /* \"contracts/FakeProdId.sol\":1206:1246  mapping(uint => Product) public products */\n    tag_44:\n      mstore(0x20, 0x01)\n      dup1\n      0x00\n      mstore\n      keccak256(0x00, 0x40)\n      0x00\n      swap2\n      pop\n      swap1\n      pop\n      dup1\n      0x00\n      add\n      sload\n      swap1\n      dup1\n      0x01\n      add\n      dup1\n      sload\n      tag_147\n      swap1\n      tag_111\n      jump\t// in\n    tag_147:\n      dup1\n      0x1f\n      add\n      0x20\n      dup1\n      swap2\n      div\n      mul\n      0x20\n      add\n      mload(0x40)\n      swap1\n      dup2\n      add\n      0x40\n      mstore\n      dup1\n      swap3\n      swap2\n      swap1\n      dup2\n      dup2\n      mstore\n      0x20\n      add\n      dup3\n      dup1\n      sload\n      tag_148\n      swap1\n      tag_111\n      jump\t// in\n    tag_148:\n      dup1\n      iszero\n      tag_149\n      jumpi\n      dup1\n      0x1f\n      lt\n      tag_150\n      jumpi\n      0x0100\n      dup1\n      dup4\n      sload\n      div\n      mul\n      dup4\n      mstore\n      swap2\n      0x20\n      add\n      swap2\n      jump(tag_149)\n    tag_150:\n      dup3\n      add\n      swap2\n      swap1\n      0x00\n      mstore\n      keccak256(0x00, 0x20)\n      swap1\n    tag_151:\n      dup2\n      sload\n      dup2\n      mstore\n      swap1\n      0x01\n      add\n      swap1\n      0x20\n      add\n      dup1\n      dup4\n      gt\n      tag_151\n      jumpi\n      dup3\n      swap1\n      sub\n      0x1f\n      and\n      dup3\n      add\n      swap2\n    tag_149:\n      pop\n      pop\n      pop\n      pop\n      pop\n      swap1\n      dup1\n      0x02\n      add\n      sload\n      swap1\n      dup1\n      0x03\n      add\n      dup1\n      sload\n      tag_152\n      swap1\n      tag_111\n      jump\t// in\n    tag_152:\n      dup1\n      0x1f\n      add\n      0x20\n      dup1\n      swap2\n      div\n      mul\n      0x20\n      add\n      mload(0x40)\n      swap1\n      dup2\n      add\n      0x40\n      mstore\n      dup1\n      swap3\n      swap2\n      swap1\n      dup2\n      dup2\n      mstore\n      0x20\n      add\n      dup3\n      dup1\n      sload\n      tag_153\n      swap1\n      tag_111\n      jump\t// in\n    tag_153:\n      dup1\n      iszero\n      tag_154\n      jumpi\n      dup1\n      0x1f\n      lt\n      tag_155\n      jumpi\n      0x0100\n      dup1\n      dup4\n      sload\n      div\n      mul\n      dup4\n      mstore\n      swap2\n      0x20\n      add\n      swap2\n      jump(tag_154)\n    tag_155:\n      dup3\n      add\n      swap2\n      swap1\n      0x00\n      mstore\n      keccak256(0x00, 0x20)\n      swap1\n    tag_156:\n      dup2\n      sload\n      dup2\n      mstore\n      swap1\n      0x01\n      add\n      swap1\n      0x20\n      add\n      dup1\n      dup4\n      gt\n      tag_156\n      jumpi\n      dup3\n      swap1\n      sub\n      0x1f\n      and\n      dup3\n      add\n      swap2\n    tag_154:\n      pop\n      pop\n      pop\n      pop\n      pop\n      swap1\n      dup1\n      0x04\n      add\n      dup1\n      sload\n      tag_157\n      swap1\n      tag_111\n      jump\t// in\n    tag_157:\n      dup1\n      0x1f\n      add\n      0x20\n      dup1\n      swap2\n      div\n      mul\n      0x20\n      add\n      mload(0x40)\n      swap1\n      dup2\n      add\n      0x40\n      mstore\n      dup1\n      swap3\n      swap2\n      swap1\n      dup2\n      dup2\n      mstore\n      0x20\n      add\n      dup3\n      dup1\n      sload\n      tag_158\n      swap1\n      tag_111\n      jump\t// in\n    tag_158:\n      dup1\n      iszero\n      tag_159\n      jumpi\n      dup1\n      0x1f\n      lt\n      tag_160\n      jumpi\n      0x0100\n      dup1\n      dup4\n      sload\n      div\n      mul\n      dup4\n      mstore\n      swap2\n      0x20\n      add\n      swap2\n      jump(tag_159)\n    tag_160:\n      dup3\n      add\n      swap2\n      swap1\n      0x00\n      mstore\n      keccak256(0x00, 0x20)\n      swap1\n    tag_161:\n      dup2\n      sload\n      dup2\n      mstore\n      swap1\n      0x01\n      add\n      swap1\n      0x20\n      add\n      dup1\n      dup4\n      gt\n      tag_161\n      jumpi\n      dup3\n      swap1\n      sub\n      0x1f\n      and\n      dup3\n      add\n      swap2\n    tag_159:\n      pop\n      pop\n      pop\n      pop\n      pop\n      swap1\n      dup1\n      0x05\n      add\n      sload\n      swap1\n      pop\n      dup7\n      jump\t// out\n        /* \"contracts/FakeProdId.sol\":3358:3813  function addDistributor(string memory name) public{\r... */\n    tag_49:\n        /* \"contracts/FakeProdId.sol\":3419:3452  Distributor memory newDistributor */\n      tag_163\n      tag_108\n      jump\t// in\n    tag_163:\n        /* \"contracts/FakeProdId.sol\":3518:3522  name */\n      dup2\n        /* \"contracts/FakeProdId.sol\":3523:3538  block.timestamp */\n      timestamp\n        /* \"contracts/FakeProdId.sol\":3539:3555  block.difficulty */\n      difficulty\n        /* \"contracts/FakeProdId.sol\":3507:3556  abi.encode(name,block.timestamp,block.difficulty) */\n      add(0x20, mload(0x40))\n      tag_164\n      swap4\n      swap3\n      swap2\n      swap1\n      tag_96\n      jump\t// in\n    tag_164:\n      mload(0x40)\n      0x20\n      dup2\n      dup4\n      sub\n      sub\n      dup2\n      mstore\n      swap1\n      0x40\n      mstore\n        /* \"contracts/FakeProdId.sol\":3497:3557  keccak256(abi.encode(name,block.timestamp,block.difficulty)) */\n      dup1\n      mload\n      swap1\n      0x20\n      add\n      keccak256\n        /* \"contracts/FakeProdId.sol\":3492:3558  uint(keccak256(abi.encode(name,block.timestamp,block.difficulty))) */\n      0x00\n      shr\n        /* \"contracts/FakeProdId.sol\":3463:3477  newDistributor */\n      dup2\n        /* \"contracts/FakeProdId.sol\":3463:3491  newDistributor.distributorId */\n      0x00\n      add\n        /* \"contracts/FakeProdId.sol\":3463:3558  newDistributor.distributorId=uint(keccak256(abi.encode(name,block.timestamp,block.difficulty))) */\n      dup2\n      dup2\n      mstore\n      pop\n      pop\n        /* \"contracts/FakeProdId.sol\":3569:3595  newDistributor.kind = \"DI\" */\n      mload(0x40)\n      dup1\n      0x40\n      add\n      0x40\n      mstore\n      dup1\n      0x02\n      dup2\n      mstore\n      0x20\n      add\n      0x4449000000000000000000000000000000000000000000000000000000000000\n      dup2\n      mstore\n      pop\n        /* \"contracts/FakeProdId.sol\":3569:3583  newDistributor */\n      dup2\n        /* \"contracts/FakeProdId.sol\":3569:3588  newDistributor.kind */\n      0x20\n      add\n        /* \"contracts/FakeProdId.sol\":3569:3595  newDistributor.kind = \"DI\" */\n      dup2\n      swap1\n      mstore\n      pop\n        /* \"contracts/FakeProdId.sol\":3628:3632  name */\n      dup2\n        /* \"contracts/FakeProdId.sol\":3606:3620  newDistributor */\n      dup2\n        /* \"contracts/FakeProdId.sol\":3606:3625  newDistributor.name */\n      0x40\n      add\n        /* \"contracts/FakeProdId.sol\":3606:3632  newDistributor.name = name */\n      dup2\n      swap1\n      mstore\n      pop\n        /* \"contracts/FakeProdId.sol\":3683:3684  0 */\n      0x00\n        /* \"contracts/FakeProdId.sol\":3672:3685  new uint[](0) */\n      0xffffffffffffffff\n      dup2\n      gt\n      iszero\n      tag_165\n      jumpi\n      tag_166\n      tag_99\n      jump\t// in\n    tag_166:\n    tag_165:\n      mload(0x40)\n      swap1\n      dup1\n      dup3\n      mstore\n      dup1\n      0x20\n      mul\n      0x20\n      add\n      dup3\n      add\n      0x40\n      mstore\n      dup1\n      iszero\n      tag_167\n      jumpi\n      dup2\n      0x20\n      add\n      0x20\n      dup3\n      mul\n      dup1\n      calldatasize\n      dup4\n      calldatacopy\n      dup1\n      dup3\n      add\n      swap2\n      pop\n      pop\n      swap1\n      pop\n    tag_167:\n      pop\n        /* \"contracts/FakeProdId.sol\":3643:3657  newDistributor */\n      dup2\n        /* \"contracts/FakeProdId.sol\":3643:3669  newDistributor.productList */\n      0x60\n      add\n        /* \"contracts/FakeProdId.sol\":3643:3685  newDistributor.productList = new uint[](0) */\n      dup2\n      swap1\n      mstore\n      pop\n        /* \"contracts/FakeProdId.sol\":3741:3755  newDistributor */\n      dup1\n        /* \"contracts/FakeProdId.sol\":3696:3708  distributors */\n      0x05\n        /* \"contracts/FakeProdId.sol\":3696:3738  distributors[newDistributor.distributorId] */\n      0x00\n        /* \"contracts/FakeProdId.sol\":3709:3723  newDistributor */\n      dup4\n        /* \"contracts/FakeProdId.sol\":3709:3737  newDistributor.distributorId */\n      0x00\n      add\n      mload\n        /* \"contracts/FakeProdId.sol\":3696:3738  distributors[newDistributor.distributorId] */\n      dup2\n      mstore\n      0x20\n      add\n      swap1\n      dup2\n      mstore\n      0x20\n      add\n      0x00\n      keccak256\n        /* \"contracts/FakeProdId.sol\":3696:3755  distributors[newDistributor.distributorId] = newDistributor */\n      0x00\n      dup3\n      add\n      mload\n      dup2\n      0x00\n      add\n      sstore\n      0x20\n      dup3\n      add\n      mload\n      dup2\n      0x01\n      add\n      swap1\n      dup1\n      mload\n      swap1\n      0x20\n      add\n      swap1\n      tag_168\n      swap3\n      swap2\n      swap1\n      tag_102\n      jump\t// in\n    tag_168:\n      pop\n      0x40\n      dup3\n      add\n      mload\n      dup2\n      0x02\n      add\n      swap1\n      dup1\n      mload\n      swap1\n      0x20\n      add\n      swap1\n      tag_169\n      swap3\n      swap2\n      swap1\n      tag_102\n      jump\t// in\n    tag_169:\n      pop\n      0x60\n      dup3\n      add\n      mload\n      dup2\n      0x03\n      add\n      swap1\n      dup1\n      mload\n      swap1\n      0x20\n      add\n      swap1\n      tag_170\n      swap3\n      swap2\n      swap1\n      tag_105\n      jump\t// in\n    tag_170:\n      pop\n      swap1\n      pop\n      pop\n        /* \"contracts/FakeProdId.sol\":3771:3805  distributorDetails(newDistributor) */\n      0x4fbe23d5058e501d2ac74e9b5146f125d6c6ae6c3475d9431498262e998ee8e0\n        /* \"contracts/FakeProdId.sol\":3790:3804  newDistributor */\n      dup2\n        /* \"contracts/FakeProdId.sol\":3771:3805  distributorDetails(newDistributor) */\n      mload(0x40)\n      tag_171\n      swap2\n      swap1\n      tag_31\n      jump\t// in\n    tag_171:\n      mload(0x40)\n      dup1\n      swap2\n      sub\n      swap1\n      log1\n        /* \"contracts/FakeProdId.sol\":3408:3813  {\r... */\n      pop\n        /* \"contracts/FakeProdId.sol\":3358:3813  function addDistributor(string memory name) public{\r... */\n      pop\n      jump\t// out\n        /* \"contracts/FakeProdId.sol\":1440:1482  mapping(uint => Retailer) public retailers */\n    tag_52:\n      mstore(0x20, 0x06)\n      dup1\n      0x00\n      mstore\n      keccak256(0x00, 0x40)\n      0x00\n      swap2\n      pop\n      swap1\n      pop\n      dup1\n      0x00\n      add\n      sload\n      swap1\n      dup1\n      0x01\n      add\n      dup1\n      sload\n      tag_172\n      swap1\n      tag_111\n      jump\t// in\n    tag_172:\n      dup1\n      0x1f\n      add\n      0x20\n      dup1\n      swap2\n      div\n      mul\n      0x20\n      add\n      mload(0x40)\n      swap1\n      dup2\n      add\n      0x40\n      mstore\n      dup1\n      swap3\n      swap2\n      swap1\n      dup2\n      dup2\n      mstore\n      0x20\n      add\n      dup3\n      dup1\n      sload\n      tag_173\n      swap1\n      tag_111\n      jump\t// in\n    tag_173:\n      dup1\n      iszero\n      tag_174\n      jumpi\n      dup1\n      0x1f\n      lt\n      tag_175\n      jumpi\n      0x0100\n      dup1\n      dup4\n      sload\n      div\n      mul\n      dup4\n      mstore\n      swap2\n      0x20\n      add\n      swap2\n      jump(tag_174)\n    tag_175:\n      dup3\n      add\n      swap2\n      swap1\n      0x00\n      mstore\n      keccak256(0x00, 0x20)\n      swap1\n    tag_176:\n      dup2\n      sload\n      dup2\n      mstore\n      swap1\n      0x01\n      add\n      swap1\n      0x20\n      add\n      dup1\n      dup4\n      gt\n      tag_176\n      jumpi\n      dup3\n      swap1\n      sub\n      0x1f\n      and\n      dup3\n      add\n      swap2\n    tag_174:\n      pop\n      pop\n      pop\n      pop\n      pop\n      swap1\n      pop\n      dup3\n      jump\t// out\n        /* \"contracts/FakeProdId.sol\":1491:2033  function addProduct(string memory name,uint price,string memory description) public{\r... */\n    tag_58:\n        /* \"contracts/FakeProdId.sol\":1585:1610  Product memory newProduct */\n      tag_178\n      tag_179\n      jump\t// in\n    tag_178:\n        /* \"contracts/FakeProdId.sol\":1668:1672  name */\n      dup4\n        /* \"contracts/FakeProdId.sol\":1673:1688  block.timestamp */\n      timestamp\n        /* \"contracts/FakeProdId.sol\":1689:1705  block.difficulty */\n      difficulty\n        /* \"contracts/FakeProdId.sol\":1657:1706  abi.encode(name,block.timestamp,block.difficulty) */\n      add(0x20, mload(0x40))\n      tag_180\n      swap4\n      swap3\n      swap2\n      swap1\n      tag_96\n      jump\t// in\n    tag_180:\n      mload(0x40)\n      0x20\n      dup2\n      dup4\n      sub\n      sub\n      dup2\n      mstore\n      swap1\n      0x40\n      mstore\n        /* \"contracts/FakeProdId.sol\":1647:1707  keccak256(abi.encode(name,block.timestamp,block.difficulty)) */\n      dup1\n      mload\n      swap1\n      0x20\n      add\n      keccak256\n        /* \"contracts/FakeProdId.sol\":1642:1708  uint(keccak256(abi.encode(name,block.timestamp,block.difficulty))) */\n      0x00\n      shr\n        /* \"contracts/FakeProdId.sol\":1621:1631  newProduct */\n      dup2\n        /* \"contracts/FakeProdId.sol\":1621:1641  newProduct.productId */\n      0x00\n      add\n        /* \"contracts/FakeProdId.sol\":1621:1708  newProduct.productId=uint(keccak256(abi.encode(name,block.timestamp,block.difficulty))) */\n      dup2\n      dup2\n      mstore\n      pop\n      pop\n        /* \"contracts/FakeProdId.sol\":1737:1741  name */\n      dup4\n        /* \"contracts/FakeProdId.sol\":1719:1729  newProduct */\n      dup2\n        /* \"contracts/FakeProdId.sol\":1719:1734  newProduct.name */\n      0x20\n      add\n        /* \"contracts/FakeProdId.sol\":1719:1741  newProduct.name = name */\n      dup2\n      swap1\n      mstore\n      pop\n        /* \"contracts/FakeProdId.sol\":1771:1776  price */\n      dup3\n        /* \"contracts/FakeProdId.sol\":1752:1762  newProduct */\n      dup2\n        /* \"contracts/FakeProdId.sol\":1752:1768  newProduct.price */\n      0x40\n      add\n        /* \"contracts/FakeProdId.sol\":1752:1776  newProduct.price = price */\n      dup2\n      dup2\n      mstore\n      pop\n      pop\n        /* \"contracts/FakeProdId.sol\":1812:1823  description */\n      dup2\n        /* \"contracts/FakeProdId.sol\":1787:1797  newProduct */\n      dup2\n        /* \"contracts/FakeProdId.sol\":1787:1809  newProduct.description */\n      0x60\n      add\n        /* \"contracts/FakeProdId.sol\":1787:1823  newProduct.description = description */\n      dup2\n      swap1\n      mstore\n      pop\n        /* \"contracts/FakeProdId.sol\":1834:1858  newProduct.curOwner = \"\" */\n      mload(0x40)\n      dup1\n      0x20\n      add\n      0x40\n      mstore\n      dup1\n      0x00\n      dup2\n      mstore\n      pop\n        /* \"contracts/FakeProdId.sol\":1834:1844  newProduct */\n      dup2\n        /* \"contracts/FakeProdId.sol\":1834:1853  newProduct.curOwner */\n      0x80\n      add\n        /* \"contracts/FakeProdId.sol\":1834:1858  newProduct.curOwner = \"\" */\n      dup2\n      swap1\n      mstore\n      pop\n        /* \"contracts/FakeProdId.sol\":1893:1894  0 */\n      0x00\n        /* \"contracts/FakeProdId.sol\":1869:1879  newProduct */\n      dup2\n        /* \"contracts/FakeProdId.sol\":1869:1890  newProduct.curOwnerId */\n      0xa0\n      add\n        /* \"contracts/FakeProdId.sol\":1869:1894  newProduct.curOwnerId = 0 */\n      dup2\n      dup2\n      mstore\n      pop\n      pop\n        /* \"contracts/FakeProdId.sol\":1938:1948  newProduct */\n      dup1\n        /* \"contracts/FakeProdId.sol\":1905:1913  products */\n      0x01\n        /* \"contracts/FakeProdId.sol\":1905:1935  products[newProduct.productId] */\n      0x00\n        /* \"contracts/FakeProdId.sol\":1914:1924  newProduct */\n      dup4\n        /* \"contracts/FakeProdId.sol\":1914:1934  newProduct.productId */\n      0x00\n      add\n      mload\n        /* \"contracts/FakeProdId.sol\":1905:1935  products[newProduct.productId] */\n      dup2\n      mstore\n      0x20\n      add\n      swap1\n      dup2\n      mstore\n      0x20\n      add\n      0x00\n      keccak256\n        /* \"contracts/FakeProdId.sol\":1905:1948  products[newProduct.productId] = newProduct */\n      0x00\n      dup3\n      add\n      mload\n      dup2\n      0x00\n      add\n      sstore\n      0x20\n      dup3\n      add\n      mload\n      dup2\n      0x01\n      add\n      swap1\n      dup1\n      mload\n      swap1\n      0x20\n      add\n      swap1\n      tag_181\n      swap3\n      swap2\n      swap1\n      tag_102\n      jump\t// in\n    tag_181:\n      pop\n      0x40\n      dup3\n      add\n      mload\n      dup2\n      0x02\n      add\n      sstore\n      0x60\n      dup3\n      add\n      mload\n      dup2\n      0x03\n      add\n      swap1\n      dup1\n      mload\n      swap1\n      0x20\n      add\n      swap1\n      tag_182\n      swap3\n      swap2\n      swap1\n      tag_102\n      jump\t// in\n    tag_182:\n      pop\n      0x80\n      dup3\n      add\n      mload\n      dup2\n      0x04\n      add\n      swap1\n      dup1\n      mload\n      swap1\n      0x20\n      add\n      swap1\n      tag_183\n      swap3\n      swap2\n      swap1\n      tag_102\n      jump\t// in\n    tag_183:\n      pop\n      0xa0\n      dup3\n      add\n      mload\n      dup2\n      0x05\n      add\n      sstore\n      swap1\n      pop\n      pop\n        /* \"contracts/FakeProdId.sol\":1959:1971  productsSize */\n      0x02\n      0x00\n        /* \"contracts/FakeProdId.sol\":1959:1973  productsSize++ */\n      dup2\n      sload\n      dup1\n      swap3\n      swap2\n      swap1\n      tag_184\n      swap1\n      tag_185\n      jump\t// in\n    tag_184:\n      swap2\n      swap1\n      pop\n      sstore\n      pop\n        /* \"contracts/FakeProdId.sol\":1989:2025  prodDetails(newProduct,productsSize) */\n      0x0b9650a646eaf16194343a0e5cf05c4a99cfbffbf2a7630c4eaf6f3263a931d8\n        /* \"contracts/FakeProdId.sol\":2001:2011  newProduct */\n      dup2\n        /* \"contracts/FakeProdId.sol\":2012:2024  productsSize */\n      sload(0x02)\n        /* \"contracts/FakeProdId.sol\":1989:2025  prodDetails(newProduct,productsSize) */\n      mload(0x40)\n      tag_186\n      swap3\n      swap2\n      swap1\n      tag_187\n      jump\t// in\n    tag_186:\n      mload(0x40)\n      dup1\n      swap2\n      sub\n      swap1\n      log1\n        /* \"contracts/FakeProdId.sol\":1574:2033  {\r... */\n      pop\n        /* \"contracts/FakeProdId.sol\":1491:2033  function addProduct(string memory name,uint price,string memory description) public{\r... */\n      pop\n      pop\n      pop\n      jump\t// out\n        /* \"contracts/FakeProdId.sol\":2724:3193  function addManufacturer(string memory name) public{\r... */\n    tag_61:\n        /* \"contracts/FakeProdId.sol\":2786:2821  Manufacturer memory newManufacturer */\n      tag_189\n      tag_190\n      jump\t// in\n    tag_189:\n        /* \"contracts/FakeProdId.sol\":2889:2893  name */\n      dup2\n        /* \"contracts/FakeProdId.sol\":2894:2909  block.timestamp */\n      timestamp\n        /* \"contracts/FakeProdId.sol\":2910:2926  block.difficulty */\n      difficulty\n        /* \"contracts/FakeProdId.sol\":2878:2927  abi.encode(name,block.timestamp,block.difficulty) */\n      add(0x20, mload(0x40))\n      tag_191\n      swap4\n      swap3\n      swap2\n      swap1\n      tag_96\n      jump\t// in\n    tag_191:\n      mload(0x40)\n      0x20\n      dup2\n      dup4\n      sub\n      sub\n      dup2\n      mstore\n      swap1\n      0x40\n      mstore\n        /* \"contracts/FakeProdId.sol\":2868:2928  keccak256(abi.encode(name,block.timestamp,block.difficulty)) */\n      dup1\n      mload\n      swap1\n      0x20\n      add\n      keccak256\n        /* \"contracts/FakeProdId.sol\":2863:2929  uint(keccak256(abi.encode(name,block.timestamp,block.difficulty))) */\n      0x00\n      shr\n        /* \"contracts/FakeProdId.sol\":2832:2847  newManufacturer */\n      dup2\n        /* \"contracts/FakeProdId.sol\":2832:2862  newManufacturer.manufacturerId */\n      0x00\n      add\n        /* \"contracts/FakeProdId.sol\":2832:2929  newManufacturer.manufacturerId=uint(keccak256(abi.encode(name,block.timestamp,block.difficulty))) */\n      dup2\n      dup2\n      mstore\n      pop\n      pop\n        /* \"contracts/FakeProdId.sol\":2940:2967  newManufacturer.kind = \"MA\" */\n      mload(0x40)\n      dup1\n      0x40\n      add\n      0x40\n      mstore\n      dup1\n      0x02\n      dup2\n      mstore\n      0x20\n      add\n      0x4d41000000000000000000000000000000000000000000000000000000000000\n      dup2\n      mstore\n      pop\n        /* \"contracts/FakeProdId.sol\":2940:2955  newManufacturer */\n      dup2\n        /* \"contracts/FakeProdId.sol\":2940:2960  newManufacturer.kind */\n      0x20\n      add\n        /* \"contracts/FakeProdId.sol\":2940:2967  newManufacturer.kind = \"MA\" */\n      dup2\n      swap1\n      mstore\n      pop\n        /* \"contracts/FakeProdId.sol\":3001:3005  name */\n      dup2\n        /* \"contracts/FakeProdId.sol\":2978:2993  newManufacturer */\n      dup2\n        /* \"contracts/FakeProdId.sol\":2978:2998  newManufacturer.name */\n      0x40\n      add\n        /* \"contracts/FakeProdId.sol\":2978:3005  newManufacturer.name = name */\n      dup2\n      swap1\n      mstore\n      pop\n        /* \"contracts/FakeProdId.sol\":3057:3058  0 */\n      0x00\n        /* \"contracts/FakeProdId.sol\":3046:3059  new uint[](0) */\n      0xffffffffffffffff\n      dup2\n      gt\n      iszero\n      tag_192\n      jumpi\n      tag_193\n      tag_99\n      jump\t// in\n    tag_193:\n    tag_192:\n      mload(0x40)\n      swap1\n      dup1\n      dup3\n      mstore\n      dup1\n      0x20\n      mul\n      0x20\n      add\n      dup3\n      add\n      0x40\n      mstore\n      dup1\n      iszero\n      tag_194\n      jumpi\n      dup2\n      0x20\n      add\n      0x20\n      dup3\n      mul\n      dup1\n      calldatasize\n      dup4\n      calldatacopy\n      dup1\n      dup3\n      add\n      swap2\n      pop\n      pop\n      swap1\n      pop\n    tag_194:\n      pop\n        /* \"contracts/FakeProdId.sol\":3016:3031  newManufacturer */\n      dup2\n        /* \"contracts/FakeProdId.sol\":3016:3043  newManufacturer.productList */\n      0x60\n      add\n        /* \"contracts/FakeProdId.sol\":3016:3059  newManufacturer.productList = new uint[](0) */\n      dup2\n      swap1\n      mstore\n      pop\n        /* \"contracts/FakeProdId.sol\":3118:3133  newManufacturer */\n      dup1\n        /* \"contracts/FakeProdId.sol\":3070:3083  manufacturers */\n      0x04\n        /* \"contracts/FakeProdId.sol\":3070:3115  manufacturers[newManufacturer.manufacturerId] */\n      0x00\n        /* \"contracts/FakeProdId.sol\":3084:3099  newManufacturer */\n      dup4\n        /* \"contracts/FakeProdId.sol\":3084:3114  newManufacturer.manufacturerId */\n      0x00\n      add\n      mload\n        /* \"contracts/FakeProdId.sol\":3070:3115  manufacturers[newManufacturer.manufacturerId] */\n      dup2\n      mstore\n      0x20\n      add\n      swap1\n      dup2\n      mstore\n      0x20\n      add\n      0x00\n      keccak256\n        /* \"contracts/FakeProdId.sol\":3070:3133  manufacturers[newManufacturer.manufacturerId] = newManufacturer */\n      0x00\n      dup3\n      add\n      mload\n      dup2\n      0x00\n      add\n      sstore\n      0x20\n      dup3\n      add\n      mload\n      dup2\n      0x01\n      add\n      swap1\n      dup1\n      mload\n      swap1\n      0x20\n      add\n      swap1\n      tag_195\n      swap3\n      swap2\n      swap1\n      tag_102\n      jump\t// in\n    tag_195:\n      pop\n      0x40\n      dup3\n      add\n      mload\n      dup2\n      0x02\n      add\n      swap1\n      dup1\n      mload\n      swap1\n      0x20\n      add\n      swap1\n      tag_196\n      swap3\n      swap2\n      swap1\n      tag_102\n      jump\t// in\n    tag_196:\n      pop\n      0x60\n      dup3\n      add\n      mload\n      dup2\n      0x03\n      add\n      swap1\n      dup1\n      mload\n      swap1\n      0x20\n      add\n      swap1\n      tag_197\n      swap3\n      swap2\n      swap1\n      tag_105\n      jump\t// in\n    tag_197:\n      pop\n      swap1\n      pop\n      pop\n        /* \"contracts/FakeProdId.sol\":3149:3185  manufacturerDetails(newManufacturer) */\n      0xc127163e194edd469d13210787466a0adb629f336e45d1fc7bc4e2797805615e\n        /* \"contracts/FakeProdId.sol\":3169:3184  newManufacturer */\n      dup2\n        /* \"contracts/FakeProdId.sol\":3149:3185  manufacturerDetails(newManufacturer) */\n      mload(0x40)\n      tag_198\n      swap2\n      swap1\n      tag_78\n      jump\t// in\n    tag_198:\n      mload(0x40)\n      dup1\n      swap2\n      sub\n      swap1\n      log1\n        /* \"contracts/FakeProdId.sol\":2775:3193  {\r... */\n      pop\n        /* \"contracts/FakeProdId.sol\":2724:3193  function addManufacturer(string memory name) public{\r... */\n      pop\n      jump\t// out\n        /* \"contracts/FakeProdId.sol\":1328:1378  mapping(uint => Manufacturer) public manufacturers */\n    tag_64:\n      mstore(0x20, 0x04)\n      dup1\n      0x00\n      mstore\n      keccak256(0x00, 0x40)\n      0x00\n      swap2\n      pop\n      swap1\n      pop\n      dup1\n      0x00\n      add\n      sload\n      swap1\n      dup1\n      0x01\n      add\n      dup1\n      sload\n      tag_199\n      swap1\n      tag_111\n      jump\t// in\n    tag_199:\n      dup1\n      0x1f\n      add\n      0x20\n      dup1\n      swap2\n      div\n      mul\n      0x20\n      add\n      mload(0x40)\n      swap1\n      dup2\n      add\n      0x40\n      mstore\n      dup1\n      swap3\n      swap2\n      swap1\n      dup2\n      dup2\n      mstore\n      0x20\n      add\n      dup3\n      dup1\n      sload\n      tag_200\n      swap1\n      tag_111\n      jump\t// in\n    tag_200:\n      dup1\n      iszero\n      tag_201\n      jumpi\n      dup1\n      0x1f\n      lt\n      tag_202\n      jumpi\n      0x0100\n      dup1\n      dup4\n      sload\n      div\n      mul\n      dup4\n      mstore\n      swap2\n      0x20\n      add\n      swap2\n      jump(tag_201)\n    tag_202:\n      dup3\n      add\n      swap2\n      swap1\n      0x00\n      mstore\n      keccak256(0x00, 0x20)\n      swap1\n    tag_203:\n      dup2\n      sload\n      dup2\n      mstore\n      swap1\n      0x01\n      add\n      swap1\n      0x20\n      add\n      dup1\n      dup4\n      gt\n      tag_203\n      jumpi\n      dup3\n      swap1\n      sub\n      0x1f\n      and\n      dup3\n      add\n      swap2\n    tag_201:\n      pop\n      pop\n      pop\n      pop\n      pop\n      swap1\n      dup1\n      0x02\n      add\n      dup1\n      sload\n      tag_204\n      swap1\n      tag_111\n      jump\t// in\n    tag_204:\n      dup1\n      0x1f\n      add\n      0x20\n      dup1\n      swap2\n      div\n      mul\n      0x20\n      add\n      mload(0x40)\n      swap1\n      dup2\n      add\n      0x40\n      mstore\n      dup1\n      swap3\n      swap2\n      swap1\n      dup2\n      dup2\n      mstore\n      0x20\n      add\n      dup3\n      dup1\n      sload\n      tag_205\n      swap1\n      tag_111\n      jump\t// in\n    tag_205:\n      dup1\n      iszero\n      tag_206\n      jumpi\n      dup1\n      0x1f\n      lt\n      tag_207\n      jumpi\n      0x0100\n      dup1\n      dup4\n      sload\n      div\n      mul\n      dup4\n      mstore\n      swap2\n      0x20\n      add\n      swap2\n      jump(tag_206)\n    tag_207:\n      dup3\n      add\n      swap2\n      swap1\n      0x00\n      mstore\n      keccak256(0x00, 0x20)\n      swap1\n    tag_208:\n      dup2\n      sload\n      dup2\n      mstore\n      swap1\n      0x01\n      add\n      swap1\n      0x20\n      add\n      dup1\n      dup4\n      gt\n      tag_208\n      jumpi\n      dup3\n      swap1\n      sub\n      0x1f\n      and\n      dup3\n      add\n      swap2\n    tag_206:\n      pop\n      pop\n      pop\n      pop\n      pop\n      swap1\n      pop\n      dup4\n      jump\t// out\n        /* \"contracts/FakeProdId.sol\":3977:4356  function addRetailer(string memory name) public{\r... */\n    tag_68:\n        /* \"contracts/FakeProdId.sol\":4035:4062  Retailer memory newRetailer */\n      tag_210\n      tag_211\n      jump\t// in\n    tag_210:\n        /* \"contracts/FakeProdId.sol\":4122:4126  name */\n      dup2\n        /* \"contracts/FakeProdId.sol\":4127:4142  block.timestamp */\n      timestamp\n        /* \"contracts/FakeProdId.sol\":4143:4159  block.difficulty */\n      difficulty\n        /* \"contracts/FakeProdId.sol\":4111:4160  abi.encode(name,block.timestamp,block.difficulty) */\n      add(0x20, mload(0x40))\n      tag_212\n      swap4\n      swap3\n      swap2\n      swap1\n      tag_96\n      jump\t// in\n    tag_212:\n      mload(0x40)\n      0x20\n      dup2\n      dup4\n      sub\n      sub\n      dup2\n      mstore\n      swap1\n      0x40\n      mstore\n        /* \"contracts/FakeProdId.sol\":4101:4161  keccak256(abi.encode(name,block.timestamp,block.difficulty)) */\n      dup1\n      mload\n      swap1\n      0x20\n      add\n      keccak256\n        /* \"contracts/FakeProdId.sol\":4096:4162  uint(keccak256(abi.encode(name,block.timestamp,block.difficulty))) */\n      0x00\n      shr\n        /* \"contracts/FakeProdId.sol\":4073:4084  newRetailer */\n      dup2\n        /* \"contracts/FakeProdId.sol\":4073:4095  newRetailer.retailerId */\n      0x00\n      add\n        /* \"contracts/FakeProdId.sol\":4073:4162  newRetailer.retailerId=uint(keccak256(abi.encode(name,block.timestamp,block.difficulty))) */\n      dup2\n      dup2\n      mstore\n      pop\n      pop\n        /* \"contracts/FakeProdId.sol\":4192:4196  name */\n      dup2\n        /* \"contracts/FakeProdId.sol\":4173:4184  newRetailer */\n      dup2\n        /* \"contracts/FakeProdId.sol\":4173:4189  newRetailer.name */\n      0x20\n      add\n        /* \"contracts/FakeProdId.sol\":4173:4196  newRetailer.name = name */\n      dup2\n      swap1\n      mstore\n      pop\n        /* \"contracts/FakeProdId.sol\":4244:4245  0 */\n      0x00\n        /* \"contracts/FakeProdId.sol\":4233:4246  new uint[](0) */\n      0xffffffffffffffff\n      dup2\n      gt\n      iszero\n      tag_213\n      jumpi\n      tag_214\n      tag_99\n      jump\t// in\n    tag_214:\n    tag_213:\n      mload(0x40)\n      swap1\n      dup1\n      dup3\n      mstore\n      dup1\n      0x20\n      mul\n      0x20\n      add\n      dup3\n      add\n      0x40\n      mstore\n      dup1\n      iszero\n      tag_215\n      jumpi\n      dup2\n      0x20\n      add\n      0x20\n      dup3\n      mul\n      dup1\n      calldatasize\n      dup4\n      calldatacopy\n      dup1\n      dup3\n      add\n      swap2\n      pop\n      pop\n      swap1\n      pop\n    tag_215:\n      pop\n        /* \"contracts/FakeProdId.sol\":4207:4218  newRetailer */\n      dup2\n        /* \"contracts/FakeProdId.sol\":4207:4230  newRetailer.productList */\n      0x40\n      add\n        /* \"contracts/FakeProdId.sol\":4207:4246  newRetailer.productList = new uint[](0) */\n      dup2\n      swap1\n      mstore\n      pop\n        /* \"contracts/FakeProdId.sol\":4293:4304  newRetailer */\n      dup1\n        /* \"contracts/FakeProdId.sol\":4257:4266  retailers */\n      0x06\n        /* \"contracts/FakeProdId.sol\":4257:4290  retailers[newRetailer.retailerId] */\n      0x00\n        /* \"contracts/FakeProdId.sol\":4267:4278  newRetailer */\n      dup4\n        /* \"contracts/FakeProdId.sol\":4267:4289  newRetailer.retailerId */\n      0x00\n      add\n      mload\n        /* \"contracts/FakeProdId.sol\":4257:4290  retailers[newRetailer.retailerId] */\n      dup2\n      mstore\n      0x20\n      add\n      swap1\n      dup2\n      mstore\n      0x20\n      add\n      0x00\n      keccak256\n        /* \"contracts/FakeProdId.sol\":4257:4304  retailers[newRetailer.retailerId] = newRetailer */\n      0x00\n      dup3\n      add\n      mload\n      dup2\n      0x00\n      add\n      sstore\n      0x20\n      dup3\n      add\n      mload\n      dup2\n      0x01\n      add\n      swap1\n      dup1\n      mload\n      swap1\n      0x20\n      add\n      swap1\n      tag_216\n      swap3\n      swap2\n      swap1\n      tag_102\n      jump\t// in\n    tag_216:\n      pop\n      0x40\n      dup3\n      add\n      mload\n      dup2\n      0x02\n      add\n      swap1\n      dup1\n      mload\n      swap1\n      0x20\n      add\n      swap1\n      tag_217\n      swap3\n      swap2\n      swap1\n      tag_105\n      jump\t// in\n    tag_217:\n      pop\n      swap1\n      pop\n      pop\n        /* \"contracts/FakeProdId.sol\":4320:4348  retailerDetails(newRetailer) */\n      0x3f3d80dc5c883417f8997fef692ba50e4f4f4762e620926e80d9aed3b08b89d0\n        /* \"contracts/FakeProdId.sol\":4336:4347  newRetailer */\n      dup2\n        /* \"contracts/FakeProdId.sol\":4320:4348  retailerDetails(newRetailer) */\n      mload(0x40)\n      tag_218\n      swap2\n      swap1\n      tag_83\n      jump\t// in\n    tag_218:\n      mload(0x40)\n      dup1\n      swap2\n      sub\n      swap1\n      log1\n        /* \"contracts/FakeProdId.sol\":4024:4356  {\r... */\n      pop\n        /* \"contracts/FakeProdId.sol\":3977:4356  function addRetailer(string memory name) public{\r... */\n      pop\n      jump\t// out\n        /* \"contracts/FakeProdId.sol\":2041:2158  function getProduct(uint productId) public view returns (Product memory){\r... */\n    tag_71:\n        /* \"contracts/FakeProdId.sol\":2098:2112  Product memory */\n      tag_219\n      tag_179\n      jump\t// in\n    tag_219:\n        /* \"contracts/FakeProdId.sol\":2131:2139  products */\n      0x01\n        /* \"contracts/FakeProdId.sol\":2131:2150  products[productId] */\n      0x00\n        /* \"contracts/FakeProdId.sol\":2140:2149  productId */\n      dup4\n        /* \"contracts/FakeProdId.sol\":2131:2150  products[productId] */\n      dup2\n      mstore\n      0x20\n      add\n      swap1\n      dup2\n      mstore\n      0x20\n      add\n      0x00\n      keccak256\n        /* \"contracts/FakeProdId.sol\":2124:2150  return products[productId] */\n      mload(0x40)\n      dup1\n      0xc0\n      add\n      0x40\n      mstore\n      swap1\n      dup2\n      0x00\n      dup3\n      add\n      sload\n      dup2\n      mstore\n      0x20\n      add\n      0x01\n      dup3\n      add\n      dup1\n      sload\n      tag_221\n      swap1\n      tag_111\n      jump\t// in\n    tag_221:\n      dup1\n      0x1f\n      add\n      0x20\n      dup1\n      swap2\n      div\n      mul\n      0x20\n      add\n      mload(0x40)\n      swap1\n      dup2\n      add\n      0x40\n      mstore\n      dup1\n      swap3\n      swap2\n      swap1\n      dup2\n      dup2\n      mstore\n      0x20\n      add\n      dup3\n      dup1\n      sload\n      tag_222\n      swap1\n      tag_111\n      jump\t// in\n    tag_222:\n      dup1\n      iszero\n      tag_223\n      jumpi\n      dup1\n      0x1f\n      lt\n      tag_224\n      jumpi\n      0x0100\n      dup1\n      dup4\n      sload\n      div\n      mul\n      dup4\n      mstore\n      swap2\n      0x20\n      add\n      swap2\n      jump(tag_223)\n    tag_224:\n      dup3\n      add\n      swap2\n      swap1\n      0x00\n      mstore\n      keccak256(0x00, 0x20)\n      swap1\n    tag_225:\n      dup2\n      sload\n      dup2\n      mstore\n      swap1\n      0x01\n      add\n      swap1\n      0x20\n      add\n      dup1\n      dup4\n      gt\n      tag_225\n      jumpi\n      dup3\n      swap1\n      sub\n      0x1f\n      and\n      dup3\n      add\n      swap2\n    tag_223:\n      pop\n      pop\n      pop\n      pop\n      pop\n      dup2\n      mstore\n      0x20\n      add\n      0x02\n      dup3\n      add\n      sload\n      dup2\n      mstore\n      0x20\n      add\n      0x03\n      dup3\n      add\n      dup1\n      sload\n      tag_226\n      swap1\n      tag_111\n      jump\t// in\n    tag_226:\n      dup1\n      0x1f\n      add\n      0x20\n      dup1\n      swap2\n      div\n      mul\n      0x20\n      add\n      mload(0x40)\n      swap1\n      dup2\n      add\n      0x40\n      mstore\n      dup1\n      swap3\n      swap2\n      swap1\n      dup2\n      dup2\n      mstore\n      0x20\n      add\n      dup3\n      dup1\n      sload\n      tag_227\n      swap1\n      tag_111\n      jump\t// in\n    tag_227:\n      dup1\n      iszero\n      tag_228\n      jumpi\n      dup1\n      0x1f\n      lt\n      tag_229\n      jumpi\n      0x0100\n      dup1\n      dup4\n      sload\n      div\n      mul\n      dup4\n      mstore\n      swap2\n      0x20\n      add\n      swap2\n      jump(tag_228)\n    tag_229:\n      dup3\n      add\n      swap2\n      swap1\n      0x00\n      mstore\n      keccak256(0x00, 0x20)\n      swap1\n    tag_230:\n      dup2\n      sload\n      dup2\n      mstore\n      swap1\n      0x01\n      add\n      swap1\n      0x20\n      add\n      dup1\n      dup4\n      gt\n      tag_230\n      jumpi\n      dup3\n      swap1\n      sub\n      0x1f\n      and\n      dup3\n      add\n      swap2\n    tag_228:\n      pop\n      pop\n      pop\n      pop\n      pop\n      dup2\n      mstore\n      0x20\n      add\n      0x04\n      dup3\n      add\n      dup1\n      sload\n      tag_231\n      swap1\n      tag_111\n      jump\t// in\n    tag_231:\n      dup1\n      0x1f\n      add\n      0x20\n      dup1\n      swap2\n      div\n      mul\n      0x20\n      add\n      mload(0x40)\n      swap1\n      dup2\n      add\n      0x40\n      mstore\n      dup1\n      swap3\n      swap2\n      swap1\n      dup2\n      dup2\n      mstore\n      0x20\n      add\n      dup3\n      dup1\n      sload\n      tag_232\n      swap1\n      tag_111\n      jump\t// in\n    tag_232:\n      dup1\n      iszero\n      tag_233\n      jumpi\n      dup1\n      0x1f\n      lt\n      tag_234\n      jumpi\n      0x0100\n      dup1\n      dup4\n      sload\n      div\n      mul\n      dup4\n      mstore\n      swap2\n      0x20\n      add\n      swap2\n      jump(tag_233)\n    tag_234:\n      dup3\n      add\n      swap2\n      swap1\n      0x00\n      mstore\n      keccak256(0x00, 0x20)\n      swap1\n    tag_235:\n      dup2\n      sload\n      dup2\n      mstore\n      swap1\n      0x01\n      add\n      swap1\n      0x20\n      add\n      dup1\n      dup4\n      gt\n      tag_235\n      jumpi\n      dup3\n      swap1\n      sub\n      0x1f\n      and\n      dup3\n      add\n      swap2\n    tag_233:\n      pop\n      pop\n      pop\n      pop\n      pop\n      dup2\n      mstore\n      0x20\n      add\n      0x05\n      dup3\n      add\n      sload\n      dup2\n      mstore\n      pop\n      pop\n      swap1\n      pop\n        /* \"contracts/FakeProdId.sol\":2041:2158  function getProduct(uint productId) public view returns (Product memory){\r... */\n      swap2\n      swap1\n      pop\n      jump\t// out\n        /* \"contracts/FakeProdId.sol\":3201:3350  function getmanufacturerDetails(uint manufacturerId) public view returns (Manufacturer memory){\r... */\n    tag_76:\n        /* \"contracts/FakeProdId.sol\":3275:3294  Manufacturer memory */\n      tag_236\n      tag_190\n      jump\t// in\n    tag_236:\n        /* \"contracts/FakeProdId.sol\":3313:3326  manufacturers */\n      0x04\n        /* \"contracts/FakeProdId.sol\":3313:3342  manufacturers[manufacturerId] */\n      0x00\n        /* \"contracts/FakeProdId.sol\":3327:3341  manufacturerId */\n      dup4\n        /* \"contracts/FakeProdId.sol\":3313:3342  manufacturers[manufacturerId] */\n      dup2\n      mstore\n      0x20\n      add\n      swap1\n      dup2\n      mstore\n      0x20\n      add\n      0x00\n      keccak256\n        /* \"contracts/FakeProdId.sol\":3306:3342  return manufacturers[manufacturerId] */\n      mload(0x40)\n      dup1\n      0x80\n      add\n      0x40\n      mstore\n      swap1\n      dup2\n      0x00\n      dup3\n      add\n      sload\n      dup2\n      mstore\n      0x20\n      add\n      0x01\n      dup3\n      add\n      dup1\n      sload\n      tag_238\n      swap1\n      tag_111\n      jump\t// in\n    tag_238:\n      dup1\n      0x1f\n      add\n      0x20\n      dup1\n      swap2\n      div\n      mul\n      0x20\n      add\n      mload(0x40)\n      swap1\n      dup2\n      add\n      0x40\n      mstore\n      dup1\n      swap3\n      swap2\n      swap1\n      dup2\n      dup2\n      mstore\n      0x20\n      add\n      dup3\n      dup1\n      sload\n      tag_239\n      swap1\n      tag_111\n      jump\t// in\n    tag_239:\n      dup1\n      iszero\n      tag_240\n      jumpi\n      dup1\n      0x1f\n      lt\n      tag_241\n      jumpi\n      0x0100\n      dup1\n      dup4\n      sload\n      div\n      mul\n      dup4\n      mstore\n      swap2\n      0x20\n      add\n      swap2\n      jump(tag_240)\n    tag_241:\n      dup3\n      add\n      swap2\n      swap1\n      0x00\n      mstore\n      keccak256(0x00, 0x20)\n      swap1\n    tag_242:\n      dup2\n      sload\n      dup2\n      mstore\n      swap1\n      0x01\n      add\n      swap1\n      0x20\n      add\n      dup1\n      dup4\n      gt\n      tag_242\n      jumpi\n      dup3\n      swap1\n      sub\n      0x1f\n      and\n      dup3\n      add\n      swap2\n    tag_240:\n      pop\n      pop\n      pop\n      pop\n      pop\n      dup2\n      mstore\n      0x20\n      add\n      0x02\n      dup3\n      add\n      dup1\n      sload\n      tag_243\n      swap1\n      tag_111\n      jump\t// in\n    tag_243:\n      dup1\n      0x1f\n      add\n      0x20\n      dup1\n      swap2\n      div\n      mul\n      0x20\n      add\n      mload(0x40)\n      swap1\n      dup2\n      add\n      0x40\n      mstore\n      dup1\n      swap3\n      swap2\n      swap1\n      dup2\n      dup2\n      mstore\n      0x20\n      add\n      dup3\n      dup1\n      sload\n      tag_244\n      swap1\n      tag_111\n      jump\t// in\n    tag_244:\n      dup1\n      iszero\n      tag_245\n      jumpi\n      dup1\n      0x1f\n      lt\n      tag_246\n      jumpi\n      0x0100\n      dup1\n      dup4\n      sload\n      div\n      mul\n      dup4\n      mstore\n      swap2\n      0x20\n      add\n      swap2\n      jump(tag_245)\n    tag_246:\n      dup3\n      add\n      swap2\n      swap1\n      0x00\n      mstore\n      keccak256(0x00, 0x20)\n      swap1\n    tag_247:\n      dup2\n      sload\n      dup2\n      mstore\n      swap1\n      0x01\n      add\n      swap1\n      0x20\n      add\n      dup1\n      dup4\n      gt\n      tag_247\n      jumpi\n      dup3\n      swap1\n      sub\n      0x1f\n      and\n      dup3\n      add\n      swap2\n    tag_245:\n      pop\n      pop\n      pop\n      pop\n      pop\n      dup2\n      mstore\n      0x20\n      add\n      0x03\n      dup3\n      add\n      dup1\n      sload\n      dup1\n      0x20\n      mul\n      0x20\n      add\n      mload(0x40)\n      swap1\n      dup2\n      add\n      0x40\n      mstore\n      dup1\n      swap3\n      swap2\n      swap1\n      dup2\n      dup2\n      mstore\n      0x20\n      add\n      dup3\n      dup1\n      sload\n      dup1\n      iszero\n      tag_248\n      jumpi\n      0x20\n      mul\n      dup3\n      add\n      swap2\n      swap1\n      0x00\n      mstore\n      keccak256(0x00, 0x20)\n      swap1\n    tag_249:\n      dup2\n      sload\n      dup2\n      mstore\n      0x20\n      add\n      swap1\n      0x01\n      add\n      swap1\n      dup1\n      dup4\n      gt\n      tag_249\n      jumpi\n    tag_248:\n      pop\n      pop\n      pop\n      pop\n      pop\n      dup2\n      mstore\n      pop\n      pop\n      swap1\n      pop\n        /* \"contracts/FakeProdId.sol\":3201:3350  function getmanufacturerDetails(uint manufacturerId) public view returns (Manufacturer memory){\r... */\n      swap2\n      swap1\n      pop\n      jump\t// out\n        /* \"contracts/FakeProdId.sol\":4364:4493  function getretailerDetails(uint retailerId) public view returns (Retailer memory){\r... */\n    tag_81:\n        /* \"contracts/FakeProdId.sol\":4430:4445  Retailer memory */\n      tag_250\n      tag_211\n      jump\t// in\n    tag_250:\n        /* \"contracts/FakeProdId.sol\":4464:4473  retailers */\n      0x06\n        /* \"contracts/FakeProdId.sol\":4464:4485  retailers[retailerId] */\n      0x00\n        /* \"contracts/FakeProdId.sol\":4474:4484  retailerId */\n      dup4\n        /* \"contracts/FakeProdId.sol\":4464:4485  retailers[retailerId] */\n      dup2\n      mstore\n      0x20\n      add\n      swap1\n      dup2\n      mstore\n      0x20\n      add\n      0x00\n      keccak256\n        /* \"contracts/FakeProdId.sol\":4457:4485  return retailers[retailerId] */\n      mload(0x40)\n      dup1\n      0x60\n      add\n      0x40\n      mstore\n      swap1\n      dup2\n      0x00\n      dup3\n      add\n      sload\n      dup2\n      mstore\n      0x20\n      add\n      0x01\n      dup3\n      add\n      dup1\n      sload\n      tag_252\n      swap1\n      tag_111\n      jump\t// in\n    tag_252:\n      dup1\n      0x1f\n      add\n      0x20\n      dup1\n      swap2\n      div\n      mul\n      0x20\n      add\n      mload(0x40)\n      swap1\n      dup2\n      add\n      0x40\n      mstore\n      dup1\n      swap3\n      swap2\n      swap1\n      dup2\n      dup2\n      mstore\n      0x20\n      add\n      dup3\n      dup1\n      sload\n      tag_253\n      swap1\n      tag_111\n      jump\t// in\n    tag_253:\n      dup1\n      iszero\n      tag_254\n      jumpi\n      dup1\n      0x1f\n      lt\n      tag_255\n      jumpi\n      0x0100\n      dup1\n      dup4\n      sload\n      div\n      mul\n      dup4\n      mstore\n      swap2\n      0x20\n      add\n      swap2\n      jump(tag_254)\n    tag_255:\n      dup3\n      add\n      swap2\n      swap1\n      0x00\n      mstore\n      keccak256(0x00, 0x20)\n      swap1\n    tag_256:\n      dup2\n      sload\n      dup2\n      mstore\n      swap1\n      0x01\n      add\n      swap1\n      0x20\n      add\n      dup1\n      dup4\n      gt\n      tag_256\n      jumpi\n      dup3\n      swap1\n      sub\n      0x1f\n      and\n      dup3\n      add\n      swap2\n    tag_254:\n      pop\n      pop\n      pop\n      pop\n      pop\n      dup2\n      mstore\n      0x20\n      add\n      0x02\n      dup3\n      add\n      dup1\n      sload\n      dup1\n      0x20\n      mul\n      0x20\n      add\n      mload(0x40)\n      swap1\n      dup2\n      add\n      0x40\n      mstore\n      dup1\n      swap3\n      swap2\n      swap1\n      dup2\n      dup2\n      mstore\n      0x20\n      add\n      dup3\n      dup1\n      sload\n      dup1\n      iszero\n      tag_257\n      jumpi\n      0x20\n      mul\n      dup3\n      add\n      swap2\n      swap1\n      0x00\n      mstore\n      keccak256(0x00, 0x20)\n      swap1\n    tag_258:\n      dup2\n      sload\n      dup2\n      mstore\n      0x20\n      add\n      swap1\n      0x01\n      add\n      swap1\n      dup1\n      dup4\n      gt\n      tag_258\n      jumpi\n    tag_257:\n      pop\n      pop\n      pop\n      pop\n      pop\n      dup2\n      mstore\n      pop\n      pop\n      swap1\n      pop\n        /* \"contracts/FakeProdId.sol\":4364:4493  function getretailerDetails(uint retailerId) public view returns (Retailer memory){\r... */\n      swap2\n      swap1\n      pop\n      jump\t// out\n        /* \"contracts/FakeProdId.sol\":1279:1321  mapping(uint => Supplier) public suppliers */\n    tag_86:\n      mstore(0x20, 0x03)\n      dup1\n      0x00\n      mstore\n      keccak256(0x00, 0x40)\n      0x00\n      swap2\n      pop\n      swap1\n      pop\n      dup1\n      0x00\n      add\n      sload\n      swap1\n      dup1\n      0x01\n      add\n      dup1\n      sload\n      tag_259\n      swap1\n      tag_111\n      jump\t// in\n    tag_259:\n      dup1\n      0x1f\n      add\n      0x20\n      dup1\n      swap2\n      div\n      mul\n      0x20\n      add\n      mload(0x40)\n      swap1\n      dup2\n      add\n      0x40\n      mstore\n      dup1\n      swap3\n      swap2\n      swap1\n      dup2\n      dup2\n      mstore\n      0x20\n      add\n      dup3\n      dup1\n      sload\n      tag_260\n      swap1\n      tag_111\n      jump\t// in\n    tag_260:\n      dup1\n      iszero\n      tag_261\n      jumpi\n      dup1\n      0x1f\n      lt\n      tag_262\n      jumpi\n      0x0100\n      dup1\n      dup4\n      sload\n      div\n      mul\n      dup4\n      mstore\n      swap2\n      0x20\n      add\n      swap2\n      jump(tag_261)\n    tag_262:\n      dup3\n      add\n      swap2\n      swap1\n      0x00\n      mstore\n      keccak256(0x00, 0x20)\n      swap1\n    tag_263:\n      dup2\n      sload\n      dup2\n      mstore\n      swap1\n      0x01\n      add\n      swap1\n      0x20\n      add\n      dup1\n      dup4\n      gt\n      tag_263\n      jumpi\n      dup3\n      swap1\n      sub\n      0x1f\n      and\n      dup3\n      add\n      swap2\n    tag_261:\n      pop\n      pop\n      pop\n      pop\n      pop\n      swap1\n      dup1\n      0x02\n      add\n      dup1\n      sload\n      tag_264\n      swap1\n      tag_111\n      jump\t// in\n    tag_264:\n      dup1\n      0x1f\n      add\n      0x20\n      dup1\n      swap2\n      div\n      mul\n      0x20\n      add\n      mload(0x40)\n      swap1\n      dup2\n      add\n      0x40\n      mstore\n      dup1\n      swap3\n      swap2\n      swap1\n      dup2\n      dup2\n      mstore\n      0x20\n      add\n      dup3\n      dup1\n      sload\n      tag_265\n      swap1\n      tag_111\n      jump\t// in\n    tag_265:\n      dup1\n      iszero\n      tag_266\n      jumpi\n      dup1\n      0x1f\n      lt\n      tag_267\n      jumpi\n      0x0100\n      dup1\n      dup4\n      sload\n      div\n      mul\n      dup4\n      mstore\n      swap2\n      0x20\n      add\n      swap2\n      jump(tag_266)\n    tag_267:\n      dup3\n      add\n      swap2\n      swap1\n      0x00\n      mstore\n      keccak256(0x00, 0x20)\n      swap1\n    tag_268:\n      dup2\n      sload\n      dup2\n      mstore\n      swap1\n      0x01\n      add\n      swap1\n      0x20\n      add\n      dup1\n      dup4\n      gt\n      tag_268\n      jumpi\n      dup3\n      swap1\n      sub\n      0x1f\n      and\n      dup3\n      add\n      swap2\n    tag_266:\n      pop\n      pop\n      pop\n      pop\n      pop\n      swap1\n      pop\n      dup4\n      jump\t// out\n        /* \"contracts/FakeProdId.sol\":4501:4590  function transferOwnership(uint ProductId,uint curOwnerId,uint newOwnerId) public{\r... */\n    tag_91:\n      pop\n      pop\n      pop\n      jump\t// out\n    tag_94:\n      mload(0x40)\n      dup1\n      0x80\n      add\n      0x40\n      mstore\n      dup1\n      0x00\n      dup2\n      mstore\n      0x20\n      add\n      0x60\n      dup2\n      mstore\n      0x20\n      add\n      0x60\n      dup2\n      mstore\n      0x20\n      add\n      0x60\n      dup2\n      mstore\n      pop\n      swap1\n      jump\t// out\n    tag_102:\n      dup3\n      dup1\n      sload\n      tag_270\n      swap1\n      tag_111\n      jump\t// in\n    tag_270:\n      swap1\n      0x00\n      mstore\n      keccak256(0x00, 0x20)\n      swap1\n      0x1f\n      add\n      0x20\n      swap1\n      div\n      dup2\n      add\n      swap3\n      dup3\n      tag_272\n      jumpi\n      0x00\n      dup6\n      sstore\n      jump(tag_271)\n    tag_272:\n      dup3\n      0x1f\n      lt\n      tag_273\n      jumpi\n      dup1\n      mload\n      not(0xff)\n      and\n      dup4\n      dup1\n      add\n      or\n      dup6\n      sstore\n      jump(tag_271)\n    tag_273:\n      dup3\n      dup1\n      add\n      0x01\n      add\n      dup6\n      sstore\n      dup3\n      iszero\n      tag_271\n      jumpi\n      swap2\n      dup3\n      add\n    tag_274:\n      dup3\n      dup2\n      gt\n      iszero\n      tag_275\n      jumpi\n      dup3\n      mload\n      dup3\n      sstore\n      swap2\n      0x20\n      add\n      swap2\n      swap1\n      0x01\n      add\n      swap1\n      jump(tag_274)\n    tag_275:\n    tag_271:\n      pop\n      swap1\n      pop\n      tag_276\n      swap2\n      swap1\n      tag_277\n      jump\t// in\n    tag_276:\n      pop\n      swap1\n      jump\t// out\n    tag_105:\n      dup3\n      dup1\n      sload\n      dup3\n      dup3\n      sstore\n      swap1\n      0x00\n      mstore\n      keccak256(0x00, 0x20)\n      swap1\n      dup2\n      add\n      swap3\n      dup3\n      iszero\n      tag_278\n      jumpi\n      swap2\n      0x20\n      mul\n      dup3\n      add\n    tag_279:\n      dup3\n      dup2\n      gt\n      iszero\n      tag_280\n      jumpi\n      dup3\n      mload\n      dup3\n      sstore\n      swap2\n      0x20\n      add\n      swap2\n      swap1\n      0x01\n      add\n      swap1\n      jump(tag_279)\n    tag_280:\n    tag_278:\n      pop\n      swap1\n      pop\n      tag_281\n      swap2\n      swap1\n      tag_277\n      jump\t// in\n    tag_281:\n      pop\n      swap1\n      jump\t// out\n    tag_108:\n      mload(0x40)\n      dup1\n      0x80\n      add\n      0x40\n      mstore\n      dup1\n      0x00\n      dup2\n      mstore\n      0x20\n      add\n      0x60\n      dup2\n      mstore\n      0x20\n      add\n      0x60\n      dup2\n      mstore\n      0x20\n      add\n      0x60\n      dup2\n      mstore\n      pop\n      swap1\n      jump\t// out\n    tag_179:\n      mload(0x40)\n      dup1\n      0xc0\n      add\n      0x40\n      mstore\n      dup1\n      0x00\n      dup2\n      mstore\n      0x20\n      add\n      0x60\n      dup2\n      mstore\n      0x20\n      add\n      0x00\n      dup2\n      mstore\n      0x20\n      add\n      0x60\n      dup2\n      mstore\n      0x20\n      add\n      0x60\n      dup2\n      mstore\n      0x20\n      add\n      0x00\n      dup2\n      mstore\n      pop\n      swap1\n      jump\t// out\n    tag_190:\n      mload(0x40)\n      dup1\n      0x80\n      add\n      0x40\n      mstore\n      dup1\n      0x00\n      dup2\n      mstore\n      0x20\n      add\n      0x60\n      dup2\n      mstore\n      0x20\n      add\n      0x60\n      dup2\n      mstore\n      0x20\n      add\n      0x60\n      dup2\n      mstore\n      pop\n      swap1\n      jump\t// out\n    tag_211:\n      mload(0x40)\n      dup1\n      0x60\n      add\n      0x40\n      mstore\n      dup1\n      0x00\n      dup2\n      mstore\n      0x20\n      add\n      0x60\n      dup2\n      mstore\n      0x20\n      add\n      0x60\n      dup2\n      mstore\n      pop\n      swap1\n      jump\t// out\n    tag_277:\n    tag_282:\n      dup1\n      dup3\n      gt\n      iszero\n      tag_283\n      jumpi\n      0x00\n      dup2\n      0x00\n      swap1\n      sstore\n      pop\n      0x01\n      add\n      jump(tag_282)\n    tag_283:\n      pop\n      swap1\n      jump\t// out\n        /* \"#utility.yul\":7:419   */\n    tag_285:\n        /* \"#utility.yul\":85:90   */\n      0x00\n        /* \"#utility.yul\":110:176   */\n      tag_287\n        /* \"#utility.yul\":126:175   */\n      tag_288\n        /* \"#utility.yul\":168:174   */\n      dup5\n        /* \"#utility.yul\":126:175   */\n      tag_289\n      jump\t// in\n    tag_288:\n        /* \"#utility.yul\":110:176   */\n      tag_290\n      jump\t// in\n    tag_287:\n        /* \"#utility.yul\":101:176   */\n      swap1\n      pop\n        /* \"#utility.yul\":199:205   */\n      dup3\n        /* \"#utility.yul\":192:197   */\n      dup2\n        /* \"#utility.yul\":185:206   */\n      mstore\n        /* \"#utility.yul\":237:241   */\n      0x20\n        /* \"#utility.yul\":230:235   */\n      dup2\n        /* \"#utility.yul\":226:242   */\n      add\n        /* \"#utility.yul\":275:278   */\n      dup5\n        /* \"#utility.yul\":266:272   */\n      dup5\n        /* \"#utility.yul\":261:264   */\n      dup5\n        /* \"#utility.yul\":257:273   */\n      add\n        /* \"#utility.yul\":254:279   */\n      gt\n        /* \"#utility.yul\":251:363   */\n      iszero\n      tag_291\n      jumpi\n        /* \"#utility.yul\":282:361   */\n      tag_292\n      tag_293\n      jump\t// in\n    tag_292:\n        /* \"#utility.yul\":251:363   */\n    tag_291:\n        /* \"#utility.yul\":372:413   */\n      tag_294\n        /* \"#utility.yul\":406:412   */\n      dup5\n        /* \"#utility.yul\":401:404   */\n      dup3\n        /* \"#utility.yul\":396:399   */\n      dup6\n        /* \"#utility.yul\":372:413   */\n      tag_295\n      jump\t// in\n    tag_294:\n        /* \"#utility.yul\":91:419   */\n      pop\n        /* \"#utility.yul\":7:419   */\n      swap4\n      swap3\n      pop\n      pop\n      pop\n      jump\t// out\n        /* \"#utility.yul\":439:779   */\n    tag_296:\n        /* \"#utility.yul\":495:500   */\n      0x00\n        /* \"#utility.yul\":544:547   */\n      dup3\n        /* \"#utility.yul\":537:541   */\n      0x1f\n        /* \"#utility.yul\":529:535   */\n      dup4\n        /* \"#utility.yul\":525:542   */\n      add\n        /* \"#utility.yul\":521:548   */\n      slt\n        /* \"#utility.yul\":511:633   */\n      tag_298\n      jumpi\n        /* \"#utility.yul\":552:631   */\n      tag_299\n      tag_300\n      jump\t// in\n    tag_299:\n        /* \"#utility.yul\":511:633   */\n    tag_298:\n        /* \"#utility.yul\":669:675   */\n      dup2\n        /* \"#utility.yul\":656:676   */\n      calldataload\n        /* \"#utility.yul\":694:773   */\n      tag_301\n        /* \"#utility.yul\":769:772   */\n      dup5\n        /* \"#utility.yul\":761:767   */\n      dup3\n        /* \"#utility.yul\":754:758   */\n      0x20\n        /* \"#utility.yul\":746:752   */\n      dup7\n        /* \"#utility.yul\":742:759   */\n      add\n        /* \"#utility.yul\":694:773   */\n      tag_285\n      jump\t// in\n    tag_301:\n        /* \"#utility.yul\":685:773   */\n      swap2\n      pop\n        /* \"#utility.yul\":501:779   */\n      pop\n        /* \"#utility.yul\":439:779   */\n      swap3\n      swap2\n      pop\n      pop\n      jump\t// out\n        /* \"#utility.yul\":785:924   */\n    tag_302:\n        /* \"#utility.yul\":831:836   */\n      0x00\n        /* \"#utility.yul\":869:875   */\n      dup2\n        /* \"#utility.yul\":856:876   */\n      calldataload\n        /* \"#utility.yul\":847:876   */\n      swap1\n      pop\n        /* \"#utility.yul\":885:918   */\n      tag_304\n        /* \"#utility.yul\":912:917   */\n      dup2\n        /* \"#utility.yul\":885:918   */\n      tag_305\n      jump\t// in\n    tag_304:\n        /* \"#utility.yul\":785:924   */\n      swap3\n      swap2\n      pop\n      pop\n      jump\t// out\n        /* \"#utility.yul\":930:1439   */\n    tag_24:\n        /* \"#utility.yul\":999:1005   */\n      0x00\n        /* \"#utility.yul\":1048:1050   */\n      0x20\n        /* \"#utility.yul\":1036:1045   */\n      dup3\n        /* \"#utility.yul\":1027:1034   */\n      dup5\n        /* \"#utility.yul\":1023:1046   */\n      sub\n        /* \"#utility.yul\":1019:1051   */\n      slt\n        /* \"#utility.yul\":1016:1135   */\n      iszero\n      tag_307\n      jumpi\n        /* \"#utility.yul\":1054:1133   */\n      tag_308\n      tag_309\n      jump\t// in\n    tag_308:\n        /* \"#utility.yul\":1016:1135   */\n    tag_307:\n        /* \"#utility.yul\":1202:1203   */\n      0x00\n        /* \"#utility.yul\":1191:1200   */\n      dup3\n        /* \"#utility.yul\":1187:1204   */\n      add\n        /* \"#utility.yul\":1174:1205   */\n      calldataload\n        /* \"#utility.yul\":1232:1250   */\n      0xffffffffffffffff\n        /* \"#utility.yul\":1224:1230   */\n      dup2\n        /* \"#utility.yul\":1221:1251   */\n      gt\n        /* \"#utility.yul\":1218:1335   */\n      iszero\n      tag_310\n      jumpi\n        /* \"#utility.yul\":1254:1333   */\n      tag_311\n      tag_312\n      jump\t// in\n    tag_311:\n        /* \"#utility.yul\":1218:1335   */\n    tag_310:\n        /* \"#utility.yul\":1359:1422   */\n      tag_313\n        /* \"#utility.yul\":1414:1421   */\n      dup5\n        /* \"#utility.yul\":1405:1411   */\n      dup3\n        /* \"#utility.yul\":1394:1403   */\n      dup6\n        /* \"#utility.yul\":1390:1412   */\n      add\n        /* \"#utility.yul\":1359:1422   */\n      tag_296\n      jump\t// in\n    tag_313:\n        /* \"#utility.yul\":1349:1422   */\n      swap2\n      pop\n        /* \"#utility.yul\":1145:1432   */\n      pop\n        /* \"#utility.yul\":930:1439   */\n      swap3\n      swap2\n      pop\n      pop\n      jump\t// out\n        /* \"#utility.yul\":1445:2424   */\n    tag_57:\n        /* \"#utility.yul\":1542:1548   */\n      0x00\n        /* \"#utility.yul\":1550:1556   */\n      dup1\n        /* \"#utility.yul\":1558:1564   */\n      0x00\n        /* \"#utility.yul\":1607:1609   */\n      0x60\n        /* \"#utility.yul\":1595:1604   */\n      dup5\n        /* \"#utility.yul\":1586:1593   */\n      dup7\n        /* \"#utility.yul\":1582:1605   */\n      sub\n        /* \"#utility.yul\":1578:1610   */\n      slt\n        /* \"#utility.yul\":1575:1694   */\n      iszero\n      tag_315\n      jumpi\n        /* \"#utility.yul\":1613:1692   */\n      tag_316\n      tag_309\n      jump\t// in\n    tag_316:\n        /* \"#utility.yul\":1575:1694   */\n    tag_315:\n        /* \"#utility.yul\":1761:1762   */\n      0x00\n        /* \"#utility.yul\":1750:1759   */\n      dup5\n        /* \"#utility.yul\":1746:1763   */\n      add\n        /* \"#utility.yul\":1733:1764   */\n      calldataload\n        /* \"#utility.yul\":1791:1809   */\n      0xffffffffffffffff\n        /* \"#utility.yul\":1783:1789   */\n      dup2\n        /* \"#utility.yul\":1780:1810   */\n      gt\n        /* \"#utility.yul\":1777:1894   */\n      iszero\n      tag_317\n      jumpi\n        /* \"#utility.yul\":1813:1892   */\n      tag_318\n      tag_312\n      jump\t// in\n    tag_318:\n        /* \"#utility.yul\":1777:1894   */\n    tag_317:\n        /* \"#utility.yul\":1918:1981   */\n      tag_319\n        /* \"#utility.yul\":1973:1980   */\n      dup7\n        /* \"#utility.yul\":1964:1970   */\n      dup3\n        /* \"#utility.yul\":1953:1962   */\n      dup8\n        /* \"#utility.yul\":1949:1971   */\n      add\n        /* \"#utility.yul\":1918:1981   */\n      tag_296\n      jump\t// in\n    tag_319:\n        /* \"#utility.yul\":1908:1981   */\n      swap4\n      pop\n        /* \"#utility.yul\":1704:1991   */\n      pop\n        /* \"#utility.yul\":2030:2032   */\n      0x20\n        /* \"#utility.yul\":2056:2109   */\n      tag_320\n        /* \"#utility.yul\":2101:2108   */\n      dup7\n        /* \"#utility.yul\":2092:2098   */\n      dup3\n        /* \"#utility.yul\":2081:2090   */\n      dup8\n        /* \"#utility.yul\":2077:2099   */\n      add\n        /* \"#utility.yul\":2056:2109   */\n      tag_302\n      jump\t// in\n    tag_320:\n        /* \"#utility.yul\":2046:2109   */\n      swap3\n      pop\n        /* \"#utility.yul\":2001:2119   */\n      pop\n        /* \"#utility.yul\":2186:2188   */\n      0x40\n        /* \"#utility.yul\":2175:2184   */\n      dup5\n        /* \"#utility.yul\":2171:2189   */\n      add\n        /* \"#utility.yul\":2158:2190   */\n      calldataload\n        /* \"#utility.yul\":2217:2235   */\n      0xffffffffffffffff\n        /* \"#utility.yul\":2209:2215   */\n      dup2\n        /* \"#utility.yul\":2206:2236   */\n      gt\n        /* \"#utility.yul\":2203:2320   */\n      iszero\n      tag_321\n      jumpi\n        /* \"#utility.yul\":2239:2318   */\n      tag_322\n      tag_312\n      jump\t// in\n    tag_322:\n        /* \"#utility.yul\":2203:2320   */\n    tag_321:\n        /* \"#utility.yul\":2344:2407   */\n      tag_323\n        /* \"#utility.yul\":2399:2406   */\n      dup7\n        /* \"#utility.yul\":2390:2396   */\n      dup3\n        /* \"#utility.yul\":2379:2388   */\n      dup8\n        /* \"#utility.yul\":2375:2397   */\n      add\n        /* \"#utility.yul\":2344:2407   */\n      tag_296\n      jump\t// in\n    tag_323:\n        /* \"#utility.yul\":2334:2407   */\n      swap2\n      pop\n        /* \"#utility.yul\":2129:2417   */\n      pop\n        /* \"#utility.yul\":1445:2424   */\n      swap3\n      pop\n      swap3\n      pop\n      swap3\n      jump\t// out\n        /* \"#utility.yul\":2430:2759   */\n    tag_28:\n        /* \"#utility.yul\":2489:2495   */\n      0x00\n        /* \"#utility.yul\":2538:2540   */\n      0x20\n        /* \"#utility.yul\":2526:2535   */\n      dup3\n        /* \"#utility.yul\":2517:2524   */\n      dup5\n        /* \"#utility.yul\":2513:2536   */\n      sub\n        /* \"#utility.yul\":2509:2541   */\n      slt\n        /* \"#utility.yul\":2506:2625   */\n      iszero\n      tag_325\n      jumpi\n        /* \"#utility.yul\":2544:2623   */\n      tag_326\n      tag_309\n      jump\t// in\n    tag_326:\n        /* \"#utility.yul\":2506:2625   */\n    tag_325:\n        /* \"#utility.yul\":2664:2665   */\n      0x00\n        /* \"#utility.yul\":2689:2742   */\n      tag_327\n        /* \"#utility.yul\":2734:2741   */\n      dup5\n        /* \"#utility.yul\":2725:2731   */\n      dup3\n        /* \"#utility.yul\":2714:2723   */\n      dup6\n        /* \"#utility.yul\":2710:2732   */\n      add\n        /* \"#utility.yul\":2689:2742   */\n      tag_302\n      jump\t// in\n    tag_327:\n        /* \"#utility.yul\":2679:2742   */\n      swap2\n      pop\n        /* \"#utility.yul\":2635:2752   */\n      pop\n        /* \"#utility.yul\":2430:2759   */\n      swap3\n      swap2\n      pop\n      pop\n      jump\t// out\n        /* \"#utility.yul\":2765:3384   */\n    tag_90:\n        /* \"#utility.yul\":2842:2848   */\n      0x00\n        /* \"#utility.yul\":2850:2856   */\n      dup1\n        /* \"#utility.yul\":2858:2864   */\n      0x00\n        /* \"#utility.yul\":2907:2909   */\n      0x60\n        /* \"#utility.yul\":2895:2904   */\n      dup5\n        /* \"#utility.yul\":2886:2893   */\n      dup7\n        /* \"#utility.yul\":2882:2905   */\n      sub\n        /* \"#utility.yul\":2878:2910   */\n      slt\n        /* \"#utility.yul\":2875:2994   */\n      iszero\n      tag_329\n      jumpi\n        /* \"#utility.yul\":2913:2992   */\n      tag_330\n      tag_309\n      jump\t// in\n    tag_330:\n        /* \"#utility.yul\":2875:2994   */\n    tag_329:\n        /* \"#utility.yul\":3033:3034   */\n      0x00\n        /* \"#utility.yul\":3058:3111   */\n      tag_331\n        /* \"#utility.yul\":3103:3110   */\n      dup7\n        /* \"#utility.yul\":3094:3100   */\n      dup3\n        /* \"#utility.yul\":3083:3092   */\n      dup8\n        /* \"#utility.yul\":3079:3101   */\n      add\n        /* \"#utility.yul\":3058:3111   */\n      tag_302\n      jump\t// in\n    tag_331:\n        /* \"#utility.yul\":3048:3111   */\n      swap4\n      pop\n        /* \"#utility.yul\":3004:3121   */\n      pop\n        /* \"#utility.yul\":3160:3162   */\n      0x20\n        /* \"#utility.yul\":3186:3239   */\n      tag_332\n        /* \"#utility.yul\":3231:3238   */\n      dup7\n        /* \"#utility.yul\":3222:3228   */\n      dup3\n        /* \"#utility.yul\":3211:3220   */\n      dup8\n        /* \"#utility.yul\":3207:3229   */\n      add\n        /* \"#utility.yul\":3186:3239   */\n      tag_302\n      jump\t// in\n    tag_332:\n        /* \"#utility.yul\":3176:3239   */\n      swap3\n      pop\n        /* \"#utility.yul\":3131:3249   */\n      pop\n        /* \"#utility.yul\":3288:3290   */\n      0x40\n        /* \"#utility.yul\":3314:3367   */\n      tag_333\n        /* \"#utility.yul\":3359:3366   */\n      dup7\n        /* \"#utility.yul\":3350:3356   */\n      dup3\n        /* \"#utility.yul\":3339:3348   */\n      dup8\n        /* \"#utility.yul\":3335:3357   */\n      add\n        /* \"#utility.yul\":3314:3367   */\n      tag_302\n      jump\t// in\n    tag_333:\n        /* \"#utility.yul\":3304:3367   */\n      swap2\n      pop\n        /* \"#utility.yul\":3259:3377   */\n      pop\n        /* \"#utility.yul\":2765:3384   */\n      swap3\n      pop\n      swap3\n      pop\n      swap3\n      jump\t// out\n        /* \"#utility.yul\":3390:3569   */\n    tag_334:\n        /* \"#utility.yul\":3459:3469   */\n      0x00\n        /* \"#utility.yul\":3480:3526   */\n      tag_336\n        /* \"#utility.yul\":3522:3525   */\n      dup4\n        /* \"#utility.yul\":3514:3520   */\n      dup4\n        /* \"#utility.yul\":3480:3526   */\n      tag_337\n      jump\t// in\n    tag_336:\n        /* \"#utility.yul\":3558:3562   */\n      0x20\n        /* \"#utility.yul\":3553:3556   */\n      dup4\n        /* \"#utility.yul\":3549:3563   */\n      add\n        /* \"#utility.yul\":3535:3563   */\n      swap1\n      pop\n        /* \"#utility.yul\":3390:3569   */\n      swap3\n      swap2\n      pop\n      pop\n      jump\t// out\n        /* \"#utility.yul\":3605:4317   */\n    tag_338:\n        /* \"#utility.yul\":3714:3717   */\n      0x00\n        /* \"#utility.yul\":3743:3797   */\n      tag_340\n        /* \"#utility.yul\":3791:3796   */\n      dup3\n        /* \"#utility.yul\":3743:3797   */\n      tag_341\n      jump\t// in\n    tag_340:\n        /* \"#utility.yul\":3813:3889   */\n      tag_342\n        /* \"#utility.yul\":3882:3888   */\n      dup2\n        /* \"#utility.yul\":3877:3880   */\n      dup6\n        /* \"#utility.yul\":3813:3889   */\n      tag_343\n      jump\t// in\n    tag_342:\n        /* \"#utility.yul\":3806:3889   */\n      swap4\n      pop\n        /* \"#utility.yul\":3913:3969   */\n      tag_344\n        /* \"#utility.yul\":3963:3968   */\n      dup4\n        /* \"#utility.yul\":3913:3969   */\n      tag_345\n      jump\t// in\n    tag_344:\n        /* \"#utility.yul\":3992:3999   */\n      dup1\n        /* \"#utility.yul\":4023:4024   */\n      0x00\n        /* \"#utility.yul\":4008:4292   */\n    tag_346:\n        /* \"#utility.yul\":4033:4039   */\n      dup4\n        /* \"#utility.yul\":4030:4031   */\n      dup2\n        /* \"#utility.yul\":4027:4040   */\n      lt\n        /* \"#utility.yul\":4008:4292   */\n      iszero\n      tag_348\n      jumpi\n        /* \"#utility.yul\":4109:4115   */\n      dup2\n        /* \"#utility.yul\":4103:4116   */\n      mload\n        /* \"#utility.yul\":4136:4199   */\n      tag_349\n        /* \"#utility.yul\":4195:4198   */\n      dup9\n        /* \"#utility.yul\":4180:4193   */\n      dup3\n        /* \"#utility.yul\":4136:4199   */\n      tag_334\n      jump\t// in\n    tag_349:\n        /* \"#utility.yul\":4129:4199   */\n      swap8\n      pop\n        /* \"#utility.yul\":4222:4282   */\n      tag_350\n        /* \"#utility.yul\":4275:4281   */\n      dup4\n        /* \"#utility.yul\":4222:4282   */\n      tag_351\n      jump\t// in\n    tag_350:\n        /* \"#utility.yul\":4212:4282   */\n      swap3\n      pop\n        /* \"#utility.yul\":4068:4292   */\n      pop\n        /* \"#utility.yul\":4055:4056   */\n      0x01\n        /* \"#utility.yul\":4052:4053   */\n      dup2\n        /* \"#utility.yul\":4048:4057   */\n      add\n        /* \"#utility.yul\":4043:4057   */\n      swap1\n      pop\n        /* \"#utility.yul\":4008:4292   */\n      jump(tag_346)\n    tag_348:\n        /* \"#utility.yul\":4012:4026   */\n      pop\n        /* \"#utility.yul\":4308:4311   */\n      dup6\n        /* \"#utility.yul\":4301:4311   */\n      swap4\n      pop\n        /* \"#utility.yul\":3719:4317   */\n      pop\n      pop\n      pop\n        /* \"#utility.yul\":3605:4317   */\n      swap3\n      swap2\n      pop\n      pop\n      jump\t// out\n        /* \"#utility.yul\":4323:4667   */\n    tag_352:\n        /* \"#utility.yul\":4401:4404   */\n      0x00\n        /* \"#utility.yul\":4429:4468   */\n      tag_354\n        /* \"#utility.yul\":4462:4467   */\n      dup3\n        /* \"#utility.yul\":4429:4468   */\n      tag_355\n      jump\t// in\n    tag_354:\n        /* \"#utility.yul\":4484:4545   */\n      tag_356\n        /* \"#utility.yul\":4538:4544   */\n      dup2\n        /* \"#utility.yul\":4533:4536   */\n      dup6\n        /* \"#utility.yul\":4484:4545   */\n      tag_357\n      jump\t// in\n    tag_356:\n        /* \"#utility.yul\":4477:4545   */\n      swap4\n      pop\n        /* \"#utility.yul\":4554:4606   */\n      tag_358\n        /* \"#utility.yul\":4599:4605   */\n      dup2\n        /* \"#utility.yul\":4594:4597   */\n      dup6\n        /* \"#utility.yul\":4587:4591   */\n      0x20\n        /* \"#utility.yul\":4580:4585   */\n      dup7\n        /* \"#utility.yul\":4576:4592   */\n      add\n        /* \"#utility.yul\":4554:4606   */\n      tag_359\n      jump\t// in\n    tag_358:\n        /* \"#utility.yul\":4631:4660   */\n      tag_360\n        /* \"#utility.yul\":4653:4659   */\n      dup2\n        /* \"#utility.yul\":4631:4660   */\n      tag_361\n      jump\t// in\n    tag_360:\n        /* \"#utility.yul\":4626:4629   */\n      dup5\n        /* \"#utility.yul\":4622:4661   */\n      add\n        /* \"#utility.yul\":4615:4661   */\n      swap2\n      pop\n        /* \"#utility.yul\":4405:4667   */\n      pop\n        /* \"#utility.yul\":4323:4667   */\n      swap3\n      swap2\n      pop\n      pop\n      jump\t// out\n        /* \"#utility.yul\":4673:5037   */\n    tag_362:\n        /* \"#utility.yul\":4761:4764   */\n      0x00\n        /* \"#utility.yul\":4789:4828   */\n      tag_364\n        /* \"#utility.yul\":4822:4827   */\n      dup3\n        /* \"#utility.yul\":4789:4828   */\n      tag_355\n      jump\t// in\n    tag_364:\n        /* \"#utility.yul\":4844:4915   */\n      tag_365\n        /* \"#utility.yul\":4908:4914   */\n      dup2\n        /* \"#utility.yul\":4903:4906   */\n      dup6\n        /* \"#utility.yul\":4844:4915   */\n      tag_366\n      jump\t// in\n    tag_365:\n        /* \"#utility.yul\":4837:4915   */\n      swap4\n      pop\n        /* \"#utility.yul\":4924:4976   */\n      tag_367\n        /* \"#utility.yul\":4969:4975   */\n      dup2\n        /* \"#utility.yul\":4964:4967   */\n      dup6\n        /* \"#utility.yul\":4957:4961   */\n      0x20\n        /* \"#utility.yul\":4950:4955   */\n      dup7\n        /* \"#utility.yul\":4946:4962   */\n      add\n        /* \"#utility.yul\":4924:4976   */\n      tag_359\n      jump\t// in\n    tag_367:\n        /* \"#utility.yul\":5001:5030   */\n      tag_368\n        /* \"#utility.yul\":5023:5029   */\n      dup2\n        /* \"#utility.yul\":5001:5030   */\n      tag_361\n      jump\t// in\n    tag_368:\n        /* \"#utility.yul\":4996:4999   */\n      dup5\n        /* \"#utility.yul\":4992:5031   */\n      add\n        /* \"#utility.yul\":4985:5031   */\n      swap2\n      pop\n        /* \"#utility.yul\":4765:5037   */\n      pop\n        /* \"#utility.yul\":4673:5037   */\n      swap3\n      swap2\n      pop\n      pop\n      jump\t// out\n        /* \"#utility.yul\":5113:6259   */\n    tag_369:\n        /* \"#utility.yul\":5236:5239   */\n      0x00\n        /* \"#utility.yul\":5272:5276   */\n      0x80\n        /* \"#utility.yul\":5267:5270   */\n      dup4\n        /* \"#utility.yul\":5263:5277   */\n      add\n        /* \"#utility.yul\":5368:5372   */\n      0x00\n        /* \"#utility.yul\":5361:5366   */\n      dup4\n        /* \"#utility.yul\":5357:5373   */\n      add\n        /* \"#utility.yul\":5351:5374   */\n      mload\n        /* \"#utility.yul\":5387:5450   */\n      tag_371\n        /* \"#utility.yul\":5444:5448   */\n      0x00\n        /* \"#utility.yul\":5439:5442   */\n      dup7\n        /* \"#utility.yul\":5435:5449   */\n      add\n        /* \"#utility.yul\":5421:5433   */\n      dup3\n        /* \"#utility.yul\":5387:5450   */\n      tag_337\n      jump\t// in\n    tag_371:\n        /* \"#utility.yul\":5287:5460   */\n      pop\n        /* \"#utility.yul\":5542:5546   */\n      0x20\n        /* \"#utility.yul\":5535:5540   */\n      dup4\n        /* \"#utility.yul\":5531:5547   */\n      add\n        /* \"#utility.yul\":5525:5548   */\n      mload\n        /* \"#utility.yul\":5595:5598   */\n      dup5\n        /* \"#utility.yul\":5589:5593   */\n      dup3\n        /* \"#utility.yul\":5585:5599   */\n      sub\n        /* \"#utility.yul\":5578:5582   */\n      0x20\n        /* \"#utility.yul\":5573:5576   */\n      dup7\n        /* \"#utility.yul\":5569:5583   */\n      add\n        /* \"#utility.yul\":5562:5600   */\n      mstore\n        /* \"#utility.yul\":5621:5694   */\n      tag_372\n        /* \"#utility.yul\":5689:5693   */\n      dup3\n        /* \"#utility.yul\":5675:5687   */\n      dup3\n        /* \"#utility.yul\":5621:5694   */\n      tag_352\n      jump\t// in\n    tag_372:\n        /* \"#utility.yul\":5613:5694   */\n      swap2\n      pop\n        /* \"#utility.yul\":5470:5705   */\n      pop\n        /* \"#utility.yul\":5787:5791   */\n      0x40\n        /* \"#utility.yul\":5780:5785   */\n      dup4\n        /* \"#utility.yul\":5776:5792   */\n      add\n        /* \"#utility.yul\":5770:5793   */\n      mload\n        /* \"#utility.yul\":5840:5843   */\n      dup5\n        /* \"#utility.yul\":5834:5838   */\n      dup3\n        /* \"#utility.yul\":5830:5844   */\n      sub\n        /* \"#utility.yul\":5823:5827   */\n      0x40\n        /* \"#utility.yul\":5818:5821   */\n      dup7\n        /* \"#utility.yul\":5814:5828   */\n      add\n        /* \"#utility.yul\":5807:5845   */\n      mstore\n        /* \"#utility.yul\":5866:5939   */\n      tag_373\n        /* \"#utility.yul\":5934:5938   */\n      dup3\n        /* \"#utility.yul\":5920:5932   */\n      dup3\n        /* \"#utility.yul\":5866:5939   */\n      tag_352\n      jump\t// in\n    tag_373:\n        /* \"#utility.yul\":5858:5939   */\n      swap2\n      pop\n        /* \"#utility.yul\":5715:5950   */\n      pop\n        /* \"#utility.yul\":6039:6043   */\n      0x60\n        /* \"#utility.yul\":6032:6037   */\n      dup4\n        /* \"#utility.yul\":6028:6044   */\n      add\n        /* \"#utility.yul\":6022:6045   */\n      mload\n        /* \"#utility.yul\":6092:6095   */\n      dup5\n        /* \"#utility.yul\":6086:6090   */\n      dup3\n        /* \"#utility.yul\":6082:6096   */\n      sub\n        /* \"#utility.yul\":6075:6079   */\n      0x60\n        /* \"#utility.yul\":6070:6073   */\n      dup7\n        /* \"#utility.yul\":6066:6080   */\n      add\n        /* \"#utility.yul\":6059:6097   */\n      mstore\n        /* \"#utility.yul\":6118:6221   */\n      tag_374\n        /* \"#utility.yul\":6216:6220   */\n      dup3\n        /* \"#utility.yul\":6202:6214   */\n      dup3\n        /* \"#utility.yul\":6118:6221   */\n      tag_338\n      jump\t// in\n    tag_374:\n        /* \"#utility.yul\":6110:6221   */\n      swap2\n      pop\n        /* \"#utility.yul\":5960:6232   */\n      pop\n        /* \"#utility.yul\":6249:6253   */\n      dup1\n        /* \"#utility.yul\":6242:6253   */\n      swap2\n      pop\n        /* \"#utility.yul\":5241:6259   */\n      pop\n        /* \"#utility.yul\":5113:6259   */\n      swap3\n      swap2\n      pop\n      pop\n      jump\t// out\n        /* \"#utility.yul\":6337:7486   */\n    tag_375:\n        /* \"#utility.yul\":6462:6465   */\n      0x00\n        /* \"#utility.yul\":6498:6502   */\n      0x80\n        /* \"#utility.yul\":6493:6496   */\n      dup4\n        /* \"#utility.yul\":6489:6503   */\n      add\n        /* \"#utility.yul\":6595:6599   */\n      0x00\n        /* \"#utility.yul\":6588:6593   */\n      dup4\n        /* \"#utility.yul\":6584:6600   */\n      add\n        /* \"#utility.yul\":6578:6601   */\n      mload\n        /* \"#utility.yul\":6614:6677   */\n      tag_377\n        /* \"#utility.yul\":6671:6675   */\n      0x00\n        /* \"#utility.yul\":6666:6669   */\n      dup7\n        /* \"#utility.yul\":6662:6676   */\n      add\n        /* \"#utility.yul\":6648:6660   */\n      dup3\n        /* \"#utility.yul\":6614:6677   */\n      tag_337\n      jump\t// in\n    tag_377:\n        /* \"#utility.yul\":6513:6687   */\n      pop\n        /* \"#utility.yul\":6769:6773   */\n      0x20\n        /* \"#utility.yul\":6762:6767   */\n      dup4\n        /* \"#utility.yul\":6758:6774   */\n      add\n        /* \"#utility.yul\":6752:6775   */\n      mload\n        /* \"#utility.yul\":6822:6825   */\n      dup5\n        /* \"#utility.yul\":6816:6820   */\n      dup3\n        /* \"#utility.yul\":6812:6826   */\n      sub\n        /* \"#utility.yul\":6805:6809   */\n      0x20\n        /* \"#utility.yul\":6800:6803   */\n      dup7\n        /* \"#utility.yul\":6796:6810   */\n      add\n        /* \"#utility.yul\":6789:6827   */\n      mstore\n        /* \"#utility.yul\":6848:6921   */\n      tag_378\n        /* \"#utility.yul\":6916:6920   */\n      dup3\n        /* \"#utility.yul\":6902:6914   */\n      dup3\n        /* \"#utility.yul\":6848:6921   */\n      tag_352\n      jump\t// in\n    tag_378:\n        /* \"#utility.yul\":6840:6921   */\n      swap2\n      pop\n        /* \"#utility.yul\":6697:6932   */\n      pop\n        /* \"#utility.yul\":7014:7018   */\n      0x40\n        /* \"#utility.yul\":7007:7012   */\n      dup4\n        /* \"#utility.yul\":7003:7019   */\n      add\n        /* \"#utility.yul\":6997:7020   */\n      mload\n        /* \"#utility.yul\":7067:7070   */\n      dup5\n        /* \"#utility.yul\":7061:7065   */\n      dup3\n        /* \"#utility.yul\":7057:7071   */\n      sub\n        /* \"#utility.yul\":7050:7054   */\n      0x40\n        /* \"#utility.yul\":7045:7048   */\n      dup7\n        /* \"#utility.yul\":7041:7055   */\n      add\n        /* \"#utility.yul\":7034:7072   */\n      mstore\n        /* \"#utility.yul\":7093:7166   */\n      tag_379\n        /* \"#utility.yul\":7161:7165   */\n      dup3\n        /* \"#utility.yul\":7147:7159   */\n      dup3\n        /* \"#utility.yul\":7093:7166   */\n      tag_352\n      jump\t// in\n    tag_379:\n        /* \"#utility.yul\":7085:7166   */\n      swap2\n      pop\n        /* \"#utility.yul\":6942:7177   */\n      pop\n        /* \"#utility.yul\":7266:7270   */\n      0x60\n        /* \"#utility.yul\":7259:7264   */\n      dup4\n        /* \"#utility.yul\":7255:7271   */\n      add\n        /* \"#utility.yul\":7249:7272   */\n      mload\n        /* \"#utility.yul\":7319:7322   */\n      dup5\n        /* \"#utility.yul\":7313:7317   */\n      dup3\n        /* \"#utility.yul\":7309:7323   */\n      sub\n        /* \"#utility.yul\":7302:7306   */\n      0x60\n        /* \"#utility.yul\":7297:7300   */\n      dup7\n        /* \"#utility.yul\":7293:7307   */\n      add\n        /* \"#utility.yul\":7286:7324   */\n      mstore\n        /* \"#utility.yul\":7345:7448   */\n      tag_380\n        /* \"#utility.yul\":7443:7447   */\n      dup3\n        /* \"#utility.yul\":7429:7441   */\n      dup3\n        /* \"#utility.yul\":7345:7448   */\n      tag_338\n      jump\t// in\n    tag_380:\n        /* \"#utility.yul\":7337:7448   */\n      swap2\n      pop\n        /* \"#utility.yul\":7187:7459   */\n      pop\n        /* \"#utility.yul\":7476:7480   */\n      dup1\n        /* \"#utility.yul\":7469:7480   */\n      swap2\n      pop\n        /* \"#utility.yul\":6467:7486   */\n      pop\n        /* \"#utility.yul\":6337:7486   */\n      swap3\n      swap2\n      pop\n      pop\n      jump\t// out\n        /* \"#utility.yul\":7554:9017   */\n    tag_381:\n        /* \"#utility.yul\":7669:7672   */\n      0x00\n        /* \"#utility.yul\":7705:7709   */\n      0xc0\n        /* \"#utility.yul\":7700:7703   */\n      dup4\n        /* \"#utility.yul\":7696:7710   */\n      add\n        /* \"#utility.yul\":7797:7801   */\n      0x00\n        /* \"#utility.yul\":7790:7795   */\n      dup4\n        /* \"#utility.yul\":7786:7802   */\n      add\n        /* \"#utility.yul\":7780:7803   */\n      mload\n        /* \"#utility.yul\":7816:7879   */\n      tag_383\n        /* \"#utility.yul\":7873:7877   */\n      0x00\n        /* \"#utility.yul\":7868:7871   */\n      dup7\n        /* \"#utility.yul\":7864:7878   */\n      add\n        /* \"#utility.yul\":7850:7862   */\n      dup3\n        /* \"#utility.yul\":7816:7879   */\n      tag_337\n      jump\t// in\n    tag_383:\n        /* \"#utility.yul\":7720:7889   */\n      pop\n        /* \"#utility.yul\":7971:7975   */\n      0x20\n        /* \"#utility.yul\":7964:7969   */\n      dup4\n        /* \"#utility.yul\":7960:7976   */\n      add\n        /* \"#utility.yul\":7954:7977   */\n      mload\n        /* \"#utility.yul\":8024:8027   */\n      dup5\n        /* \"#utility.yul\":8018:8022   */\n      dup3\n        /* \"#utility.yul\":8014:8028   */\n      sub\n        /* \"#utility.yul\":8007:8011   */\n      0x20\n        /* \"#utility.yul\":8002:8005   */\n      dup7\n        /* \"#utility.yul\":7998:8012   */\n      add\n        /* \"#utility.yul\":7991:8029   */\n      mstore\n        /* \"#utility.yul\":8050:8123   */\n      tag_384\n        /* \"#utility.yul\":8118:8122   */\n      dup3\n        /* \"#utility.yul\":8104:8116   */\n      dup3\n        /* \"#utility.yul\":8050:8123   */\n      tag_352\n      jump\t// in\n    tag_384:\n        /* \"#utility.yul\":8042:8123   */\n      swap2\n      pop\n        /* \"#utility.yul\":7899:8134   */\n      pop\n        /* \"#utility.yul\":8217:8221   */\n      0x40\n        /* \"#utility.yul\":8210:8215   */\n      dup4\n        /* \"#utility.yul\":8206:8222   */\n      add\n        /* \"#utility.yul\":8200:8223   */\n      mload\n        /* \"#utility.yul\":8236:8299   */\n      tag_385\n        /* \"#utility.yul\":8293:8297   */\n      0x40\n        /* \"#utility.yul\":8288:8291   */\n      dup7\n        /* \"#utility.yul\":8284:8298   */\n      add\n        /* \"#utility.yul\":8270:8282   */\n      dup3\n        /* \"#utility.yul\":8236:8299   */\n      tag_337\n      jump\t// in\n    tag_385:\n        /* \"#utility.yul\":8144:8309   */\n      pop\n        /* \"#utility.yul\":8398:8402   */\n      0x60\n        /* \"#utility.yul\":8391:8396   */\n      dup4\n        /* \"#utility.yul\":8387:8403   */\n      add\n        /* \"#utility.yul\":8381:8404   */\n      mload\n        /* \"#utility.yul\":8451:8454   */\n      dup5\n        /* \"#utility.yul\":8445:8449   */\n      dup3\n        /* \"#utility.yul\":8441:8455   */\n      sub\n        /* \"#utility.yul\":8434:8438   */\n      0x60\n        /* \"#utility.yul\":8429:8432   */\n      dup7\n        /* \"#utility.yul\":8425:8439   */\n      add\n        /* \"#utility.yul\":8418:8456   */\n      mstore\n        /* \"#utility.yul\":8477:8550   */\n      tag_386\n        /* \"#utility.yul\":8545:8549   */\n      dup3\n        /* \"#utility.yul\":8531:8543   */\n      dup3\n        /* \"#utility.yul\":8477:8550   */\n      tag_352\n      jump\t// in\n    tag_386:\n        /* \"#utility.yul\":8469:8550   */\n      swap2\n      pop\n        /* \"#utility.yul\":8319:8561   */\n      pop\n        /* \"#utility.yul\":8647:8651   */\n      0x80\n        /* \"#utility.yul\":8640:8645   */\n      dup4\n        /* \"#utility.yul\":8636:8652   */\n      add\n        /* \"#utility.yul\":8630:8653   */\n      mload\n        /* \"#utility.yul\":8700:8703   */\n      dup5\n        /* \"#utility.yul\":8694:8698   */\n      dup3\n        /* \"#utility.yul\":8690:8704   */\n      sub\n        /* \"#utility.yul\":8683:8687   */\n      0x80\n        /* \"#utility.yul\":8678:8681   */\n      dup7\n        /* \"#utility.yul\":8674:8688   */\n      add\n        /* \"#utility.yul\":8667:8705   */\n      mstore\n        /* \"#utility.yul\":8726:8799   */\n      tag_387\n        /* \"#utility.yul\":8794:8798   */\n      dup3\n        /* \"#utility.yul\":8780:8792   */\n      dup3\n        /* \"#utility.yul\":8726:8799   */\n      tag_352\n      jump\t// in\n    tag_387:\n        /* \"#utility.yul\":8718:8799   */\n      swap2\n      pop\n        /* \"#utility.yul\":8571:8810   */\n      pop\n        /* \"#utility.yul\":8898:8902   */\n      0xa0\n        /* \"#utility.yul\":8891:8896   */\n      dup4\n        /* \"#utility.yul\":8887:8903   */\n      add\n        /* \"#utility.yul\":8881:8904   */\n      mload\n        /* \"#utility.yul\":8917:8980   */\n      tag_388\n        /* \"#utility.yul\":8974:8978   */\n      0xa0\n        /* \"#utility.yul\":8969:8972   */\n      dup7\n        /* \"#utility.yul\":8965:8979   */\n      add\n        /* \"#utility.yul\":8951:8963   */\n      dup3\n        /* \"#utility.yul\":8917:8980   */\n      tag_337\n      jump\t// in\n    tag_388:\n        /* \"#utility.yul\":8820:8990   */\n      pop\n        /* \"#utility.yul\":9007:9011   */\n      dup1\n        /* \"#utility.yul\":9000:9011   */\n      swap2\n      pop\n        /* \"#utility.yul\":7674:9017   */\n      pop\n        /* \"#utility.yul\":7554:9017   */\n      swap3\n      swap2\n      pop\n      pop\n      jump\t// out\n        /* \"#utility.yul\":9087:9979   */\n    tag_389:\n        /* \"#utility.yul\":9204:9207   */\n      0x00\n        /* \"#utility.yul\":9240:9244   */\n      0x60\n        /* \"#utility.yul\":9235:9238   */\n      dup4\n        /* \"#utility.yul\":9231:9245   */\n      add\n        /* \"#utility.yul\":9333:9337   */\n      0x00\n        /* \"#utility.yul\":9326:9331   */\n      dup4\n        /* \"#utility.yul\":9322:9338   */\n      add\n        /* \"#utility.yul\":9316:9339   */\n      mload\n        /* \"#utility.yul\":9352:9415   */\n      tag_391\n        /* \"#utility.yul\":9409:9413   */\n      0x00\n        /* \"#utility.yul\":9404:9407   */\n      dup7\n        /* \"#utility.yul\":9400:9414   */\n      add\n        /* \"#utility.yul\":9386:9398   */\n      dup3\n        /* \"#utility.yul\":9352:9415   */\n      tag_337\n      jump\t// in\n    tag_391:\n        /* \"#utility.yul\":9255:9425   */\n      pop\n        /* \"#utility.yul\":9507:9511   */\n      0x20\n        /* \"#utility.yul\":9500:9505   */\n      dup4\n        /* \"#utility.yul\":9496:9512   */\n      add\n        /* \"#utility.yul\":9490:9513   */\n      mload\n        /* \"#utility.yul\":9560:9563   */\n      dup5\n        /* \"#utility.yul\":9554:9558   */\n      dup3\n        /* \"#utility.yul\":9550:9564   */\n      sub\n        /* \"#utility.yul\":9543:9547   */\n      0x20\n        /* \"#utility.yul\":9538:9541   */\n      dup7\n        /* \"#utility.yul\":9534:9548   */\n      add\n        /* \"#utility.yul\":9527:9565   */\n      mstore\n        /* \"#utility.yul\":9586:9659   */\n      tag_392\n        /* \"#utility.yul\":9654:9658   */\n      dup3\n        /* \"#utility.yul\":9640:9652   */\n      dup3\n        /* \"#utility.yul\":9586:9659   */\n      tag_352\n      jump\t// in\n    tag_392:\n        /* \"#utility.yul\":9578:9659   */\n      swap2\n      pop\n        /* \"#utility.yul\":9435:9670   */\n      pop\n        /* \"#utility.yul\":9759:9763   */\n      0x40\n        /* \"#utility.yul\":9752:9757   */\n      dup4\n        /* \"#utility.yul\":9748:9764   */\n      add\n        /* \"#utility.yul\":9742:9765   */\n      mload\n        /* \"#utility.yul\":9812:9815   */\n      dup5\n        /* \"#utility.yul\":9806:9810   */\n      dup3\n        /* \"#utility.yul\":9802:9816   */\n      sub\n        /* \"#utility.yul\":9795:9799   */\n      0x40\n        /* \"#utility.yul\":9790:9793   */\n      dup7\n        /* \"#utility.yul\":9786:9800   */\n      add\n        /* \"#utility.yul\":9779:9817   */\n      mstore\n        /* \"#utility.yul\":9838:9941   */\n      tag_393\n        /* \"#utility.yul\":9936:9940   */\n      dup3\n        /* \"#utility.yul\":9922:9934   */\n      dup3\n        /* \"#utility.yul\":9838:9941   */\n      tag_338\n      jump\t// in\n    tag_393:\n        /* \"#utility.yul\":9830:9941   */\n      swap2\n      pop\n        /* \"#utility.yul\":9680:9952   */\n      pop\n        /* \"#utility.yul\":9969:9973   */\n      dup1\n        /* \"#utility.yul\":9962:9973   */\n      swap2\n      pop\n        /* \"#utility.yul\":9209:9979   */\n      pop\n        /* \"#utility.yul\":9087:9979   */\n      swap3\n      swap2\n      pop\n      pop\n      jump\t// out\n        /* \"#utility.yul\":10049:11186   */\n    tag_394:\n        /* \"#utility.yul\":10166:10169   */\n      0x00\n        /* \"#utility.yul\":10202:10206   */\n      0x80\n        /* \"#utility.yul\":10197:10200   */\n      dup4\n        /* \"#utility.yul\":10193:10207   */\n      add\n        /* \"#utility.yul\":10295:10299   */\n      0x00\n        /* \"#utility.yul\":10288:10293   */\n      dup4\n        /* \"#utility.yul\":10284:10300   */\n      add\n        /* \"#utility.yul\":10278:10301   */\n      mload\n        /* \"#utility.yul\":10314:10377   */\n      tag_396\n        /* \"#utility.yul\":10371:10375   */\n      0x00\n        /* \"#utility.yul\":10366:10369   */\n      dup7\n        /* \"#utility.yul\":10362:10376   */\n      add\n        /* \"#utility.yul\":10348:10360   */\n      dup3\n        /* \"#utility.yul\":10314:10377   */\n      tag_337\n      jump\t// in\n    tag_396:\n        /* \"#utility.yul\":10217:10387   */\n      pop\n        /* \"#utility.yul\":10469:10473   */\n      0x20\n        /* \"#utility.yul\":10462:10467   */\n      dup4\n        /* \"#utility.yul\":10458:10474   */\n      add\n        /* \"#utility.yul\":10452:10475   */\n      mload\n        /* \"#utility.yul\":10522:10525   */\n      dup5\n        /* \"#utility.yul\":10516:10520   */\n      dup3\n        /* \"#utility.yul\":10512:10526   */\n      sub\n        /* \"#utility.yul\":10505:10509   */\n      0x20\n        /* \"#utility.yul\":10500:10503   */\n      dup7\n        /* \"#utility.yul\":10496:10510   */\n      add\n        /* \"#utility.yul\":10489:10527   */\n      mstore\n        /* \"#utility.yul\":10548:10621   */\n      tag_397\n        /* \"#utility.yul\":10616:10620   */\n      dup3\n        /* \"#utility.yul\":10602:10614   */\n      dup3\n        /* \"#utility.yul\":10548:10621   */\n      tag_352\n      jump\t// in\n    tag_397:\n        /* \"#utility.yul\":10540:10621   */\n      swap2\n      pop\n        /* \"#utility.yul\":10397:10632   */\n      pop\n        /* \"#utility.yul\":10714:10718   */\n      0x40\n        /* \"#utility.yul\":10707:10712   */\n      dup4\n        /* \"#utility.yul\":10703:10719   */\n      add\n        /* \"#utility.yul\":10697:10720   */\n      mload\n        /* \"#utility.yul\":10767:10770   */\n      dup5\n        /* \"#utility.yul\":10761:10765   */\n      dup3\n        /* \"#utility.yul\":10757:10771   */\n      sub\n        /* \"#utility.yul\":10750:10754   */\n      0x40\n        /* \"#utility.yul\":10745:10748   */\n      dup7\n        /* \"#utility.yul\":10741:10755   */\n      add\n        /* \"#utility.yul\":10734:10772   */\n      mstore\n        /* \"#utility.yul\":10793:10866   */\n      tag_398\n        /* \"#utility.yul\":10861:10865   */\n      dup3\n        /* \"#utility.yul\":10847:10859   */\n      dup3\n        /* \"#utility.yul\":10793:10866   */\n      tag_352\n      jump\t// in\n    tag_398:\n        /* \"#utility.yul\":10785:10866   */\n      swap2\n      pop\n        /* \"#utility.yul\":10642:10877   */\n      pop\n        /* \"#utility.yul\":10966:10970   */\n      0x60\n        /* \"#utility.yul\":10959:10964   */\n      dup4\n        /* \"#utility.yul\":10955:10971   */\n      add\n        /* \"#utility.yul\":10949:10972   */\n      mload\n        /* \"#utility.yul\":11019:11022   */\n      dup5\n        /* \"#utility.yul\":11013:11017   */\n      dup3\n        /* \"#utility.yul\":11009:11023   */\n      sub\n        /* \"#utility.yul\":11002:11006   */\n      0x60\n        /* \"#utility.yul\":10997:11000   */\n      dup7\n        /* \"#utility.yul\":10993:11007   */\n      add\n        /* \"#utility.yul\":10986:11024   */\n      mstore\n        /* \"#utility.yul\":11045:11148   */\n      tag_399\n        /* \"#utility.yul\":11143:11147   */\n      dup3\n        /* \"#utility.yul\":11129:11141   */\n      dup3\n        /* \"#utility.yul\":11045:11148   */\n      tag_338\n      jump\t// in\n    tag_399:\n        /* \"#utility.yul\":11037:11148   */\n      swap2\n      pop\n        /* \"#utility.yul\":10887:11159   */\n      pop\n        /* \"#utility.yul\":11176:11180   */\n      dup1\n        /* \"#utility.yul\":11169:11180   */\n      swap2\n      pop\n        /* \"#utility.yul\":10171:11186   */\n      pop\n        /* \"#utility.yul\":10049:11186   */\n      swap3\n      swap2\n      pop\n      pop\n      jump\t// out\n        /* \"#utility.yul\":11192:11300   */\n    tag_337:\n        /* \"#utility.yul\":11269:11293   */\n      tag_401\n        /* \"#utility.yul\":11287:11292   */\n      dup2\n        /* \"#utility.yul\":11269:11293   */\n      tag_402\n      jump\t// in\n    tag_401:\n        /* \"#utility.yul\":11264:11267   */\n      dup3\n        /* \"#utility.yul\":11257:11294   */\n      mstore\n        /* \"#utility.yul\":11192:11300   */\n      pop\n      pop\n      jump\t// out\n        /* \"#utility.yul\":11306:11424   */\n    tag_403:\n        /* \"#utility.yul\":11393:11417   */\n      tag_405\n        /* \"#utility.yul\":11411:11416   */\n      dup2\n        /* \"#utility.yul\":11393:11417   */\n      tag_402\n      jump\t// in\n    tag_405:\n        /* \"#utility.yul\":11388:11391   */\n      dup3\n        /* \"#utility.yul\":11381:11418   */\n      mstore\n        /* \"#utility.yul\":11306:11424   */\n      pop\n      pop\n      jump\t// out\n        /* \"#utility.yul\":11430:11963   */\n    tag_96:\n        /* \"#utility.yul\":11599:11603   */\n      0x00\n        /* \"#utility.yul\":11637:11639   */\n      0x60\n        /* \"#utility.yul\":11626:11635   */\n      dup3\n        /* \"#utility.yul\":11622:11640   */\n      add\n        /* \"#utility.yul\":11614:11640   */\n      swap1\n      pop\n        /* \"#utility.yul\":11686:11695   */\n      dup2\n        /* \"#utility.yul\":11680:11684   */\n      dup2\n        /* \"#utility.yul\":11676:11696   */\n      sub\n        /* \"#utility.yul\":11672:11673   */\n      0x00\n        /* \"#utility.yul\":11661:11670   */\n      dup4\n        /* \"#utility.yul\":11657:11674   */\n      add\n        /* \"#utility.yul\":11650:11697   */\n      mstore\n        /* \"#utility.yul\":11714:11792   */\n      tag_407\n        /* \"#utility.yul\":11787:11791   */\n      dup2\n        /* \"#utility.yul\":11778:11784   */\n      dup7\n        /* \"#utility.yul\":11714:11792   */\n      tag_362\n      jump\t// in\n    tag_407:\n        /* \"#utility.yul\":11706:11792   */\n      swap1\n      pop\n        /* \"#utility.yul\":11802:11874   */\n      tag_408\n        /* \"#utility.yul\":11870:11872   */\n      0x20\n        /* \"#utility.yul\":11859:11868   */\n      dup4\n        /* \"#utility.yul\":11855:11873   */\n      add\n        /* \"#utility.yul\":11846:11852   */\n      dup6\n        /* \"#utility.yul\":11802:11874   */\n      tag_403\n      jump\t// in\n    tag_408:\n        /* \"#utility.yul\":11884:11956   */\n      tag_409\n        /* \"#utility.yul\":11952:11954   */\n      0x40\n        /* \"#utility.yul\":11941:11950   */\n      dup4\n        /* \"#utility.yul\":11937:11955   */\n      add\n        /* \"#utility.yul\":11928:11934   */\n      dup5\n        /* \"#utility.yul\":11884:11956   */\n      tag_403\n      jump\t// in\n    tag_409:\n        /* \"#utility.yul\":11430:11963   */\n      swap5\n      swap4\n      pop\n      pop\n      pop\n      pop\n      jump\t// out\n        /* \"#utility.yul\":11969:12350   */\n    tag_31:\n        /* \"#utility.yul\":12116:12120   */\n      0x00\n        /* \"#utility.yul\":12154:12156   */\n      0x20\n        /* \"#utility.yul\":12143:12152   */\n      dup3\n        /* \"#utility.yul\":12139:12157   */\n      add\n        /* \"#utility.yul\":12131:12157   */\n      swap1\n      pop\n        /* \"#utility.yul\":12203:12212   */\n      dup2\n        /* \"#utility.yul\":12197:12201   */\n      dup2\n        /* \"#utility.yul\":12193:12213   */\n      sub\n        /* \"#utility.yul\":12189:12190   */\n      0x00\n        /* \"#utility.yul\":12178:12187   */\n      dup4\n        /* \"#utility.yul\":12174:12191   */\n      add\n        /* \"#utility.yul\":12167:12214   */\n      mstore\n        /* \"#utility.yul\":12231:12343   */\n      tag_411\n        /* \"#utility.yul\":12338:12342   */\n      dup2\n        /* \"#utility.yul\":12329:12335   */\n      dup5\n        /* \"#utility.yul\":12231:12343   */\n      tag_369\n      jump\t// in\n    tag_411:\n        /* \"#utility.yul\":12223:12343   */\n      swap1\n      pop\n        /* \"#utility.yul\":11969:12350   */\n      swap3\n      swap2\n      pop\n      pop\n      jump\t// out\n        /* \"#utility.yul\":12356:12741   */\n    tag_78:\n        /* \"#utility.yul\":12505:12509   */\n      0x00\n        /* \"#utility.yul\":12543:12545   */\n      0x20\n        /* \"#utility.yul\":12532:12541   */\n      dup3\n        /* \"#utility.yul\":12528:12546   */\n      add\n        /* \"#utility.yul\":12520:12546   */\n      swap1\n      pop\n        /* \"#utility.yul\":12592:12601   */\n      dup2\n        /* \"#utility.yul\":12586:12590   */\n      dup2\n        /* \"#utility.yul\":12582:12602   */\n      sub\n        /* \"#utility.yul\":12578:12579   */\n      0x00\n        /* \"#utility.yul\":12567:12576   */\n      dup4\n        /* \"#utility.yul\":12563:12580   */\n      add\n        /* \"#utility.yul\":12556:12603   */\n      mstore\n        /* \"#utility.yul\":12620:12734   */\n      tag_413\n        /* \"#utility.yul\":12729:12733   */\n      dup2\n        /* \"#utility.yul\":12720:12726   */\n      dup5\n        /* \"#utility.yul\":12620:12734   */\n      tag_375\n      jump\t// in\n    tag_413:\n        /* \"#utility.yul\":12612:12734   */\n      swap1\n      pop\n        /* \"#utility.yul\":12356:12741   */\n      swap3\n      swap2\n      pop\n      pop\n      jump\t// out\n        /* \"#utility.yul\":12747:13112   */\n    tag_73:\n        /* \"#utility.yul\":12886:12890   */\n      0x00\n        /* \"#utility.yul\":12924:12926   */\n      0x20\n        /* \"#utility.yul\":12913:12922   */\n      dup3\n        /* \"#utility.yul\":12909:12927   */\n      add\n        /* \"#utility.yul\":12901:12927   */\n      swap1\n      pop\n        /* \"#utility.yul\":12973:12982   */\n      dup2\n        /* \"#utility.yul\":12967:12971   */\n      dup2\n        /* \"#utility.yul\":12963:12983   */\n      sub\n        /* \"#utility.yul\":12959:12960   */\n      0x00\n        /* \"#utility.yul\":12948:12957   */\n      dup4\n        /* \"#utility.yul\":12944:12961   */\n      add\n        /* \"#utility.yul\":12937:12984   */\n      mstore\n        /* \"#utility.yul\":13001:13105   */\n      tag_415\n        /* \"#utility.yul\":13100:13104   */\n      dup2\n        /* \"#utility.yul\":13091:13097   */\n      dup5\n        /* \"#utility.yul\":13001:13105   */\n      tag_381\n      jump\t// in\n    tag_415:\n        /* \"#utility.yul\":12993:13105   */\n      swap1\n      pop\n        /* \"#utility.yul\":12747:13112   */\n      swap3\n      swap2\n      pop\n      pop\n      jump\t// out\n        /* \"#utility.yul\":13118:13593   */\n    tag_187:\n        /* \"#utility.yul\":13285:13289   */\n      0x00\n        /* \"#utility.yul\":13323:13325   */\n      0x40\n        /* \"#utility.yul\":13312:13321   */\n      dup3\n        /* \"#utility.yul\":13308:13326   */\n      add\n        /* \"#utility.yul\":13300:13326   */\n      swap1\n      pop\n        /* \"#utility.yul\":13372:13381   */\n      dup2\n        /* \"#utility.yul\":13366:13370   */\n      dup2\n        /* \"#utility.yul\":13362:13382   */\n      sub\n        /* \"#utility.yul\":13358:13359   */\n      0x00\n        /* \"#utility.yul\":13347:13356   */\n      dup4\n        /* \"#utility.yul\":13343:13360   */\n      add\n        /* \"#utility.yul\":13336:13383   */\n      mstore\n        /* \"#utility.yul\":13400:13504   */\n      tag_417\n        /* \"#utility.yul\":13499:13503   */\n      dup2\n        /* \"#utility.yul\":13490:13496   */\n      dup6\n        /* \"#utility.yul\":13400:13504   */\n      tag_381\n      jump\t// in\n    tag_417:\n        /* \"#utility.yul\":13392:13504   */\n      swap1\n      pop\n        /* \"#utility.yul\":13514:13586   */\n      tag_418\n        /* \"#utility.yul\":13582:13584   */\n      0x20\n        /* \"#utility.yul\":13571:13580   */\n      dup4\n        /* \"#utility.yul\":13567:13585   */\n      add\n        /* \"#utility.yul\":13558:13564   */\n      dup5\n        /* \"#utility.yul\":13514:13586   */\n      tag_403\n      jump\t// in\n    tag_418:\n        /* \"#utility.yul\":13118:13593   */\n      swap4\n      swap3\n      pop\n      pop\n      pop\n      jump\t// out\n        /* \"#utility.yul\":13599:13968   */\n    tag_83:\n        /* \"#utility.yul\":13740:13744   */\n      0x00\n        /* \"#utility.yul\":13778:13780   */\n      0x20\n        /* \"#utility.yul\":13767:13776   */\n      dup3\n        /* \"#utility.yul\":13763:13781   */\n      add\n        /* \"#utility.yul\":13755:13781   */\n      swap1\n      pop\n        /* \"#utility.yul\":13827:13836   */\n      dup2\n        /* \"#utility.yul\":13821:13825   */\n      dup2\n        /* \"#utility.yul\":13817:13837   */\n      sub\n        /* \"#utility.yul\":13813:13814   */\n      0x00\n        /* \"#utility.yul\":13802:13811   */\n      dup4\n        /* \"#utility.yul\":13798:13815   */\n      add\n        /* \"#utility.yul\":13791:13838   */\n      mstore\n        /* \"#utility.yul\":13855:13961   */\n      tag_420\n        /* \"#utility.yul\":13956:13960   */\n      dup2\n        /* \"#utility.yul\":13947:13953   */\n      dup5\n        /* \"#utility.yul\":13855:13961   */\n      tag_389\n      jump\t// in\n    tag_420:\n        /* \"#utility.yul\":13847:13961   */\n      swap1\n      pop\n        /* \"#utility.yul\":13599:13968   */\n      swap3\n      swap2\n      pop\n      pop\n      jump\t// out\n        /* \"#utility.yul\":13974:14343   */\n    tag_36:\n        /* \"#utility.yul\":14115:14119   */\n      0x00\n        /* \"#utility.yul\":14153:14155   */\n      0x20\n        /* \"#utility.yul\":14142:14151   */\n      dup3\n        /* \"#utility.yul\":14138:14156   */\n      add\n        /* \"#utility.yul\":14130:14156   */\n      swap1\n      pop\n        /* \"#utility.yul\":14202:14211   */\n      dup2\n        /* \"#utility.yul\":14196:14200   */\n      dup2\n        /* \"#utility.yul\":14192:14212   */\n      sub\n        /* \"#utility.yul\":14188:14189   */\n      0x00\n        /* \"#utility.yul\":14177:14186   */\n      dup4\n        /* \"#utility.yul\":14173:14190   */\n      add\n        /* \"#utility.yul\":14166:14213   */\n      mstore\n        /* \"#utility.yul\":14230:14336   */\n      tag_422\n        /* \"#utility.yul\":14331:14335   */\n      dup2\n        /* \"#utility.yul\":14322:14328   */\n      dup5\n        /* \"#utility.yul\":14230:14336   */\n      tag_394\n      jump\t// in\n    tag_422:\n        /* \"#utility.yul\":14222:14336   */\n      swap1\n      pop\n        /* \"#utility.yul\":13974:14343   */\n      swap3\n      swap2\n      pop\n      pop\n      jump\t// out\n        /* \"#utility.yul\":14349:14772   */\n    tag_54:\n        /* \"#utility.yul\":14490:14494   */\n      0x00\n        /* \"#utility.yul\":14528:14530   */\n      0x40\n        /* \"#utility.yul\":14517:14526   */\n      dup3\n        /* \"#utility.yul\":14513:14531   */\n      add\n        /* \"#utility.yul\":14505:14531   */\n      swap1\n      pop\n        /* \"#utility.yul\":14541:14612   */\n      tag_424\n        /* \"#utility.yul\":14609:14610   */\n      0x00\n        /* \"#utility.yul\":14598:14607   */\n      dup4\n        /* \"#utility.yul\":14594:14611   */\n      add\n        /* \"#utility.yul\":14585:14591   */\n      dup6\n        /* \"#utility.yul\":14541:14612   */\n      tag_403\n      jump\t// in\n    tag_424:\n        /* \"#utility.yul\":14659:14668   */\n      dup2\n        /* \"#utility.yul\":14653:14657   */\n      dup2\n        /* \"#utility.yul\":14649:14669   */\n      sub\n        /* \"#utility.yul\":14644:14646   */\n      0x20\n        /* \"#utility.yul\":14633:14642   */\n      dup4\n        /* \"#utility.yul\":14629:14647   */\n      add\n        /* \"#utility.yul\":14622:14670   */\n      mstore\n        /* \"#utility.yul\":14687:14765   */\n      tag_425\n        /* \"#utility.yul\":14760:14764   */\n      dup2\n        /* \"#utility.yul\":14751:14757   */\n      dup5\n        /* \"#utility.yul\":14687:14765   */\n      tag_362\n      jump\t// in\n    tag_425:\n        /* \"#utility.yul\":14679:14765   */\n      swap1\n      pop\n        /* \"#utility.yul\":14349:14772   */\n      swap4\n      swap3\n      pop\n      pop\n      pop\n      jump\t// out\n        /* \"#utility.yul\":14778:15402   */\n    tag_41:\n        /* \"#utility.yul\":14967:14971   */\n      0x00\n        /* \"#utility.yul\":15005:15007   */\n      0x60\n        /* \"#utility.yul\":14994:15003   */\n      dup3\n        /* \"#utility.yul\":14990:15008   */\n      add\n        /* \"#utility.yul\":14982:15008   */\n      swap1\n      pop\n        /* \"#utility.yul\":15018:15089   */\n      tag_427\n        /* \"#utility.yul\":15086:15087   */\n      0x00\n        /* \"#utility.yul\":15075:15084   */\n      dup4\n        /* \"#utility.yul\":15071:15088   */\n      add\n        /* \"#utility.yul\":15062:15068   */\n      dup7\n        /* \"#utility.yul\":15018:15089   */\n      tag_403\n      jump\t// in\n    tag_427:\n        /* \"#utility.yul\":15136:15145   */\n      dup2\n        /* \"#utility.yul\":15130:15134   */\n      dup2\n        /* \"#utility.yul\":15126:15146   */\n      sub\n        /* \"#utility.yul\":15121:15123   */\n      0x20\n        /* \"#utility.yul\":15110:15119   */\n      dup4\n        /* \"#utility.yul\":15106:15124   */\n      add\n        /* \"#utility.yul\":15099:15147   */\n      mstore\n        /* \"#utility.yul\":15164:15242   */\n      tag_428\n        /* \"#utility.yul\":15237:15241   */\n      dup2\n        /* \"#utility.yul\":15228:15234   */\n      dup6\n        /* \"#utility.yul\":15164:15242   */\n      tag_362\n      jump\t// in\n    tag_428:\n        /* \"#utility.yul\":15156:15242   */\n      swap1\n      pop\n        /* \"#utility.yul\":15289:15298   */\n      dup2\n        /* \"#utility.yul\":15283:15287   */\n      dup2\n        /* \"#utility.yul\":15279:15299   */\n      sub\n        /* \"#utility.yul\":15274:15276   */\n      0x40\n        /* \"#utility.yul\":15263:15272   */\n      dup4\n        /* \"#utility.yul\":15259:15277   */\n      add\n        /* \"#utility.yul\":15252:15300   */\n      mstore\n        /* \"#utility.yul\":15317:15395   */\n      tag_429\n        /* \"#utility.yul\":15390:15394   */\n      dup2\n        /* \"#utility.yul\":15381:15387   */\n      dup5\n        /* \"#utility.yul\":15317:15395   */\n      tag_362\n      jump\t// in\n    tag_429:\n        /* \"#utility.yul\":15309:15395   */\n      swap1\n      pop\n        /* \"#utility.yul\":14778:15402   */\n      swap5\n      swap4\n      pop\n      pop\n      pop\n      pop\n      jump\t// out\n        /* \"#utility.yul\":15408:16456   */\n    tag_46:\n        /* \"#utility.yul\":15701:15705   */\n      0x00\n        /* \"#utility.yul\":15739:15742   */\n      0xc0\n        /* \"#utility.yul\":15728:15737   */\n      dup3\n        /* \"#utility.yul\":15724:15743   */\n      add\n        /* \"#utility.yul\":15716:15743   */\n      swap1\n      pop\n        /* \"#utility.yul\":15753:15824   */\n      tag_431\n        /* \"#utility.yul\":15821:15822   */\n      0x00\n        /* \"#utility.yul\":15810:15819   */\n      dup4\n        /* \"#utility.yul\":15806:15823   */\n      add\n        /* \"#utility.yul\":15797:15803   */\n      dup10\n        /* \"#utility.yul\":15753:15824   */\n      tag_403\n      jump\t// in\n    tag_431:\n        /* \"#utility.yul\":15871:15880   */\n      dup2\n        /* \"#utility.yul\":15865:15869   */\n      dup2\n        /* \"#utility.yul\":15861:15881   */\n      sub\n        /* \"#utility.yul\":15856:15858   */\n      0x20\n        /* \"#utility.yul\":15845:15854   */\n      dup4\n        /* \"#utility.yul\":15841:15859   */\n      add\n        /* \"#utility.yul\":15834:15882   */\n      mstore\n        /* \"#utility.yul\":15899:15977   */\n      tag_432\n        /* \"#utility.yul\":15972:15976   */\n      dup2\n        /* \"#utility.yul\":15963:15969   */\n      dup9\n        /* \"#utility.yul\":15899:15977   */\n      tag_362\n      jump\t// in\n    tag_432:\n        /* \"#utility.yul\":15891:15977   */\n      swap1\n      pop\n        /* \"#utility.yul\":15987:16059   */\n      tag_433\n        /* \"#utility.yul\":16055:16057   */\n      0x40\n        /* \"#utility.yul\":16044:16053   */\n      dup4\n        /* \"#utility.yul\":16040:16058   */\n      add\n        /* \"#utility.yul\":16031:16037   */\n      dup8\n        /* \"#utility.yul\":15987:16059   */\n      tag_403\n      jump\t// in\n    tag_433:\n        /* \"#utility.yul\":16106:16115   */\n      dup2\n        /* \"#utility.yul\":16100:16104   */\n      dup2\n        /* \"#utility.yul\":16096:16116   */\n      sub\n        /* \"#utility.yul\":16091:16093   */\n      0x60\n        /* \"#utility.yul\":16080:16089   */\n      dup4\n        /* \"#utility.yul\":16076:16094   */\n      add\n        /* \"#utility.yul\":16069:16117   */\n      mstore\n        /* \"#utility.yul\":16134:16212   */\n      tag_434\n        /* \"#utility.yul\":16207:16211   */\n      dup2\n        /* \"#utility.yul\":16198:16204   */\n      dup7\n        /* \"#utility.yul\":16134:16212   */\n      tag_362\n      jump\t// in\n    tag_434:\n        /* \"#utility.yul\":16126:16212   */\n      swap1\n      pop\n        /* \"#utility.yul\":16260:16269   */\n      dup2\n        /* \"#utility.yul\":16254:16258   */\n      dup2\n        /* \"#utility.yul\":16250:16270   */\n      sub\n        /* \"#utility.yul\":16244:16247   */\n      0x80\n        /* \"#utility.yul\":16233:16242   */\n      dup4\n        /* \"#utility.yul\":16229:16248   */\n      add\n        /* \"#utility.yul\":16222:16271   */\n      mstore\n        /* \"#utility.yul\":16288:16366   */\n      tag_435\n        /* \"#utility.yul\":16361:16365   */\n      dup2\n        /* \"#utility.yul\":16352:16358   */\n      dup6\n        /* \"#utility.yul\":16288:16366   */\n      tag_362\n      jump\t// in\n    tag_435:\n        /* \"#utility.yul\":16280:16366   */\n      swap1\n      pop\n        /* \"#utility.yul\":16376:16449   */\n      tag_436\n        /* \"#utility.yul\":16444:16447   */\n      0xa0\n        /* \"#utility.yul\":16433:16442   */\n      dup4\n        /* \"#utility.yul\":16429:16448   */\n      add\n        /* \"#utility.yul\":16420:16426   */\n      dup5\n        /* \"#utility.yul\":16376:16449   */\n      tag_403\n      jump\t// in\n    tag_436:\n        /* \"#utility.yul\":15408:16456   */\n      swap8\n      swap7\n      pop\n      pop\n      pop\n      pop\n      pop\n      pop\n      pop\n      jump\t// out\n        /* \"#utility.yul\":16462:16591   */\n    tag_290:\n        /* \"#utility.yul\":16496:16502   */\n      0x00\n        /* \"#utility.yul\":16523:16543   */\n      tag_438\n      tag_439\n      jump\t// in\n    tag_438:\n        /* \"#utility.yul\":16513:16543   */\n      swap1\n      pop\n        /* \"#utility.yul\":16552:16585   */\n      tag_440\n        /* \"#utility.yul\":16580:16584   */\n      dup3\n        /* \"#utility.yul\":16572:16578   */\n      dup3\n        /* \"#utility.yul\":16552:16585   */\n      tag_441\n      jump\t// in\n    tag_440:\n        /* \"#utility.yul\":16462:16591   */\n      swap2\n      swap1\n      pop\n      jump\t// out\n        /* \"#utility.yul\":16597:16672   */\n    tag_439:\n        /* \"#utility.yul\":16630:16636   */\n      0x00\n        /* \"#utility.yul\":16663:16665   */\n      0x40\n        /* \"#utility.yul\":16657:16666   */\n      mload\n        /* \"#utility.yul\":16647:16666   */\n      swap1\n      pop\n        /* \"#utility.yul\":16597:16672   */\n      swap1\n      jump\t// out\n        /* \"#utility.yul\":16678:16986   */\n    tag_289:\n        /* \"#utility.yul\":16740:16744   */\n      0x00\n        /* \"#utility.yul\":16830:16848   */\n      0xffffffffffffffff\n        /* \"#utility.yul\":16822:16828   */\n      dup3\n        /* \"#utility.yul\":16819:16849   */\n      gt\n        /* \"#utility.yul\":16816:16872   */\n      iszero\n      tag_444\n      jumpi\n        /* \"#utility.yul\":16852:16870   */\n      tag_445\n      tag_99\n      jump\t// in\n    tag_445:\n        /* \"#utility.yul\":16816:16872   */\n    tag_444:\n        /* \"#utility.yul\":16890:16919   */\n      tag_446\n        /* \"#utility.yul\":16912:16918   */\n      dup3\n        /* \"#utility.yul\":16890:16919   */\n      tag_361\n      jump\t// in\n    tag_446:\n        /* \"#utility.yul\":16882:16919   */\n      swap1\n      pop\n        /* \"#utility.yul\":16974:16978   */\n      0x20\n        /* \"#utility.yul\":16968:16972   */\n      dup2\n        /* \"#utility.yul\":16964:16979   */\n      add\n        /* \"#utility.yul\":16956:16979   */\n      swap1\n      pop\n        /* \"#utility.yul\":16678:16986   */\n      swap2\n      swap1\n      pop\n      jump\t// out\n        /* \"#utility.yul\":16992:17124   */\n    tag_345:\n        /* \"#utility.yul\":17059:17063   */\n      0x00\n        /* \"#utility.yul\":17082:17085   */\n      dup2\n        /* \"#utility.yul\":17074:17085   */\n      swap1\n      pop\n        /* \"#utility.yul\":17112:17116   */\n      0x20\n        /* \"#utility.yul\":17107:17110   */\n      dup3\n        /* \"#utility.yul\":17103:17117   */\n      add\n        /* \"#utility.yul\":17095:17117   */\n      swap1\n      pop\n        /* \"#utility.yul\":16992:17124   */\n      swap2\n      swap1\n      pop\n      jump\t// out\n        /* \"#utility.yul\":17130:17244   */\n    tag_341:\n        /* \"#utility.yul\":17197:17203   */\n      0x00\n        /* \"#utility.yul\":17231:17236   */\n      dup2\n        /* \"#utility.yul\":17225:17237   */\n      mload\n        /* \"#utility.yul\":17215:17237   */\n      swap1\n      pop\n        /* \"#utility.yul\":17130:17244   */\n      swap2\n      swap1\n      pop\n      jump\t// out\n        /* \"#utility.yul\":17250:17349   */\n    tag_355:\n        /* \"#utility.yul\":17302:17308   */\n      0x00\n        /* \"#utility.yul\":17336:17341   */\n      dup2\n        /* \"#utility.yul\":17330:17342   */\n      mload\n        /* \"#utility.yul\":17320:17342   */\n      swap1\n      pop\n        /* \"#utility.yul\":17250:17349   */\n      swap2\n      swap1\n      pop\n      jump\t// out\n        /* \"#utility.yul\":17355:17468   */\n    tag_351:\n        /* \"#utility.yul\":17425:17429   */\n      0x00\n        /* \"#utility.yul\":17457:17461   */\n      0x20\n        /* \"#utility.yul\":17452:17455   */\n      dup3\n        /* \"#utility.yul\":17448:17462   */\n      add\n        /* \"#utility.yul\":17440:17462   */\n      swap1\n      pop\n        /* \"#utility.yul\":17355:17468   */\n      swap2\n      swap1\n      pop\n      jump\t// out\n        /* \"#utility.yul\":17474:17648   */\n    tag_343:\n        /* \"#utility.yul\":17563:17574   */\n      0x00\n        /* \"#utility.yul\":17597:17603   */\n      dup3\n        /* \"#utility.yul\":17592:17595   */\n      dup3\n        /* \"#utility.yul\":17585:17604   */\n      mstore\n        /* \"#utility.yul\":17637:17641   */\n      0x20\n        /* \"#utility.yul\":17632:17635   */\n      dup3\n        /* \"#utility.yul\":17628:17642   */\n      add\n        /* \"#utility.yul\":17613:17642   */\n      swap1\n      pop\n        /* \"#utility.yul\":17474:17648   */\n      swap3\n      swap2\n      pop\n      pop\n      jump\t// out\n        /* \"#utility.yul\":17654:17813   */\n    tag_357:\n        /* \"#utility.yul\":17728:17739   */\n      0x00\n        /* \"#utility.yul\":17762:17768   */\n      dup3\n        /* \"#utility.yul\":17757:17760   */\n      dup3\n        /* \"#utility.yul\":17750:17769   */\n      mstore\n        /* \"#utility.yul\":17802:17806   */\n      0x20\n        /* \"#utility.yul\":17797:17800   */\n      dup3\n        /* \"#utility.yul\":17793:17807   */\n      add\n        /* \"#utility.yul\":17778:17807   */\n      swap1\n      pop\n        /* \"#utility.yul\":17654:17813   */\n      swap3\n      swap2\n      pop\n      pop\n      jump\t// out\n        /* \"#utility.yul\":17819:17988   */\n    tag_366:\n        /* \"#utility.yul\":17903:17914   */\n      0x00\n        /* \"#utility.yul\":17937:17943   */\n      dup3\n        /* \"#utility.yul\":17932:17935   */\n      dup3\n        /* \"#utility.yul\":17925:17944   */\n      mstore\n        /* \"#utility.yul\":17977:17981   */\n      0x20\n        /* \"#utility.yul\":17972:17975   */\n      dup3\n        /* \"#utility.yul\":17968:17982   */\n      add\n        /* \"#utility.yul\":17953:17982   */\n      swap1\n      pop\n        /* \"#utility.yul\":17819:17988   */\n      swap3\n      swap2\n      pop\n      pop\n      jump\t// out\n        /* \"#utility.yul\":17994:18071   */\n    tag_402:\n        /* \"#utility.yul\":18031:18038   */\n      0x00\n        /* \"#utility.yul\":18060:18065   */\n      dup2\n        /* \"#utility.yul\":18049:18065   */\n      swap1\n      pop\n        /* \"#utility.yul\":17994:18071   */\n      swap2\n      swap1\n      pop\n      jump\t// out\n        /* \"#utility.yul\":18077:18231   */\n    tag_295:\n        /* \"#utility.yul\":18161:18167   */\n      dup3\n        /* \"#utility.yul\":18156:18159   */\n      dup2\n        /* \"#utility.yul\":18151:18154   */\n      dup4\n        /* \"#utility.yul\":18138:18168   */\n      calldatacopy\n        /* \"#utility.yul\":18223:18224   */\n      0x00\n        /* \"#utility.yul\":18214:18220   */\n      dup4\n        /* \"#utility.yul\":18209:18212   */\n      dup4\n        /* \"#utility.yul\":18205:18221   */\n      add\n        /* \"#utility.yul\":18198:18225   */\n      mstore\n        /* \"#utility.yul\":18077:18231   */\n      pop\n      pop\n      pop\n      jump\t// out\n        /* \"#utility.yul\":18237:18544   */\n    tag_359:\n        /* \"#utility.yul\":18305:18306   */\n      0x00\n        /* \"#utility.yul\":18315:18428   */\n    tag_457:\n        /* \"#utility.yul\":18329:18335   */\n      dup4\n        /* \"#utility.yul\":18326:18327   */\n      dup2\n        /* \"#utility.yul\":18323:18336   */\n      lt\n        /* \"#utility.yul\":18315:18428   */\n      iszero\n      tag_459\n      jumpi\n        /* \"#utility.yul\":18414:18415   */\n      dup1\n        /* \"#utility.yul\":18409:18412   */\n      dup3\n        /* \"#utility.yul\":18405:18416   */\n      add\n        /* \"#utility.yul\":18399:18417   */\n      mload\n        /* \"#utility.yul\":18395:18396   */\n      dup2\n        /* \"#utility.yul\":18390:18393   */\n      dup5\n        /* \"#utility.yul\":18386:18397   */\n      add\n        /* \"#utility.yul\":18379:18418   */\n      mstore\n        /* \"#utility.yul\":18351:18353   */\n      0x20\n        /* \"#utility.yul\":18348:18349   */\n      dup2\n        /* \"#utility.yul\":18344:18354   */\n      add\n        /* \"#utility.yul\":18339:18354   */\n      swap1\n      pop\n        /* \"#utility.yul\":18315:18428   */\n      jump(tag_457)\n    tag_459:\n        /* \"#utility.yul\":18446:18452   */\n      dup4\n        /* \"#utility.yul\":18443:18444   */\n      dup2\n        /* \"#utility.yul\":18440:18453   */\n      gt\n        /* \"#utility.yul\":18437:18538   */\n      iszero\n      tag_460\n      jumpi\n        /* \"#utility.yul\":18526:18527   */\n      0x00\n        /* \"#utility.yul\":18517:18523   */\n      dup5\n        /* \"#utility.yul\":18512:18515   */\n      dup5\n        /* \"#utility.yul\":18508:18524   */\n      add\n        /* \"#utility.yul\":18501:18528   */\n      mstore\n        /* \"#utility.yul\":18437:18538   */\n    tag_460:\n        /* \"#utility.yul\":18286:18544   */\n      pop\n        /* \"#utility.yul\":18237:18544   */\n      pop\n      pop\n      pop\n      jump\t// out\n        /* \"#utility.yul\":18550:18870   */\n    tag_111:\n        /* \"#utility.yul\":18594:18600   */\n      0x00\n        /* \"#utility.yul\":18631:18632   */\n      0x02\n        /* \"#utility.yul\":18625:18629   */\n      dup3\n        /* \"#utility.yul\":18621:18633   */\n      div\n        /* \"#utility.yul\":18611:18633   */\n      swap1\n      pop\n        /* \"#utility.yul\":18678:18679   */\n      0x01\n        /* \"#utility.yul\":18672:18676   */\n      dup3\n        /* \"#utility.yul\":18668:18680   */\n      and\n        /* \"#utility.yul\":18699:18717   */\n      dup1\n        /* \"#utility.yul\":18689:18770   */\n      tag_462\n      jumpi\n        /* \"#utility.yul\":18755:18759   */\n      0x7f\n        /* \"#utility.yul\":18747:18753   */\n      dup3\n        /* \"#utility.yul\":18743:18760   */\n      and\n        /* \"#utility.yul\":18733:18760   */\n      swap2\n      pop\n        /* \"#utility.yul\":18689:18770   */\n    tag_462:\n        /* \"#utility.yul\":18817:18819   */\n      0x20\n        /* \"#utility.yul\":18809:18815   */\n      dup3\n        /* \"#utility.yul\":18806:18820   */\n      lt\n        /* \"#utility.yul\":18786:18804   */\n      dup2\n        /* \"#utility.yul\":18783:18821   */\n      eq\n        /* \"#utility.yul\":18780:18864   */\n      iszero\n      tag_463\n      jumpi\n        /* \"#utility.yul\":18836:18854   */\n      tag_464\n      tag_465\n      jump\t// in\n    tag_464:\n        /* \"#utility.yul\":18780:18864   */\n    tag_463:\n        /* \"#utility.yul\":18601:18870   */\n      pop\n        /* \"#utility.yul\":18550:18870   */\n      swap2\n      swap1\n      pop\n      jump\t// out\n        /* \"#utility.yul\":18876:19157   */\n    tag_441:\n        /* \"#utility.yul\":18959:18986   */\n      tag_467\n        /* \"#utility.yul\":18981:18985   */\n      dup3\n        /* \"#utility.yul\":18959:18986   */\n      tag_361\n      jump\t// in\n    tag_467:\n        /* \"#utility.yul\":18951:18957   */\n      dup2\n        /* \"#utility.yul\":18947:18987   */\n      add\n        /* \"#utility.yul\":19089:19095   */\n      dup2\n        /* \"#utility.yul\":19077:19087   */\n      dup2\n        /* \"#utility.yul\":19074:19096   */\n      lt\n        /* \"#utility.yul\":19053:19071   */\n      0xffffffffffffffff\n        /* \"#utility.yul\":19041:19051   */\n      dup3\n        /* \"#utility.yul\":19038:19072   */\n      gt\n        /* \"#utility.yul\":19035:19097   */\n      or\n        /* \"#utility.yul\":19032:19120   */\n      iszero\n      tag_468\n      jumpi\n        /* \"#utility.yul\":19100:19118   */\n      tag_469\n      tag_99\n      jump\t// in\n    tag_469:\n        /* \"#utility.yul\":19032:19120   */\n    tag_468:\n        /* \"#utility.yul\":19140:19150   */\n      dup1\n        /* \"#utility.yul\":19136:19138   */\n      0x40\n        /* \"#utility.yul\":19129:19151   */\n      mstore\n        /* \"#utility.yul\":18919:19157   */\n      pop\n        /* \"#utility.yul\":18876:19157   */\n      pop\n      pop\n      jump\t// out\n        /* \"#utility.yul\":19163:19396   */\n    tag_185:\n        /* \"#utility.yul\":19202:19205   */\n      0x00\n        /* \"#utility.yul\":19225:19249   */\n      tag_471\n        /* \"#utility.yul\":19243:19248   */\n      dup3\n        /* \"#utility.yul\":19225:19249   */\n      tag_402\n      jump\t// in\n    tag_471:\n        /* \"#utility.yul\":19216:19249   */\n      swap2\n      pop\n        /* \"#utility.yul\":19271:19337   */\n      0xffffffffffffffffffffffffffffffffffffffffffffffffffffffffffffffff\n        /* \"#utility.yul\":19264:19269   */\n      dup3\n        /* \"#utility.yul\":19261:19338   */\n      eq\n        /* \"#utility.yul\":19258:19361   */\n      iszero\n      tag_472\n      jumpi\n        /* \"#utility.yul\":19341:19359   */\n      tag_473\n      tag_474\n      jump\t// in\n    tag_473:\n        /* \"#utility.yul\":19258:19361   */\n    tag_472:\n        /* \"#utility.yul\":19388:19389   */\n      0x01\n        /* \"#utility.yul\":19381:19386   */\n      dup3\n        /* \"#utility.yul\":19377:19390   */\n      add\n        /* \"#utility.yul\":19370:19390   */\n      swap1\n      pop\n        /* \"#utility.yul\":19163:19396   */\n      swap2\n      swap1\n      pop\n      jump\t// out\n        /* \"#utility.yul\":19402:19582   */\n    tag_474:\n        /* \"#utility.yul\":19450:19527   */\n      0x4e487b7100000000000000000000000000000000000000000000000000000000\n        /* \"#utility.yul\":19447:19448   */\n      0x00\n        /* \"#utility.yul\":19440:19528   */\n      mstore\n        /* \"#utility.yul\":19547:19551   */\n      0x11\n        /* \"#utility.yul\":19544:19545   */\n      0x04\n        /* \"#utility.yul\":19537:19552   */\n      mstore\n        /* \"#utility.yul\":19571:19575   */\n      0x24\n        /* \"#utility.yul\":19568:19569   */\n      0x00\n        /* \"#utility.yul\":19561:19576   */\n      revert\n        /* \"#utility.yul\":19588:19768   */\n    tag_465:\n        /* \"#utility.yul\":19636:19713   */\n      0x4e487b7100000000000000000000000000000000000000000000000000000000\n        /* \"#utility.yul\":19633:19634   */\n      0x00\n        /* \"#utility.yul\":19626:19714   */\n      mstore\n        /* \"#utility.yul\":19733:19737   */\n      0x22\n        /* \"#utility.yul\":19730:19731   */\n      0x04\n        /* \"#utility.yul\":19723:19738   */\n      mstore\n        /* \"#utility.yul\":19757:19761   */\n      0x24\n        /* \"#utility.yul\":19754:19755   */\n      0x00\n        /* \"#utility.yul\":19747:19762   */\n      revert\n        /* \"#utility.yul\":19774:19954   */\n    tag_99:\n        /* \"#utility.yul\":19822:19899   */\n      0x4e487b7100000000000000000000000000000000000000000000000000000000\n        /* \"#utility.yul\":19819:19820   */\n      0x00\n        /* \"#utility.yul\":19812:19900   */\n      mstore\n        /* \"#utility.yul\":19919:19923   */\n      0x41\n        /* \"#utility.yul\":19916:19917   */\n      0x04\n        /* \"#utility.yul\":19909:19924   */\n      mstore\n        /* \"#utility.yul\":19943:19947   */\n      0x24\n        /* \"#utility.yul\":19940:19941   */\n      0x00\n        /* \"#utility.yul\":19933:19948   */\n      revert\n        /* \"#utility.yul\":19960:20077   */\n    tag_300:\n        /* \"#utility.yul\":20069:20070   */\n      0x00\n        /* \"#utility.yul\":20066:20067   */\n      dup1\n        /* \"#utility.yul\":20059:20071   */\n      revert\n        /* \"#utility.yul\":20083:20200   */\n    tag_293:\n        /* \"#utility.yul\":20192:20193   */\n      0x00\n        /* \"#utility.yul\":20189:20190   */\n      dup1\n        /* \"#utility.yul\":20182:20194   */\n      revert\n        /* \"#utility.yul\":20206:20323   */\n    tag_312:\n        /* \"#utility.yul\":20315:20316   */\n      0x00\n        /* \"#utility.yul\":20312:20313   */\n      dup1\n        /* \"#utility.yul\":20305:20317   */\n      revert\n        /* \"#utility.yul\":20329:20446   */\n    tag_309:\n        /* \"#utility.yul\":20438:20439   */\n      0x00\n        /* \"#utility.yul\":20435:20436   */\n      dup1\n        /* \"#utility.yul\":20428:20440   */\n      revert\n        /* \"#utility.yul\":20452:20554   */\n    tag_361:\n        /* \"#utility.yul\":20493:20499   */\n      0x00\n        /* \"#utility.yul\":20544:20546   */\n      0x1f\n        /* \"#utility.yul\":20540:20547   */\n      not\n        /* \"#utility.yul\":20535:20537   */\n      0x1f\n        /* \"#utility.yul\":20528:20533   */\n      dup4\n        /* \"#utility.yul\":20524:20538   */\n      add\n        /* \"#utility.yul\":20520:20548   */\n      and\n        /* \"#utility.yul\":20510:20548   */\n      swap1\n      pop\n        /* \"#utility.yul\":20452:20554   */\n      swap2\n      swap1\n      pop\n      jump\t// out\n        /* \"#utility.yul\":20560:20682   */\n    tag_305:\n        /* \"#utility.yul\":20633:20657   */\n      tag_484\n        /* \"#utility.yul\":20651:20656   */\n      dup2\n        /* \"#utility.yul\":20633:20657   */\n      tag_402\n      jump\t// in\n    tag_484:\n        /* \"#utility.yul\":20626:20631   */\n      dup2\n        /* \"#utility.yul\":20623:20658   */\n      eq\n        /* \"#utility.yul\":20613:20676   */\n      tag_485\n      jumpi\n        /* \"#utility.yul\":20672:20673   */\n      0x00\n        /* \"#utility.yul\":20669:20670   */\n      dup1\n        /* \"#utility.yul\":20662:20674   */\n      revert\n        /* \"#utility.yul\":20613:20676   */\n    tag_485:\n        /* \"#utility.yul\":20560:20682   */\n      pop\n      jump\t// out\n\n    auxdata: 0xa264697066735822122080da4beccb6b4cada9bb347a8b9162f93cbba1dc249c990b2d8d59c08eda106f64736f6c63430008070033\n}\n",
				"bytecode": {
					"linkReferences": {},
					"object": "6080604052336000806101000a81548173ffffffffffffffffffffffffffffffffffffffff021916908373ffffffffffffffffffffffffffffffffffffffff160217905550600060025534801561005557600080fd5b506124e4806100656000396000f3fe608060405234801561001057600080fd5b50600436106101005760003560e01c80638f5ae79911610097578063cb80c41911610066578063cb80c419146102eb578063cda5e4a51461031b578063cea231211461034b578063f032edec1461037d57610100565b80638f5ae7991461025157806390175af11461026d57806395d004071461029f578063b9db15b4146102bb57610100565b80637acc0b20116100d35780637acc0b20146101b357806381d9def2146101e8578063897ec7df146102045780638f29695a1461023557610100565b806315533a2714610105578063333f3dd0146101215780633779643f1461015157806350b492ba14610181575b600080fd5b61011f600480360381019061011a9190611b93565b610399565b005b61013b60048036038101906101369190611c67565b610528565b604051610148919061206c565b60405180910390f35b61016b60048036038101906101669190611c67565b6106db565b6040516101789190612124565b60405180910390f35b61019b60048036038101906101969190611c67565b61088e565b6040516101aa93929190612176565b60405180910390f35b6101cd60048036038101906101c89190611c67565b6109c8565b6040516101df969594939291906121bb565b60405180910390f35b61020260048036038101906101fd9190611b93565b610b9c565b005b61021e60048036038101906102199190611c67565b610d2b565b60405161022c929190612146565b60405180910390f35b61024f600480360381019061024a9190611bdc565b610dd7565b005b61026b60048036038101906102669190611b93565b610f3e565b005b61028760048036038101906102829190611c67565b6110cd565b60405161029693929190612176565b60405180910390f35b6102b960048036038101906102b49190611b93565b611207565b005b6102d560048036038101906102d09190611c67565b61133b565b6040516102e291906120b0565b60405180910390f35b61030560048036038101906103009190611c67565b61153c565b604051610312919061208e565b60405180910390f35b61033560048036038101906103309190611c67565b6116ef565b6040516103429190612102565b60405180910390f35b61036560048036038101906103609190611c67565b611810565b60405161037493929190612176565b60405180910390f35b61039760048036038101906103929190611c94565b61194a565b005b6103a161194f565b8142446040516020016103b69392919061202e565b6040516020818303038152906040528051906020012060001c8160000181815250506040518060400160405280600281526020017f53550000000000000000000000000000000000000000000000000000000000008152508160200181905250818160400181905250600067ffffffffffffffff81111561043a57610439612443565b5b6040519080825280602002602001820160405280156104685781602001602082028036833780820191505090505b5081606001819052508060036000836000015181526020019081526020016000206000820151816000015560208201518160010190805190602001906104af929190611977565b5060408201518160020190805190602001906104cc929190611977565b5060608201518160030190805190602001906104e99291906119fd565b509050507f0e2879159e80c92c57341e91920c4b1af102eebab99c1eca0e8a3c081fbf95ba8160405161051c9190612124565b60405180910390a15050565b610530611a4a565b600560008381526020019081526020016000206040518060800160405290816000820154815260200160018201805461056890612339565b80601f016020809104026020016040519081016040528092919081815260200182805461059490612339565b80156105e15780601f106105b6576101008083540402835291602001916105e1565b820191906000526020600020905b8154815290600101906020018083116105c457829003601f168201915b505050505081526020016002820180546105fa90612339565b80601f016020809104026020016040519081016040528092919081815260200182805461062690612339565b80156106735780601f1061064857610100808354040283529160200191610673565b820191906000526020600020905b81548152906001019060200180831161065657829003601f168201915b50505050508152602001600382018054806020026020016040519081016040528092919081815260200182805480156106cb57602002820191906000526020600020905b8154815260200190600101908083116106b7575b5050505050815250509050919050565b6106e361194f565b600360008381526020019081526020016000206040518060800160405290816000820154815260200160018201805461071b90612339565b80601f016020809104026020016040519081016040528092919081815260200182805461074790612339565b80156107945780601f1061076957610100808354040283529160200191610794565b820191906000526020600020905b81548152906001019060200180831161077757829003601f168201915b505050505081526020016002820180546107ad90612339565b80601f01602080910402602001604051908101604052809291908181526020018280546107d990612339565b80156108265780601f106107fb57610100808354040283529160200191610826565b820191906000526020600020905b81548152906001019060200180831161080957829003601f168201915b505050505081526020016003820180548060200260200160405190810160405280929190818152602001828054801561087e57602002820191906000526020600020905b81548152602001906001019080831161086a575b5050505050815250509050919050565b60056020528060005260406000206000915090508060000154908060010180546108b790612339565b80601f01602080910402602001604051908101604052809291908181526020018280546108e390612339565b80156109305780601f1061090557610100808354040283529160200191610930565b820191906000526020600020905b81548152906001019060200180831161091357829003601f168201915b50505050509080600201805461094590612339565b80601f016020809104026020016040519081016040528092919081815260200182805461097190612339565b80156109be5780601f10610993576101008083540402835291602001916109be565b820191906000526020600020905b8154815290600101906020018083116109a157829003601f168201915b5050505050905083565b60016020528060005260406000206000915090508060000154908060010180546109f190612339565b80601f0160208091040260200160405190810160405280929190818152602001828054610a1d90612339565b8015610a6a5780601f10610a3f57610100808354040283529160200191610a6a565b820191906000526020600020905b815481529060010190602001808311610a4d57829003601f168201915b505050505090806002015490806003018054610a8590612339565b80601f0160208091040260200160405190810160405280929190818152602001828054610ab190612339565b8015610afe5780601f10610ad357610100808354040283529160200191610afe565b820191906000526020600020905b815481529060010190602001808311610ae157829003601f168201915b505050505090806004018054610b1390612339565b80601f0160208091040260200160405190810160405280929190818152602001828054610b3f90612339565b8015610b8c5780601f10610b6157610100808354040283529160200191610b8c565b820191906000526020600020905b815481529060010190602001808311610b6f57829003601f168201915b5050505050908060050154905086565b610ba4611a4a565b814244604051602001610bb99392919061202e565b6040516020818303038152906040528051906020012060001c8160000181815250506040518060400160405280600281526020017f44490000000000000000000000000000000000000000000000000000000000008152508160200181905250818160400181905250600067ffffffffffffffff811115610c3d57610c3c612443565b5b604051908082528060200260200182016040528015610c6b5781602001602082028036833780820191505090505b508160600181905250806005600083600001518152602001908152602001600020600082015181600001556020820151816001019080519060200190610cb2929190611977565b506040820151816002019080519060200190610ccf929190611977565b506060820151816003019080519060200190610cec9291906119fd565b509050507f4fbe23d5058e501d2ac74e9b5146f125d6c6ae6c3475d9431498262e998ee8e081604051610d1f919061206c565b60405180910390a15050565b6006602052806000526040600020600091509050806000015490806001018054610d5490612339565b80601f0160208091040260200160405190810160405280929190818152602001828054610d8090612339565b8015610dcd5780601f10610da257610100808354040283529160200191610dcd565b820191906000526020600020905b815481529060010190602001808311610db057829003601f168201915b5050505050905082565b610ddf611a72565b834244604051602001610df49392919061202e565b6040516020818303038152906040528051906020012060001c8160000181815250508381602001819052508281604001818152505081816060018190525060405180602001604052806000815250816080018190525060008160a0018181525050806001600083600001518152602001908152602001600020600082015181600001556020820151816001019080519060200190610e93929190611977565b50604082015181600201556060820151816003019080519060200190610eba929190611977565b506080820151816004019080519060200190610ed7929190611977565b5060a0820151816005015590505060026000815480929190610ef89061239c565b91905055507f0b9650a646eaf16194343a0e5cf05c4a99cfbffbf2a7630c4eaf6f3263a931d881600254604051610f309291906120d2565b60405180910390a150505050565b610f46611aa8565b814244604051602001610f5b9392919061202e565b6040516020818303038152906040528051906020012060001c8160000181815250506040518060400160405280600281526020017f4d410000000000000000000000000000000000000000000000000000000000008152508160200181905250818160400181905250600067ffffffffffffffff811115610fdf57610fde612443565b5b60405190808252806020026020018201604052801561100d5781602001602082028036833780820191505090505b508160600181905250806004600083600001518152602001908152602001600020600082015181600001556020820151816001019080519060200190611054929190611977565b506040820151816002019080519060200190611071929190611977565b50606082015181600301908051906020019061108e9291906119fd565b509050507fc127163e194edd469d13210787466a0adb629f336e45d1fc7bc4e2797805615e816040516110c1919061208e565b60405180910390a15050565b60046020528060005260406000206000915090508060000154908060010180546110f690612339565b80601f016020809104026020016040519081016040528092919081815260200182805461112290612339565b801561116f5780601f106111445761010080835404028352916020019161116f565b820191906000526020600020905b81548152906001019060200180831161115257829003601f168201915b50505050509080600201805461118490612339565b80601f01602080910402602001604051908101604052809291908181526020018280546111b090612339565b80156111fd5780601f106111d2576101008083540402835291602001916111fd565b820191906000526020600020905b8154815290600101906020018083116111e057829003601f168201915b5050505050905083565b61120f611ad0565b8142446040516020016112249392919061202e565b6040516020818303038152906040528051906020012060001c816000018181525050818160200181905250600067ffffffffffffffff81111561126a57611269612443565b5b6040519080825280602002602001820160405280156112985781602001602082028036833780820191505090505b5081604001819052508060066000836000015181526020019081526020016000206000820151816000015560208201518160010190805190602001906112df929190611977565b5060408201518160020190805190602001906112fc9291906119fd565b509050507f3f3d80dc5c883417f8997fef692ba50e4f4f4762e620926e80d9aed3b08b89d08160405161132f9190612102565b60405180910390a15050565b611343611a72565b600160008381526020019081526020016000206040518060c00160405290816000820154815260200160018201805461137b90612339565b80601f01602080910402602001604051908101604052809291908181526020018280546113a790612339565b80156113f45780601f106113c9576101008083540402835291602001916113f4565b820191906000526020600020905b8154815290600101906020018083116113d757829003601f168201915b505050505081526020016002820154815260200160038201805461141790612339565b80601f016020809104026020016040519081016040528092919081815260200182805461144390612339565b80156114905780601f1061146557610100808354040283529160200191611490565b820191906000526020600020905b81548152906001019060200180831161147357829003601f168201915b505050505081526020016004820180546114a990612339565b80601f01602080910402602001604051908101604052809291908181526020018280546114d590612339565b80156115225780601f106114f757610100808354040283529160200191611522565b820191906000526020600020905b81548152906001019060200180831161150557829003601f168201915b505050505081526020016005820154815250509050919050565b611544611aa8565b600460008381526020019081526020016000206040518060800160405290816000820154815260200160018201805461157c90612339565b80601f01602080910402602001604051908101604052809291908181526020018280546115a890612339565b80156115f55780601f106115ca576101008083540402835291602001916115f5565b820191906000526020600020905b8154815290600101906020018083116115d857829003601f168201915b5050505050815260200160028201805461160e90612339565b80601f016020809104026020016040519081016040528092919081815260200182805461163a90612339565b80156116875780601f1061165c57610100808354040283529160200191611687565b820191906000526020600020905b81548152906001019060200180831161166a57829003601f168201915b50505050508152602001600382018054806020026020016040519081016040528092919081815260200182805480156116df57602002820191906000526020600020905b8154815260200190600101908083116116cb575b5050505050815250509050919050565b6116f7611ad0565b600660008381526020019081526020016000206040518060600160405290816000820154815260200160018201805461172f90612339565b80601f016020809104026020016040519081016040528092919081815260200182805461175b90612339565b80156117a85780601f1061177d576101008083540402835291602001916117a8565b820191906000526020600020905b81548152906001019060200180831161178b57829003601f168201915b505050505081526020016002820180548060200260200160405190810160405280929190818152602001828054801561180057602002820191906000526020600020905b8154815260200190600101908083116117ec575b5050505050815250509050919050565b600360205280600052604060002060009150905080600001549080600101805461183990612339565b80601f016020809104026020016040519081016040528092919081815260200182805461186590612339565b80156118b25780601f10611887576101008083540402835291602001916118b2565b820191906000526020600020905b81548152906001019060200180831161189557829003601f168201915b5050505050908060020180546118c790612339565b80601f01602080910402602001604051908101604052809291908181526020018280546118f390612339565b80156119405780601f1061191557610100808354040283529160200191611940565b820191906000526020600020905b81548152906001019060200180831161192357829003601f168201915b5050505050905083565b505050565b6040518060800160405280600081526020016060815260200160608152602001606081525090565b82805461198390612339565b90600052602060002090601f0160209004810192826119a557600085556119ec565b82601f106119be57805160ff19168380011785556119ec565b828001600101855582156119ec579182015b828111156119eb5782518255916020019190600101906119d0565b5b5090506119f99190611af1565b5090565b828054828255906000526020600020908101928215611a39579160200282015b82811115611a38578251825591602001919060010190611a1d565b5b509050611a469190611af1565b5090565b6040518060800160405280600081526020016060815260200160608152602001606081525090565b6040518060c001604052806000815260200160608152602001600081526020016060815260200160608152602001600081525090565b6040518060800160405280600081526020016060815260200160608152602001606081525090565b60405180606001604052806000815260200160608152602001606081525090565b5b80821115611b0a576000816000905550600101611af2565b5090565b6000611b21611b1c84612256565b612231565b905082815260208101848484011115611b3d57611b3c612477565b5b611b488482856122f7565b509392505050565b600082601f830112611b6557611b64612472565b5b8135611b75848260208601611b0e565b91505092915050565b600081359050611b8d81612497565b92915050565b600060208284031215611ba957611ba8612481565b5b600082013567ffffffffffffffff811115611bc757611bc661247c565b5b611bd384828501611b50565b91505092915050565b600080600060608486031215611bf557611bf4612481565b5b600084013567ffffffffffffffff811115611c1357611c1261247c565b5b611c1f86828701611b50565b9350506020611c3086828701611b7e565b925050604084013567ffffffffffffffff811115611c5157611c5061247c565b5b611c5d86828701611b50565b9150509250925092565b600060208284031215611c7d57611c7c612481565b5b6000611c8b84828501611b7e565b91505092915050565b600080600060608486031215611cad57611cac612481565b5b6000611cbb86828701611b7e565b9350506020611ccc86828701611b7e565b9250506040611cdd86828701611b7e565b9150509250925092565b6000611cf38383612010565b60208301905092915050565b6000611d0a82612297565b611d1481856122ba565b9350611d1f83612287565b8060005b83811015611d50578151611d378882611ce7565b9750611d42836122ad565b925050600181019050611d23565b5085935050505092915050565b6000611d68826122a2565b611d7281856122cb565b9350611d82818560208601612306565b611d8b81612486565b840191505092915050565b6000611da1826122a2565b611dab81856122dc565b9350611dbb818560208601612306565b611dc481612486565b840191505092915050565b6000608083016000830151611de76000860182612010565b5060208301518482036020860152611dff8282611d5d565b91505060408301518482036040860152611e198282611d5d565b91505060608301518482036060860152611e338282611cff565b9150508091505092915050565b6000608083016000830151611e586000860182612010565b5060208301518482036020860152611e708282611d5d565b91505060408301518482036040860152611e8a8282611d5d565b91505060608301518482036060860152611ea48282611cff565b9150508091505092915050565b600060c083016000830151611ec96000860182612010565b5060208301518482036020860152611ee18282611d5d565b9150506040830151611ef66040860182612010565b5060608301518482036060860152611f0e8282611d5d565b91505060808301518482036080860152611f288282611d5d565b91505060a0830151611f3d60a0860182612010565b508091505092915050565b6000606083016000830151611f606000860182612010565b5060208301518482036020860152611f788282611d5d565b91505060408301518482036040860152611f928282611cff565b9150508091505092915050565b6000608083016000830151611fb76000860182612010565b5060208301518482036020860152611fcf8282611d5d565b91505060408301518482036040860152611fe98282611d5d565b915050606083015184820360608601526120038282611cff565b9150508091505092915050565b612019816122ed565b82525050565b612028816122ed565b82525050565b600060608201905081810360008301526120488186611d96565b9050612057602083018561201f565b612064604083018461201f565b949350505050565b600060208201905081810360008301526120868184611dcf565b905092915050565b600060208201905081810360008301526120a88184611e40565b905092915050565b600060208201905081810360008301526120ca8184611eb1565b905092915050565b600060408201905081810360008301526120ec8185611eb1565b90506120fb602083018461201f565b9392505050565b6000602082019050818103600083015261211c8184611f48565b905092915050565b6000602082019050818103600083015261213e8184611f9f565b905092915050565b600060408201905061215b600083018561201f565b818103602083015261216d8184611d96565b90509392505050565b600060608201905061218b600083018661201f565b818103602083015261219d8185611d96565b905081810360408301526121b18184611d96565b9050949350505050565b600060c0820190506121d0600083018961201f565b81810360208301526121e28188611d96565b90506121f1604083018761201f565b81810360608301526122038186611d96565b905081810360808301526122178185611d96565b905061222660a083018461201f565b979650505050505050565b600061223b61224c565b9050612247828261236b565b919050565b6000604051905090565b600067ffffffffffffffff82111561227157612270612443565b5b61227a82612486565b9050602081019050919050565b6000819050602082019050919050565b600081519050919050565b600081519050919050565b6000602082019050919050565b600082825260208201905092915050565b600082825260208201905092915050565b600082825260208201905092915050565b6000819050919050565b82818337600083830152505050565b60005b83811015612324578082015181840152602081019050612309565b83811115612333576000848401525b50505050565b6000600282049050600182168061235157607f821691505b6020821081141561236557612364612414565b5b50919050565b61237482612486565b810181811067ffffffffffffffff8211171561239357612392612443565b5b80604052505050565b60006123a7826122ed565b91507fffffffffffffffffffffffffffffffffffffffffffffffffffffffffffffffff8214156123da576123d96123e5565b5b600182019050919050565b7f4e487b7100000000000000000000000000000000000000000000000000000000600052601160045260246000fd5b7f4e487b7100000000000000000000000000000000000000000000000000000000600052602260045260246000fd5b7f4e487b7100000000000000000000000000000000000000000000000000000000600052604160045260246000fd5b600080fd5b600080fd5b600080fd5b600080fd5b6000601f19601f8301169050919050565b6124a0816122ed565b81146124ab57600080fd5b5056fea264697066735822122080da4beccb6b4cada9bb347a8b9162f93cbba1dc249c990b2d8d59c08eda106f64736f6c63430008070033",
					"opcodes": "PUSH1 0x80 PUSH1 0x40 MSTORE CALLER PUSH1 0x0 DUP1 PUSH2 0x100 EXP DUP2 SLOAD DUP2 PUSH20 0xFFFFFFFFFFFFFFFFFFFFFFFFFFFFFFFFFFFFFFFF MUL NOT AND SWAP1 DUP4 PUSH20 0xFFFFFFFFFFFFFFFFFFFFFFFFFFFFFFFFFFFFFFFF AND MUL OR SWAP1 SSTORE POP PUSH1 0x0 PUSH1 0x2 SSTORE CALLVALUE DUP1 ISZERO PUSH2 0x55 JUMPI PUSH1 0x0 DUP1 REVERT JUMPDEST POP PUSH2 0x24E4 DUP1 PUSH2 0x65 PUSH1 0x0 CODECOPY PUSH1 0x0 RETURN INVALID PUSH1 0x80 PUSH1 0x40 MSTORE CALLVALUE DUP1 ISZERO PUSH2 0x10 JUMPI PUSH1 0x0 DUP1 REVERT JUMPDEST POP PUSH1 0x4 CALLDATASIZE LT PUSH2 0x100 JUMPI PUSH1 0x0 CALLDATALOAD PUSH1 0xE0 SHR DUP1 PUSH4 0x8F5AE799 GT PUSH2 0x97 JUMPI DUP1 PUSH4 0xCB80C419 GT PUSH2 0x66 JUMPI DUP1 PUSH4 0xCB80C419 EQ PUSH2 0x2EB JUMPI DUP1 PUSH4 0xCDA5E4A5 EQ PUSH2 0x31B JUMPI DUP1 PUSH4 0xCEA23121 EQ PUSH2 0x34B JUMPI DUP1 PUSH4 0xF032EDEC EQ PUSH2 0x37D JUMPI PUSH2 0x100 JUMP JUMPDEST DUP1 PUSH4 0x8F5AE799 EQ PUSH2 0x251 JUMPI DUP1 PUSH4 0x90175AF1 EQ PUSH2 0x26D JUMPI DUP1 PUSH4 0x95D00407 EQ PUSH2 0x29F JUMPI DUP1 PUSH4 0xB9DB15B4 EQ PUSH2 0x2BB JUMPI PUSH2 0x100 JUMP JUMPDEST DUP1 PUSH4 0x7ACC0B20 GT PUSH2 0xD3 JUMPI DUP1 PUSH4 0x7ACC0B20 EQ PUSH2 0x1B3 JUMPI DUP1 PUSH4 0x81D9DEF2 EQ PUSH2 0x1E8 JUMPI DUP1 PUSH4 0x897EC7DF EQ PUSH2 0x204 JUMPI DUP1 PUSH4 0x8F29695A EQ PUSH2 0x235 JUMPI PUSH2 0x100 JUMP JUMPDEST DUP1 PUSH4 0x15533A27 EQ PUSH2 0x105 JUMPI DUP1 PUSH4 0x333F3DD0 EQ PUSH2 0x121 JUMPI DUP1 PUSH4 0x3779643F EQ PUSH2 0x151 JUMPI DUP1 PUSH4 0x50B492BA EQ PUSH2 0x181 JUMPI JUMPDEST PUSH1 0x0 DUP1 REVERT JUMPDEST PUSH2 0x11F PUSH1 0x4 DUP1 CALLDATASIZE SUB DUP2 ADD SWAP1 PUSH2 0x11A SWAP2 SWAP1 PUSH2 0x1B93 JUMP JUMPDEST PUSH2 0x399 JUMP JUMPDEST STOP JUMPDEST PUSH2 0x13B PUSH1 0x4 DUP1 CALLDATASIZE SUB DUP2 ADD SWAP1 PUSH2 0x136 SWAP2 SWAP1 PUSH2 0x1C67 JUMP JUMPDEST PUSH2 0x528 JUMP JUMPDEST PUSH1 0x40 MLOAD PUSH2 0x148 SWAP2 SWAP1 PUSH2 0x206C JUMP JUMPDEST PUSH1 0x40 MLOAD DUP1 SWAP2 SUB SWAP1 RETURN JUMPDEST PUSH2 0x16B PUSH1 0x4 DUP1 CALLDATASIZE SUB DUP2 ADD SWAP1 PUSH2 0x166 SWAP2 SWAP1 PUSH2 0x1C67 JUMP JUMPDEST PUSH2 0x6DB JUMP JUMPDEST PUSH1 0x40 MLOAD PUSH2 0x178 SWAP2 SWAP1 PUSH2 0x2124 JUMP JUMPDEST PUSH1 0x40 MLOAD DUP1 SWAP2 SUB SWAP1 RETURN JUMPDEST PUSH2 0x19B PUSH1 0x4 DUP1 CALLDATASIZE SUB DUP2 ADD SWAP1 PUSH2 0x196 SWAP2 SWAP1 PUSH2 0x1C67 JUMP JUMPDEST PUSH2 0x88E JUMP JUMPDEST PUSH1 0x40 MLOAD PUSH2 0x1AA SWAP4 SWAP3 SWAP2 SWAP1 PUSH2 0x2176 JUMP JUMPDEST PUSH1 0x40 MLOAD DUP1 SWAP2 SUB SWAP1 RETURN JUMPDEST PUSH2 0x1CD PUSH1 0x4 DUP1 CALLDATASIZE SUB DUP2 ADD SWAP1 PUSH2 0x1C8 SWAP2 SWAP1 PUSH2 0x1C67 JUMP JUMPDEST PUSH2 0x9C8 JUMP JUMPDEST PUSH1 0x40 MLOAD PUSH2 0x1DF SWAP7 SWAP6 SWAP5 SWAP4 SWAP3 SWAP2 SWAP1 PUSH2 0x21BB JUMP JUMPDEST PUSH1 0x40 MLOAD DUP1 SWAP2 SUB SWAP1 RETURN JUMPDEST PUSH2 0x202 PUSH1 0x4 DUP1 CALLDATASIZE SUB DUP2 ADD SWAP1 PUSH2 0x1FD SWAP2 SWAP1 PUSH2 0x1B93 JUMP JUMPDEST PUSH2 0xB9C JUMP JUMPDEST STOP JUMPDEST PUSH2 0x21E PUSH1 0x4 DUP1 CALLDATASIZE SUB DUP2 ADD SWAP1 PUSH2 0x219 SWAP2 SWAP1 PUSH2 0x1C67 JUMP JUMPDEST PUSH2 0xD2B JUMP JUMPDEST PUSH1 0x40 MLOAD PUSH2 0x22C SWAP3 SWAP2 SWAP1 PUSH2 0x2146 JUMP JUMPDEST PUSH1 0x40 MLOAD DUP1 SWAP2 SUB SWAP1 RETURN JUMPDEST PUSH2 0x24F PUSH1 0x4 DUP1 CALLDATASIZE SUB DUP2 ADD SWAP1 PUSH2 0x24A SWAP2 SWAP1 PUSH2 0x1BDC JUMP JUMPDEST PUSH2 0xDD7 JUMP JUMPDEST STOP JUMPDEST PUSH2 0x26B PUSH1 0x4 DUP1 CALLDATASIZE SUB DUP2 ADD SWAP1 PUSH2 0x266 SWAP2 SWAP1 PUSH2 0x1B93 JUMP JUMPDEST PUSH2 0xF3E JUMP JUMPDEST STOP JUMPDEST PUSH2 0x287 PUSH1 0x4 DUP1 CALLDATASIZE SUB DUP2 ADD SWAP1 PUSH2 0x282 SWAP2 SWAP1 PUSH2 0x1C67 JUMP JUMPDEST PUSH2 0x10CD JUMP JUMPDEST PUSH1 0x40 MLOAD PUSH2 0x296 SWAP4 SWAP3 SWAP2 SWAP1 PUSH2 0x2176 JUMP JUMPDEST PUSH1 0x40 MLOAD DUP1 SWAP2 SUB SWAP1 RETURN JUMPDEST PUSH2 0x2B9 PUSH1 0x4 DUP1 CALLDATASIZE SUB DUP2 ADD SWAP1 PUSH2 0x2B4 SWAP2 SWAP1 PUSH2 0x1B93 JUMP JUMPDEST PUSH2 0x1207 JUMP JUMPDEST STOP JUMPDEST PUSH2 0x2D5 PUSH1 0x4 DUP1 CALLDATASIZE SUB DUP2 ADD SWAP1 PUSH2 0x2D0 SWAP2 SWAP1 PUSH2 0x1C67 JUMP JUMPDEST PUSH2 0x133B JUMP JUMPDEST PUSH1 0x40 MLOAD PUSH2 0x2E2 SWAP2 SWAP1 PUSH2 0x20B0 JUMP JUMPDEST PUSH1 0x40 MLOAD DUP1 SWAP2 SUB SWAP1 RETURN JUMPDEST PUSH2 0x305 PUSH1 0x4 DUP1 CALLDATASIZE SUB DUP2 ADD SWAP1 PUSH2 0x300 SWAP2 SWAP1 PUSH2 0x1C67 JUMP JUMPDEST PUSH2 0x153C JUMP JUMPDEST PUSH1 0x40 MLOAD PUSH2 0x312 SWAP2 SWAP1 PUSH2 0x208E JUMP JUMPDEST PUSH1 0x40 MLOAD DUP1 SWAP2 SUB SWAP1 RETURN JUMPDEST PUSH2 0x335 PUSH1 0x4 DUP1 CALLDATASIZE SUB DUP2 ADD SWAP1 PUSH2 0x330 SWAP2 SWAP1 PUSH2 0x1C67 JUMP JUMPDEST PUSH2 0x16EF JUMP JUMPDEST PUSH1 0x40 MLOAD PUSH2 0x342 SWAP2 SWAP1 PUSH2 0x2102 JUMP JUMPDEST PUSH1 0x40 MLOAD DUP1 SWAP2 SUB SWAP1 RETURN JUMPDEST PUSH2 0x365 PUSH1 0x4 DUP1 CALLDATASIZE SUB DUP2 ADD SWAP1 PUSH2 0x360 SWAP2 SWAP1 PUSH2 0x1C67 JUMP JUMPDEST PUSH2 0x1810 JUMP JUMPDEST PUSH1 0x40 MLOAD PUSH2 0x374 SWAP4 SWAP3 SWAP2 SWAP1 PUSH2 0x2176 JUMP JUMPDEST PUSH1 0x40 MLOAD DUP1 SWAP2 SUB SWAP1 RETURN JUMPDEST PUSH2 0x397 PUSH1 0x4 DUP1 CALLDATASIZE SUB DUP2 ADD SWAP1 PUSH2 0x392 SWAP2 SWAP1 PUSH2 0x1C94 JUMP JUMPDEST PUSH2 0x194A JUMP JUMPDEST STOP JUMPDEST PUSH2 0x3A1 PUSH2 0x194F JUMP JUMPDEST DUP2 TIMESTAMP DIFFICULTY PUSH1 0x40 MLOAD PUSH1 0x20 ADD PUSH2 0x3B6 SWAP4 SWAP3 SWAP2 SWAP1 PUSH2 0x202E JUMP JUMPDEST PUSH1 0x40 MLOAD PUSH1 0x20 DUP2 DUP4 SUB SUB DUP2 MSTORE SWAP1 PUSH1 0x40 MSTORE DUP1 MLOAD SWAP1 PUSH1 0x20 ADD KECCAK256 PUSH1 0x0 SHR DUP2 PUSH1 0x0 ADD DUP2 DUP2 MSTORE POP POP PUSH1 0x40 MLOAD DUP1 PUSH1 0x40 ADD PUSH1 0x40 MSTORE DUP1 PUSH1 0x2 DUP2 MSTORE PUSH1 0x20 ADD PUSH32 0x5355000000000000000000000000000000000000000000000000000000000000 DUP2 MSTORE POP DUP2 PUSH1 0x20 ADD DUP2 SWAP1 MSTORE POP DUP2 DUP2 PUSH1 0x40 ADD DUP2 SWAP1 MSTORE POP PUSH1 0x0 PUSH8 0xFFFFFFFFFFFFFFFF DUP2 GT ISZERO PUSH2 0x43A JUMPI PUSH2 0x439 PUSH2 0x2443 JUMP JUMPDEST JUMPDEST PUSH1 0x40 MLOAD SWAP1 DUP1 DUP3 MSTORE DUP1 PUSH1 0x20 MUL PUSH1 0x20 ADD DUP3 ADD PUSH1 0x40 MSTORE DUP1 ISZERO PUSH2 0x468 JUMPI DUP2 PUSH1 0x20 ADD PUSH1 0x20 DUP3 MUL DUP1 CALLDATASIZE DUP4 CALLDATACOPY DUP1 DUP3 ADD SWAP2 POP POP SWAP1 POP JUMPDEST POP DUP2 PUSH1 0x60 ADD DUP2 SWAP1 MSTORE POP DUP1 PUSH1 0x3 PUSH1 0x0 DUP4 PUSH1 0x0 ADD MLOAD DUP2 MSTORE PUSH1 0x20 ADD SWAP1 DUP2 MSTORE PUSH1 0x20 ADD PUSH1 0x0 KECCAK256 PUSH1 0x0 DUP3 ADD MLOAD DUP2 PUSH1 0x0 ADD SSTORE PUSH1 0x20 DUP3 ADD MLOAD DUP2 PUSH1 0x1 ADD SWAP1 DUP1 MLOAD SWAP1 PUSH1 0x20 ADD SWAP1 PUSH2 0x4AF SWAP3 SWAP2 SWAP1 PUSH2 0x1977 JUMP JUMPDEST POP PUSH1 0x40 DUP3 ADD MLOAD DUP2 PUSH1 0x2 ADD SWAP1 DUP1 MLOAD SWAP1 PUSH1 0x20 ADD SWAP1 PUSH2 0x4CC SWAP3 SWAP2 SWAP1 PUSH2 0x1977 JUMP JUMPDEST POP PUSH1 0x60 DUP3 ADD MLOAD DUP2 PUSH1 0x3 ADD SWAP1 DUP1 MLOAD SWAP1 PUSH1 0x20 ADD SWAP1 PUSH2 0x4E9 SWAP3 SWAP2 SWAP1 PUSH2 0x19FD JUMP JUMPDEST POP SWAP1 POP POP PUSH32 0xE2879159E80C92C57341E91920C4B1AF102EEBAB99C1ECA0E8A3C081FBF95BA DUP2 PUSH1 0x40 MLOAD PUSH2 0x51C SWAP2 SWAP1 PUSH2 0x2124 JUMP JUMPDEST PUSH1 0x40 MLOAD DUP1 SWAP2 SUB SWAP1 LOG1 POP POP JUMP JUMPDEST PUSH2 0x530 PUSH2 0x1A4A JUMP JUMPDEST PUSH1 0x5 PUSH1 0x0 DUP4 DUP2 MSTORE PUSH1 0x20 ADD SWAP1 DUP2 MSTORE PUSH1 0x20 ADD PUSH1 0x0 KECCAK256 PUSH1 0x40 MLOAD DUP1 PUSH1 0x80 ADD PUSH1 0x40 MSTORE SWAP1 DUP2 PUSH1 0x0 DUP3 ADD SLOAD DUP2 MSTORE PUSH1 0x20 ADD PUSH1 0x1 DUP3 ADD DUP1 SLOAD PUSH2 0x568 SWAP1 PUSH2 0x2339 JUMP JUMPDEST DUP1 PUSH1 0x1F ADD PUSH1 0x20 DUP1 SWAP2 DIV MUL PUSH1 0x20 ADD PUSH1 0x40 MLOAD SWAP1 DUP2 ADD PUSH1 0x40 MSTORE DUP1 SWAP3 SWAP2 SWAP1 DUP2 DUP2 MSTORE PUSH1 0x20 ADD DUP3 DUP1 SLOAD PUSH2 0x594 SWAP1 PUSH2 0x2339 JUMP JUMPDEST DUP1 ISZERO PUSH2 0x5E1 JUMPI DUP1 PUSH1 0x1F LT PUSH2 0x5B6 JUMPI PUSH2 0x100 DUP1 DUP4 SLOAD DIV MUL DUP4 MSTORE SWAP2 PUSH1 0x20 ADD SWAP2 PUSH2 0x5E1 JUMP JUMPDEST DUP3 ADD SWAP2 SWAP1 PUSH1 0x0 MSTORE PUSH1 0x20 PUSH1 0x0 KECCAK256 SWAP1 JUMPDEST DUP2 SLOAD DUP2 MSTORE SWAP1 PUSH1 0x1 ADD SWAP1 PUSH1 0x20 ADD DUP1 DUP4 GT PUSH2 0x5C4 JUMPI DUP3 SWAP1 SUB PUSH1 0x1F AND DUP3 ADD SWAP2 JUMPDEST POP POP POP POP POP DUP2 MSTORE PUSH1 0x20 ADD PUSH1 0x2 DUP3 ADD DUP1 SLOAD PUSH2 0x5FA SWAP1 PUSH2 0x2339 JUMP JUMPDEST DUP1 PUSH1 0x1F ADD PUSH1 0x20 DUP1 SWAP2 DIV MUL PUSH1 0x20 ADD PUSH1 0x40 MLOAD SWAP1 DUP2 ADD PUSH1 0x40 MSTORE DUP1 SWAP3 SWAP2 SWAP1 DUP2 DUP2 MSTORE PUSH1 0x20 ADD DUP3 DUP1 SLOAD PUSH2 0x626 SWAP1 PUSH2 0x2339 JUMP JUMPDEST DUP1 ISZERO PUSH2 0x673 JUMPI DUP1 PUSH1 0x1F LT PUSH2 0x648 JUMPI PUSH2 0x100 DUP1 DUP4 SLOAD DIV MUL DUP4 MSTORE SWAP2 PUSH1 0x20 ADD SWAP2 PUSH2 0x673 JUMP JUMPDEST DUP3 ADD SWAP2 SWAP1 PUSH1 0x0 MSTORE PUSH1 0x20 PUSH1 0x0 KECCAK256 SWAP1 JUMPDEST DUP2 SLOAD DUP2 MSTORE SWAP1 PUSH1 0x1 ADD SWAP1 PUSH1 0x20 ADD DUP1 DUP4 GT PUSH2 0x656 JUMPI DUP3 SWAP1 SUB PUSH1 0x1F AND DUP3 ADD SWAP2 JUMPDEST POP POP POP POP POP DUP2 MSTORE PUSH1 0x20 ADD PUSH1 0x3 DUP3 ADD DUP1 SLOAD DUP1 PUSH1 0x20 MUL PUSH1 0x20 ADD PUSH1 0x40 MLOAD SWAP1 DUP2 ADD PUSH1 0x40 MSTORE DUP1 SWAP3 SWAP2 SWAP1 DUP2 DUP2 MSTORE PUSH1 0x20 ADD DUP3 DUP1 SLOAD DUP1 ISZERO PUSH2 0x6CB JUMPI PUSH1 0x20 MUL DUP3 ADD SWAP2 SWAP1 PUSH1 0x0 MSTORE PUSH1 0x20 PUSH1 0x0 KECCAK256 SWAP1 JUMPDEST DUP2 SLOAD DUP2 MSTORE PUSH1 0x20 ADD SWAP1 PUSH1 0x1 ADD SWAP1 DUP1 DUP4 GT PUSH2 0x6B7 JUMPI JUMPDEST POP POP POP POP POP DUP2 MSTORE POP POP SWAP1 POP SWAP2 SWAP1 POP JUMP JUMPDEST PUSH2 0x6E3 PUSH2 0x194F JUMP JUMPDEST PUSH1 0x3 PUSH1 0x0 DUP4 DUP2 MSTORE PUSH1 0x20 ADD SWAP1 DUP2 MSTORE PUSH1 0x20 ADD PUSH1 0x0 KECCAK256 PUSH1 0x40 MLOAD DUP1 PUSH1 0x80 ADD PUSH1 0x40 MSTORE SWAP1 DUP2 PUSH1 0x0 DUP3 ADD SLOAD DUP2 MSTORE PUSH1 0x20 ADD PUSH1 0x1 DUP3 ADD DUP1 SLOAD PUSH2 0x71B SWAP1 PUSH2 0x2339 JUMP JUMPDEST DUP1 PUSH1 0x1F ADD PUSH1 0x20 DUP1 SWAP2 DIV MUL PUSH1 0x20 ADD PUSH1 0x40 MLOAD SWAP1 DUP2 ADD PUSH1 0x40 MSTORE DUP1 SWAP3 SWAP2 SWAP1 DUP2 DUP2 MSTORE PUSH1 0x20 ADD DUP3 DUP1 SLOAD PUSH2 0x747 SWAP1 PUSH2 0x2339 JUMP JUMPDEST DUP1 ISZERO PUSH2 0x794 JUMPI DUP1 PUSH1 0x1F LT PUSH2 0x769 JUMPI PUSH2 0x100 DUP1 DUP4 SLOAD DIV MUL DUP4 MSTORE SWAP2 PUSH1 0x20 ADD SWAP2 PUSH2 0x794 JUMP JUMPDEST DUP3 ADD SWAP2 SWAP1 PUSH1 0x0 MSTORE PUSH1 0x20 PUSH1 0x0 KECCAK256 SWAP1 JUMPDEST DUP2 SLOAD DUP2 MSTORE SWAP1 PUSH1 0x1 ADD SWAP1 PUSH1 0x20 ADD DUP1 DUP4 GT PUSH2 0x777 JUMPI DUP3 SWAP1 SUB PUSH1 0x1F AND DUP3 ADD SWAP2 JUMPDEST POP POP POP POP POP DUP2 MSTORE PUSH1 0x20 ADD PUSH1 0x2 DUP3 ADD DUP1 SLOAD PUSH2 0x7AD SWAP1 PUSH2 0x2339 JUMP JUMPDEST DUP1 PUSH1 0x1F ADD PUSH1 0x20 DUP1 SWAP2 DIV MUL PUSH1 0x20 ADD PUSH1 0x40 MLOAD SWAP1 DUP2 ADD PUSH1 0x40 MSTORE DUP1 SWAP3 SWAP2 SWAP1 DUP2 DUP2 MSTORE PUSH1 0x20 ADD DUP3 DUP1 SLOAD PUSH2 0x7D9 SWAP1 PUSH2 0x2339 JUMP JUMPDEST DUP1 ISZERO PUSH2 0x826 JUMPI DUP1 PUSH1 0x1F LT PUSH2 0x7FB JUMPI PUSH2 0x100 DUP1 DUP4 SLOAD DIV MUL DUP4 MSTORE SWAP2 PUSH1 0x20 ADD SWAP2 PUSH2 0x826 JUMP JUMPDEST DUP3 ADD SWAP2 SWAP1 PUSH1 0x0 MSTORE PUSH1 0x20 PUSH1 0x0 KECCAK256 SWAP1 JUMPDEST DUP2 SLOAD DUP2 MSTORE SWAP1 PUSH1 0x1 ADD SWAP1 PUSH1 0x20 ADD DUP1 DUP4 GT PUSH2 0x809 JUMPI DUP3 SWAP1 SUB PUSH1 0x1F AND DUP3 ADD SWAP2 JUMPDEST POP POP POP POP POP DUP2 MSTORE PUSH1 0x20 ADD PUSH1 0x3 DUP3 ADD DUP1 SLOAD DUP1 PUSH1 0x20 MUL PUSH1 0x20 ADD PUSH1 0x40 MLOAD SWAP1 DUP2 ADD PUSH1 0x40 MSTORE DUP1 SWAP3 SWAP2 SWAP1 DUP2 DUP2 MSTORE PUSH1 0x20 ADD DUP3 DUP1 SLOAD DUP1 ISZERO PUSH2 0x87E JUMPI PUSH1 0x20 MUL DUP3 ADD SWAP2 SWAP1 PUSH1 0x0 MSTORE PUSH1 0x20 PUSH1 0x0 KECCAK256 SWAP1 JUMPDEST DUP2 SLOAD DUP2 MSTORE PUSH1 0x20 ADD SWAP1 PUSH1 0x1 ADD SWAP1 DUP1 DUP4 GT PUSH2 0x86A JUMPI JUMPDEST POP POP POP POP POP DUP2 MSTORE POP POP SWAP1 POP SWAP2 SWAP1 POP JUMP JUMPDEST PUSH1 0x5 PUSH1 0x20 MSTORE DUP1 PUSH1 0x0 MSTORE PUSH1 0x40 PUSH1 0x0 KECCAK256 PUSH1 0x0 SWAP2 POP SWAP1 POP DUP1 PUSH1 0x0 ADD SLOAD SWAP1 DUP1 PUSH1 0x1 ADD DUP1 SLOAD PUSH2 0x8B7 SWAP1 PUSH2 0x2339 JUMP JUMPDEST DUP1 PUSH1 0x1F ADD PUSH1 0x20 DUP1 SWAP2 DIV MUL PUSH1 0x20 ADD PUSH1 0x40 MLOAD SWAP1 DUP2 ADD PUSH1 0x40 MSTORE DUP1 SWAP3 SWAP2 SWAP1 DUP2 DUP2 MSTORE PUSH1 0x20 ADD DUP3 DUP1 SLOAD PUSH2 0x8E3 SWAP1 PUSH2 0x2339 JUMP JUMPDEST DUP1 ISZERO PUSH2 0x930 JUMPI DUP1 PUSH1 0x1F LT PUSH2 0x905 JUMPI PUSH2 0x100 DUP1 DUP4 SLOAD DIV MUL DUP4 MSTORE SWAP2 PUSH1 0x20 ADD SWAP2 PUSH2 0x930 JUMP JUMPDEST DUP3 ADD SWAP2 SWAP1 PUSH1 0x0 MSTORE PUSH1 0x20 PUSH1 0x0 KECCAK256 SWAP1 JUMPDEST DUP2 SLOAD DUP2 MSTORE SWAP1 PUSH1 0x1 ADD SWAP1 PUSH1 0x20 ADD DUP1 DUP4 GT PUSH2 0x913 JUMPI DUP3 SWAP1 SUB PUSH1 0x1F AND DUP3 ADD SWAP2 JUMPDEST POP POP POP POP POP SWAP1 DUP1 PUSH1 0x2 ADD DUP1 SLOAD PUSH2 0x945 SWAP1 PUSH2 0x2339 JUMP JUMPDEST DUP1 PUSH1 0x1F ADD PUSH1 0x20 DUP1 SWAP2 DIV MUL PUSH1 0x20 ADD PUSH1 0x40 MLOAD SWAP1 DUP2 ADD PUSH1 0x40 MSTORE DUP1 SWAP3 SWAP2 SWAP1 DUP2 DUP2 MSTORE PUSH1 0x20 ADD DUP3 DUP1 SLOAD PUSH2 0x971 SWAP1 PUSH2 0x2339 JUMP JUMPDEST DUP1 ISZERO PUSH2 0x9BE JUMPI DUP1 PUSH1 0x1F LT PUSH2 0x993 JUMPI PUSH2 0x100 DUP1 DUP4 SLOAD DIV MUL DUP4 MSTORE SWAP2 PUSH1 0x20 ADD SWAP2 PUSH2 0x9BE JUMP JUMPDEST DUP3 ADD SWAP2 SWAP1 PUSH1 0x0 MSTORE PUSH1 0x20 PUSH1 0x0 KECCAK256 SWAP1 JUMPDEST DUP2 SLOAD DUP2 MSTORE SWAP1 PUSH1 0x1 ADD SWAP1 PUSH1 0x20 ADD DUP1 DUP4 GT PUSH2 0x9A1 JUMPI DUP3 SWAP1 SUB PUSH1 0x1F AND DUP3 ADD SWAP2 JUMPDEST POP POP POP POP POP SWAP1 POP DUP4 JUMP JUMPDEST PUSH1 0x1 PUSH1 0x20 MSTORE DUP1 PUSH1 0x0 MSTORE PUSH1 0x40 PUSH1 0x0 KECCAK256 PUSH1 0x0 SWAP2 POP SWAP1 POP DUP1 PUSH1 0x0 ADD SLOAD SWAP1 DUP1 PUSH1 0x1 ADD DUP1 SLOAD PUSH2 0x9F1 SWAP1 PUSH2 0x2339 JUMP JUMPDEST DUP1 PUSH1 0x1F ADD PUSH1 0x20 DUP1 SWAP2 DIV MUL PUSH1 0x20 ADD PUSH1 0x40 MLOAD SWAP1 DUP2 ADD PUSH1 0x40 MSTORE DUP1 SWAP3 SWAP2 SWAP1 DUP2 DUP2 MSTORE PUSH1 0x20 ADD DUP3 DUP1 SLOAD PUSH2 0xA1D SWAP1 PUSH2 0x2339 JUMP JUMPDEST DUP1 ISZERO PUSH2 0xA6A JUMPI DUP1 PUSH1 0x1F LT PUSH2 0xA3F JUMPI PUSH2 0x100 DUP1 DUP4 SLOAD DIV MUL DUP4 MSTORE SWAP2 PUSH1 0x20 ADD SWAP2 PUSH2 0xA6A JUMP JUMPDEST DUP3 ADD SWAP2 SWAP1 PUSH1 0x0 MSTORE PUSH1 0x20 PUSH1 0x0 KECCAK256 SWAP1 JUMPDEST DUP2 SLOAD DUP2 MSTORE SWAP1 PUSH1 0x1 ADD SWAP1 PUSH1 0x20 ADD DUP1 DUP4 GT PUSH2 0xA4D JUMPI DUP3 SWAP1 SUB PUSH1 0x1F AND DUP3 ADD SWAP2 JUMPDEST POP POP POP POP POP SWAP1 DUP1 PUSH1 0x2 ADD SLOAD SWAP1 DUP1 PUSH1 0x3 ADD DUP1 SLOAD PUSH2 0xA85 SWAP1 PUSH2 0x2339 JUMP JUMPDEST DUP1 PUSH1 0x1F ADD PUSH1 0x20 DUP1 SWAP2 DIV MUL PUSH1 0x20 ADD PUSH1 0x40 MLOAD SWAP1 DUP2 ADD PUSH1 0x40 MSTORE DUP1 SWAP3 SWAP2 SWAP1 DUP2 DUP2 MSTORE PUSH1 0x20 ADD DUP3 DUP1 SLOAD PUSH2 0xAB1 SWAP1 PUSH2 0x2339 JUMP JUMPDEST DUP1 ISZERO PUSH2 0xAFE JUMPI DUP1 PUSH1 0x1F LT PUSH2 0xAD3 JUMPI PUSH2 0x100 DUP1 DUP4 SLOAD DIV MUL DUP4 MSTORE SWAP2 PUSH1 0x20 ADD SWAP2 PUSH2 0xAFE JUMP JUMPDEST DUP3 ADD SWAP2 SWAP1 PUSH1 0x0 MSTORE PUSH1 0x20 PUSH1 0x0 KECCAK256 SWAP1 JUMPDEST DUP2 SLOAD DUP2 MSTORE SWAP1 PUSH1 0x1 ADD SWAP1 PUSH1 0x20 ADD DUP1 DUP4 GT PUSH2 0xAE1 JUMPI DUP3 SWAP1 SUB PUSH1 0x1F AND DUP3 ADD SWAP2 JUMPDEST POP POP POP POP POP SWAP1 DUP1 PUSH1 0x4 ADD DUP1 SLOAD PUSH2 0xB13 SWAP1 PUSH2 0x2339 JUMP JUMPDEST DUP1 PUSH1 0x1F ADD PUSH1 0x20 DUP1 SWAP2 DIV MUL PUSH1 0x20 ADD PUSH1 0x40 MLOAD SWAP1 DUP2 ADD PUSH1 0x40 MSTORE DUP1 SWAP3 SWAP2 SWAP1 DUP2 DUP2 MSTORE PUSH1 0x20 ADD DUP3 DUP1 SLOAD PUSH2 0xB3F SWAP1 PUSH2 0x2339 JUMP JUMPDEST DUP1 ISZERO PUSH2 0xB8C JUMPI DUP1 PUSH1 0x1F LT PUSH2 0xB61 JUMPI PUSH2 0x100 DUP1 DUP4 SLOAD DIV MUL DUP4 MSTORE SWAP2 PUSH1 0x20 ADD SWAP2 PUSH2 0xB8C JUMP JUMPDEST DUP3 ADD SWAP2 SWAP1 PUSH1 0x0 MSTORE PUSH1 0x20 PUSH1 0x0 KECCAK256 SWAP1 JUMPDEST DUP2 SLOAD DUP2 MSTORE SWAP1 PUSH1 0x1 ADD SWAP1 PUSH1 0x20 ADD DUP1 DUP4 GT PUSH2 0xB6F JUMPI DUP3 SWAP1 SUB PUSH1 0x1F AND DUP3 ADD SWAP2 JUMPDEST POP POP POP POP POP SWAP1 DUP1 PUSH1 0x5 ADD SLOAD SWAP1 POP DUP7 JUMP JUMPDEST PUSH2 0xBA4 PUSH2 0x1A4A JUMP JUMPDEST DUP2 TIMESTAMP DIFFICULTY PUSH1 0x40 MLOAD PUSH1 0x20 ADD PUSH2 0xBB9 SWAP4 SWAP3 SWAP2 SWAP1 PUSH2 0x202E JUMP JUMPDEST PUSH1 0x40 MLOAD PUSH1 0x20 DUP2 DUP4 SUB SUB DUP2 MSTORE SWAP1 PUSH1 0x40 MSTORE DUP1 MLOAD SWAP1 PUSH1 0x20 ADD KECCAK256 PUSH1 0x0 SHR DUP2 PUSH1 0x0 ADD DUP2 DUP2 MSTORE POP POP PUSH1 0x40 MLOAD DUP1 PUSH1 0x40 ADD PUSH1 0x40 MSTORE DUP1 PUSH1 0x2 DUP2 MSTORE PUSH1 0x20 ADD PUSH32 0x4449000000000000000000000000000000000000000000000000000000000000 DUP2 MSTORE POP DUP2 PUSH1 0x20 ADD DUP2 SWAP1 MSTORE POP DUP2 DUP2 PUSH1 0x40 ADD DUP2 SWAP1 MSTORE POP PUSH1 0x0 PUSH8 0xFFFFFFFFFFFFFFFF DUP2 GT ISZERO PUSH2 0xC3D JUMPI PUSH2 0xC3C PUSH2 0x2443 JUMP JUMPDEST JUMPDEST PUSH1 0x40 MLOAD SWAP1 DUP1 DUP3 MSTORE DUP1 PUSH1 0x20 MUL PUSH1 0x20 ADD DUP3 ADD PUSH1 0x40 MSTORE DUP1 ISZERO PUSH2 0xC6B JUMPI DUP2 PUSH1 0x20 ADD PUSH1 0x20 DUP3 MUL DUP1 CALLDATASIZE DUP4 CALLDATACOPY DUP1 DUP3 ADD SWAP2 POP POP SWAP1 POP JUMPDEST POP DUP2 PUSH1 0x60 ADD DUP2 SWAP1 MSTORE POP DUP1 PUSH1 0x5 PUSH1 0x0 DUP4 PUSH1 0x0 ADD MLOAD DUP2 MSTORE PUSH1 0x20 ADD SWAP1 DUP2 MSTORE PUSH1 0x20 ADD PUSH1 0x0 KECCAK256 PUSH1 0x0 DUP3 ADD MLOAD DUP2 PUSH1 0x0 ADD SSTORE PUSH1 0x20 DUP3 ADD MLOAD DUP2 PUSH1 0x1 ADD SWAP1 DUP1 MLOAD SWAP1 PUSH1 0x20 ADD SWAP1 PUSH2 0xCB2 SWAP3 SWAP2 SWAP1 PUSH2 0x1977 JUMP JUMPDEST POP PUSH1 0x40 DUP3 ADD MLOAD DUP2 PUSH1 0x2 ADD SWAP1 DUP1 MLOAD SWAP1 PUSH1 0x20 ADD SWAP1 PUSH2 0xCCF SWAP3 SWAP2 SWAP1 PUSH2 0x1977 JUMP JUMPDEST POP PUSH1 0x60 DUP3 ADD MLOAD DUP2 PUSH1 0x3 ADD SWAP1 DUP1 MLOAD SWAP1 PUSH1 0x20 ADD SWAP1 PUSH2 0xCEC SWAP3 SWAP2 SWAP1 PUSH2 0x19FD JUMP JUMPDEST POP SWAP1 POP POP PUSH32 0x4FBE23D5058E501D2AC74E9B5146F125D6C6AE6C3475D9431498262E998EE8E0 DUP2 PUSH1 0x40 MLOAD PUSH2 0xD1F SWAP2 SWAP1 PUSH2 0x206C JUMP JUMPDEST PUSH1 0x40 MLOAD DUP1 SWAP2 SUB SWAP1 LOG1 POP POP JUMP JUMPDEST PUSH1 0x6 PUSH1 0x20 MSTORE DUP1 PUSH1 0x0 MSTORE PUSH1 0x40 PUSH1 0x0 KECCAK256 PUSH1 0x0 SWAP2 POP SWAP1 POP DUP1 PUSH1 0x0 ADD SLOAD SWAP1 DUP1 PUSH1 0x1 ADD DUP1 SLOAD PUSH2 0xD54 SWAP1 PUSH2 0x2339 JUMP JUMPDEST DUP1 PUSH1 0x1F ADD PUSH1 0x20 DUP1 SWAP2 DIV MUL PUSH1 0x20 ADD PUSH1 0x40 MLOAD SWAP1 DUP2 ADD PUSH1 0x40 MSTORE DUP1 SWAP3 SWAP2 SWAP1 DUP2 DUP2 MSTORE PUSH1 0x20 ADD DUP3 DUP1 SLOAD PUSH2 0xD80 SWAP1 PUSH2 0x2339 JUMP JUMPDEST DUP1 ISZERO PUSH2 0xDCD JUMPI DUP1 PUSH1 0x1F LT PUSH2 0xDA2 JUMPI PUSH2 0x100 DUP1 DUP4 SLOAD DIV MUL DUP4 MSTORE SWAP2 PUSH1 0x20 ADD SWAP2 PUSH2 0xDCD JUMP JUMPDEST DUP3 ADD SWAP2 SWAP1 PUSH1 0x0 MSTORE PUSH1 0x20 PUSH1 0x0 KECCAK256 SWAP1 JUMPDEST DUP2 SLOAD DUP2 MSTORE SWAP1 PUSH1 0x1 ADD SWAP1 PUSH1 0x20 ADD DUP1 DUP4 GT PUSH2 0xDB0 JUMPI DUP3 SWAP1 SUB PUSH1 0x1F AND DUP3 ADD SWAP2 JUMPDEST POP POP POP POP POP SWAP1 POP DUP3 JUMP JUMPDEST PUSH2 0xDDF PUSH2 0x1A72 JUMP JUMPDEST DUP4 TIMESTAMP DIFFICULTY PUSH1 0x40 MLOAD PUSH1 0x20 ADD PUSH2 0xDF4 SWAP4 SWAP3 SWAP2 SWAP1 PUSH2 0x202E JUMP JUMPDEST PUSH1 0x40 MLOAD PUSH1 0x20 DUP2 DUP4 SUB SUB DUP2 MSTORE SWAP1 PUSH1 0x40 MSTORE DUP1 MLOAD SWAP1 PUSH1 0x20 ADD KECCAK256 PUSH1 0x0 SHR DUP2 PUSH1 0x0 ADD DUP2 DUP2 MSTORE POP POP DUP4 DUP2 PUSH1 0x20 ADD DUP2 SWAP1 MSTORE POP DUP3 DUP2 PUSH1 0x40 ADD DUP2 DUP2 MSTORE POP POP DUP2 DUP2 PUSH1 0x60 ADD DUP2 SWAP1 MSTORE POP PUSH1 0x40 MLOAD DUP1 PUSH1 0x20 ADD PUSH1 0x40 MSTORE DUP1 PUSH1 0x0 DUP2 MSTORE POP DUP2 PUSH1 0x80 ADD DUP2 SWAP1 MSTORE POP PUSH1 0x0 DUP2 PUSH1 0xA0 ADD DUP2 DUP2 MSTORE POP POP DUP1 PUSH1 0x1 PUSH1 0x0 DUP4 PUSH1 0x0 ADD MLOAD DUP2 MSTORE PUSH1 0x20 ADD SWAP1 DUP2 MSTORE PUSH1 0x20 ADD PUSH1 0x0 KECCAK256 PUSH1 0x0 DUP3 ADD MLOAD DUP2 PUSH1 0x0 ADD SSTORE PUSH1 0x20 DUP3 ADD MLOAD DUP2 PUSH1 0x1 ADD SWAP1 DUP1 MLOAD SWAP1 PUSH1 0x20 ADD SWAP1 PUSH2 0xE93 SWAP3 SWAP2 SWAP1 PUSH2 0x1977 JUMP JUMPDEST POP PUSH1 0x40 DUP3 ADD MLOAD DUP2 PUSH1 0x2 ADD SSTORE PUSH1 0x60 DUP3 ADD MLOAD DUP2 PUSH1 0x3 ADD SWAP1 DUP1 MLOAD SWAP1 PUSH1 0x20 ADD SWAP1 PUSH2 0xEBA SWAP3 SWAP2 SWAP1 PUSH2 0x1977 JUMP JUMPDEST POP PUSH1 0x80 DUP3 ADD MLOAD DUP2 PUSH1 0x4 ADD SWAP1 DUP1 MLOAD SWAP1 PUSH1 0x20 ADD SWAP1 PUSH2 0xED7 SWAP3 SWAP2 SWAP1 PUSH2 0x1977 JUMP JUMPDEST POP PUSH1 0xA0 DUP3 ADD MLOAD DUP2 PUSH1 0x5 ADD SSTORE SWAP1 POP POP PUSH1 0x2 PUSH1 0x0 DUP2 SLOAD DUP1 SWAP3 SWAP2 SWAP1 PUSH2 0xEF8 SWAP1 PUSH2 0x239C JUMP JUMPDEST SWAP2 SWAP1 POP SSTORE POP PUSH32 0xB9650A646EAF16194343A0E5CF05C4A99CFBFFBF2A7630C4EAF6F3263A931D8 DUP2 PUSH1 0x2 SLOAD PUSH1 0x40 MLOAD PUSH2 0xF30 SWAP3 SWAP2 SWAP1 PUSH2 0x20D2 JUMP JUMPDEST PUSH1 0x40 MLOAD DUP1 SWAP2 SUB SWAP1 LOG1 POP POP POP POP JUMP JUMPDEST PUSH2 0xF46 PUSH2 0x1AA8 JUMP JUMPDEST DUP2 TIMESTAMP DIFFICULTY PUSH1 0x40 MLOAD PUSH1 0x20 ADD PUSH2 0xF5B SWAP4 SWAP3 SWAP2 SWAP1 PUSH2 0x202E JUMP JUMPDEST PUSH1 0x40 MLOAD PUSH1 0x20 DUP2 DUP4 SUB SUB DUP2 MSTORE SWAP1 PUSH1 0x40 MSTORE DUP1 MLOAD SWAP1 PUSH1 0x20 ADD KECCAK256 PUSH1 0x0 SHR DUP2 PUSH1 0x0 ADD DUP2 DUP2 MSTORE POP POP PUSH1 0x40 MLOAD DUP1 PUSH1 0x40 ADD PUSH1 0x40 MSTORE DUP1 PUSH1 0x2 DUP2 MSTORE PUSH1 0x20 ADD PUSH32 0x4D41000000000000000000000000000000000000000000000000000000000000 DUP2 MSTORE POP DUP2 PUSH1 0x20 ADD DUP2 SWAP1 MSTORE POP DUP2 DUP2 PUSH1 0x40 ADD DUP2 SWAP1 MSTORE POP PUSH1 0x0 PUSH8 0xFFFFFFFFFFFFFFFF DUP2 GT ISZERO PUSH2 0xFDF JUMPI PUSH2 0xFDE PUSH2 0x2443 JUMP JUMPDEST JUMPDEST PUSH1 0x40 MLOAD SWAP1 DUP1 DUP3 MSTORE DUP1 PUSH1 0x20 MUL PUSH1 0x20 ADD DUP3 ADD PUSH1 0x40 MSTORE DUP1 ISZERO PUSH2 0x100D JUMPI DUP2 PUSH1 0x20 ADD PUSH1 0x20 DUP3 MUL DUP1 CALLDATASIZE DUP4 CALLDATACOPY DUP1 DUP3 ADD SWAP2 POP POP SWAP1 POP JUMPDEST POP DUP2 PUSH1 0x60 ADD DUP2 SWAP1 MSTORE POP DUP1 PUSH1 0x4 PUSH1 0x0 DUP4 PUSH1 0x0 ADD MLOAD DUP2 MSTORE PUSH1 0x20 ADD SWAP1 DUP2 MSTORE PUSH1 0x20 ADD PUSH1 0x0 KECCAK256 PUSH1 0x0 DUP3 ADD MLOAD DUP2 PUSH1 0x0 ADD SSTORE PUSH1 0x20 DUP3 ADD MLOAD DUP2 PUSH1 0x1 ADD SWAP1 DUP1 MLOAD SWAP1 PUSH1 0x20 ADD SWAP1 PUSH2 0x1054 SWAP3 SWAP2 SWAP1 PUSH2 0x1977 JUMP JUMPDEST POP PUSH1 0x40 DUP3 ADD MLOAD DUP2 PUSH1 0x2 ADD SWAP1 DUP1 MLOAD SWAP1 PUSH1 0x20 ADD SWAP1 PUSH2 0x1071 SWAP3 SWAP2 SWAP1 PUSH2 0x1977 JUMP JUMPDEST POP PUSH1 0x60 DUP3 ADD MLOAD DUP2 PUSH1 0x3 ADD SWAP1 DUP1 MLOAD SWAP1 PUSH1 0x20 ADD SWAP1 PUSH2 0x108E SWAP3 SWAP2 SWAP1 PUSH2 0x19FD JUMP JUMPDEST POP SWAP1 POP POP PUSH32 0xC127163E194EDD469D13210787466A0ADB629F336E45D1FC7BC4E2797805615E DUP2 PUSH1 0x40 MLOAD PUSH2 0x10C1 SWAP2 SWAP1 PUSH2 0x208E JUMP JUMPDEST PUSH1 0x40 MLOAD DUP1 SWAP2 SUB SWAP1 LOG1 POP POP JUMP JUMPDEST PUSH1 0x4 PUSH1 0x20 MSTORE DUP1 PUSH1 0x0 MSTORE PUSH1 0x40 PUSH1 0x0 KECCAK256 PUSH1 0x0 SWAP2 POP SWAP1 POP DUP1 PUSH1 0x0 ADD SLOAD SWAP1 DUP1 PUSH1 0x1 ADD DUP1 SLOAD PUSH2 0x10F6 SWAP1 PUSH2 0x2339 JUMP JUMPDEST DUP1 PUSH1 0x1F ADD PUSH1 0x20 DUP1 SWAP2 DIV MUL PUSH1 0x20 ADD PUSH1 0x40 MLOAD SWAP1 DUP2 ADD PUSH1 0x40 MSTORE DUP1 SWAP3 SWAP2 SWAP1 DUP2 DUP2 MSTORE PUSH1 0x20 ADD DUP3 DUP1 SLOAD PUSH2 0x1122 SWAP1 PUSH2 0x2339 JUMP JUMPDEST DUP1 ISZERO PUSH2 0x116F JUMPI DUP1 PUSH1 0x1F LT PUSH2 0x1144 JUMPI PUSH2 0x100 DUP1 DUP4 SLOAD DIV MUL DUP4 MSTORE SWAP2 PUSH1 0x20 ADD SWAP2 PUSH2 0x116F JUMP JUMPDEST DUP3 ADD SWAP2 SWAP1 PUSH1 0x0 MSTORE PUSH1 0x20 PUSH1 0x0 KECCAK256 SWAP1 JUMPDEST DUP2 SLOAD DUP2 MSTORE SWAP1 PUSH1 0x1 ADD SWAP1 PUSH1 0x20 ADD DUP1 DUP4 GT PUSH2 0x1152 JUMPI DUP3 SWAP1 SUB PUSH1 0x1F AND DUP3 ADD SWAP2 JUMPDEST POP POP POP POP POP SWAP1 DUP1 PUSH1 0x2 ADD DUP1 SLOAD PUSH2 0x1184 SWAP1 PUSH2 0x2339 JUMP JUMPDEST DUP1 PUSH1 0x1F ADD PUSH1 0x20 DUP1 SWAP2 DIV MUL PUSH1 0x20 ADD PUSH1 0x40 MLOAD SWAP1 DUP2 ADD PUSH1 0x40 MSTORE DUP1 SWAP3 SWAP2 SWAP1 DUP2 DUP2 MSTORE PUSH1 0x20 ADD DUP3 DUP1 SLOAD PUSH2 0x11B0 SWAP1 PUSH2 0x2339 JUMP JUMPDEST DUP1 ISZERO PUSH2 0x11FD JUMPI DUP1 PUSH1 0x1F LT PUSH2 0x11D2 JUMPI PUSH2 0x100 DUP1 DUP4 SLOAD DIV MUL DUP4 MSTORE SWAP2 PUSH1 0x20 ADD SWAP2 PUSH2 0x11FD JUMP JUMPDEST DUP3 ADD SWAP2 SWAP1 PUSH1 0x0 MSTORE PUSH1 0x20 PUSH1 0x0 KECCAK256 SWAP1 JUMPDEST DUP2 SLOAD DUP2 MSTORE SWAP1 PUSH1 0x1 ADD SWAP1 PUSH1 0x20 ADD DUP1 DUP4 GT PUSH2 0x11E0 JUMPI DUP3 SWAP1 SUB PUSH1 0x1F AND DUP3 ADD SWAP2 JUMPDEST POP POP POP POP POP SWAP1 POP DUP4 JUMP JUMPDEST PUSH2 0x120F PUSH2 0x1AD0 JUMP JUMPDEST DUP2 TIMESTAMP DIFFICULTY PUSH1 0x40 MLOAD PUSH1 0x20 ADD PUSH2 0x1224 SWAP4 SWAP3 SWAP2 SWAP1 PUSH2 0x202E JUMP JUMPDEST PUSH1 0x40 MLOAD PUSH1 0x20 DUP2 DUP4 SUB SUB DUP2 MSTORE SWAP1 PUSH1 0x40 MSTORE DUP1 MLOAD SWAP1 PUSH1 0x20 ADD KECCAK256 PUSH1 0x0 SHR DUP2 PUSH1 0x0 ADD DUP2 DUP2 MSTORE POP POP DUP2 DUP2 PUSH1 0x20 ADD DUP2 SWAP1 MSTORE POP PUSH1 0x0 PUSH8 0xFFFFFFFFFFFFFFFF DUP2 GT ISZERO PUSH2 0x126A JUMPI PUSH2 0x1269 PUSH2 0x2443 JUMP JUMPDEST JUMPDEST PUSH1 0x40 MLOAD SWAP1 DUP1 DUP3 MSTORE DUP1 PUSH1 0x20 MUL PUSH1 0x20 ADD DUP3 ADD PUSH1 0x40 MSTORE DUP1 ISZERO PUSH2 0x1298 JUMPI DUP2 PUSH1 0x20 ADD PUSH1 0x20 DUP3 MUL DUP1 CALLDATASIZE DUP4 CALLDATACOPY DUP1 DUP3 ADD SWAP2 POP POP SWAP1 POP JUMPDEST POP DUP2 PUSH1 0x40 ADD DUP2 SWAP1 MSTORE POP DUP1 PUSH1 0x6 PUSH1 0x0 DUP4 PUSH1 0x0 ADD MLOAD DUP2 MSTORE PUSH1 0x20 ADD SWAP1 DUP2 MSTORE PUSH1 0x20 ADD PUSH1 0x0 KECCAK256 PUSH1 0x0 DUP3 ADD MLOAD DUP2 PUSH1 0x0 ADD SSTORE PUSH1 0x20 DUP3 ADD MLOAD DUP2 PUSH1 0x1 ADD SWAP1 DUP1 MLOAD SWAP1 PUSH1 0x20 ADD SWAP1 PUSH2 0x12DF SWAP3 SWAP2 SWAP1 PUSH2 0x1977 JUMP JUMPDEST POP PUSH1 0x40 DUP3 ADD MLOAD DUP2 PUSH1 0x2 ADD SWAP1 DUP1 MLOAD SWAP1 PUSH1 0x20 ADD SWAP1 PUSH2 0x12FC SWAP3 SWAP2 SWAP1 PUSH2 0x19FD JUMP JUMPDEST POP SWAP1 POP POP PUSH32 0x3F3D80DC5C883417F8997FEF692BA50E4F4F4762E620926E80D9AED3B08B89D0 DUP2 PUSH1 0x40 MLOAD PUSH2 0x132F SWAP2 SWAP1 PUSH2 0x2102 JUMP JUMPDEST PUSH1 0x40 MLOAD DUP1 SWAP2 SUB SWAP1 LOG1 POP POP JUMP JUMPDEST PUSH2 0x1343 PUSH2 0x1A72 JUMP JUMPDEST PUSH1 0x1 PUSH1 0x0 DUP4 DUP2 MSTORE PUSH1 0x20 ADD SWAP1 DUP2 MSTORE PUSH1 0x20 ADD PUSH1 0x0 KECCAK256 PUSH1 0x40 MLOAD DUP1 PUSH1 0xC0 ADD PUSH1 0x40 MSTORE SWAP1 DUP2 PUSH1 0x0 DUP3 ADD SLOAD DUP2 MSTORE PUSH1 0x20 ADD PUSH1 0x1 DUP3 ADD DUP1 SLOAD PUSH2 0x137B SWAP1 PUSH2 0x2339 JUMP JUMPDEST DUP1 PUSH1 0x1F ADD PUSH1 0x20 DUP1 SWAP2 DIV MUL PUSH1 0x20 ADD PUSH1 0x40 MLOAD SWAP1 DUP2 ADD PUSH1 0x40 MSTORE DUP1 SWAP3 SWAP2 SWAP1 DUP2 DUP2 MSTORE PUSH1 0x20 ADD DUP3 DUP1 SLOAD PUSH2 0x13A7 SWAP1 PUSH2 0x2339 JUMP JUMPDEST DUP1 ISZERO PUSH2 0x13F4 JUMPI DUP1 PUSH1 0x1F LT PUSH2 0x13C9 JUMPI PUSH2 0x100 DUP1 DUP4 SLOAD DIV MUL DUP4 MSTORE SWAP2 PUSH1 0x20 ADD SWAP2 PUSH2 0x13F4 JUMP JUMPDEST DUP3 ADD SWAP2 SWAP1 PUSH1 0x0 MSTORE PUSH1 0x20 PUSH1 0x0 KECCAK256 SWAP1 JUMPDEST DUP2 SLOAD DUP2 MSTORE SWAP1 PUSH1 0x1 ADD SWAP1 PUSH1 0x20 ADD DUP1 DUP4 GT PUSH2 0x13D7 JUMPI DUP3 SWAP1 SUB PUSH1 0x1F AND DUP3 ADD SWAP2 JUMPDEST POP POP POP POP POP DUP2 MSTORE PUSH1 0x20 ADD PUSH1 0x2 DUP3 ADD SLOAD DUP2 MSTORE PUSH1 0x20 ADD PUSH1 0x3 DUP3 ADD DUP1 SLOAD PUSH2 0x1417 SWAP1 PUSH2 0x2339 JUMP JUMPDEST DUP1 PUSH1 0x1F ADD PUSH1 0x20 DUP1 SWAP2 DIV MUL PUSH1 0x20 ADD PUSH1 0x40 MLOAD SWAP1 DUP2 ADD PUSH1 0x40 MSTORE DUP1 SWAP3 SWAP2 SWAP1 DUP2 DUP2 MSTORE PUSH1 0x20 ADD DUP3 DUP1 SLOAD PUSH2 0x1443 SWAP1 PUSH2 0x2339 JUMP JUMPDEST DUP1 ISZERO PUSH2 0x1490 JUMPI DUP1 PUSH1 0x1F LT PUSH2 0x1465 JUMPI PUSH2 0x100 DUP1 DUP4 SLOAD DIV MUL DUP4 MSTORE SWAP2 PUSH1 0x20 ADD SWAP2 PUSH2 0x1490 JUMP JUMPDEST DUP3 ADD SWAP2 SWAP1 PUSH1 0x0 MSTORE PUSH1 0x20 PUSH1 0x0 KECCAK256 SWAP1 JUMPDEST DUP2 SLOAD DUP2 MSTORE SWAP1 PUSH1 0x1 ADD SWAP1 PUSH1 0x20 ADD DUP1 DUP4 GT PUSH2 0x1473 JUMPI DUP3 SWAP1 SUB PUSH1 0x1F AND DUP3 ADD SWAP2 JUMPDEST POP POP POP POP POP DUP2 MSTORE PUSH1 0x20 ADD PUSH1 0x4 DUP3 ADD DUP1 SLOAD PUSH2 0x14A9 SWAP1 PUSH2 0x2339 JUMP JUMPDEST DUP1 PUSH1 0x1F ADD PUSH1 0x20 DUP1 SWAP2 DIV MUL PUSH1 0x20 ADD PUSH1 0x40 MLOAD SWAP1 DUP2 ADD PUSH1 0x40 MSTORE DUP1 SWAP3 SWAP2 SWAP1 DUP2 DUP2 MSTORE PUSH1 0x20 ADD DUP3 DUP1 SLOAD PUSH2 0x14D5 SWAP1 PUSH2 0x2339 JUMP JUMPDEST DUP1 ISZERO PUSH2 0x1522 JUMPI DUP1 PUSH1 0x1F LT PUSH2 0x14F7 JUMPI PUSH2 0x100 DUP1 DUP4 SLOAD DIV MUL DUP4 MSTORE SWAP2 PUSH1 0x20 ADD SWAP2 PUSH2 0x1522 JUMP JUMPDEST DUP3 ADD SWAP2 SWAP1 PUSH1 0x0 MSTORE PUSH1 0x20 PUSH1 0x0 KECCAK256 SWAP1 JUMPDEST DUP2 SLOAD DUP2 MSTORE SWAP1 PUSH1 0x1 ADD SWAP1 PUSH1 0x20 ADD DUP1 DUP4 GT PUSH2 0x1505 JUMPI DUP3 SWAP1 SUB PUSH1 0x1F AND DUP3 ADD SWAP2 JUMPDEST POP POP POP POP POP DUP2 MSTORE PUSH1 0x20 ADD PUSH1 0x5 DUP3 ADD SLOAD DUP2 MSTORE POP POP SWAP1 POP SWAP2 SWAP1 POP JUMP JUMPDEST PUSH2 0x1544 PUSH2 0x1AA8 JUMP JUMPDEST PUSH1 0x4 PUSH1 0x0 DUP4 DUP2 MSTORE PUSH1 0x20 ADD SWAP1 DUP2 MSTORE PUSH1 0x20 ADD PUSH1 0x0 KECCAK256 PUSH1 0x40 MLOAD DUP1 PUSH1 0x80 ADD PUSH1 0x40 MSTORE SWAP1 DUP2 PUSH1 0x0 DUP3 ADD SLOAD DUP2 MSTORE PUSH1 0x20 ADD PUSH1 0x1 DUP3 ADD DUP1 SLOAD PUSH2 0x157C SWAP1 PUSH2 0x2339 JUMP JUMPDEST DUP1 PUSH1 0x1F ADD PUSH1 0x20 DUP1 SWAP2 DIV MUL PUSH1 0x20 ADD PUSH1 0x40 MLOAD SWAP1 DUP2 ADD PUSH1 0x40 MSTORE DUP1 SWAP3 SWAP2 SWAP1 DUP2 DUP2 MSTORE PUSH1 0x20 ADD DUP3 DUP1 SLOAD PUSH2 0x15A8 SWAP1 PUSH2 0x2339 JUMP JUMPDEST DUP1 ISZERO PUSH2 0x15F5 JUMPI DUP1 PUSH1 0x1F LT PUSH2 0x15CA JUMPI PUSH2 0x100 DUP1 DUP4 SLOAD DIV MUL DUP4 MSTORE SWAP2 PUSH1 0x20 ADD SWAP2 PUSH2 0x15F5 JUMP JUMPDEST DUP3 ADD SWAP2 SWAP1 PUSH1 0x0 MSTORE PUSH1 0x20 PUSH1 0x0 KECCAK256 SWAP1 JUMPDEST DUP2 SLOAD DUP2 MSTORE SWAP1 PUSH1 0x1 ADD SWAP1 PUSH1 0x20 ADD DUP1 DUP4 GT PUSH2 0x15D8 JUMPI DUP3 SWAP1 SUB PUSH1 0x1F AND DUP3 ADD SWAP2 JUMPDEST POP POP POP POP POP DUP2 MSTORE PUSH1 0x20 ADD PUSH1 0x2 DUP3 ADD DUP1 SLOAD PUSH2 0x160E SWAP1 PUSH2 0x2339 JUMP JUMPDEST DUP1 PUSH1 0x1F ADD PUSH1 0x20 DUP1 SWAP2 DIV MUL PUSH1 0x20 ADD PUSH1 0x40 MLOAD SWAP1 DUP2 ADD PUSH1 0x40 MSTORE DUP1 SWAP3 SWAP2 SWAP1 DUP2 DUP2 MSTORE PUSH1 0x20 ADD DUP3 DUP1 SLOAD PUSH2 0x163A SWAP1 PUSH2 0x2339 JUMP JUMPDEST DUP1 ISZERO PUSH2 0x1687 JUMPI DUP1 PUSH1 0x1F LT PUSH2 0x165C JUMPI PUSH2 0x100 DUP1 DUP4 SLOAD DIV MUL DUP4 MSTORE SWAP2 PUSH1 0x20 ADD SWAP2 PUSH2 0x1687 JUMP JUMPDEST DUP3 ADD SWAP2 SWAP1 PUSH1 0x0 MSTORE PUSH1 0x20 PUSH1 0x0 KECCAK256 SWAP1 JUMPDEST DUP2 SLOAD DUP2 MSTORE SWAP1 PUSH1 0x1 ADD SWAP1 PUSH1 0x20 ADD DUP1 DUP4 GT PUSH2 0x166A JUMPI DUP3 SWAP1 SUB PUSH1 0x1F AND DUP3 ADD SWAP2 JUMPDEST POP POP POP POP POP DUP2 MSTORE PUSH1 0x20 ADD PUSH1 0x3 DUP3 ADD DUP1 SLOAD DUP1 PUSH1 0x20 MUL PUSH1 0x20 ADD PUSH1 0x40 MLOAD SWAP1 DUP2 ADD PUSH1 0x40 MSTORE DUP1 SWAP3 SWAP2 SWAP1 DUP2 DUP2 MSTORE PUSH1 0x20 ADD DUP3 DUP1 SLOAD DUP1 ISZERO PUSH2 0x16DF JUMPI PUSH1 0x20 MUL DUP3 ADD SWAP2 SWAP1 PUSH1 0x0 MSTORE PUSH1 0x20 PUSH1 0x0 KECCAK256 SWAP1 JUMPDEST DUP2 SLOAD DUP2 MSTORE PUSH1 0x20 ADD SWAP1 PUSH1 0x1 ADD SWAP1 DUP1 DUP4 GT PUSH2 0x16CB JUMPI JUMPDEST POP POP POP POP POP DUP2 MSTORE POP POP SWAP1 POP SWAP2 SWAP1 POP JUMP JUMPDEST PUSH2 0x16F7 PUSH2 0x1AD0 JUMP JUMPDEST PUSH1 0x6 PUSH1 0x0 DUP4 DUP2 MSTORE PUSH1 0x20 ADD SWAP1 DUP2 MSTORE PUSH1 0x20 ADD PUSH1 0x0 KECCAK256 PUSH1 0x40 MLOAD DUP1 PUSH1 0x60 ADD PUSH1 0x40 MSTORE SWAP1 DUP2 PUSH1 0x0 DUP3 ADD SLOAD DUP2 MSTORE PUSH1 0x20 ADD PUSH1 0x1 DUP3 ADD DUP1 SLOAD PUSH2 0x172F SWAP1 PUSH2 0x2339 JUMP JUMPDEST DUP1 PUSH1 0x1F ADD PUSH1 0x20 DUP1 SWAP2 DIV MUL PUSH1 0x20 ADD PUSH1 0x40 MLOAD SWAP1 DUP2 ADD PUSH1 0x40 MSTORE DUP1 SWAP3 SWAP2 SWAP1 DUP2 DUP2 MSTORE PUSH1 0x20 ADD DUP3 DUP1 SLOAD PUSH2 0x175B SWAP1 PUSH2 0x2339 JUMP JUMPDEST DUP1 ISZERO PUSH2 0x17A8 JUMPI DUP1 PUSH1 0x1F LT PUSH2 0x177D JUMPI PUSH2 0x100 DUP1 DUP4 SLOAD DIV MUL DUP4 MSTORE SWAP2 PUSH1 0x20 ADD SWAP2 PUSH2 0x17A8 JUMP JUMPDEST DUP3 ADD SWAP2 SWAP1 PUSH1 0x0 MSTORE PUSH1 0x20 PUSH1 0x0 KECCAK256 SWAP1 JUMPDEST DUP2 SLOAD DUP2 MSTORE SWAP1 PUSH1 0x1 ADD SWAP1 PUSH1 0x20 ADD DUP1 DUP4 GT PUSH2 0x178B JUMPI DUP3 SWAP1 SUB PUSH1 0x1F AND DUP3 ADD SWAP2 JUMPDEST POP POP POP POP POP DUP2 MSTORE PUSH1 0x20 ADD PUSH1 0x2 DUP3 ADD DUP1 SLOAD DUP1 PUSH1 0x20 MUL PUSH1 0x20 ADD PUSH1 0x40 MLOAD SWAP1 DUP2 ADD PUSH1 0x40 MSTORE DUP1 SWAP3 SWAP2 SWAP1 DUP2 DUP2 MSTORE PUSH1 0x20 ADD DUP3 DUP1 SLOAD DUP1 ISZERO PUSH2 0x1800 JUMPI PUSH1 0x20 MUL DUP3 ADD SWAP2 SWAP1 PUSH1 0x0 MSTORE PUSH1 0x20 PUSH1 0x0 KECCAK256 SWAP1 JUMPDEST DUP2 SLOAD DUP2 MSTORE PUSH1 0x20 ADD SWAP1 PUSH1 0x1 ADD SWAP1 DUP1 DUP4 GT PUSH2 0x17EC JUMPI JUMPDEST POP POP POP POP POP DUP2 MSTORE POP POP SWAP1 POP SWAP2 SWAP1 POP JUMP JUMPDEST PUSH1 0x3 PUSH1 0x20 MSTORE DUP1 PUSH1 0x0 MSTORE PUSH1 0x40 PUSH1 0x0 KECCAK256 PUSH1 0x0 SWAP2 POP SWAP1 POP DUP1 PUSH1 0x0 ADD SLOAD SWAP1 DUP1 PUSH1 0x1 ADD DUP1 SLOAD PUSH2 0x1839 SWAP1 PUSH2 0x2339 JUMP JUMPDEST DUP1 PUSH1 0x1F ADD PUSH1 0x20 DUP1 SWAP2 DIV MUL PUSH1 0x20 ADD PUSH1 0x40 MLOAD SWAP1 DUP2 ADD PUSH1 0x40 MSTORE DUP1 SWAP3 SWAP2 SWAP1 DUP2 DUP2 MSTORE PUSH1 0x20 ADD DUP3 DUP1 SLOAD PUSH2 0x1865 SWAP1 PUSH2 0x2339 JUMP JUMPDEST DUP1 ISZERO PUSH2 0x18B2 JUMPI DUP1 PUSH1 0x1F LT PUSH2 0x1887 JUMPI PUSH2 0x100 DUP1 DUP4 SLOAD DIV MUL DUP4 MSTORE SWAP2 PUSH1 0x20 ADD SWAP2 PUSH2 0x18B2 JUMP JUMPDEST DUP3 ADD SWAP2 SWAP1 PUSH1 0x0 MSTORE PUSH1 0x20 PUSH1 0x0 KECCAK256 SWAP1 JUMPDEST DUP2 SLOAD DUP2 MSTORE SWAP1 PUSH1 0x1 ADD SWAP1 PUSH1 0x20 ADD DUP1 DUP4 GT PUSH2 0x1895 JUMPI DUP3 SWAP1 SUB PUSH1 0x1F AND DUP3 ADD SWAP2 JUMPDEST POP POP POP POP POP SWAP1 DUP1 PUSH1 0x2 ADD DUP1 SLOAD PUSH2 0x18C7 SWAP1 PUSH2 0x2339 JUMP JUMPDEST DUP1 PUSH1 0x1F ADD PUSH1 0x20 DUP1 SWAP2 DIV MUL PUSH1 0x20 ADD PUSH1 0x40 MLOAD SWAP1 DUP2 ADD PUSH1 0x40 MSTORE DUP1 SWAP3 SWAP2 SWAP1 DUP2 DUP2 MSTORE PUSH1 0x20 ADD DUP3 DUP1 SLOAD PUSH2 0x18F3 SWAP1 PUSH2 0x2339 JUMP JUMPDEST DUP1 ISZERO PUSH2 0x1940 JUMPI DUP1 PUSH1 0x1F LT PUSH2 0x1915 JUMPI PUSH2 0x100 DUP1 DUP4 SLOAD DIV MUL DUP4 MSTORE SWAP2 PUSH1 0x20 ADD SWAP2 PUSH2 0x1940 JUMP JUMPDEST DUP3 ADD SWAP2 SWAP1 PUSH1 0x0 MSTORE PUSH1 0x20 PUSH1 0x0 KECCAK256 SWAP1 JUMPDEST DUP2 SLOAD DUP2 MSTORE SWAP1 PUSH1 0x1 ADD SWAP1 PUSH1 0x20 ADD DUP1 DUP4 GT PUSH2 0x1923 JUMPI DUP3 SWAP1 SUB PUSH1 0x1F AND DUP3 ADD SWAP2 JUMPDEST POP POP POP POP POP SWAP1 POP DUP4 JUMP JUMPDEST POP POP POP JUMP JUMPDEST PUSH1 0x40 MLOAD DUP1 PUSH1 0x80 ADD PUSH1 0x40 MSTORE DUP1 PUSH1 0x0 DUP2 MSTORE PUSH1 0x20 ADD PUSH1 0x60 DUP2 MSTORE PUSH1 0x20 ADD PUSH1 0x60 DUP2 MSTORE PUSH1 0x20 ADD PUSH1 0x60 DUP2 MSTORE POP SWAP1 JUMP JUMPDEST DUP3 DUP1 SLOAD PUSH2 0x1983 SWAP1 PUSH2 0x2339 JUMP JUMPDEST SWAP1 PUSH1 0x0 MSTORE PUSH1 0x20 PUSH1 0x0 KECCAK256 SWAP1 PUSH1 0x1F ADD PUSH1 0x20 SWAP1 DIV DUP2 ADD SWAP3 DUP3 PUSH2 0x19A5 JUMPI PUSH1 0x0 DUP6 SSTORE PUSH2 0x19EC JUMP JUMPDEST DUP3 PUSH1 0x1F LT PUSH2 0x19BE JUMPI DUP1 MLOAD PUSH1 0xFF NOT AND DUP4 DUP1 ADD OR DUP6 SSTORE PUSH2 0x19EC JUMP JUMPDEST DUP3 DUP1 ADD PUSH1 0x1 ADD DUP6 SSTORE DUP3 ISZERO PUSH2 0x19EC JUMPI SWAP2 DUP3 ADD JUMPDEST DUP3 DUP2 GT ISZERO PUSH2 0x19EB JUMPI DUP3 MLOAD DUP3 SSTORE SWAP2 PUSH1 0x20 ADD SWAP2 SWAP1 PUSH1 0x1 ADD SWAP1 PUSH2 0x19D0 JUMP JUMPDEST JUMPDEST POP SWAP1 POP PUSH2 0x19F9 SWAP2 SWAP1 PUSH2 0x1AF1 JUMP JUMPDEST POP SWAP1 JUMP JUMPDEST DUP3 DUP1 SLOAD DUP3 DUP3 SSTORE SWAP1 PUSH1 0x0 MSTORE PUSH1 0x20 PUSH1 0x0 KECCAK256 SWAP1 DUP2 ADD SWAP3 DUP3 ISZERO PUSH2 0x1A39 JUMPI SWAP2 PUSH1 0x20 MUL DUP3 ADD JUMPDEST DUP3 DUP2 GT ISZERO PUSH2 0x1A38 JUMPI DUP3 MLOAD DUP3 SSTORE SWAP2 PUSH1 0x20 ADD SWAP2 SWAP1 PUSH1 0x1 ADD SWAP1 PUSH2 0x1A1D JUMP JUMPDEST JUMPDEST POP SWAP1 POP PUSH2 0x1A46 SWAP2 SWAP1 PUSH2 0x1AF1 JUMP JUMPDEST POP SWAP1 JUMP JUMPDEST PUSH1 0x40 MLOAD DUP1 PUSH1 0x80 ADD PUSH1 0x40 MSTORE DUP1 PUSH1 0x0 DUP2 MSTORE PUSH1 0x20 ADD PUSH1 0x60 DUP2 MSTORE PUSH1 0x20 ADD PUSH1 0x60 DUP2 MSTORE PUSH1 0x20 ADD PUSH1 0x60 DUP2 MSTORE POP SWAP1 JUMP JUMPDEST PUSH1 0x40 MLOAD DUP1 PUSH1 0xC0 ADD PUSH1 0x40 MSTORE DUP1 PUSH1 0x0 DUP2 MSTORE PUSH1 0x20 ADD PUSH1 0x60 DUP2 MSTORE PUSH1 0x20 ADD PUSH1 0x0 DUP2 MSTORE PUSH1 0x20 ADD PUSH1 0x60 DUP2 MSTORE PUSH1 0x20 ADD PUSH1 0x60 DUP2 MSTORE PUSH1 0x20 ADD PUSH1 0x0 DUP2 MSTORE POP SWAP1 JUMP JUMPDEST PUSH1 0x40 MLOAD DUP1 PUSH1 0x80 ADD PUSH1 0x40 MSTORE DUP1 PUSH1 0x0 DUP2 MSTORE PUSH1 0x20 ADD PUSH1 0x60 DUP2 MSTORE PUSH1 0x20 ADD PUSH1 0x60 DUP2 MSTORE PUSH1 0x20 ADD PUSH1 0x60 DUP2 MSTORE POP SWAP1 JUMP JUMPDEST PUSH1 0x40 MLOAD DUP1 PUSH1 0x60 ADD PUSH1 0x40 MSTORE DUP1 PUSH1 0x0 DUP2 MSTORE PUSH1 0x20 ADD PUSH1 0x60 DUP2 MSTORE PUSH1 0x20 ADD PUSH1 0x60 DUP2 MSTORE POP SWAP1 JUMP JUMPDEST JUMPDEST DUP1 DUP3 GT ISZERO PUSH2 0x1B0A JUMPI PUSH1 0x0 DUP2 PUSH1 0x0 SWAP1 SSTORE POP PUSH1 0x1 ADD PUSH2 0x1AF2 JUMP JUMPDEST POP SWAP1 JUMP JUMPDEST PUSH1 0x0 PUSH2 0x1B21 PUSH2 0x1B1C DUP5 PUSH2 0x2256 JUMP JUMPDEST PUSH2 0x2231 JUMP JUMPDEST SWAP1 POP DUP3 DUP2 MSTORE PUSH1 0x20 DUP2 ADD DUP5 DUP5 DUP5 ADD GT ISZERO PUSH2 0x1B3D JUMPI PUSH2 0x1B3C PUSH2 0x2477 JUMP JUMPDEST JUMPDEST PUSH2 0x1B48 DUP5 DUP3 DUP6 PUSH2 0x22F7 JUMP JUMPDEST POP SWAP4 SWAP3 POP POP POP JUMP JUMPDEST PUSH1 0x0 DUP3 PUSH1 0x1F DUP4 ADD SLT PUSH2 0x1B65 JUMPI PUSH2 0x1B64 PUSH2 0x2472 JUMP JUMPDEST JUMPDEST DUP2 CALLDATALOAD PUSH2 0x1B75 DUP5 DUP3 PUSH1 0x20 DUP7 ADD PUSH2 0x1B0E JUMP JUMPDEST SWAP2 POP POP SWAP3 SWAP2 POP POP JUMP JUMPDEST PUSH1 0x0 DUP2 CALLDATALOAD SWAP1 POP PUSH2 0x1B8D DUP2 PUSH2 0x2497 JUMP JUMPDEST SWAP3 SWAP2 POP POP JUMP JUMPDEST PUSH1 0x0 PUSH1 0x20 DUP3 DUP5 SUB SLT ISZERO PUSH2 0x1BA9 JUMPI PUSH2 0x1BA8 PUSH2 0x2481 JUMP JUMPDEST JUMPDEST PUSH1 0x0 DUP3 ADD CALLDATALOAD PUSH8 0xFFFFFFFFFFFFFFFF DUP2 GT ISZERO PUSH2 0x1BC7 JUMPI PUSH2 0x1BC6 PUSH2 0x247C JUMP JUMPDEST JUMPDEST PUSH2 0x1BD3 DUP5 DUP3 DUP6 ADD PUSH2 0x1B50 JUMP JUMPDEST SWAP2 POP POP SWAP3 SWAP2 POP POP JUMP JUMPDEST PUSH1 0x0 DUP1 PUSH1 0x0 PUSH1 0x60 DUP5 DUP7 SUB SLT ISZERO PUSH2 0x1BF5 JUMPI PUSH2 0x1BF4 PUSH2 0x2481 JUMP JUMPDEST JUMPDEST PUSH1 0x0 DUP5 ADD CALLDATALOAD PUSH8 0xFFFFFFFFFFFFFFFF DUP2 GT ISZERO PUSH2 0x1C13 JUMPI PUSH2 0x1C12 PUSH2 0x247C JUMP JUMPDEST JUMPDEST PUSH2 0x1C1F DUP7 DUP3 DUP8 ADD PUSH2 0x1B50 JUMP JUMPDEST SWAP4 POP POP PUSH1 0x20 PUSH2 0x1C30 DUP7 DUP3 DUP8 ADD PUSH2 0x1B7E JUMP JUMPDEST SWAP3 POP POP PUSH1 0x40 DUP5 ADD CALLDATALOAD PUSH8 0xFFFFFFFFFFFFFFFF DUP2 GT ISZERO PUSH2 0x1C51 JUMPI PUSH2 0x1C50 PUSH2 0x247C JUMP JUMPDEST JUMPDEST PUSH2 0x1C5D DUP7 DUP3 DUP8 ADD PUSH2 0x1B50 JUMP JUMPDEST SWAP2 POP POP SWAP3 POP SWAP3 POP SWAP3 JUMP JUMPDEST PUSH1 0x0 PUSH1 0x20 DUP3 DUP5 SUB SLT ISZERO PUSH2 0x1C7D JUMPI PUSH2 0x1C7C PUSH2 0x2481 JUMP JUMPDEST JUMPDEST PUSH1 0x0 PUSH2 0x1C8B DUP5 DUP3 DUP6 ADD PUSH2 0x1B7E JUMP JUMPDEST SWAP2 POP POP SWAP3 SWAP2 POP POP JUMP JUMPDEST PUSH1 0x0 DUP1 PUSH1 0x0 PUSH1 0x60 DUP5 DUP7 SUB SLT ISZERO PUSH2 0x1CAD JUMPI PUSH2 0x1CAC PUSH2 0x2481 JUMP JUMPDEST JUMPDEST PUSH1 0x0 PUSH2 0x1CBB DUP7 DUP3 DUP8 ADD PUSH2 0x1B7E JUMP JUMPDEST SWAP4 POP POP PUSH1 0x20 PUSH2 0x1CCC DUP7 DUP3 DUP8 ADD PUSH2 0x1B7E JUMP JUMPDEST SWAP3 POP POP PUSH1 0x40 PUSH2 0x1CDD DUP7 DUP3 DUP8 ADD PUSH2 0x1B7E JUMP JUMPDEST SWAP2 POP POP SWAP3 POP SWAP3 POP SWAP3 JUMP JUMPDEST PUSH1 0x0 PUSH2 0x1CF3 DUP4 DUP4 PUSH2 0x2010 JUMP JUMPDEST PUSH1 0x20 DUP4 ADD SWAP1 POP SWAP3 SWAP2 POP POP JUMP JUMPDEST PUSH1 0x0 PUSH2 0x1D0A DUP3 PUSH2 0x2297 JUMP JUMPDEST PUSH2 0x1D14 DUP2 DUP6 PUSH2 0x22BA JUMP JUMPDEST SWAP4 POP PUSH2 0x1D1F DUP4 PUSH2 0x2287 JUMP JUMPDEST DUP1 PUSH1 0x0 JUMPDEST DUP4 DUP2 LT ISZERO PUSH2 0x1D50 JUMPI DUP2 MLOAD PUSH2 0x1D37 DUP9 DUP3 PUSH2 0x1CE7 JUMP JUMPDEST SWAP8 POP PUSH2 0x1D42 DUP4 PUSH2 0x22AD JUMP JUMPDEST SWAP3 POP POP PUSH1 0x1 DUP2 ADD SWAP1 POP PUSH2 0x1D23 JUMP JUMPDEST POP DUP6 SWAP4 POP POP POP POP SWAP3 SWAP2 POP POP JUMP JUMPDEST PUSH1 0x0 PUSH2 0x1D68 DUP3 PUSH2 0x22A2 JUMP JUMPDEST PUSH2 0x1D72 DUP2 DUP6 PUSH2 0x22CB JUMP JUMPDEST SWAP4 POP PUSH2 0x1D82 DUP2 DUP6 PUSH1 0x20 DUP7 ADD PUSH2 0x2306 JUMP JUMPDEST PUSH2 0x1D8B DUP2 PUSH2 0x2486 JUMP JUMPDEST DUP5 ADD SWAP2 POP POP SWAP3 SWAP2 POP POP JUMP JUMPDEST PUSH1 0x0 PUSH2 0x1DA1 DUP3 PUSH2 0x22A2 JUMP JUMPDEST PUSH2 0x1DAB DUP2 DUP6 PUSH2 0x22DC JUMP JUMPDEST SWAP4 POP PUSH2 0x1DBB DUP2 DUP6 PUSH1 0x20 DUP7 ADD PUSH2 0x2306 JUMP JUMPDEST PUSH2 0x1DC4 DUP2 PUSH2 0x2486 JUMP JUMPDEST DUP5 ADD SWAP2 POP POP SWAP3 SWAP2 POP POP JUMP JUMPDEST PUSH1 0x0 PUSH1 0x80 DUP4 ADD PUSH1 0x0 DUP4 ADD MLOAD PUSH2 0x1DE7 PUSH1 0x0 DUP7 ADD DUP3 PUSH2 0x2010 JUMP JUMPDEST POP PUSH1 0x20 DUP4 ADD MLOAD DUP5 DUP3 SUB PUSH1 0x20 DUP7 ADD MSTORE PUSH2 0x1DFF DUP3 DUP3 PUSH2 0x1D5D JUMP JUMPDEST SWAP2 POP POP PUSH1 0x40 DUP4 ADD MLOAD DUP5 DUP3 SUB PUSH1 0x40 DUP7 ADD MSTORE PUSH2 0x1E19 DUP3 DUP3 PUSH2 0x1D5D JUMP JUMPDEST SWAP2 POP POP PUSH1 0x60 DUP4 ADD MLOAD DUP5 DUP3 SUB PUSH1 0x60 DUP7 ADD MSTORE PUSH2 0x1E33 DUP3 DUP3 PUSH2 0x1CFF JUMP JUMPDEST SWAP2 POP POP DUP1 SWAP2 POP POP SWAP3 SWAP2 POP POP JUMP JUMPDEST PUSH1 0x0 PUSH1 0x80 DUP4 ADD PUSH1 0x0 DUP4 ADD MLOAD PUSH2 0x1E58 PUSH1 0x0 DUP7 ADD DUP3 PUSH2 0x2010 JUMP JUMPDEST POP PUSH1 0x20 DUP4 ADD MLOAD DUP5 DUP3 SUB PUSH1 0x20 DUP7 ADD MSTORE PUSH2 0x1E70 DUP3 DUP3 PUSH2 0x1D5D JUMP JUMPDEST SWAP2 POP POP PUSH1 0x40 DUP4 ADD MLOAD DUP5 DUP3 SUB PUSH1 0x40 DUP7 ADD MSTORE PUSH2 0x1E8A DUP3 DUP3 PUSH2 0x1D5D JUMP JUMPDEST SWAP2 POP POP PUSH1 0x60 DUP4 ADD MLOAD DUP5 DUP3 SUB PUSH1 0x60 DUP7 ADD MSTORE PUSH2 0x1EA4 DUP3 DUP3 PUSH2 0x1CFF JUMP JUMPDEST SWAP2 POP POP DUP1 SWAP2 POP POP SWAP3 SWAP2 POP POP JUMP JUMPDEST PUSH1 0x0 PUSH1 0xC0 DUP4 ADD PUSH1 0x0 DUP4 ADD MLOAD PUSH2 0x1EC9 PUSH1 0x0 DUP7 ADD DUP3 PUSH2 0x2010 JUMP JUMPDEST POP PUSH1 0x20 DUP4 ADD MLOAD DUP5 DUP3 SUB PUSH1 0x20 DUP7 ADD MSTORE PUSH2 0x1EE1 DUP3 DUP3 PUSH2 0x1D5D JUMP JUMPDEST SWAP2 POP POP PUSH1 0x40 DUP4 ADD MLOAD PUSH2 0x1EF6 PUSH1 0x40 DUP7 ADD DUP3 PUSH2 0x2010 JUMP JUMPDEST POP PUSH1 0x60 DUP4 ADD MLOAD DUP5 DUP3 SUB PUSH1 0x60 DUP7 ADD MSTORE PUSH2 0x1F0E DUP3 DUP3 PUSH2 0x1D5D JUMP JUMPDEST SWAP2 POP POP PUSH1 0x80 DUP4 ADD MLOAD DUP5 DUP3 SUB PUSH1 0x80 DUP7 ADD MSTORE PUSH2 0x1F28 DUP3 DUP3 PUSH2 0x1D5D JUMP JUMPDEST SWAP2 POP POP PUSH1 0xA0 DUP4 ADD MLOAD PUSH2 0x1F3D PUSH1 0xA0 DUP7 ADD DUP3 PUSH2 0x2010 JUMP JUMPDEST POP DUP1 SWAP2 POP POP SWAP3 SWAP2 POP POP JUMP JUMPDEST PUSH1 0x0 PUSH1 0x60 DUP4 ADD PUSH1 0x0 DUP4 ADD MLOAD PUSH2 0x1F60 PUSH1 0x0 DUP7 ADD DUP3 PUSH2 0x2010 JUMP JUMPDEST POP PUSH1 0x20 DUP4 ADD MLOAD DUP5 DUP3 SUB PUSH1 0x20 DUP7 ADD MSTORE PUSH2 0x1F78 DUP3 DUP3 PUSH2 0x1D5D JUMP JUMPDEST SWAP2 POP POP PUSH1 0x40 DUP4 ADD MLOAD DUP5 DUP3 SUB PUSH1 0x40 DUP7 ADD MSTORE PUSH2 0x1F92 DUP3 DUP3 PUSH2 0x1CFF JUMP JUMPDEST SWAP2 POP POP DUP1 SWAP2 POP POP SWAP3 SWAP2 POP POP JUMP JUMPDEST PUSH1 0x0 PUSH1 0x80 DUP4 ADD PUSH1 0x0 DUP4 ADD MLOAD PUSH2 0x1FB7 PUSH1 0x0 DUP7 ADD DUP3 PUSH2 0x2010 JUMP JUMPDEST POP PUSH1 0x20 DUP4 ADD MLOAD DUP5 DUP3 SUB PUSH1 0x20 DUP7 ADD MSTORE PUSH2 0x1FCF DUP3 DUP3 PUSH2 0x1D5D JUMP JUMPDEST SWAP2 POP POP PUSH1 0x40 DUP4 ADD MLOAD DUP5 DUP3 SUB PUSH1 0x40 DUP7 ADD MSTORE PUSH2 0x1FE9 DUP3 DUP3 PUSH2 0x1D5D JUMP JUMPDEST SWAP2 POP POP PUSH1 0x60 DUP4 ADD MLOAD DUP5 DUP3 SUB PUSH1 0x60 DUP7 ADD MSTORE PUSH2 0x2003 DUP3 DUP3 PUSH2 0x1CFF JUMP JUMPDEST SWAP2 POP POP DUP1 SWAP2 POP POP SWAP3 SWAP2 POP POP JUMP JUMPDEST PUSH2 0x2019 DUP2 PUSH2 0x22ED JUMP JUMPDEST DUP3 MSTORE POP POP JUMP JUMPDEST PUSH2 0x2028 DUP2 PUSH2 0x22ED JUMP JUMPDEST DUP3 MSTORE POP POP JUMP JUMPDEST PUSH1 0x0 PUSH1 0x60 DUP3 ADD SWAP1 POP DUP2 DUP2 SUB PUSH1 0x0 DUP4 ADD MSTORE PUSH2 0x2048 DUP2 DUP7 PUSH2 0x1D96 JUMP JUMPDEST SWAP1 POP PUSH2 0x2057 PUSH1 0x20 DUP4 ADD DUP6 PUSH2 0x201F JUMP JUMPDEST PUSH2 0x2064 PUSH1 0x40 DUP4 ADD DUP5 PUSH2 0x201F JUMP JUMPDEST SWAP5 SWAP4 POP POP POP POP JUMP JUMPDEST PUSH1 0x0 PUSH1 0x20 DUP3 ADD SWAP1 POP DUP2 DUP2 SUB PUSH1 0x0 DUP4 ADD MSTORE PUSH2 0x2086 DUP2 DUP5 PUSH2 0x1DCF JUMP JUMPDEST SWAP1 POP SWAP3 SWAP2 POP POP JUMP JUMPDEST PUSH1 0x0 PUSH1 0x20 DUP3 ADD SWAP1 POP DUP2 DUP2 SUB PUSH1 0x0 DUP4 ADD MSTORE PUSH2 0x20A8 DUP2 DUP5 PUSH2 0x1E40 JUMP JUMPDEST SWAP1 POP SWAP3 SWAP2 POP POP JUMP JUMPDEST PUSH1 0x0 PUSH1 0x20 DUP3 ADD SWAP1 POP DUP2 DUP2 SUB PUSH1 0x0 DUP4 ADD MSTORE PUSH2 0x20CA DUP2 DUP5 PUSH2 0x1EB1 JUMP JUMPDEST SWAP1 POP SWAP3 SWAP2 POP POP JUMP JUMPDEST PUSH1 0x0 PUSH1 0x40 DUP3 ADD SWAP1 POP DUP2 DUP2 SUB PUSH1 0x0 DUP4 ADD MSTORE PUSH2 0x20EC DUP2 DUP6 PUSH2 0x1EB1 JUMP JUMPDEST SWAP1 POP PUSH2 0x20FB PUSH1 0x20 DUP4 ADD DUP5 PUSH2 0x201F JUMP JUMPDEST SWAP4 SWAP3 POP POP POP JUMP JUMPDEST PUSH1 0x0 PUSH1 0x20 DUP3 ADD SWAP1 POP DUP2 DUP2 SUB PUSH1 0x0 DUP4 ADD MSTORE PUSH2 0x211C DUP2 DUP5 PUSH2 0x1F48 JUMP JUMPDEST SWAP1 POP SWAP3 SWAP2 POP POP JUMP JUMPDEST PUSH1 0x0 PUSH1 0x20 DUP3 ADD SWAP1 POP DUP2 DUP2 SUB PUSH1 0x0 DUP4 ADD MSTORE PUSH2 0x213E DUP2 DUP5 PUSH2 0x1F9F JUMP JUMPDEST SWAP1 POP SWAP3 SWAP2 POP POP JUMP JUMPDEST PUSH1 0x0 PUSH1 0x40 DUP3 ADD SWAP1 POP PUSH2 0x215B PUSH1 0x0 DUP4 ADD DUP6 PUSH2 0x201F JUMP JUMPDEST DUP2 DUP2 SUB PUSH1 0x20 DUP4 ADD MSTORE PUSH2 0x216D DUP2 DUP5 PUSH2 0x1D96 JUMP JUMPDEST SWAP1 POP SWAP4 SWAP3 POP POP POP JUMP JUMPDEST PUSH1 0x0 PUSH1 0x60 DUP3 ADD SWAP1 POP PUSH2 0x218B PUSH1 0x0 DUP4 ADD DUP7 PUSH2 0x201F JUMP JUMPDEST DUP2 DUP2 SUB PUSH1 0x20 DUP4 ADD MSTORE PUSH2 0x219D DUP2 DUP6 PUSH2 0x1D96 JUMP JUMPDEST SWAP1 POP DUP2 DUP2 SUB PUSH1 0x40 DUP4 ADD MSTORE PUSH2 0x21B1 DUP2 DUP5 PUSH2 0x1D96 JUMP JUMPDEST SWAP1 POP SWAP5 SWAP4 POP POP POP POP JUMP JUMPDEST PUSH1 0x0 PUSH1 0xC0 DUP3 ADD SWAP1 POP PUSH2 0x21D0 PUSH1 0x0 DUP4 ADD DUP10 PUSH2 0x201F JUMP JUMPDEST DUP2 DUP2 SUB PUSH1 0x20 DUP4 ADD MSTORE PUSH2 0x21E2 DUP2 DUP9 PUSH2 0x1D96 JUMP JUMPDEST SWAP1 POP PUSH2 0x21F1 PUSH1 0x40 DUP4 ADD DUP8 PUSH2 0x201F JUMP JUMPDEST DUP2 DUP2 SUB PUSH1 0x60 DUP4 ADD MSTORE PUSH2 0x2203 DUP2 DUP7 PUSH2 0x1D96 JUMP JUMPDEST SWAP1 POP DUP2 DUP2 SUB PUSH1 0x80 DUP4 ADD MSTORE PUSH2 0x2217 DUP2 DUP6 PUSH2 0x1D96 JUMP JUMPDEST SWAP1 POP PUSH2 0x2226 PUSH1 0xA0 DUP4 ADD DUP5 PUSH2 0x201F JUMP JUMPDEST SWAP8 SWAP7 POP POP POP POP POP POP POP JUMP JUMPDEST PUSH1 0x0 PUSH2 0x223B PUSH2 0x224C JUMP JUMPDEST SWAP1 POP PUSH2 0x2247 DUP3 DUP3 PUSH2 0x236B JUMP JUMPDEST SWAP2 SWAP1 POP JUMP JUMPDEST PUSH1 0x0 PUSH1 0x40 MLOAD SWAP1 POP SWAP1 JUMP JUMPDEST PUSH1 0x0 PUSH8 0xFFFFFFFFFFFFFFFF DUP3 GT ISZERO PUSH2 0x2271 JUMPI PUSH2 0x2270 PUSH2 0x2443 JUMP JUMPDEST JUMPDEST PUSH2 0x227A DUP3 PUSH2 0x2486 JUMP JUMPDEST SWAP1 POP PUSH1 0x20 DUP2 ADD SWAP1 POP SWAP2 SWAP1 POP JUMP JUMPDEST PUSH1 0x0 DUP2 SWAP1 POP PUSH1 0x20 DUP3 ADD SWAP1 POP SWAP2 SWAP1 POP JUMP JUMPDEST PUSH1 0x0 DUP2 MLOAD SWAP1 POP SWAP2 SWAP1 POP JUMP JUMPDEST PUSH1 0x0 DUP2 MLOAD SWAP1 POP SWAP2 SWAP1 POP JUMP JUMPDEST PUSH1 0x0 PUSH1 0x20 DUP3 ADD SWAP1 POP SWAP2 SWAP1 POP JUMP JUMPDEST PUSH1 0x0 DUP3 DUP3 MSTORE PUSH1 0x20 DUP3 ADD SWAP1 POP SWAP3 SWAP2 POP POP JUMP JUMPDEST PUSH1 0x0 DUP3 DUP3 MSTORE PUSH1 0x20 DUP3 ADD SWAP1 POP SWAP3 SWAP2 POP POP JUMP JUMPDEST PUSH1 0x0 DUP3 DUP3 MSTORE PUSH1 0x20 DUP3 ADD SWAP1 POP SWAP3 SWAP2 POP POP JUMP JUMPDEST PUSH1 0x0 DUP2 SWAP1 POP SWAP2 SWAP1 POP JUMP JUMPDEST DUP3 DUP2 DUP4 CALLDATACOPY PUSH1 0x0 DUP4 DUP4 ADD MSTORE POP POP POP JUMP JUMPDEST PUSH1 0x0 JUMPDEST DUP4 DUP2 LT ISZERO PUSH2 0x2324 JUMPI DUP1 DUP3 ADD MLOAD DUP2 DUP5 ADD MSTORE PUSH1 0x20 DUP2 ADD SWAP1 POP PUSH2 0x2309 JUMP JUMPDEST DUP4 DUP2 GT ISZERO PUSH2 0x2333 JUMPI PUSH1 0x0 DUP5 DUP5 ADD MSTORE JUMPDEST POP POP POP POP JUMP JUMPDEST PUSH1 0x0 PUSH1 0x2 DUP3 DIV SWAP1 POP PUSH1 0x1 DUP3 AND DUP1 PUSH2 0x2351 JUMPI PUSH1 0x7F DUP3 AND SWAP2 POP JUMPDEST PUSH1 0x20 DUP3 LT DUP2 EQ ISZERO PUSH2 0x2365 JUMPI PUSH2 0x2364 PUSH2 0x2414 JUMP JUMPDEST JUMPDEST POP SWAP2 SWAP1 POP JUMP JUMPDEST PUSH2 0x2374 DUP3 PUSH2 0x2486 JUMP JUMPDEST DUP2 ADD DUP2 DUP2 LT PUSH8 0xFFFFFFFFFFFFFFFF DUP3 GT OR ISZERO PUSH2 0x2393 JUMPI PUSH2 0x2392 PUSH2 0x2443 JUMP JUMPDEST JUMPDEST DUP1 PUSH1 0x40 MSTORE POP POP POP JUMP JUMPDEST PUSH1 0x0 PUSH2 0x23A7 DUP3 PUSH2 0x22ED JUMP JUMPDEST SWAP2 POP PUSH32 0xFFFFFFFFFFFFFFFFFFFFFFFFFFFFFFFFFFFFFFFFFFFFFFFFFFFFFFFFFFFFFFFF DUP3 EQ ISZERO PUSH2 0x23DA JUMPI PUSH2 0x23D9 PUSH2 0x23E5 JUMP JUMPDEST JUMPDEST PUSH1 0x1 DUP3 ADD SWAP1 POP SWAP2 SWAP1 POP JUMP JUMPDEST PUSH32 0x4E487B7100000000000000000000000000000000000000000000000000000000 PUSH1 0x0 MSTORE PUSH1 0x11 PUSH1 0x4 MSTORE PUSH1 0x24 PUSH1 0x0 REVERT JUMPDEST PUSH32 0x4E487B7100000000000000000000000000000000000000000000000000000000 PUSH1 0x0 MSTORE PUSH1 0x22 PUSH1 0x4 MSTORE PUSH1 0x24 PUSH1 0x0 REVERT JUMPDEST PUSH32 0x4E487B7100000000000000000000000000000000000000000000000000000000 PUSH1 0x0 MSTORE PUSH1 0x41 PUSH1 0x4 MSTORE PUSH1 0x24 PUSH1 0x0 REVERT JUMPDEST PUSH1 0x0 DUP1 REVERT JUMPDEST PUSH1 0x0 DUP1 REVERT JUMPDEST PUSH1 0x0 DUP1 REVERT JUMPDEST PUSH1 0x0 DUP1 REVERT JUMPDEST PUSH1 0x0 PUSH1 0x1F NOT PUSH1 0x1F DUP4 ADD AND SWAP1 POP SWAP2 SWAP1 POP JUMP JUMPDEST PUSH2 0x24A0 DUP2 PUSH2 0x22ED JUMP JUMPDEST DUP2 EQ PUSH2 0x24AB JUMPI PUSH1 0x0 DUP1 REVERT JUMPDEST POP JUMP INVALID LOG2 PUSH5 0x6970667358 0x22 SLT KECCAK256 DUP1 0xDA 0x4B 0xEC 0xCB PUSH12 0x4CADA9BB347A8B9162F93CBB LOG1 0xDC 0x24 SWAP13 SWAP10 SIGNEXTEND 0x2D DUP14 MSIZE 0xC0 DUP15 0xDA LT PUSH16 0x64736F6C634300080700330000000000 "
				},
				"gasEstimates": {
					"creation": {
						"codeDepositCost": "1888800",
						"executionCost": "31270",
						"totalCost": "1920070"
					},
					"external": {
						"addDistributor(string)": "infinite",
						"addManufacturer(string)": "infinite",
						"addProduct(string,uint256,string)": "infinite",
						"addRetailer(string)": "infinite",
						"addSupplier(string)": "infinite",
						"distributors(uint256)": "infinite",
						"getProduct(uint256)": "infinite",
						"getdistributorDetails(uint256)": "infinite",
						"getmanufacturerDetails(uint256)": "infinite",
						"getretailerDetails(uint256)": "infinite",
						"getsupplierDetails(uint256)": "infinite",
						"manufacturers(uint256)": "infinite",
						"products(uint256)": "infinite",
						"retailers(uint256)": "infinite",
						"suppliers(uint256)": "infinite",
						"transferOwnership(uint256,uint256,uint256)": "infinite"
					}
				},
				"methodIdentifiers": {
					"addDistributor(string)": "81d9def2",
					"addManufacturer(string)": "8f5ae799",
					"addProduct(string,uint256,string)": "8f29695a",
					"addRetailer(string)": "95d00407",
					"addSupplier(string)": "15533a27",
					"distributors(uint256)": "50b492ba",
					"getProduct(uint256)": "b9db15b4",
					"getdistributorDetails(uint256)": "333f3dd0",
					"getmanufacturerDetails(uint256)": "cb80c419",
					"getretailerDetails(uint256)": "cda5e4a5",
					"getsupplierDetails(uint256)": "3779643f",
					"manufacturers(uint256)": "90175af1",
					"products(uint256)": "7acc0b20",
					"retailers(uint256)": "897ec7df",
					"suppliers(uint256)": "cea23121",
					"transferOwnership(uint256,uint256,uint256)": "f032edec"
				}
			},
			"storageLayout": {
				"storage": [
					{
						"astId": 5,
						"contract": "contracts/FakeProdId.sol:FakeProdId",
						"label": "owner",
						"offset": 0,
						"slot": "0",
						"type": "t_address"
					},
					{
						"astId": 88,
						"contract": "contracts/FakeProdId.sol:FakeProdId",
						"label": "products",
						"offset": 0,
						"slot": "1",
						"type": "t_mapping(t_uint256,t_struct(Product)18_storage)"
					},
					{
						"astId": 91,
						"contract": "contracts/FakeProdId.sol:FakeProdId",
						"label": "productsSize",
						"offset": 0,
						"slot": "2",
						"type": "t_uint256"
					},
					{
						"astId": 96,
						"contract": "contracts/FakeProdId.sol:FakeProdId",
						"label": "suppliers",
						"offset": 0,
						"slot": "3",
						"type": "t_mapping(t_uint256,t_struct(Supplier)28_storage)"
					},
					{
						"astId": 101,
						"contract": "contracts/FakeProdId.sol:FakeProdId",
						"label": "manufacturers",
						"offset": 0,
						"slot": "4",
						"type": "t_mapping(t_uint256,t_struct(Manufacturer)38_storage)"
					},
					{
						"astId": 106,
						"contract": "contracts/FakeProdId.sol:FakeProdId",
						"label": "distributors",
						"offset": 0,
						"slot": "5",
						"type": "t_mapping(t_uint256,t_struct(Distributor)48_storage)"
					},
					{
						"astId": 111,
						"contract": "contracts/FakeProdId.sol:FakeProdId",
						"label": "retailers",
						"offset": 0,
						"slot": "6",
						"type": "t_mapping(t_uint256,t_struct(Retailer)56_storage)"
					}
				],
				"types": {
					"t_address": {
						"encoding": "inplace",
						"label": "address",
						"numberOfBytes": "20"
					},
					"t_array(t_uint256)dyn_storage": {
						"base": "t_uint256",
						"encoding": "dynamic_array",
						"label": "uint256[]",
						"numberOfBytes": "32"
					},
					"t_mapping(t_uint256,t_struct(Distributor)48_storage)": {
						"encoding": "mapping",
						"key": "t_uint256",
						"label": "mapping(uint256 => struct FakeProdId.Distributor)",
						"numberOfBytes": "32",
						"value": "t_struct(Distributor)48_storage"
					},
					"t_mapping(t_uint256,t_struct(Manufacturer)38_storage)": {
						"encoding": "mapping",
						"key": "t_uint256",
						"label": "mapping(uint256 => struct FakeProdId.Manufacturer)",
						"numberOfBytes": "32",
						"value": "t_struct(Manufacturer)38_storage"
					},
					"t_mapping(t_uint256,t_struct(Product)18_storage)": {
						"encoding": "mapping",
						"key": "t_uint256",
						"label": "mapping(uint256 => struct FakeProdId.Product)",
						"numberOfBytes": "32",
						"value": "t_struct(Product)18_storage"
					},
					"t_mapping(t_uint256,t_struct(Retailer)56_storage)": {
						"encoding": "mapping",
						"key": "t_uint256",
						"label": "mapping(uint256 => struct FakeProdId.Retailer)",
						"numberOfBytes": "32",
						"value": "t_struct(Retailer)56_storage"
					},
					"t_mapping(t_uint256,t_struct(Supplier)28_storage)": {
						"encoding": "mapping",
						"key": "t_uint256",
						"label": "mapping(uint256 => struct FakeProdId.Supplier)",
						"numberOfBytes": "32",
						"value": "t_struct(Supplier)28_storage"
					},
					"t_string_storage": {
						"encoding": "bytes",
						"label": "string",
						"numberOfBytes": "32"
					},
					"t_struct(Distributor)48_storage": {
						"encoding": "inplace",
						"label": "struct FakeProdId.Distributor",
						"members": [
							{
								"astId": 40,
								"contract": "contracts/FakeProdId.sol:FakeProdId",
								"label": "distributorId",
								"offset": 0,
								"slot": "0",
								"type": "t_uint256"
							},
							{
								"astId": 42,
								"contract": "contracts/FakeProdId.sol:FakeProdId",
								"label": "kind",
								"offset": 0,
								"slot": "1",
								"type": "t_string_storage"
							},
							{
								"astId": 44,
								"contract": "contracts/FakeProdId.sol:FakeProdId",
								"label": "name",
								"offset": 0,
								"slot": "2",
								"type": "t_string_storage"
							},
							{
								"astId": 47,
								"contract": "contracts/FakeProdId.sol:FakeProdId",
								"label": "productList",
								"offset": 0,
								"slot": "3",
								"type": "t_array(t_uint256)dyn_storage"
							}
						],
						"numberOfBytes": "128"
					},
					"t_struct(Manufacturer)38_storage": {
						"encoding": "inplace",
						"label": "struct FakeProdId.Manufacturer",
						"members": [
							{
								"astId": 30,
								"contract": "contracts/FakeProdId.sol:FakeProdId",
								"label": "manufacturerId",
								"offset": 0,
								"slot": "0",
								"type": "t_uint256"
							},
							{
								"astId": 32,
								"contract": "contracts/FakeProdId.sol:FakeProdId",
								"label": "kind",
								"offset": 0,
								"slot": "1",
								"type": "t_string_storage"
							},
							{
								"astId": 34,
								"contract": "contracts/FakeProdId.sol:FakeProdId",
								"label": "name",
								"offset": 0,
								"slot": "2",
								"type": "t_string_storage"
							},
							{
								"astId": 37,
								"contract": "contracts/FakeProdId.sol:FakeProdId",
								"label": "productList",
								"offset": 0,
								"slot": "3",
								"type": "t_array(t_uint256)dyn_storage"
							}
						],
						"numberOfBytes": "128"
					},
					"t_struct(Product)18_storage": {
						"encoding": "inplace",
						"label": "struct FakeProdId.Product",
						"members": [
							{
								"astId": 7,
								"contract": "contracts/FakeProdId.sol:FakeProdId",
								"label": "productId",
								"offset": 0,
								"slot": "0",
								"type": "t_uint256"
							},
							{
								"astId": 9,
								"contract": "contracts/FakeProdId.sol:FakeProdId",
								"label": "name",
								"offset": 0,
								"slot": "1",
								"type": "t_string_storage"
							},
							{
								"astId": 11,
								"contract": "contracts/FakeProdId.sol:FakeProdId",
								"label": "price",
								"offset": 0,
								"slot": "2",
								"type": "t_uint256"
							},
							{
								"astId": 13,
								"contract": "contracts/FakeProdId.sol:FakeProdId",
								"label": "description",
								"offset": 0,
								"slot": "3",
								"type": "t_string_storage"
							},
							{
								"astId": 15,
								"contract": "contracts/FakeProdId.sol:FakeProdId",
								"label": "curOwner",
								"offset": 0,
								"slot": "4",
								"type": "t_string_storage"
							},
							{
								"astId": 17,
								"contract": "contracts/FakeProdId.sol:FakeProdId",
								"label": "curOwnerId",
								"offset": 0,
								"slot": "5",
								"type": "t_uint256"
							}
						],
						"numberOfBytes": "192"
					},
					"t_struct(Retailer)56_storage": {
						"encoding": "inplace",
						"label": "struct FakeProdId.Retailer",
						"members": [
							{
								"astId": 50,
								"contract": "contracts/FakeProdId.sol:FakeProdId",
								"label": "retailerId",
								"offset": 0,
								"slot": "0",
								"type": "t_uint256"
							},
							{
								"astId": 52,
								"contract": "contracts/FakeProdId.sol:FakeProdId",
								"label": "name",
								"offset": 0,
								"slot": "1",
								"type": "t_string_storage"
							},
							{
								"astId": 55,
								"contract": "contracts/FakeProdId.sol:FakeProdId",
								"label": "productList",
								"offset": 0,
								"slot": "2",
								"type": "t_array(t_uint256)dyn_storage"
							}
						],
						"numberOfBytes": "96"
					},
					"t_struct(Supplier)28_storage": {
						"encoding": "inplace",
						"label": "struct FakeProdId.Supplier",
						"members": [
							{
								"astId": 20,
								"contract": "contracts/FakeProdId.sol:FakeProdId",
								"label": "supplierId",
								"offset": 0,
								"slot": "0",
								"type": "t_uint256"
							},
							{
								"astId": 22,
								"contract": "contracts/FakeProdId.sol:FakeProdId",
								"label": "kind",
								"offset": 0,
								"slot": "1",
								"type": "t_string_storage"
							},
							{
								"astId": 24,
								"contract": "contracts/FakeProdId.sol:FakeProdId",
								"label": "name",
								"offset": 0,
								"slot": "2",
								"type": "t_string_storage"
							},
							{
								"astId": 27,
								"contract": "contracts/FakeProdId.sol:FakeProdId",
								"label": "productList",
								"offset": 0,
								"slot": "3",
								"type": "t_array(t_uint256)dyn_storage"
							}
						],
						"numberOfBytes": "128"
					},
					"t_uint256": {
						"encoding": "inplace",
						"label": "uint256",
						"numberOfBytes": "32"
					}
				}
			},
			"userdoc": {
				"kind": "user",
				"methods": {},
				"version": 1
			}
		}
	}
}