{
	"contracts/FakeProdId.sol": {
		"FakeProdId": {
			"abi": [
				{
					"anonymous": false,
					"inputs": [
						{
							"components": [
								{
									"internalType": "uint256",
									"name": "productId",
									"type": "uint256"
								},
								{
									"internalType": "string",
									"name": "name",
									"type": "string"
								},
								{
									"internalType": "uint256",
									"name": "price",
									"type": "uint256"
								},
								{
									"internalType": "string",
									"name": "description",
									"type": "string"
								},
								{
									"internalType": "string",
									"name": "curOwner",
									"type": "string"
								},
								{
									"internalType": "uint256",
									"name": "curOwnerId",
									"type": "uint256"
								}
							],
							"indexed": false,
							"internalType": "struct FakeProdId.Product",
							"name": "product",
							"type": "tuple"
						}
					],
					"name": "completeTransaction",
					"type": "event"
				},
				{
					"anonymous": false,
					"inputs": [
						{
							"components": [
								{
									"internalType": "uint256",
									"name": "distributorId",
									"type": "uint256"
								},
								{
									"internalType": "string",
									"name": "kind",
									"type": "string"
								},
								{
									"internalType": "string",
									"name": "name",
									"type": "string"
								},
								{
									"internalType": "uint256[]",
									"name": "productList",
									"type": "uint256[]"
								}
							],
							"indexed": false,
							"internalType": "struct FakeProdId.Distributor",
							"name": "newDistributor",
							"type": "tuple"
						}
					],
					"name": "distributorDetails",
					"type": "event"
				},
				{
					"anonymous": false,
					"inputs": [
						{
							"components": [
								{
									"internalType": "uint256",
									"name": "manufacturerId",
									"type": "uint256"
								},
								{
									"internalType": "string",
									"name": "kind",
									"type": "string"
								},
								{
									"internalType": "string",
									"name": "name",
									"type": "string"
								},
								{
									"internalType": "uint256[]",
									"name": "productList",
									"type": "uint256[]"
								}
							],
							"indexed": false,
							"internalType": "struct FakeProdId.Manufacturer",
							"name": "newManufacturer",
							"type": "tuple"
						}
					],
					"name": "manufacturerDetails",
					"type": "event"
				},
				{
					"anonymous": false,
					"inputs": [
						{
							"components": [
								{
									"internalType": "uint256",
									"name": "productId",
									"type": "uint256"
								},
								{
									"internalType": "string",
									"name": "name",
									"type": "string"
								},
								{
									"internalType": "uint256",
									"name": "price",
									"type": "uint256"
								},
								{
									"internalType": "string",
									"name": "description",
									"type": "string"
								},
								{
									"internalType": "string",
									"name": "curOwner",
									"type": "string"
								},
								{
									"internalType": "uint256",
									"name": "curOwnerId",
									"type": "uint256"
								}
							],
							"indexed": false,
							"internalType": "struct FakeProdId.Product",
							"name": "prod",
							"type": "tuple"
						},
						{
							"indexed": false,
							"internalType": "uint256",
							"name": "productSize",
							"type": "uint256"
						}
					],
					"name": "prodDetails",
					"type": "event"
				},
				{
					"anonymous": false,
					"inputs": [
						{
							"components": [
								{
									"internalType": "uint256",
									"name": "retailerId",
									"type": "uint256"
								},
								{
									"internalType": "string",
									"name": "name",
									"type": "string"
								},
								{
									"internalType": "uint256[]",
									"name": "productList",
									"type": "uint256[]"
								}
							],
							"indexed": false,
							"internalType": "struct FakeProdId.Retailer",
							"name": "newRetailer",
							"type": "tuple"
						}
					],
					"name": "retailerDetails",
					"type": "event"
				},
				{
					"anonymous": false,
					"inputs": [
						{
							"components": [
								{
									"internalType": "uint256",
									"name": "supplierId",
									"type": "uint256"
								},
								{
									"internalType": "string",
									"name": "kind",
									"type": "string"
								},
								{
									"internalType": "string",
									"name": "name",
									"type": "string"
								},
								{
									"internalType": "uint256[]",
									"name": "productList",
									"type": "uint256[]"
								}
							],
							"indexed": false,
							"internalType": "struct FakeProdId.Supplier",
							"name": "newSupplier",
							"type": "tuple"
						}
					],
					"name": "supplierDetails",
					"type": "event"
				},
				{
					"inputs": [
						{
							"internalType": "string",
							"name": "name",
							"type": "string"
						}
					],
					"name": "addDistributor",
					"outputs": [],
					"stateMutability": "nonpayable",
					"type": "function"
				},
				{
					"inputs": [
						{
							"internalType": "string",
							"name": "name",
							"type": "string"
						}
					],
					"name": "addManufacturer",
					"outputs": [],
					"stateMutability": "nonpayable",
					"type": "function"
				},
				{
					"inputs": [
						{
							"internalType": "string",
							"name": "name",
							"type": "string"
						},
						{
							"internalType": "uint256",
							"name": "price",
							"type": "uint256"
						},
						{
							"internalType": "string",
							"name": "description",
							"type": "string"
						}
					],
					"name": "addProduct",
					"outputs": [],
					"stateMutability": "nonpayable",
					"type": "function"
				},
				{
					"inputs": [
						{
							"internalType": "string",
							"name": "name",
							"type": "string"
						}
					],
					"name": "addRetailer",
					"outputs": [],
					"stateMutability": "nonpayable",
					"type": "function"
				},
				{
					"inputs": [
						{
							"internalType": "string",
							"name": "name",
							"type": "string"
						}
					],
					"name": "addSupplier",
					"outputs": [],
					"stateMutability": "nonpayable",
					"type": "function"
				},
				{
					"inputs": [
						{
							"internalType": "uint256",
							"name": "",
							"type": "uint256"
						}
					],
					"name": "distributors",
					"outputs": [
						{
							"internalType": "uint256",
							"name": "distributorId",
							"type": "uint256"
						},
						{
							"internalType": "string",
							"name": "kind",
							"type": "string"
						},
						{
							"internalType": "string",
							"name": "name",
							"type": "string"
						}
					],
					"stateMutability": "view",
					"type": "function"
				},
				{
					"inputs": [
						{
							"internalType": "uint256",
							"name": "productId",
							"type": "uint256"
						}
					],
					"name": "getProduct",
					"outputs": [
						{
							"components": [
								{
									"internalType": "uint256",
									"name": "productId",
									"type": "uint256"
								},
								{
									"internalType": "string",
									"name": "name",
									"type": "string"
								},
								{
									"internalType": "uint256",
									"name": "price",
									"type": "uint256"
								},
								{
									"internalType": "string",
									"name": "description",
									"type": "string"
								},
								{
									"internalType": "string",
									"name": "curOwner",
									"type": "string"
								},
								{
									"internalType": "uint256",
									"name": "curOwnerId",
									"type": "uint256"
								}
							],
							"internalType": "struct FakeProdId.Product",
							"name": "",
							"type": "tuple"
						}
					],
					"stateMutability": "view",
					"type": "function"
				},
				{
					"inputs": [
						{
							"internalType": "uint256",
							"name": "distributorId",
							"type": "uint256"
						}
					],
					"name": "getdistributorDetails",
					"outputs": [
						{
							"components": [
								{
									"internalType": "uint256",
									"name": "distributorId",
									"type": "uint256"
								},
								{
									"internalType": "string",
									"name": "kind",
									"type": "string"
								},
								{
									"internalType": "string",
									"name": "name",
									"type": "string"
								},
								{
									"internalType": "uint256[]",
									"name": "productList",
									"type": "uint256[]"
								}
							],
							"internalType": "struct FakeProdId.Distributor",
							"name": "",
							"type": "tuple"
						}
					],
					"stateMutability": "view",
					"type": "function"
				},
				{
					"inputs": [
						{
							"internalType": "uint256",
							"name": "manufacturerId",
							"type": "uint256"
						}
					],
					"name": "getmanufacturerDetails",
					"outputs": [
						{
							"components": [
								{
									"internalType": "uint256",
									"name": "manufacturerId",
									"type": "uint256"
								},
								{
									"internalType": "string",
									"name": "kind",
									"type": "string"
								},
								{
									"internalType": "string",
									"name": "name",
									"type": "string"
								},
								{
									"internalType": "uint256[]",
									"name": "productList",
									"type": "uint256[]"
								}
							],
							"internalType": "struct FakeProdId.Manufacturer",
							"name": "",
							"type": "tuple"
						}
					],
					"stateMutability": "view",
					"type": "function"
				},
				{
					"inputs": [
						{
							"internalType": "uint256",
							"name": "retailerId",
							"type": "uint256"
						}
					],
					"name": "getretailerDetails",
					"outputs": [
						{
							"components": [
								{
									"internalType": "uint256",
									"name": "retailerId",
									"type": "uint256"
								},
								{
									"internalType": "string",
									"name": "name",
									"type": "string"
								},
								{
									"internalType": "uint256[]",
									"name": "productList",
									"type": "uint256[]"
								}
							],
							"internalType": "struct FakeProdId.Retailer",
							"name": "",
							"type": "tuple"
						}
					],
					"stateMutability": "view",
					"type": "function"
				},
				{
					"inputs": [
						{
							"internalType": "uint256",
							"name": "supplierId",
							"type": "uint256"
						}
					],
					"name": "getsupplierDetails",
					"outputs": [
						{
							"components": [
								{
									"internalType": "uint256",
									"name": "supplierId",
									"type": "uint256"
								},
								{
									"internalType": "string",
									"name": "kind",
									"type": "string"
								},
								{
									"internalType": "string",
									"name": "name",
									"type": "string"
								},
								{
									"internalType": "uint256[]",
									"name": "productList",
									"type": "uint256[]"
								}
							],
							"internalType": "struct FakeProdId.Supplier",
							"name": "",
							"type": "tuple"
						}
					],
					"stateMutability": "view",
					"type": "function"
				},
				{
					"inputs": [
						{
							"internalType": "uint256",
							"name": "",
							"type": "uint256"
						}
					],
					"name": "manufacturers",
					"outputs": [
						{
							"internalType": "uint256",
							"name": "manufacturerId",
							"type": "uint256"
						},
						{
							"internalType": "string",
							"name": "kind",
							"type": "string"
						},
						{
							"internalType": "string",
							"name": "name",
							"type": "string"
						}
					],
					"stateMutability": "view",
					"type": "function"
				},
				{
					"inputs": [
						{
							"internalType": "uint256",
							"name": "",
							"type": "uint256"
						}
					],
					"name": "products",
					"outputs": [
						{
							"internalType": "uint256",
							"name": "productId",
							"type": "uint256"
						},
						{
							"internalType": "string",
							"name": "name",
							"type": "string"
						},
						{
							"internalType": "uint256",
							"name": "price",
							"type": "uint256"
						},
						{
							"internalType": "string",
							"name": "description",
							"type": "string"
						},
						{
							"internalType": "string",
							"name": "curOwner",
							"type": "string"
						},
						{
							"internalType": "uint256",
							"name": "curOwnerId",
							"type": "uint256"
						}
					],
					"stateMutability": "view",
					"type": "function"
				},
				{
					"inputs": [
						{
							"internalType": "uint256",
							"name": "",
							"type": "uint256"
						}
					],
					"name": "retailers",
					"outputs": [
						{
							"internalType": "uint256",
							"name": "retailerId",
							"type": "uint256"
						},
						{
							"internalType": "string",
							"name": "name",
							"type": "string"
						}
					],
					"stateMutability": "view",
					"type": "function"
				},
				{
					"inputs": [
						{
							"internalType": "uint256",
							"name": "productId",
							"type": "uint256"
						},
						{
							"internalType": "uint256",
							"name": "supplierId",
							"type": "uint256"
						},
						{
							"internalType": "uint256",
							"name": "manufacturerId",
							"type": "uint256"
						}
					],
					"name": "supplierToManufacturer",
					"outputs": [],
					"stateMutability": "nonpayable",
					"type": "function"
				},
				{
					"inputs": [
						{
							"internalType": "uint256",
							"name": "productId",
							"type": "uint256"
						},
						{
							"internalType": "uint256",
							"name": "supplierId",
							"type": "uint256"
						}
					],
					"name": "supplierTransaction",
					"outputs": [],
					"stateMutability": "nonpayable",
					"type": "function"
				},
				{
					"inputs": [
						{
							"internalType": "uint256",
							"name": "",
							"type": "uint256"
						}
					],
					"name": "suppliers",
					"outputs": [
						{
							"internalType": "uint256",
							"name": "supplierId",
							"type": "uint256"
						},
						{
							"internalType": "string",
							"name": "kind",
							"type": "string"
						},
						{
							"internalType": "string",
							"name": "name",
							"type": "string"
						}
					],
					"stateMutability": "view",
					"type": "function"
				}
			],
			"devdoc": {
				"kind": "dev",
				"methods": {},
				"version": 1
			},
			"evm": {
				"assembly": "    /* \"contracts/FakeProdId.sol\":69:5375  contract FakeProdId {\r... */\n  mstore(0x40, 0x80)\n    /* \"contracts/FakeProdId.sol\":112:122  msg.sender */\n  caller\n    /* \"contracts/FakeProdId.sol\":96:122  address owner = msg.sender */\n  0x00\n  dup1\n  0x0100\n  exp\n  dup2\n  sload\n  dup2\n  0xffffffffffffffffffffffffffffffffffffffff\n  mul\n  not\n  and\n  swap1\n  dup4\n  0xffffffffffffffffffffffffffffffffffffffff\n  and\n  mul\n  or\n  swap1\n  sstore\n  pop\n    /* \"contracts/FakeProdId.sol\":1338:1339  0 */\n  0x00\n    /* \"contracts/FakeProdId.sol\":1320:1339  uint productsSize=0 */\n  0x02\n  sstore\n    /* \"contracts/FakeProdId.sol\":69:5375  contract FakeProdId {\r... */\n  callvalue\n  dup1\n  iszero\n  tag_1\n  jumpi\n  0x00\n  dup1\n  revert\ntag_1:\n  pop\n  dataSize(sub_0)\n  dup1\n  dataOffset(sub_0)\n  0x00\n  codecopy\n  0x00\n  return\nstop\n\nsub_0: assembly {\n        /* \"contracts/FakeProdId.sol\":69:5375  contract FakeProdId {\r... */\n      mstore(0x40, 0x80)\n      callvalue\n      dup1\n      iszero\n      tag_1\n      jumpi\n      0x00\n      dup1\n      revert\n    tag_1:\n      pop\n      jumpi(tag_2, lt(calldatasize, 0x04))\n      shr(0xe0, calldataload(0x00))\n      dup1\n      0x8f5ae799\n      gt\n      tag_20\n      jumpi\n      dup1\n      0xbbb7b0c3\n      gt\n      tag_21\n      jumpi\n      dup1\n      0xbbb7b0c3\n      eq\n      tag_15\n      jumpi\n      dup1\n      0xcb80c419\n      eq\n      tag_16\n      jumpi\n      dup1\n      0xcda5e4a5\n      eq\n      tag_17\n      jumpi\n      dup1\n      0xcea23121\n      eq\n      tag_18\n      jumpi\n      dup1\n      0xd8459464\n      eq\n      tag_19\n      jumpi\n      jump(tag_2)\n    tag_21:\n      dup1\n      0x8f5ae799\n      eq\n      tag_11\n      jumpi\n      dup1\n      0x90175af1\n      eq\n      tag_12\n      jumpi\n      dup1\n      0x95d00407\n      eq\n      tag_13\n      jumpi\n      dup1\n      0xb9db15b4\n      eq\n      tag_14\n      jumpi\n      jump(tag_2)\n    tag_20:\n      dup1\n      0x7acc0b20\n      gt\n      tag_22\n      jumpi\n      dup1\n      0x7acc0b20\n      eq\n      tag_7\n      jumpi\n      dup1\n      0x81d9def2\n      eq\n      tag_8\n      jumpi\n      dup1\n      0x897ec7df\n      eq\n      tag_9\n      jumpi\n      dup1\n      0x8f29695a\n      eq\n      tag_10\n      jumpi\n      jump(tag_2)\n    tag_22:\n      dup1\n      0x15533a27\n      eq\n      tag_3\n      jumpi\n      dup1\n      0x333f3dd0\n      eq\n      tag_4\n      jumpi\n      dup1\n      0x3779643f\n      eq\n      tag_5\n      jumpi\n      dup1\n      0x50b492ba\n      eq\n      tag_6\n      jumpi\n    tag_2:\n      0x00\n      dup1\n      revert\n        /* \"contracts/FakeProdId.sol\":2233:2646  function addSupplier(string memory name) public{\r... */\n    tag_3:\n      tag_23\n      0x04\n      dup1\n      calldatasize\n      sub\n      dup2\n      add\n      swap1\n      tag_24\n      swap2\n      swap1\n      tag_25\n      jump\t// in\n    tag_24:\n      tag_26\n      jump\t// in\n    tag_23:\n      stop\n        /* \"contracts/FakeProdId.sol\":3892:4036  function getdistributorDetails(uint distributorId) public view returns (Distributor memory){\r... */\n    tag_4:\n      tag_27\n      0x04\n      dup1\n      calldatasize\n      sub\n      dup2\n      add\n      swap1\n      tag_28\n      swap2\n      swap1\n      tag_29\n      jump\t// in\n    tag_28:\n      tag_30\n      jump\t// in\n    tag_27:\n      mload(0x40)\n      tag_31\n      swap2\n      swap1\n      tag_32\n      jump\t// in\n    tag_31:\n      mload(0x40)\n      dup1\n      swap2\n      sub\n      swap1\n      return\n        /* \"contracts/FakeProdId.sol\":2654:2783  function getsupplierDetails(uint supplierId) public view returns (Supplier memory){\r... */\n    tag_5:\n      tag_33\n      0x04\n      dup1\n      calldatasize\n      sub\n      dup2\n      add\n      swap1\n      tag_34\n      swap2\n      swap1\n      tag_29\n      jump\t// in\n    tag_34:\n      tag_35\n      jump\t// in\n    tag_33:\n      mload(0x40)\n      tag_36\n      swap2\n      swap1\n      tag_37\n      jump\t// in\n    tag_36:\n      mload(0x40)\n      dup1\n      swap2\n      sub\n      swap1\n      return\n        /* \"contracts/FakeProdId.sol\":1452:1500  mapping(uint => Distributor) public distributors */\n    tag_6:\n      tag_38\n      0x04\n      dup1\n      calldatasize\n      sub\n      dup2\n      add\n      swap1\n      tag_39\n      swap2\n      swap1\n      tag_29\n      jump\t// in\n    tag_39:\n      tag_40\n      jump\t// in\n    tag_38:\n      mload(0x40)\n      tag_41\n      swap4\n      swap3\n      swap2\n      swap1\n      tag_42\n      jump\t// in\n    tag_41:\n      mload(0x40)\n      dup1\n      swap2\n      sub\n      swap1\n      return\n        /* \"contracts/FakeProdId.sol\":1273:1313  mapping(uint => Product) public products */\n    tag_7:\n      tag_43\n      0x04\n      dup1\n      calldatasize\n      sub\n      dup2\n      add\n      swap1\n      tag_44\n      swap2\n      swap1\n      tag_29\n      jump\t// in\n    tag_44:\n      tag_45\n      jump\t// in\n    tag_43:\n      mload(0x40)\n      tag_46\n      swap7\n      swap6\n      swap5\n      swap4\n      swap3\n      swap2\n      swap1\n      tag_47\n      jump\t// in\n    tag_46:\n      mload(0x40)\n      dup1\n      swap2\n      sub\n      swap1\n      return\n        /* \"contracts/FakeProdId.sol\":3425:3880  function addDistributor(string memory name) public{\r... */\n    tag_8:\n      tag_48\n      0x04\n      dup1\n      calldatasize\n      sub\n      dup2\n      add\n      swap1\n      tag_49\n      swap2\n      swap1\n      tag_25\n      jump\t// in\n    tag_49:\n      tag_50\n      jump\t// in\n    tag_48:\n      stop\n        /* \"contracts/FakeProdId.sol\":1507:1549  mapping(uint => Retailer) public retailers */\n    tag_9:\n      tag_51\n      0x04\n      dup1\n      calldatasize\n      sub\n      dup2\n      add\n      swap1\n      tag_52\n      swap2\n      swap1\n      tag_29\n      jump\t// in\n    tag_52:\n      tag_53\n      jump\t// in\n    tag_51:\n      mload(0x40)\n      tag_54\n      swap3\n      swap2\n      swap1\n      tag_55\n      jump\t// in\n    tag_54:\n      mload(0x40)\n      dup1\n      swap2\n      sub\n      swap1\n      return\n        /* \"contracts/FakeProdId.sol\":1558:2100  function addProduct(string memory name,uint price,string memory description) public{\r... */\n    tag_10:\n      tag_56\n      0x04\n      dup1\n      calldatasize\n      sub\n      dup2\n      add\n      swap1\n      tag_57\n      swap2\n      swap1\n      tag_58\n      jump\t// in\n    tag_57:\n      tag_59\n      jump\t// in\n    tag_56:\n      stop\n        /* \"contracts/FakeProdId.sol\":2791:3260  function addManufacturer(string memory name) public{\r... */\n    tag_11:\n      tag_60\n      0x04\n      dup1\n      calldatasize\n      sub\n      dup2\n      add\n      swap1\n      tag_61\n      swap2\n      swap1\n      tag_25\n      jump\t// in\n    tag_61:\n      tag_62\n      jump\t// in\n    tag_60:\n      stop\n        /* \"contracts/FakeProdId.sol\":1395:1445  mapping(uint => Manufacturer) public manufacturers */\n    tag_12:\n      tag_63\n      0x04\n      dup1\n      calldatasize\n      sub\n      dup2\n      add\n      swap1\n      tag_64\n      swap2\n      swap1\n      tag_29\n      jump\t// in\n    tag_64:\n      tag_65\n      jump\t// in\n    tag_63:\n      mload(0x40)\n      tag_66\n      swap4\n      swap3\n      swap2\n      swap1\n      tag_42\n      jump\t// in\n    tag_66:\n      mload(0x40)\n      dup1\n      swap2\n      sub\n      swap1\n      return\n        /* \"contracts/FakeProdId.sol\":4044:4423  function addRetailer(string memory name) public{\r... */\n    tag_13:\n      tag_67\n      0x04\n      dup1\n      calldatasize\n      sub\n      dup2\n      add\n      swap1\n      tag_68\n      swap2\n      swap1\n      tag_25\n      jump\t// in\n    tag_68:\n      tag_69\n      jump\t// in\n    tag_67:\n      stop\n        /* \"contracts/FakeProdId.sol\":2108:2225  function getProduct(uint productId) public view returns (Product memory){\r... */\n    tag_14:\n      tag_70\n      0x04\n      dup1\n      calldatasize\n      sub\n      dup2\n      add\n      swap1\n      tag_71\n      swap2\n      swap1\n      tag_29\n      jump\t// in\n    tag_71:\n      tag_72\n      jump\t// in\n    tag_70:\n      mload(0x40)\n      tag_73\n      swap2\n      swap1\n      tag_74\n      jump\t// in\n    tag_73:\n      mload(0x40)\n      dup1\n      swap2\n      sub\n      swap1\n      return\n        /* \"contracts/FakeProdId.sol\":4881:5278  function supplierToManufacturer(uint productId,uint supplierId,uint manufacturerId) public{\r... */\n    tag_15:\n      tag_75\n      0x04\n      dup1\n      calldatasize\n      sub\n      dup2\n      add\n      swap1\n      tag_76\n      swap2\n      swap1\n      tag_77\n      jump\t// in\n    tag_76:\n      tag_78\n      jump\t// in\n    tag_75:\n      stop\n        /* \"contracts/FakeProdId.sol\":3268:3417  function getmanufacturerDetails(uint manufacturerId) public view returns (Manufacturer memory){\r... */\n    tag_16:\n      tag_79\n      0x04\n      dup1\n      calldatasize\n      sub\n      dup2\n      add\n      swap1\n      tag_80\n      swap2\n      swap1\n      tag_29\n      jump\t// in\n    tag_80:\n      tag_81\n      jump\t// in\n    tag_79:\n      mload(0x40)\n      tag_82\n      swap2\n      swap1\n      tag_83\n      jump\t// in\n    tag_82:\n      mload(0x40)\n      dup1\n      swap2\n      sub\n      swap1\n      return\n        /* \"contracts/FakeProdId.sol\":4431:4560  function getretailerDetails(uint retailerId) public view returns (Retailer memory){\r... */\n    tag_17:\n      tag_84\n      0x04\n      dup1\n      calldatasize\n      sub\n      dup2\n      add\n      swap1\n      tag_85\n      swap2\n      swap1\n      tag_29\n      jump\t// in\n    tag_85:\n      tag_86\n      jump\t// in\n    tag_84:\n      mload(0x40)\n      tag_87\n      swap2\n      swap1\n      tag_88\n      jump\t// in\n    tag_87:\n      mload(0x40)\n      dup1\n      swap2\n      sub\n      swap1\n      return\n        /* \"contracts/FakeProdId.sol\":1346:1388  mapping(uint => Supplier) public suppliers */\n    tag_18:\n      tag_89\n      0x04\n      dup1\n      calldatasize\n      sub\n      dup2\n      add\n      swap1\n      tag_90\n      swap2\n      swap1\n      tag_29\n      jump\t// in\n    tag_90:\n      tag_91\n      jump\t// in\n    tag_89:\n      mload(0x40)\n      tag_92\n      swap4\n      swap3\n      swap2\n      swap1\n      tag_42\n      jump\t// in\n    tag_92:\n      mload(0x40)\n      dup1\n      swap2\n      sub\n      swap1\n      return\n        /* \"contracts/FakeProdId.sol\":4568:4873  function supplierTransaction(uint productId,uint supplierId) public{\r... */\n    tag_19:\n      tag_93\n      0x04\n      dup1\n      calldatasize\n      sub\n      dup2\n      add\n      swap1\n      tag_94\n      swap2\n      swap1\n      tag_95\n      jump\t// in\n    tag_94:\n      tag_96\n      jump\t// in\n    tag_93:\n      stop\n        /* \"contracts/FakeProdId.sol\":2233:2646  function addSupplier(string memory name) public{\r... */\n    tag_26:\n        /* \"contracts/FakeProdId.sol\":2291:2318  Supplier memory newSupplier */\n      tag_98\n      tag_99\n      jump\t// in\n    tag_98:\n        /* \"contracts/FakeProdId.sol\":2378:2382  name */\n      dup2\n        /* \"contracts/FakeProdId.sol\":2383:2398  block.timestamp */\n      timestamp\n        /* \"contracts/FakeProdId.sol\":2399:2415  block.difficulty */\n      difficulty\n        /* \"contracts/FakeProdId.sol\":2367:2416  abi.encode(name,block.timestamp,block.difficulty) */\n      add(0x20, mload(0x40))\n      tag_100\n      swap4\n      swap3\n      swap2\n      swap1\n      tag_101\n      jump\t// in\n    tag_100:\n      mload(0x40)\n      0x20\n      dup2\n      dup4\n      sub\n      sub\n      dup2\n      mstore\n      swap1\n      0x40\n      mstore\n        /* \"contracts/FakeProdId.sol\":2357:2417  keccak256(abi.encode(name,block.timestamp,block.difficulty)) */\n      dup1\n      mload\n      swap1\n      0x20\n      add\n      keccak256\n        /* \"contracts/FakeProdId.sol\":2352:2418  uint(keccak256(abi.encode(name,block.timestamp,block.difficulty))) */\n      0x00\n      shr\n        /* \"contracts/FakeProdId.sol\":2329:2340  newSupplier */\n      dup2\n        /* \"contracts/FakeProdId.sol\":2329:2351  newSupplier.supplierId */\n      0x00\n      add\n        /* \"contracts/FakeProdId.sol\":2329:2418  newSupplier.supplierId=uint(keccak256(abi.encode(name,block.timestamp,block.difficulty))) */\n      dup2\n      dup2\n      mstore\n      pop\n      pop\n        /* \"contracts/FakeProdId.sol\":2429:2452  newSupplier.kind = \"SU\" */\n      mload(0x40)\n      dup1\n      0x40\n      add\n      0x40\n      mstore\n      dup1\n      0x02\n      dup2\n      mstore\n      0x20\n      add\n      0x5355000000000000000000000000000000000000000000000000000000000000\n      dup2\n      mstore\n      pop\n        /* \"contracts/FakeProdId.sol\":2429:2440  newSupplier */\n      dup2\n        /* \"contracts/FakeProdId.sol\":2429:2445  newSupplier.kind */\n      0x20\n      add\n        /* \"contracts/FakeProdId.sol\":2429:2452  newSupplier.kind = \"SU\" */\n      dup2\n      swap1\n      mstore\n      pop\n        /* \"contracts/FakeProdId.sol\":2482:2486  name */\n      dup2\n        /* \"contracts/FakeProdId.sol\":2463:2474  newSupplier */\n      dup2\n        /* \"contracts/FakeProdId.sol\":2463:2479  newSupplier.name */\n      0x40\n      add\n        /* \"contracts/FakeProdId.sol\":2463:2486  newSupplier.name = name */\n      dup2\n      swap1\n      mstore\n      pop\n        /* \"contracts/FakeProdId.sol\":2534:2535  0 */\n      0x00\n        /* \"contracts/FakeProdId.sol\":2523:2536  new uint[](0) */\n      0xffffffffffffffff\n      dup2\n      gt\n      iszero\n      tag_102\n      jumpi\n      tag_103\n      tag_104\n      jump\t// in\n    tag_103:\n    tag_102:\n      mload(0x40)\n      swap1\n      dup1\n      dup3\n      mstore\n      dup1\n      0x20\n      mul\n      0x20\n      add\n      dup3\n      add\n      0x40\n      mstore\n      dup1\n      iszero\n      tag_105\n      jumpi\n      dup2\n      0x20\n      add\n      0x20\n      dup3\n      mul\n      dup1\n      calldatasize\n      dup4\n      calldatacopy\n      dup1\n      dup3\n      add\n      swap2\n      pop\n      pop\n      swap1\n      pop\n    tag_105:\n      pop\n        /* \"contracts/FakeProdId.sol\":2497:2508  newSupplier */\n      dup2\n        /* \"contracts/FakeProdId.sol\":2497:2520  newSupplier.productList */\n      0x60\n      add\n        /* \"contracts/FakeProdId.sol\":2497:2536  newSupplier.productList = new uint[](0) */\n      dup2\n      swap1\n      mstore\n      pop\n        /* \"contracts/FakeProdId.sol\":2583:2594  newSupplier */\n      dup1\n        /* \"contracts/FakeProdId.sol\":2547:2556  suppliers */\n      0x03\n        /* \"contracts/FakeProdId.sol\":2547:2580  suppliers[newSupplier.supplierId] */\n      0x00\n        /* \"contracts/FakeProdId.sol\":2557:2568  newSupplier */\n      dup4\n        /* \"contracts/FakeProdId.sol\":2557:2579  newSupplier.supplierId */\n      0x00\n      add\n      mload\n        /* \"contracts/FakeProdId.sol\":2547:2580  suppliers[newSupplier.supplierId] */\n      dup2\n      mstore\n      0x20\n      add\n      swap1\n      dup2\n      mstore\n      0x20\n      add\n      0x00\n      keccak256\n        /* \"contracts/FakeProdId.sol\":2547:2594  suppliers[newSupplier.supplierId] = newSupplier */\n      0x00\n      dup3\n      add\n      mload\n      dup2\n      0x00\n      add\n      sstore\n      0x20\n      dup3\n      add\n      mload\n      dup2\n      0x01\n      add\n      swap1\n      dup1\n      mload\n      swap1\n      0x20\n      add\n      swap1\n      tag_106\n      swap3\n      swap2\n      swap1\n      tag_107\n      jump\t// in\n    tag_106:\n      pop\n      0x40\n      dup3\n      add\n      mload\n      dup2\n      0x02\n      add\n      swap1\n      dup1\n      mload\n      swap1\n      0x20\n      add\n      swap1\n      tag_108\n      swap3\n      swap2\n      swap1\n      tag_107\n      jump\t// in\n    tag_108:\n      pop\n      0x60\n      dup3\n      add\n      mload\n      dup2\n      0x03\n      add\n      swap1\n      dup1\n      mload\n      swap1\n      0x20\n      add\n      swap1\n      tag_109\n      swap3\n      swap2\n      swap1\n      tag_110\n      jump\t// in\n    tag_109:\n      pop\n      swap1\n      pop\n      pop\n        /* \"contracts/FakeProdId.sol\":2610:2638  supplierDetails(newSupplier) */\n      0x0e2879159e80c92c57341e91920c4b1af102eebab99c1eca0e8a3c081fbf95ba\n        /* \"contracts/FakeProdId.sol\":2626:2637  newSupplier */\n      dup2\n        /* \"contracts/FakeProdId.sol\":2610:2638  supplierDetails(newSupplier) */\n      mload(0x40)\n      tag_111\n      swap2\n      swap1\n      tag_37\n      jump\t// in\n    tag_111:\n      mload(0x40)\n      dup1\n      swap2\n      sub\n      swap1\n      log1\n        /* \"contracts/FakeProdId.sol\":2280:2646  {\r... */\n      pop\n        /* \"contracts/FakeProdId.sol\":2233:2646  function addSupplier(string memory name) public{\r... */\n      pop\n      jump\t// out\n        /* \"contracts/FakeProdId.sol\":3892:4036  function getdistributorDetails(uint distributorId) public view returns (Distributor memory){\r... */\n    tag_30:\n        /* \"contracts/FakeProdId.sol\":3964:3982  Distributor memory */\n      tag_112\n      tag_113\n      jump\t// in\n    tag_112:\n        /* \"contracts/FakeProdId.sol\":4001:4013  distributors */\n      0x05\n        /* \"contracts/FakeProdId.sol\":4001:4028  distributors[distributorId] */\n      0x00\n        /* \"contracts/FakeProdId.sol\":4014:4027  distributorId */\n      dup4\n        /* \"contracts/FakeProdId.sol\":4001:4028  distributors[distributorId] */\n      dup2\n      mstore\n      0x20\n      add\n      swap1\n      dup2\n      mstore\n      0x20\n      add\n      0x00\n      keccak256\n        /* \"contracts/FakeProdId.sol\":3994:4028  return distributors[distributorId] */\n      mload(0x40)\n      dup1\n      0x80\n      add\n      0x40\n      mstore\n      swap1\n      dup2\n      0x00\n      dup3\n      add\n      sload\n      dup2\n      mstore\n      0x20\n      add\n      0x01\n      dup3\n      add\n      dup1\n      sload\n      tag_115\n      swap1\n      tag_116\n      jump\t// in\n    tag_115:\n      dup1\n      0x1f\n      add\n      0x20\n      dup1\n      swap2\n      div\n      mul\n      0x20\n      add\n      mload(0x40)\n      swap1\n      dup2\n      add\n      0x40\n      mstore\n      dup1\n      swap3\n      swap2\n      swap1\n      dup2\n      dup2\n      mstore\n      0x20\n      add\n      dup3\n      dup1\n      sload\n      tag_117\n      swap1\n      tag_116\n      jump\t// in\n    tag_117:\n      dup1\n      iszero\n      tag_118\n      jumpi\n      dup1\n      0x1f\n      lt\n      tag_119\n      jumpi\n      0x0100\n      dup1\n      dup4\n      sload\n      div\n      mul\n      dup4\n      mstore\n      swap2\n      0x20\n      add\n      swap2\n      jump(tag_118)\n    tag_119:\n      dup3\n      add\n      swap2\n      swap1\n      0x00\n      mstore\n      keccak256(0x00, 0x20)\n      swap1\n    tag_120:\n      dup2\n      sload\n      dup2\n      mstore\n      swap1\n      0x01\n      add\n      swap1\n      0x20\n      add\n      dup1\n      dup4\n      gt\n      tag_120\n      jumpi\n      dup3\n      swap1\n      sub\n      0x1f\n      and\n      dup3\n      add\n      swap2\n    tag_118:\n      pop\n      pop\n      pop\n      pop\n      pop\n      dup2\n      mstore\n      0x20\n      add\n      0x02\n      dup3\n      add\n      dup1\n      sload\n      tag_121\n      swap1\n      tag_116\n      jump\t// in\n    tag_121:\n      dup1\n      0x1f\n      add\n      0x20\n      dup1\n      swap2\n      div\n      mul\n      0x20\n      add\n      mload(0x40)\n      swap1\n      dup2\n      add\n      0x40\n      mstore\n      dup1\n      swap3\n      swap2\n      swap1\n      dup2\n      dup2\n      mstore\n      0x20\n      add\n      dup3\n      dup1\n      sload\n      tag_122\n      swap1\n      tag_116\n      jump\t// in\n    tag_122:\n      dup1\n      iszero\n      tag_123\n      jumpi\n      dup1\n      0x1f\n      lt\n      tag_124\n      jumpi\n      0x0100\n      dup1\n      dup4\n      sload\n      div\n      mul\n      dup4\n      mstore\n      swap2\n      0x20\n      add\n      swap2\n      jump(tag_123)\n    tag_124:\n      dup3\n      add\n      swap2\n      swap1\n      0x00\n      mstore\n      keccak256(0x00, 0x20)\n      swap1\n    tag_125:\n      dup2\n      sload\n      dup2\n      mstore\n      swap1\n      0x01\n      add\n      swap1\n      0x20\n      add\n      dup1\n      dup4\n      gt\n      tag_125\n      jumpi\n      dup3\n      swap1\n      sub\n      0x1f\n      and\n      dup3\n      add\n      swap2\n    tag_123:\n      pop\n      pop\n      pop\n      pop\n      pop\n      dup2\n      mstore\n      0x20\n      add\n      0x03\n      dup3\n      add\n      dup1\n      sload\n      dup1\n      0x20\n      mul\n      0x20\n      add\n      mload(0x40)\n      swap1\n      dup2\n      add\n      0x40\n      mstore\n      dup1\n      swap3\n      swap2\n      swap1\n      dup2\n      dup2\n      mstore\n      0x20\n      add\n      dup3\n      dup1\n      sload\n      dup1\n      iszero\n      tag_126\n      jumpi\n      0x20\n      mul\n      dup3\n      add\n      swap2\n      swap1\n      0x00\n      mstore\n      keccak256(0x00, 0x20)\n      swap1\n    tag_127:\n      dup2\n      sload\n      dup2\n      mstore\n      0x20\n      add\n      swap1\n      0x01\n      add\n      swap1\n      dup1\n      dup4\n      gt\n      tag_127\n      jumpi\n    tag_126:\n      pop\n      pop\n      pop\n      pop\n      pop\n      dup2\n      mstore\n      pop\n      pop\n      swap1\n      pop\n        /* \"contracts/FakeProdId.sol\":3892:4036  function getdistributorDetails(uint distributorId) public view returns (Distributor memory){\r... */\n      swap2\n      swap1\n      pop\n      jump\t// out\n        /* \"contracts/FakeProdId.sol\":2654:2783  function getsupplierDetails(uint supplierId) public view returns (Supplier memory){\r... */\n    tag_35:\n        /* \"contracts/FakeProdId.sol\":2720:2735  Supplier memory */\n      tag_128\n      tag_99\n      jump\t// in\n    tag_128:\n        /* \"contracts/FakeProdId.sol\":2754:2763  suppliers */\n      0x03\n        /* \"contracts/FakeProdId.sol\":2754:2775  suppliers[supplierId] */\n      0x00\n        /* \"contracts/FakeProdId.sol\":2764:2774  supplierId */\n      dup4\n        /* \"contracts/FakeProdId.sol\":2754:2775  suppliers[supplierId] */\n      dup2\n      mstore\n      0x20\n      add\n      swap1\n      dup2\n      mstore\n      0x20\n      add\n      0x00\n      keccak256\n        /* \"contracts/FakeProdId.sol\":2747:2775  return suppliers[supplierId] */\n      mload(0x40)\n      dup1\n      0x80\n      add\n      0x40\n      mstore\n      swap1\n      dup2\n      0x00\n      dup3\n      add\n      sload\n      dup2\n      mstore\n      0x20\n      add\n      0x01\n      dup3\n      add\n      dup1\n      sload\n      tag_130\n      swap1\n      tag_116\n      jump\t// in\n    tag_130:\n      dup1\n      0x1f\n      add\n      0x20\n      dup1\n      swap2\n      div\n      mul\n      0x20\n      add\n      mload(0x40)\n      swap1\n      dup2\n      add\n      0x40\n      mstore\n      dup1\n      swap3\n      swap2\n      swap1\n      dup2\n      dup2\n      mstore\n      0x20\n      add\n      dup3\n      dup1\n      sload\n      tag_131\n      swap1\n      tag_116\n      jump\t// in\n    tag_131:\n      dup1\n      iszero\n      tag_132\n      jumpi\n      dup1\n      0x1f\n      lt\n      tag_133\n      jumpi\n      0x0100\n      dup1\n      dup4\n      sload\n      div\n      mul\n      dup4\n      mstore\n      swap2\n      0x20\n      add\n      swap2\n      jump(tag_132)\n    tag_133:\n      dup3\n      add\n      swap2\n      swap1\n      0x00\n      mstore\n      keccak256(0x00, 0x20)\n      swap1\n    tag_134:\n      dup2\n      sload\n      dup2\n      mstore\n      swap1\n      0x01\n      add\n      swap1\n      0x20\n      add\n      dup1\n      dup4\n      gt\n      tag_134\n      jumpi\n      dup3\n      swap1\n      sub\n      0x1f\n      and\n      dup3\n      add\n      swap2\n    tag_132:\n      pop\n      pop\n      pop\n      pop\n      pop\n      dup2\n      mstore\n      0x20\n      add\n      0x02\n      dup3\n      add\n      dup1\n      sload\n      tag_135\n      swap1\n      tag_116\n      jump\t// in\n    tag_135:\n      dup1\n      0x1f\n      add\n      0x20\n      dup1\n      swap2\n      div\n      mul\n      0x20\n      add\n      mload(0x40)\n      swap1\n      dup2\n      add\n      0x40\n      mstore\n      dup1\n      swap3\n      swap2\n      swap1\n      dup2\n      dup2\n      mstore\n      0x20\n      add\n      dup3\n      dup1\n      sload\n      tag_136\n      swap1\n      tag_116\n      jump\t// in\n    tag_136:\n      dup1\n      iszero\n      tag_137\n      jumpi\n      dup1\n      0x1f\n      lt\n      tag_138\n      jumpi\n      0x0100\n      dup1\n      dup4\n      sload\n      div\n      mul\n      dup4\n      mstore\n      swap2\n      0x20\n      add\n      swap2\n      jump(tag_137)\n    tag_138:\n      dup3\n      add\n      swap2\n      swap1\n      0x00\n      mstore\n      keccak256(0x00, 0x20)\n      swap1\n    tag_139:\n      dup2\n      sload\n      dup2\n      mstore\n      swap1\n      0x01\n      add\n      swap1\n      0x20\n      add\n      dup1\n      dup4\n      gt\n      tag_139\n      jumpi\n      dup3\n      swap1\n      sub\n      0x1f\n      and\n      dup3\n      add\n      swap2\n    tag_137:\n      pop\n      pop\n      pop\n      pop\n      pop\n      dup2\n      mstore\n      0x20\n      add\n      0x03\n      dup3\n      add\n      dup1\n      sload\n      dup1\n      0x20\n      mul\n      0x20\n      add\n      mload(0x40)\n      swap1\n      dup2\n      add\n      0x40\n      mstore\n      dup1\n      swap3\n      swap2\n      swap1\n      dup2\n      dup2\n      mstore\n      0x20\n      add\n      dup3\n      dup1\n      sload\n      dup1\n      iszero\n      tag_140\n      jumpi\n      0x20\n      mul\n      dup3\n      add\n      swap2\n      swap1\n      0x00\n      mstore\n      keccak256(0x00, 0x20)\n      swap1\n    tag_141:\n      dup2\n      sload\n      dup2\n      mstore\n      0x20\n      add\n      swap1\n      0x01\n      add\n      swap1\n      dup1\n      dup4\n      gt\n      tag_141\n      jumpi\n    tag_140:\n      pop\n      pop\n      pop\n      pop\n      pop\n      dup2\n      mstore\n      pop\n      pop\n      swap1\n      pop\n        /* \"contracts/FakeProdId.sol\":2654:2783  function getsupplierDetails(uint supplierId) public view returns (Supplier memory){\r... */\n      swap2\n      swap1\n      pop\n      jump\t// out\n        /* \"contracts/FakeProdId.sol\":1452:1500  mapping(uint => Distributor) public distributors */\n    tag_40:\n      mstore(0x20, 0x05)\n      dup1\n      0x00\n      mstore\n      keccak256(0x00, 0x40)\n      0x00\n      swap2\n      pop\n      swap1\n      pop\n      dup1\n      0x00\n      add\n      sload\n      swap1\n      dup1\n      0x01\n      add\n      dup1\n      sload\n      tag_142\n      swap1\n      tag_116\n      jump\t// in\n    tag_142:\n      dup1\n      0x1f\n      add\n      0x20\n      dup1\n      swap2\n      div\n      mul\n      0x20\n      add\n      mload(0x40)\n      swap1\n      dup2\n      add\n      0x40\n      mstore\n      dup1\n      swap3\n      swap2\n      swap1\n      dup2\n      dup2\n      mstore\n      0x20\n      add\n      dup3\n      dup1\n      sload\n      tag_143\n      swap1\n      tag_116\n      jump\t// in\n    tag_143:\n      dup1\n      iszero\n      tag_144\n      jumpi\n      dup1\n      0x1f\n      lt\n      tag_145\n      jumpi\n      0x0100\n      dup1\n      dup4\n      sload\n      div\n      mul\n      dup4\n      mstore\n      swap2\n      0x20\n      add\n      swap2\n      jump(tag_144)\n    tag_145:\n      dup3\n      add\n      swap2\n      swap1\n      0x00\n      mstore\n      keccak256(0x00, 0x20)\n      swap1\n    tag_146:\n      dup2\n      sload\n      dup2\n      mstore\n      swap1\n      0x01\n      add\n      swap1\n      0x20\n      add\n      dup1\n      dup4\n      gt\n      tag_146\n      jumpi\n      dup3\n      swap1\n      sub\n      0x1f\n      and\n      dup3\n      add\n      swap2\n    tag_144:\n      pop\n      pop\n      pop\n      pop\n      pop\n      swap1\n      dup1\n      0x02\n      add\n      dup1\n      sload\n      tag_147\n      swap1\n      tag_116\n      jump\t// in\n    tag_147:\n      dup1\n      0x1f\n      add\n      0x20\n      dup1\n      swap2\n      div\n      mul\n      0x20\n      add\n      mload(0x40)\n      swap1\n      dup2\n      add\n      0x40\n      mstore\n      dup1\n      swap3\n      swap2\n      swap1\n      dup2\n      dup2\n      mstore\n      0x20\n      add\n      dup3\n      dup1\n      sload\n      tag_148\n      swap1\n      tag_116\n      jump\t// in\n    tag_148:\n      dup1\n      iszero\n      tag_149\n      jumpi\n      dup1\n      0x1f\n      lt\n      tag_150\n      jumpi\n      0x0100\n      dup1\n      dup4\n      sload\n      div\n      mul\n      dup4\n      mstore\n      swap2\n      0x20\n      add\n      swap2\n      jump(tag_149)\n    tag_150:\n      dup3\n      add\n      swap2\n      swap1\n      0x00\n      mstore\n      keccak256(0x00, 0x20)\n      swap1\n    tag_151:\n      dup2\n      sload\n      dup2\n      mstore\n      swap1\n      0x01\n      add\n      swap1\n      0x20\n      add\n      dup1\n      dup4\n      gt\n      tag_151\n      jumpi\n      dup3\n      swap1\n      sub\n      0x1f\n      and\n      dup3\n      add\n      swap2\n    tag_149:\n      pop\n      pop\n      pop\n      pop\n      pop\n      swap1\n      pop\n      dup4\n      jump\t// out\n        /* \"contracts/FakeProdId.sol\":1273:1313  mapping(uint => Product) public products */\n    tag_45:\n      mstore(0x20, 0x01)\n      dup1\n      0x00\n      mstore\n      keccak256(0x00, 0x40)\n      0x00\n      swap2\n      pop\n      swap1\n      pop\n      dup1\n      0x00\n      add\n      sload\n      swap1\n      dup1\n      0x01\n      add\n      dup1\n      sload\n      tag_152\n      swap1\n      tag_116\n      jump\t// in\n    tag_152:\n      dup1\n      0x1f\n      add\n      0x20\n      dup1\n      swap2\n      div\n      mul\n      0x20\n      add\n      mload(0x40)\n      swap1\n      dup2\n      add\n      0x40\n      mstore\n      dup1\n      swap3\n      swap2\n      swap1\n      dup2\n      dup2\n      mstore\n      0x20\n      add\n      dup3\n      dup1\n      sload\n      tag_153\n      swap1\n      tag_116\n      jump\t// in\n    tag_153:\n      dup1\n      iszero\n      tag_154\n      jumpi\n      dup1\n      0x1f\n      lt\n      tag_155\n      jumpi\n      0x0100\n      dup1\n      dup4\n      sload\n      div\n      mul\n      dup4\n      mstore\n      swap2\n      0x20\n      add\n      swap2\n      jump(tag_154)\n    tag_155:\n      dup3\n      add\n      swap2\n      swap1\n      0x00\n      mstore\n      keccak256(0x00, 0x20)\n      swap1\n    tag_156:\n      dup2\n      sload\n      dup2\n      mstore\n      swap1\n      0x01\n      add\n      swap1\n      0x20\n      add\n      dup1\n      dup4\n      gt\n      tag_156\n      jumpi\n      dup3\n      swap1\n      sub\n      0x1f\n      and\n      dup3\n      add\n      swap2\n    tag_154:\n      pop\n      pop\n      pop\n      pop\n      pop\n      swap1\n      dup1\n      0x02\n      add\n      sload\n      swap1\n      dup1\n      0x03\n      add\n      dup1\n      sload\n      tag_157\n      swap1\n      tag_116\n      jump\t// in\n    tag_157:\n      dup1\n      0x1f\n      add\n      0x20\n      dup1\n      swap2\n      div\n      mul\n      0x20\n      add\n      mload(0x40)\n      swap1\n      dup2\n      add\n      0x40\n      mstore\n      dup1\n      swap3\n      swap2\n      swap1\n      dup2\n      dup2\n      mstore\n      0x20\n      add\n      dup3\n      dup1\n      sload\n      tag_158\n      swap1\n      tag_116\n      jump\t// in\n    tag_158:\n      dup1\n      iszero\n      tag_159\n      jumpi\n      dup1\n      0x1f\n      lt\n      tag_160\n      jumpi\n      0x0100\n      dup1\n      dup4\n      sload\n      div\n      mul\n      dup4\n      mstore\n      swap2\n      0x20\n      add\n      swap2\n      jump(tag_159)\n    tag_160:\n      dup3\n      add\n      swap2\n      swap1\n      0x00\n      mstore\n      keccak256(0x00, 0x20)\n      swap1\n    tag_161:\n      dup2\n      sload\n      dup2\n      mstore\n      swap1\n      0x01\n      add\n      swap1\n      0x20\n      add\n      dup1\n      dup4\n      gt\n      tag_161\n      jumpi\n      dup3\n      swap1\n      sub\n      0x1f\n      and\n      dup3\n      add\n      swap2\n    tag_159:\n      pop\n      pop\n      pop\n      pop\n      pop\n      swap1\n      dup1\n      0x04\n      add\n      dup1\n      sload\n      tag_162\n      swap1\n      tag_116\n      jump\t// in\n    tag_162:\n      dup1\n      0x1f\n      add\n      0x20\n      dup1\n      swap2\n      div\n      mul\n      0x20\n      add\n      mload(0x40)\n      swap1\n      dup2\n      add\n      0x40\n      mstore\n      dup1\n      swap3\n      swap2\n      swap1\n      dup2\n      dup2\n      mstore\n      0x20\n      add\n      dup3\n      dup1\n      sload\n      tag_163\n      swap1\n      tag_116\n      jump\t// in\n    tag_163:\n      dup1\n      iszero\n      tag_164\n      jumpi\n      dup1\n      0x1f\n      lt\n      tag_165\n      jumpi\n      0x0100\n      dup1\n      dup4\n      sload\n      div\n      mul\n      dup4\n      mstore\n      swap2\n      0x20\n      add\n      swap2\n      jump(tag_164)\n    tag_165:\n      dup3\n      add\n      swap2\n      swap1\n      0x00\n      mstore\n      keccak256(0x00, 0x20)\n      swap1\n    tag_166:\n      dup2\n      sload\n      dup2\n      mstore\n      swap1\n      0x01\n      add\n      swap1\n      0x20\n      add\n      dup1\n      dup4\n      gt\n      tag_166\n      jumpi\n      dup3\n      swap1\n      sub\n      0x1f\n      and\n      dup3\n      add\n      swap2\n    tag_164:\n      pop\n      pop\n      pop\n      pop\n      pop\n      swap1\n      dup1\n      0x05\n      add\n      sload\n      swap1\n      pop\n      dup7\n      jump\t// out\n        /* \"contracts/FakeProdId.sol\":3425:3880  function addDistributor(string memory name) public{\r... */\n    tag_50:\n        /* \"contracts/FakeProdId.sol\":3486:3519  Distributor memory newDistributor */\n      tag_168\n      tag_113\n      jump\t// in\n    tag_168:\n        /* \"contracts/FakeProdId.sol\":3585:3589  name */\n      dup2\n        /* \"contracts/FakeProdId.sol\":3590:3605  block.timestamp */\n      timestamp\n        /* \"contracts/FakeProdId.sol\":3606:3622  block.difficulty */\n      difficulty\n        /* \"contracts/FakeProdId.sol\":3574:3623  abi.encode(name,block.timestamp,block.difficulty) */\n      add(0x20, mload(0x40))\n      tag_169\n      swap4\n      swap3\n      swap2\n      swap1\n      tag_101\n      jump\t// in\n    tag_169:\n      mload(0x40)\n      0x20\n      dup2\n      dup4\n      sub\n      sub\n      dup2\n      mstore\n      swap1\n      0x40\n      mstore\n        /* \"contracts/FakeProdId.sol\":3564:3624  keccak256(abi.encode(name,block.timestamp,block.difficulty)) */\n      dup1\n      mload\n      swap1\n      0x20\n      add\n      keccak256\n        /* \"contracts/FakeProdId.sol\":3559:3625  uint(keccak256(abi.encode(name,block.timestamp,block.difficulty))) */\n      0x00\n      shr\n        /* \"contracts/FakeProdId.sol\":3530:3544  newDistributor */\n      dup2\n        /* \"contracts/FakeProdId.sol\":3530:3558  newDistributor.distributorId */\n      0x00\n      add\n        /* \"contracts/FakeProdId.sol\":3530:3625  newDistributor.distributorId=uint(keccak256(abi.encode(name,block.timestamp,block.difficulty))) */\n      dup2\n      dup2\n      mstore\n      pop\n      pop\n        /* \"contracts/FakeProdId.sol\":3636:3662  newDistributor.kind = \"DI\" */\n      mload(0x40)\n      dup1\n      0x40\n      add\n      0x40\n      mstore\n      dup1\n      0x02\n      dup2\n      mstore\n      0x20\n      add\n      0x4449000000000000000000000000000000000000000000000000000000000000\n      dup2\n      mstore\n      pop\n        /* \"contracts/FakeProdId.sol\":3636:3650  newDistributor */\n      dup2\n        /* \"contracts/FakeProdId.sol\":3636:3655  newDistributor.kind */\n      0x20\n      add\n        /* \"contracts/FakeProdId.sol\":3636:3662  newDistributor.kind = \"DI\" */\n      dup2\n      swap1\n      mstore\n      pop\n        /* \"contracts/FakeProdId.sol\":3695:3699  name */\n      dup2\n        /* \"contracts/FakeProdId.sol\":3673:3687  newDistributor */\n      dup2\n        /* \"contracts/FakeProdId.sol\":3673:3692  newDistributor.name */\n      0x40\n      add\n        /* \"contracts/FakeProdId.sol\":3673:3699  newDistributor.name = name */\n      dup2\n      swap1\n      mstore\n      pop\n        /* \"contracts/FakeProdId.sol\":3750:3751  0 */\n      0x00\n        /* \"contracts/FakeProdId.sol\":3739:3752  new uint[](0) */\n      0xffffffffffffffff\n      dup2\n      gt\n      iszero\n      tag_170\n      jumpi\n      tag_171\n      tag_104\n      jump\t// in\n    tag_171:\n    tag_170:\n      mload(0x40)\n      swap1\n      dup1\n      dup3\n      mstore\n      dup1\n      0x20\n      mul\n      0x20\n      add\n      dup3\n      add\n      0x40\n      mstore\n      dup1\n      iszero\n      tag_172\n      jumpi\n      dup2\n      0x20\n      add\n      0x20\n      dup3\n      mul\n      dup1\n      calldatasize\n      dup4\n      calldatacopy\n      dup1\n      dup3\n      add\n      swap2\n      pop\n      pop\n      swap1\n      pop\n    tag_172:\n      pop\n        /* \"contracts/FakeProdId.sol\":3710:3724  newDistributor */\n      dup2\n        /* \"contracts/FakeProdId.sol\":3710:3736  newDistributor.productList */\n      0x60\n      add\n        /* \"contracts/FakeProdId.sol\":3710:3752  newDistributor.productList = new uint[](0) */\n      dup2\n      swap1\n      mstore\n      pop\n        /* \"contracts/FakeProdId.sol\":3808:3822  newDistributor */\n      dup1\n        /* \"contracts/FakeProdId.sol\":3763:3775  distributors */\n      0x05\n        /* \"contracts/FakeProdId.sol\":3763:3805  distributors[newDistributor.distributorId] */\n      0x00\n        /* \"contracts/FakeProdId.sol\":3776:3790  newDistributor */\n      dup4\n        /* \"contracts/FakeProdId.sol\":3776:3804  newDistributor.distributorId */\n      0x00\n      add\n      mload\n        /* \"contracts/FakeProdId.sol\":3763:3805  distributors[newDistributor.distributorId] */\n      dup2\n      mstore\n      0x20\n      add\n      swap1\n      dup2\n      mstore\n      0x20\n      add\n      0x00\n      keccak256\n        /* \"contracts/FakeProdId.sol\":3763:3822  distributors[newDistributor.distributorId] = newDistributor */\n      0x00\n      dup3\n      add\n      mload\n      dup2\n      0x00\n      add\n      sstore\n      0x20\n      dup3\n      add\n      mload\n      dup2\n      0x01\n      add\n      swap1\n      dup1\n      mload\n      swap1\n      0x20\n      add\n      swap1\n      tag_173\n      swap3\n      swap2\n      swap1\n      tag_107\n      jump\t// in\n    tag_173:\n      pop\n      0x40\n      dup3\n      add\n      mload\n      dup2\n      0x02\n      add\n      swap1\n      dup1\n      mload\n      swap1\n      0x20\n      add\n      swap1\n      tag_174\n      swap3\n      swap2\n      swap1\n      tag_107\n      jump\t// in\n    tag_174:\n      pop\n      0x60\n      dup3\n      add\n      mload\n      dup2\n      0x03\n      add\n      swap1\n      dup1\n      mload\n      swap1\n      0x20\n      add\n      swap1\n      tag_175\n      swap3\n      swap2\n      swap1\n      tag_110\n      jump\t// in\n    tag_175:\n      pop\n      swap1\n      pop\n      pop\n        /* \"contracts/FakeProdId.sol\":3838:3872  distributorDetails(newDistributor) */\n      0x4fbe23d5058e501d2ac74e9b5146f125d6c6ae6c3475d9431498262e998ee8e0\n        /* \"contracts/FakeProdId.sol\":3857:3871  newDistributor */\n      dup2\n        /* \"contracts/FakeProdId.sol\":3838:3872  distributorDetails(newDistributor) */\n      mload(0x40)\n      tag_176\n      swap2\n      swap1\n      tag_32\n      jump\t// in\n    tag_176:\n      mload(0x40)\n      dup1\n      swap2\n      sub\n      swap1\n      log1\n        /* \"contracts/FakeProdId.sol\":3475:3880  {\r... */\n      pop\n        /* \"contracts/FakeProdId.sol\":3425:3880  function addDistributor(string memory name) public{\r... */\n      pop\n      jump\t// out\n        /* \"contracts/FakeProdId.sol\":1507:1549  mapping(uint => Retailer) public retailers */\n    tag_53:\n      mstore(0x20, 0x06)\n      dup1\n      0x00\n      mstore\n      keccak256(0x00, 0x40)\n      0x00\n      swap2\n      pop\n      swap1\n      pop\n      dup1\n      0x00\n      add\n      sload\n      swap1\n      dup1\n      0x01\n      add\n      dup1\n      sload\n      tag_177\n      swap1\n      tag_116\n      jump\t// in\n    tag_177:\n      dup1\n      0x1f\n      add\n      0x20\n      dup1\n      swap2\n      div\n      mul\n      0x20\n      add\n      mload(0x40)\n      swap1\n      dup2\n      add\n      0x40\n      mstore\n      dup1\n      swap3\n      swap2\n      swap1\n      dup2\n      dup2\n      mstore\n      0x20\n      add\n      dup3\n      dup1\n      sload\n      tag_178\n      swap1\n      tag_116\n      jump\t// in\n    tag_178:\n      dup1\n      iszero\n      tag_179\n      jumpi\n      dup1\n      0x1f\n      lt\n      tag_180\n      jumpi\n      0x0100\n      dup1\n      dup4\n      sload\n      div\n      mul\n      dup4\n      mstore\n      swap2\n      0x20\n      add\n      swap2\n      jump(tag_179)\n    tag_180:\n      dup3\n      add\n      swap2\n      swap1\n      0x00\n      mstore\n      keccak256(0x00, 0x20)\n      swap1\n    tag_181:\n      dup2\n      sload\n      dup2\n      mstore\n      swap1\n      0x01\n      add\n      swap1\n      0x20\n      add\n      dup1\n      dup4\n      gt\n      tag_181\n      jumpi\n      dup3\n      swap1\n      sub\n      0x1f\n      and\n      dup3\n      add\n      swap2\n    tag_179:\n      pop\n      pop\n      pop\n      pop\n      pop\n      swap1\n      pop\n      dup3\n      jump\t// out\n        /* \"contracts/FakeProdId.sol\":1558:2100  function addProduct(string memory name,uint price,string memory description) public{\r... */\n    tag_59:\n        /* \"contracts/FakeProdId.sol\":1652:1677  Product memory newProduct */\n      tag_183\n      tag_184\n      jump\t// in\n    tag_183:\n        /* \"contracts/FakeProdId.sol\":1735:1739  name */\n      dup4\n        /* \"contracts/FakeProdId.sol\":1740:1755  block.timestamp */\n      timestamp\n        /* \"contracts/FakeProdId.sol\":1756:1772  block.difficulty */\n      difficulty\n        /* \"contracts/FakeProdId.sol\":1724:1773  abi.encode(name,block.timestamp,block.difficulty) */\n      add(0x20, mload(0x40))\n      tag_185\n      swap4\n      swap3\n      swap2\n      swap1\n      tag_101\n      jump\t// in\n    tag_185:\n      mload(0x40)\n      0x20\n      dup2\n      dup4\n      sub\n      sub\n      dup2\n      mstore\n      swap1\n      0x40\n      mstore\n        /* \"contracts/FakeProdId.sol\":1714:1774  keccak256(abi.encode(name,block.timestamp,block.difficulty)) */\n      dup1\n      mload\n      swap1\n      0x20\n      add\n      keccak256\n        /* \"contracts/FakeProdId.sol\":1709:1775  uint(keccak256(abi.encode(name,block.timestamp,block.difficulty))) */\n      0x00\n      shr\n        /* \"contracts/FakeProdId.sol\":1688:1698  newProduct */\n      dup2\n        /* \"contracts/FakeProdId.sol\":1688:1708  newProduct.productId */\n      0x00\n      add\n        /* \"contracts/FakeProdId.sol\":1688:1775  newProduct.productId=uint(keccak256(abi.encode(name,block.timestamp,block.difficulty))) */\n      dup2\n      dup2\n      mstore\n      pop\n      pop\n        /* \"contracts/FakeProdId.sol\":1804:1808  name */\n      dup4\n        /* \"contracts/FakeProdId.sol\":1786:1796  newProduct */\n      dup2\n        /* \"contracts/FakeProdId.sol\":1786:1801  newProduct.name */\n      0x20\n      add\n        /* \"contracts/FakeProdId.sol\":1786:1808  newProduct.name = name */\n      dup2\n      swap1\n      mstore\n      pop\n        /* \"contracts/FakeProdId.sol\":1838:1843  price */\n      dup3\n        /* \"contracts/FakeProdId.sol\":1819:1829  newProduct */\n      dup2\n        /* \"contracts/FakeProdId.sol\":1819:1835  newProduct.price */\n      0x40\n      add\n        /* \"contracts/FakeProdId.sol\":1819:1843  newProduct.price = price */\n      dup2\n      dup2\n      mstore\n      pop\n      pop\n        /* \"contracts/FakeProdId.sol\":1879:1890  description */\n      dup2\n        /* \"contracts/FakeProdId.sol\":1854:1864  newProduct */\n      dup2\n        /* \"contracts/FakeProdId.sol\":1854:1876  newProduct.description */\n      0x60\n      add\n        /* \"contracts/FakeProdId.sol\":1854:1890  newProduct.description = description */\n      dup2\n      swap1\n      mstore\n      pop\n        /* \"contracts/FakeProdId.sol\":1901:1925  newProduct.curOwner = \"\" */\n      mload(0x40)\n      dup1\n      0x20\n      add\n      0x40\n      mstore\n      dup1\n      0x00\n      dup2\n      mstore\n      pop\n        /* \"contracts/FakeProdId.sol\":1901:1911  newProduct */\n      dup2\n        /* \"contracts/FakeProdId.sol\":1901:1920  newProduct.curOwner */\n      0x80\n      add\n        /* \"contracts/FakeProdId.sol\":1901:1925  newProduct.curOwner = \"\" */\n      dup2\n      swap1\n      mstore\n      pop\n        /* \"contracts/FakeProdId.sol\":1960:1961  0 */\n      0x00\n        /* \"contracts/FakeProdId.sol\":1936:1946  newProduct */\n      dup2\n        /* \"contracts/FakeProdId.sol\":1936:1957  newProduct.curOwnerId */\n      0xa0\n      add\n        /* \"contracts/FakeProdId.sol\":1936:1961  newProduct.curOwnerId = 0 */\n      dup2\n      dup2\n      mstore\n      pop\n      pop\n        /* \"contracts/FakeProdId.sol\":2005:2015  newProduct */\n      dup1\n        /* \"contracts/FakeProdId.sol\":1972:1980  products */\n      0x01\n        /* \"contracts/FakeProdId.sol\":1972:2002  products[newProduct.productId] */\n      0x00\n        /* \"contracts/FakeProdId.sol\":1981:1991  newProduct */\n      dup4\n        /* \"contracts/FakeProdId.sol\":1981:2001  newProduct.productId */\n      0x00\n      add\n      mload\n        /* \"contracts/FakeProdId.sol\":1972:2002  products[newProduct.productId] */\n      dup2\n      mstore\n      0x20\n      add\n      swap1\n      dup2\n      mstore\n      0x20\n      add\n      0x00\n      keccak256\n        /* \"contracts/FakeProdId.sol\":1972:2015  products[newProduct.productId] = newProduct */\n      0x00\n      dup3\n      add\n      mload\n      dup2\n      0x00\n      add\n      sstore\n      0x20\n      dup3\n      add\n      mload\n      dup2\n      0x01\n      add\n      swap1\n      dup1\n      mload\n      swap1\n      0x20\n      add\n      swap1\n      tag_186\n      swap3\n      swap2\n      swap1\n      tag_107\n      jump\t// in\n    tag_186:\n      pop\n      0x40\n      dup3\n      add\n      mload\n      dup2\n      0x02\n      add\n      sstore\n      0x60\n      dup3\n      add\n      mload\n      dup2\n      0x03\n      add\n      swap1\n      dup1\n      mload\n      swap1\n      0x20\n      add\n      swap1\n      tag_187\n      swap3\n      swap2\n      swap1\n      tag_107\n      jump\t// in\n    tag_187:\n      pop\n      0x80\n      dup3\n      add\n      mload\n      dup2\n      0x04\n      add\n      swap1\n      dup1\n      mload\n      swap1\n      0x20\n      add\n      swap1\n      tag_188\n      swap3\n      swap2\n      swap1\n      tag_107\n      jump\t// in\n    tag_188:\n      pop\n      0xa0\n      dup3\n      add\n      mload\n      dup2\n      0x05\n      add\n      sstore\n      swap1\n      pop\n      pop\n        /* \"contracts/FakeProdId.sol\":2026:2038  productsSize */\n      0x02\n      0x00\n        /* \"contracts/FakeProdId.sol\":2026:2040  productsSize++ */\n      dup2\n      sload\n      dup1\n      swap3\n      swap2\n      swap1\n      tag_189\n      swap1\n      tag_190\n      jump\t// in\n    tag_189:\n      swap2\n      swap1\n      pop\n      sstore\n      pop\n        /* \"contracts/FakeProdId.sol\":2056:2092  prodDetails(newProduct,productsSize) */\n      0x0b9650a646eaf16194343a0e5cf05c4a99cfbffbf2a7630c4eaf6f3263a931d8\n        /* \"contracts/FakeProdId.sol\":2068:2078  newProduct */\n      dup2\n        /* \"contracts/FakeProdId.sol\":2079:2091  productsSize */\n      sload(0x02)\n        /* \"contracts/FakeProdId.sol\":2056:2092  prodDetails(newProduct,productsSize) */\n      mload(0x40)\n      tag_191\n      swap3\n      swap2\n      swap1\n      tag_192\n      jump\t// in\n    tag_191:\n      mload(0x40)\n      dup1\n      swap2\n      sub\n      swap1\n      log1\n        /* \"contracts/FakeProdId.sol\":1641:2100  {\r... */\n      pop\n        /* \"contracts/FakeProdId.sol\":1558:2100  function addProduct(string memory name,uint price,string memory description) public{\r... */\n      pop\n      pop\n      pop\n      jump\t// out\n        /* \"contracts/FakeProdId.sol\":2791:3260  function addManufacturer(string memory name) public{\r... */\n    tag_62:\n        /* \"contracts/FakeProdId.sol\":2853:2888  Manufacturer memory newManufacturer */\n      tag_194\n      tag_195\n      jump\t// in\n    tag_194:\n        /* \"contracts/FakeProdId.sol\":2956:2960  name */\n      dup2\n        /* \"contracts/FakeProdId.sol\":2961:2976  block.timestamp */\n      timestamp\n        /* \"contracts/FakeProdId.sol\":2977:2993  block.difficulty */\n      difficulty\n        /* \"contracts/FakeProdId.sol\":2945:2994  abi.encode(name,block.timestamp,block.difficulty) */\n      add(0x20, mload(0x40))\n      tag_196\n      swap4\n      swap3\n      swap2\n      swap1\n      tag_101\n      jump\t// in\n    tag_196:\n      mload(0x40)\n      0x20\n      dup2\n      dup4\n      sub\n      sub\n      dup2\n      mstore\n      swap1\n      0x40\n      mstore\n        /* \"contracts/FakeProdId.sol\":2935:2995  keccak256(abi.encode(name,block.timestamp,block.difficulty)) */\n      dup1\n      mload\n      swap1\n      0x20\n      add\n      keccak256\n        /* \"contracts/FakeProdId.sol\":2930:2996  uint(keccak256(abi.encode(name,block.timestamp,block.difficulty))) */\n      0x00\n      shr\n        /* \"contracts/FakeProdId.sol\":2899:2914  newManufacturer */\n      dup2\n        /* \"contracts/FakeProdId.sol\":2899:2929  newManufacturer.manufacturerId */\n      0x00\n      add\n        /* \"contracts/FakeProdId.sol\":2899:2996  newManufacturer.manufacturerId=uint(keccak256(abi.encode(name,block.timestamp,block.difficulty))) */\n      dup2\n      dup2\n      mstore\n      pop\n      pop\n        /* \"contracts/FakeProdId.sol\":3007:3034  newManufacturer.kind = \"MA\" */\n      mload(0x40)\n      dup1\n      0x40\n      add\n      0x40\n      mstore\n      dup1\n      0x02\n      dup2\n      mstore\n      0x20\n      add\n      0x4d41000000000000000000000000000000000000000000000000000000000000\n      dup2\n      mstore\n      pop\n        /* \"contracts/FakeProdId.sol\":3007:3022  newManufacturer */\n      dup2\n        /* \"contracts/FakeProdId.sol\":3007:3027  newManufacturer.kind */\n      0x20\n      add\n        /* \"contracts/FakeProdId.sol\":3007:3034  newManufacturer.kind = \"MA\" */\n      dup2\n      swap1\n      mstore\n      pop\n        /* \"contracts/FakeProdId.sol\":3068:3072  name */\n      dup2\n        /* \"contracts/FakeProdId.sol\":3045:3060  newManufacturer */\n      dup2\n        /* \"contracts/FakeProdId.sol\":3045:3065  newManufacturer.name */\n      0x40\n      add\n        /* \"contracts/FakeProdId.sol\":3045:3072  newManufacturer.name = name */\n      dup2\n      swap1\n      mstore\n      pop\n        /* \"contracts/FakeProdId.sol\":3124:3125  0 */\n      0x00\n        /* \"contracts/FakeProdId.sol\":3113:3126  new uint[](0) */\n      0xffffffffffffffff\n      dup2\n      gt\n      iszero\n      tag_197\n      jumpi\n      tag_198\n      tag_104\n      jump\t// in\n    tag_198:\n    tag_197:\n      mload(0x40)\n      swap1\n      dup1\n      dup3\n      mstore\n      dup1\n      0x20\n      mul\n      0x20\n      add\n      dup3\n      add\n      0x40\n      mstore\n      dup1\n      iszero\n      tag_199\n      jumpi\n      dup2\n      0x20\n      add\n      0x20\n      dup3\n      mul\n      dup1\n      calldatasize\n      dup4\n      calldatacopy\n      dup1\n      dup3\n      add\n      swap2\n      pop\n      pop\n      swap1\n      pop\n    tag_199:\n      pop\n        /* \"contracts/FakeProdId.sol\":3083:3098  newManufacturer */\n      dup2\n        /* \"contracts/FakeProdId.sol\":3083:3110  newManufacturer.productList */\n      0x60\n      add\n        /* \"contracts/FakeProdId.sol\":3083:3126  newManufacturer.productList = new uint[](0) */\n      dup2\n      swap1\n      mstore\n      pop\n        /* \"contracts/FakeProdId.sol\":3185:3200  newManufacturer */\n      dup1\n        /* \"contracts/FakeProdId.sol\":3137:3150  manufacturers */\n      0x04\n        /* \"contracts/FakeProdId.sol\":3137:3182  manufacturers[newManufacturer.manufacturerId] */\n      0x00\n        /* \"contracts/FakeProdId.sol\":3151:3166  newManufacturer */\n      dup4\n        /* \"contracts/FakeProdId.sol\":3151:3181  newManufacturer.manufacturerId */\n      0x00\n      add\n      mload\n        /* \"contracts/FakeProdId.sol\":3137:3182  manufacturers[newManufacturer.manufacturerId] */\n      dup2\n      mstore\n      0x20\n      add\n      swap1\n      dup2\n      mstore\n      0x20\n      add\n      0x00\n      keccak256\n        /* \"contracts/FakeProdId.sol\":3137:3200  manufacturers[newManufacturer.manufacturerId] = newManufacturer */\n      0x00\n      dup3\n      add\n      mload\n      dup2\n      0x00\n      add\n      sstore\n      0x20\n      dup3\n      add\n      mload\n      dup2\n      0x01\n      add\n      swap1\n      dup1\n      mload\n      swap1\n      0x20\n      add\n      swap1\n      tag_200\n      swap3\n      swap2\n      swap1\n      tag_107\n      jump\t// in\n    tag_200:\n      pop\n      0x40\n      dup3\n      add\n      mload\n      dup2\n      0x02\n      add\n      swap1\n      dup1\n      mload\n      swap1\n      0x20\n      add\n      swap1\n      tag_201\n      swap3\n      swap2\n      swap1\n      tag_107\n      jump\t// in\n    tag_201:\n      pop\n      0x60\n      dup3\n      add\n      mload\n      dup2\n      0x03\n      add\n      swap1\n      dup1\n      mload\n      swap1\n      0x20\n      add\n      swap1\n      tag_202\n      swap3\n      swap2\n      swap1\n      tag_110\n      jump\t// in\n    tag_202:\n      pop\n      swap1\n      pop\n      pop\n        /* \"contracts/FakeProdId.sol\":3216:3252  manufacturerDetails(newManufacturer) */\n      0xc127163e194edd469d13210787466a0adb629f336e45d1fc7bc4e2797805615e\n        /* \"contracts/FakeProdId.sol\":3236:3251  newManufacturer */\n      dup2\n        /* \"contracts/FakeProdId.sol\":3216:3252  manufacturerDetails(newManufacturer) */\n      mload(0x40)\n      tag_203\n      swap2\n      swap1\n      tag_83\n      jump\t// in\n    tag_203:\n      mload(0x40)\n      dup1\n      swap2\n      sub\n      swap1\n      log1\n        /* \"contracts/FakeProdId.sol\":2842:3260  {\r... */\n      pop\n        /* \"contracts/FakeProdId.sol\":2791:3260  function addManufacturer(string memory name) public{\r... */\n      pop\n      jump\t// out\n        /* \"contracts/FakeProdId.sol\":1395:1445  mapping(uint => Manufacturer) public manufacturers */\n    tag_65:\n      mstore(0x20, 0x04)\n      dup1\n      0x00\n      mstore\n      keccak256(0x00, 0x40)\n      0x00\n      swap2\n      pop\n      swap1\n      pop\n      dup1\n      0x00\n      add\n      sload\n      swap1\n      dup1\n      0x01\n      add\n      dup1\n      sload\n      tag_204\n      swap1\n      tag_116\n      jump\t// in\n    tag_204:\n      dup1\n      0x1f\n      add\n      0x20\n      dup1\n      swap2\n      div\n      mul\n      0x20\n      add\n      mload(0x40)\n      swap1\n      dup2\n      add\n      0x40\n      mstore\n      dup1\n      swap3\n      swap2\n      swap1\n      dup2\n      dup2\n      mstore\n      0x20\n      add\n      dup3\n      dup1\n      sload\n      tag_205\n      swap1\n      tag_116\n      jump\t// in\n    tag_205:\n      dup1\n      iszero\n      tag_206\n      jumpi\n      dup1\n      0x1f\n      lt\n      tag_207\n      jumpi\n      0x0100\n      dup1\n      dup4\n      sload\n      div\n      mul\n      dup4\n      mstore\n      swap2\n      0x20\n      add\n      swap2\n      jump(tag_206)\n    tag_207:\n      dup3\n      add\n      swap2\n      swap1\n      0x00\n      mstore\n      keccak256(0x00, 0x20)\n      swap1\n    tag_208:\n      dup2\n      sload\n      dup2\n      mstore\n      swap1\n      0x01\n      add\n      swap1\n      0x20\n      add\n      dup1\n      dup4\n      gt\n      tag_208\n      jumpi\n      dup3\n      swap1\n      sub\n      0x1f\n      and\n      dup3\n      add\n      swap2\n    tag_206:\n      pop\n      pop\n      pop\n      pop\n      pop\n      swap1\n      dup1\n      0x02\n      add\n      dup1\n      sload\n      tag_209\n      swap1\n      tag_116\n      jump\t// in\n    tag_209:\n      dup1\n      0x1f\n      add\n      0x20\n      dup1\n      swap2\n      div\n      mul\n      0x20\n      add\n      mload(0x40)\n      swap1\n      dup2\n      add\n      0x40\n      mstore\n      dup1\n      swap3\n      swap2\n      swap1\n      dup2\n      dup2\n      mstore\n      0x20\n      add\n      dup3\n      dup1\n      sload\n      tag_210\n      swap1\n      tag_116\n      jump\t// in\n    tag_210:\n      dup1\n      iszero\n      tag_211\n      jumpi\n      dup1\n      0x1f\n      lt\n      tag_212\n      jumpi\n      0x0100\n      dup1\n      dup4\n      sload\n      div\n      mul\n      dup4\n      mstore\n      swap2\n      0x20\n      add\n      swap2\n      jump(tag_211)\n    tag_212:\n      dup3\n      add\n      swap2\n      swap1\n      0x00\n      mstore\n      keccak256(0x00, 0x20)\n      swap1\n    tag_213:\n      dup2\n      sload\n      dup2\n      mstore\n      swap1\n      0x01\n      add\n      swap1\n      0x20\n      add\n      dup1\n      dup4\n      gt\n      tag_213\n      jumpi\n      dup3\n      swap1\n      sub\n      0x1f\n      and\n      dup3\n      add\n      swap2\n    tag_211:\n      pop\n      pop\n      pop\n      pop\n      pop\n      swap1\n      pop\n      dup4\n      jump\t// out\n        /* \"contracts/FakeProdId.sol\":4044:4423  function addRetailer(string memory name) public{\r... */\n    tag_69:\n        /* \"contracts/FakeProdId.sol\":4102:4129  Retailer memory newRetailer */\n      tag_215\n      tag_216\n      jump\t// in\n    tag_215:\n        /* \"contracts/FakeProdId.sol\":4189:4193  name */\n      dup2\n        /* \"contracts/FakeProdId.sol\":4194:4209  block.timestamp */\n      timestamp\n        /* \"contracts/FakeProdId.sol\":4210:4226  block.difficulty */\n      difficulty\n        /* \"contracts/FakeProdId.sol\":4178:4227  abi.encode(name,block.timestamp,block.difficulty) */\n      add(0x20, mload(0x40))\n      tag_217\n      swap4\n      swap3\n      swap2\n      swap1\n      tag_101\n      jump\t// in\n    tag_217:\n      mload(0x40)\n      0x20\n      dup2\n      dup4\n      sub\n      sub\n      dup2\n      mstore\n      swap1\n      0x40\n      mstore\n        /* \"contracts/FakeProdId.sol\":4168:4228  keccak256(abi.encode(name,block.timestamp,block.difficulty)) */\n      dup1\n      mload\n      swap1\n      0x20\n      add\n      keccak256\n        /* \"contracts/FakeProdId.sol\":4163:4229  uint(keccak256(abi.encode(name,block.timestamp,block.difficulty))) */\n      0x00\n      shr\n        /* \"contracts/FakeProdId.sol\":4140:4151  newRetailer */\n      dup2\n        /* \"contracts/FakeProdId.sol\":4140:4162  newRetailer.retailerId */\n      0x00\n      add\n        /* \"contracts/FakeProdId.sol\":4140:4229  newRetailer.retailerId=uint(keccak256(abi.encode(name,block.timestamp,block.difficulty))) */\n      dup2\n      dup2\n      mstore\n      pop\n      pop\n        /* \"contracts/FakeProdId.sol\":4259:4263  name */\n      dup2\n        /* \"contracts/FakeProdId.sol\":4240:4251  newRetailer */\n      dup2\n        /* \"contracts/FakeProdId.sol\":4240:4256  newRetailer.name */\n      0x20\n      add\n        /* \"contracts/FakeProdId.sol\":4240:4263  newRetailer.name = name */\n      dup2\n      swap1\n      mstore\n      pop\n        /* \"contracts/FakeProdId.sol\":4311:4312  0 */\n      0x00\n        /* \"contracts/FakeProdId.sol\":4300:4313  new uint[](0) */\n      0xffffffffffffffff\n      dup2\n      gt\n      iszero\n      tag_218\n      jumpi\n      tag_219\n      tag_104\n      jump\t// in\n    tag_219:\n    tag_218:\n      mload(0x40)\n      swap1\n      dup1\n      dup3\n      mstore\n      dup1\n      0x20\n      mul\n      0x20\n      add\n      dup3\n      add\n      0x40\n      mstore\n      dup1\n      iszero\n      tag_220\n      jumpi\n      dup2\n      0x20\n      add\n      0x20\n      dup3\n      mul\n      dup1\n      calldatasize\n      dup4\n      calldatacopy\n      dup1\n      dup3\n      add\n      swap2\n      pop\n      pop\n      swap1\n      pop\n    tag_220:\n      pop\n        /* \"contracts/FakeProdId.sol\":4274:4285  newRetailer */\n      dup2\n        /* \"contracts/FakeProdId.sol\":4274:4297  newRetailer.productList */\n      0x40\n      add\n        /* \"contracts/FakeProdId.sol\":4274:4313  newRetailer.productList = new uint[](0) */\n      dup2\n      swap1\n      mstore\n      pop\n        /* \"contracts/FakeProdId.sol\":4360:4371  newRetailer */\n      dup1\n        /* \"contracts/FakeProdId.sol\":4324:4333  retailers */\n      0x06\n        /* \"contracts/FakeProdId.sol\":4324:4357  retailers[newRetailer.retailerId] */\n      0x00\n        /* \"contracts/FakeProdId.sol\":4334:4345  newRetailer */\n      dup4\n        /* \"contracts/FakeProdId.sol\":4334:4356  newRetailer.retailerId */\n      0x00\n      add\n      mload\n        /* \"contracts/FakeProdId.sol\":4324:4357  retailers[newRetailer.retailerId] */\n      dup2\n      mstore\n      0x20\n      add\n      swap1\n      dup2\n      mstore\n      0x20\n      add\n      0x00\n      keccak256\n        /* \"contracts/FakeProdId.sol\":4324:4371  retailers[newRetailer.retailerId] = newRetailer */\n      0x00\n      dup3\n      add\n      mload\n      dup2\n      0x00\n      add\n      sstore\n      0x20\n      dup3\n      add\n      mload\n      dup2\n      0x01\n      add\n      swap1\n      dup1\n      mload\n      swap1\n      0x20\n      add\n      swap1\n      tag_221\n      swap3\n      swap2\n      swap1\n      tag_107\n      jump\t// in\n    tag_221:\n      pop\n      0x40\n      dup3\n      add\n      mload\n      dup2\n      0x02\n      add\n      swap1\n      dup1\n      mload\n      swap1\n      0x20\n      add\n      swap1\n      tag_222\n      swap3\n      swap2\n      swap1\n      tag_110\n      jump\t// in\n    tag_222:\n      pop\n      swap1\n      pop\n      pop\n        /* \"contracts/FakeProdId.sol\":4387:4415  retailerDetails(newRetailer) */\n      0x3f3d80dc5c883417f8997fef692ba50e4f4f4762e620926e80d9aed3b08b89d0\n        /* \"contracts/FakeProdId.sol\":4403:4414  newRetailer */\n      dup2\n        /* \"contracts/FakeProdId.sol\":4387:4415  retailerDetails(newRetailer) */\n      mload(0x40)\n      tag_223\n      swap2\n      swap1\n      tag_88\n      jump\t// in\n    tag_223:\n      mload(0x40)\n      dup1\n      swap2\n      sub\n      swap1\n      log1\n        /* \"contracts/FakeProdId.sol\":4091:4423  {\r... */\n      pop\n        /* \"contracts/FakeProdId.sol\":4044:4423  function addRetailer(string memory name) public{\r... */\n      pop\n      jump\t// out\n        /* \"contracts/FakeProdId.sol\":2108:2225  function getProduct(uint productId) public view returns (Product memory){\r... */\n    tag_72:\n        /* \"contracts/FakeProdId.sol\":2165:2179  Product memory */\n      tag_224\n      tag_184\n      jump\t// in\n    tag_224:\n        /* \"contracts/FakeProdId.sol\":2198:2206  products */\n      0x01\n        /* \"contracts/FakeProdId.sol\":2198:2217  products[productId] */\n      0x00\n        /* \"contracts/FakeProdId.sol\":2207:2216  productId */\n      dup4\n        /* \"contracts/FakeProdId.sol\":2198:2217  products[productId] */\n      dup2\n      mstore\n      0x20\n      add\n      swap1\n      dup2\n      mstore\n      0x20\n      add\n      0x00\n      keccak256\n        /* \"contracts/FakeProdId.sol\":2191:2217  return products[productId] */\n      mload(0x40)\n      dup1\n      0xc0\n      add\n      0x40\n      mstore\n      swap1\n      dup2\n      0x00\n      dup3\n      add\n      sload\n      dup2\n      mstore\n      0x20\n      add\n      0x01\n      dup3\n      add\n      dup1\n      sload\n      tag_226\n      swap1\n      tag_116\n      jump\t// in\n    tag_226:\n      dup1\n      0x1f\n      add\n      0x20\n      dup1\n      swap2\n      div\n      mul\n      0x20\n      add\n      mload(0x40)\n      swap1\n      dup2\n      add\n      0x40\n      mstore\n      dup1\n      swap3\n      swap2\n      swap1\n      dup2\n      dup2\n      mstore\n      0x20\n      add\n      dup3\n      dup1\n      sload\n      tag_227\n      swap1\n      tag_116\n      jump\t// in\n    tag_227:\n      dup1\n      iszero\n      tag_228\n      jumpi\n      dup1\n      0x1f\n      lt\n      tag_229\n      jumpi\n      0x0100\n      dup1\n      dup4\n      sload\n      div\n      mul\n      dup4\n      mstore\n      swap2\n      0x20\n      add\n      swap2\n      jump(tag_228)\n    tag_229:\n      dup3\n      add\n      swap2\n      swap1\n      0x00\n      mstore\n      keccak256(0x00, 0x20)\n      swap1\n    tag_230:\n      dup2\n      sload\n      dup2\n      mstore\n      swap1\n      0x01\n      add\n      swap1\n      0x20\n      add\n      dup1\n      dup4\n      gt\n      tag_230\n      jumpi\n      dup3\n      swap1\n      sub\n      0x1f\n      and\n      dup3\n      add\n      swap2\n    tag_228:\n      pop\n      pop\n      pop\n      pop\n      pop\n      dup2\n      mstore\n      0x20\n      add\n      0x02\n      dup3\n      add\n      sload\n      dup2\n      mstore\n      0x20\n      add\n      0x03\n      dup3\n      add\n      dup1\n      sload\n      tag_231\n      swap1\n      tag_116\n      jump\t// in\n    tag_231:\n      dup1\n      0x1f\n      add\n      0x20\n      dup1\n      swap2\n      div\n      mul\n      0x20\n      add\n      mload(0x40)\n      swap1\n      dup2\n      add\n      0x40\n      mstore\n      dup1\n      swap3\n      swap2\n      swap1\n      dup2\n      dup2\n      mstore\n      0x20\n      add\n      dup3\n      dup1\n      sload\n      tag_232\n      swap1\n      tag_116\n      jump\t// in\n    tag_232:\n      dup1\n      iszero\n      tag_233\n      jumpi\n      dup1\n      0x1f\n      lt\n      tag_234\n      jumpi\n      0x0100\n      dup1\n      dup4\n      sload\n      div\n      mul\n      dup4\n      mstore\n      swap2\n      0x20\n      add\n      swap2\n      jump(tag_233)\n    tag_234:\n      dup3\n      add\n      swap2\n      swap1\n      0x00\n      mstore\n      keccak256(0x00, 0x20)\n      swap1\n    tag_235:\n      dup2\n      sload\n      dup2\n      mstore\n      swap1\n      0x01\n      add\n      swap1\n      0x20\n      add\n      dup1\n      dup4\n      gt\n      tag_235\n      jumpi\n      dup3\n      swap1\n      sub\n      0x1f\n      and\n      dup3\n      add\n      swap2\n    tag_233:\n      pop\n      pop\n      pop\n      pop\n      pop\n      dup2\n      mstore\n      0x20\n      add\n      0x04\n      dup3\n      add\n      dup1\n      sload\n      tag_236\n      swap1\n      tag_116\n      jump\t// in\n    tag_236:\n      dup1\n      0x1f\n      add\n      0x20\n      dup1\n      swap2\n      div\n      mul\n      0x20\n      add\n      mload(0x40)\n      swap1\n      dup2\n      add\n      0x40\n      mstore\n      dup1\n      swap3\n      swap2\n      swap1\n      dup2\n      dup2\n      mstore\n      0x20\n      add\n      dup3\n      dup1\n      sload\n      tag_237\n      swap1\n      tag_116\n      jump\t// in\n    tag_237:\n      dup1\n      iszero\n      tag_238\n      jumpi\n      dup1\n      0x1f\n      lt\n      tag_239\n      jumpi\n      0x0100\n      dup1\n      dup4\n      sload\n      div\n      mul\n      dup4\n      mstore\n      swap2\n      0x20\n      add\n      swap2\n      jump(tag_238)\n    tag_239:\n      dup3\n      add\n      swap2\n      swap1\n      0x00\n      mstore\n      keccak256(0x00, 0x20)\n      swap1\n    tag_240:\n      dup2\n      sload\n      dup2\n      mstore\n      swap1\n      0x01\n      add\n      swap1\n      0x20\n      add\n      dup1\n      dup4\n      gt\n      tag_240\n      jumpi\n      dup3\n      swap1\n      sub\n      0x1f\n      and\n      dup3\n      add\n      swap2\n    tag_238:\n      pop\n      pop\n      pop\n      pop\n      pop\n      dup2\n      mstore\n      0x20\n      add\n      0x05\n      dup3\n      add\n      sload\n      dup2\n      mstore\n      pop\n      pop\n      swap1\n      pop\n        /* \"contracts/FakeProdId.sol\":2108:2225  function getProduct(uint productId) public view returns (Product memory){\r... */\n      swap2\n      swap1\n      pop\n      jump\t// out\n        /* \"contracts/FakeProdId.sol\":4881:5278  function supplierToManufacturer(uint productId,uint supplierId,uint manufacturerId) public{\r... */\n    tag_78:\n        /* \"contracts/FakeProdId.sol\":4982:4999  Supplier memory s */\n      0x00\n        /* \"contracts/FakeProdId.sol\":5002:5032  getsupplierDetails(supplierId) */\n      tag_242\n        /* \"contracts/FakeProdId.sol\":5021:5031  supplierId */\n      dup4\n        /* \"contracts/FakeProdId.sol\":5002:5020  getsupplierDetails */\n      tag_35\n        /* \"contracts/FakeProdId.sol\":5002:5032  getsupplierDetails(supplierId) */\n      jump\t// in\n    tag_242:\n        /* \"contracts/FakeProdId.sol\":4982:5032  Supplier memory s = getsupplierDetails(supplierId) */\n      swap1\n      pop\n        /* \"contracts/FakeProdId.sol\":5043:5059  Product memory p */\n      0x00\n        /* \"contracts/FakeProdId.sol\":5062:5083  getProduct(productId) */\n      tag_243\n        /* \"contracts/FakeProdId.sol\":5073:5082  productId */\n      dup6\n        /* \"contracts/FakeProdId.sol\":5062:5072  getProduct */\n      tag_72\n        /* \"contracts/FakeProdId.sol\":5062:5083  getProduct(productId) */\n      jump\t// in\n    tag_243:\n        /* \"contracts/FakeProdId.sol\":5043:5083  Product memory p = getProduct(productId) */\n      swap1\n      pop\n        /* \"contracts/FakeProdId.sol\":5094:5115  Manufacturer memory m */\n      0x00\n        /* \"contracts/FakeProdId.sol\":5118:5156  getmanufacturerDetails(manufacturerId) */\n      tag_244\n        /* \"contracts/FakeProdId.sol\":5141:5155  manufacturerId */\n      dup5\n        /* \"contracts/FakeProdId.sol\":5118:5140  getmanufacturerDetails */\n      tag_81\n        /* \"contracts/FakeProdId.sol\":5118:5156  getmanufacturerDetails(manufacturerId) */\n      jump\t// in\n    tag_244:\n        /* \"contracts/FakeProdId.sol\":5094:5156  Manufacturer memory m = getmanufacturerDetails(manufacturerId) */\n      swap1\n      pop\n        /* \"contracts/FakeProdId.sol\":5182:5183  m */\n      dup1\n        /* \"contracts/FakeProdId.sol\":5182:5188  m.name */\n      0x40\n      add\n      mload\n        /* \"contracts/FakeProdId.sol\":5169:5170  p */\n      dup3\n        /* \"contracts/FakeProdId.sol\":5169:5179  p.curOwner */\n      0x80\n      add\n        /* \"contracts/FakeProdId.sol\":5169:5188  p.curOwner = m.name */\n      dup2\n      swap1\n      mstore\n      pop\n        /* \"contracts/FakeProdId.sol\":5214:5215  m */\n      dup1\n        /* \"contracts/FakeProdId.sol\":5214:5230  m.manufacturerId */\n      0x00\n      add\n      mload\n        /* \"contracts/FakeProdId.sol\":5199:5200  p */\n      dup3\n        /* \"contracts/FakeProdId.sol\":5199:5211  p.curOwnerId */\n      0xa0\n      add\n        /* \"contracts/FakeProdId.sol\":5199:5230  p.curOwnerId = m.manufacturerId */\n      dup2\n      dup2\n      mstore\n      pop\n      pop\n        /* \"contracts/FakeProdId.sol\":5248:5270  completeTransaction(p) */\n      0x59be542ca2db8c0eaeb99f755e7eab871d9cefc9b5e52b1f107b679c7295fae1\n        /* \"contracts/FakeProdId.sol\":5268:5269  p */\n      dup3\n        /* \"contracts/FakeProdId.sol\":5248:5270  completeTransaction(p) */\n      mload(0x40)\n      tag_245\n      swap2\n      swap1\n      tag_74\n      jump\t// in\n    tag_245:\n      mload(0x40)\n      dup1\n      swap2\n      sub\n      swap1\n      log1\n        /* \"contracts/FakeProdId.sol\":4971:5278  {\r... */\n      pop\n      pop\n      pop\n        /* \"contracts/FakeProdId.sol\":4881:5278  function supplierToManufacturer(uint productId,uint supplierId,uint manufacturerId) public{\r... */\n      pop\n      pop\n      pop\n      jump\t// out\n        /* \"contracts/FakeProdId.sol\":3268:3417  function getmanufacturerDetails(uint manufacturerId) public view returns (Manufacturer memory){\r... */\n    tag_81:\n        /* \"contracts/FakeProdId.sol\":3342:3361  Manufacturer memory */\n      tag_246\n      tag_195\n      jump\t// in\n    tag_246:\n        /* \"contracts/FakeProdId.sol\":3380:3393  manufacturers */\n      0x04\n        /* \"contracts/FakeProdId.sol\":3380:3409  manufacturers[manufacturerId] */\n      0x00\n        /* \"contracts/FakeProdId.sol\":3394:3408  manufacturerId */\n      dup4\n        /* \"contracts/FakeProdId.sol\":3380:3409  manufacturers[manufacturerId] */\n      dup2\n      mstore\n      0x20\n      add\n      swap1\n      dup2\n      mstore\n      0x20\n      add\n      0x00\n      keccak256\n        /* \"contracts/FakeProdId.sol\":3373:3409  return manufacturers[manufacturerId] */\n      mload(0x40)\n      dup1\n      0x80\n      add\n      0x40\n      mstore\n      swap1\n      dup2\n      0x00\n      dup3\n      add\n      sload\n      dup2\n      mstore\n      0x20\n      add\n      0x01\n      dup3\n      add\n      dup1\n      sload\n      tag_248\n      swap1\n      tag_116\n      jump\t// in\n    tag_248:\n      dup1\n      0x1f\n      add\n      0x20\n      dup1\n      swap2\n      div\n      mul\n      0x20\n      add\n      mload(0x40)\n      swap1\n      dup2\n      add\n      0x40\n      mstore\n      dup1\n      swap3\n      swap2\n      swap1\n      dup2\n      dup2\n      mstore\n      0x20\n      add\n      dup3\n      dup1\n      sload\n      tag_249\n      swap1\n      tag_116\n      jump\t// in\n    tag_249:\n      dup1\n      iszero\n      tag_250\n      jumpi\n      dup1\n      0x1f\n      lt\n      tag_251\n      jumpi\n      0x0100\n      dup1\n      dup4\n      sload\n      div\n      mul\n      dup4\n      mstore\n      swap2\n      0x20\n      add\n      swap2\n      jump(tag_250)\n    tag_251:\n      dup3\n      add\n      swap2\n      swap1\n      0x00\n      mstore\n      keccak256(0x00, 0x20)\n      swap1\n    tag_252:\n      dup2\n      sload\n      dup2\n      mstore\n      swap1\n      0x01\n      add\n      swap1\n      0x20\n      add\n      dup1\n      dup4\n      gt\n      tag_252\n      jumpi\n      dup3\n      swap1\n      sub\n      0x1f\n      and\n      dup3\n      add\n      swap2\n    tag_250:\n      pop\n      pop\n      pop\n      pop\n      pop\n      dup2\n      mstore\n      0x20\n      add\n      0x02\n      dup3\n      add\n      dup1\n      sload\n      tag_253\n      swap1\n      tag_116\n      jump\t// in\n    tag_253:\n      dup1\n      0x1f\n      add\n      0x20\n      dup1\n      swap2\n      div\n      mul\n      0x20\n      add\n      mload(0x40)\n      swap1\n      dup2\n      add\n      0x40\n      mstore\n      dup1\n      swap3\n      swap2\n      swap1\n      dup2\n      dup2\n      mstore\n      0x20\n      add\n      dup3\n      dup1\n      sload\n      tag_254\n      swap1\n      tag_116\n      jump\t// in\n    tag_254:\n      dup1\n      iszero\n      tag_255\n      jumpi\n      dup1\n      0x1f\n      lt\n      tag_256\n      jumpi\n      0x0100\n      dup1\n      dup4\n      sload\n      div\n      mul\n      dup4\n      mstore\n      swap2\n      0x20\n      add\n      swap2\n      jump(tag_255)\n    tag_256:\n      dup3\n      add\n      swap2\n      swap1\n      0x00\n      mstore\n      keccak256(0x00, 0x20)\n      swap1\n    tag_257:\n      dup2\n      sload\n      dup2\n      mstore\n      swap1\n      0x01\n      add\n      swap1\n      0x20\n      add\n      dup1\n      dup4\n      gt\n      tag_257\n      jumpi\n      dup3\n      swap1\n      sub\n      0x1f\n      and\n      dup3\n      add\n      swap2\n    tag_255:\n      pop\n      pop\n      pop\n      pop\n      pop\n      dup2\n      mstore\n      0x20\n      add\n      0x03\n      dup3\n      add\n      dup1\n      sload\n      dup1\n      0x20\n      mul\n      0x20\n      add\n      mload(0x40)\n      swap1\n      dup2\n      add\n      0x40\n      mstore\n      dup1\n      swap3\n      swap2\n      swap1\n      dup2\n      dup2\n      mstore\n      0x20\n      add\n      dup3\n      dup1\n      sload\n      dup1\n      iszero\n      tag_258\n      jumpi\n      0x20\n      mul\n      dup3\n      add\n      swap2\n      swap1\n      0x00\n      mstore\n      keccak256(0x00, 0x20)\n      swap1\n    tag_259:\n      dup2\n      sload\n      dup2\n      mstore\n      0x20\n      add\n      swap1\n      0x01\n      add\n      swap1\n      dup1\n      dup4\n      gt\n      tag_259\n      jumpi\n    tag_258:\n      pop\n      pop\n      pop\n      pop\n      pop\n      dup2\n      mstore\n      pop\n      pop\n      swap1\n      pop\n        /* \"contracts/FakeProdId.sol\":3268:3417  function getmanufacturerDetails(uint manufacturerId) public view returns (Manufacturer memory){\r... */\n      swap2\n      swap1\n      pop\n      jump\t// out\n        /* \"contracts/FakeProdId.sol\":4431:4560  function getretailerDetails(uint retailerId) public view returns (Retailer memory){\r... */\n    tag_86:\n        /* \"contracts/FakeProdId.sol\":4497:4512  Retailer memory */\n      tag_260\n      tag_216\n      jump\t// in\n    tag_260:\n        /* \"contracts/FakeProdId.sol\":4531:4540  retailers */\n      0x06\n        /* \"contracts/FakeProdId.sol\":4531:4552  retailers[retailerId] */\n      0x00\n        /* \"contracts/FakeProdId.sol\":4541:4551  retailerId */\n      dup4\n        /* \"contracts/FakeProdId.sol\":4531:4552  retailers[retailerId] */\n      dup2\n      mstore\n      0x20\n      add\n      swap1\n      dup2\n      mstore\n      0x20\n      add\n      0x00\n      keccak256\n        /* \"contracts/FakeProdId.sol\":4524:4552  return retailers[retailerId] */\n      mload(0x40)\n      dup1\n      0x60\n      add\n      0x40\n      mstore\n      swap1\n      dup2\n      0x00\n      dup3\n      add\n      sload\n      dup2\n      mstore\n      0x20\n      add\n      0x01\n      dup3\n      add\n      dup1\n      sload\n      tag_262\n      swap1\n      tag_116\n      jump\t// in\n    tag_262:\n      dup1\n      0x1f\n      add\n      0x20\n      dup1\n      swap2\n      div\n      mul\n      0x20\n      add\n      mload(0x40)\n      swap1\n      dup2\n      add\n      0x40\n      mstore\n      dup1\n      swap3\n      swap2\n      swap1\n      dup2\n      dup2\n      mstore\n      0x20\n      add\n      dup3\n      dup1\n      sload\n      tag_263\n      swap1\n      tag_116\n      jump\t// in\n    tag_263:\n      dup1\n      iszero\n      tag_264\n      jumpi\n      dup1\n      0x1f\n      lt\n      tag_265\n      jumpi\n      0x0100\n      dup1\n      dup4\n      sload\n      div\n      mul\n      dup4\n      mstore\n      swap2\n      0x20\n      add\n      swap2\n      jump(tag_264)\n    tag_265:\n      dup3\n      add\n      swap2\n      swap1\n      0x00\n      mstore\n      keccak256(0x00, 0x20)\n      swap1\n    tag_266:\n      dup2\n      sload\n      dup2\n      mstore\n      swap1\n      0x01\n      add\n      swap1\n      0x20\n      add\n      dup1\n      dup4\n      gt\n      tag_266\n      jumpi\n      dup3\n      swap1\n      sub\n      0x1f\n      and\n      dup3\n      add\n      swap2\n    tag_264:\n      pop\n      pop\n      pop\n      pop\n      pop\n      dup2\n      mstore\n      0x20\n      add\n      0x02\n      dup3\n      add\n      dup1\n      sload\n      dup1\n      0x20\n      mul\n      0x20\n      add\n      mload(0x40)\n      swap1\n      dup2\n      add\n      0x40\n      mstore\n      dup1\n      swap3\n      swap2\n      swap1\n      dup2\n      dup2\n      mstore\n      0x20\n      add\n      dup3\n      dup1\n      sload\n      dup1\n      iszero\n      tag_267\n      jumpi\n      0x20\n      mul\n      dup3\n      add\n      swap2\n      swap1\n      0x00\n      mstore\n      keccak256(0x00, 0x20)\n      swap1\n    tag_268:\n      dup2\n      sload\n      dup2\n      mstore\n      0x20\n      add\n      swap1\n      0x01\n      add\n      swap1\n      dup1\n      dup4\n      gt\n      tag_268\n      jumpi\n    tag_267:\n      pop\n      pop\n      pop\n      pop\n      pop\n      dup2\n      mstore\n      pop\n      pop\n      swap1\n      pop\n        /* \"contracts/FakeProdId.sol\":4431:4560  function getretailerDetails(uint retailerId) public view returns (Retailer memory){\r... */\n      swap2\n      swap1\n      pop\n      jump\t// out\n        /* \"contracts/FakeProdId.sol\":1346:1388  mapping(uint => Supplier) public suppliers */\n    tag_91:\n      mstore(0x20, 0x03)\n      dup1\n      0x00\n      mstore\n      keccak256(0x00, 0x40)\n      0x00\n      swap2\n      pop\n      swap1\n      pop\n      dup1\n      0x00\n      add\n      sload\n      swap1\n      dup1\n      0x01\n      add\n      dup1\n      sload\n      tag_269\n      swap1\n      tag_116\n      jump\t// in\n    tag_269:\n      dup1\n      0x1f\n      add\n      0x20\n      dup1\n      swap2\n      div\n      mul\n      0x20\n      add\n      mload(0x40)\n      swap1\n      dup2\n      add\n      0x40\n      mstore\n      dup1\n      swap3\n      swap2\n      swap1\n      dup2\n      dup2\n      mstore\n      0x20\n      add\n      dup3\n      dup1\n      sload\n      tag_270\n      swap1\n      tag_116\n      jump\t// in\n    tag_270:\n      dup1\n      iszero\n      tag_271\n      jumpi\n      dup1\n      0x1f\n      lt\n      tag_272\n      jumpi\n      0x0100\n      dup1\n      dup4\n      sload\n      div\n      mul\n      dup4\n      mstore\n      swap2\n      0x20\n      add\n      swap2\n      jump(tag_271)\n    tag_272:\n      dup3\n      add\n      swap2\n      swap1\n      0x00\n      mstore\n      keccak256(0x00, 0x20)\n      swap1\n    tag_273:\n      dup2\n      sload\n      dup2\n      mstore\n      swap1\n      0x01\n      add\n      swap1\n      0x20\n      add\n      dup1\n      dup4\n      gt\n      tag_273\n      jumpi\n      dup3\n      swap1\n      sub\n      0x1f\n      and\n      dup3\n      add\n      swap2\n    tag_271:\n      pop\n      pop\n      pop\n      pop\n      pop\n      swap1\n      dup1\n      0x02\n      add\n      dup1\n      sload\n      tag_274\n      swap1\n      tag_116\n      jump\t// in\n    tag_274:\n      dup1\n      0x1f\n      add\n      0x20\n      dup1\n      swap2\n      div\n      mul\n      0x20\n      add\n      mload(0x40)\n      swap1\n      dup2\n      add\n      0x40\n      mstore\n      dup1\n      swap3\n      swap2\n      swap1\n      dup2\n      dup2\n      mstore\n      0x20\n      add\n      dup3\n      dup1\n      sload\n      tag_275\n      swap1\n      tag_116\n      jump\t// in\n    tag_275:\n      dup1\n      iszero\n      tag_276\n      jumpi\n      dup1\n      0x1f\n      lt\n      tag_277\n      jumpi\n      0x0100\n      dup1\n      dup4\n      sload\n      div\n      mul\n      dup4\n      mstore\n      swap2\n      0x20\n      add\n      swap2\n      jump(tag_276)\n    tag_277:\n      dup3\n      add\n      swap2\n      swap1\n      0x00\n      mstore\n      keccak256(0x00, 0x20)\n      swap1\n    tag_278:\n      dup2\n      sload\n      dup2\n      mstore\n      swap1\n      0x01\n      add\n      swap1\n      0x20\n      add\n      dup1\n      dup4\n      gt\n      tag_278\n      jumpi\n      dup3\n      swap1\n      sub\n      0x1f\n      and\n      dup3\n      add\n      swap2\n    tag_276:\n      pop\n      pop\n      pop\n      pop\n      pop\n      swap1\n      pop\n      dup4\n      jump\t// out\n        /* \"contracts/FakeProdId.sol\":4568:4873  function supplierTransaction(uint productId,uint supplierId) public{\r... */\n    tag_96:\n        /* \"contracts/FakeProdId.sol\":4646:4663  Supplier memory s */\n      0x00\n        /* \"contracts/FakeProdId.sol\":4666:4696  getsupplierDetails(supplierId) */\n      tag_280\n        /* \"contracts/FakeProdId.sol\":4685:4695  supplierId */\n      dup3\n        /* \"contracts/FakeProdId.sol\":4666:4684  getsupplierDetails */\n      tag_35\n        /* \"contracts/FakeProdId.sol\":4666:4696  getsupplierDetails(supplierId) */\n      jump\t// in\n    tag_280:\n        /* \"contracts/FakeProdId.sol\":4646:4696  Supplier memory s = getsupplierDetails(supplierId) */\n      swap1\n      pop\n        /* \"contracts/FakeProdId.sol\":4707:4723  Product memory p */\n      0x00\n        /* \"contracts/FakeProdId.sol\":4726:4747  getProduct(productId) */\n      tag_281\n        /* \"contracts/FakeProdId.sol\":4737:4746  productId */\n      dup5\n        /* \"contracts/FakeProdId.sol\":4726:4736  getProduct */\n      tag_72\n        /* \"contracts/FakeProdId.sol\":4726:4747  getProduct(productId) */\n      jump\t// in\n    tag_281:\n        /* \"contracts/FakeProdId.sol\":4707:4747  Product memory p = getProduct(productId) */\n      swap1\n      pop\n        /* \"contracts/FakeProdId.sol\":4781:4782  s */\n      dup2\n        /* \"contracts/FakeProdId.sol\":4781:4787  s.name */\n      0x40\n      add\n      mload\n        /* \"contracts/FakeProdId.sol\":4768:4769  p */\n      dup2\n        /* \"contracts/FakeProdId.sol\":4768:4778  p.curOwner */\n      0x80\n      add\n        /* \"contracts/FakeProdId.sol\":4768:4787  p.curOwner = s.name */\n      dup2\n      swap1\n      mstore\n      pop\n        /* \"contracts/FakeProdId.sol\":4813:4814  s */\n      dup2\n        /* \"contracts/FakeProdId.sol\":4813:4825  s.supplierId */\n      0x00\n      add\n      mload\n        /* \"contracts/FakeProdId.sol\":4798:4799  p */\n      dup2\n        /* \"contracts/FakeProdId.sol\":4798:4810  p.curOwnerId */\n      0xa0\n      add\n        /* \"contracts/FakeProdId.sol\":4798:4825  p.curOwnerId = s.supplierId */\n      dup2\n      dup2\n      mstore\n      pop\n      pop\n        /* \"contracts/FakeProdId.sol\":4843:4865  completeTransaction(p) */\n      0x59be542ca2db8c0eaeb99f755e7eab871d9cefc9b5e52b1f107b679c7295fae1\n        /* \"contracts/FakeProdId.sol\":4863:4864  p */\n      dup2\n        /* \"contracts/FakeProdId.sol\":4843:4865  completeTransaction(p) */\n      mload(0x40)\n      tag_282\n      swap2\n      swap1\n      tag_74\n      jump\t// in\n    tag_282:\n      mload(0x40)\n      dup1\n      swap2\n      sub\n      swap1\n      log1\n        /* \"contracts/FakeProdId.sol\":4635:4873  {\r... */\n      pop\n      pop\n        /* \"contracts/FakeProdId.sol\":4568:4873  function supplierTransaction(uint productId,uint supplierId) public{\r... */\n      pop\n      pop\n      jump\t// out\n    tag_99:\n      mload(0x40)\n      dup1\n      0x80\n      add\n      0x40\n      mstore\n      dup1\n      0x00\n      dup2\n      mstore\n      0x20\n      add\n      0x60\n      dup2\n      mstore\n      0x20\n      add\n      0x60\n      dup2\n      mstore\n      0x20\n      add\n      0x60\n      dup2\n      mstore\n      pop\n      swap1\n      jump\t// out\n    tag_107:\n      dup3\n      dup1\n      sload\n      tag_283\n      swap1\n      tag_116\n      jump\t// in\n    tag_283:\n      swap1\n      0x00\n      mstore\n      keccak256(0x00, 0x20)\n      swap1\n      0x1f\n      add\n      0x20\n      swap1\n      div\n      dup2\n      add\n      swap3\n      dup3\n      tag_285\n      jumpi\n      0x00\n      dup6\n      sstore\n      jump(tag_284)\n    tag_285:\n      dup3\n      0x1f\n      lt\n      tag_286\n      jumpi\n      dup1\n      mload\n      not(0xff)\n      and\n      dup4\n      dup1\n      add\n      or\n      dup6\n      sstore\n      jump(tag_284)\n    tag_286:\n      dup3\n      dup1\n      add\n      0x01\n      add\n      dup6\n      sstore\n      dup3\n      iszero\n      tag_284\n      jumpi\n      swap2\n      dup3\n      add\n    tag_287:\n      dup3\n      dup2\n      gt\n      iszero\n      tag_288\n      jumpi\n      dup3\n      mload\n      dup3\n      sstore\n      swap2\n      0x20\n      add\n      swap2\n      swap1\n      0x01\n      add\n      swap1\n      jump(tag_287)\n    tag_288:\n    tag_284:\n      pop\n      swap1\n      pop\n      tag_289\n      swap2\n      swap1\n      tag_290\n      jump\t// in\n    tag_289:\n      pop\n      swap1\n      jump\t// out\n    tag_110:\n      dup3\n      dup1\n      sload\n      dup3\n      dup3\n      sstore\n      swap1\n      0x00\n      mstore\n      keccak256(0x00, 0x20)\n      swap1\n      dup2\n      add\n      swap3\n      dup3\n      iszero\n      tag_291\n      jumpi\n      swap2\n      0x20\n      mul\n      dup3\n      add\n    tag_292:\n      dup3\n      dup2\n      gt\n      iszero\n      tag_293\n      jumpi\n      dup3\n      mload\n      dup3\n      sstore\n      swap2\n      0x20\n      add\n      swap2\n      swap1\n      0x01\n      add\n      swap1\n      jump(tag_292)\n    tag_293:\n    tag_291:\n      pop\n      swap1\n      pop\n      tag_294\n      swap2\n      swap1\n      tag_290\n      jump\t// in\n    tag_294:\n      pop\n      swap1\n      jump\t// out\n    tag_113:\n      mload(0x40)\n      dup1\n      0x80\n      add\n      0x40\n      mstore\n      dup1\n      0x00\n      dup2\n      mstore\n      0x20\n      add\n      0x60\n      dup2\n      mstore\n      0x20\n      add\n      0x60\n      dup2\n      mstore\n      0x20\n      add\n      0x60\n      dup2\n      mstore\n      pop\n      swap1\n      jump\t// out\n    tag_184:\n      mload(0x40)\n      dup1\n      0xc0\n      add\n      0x40\n      mstore\n      dup1\n      0x00\n      dup2\n      mstore\n      0x20\n      add\n      0x60\n      dup2\n      mstore\n      0x20\n      add\n      0x00\n      dup2\n      mstore\n      0x20\n      add\n      0x60\n      dup2\n      mstore\n      0x20\n      add\n      0x60\n      dup2\n      mstore\n      0x20\n      add\n      0x00\n      dup2\n      mstore\n      pop\n      swap1\n      jump\t// out\n    tag_195:\n      mload(0x40)\n      dup1\n      0x80\n      add\n      0x40\n      mstore\n      dup1\n      0x00\n      dup2\n      mstore\n      0x20\n      add\n      0x60\n      dup2\n      mstore\n      0x20\n      add\n      0x60\n      dup2\n      mstore\n      0x20\n      add\n      0x60\n      dup2\n      mstore\n      pop\n      swap1\n      jump\t// out\n    tag_216:\n      mload(0x40)\n      dup1\n      0x60\n      add\n      0x40\n      mstore\n      dup1\n      0x00\n      dup2\n      mstore\n      0x20\n      add\n      0x60\n      dup2\n      mstore\n      0x20\n      add\n      0x60\n      dup2\n      mstore\n      pop\n      swap1\n      jump\t// out\n    tag_290:\n    tag_295:\n      dup1\n      dup3\n      gt\n      iszero\n      tag_296\n      jumpi\n      0x00\n      dup2\n      0x00\n      swap1\n      sstore\n      pop\n      0x01\n      add\n      jump(tag_295)\n    tag_296:\n      pop\n      swap1\n      jump\t// out\n        /* \"#utility.yul\":7:419   */\n    tag_298:\n        /* \"#utility.yul\":85:90   */\n      0x00\n        /* \"#utility.yul\":110:176   */\n      tag_300\n        /* \"#utility.yul\":126:175   */\n      tag_301\n        /* \"#utility.yul\":168:174   */\n      dup5\n        /* \"#utility.yul\":126:175   */\n      tag_302\n      jump\t// in\n    tag_301:\n        /* \"#utility.yul\":110:176   */\n      tag_303\n      jump\t// in\n    tag_300:\n        /* \"#utility.yul\":101:176   */\n      swap1\n      pop\n        /* \"#utility.yul\":199:205   */\n      dup3\n        /* \"#utility.yul\":192:197   */\n      dup2\n        /* \"#utility.yul\":185:206   */\n      mstore\n        /* \"#utility.yul\":237:241   */\n      0x20\n        /* \"#utility.yul\":230:235   */\n      dup2\n        /* \"#utility.yul\":226:242   */\n      add\n        /* \"#utility.yul\":275:278   */\n      dup5\n        /* \"#utility.yul\":266:272   */\n      dup5\n        /* \"#utility.yul\":261:264   */\n      dup5\n        /* \"#utility.yul\":257:273   */\n      add\n        /* \"#utility.yul\":254:279   */\n      gt\n        /* \"#utility.yul\":251:363   */\n      iszero\n      tag_304\n      jumpi\n        /* \"#utility.yul\":282:361   */\n      tag_305\n      tag_306\n      jump\t// in\n    tag_305:\n        /* \"#utility.yul\":251:363   */\n    tag_304:\n        /* \"#utility.yul\":372:413   */\n      tag_307\n        /* \"#utility.yul\":406:412   */\n      dup5\n        /* \"#utility.yul\":401:404   */\n      dup3\n        /* \"#utility.yul\":396:399   */\n      dup6\n        /* \"#utility.yul\":372:413   */\n      tag_308\n      jump\t// in\n    tag_307:\n        /* \"#utility.yul\":91:419   */\n      pop\n        /* \"#utility.yul\":7:419   */\n      swap4\n      swap3\n      pop\n      pop\n      pop\n      jump\t// out\n        /* \"#utility.yul\":439:779   */\n    tag_309:\n        /* \"#utility.yul\":495:500   */\n      0x00\n        /* \"#utility.yul\":544:547   */\n      dup3\n        /* \"#utility.yul\":537:541   */\n      0x1f\n        /* \"#utility.yul\":529:535   */\n      dup4\n        /* \"#utility.yul\":525:542   */\n      add\n        /* \"#utility.yul\":521:548   */\n      slt\n        /* \"#utility.yul\":511:633   */\n      tag_311\n      jumpi\n        /* \"#utility.yul\":552:631   */\n      tag_312\n      tag_313\n      jump\t// in\n    tag_312:\n        /* \"#utility.yul\":511:633   */\n    tag_311:\n        /* \"#utility.yul\":669:675   */\n      dup2\n        /* \"#utility.yul\":656:676   */\n      calldataload\n        /* \"#utility.yul\":694:773   */\n      tag_314\n        /* \"#utility.yul\":769:772   */\n      dup5\n        /* \"#utility.yul\":761:767   */\n      dup3\n        /* \"#utility.yul\":754:758   */\n      0x20\n        /* \"#utility.yul\":746:752   */\n      dup7\n        /* \"#utility.yul\":742:759   */\n      add\n        /* \"#utility.yul\":694:773   */\n      tag_298\n      jump\t// in\n    tag_314:\n        /* \"#utility.yul\":685:773   */\n      swap2\n      pop\n        /* \"#utility.yul\":501:779   */\n      pop\n        /* \"#utility.yul\":439:779   */\n      swap3\n      swap2\n      pop\n      pop\n      jump\t// out\n        /* \"#utility.yul\":785:924   */\n    tag_315:\n        /* \"#utility.yul\":831:836   */\n      0x00\n        /* \"#utility.yul\":869:875   */\n      dup2\n        /* \"#utility.yul\":856:876   */\n      calldataload\n        /* \"#utility.yul\":847:876   */\n      swap1\n      pop\n        /* \"#utility.yul\":885:918   */\n      tag_317\n        /* \"#utility.yul\":912:917   */\n      dup2\n        /* \"#utility.yul\":885:918   */\n      tag_318\n      jump\t// in\n    tag_317:\n        /* \"#utility.yul\":785:924   */\n      swap3\n      swap2\n      pop\n      pop\n      jump\t// out\n        /* \"#utility.yul\":930:1439   */\n    tag_25:\n        /* \"#utility.yul\":999:1005   */\n      0x00\n        /* \"#utility.yul\":1048:1050   */\n      0x20\n        /* \"#utility.yul\":1036:1045   */\n      dup3\n        /* \"#utility.yul\":1027:1034   */\n      dup5\n        /* \"#utility.yul\":1023:1046   */\n      sub\n        /* \"#utility.yul\":1019:1051   */\n      slt\n        /* \"#utility.yul\":1016:1135   */\n      iszero\n      tag_320\n      jumpi\n        /* \"#utility.yul\":1054:1133   */\n      tag_321\n      tag_322\n      jump\t// in\n    tag_321:\n        /* \"#utility.yul\":1016:1135   */\n    tag_320:\n        /* \"#utility.yul\":1202:1203   */\n      0x00\n        /* \"#utility.yul\":1191:1200   */\n      dup3\n        /* \"#utility.yul\":1187:1204   */\n      add\n        /* \"#utility.yul\":1174:1205   */\n      calldataload\n        /* \"#utility.yul\":1232:1250   */\n      0xffffffffffffffff\n        /* \"#utility.yul\":1224:1230   */\n      dup2\n        /* \"#utility.yul\":1221:1251   */\n      gt\n        /* \"#utility.yul\":1218:1335   */\n      iszero\n      tag_323\n      jumpi\n        /* \"#utility.yul\":1254:1333   */\n      tag_324\n      tag_325\n      jump\t// in\n    tag_324:\n        /* \"#utility.yul\":1218:1335   */\n    tag_323:\n        /* \"#utility.yul\":1359:1422   */\n      tag_326\n        /* \"#utility.yul\":1414:1421   */\n      dup5\n        /* \"#utility.yul\":1405:1411   */\n      dup3\n        /* \"#utility.yul\":1394:1403   */\n      dup6\n        /* \"#utility.yul\":1390:1412   */\n      add\n        /* \"#utility.yul\":1359:1422   */\n      tag_309\n      jump\t// in\n    tag_326:\n        /* \"#utility.yul\":1349:1422   */\n      swap2\n      pop\n        /* \"#utility.yul\":1145:1432   */\n      pop\n        /* \"#utility.yul\":930:1439   */\n      swap3\n      swap2\n      pop\n      pop\n      jump\t// out\n        /* \"#utility.yul\":1445:2424   */\n    tag_58:\n        /* \"#utility.yul\":1542:1548   */\n      0x00\n        /* \"#utility.yul\":1550:1556   */\n      dup1\n        /* \"#utility.yul\":1558:1564   */\n      0x00\n        /* \"#utility.yul\":1607:1609   */\n      0x60\n        /* \"#utility.yul\":1595:1604   */\n      dup5\n        /* \"#utility.yul\":1586:1593   */\n      dup7\n        /* \"#utility.yul\":1582:1605   */\n      sub\n        /* \"#utility.yul\":1578:1610   */\n      slt\n        /* \"#utility.yul\":1575:1694   */\n      iszero\n      tag_328\n      jumpi\n        /* \"#utility.yul\":1613:1692   */\n      tag_329\n      tag_322\n      jump\t// in\n    tag_329:\n        /* \"#utility.yul\":1575:1694   */\n    tag_328:\n        /* \"#utility.yul\":1761:1762   */\n      0x00\n        /* \"#utility.yul\":1750:1759   */\n      dup5\n        /* \"#utility.yul\":1746:1763   */\n      add\n        /* \"#utility.yul\":1733:1764   */\n      calldataload\n        /* \"#utility.yul\":1791:1809   */\n      0xffffffffffffffff\n        /* \"#utility.yul\":1783:1789   */\n      dup2\n        /* \"#utility.yul\":1780:1810   */\n      gt\n        /* \"#utility.yul\":1777:1894   */\n      iszero\n      tag_330\n      jumpi\n        /* \"#utility.yul\":1813:1892   */\n      tag_331\n      tag_325\n      jump\t// in\n    tag_331:\n        /* \"#utility.yul\":1777:1894   */\n    tag_330:\n        /* \"#utility.yul\":1918:1981   */\n      tag_332\n        /* \"#utility.yul\":1973:1980   */\n      dup7\n        /* \"#utility.yul\":1964:1970   */\n      dup3\n        /* \"#utility.yul\":1953:1962   */\n      dup8\n        /* \"#utility.yul\":1949:1971   */\n      add\n        /* \"#utility.yul\":1918:1981   */\n      tag_309\n      jump\t// in\n    tag_332:\n        /* \"#utility.yul\":1908:1981   */\n      swap4\n      pop\n        /* \"#utility.yul\":1704:1991   */\n      pop\n        /* \"#utility.yul\":2030:2032   */\n      0x20\n        /* \"#utility.yul\":2056:2109   */\n      tag_333\n        /* \"#utility.yul\":2101:2108   */\n      dup7\n        /* \"#utility.yul\":2092:2098   */\n      dup3\n        /* \"#utility.yul\":2081:2090   */\n      dup8\n        /* \"#utility.yul\":2077:2099   */\n      add\n        /* \"#utility.yul\":2056:2109   */\n      tag_315\n      jump\t// in\n    tag_333:\n        /* \"#utility.yul\":2046:2109   */\n      swap3\n      pop\n        /* \"#utility.yul\":2001:2119   */\n      pop\n        /* \"#utility.yul\":2186:2188   */\n      0x40\n        /* \"#utility.yul\":2175:2184   */\n      dup5\n        /* \"#utility.yul\":2171:2189   */\n      add\n        /* \"#utility.yul\":2158:2190   */\n      calldataload\n        /* \"#utility.yul\":2217:2235   */\n      0xffffffffffffffff\n        /* \"#utility.yul\":2209:2215   */\n      dup2\n        /* \"#utility.yul\":2206:2236   */\n      gt\n        /* \"#utility.yul\":2203:2320   */\n      iszero\n      tag_334\n      jumpi\n        /* \"#utility.yul\":2239:2318   */\n      tag_335\n      tag_325\n      jump\t// in\n    tag_335:\n        /* \"#utility.yul\":2203:2320   */\n    tag_334:\n        /* \"#utility.yul\":2344:2407   */\n      tag_336\n        /* \"#utility.yul\":2399:2406   */\n      dup7\n        /* \"#utility.yul\":2390:2396   */\n      dup3\n        /* \"#utility.yul\":2379:2388   */\n      dup8\n        /* \"#utility.yul\":2375:2397   */\n      add\n        /* \"#utility.yul\":2344:2407   */\n      tag_309\n      jump\t// in\n    tag_336:\n        /* \"#utility.yul\":2334:2407   */\n      swap2\n      pop\n        /* \"#utility.yul\":2129:2417   */\n      pop\n        /* \"#utility.yul\":1445:2424   */\n      swap3\n      pop\n      swap3\n      pop\n      swap3\n      jump\t// out\n        /* \"#utility.yul\":2430:2759   */\n    tag_29:\n        /* \"#utility.yul\":2489:2495   */\n      0x00\n        /* \"#utility.yul\":2538:2540   */\n      0x20\n        /* \"#utility.yul\":2526:2535   */\n      dup3\n        /* \"#utility.yul\":2517:2524   */\n      dup5\n        /* \"#utility.yul\":2513:2536   */\n      sub\n        /* \"#utility.yul\":2509:2541   */\n      slt\n        /* \"#utility.yul\":2506:2625   */\n      iszero\n      tag_338\n      jumpi\n        /* \"#utility.yul\":2544:2623   */\n      tag_339\n      tag_322\n      jump\t// in\n    tag_339:\n        /* \"#utility.yul\":2506:2625   */\n    tag_338:\n        /* \"#utility.yul\":2664:2665   */\n      0x00\n        /* \"#utility.yul\":2689:2742   */\n      tag_340\n        /* \"#utility.yul\":2734:2741   */\n      dup5\n        /* \"#utility.yul\":2725:2731   */\n      dup3\n        /* \"#utility.yul\":2714:2723   */\n      dup6\n        /* \"#utility.yul\":2710:2732   */\n      add\n        /* \"#utility.yul\":2689:2742   */\n      tag_315\n      jump\t// in\n    tag_340:\n        /* \"#utility.yul\":2679:2742   */\n      swap2\n      pop\n        /* \"#utility.yul\":2635:2752   */\n      pop\n        /* \"#utility.yul\":2430:2759   */\n      swap3\n      swap2\n      pop\n      pop\n      jump\t// out\n        /* \"#utility.yul\":2765:3239   */\n    tag_95:\n        /* \"#utility.yul\":2833:2839   */\n      0x00\n        /* \"#utility.yul\":2841:2847   */\n      dup1\n        /* \"#utility.yul\":2890:2892   */\n      0x40\n        /* \"#utility.yul\":2878:2887   */\n      dup4\n        /* \"#utility.yul\":2869:2876   */\n      dup6\n        /* \"#utility.yul\":2865:2888   */\n      sub\n        /* \"#utility.yul\":2861:2893   */\n      slt\n        /* \"#utility.yul\":2858:2977   */\n      iszero\n      tag_342\n      jumpi\n        /* \"#utility.yul\":2896:2975   */\n      tag_343\n      tag_322\n      jump\t// in\n    tag_343:\n        /* \"#utility.yul\":2858:2977   */\n    tag_342:\n        /* \"#utility.yul\":3016:3017   */\n      0x00\n        /* \"#utility.yul\":3041:3094   */\n      tag_344\n        /* \"#utility.yul\":3086:3093   */\n      dup6\n        /* \"#utility.yul\":3077:3083   */\n      dup3\n        /* \"#utility.yul\":3066:3075   */\n      dup7\n        /* \"#utility.yul\":3062:3084   */\n      add\n        /* \"#utility.yul\":3041:3094   */\n      tag_315\n      jump\t// in\n    tag_344:\n        /* \"#utility.yul\":3031:3094   */\n      swap3\n      pop\n        /* \"#utility.yul\":2987:3104   */\n      pop\n        /* \"#utility.yul\":3143:3145   */\n      0x20\n        /* \"#utility.yul\":3169:3222   */\n      tag_345\n        /* \"#utility.yul\":3214:3221   */\n      dup6\n        /* \"#utility.yul\":3205:3211   */\n      dup3\n        /* \"#utility.yul\":3194:3203   */\n      dup7\n        /* \"#utility.yul\":3190:3212   */\n      add\n        /* \"#utility.yul\":3169:3222   */\n      tag_315\n      jump\t// in\n    tag_345:\n        /* \"#utility.yul\":3159:3222   */\n      swap2\n      pop\n        /* \"#utility.yul\":3114:3232   */\n      pop\n        /* \"#utility.yul\":2765:3239   */\n      swap3\n      pop\n      swap3\n      swap1\n      pop\n      jump\t// out\n        /* \"#utility.yul\":3245:3864   */\n    tag_77:\n        /* \"#utility.yul\":3322:3328   */\n      0x00\n        /* \"#utility.yul\":3330:3336   */\n      dup1\n        /* \"#utility.yul\":3338:3344   */\n      0x00\n        /* \"#utility.yul\":3387:3389   */\n      0x60\n        /* \"#utility.yul\":3375:3384   */\n      dup5\n        /* \"#utility.yul\":3366:3373   */\n      dup7\n        /* \"#utility.yul\":3362:3385   */\n      sub\n        /* \"#utility.yul\":3358:3390   */\n      slt\n        /* \"#utility.yul\":3355:3474   */\n      iszero\n      tag_347\n      jumpi\n        /* \"#utility.yul\":3393:3472   */\n      tag_348\n      tag_322\n      jump\t// in\n    tag_348:\n        /* \"#utility.yul\":3355:3474   */\n    tag_347:\n        /* \"#utility.yul\":3513:3514   */\n      0x00\n        /* \"#utility.yul\":3538:3591   */\n      tag_349\n        /* \"#utility.yul\":3583:3590   */\n      dup7\n        /* \"#utility.yul\":3574:3580   */\n      dup3\n        /* \"#utility.yul\":3563:3572   */\n      dup8\n        /* \"#utility.yul\":3559:3581   */\n      add\n        /* \"#utility.yul\":3538:3591   */\n      tag_315\n      jump\t// in\n    tag_349:\n        /* \"#utility.yul\":3528:3591   */\n      swap4\n      pop\n        /* \"#utility.yul\":3484:3601   */\n      pop\n        /* \"#utility.yul\":3640:3642   */\n      0x20\n        /* \"#utility.yul\":3666:3719   */\n      tag_350\n        /* \"#utility.yul\":3711:3718   */\n      dup7\n        /* \"#utility.yul\":3702:3708   */\n      dup3\n        /* \"#utility.yul\":3691:3700   */\n      dup8\n        /* \"#utility.yul\":3687:3709   */\n      add\n        /* \"#utility.yul\":3666:3719   */\n      tag_315\n      jump\t// in\n    tag_350:\n        /* \"#utility.yul\":3656:3719   */\n      swap3\n      pop\n        /* \"#utility.yul\":3611:3729   */\n      pop\n        /* \"#utility.yul\":3768:3770   */\n      0x40\n        /* \"#utility.yul\":3794:3847   */\n      tag_351\n        /* \"#utility.yul\":3839:3846   */\n      dup7\n        /* \"#utility.yul\":3830:3836   */\n      dup3\n        /* \"#utility.yul\":3819:3828   */\n      dup8\n        /* \"#utility.yul\":3815:3837   */\n      add\n        /* \"#utility.yul\":3794:3847   */\n      tag_315\n      jump\t// in\n    tag_351:\n        /* \"#utility.yul\":3784:3847   */\n      swap2\n      pop\n        /* \"#utility.yul\":3739:3857   */\n      pop\n        /* \"#utility.yul\":3245:3864   */\n      swap3\n      pop\n      swap3\n      pop\n      swap3\n      jump\t// out\n        /* \"#utility.yul\":3870:4049   */\n    tag_352:\n        /* \"#utility.yul\":3939:3949   */\n      0x00\n        /* \"#utility.yul\":3960:4006   */\n      tag_354\n        /* \"#utility.yul\":4002:4005   */\n      dup4\n        /* \"#utility.yul\":3994:4000   */\n      dup4\n        /* \"#utility.yul\":3960:4006   */\n      tag_355\n      jump\t// in\n    tag_354:\n        /* \"#utility.yul\":4038:4042   */\n      0x20\n        /* \"#utility.yul\":4033:4036   */\n      dup4\n        /* \"#utility.yul\":4029:4043   */\n      add\n        /* \"#utility.yul\":4015:4043   */\n      swap1\n      pop\n        /* \"#utility.yul\":3870:4049   */\n      swap3\n      swap2\n      pop\n      pop\n      jump\t// out\n        /* \"#utility.yul\":4085:4797   */\n    tag_356:\n        /* \"#utility.yul\":4194:4197   */\n      0x00\n        /* \"#utility.yul\":4223:4277   */\n      tag_358\n        /* \"#utility.yul\":4271:4276   */\n      dup3\n        /* \"#utility.yul\":4223:4277   */\n      tag_359\n      jump\t// in\n    tag_358:\n        /* \"#utility.yul\":4293:4369   */\n      tag_360\n        /* \"#utility.yul\":4362:4368   */\n      dup2\n        /* \"#utility.yul\":4357:4360   */\n      dup6\n        /* \"#utility.yul\":4293:4369   */\n      tag_361\n      jump\t// in\n    tag_360:\n        /* \"#utility.yul\":4286:4369   */\n      swap4\n      pop\n        /* \"#utility.yul\":4393:4449   */\n      tag_362\n        /* \"#utility.yul\":4443:4448   */\n      dup4\n        /* \"#utility.yul\":4393:4449   */\n      tag_363\n      jump\t// in\n    tag_362:\n        /* \"#utility.yul\":4472:4479   */\n      dup1\n        /* \"#utility.yul\":4503:4504   */\n      0x00\n        /* \"#utility.yul\":4488:4772   */\n    tag_364:\n        /* \"#utility.yul\":4513:4519   */\n      dup4\n        /* \"#utility.yul\":4510:4511   */\n      dup2\n        /* \"#utility.yul\":4507:4520   */\n      lt\n        /* \"#utility.yul\":4488:4772   */\n      iszero\n      tag_366\n      jumpi\n        /* \"#utility.yul\":4589:4595   */\n      dup2\n        /* \"#utility.yul\":4583:4596   */\n      mload\n        /* \"#utility.yul\":4616:4679   */\n      tag_367\n        /* \"#utility.yul\":4675:4678   */\n      dup9\n        /* \"#utility.yul\":4660:4673   */\n      dup3\n        /* \"#utility.yul\":4616:4679   */\n      tag_352\n      jump\t// in\n    tag_367:\n        /* \"#utility.yul\":4609:4679   */\n      swap8\n      pop\n        /* \"#utility.yul\":4702:4762   */\n      tag_368\n        /* \"#utility.yul\":4755:4761   */\n      dup4\n        /* \"#utility.yul\":4702:4762   */\n      tag_369\n      jump\t// in\n    tag_368:\n        /* \"#utility.yul\":4692:4762   */\n      swap3\n      pop\n        /* \"#utility.yul\":4548:4772   */\n      pop\n        /* \"#utility.yul\":4535:4536   */\n      0x01\n        /* \"#utility.yul\":4532:4533   */\n      dup2\n        /* \"#utility.yul\":4528:4537   */\n      add\n        /* \"#utility.yul\":4523:4537   */\n      swap1\n      pop\n        /* \"#utility.yul\":4488:4772   */\n      jump(tag_364)\n    tag_366:\n        /* \"#utility.yul\":4492:4506   */\n      pop\n        /* \"#utility.yul\":4788:4791   */\n      dup6\n        /* \"#utility.yul\":4781:4791   */\n      swap4\n      pop\n        /* \"#utility.yul\":4199:4797   */\n      pop\n      pop\n      pop\n        /* \"#utility.yul\":4085:4797   */\n      swap3\n      swap2\n      pop\n      pop\n      jump\t// out\n        /* \"#utility.yul\":4803:5147   */\n    tag_370:\n        /* \"#utility.yul\":4881:4884   */\n      0x00\n        /* \"#utility.yul\":4909:4948   */\n      tag_372\n        /* \"#utility.yul\":4942:4947   */\n      dup3\n        /* \"#utility.yul\":4909:4948   */\n      tag_373\n      jump\t// in\n    tag_372:\n        /* \"#utility.yul\":4964:5025   */\n      tag_374\n        /* \"#utility.yul\":5018:5024   */\n      dup2\n        /* \"#utility.yul\":5013:5016   */\n      dup6\n        /* \"#utility.yul\":4964:5025   */\n      tag_375\n      jump\t// in\n    tag_374:\n        /* \"#utility.yul\":4957:5025   */\n      swap4\n      pop\n        /* \"#utility.yul\":5034:5086   */\n      tag_376\n        /* \"#utility.yul\":5079:5085   */\n      dup2\n        /* \"#utility.yul\":5074:5077   */\n      dup6\n        /* \"#utility.yul\":5067:5071   */\n      0x20\n        /* \"#utility.yul\":5060:5065   */\n      dup7\n        /* \"#utility.yul\":5056:5072   */\n      add\n        /* \"#utility.yul\":5034:5086   */\n      tag_377\n      jump\t// in\n    tag_376:\n        /* \"#utility.yul\":5111:5140   */\n      tag_378\n        /* \"#utility.yul\":5133:5139   */\n      dup2\n        /* \"#utility.yul\":5111:5140   */\n      tag_379\n      jump\t// in\n    tag_378:\n        /* \"#utility.yul\":5106:5109   */\n      dup5\n        /* \"#utility.yul\":5102:5141   */\n      add\n        /* \"#utility.yul\":5095:5141   */\n      swap2\n      pop\n        /* \"#utility.yul\":4885:5147   */\n      pop\n        /* \"#utility.yul\":4803:5147   */\n      swap3\n      swap2\n      pop\n      pop\n      jump\t// out\n        /* \"#utility.yul\":5153:5517   */\n    tag_380:\n        /* \"#utility.yul\":5241:5244   */\n      0x00\n        /* \"#utility.yul\":5269:5308   */\n      tag_382\n        /* \"#utility.yul\":5302:5307   */\n      dup3\n        /* \"#utility.yul\":5269:5308   */\n      tag_373\n      jump\t// in\n    tag_382:\n        /* \"#utility.yul\":5324:5395   */\n      tag_383\n        /* \"#utility.yul\":5388:5394   */\n      dup2\n        /* \"#utility.yul\":5383:5386   */\n      dup6\n        /* \"#utility.yul\":5324:5395   */\n      tag_384\n      jump\t// in\n    tag_383:\n        /* \"#utility.yul\":5317:5395   */\n      swap4\n      pop\n        /* \"#utility.yul\":5404:5456   */\n      tag_385\n        /* \"#utility.yul\":5449:5455   */\n      dup2\n        /* \"#utility.yul\":5444:5447   */\n      dup6\n        /* \"#utility.yul\":5437:5441   */\n      0x20\n        /* \"#utility.yul\":5430:5435   */\n      dup7\n        /* \"#utility.yul\":5426:5442   */\n      add\n        /* \"#utility.yul\":5404:5456   */\n      tag_377\n      jump\t// in\n    tag_385:\n        /* \"#utility.yul\":5481:5510   */\n      tag_386\n        /* \"#utility.yul\":5503:5509   */\n      dup2\n        /* \"#utility.yul\":5481:5510   */\n      tag_379\n      jump\t// in\n    tag_386:\n        /* \"#utility.yul\":5476:5479   */\n      dup5\n        /* \"#utility.yul\":5472:5511   */\n      add\n        /* \"#utility.yul\":5465:5511   */\n      swap2\n      pop\n        /* \"#utility.yul\":5245:5517   */\n      pop\n        /* \"#utility.yul\":5153:5517   */\n      swap3\n      swap2\n      pop\n      pop\n      jump\t// out\n        /* \"#utility.yul\":5593:6739   */\n    tag_387:\n        /* \"#utility.yul\":5716:5719   */\n      0x00\n        /* \"#utility.yul\":5752:5756   */\n      0x80\n        /* \"#utility.yul\":5747:5750   */\n      dup4\n        /* \"#utility.yul\":5743:5757   */\n      add\n        /* \"#utility.yul\":5848:5852   */\n      0x00\n        /* \"#utility.yul\":5841:5846   */\n      dup4\n        /* \"#utility.yul\":5837:5853   */\n      add\n        /* \"#utility.yul\":5831:5854   */\n      mload\n        /* \"#utility.yul\":5867:5930   */\n      tag_389\n        /* \"#utility.yul\":5924:5928   */\n      0x00\n        /* \"#utility.yul\":5919:5922   */\n      dup7\n        /* \"#utility.yul\":5915:5929   */\n      add\n        /* \"#utility.yul\":5901:5913   */\n      dup3\n        /* \"#utility.yul\":5867:5930   */\n      tag_355\n      jump\t// in\n    tag_389:\n        /* \"#utility.yul\":5767:5940   */\n      pop\n        /* \"#utility.yul\":6022:6026   */\n      0x20\n        /* \"#utility.yul\":6015:6020   */\n      dup4\n        /* \"#utility.yul\":6011:6027   */\n      add\n        /* \"#utility.yul\":6005:6028   */\n      mload\n        /* \"#utility.yul\":6075:6078   */\n      dup5\n        /* \"#utility.yul\":6069:6073   */\n      dup3\n        /* \"#utility.yul\":6065:6079   */\n      sub\n        /* \"#utility.yul\":6058:6062   */\n      0x20\n        /* \"#utility.yul\":6053:6056   */\n      dup7\n        /* \"#utility.yul\":6049:6063   */\n      add\n        /* \"#utility.yul\":6042:6080   */\n      mstore\n        /* \"#utility.yul\":6101:6174   */\n      tag_390\n        /* \"#utility.yul\":6169:6173   */\n      dup3\n        /* \"#utility.yul\":6155:6167   */\n      dup3\n        /* \"#utility.yul\":6101:6174   */\n      tag_370\n      jump\t// in\n    tag_390:\n        /* \"#utility.yul\":6093:6174   */\n      swap2\n      pop\n        /* \"#utility.yul\":5950:6185   */\n      pop\n        /* \"#utility.yul\":6267:6271   */\n      0x40\n        /* \"#utility.yul\":6260:6265   */\n      dup4\n        /* \"#utility.yul\":6256:6272   */\n      add\n        /* \"#utility.yul\":6250:6273   */\n      mload\n        /* \"#utility.yul\":6320:6323   */\n      dup5\n        /* \"#utility.yul\":6314:6318   */\n      dup3\n        /* \"#utility.yul\":6310:6324   */\n      sub\n        /* \"#utility.yul\":6303:6307   */\n      0x40\n        /* \"#utility.yul\":6298:6301   */\n      dup7\n        /* \"#utility.yul\":6294:6308   */\n      add\n        /* \"#utility.yul\":6287:6325   */\n      mstore\n        /* \"#utility.yul\":6346:6419   */\n      tag_391\n        /* \"#utility.yul\":6414:6418   */\n      dup3\n        /* \"#utility.yul\":6400:6412   */\n      dup3\n        /* \"#utility.yul\":6346:6419   */\n      tag_370\n      jump\t// in\n    tag_391:\n        /* \"#utility.yul\":6338:6419   */\n      swap2\n      pop\n        /* \"#utility.yul\":6195:6430   */\n      pop\n        /* \"#utility.yul\":6519:6523   */\n      0x60\n        /* \"#utility.yul\":6512:6517   */\n      dup4\n        /* \"#utility.yul\":6508:6524   */\n      add\n        /* \"#utility.yul\":6502:6525   */\n      mload\n        /* \"#utility.yul\":6572:6575   */\n      dup5\n        /* \"#utility.yul\":6566:6570   */\n      dup3\n        /* \"#utility.yul\":6562:6576   */\n      sub\n        /* \"#utility.yul\":6555:6559   */\n      0x60\n        /* \"#utility.yul\":6550:6553   */\n      dup7\n        /* \"#utility.yul\":6546:6560   */\n      add\n        /* \"#utility.yul\":6539:6577   */\n      mstore\n        /* \"#utility.yul\":6598:6701   */\n      tag_392\n        /* \"#utility.yul\":6696:6700   */\n      dup3\n        /* \"#utility.yul\":6682:6694   */\n      dup3\n        /* \"#utility.yul\":6598:6701   */\n      tag_356\n      jump\t// in\n    tag_392:\n        /* \"#utility.yul\":6590:6701   */\n      swap2\n      pop\n        /* \"#utility.yul\":6440:6712   */\n      pop\n        /* \"#utility.yul\":6729:6733   */\n      dup1\n        /* \"#utility.yul\":6722:6733   */\n      swap2\n      pop\n        /* \"#utility.yul\":5721:6739   */\n      pop\n        /* \"#utility.yul\":5593:6739   */\n      swap3\n      swap2\n      pop\n      pop\n      jump\t// out\n        /* \"#utility.yul\":6817:7966   */\n    tag_393:\n        /* \"#utility.yul\":6942:6945   */\n      0x00\n        /* \"#utility.yul\":6978:6982   */\n      0x80\n        /* \"#utility.yul\":6973:6976   */\n      dup4\n        /* \"#utility.yul\":6969:6983   */\n      add\n        /* \"#utility.yul\":7075:7079   */\n      0x00\n        /* \"#utility.yul\":7068:7073   */\n      dup4\n        /* \"#utility.yul\":7064:7080   */\n      add\n        /* \"#utility.yul\":7058:7081   */\n      mload\n        /* \"#utility.yul\":7094:7157   */\n      tag_395\n        /* \"#utility.yul\":7151:7155   */\n      0x00\n        /* \"#utility.yul\":7146:7149   */\n      dup7\n        /* \"#utility.yul\":7142:7156   */\n      add\n        /* \"#utility.yul\":7128:7140   */\n      dup3\n        /* \"#utility.yul\":7094:7157   */\n      tag_355\n      jump\t// in\n    tag_395:\n        /* \"#utility.yul\":6993:7167   */\n      pop\n        /* \"#utility.yul\":7249:7253   */\n      0x20\n        /* \"#utility.yul\":7242:7247   */\n      dup4\n        /* \"#utility.yul\":7238:7254   */\n      add\n        /* \"#utility.yul\":7232:7255   */\n      mload\n        /* \"#utility.yul\":7302:7305   */\n      dup5\n        /* \"#utility.yul\":7296:7300   */\n      dup3\n        /* \"#utility.yul\":7292:7306   */\n      sub\n        /* \"#utility.yul\":7285:7289   */\n      0x20\n        /* \"#utility.yul\":7280:7283   */\n      dup7\n        /* \"#utility.yul\":7276:7290   */\n      add\n        /* \"#utility.yul\":7269:7307   */\n      mstore\n        /* \"#utility.yul\":7328:7401   */\n      tag_396\n        /* \"#utility.yul\":7396:7400   */\n      dup3\n        /* \"#utility.yul\":7382:7394   */\n      dup3\n        /* \"#utility.yul\":7328:7401   */\n      tag_370\n      jump\t// in\n    tag_396:\n        /* \"#utility.yul\":7320:7401   */\n      swap2\n      pop\n        /* \"#utility.yul\":7177:7412   */\n      pop\n        /* \"#utility.yul\":7494:7498   */\n      0x40\n        /* \"#utility.yul\":7487:7492   */\n      dup4\n        /* \"#utility.yul\":7483:7499   */\n      add\n        /* \"#utility.yul\":7477:7500   */\n      mload\n        /* \"#utility.yul\":7547:7550   */\n      dup5\n        /* \"#utility.yul\":7541:7545   */\n      dup3\n        /* \"#utility.yul\":7537:7551   */\n      sub\n        /* \"#utility.yul\":7530:7534   */\n      0x40\n        /* \"#utility.yul\":7525:7528   */\n      dup7\n        /* \"#utility.yul\":7521:7535   */\n      add\n        /* \"#utility.yul\":7514:7552   */\n      mstore\n        /* \"#utility.yul\":7573:7646   */\n      tag_397\n        /* \"#utility.yul\":7641:7645   */\n      dup3\n        /* \"#utility.yul\":7627:7639   */\n      dup3\n        /* \"#utility.yul\":7573:7646   */\n      tag_370\n      jump\t// in\n    tag_397:\n        /* \"#utility.yul\":7565:7646   */\n      swap2\n      pop\n        /* \"#utility.yul\":7422:7657   */\n      pop\n        /* \"#utility.yul\":7746:7750   */\n      0x60\n        /* \"#utility.yul\":7739:7744   */\n      dup4\n        /* \"#utility.yul\":7735:7751   */\n      add\n        /* \"#utility.yul\":7729:7752   */\n      mload\n        /* \"#utility.yul\":7799:7802   */\n      dup5\n        /* \"#utility.yul\":7793:7797   */\n      dup3\n        /* \"#utility.yul\":7789:7803   */\n      sub\n        /* \"#utility.yul\":7782:7786   */\n      0x60\n        /* \"#utility.yul\":7777:7780   */\n      dup7\n        /* \"#utility.yul\":7773:7787   */\n      add\n        /* \"#utility.yul\":7766:7804   */\n      mstore\n        /* \"#utility.yul\":7825:7928   */\n      tag_398\n        /* \"#utility.yul\":7923:7927   */\n      dup3\n        /* \"#utility.yul\":7909:7921   */\n      dup3\n        /* \"#utility.yul\":7825:7928   */\n      tag_356\n      jump\t// in\n    tag_398:\n        /* \"#utility.yul\":7817:7928   */\n      swap2\n      pop\n        /* \"#utility.yul\":7667:7939   */\n      pop\n        /* \"#utility.yul\":7956:7960   */\n      dup1\n        /* \"#utility.yul\":7949:7960   */\n      swap2\n      pop\n        /* \"#utility.yul\":6947:7966   */\n      pop\n        /* \"#utility.yul\":6817:7966   */\n      swap3\n      swap2\n      pop\n      pop\n      jump\t// out\n        /* \"#utility.yul\":8034:9497   */\n    tag_399:\n        /* \"#utility.yul\":8149:8152   */\n      0x00\n        /* \"#utility.yul\":8185:8189   */\n      0xc0\n        /* \"#utility.yul\":8180:8183   */\n      dup4\n        /* \"#utility.yul\":8176:8190   */\n      add\n        /* \"#utility.yul\":8277:8281   */\n      0x00\n        /* \"#utility.yul\":8270:8275   */\n      dup4\n        /* \"#utility.yul\":8266:8282   */\n      add\n        /* \"#utility.yul\":8260:8283   */\n      mload\n        /* \"#utility.yul\":8296:8359   */\n      tag_401\n        /* \"#utility.yul\":8353:8357   */\n      0x00\n        /* \"#utility.yul\":8348:8351   */\n      dup7\n        /* \"#utility.yul\":8344:8358   */\n      add\n        /* \"#utility.yul\":8330:8342   */\n      dup3\n        /* \"#utility.yul\":8296:8359   */\n      tag_355\n      jump\t// in\n    tag_401:\n        /* \"#utility.yul\":8200:8369   */\n      pop\n        /* \"#utility.yul\":8451:8455   */\n      0x20\n        /* \"#utility.yul\":8444:8449   */\n      dup4\n        /* \"#utility.yul\":8440:8456   */\n      add\n        /* \"#utility.yul\":8434:8457   */\n      mload\n        /* \"#utility.yul\":8504:8507   */\n      dup5\n        /* \"#utility.yul\":8498:8502   */\n      dup3\n        /* \"#utility.yul\":8494:8508   */\n      sub\n        /* \"#utility.yul\":8487:8491   */\n      0x20\n        /* \"#utility.yul\":8482:8485   */\n      dup7\n        /* \"#utility.yul\":8478:8492   */\n      add\n        /* \"#utility.yul\":8471:8509   */\n      mstore\n        /* \"#utility.yul\":8530:8603   */\n      tag_402\n        /* \"#utility.yul\":8598:8602   */\n      dup3\n        /* \"#utility.yul\":8584:8596   */\n      dup3\n        /* \"#utility.yul\":8530:8603   */\n      tag_370\n      jump\t// in\n    tag_402:\n        /* \"#utility.yul\":8522:8603   */\n      swap2\n      pop\n        /* \"#utility.yul\":8379:8614   */\n      pop\n        /* \"#utility.yul\":8697:8701   */\n      0x40\n        /* \"#utility.yul\":8690:8695   */\n      dup4\n        /* \"#utility.yul\":8686:8702   */\n      add\n        /* \"#utility.yul\":8680:8703   */\n      mload\n        /* \"#utility.yul\":8716:8779   */\n      tag_403\n        /* \"#utility.yul\":8773:8777   */\n      0x40\n        /* \"#utility.yul\":8768:8771   */\n      dup7\n        /* \"#utility.yul\":8764:8778   */\n      add\n        /* \"#utility.yul\":8750:8762   */\n      dup3\n        /* \"#utility.yul\":8716:8779   */\n      tag_355\n      jump\t// in\n    tag_403:\n        /* \"#utility.yul\":8624:8789   */\n      pop\n        /* \"#utility.yul\":8878:8882   */\n      0x60\n        /* \"#utility.yul\":8871:8876   */\n      dup4\n        /* \"#utility.yul\":8867:8883   */\n      add\n        /* \"#utility.yul\":8861:8884   */\n      mload\n        /* \"#utility.yul\":8931:8934   */\n      dup5\n        /* \"#utility.yul\":8925:8929   */\n      dup3\n        /* \"#utility.yul\":8921:8935   */\n      sub\n        /* \"#utility.yul\":8914:8918   */\n      0x60\n        /* \"#utility.yul\":8909:8912   */\n      dup7\n        /* \"#utility.yul\":8905:8919   */\n      add\n        /* \"#utility.yul\":8898:8936   */\n      mstore\n        /* \"#utility.yul\":8957:9030   */\n      tag_404\n        /* \"#utility.yul\":9025:9029   */\n      dup3\n        /* \"#utility.yul\":9011:9023   */\n      dup3\n        /* \"#utility.yul\":8957:9030   */\n      tag_370\n      jump\t// in\n    tag_404:\n        /* \"#utility.yul\":8949:9030   */\n      swap2\n      pop\n        /* \"#utility.yul\":8799:9041   */\n      pop\n        /* \"#utility.yul\":9127:9131   */\n      0x80\n        /* \"#utility.yul\":9120:9125   */\n      dup4\n        /* \"#utility.yul\":9116:9132   */\n      add\n        /* \"#utility.yul\":9110:9133   */\n      mload\n        /* \"#utility.yul\":9180:9183   */\n      dup5\n        /* \"#utility.yul\":9174:9178   */\n      dup3\n        /* \"#utility.yul\":9170:9184   */\n      sub\n        /* \"#utility.yul\":9163:9167   */\n      0x80\n        /* \"#utility.yul\":9158:9161   */\n      dup7\n        /* \"#utility.yul\":9154:9168   */\n      add\n        /* \"#utility.yul\":9147:9185   */\n      mstore\n        /* \"#utility.yul\":9206:9279   */\n      tag_405\n        /* \"#utility.yul\":9274:9278   */\n      dup3\n        /* \"#utility.yul\":9260:9272   */\n      dup3\n        /* \"#utility.yul\":9206:9279   */\n      tag_370\n      jump\t// in\n    tag_405:\n        /* \"#utility.yul\":9198:9279   */\n      swap2\n      pop\n        /* \"#utility.yul\":9051:9290   */\n      pop\n        /* \"#utility.yul\":9378:9382   */\n      0xa0\n        /* \"#utility.yul\":9371:9376   */\n      dup4\n        /* \"#utility.yul\":9367:9383   */\n      add\n        /* \"#utility.yul\":9361:9384   */\n      mload\n        /* \"#utility.yul\":9397:9460   */\n      tag_406\n        /* \"#utility.yul\":9454:9458   */\n      0xa0\n        /* \"#utility.yul\":9449:9452   */\n      dup7\n        /* \"#utility.yul\":9445:9459   */\n      add\n        /* \"#utility.yul\":9431:9443   */\n      dup3\n        /* \"#utility.yul\":9397:9460   */\n      tag_355\n      jump\t// in\n    tag_406:\n        /* \"#utility.yul\":9300:9470   */\n      pop\n        /* \"#utility.yul\":9487:9491   */\n      dup1\n        /* \"#utility.yul\":9480:9491   */\n      swap2\n      pop\n        /* \"#utility.yul\":8154:9497   */\n      pop\n        /* \"#utility.yul\":8034:9497   */\n      swap3\n      swap2\n      pop\n      pop\n      jump\t// out\n        /* \"#utility.yul\":9567:10459   */\n    tag_407:\n        /* \"#utility.yul\":9684:9687   */\n      0x00\n        /* \"#utility.yul\":9720:9724   */\n      0x60\n        /* \"#utility.yul\":9715:9718   */\n      dup4\n        /* \"#utility.yul\":9711:9725   */\n      add\n        /* \"#utility.yul\":9813:9817   */\n      0x00\n        /* \"#utility.yul\":9806:9811   */\n      dup4\n        /* \"#utility.yul\":9802:9818   */\n      add\n        /* \"#utility.yul\":9796:9819   */\n      mload\n        /* \"#utility.yul\":9832:9895   */\n      tag_409\n        /* \"#utility.yul\":9889:9893   */\n      0x00\n        /* \"#utility.yul\":9884:9887   */\n      dup7\n        /* \"#utility.yul\":9880:9894   */\n      add\n        /* \"#utility.yul\":9866:9878   */\n      dup3\n        /* \"#utility.yul\":9832:9895   */\n      tag_355\n      jump\t// in\n    tag_409:\n        /* \"#utility.yul\":9735:9905   */\n      pop\n        /* \"#utility.yul\":9987:9991   */\n      0x20\n        /* \"#utility.yul\":9980:9985   */\n      dup4\n        /* \"#utility.yul\":9976:9992   */\n      add\n        /* \"#utility.yul\":9970:9993   */\n      mload\n        /* \"#utility.yul\":10040:10043   */\n      dup5\n        /* \"#utility.yul\":10034:10038   */\n      dup3\n        /* \"#utility.yul\":10030:10044   */\n      sub\n        /* \"#utility.yul\":10023:10027   */\n      0x20\n        /* \"#utility.yul\":10018:10021   */\n      dup7\n        /* \"#utility.yul\":10014:10028   */\n      add\n        /* \"#utility.yul\":10007:10045   */\n      mstore\n        /* \"#utility.yul\":10066:10139   */\n      tag_410\n        /* \"#utility.yul\":10134:10138   */\n      dup3\n        /* \"#utility.yul\":10120:10132   */\n      dup3\n        /* \"#utility.yul\":10066:10139   */\n      tag_370\n      jump\t// in\n    tag_410:\n        /* \"#utility.yul\":10058:10139   */\n      swap2\n      pop\n        /* \"#utility.yul\":9915:10150   */\n      pop\n        /* \"#utility.yul\":10239:10243   */\n      0x40\n        /* \"#utility.yul\":10232:10237   */\n      dup4\n        /* \"#utility.yul\":10228:10244   */\n      add\n        /* \"#utility.yul\":10222:10245   */\n      mload\n        /* \"#utility.yul\":10292:10295   */\n      dup5\n        /* \"#utility.yul\":10286:10290   */\n      dup3\n        /* \"#utility.yul\":10282:10296   */\n      sub\n        /* \"#utility.yul\":10275:10279   */\n      0x40\n        /* \"#utility.yul\":10270:10273   */\n      dup7\n        /* \"#utility.yul\":10266:10280   */\n      add\n        /* \"#utility.yul\":10259:10297   */\n      mstore\n        /* \"#utility.yul\":10318:10421   */\n      tag_411\n        /* \"#utility.yul\":10416:10420   */\n      dup3\n        /* \"#utility.yul\":10402:10414   */\n      dup3\n        /* \"#utility.yul\":10318:10421   */\n      tag_356\n      jump\t// in\n    tag_411:\n        /* \"#utility.yul\":10310:10421   */\n      swap2\n      pop\n        /* \"#utility.yul\":10160:10432   */\n      pop\n        /* \"#utility.yul\":10449:10453   */\n      dup1\n        /* \"#utility.yul\":10442:10453   */\n      swap2\n      pop\n        /* \"#utility.yul\":9689:10459   */\n      pop\n        /* \"#utility.yul\":9567:10459   */\n      swap3\n      swap2\n      pop\n      pop\n      jump\t// out\n        /* \"#utility.yul\":10529:11666   */\n    tag_412:\n        /* \"#utility.yul\":10646:10649   */\n      0x00\n        /* \"#utility.yul\":10682:10686   */\n      0x80\n        /* \"#utility.yul\":10677:10680   */\n      dup4\n        /* \"#utility.yul\":10673:10687   */\n      add\n        /* \"#utility.yul\":10775:10779   */\n      0x00\n        /* \"#utility.yul\":10768:10773   */\n      dup4\n        /* \"#utility.yul\":10764:10780   */\n      add\n        /* \"#utility.yul\":10758:10781   */\n      mload\n        /* \"#utility.yul\":10794:10857   */\n      tag_414\n        /* \"#utility.yul\":10851:10855   */\n      0x00\n        /* \"#utility.yul\":10846:10849   */\n      dup7\n        /* \"#utility.yul\":10842:10856   */\n      add\n        /* \"#utility.yul\":10828:10840   */\n      dup3\n        /* \"#utility.yul\":10794:10857   */\n      tag_355\n      jump\t// in\n    tag_414:\n        /* \"#utility.yul\":10697:10867   */\n      pop\n        /* \"#utility.yul\":10949:10953   */\n      0x20\n        /* \"#utility.yul\":10942:10947   */\n      dup4\n        /* \"#utility.yul\":10938:10954   */\n      add\n        /* \"#utility.yul\":10932:10955   */\n      mload\n        /* \"#utility.yul\":11002:11005   */\n      dup5\n        /* \"#utility.yul\":10996:11000   */\n      dup3\n        /* \"#utility.yul\":10992:11006   */\n      sub\n        /* \"#utility.yul\":10985:10989   */\n      0x20\n        /* \"#utility.yul\":10980:10983   */\n      dup7\n        /* \"#utility.yul\":10976:10990   */\n      add\n        /* \"#utility.yul\":10969:11007   */\n      mstore\n        /* \"#utility.yul\":11028:11101   */\n      tag_415\n        /* \"#utility.yul\":11096:11100   */\n      dup3\n        /* \"#utility.yul\":11082:11094   */\n      dup3\n        /* \"#utility.yul\":11028:11101   */\n      tag_370\n      jump\t// in\n    tag_415:\n        /* \"#utility.yul\":11020:11101   */\n      swap2\n      pop\n        /* \"#utility.yul\":10877:11112   */\n      pop\n        /* \"#utility.yul\":11194:11198   */\n      0x40\n        /* \"#utility.yul\":11187:11192   */\n      dup4\n        /* \"#utility.yul\":11183:11199   */\n      add\n        /* \"#utility.yul\":11177:11200   */\n      mload\n        /* \"#utility.yul\":11247:11250   */\n      dup5\n        /* \"#utility.yul\":11241:11245   */\n      dup3\n        /* \"#utility.yul\":11237:11251   */\n      sub\n        /* \"#utility.yul\":11230:11234   */\n      0x40\n        /* \"#utility.yul\":11225:11228   */\n      dup7\n        /* \"#utility.yul\":11221:11235   */\n      add\n        /* \"#utility.yul\":11214:11252   */\n      mstore\n        /* \"#utility.yul\":11273:11346   */\n      tag_416\n        /* \"#utility.yul\":11341:11345   */\n      dup3\n        /* \"#utility.yul\":11327:11339   */\n      dup3\n        /* \"#utility.yul\":11273:11346   */\n      tag_370\n      jump\t// in\n    tag_416:\n        /* \"#utility.yul\":11265:11346   */\n      swap2\n      pop\n        /* \"#utility.yul\":11122:11357   */\n      pop\n        /* \"#utility.yul\":11446:11450   */\n      0x60\n        /* \"#utility.yul\":11439:11444   */\n      dup4\n        /* \"#utility.yul\":11435:11451   */\n      add\n        /* \"#utility.yul\":11429:11452   */\n      mload\n        /* \"#utility.yul\":11499:11502   */\n      dup5\n        /* \"#utility.yul\":11493:11497   */\n      dup3\n        /* \"#utility.yul\":11489:11503   */\n      sub\n        /* \"#utility.yul\":11482:11486   */\n      0x60\n        /* \"#utility.yul\":11477:11480   */\n      dup7\n        /* \"#utility.yul\":11473:11487   */\n      add\n        /* \"#utility.yul\":11466:11504   */\n      mstore\n        /* \"#utility.yul\":11525:11628   */\n      tag_417\n        /* \"#utility.yul\":11623:11627   */\n      dup3\n        /* \"#utility.yul\":11609:11621   */\n      dup3\n        /* \"#utility.yul\":11525:11628   */\n      tag_356\n      jump\t// in\n    tag_417:\n        /* \"#utility.yul\":11517:11628   */\n      swap2\n      pop\n        /* \"#utility.yul\":11367:11639   */\n      pop\n        /* \"#utility.yul\":11656:11660   */\n      dup1\n        /* \"#utility.yul\":11649:11660   */\n      swap2\n      pop\n        /* \"#utility.yul\":10651:11666   */\n      pop\n        /* \"#utility.yul\":10529:11666   */\n      swap3\n      swap2\n      pop\n      pop\n      jump\t// out\n        /* \"#utility.yul\":11672:11780   */\n    tag_355:\n        /* \"#utility.yul\":11749:11773   */\n      tag_419\n        /* \"#utility.yul\":11767:11772   */\n      dup2\n        /* \"#utility.yul\":11749:11773   */\n      tag_420\n      jump\t// in\n    tag_419:\n        /* \"#utility.yul\":11744:11747   */\n      dup3\n        /* \"#utility.yul\":11737:11774   */\n      mstore\n        /* \"#utility.yul\":11672:11780   */\n      pop\n      pop\n      jump\t// out\n        /* \"#utility.yul\":11786:11904   */\n    tag_421:\n        /* \"#utility.yul\":11873:11897   */\n      tag_423\n        /* \"#utility.yul\":11891:11896   */\n      dup2\n        /* \"#utility.yul\":11873:11897   */\n      tag_420\n      jump\t// in\n    tag_423:\n        /* \"#utility.yul\":11868:11871   */\n      dup3\n        /* \"#utility.yul\":11861:11898   */\n      mstore\n        /* \"#utility.yul\":11786:11904   */\n      pop\n      pop\n      jump\t// out\n        /* \"#utility.yul\":11910:12443   */\n    tag_101:\n        /* \"#utility.yul\":12079:12083   */\n      0x00\n        /* \"#utility.yul\":12117:12119   */\n      0x60\n        /* \"#utility.yul\":12106:12115   */\n      dup3\n        /* \"#utility.yul\":12102:12120   */\n      add\n        /* \"#utility.yul\":12094:12120   */\n      swap1\n      pop\n        /* \"#utility.yul\":12166:12175   */\n      dup2\n        /* \"#utility.yul\":12160:12164   */\n      dup2\n        /* \"#utility.yul\":12156:12176   */\n      sub\n        /* \"#utility.yul\":12152:12153   */\n      0x00\n        /* \"#utility.yul\":12141:12150   */\n      dup4\n        /* \"#utility.yul\":12137:12154   */\n      add\n        /* \"#utility.yul\":12130:12177   */\n      mstore\n        /* \"#utility.yul\":12194:12272   */\n      tag_425\n        /* \"#utility.yul\":12267:12271   */\n      dup2\n        /* \"#utility.yul\":12258:12264   */\n      dup7\n        /* \"#utility.yul\":12194:12272   */\n      tag_380\n      jump\t// in\n    tag_425:\n        /* \"#utility.yul\":12186:12272   */\n      swap1\n      pop\n        /* \"#utility.yul\":12282:12354   */\n      tag_426\n        /* \"#utility.yul\":12350:12352   */\n      0x20\n        /* \"#utility.yul\":12339:12348   */\n      dup4\n        /* \"#utility.yul\":12335:12353   */\n      add\n        /* \"#utility.yul\":12326:12332   */\n      dup6\n        /* \"#utility.yul\":12282:12354   */\n      tag_421\n      jump\t// in\n    tag_426:\n        /* \"#utility.yul\":12364:12436   */\n      tag_427\n        /* \"#utility.yul\":12432:12434   */\n      0x40\n        /* \"#utility.yul\":12421:12430   */\n      dup4\n        /* \"#utility.yul\":12417:12435   */\n      add\n        /* \"#utility.yul\":12408:12414   */\n      dup5\n        /* \"#utility.yul\":12364:12436   */\n      tag_421\n      jump\t// in\n    tag_427:\n        /* \"#utility.yul\":11910:12443   */\n      swap5\n      swap4\n      pop\n      pop\n      pop\n      pop\n      jump\t// out\n        /* \"#utility.yul\":12449:12830   */\n    tag_32:\n        /* \"#utility.yul\":12596:12600   */\n      0x00\n        /* \"#utility.yul\":12634:12636   */\n      0x20\n        /* \"#utility.yul\":12623:12632   */\n      dup3\n        /* \"#utility.yul\":12619:12637   */\n      add\n        /* \"#utility.yul\":12611:12637   */\n      swap1\n      pop\n        /* \"#utility.yul\":12683:12692   */\n      dup2\n        /* \"#utility.yul\":12677:12681   */\n      dup2\n        /* \"#utility.yul\":12673:12693   */\n      sub\n        /* \"#utility.yul\":12669:12670   */\n      0x00\n        /* \"#utility.yul\":12658:12667   */\n      dup4\n        /* \"#utility.yul\":12654:12671   */\n      add\n        /* \"#utility.yul\":12647:12694   */\n      mstore\n        /* \"#utility.yul\":12711:12823   */\n      tag_429\n        /* \"#utility.yul\":12818:12822   */\n      dup2\n        /* \"#utility.yul\":12809:12815   */\n      dup5\n        /* \"#utility.yul\":12711:12823   */\n      tag_387\n      jump\t// in\n    tag_429:\n        /* \"#utility.yul\":12703:12823   */\n      swap1\n      pop\n        /* \"#utility.yul\":12449:12830   */\n      swap3\n      swap2\n      pop\n      pop\n      jump\t// out\n        /* \"#utility.yul\":12836:13221   */\n    tag_83:\n        /* \"#utility.yul\":12985:12989   */\n      0x00\n        /* \"#utility.yul\":13023:13025   */\n      0x20\n        /* \"#utility.yul\":13012:13021   */\n      dup3\n        /* \"#utility.yul\":13008:13026   */\n      add\n        /* \"#utility.yul\":13000:13026   */\n      swap1\n      pop\n        /* \"#utility.yul\":13072:13081   */\n      dup2\n        /* \"#utility.yul\":13066:13070   */\n      dup2\n        /* \"#utility.yul\":13062:13082   */\n      sub\n        /* \"#utility.yul\":13058:13059   */\n      0x00\n        /* \"#utility.yul\":13047:13056   */\n      dup4\n        /* \"#utility.yul\":13043:13060   */\n      add\n        /* \"#utility.yul\":13036:13083   */\n      mstore\n        /* \"#utility.yul\":13100:13214   */\n      tag_431\n        /* \"#utility.yul\":13209:13213   */\n      dup2\n        /* \"#utility.yul\":13200:13206   */\n      dup5\n        /* \"#utility.yul\":13100:13214   */\n      tag_393\n      jump\t// in\n    tag_431:\n        /* \"#utility.yul\":13092:13214   */\n      swap1\n      pop\n        /* \"#utility.yul\":12836:13221   */\n      swap3\n      swap2\n      pop\n      pop\n      jump\t// out\n        /* \"#utility.yul\":13227:13592   */\n    tag_74:\n        /* \"#utility.yul\":13366:13370   */\n      0x00\n        /* \"#utility.yul\":13404:13406   */\n      0x20\n        /* \"#utility.yul\":13393:13402   */\n      dup3\n        /* \"#utility.yul\":13389:13407   */\n      add\n        /* \"#utility.yul\":13381:13407   */\n      swap1\n      pop\n        /* \"#utility.yul\":13453:13462   */\n      dup2\n        /* \"#utility.yul\":13447:13451   */\n      dup2\n        /* \"#utility.yul\":13443:13463   */\n      sub\n        /* \"#utility.yul\":13439:13440   */\n      0x00\n        /* \"#utility.yul\":13428:13437   */\n      dup4\n        /* \"#utility.yul\":13424:13441   */\n      add\n        /* \"#utility.yul\":13417:13464   */\n      mstore\n        /* \"#utility.yul\":13481:13585   */\n      tag_433\n        /* \"#utility.yul\":13580:13584   */\n      dup2\n        /* \"#utility.yul\":13571:13577   */\n      dup5\n        /* \"#utility.yul\":13481:13585   */\n      tag_399\n      jump\t// in\n    tag_433:\n        /* \"#utility.yul\":13473:13585   */\n      swap1\n      pop\n        /* \"#utility.yul\":13227:13592   */\n      swap3\n      swap2\n      pop\n      pop\n      jump\t// out\n        /* \"#utility.yul\":13598:14073   */\n    tag_192:\n        /* \"#utility.yul\":13765:13769   */\n      0x00\n        /* \"#utility.yul\":13803:13805   */\n      0x40\n        /* \"#utility.yul\":13792:13801   */\n      dup3\n        /* \"#utility.yul\":13788:13806   */\n      add\n        /* \"#utility.yul\":13780:13806   */\n      swap1\n      pop\n        /* \"#utility.yul\":13852:13861   */\n      dup2\n        /* \"#utility.yul\":13846:13850   */\n      dup2\n        /* \"#utility.yul\":13842:13862   */\n      sub\n        /* \"#utility.yul\":13838:13839   */\n      0x00\n        /* \"#utility.yul\":13827:13836   */\n      dup4\n        /* \"#utility.yul\":13823:13840   */\n      add\n        /* \"#utility.yul\":13816:13863   */\n      mstore\n        /* \"#utility.yul\":13880:13984   */\n      tag_435\n        /* \"#utility.yul\":13979:13983   */\n      dup2\n        /* \"#utility.yul\":13970:13976   */\n      dup6\n        /* \"#utility.yul\":13880:13984   */\n      tag_399\n      jump\t// in\n    tag_435:\n        /* \"#utility.yul\":13872:13984   */\n      swap1\n      pop\n        /* \"#utility.yul\":13994:14066   */\n      tag_436\n        /* \"#utility.yul\":14062:14064   */\n      0x20\n        /* \"#utility.yul\":14051:14060   */\n      dup4\n        /* \"#utility.yul\":14047:14065   */\n      add\n        /* \"#utility.yul\":14038:14044   */\n      dup5\n        /* \"#utility.yul\":13994:14066   */\n      tag_421\n      jump\t// in\n    tag_436:\n        /* \"#utility.yul\":13598:14073   */\n      swap4\n      swap3\n      pop\n      pop\n      pop\n      jump\t// out\n        /* \"#utility.yul\":14079:14448   */\n    tag_88:\n        /* \"#utility.yul\":14220:14224   */\n      0x00\n        /* \"#utility.yul\":14258:14260   */\n      0x20\n        /* \"#utility.yul\":14247:14256   */\n      dup3\n        /* \"#utility.yul\":14243:14261   */\n      add\n        /* \"#utility.yul\":14235:14261   */\n      swap1\n      pop\n        /* \"#utility.yul\":14307:14316   */\n      dup2\n        /* \"#utility.yul\":14301:14305   */\n      dup2\n        /* \"#utility.yul\":14297:14317   */\n      sub\n        /* \"#utility.yul\":14293:14294   */\n      0x00\n        /* \"#utility.yul\":14282:14291   */\n      dup4\n        /* \"#utility.yul\":14278:14295   */\n      add\n        /* \"#utility.yul\":14271:14318   */\n      mstore\n        /* \"#utility.yul\":14335:14441   */\n      tag_438\n        /* \"#utility.yul\":14436:14440   */\n      dup2\n        /* \"#utility.yul\":14427:14433   */\n      dup5\n        /* \"#utility.yul\":14335:14441   */\n      tag_407\n      jump\t// in\n    tag_438:\n        /* \"#utility.yul\":14327:14441   */\n      swap1\n      pop\n        /* \"#utility.yul\":14079:14448   */\n      swap3\n      swap2\n      pop\n      pop\n      jump\t// out\n        /* \"#utility.yul\":14454:14823   */\n    tag_37:\n        /* \"#utility.yul\":14595:14599   */\n      0x00\n        /* \"#utility.yul\":14633:14635   */\n      0x20\n        /* \"#utility.yul\":14622:14631   */\n      dup3\n        /* \"#utility.yul\":14618:14636   */\n      add\n        /* \"#utility.yul\":14610:14636   */\n      swap1\n      pop\n        /* \"#utility.yul\":14682:14691   */\n      dup2\n        /* \"#utility.yul\":14676:14680   */\n      dup2\n        /* \"#utility.yul\":14672:14692   */\n      sub\n        /* \"#utility.yul\":14668:14669   */\n      0x00\n        /* \"#utility.yul\":14657:14666   */\n      dup4\n        /* \"#utility.yul\":14653:14670   */\n      add\n        /* \"#utility.yul\":14646:14693   */\n      mstore\n        /* \"#utility.yul\":14710:14816   */\n      tag_440\n        /* \"#utility.yul\":14811:14815   */\n      dup2\n        /* \"#utility.yul\":14802:14808   */\n      dup5\n        /* \"#utility.yul\":14710:14816   */\n      tag_412\n      jump\t// in\n    tag_440:\n        /* \"#utility.yul\":14702:14816   */\n      swap1\n      pop\n        /* \"#utility.yul\":14454:14823   */\n      swap3\n      swap2\n      pop\n      pop\n      jump\t// out\n        /* \"#utility.yul\":14829:15252   */\n    tag_55:\n        /* \"#utility.yul\":14970:14974   */\n      0x00\n        /* \"#utility.yul\":15008:15010   */\n      0x40\n        /* \"#utility.yul\":14997:15006   */\n      dup3\n        /* \"#utility.yul\":14993:15011   */\n      add\n        /* \"#utility.yul\":14985:15011   */\n      swap1\n      pop\n        /* \"#utility.yul\":15021:15092   */\n      tag_442\n        /* \"#utility.yul\":15089:15090   */\n      0x00\n        /* \"#utility.yul\":15078:15087   */\n      dup4\n        /* \"#utility.yul\":15074:15091   */\n      add\n        /* \"#utility.yul\":15065:15071   */\n      dup6\n        /* \"#utility.yul\":15021:15092   */\n      tag_421\n      jump\t// in\n    tag_442:\n        /* \"#utility.yul\":15139:15148   */\n      dup2\n        /* \"#utility.yul\":15133:15137   */\n      dup2\n        /* \"#utility.yul\":15129:15149   */\n      sub\n        /* \"#utility.yul\":15124:15126   */\n      0x20\n        /* \"#utility.yul\":15113:15122   */\n      dup4\n        /* \"#utility.yul\":15109:15127   */\n      add\n        /* \"#utility.yul\":15102:15150   */\n      mstore\n        /* \"#utility.yul\":15167:15245   */\n      tag_443\n        /* \"#utility.yul\":15240:15244   */\n      dup2\n        /* \"#utility.yul\":15231:15237   */\n      dup5\n        /* \"#utility.yul\":15167:15245   */\n      tag_380\n      jump\t// in\n    tag_443:\n        /* \"#utility.yul\":15159:15245   */\n      swap1\n      pop\n        /* \"#utility.yul\":14829:15252   */\n      swap4\n      swap3\n      pop\n      pop\n      pop\n      jump\t// out\n        /* \"#utility.yul\":15258:15882   */\n    tag_42:\n        /* \"#utility.yul\":15447:15451   */\n      0x00\n        /* \"#utility.yul\":15485:15487   */\n      0x60\n        /* \"#utility.yul\":15474:15483   */\n      dup3\n        /* \"#utility.yul\":15470:15488   */\n      add\n        /* \"#utility.yul\":15462:15488   */\n      swap1\n      pop\n        /* \"#utility.yul\":15498:15569   */\n      tag_445\n        /* \"#utility.yul\":15566:15567   */\n      0x00\n        /* \"#utility.yul\":15555:15564   */\n      dup4\n        /* \"#utility.yul\":15551:15568   */\n      add\n        /* \"#utility.yul\":15542:15548   */\n      dup7\n        /* \"#utility.yul\":15498:15569   */\n      tag_421\n      jump\t// in\n    tag_445:\n        /* \"#utility.yul\":15616:15625   */\n      dup2\n        /* \"#utility.yul\":15610:15614   */\n      dup2\n        /* \"#utility.yul\":15606:15626   */\n      sub\n        /* \"#utility.yul\":15601:15603   */\n      0x20\n        /* \"#utility.yul\":15590:15599   */\n      dup4\n        /* \"#utility.yul\":15586:15604   */\n      add\n        /* \"#utility.yul\":15579:15627   */\n      mstore\n        /* \"#utility.yul\":15644:15722   */\n      tag_446\n        /* \"#utility.yul\":15717:15721   */\n      dup2\n        /* \"#utility.yul\":15708:15714   */\n      dup6\n        /* \"#utility.yul\":15644:15722   */\n      tag_380\n      jump\t// in\n    tag_446:\n        /* \"#utility.yul\":15636:15722   */\n      swap1\n      pop\n        /* \"#utility.yul\":15769:15778   */\n      dup2\n        /* \"#utility.yul\":15763:15767   */\n      dup2\n        /* \"#utility.yul\":15759:15779   */\n      sub\n        /* \"#utility.yul\":15754:15756   */\n      0x40\n        /* \"#utility.yul\":15743:15752   */\n      dup4\n        /* \"#utility.yul\":15739:15757   */\n      add\n        /* \"#utility.yul\":15732:15780   */\n      mstore\n        /* \"#utility.yul\":15797:15875   */\n      tag_447\n        /* \"#utility.yul\":15870:15874   */\n      dup2\n        /* \"#utility.yul\":15861:15867   */\n      dup5\n        /* \"#utility.yul\":15797:15875   */\n      tag_380\n      jump\t// in\n    tag_447:\n        /* \"#utility.yul\":15789:15875   */\n      swap1\n      pop\n        /* \"#utility.yul\":15258:15882   */\n      swap5\n      swap4\n      pop\n      pop\n      pop\n      pop\n      jump\t// out\n        /* \"#utility.yul\":15888:16936   */\n    tag_47:\n        /* \"#utility.yul\":16181:16185   */\n      0x00\n        /* \"#utility.yul\":16219:16222   */\n      0xc0\n        /* \"#utility.yul\":16208:16217   */\n      dup3\n        /* \"#utility.yul\":16204:16223   */\n      add\n        /* \"#utility.yul\":16196:16223   */\n      swap1\n      pop\n        /* \"#utility.yul\":16233:16304   */\n      tag_449\n        /* \"#utility.yul\":16301:16302   */\n      0x00\n        /* \"#utility.yul\":16290:16299   */\n      dup4\n        /* \"#utility.yul\":16286:16303   */\n      add\n        /* \"#utility.yul\":16277:16283   */\n      dup10\n        /* \"#utility.yul\":16233:16304   */\n      tag_421\n      jump\t// in\n    tag_449:\n        /* \"#utility.yul\":16351:16360   */\n      dup2\n        /* \"#utility.yul\":16345:16349   */\n      dup2\n        /* \"#utility.yul\":16341:16361   */\n      sub\n        /* \"#utility.yul\":16336:16338   */\n      0x20\n        /* \"#utility.yul\":16325:16334   */\n      dup4\n        /* \"#utility.yul\":16321:16339   */\n      add\n        /* \"#utility.yul\":16314:16362   */\n      mstore\n        /* \"#utility.yul\":16379:16457   */\n      tag_450\n        /* \"#utility.yul\":16452:16456   */\n      dup2\n        /* \"#utility.yul\":16443:16449   */\n      dup9\n        /* \"#utility.yul\":16379:16457   */\n      tag_380\n      jump\t// in\n    tag_450:\n        /* \"#utility.yul\":16371:16457   */\n      swap1\n      pop\n        /* \"#utility.yul\":16467:16539   */\n      tag_451\n        /* \"#utility.yul\":16535:16537   */\n      0x40\n        /* \"#utility.yul\":16524:16533   */\n      dup4\n        /* \"#utility.yul\":16520:16538   */\n      add\n        /* \"#utility.yul\":16511:16517   */\n      dup8\n        /* \"#utility.yul\":16467:16539   */\n      tag_421\n      jump\t// in\n    tag_451:\n        /* \"#utility.yul\":16586:16595   */\n      dup2\n        /* \"#utility.yul\":16580:16584   */\n      dup2\n        /* \"#utility.yul\":16576:16596   */\n      sub\n        /* \"#utility.yul\":16571:16573   */\n      0x60\n        /* \"#utility.yul\":16560:16569   */\n      dup4\n        /* \"#utility.yul\":16556:16574   */\n      add\n        /* \"#utility.yul\":16549:16597   */\n      mstore\n        /* \"#utility.yul\":16614:16692   */\n      tag_452\n        /* \"#utility.yul\":16687:16691   */\n      dup2\n        /* \"#utility.yul\":16678:16684   */\n      dup7\n        /* \"#utility.yul\":16614:16692   */\n      tag_380\n      jump\t// in\n    tag_452:\n        /* \"#utility.yul\":16606:16692   */\n      swap1\n      pop\n        /* \"#utility.yul\":16740:16749   */\n      dup2\n        /* \"#utility.yul\":16734:16738   */\n      dup2\n        /* \"#utility.yul\":16730:16750   */\n      sub\n        /* \"#utility.yul\":16724:16727   */\n      0x80\n        /* \"#utility.yul\":16713:16722   */\n      dup4\n        /* \"#utility.yul\":16709:16728   */\n      add\n        /* \"#utility.yul\":16702:16751   */\n      mstore\n        /* \"#utility.yul\":16768:16846   */\n      tag_453\n        /* \"#utility.yul\":16841:16845   */\n      dup2\n        /* \"#utility.yul\":16832:16838   */\n      dup6\n        /* \"#utility.yul\":16768:16846   */\n      tag_380\n      jump\t// in\n    tag_453:\n        /* \"#utility.yul\":16760:16846   */\n      swap1\n      pop\n        /* \"#utility.yul\":16856:16929   */\n      tag_454\n        /* \"#utility.yul\":16924:16927   */\n      0xa0\n        /* \"#utility.yul\":16913:16922   */\n      dup4\n        /* \"#utility.yul\":16909:16928   */\n      add\n        /* \"#utility.yul\":16900:16906   */\n      dup5\n        /* \"#utility.yul\":16856:16929   */\n      tag_421\n      jump\t// in\n    tag_454:\n        /* \"#utility.yul\":15888:16936   */\n      swap8\n      swap7\n      pop\n      pop\n      pop\n      pop\n      pop\n      pop\n      pop\n      jump\t// out\n        /* \"#utility.yul\":16942:17071   */\n    tag_303:\n        /* \"#utility.yul\":16976:16982   */\n      0x00\n        /* \"#utility.yul\":17003:17023   */\n      tag_456\n      tag_457\n      jump\t// in\n    tag_456:\n        /* \"#utility.yul\":16993:17023   */\n      swap1\n      pop\n        /* \"#utility.yul\":17032:17065   */\n      tag_458\n        /* \"#utility.yul\":17060:17064   */\n      dup3\n        /* \"#utility.yul\":17052:17058   */\n      dup3\n        /* \"#utility.yul\":17032:17065   */\n      tag_459\n      jump\t// in\n    tag_458:\n        /* \"#utility.yul\":16942:17071   */\n      swap2\n      swap1\n      pop\n      jump\t// out\n        /* \"#utility.yul\":17077:17152   */\n    tag_457:\n        /* \"#utility.yul\":17110:17116   */\n      0x00\n        /* \"#utility.yul\":17143:17145   */\n      0x40\n        /* \"#utility.yul\":17137:17146   */\n      mload\n        /* \"#utility.yul\":17127:17146   */\n      swap1\n      pop\n        /* \"#utility.yul\":17077:17152   */\n      swap1\n      jump\t// out\n        /* \"#utility.yul\":17158:17466   */\n    tag_302:\n        /* \"#utility.yul\":17220:17224   */\n      0x00\n        /* \"#utility.yul\":17310:17328   */\n      0xffffffffffffffff\n        /* \"#utility.yul\":17302:17308   */\n      dup3\n        /* \"#utility.yul\":17299:17329   */\n      gt\n        /* \"#utility.yul\":17296:17352   */\n      iszero\n      tag_462\n      jumpi\n        /* \"#utility.yul\":17332:17350   */\n      tag_463\n      tag_104\n      jump\t// in\n    tag_463:\n        /* \"#utility.yul\":17296:17352   */\n    tag_462:\n        /* \"#utility.yul\":17370:17399   */\n      tag_464\n        /* \"#utility.yul\":17392:17398   */\n      dup3\n        /* \"#utility.yul\":17370:17399   */\n      tag_379\n      jump\t// in\n    tag_464:\n        /* \"#utility.yul\":17362:17399   */\n      swap1\n      pop\n        /* \"#utility.yul\":17454:17458   */\n      0x20\n        /* \"#utility.yul\":17448:17452   */\n      dup2\n        /* \"#utility.yul\":17444:17459   */\n      add\n        /* \"#utility.yul\":17436:17459   */\n      swap1\n      pop\n        /* \"#utility.yul\":17158:17466   */\n      swap2\n      swap1\n      pop\n      jump\t// out\n        /* \"#utility.yul\":17472:17604   */\n    tag_363:\n        /* \"#utility.yul\":17539:17543   */\n      0x00\n        /* \"#utility.yul\":17562:17565   */\n      dup2\n        /* \"#utility.yul\":17554:17565   */\n      swap1\n      pop\n        /* \"#utility.yul\":17592:17596   */\n      0x20\n        /* \"#utility.yul\":17587:17590   */\n      dup3\n        /* \"#utility.yul\":17583:17597   */\n      add\n        /* \"#utility.yul\":17575:17597   */\n      swap1\n      pop\n        /* \"#utility.yul\":17472:17604   */\n      swap2\n      swap1\n      pop\n      jump\t// out\n        /* \"#utility.yul\":17610:17724   */\n    tag_359:\n        /* \"#utility.yul\":17677:17683   */\n      0x00\n        /* \"#utility.yul\":17711:17716   */\n      dup2\n        /* \"#utility.yul\":17705:17717   */\n      mload\n        /* \"#utility.yul\":17695:17717   */\n      swap1\n      pop\n        /* \"#utility.yul\":17610:17724   */\n      swap2\n      swap1\n      pop\n      jump\t// out\n        /* \"#utility.yul\":17730:17829   */\n    tag_373:\n        /* \"#utility.yul\":17782:17788   */\n      0x00\n        /* \"#utility.yul\":17816:17821   */\n      dup2\n        /* \"#utility.yul\":17810:17822   */\n      mload\n        /* \"#utility.yul\":17800:17822   */\n      swap1\n      pop\n        /* \"#utility.yul\":17730:17829   */\n      swap2\n      swap1\n      pop\n      jump\t// out\n        /* \"#utility.yul\":17835:17948   */\n    tag_369:\n        /* \"#utility.yul\":17905:17909   */\n      0x00\n        /* \"#utility.yul\":17937:17941   */\n      0x20\n        /* \"#utility.yul\":17932:17935   */\n      dup3\n        /* \"#utility.yul\":17928:17942   */\n      add\n        /* \"#utility.yul\":17920:17942   */\n      swap1\n      pop\n        /* \"#utility.yul\":17835:17948   */\n      swap2\n      swap1\n      pop\n      jump\t// out\n        /* \"#utility.yul\":17954:18128   */\n    tag_361:\n        /* \"#utility.yul\":18043:18054   */\n      0x00\n        /* \"#utility.yul\":18077:18083   */\n      dup3\n        /* \"#utility.yul\":18072:18075   */\n      dup3\n        /* \"#utility.yul\":18065:18084   */\n      mstore\n        /* \"#utility.yul\":18117:18121   */\n      0x20\n        /* \"#utility.yul\":18112:18115   */\n      dup3\n        /* \"#utility.yul\":18108:18122   */\n      add\n        /* \"#utility.yul\":18093:18122   */\n      swap1\n      pop\n        /* \"#utility.yul\":17954:18128   */\n      swap3\n      swap2\n      pop\n      pop\n      jump\t// out\n        /* \"#utility.yul\":18134:18293   */\n    tag_375:\n        /* \"#utility.yul\":18208:18219   */\n      0x00\n        /* \"#utility.yul\":18242:18248   */\n      dup3\n        /* \"#utility.yul\":18237:18240   */\n      dup3\n        /* \"#utility.yul\":18230:18249   */\n      mstore\n        /* \"#utility.yul\":18282:18286   */\n      0x20\n        /* \"#utility.yul\":18277:18280   */\n      dup3\n        /* \"#utility.yul\":18273:18287   */\n      add\n        /* \"#utility.yul\":18258:18287   */\n      swap1\n      pop\n        /* \"#utility.yul\":18134:18293   */\n      swap3\n      swap2\n      pop\n      pop\n      jump\t// out\n        /* \"#utility.yul\":18299:18468   */\n    tag_384:\n        /* \"#utility.yul\":18383:18394   */\n      0x00\n        /* \"#utility.yul\":18417:18423   */\n      dup3\n        /* \"#utility.yul\":18412:18415   */\n      dup3\n        /* \"#utility.yul\":18405:18424   */\n      mstore\n        /* \"#utility.yul\":18457:18461   */\n      0x20\n        /* \"#utility.yul\":18452:18455   */\n      dup3\n        /* \"#utility.yul\":18448:18462   */\n      add\n        /* \"#utility.yul\":18433:18462   */\n      swap1\n      pop\n        /* \"#utility.yul\":18299:18468   */\n      swap3\n      swap2\n      pop\n      pop\n      jump\t// out\n        /* \"#utility.yul\":18474:18551   */\n    tag_420:\n        /* \"#utility.yul\":18511:18518   */\n      0x00\n        /* \"#utility.yul\":18540:18545   */\n      dup2\n        /* \"#utility.yul\":18529:18545   */\n      swap1\n      pop\n        /* \"#utility.yul\":18474:18551   */\n      swap2\n      swap1\n      pop\n      jump\t// out\n        /* \"#utility.yul\":18557:18711   */\n    tag_308:\n        /* \"#utility.yul\":18641:18647   */\n      dup3\n        /* \"#utility.yul\":18636:18639   */\n      dup2\n        /* \"#utility.yul\":18631:18634   */\n      dup4\n        /* \"#utility.yul\":18618:18648   */\n      calldatacopy\n        /* \"#utility.yul\":18703:18704   */\n      0x00\n        /* \"#utility.yul\":18694:18700   */\n      dup4\n        /* \"#utility.yul\":18689:18692   */\n      dup4\n        /* \"#utility.yul\":18685:18701   */\n      add\n        /* \"#utility.yul\":18678:18705   */\n      mstore\n        /* \"#utility.yul\":18557:18711   */\n      pop\n      pop\n      pop\n      jump\t// out\n        /* \"#utility.yul\":18717:19024   */\n    tag_377:\n        /* \"#utility.yul\":18785:18786   */\n      0x00\n        /* \"#utility.yul\":18795:18908   */\n    tag_475:\n        /* \"#utility.yul\":18809:18815   */\n      dup4\n        /* \"#utility.yul\":18806:18807   */\n      dup2\n        /* \"#utility.yul\":18803:18816   */\n      lt\n        /* \"#utility.yul\":18795:18908   */\n      iszero\n      tag_477\n      jumpi\n        /* \"#utility.yul\":18894:18895   */\n      dup1\n        /* \"#utility.yul\":18889:18892   */\n      dup3\n        /* \"#utility.yul\":18885:18896   */\n      add\n        /* \"#utility.yul\":18879:18897   */\n      mload\n        /* \"#utility.yul\":18875:18876   */\n      dup2\n        /* \"#utility.yul\":18870:18873   */\n      dup5\n        /* \"#utility.yul\":18866:18877   */\n      add\n        /* \"#utility.yul\":18859:18898   */\n      mstore\n        /* \"#utility.yul\":18831:18833   */\n      0x20\n        /* \"#utility.yul\":18828:18829   */\n      dup2\n        /* \"#utility.yul\":18824:18834   */\n      add\n        /* \"#utility.yul\":18819:18834   */\n      swap1\n      pop\n        /* \"#utility.yul\":18795:18908   */\n      jump(tag_475)\n    tag_477:\n        /* \"#utility.yul\":18926:18932   */\n      dup4\n        /* \"#utility.yul\":18923:18924   */\n      dup2\n        /* \"#utility.yul\":18920:18933   */\n      gt\n        /* \"#utility.yul\":18917:19018   */\n      iszero\n      tag_478\n      jumpi\n        /* \"#utility.yul\":19006:19007   */\n      0x00\n        /* \"#utility.yul\":18997:19003   */\n      dup5\n        /* \"#utility.yul\":18992:18995   */\n      dup5\n        /* \"#utility.yul\":18988:19004   */\n      add\n        /* \"#utility.yul\":18981:19008   */\n      mstore\n        /* \"#utility.yul\":18917:19018   */\n    tag_478:\n        /* \"#utility.yul\":18766:19024   */\n      pop\n        /* \"#utility.yul\":18717:19024   */\n      pop\n      pop\n      pop\n      jump\t// out\n        /* \"#utility.yul\":19030:19350   */\n    tag_116:\n        /* \"#utility.yul\":19074:19080   */\n      0x00\n        /* \"#utility.yul\":19111:19112   */\n      0x02\n        /* \"#utility.yul\":19105:19109   */\n      dup3\n        /* \"#utility.yul\":19101:19113   */\n      div\n        /* \"#utility.yul\":19091:19113   */\n      swap1\n      pop\n        /* \"#utility.yul\":19158:19159   */\n      0x01\n        /* \"#utility.yul\":19152:19156   */\n      dup3\n        /* \"#utility.yul\":19148:19160   */\n      and\n        /* \"#utility.yul\":19179:19197   */\n      dup1\n        /* \"#utility.yul\":19169:19250   */\n      tag_480\n      jumpi\n        /* \"#utility.yul\":19235:19239   */\n      0x7f\n        /* \"#utility.yul\":19227:19233   */\n      dup3\n        /* \"#utility.yul\":19223:19240   */\n      and\n        /* \"#utility.yul\":19213:19240   */\n      swap2\n      pop\n        /* \"#utility.yul\":19169:19250   */\n    tag_480:\n        /* \"#utility.yul\":19297:19299   */\n      0x20\n        /* \"#utility.yul\":19289:19295   */\n      dup3\n        /* \"#utility.yul\":19286:19300   */\n      lt\n        /* \"#utility.yul\":19266:19284   */\n      dup2\n        /* \"#utility.yul\":19263:19301   */\n      eq\n        /* \"#utility.yul\":19260:19344   */\n      iszero\n      tag_481\n      jumpi\n        /* \"#utility.yul\":19316:19334   */\n      tag_482\n      tag_483\n      jump\t// in\n    tag_482:\n        /* \"#utility.yul\":19260:19344   */\n    tag_481:\n        /* \"#utility.yul\":19081:19350   */\n      pop\n        /* \"#utility.yul\":19030:19350   */\n      swap2\n      swap1\n      pop\n      jump\t// out\n        /* \"#utility.yul\":19356:19637   */\n    tag_459:\n        /* \"#utility.yul\":19439:19466   */\n      tag_485\n        /* \"#utility.yul\":19461:19465   */\n      dup3\n        /* \"#utility.yul\":19439:19466   */\n      tag_379\n      jump\t// in\n    tag_485:\n        /* \"#utility.yul\":19431:19437   */\n      dup2\n        /* \"#utility.yul\":19427:19467   */\n      add\n        /* \"#utility.yul\":19569:19575   */\n      dup2\n        /* \"#utility.yul\":19557:19567   */\n      dup2\n        /* \"#utility.yul\":19554:19576   */\n      lt\n        /* \"#utility.yul\":19533:19551   */\n      0xffffffffffffffff\n        /* \"#utility.yul\":19521:19531   */\n      dup3\n        /* \"#utility.yul\":19518:19552   */\n      gt\n        /* \"#utility.yul\":19515:19577   */\n      or\n        /* \"#utility.yul\":19512:19600   */\n      iszero\n      tag_486\n      jumpi\n        /* \"#utility.yul\":19580:19598   */\n      tag_487\n      tag_104\n      jump\t// in\n    tag_487:\n        /* \"#utility.yul\":19512:19600   */\n    tag_486:\n        /* \"#utility.yul\":19620:19630   */\n      dup1\n        /* \"#utility.yul\":19616:19618   */\n      0x40\n        /* \"#utility.yul\":19609:19631   */\n      mstore\n        /* \"#utility.yul\":19399:19637   */\n      pop\n        /* \"#utility.yul\":19356:19637   */\n      pop\n      pop\n      jump\t// out\n        /* \"#utility.yul\":19643:19876   */\n    tag_190:\n        /* \"#utility.yul\":19682:19685   */\n      0x00\n        /* \"#utility.yul\":19705:19729   */\n      tag_489\n        /* \"#utility.yul\":19723:19728   */\n      dup3\n        /* \"#utility.yul\":19705:19729   */\n      tag_420\n      jump\t// in\n    tag_489:\n        /* \"#utility.yul\":19696:19729   */\n      swap2\n      pop\n        /* \"#utility.yul\":19751:19817   */\n      0xffffffffffffffffffffffffffffffffffffffffffffffffffffffffffffffff\n        /* \"#utility.yul\":19744:19749   */\n      dup3\n        /* \"#utility.yul\":19741:19818   */\n      eq\n        /* \"#utility.yul\":19738:19841   */\n      iszero\n      tag_490\n      jumpi\n        /* \"#utility.yul\":19821:19839   */\n      tag_491\n      tag_492\n      jump\t// in\n    tag_491:\n        /* \"#utility.yul\":19738:19841   */\n    tag_490:\n        /* \"#utility.yul\":19868:19869   */\n      0x01\n        /* \"#utility.yul\":19861:19866   */\n      dup3\n        /* \"#utility.yul\":19857:19870   */\n      add\n        /* \"#utility.yul\":19850:19870   */\n      swap1\n      pop\n        /* \"#utility.yul\":19643:19876   */\n      swap2\n      swap1\n      pop\n      jump\t// out\n        /* \"#utility.yul\":19882:20062   */\n    tag_492:\n        /* \"#utility.yul\":19930:20007   */\n      0x4e487b7100000000000000000000000000000000000000000000000000000000\n        /* \"#utility.yul\":19927:19928   */\n      0x00\n        /* \"#utility.yul\":19920:20008   */\n      mstore\n        /* \"#utility.yul\":20027:20031   */\n      0x11\n        /* \"#utility.yul\":20024:20025   */\n      0x04\n        /* \"#utility.yul\":20017:20032   */\n      mstore\n        /* \"#utility.yul\":20051:20055   */\n      0x24\n        /* \"#utility.yul\":20048:20049   */\n      0x00\n        /* \"#utility.yul\":20041:20056   */\n      revert\n        /* \"#utility.yul\":20068:20248   */\n    tag_483:\n        /* \"#utility.yul\":20116:20193   */\n      0x4e487b7100000000000000000000000000000000000000000000000000000000\n        /* \"#utility.yul\":20113:20114   */\n      0x00\n        /* \"#utility.yul\":20106:20194   */\n      mstore\n        /* \"#utility.yul\":20213:20217   */\n      0x22\n        /* \"#utility.yul\":20210:20211   */\n      0x04\n        /* \"#utility.yul\":20203:20218   */\n      mstore\n        /* \"#utility.yul\":20237:20241   */\n      0x24\n        /* \"#utility.yul\":20234:20235   */\n      0x00\n        /* \"#utility.yul\":20227:20242   */\n      revert\n        /* \"#utility.yul\":20254:20434   */\n    tag_104:\n        /* \"#utility.yul\":20302:20379   */\n      0x4e487b7100000000000000000000000000000000000000000000000000000000\n        /* \"#utility.yul\":20299:20300   */\n      0x00\n        /* \"#utility.yul\":20292:20380   */\n      mstore\n        /* \"#utility.yul\":20399:20403   */\n      0x41\n        /* \"#utility.yul\":20396:20397   */\n      0x04\n        /* \"#utility.yul\":20389:20404   */\n      mstore\n        /* \"#utility.yul\":20423:20427   */\n      0x24\n        /* \"#utility.yul\":20420:20421   */\n      0x00\n        /* \"#utility.yul\":20413:20428   */\n      revert\n        /* \"#utility.yul\":20440:20557   */\n    tag_313:\n        /* \"#utility.yul\":20549:20550   */\n      0x00\n        /* \"#utility.yul\":20546:20547   */\n      dup1\n        /* \"#utility.yul\":20539:20551   */\n      revert\n        /* \"#utility.yul\":20563:20680   */\n    tag_306:\n        /* \"#utility.yul\":20672:20673   */\n      0x00\n        /* \"#utility.yul\":20669:20670   */\n      dup1\n        /* \"#utility.yul\":20662:20674   */\n      revert\n        /* \"#utility.yul\":20686:20803   */\n    tag_325:\n        /* \"#utility.yul\":20795:20796   */\n      0x00\n        /* \"#utility.yul\":20792:20793   */\n      dup1\n        /* \"#utility.yul\":20785:20797   */\n      revert\n        /* \"#utility.yul\":20809:20926   */\n    tag_322:\n        /* \"#utility.yul\":20918:20919   */\n      0x00\n        /* \"#utility.yul\":20915:20916   */\n      dup1\n        /* \"#utility.yul\":20908:20920   */\n      revert\n        /* \"#utility.yul\":20932:21034   */\n    tag_379:\n        /* \"#utility.yul\":20973:20979   */\n      0x00\n        /* \"#utility.yul\":21024:21026   */\n      0x1f\n        /* \"#utility.yul\":21020:21027   */\n      not\n        /* \"#utility.yul\":21015:21017   */\n      0x1f\n        /* \"#utility.yul\":21008:21013   */\n      dup4\n        /* \"#utility.yul\":21004:21018   */\n      add\n        /* \"#utility.yul\":21000:21028   */\n      and\n        /* \"#utility.yul\":20990:21028   */\n      swap1\n      pop\n        /* \"#utility.yul\":20932:21034   */\n      swap2\n      swap1\n      pop\n      jump\t// out\n        /* \"#utility.yul\":21040:21162   */\n    tag_318:\n        /* \"#utility.yul\":21113:21137   */\n      tag_502\n        /* \"#utility.yul\":21131:21136   */\n      dup2\n        /* \"#utility.yul\":21113:21137   */\n      tag_420\n      jump\t// in\n    tag_502:\n        /* \"#utility.yul\":21106:21111   */\n      dup2\n        /* \"#utility.yul\":21103:21138   */\n      eq\n        /* \"#utility.yul\":21093:21156   */\n      tag_503\n      jumpi\n        /* \"#utility.yul\":21152:21153   */\n      0x00\n        /* \"#utility.yul\":21149:21150   */\n      dup1\n        /* \"#utility.yul\":21142:21154   */\n      revert\n        /* \"#utility.yul\":21093:21156   */\n    tag_503:\n        /* \"#utility.yul\":21040:21162   */\n      pop\n      jump\t// out\n\n    auxdata: 0xa26469706673582212202a77fc19b8151f171f4cb076737a5b47a5682529bb710b1a8e02d407e01c1d4864736f6c63430008070033\n}\n",
				"bytecode": {
					"linkReferences": {},
					"object": "6080604052336000806101000a81548173ffffffffffffffffffffffffffffffffffffffff021916908373ffffffffffffffffffffffffffffffffffffffff160217905550600060025534801561005557600080fd5b50612639806100656000396000f3fe608060405234801561001057600080fd5b506004361061010b5760003560e01c80638f5ae799116100a2578063bbb7b0c311610071578063bbb7b0c3146102f6578063cb80c41914610312578063cda5e4a514610342578063cea2312114610372578063d8459464146103a45761010b565b80638f5ae7991461025c57806390175af11461027857806395d00407146102aa578063b9db15b4146102c65761010b565b80637acc0b20116100de5780637acc0b20146101be57806381d9def2146101f3578063897ec7df1461020f5780638f29695a146102405761010b565b806315533a2714610110578063333f3dd01461012c5780633779643f1461015c57806350b492ba1461018c575b600080fd5b61012a60048036038101906101259190611ca8565b6103c0565b005b61014660048036038101906101419190611d7c565b61054f565b60405161015391906121c1565b60405180910390f35b61017660048036038101906101719190611d7c565b610702565b6040516101839190612279565b60405180910390f35b6101a660048036038101906101a19190611d7c565b6108b5565b6040516101b5939291906122cb565b60405180910390f35b6101d860048036038101906101d39190611d7c565b6109ef565b6040516101ea96959493929190612310565b60405180910390f35b61020d60048036038101906102089190611ca8565b610bc3565b005b61022960048036038101906102249190611d7c565b610d52565b60405161023792919061229b565b60405180910390f35b61025a60048036038101906102559190611cf1565b610dfe565b005b61027660048036038101906102719190611ca8565b610f65565b005b610292600480360381019061028d9190611d7c565b6110f4565b6040516102a1939291906122cb565b60405180910390f35b6102c460048036038101906102bf9190611ca8565b61122e565b005b6102e060048036038101906102db9190611d7c565b611362565b6040516102ed9190612205565b60405180910390f35b610310600480360381019061030b9190611de9565b611563565b005b61032c60048036038101906103279190611d7c565b6115e4565b60405161033991906121e3565b60405180910390f35b61035c60048036038101906103579190611d7c565b611797565b6040516103699190612257565b60405180910390f35b61038c60048036038101906103879190611d7c565b6118b8565b60405161039b939291906122cb565b60405180910390f35b6103be60048036038101906103b99190611da9565b6119f2565b005b6103c8611a64565b8142446040516020016103dd93929190612183565b6040516020818303038152906040528051906020012060001c8160000181815250506040518060400160405280600281526020017f53550000000000000000000000000000000000000000000000000000000000008152508160200181905250818160400181905250600067ffffffffffffffff81111561046157610460612598565b5b60405190808252806020026020018201604052801561048f5781602001602082028036833780820191505090505b5081606001819052508060036000836000015181526020019081526020016000206000820151816000015560208201518160010190805190602001906104d6929190611a8c565b5060408201518160020190805190602001906104f3929190611a8c565b506060820151816003019080519060200190610510929190611b12565b509050507f0e2879159e80c92c57341e91920c4b1af102eebab99c1eca0e8a3c081fbf95ba816040516105439190612279565b60405180910390a15050565b610557611b5f565b600560008381526020019081526020016000206040518060800160405290816000820154815260200160018201805461058f9061248e565b80601f01602080910402602001604051908101604052809291908181526020018280546105bb9061248e565b80156106085780601f106105dd57610100808354040283529160200191610608565b820191906000526020600020905b8154815290600101906020018083116105eb57829003601f168201915b505050505081526020016002820180546106219061248e565b80601f016020809104026020016040519081016040528092919081815260200182805461064d9061248e565b801561069a5780601f1061066f5761010080835404028352916020019161069a565b820191906000526020600020905b81548152906001019060200180831161067d57829003601f168201915b50505050508152602001600382018054806020026020016040519081016040528092919081815260200182805480156106f257602002820191906000526020600020905b8154815260200190600101908083116106de575b5050505050815250509050919050565b61070a611a64565b60036000838152602001908152602001600020604051806080016040529081600082015481526020016001820180546107429061248e565b80601f016020809104026020016040519081016040528092919081815260200182805461076e9061248e565b80156107bb5780601f10610790576101008083540402835291602001916107bb565b820191906000526020600020905b81548152906001019060200180831161079e57829003601f168201915b505050505081526020016002820180546107d49061248e565b80601f01602080910402602001604051908101604052809291908181526020018280546108009061248e565b801561084d5780601f106108225761010080835404028352916020019161084d565b820191906000526020600020905b81548152906001019060200180831161083057829003601f168201915b50505050508152602001600382018054806020026020016040519081016040528092919081815260200182805480156108a557602002820191906000526020600020905b815481526020019060010190808311610891575b5050505050815250509050919050565b60056020528060005260406000206000915090508060000154908060010180546108de9061248e565b80601f016020809104026020016040519081016040528092919081815260200182805461090a9061248e565b80156109575780601f1061092c57610100808354040283529160200191610957565b820191906000526020600020905b81548152906001019060200180831161093a57829003601f168201915b50505050509080600201805461096c9061248e565b80601f01602080910402602001604051908101604052809291908181526020018280546109989061248e565b80156109e55780601f106109ba576101008083540402835291602001916109e5565b820191906000526020600020905b8154815290600101906020018083116109c857829003601f168201915b5050505050905083565b6001602052806000526040600020600091509050806000015490806001018054610a189061248e565b80601f0160208091040260200160405190810160405280929190818152602001828054610a449061248e565b8015610a915780601f10610a6657610100808354040283529160200191610a91565b820191906000526020600020905b815481529060010190602001808311610a7457829003601f168201915b505050505090806002015490806003018054610aac9061248e565b80601f0160208091040260200160405190810160405280929190818152602001828054610ad89061248e565b8015610b255780601f10610afa57610100808354040283529160200191610b25565b820191906000526020600020905b815481529060010190602001808311610b0857829003601f168201915b505050505090806004018054610b3a9061248e565b80601f0160208091040260200160405190810160405280929190818152602001828054610b669061248e565b8015610bb35780601f10610b8857610100808354040283529160200191610bb3565b820191906000526020600020905b815481529060010190602001808311610b9657829003601f168201915b5050505050908060050154905086565b610bcb611b5f565b814244604051602001610be093929190612183565b6040516020818303038152906040528051906020012060001c8160000181815250506040518060400160405280600281526020017f44490000000000000000000000000000000000000000000000000000000000008152508160200181905250818160400181905250600067ffffffffffffffff811115610c6457610c63612598565b5b604051908082528060200260200182016040528015610c925781602001602082028036833780820191505090505b508160600181905250806005600083600001518152602001908152602001600020600082015181600001556020820151816001019080519060200190610cd9929190611a8c565b506040820151816002019080519060200190610cf6929190611a8c565b506060820151816003019080519060200190610d13929190611b12565b509050507f4fbe23d5058e501d2ac74e9b5146f125d6c6ae6c3475d9431498262e998ee8e081604051610d4691906121c1565b60405180910390a15050565b6006602052806000526040600020600091509050806000015490806001018054610d7b9061248e565b80601f0160208091040260200160405190810160405280929190818152602001828054610da79061248e565b8015610df45780601f10610dc957610100808354040283529160200191610df4565b820191906000526020600020905b815481529060010190602001808311610dd757829003601f168201915b5050505050905082565b610e06611b87565b834244604051602001610e1b93929190612183565b6040516020818303038152906040528051906020012060001c8160000181815250508381602001819052508281604001818152505081816060018190525060405180602001604052806000815250816080018190525060008160a0018181525050806001600083600001518152602001908152602001600020600082015181600001556020820151816001019080519060200190610eba929190611a8c565b50604082015181600201556060820151816003019080519060200190610ee1929190611a8c565b506080820151816004019080519060200190610efe929190611a8c565b5060a0820151816005015590505060026000815480929190610f1f906124f1565b91905055507f0b9650a646eaf16194343a0e5cf05c4a99cfbffbf2a7630c4eaf6f3263a931d881600254604051610f57929190612227565b60405180910390a150505050565b610f6d611bbd565b814244604051602001610f8293929190612183565b6040516020818303038152906040528051906020012060001c8160000181815250506040518060400160405280600281526020017f4d410000000000000000000000000000000000000000000000000000000000008152508160200181905250818160400181905250600067ffffffffffffffff81111561100657611005612598565b5b6040519080825280602002602001820160405280156110345781602001602082028036833780820191505090505b50816060018190525080600460008360000151815260200190815260200160002060008201518160000155602082015181600101908051906020019061107b929190611a8c565b506040820151816002019080519060200190611098929190611a8c565b5060608201518160030190805190602001906110b5929190611b12565b509050507fc127163e194edd469d13210787466a0adb629f336e45d1fc7bc4e2797805615e816040516110e891906121e3565b60405180910390a15050565b600460205280600052604060002060009150905080600001549080600101805461111d9061248e565b80601f01602080910402602001604051908101604052809291908181526020018280546111499061248e565b80156111965780601f1061116b57610100808354040283529160200191611196565b820191906000526020600020905b81548152906001019060200180831161117957829003601f168201915b5050505050908060020180546111ab9061248e565b80601f01602080910402602001604051908101604052809291908181526020018280546111d79061248e565b80156112245780601f106111f957610100808354040283529160200191611224565b820191906000526020600020905b81548152906001019060200180831161120757829003601f168201915b5050505050905083565b611236611be5565b81424460405160200161124b93929190612183565b6040516020818303038152906040528051906020012060001c816000018181525050818160200181905250600067ffffffffffffffff81111561129157611290612598565b5b6040519080825280602002602001820160405280156112bf5781602001602082028036833780820191505090505b508160400181905250806006600083600001518152602001908152602001600020600082015181600001556020820151816001019080519060200190611306929190611a8c565b506040820151816002019080519060200190611323929190611b12565b509050507f3f3d80dc5c883417f8997fef692ba50e4f4f4762e620926e80d9aed3b08b89d0816040516113569190612257565b60405180910390a15050565b61136a611b87565b600160008381526020019081526020016000206040518060c0016040529081600082015481526020016001820180546113a29061248e565b80601f01602080910402602001604051908101604052809291908181526020018280546113ce9061248e565b801561141b5780601f106113f05761010080835404028352916020019161141b565b820191906000526020600020905b8154815290600101906020018083116113fe57829003601f168201915b505050505081526020016002820154815260200160038201805461143e9061248e565b80601f016020809104026020016040519081016040528092919081815260200182805461146a9061248e565b80156114b75780601f1061148c576101008083540402835291602001916114b7565b820191906000526020600020905b81548152906001019060200180831161149a57829003601f168201915b505050505081526020016004820180546114d09061248e565b80601f01602080910402602001604051908101604052809291908181526020018280546114fc9061248e565b80156115495780601f1061151e57610100808354040283529160200191611549565b820191906000526020600020905b81548152906001019060200180831161152c57829003601f168201915b505050505081526020016005820154815250509050919050565b600061156e83610702565b9050600061157b85611362565b90506000611588846115e4565b90508060400151826080018190525080600001518260a00181815250507f59be542ca2db8c0eaeb99f755e7eab871d9cefc9b5e52b1f107b679c7295fae1826040516115d49190612205565b60405180910390a1505050505050565b6115ec611bbd565b60046000838152602001908152602001600020604051806080016040529081600082015481526020016001820180546116249061248e565b80601f01602080910402602001604051908101604052809291908181526020018280546116509061248e565b801561169d5780601f106116725761010080835404028352916020019161169d565b820191906000526020600020905b81548152906001019060200180831161168057829003601f168201915b505050505081526020016002820180546116b69061248e565b80601f01602080910402602001604051908101604052809291908181526020018280546116e29061248e565b801561172f5780601f106117045761010080835404028352916020019161172f565b820191906000526020600020905b81548152906001019060200180831161171257829003601f168201915b505050505081526020016003820180548060200260200160405190810160405280929190818152602001828054801561178757602002820191906000526020600020905b815481526020019060010190808311611773575b5050505050815250509050919050565b61179f611be5565b60066000838152602001908152602001600020604051806060016040529081600082015481526020016001820180546117d79061248e565b80601f01602080910402602001604051908101604052809291908181526020018280546118039061248e565b80156118505780601f1061182557610100808354040283529160200191611850565b820191906000526020600020905b81548152906001019060200180831161183357829003601f168201915b50505050508152602001600282018054806020026020016040519081016040528092919081815260200182805480156118a857602002820191906000526020600020905b815481526020019060010190808311611894575b5050505050815250509050919050565b60036020528060005260406000206000915090508060000154908060010180546118e19061248e565b80601f016020809104026020016040519081016040528092919081815260200182805461190d9061248e565b801561195a5780601f1061192f5761010080835404028352916020019161195a565b820191906000526020600020905b81548152906001019060200180831161193d57829003601f168201915b50505050509080600201805461196f9061248e565b80601f016020809104026020016040519081016040528092919081815260200182805461199b9061248e565b80156119e85780601f106119bd576101008083540402835291602001916119e8565b820191906000526020600020905b8154815290600101906020018083116119cb57829003601f168201915b5050505050905083565b60006119fd82610702565b90506000611a0a84611362565b90508160400151816080018190525081600001518160a00181815250507f59be542ca2db8c0eaeb99f755e7eab871d9cefc9b5e52b1f107b679c7295fae181604051611a569190612205565b60405180910390a150505050565b6040518060800160405280600081526020016060815260200160608152602001606081525090565b828054611a989061248e565b90600052602060002090601f016020900481019282611aba5760008555611b01565b82601f10611ad357805160ff1916838001178555611b01565b82800160010185558215611b01579182015b82811115611b00578251825591602001919060010190611ae5565b5b509050611b0e9190611c06565b5090565b828054828255906000526020600020908101928215611b4e579160200282015b82811115611b4d578251825591602001919060010190611b32565b5b509050611b5b9190611c06565b5090565b6040518060800160405280600081526020016060815260200160608152602001606081525090565b6040518060c001604052806000815260200160608152602001600081526020016060815260200160608152602001600081525090565b6040518060800160405280600081526020016060815260200160608152602001606081525090565b60405180606001604052806000815260200160608152602001606081525090565b5b80821115611c1f576000816000905550600101611c07565b5090565b6000611c36611c31846123ab565b612386565b905082815260208101848484011115611c5257611c516125cc565b5b611c5d84828561244c565b509392505050565b600082601f830112611c7a57611c796125c7565b5b8135611c8a848260208601611c23565b91505092915050565b600081359050611ca2816125ec565b92915050565b600060208284031215611cbe57611cbd6125d6565b5b600082013567ffffffffffffffff811115611cdc57611cdb6125d1565b5b611ce884828501611c65565b91505092915050565b600080600060608486031215611d0a57611d096125d6565b5b600084013567ffffffffffffffff811115611d2857611d276125d1565b5b611d3486828701611c65565b9350506020611d4586828701611c93565b925050604084013567ffffffffffffffff811115611d6657611d656125d1565b5b611d7286828701611c65565b9150509250925092565b600060208284031215611d9257611d916125d6565b5b6000611da084828501611c93565b91505092915050565b60008060408385031215611dc057611dbf6125d6565b5b6000611dce85828601611c93565b9250506020611ddf85828601611c93565b9150509250929050565b600080600060608486031215611e0257611e016125d6565b5b6000611e1086828701611c93565b9350506020611e2186828701611c93565b9250506040611e3286828701611c93565b9150509250925092565b6000611e488383612165565b60208301905092915050565b6000611e5f826123ec565b611e69818561240f565b9350611e74836123dc565b8060005b83811015611ea5578151611e8c8882611e3c565b9750611e9783612402565b925050600181019050611e78565b5085935050505092915050565b6000611ebd826123f7565b611ec78185612420565b9350611ed781856020860161245b565b611ee0816125db565b840191505092915050565b6000611ef6826123f7565b611f008185612431565b9350611f1081856020860161245b565b611f19816125db565b840191505092915050565b6000608083016000830151611f3c6000860182612165565b5060208301518482036020860152611f548282611eb2565b91505060408301518482036040860152611f6e8282611eb2565b91505060608301518482036060860152611f888282611e54565b9150508091505092915050565b6000608083016000830151611fad6000860182612165565b5060208301518482036020860152611fc58282611eb2565b91505060408301518482036040860152611fdf8282611eb2565b91505060608301518482036060860152611ff98282611e54565b9150508091505092915050565b600060c08301600083015161201e6000860182612165565b50602083015184820360208601526120368282611eb2565b915050604083015161204b6040860182612165565b50606083015184820360608601526120638282611eb2565b9150506080830151848203608086015261207d8282611eb2565b91505060a083015161209260a0860182612165565b508091505092915050565b60006060830160008301516120b56000860182612165565b50602083015184820360208601526120cd8282611eb2565b915050604083015184820360408601526120e78282611e54565b9150508091505092915050565b600060808301600083015161210c6000860182612165565b50602083015184820360208601526121248282611eb2565b9150506040830151848203604086015261213e8282611eb2565b915050606083015184820360608601526121588282611e54565b9150508091505092915050565b61216e81612442565b82525050565b61217d81612442565b82525050565b6000606082019050818103600083015261219d8186611eeb565b90506121ac6020830185612174565b6121b96040830184612174565b949350505050565b600060208201905081810360008301526121db8184611f24565b905092915050565b600060208201905081810360008301526121fd8184611f95565b905092915050565b6000602082019050818103600083015261221f8184612006565b905092915050565b600060408201905081810360008301526122418185612006565b90506122506020830184612174565b9392505050565b60006020820190508181036000830152612271818461209d565b905092915050565b6000602082019050818103600083015261229381846120f4565b905092915050565b60006040820190506122b06000830185612174565b81810360208301526122c28184611eeb565b90509392505050565b60006060820190506122e06000830186612174565b81810360208301526122f28185611eeb565b905081810360408301526123068184611eeb565b9050949350505050565b600060c0820190506123256000830189612174565b81810360208301526123378188611eeb565b90506123466040830187612174565b81810360608301526123588186611eeb565b9050818103608083015261236c8185611eeb565b905061237b60a0830184612174565b979650505050505050565b60006123906123a1565b905061239c82826124c0565b919050565b6000604051905090565b600067ffffffffffffffff8211156123c6576123c5612598565b5b6123cf826125db565b9050602081019050919050565b6000819050602082019050919050565b600081519050919050565b600081519050919050565b6000602082019050919050565b600082825260208201905092915050565b600082825260208201905092915050565b600082825260208201905092915050565b6000819050919050565b82818337600083830152505050565b60005b8381101561247957808201518184015260208101905061245e565b83811115612488576000848401525b50505050565b600060028204905060018216806124a657607f821691505b602082108114156124ba576124b9612569565b5b50919050565b6124c9826125db565b810181811067ffffffffffffffff821117156124e8576124e7612598565b5b80604052505050565b60006124fc82612442565b91507fffffffffffffffffffffffffffffffffffffffffffffffffffffffffffffffff82141561252f5761252e61253a565b5b600182019050919050565b7f4e487b7100000000000000000000000000000000000000000000000000000000600052601160045260246000fd5b7f4e487b7100000000000000000000000000000000000000000000000000000000600052602260045260246000fd5b7f4e487b7100000000000000000000000000000000000000000000000000000000600052604160045260246000fd5b600080fd5b600080fd5b600080fd5b600080fd5b6000601f19601f8301169050919050565b6125f581612442565b811461260057600080fd5b5056fea26469706673582212202a77fc19b8151f171f4cb076737a5b47a5682529bb710b1a8e02d407e01c1d4864736f6c63430008070033",
					"opcodes": "PUSH1 0x80 PUSH1 0x40 MSTORE CALLER PUSH1 0x0 DUP1 PUSH2 0x100 EXP DUP2 SLOAD DUP2 PUSH20 0xFFFFFFFFFFFFFFFFFFFFFFFFFFFFFFFFFFFFFFFF MUL NOT AND SWAP1 DUP4 PUSH20 0xFFFFFFFFFFFFFFFFFFFFFFFFFFFFFFFFFFFFFFFF AND MUL OR SWAP1 SSTORE POP PUSH1 0x0 PUSH1 0x2 SSTORE CALLVALUE DUP1 ISZERO PUSH2 0x55 JUMPI PUSH1 0x0 DUP1 REVERT JUMPDEST POP PUSH2 0x2639 DUP1 PUSH2 0x65 PUSH1 0x0 CODECOPY PUSH1 0x0 RETURN INVALID PUSH1 0x80 PUSH1 0x40 MSTORE CALLVALUE DUP1 ISZERO PUSH2 0x10 JUMPI PUSH1 0x0 DUP1 REVERT JUMPDEST POP PUSH1 0x4 CALLDATASIZE LT PUSH2 0x10B JUMPI PUSH1 0x0 CALLDATALOAD PUSH1 0xE0 SHR DUP1 PUSH4 0x8F5AE799 GT PUSH2 0xA2 JUMPI DUP1 PUSH4 0xBBB7B0C3 GT PUSH2 0x71 JUMPI DUP1 PUSH4 0xBBB7B0C3 EQ PUSH2 0x2F6 JUMPI DUP1 PUSH4 0xCB80C419 EQ PUSH2 0x312 JUMPI DUP1 PUSH4 0xCDA5E4A5 EQ PUSH2 0x342 JUMPI DUP1 PUSH4 0xCEA23121 EQ PUSH2 0x372 JUMPI DUP1 PUSH4 0xD8459464 EQ PUSH2 0x3A4 JUMPI PUSH2 0x10B JUMP JUMPDEST DUP1 PUSH4 0x8F5AE799 EQ PUSH2 0x25C JUMPI DUP1 PUSH4 0x90175AF1 EQ PUSH2 0x278 JUMPI DUP1 PUSH4 0x95D00407 EQ PUSH2 0x2AA JUMPI DUP1 PUSH4 0xB9DB15B4 EQ PUSH2 0x2C6 JUMPI PUSH2 0x10B JUMP JUMPDEST DUP1 PUSH4 0x7ACC0B20 GT PUSH2 0xDE JUMPI DUP1 PUSH4 0x7ACC0B20 EQ PUSH2 0x1BE JUMPI DUP1 PUSH4 0x81D9DEF2 EQ PUSH2 0x1F3 JUMPI DUP1 PUSH4 0x897EC7DF EQ PUSH2 0x20F JUMPI DUP1 PUSH4 0x8F29695A EQ PUSH2 0x240 JUMPI PUSH2 0x10B JUMP JUMPDEST DUP1 PUSH4 0x15533A27 EQ PUSH2 0x110 JUMPI DUP1 PUSH4 0x333F3DD0 EQ PUSH2 0x12C JUMPI DUP1 PUSH4 0x3779643F EQ PUSH2 0x15C JUMPI DUP1 PUSH4 0x50B492BA EQ PUSH2 0x18C JUMPI JUMPDEST PUSH1 0x0 DUP1 REVERT JUMPDEST PUSH2 0x12A PUSH1 0x4 DUP1 CALLDATASIZE SUB DUP2 ADD SWAP1 PUSH2 0x125 SWAP2 SWAP1 PUSH2 0x1CA8 JUMP JUMPDEST PUSH2 0x3C0 JUMP JUMPDEST STOP JUMPDEST PUSH2 0x146 PUSH1 0x4 DUP1 CALLDATASIZE SUB DUP2 ADD SWAP1 PUSH2 0x141 SWAP2 SWAP1 PUSH2 0x1D7C JUMP JUMPDEST PUSH2 0x54F JUMP JUMPDEST PUSH1 0x40 MLOAD PUSH2 0x153 SWAP2 SWAP1 PUSH2 0x21C1 JUMP JUMPDEST PUSH1 0x40 MLOAD DUP1 SWAP2 SUB SWAP1 RETURN JUMPDEST PUSH2 0x176 PUSH1 0x4 DUP1 CALLDATASIZE SUB DUP2 ADD SWAP1 PUSH2 0x171 SWAP2 SWAP1 PUSH2 0x1D7C JUMP JUMPDEST PUSH2 0x702 JUMP JUMPDEST PUSH1 0x40 MLOAD PUSH2 0x183 SWAP2 SWAP1 PUSH2 0x2279 JUMP JUMPDEST PUSH1 0x40 MLOAD DUP1 SWAP2 SUB SWAP1 RETURN JUMPDEST PUSH2 0x1A6 PUSH1 0x4 DUP1 CALLDATASIZE SUB DUP2 ADD SWAP1 PUSH2 0x1A1 SWAP2 SWAP1 PUSH2 0x1D7C JUMP JUMPDEST PUSH2 0x8B5 JUMP JUMPDEST PUSH1 0x40 MLOAD PUSH2 0x1B5 SWAP4 SWAP3 SWAP2 SWAP1 PUSH2 0x22CB JUMP JUMPDEST PUSH1 0x40 MLOAD DUP1 SWAP2 SUB SWAP1 RETURN JUMPDEST PUSH2 0x1D8 PUSH1 0x4 DUP1 CALLDATASIZE SUB DUP2 ADD SWAP1 PUSH2 0x1D3 SWAP2 SWAP1 PUSH2 0x1D7C JUMP JUMPDEST PUSH2 0x9EF JUMP JUMPDEST PUSH1 0x40 MLOAD PUSH2 0x1EA SWAP7 SWAP6 SWAP5 SWAP4 SWAP3 SWAP2 SWAP1 PUSH2 0x2310 JUMP JUMPDEST PUSH1 0x40 MLOAD DUP1 SWAP2 SUB SWAP1 RETURN JUMPDEST PUSH2 0x20D PUSH1 0x4 DUP1 CALLDATASIZE SUB DUP2 ADD SWAP1 PUSH2 0x208 SWAP2 SWAP1 PUSH2 0x1CA8 JUMP JUMPDEST PUSH2 0xBC3 JUMP JUMPDEST STOP JUMPDEST PUSH2 0x229 PUSH1 0x4 DUP1 CALLDATASIZE SUB DUP2 ADD SWAP1 PUSH2 0x224 SWAP2 SWAP1 PUSH2 0x1D7C JUMP JUMPDEST PUSH2 0xD52 JUMP JUMPDEST PUSH1 0x40 MLOAD PUSH2 0x237 SWAP3 SWAP2 SWAP1 PUSH2 0x229B JUMP JUMPDEST PUSH1 0x40 MLOAD DUP1 SWAP2 SUB SWAP1 RETURN JUMPDEST PUSH2 0x25A PUSH1 0x4 DUP1 CALLDATASIZE SUB DUP2 ADD SWAP1 PUSH2 0x255 SWAP2 SWAP1 PUSH2 0x1CF1 JUMP JUMPDEST PUSH2 0xDFE JUMP JUMPDEST STOP JUMPDEST PUSH2 0x276 PUSH1 0x4 DUP1 CALLDATASIZE SUB DUP2 ADD SWAP1 PUSH2 0x271 SWAP2 SWAP1 PUSH2 0x1CA8 JUMP JUMPDEST PUSH2 0xF65 JUMP JUMPDEST STOP JUMPDEST PUSH2 0x292 PUSH1 0x4 DUP1 CALLDATASIZE SUB DUP2 ADD SWAP1 PUSH2 0x28D SWAP2 SWAP1 PUSH2 0x1D7C JUMP JUMPDEST PUSH2 0x10F4 JUMP JUMPDEST PUSH1 0x40 MLOAD PUSH2 0x2A1 SWAP4 SWAP3 SWAP2 SWAP1 PUSH2 0x22CB JUMP JUMPDEST PUSH1 0x40 MLOAD DUP1 SWAP2 SUB SWAP1 RETURN JUMPDEST PUSH2 0x2C4 PUSH1 0x4 DUP1 CALLDATASIZE SUB DUP2 ADD SWAP1 PUSH2 0x2BF SWAP2 SWAP1 PUSH2 0x1CA8 JUMP JUMPDEST PUSH2 0x122E JUMP JUMPDEST STOP JUMPDEST PUSH2 0x2E0 PUSH1 0x4 DUP1 CALLDATASIZE SUB DUP2 ADD SWAP1 PUSH2 0x2DB SWAP2 SWAP1 PUSH2 0x1D7C JUMP JUMPDEST PUSH2 0x1362 JUMP JUMPDEST PUSH1 0x40 MLOAD PUSH2 0x2ED SWAP2 SWAP1 PUSH2 0x2205 JUMP JUMPDEST PUSH1 0x40 MLOAD DUP1 SWAP2 SUB SWAP1 RETURN JUMPDEST PUSH2 0x310 PUSH1 0x4 DUP1 CALLDATASIZE SUB DUP2 ADD SWAP1 PUSH2 0x30B SWAP2 SWAP1 PUSH2 0x1DE9 JUMP JUMPDEST PUSH2 0x1563 JUMP JUMPDEST STOP JUMPDEST PUSH2 0x32C PUSH1 0x4 DUP1 CALLDATASIZE SUB DUP2 ADD SWAP1 PUSH2 0x327 SWAP2 SWAP1 PUSH2 0x1D7C JUMP JUMPDEST PUSH2 0x15E4 JUMP JUMPDEST PUSH1 0x40 MLOAD PUSH2 0x339 SWAP2 SWAP1 PUSH2 0x21E3 JUMP JUMPDEST PUSH1 0x40 MLOAD DUP1 SWAP2 SUB SWAP1 RETURN JUMPDEST PUSH2 0x35C PUSH1 0x4 DUP1 CALLDATASIZE SUB DUP2 ADD SWAP1 PUSH2 0x357 SWAP2 SWAP1 PUSH2 0x1D7C JUMP JUMPDEST PUSH2 0x1797 JUMP JUMPDEST PUSH1 0x40 MLOAD PUSH2 0x369 SWAP2 SWAP1 PUSH2 0x2257 JUMP JUMPDEST PUSH1 0x40 MLOAD DUP1 SWAP2 SUB SWAP1 RETURN JUMPDEST PUSH2 0x38C PUSH1 0x4 DUP1 CALLDATASIZE SUB DUP2 ADD SWAP1 PUSH2 0x387 SWAP2 SWAP1 PUSH2 0x1D7C JUMP JUMPDEST PUSH2 0x18B8 JUMP JUMPDEST PUSH1 0x40 MLOAD PUSH2 0x39B SWAP4 SWAP3 SWAP2 SWAP1 PUSH2 0x22CB JUMP JUMPDEST PUSH1 0x40 MLOAD DUP1 SWAP2 SUB SWAP1 RETURN JUMPDEST PUSH2 0x3BE PUSH1 0x4 DUP1 CALLDATASIZE SUB DUP2 ADD SWAP1 PUSH2 0x3B9 SWAP2 SWAP1 PUSH2 0x1DA9 JUMP JUMPDEST PUSH2 0x19F2 JUMP JUMPDEST STOP JUMPDEST PUSH2 0x3C8 PUSH2 0x1A64 JUMP JUMPDEST DUP2 TIMESTAMP DIFFICULTY PUSH1 0x40 MLOAD PUSH1 0x20 ADD PUSH2 0x3DD SWAP4 SWAP3 SWAP2 SWAP1 PUSH2 0x2183 JUMP JUMPDEST PUSH1 0x40 MLOAD PUSH1 0x20 DUP2 DUP4 SUB SUB DUP2 MSTORE SWAP1 PUSH1 0x40 MSTORE DUP1 MLOAD SWAP1 PUSH1 0x20 ADD KECCAK256 PUSH1 0x0 SHR DUP2 PUSH1 0x0 ADD DUP2 DUP2 MSTORE POP POP PUSH1 0x40 MLOAD DUP1 PUSH1 0x40 ADD PUSH1 0x40 MSTORE DUP1 PUSH1 0x2 DUP2 MSTORE PUSH1 0x20 ADD PUSH32 0x5355000000000000000000000000000000000000000000000000000000000000 DUP2 MSTORE POP DUP2 PUSH1 0x20 ADD DUP2 SWAP1 MSTORE POP DUP2 DUP2 PUSH1 0x40 ADD DUP2 SWAP1 MSTORE POP PUSH1 0x0 PUSH8 0xFFFFFFFFFFFFFFFF DUP2 GT ISZERO PUSH2 0x461 JUMPI PUSH2 0x460 PUSH2 0x2598 JUMP JUMPDEST JUMPDEST PUSH1 0x40 MLOAD SWAP1 DUP1 DUP3 MSTORE DUP1 PUSH1 0x20 MUL PUSH1 0x20 ADD DUP3 ADD PUSH1 0x40 MSTORE DUP1 ISZERO PUSH2 0x48F JUMPI DUP2 PUSH1 0x20 ADD PUSH1 0x20 DUP3 MUL DUP1 CALLDATASIZE DUP4 CALLDATACOPY DUP1 DUP3 ADD SWAP2 POP POP SWAP1 POP JUMPDEST POP DUP2 PUSH1 0x60 ADD DUP2 SWAP1 MSTORE POP DUP1 PUSH1 0x3 PUSH1 0x0 DUP4 PUSH1 0x0 ADD MLOAD DUP2 MSTORE PUSH1 0x20 ADD SWAP1 DUP2 MSTORE PUSH1 0x20 ADD PUSH1 0x0 KECCAK256 PUSH1 0x0 DUP3 ADD MLOAD DUP2 PUSH1 0x0 ADD SSTORE PUSH1 0x20 DUP3 ADD MLOAD DUP2 PUSH1 0x1 ADD SWAP1 DUP1 MLOAD SWAP1 PUSH1 0x20 ADD SWAP1 PUSH2 0x4D6 SWAP3 SWAP2 SWAP1 PUSH2 0x1A8C JUMP JUMPDEST POP PUSH1 0x40 DUP3 ADD MLOAD DUP2 PUSH1 0x2 ADD SWAP1 DUP1 MLOAD SWAP1 PUSH1 0x20 ADD SWAP1 PUSH2 0x4F3 SWAP3 SWAP2 SWAP1 PUSH2 0x1A8C JUMP JUMPDEST POP PUSH1 0x60 DUP3 ADD MLOAD DUP2 PUSH1 0x3 ADD SWAP1 DUP1 MLOAD SWAP1 PUSH1 0x20 ADD SWAP1 PUSH2 0x510 SWAP3 SWAP2 SWAP1 PUSH2 0x1B12 JUMP JUMPDEST POP SWAP1 POP POP PUSH32 0xE2879159E80C92C57341E91920C4B1AF102EEBAB99C1ECA0E8A3C081FBF95BA DUP2 PUSH1 0x40 MLOAD PUSH2 0x543 SWAP2 SWAP1 PUSH2 0x2279 JUMP JUMPDEST PUSH1 0x40 MLOAD DUP1 SWAP2 SUB SWAP1 LOG1 POP POP JUMP JUMPDEST PUSH2 0x557 PUSH2 0x1B5F JUMP JUMPDEST PUSH1 0x5 PUSH1 0x0 DUP4 DUP2 MSTORE PUSH1 0x20 ADD SWAP1 DUP2 MSTORE PUSH1 0x20 ADD PUSH1 0x0 KECCAK256 PUSH1 0x40 MLOAD DUP1 PUSH1 0x80 ADD PUSH1 0x40 MSTORE SWAP1 DUP2 PUSH1 0x0 DUP3 ADD SLOAD DUP2 MSTORE PUSH1 0x20 ADD PUSH1 0x1 DUP3 ADD DUP1 SLOAD PUSH2 0x58F SWAP1 PUSH2 0x248E JUMP JUMPDEST DUP1 PUSH1 0x1F ADD PUSH1 0x20 DUP1 SWAP2 DIV MUL PUSH1 0x20 ADD PUSH1 0x40 MLOAD SWAP1 DUP2 ADD PUSH1 0x40 MSTORE DUP1 SWAP3 SWAP2 SWAP1 DUP2 DUP2 MSTORE PUSH1 0x20 ADD DUP3 DUP1 SLOAD PUSH2 0x5BB SWAP1 PUSH2 0x248E JUMP JUMPDEST DUP1 ISZERO PUSH2 0x608 JUMPI DUP1 PUSH1 0x1F LT PUSH2 0x5DD JUMPI PUSH2 0x100 DUP1 DUP4 SLOAD DIV MUL DUP4 MSTORE SWAP2 PUSH1 0x20 ADD SWAP2 PUSH2 0x608 JUMP JUMPDEST DUP3 ADD SWAP2 SWAP1 PUSH1 0x0 MSTORE PUSH1 0x20 PUSH1 0x0 KECCAK256 SWAP1 JUMPDEST DUP2 SLOAD DUP2 MSTORE SWAP1 PUSH1 0x1 ADD SWAP1 PUSH1 0x20 ADD DUP1 DUP4 GT PUSH2 0x5EB JUMPI DUP3 SWAP1 SUB PUSH1 0x1F AND DUP3 ADD SWAP2 JUMPDEST POP POP POP POP POP DUP2 MSTORE PUSH1 0x20 ADD PUSH1 0x2 DUP3 ADD DUP1 SLOAD PUSH2 0x621 SWAP1 PUSH2 0x248E JUMP JUMPDEST DUP1 PUSH1 0x1F ADD PUSH1 0x20 DUP1 SWAP2 DIV MUL PUSH1 0x20 ADD PUSH1 0x40 MLOAD SWAP1 DUP2 ADD PUSH1 0x40 MSTORE DUP1 SWAP3 SWAP2 SWAP1 DUP2 DUP2 MSTORE PUSH1 0x20 ADD DUP3 DUP1 SLOAD PUSH2 0x64D SWAP1 PUSH2 0x248E JUMP JUMPDEST DUP1 ISZERO PUSH2 0x69A JUMPI DUP1 PUSH1 0x1F LT PUSH2 0x66F JUMPI PUSH2 0x100 DUP1 DUP4 SLOAD DIV MUL DUP4 MSTORE SWAP2 PUSH1 0x20 ADD SWAP2 PUSH2 0x69A JUMP JUMPDEST DUP3 ADD SWAP2 SWAP1 PUSH1 0x0 MSTORE PUSH1 0x20 PUSH1 0x0 KECCAK256 SWAP1 JUMPDEST DUP2 SLOAD DUP2 MSTORE SWAP1 PUSH1 0x1 ADD SWAP1 PUSH1 0x20 ADD DUP1 DUP4 GT PUSH2 0x67D JUMPI DUP3 SWAP1 SUB PUSH1 0x1F AND DUP3 ADD SWAP2 JUMPDEST POP POP POP POP POP DUP2 MSTORE PUSH1 0x20 ADD PUSH1 0x3 DUP3 ADD DUP1 SLOAD DUP1 PUSH1 0x20 MUL PUSH1 0x20 ADD PUSH1 0x40 MLOAD SWAP1 DUP2 ADD PUSH1 0x40 MSTORE DUP1 SWAP3 SWAP2 SWAP1 DUP2 DUP2 MSTORE PUSH1 0x20 ADD DUP3 DUP1 SLOAD DUP1 ISZERO PUSH2 0x6F2 JUMPI PUSH1 0x20 MUL DUP3 ADD SWAP2 SWAP1 PUSH1 0x0 MSTORE PUSH1 0x20 PUSH1 0x0 KECCAK256 SWAP1 JUMPDEST DUP2 SLOAD DUP2 MSTORE PUSH1 0x20 ADD SWAP1 PUSH1 0x1 ADD SWAP1 DUP1 DUP4 GT PUSH2 0x6DE JUMPI JUMPDEST POP POP POP POP POP DUP2 MSTORE POP POP SWAP1 POP SWAP2 SWAP1 POP JUMP JUMPDEST PUSH2 0x70A PUSH2 0x1A64 JUMP JUMPDEST PUSH1 0x3 PUSH1 0x0 DUP4 DUP2 MSTORE PUSH1 0x20 ADD SWAP1 DUP2 MSTORE PUSH1 0x20 ADD PUSH1 0x0 KECCAK256 PUSH1 0x40 MLOAD DUP1 PUSH1 0x80 ADD PUSH1 0x40 MSTORE SWAP1 DUP2 PUSH1 0x0 DUP3 ADD SLOAD DUP2 MSTORE PUSH1 0x20 ADD PUSH1 0x1 DUP3 ADD DUP1 SLOAD PUSH2 0x742 SWAP1 PUSH2 0x248E JUMP JUMPDEST DUP1 PUSH1 0x1F ADD PUSH1 0x20 DUP1 SWAP2 DIV MUL PUSH1 0x20 ADD PUSH1 0x40 MLOAD SWAP1 DUP2 ADD PUSH1 0x40 MSTORE DUP1 SWAP3 SWAP2 SWAP1 DUP2 DUP2 MSTORE PUSH1 0x20 ADD DUP3 DUP1 SLOAD PUSH2 0x76E SWAP1 PUSH2 0x248E JUMP JUMPDEST DUP1 ISZERO PUSH2 0x7BB JUMPI DUP1 PUSH1 0x1F LT PUSH2 0x790 JUMPI PUSH2 0x100 DUP1 DUP4 SLOAD DIV MUL DUP4 MSTORE SWAP2 PUSH1 0x20 ADD SWAP2 PUSH2 0x7BB JUMP JUMPDEST DUP3 ADD SWAP2 SWAP1 PUSH1 0x0 MSTORE PUSH1 0x20 PUSH1 0x0 KECCAK256 SWAP1 JUMPDEST DUP2 SLOAD DUP2 MSTORE SWAP1 PUSH1 0x1 ADD SWAP1 PUSH1 0x20 ADD DUP1 DUP4 GT PUSH2 0x79E JUMPI DUP3 SWAP1 SUB PUSH1 0x1F AND DUP3 ADD SWAP2 JUMPDEST POP POP POP POP POP DUP2 MSTORE PUSH1 0x20 ADD PUSH1 0x2 DUP3 ADD DUP1 SLOAD PUSH2 0x7D4 SWAP1 PUSH2 0x248E JUMP JUMPDEST DUP1 PUSH1 0x1F ADD PUSH1 0x20 DUP1 SWAP2 DIV MUL PUSH1 0x20 ADD PUSH1 0x40 MLOAD SWAP1 DUP2 ADD PUSH1 0x40 MSTORE DUP1 SWAP3 SWAP2 SWAP1 DUP2 DUP2 MSTORE PUSH1 0x20 ADD DUP3 DUP1 SLOAD PUSH2 0x800 SWAP1 PUSH2 0x248E JUMP JUMPDEST DUP1 ISZERO PUSH2 0x84D JUMPI DUP1 PUSH1 0x1F LT PUSH2 0x822 JUMPI PUSH2 0x100 DUP1 DUP4 SLOAD DIV MUL DUP4 MSTORE SWAP2 PUSH1 0x20 ADD SWAP2 PUSH2 0x84D JUMP JUMPDEST DUP3 ADD SWAP2 SWAP1 PUSH1 0x0 MSTORE PUSH1 0x20 PUSH1 0x0 KECCAK256 SWAP1 JUMPDEST DUP2 SLOAD DUP2 MSTORE SWAP1 PUSH1 0x1 ADD SWAP1 PUSH1 0x20 ADD DUP1 DUP4 GT PUSH2 0x830 JUMPI DUP3 SWAP1 SUB PUSH1 0x1F AND DUP3 ADD SWAP2 JUMPDEST POP POP POP POP POP DUP2 MSTORE PUSH1 0x20 ADD PUSH1 0x3 DUP3 ADD DUP1 SLOAD DUP1 PUSH1 0x20 MUL PUSH1 0x20 ADD PUSH1 0x40 MLOAD SWAP1 DUP2 ADD PUSH1 0x40 MSTORE DUP1 SWAP3 SWAP2 SWAP1 DUP2 DUP2 MSTORE PUSH1 0x20 ADD DUP3 DUP1 SLOAD DUP1 ISZERO PUSH2 0x8A5 JUMPI PUSH1 0x20 MUL DUP3 ADD SWAP2 SWAP1 PUSH1 0x0 MSTORE PUSH1 0x20 PUSH1 0x0 KECCAK256 SWAP1 JUMPDEST DUP2 SLOAD DUP2 MSTORE PUSH1 0x20 ADD SWAP1 PUSH1 0x1 ADD SWAP1 DUP1 DUP4 GT PUSH2 0x891 JUMPI JUMPDEST POP POP POP POP POP DUP2 MSTORE POP POP SWAP1 POP SWAP2 SWAP1 POP JUMP JUMPDEST PUSH1 0x5 PUSH1 0x20 MSTORE DUP1 PUSH1 0x0 MSTORE PUSH1 0x40 PUSH1 0x0 KECCAK256 PUSH1 0x0 SWAP2 POP SWAP1 POP DUP1 PUSH1 0x0 ADD SLOAD SWAP1 DUP1 PUSH1 0x1 ADD DUP1 SLOAD PUSH2 0x8DE SWAP1 PUSH2 0x248E JUMP JUMPDEST DUP1 PUSH1 0x1F ADD PUSH1 0x20 DUP1 SWAP2 DIV MUL PUSH1 0x20 ADD PUSH1 0x40 MLOAD SWAP1 DUP2 ADD PUSH1 0x40 MSTORE DUP1 SWAP3 SWAP2 SWAP1 DUP2 DUP2 MSTORE PUSH1 0x20 ADD DUP3 DUP1 SLOAD PUSH2 0x90A SWAP1 PUSH2 0x248E JUMP JUMPDEST DUP1 ISZERO PUSH2 0x957 JUMPI DUP1 PUSH1 0x1F LT PUSH2 0x92C JUMPI PUSH2 0x100 DUP1 DUP4 SLOAD DIV MUL DUP4 MSTORE SWAP2 PUSH1 0x20 ADD SWAP2 PUSH2 0x957 JUMP JUMPDEST DUP3 ADD SWAP2 SWAP1 PUSH1 0x0 MSTORE PUSH1 0x20 PUSH1 0x0 KECCAK256 SWAP1 JUMPDEST DUP2 SLOAD DUP2 MSTORE SWAP1 PUSH1 0x1 ADD SWAP1 PUSH1 0x20 ADD DUP1 DUP4 GT PUSH2 0x93A JUMPI DUP3 SWAP1 SUB PUSH1 0x1F AND DUP3 ADD SWAP2 JUMPDEST POP POP POP POP POP SWAP1 DUP1 PUSH1 0x2 ADD DUP1 SLOAD PUSH2 0x96C SWAP1 PUSH2 0x248E JUMP JUMPDEST DUP1 PUSH1 0x1F ADD PUSH1 0x20 DUP1 SWAP2 DIV MUL PUSH1 0x20 ADD PUSH1 0x40 MLOAD SWAP1 DUP2 ADD PUSH1 0x40 MSTORE DUP1 SWAP3 SWAP2 SWAP1 DUP2 DUP2 MSTORE PUSH1 0x20 ADD DUP3 DUP1 SLOAD PUSH2 0x998 SWAP1 PUSH2 0x248E JUMP JUMPDEST DUP1 ISZERO PUSH2 0x9E5 JUMPI DUP1 PUSH1 0x1F LT PUSH2 0x9BA JUMPI PUSH2 0x100 DUP1 DUP4 SLOAD DIV MUL DUP4 MSTORE SWAP2 PUSH1 0x20 ADD SWAP2 PUSH2 0x9E5 JUMP JUMPDEST DUP3 ADD SWAP2 SWAP1 PUSH1 0x0 MSTORE PUSH1 0x20 PUSH1 0x0 KECCAK256 SWAP1 JUMPDEST DUP2 SLOAD DUP2 MSTORE SWAP1 PUSH1 0x1 ADD SWAP1 PUSH1 0x20 ADD DUP1 DUP4 GT PUSH2 0x9C8 JUMPI DUP3 SWAP1 SUB PUSH1 0x1F AND DUP3 ADD SWAP2 JUMPDEST POP POP POP POP POP SWAP1 POP DUP4 JUMP JUMPDEST PUSH1 0x1 PUSH1 0x20 MSTORE DUP1 PUSH1 0x0 MSTORE PUSH1 0x40 PUSH1 0x0 KECCAK256 PUSH1 0x0 SWAP2 POP SWAP1 POP DUP1 PUSH1 0x0 ADD SLOAD SWAP1 DUP1 PUSH1 0x1 ADD DUP1 SLOAD PUSH2 0xA18 SWAP1 PUSH2 0x248E JUMP JUMPDEST DUP1 PUSH1 0x1F ADD PUSH1 0x20 DUP1 SWAP2 DIV MUL PUSH1 0x20 ADD PUSH1 0x40 MLOAD SWAP1 DUP2 ADD PUSH1 0x40 MSTORE DUP1 SWAP3 SWAP2 SWAP1 DUP2 DUP2 MSTORE PUSH1 0x20 ADD DUP3 DUP1 SLOAD PUSH2 0xA44 SWAP1 PUSH2 0x248E JUMP JUMPDEST DUP1 ISZERO PUSH2 0xA91 JUMPI DUP1 PUSH1 0x1F LT PUSH2 0xA66 JUMPI PUSH2 0x100 DUP1 DUP4 SLOAD DIV MUL DUP4 MSTORE SWAP2 PUSH1 0x20 ADD SWAP2 PUSH2 0xA91 JUMP JUMPDEST DUP3 ADD SWAP2 SWAP1 PUSH1 0x0 MSTORE PUSH1 0x20 PUSH1 0x0 KECCAK256 SWAP1 JUMPDEST DUP2 SLOAD DUP2 MSTORE SWAP1 PUSH1 0x1 ADD SWAP1 PUSH1 0x20 ADD DUP1 DUP4 GT PUSH2 0xA74 JUMPI DUP3 SWAP1 SUB PUSH1 0x1F AND DUP3 ADD SWAP2 JUMPDEST POP POP POP POP POP SWAP1 DUP1 PUSH1 0x2 ADD SLOAD SWAP1 DUP1 PUSH1 0x3 ADD DUP1 SLOAD PUSH2 0xAAC SWAP1 PUSH2 0x248E JUMP JUMPDEST DUP1 PUSH1 0x1F ADD PUSH1 0x20 DUP1 SWAP2 DIV MUL PUSH1 0x20 ADD PUSH1 0x40 MLOAD SWAP1 DUP2 ADD PUSH1 0x40 MSTORE DUP1 SWAP3 SWAP2 SWAP1 DUP2 DUP2 MSTORE PUSH1 0x20 ADD DUP3 DUP1 SLOAD PUSH2 0xAD8 SWAP1 PUSH2 0x248E JUMP JUMPDEST DUP1 ISZERO PUSH2 0xB25 JUMPI DUP1 PUSH1 0x1F LT PUSH2 0xAFA JUMPI PUSH2 0x100 DUP1 DUP4 SLOAD DIV MUL DUP4 MSTORE SWAP2 PUSH1 0x20 ADD SWAP2 PUSH2 0xB25 JUMP JUMPDEST DUP3 ADD SWAP2 SWAP1 PUSH1 0x0 MSTORE PUSH1 0x20 PUSH1 0x0 KECCAK256 SWAP1 JUMPDEST DUP2 SLOAD DUP2 MSTORE SWAP1 PUSH1 0x1 ADD SWAP1 PUSH1 0x20 ADD DUP1 DUP4 GT PUSH2 0xB08 JUMPI DUP3 SWAP1 SUB PUSH1 0x1F AND DUP3 ADD SWAP2 JUMPDEST POP POP POP POP POP SWAP1 DUP1 PUSH1 0x4 ADD DUP1 SLOAD PUSH2 0xB3A SWAP1 PUSH2 0x248E JUMP JUMPDEST DUP1 PUSH1 0x1F ADD PUSH1 0x20 DUP1 SWAP2 DIV MUL PUSH1 0x20 ADD PUSH1 0x40 MLOAD SWAP1 DUP2 ADD PUSH1 0x40 MSTORE DUP1 SWAP3 SWAP2 SWAP1 DUP2 DUP2 MSTORE PUSH1 0x20 ADD DUP3 DUP1 SLOAD PUSH2 0xB66 SWAP1 PUSH2 0x248E JUMP JUMPDEST DUP1 ISZERO PUSH2 0xBB3 JUMPI DUP1 PUSH1 0x1F LT PUSH2 0xB88 JUMPI PUSH2 0x100 DUP1 DUP4 SLOAD DIV MUL DUP4 MSTORE SWAP2 PUSH1 0x20 ADD SWAP2 PUSH2 0xBB3 JUMP JUMPDEST DUP3 ADD SWAP2 SWAP1 PUSH1 0x0 MSTORE PUSH1 0x20 PUSH1 0x0 KECCAK256 SWAP1 JUMPDEST DUP2 SLOAD DUP2 MSTORE SWAP1 PUSH1 0x1 ADD SWAP1 PUSH1 0x20 ADD DUP1 DUP4 GT PUSH2 0xB96 JUMPI DUP3 SWAP1 SUB PUSH1 0x1F AND DUP3 ADD SWAP2 JUMPDEST POP POP POP POP POP SWAP1 DUP1 PUSH1 0x5 ADD SLOAD SWAP1 POP DUP7 JUMP JUMPDEST PUSH2 0xBCB PUSH2 0x1B5F JUMP JUMPDEST DUP2 TIMESTAMP DIFFICULTY PUSH1 0x40 MLOAD PUSH1 0x20 ADD PUSH2 0xBE0 SWAP4 SWAP3 SWAP2 SWAP1 PUSH2 0x2183 JUMP JUMPDEST PUSH1 0x40 MLOAD PUSH1 0x20 DUP2 DUP4 SUB SUB DUP2 MSTORE SWAP1 PUSH1 0x40 MSTORE DUP1 MLOAD SWAP1 PUSH1 0x20 ADD KECCAK256 PUSH1 0x0 SHR DUP2 PUSH1 0x0 ADD DUP2 DUP2 MSTORE POP POP PUSH1 0x40 MLOAD DUP1 PUSH1 0x40 ADD PUSH1 0x40 MSTORE DUP1 PUSH1 0x2 DUP2 MSTORE PUSH1 0x20 ADD PUSH32 0x4449000000000000000000000000000000000000000000000000000000000000 DUP2 MSTORE POP DUP2 PUSH1 0x20 ADD DUP2 SWAP1 MSTORE POP DUP2 DUP2 PUSH1 0x40 ADD DUP2 SWAP1 MSTORE POP PUSH1 0x0 PUSH8 0xFFFFFFFFFFFFFFFF DUP2 GT ISZERO PUSH2 0xC64 JUMPI PUSH2 0xC63 PUSH2 0x2598 JUMP JUMPDEST JUMPDEST PUSH1 0x40 MLOAD SWAP1 DUP1 DUP3 MSTORE DUP1 PUSH1 0x20 MUL PUSH1 0x20 ADD DUP3 ADD PUSH1 0x40 MSTORE DUP1 ISZERO PUSH2 0xC92 JUMPI DUP2 PUSH1 0x20 ADD PUSH1 0x20 DUP3 MUL DUP1 CALLDATASIZE DUP4 CALLDATACOPY DUP1 DUP3 ADD SWAP2 POP POP SWAP1 POP JUMPDEST POP DUP2 PUSH1 0x60 ADD DUP2 SWAP1 MSTORE POP DUP1 PUSH1 0x5 PUSH1 0x0 DUP4 PUSH1 0x0 ADD MLOAD DUP2 MSTORE PUSH1 0x20 ADD SWAP1 DUP2 MSTORE PUSH1 0x20 ADD PUSH1 0x0 KECCAK256 PUSH1 0x0 DUP3 ADD MLOAD DUP2 PUSH1 0x0 ADD SSTORE PUSH1 0x20 DUP3 ADD MLOAD DUP2 PUSH1 0x1 ADD SWAP1 DUP1 MLOAD SWAP1 PUSH1 0x20 ADD SWAP1 PUSH2 0xCD9 SWAP3 SWAP2 SWAP1 PUSH2 0x1A8C JUMP JUMPDEST POP PUSH1 0x40 DUP3 ADD MLOAD DUP2 PUSH1 0x2 ADD SWAP1 DUP1 MLOAD SWAP1 PUSH1 0x20 ADD SWAP1 PUSH2 0xCF6 SWAP3 SWAP2 SWAP1 PUSH2 0x1A8C JUMP JUMPDEST POP PUSH1 0x60 DUP3 ADD MLOAD DUP2 PUSH1 0x3 ADD SWAP1 DUP1 MLOAD SWAP1 PUSH1 0x20 ADD SWAP1 PUSH2 0xD13 SWAP3 SWAP2 SWAP1 PUSH2 0x1B12 JUMP JUMPDEST POP SWAP1 POP POP PUSH32 0x4FBE23D5058E501D2AC74E9B5146F125D6C6AE6C3475D9431498262E998EE8E0 DUP2 PUSH1 0x40 MLOAD PUSH2 0xD46 SWAP2 SWAP1 PUSH2 0x21C1 JUMP JUMPDEST PUSH1 0x40 MLOAD DUP1 SWAP2 SUB SWAP1 LOG1 POP POP JUMP JUMPDEST PUSH1 0x6 PUSH1 0x20 MSTORE DUP1 PUSH1 0x0 MSTORE PUSH1 0x40 PUSH1 0x0 KECCAK256 PUSH1 0x0 SWAP2 POP SWAP1 POP DUP1 PUSH1 0x0 ADD SLOAD SWAP1 DUP1 PUSH1 0x1 ADD DUP1 SLOAD PUSH2 0xD7B SWAP1 PUSH2 0x248E JUMP JUMPDEST DUP1 PUSH1 0x1F ADD PUSH1 0x20 DUP1 SWAP2 DIV MUL PUSH1 0x20 ADD PUSH1 0x40 MLOAD SWAP1 DUP2 ADD PUSH1 0x40 MSTORE DUP1 SWAP3 SWAP2 SWAP1 DUP2 DUP2 MSTORE PUSH1 0x20 ADD DUP3 DUP1 SLOAD PUSH2 0xDA7 SWAP1 PUSH2 0x248E JUMP JUMPDEST DUP1 ISZERO PUSH2 0xDF4 JUMPI DUP1 PUSH1 0x1F LT PUSH2 0xDC9 JUMPI PUSH2 0x100 DUP1 DUP4 SLOAD DIV MUL DUP4 MSTORE SWAP2 PUSH1 0x20 ADD SWAP2 PUSH2 0xDF4 JUMP JUMPDEST DUP3 ADD SWAP2 SWAP1 PUSH1 0x0 MSTORE PUSH1 0x20 PUSH1 0x0 KECCAK256 SWAP1 JUMPDEST DUP2 SLOAD DUP2 MSTORE SWAP1 PUSH1 0x1 ADD SWAP1 PUSH1 0x20 ADD DUP1 DUP4 GT PUSH2 0xDD7 JUMPI DUP3 SWAP1 SUB PUSH1 0x1F AND DUP3 ADD SWAP2 JUMPDEST POP POP POP POP POP SWAP1 POP DUP3 JUMP JUMPDEST PUSH2 0xE06 PUSH2 0x1B87 JUMP JUMPDEST DUP4 TIMESTAMP DIFFICULTY PUSH1 0x40 MLOAD PUSH1 0x20 ADD PUSH2 0xE1B SWAP4 SWAP3 SWAP2 SWAP1 PUSH2 0x2183 JUMP JUMPDEST PUSH1 0x40 MLOAD PUSH1 0x20 DUP2 DUP4 SUB SUB DUP2 MSTORE SWAP1 PUSH1 0x40 MSTORE DUP1 MLOAD SWAP1 PUSH1 0x20 ADD KECCAK256 PUSH1 0x0 SHR DUP2 PUSH1 0x0 ADD DUP2 DUP2 MSTORE POP POP DUP4 DUP2 PUSH1 0x20 ADD DUP2 SWAP1 MSTORE POP DUP3 DUP2 PUSH1 0x40 ADD DUP2 DUP2 MSTORE POP POP DUP2 DUP2 PUSH1 0x60 ADD DUP2 SWAP1 MSTORE POP PUSH1 0x40 MLOAD DUP1 PUSH1 0x20 ADD PUSH1 0x40 MSTORE DUP1 PUSH1 0x0 DUP2 MSTORE POP DUP2 PUSH1 0x80 ADD DUP2 SWAP1 MSTORE POP PUSH1 0x0 DUP2 PUSH1 0xA0 ADD DUP2 DUP2 MSTORE POP POP DUP1 PUSH1 0x1 PUSH1 0x0 DUP4 PUSH1 0x0 ADD MLOAD DUP2 MSTORE PUSH1 0x20 ADD SWAP1 DUP2 MSTORE PUSH1 0x20 ADD PUSH1 0x0 KECCAK256 PUSH1 0x0 DUP3 ADD MLOAD DUP2 PUSH1 0x0 ADD SSTORE PUSH1 0x20 DUP3 ADD MLOAD DUP2 PUSH1 0x1 ADD SWAP1 DUP1 MLOAD SWAP1 PUSH1 0x20 ADD SWAP1 PUSH2 0xEBA SWAP3 SWAP2 SWAP1 PUSH2 0x1A8C JUMP JUMPDEST POP PUSH1 0x40 DUP3 ADD MLOAD DUP2 PUSH1 0x2 ADD SSTORE PUSH1 0x60 DUP3 ADD MLOAD DUP2 PUSH1 0x3 ADD SWAP1 DUP1 MLOAD SWAP1 PUSH1 0x20 ADD SWAP1 PUSH2 0xEE1 SWAP3 SWAP2 SWAP1 PUSH2 0x1A8C JUMP JUMPDEST POP PUSH1 0x80 DUP3 ADD MLOAD DUP2 PUSH1 0x4 ADD SWAP1 DUP1 MLOAD SWAP1 PUSH1 0x20 ADD SWAP1 PUSH2 0xEFE SWAP3 SWAP2 SWAP1 PUSH2 0x1A8C JUMP JUMPDEST POP PUSH1 0xA0 DUP3 ADD MLOAD DUP2 PUSH1 0x5 ADD SSTORE SWAP1 POP POP PUSH1 0x2 PUSH1 0x0 DUP2 SLOAD DUP1 SWAP3 SWAP2 SWAP1 PUSH2 0xF1F SWAP1 PUSH2 0x24F1 JUMP JUMPDEST SWAP2 SWAP1 POP SSTORE POP PUSH32 0xB9650A646EAF16194343A0E5CF05C4A99CFBFFBF2A7630C4EAF6F3263A931D8 DUP2 PUSH1 0x2 SLOAD PUSH1 0x40 MLOAD PUSH2 0xF57 SWAP3 SWAP2 SWAP1 PUSH2 0x2227 JUMP JUMPDEST PUSH1 0x40 MLOAD DUP1 SWAP2 SUB SWAP1 LOG1 POP POP POP POP JUMP JUMPDEST PUSH2 0xF6D PUSH2 0x1BBD JUMP JUMPDEST DUP2 TIMESTAMP DIFFICULTY PUSH1 0x40 MLOAD PUSH1 0x20 ADD PUSH2 0xF82 SWAP4 SWAP3 SWAP2 SWAP1 PUSH2 0x2183 JUMP JUMPDEST PUSH1 0x40 MLOAD PUSH1 0x20 DUP2 DUP4 SUB SUB DUP2 MSTORE SWAP1 PUSH1 0x40 MSTORE DUP1 MLOAD SWAP1 PUSH1 0x20 ADD KECCAK256 PUSH1 0x0 SHR DUP2 PUSH1 0x0 ADD DUP2 DUP2 MSTORE POP POP PUSH1 0x40 MLOAD DUP1 PUSH1 0x40 ADD PUSH1 0x40 MSTORE DUP1 PUSH1 0x2 DUP2 MSTORE PUSH1 0x20 ADD PUSH32 0x4D41000000000000000000000000000000000000000000000000000000000000 DUP2 MSTORE POP DUP2 PUSH1 0x20 ADD DUP2 SWAP1 MSTORE POP DUP2 DUP2 PUSH1 0x40 ADD DUP2 SWAP1 MSTORE POP PUSH1 0x0 PUSH8 0xFFFFFFFFFFFFFFFF DUP2 GT ISZERO PUSH2 0x1006 JUMPI PUSH2 0x1005 PUSH2 0x2598 JUMP JUMPDEST JUMPDEST PUSH1 0x40 MLOAD SWAP1 DUP1 DUP3 MSTORE DUP1 PUSH1 0x20 MUL PUSH1 0x20 ADD DUP3 ADD PUSH1 0x40 MSTORE DUP1 ISZERO PUSH2 0x1034 JUMPI DUP2 PUSH1 0x20 ADD PUSH1 0x20 DUP3 MUL DUP1 CALLDATASIZE DUP4 CALLDATACOPY DUP1 DUP3 ADD SWAP2 POP POP SWAP1 POP JUMPDEST POP DUP2 PUSH1 0x60 ADD DUP2 SWAP1 MSTORE POP DUP1 PUSH1 0x4 PUSH1 0x0 DUP4 PUSH1 0x0 ADD MLOAD DUP2 MSTORE PUSH1 0x20 ADD SWAP1 DUP2 MSTORE PUSH1 0x20 ADD PUSH1 0x0 KECCAK256 PUSH1 0x0 DUP3 ADD MLOAD DUP2 PUSH1 0x0 ADD SSTORE PUSH1 0x20 DUP3 ADD MLOAD DUP2 PUSH1 0x1 ADD SWAP1 DUP1 MLOAD SWAP1 PUSH1 0x20 ADD SWAP1 PUSH2 0x107B SWAP3 SWAP2 SWAP1 PUSH2 0x1A8C JUMP JUMPDEST POP PUSH1 0x40 DUP3 ADD MLOAD DUP2 PUSH1 0x2 ADD SWAP1 DUP1 MLOAD SWAP1 PUSH1 0x20 ADD SWAP1 PUSH2 0x1098 SWAP3 SWAP2 SWAP1 PUSH2 0x1A8C JUMP JUMPDEST POP PUSH1 0x60 DUP3 ADD MLOAD DUP2 PUSH1 0x3 ADD SWAP1 DUP1 MLOAD SWAP1 PUSH1 0x20 ADD SWAP1 PUSH2 0x10B5 SWAP3 SWAP2 SWAP1 PUSH2 0x1B12 JUMP JUMPDEST POP SWAP1 POP POP PUSH32 0xC127163E194EDD469D13210787466A0ADB629F336E45D1FC7BC4E2797805615E DUP2 PUSH1 0x40 MLOAD PUSH2 0x10E8 SWAP2 SWAP1 PUSH2 0x21E3 JUMP JUMPDEST PUSH1 0x40 MLOAD DUP1 SWAP2 SUB SWAP1 LOG1 POP POP JUMP JUMPDEST PUSH1 0x4 PUSH1 0x20 MSTORE DUP1 PUSH1 0x0 MSTORE PUSH1 0x40 PUSH1 0x0 KECCAK256 PUSH1 0x0 SWAP2 POP SWAP1 POP DUP1 PUSH1 0x0 ADD SLOAD SWAP1 DUP1 PUSH1 0x1 ADD DUP1 SLOAD PUSH2 0x111D SWAP1 PUSH2 0x248E JUMP JUMPDEST DUP1 PUSH1 0x1F ADD PUSH1 0x20 DUP1 SWAP2 DIV MUL PUSH1 0x20 ADD PUSH1 0x40 MLOAD SWAP1 DUP2 ADD PUSH1 0x40 MSTORE DUP1 SWAP3 SWAP2 SWAP1 DUP2 DUP2 MSTORE PUSH1 0x20 ADD DUP3 DUP1 SLOAD PUSH2 0x1149 SWAP1 PUSH2 0x248E JUMP JUMPDEST DUP1 ISZERO PUSH2 0x1196 JUMPI DUP1 PUSH1 0x1F LT PUSH2 0x116B JUMPI PUSH2 0x100 DUP1 DUP4 SLOAD DIV MUL DUP4 MSTORE SWAP2 PUSH1 0x20 ADD SWAP2 PUSH2 0x1196 JUMP JUMPDEST DUP3 ADD SWAP2 SWAP1 PUSH1 0x0 MSTORE PUSH1 0x20 PUSH1 0x0 KECCAK256 SWAP1 JUMPDEST DUP2 SLOAD DUP2 MSTORE SWAP1 PUSH1 0x1 ADD SWAP1 PUSH1 0x20 ADD DUP1 DUP4 GT PUSH2 0x1179 JUMPI DUP3 SWAP1 SUB PUSH1 0x1F AND DUP3 ADD SWAP2 JUMPDEST POP POP POP POP POP SWAP1 DUP1 PUSH1 0x2 ADD DUP1 SLOAD PUSH2 0x11AB SWAP1 PUSH2 0x248E JUMP JUMPDEST DUP1 PUSH1 0x1F ADD PUSH1 0x20 DUP1 SWAP2 DIV MUL PUSH1 0x20 ADD PUSH1 0x40 MLOAD SWAP1 DUP2 ADD PUSH1 0x40 MSTORE DUP1 SWAP3 SWAP2 SWAP1 DUP2 DUP2 MSTORE PUSH1 0x20 ADD DUP3 DUP1 SLOAD PUSH2 0x11D7 SWAP1 PUSH2 0x248E JUMP JUMPDEST DUP1 ISZERO PUSH2 0x1224 JUMPI DUP1 PUSH1 0x1F LT PUSH2 0x11F9 JUMPI PUSH2 0x100 DUP1 DUP4 SLOAD DIV MUL DUP4 MSTORE SWAP2 PUSH1 0x20 ADD SWAP2 PUSH2 0x1224 JUMP JUMPDEST DUP3 ADD SWAP2 SWAP1 PUSH1 0x0 MSTORE PUSH1 0x20 PUSH1 0x0 KECCAK256 SWAP1 JUMPDEST DUP2 SLOAD DUP2 MSTORE SWAP1 PUSH1 0x1 ADD SWAP1 PUSH1 0x20 ADD DUP1 DUP4 GT PUSH2 0x1207 JUMPI DUP3 SWAP1 SUB PUSH1 0x1F AND DUP3 ADD SWAP2 JUMPDEST POP POP POP POP POP SWAP1 POP DUP4 JUMP JUMPDEST PUSH2 0x1236 PUSH2 0x1BE5 JUMP JUMPDEST DUP2 TIMESTAMP DIFFICULTY PUSH1 0x40 MLOAD PUSH1 0x20 ADD PUSH2 0x124B SWAP4 SWAP3 SWAP2 SWAP1 PUSH2 0x2183 JUMP JUMPDEST PUSH1 0x40 MLOAD PUSH1 0x20 DUP2 DUP4 SUB SUB DUP2 MSTORE SWAP1 PUSH1 0x40 MSTORE DUP1 MLOAD SWAP1 PUSH1 0x20 ADD KECCAK256 PUSH1 0x0 SHR DUP2 PUSH1 0x0 ADD DUP2 DUP2 MSTORE POP POP DUP2 DUP2 PUSH1 0x20 ADD DUP2 SWAP1 MSTORE POP PUSH1 0x0 PUSH8 0xFFFFFFFFFFFFFFFF DUP2 GT ISZERO PUSH2 0x1291 JUMPI PUSH2 0x1290 PUSH2 0x2598 JUMP JUMPDEST JUMPDEST PUSH1 0x40 MLOAD SWAP1 DUP1 DUP3 MSTORE DUP1 PUSH1 0x20 MUL PUSH1 0x20 ADD DUP3 ADD PUSH1 0x40 MSTORE DUP1 ISZERO PUSH2 0x12BF JUMPI DUP2 PUSH1 0x20 ADD PUSH1 0x20 DUP3 MUL DUP1 CALLDATASIZE DUP4 CALLDATACOPY DUP1 DUP3 ADD SWAP2 POP POP SWAP1 POP JUMPDEST POP DUP2 PUSH1 0x40 ADD DUP2 SWAP1 MSTORE POP DUP1 PUSH1 0x6 PUSH1 0x0 DUP4 PUSH1 0x0 ADD MLOAD DUP2 MSTORE PUSH1 0x20 ADD SWAP1 DUP2 MSTORE PUSH1 0x20 ADD PUSH1 0x0 KECCAK256 PUSH1 0x0 DUP3 ADD MLOAD DUP2 PUSH1 0x0 ADD SSTORE PUSH1 0x20 DUP3 ADD MLOAD DUP2 PUSH1 0x1 ADD SWAP1 DUP1 MLOAD SWAP1 PUSH1 0x20 ADD SWAP1 PUSH2 0x1306 SWAP3 SWAP2 SWAP1 PUSH2 0x1A8C JUMP JUMPDEST POP PUSH1 0x40 DUP3 ADD MLOAD DUP2 PUSH1 0x2 ADD SWAP1 DUP1 MLOAD SWAP1 PUSH1 0x20 ADD SWAP1 PUSH2 0x1323 SWAP3 SWAP2 SWAP1 PUSH2 0x1B12 JUMP JUMPDEST POP SWAP1 POP POP PUSH32 0x3F3D80DC5C883417F8997FEF692BA50E4F4F4762E620926E80D9AED3B08B89D0 DUP2 PUSH1 0x40 MLOAD PUSH2 0x1356 SWAP2 SWAP1 PUSH2 0x2257 JUMP JUMPDEST PUSH1 0x40 MLOAD DUP1 SWAP2 SUB SWAP1 LOG1 POP POP JUMP JUMPDEST PUSH2 0x136A PUSH2 0x1B87 JUMP JUMPDEST PUSH1 0x1 PUSH1 0x0 DUP4 DUP2 MSTORE PUSH1 0x20 ADD SWAP1 DUP2 MSTORE PUSH1 0x20 ADD PUSH1 0x0 KECCAK256 PUSH1 0x40 MLOAD DUP1 PUSH1 0xC0 ADD PUSH1 0x40 MSTORE SWAP1 DUP2 PUSH1 0x0 DUP3 ADD SLOAD DUP2 MSTORE PUSH1 0x20 ADD PUSH1 0x1 DUP3 ADD DUP1 SLOAD PUSH2 0x13A2 SWAP1 PUSH2 0x248E JUMP JUMPDEST DUP1 PUSH1 0x1F ADD PUSH1 0x20 DUP1 SWAP2 DIV MUL PUSH1 0x20 ADD PUSH1 0x40 MLOAD SWAP1 DUP2 ADD PUSH1 0x40 MSTORE DUP1 SWAP3 SWAP2 SWAP1 DUP2 DUP2 MSTORE PUSH1 0x20 ADD DUP3 DUP1 SLOAD PUSH2 0x13CE SWAP1 PUSH2 0x248E JUMP JUMPDEST DUP1 ISZERO PUSH2 0x141B JUMPI DUP1 PUSH1 0x1F LT PUSH2 0x13F0 JUMPI PUSH2 0x100 DUP1 DUP4 SLOAD DIV MUL DUP4 MSTORE SWAP2 PUSH1 0x20 ADD SWAP2 PUSH2 0x141B JUMP JUMPDEST DUP3 ADD SWAP2 SWAP1 PUSH1 0x0 MSTORE PUSH1 0x20 PUSH1 0x0 KECCAK256 SWAP1 JUMPDEST DUP2 SLOAD DUP2 MSTORE SWAP1 PUSH1 0x1 ADD SWAP1 PUSH1 0x20 ADD DUP1 DUP4 GT PUSH2 0x13FE JUMPI DUP3 SWAP1 SUB PUSH1 0x1F AND DUP3 ADD SWAP2 JUMPDEST POP POP POP POP POP DUP2 MSTORE PUSH1 0x20 ADD PUSH1 0x2 DUP3 ADD SLOAD DUP2 MSTORE PUSH1 0x20 ADD PUSH1 0x3 DUP3 ADD DUP1 SLOAD PUSH2 0x143E SWAP1 PUSH2 0x248E JUMP JUMPDEST DUP1 PUSH1 0x1F ADD PUSH1 0x20 DUP1 SWAP2 DIV MUL PUSH1 0x20 ADD PUSH1 0x40 MLOAD SWAP1 DUP2 ADD PUSH1 0x40 MSTORE DUP1 SWAP3 SWAP2 SWAP1 DUP2 DUP2 MSTORE PUSH1 0x20 ADD DUP3 DUP1 SLOAD PUSH2 0x146A SWAP1 PUSH2 0x248E JUMP JUMPDEST DUP1 ISZERO PUSH2 0x14B7 JUMPI DUP1 PUSH1 0x1F LT PUSH2 0x148C JUMPI PUSH2 0x100 DUP1 DUP4 SLOAD DIV MUL DUP4 MSTORE SWAP2 PUSH1 0x20 ADD SWAP2 PUSH2 0x14B7 JUMP JUMPDEST DUP3 ADD SWAP2 SWAP1 PUSH1 0x0 MSTORE PUSH1 0x20 PUSH1 0x0 KECCAK256 SWAP1 JUMPDEST DUP2 SLOAD DUP2 MSTORE SWAP1 PUSH1 0x1 ADD SWAP1 PUSH1 0x20 ADD DUP1 DUP4 GT PUSH2 0x149A JUMPI DUP3 SWAP1 SUB PUSH1 0x1F AND DUP3 ADD SWAP2 JUMPDEST POP POP POP POP POP DUP2 MSTORE PUSH1 0x20 ADD PUSH1 0x4 DUP3 ADD DUP1 SLOAD PUSH2 0x14D0 SWAP1 PUSH2 0x248E JUMP JUMPDEST DUP1 PUSH1 0x1F ADD PUSH1 0x20 DUP1 SWAP2 DIV MUL PUSH1 0x20 ADD PUSH1 0x40 MLOAD SWAP1 DUP2 ADD PUSH1 0x40 MSTORE DUP1 SWAP3 SWAP2 SWAP1 DUP2 DUP2 MSTORE PUSH1 0x20 ADD DUP3 DUP1 SLOAD PUSH2 0x14FC SWAP1 PUSH2 0x248E JUMP JUMPDEST DUP1 ISZERO PUSH2 0x1549 JUMPI DUP1 PUSH1 0x1F LT PUSH2 0x151E JUMPI PUSH2 0x100 DUP1 DUP4 SLOAD DIV MUL DUP4 MSTORE SWAP2 PUSH1 0x20 ADD SWAP2 PUSH2 0x1549 JUMP JUMPDEST DUP3 ADD SWAP2 SWAP1 PUSH1 0x0 MSTORE PUSH1 0x20 PUSH1 0x0 KECCAK256 SWAP1 JUMPDEST DUP2 SLOAD DUP2 MSTORE SWAP1 PUSH1 0x1 ADD SWAP1 PUSH1 0x20 ADD DUP1 DUP4 GT PUSH2 0x152C JUMPI DUP3 SWAP1 SUB PUSH1 0x1F AND DUP3 ADD SWAP2 JUMPDEST POP POP POP POP POP DUP2 MSTORE PUSH1 0x20 ADD PUSH1 0x5 DUP3 ADD SLOAD DUP2 MSTORE POP POP SWAP1 POP SWAP2 SWAP1 POP JUMP JUMPDEST PUSH1 0x0 PUSH2 0x156E DUP4 PUSH2 0x702 JUMP JUMPDEST SWAP1 POP PUSH1 0x0 PUSH2 0x157B DUP6 PUSH2 0x1362 JUMP JUMPDEST SWAP1 POP PUSH1 0x0 PUSH2 0x1588 DUP5 PUSH2 0x15E4 JUMP JUMPDEST SWAP1 POP DUP1 PUSH1 0x40 ADD MLOAD DUP3 PUSH1 0x80 ADD DUP2 SWAP1 MSTORE POP DUP1 PUSH1 0x0 ADD MLOAD DUP3 PUSH1 0xA0 ADD DUP2 DUP2 MSTORE POP POP PUSH32 0x59BE542CA2DB8C0EAEB99F755E7EAB871D9CEFC9B5E52B1F107B679C7295FAE1 DUP3 PUSH1 0x40 MLOAD PUSH2 0x15D4 SWAP2 SWAP1 PUSH2 0x2205 JUMP JUMPDEST PUSH1 0x40 MLOAD DUP1 SWAP2 SUB SWAP1 LOG1 POP POP POP POP POP POP JUMP JUMPDEST PUSH2 0x15EC PUSH2 0x1BBD JUMP JUMPDEST PUSH1 0x4 PUSH1 0x0 DUP4 DUP2 MSTORE PUSH1 0x20 ADD SWAP1 DUP2 MSTORE PUSH1 0x20 ADD PUSH1 0x0 KECCAK256 PUSH1 0x40 MLOAD DUP1 PUSH1 0x80 ADD PUSH1 0x40 MSTORE SWAP1 DUP2 PUSH1 0x0 DUP3 ADD SLOAD DUP2 MSTORE PUSH1 0x20 ADD PUSH1 0x1 DUP3 ADD DUP1 SLOAD PUSH2 0x1624 SWAP1 PUSH2 0x248E JUMP JUMPDEST DUP1 PUSH1 0x1F ADD PUSH1 0x20 DUP1 SWAP2 DIV MUL PUSH1 0x20 ADD PUSH1 0x40 MLOAD SWAP1 DUP2 ADD PUSH1 0x40 MSTORE DUP1 SWAP3 SWAP2 SWAP1 DUP2 DUP2 MSTORE PUSH1 0x20 ADD DUP3 DUP1 SLOAD PUSH2 0x1650 SWAP1 PUSH2 0x248E JUMP JUMPDEST DUP1 ISZERO PUSH2 0x169D JUMPI DUP1 PUSH1 0x1F LT PUSH2 0x1672 JUMPI PUSH2 0x100 DUP1 DUP4 SLOAD DIV MUL DUP4 MSTORE SWAP2 PUSH1 0x20 ADD SWAP2 PUSH2 0x169D JUMP JUMPDEST DUP3 ADD SWAP2 SWAP1 PUSH1 0x0 MSTORE PUSH1 0x20 PUSH1 0x0 KECCAK256 SWAP1 JUMPDEST DUP2 SLOAD DUP2 MSTORE SWAP1 PUSH1 0x1 ADD SWAP1 PUSH1 0x20 ADD DUP1 DUP4 GT PUSH2 0x1680 JUMPI DUP3 SWAP1 SUB PUSH1 0x1F AND DUP3 ADD SWAP2 JUMPDEST POP POP POP POP POP DUP2 MSTORE PUSH1 0x20 ADD PUSH1 0x2 DUP3 ADD DUP1 SLOAD PUSH2 0x16B6 SWAP1 PUSH2 0x248E JUMP JUMPDEST DUP1 PUSH1 0x1F ADD PUSH1 0x20 DUP1 SWAP2 DIV MUL PUSH1 0x20 ADD PUSH1 0x40 MLOAD SWAP1 DUP2 ADD PUSH1 0x40 MSTORE DUP1 SWAP3 SWAP2 SWAP1 DUP2 DUP2 MSTORE PUSH1 0x20 ADD DUP3 DUP1 SLOAD PUSH2 0x16E2 SWAP1 PUSH2 0x248E JUMP JUMPDEST DUP1 ISZERO PUSH2 0x172F JUMPI DUP1 PUSH1 0x1F LT PUSH2 0x1704 JUMPI PUSH2 0x100 DUP1 DUP4 SLOAD DIV MUL DUP4 MSTORE SWAP2 PUSH1 0x20 ADD SWAP2 PUSH2 0x172F JUMP JUMPDEST DUP3 ADD SWAP2 SWAP1 PUSH1 0x0 MSTORE PUSH1 0x20 PUSH1 0x0 KECCAK256 SWAP1 JUMPDEST DUP2 SLOAD DUP2 MSTORE SWAP1 PUSH1 0x1 ADD SWAP1 PUSH1 0x20 ADD DUP1 DUP4 GT PUSH2 0x1712 JUMPI DUP3 SWAP1 SUB PUSH1 0x1F AND DUP3 ADD SWAP2 JUMPDEST POP POP POP POP POP DUP2 MSTORE PUSH1 0x20 ADD PUSH1 0x3 DUP3 ADD DUP1 SLOAD DUP1 PUSH1 0x20 MUL PUSH1 0x20 ADD PUSH1 0x40 MLOAD SWAP1 DUP2 ADD PUSH1 0x40 MSTORE DUP1 SWAP3 SWAP2 SWAP1 DUP2 DUP2 MSTORE PUSH1 0x20 ADD DUP3 DUP1 SLOAD DUP1 ISZERO PUSH2 0x1787 JUMPI PUSH1 0x20 MUL DUP3 ADD SWAP2 SWAP1 PUSH1 0x0 MSTORE PUSH1 0x20 PUSH1 0x0 KECCAK256 SWAP1 JUMPDEST DUP2 SLOAD DUP2 MSTORE PUSH1 0x20 ADD SWAP1 PUSH1 0x1 ADD SWAP1 DUP1 DUP4 GT PUSH2 0x1773 JUMPI JUMPDEST POP POP POP POP POP DUP2 MSTORE POP POP SWAP1 POP SWAP2 SWAP1 POP JUMP JUMPDEST PUSH2 0x179F PUSH2 0x1BE5 JUMP JUMPDEST PUSH1 0x6 PUSH1 0x0 DUP4 DUP2 MSTORE PUSH1 0x20 ADD SWAP1 DUP2 MSTORE PUSH1 0x20 ADD PUSH1 0x0 KECCAK256 PUSH1 0x40 MLOAD DUP1 PUSH1 0x60 ADD PUSH1 0x40 MSTORE SWAP1 DUP2 PUSH1 0x0 DUP3 ADD SLOAD DUP2 MSTORE PUSH1 0x20 ADD PUSH1 0x1 DUP3 ADD DUP1 SLOAD PUSH2 0x17D7 SWAP1 PUSH2 0x248E JUMP JUMPDEST DUP1 PUSH1 0x1F ADD PUSH1 0x20 DUP1 SWAP2 DIV MUL PUSH1 0x20 ADD PUSH1 0x40 MLOAD SWAP1 DUP2 ADD PUSH1 0x40 MSTORE DUP1 SWAP3 SWAP2 SWAP1 DUP2 DUP2 MSTORE PUSH1 0x20 ADD DUP3 DUP1 SLOAD PUSH2 0x1803 SWAP1 PUSH2 0x248E JUMP JUMPDEST DUP1 ISZERO PUSH2 0x1850 JUMPI DUP1 PUSH1 0x1F LT PUSH2 0x1825 JUMPI PUSH2 0x100 DUP1 DUP4 SLOAD DIV MUL DUP4 MSTORE SWAP2 PUSH1 0x20 ADD SWAP2 PUSH2 0x1850 JUMP JUMPDEST DUP3 ADD SWAP2 SWAP1 PUSH1 0x0 MSTORE PUSH1 0x20 PUSH1 0x0 KECCAK256 SWAP1 JUMPDEST DUP2 SLOAD DUP2 MSTORE SWAP1 PUSH1 0x1 ADD SWAP1 PUSH1 0x20 ADD DUP1 DUP4 GT PUSH2 0x1833 JUMPI DUP3 SWAP1 SUB PUSH1 0x1F AND DUP3 ADD SWAP2 JUMPDEST POP POP POP POP POP DUP2 MSTORE PUSH1 0x20 ADD PUSH1 0x2 DUP3 ADD DUP1 SLOAD DUP1 PUSH1 0x20 MUL PUSH1 0x20 ADD PUSH1 0x40 MLOAD SWAP1 DUP2 ADD PUSH1 0x40 MSTORE DUP1 SWAP3 SWAP2 SWAP1 DUP2 DUP2 MSTORE PUSH1 0x20 ADD DUP3 DUP1 SLOAD DUP1 ISZERO PUSH2 0x18A8 JUMPI PUSH1 0x20 MUL DUP3 ADD SWAP2 SWAP1 PUSH1 0x0 MSTORE PUSH1 0x20 PUSH1 0x0 KECCAK256 SWAP1 JUMPDEST DUP2 SLOAD DUP2 MSTORE PUSH1 0x20 ADD SWAP1 PUSH1 0x1 ADD SWAP1 DUP1 DUP4 GT PUSH2 0x1894 JUMPI JUMPDEST POP POP POP POP POP DUP2 MSTORE POP POP SWAP1 POP SWAP2 SWAP1 POP JUMP JUMPDEST PUSH1 0x3 PUSH1 0x20 MSTORE DUP1 PUSH1 0x0 MSTORE PUSH1 0x40 PUSH1 0x0 KECCAK256 PUSH1 0x0 SWAP2 POP SWAP1 POP DUP1 PUSH1 0x0 ADD SLOAD SWAP1 DUP1 PUSH1 0x1 ADD DUP1 SLOAD PUSH2 0x18E1 SWAP1 PUSH2 0x248E JUMP JUMPDEST DUP1 PUSH1 0x1F ADD PUSH1 0x20 DUP1 SWAP2 DIV MUL PUSH1 0x20 ADD PUSH1 0x40 MLOAD SWAP1 DUP2 ADD PUSH1 0x40 MSTORE DUP1 SWAP3 SWAP2 SWAP1 DUP2 DUP2 MSTORE PUSH1 0x20 ADD DUP3 DUP1 SLOAD PUSH2 0x190D SWAP1 PUSH2 0x248E JUMP JUMPDEST DUP1 ISZERO PUSH2 0x195A JUMPI DUP1 PUSH1 0x1F LT PUSH2 0x192F JUMPI PUSH2 0x100 DUP1 DUP4 SLOAD DIV MUL DUP4 MSTORE SWAP2 PUSH1 0x20 ADD SWAP2 PUSH2 0x195A JUMP JUMPDEST DUP3 ADD SWAP2 SWAP1 PUSH1 0x0 MSTORE PUSH1 0x20 PUSH1 0x0 KECCAK256 SWAP1 JUMPDEST DUP2 SLOAD DUP2 MSTORE SWAP1 PUSH1 0x1 ADD SWAP1 PUSH1 0x20 ADD DUP1 DUP4 GT PUSH2 0x193D JUMPI DUP3 SWAP1 SUB PUSH1 0x1F AND DUP3 ADD SWAP2 JUMPDEST POP POP POP POP POP SWAP1 DUP1 PUSH1 0x2 ADD DUP1 SLOAD PUSH2 0x196F SWAP1 PUSH2 0x248E JUMP JUMPDEST DUP1 PUSH1 0x1F ADD PUSH1 0x20 DUP1 SWAP2 DIV MUL PUSH1 0x20 ADD PUSH1 0x40 MLOAD SWAP1 DUP2 ADD PUSH1 0x40 MSTORE DUP1 SWAP3 SWAP2 SWAP1 DUP2 DUP2 MSTORE PUSH1 0x20 ADD DUP3 DUP1 SLOAD PUSH2 0x199B SWAP1 PUSH2 0x248E JUMP JUMPDEST DUP1 ISZERO PUSH2 0x19E8 JUMPI DUP1 PUSH1 0x1F LT PUSH2 0x19BD JUMPI PUSH2 0x100 DUP1 DUP4 SLOAD DIV MUL DUP4 MSTORE SWAP2 PUSH1 0x20 ADD SWAP2 PUSH2 0x19E8 JUMP JUMPDEST DUP3 ADD SWAP2 SWAP1 PUSH1 0x0 MSTORE PUSH1 0x20 PUSH1 0x0 KECCAK256 SWAP1 JUMPDEST DUP2 SLOAD DUP2 MSTORE SWAP1 PUSH1 0x1 ADD SWAP1 PUSH1 0x20 ADD DUP1 DUP4 GT PUSH2 0x19CB JUMPI DUP3 SWAP1 SUB PUSH1 0x1F AND DUP3 ADD SWAP2 JUMPDEST POP POP POP POP POP SWAP1 POP DUP4 JUMP JUMPDEST PUSH1 0x0 PUSH2 0x19FD DUP3 PUSH2 0x702 JUMP JUMPDEST SWAP1 POP PUSH1 0x0 PUSH2 0x1A0A DUP5 PUSH2 0x1362 JUMP JUMPDEST SWAP1 POP DUP2 PUSH1 0x40 ADD MLOAD DUP2 PUSH1 0x80 ADD DUP2 SWAP1 MSTORE POP DUP2 PUSH1 0x0 ADD MLOAD DUP2 PUSH1 0xA0 ADD DUP2 DUP2 MSTORE POP POP PUSH32 0x59BE542CA2DB8C0EAEB99F755E7EAB871D9CEFC9B5E52B1F107B679C7295FAE1 DUP2 PUSH1 0x40 MLOAD PUSH2 0x1A56 SWAP2 SWAP1 PUSH2 0x2205 JUMP JUMPDEST PUSH1 0x40 MLOAD DUP1 SWAP2 SUB SWAP1 LOG1 POP POP POP POP JUMP JUMPDEST PUSH1 0x40 MLOAD DUP1 PUSH1 0x80 ADD PUSH1 0x40 MSTORE DUP1 PUSH1 0x0 DUP2 MSTORE PUSH1 0x20 ADD PUSH1 0x60 DUP2 MSTORE PUSH1 0x20 ADD PUSH1 0x60 DUP2 MSTORE PUSH1 0x20 ADD PUSH1 0x60 DUP2 MSTORE POP SWAP1 JUMP JUMPDEST DUP3 DUP1 SLOAD PUSH2 0x1A98 SWAP1 PUSH2 0x248E JUMP JUMPDEST SWAP1 PUSH1 0x0 MSTORE PUSH1 0x20 PUSH1 0x0 KECCAK256 SWAP1 PUSH1 0x1F ADD PUSH1 0x20 SWAP1 DIV DUP2 ADD SWAP3 DUP3 PUSH2 0x1ABA JUMPI PUSH1 0x0 DUP6 SSTORE PUSH2 0x1B01 JUMP JUMPDEST DUP3 PUSH1 0x1F LT PUSH2 0x1AD3 JUMPI DUP1 MLOAD PUSH1 0xFF NOT AND DUP4 DUP1 ADD OR DUP6 SSTORE PUSH2 0x1B01 JUMP JUMPDEST DUP3 DUP1 ADD PUSH1 0x1 ADD DUP6 SSTORE DUP3 ISZERO PUSH2 0x1B01 JUMPI SWAP2 DUP3 ADD JUMPDEST DUP3 DUP2 GT ISZERO PUSH2 0x1B00 JUMPI DUP3 MLOAD DUP3 SSTORE SWAP2 PUSH1 0x20 ADD SWAP2 SWAP1 PUSH1 0x1 ADD SWAP1 PUSH2 0x1AE5 JUMP JUMPDEST JUMPDEST POP SWAP1 POP PUSH2 0x1B0E SWAP2 SWAP1 PUSH2 0x1C06 JUMP JUMPDEST POP SWAP1 JUMP JUMPDEST DUP3 DUP1 SLOAD DUP3 DUP3 SSTORE SWAP1 PUSH1 0x0 MSTORE PUSH1 0x20 PUSH1 0x0 KECCAK256 SWAP1 DUP2 ADD SWAP3 DUP3 ISZERO PUSH2 0x1B4E JUMPI SWAP2 PUSH1 0x20 MUL DUP3 ADD JUMPDEST DUP3 DUP2 GT ISZERO PUSH2 0x1B4D JUMPI DUP3 MLOAD DUP3 SSTORE SWAP2 PUSH1 0x20 ADD SWAP2 SWAP1 PUSH1 0x1 ADD SWAP1 PUSH2 0x1B32 JUMP JUMPDEST JUMPDEST POP SWAP1 POP PUSH2 0x1B5B SWAP2 SWAP1 PUSH2 0x1C06 JUMP JUMPDEST POP SWAP1 JUMP JUMPDEST PUSH1 0x40 MLOAD DUP1 PUSH1 0x80 ADD PUSH1 0x40 MSTORE DUP1 PUSH1 0x0 DUP2 MSTORE PUSH1 0x20 ADD PUSH1 0x60 DUP2 MSTORE PUSH1 0x20 ADD PUSH1 0x60 DUP2 MSTORE PUSH1 0x20 ADD PUSH1 0x60 DUP2 MSTORE POP SWAP1 JUMP JUMPDEST PUSH1 0x40 MLOAD DUP1 PUSH1 0xC0 ADD PUSH1 0x40 MSTORE DUP1 PUSH1 0x0 DUP2 MSTORE PUSH1 0x20 ADD PUSH1 0x60 DUP2 MSTORE PUSH1 0x20 ADD PUSH1 0x0 DUP2 MSTORE PUSH1 0x20 ADD PUSH1 0x60 DUP2 MSTORE PUSH1 0x20 ADD PUSH1 0x60 DUP2 MSTORE PUSH1 0x20 ADD PUSH1 0x0 DUP2 MSTORE POP SWAP1 JUMP JUMPDEST PUSH1 0x40 MLOAD DUP1 PUSH1 0x80 ADD PUSH1 0x40 MSTORE DUP1 PUSH1 0x0 DUP2 MSTORE PUSH1 0x20 ADD PUSH1 0x60 DUP2 MSTORE PUSH1 0x20 ADD PUSH1 0x60 DUP2 MSTORE PUSH1 0x20 ADD PUSH1 0x60 DUP2 MSTORE POP SWAP1 JUMP JUMPDEST PUSH1 0x40 MLOAD DUP1 PUSH1 0x60 ADD PUSH1 0x40 MSTORE DUP1 PUSH1 0x0 DUP2 MSTORE PUSH1 0x20 ADD PUSH1 0x60 DUP2 MSTORE PUSH1 0x20 ADD PUSH1 0x60 DUP2 MSTORE POP SWAP1 JUMP JUMPDEST JUMPDEST DUP1 DUP3 GT ISZERO PUSH2 0x1C1F JUMPI PUSH1 0x0 DUP2 PUSH1 0x0 SWAP1 SSTORE POP PUSH1 0x1 ADD PUSH2 0x1C07 JUMP JUMPDEST POP SWAP1 JUMP JUMPDEST PUSH1 0x0 PUSH2 0x1C36 PUSH2 0x1C31 DUP5 PUSH2 0x23AB JUMP JUMPDEST PUSH2 0x2386 JUMP JUMPDEST SWAP1 POP DUP3 DUP2 MSTORE PUSH1 0x20 DUP2 ADD DUP5 DUP5 DUP5 ADD GT ISZERO PUSH2 0x1C52 JUMPI PUSH2 0x1C51 PUSH2 0x25CC JUMP JUMPDEST JUMPDEST PUSH2 0x1C5D DUP5 DUP3 DUP6 PUSH2 0x244C JUMP JUMPDEST POP SWAP4 SWAP3 POP POP POP JUMP JUMPDEST PUSH1 0x0 DUP3 PUSH1 0x1F DUP4 ADD SLT PUSH2 0x1C7A JUMPI PUSH2 0x1C79 PUSH2 0x25C7 JUMP JUMPDEST JUMPDEST DUP2 CALLDATALOAD PUSH2 0x1C8A DUP5 DUP3 PUSH1 0x20 DUP7 ADD PUSH2 0x1C23 JUMP JUMPDEST SWAP2 POP POP SWAP3 SWAP2 POP POP JUMP JUMPDEST PUSH1 0x0 DUP2 CALLDATALOAD SWAP1 POP PUSH2 0x1CA2 DUP2 PUSH2 0x25EC JUMP JUMPDEST SWAP3 SWAP2 POP POP JUMP JUMPDEST PUSH1 0x0 PUSH1 0x20 DUP3 DUP5 SUB SLT ISZERO PUSH2 0x1CBE JUMPI PUSH2 0x1CBD PUSH2 0x25D6 JUMP JUMPDEST JUMPDEST PUSH1 0x0 DUP3 ADD CALLDATALOAD PUSH8 0xFFFFFFFFFFFFFFFF DUP2 GT ISZERO PUSH2 0x1CDC JUMPI PUSH2 0x1CDB PUSH2 0x25D1 JUMP JUMPDEST JUMPDEST PUSH2 0x1CE8 DUP5 DUP3 DUP6 ADD PUSH2 0x1C65 JUMP JUMPDEST SWAP2 POP POP SWAP3 SWAP2 POP POP JUMP JUMPDEST PUSH1 0x0 DUP1 PUSH1 0x0 PUSH1 0x60 DUP5 DUP7 SUB SLT ISZERO PUSH2 0x1D0A JUMPI PUSH2 0x1D09 PUSH2 0x25D6 JUMP JUMPDEST JUMPDEST PUSH1 0x0 DUP5 ADD CALLDATALOAD PUSH8 0xFFFFFFFFFFFFFFFF DUP2 GT ISZERO PUSH2 0x1D28 JUMPI PUSH2 0x1D27 PUSH2 0x25D1 JUMP JUMPDEST JUMPDEST PUSH2 0x1D34 DUP7 DUP3 DUP8 ADD PUSH2 0x1C65 JUMP JUMPDEST SWAP4 POP POP PUSH1 0x20 PUSH2 0x1D45 DUP7 DUP3 DUP8 ADD PUSH2 0x1C93 JUMP JUMPDEST SWAP3 POP POP PUSH1 0x40 DUP5 ADD CALLDATALOAD PUSH8 0xFFFFFFFFFFFFFFFF DUP2 GT ISZERO PUSH2 0x1D66 JUMPI PUSH2 0x1D65 PUSH2 0x25D1 JUMP JUMPDEST JUMPDEST PUSH2 0x1D72 DUP7 DUP3 DUP8 ADD PUSH2 0x1C65 JUMP JUMPDEST SWAP2 POP POP SWAP3 POP SWAP3 POP SWAP3 JUMP JUMPDEST PUSH1 0x0 PUSH1 0x20 DUP3 DUP5 SUB SLT ISZERO PUSH2 0x1D92 JUMPI PUSH2 0x1D91 PUSH2 0x25D6 JUMP JUMPDEST JUMPDEST PUSH1 0x0 PUSH2 0x1DA0 DUP5 DUP3 DUP6 ADD PUSH2 0x1C93 JUMP JUMPDEST SWAP2 POP POP SWAP3 SWAP2 POP POP JUMP JUMPDEST PUSH1 0x0 DUP1 PUSH1 0x40 DUP4 DUP6 SUB SLT ISZERO PUSH2 0x1DC0 JUMPI PUSH2 0x1DBF PUSH2 0x25D6 JUMP JUMPDEST JUMPDEST PUSH1 0x0 PUSH2 0x1DCE DUP6 DUP3 DUP7 ADD PUSH2 0x1C93 JUMP JUMPDEST SWAP3 POP POP PUSH1 0x20 PUSH2 0x1DDF DUP6 DUP3 DUP7 ADD PUSH2 0x1C93 JUMP JUMPDEST SWAP2 POP POP SWAP3 POP SWAP3 SWAP1 POP JUMP JUMPDEST PUSH1 0x0 DUP1 PUSH1 0x0 PUSH1 0x60 DUP5 DUP7 SUB SLT ISZERO PUSH2 0x1E02 JUMPI PUSH2 0x1E01 PUSH2 0x25D6 JUMP JUMPDEST JUMPDEST PUSH1 0x0 PUSH2 0x1E10 DUP7 DUP3 DUP8 ADD PUSH2 0x1C93 JUMP JUMPDEST SWAP4 POP POP PUSH1 0x20 PUSH2 0x1E21 DUP7 DUP3 DUP8 ADD PUSH2 0x1C93 JUMP JUMPDEST SWAP3 POP POP PUSH1 0x40 PUSH2 0x1E32 DUP7 DUP3 DUP8 ADD PUSH2 0x1C93 JUMP JUMPDEST SWAP2 POP POP SWAP3 POP SWAP3 POP SWAP3 JUMP JUMPDEST PUSH1 0x0 PUSH2 0x1E48 DUP4 DUP4 PUSH2 0x2165 JUMP JUMPDEST PUSH1 0x20 DUP4 ADD SWAP1 POP SWAP3 SWAP2 POP POP JUMP JUMPDEST PUSH1 0x0 PUSH2 0x1E5F DUP3 PUSH2 0x23EC JUMP JUMPDEST PUSH2 0x1E69 DUP2 DUP6 PUSH2 0x240F JUMP JUMPDEST SWAP4 POP PUSH2 0x1E74 DUP4 PUSH2 0x23DC JUMP JUMPDEST DUP1 PUSH1 0x0 JUMPDEST DUP4 DUP2 LT ISZERO PUSH2 0x1EA5 JUMPI DUP2 MLOAD PUSH2 0x1E8C DUP9 DUP3 PUSH2 0x1E3C JUMP JUMPDEST SWAP8 POP PUSH2 0x1E97 DUP4 PUSH2 0x2402 JUMP JUMPDEST SWAP3 POP POP PUSH1 0x1 DUP2 ADD SWAP1 POP PUSH2 0x1E78 JUMP JUMPDEST POP DUP6 SWAP4 POP POP POP POP SWAP3 SWAP2 POP POP JUMP JUMPDEST PUSH1 0x0 PUSH2 0x1EBD DUP3 PUSH2 0x23F7 JUMP JUMPDEST PUSH2 0x1EC7 DUP2 DUP6 PUSH2 0x2420 JUMP JUMPDEST SWAP4 POP PUSH2 0x1ED7 DUP2 DUP6 PUSH1 0x20 DUP7 ADD PUSH2 0x245B JUMP JUMPDEST PUSH2 0x1EE0 DUP2 PUSH2 0x25DB JUMP JUMPDEST DUP5 ADD SWAP2 POP POP SWAP3 SWAP2 POP POP JUMP JUMPDEST PUSH1 0x0 PUSH2 0x1EF6 DUP3 PUSH2 0x23F7 JUMP JUMPDEST PUSH2 0x1F00 DUP2 DUP6 PUSH2 0x2431 JUMP JUMPDEST SWAP4 POP PUSH2 0x1F10 DUP2 DUP6 PUSH1 0x20 DUP7 ADD PUSH2 0x245B JUMP JUMPDEST PUSH2 0x1F19 DUP2 PUSH2 0x25DB JUMP JUMPDEST DUP5 ADD SWAP2 POP POP SWAP3 SWAP2 POP POP JUMP JUMPDEST PUSH1 0x0 PUSH1 0x80 DUP4 ADD PUSH1 0x0 DUP4 ADD MLOAD PUSH2 0x1F3C PUSH1 0x0 DUP7 ADD DUP3 PUSH2 0x2165 JUMP JUMPDEST POP PUSH1 0x20 DUP4 ADD MLOAD DUP5 DUP3 SUB PUSH1 0x20 DUP7 ADD MSTORE PUSH2 0x1F54 DUP3 DUP3 PUSH2 0x1EB2 JUMP JUMPDEST SWAP2 POP POP PUSH1 0x40 DUP4 ADD MLOAD DUP5 DUP3 SUB PUSH1 0x40 DUP7 ADD MSTORE PUSH2 0x1F6E DUP3 DUP3 PUSH2 0x1EB2 JUMP JUMPDEST SWAP2 POP POP PUSH1 0x60 DUP4 ADD MLOAD DUP5 DUP3 SUB PUSH1 0x60 DUP7 ADD MSTORE PUSH2 0x1F88 DUP3 DUP3 PUSH2 0x1E54 JUMP JUMPDEST SWAP2 POP POP DUP1 SWAP2 POP POP SWAP3 SWAP2 POP POP JUMP JUMPDEST PUSH1 0x0 PUSH1 0x80 DUP4 ADD PUSH1 0x0 DUP4 ADD MLOAD PUSH2 0x1FAD PUSH1 0x0 DUP7 ADD DUP3 PUSH2 0x2165 JUMP JUMPDEST POP PUSH1 0x20 DUP4 ADD MLOAD DUP5 DUP3 SUB PUSH1 0x20 DUP7 ADD MSTORE PUSH2 0x1FC5 DUP3 DUP3 PUSH2 0x1EB2 JUMP JUMPDEST SWAP2 POP POP PUSH1 0x40 DUP4 ADD MLOAD DUP5 DUP3 SUB PUSH1 0x40 DUP7 ADD MSTORE PUSH2 0x1FDF DUP3 DUP3 PUSH2 0x1EB2 JUMP JUMPDEST SWAP2 POP POP PUSH1 0x60 DUP4 ADD MLOAD DUP5 DUP3 SUB PUSH1 0x60 DUP7 ADD MSTORE PUSH2 0x1FF9 DUP3 DUP3 PUSH2 0x1E54 JUMP JUMPDEST SWAP2 POP POP DUP1 SWAP2 POP POP SWAP3 SWAP2 POP POP JUMP JUMPDEST PUSH1 0x0 PUSH1 0xC0 DUP4 ADD PUSH1 0x0 DUP4 ADD MLOAD PUSH2 0x201E PUSH1 0x0 DUP7 ADD DUP3 PUSH2 0x2165 JUMP JUMPDEST POP PUSH1 0x20 DUP4 ADD MLOAD DUP5 DUP3 SUB PUSH1 0x20 DUP7 ADD MSTORE PUSH2 0x2036 DUP3 DUP3 PUSH2 0x1EB2 JUMP JUMPDEST SWAP2 POP POP PUSH1 0x40 DUP4 ADD MLOAD PUSH2 0x204B PUSH1 0x40 DUP7 ADD DUP3 PUSH2 0x2165 JUMP JUMPDEST POP PUSH1 0x60 DUP4 ADD MLOAD DUP5 DUP3 SUB PUSH1 0x60 DUP7 ADD MSTORE PUSH2 0x2063 DUP3 DUP3 PUSH2 0x1EB2 JUMP JUMPDEST SWAP2 POP POP PUSH1 0x80 DUP4 ADD MLOAD DUP5 DUP3 SUB PUSH1 0x80 DUP7 ADD MSTORE PUSH2 0x207D DUP3 DUP3 PUSH2 0x1EB2 JUMP JUMPDEST SWAP2 POP POP PUSH1 0xA0 DUP4 ADD MLOAD PUSH2 0x2092 PUSH1 0xA0 DUP7 ADD DUP3 PUSH2 0x2165 JUMP JUMPDEST POP DUP1 SWAP2 POP POP SWAP3 SWAP2 POP POP JUMP JUMPDEST PUSH1 0x0 PUSH1 0x60 DUP4 ADD PUSH1 0x0 DUP4 ADD MLOAD PUSH2 0x20B5 PUSH1 0x0 DUP7 ADD DUP3 PUSH2 0x2165 JUMP JUMPDEST POP PUSH1 0x20 DUP4 ADD MLOAD DUP5 DUP3 SUB PUSH1 0x20 DUP7 ADD MSTORE PUSH2 0x20CD DUP3 DUP3 PUSH2 0x1EB2 JUMP JUMPDEST SWAP2 POP POP PUSH1 0x40 DUP4 ADD MLOAD DUP5 DUP3 SUB PUSH1 0x40 DUP7 ADD MSTORE PUSH2 0x20E7 DUP3 DUP3 PUSH2 0x1E54 JUMP JUMPDEST SWAP2 POP POP DUP1 SWAP2 POP POP SWAP3 SWAP2 POP POP JUMP JUMPDEST PUSH1 0x0 PUSH1 0x80 DUP4 ADD PUSH1 0x0 DUP4 ADD MLOAD PUSH2 0x210C PUSH1 0x0 DUP7 ADD DUP3 PUSH2 0x2165 JUMP JUMPDEST POP PUSH1 0x20 DUP4 ADD MLOAD DUP5 DUP3 SUB PUSH1 0x20 DUP7 ADD MSTORE PUSH2 0x2124 DUP3 DUP3 PUSH2 0x1EB2 JUMP JUMPDEST SWAP2 POP POP PUSH1 0x40 DUP4 ADD MLOAD DUP5 DUP3 SUB PUSH1 0x40 DUP7 ADD MSTORE PUSH2 0x213E DUP3 DUP3 PUSH2 0x1EB2 JUMP JUMPDEST SWAP2 POP POP PUSH1 0x60 DUP4 ADD MLOAD DUP5 DUP3 SUB PUSH1 0x60 DUP7 ADD MSTORE PUSH2 0x2158 DUP3 DUP3 PUSH2 0x1E54 JUMP JUMPDEST SWAP2 POP POP DUP1 SWAP2 POP POP SWAP3 SWAP2 POP POP JUMP JUMPDEST PUSH2 0x216E DUP2 PUSH2 0x2442 JUMP JUMPDEST DUP3 MSTORE POP POP JUMP JUMPDEST PUSH2 0x217D DUP2 PUSH2 0x2442 JUMP JUMPDEST DUP3 MSTORE POP POP JUMP JUMPDEST PUSH1 0x0 PUSH1 0x60 DUP3 ADD SWAP1 POP DUP2 DUP2 SUB PUSH1 0x0 DUP4 ADD MSTORE PUSH2 0x219D DUP2 DUP7 PUSH2 0x1EEB JUMP JUMPDEST SWAP1 POP PUSH2 0x21AC PUSH1 0x20 DUP4 ADD DUP6 PUSH2 0x2174 JUMP JUMPDEST PUSH2 0x21B9 PUSH1 0x40 DUP4 ADD DUP5 PUSH2 0x2174 JUMP JUMPDEST SWAP5 SWAP4 POP POP POP POP JUMP JUMPDEST PUSH1 0x0 PUSH1 0x20 DUP3 ADD SWAP1 POP DUP2 DUP2 SUB PUSH1 0x0 DUP4 ADD MSTORE PUSH2 0x21DB DUP2 DUP5 PUSH2 0x1F24 JUMP JUMPDEST SWAP1 POP SWAP3 SWAP2 POP POP JUMP JUMPDEST PUSH1 0x0 PUSH1 0x20 DUP3 ADD SWAP1 POP DUP2 DUP2 SUB PUSH1 0x0 DUP4 ADD MSTORE PUSH2 0x21FD DUP2 DUP5 PUSH2 0x1F95 JUMP JUMPDEST SWAP1 POP SWAP3 SWAP2 POP POP JUMP JUMPDEST PUSH1 0x0 PUSH1 0x20 DUP3 ADD SWAP1 POP DUP2 DUP2 SUB PUSH1 0x0 DUP4 ADD MSTORE PUSH2 0x221F DUP2 DUP5 PUSH2 0x2006 JUMP JUMPDEST SWAP1 POP SWAP3 SWAP2 POP POP JUMP JUMPDEST PUSH1 0x0 PUSH1 0x40 DUP3 ADD SWAP1 POP DUP2 DUP2 SUB PUSH1 0x0 DUP4 ADD MSTORE PUSH2 0x2241 DUP2 DUP6 PUSH2 0x2006 JUMP JUMPDEST SWAP1 POP PUSH2 0x2250 PUSH1 0x20 DUP4 ADD DUP5 PUSH2 0x2174 JUMP JUMPDEST SWAP4 SWAP3 POP POP POP JUMP JUMPDEST PUSH1 0x0 PUSH1 0x20 DUP3 ADD SWAP1 POP DUP2 DUP2 SUB PUSH1 0x0 DUP4 ADD MSTORE PUSH2 0x2271 DUP2 DUP5 PUSH2 0x209D JUMP JUMPDEST SWAP1 POP SWAP3 SWAP2 POP POP JUMP JUMPDEST PUSH1 0x0 PUSH1 0x20 DUP3 ADD SWAP1 POP DUP2 DUP2 SUB PUSH1 0x0 DUP4 ADD MSTORE PUSH2 0x2293 DUP2 DUP5 PUSH2 0x20F4 JUMP JUMPDEST SWAP1 POP SWAP3 SWAP2 POP POP JUMP JUMPDEST PUSH1 0x0 PUSH1 0x40 DUP3 ADD SWAP1 POP PUSH2 0x22B0 PUSH1 0x0 DUP4 ADD DUP6 PUSH2 0x2174 JUMP JUMPDEST DUP2 DUP2 SUB PUSH1 0x20 DUP4 ADD MSTORE PUSH2 0x22C2 DUP2 DUP5 PUSH2 0x1EEB JUMP JUMPDEST SWAP1 POP SWAP4 SWAP3 POP POP POP JUMP JUMPDEST PUSH1 0x0 PUSH1 0x60 DUP3 ADD SWAP1 POP PUSH2 0x22E0 PUSH1 0x0 DUP4 ADD DUP7 PUSH2 0x2174 JUMP JUMPDEST DUP2 DUP2 SUB PUSH1 0x20 DUP4 ADD MSTORE PUSH2 0x22F2 DUP2 DUP6 PUSH2 0x1EEB JUMP JUMPDEST SWAP1 POP DUP2 DUP2 SUB PUSH1 0x40 DUP4 ADD MSTORE PUSH2 0x2306 DUP2 DUP5 PUSH2 0x1EEB JUMP JUMPDEST SWAP1 POP SWAP5 SWAP4 POP POP POP POP JUMP JUMPDEST PUSH1 0x0 PUSH1 0xC0 DUP3 ADD SWAP1 POP PUSH2 0x2325 PUSH1 0x0 DUP4 ADD DUP10 PUSH2 0x2174 JUMP JUMPDEST DUP2 DUP2 SUB PUSH1 0x20 DUP4 ADD MSTORE PUSH2 0x2337 DUP2 DUP9 PUSH2 0x1EEB JUMP JUMPDEST SWAP1 POP PUSH2 0x2346 PUSH1 0x40 DUP4 ADD DUP8 PUSH2 0x2174 JUMP JUMPDEST DUP2 DUP2 SUB PUSH1 0x60 DUP4 ADD MSTORE PUSH2 0x2358 DUP2 DUP7 PUSH2 0x1EEB JUMP JUMPDEST SWAP1 POP DUP2 DUP2 SUB PUSH1 0x80 DUP4 ADD MSTORE PUSH2 0x236C DUP2 DUP6 PUSH2 0x1EEB JUMP JUMPDEST SWAP1 POP PUSH2 0x237B PUSH1 0xA0 DUP4 ADD DUP5 PUSH2 0x2174 JUMP JUMPDEST SWAP8 SWAP7 POP POP POP POP POP POP POP JUMP JUMPDEST PUSH1 0x0 PUSH2 0x2390 PUSH2 0x23A1 JUMP JUMPDEST SWAP1 POP PUSH2 0x239C DUP3 DUP3 PUSH2 0x24C0 JUMP JUMPDEST SWAP2 SWAP1 POP JUMP JUMPDEST PUSH1 0x0 PUSH1 0x40 MLOAD SWAP1 POP SWAP1 JUMP JUMPDEST PUSH1 0x0 PUSH8 0xFFFFFFFFFFFFFFFF DUP3 GT ISZERO PUSH2 0x23C6 JUMPI PUSH2 0x23C5 PUSH2 0x2598 JUMP JUMPDEST JUMPDEST PUSH2 0x23CF DUP3 PUSH2 0x25DB JUMP JUMPDEST SWAP1 POP PUSH1 0x20 DUP2 ADD SWAP1 POP SWAP2 SWAP1 POP JUMP JUMPDEST PUSH1 0x0 DUP2 SWAP1 POP PUSH1 0x20 DUP3 ADD SWAP1 POP SWAP2 SWAP1 POP JUMP JUMPDEST PUSH1 0x0 DUP2 MLOAD SWAP1 POP SWAP2 SWAP1 POP JUMP JUMPDEST PUSH1 0x0 DUP2 MLOAD SWAP1 POP SWAP2 SWAP1 POP JUMP JUMPDEST PUSH1 0x0 PUSH1 0x20 DUP3 ADD SWAP1 POP SWAP2 SWAP1 POP JUMP JUMPDEST PUSH1 0x0 DUP3 DUP3 MSTORE PUSH1 0x20 DUP3 ADD SWAP1 POP SWAP3 SWAP2 POP POP JUMP JUMPDEST PUSH1 0x0 DUP3 DUP3 MSTORE PUSH1 0x20 DUP3 ADD SWAP1 POP SWAP3 SWAP2 POP POP JUMP JUMPDEST PUSH1 0x0 DUP3 DUP3 MSTORE PUSH1 0x20 DUP3 ADD SWAP1 POP SWAP3 SWAP2 POP POP JUMP JUMPDEST PUSH1 0x0 DUP2 SWAP1 POP SWAP2 SWAP1 POP JUMP JUMPDEST DUP3 DUP2 DUP4 CALLDATACOPY PUSH1 0x0 DUP4 DUP4 ADD MSTORE POP POP POP JUMP JUMPDEST PUSH1 0x0 JUMPDEST DUP4 DUP2 LT ISZERO PUSH2 0x2479 JUMPI DUP1 DUP3 ADD MLOAD DUP2 DUP5 ADD MSTORE PUSH1 0x20 DUP2 ADD SWAP1 POP PUSH2 0x245E JUMP JUMPDEST DUP4 DUP2 GT ISZERO PUSH2 0x2488 JUMPI PUSH1 0x0 DUP5 DUP5 ADD MSTORE JUMPDEST POP POP POP POP JUMP JUMPDEST PUSH1 0x0 PUSH1 0x2 DUP3 DIV SWAP1 POP PUSH1 0x1 DUP3 AND DUP1 PUSH2 0x24A6 JUMPI PUSH1 0x7F DUP3 AND SWAP2 POP JUMPDEST PUSH1 0x20 DUP3 LT DUP2 EQ ISZERO PUSH2 0x24BA JUMPI PUSH2 0x24B9 PUSH2 0x2569 JUMP JUMPDEST JUMPDEST POP SWAP2 SWAP1 POP JUMP JUMPDEST PUSH2 0x24C9 DUP3 PUSH2 0x25DB JUMP JUMPDEST DUP2 ADD DUP2 DUP2 LT PUSH8 0xFFFFFFFFFFFFFFFF DUP3 GT OR ISZERO PUSH2 0x24E8 JUMPI PUSH2 0x24E7 PUSH2 0x2598 JUMP JUMPDEST JUMPDEST DUP1 PUSH1 0x40 MSTORE POP POP POP JUMP JUMPDEST PUSH1 0x0 PUSH2 0x24FC DUP3 PUSH2 0x2442 JUMP JUMPDEST SWAP2 POP PUSH32 0xFFFFFFFFFFFFFFFFFFFFFFFFFFFFFFFFFFFFFFFFFFFFFFFFFFFFFFFFFFFFFFFF DUP3 EQ ISZERO PUSH2 0x252F JUMPI PUSH2 0x252E PUSH2 0x253A JUMP JUMPDEST JUMPDEST PUSH1 0x1 DUP3 ADD SWAP1 POP SWAP2 SWAP1 POP JUMP JUMPDEST PUSH32 0x4E487B7100000000000000000000000000000000000000000000000000000000 PUSH1 0x0 MSTORE PUSH1 0x11 PUSH1 0x4 MSTORE PUSH1 0x24 PUSH1 0x0 REVERT JUMPDEST PUSH32 0x4E487B7100000000000000000000000000000000000000000000000000000000 PUSH1 0x0 MSTORE PUSH1 0x22 PUSH1 0x4 MSTORE PUSH1 0x24 PUSH1 0x0 REVERT JUMPDEST PUSH32 0x4E487B7100000000000000000000000000000000000000000000000000000000 PUSH1 0x0 MSTORE PUSH1 0x41 PUSH1 0x4 MSTORE PUSH1 0x24 PUSH1 0x0 REVERT JUMPDEST PUSH1 0x0 DUP1 REVERT JUMPDEST PUSH1 0x0 DUP1 REVERT JUMPDEST PUSH1 0x0 DUP1 REVERT JUMPDEST PUSH1 0x0 DUP1 REVERT JUMPDEST PUSH1 0x0 PUSH1 0x1F NOT PUSH1 0x1F DUP4 ADD AND SWAP1 POP SWAP2 SWAP1 POP JUMP JUMPDEST PUSH2 0x25F5 DUP2 PUSH2 0x2442 JUMP JUMPDEST DUP2 EQ PUSH2 0x2600 JUMPI PUSH1 0x0 DUP1 REVERT JUMPDEST POP JUMP INVALID LOG2 PUSH5 0x6970667358 0x22 SLT KECCAK256 0x2A PUSH24 0xFC19B8151F171F4CB076737A5B47A5682529BB710B1A8E02 0xD4 SMOD 0xE0 SHR SAR BASEFEE PUSH5 0x736F6C6343 STOP ADDMOD SMOD STOP CALLER "
				},
				"gasEstimates": {
					"creation": {
						"codeDepositCost": "1957000",
						"executionCost": "31341",
						"totalCost": "1988341"
					},
					"external": {
						"addDistributor(string)": "infinite",
						"addManufacturer(string)": "infinite",
						"addProduct(string,uint256,string)": "infinite",
						"addRetailer(string)": "infinite",
						"addSupplier(string)": "infinite",
						"distributors(uint256)": "infinite",
						"getProduct(uint256)": "infinite",
						"getdistributorDetails(uint256)": "infinite",
						"getmanufacturerDetails(uint256)": "infinite",
						"getretailerDetails(uint256)": "infinite",
						"getsupplierDetails(uint256)": "infinite",
						"manufacturers(uint256)": "infinite",
						"products(uint256)": "infinite",
						"retailers(uint256)": "infinite",
						"supplierToManufacturer(uint256,uint256,uint256)": "infinite",
						"supplierTransaction(uint256,uint256)": "infinite",
						"suppliers(uint256)": "infinite"
					}
				},
				"methodIdentifiers": {
					"addDistributor(string)": "81d9def2",
					"addManufacturer(string)": "8f5ae799",
					"addProduct(string,uint256,string)": "8f29695a",
					"addRetailer(string)": "95d00407",
					"addSupplier(string)": "15533a27",
					"distributors(uint256)": "50b492ba",
					"getProduct(uint256)": "b9db15b4",
					"getdistributorDetails(uint256)": "333f3dd0",
					"getmanufacturerDetails(uint256)": "cb80c419",
					"getretailerDetails(uint256)": "cda5e4a5",
					"getsupplierDetails(uint256)": "3779643f",
					"manufacturers(uint256)": "90175af1",
					"products(uint256)": "7acc0b20",
					"retailers(uint256)": "897ec7df",
					"supplierToManufacturer(uint256,uint256,uint256)": "bbb7b0c3",
					"supplierTransaction(uint256,uint256)": "d8459464",
					"suppliers(uint256)": "cea23121"
				}
			},
			"storageLayout": {
				"storage": [
					{
						"astId": 5,
						"contract": "contracts/FakeProdId.sol:FakeProdId",
						"label": "owner",
						"offset": 0,
						"slot": "0",
						"type": "t_address"
					},
					{
						"astId": 93,
						"contract": "contracts/FakeProdId.sol:FakeProdId",
						"label": "products",
						"offset": 0,
						"slot": "1",
						"type": "t_mapping(t_uint256,t_struct(Product)18_storage)"
					},
					{
						"astId": 96,
						"contract": "contracts/FakeProdId.sol:FakeProdId",
						"label": "productsSize",
						"offset": 0,
						"slot": "2",
						"type": "t_uint256"
					},
					{
						"astId": 101,
						"contract": "contracts/FakeProdId.sol:FakeProdId",
						"label": "suppliers",
						"offset": 0,
						"slot": "3",
						"type": "t_mapping(t_uint256,t_struct(Supplier)28_storage)"
					},
					{
						"astId": 106,
						"contract": "contracts/FakeProdId.sol:FakeProdId",
						"label": "manufacturers",
						"offset": 0,
						"slot": "4",
						"type": "t_mapping(t_uint256,t_struct(Manufacturer)38_storage)"
					},
					{
						"astId": 111,
						"contract": "contracts/FakeProdId.sol:FakeProdId",
						"label": "distributors",
						"offset": 0,
						"slot": "5",
						"type": "t_mapping(t_uint256,t_struct(Distributor)48_storage)"
					},
					{
						"astId": 116,
						"contract": "contracts/FakeProdId.sol:FakeProdId",
						"label": "retailers",
						"offset": 0,
						"slot": "6",
						"type": "t_mapping(t_uint256,t_struct(Retailer)56_storage)"
					}
				],
				"types": {
					"t_address": {
						"encoding": "inplace",
						"label": "address",
						"numberOfBytes": "20"
					},
					"t_array(t_uint256)dyn_storage": {
						"base": "t_uint256",
						"encoding": "dynamic_array",
						"label": "uint256[]",
						"numberOfBytes": "32"
					},
					"t_mapping(t_uint256,t_struct(Distributor)48_storage)": {
						"encoding": "mapping",
						"key": "t_uint256",
						"label": "mapping(uint256 => struct FakeProdId.Distributor)",
						"numberOfBytes": "32",
						"value": "t_struct(Distributor)48_storage"
					},
					"t_mapping(t_uint256,t_struct(Manufacturer)38_storage)": {
						"encoding": "mapping",
						"key": "t_uint256",
						"label": "mapping(uint256 => struct FakeProdId.Manufacturer)",
						"numberOfBytes": "32",
						"value": "t_struct(Manufacturer)38_storage"
					},
					"t_mapping(t_uint256,t_struct(Product)18_storage)": {
						"encoding": "mapping",
						"key": "t_uint256",
						"label": "mapping(uint256 => struct FakeProdId.Product)",
						"numberOfBytes": "32",
						"value": "t_struct(Product)18_storage"
					},
					"t_mapping(t_uint256,t_struct(Retailer)56_storage)": {
						"encoding": "mapping",
						"key": "t_uint256",
						"label": "mapping(uint256 => struct FakeProdId.Retailer)",
						"numberOfBytes": "32",
						"value": "t_struct(Retailer)56_storage"
					},
					"t_mapping(t_uint256,t_struct(Supplier)28_storage)": {
						"encoding": "mapping",
						"key": "t_uint256",
						"label": "mapping(uint256 => struct FakeProdId.Supplier)",
						"numberOfBytes": "32",
						"value": "t_struct(Supplier)28_storage"
					},
					"t_string_storage": {
						"encoding": "bytes",
						"label": "string",
						"numberOfBytes": "32"
					},
					"t_struct(Distributor)48_storage": {
						"encoding": "inplace",
						"label": "struct FakeProdId.Distributor",
						"members": [
							{
								"astId": 40,
								"contract": "contracts/FakeProdId.sol:FakeProdId",
								"label": "distributorId",
								"offset": 0,
								"slot": "0",
								"type": "t_uint256"
							},
							{
								"astId": 42,
								"contract": "contracts/FakeProdId.sol:FakeProdId",
								"label": "kind",
								"offset": 0,
								"slot": "1",
								"type": "t_string_storage"
							},
							{
								"astId": 44,
								"contract": "contracts/FakeProdId.sol:FakeProdId",
								"label": "name",
								"offset": 0,
								"slot": "2",
								"type": "t_string_storage"
							},
							{
								"astId": 47,
								"contract": "contracts/FakeProdId.sol:FakeProdId",
								"label": "productList",
								"offset": 0,
								"slot": "3",
								"type": "t_array(t_uint256)dyn_storage"
							}
						],
						"numberOfBytes": "128"
					},
					"t_struct(Manufacturer)38_storage": {
						"encoding": "inplace",
						"label": "struct FakeProdId.Manufacturer",
						"members": [
							{
								"astId": 30,
								"contract": "contracts/FakeProdId.sol:FakeProdId",
								"label": "manufacturerId",
								"offset": 0,
								"slot": "0",
								"type": "t_uint256"
							},
							{
								"astId": 32,
								"contract": "contracts/FakeProdId.sol:FakeProdId",
								"label": "kind",
								"offset": 0,
								"slot": "1",
								"type": "t_string_storage"
							},
							{
								"astId": 34,
								"contract": "contracts/FakeProdId.sol:FakeProdId",
								"label": "name",
								"offset": 0,
								"slot": "2",
								"type": "t_string_storage"
							},
							{
								"astId": 37,
								"contract": "contracts/FakeProdId.sol:FakeProdId",
								"label": "productList",
								"offset": 0,
								"slot": "3",
								"type": "t_array(t_uint256)dyn_storage"
							}
						],
						"numberOfBytes": "128"
					},
					"t_struct(Product)18_storage": {
						"encoding": "inplace",
						"label": "struct FakeProdId.Product",
						"members": [
							{
								"astId": 7,
								"contract": "contracts/FakeProdId.sol:FakeProdId",
								"label": "productId",
								"offset": 0,
								"slot": "0",
								"type": "t_uint256"
							},
							{
								"astId": 9,
								"contract": "contracts/FakeProdId.sol:FakeProdId",
								"label": "name",
								"offset": 0,
								"slot": "1",
								"type": "t_string_storage"
							},
							{
								"astId": 11,
								"contract": "contracts/FakeProdId.sol:FakeProdId",
								"label": "price",
								"offset": 0,
								"slot": "2",
								"type": "t_uint256"
							},
							{
								"astId": 13,
								"contract": "contracts/FakeProdId.sol:FakeProdId",
								"label": "description",
								"offset": 0,
								"slot": "3",
								"type": "t_string_storage"
							},
							{
								"astId": 15,
								"contract": "contracts/FakeProdId.sol:FakeProdId",
								"label": "curOwner",
								"offset": 0,
								"slot": "4",
								"type": "t_string_storage"
							},
							{
								"astId": 17,
								"contract": "contracts/FakeProdId.sol:FakeProdId",
								"label": "curOwnerId",
								"offset": 0,
								"slot": "5",
								"type": "t_uint256"
							}
						],
						"numberOfBytes": "192"
					},
					"t_struct(Retailer)56_storage": {
						"encoding": "inplace",
						"label": "struct FakeProdId.Retailer",
						"members": [
							{
								"astId": 50,
								"contract": "contracts/FakeProdId.sol:FakeProdId",
								"label": "retailerId",
								"offset": 0,
								"slot": "0",
								"type": "t_uint256"
							},
							{
								"astId": 52,
								"contract": "contracts/FakeProdId.sol:FakeProdId",
								"label": "name",
								"offset": 0,
								"slot": "1",
								"type": "t_string_storage"
							},
							{
								"astId": 55,
								"contract": "contracts/FakeProdId.sol:FakeProdId",
								"label": "productList",
								"offset": 0,
								"slot": "2",
								"type": "t_array(t_uint256)dyn_storage"
							}
						],
						"numberOfBytes": "96"
					},
					"t_struct(Supplier)28_storage": {
						"encoding": "inplace",
						"label": "struct FakeProdId.Supplier",
						"members": [
							{
								"astId": 20,
								"contract": "contracts/FakeProdId.sol:FakeProdId",
								"label": "supplierId",
								"offset": 0,
								"slot": "0",
								"type": "t_uint256"
							},
							{
								"astId": 22,
								"contract": "contracts/FakeProdId.sol:FakeProdId",
								"label": "kind",
								"offset": 0,
								"slot": "1",
								"type": "t_string_storage"
							},
							{
								"astId": 24,
								"contract": "contracts/FakeProdId.sol:FakeProdId",
								"label": "name",
								"offset": 0,
								"slot": "2",
								"type": "t_string_storage"
							},
							{
								"astId": 27,
								"contract": "contracts/FakeProdId.sol:FakeProdId",
								"label": "productList",
								"offset": 0,
								"slot": "3",
								"type": "t_array(t_uint256)dyn_storage"
							}
						],
						"numberOfBytes": "128"
					},
					"t_uint256": {
						"encoding": "inplace",
						"label": "uint256",
						"numberOfBytes": "32"
					}
				}
			},
			"userdoc": {
				"kind": "user",
				"methods": {},
				"version": 1
			}
		}
	}
}