{
	"contracts/FakeProdId.sol": {
		"FakeProdId": {
			"abi": [
				{
					"anonymous": false,
					"inputs": [
						{
							"components": [
								{
									"internalType": "uint256",
									"name": "productId",
									"type": "uint256"
								},
								{
									"internalType": "string",
									"name": "name",
									"type": "string"
								},
								{
									"internalType": "uint256",
									"name": "price",
									"type": "uint256"
								},
								{
									"internalType": "string",
									"name": "description",
									"type": "string"
								},
								{
									"internalType": "string",
									"name": "curOwner",
									"type": "string"
								},
								{
									"internalType": "uint256",
									"name": "curOwnerId",
									"type": "uint256"
								}
							],
							"indexed": false,
							"internalType": "struct FakeProdId.Product",
							"name": "product",
							"type": "tuple"
						}
					],
					"name": "completeTransaction",
					"type": "event"
				},
				{
					"anonymous": false,
					"inputs": [
						{
							"components": [
								{
									"internalType": "uint256",
									"name": "distributorId",
									"type": "uint256"
								},
								{
									"internalType": "string",
									"name": "kind",
									"type": "string"
								},
								{
									"internalType": "string",
									"name": "name",
									"type": "string"
								},
								{
									"internalType": "uint256[]",
									"name": "productList",
									"type": "uint256[]"
								}
							],
							"indexed": false,
							"internalType": "struct FakeProdId.Distributor",
							"name": "newDistributor",
							"type": "tuple"
						}
					],
					"name": "distributorDetails",
					"type": "event"
				},
				{
					"anonymous": false,
					"inputs": [
						{
							"components": [
								{
									"internalType": "uint256",
									"name": "manufacturerId",
									"type": "uint256"
								},
								{
									"internalType": "string",
									"name": "kind",
									"type": "string"
								},
								{
									"internalType": "string",
									"name": "name",
									"type": "string"
								},
								{
									"internalType": "uint256[]",
									"name": "productList",
									"type": "uint256[]"
								}
							],
							"indexed": false,
							"internalType": "struct FakeProdId.Manufacturer",
							"name": "newManufacturer",
							"type": "tuple"
						}
					],
					"name": "manufacturerDetails",
					"type": "event"
				},
				{
					"anonymous": false,
					"inputs": [
						{
							"components": [
								{
									"internalType": "uint256",
									"name": "productId",
									"type": "uint256"
								},
								{
									"internalType": "string",
									"name": "name",
									"type": "string"
								},
								{
									"internalType": "uint256",
									"name": "price",
									"type": "uint256"
								},
								{
									"internalType": "string",
									"name": "description",
									"type": "string"
								},
								{
									"internalType": "string",
									"name": "curOwner",
									"type": "string"
								},
								{
									"internalType": "uint256",
									"name": "curOwnerId",
									"type": "uint256"
								}
							],
							"indexed": false,
							"internalType": "struct FakeProdId.Product",
							"name": "prod",
							"type": "tuple"
						},
						{
							"indexed": false,
							"internalType": "uint256",
							"name": "productSize",
							"type": "uint256"
						}
					],
					"name": "prodDetails",
					"type": "event"
				},
				{
					"anonymous": false,
					"inputs": [
						{
							"components": [
								{
									"internalType": "uint256",
									"name": "retailerId",
									"type": "uint256"
								},
								{
									"internalType": "string",
									"name": "name",
									"type": "string"
								},
								{
									"internalType": "uint256[]",
									"name": "productList",
									"type": "uint256[]"
								}
							],
							"indexed": false,
							"internalType": "struct FakeProdId.Retailer",
							"name": "newRetailer",
							"type": "tuple"
						}
					],
					"name": "retailerDetails",
					"type": "event"
				},
				{
					"anonymous": false,
					"inputs": [
						{
							"components": [
								{
									"internalType": "uint256",
									"name": "supplierId",
									"type": "uint256"
								},
								{
									"internalType": "string",
									"name": "kind",
									"type": "string"
								},
								{
									"internalType": "string",
									"name": "name",
									"type": "string"
								},
								{
									"internalType": "uint256[]",
									"name": "productList",
									"type": "uint256[]"
								}
							],
							"indexed": false,
							"internalType": "struct FakeProdId.Supplier",
							"name": "newSupplier",
							"type": "tuple"
						}
					],
					"name": "supplierDetails",
					"type": "event"
				},
				{
					"inputs": [
						{
							"internalType": "string",
							"name": "name",
							"type": "string"
						}
					],
					"name": "addDistributor",
					"outputs": [],
					"stateMutability": "nonpayable",
					"type": "function"
				},
				{
					"inputs": [
						{
							"internalType": "string",
							"name": "name",
							"type": "string"
						}
					],
					"name": "addManufacturer",
					"outputs": [],
					"stateMutability": "nonpayable",
					"type": "function"
				},
				{
					"inputs": [
						{
							"internalType": "string",
							"name": "name",
							"type": "string"
						},
						{
							"internalType": "uint256",
							"name": "price",
							"type": "uint256"
						},
						{
							"internalType": "string",
							"name": "description",
							"type": "string"
						}
					],
					"name": "addProduct",
					"outputs": [],
					"stateMutability": "nonpayable",
					"type": "function"
				},
				{
					"inputs": [
						{
							"internalType": "string",
							"name": "name",
							"type": "string"
						}
					],
					"name": "addRetailer",
					"outputs": [],
					"stateMutability": "nonpayable",
					"type": "function"
				},
				{
					"inputs": [
						{
							"internalType": "string",
							"name": "name",
							"type": "string"
						}
					],
					"name": "addSupplier",
					"outputs": [],
					"stateMutability": "nonpayable",
					"type": "function"
				},
				{
					"inputs": [
						{
							"internalType": "uint256",
							"name": "productId",
							"type": "uint256"
						},
						{
							"internalType": "uint256",
							"name": "distributorId",
							"type": "uint256"
						},
						{
							"internalType": "uint256",
							"name": "retailerId",
							"type": "uint256"
						}
					],
					"name": "distributorToRetailer",
					"outputs": [],
					"stateMutability": "nonpayable",
					"type": "function"
				},
				{
					"inputs": [
						{
							"internalType": "uint256",
							"name": "",
							"type": "uint256"
						}
					],
					"name": "distributors",
					"outputs": [
						{
							"internalType": "uint256",
							"name": "distributorId",
							"type": "uint256"
						},
						{
							"internalType": "string",
							"name": "kind",
							"type": "string"
						},
						{
							"internalType": "string",
							"name": "name",
							"type": "string"
						}
					],
					"stateMutability": "view",
					"type": "function"
				},
				{
					"inputs": [
						{
							"internalType": "uint256",
							"name": "productId",
							"type": "uint256"
						}
					],
					"name": "getProduct",
					"outputs": [
						{
							"components": [
								{
									"internalType": "uint256",
									"name": "productId",
									"type": "uint256"
								},
								{
									"internalType": "string",
									"name": "name",
									"type": "string"
								},
								{
									"internalType": "uint256",
									"name": "price",
									"type": "uint256"
								},
								{
									"internalType": "string",
									"name": "description",
									"type": "string"
								},
								{
									"internalType": "string",
									"name": "curOwner",
									"type": "string"
								},
								{
									"internalType": "uint256",
									"name": "curOwnerId",
									"type": "uint256"
								}
							],
							"internalType": "struct FakeProdId.Product",
							"name": "",
							"type": "tuple"
						}
					],
					"stateMutability": "view",
					"type": "function"
				},
				{
					"inputs": [
						{
							"internalType": "uint256",
							"name": "distributorId",
							"type": "uint256"
						}
					],
					"name": "getdistributorDetails",
					"outputs": [
						{
							"components": [
								{
									"internalType": "uint256",
									"name": "distributorId",
									"type": "uint256"
								},
								{
									"internalType": "string",
									"name": "kind",
									"type": "string"
								},
								{
									"internalType": "string",
									"name": "name",
									"type": "string"
								},
								{
									"internalType": "uint256[]",
									"name": "productList",
									"type": "uint256[]"
								}
							],
							"internalType": "struct FakeProdId.Distributor",
							"name": "",
							"type": "tuple"
						}
					],
					"stateMutability": "view",
					"type": "function"
				},
				{
					"inputs": [
						{
							"internalType": "uint256",
							"name": "manufacturerId",
							"type": "uint256"
						}
					],
					"name": "getmanufacturerDetails",
					"outputs": [
						{
							"components": [
								{
									"internalType": "uint256",
									"name": "manufacturerId",
									"type": "uint256"
								},
								{
									"internalType": "string",
									"name": "kind",
									"type": "string"
								},
								{
									"internalType": "string",
									"name": "name",
									"type": "string"
								},
								{
									"internalType": "uint256[]",
									"name": "productList",
									"type": "uint256[]"
								}
							],
							"internalType": "struct FakeProdId.Manufacturer",
							"name": "",
							"type": "tuple"
						}
					],
					"stateMutability": "view",
					"type": "function"
				},
				{
					"inputs": [
						{
							"internalType": "uint256",
							"name": "retailerId",
							"type": "uint256"
						}
					],
					"name": "getretailerDetails",
					"outputs": [
						{
							"components": [
								{
									"internalType": "uint256",
									"name": "retailerId",
									"type": "uint256"
								},
								{
									"internalType": "string",
									"name": "name",
									"type": "string"
								},
								{
									"internalType": "uint256[]",
									"name": "productList",
									"type": "uint256[]"
								}
							],
							"internalType": "struct FakeProdId.Retailer",
							"name": "",
							"type": "tuple"
						}
					],
					"stateMutability": "view",
					"type": "function"
				},
				{
					"inputs": [
						{
							"internalType": "uint256",
							"name": "supplierId",
							"type": "uint256"
						}
					],
					"name": "getsupplierDetails",
					"outputs": [
						{
							"components": [
								{
									"internalType": "uint256",
									"name": "supplierId",
									"type": "uint256"
								},
								{
									"internalType": "string",
									"name": "kind",
									"type": "string"
								},
								{
									"internalType": "string",
									"name": "name",
									"type": "string"
								},
								{
									"internalType": "uint256[]",
									"name": "productList",
									"type": "uint256[]"
								}
							],
							"internalType": "struct FakeProdId.Supplier",
							"name": "",
							"type": "tuple"
						}
					],
					"stateMutability": "view",
					"type": "function"
				},
				{
					"inputs": [
						{
							"internalType": "uint256",
							"name": "productId",
							"type": "uint256"
						},
						{
							"internalType": "uint256",
							"name": "manufacturerId",
							"type": "uint256"
						},
						{
							"internalType": "uint256",
							"name": "distributorId",
							"type": "uint256"
						}
					],
					"name": "manufacturerToDistributor",
					"outputs": [],
					"stateMutability": "nonpayable",
					"type": "function"
				},
				{
					"inputs": [
						{
							"internalType": "uint256",
							"name": "",
							"type": "uint256"
						}
					],
					"name": "manufacturers",
					"outputs": [
						{
							"internalType": "uint256",
							"name": "manufacturerId",
							"type": "uint256"
						},
						{
							"internalType": "string",
							"name": "kind",
							"type": "string"
						},
						{
							"internalType": "string",
							"name": "name",
							"type": "string"
						}
					],
					"stateMutability": "view",
					"type": "function"
				},
				{
					"inputs": [
						{
							"internalType": "uint256",
							"name": "",
							"type": "uint256"
						}
					],
					"name": "products",
					"outputs": [
						{
							"internalType": "uint256",
							"name": "productId",
							"type": "uint256"
						},
						{
							"internalType": "string",
							"name": "name",
							"type": "string"
						},
						{
							"internalType": "uint256",
							"name": "price",
							"type": "uint256"
						},
						{
							"internalType": "string",
							"name": "description",
							"type": "string"
						},
						{
							"internalType": "string",
							"name": "curOwner",
							"type": "string"
						},
						{
							"internalType": "uint256",
							"name": "curOwnerId",
							"type": "uint256"
						}
					],
					"stateMutability": "view",
					"type": "function"
				},
				{
					"inputs": [
						{
							"internalType": "uint256",
							"name": "",
							"type": "uint256"
						}
					],
					"name": "retailers",
					"outputs": [
						{
							"internalType": "uint256",
							"name": "retailerId",
							"type": "uint256"
						},
						{
							"internalType": "string",
							"name": "name",
							"type": "string"
						}
					],
					"stateMutability": "view",
					"type": "function"
				},
				{
					"inputs": [
						{
							"internalType": "uint256",
							"name": "productId",
							"type": "uint256"
						},
						{
							"internalType": "uint256",
							"name": "supplierId",
							"type": "uint256"
						},
						{
							"internalType": "uint256",
							"name": "manufacturerId",
							"type": "uint256"
						}
					],
					"name": "supplierToManufacturer",
					"outputs": [],
					"stateMutability": "nonpayable",
					"type": "function"
				},
				{
					"inputs": [
						{
							"internalType": "uint256",
							"name": "productId",
							"type": "uint256"
						},
						{
							"internalType": "uint256",
							"name": "supplierId",
							"type": "uint256"
						}
					],
					"name": "supplierTransaction",
					"outputs": [],
					"stateMutability": "nonpayable",
					"type": "function"
				},
				{
					"inputs": [
						{
							"internalType": "uint256",
							"name": "",
							"type": "uint256"
						}
					],
					"name": "suppliers",
					"outputs": [
						{
							"internalType": "uint256",
							"name": "supplierId",
							"type": "uint256"
						},
						{
							"internalType": "string",
							"name": "kind",
							"type": "string"
						},
						{
							"internalType": "string",
							"name": "name",
							"type": "string"
						}
					],
					"stateMutability": "view",
					"type": "function"
				}
			],
			"devdoc": {
				"kind": "dev",
				"methods": {},
				"version": 1
			},
			"evm": {
				"assembly": "    /* \"contracts/FakeProdId.sol\":69:6427  contract FakeProdId {\r... */\n  mstore(0x40, 0x80)\n    /* \"contracts/FakeProdId.sol\":112:122  msg.sender */\n  caller\n    /* \"contracts/FakeProdId.sol\":96:122  address owner = msg.sender */\n  0x00\n  dup1\n  0x0100\n  exp\n  dup2\n  sload\n  dup2\n  0xffffffffffffffffffffffffffffffffffffffff\n  mul\n  not\n  and\n  swap1\n  dup4\n  0xffffffffffffffffffffffffffffffffffffffff\n  and\n  mul\n  or\n  swap1\n  sstore\n  pop\n    /* \"contracts/FakeProdId.sol\":1338:1339  0 */\n  0x00\n    /* \"contracts/FakeProdId.sol\":1320:1339  uint productsSize=0 */\n  0x02\n  sstore\n    /* \"contracts/FakeProdId.sol\":69:6427  contract FakeProdId {\r... */\n  callvalue\n  dup1\n  iszero\n  tag_1\n  jumpi\n  0x00\n  dup1\n  revert\ntag_1:\n  pop\n  dataSize(sub_0)\n  dup1\n  dataOffset(sub_0)\n  0x00\n  codecopy\n  0x00\n  return\nstop\n\nsub_0: assembly {\n        /* \"contracts/FakeProdId.sol\":69:6427  contract FakeProdId {\r... */\n      mstore(0x40, 0x80)\n      callvalue\n      dup1\n      iszero\n      tag_1\n      jumpi\n      0x00\n      dup1\n      revert\n    tag_1:\n      pop\n      jumpi(tag_2, lt(calldatasize, 0x04))\n      shr(0xe0, calldataload(0x00))\n      dup1\n      0x90175af1\n      gt\n      tag_22\n      jumpi\n      dup1\n      0xbbb7b0c3\n      gt\n      tag_23\n      jumpi\n      dup1\n      0xbbb7b0c3\n      eq\n      tag_17\n      jumpi\n      dup1\n      0xcb80c419\n      eq\n      tag_18\n      jumpi\n      dup1\n      0xcda5e4a5\n      eq\n      tag_19\n      jumpi\n      dup1\n      0xcea23121\n      eq\n      tag_20\n      jumpi\n      dup1\n      0xd8459464\n      eq\n      tag_21\n      jumpi\n      jump(tag_2)\n    tag_23:\n      dup1\n      0x90175af1\n      eq\n      tag_12\n      jumpi\n      dup1\n      0x95d00407\n      eq\n      tag_13\n      jumpi\n      dup1\n      0xae2ce444\n      eq\n      tag_14\n      jumpi\n      dup1\n      0xb55be240\n      eq\n      tag_15\n      jumpi\n      dup1\n      0xb9db15b4\n      eq\n      tag_16\n      jumpi\n      jump(tag_2)\n    tag_22:\n      dup1\n      0x7acc0b20\n      gt\n      tag_24\n      jumpi\n      dup1\n      0x7acc0b20\n      eq\n      tag_7\n      jumpi\n      dup1\n      0x81d9def2\n      eq\n      tag_8\n      jumpi\n      dup1\n      0x897ec7df\n      eq\n      tag_9\n      jumpi\n      dup1\n      0x8f29695a\n      eq\n      tag_10\n      jumpi\n      dup1\n      0x8f5ae799\n      eq\n      tag_11\n      jumpi\n      jump(tag_2)\n    tag_24:\n      dup1\n      0x15533a27\n      eq\n      tag_3\n      jumpi\n      dup1\n      0x333f3dd0\n      eq\n      tag_4\n      jumpi\n      dup1\n      0x3779643f\n      eq\n      tag_5\n      jumpi\n      dup1\n      0x50b492ba\n      eq\n      tag_6\n      jumpi\n    tag_2:\n      0x00\n      dup1\n      revert\n        /* \"contracts/FakeProdId.sol\":2348:2761  function addSupplier(string memory name) public{\r... */\n    tag_3:\n      tag_25\n      0x04\n      dup1\n      calldatasize\n      sub\n      dup2\n      add\n      swap1\n      tag_26\n      swap2\n      swap1\n      tag_27\n      jump\t// in\n    tag_26:\n      tag_28\n      jump\t// in\n    tag_25:\n      stop\n        /* \"contracts/FakeProdId.sol\":4007:4151  function getdistributorDetails(uint distributorId) public view returns (Distributor memory){\r... */\n    tag_4:\n      tag_29\n      0x04\n      dup1\n      calldatasize\n      sub\n      dup2\n      add\n      swap1\n      tag_30\n      swap2\n      swap1\n      tag_31\n      jump\t// in\n    tag_30:\n      tag_32\n      jump\t// in\n    tag_29:\n      mload(0x40)\n      tag_33\n      swap2\n      swap1\n      tag_34\n      jump\t// in\n    tag_33:\n      mload(0x40)\n      dup1\n      swap2\n      sub\n      swap1\n      return\n        /* \"contracts/FakeProdId.sol\":2769:2898  function getsupplierDetails(uint supplierId) public view returns (Supplier memory){\r... */\n    tag_5:\n      tag_35\n      0x04\n      dup1\n      calldatasize\n      sub\n      dup2\n      add\n      swap1\n      tag_36\n      swap2\n      swap1\n      tag_31\n      jump\t// in\n    tag_36:\n      tag_37\n      jump\t// in\n    tag_35:\n      mload(0x40)\n      tag_38\n      swap2\n      swap1\n      tag_39\n      jump\t// in\n    tag_38:\n      mload(0x40)\n      dup1\n      swap2\n      sub\n      swap1\n      return\n        /* \"contracts/FakeProdId.sol\":1452:1500  mapping(uint => Distributor) public distributors */\n    tag_6:\n      tag_40\n      0x04\n      dup1\n      calldatasize\n      sub\n      dup2\n      add\n      swap1\n      tag_41\n      swap2\n      swap1\n      tag_31\n      jump\t// in\n    tag_41:\n      tag_42\n      jump\t// in\n    tag_40:\n      mload(0x40)\n      tag_43\n      swap4\n      swap3\n      swap2\n      swap1\n      tag_44\n      jump\t// in\n    tag_43:\n      mload(0x40)\n      dup1\n      swap2\n      sub\n      swap1\n      return\n        /* \"contracts/FakeProdId.sol\":1273:1313  mapping(uint => Product) public products */\n    tag_7:\n      tag_45\n      0x04\n      dup1\n      calldatasize\n      sub\n      dup2\n      add\n      swap1\n      tag_46\n      swap2\n      swap1\n      tag_31\n      jump\t// in\n    tag_46:\n      tag_47\n      jump\t// in\n    tag_45:\n      mload(0x40)\n      tag_48\n      swap7\n      swap6\n      swap5\n      swap4\n      swap3\n      swap2\n      swap1\n      tag_49\n      jump\t// in\n    tag_48:\n      mload(0x40)\n      dup1\n      swap2\n      sub\n      swap1\n      return\n        /* \"contracts/FakeProdId.sol\":3540:3995  function addDistributor(string memory name) public{\r... */\n    tag_8:\n      tag_50\n      0x04\n      dup1\n      calldatasize\n      sub\n      dup2\n      add\n      swap1\n      tag_51\n      swap2\n      swap1\n      tag_27\n      jump\t// in\n    tag_51:\n      tag_52\n      jump\t// in\n    tag_50:\n      stop\n        /* \"contracts/FakeProdId.sol\":1507:1549  mapping(uint => Retailer) public retailers */\n    tag_9:\n      tag_53\n      0x04\n      dup1\n      calldatasize\n      sub\n      dup2\n      add\n      swap1\n      tag_54\n      swap2\n      swap1\n      tag_31\n      jump\t// in\n    tag_54:\n      tag_55\n      jump\t// in\n    tag_53:\n      mload(0x40)\n      tag_56\n      swap3\n      swap2\n      swap1\n      tag_57\n      jump\t// in\n    tag_56:\n      mload(0x40)\n      dup1\n      swap2\n      sub\n      swap1\n      return\n        /* \"contracts/FakeProdId.sol\":1558:2100  function addProduct(string memory name,uint price,string memory description) public{\r... */\n    tag_10:\n      tag_58\n      0x04\n      dup1\n      calldatasize\n      sub\n      dup2\n      add\n      swap1\n      tag_59\n      swap2\n      swap1\n      tag_60\n      jump\t// in\n    tag_59:\n      tag_61\n      jump\t// in\n    tag_58:\n      stop\n        /* \"contracts/FakeProdId.sol\":2906:3375  function addManufacturer(string memory name) public{\r... */\n    tag_11:\n      tag_62\n      0x04\n      dup1\n      calldatasize\n      sub\n      dup2\n      add\n      swap1\n      tag_63\n      swap2\n      swap1\n      tag_27\n      jump\t// in\n    tag_63:\n      tag_64\n      jump\t// in\n    tag_62:\n      stop\n        /* \"contracts/FakeProdId.sol\":1395:1445  mapping(uint => Manufacturer) public manufacturers */\n    tag_12:\n      tag_65\n      0x04\n      dup1\n      calldatasize\n      sub\n      dup2\n      add\n      swap1\n      tag_66\n      swap2\n      swap1\n      tag_31\n      jump\t// in\n    tag_66:\n      tag_67\n      jump\t// in\n    tag_65:\n      mload(0x40)\n      tag_68\n      swap4\n      swap3\n      swap2\n      swap1\n      tag_44\n      jump\t// in\n    tag_68:\n      mload(0x40)\n      dup1\n      swap2\n      sub\n      swap1\n      return\n        /* \"contracts/FakeProdId.sol\":4159:4538  function addRetailer(string memory name) public{\r... */\n    tag_13:\n      tag_69\n      0x04\n      dup1\n      calldatasize\n      sub\n      dup2\n      add\n      swap1\n      tag_70\n      swap2\n      swap1\n      tag_27\n      jump\t// in\n    tag_70:\n      tag_71\n      jump\t// in\n    tag_69:\n      stop\n        /* \"contracts/FakeProdId.sol\":5442:5890  function manufacturerToDistributor(uint productId,uint manufacturerId,uint distributorId) public{\r... */\n    tag_14:\n      tag_72\n      0x04\n      dup1\n      calldatasize\n      sub\n      dup2\n      add\n      swap1\n      tag_73\n      swap2\n      swap1\n      tag_74\n      jump\t// in\n    tag_73:\n      tag_75\n      jump\t// in\n    tag_72:\n      stop\n        /* \"contracts/FakeProdId.sol\":5898:6324  function distributorToRetailer(uint productId,uint distributorId,uint retailerId) public{\r... */\n    tag_15:\n      tag_76\n      0x04\n      dup1\n      calldatasize\n      sub\n      dup2\n      add\n      swap1\n      tag_77\n      swap2\n      swap1\n      tag_74\n      jump\t// in\n    tag_77:\n      tag_78\n      jump\t// in\n    tag_76:\n      stop\n        /* \"contracts/FakeProdId.sol\":2223:2340  function getProduct(uint productId) public view returns (Product memory){\r... */\n    tag_16:\n      tag_79\n      0x04\n      dup1\n      calldatasize\n      sub\n      dup2\n      add\n      swap1\n      tag_80\n      swap2\n      swap1\n      tag_31\n      jump\t// in\n    tag_80:\n      tag_81\n      jump\t// in\n    tag_79:\n      mload(0x40)\n      tag_82\n      swap2\n      swap1\n      tag_83\n      jump\t// in\n    tag_82:\n      mload(0x40)\n      dup1\n      swap2\n      sub\n      swap1\n      return\n        /* \"contracts/FakeProdId.sol\":4996:5434  function supplierToManufacturer(uint productId,uint supplierId,uint manufacturerId) public{\r... */\n    tag_17:\n      tag_84\n      0x04\n      dup1\n      calldatasize\n      sub\n      dup2\n      add\n      swap1\n      tag_85\n      swap2\n      swap1\n      tag_74\n      jump\t// in\n    tag_85:\n      tag_86\n      jump\t// in\n    tag_84:\n      stop\n        /* \"contracts/FakeProdId.sol\":3383:3532  function getmanufacturerDetails(uint manufacturerId) public view returns (Manufacturer memory){\r... */\n    tag_18:\n      tag_87\n      0x04\n      dup1\n      calldatasize\n      sub\n      dup2\n      add\n      swap1\n      tag_88\n      swap2\n      swap1\n      tag_31\n      jump\t// in\n    tag_88:\n      tag_89\n      jump\t// in\n    tag_87:\n      mload(0x40)\n      tag_90\n      swap2\n      swap1\n      tag_91\n      jump\t// in\n    tag_90:\n      mload(0x40)\n      dup1\n      swap2\n      sub\n      swap1\n      return\n        /* \"contracts/FakeProdId.sol\":4546:4675  function getretailerDetails(uint retailerId) public view returns (Retailer memory){\r... */\n    tag_19:\n      tag_92\n      0x04\n      dup1\n      calldatasize\n      sub\n      dup2\n      add\n      swap1\n      tag_93\n      swap2\n      swap1\n      tag_31\n      jump\t// in\n    tag_93:\n      tag_94\n      jump\t// in\n    tag_92:\n      mload(0x40)\n      tag_95\n      swap2\n      swap1\n      tag_96\n      jump\t// in\n    tag_95:\n      mload(0x40)\n      dup1\n      swap2\n      sub\n      swap1\n      return\n        /* \"contracts/FakeProdId.sol\":1346:1388  mapping(uint => Supplier) public suppliers */\n    tag_20:\n      tag_97\n      0x04\n      dup1\n      calldatasize\n      sub\n      dup2\n      add\n      swap1\n      tag_98\n      swap2\n      swap1\n      tag_31\n      jump\t// in\n    tag_98:\n      tag_99\n      jump\t// in\n    tag_97:\n      mload(0x40)\n      tag_100\n      swap4\n      swap3\n      swap2\n      swap1\n      tag_44\n      jump\t// in\n    tag_100:\n      mload(0x40)\n      dup1\n      swap2\n      sub\n      swap1\n      return\n        /* \"contracts/FakeProdId.sol\":4683:4988  function supplierTransaction(uint productId,uint supplierId) public{\r... */\n    tag_21:\n      tag_101\n      0x04\n      dup1\n      calldatasize\n      sub\n      dup2\n      add\n      swap1\n      tag_102\n      swap2\n      swap1\n      tag_103\n      jump\t// in\n    tag_102:\n      tag_104\n      jump\t// in\n    tag_101:\n      stop\n        /* \"contracts/FakeProdId.sol\":2348:2761  function addSupplier(string memory name) public{\r... */\n    tag_28:\n        /* \"contracts/FakeProdId.sol\":2406:2433  Supplier memory newSupplier */\n      tag_106\n      tag_107\n      jump\t// in\n    tag_106:\n        /* \"contracts/FakeProdId.sol\":2493:2497  name */\n      dup2\n        /* \"contracts/FakeProdId.sol\":2498:2513  block.timestamp */\n      timestamp\n        /* \"contracts/FakeProdId.sol\":2514:2530  block.difficulty */\n      difficulty\n        /* \"contracts/FakeProdId.sol\":2482:2531  abi.encode(name,block.timestamp,block.difficulty) */\n      add(0x20, mload(0x40))\n      tag_108\n      swap4\n      swap3\n      swap2\n      swap1\n      tag_109\n      jump\t// in\n    tag_108:\n      mload(0x40)\n      0x20\n      dup2\n      dup4\n      sub\n      sub\n      dup2\n      mstore\n      swap1\n      0x40\n      mstore\n        /* \"contracts/FakeProdId.sol\":2472:2532  keccak256(abi.encode(name,block.timestamp,block.difficulty)) */\n      dup1\n      mload\n      swap1\n      0x20\n      add\n      keccak256\n        /* \"contracts/FakeProdId.sol\":2467:2533  uint(keccak256(abi.encode(name,block.timestamp,block.difficulty))) */\n      0x00\n      shr\n        /* \"contracts/FakeProdId.sol\":2444:2455  newSupplier */\n      dup2\n        /* \"contracts/FakeProdId.sol\":2444:2466  newSupplier.supplierId */\n      0x00\n      add\n        /* \"contracts/FakeProdId.sol\":2444:2533  newSupplier.supplierId=uint(keccak256(abi.encode(name,block.timestamp,block.difficulty))) */\n      dup2\n      dup2\n      mstore\n      pop\n      pop\n        /* \"contracts/FakeProdId.sol\":2544:2567  newSupplier.kind = \"SU\" */\n      mload(0x40)\n      dup1\n      0x40\n      add\n      0x40\n      mstore\n      dup1\n      0x02\n      dup2\n      mstore\n      0x20\n      add\n      0x5355000000000000000000000000000000000000000000000000000000000000\n      dup2\n      mstore\n      pop\n        /* \"contracts/FakeProdId.sol\":2544:2555  newSupplier */\n      dup2\n        /* \"contracts/FakeProdId.sol\":2544:2560  newSupplier.kind */\n      0x20\n      add\n        /* \"contracts/FakeProdId.sol\":2544:2567  newSupplier.kind = \"SU\" */\n      dup2\n      swap1\n      mstore\n      pop\n        /* \"contracts/FakeProdId.sol\":2597:2601  name */\n      dup2\n        /* \"contracts/FakeProdId.sol\":2578:2589  newSupplier */\n      dup2\n        /* \"contracts/FakeProdId.sol\":2578:2594  newSupplier.name */\n      0x40\n      add\n        /* \"contracts/FakeProdId.sol\":2578:2601  newSupplier.name = name */\n      dup2\n      swap1\n      mstore\n      pop\n        /* \"contracts/FakeProdId.sol\":2649:2650  0 */\n      0x00\n        /* \"contracts/FakeProdId.sol\":2638:2651  new uint[](0) */\n      0xffffffffffffffff\n      dup2\n      gt\n      iszero\n      tag_110\n      jumpi\n      tag_111\n      tag_112\n      jump\t// in\n    tag_111:\n    tag_110:\n      mload(0x40)\n      swap1\n      dup1\n      dup3\n      mstore\n      dup1\n      0x20\n      mul\n      0x20\n      add\n      dup3\n      add\n      0x40\n      mstore\n      dup1\n      iszero\n      tag_113\n      jumpi\n      dup2\n      0x20\n      add\n      0x20\n      dup3\n      mul\n      dup1\n      calldatasize\n      dup4\n      calldatacopy\n      dup1\n      dup3\n      add\n      swap2\n      pop\n      pop\n      swap1\n      pop\n    tag_113:\n      pop\n        /* \"contracts/FakeProdId.sol\":2612:2623  newSupplier */\n      dup2\n        /* \"contracts/FakeProdId.sol\":2612:2635  newSupplier.productList */\n      0x60\n      add\n        /* \"contracts/FakeProdId.sol\":2612:2651  newSupplier.productList = new uint[](0) */\n      dup2\n      swap1\n      mstore\n      pop\n        /* \"contracts/FakeProdId.sol\":2698:2709  newSupplier */\n      dup1\n        /* \"contracts/FakeProdId.sol\":2662:2671  suppliers */\n      0x03\n        /* \"contracts/FakeProdId.sol\":2662:2695  suppliers[newSupplier.supplierId] */\n      0x00\n        /* \"contracts/FakeProdId.sol\":2672:2683  newSupplier */\n      dup4\n        /* \"contracts/FakeProdId.sol\":2672:2694  newSupplier.supplierId */\n      0x00\n      add\n      mload\n        /* \"contracts/FakeProdId.sol\":2662:2695  suppliers[newSupplier.supplierId] */\n      dup2\n      mstore\n      0x20\n      add\n      swap1\n      dup2\n      mstore\n      0x20\n      add\n      0x00\n      keccak256\n        /* \"contracts/FakeProdId.sol\":2662:2709  suppliers[newSupplier.supplierId] = newSupplier */\n      0x00\n      dup3\n      add\n      mload\n      dup2\n      0x00\n      add\n      sstore\n      0x20\n      dup3\n      add\n      mload\n      dup2\n      0x01\n      add\n      swap1\n      dup1\n      mload\n      swap1\n      0x20\n      add\n      swap1\n      tag_114\n      swap3\n      swap2\n      swap1\n      tag_115\n      jump\t// in\n    tag_114:\n      pop\n      0x40\n      dup3\n      add\n      mload\n      dup2\n      0x02\n      add\n      swap1\n      dup1\n      mload\n      swap1\n      0x20\n      add\n      swap1\n      tag_116\n      swap3\n      swap2\n      swap1\n      tag_115\n      jump\t// in\n    tag_116:\n      pop\n      0x60\n      dup3\n      add\n      mload\n      dup2\n      0x03\n      add\n      swap1\n      dup1\n      mload\n      swap1\n      0x20\n      add\n      swap1\n      tag_117\n      swap3\n      swap2\n      swap1\n      tag_118\n      jump\t// in\n    tag_117:\n      pop\n      swap1\n      pop\n      pop\n        /* \"contracts/FakeProdId.sol\":2725:2753  supplierDetails(newSupplier) */\n      0x0e2879159e80c92c57341e91920c4b1af102eebab99c1eca0e8a3c081fbf95ba\n        /* \"contracts/FakeProdId.sol\":2741:2752  newSupplier */\n      dup2\n        /* \"contracts/FakeProdId.sol\":2725:2753  supplierDetails(newSupplier) */\n      mload(0x40)\n      tag_119\n      swap2\n      swap1\n      tag_39\n      jump\t// in\n    tag_119:\n      mload(0x40)\n      dup1\n      swap2\n      sub\n      swap1\n      log1\n        /* \"contracts/FakeProdId.sol\":2395:2761  {\r... */\n      pop\n        /* \"contracts/FakeProdId.sol\":2348:2761  function addSupplier(string memory name) public{\r... */\n      pop\n      jump\t// out\n        /* \"contracts/FakeProdId.sol\":4007:4151  function getdistributorDetails(uint distributorId) public view returns (Distributor memory){\r... */\n    tag_32:\n        /* \"contracts/FakeProdId.sol\":4079:4097  Distributor memory */\n      tag_120\n      tag_121\n      jump\t// in\n    tag_120:\n        /* \"contracts/FakeProdId.sol\":4116:4128  distributors */\n      0x05\n        /* \"contracts/FakeProdId.sol\":4116:4143  distributors[distributorId] */\n      0x00\n        /* \"contracts/FakeProdId.sol\":4129:4142  distributorId */\n      dup4\n        /* \"contracts/FakeProdId.sol\":4116:4143  distributors[distributorId] */\n      dup2\n      mstore\n      0x20\n      add\n      swap1\n      dup2\n      mstore\n      0x20\n      add\n      0x00\n      keccak256\n        /* \"contracts/FakeProdId.sol\":4109:4143  return distributors[distributorId] */\n      mload(0x40)\n      dup1\n      0x80\n      add\n      0x40\n      mstore\n      swap1\n      dup2\n      0x00\n      dup3\n      add\n      sload\n      dup2\n      mstore\n      0x20\n      add\n      0x01\n      dup3\n      add\n      dup1\n      sload\n      tag_123\n      swap1\n      tag_124\n      jump\t// in\n    tag_123:\n      dup1\n      0x1f\n      add\n      0x20\n      dup1\n      swap2\n      div\n      mul\n      0x20\n      add\n      mload(0x40)\n      swap1\n      dup2\n      add\n      0x40\n      mstore\n      dup1\n      swap3\n      swap2\n      swap1\n      dup2\n      dup2\n      mstore\n      0x20\n      add\n      dup3\n      dup1\n      sload\n      tag_125\n      swap1\n      tag_124\n      jump\t// in\n    tag_125:\n      dup1\n      iszero\n      tag_126\n      jumpi\n      dup1\n      0x1f\n      lt\n      tag_127\n      jumpi\n      0x0100\n      dup1\n      dup4\n      sload\n      div\n      mul\n      dup4\n      mstore\n      swap2\n      0x20\n      add\n      swap2\n      jump(tag_126)\n    tag_127:\n      dup3\n      add\n      swap2\n      swap1\n      0x00\n      mstore\n      keccak256(0x00, 0x20)\n      swap1\n    tag_128:\n      dup2\n      sload\n      dup2\n      mstore\n      swap1\n      0x01\n      add\n      swap1\n      0x20\n      add\n      dup1\n      dup4\n      gt\n      tag_128\n      jumpi\n      dup3\n      swap1\n      sub\n      0x1f\n      and\n      dup3\n      add\n      swap2\n    tag_126:\n      pop\n      pop\n      pop\n      pop\n      pop\n      dup2\n      mstore\n      0x20\n      add\n      0x02\n      dup3\n      add\n      dup1\n      sload\n      tag_129\n      swap1\n      tag_124\n      jump\t// in\n    tag_129:\n      dup1\n      0x1f\n      add\n      0x20\n      dup1\n      swap2\n      div\n      mul\n      0x20\n      add\n      mload(0x40)\n      swap1\n      dup2\n      add\n      0x40\n      mstore\n      dup1\n      swap3\n      swap2\n      swap1\n      dup2\n      dup2\n      mstore\n      0x20\n      add\n      dup3\n      dup1\n      sload\n      tag_130\n      swap1\n      tag_124\n      jump\t// in\n    tag_130:\n      dup1\n      iszero\n      tag_131\n      jumpi\n      dup1\n      0x1f\n      lt\n      tag_132\n      jumpi\n      0x0100\n      dup1\n      dup4\n      sload\n      div\n      mul\n      dup4\n      mstore\n      swap2\n      0x20\n      add\n      swap2\n      jump(tag_131)\n    tag_132:\n      dup3\n      add\n      swap2\n      swap1\n      0x00\n      mstore\n      keccak256(0x00, 0x20)\n      swap1\n    tag_133:\n      dup2\n      sload\n      dup2\n      mstore\n      swap1\n      0x01\n      add\n      swap1\n      0x20\n      add\n      dup1\n      dup4\n      gt\n      tag_133\n      jumpi\n      dup3\n      swap1\n      sub\n      0x1f\n      and\n      dup3\n      add\n      swap2\n    tag_131:\n      pop\n      pop\n      pop\n      pop\n      pop\n      dup2\n      mstore\n      0x20\n      add\n      0x03\n      dup3\n      add\n      dup1\n      sload\n      dup1\n      0x20\n      mul\n      0x20\n      add\n      mload(0x40)\n      swap1\n      dup2\n      add\n      0x40\n      mstore\n      dup1\n      swap3\n      swap2\n      swap1\n      dup2\n      dup2\n      mstore\n      0x20\n      add\n      dup3\n      dup1\n      sload\n      dup1\n      iszero\n      tag_134\n      jumpi\n      0x20\n      mul\n      dup3\n      add\n      swap2\n      swap1\n      0x00\n      mstore\n      keccak256(0x00, 0x20)\n      swap1\n    tag_135:\n      dup2\n      sload\n      dup2\n      mstore\n      0x20\n      add\n      swap1\n      0x01\n      add\n      swap1\n      dup1\n      dup4\n      gt\n      tag_135\n      jumpi\n    tag_134:\n      pop\n      pop\n      pop\n      pop\n      pop\n      dup2\n      mstore\n      pop\n      pop\n      swap1\n      pop\n        /* \"contracts/FakeProdId.sol\":4007:4151  function getdistributorDetails(uint distributorId) public view returns (Distributor memory){\r... */\n      swap2\n      swap1\n      pop\n      jump\t// out\n        /* \"contracts/FakeProdId.sol\":2769:2898  function getsupplierDetails(uint supplierId) public view returns (Supplier memory){\r... */\n    tag_37:\n        /* \"contracts/FakeProdId.sol\":2835:2850  Supplier memory */\n      tag_136\n      tag_107\n      jump\t// in\n    tag_136:\n        /* \"contracts/FakeProdId.sol\":2869:2878  suppliers */\n      0x03\n        /* \"contracts/FakeProdId.sol\":2869:2890  suppliers[supplierId] */\n      0x00\n        /* \"contracts/FakeProdId.sol\":2879:2889  supplierId */\n      dup4\n        /* \"contracts/FakeProdId.sol\":2869:2890  suppliers[supplierId] */\n      dup2\n      mstore\n      0x20\n      add\n      swap1\n      dup2\n      mstore\n      0x20\n      add\n      0x00\n      keccak256\n        /* \"contracts/FakeProdId.sol\":2862:2890  return suppliers[supplierId] */\n      mload(0x40)\n      dup1\n      0x80\n      add\n      0x40\n      mstore\n      swap1\n      dup2\n      0x00\n      dup3\n      add\n      sload\n      dup2\n      mstore\n      0x20\n      add\n      0x01\n      dup3\n      add\n      dup1\n      sload\n      tag_138\n      swap1\n      tag_124\n      jump\t// in\n    tag_138:\n      dup1\n      0x1f\n      add\n      0x20\n      dup1\n      swap2\n      div\n      mul\n      0x20\n      add\n      mload(0x40)\n      swap1\n      dup2\n      add\n      0x40\n      mstore\n      dup1\n      swap3\n      swap2\n      swap1\n      dup2\n      dup2\n      mstore\n      0x20\n      add\n      dup3\n      dup1\n      sload\n      tag_139\n      swap1\n      tag_124\n      jump\t// in\n    tag_139:\n      dup1\n      iszero\n      tag_140\n      jumpi\n      dup1\n      0x1f\n      lt\n      tag_141\n      jumpi\n      0x0100\n      dup1\n      dup4\n      sload\n      div\n      mul\n      dup4\n      mstore\n      swap2\n      0x20\n      add\n      swap2\n      jump(tag_140)\n    tag_141:\n      dup3\n      add\n      swap2\n      swap1\n      0x00\n      mstore\n      keccak256(0x00, 0x20)\n      swap1\n    tag_142:\n      dup2\n      sload\n      dup2\n      mstore\n      swap1\n      0x01\n      add\n      swap1\n      0x20\n      add\n      dup1\n      dup4\n      gt\n      tag_142\n      jumpi\n      dup3\n      swap1\n      sub\n      0x1f\n      and\n      dup3\n      add\n      swap2\n    tag_140:\n      pop\n      pop\n      pop\n      pop\n      pop\n      dup2\n      mstore\n      0x20\n      add\n      0x02\n      dup3\n      add\n      dup1\n      sload\n      tag_143\n      swap1\n      tag_124\n      jump\t// in\n    tag_143:\n      dup1\n      0x1f\n      add\n      0x20\n      dup1\n      swap2\n      div\n      mul\n      0x20\n      add\n      mload(0x40)\n      swap1\n      dup2\n      add\n      0x40\n      mstore\n      dup1\n      swap3\n      swap2\n      swap1\n      dup2\n      dup2\n      mstore\n      0x20\n      add\n      dup3\n      dup1\n      sload\n      tag_144\n      swap1\n      tag_124\n      jump\t// in\n    tag_144:\n      dup1\n      iszero\n      tag_145\n      jumpi\n      dup1\n      0x1f\n      lt\n      tag_146\n      jumpi\n      0x0100\n      dup1\n      dup4\n      sload\n      div\n      mul\n      dup4\n      mstore\n      swap2\n      0x20\n      add\n      swap2\n      jump(tag_145)\n    tag_146:\n      dup3\n      add\n      swap2\n      swap1\n      0x00\n      mstore\n      keccak256(0x00, 0x20)\n      swap1\n    tag_147:\n      dup2\n      sload\n      dup2\n      mstore\n      swap1\n      0x01\n      add\n      swap1\n      0x20\n      add\n      dup1\n      dup4\n      gt\n      tag_147\n      jumpi\n      dup3\n      swap1\n      sub\n      0x1f\n      and\n      dup3\n      add\n      swap2\n    tag_145:\n      pop\n      pop\n      pop\n      pop\n      pop\n      dup2\n      mstore\n      0x20\n      add\n      0x03\n      dup3\n      add\n      dup1\n      sload\n      dup1\n      0x20\n      mul\n      0x20\n      add\n      mload(0x40)\n      swap1\n      dup2\n      add\n      0x40\n      mstore\n      dup1\n      swap3\n      swap2\n      swap1\n      dup2\n      dup2\n      mstore\n      0x20\n      add\n      dup3\n      dup1\n      sload\n      dup1\n      iszero\n      tag_148\n      jumpi\n      0x20\n      mul\n      dup3\n      add\n      swap2\n      swap1\n      0x00\n      mstore\n      keccak256(0x00, 0x20)\n      swap1\n    tag_149:\n      dup2\n      sload\n      dup2\n      mstore\n      0x20\n      add\n      swap1\n      0x01\n      add\n      swap1\n      dup1\n      dup4\n      gt\n      tag_149\n      jumpi\n    tag_148:\n      pop\n      pop\n      pop\n      pop\n      pop\n      dup2\n      mstore\n      pop\n      pop\n      swap1\n      pop\n        /* \"contracts/FakeProdId.sol\":2769:2898  function getsupplierDetails(uint supplierId) public view returns (Supplier memory){\r... */\n      swap2\n      swap1\n      pop\n      jump\t// out\n        /* \"contracts/FakeProdId.sol\":1452:1500  mapping(uint => Distributor) public distributors */\n    tag_42:\n      mstore(0x20, 0x05)\n      dup1\n      0x00\n      mstore\n      keccak256(0x00, 0x40)\n      0x00\n      swap2\n      pop\n      swap1\n      pop\n      dup1\n      0x00\n      add\n      sload\n      swap1\n      dup1\n      0x01\n      add\n      dup1\n      sload\n      tag_150\n      swap1\n      tag_124\n      jump\t// in\n    tag_150:\n      dup1\n      0x1f\n      add\n      0x20\n      dup1\n      swap2\n      div\n      mul\n      0x20\n      add\n      mload(0x40)\n      swap1\n      dup2\n      add\n      0x40\n      mstore\n      dup1\n      swap3\n      swap2\n      swap1\n      dup2\n      dup2\n      mstore\n      0x20\n      add\n      dup3\n      dup1\n      sload\n      tag_151\n      swap1\n      tag_124\n      jump\t// in\n    tag_151:\n      dup1\n      iszero\n      tag_152\n      jumpi\n      dup1\n      0x1f\n      lt\n      tag_153\n      jumpi\n      0x0100\n      dup1\n      dup4\n      sload\n      div\n      mul\n      dup4\n      mstore\n      swap2\n      0x20\n      add\n      swap2\n      jump(tag_152)\n    tag_153:\n      dup3\n      add\n      swap2\n      swap1\n      0x00\n      mstore\n      keccak256(0x00, 0x20)\n      swap1\n    tag_154:\n      dup2\n      sload\n      dup2\n      mstore\n      swap1\n      0x01\n      add\n      swap1\n      0x20\n      add\n      dup1\n      dup4\n      gt\n      tag_154\n      jumpi\n      dup3\n      swap1\n      sub\n      0x1f\n      and\n      dup3\n      add\n      swap2\n    tag_152:\n      pop\n      pop\n      pop\n      pop\n      pop\n      swap1\n      dup1\n      0x02\n      add\n      dup1\n      sload\n      tag_155\n      swap1\n      tag_124\n      jump\t// in\n    tag_155:\n      dup1\n      0x1f\n      add\n      0x20\n      dup1\n      swap2\n      div\n      mul\n      0x20\n      add\n      mload(0x40)\n      swap1\n      dup2\n      add\n      0x40\n      mstore\n      dup1\n      swap3\n      swap2\n      swap1\n      dup2\n      dup2\n      mstore\n      0x20\n      add\n      dup3\n      dup1\n      sload\n      tag_156\n      swap1\n      tag_124\n      jump\t// in\n    tag_156:\n      dup1\n      iszero\n      tag_157\n      jumpi\n      dup1\n      0x1f\n      lt\n      tag_158\n      jumpi\n      0x0100\n      dup1\n      dup4\n      sload\n      div\n      mul\n      dup4\n      mstore\n      swap2\n      0x20\n      add\n      swap2\n      jump(tag_157)\n    tag_158:\n      dup3\n      add\n      swap2\n      swap1\n      0x00\n      mstore\n      keccak256(0x00, 0x20)\n      swap1\n    tag_159:\n      dup2\n      sload\n      dup2\n      mstore\n      swap1\n      0x01\n      add\n      swap1\n      0x20\n      add\n      dup1\n      dup4\n      gt\n      tag_159\n      jumpi\n      dup3\n      swap1\n      sub\n      0x1f\n      and\n      dup3\n      add\n      swap2\n    tag_157:\n      pop\n      pop\n      pop\n      pop\n      pop\n      swap1\n      pop\n      dup4\n      jump\t// out\n        /* \"contracts/FakeProdId.sol\":1273:1313  mapping(uint => Product) public products */\n    tag_47:\n      mstore(0x20, 0x01)\n      dup1\n      0x00\n      mstore\n      keccak256(0x00, 0x40)\n      0x00\n      swap2\n      pop\n      swap1\n      pop\n      dup1\n      0x00\n      add\n      sload\n      swap1\n      dup1\n      0x01\n      add\n      dup1\n      sload\n      tag_160\n      swap1\n      tag_124\n      jump\t// in\n    tag_160:\n      dup1\n      0x1f\n      add\n      0x20\n      dup1\n      swap2\n      div\n      mul\n      0x20\n      add\n      mload(0x40)\n      swap1\n      dup2\n      add\n      0x40\n      mstore\n      dup1\n      swap3\n      swap2\n      swap1\n      dup2\n      dup2\n      mstore\n      0x20\n      add\n      dup3\n      dup1\n      sload\n      tag_161\n      swap1\n      tag_124\n      jump\t// in\n    tag_161:\n      dup1\n      iszero\n      tag_162\n      jumpi\n      dup1\n      0x1f\n      lt\n      tag_163\n      jumpi\n      0x0100\n      dup1\n      dup4\n      sload\n      div\n      mul\n      dup4\n      mstore\n      swap2\n      0x20\n      add\n      swap2\n      jump(tag_162)\n    tag_163:\n      dup3\n      add\n      swap2\n      swap1\n      0x00\n      mstore\n      keccak256(0x00, 0x20)\n      swap1\n    tag_164:\n      dup2\n      sload\n      dup2\n      mstore\n      swap1\n      0x01\n      add\n      swap1\n      0x20\n      add\n      dup1\n      dup4\n      gt\n      tag_164\n      jumpi\n      dup3\n      swap1\n      sub\n      0x1f\n      and\n      dup3\n      add\n      swap2\n    tag_162:\n      pop\n      pop\n      pop\n      pop\n      pop\n      swap1\n      dup1\n      0x02\n      add\n      sload\n      swap1\n      dup1\n      0x03\n      add\n      dup1\n      sload\n      tag_165\n      swap1\n      tag_124\n      jump\t// in\n    tag_165:\n      dup1\n      0x1f\n      add\n      0x20\n      dup1\n      swap2\n      div\n      mul\n      0x20\n      add\n      mload(0x40)\n      swap1\n      dup2\n      add\n      0x40\n      mstore\n      dup1\n      swap3\n      swap2\n      swap1\n      dup2\n      dup2\n      mstore\n      0x20\n      add\n      dup3\n      dup1\n      sload\n      tag_166\n      swap1\n      tag_124\n      jump\t// in\n    tag_166:\n      dup1\n      iszero\n      tag_167\n      jumpi\n      dup1\n      0x1f\n      lt\n      tag_168\n      jumpi\n      0x0100\n      dup1\n      dup4\n      sload\n      div\n      mul\n      dup4\n      mstore\n      swap2\n      0x20\n      add\n      swap2\n      jump(tag_167)\n    tag_168:\n      dup3\n      add\n      swap2\n      swap1\n      0x00\n      mstore\n      keccak256(0x00, 0x20)\n      swap1\n    tag_169:\n      dup2\n      sload\n      dup2\n      mstore\n      swap1\n      0x01\n      add\n      swap1\n      0x20\n      add\n      dup1\n      dup4\n      gt\n      tag_169\n      jumpi\n      dup3\n      swap1\n      sub\n      0x1f\n      and\n      dup3\n      add\n      swap2\n    tag_167:\n      pop\n      pop\n      pop\n      pop\n      pop\n      swap1\n      dup1\n      0x04\n      add\n      dup1\n      sload\n      tag_170\n      swap1\n      tag_124\n      jump\t// in\n    tag_170:\n      dup1\n      0x1f\n      add\n      0x20\n      dup1\n      swap2\n      div\n      mul\n      0x20\n      add\n      mload(0x40)\n      swap1\n      dup2\n      add\n      0x40\n      mstore\n      dup1\n      swap3\n      swap2\n      swap1\n      dup2\n      dup2\n      mstore\n      0x20\n      add\n      dup3\n      dup1\n      sload\n      tag_171\n      swap1\n      tag_124\n      jump\t// in\n    tag_171:\n      dup1\n      iszero\n      tag_172\n      jumpi\n      dup1\n      0x1f\n      lt\n      tag_173\n      jumpi\n      0x0100\n      dup1\n      dup4\n      sload\n      div\n      mul\n      dup4\n      mstore\n      swap2\n      0x20\n      add\n      swap2\n      jump(tag_172)\n    tag_173:\n      dup3\n      add\n      swap2\n      swap1\n      0x00\n      mstore\n      keccak256(0x00, 0x20)\n      swap1\n    tag_174:\n      dup2\n      sload\n      dup2\n      mstore\n      swap1\n      0x01\n      add\n      swap1\n      0x20\n      add\n      dup1\n      dup4\n      gt\n      tag_174\n      jumpi\n      dup3\n      swap1\n      sub\n      0x1f\n      and\n      dup3\n      add\n      swap2\n    tag_172:\n      pop\n      pop\n      pop\n      pop\n      pop\n      swap1\n      dup1\n      0x05\n      add\n      sload\n      swap1\n      pop\n      dup7\n      jump\t// out\n        /* \"contracts/FakeProdId.sol\":3540:3995  function addDistributor(string memory name) public{\r... */\n    tag_52:\n        /* \"contracts/FakeProdId.sol\":3601:3634  Distributor memory newDistributor */\n      tag_176\n      tag_121\n      jump\t// in\n    tag_176:\n        /* \"contracts/FakeProdId.sol\":3700:3704  name */\n      dup2\n        /* \"contracts/FakeProdId.sol\":3705:3720  block.timestamp */\n      timestamp\n        /* \"contracts/FakeProdId.sol\":3721:3737  block.difficulty */\n      difficulty\n        /* \"contracts/FakeProdId.sol\":3689:3738  abi.encode(name,block.timestamp,block.difficulty) */\n      add(0x20, mload(0x40))\n      tag_177\n      swap4\n      swap3\n      swap2\n      swap1\n      tag_109\n      jump\t// in\n    tag_177:\n      mload(0x40)\n      0x20\n      dup2\n      dup4\n      sub\n      sub\n      dup2\n      mstore\n      swap1\n      0x40\n      mstore\n        /* \"contracts/FakeProdId.sol\":3679:3739  keccak256(abi.encode(name,block.timestamp,block.difficulty)) */\n      dup1\n      mload\n      swap1\n      0x20\n      add\n      keccak256\n        /* \"contracts/FakeProdId.sol\":3674:3740  uint(keccak256(abi.encode(name,block.timestamp,block.difficulty))) */\n      0x00\n      shr\n        /* \"contracts/FakeProdId.sol\":3645:3659  newDistributor */\n      dup2\n        /* \"contracts/FakeProdId.sol\":3645:3673  newDistributor.distributorId */\n      0x00\n      add\n        /* \"contracts/FakeProdId.sol\":3645:3740  newDistributor.distributorId=uint(keccak256(abi.encode(name,block.timestamp,block.difficulty))) */\n      dup2\n      dup2\n      mstore\n      pop\n      pop\n        /* \"contracts/FakeProdId.sol\":3751:3777  newDistributor.kind = \"DI\" */\n      mload(0x40)\n      dup1\n      0x40\n      add\n      0x40\n      mstore\n      dup1\n      0x02\n      dup2\n      mstore\n      0x20\n      add\n      0x4449000000000000000000000000000000000000000000000000000000000000\n      dup2\n      mstore\n      pop\n        /* \"contracts/FakeProdId.sol\":3751:3765  newDistributor */\n      dup2\n        /* \"contracts/FakeProdId.sol\":3751:3770  newDistributor.kind */\n      0x20\n      add\n        /* \"contracts/FakeProdId.sol\":3751:3777  newDistributor.kind = \"DI\" */\n      dup2\n      swap1\n      mstore\n      pop\n        /* \"contracts/FakeProdId.sol\":3810:3814  name */\n      dup2\n        /* \"contracts/FakeProdId.sol\":3788:3802  newDistributor */\n      dup2\n        /* \"contracts/FakeProdId.sol\":3788:3807  newDistributor.name */\n      0x40\n      add\n        /* \"contracts/FakeProdId.sol\":3788:3814  newDistributor.name = name */\n      dup2\n      swap1\n      mstore\n      pop\n        /* \"contracts/FakeProdId.sol\":3865:3866  0 */\n      0x00\n        /* \"contracts/FakeProdId.sol\":3854:3867  new uint[](0) */\n      0xffffffffffffffff\n      dup2\n      gt\n      iszero\n      tag_178\n      jumpi\n      tag_179\n      tag_112\n      jump\t// in\n    tag_179:\n    tag_178:\n      mload(0x40)\n      swap1\n      dup1\n      dup3\n      mstore\n      dup1\n      0x20\n      mul\n      0x20\n      add\n      dup3\n      add\n      0x40\n      mstore\n      dup1\n      iszero\n      tag_180\n      jumpi\n      dup2\n      0x20\n      add\n      0x20\n      dup3\n      mul\n      dup1\n      calldatasize\n      dup4\n      calldatacopy\n      dup1\n      dup3\n      add\n      swap2\n      pop\n      pop\n      swap1\n      pop\n    tag_180:\n      pop\n        /* \"contracts/FakeProdId.sol\":3825:3839  newDistributor */\n      dup2\n        /* \"contracts/FakeProdId.sol\":3825:3851  newDistributor.productList */\n      0x60\n      add\n        /* \"contracts/FakeProdId.sol\":3825:3867  newDistributor.productList = new uint[](0) */\n      dup2\n      swap1\n      mstore\n      pop\n        /* \"contracts/FakeProdId.sol\":3923:3937  newDistributor */\n      dup1\n        /* \"contracts/FakeProdId.sol\":3878:3890  distributors */\n      0x05\n        /* \"contracts/FakeProdId.sol\":3878:3920  distributors[newDistributor.distributorId] */\n      0x00\n        /* \"contracts/FakeProdId.sol\":3891:3905  newDistributor */\n      dup4\n        /* \"contracts/FakeProdId.sol\":3891:3919  newDistributor.distributorId */\n      0x00\n      add\n      mload\n        /* \"contracts/FakeProdId.sol\":3878:3920  distributors[newDistributor.distributorId] */\n      dup2\n      mstore\n      0x20\n      add\n      swap1\n      dup2\n      mstore\n      0x20\n      add\n      0x00\n      keccak256\n        /* \"contracts/FakeProdId.sol\":3878:3937  distributors[newDistributor.distributorId] = newDistributor */\n      0x00\n      dup3\n      add\n      mload\n      dup2\n      0x00\n      add\n      sstore\n      0x20\n      dup3\n      add\n      mload\n      dup2\n      0x01\n      add\n      swap1\n      dup1\n      mload\n      swap1\n      0x20\n      add\n      swap1\n      tag_181\n      swap3\n      swap2\n      swap1\n      tag_115\n      jump\t// in\n    tag_181:\n      pop\n      0x40\n      dup3\n      add\n      mload\n      dup2\n      0x02\n      add\n      swap1\n      dup1\n      mload\n      swap1\n      0x20\n      add\n      swap1\n      tag_182\n      swap3\n      swap2\n      swap1\n      tag_115\n      jump\t// in\n    tag_182:\n      pop\n      0x60\n      dup3\n      add\n      mload\n      dup2\n      0x03\n      add\n      swap1\n      dup1\n      mload\n      swap1\n      0x20\n      add\n      swap1\n      tag_183\n      swap3\n      swap2\n      swap1\n      tag_118\n      jump\t// in\n    tag_183:\n      pop\n      swap1\n      pop\n      pop\n        /* \"contracts/FakeProdId.sol\":3953:3987  distributorDetails(newDistributor) */\n      0x4fbe23d5058e501d2ac74e9b5146f125d6c6ae6c3475d9431498262e998ee8e0\n        /* \"contracts/FakeProdId.sol\":3972:3986  newDistributor */\n      dup2\n        /* \"contracts/FakeProdId.sol\":3953:3987  distributorDetails(newDistributor) */\n      mload(0x40)\n      tag_184\n      swap2\n      swap1\n      tag_34\n      jump\t// in\n    tag_184:\n      mload(0x40)\n      dup1\n      swap2\n      sub\n      swap1\n      log1\n        /* \"contracts/FakeProdId.sol\":3590:3995  {\r... */\n      pop\n        /* \"contracts/FakeProdId.sol\":3540:3995  function addDistributor(string memory name) public{\r... */\n      pop\n      jump\t// out\n        /* \"contracts/FakeProdId.sol\":1507:1549  mapping(uint => Retailer) public retailers */\n    tag_55:\n      mstore(0x20, 0x06)\n      dup1\n      0x00\n      mstore\n      keccak256(0x00, 0x40)\n      0x00\n      swap2\n      pop\n      swap1\n      pop\n      dup1\n      0x00\n      add\n      sload\n      swap1\n      dup1\n      0x01\n      add\n      dup1\n      sload\n      tag_185\n      swap1\n      tag_124\n      jump\t// in\n    tag_185:\n      dup1\n      0x1f\n      add\n      0x20\n      dup1\n      swap2\n      div\n      mul\n      0x20\n      add\n      mload(0x40)\n      swap1\n      dup2\n      add\n      0x40\n      mstore\n      dup1\n      swap3\n      swap2\n      swap1\n      dup2\n      dup2\n      mstore\n      0x20\n      add\n      dup3\n      dup1\n      sload\n      tag_186\n      swap1\n      tag_124\n      jump\t// in\n    tag_186:\n      dup1\n      iszero\n      tag_187\n      jumpi\n      dup1\n      0x1f\n      lt\n      tag_188\n      jumpi\n      0x0100\n      dup1\n      dup4\n      sload\n      div\n      mul\n      dup4\n      mstore\n      swap2\n      0x20\n      add\n      swap2\n      jump(tag_187)\n    tag_188:\n      dup3\n      add\n      swap2\n      swap1\n      0x00\n      mstore\n      keccak256(0x00, 0x20)\n      swap1\n    tag_189:\n      dup2\n      sload\n      dup2\n      mstore\n      swap1\n      0x01\n      add\n      swap1\n      0x20\n      add\n      dup1\n      dup4\n      gt\n      tag_189\n      jumpi\n      dup3\n      swap1\n      sub\n      0x1f\n      and\n      dup3\n      add\n      swap2\n    tag_187:\n      pop\n      pop\n      pop\n      pop\n      pop\n      swap1\n      pop\n      dup3\n      jump\t// out\n        /* \"contracts/FakeProdId.sol\":1558:2100  function addProduct(string memory name,uint price,string memory description) public{\r... */\n    tag_61:\n        /* \"contracts/FakeProdId.sol\":1652:1677  Product memory newProduct */\n      tag_191\n      tag_192\n      jump\t// in\n    tag_191:\n        /* \"contracts/FakeProdId.sol\":1735:1739  name */\n      dup4\n        /* \"contracts/FakeProdId.sol\":1740:1755  block.timestamp */\n      timestamp\n        /* \"contracts/FakeProdId.sol\":1756:1772  block.difficulty */\n      difficulty\n        /* \"contracts/FakeProdId.sol\":1724:1773  abi.encode(name,block.timestamp,block.difficulty) */\n      add(0x20, mload(0x40))\n      tag_193\n      swap4\n      swap3\n      swap2\n      swap1\n      tag_109\n      jump\t// in\n    tag_193:\n      mload(0x40)\n      0x20\n      dup2\n      dup4\n      sub\n      sub\n      dup2\n      mstore\n      swap1\n      0x40\n      mstore\n        /* \"contracts/FakeProdId.sol\":1714:1774  keccak256(abi.encode(name,block.timestamp,block.difficulty)) */\n      dup1\n      mload\n      swap1\n      0x20\n      add\n      keccak256\n        /* \"contracts/FakeProdId.sol\":1709:1775  uint(keccak256(abi.encode(name,block.timestamp,block.difficulty))) */\n      0x00\n      shr\n        /* \"contracts/FakeProdId.sol\":1688:1698  newProduct */\n      dup2\n        /* \"contracts/FakeProdId.sol\":1688:1708  newProduct.productId */\n      0x00\n      add\n        /* \"contracts/FakeProdId.sol\":1688:1775  newProduct.productId=uint(keccak256(abi.encode(name,block.timestamp,block.difficulty))) */\n      dup2\n      dup2\n      mstore\n      pop\n      pop\n        /* \"contracts/FakeProdId.sol\":1804:1808  name */\n      dup4\n        /* \"contracts/FakeProdId.sol\":1786:1796  newProduct */\n      dup2\n        /* \"contracts/FakeProdId.sol\":1786:1801  newProduct.name */\n      0x20\n      add\n        /* \"contracts/FakeProdId.sol\":1786:1808  newProduct.name = name */\n      dup2\n      swap1\n      mstore\n      pop\n        /* \"contracts/FakeProdId.sol\":1838:1843  price */\n      dup3\n        /* \"contracts/FakeProdId.sol\":1819:1829  newProduct */\n      dup2\n        /* \"contracts/FakeProdId.sol\":1819:1835  newProduct.price */\n      0x40\n      add\n        /* \"contracts/FakeProdId.sol\":1819:1843  newProduct.price = price */\n      dup2\n      dup2\n      mstore\n      pop\n      pop\n        /* \"contracts/FakeProdId.sol\":1879:1890  description */\n      dup2\n        /* \"contracts/FakeProdId.sol\":1854:1864  newProduct */\n      dup2\n        /* \"contracts/FakeProdId.sol\":1854:1876  newProduct.description */\n      0x60\n      add\n        /* \"contracts/FakeProdId.sol\":1854:1890  newProduct.description = description */\n      dup2\n      swap1\n      mstore\n      pop\n        /* \"contracts/FakeProdId.sol\":1901:1925  newProduct.curOwner = \"\" */\n      mload(0x40)\n      dup1\n      0x20\n      add\n      0x40\n      mstore\n      dup1\n      0x00\n      dup2\n      mstore\n      pop\n        /* \"contracts/FakeProdId.sol\":1901:1911  newProduct */\n      dup2\n        /* \"contracts/FakeProdId.sol\":1901:1920  newProduct.curOwner */\n      0x80\n      add\n        /* \"contracts/FakeProdId.sol\":1901:1925  newProduct.curOwner = \"\" */\n      dup2\n      swap1\n      mstore\n      pop\n        /* \"contracts/FakeProdId.sol\":1960:1961  0 */\n      0x00\n        /* \"contracts/FakeProdId.sol\":1936:1946  newProduct */\n      dup2\n        /* \"contracts/FakeProdId.sol\":1936:1957  newProduct.curOwnerId */\n      0xa0\n      add\n        /* \"contracts/FakeProdId.sol\":1936:1961  newProduct.curOwnerId = 0 */\n      dup2\n      dup2\n      mstore\n      pop\n      pop\n        /* \"contracts/FakeProdId.sol\":2005:2015  newProduct */\n      dup1\n        /* \"contracts/FakeProdId.sol\":1972:1980  products */\n      0x01\n        /* \"contracts/FakeProdId.sol\":1972:2002  products[newProduct.productId] */\n      0x00\n        /* \"contracts/FakeProdId.sol\":1981:1991  newProduct */\n      dup4\n        /* \"contracts/FakeProdId.sol\":1981:2001  newProduct.productId */\n      0x00\n      add\n      mload\n        /* \"contracts/FakeProdId.sol\":1972:2002  products[newProduct.productId] */\n      dup2\n      mstore\n      0x20\n      add\n      swap1\n      dup2\n      mstore\n      0x20\n      add\n      0x00\n      keccak256\n        /* \"contracts/FakeProdId.sol\":1972:2015  products[newProduct.productId] = newProduct */\n      0x00\n      dup3\n      add\n      mload\n      dup2\n      0x00\n      add\n      sstore\n      0x20\n      dup3\n      add\n      mload\n      dup2\n      0x01\n      add\n      swap1\n      dup1\n      mload\n      swap1\n      0x20\n      add\n      swap1\n      tag_194\n      swap3\n      swap2\n      swap1\n      tag_115\n      jump\t// in\n    tag_194:\n      pop\n      0x40\n      dup3\n      add\n      mload\n      dup2\n      0x02\n      add\n      sstore\n      0x60\n      dup3\n      add\n      mload\n      dup2\n      0x03\n      add\n      swap1\n      dup1\n      mload\n      swap1\n      0x20\n      add\n      swap1\n      tag_195\n      swap3\n      swap2\n      swap1\n      tag_115\n      jump\t// in\n    tag_195:\n      pop\n      0x80\n      dup3\n      add\n      mload\n      dup2\n      0x04\n      add\n      swap1\n      dup1\n      mload\n      swap1\n      0x20\n      add\n      swap1\n      tag_196\n      swap3\n      swap2\n      swap1\n      tag_115\n      jump\t// in\n    tag_196:\n      pop\n      0xa0\n      dup3\n      add\n      mload\n      dup2\n      0x05\n      add\n      sstore\n      swap1\n      pop\n      pop\n        /* \"contracts/FakeProdId.sol\":2026:2038  productsSize */\n      0x02\n      0x00\n        /* \"contracts/FakeProdId.sol\":2026:2040  productsSize++ */\n      dup2\n      sload\n      dup1\n      swap3\n      swap2\n      swap1\n      tag_197\n      swap1\n      tag_198\n      jump\t// in\n    tag_197:\n      swap2\n      swap1\n      pop\n      sstore\n      pop\n        /* \"contracts/FakeProdId.sol\":2056:2092  prodDetails(newProduct,productsSize) */\n      0x0b9650a646eaf16194343a0e5cf05c4a99cfbffbf2a7630c4eaf6f3263a931d8\n        /* \"contracts/FakeProdId.sol\":2068:2078  newProduct */\n      dup2\n        /* \"contracts/FakeProdId.sol\":2079:2091  productsSize */\n      sload(0x02)\n        /* \"contracts/FakeProdId.sol\":2056:2092  prodDetails(newProduct,productsSize) */\n      mload(0x40)\n      tag_199\n      swap3\n      swap2\n      swap1\n      tag_200\n      jump\t// in\n    tag_199:\n      mload(0x40)\n      dup1\n      swap2\n      sub\n      swap1\n      log1\n        /* \"contracts/FakeProdId.sol\":1641:2100  {\r... */\n      pop\n        /* \"contracts/FakeProdId.sol\":1558:2100  function addProduct(string memory name,uint price,string memory description) public{\r... */\n      pop\n      pop\n      pop\n      jump\t// out\n        /* \"contracts/FakeProdId.sol\":2906:3375  function addManufacturer(string memory name) public{\r... */\n    tag_64:\n        /* \"contracts/FakeProdId.sol\":2968:3003  Manufacturer memory newManufacturer */\n      tag_202\n      tag_203\n      jump\t// in\n    tag_202:\n        /* \"contracts/FakeProdId.sol\":3071:3075  name */\n      dup2\n        /* \"contracts/FakeProdId.sol\":3076:3091  block.timestamp */\n      timestamp\n        /* \"contracts/FakeProdId.sol\":3092:3108  block.difficulty */\n      difficulty\n        /* \"contracts/FakeProdId.sol\":3060:3109  abi.encode(name,block.timestamp,block.difficulty) */\n      add(0x20, mload(0x40))\n      tag_204\n      swap4\n      swap3\n      swap2\n      swap1\n      tag_109\n      jump\t// in\n    tag_204:\n      mload(0x40)\n      0x20\n      dup2\n      dup4\n      sub\n      sub\n      dup2\n      mstore\n      swap1\n      0x40\n      mstore\n        /* \"contracts/FakeProdId.sol\":3050:3110  keccak256(abi.encode(name,block.timestamp,block.difficulty)) */\n      dup1\n      mload\n      swap1\n      0x20\n      add\n      keccak256\n        /* \"contracts/FakeProdId.sol\":3045:3111  uint(keccak256(abi.encode(name,block.timestamp,block.difficulty))) */\n      0x00\n      shr\n        /* \"contracts/FakeProdId.sol\":3014:3029  newManufacturer */\n      dup2\n        /* \"contracts/FakeProdId.sol\":3014:3044  newManufacturer.manufacturerId */\n      0x00\n      add\n        /* \"contracts/FakeProdId.sol\":3014:3111  newManufacturer.manufacturerId=uint(keccak256(abi.encode(name,block.timestamp,block.difficulty))) */\n      dup2\n      dup2\n      mstore\n      pop\n      pop\n        /* \"contracts/FakeProdId.sol\":3122:3149  newManufacturer.kind = \"MA\" */\n      mload(0x40)\n      dup1\n      0x40\n      add\n      0x40\n      mstore\n      dup1\n      0x02\n      dup2\n      mstore\n      0x20\n      add\n      0x4d41000000000000000000000000000000000000000000000000000000000000\n      dup2\n      mstore\n      pop\n        /* \"contracts/FakeProdId.sol\":3122:3137  newManufacturer */\n      dup2\n        /* \"contracts/FakeProdId.sol\":3122:3142  newManufacturer.kind */\n      0x20\n      add\n        /* \"contracts/FakeProdId.sol\":3122:3149  newManufacturer.kind = \"MA\" */\n      dup2\n      swap1\n      mstore\n      pop\n        /* \"contracts/FakeProdId.sol\":3183:3187  name */\n      dup2\n        /* \"contracts/FakeProdId.sol\":3160:3175  newManufacturer */\n      dup2\n        /* \"contracts/FakeProdId.sol\":3160:3180  newManufacturer.name */\n      0x40\n      add\n        /* \"contracts/FakeProdId.sol\":3160:3187  newManufacturer.name = name */\n      dup2\n      swap1\n      mstore\n      pop\n        /* \"contracts/FakeProdId.sol\":3239:3240  0 */\n      0x00\n        /* \"contracts/FakeProdId.sol\":3228:3241  new uint[](0) */\n      0xffffffffffffffff\n      dup2\n      gt\n      iszero\n      tag_205\n      jumpi\n      tag_206\n      tag_112\n      jump\t// in\n    tag_206:\n    tag_205:\n      mload(0x40)\n      swap1\n      dup1\n      dup3\n      mstore\n      dup1\n      0x20\n      mul\n      0x20\n      add\n      dup3\n      add\n      0x40\n      mstore\n      dup1\n      iszero\n      tag_207\n      jumpi\n      dup2\n      0x20\n      add\n      0x20\n      dup3\n      mul\n      dup1\n      calldatasize\n      dup4\n      calldatacopy\n      dup1\n      dup3\n      add\n      swap2\n      pop\n      pop\n      swap1\n      pop\n    tag_207:\n      pop\n        /* \"contracts/FakeProdId.sol\":3198:3213  newManufacturer */\n      dup2\n        /* \"contracts/FakeProdId.sol\":3198:3225  newManufacturer.productList */\n      0x60\n      add\n        /* \"contracts/FakeProdId.sol\":3198:3241  newManufacturer.productList = new uint[](0) */\n      dup2\n      swap1\n      mstore\n      pop\n        /* \"contracts/FakeProdId.sol\":3300:3315  newManufacturer */\n      dup1\n        /* \"contracts/FakeProdId.sol\":3252:3265  manufacturers */\n      0x04\n        /* \"contracts/FakeProdId.sol\":3252:3297  manufacturers[newManufacturer.manufacturerId] */\n      0x00\n        /* \"contracts/FakeProdId.sol\":3266:3281  newManufacturer */\n      dup4\n        /* \"contracts/FakeProdId.sol\":3266:3296  newManufacturer.manufacturerId */\n      0x00\n      add\n      mload\n        /* \"contracts/FakeProdId.sol\":3252:3297  manufacturers[newManufacturer.manufacturerId] */\n      dup2\n      mstore\n      0x20\n      add\n      swap1\n      dup2\n      mstore\n      0x20\n      add\n      0x00\n      keccak256\n        /* \"contracts/FakeProdId.sol\":3252:3315  manufacturers[newManufacturer.manufacturerId] = newManufacturer */\n      0x00\n      dup3\n      add\n      mload\n      dup2\n      0x00\n      add\n      sstore\n      0x20\n      dup3\n      add\n      mload\n      dup2\n      0x01\n      add\n      swap1\n      dup1\n      mload\n      swap1\n      0x20\n      add\n      swap1\n      tag_208\n      swap3\n      swap2\n      swap1\n      tag_115\n      jump\t// in\n    tag_208:\n      pop\n      0x40\n      dup3\n      add\n      mload\n      dup2\n      0x02\n      add\n      swap1\n      dup1\n      mload\n      swap1\n      0x20\n      add\n      swap1\n      tag_209\n      swap3\n      swap2\n      swap1\n      tag_115\n      jump\t// in\n    tag_209:\n      pop\n      0x60\n      dup3\n      add\n      mload\n      dup2\n      0x03\n      add\n      swap1\n      dup1\n      mload\n      swap1\n      0x20\n      add\n      swap1\n      tag_210\n      swap3\n      swap2\n      swap1\n      tag_118\n      jump\t// in\n    tag_210:\n      pop\n      swap1\n      pop\n      pop\n        /* \"contracts/FakeProdId.sol\":3331:3367  manufacturerDetails(newManufacturer) */\n      0xc127163e194edd469d13210787466a0adb629f336e45d1fc7bc4e2797805615e\n        /* \"contracts/FakeProdId.sol\":3351:3366  newManufacturer */\n      dup2\n        /* \"contracts/FakeProdId.sol\":3331:3367  manufacturerDetails(newManufacturer) */\n      mload(0x40)\n      tag_211\n      swap2\n      swap1\n      tag_91\n      jump\t// in\n    tag_211:\n      mload(0x40)\n      dup1\n      swap2\n      sub\n      swap1\n      log1\n        /* \"contracts/FakeProdId.sol\":2957:3375  {\r... */\n      pop\n        /* \"contracts/FakeProdId.sol\":2906:3375  function addManufacturer(string memory name) public{\r... */\n      pop\n      jump\t// out\n        /* \"contracts/FakeProdId.sol\":1395:1445  mapping(uint => Manufacturer) public manufacturers */\n    tag_67:\n      mstore(0x20, 0x04)\n      dup1\n      0x00\n      mstore\n      keccak256(0x00, 0x40)\n      0x00\n      swap2\n      pop\n      swap1\n      pop\n      dup1\n      0x00\n      add\n      sload\n      swap1\n      dup1\n      0x01\n      add\n      dup1\n      sload\n      tag_212\n      swap1\n      tag_124\n      jump\t// in\n    tag_212:\n      dup1\n      0x1f\n      add\n      0x20\n      dup1\n      swap2\n      div\n      mul\n      0x20\n      add\n      mload(0x40)\n      swap1\n      dup2\n      add\n      0x40\n      mstore\n      dup1\n      swap3\n      swap2\n      swap1\n      dup2\n      dup2\n      mstore\n      0x20\n      add\n      dup3\n      dup1\n      sload\n      tag_213\n      swap1\n      tag_124\n      jump\t// in\n    tag_213:\n      dup1\n      iszero\n      tag_214\n      jumpi\n      dup1\n      0x1f\n      lt\n      tag_215\n      jumpi\n      0x0100\n      dup1\n      dup4\n      sload\n      div\n      mul\n      dup4\n      mstore\n      swap2\n      0x20\n      add\n      swap2\n      jump(tag_214)\n    tag_215:\n      dup3\n      add\n      swap2\n      swap1\n      0x00\n      mstore\n      keccak256(0x00, 0x20)\n      swap1\n    tag_216:\n      dup2\n      sload\n      dup2\n      mstore\n      swap1\n      0x01\n      add\n      swap1\n      0x20\n      add\n      dup1\n      dup4\n      gt\n      tag_216\n      jumpi\n      dup3\n      swap1\n      sub\n      0x1f\n      and\n      dup3\n      add\n      swap2\n    tag_214:\n      pop\n      pop\n      pop\n      pop\n      pop\n      swap1\n      dup1\n      0x02\n      add\n      dup1\n      sload\n      tag_217\n      swap1\n      tag_124\n      jump\t// in\n    tag_217:\n      dup1\n      0x1f\n      add\n      0x20\n      dup1\n      swap2\n      div\n      mul\n      0x20\n      add\n      mload(0x40)\n      swap1\n      dup2\n      add\n      0x40\n      mstore\n      dup1\n      swap3\n      swap2\n      swap1\n      dup2\n      dup2\n      mstore\n      0x20\n      add\n      dup3\n      dup1\n      sload\n      tag_218\n      swap1\n      tag_124\n      jump\t// in\n    tag_218:\n      dup1\n      iszero\n      tag_219\n      jumpi\n      dup1\n      0x1f\n      lt\n      tag_220\n      jumpi\n      0x0100\n      dup1\n      dup4\n      sload\n      div\n      mul\n      dup4\n      mstore\n      swap2\n      0x20\n      add\n      swap2\n      jump(tag_219)\n    tag_220:\n      dup3\n      add\n      swap2\n      swap1\n      0x00\n      mstore\n      keccak256(0x00, 0x20)\n      swap1\n    tag_221:\n      dup2\n      sload\n      dup2\n      mstore\n      swap1\n      0x01\n      add\n      swap1\n      0x20\n      add\n      dup1\n      dup4\n      gt\n      tag_221\n      jumpi\n      dup3\n      swap1\n      sub\n      0x1f\n      and\n      dup3\n      add\n      swap2\n    tag_219:\n      pop\n      pop\n      pop\n      pop\n      pop\n      swap1\n      pop\n      dup4\n      jump\t// out\n        /* \"contracts/FakeProdId.sol\":4159:4538  function addRetailer(string memory name) public{\r... */\n    tag_71:\n        /* \"contracts/FakeProdId.sol\":4217:4244  Retailer memory newRetailer */\n      tag_223\n      tag_224\n      jump\t// in\n    tag_223:\n        /* \"contracts/FakeProdId.sol\":4304:4308  name */\n      dup2\n        /* \"contracts/FakeProdId.sol\":4309:4324  block.timestamp */\n      timestamp\n        /* \"contracts/FakeProdId.sol\":4325:4341  block.difficulty */\n      difficulty\n        /* \"contracts/FakeProdId.sol\":4293:4342  abi.encode(name,block.timestamp,block.difficulty) */\n      add(0x20, mload(0x40))\n      tag_225\n      swap4\n      swap3\n      swap2\n      swap1\n      tag_109\n      jump\t// in\n    tag_225:\n      mload(0x40)\n      0x20\n      dup2\n      dup4\n      sub\n      sub\n      dup2\n      mstore\n      swap1\n      0x40\n      mstore\n        /* \"contracts/FakeProdId.sol\":4283:4343  keccak256(abi.encode(name,block.timestamp,block.difficulty)) */\n      dup1\n      mload\n      swap1\n      0x20\n      add\n      keccak256\n        /* \"contracts/FakeProdId.sol\":4278:4344  uint(keccak256(abi.encode(name,block.timestamp,block.difficulty))) */\n      0x00\n      shr\n        /* \"contracts/FakeProdId.sol\":4255:4266  newRetailer */\n      dup2\n        /* \"contracts/FakeProdId.sol\":4255:4277  newRetailer.retailerId */\n      0x00\n      add\n        /* \"contracts/FakeProdId.sol\":4255:4344  newRetailer.retailerId=uint(keccak256(abi.encode(name,block.timestamp,block.difficulty))) */\n      dup2\n      dup2\n      mstore\n      pop\n      pop\n        /* \"contracts/FakeProdId.sol\":4374:4378  name */\n      dup2\n        /* \"contracts/FakeProdId.sol\":4355:4366  newRetailer */\n      dup2\n        /* \"contracts/FakeProdId.sol\":4355:4371  newRetailer.name */\n      0x20\n      add\n        /* \"contracts/FakeProdId.sol\":4355:4378  newRetailer.name = name */\n      dup2\n      swap1\n      mstore\n      pop\n        /* \"contracts/FakeProdId.sol\":4426:4427  0 */\n      0x00\n        /* \"contracts/FakeProdId.sol\":4415:4428  new uint[](0) */\n      0xffffffffffffffff\n      dup2\n      gt\n      iszero\n      tag_226\n      jumpi\n      tag_227\n      tag_112\n      jump\t// in\n    tag_227:\n    tag_226:\n      mload(0x40)\n      swap1\n      dup1\n      dup3\n      mstore\n      dup1\n      0x20\n      mul\n      0x20\n      add\n      dup3\n      add\n      0x40\n      mstore\n      dup1\n      iszero\n      tag_228\n      jumpi\n      dup2\n      0x20\n      add\n      0x20\n      dup3\n      mul\n      dup1\n      calldatasize\n      dup4\n      calldatacopy\n      dup1\n      dup3\n      add\n      swap2\n      pop\n      pop\n      swap1\n      pop\n    tag_228:\n      pop\n        /* \"contracts/FakeProdId.sol\":4389:4400  newRetailer */\n      dup2\n        /* \"contracts/FakeProdId.sol\":4389:4412  newRetailer.productList */\n      0x40\n      add\n        /* \"contracts/FakeProdId.sol\":4389:4428  newRetailer.productList = new uint[](0) */\n      dup2\n      swap1\n      mstore\n      pop\n        /* \"contracts/FakeProdId.sol\":4475:4486  newRetailer */\n      dup1\n        /* \"contracts/FakeProdId.sol\":4439:4448  retailers */\n      0x06\n        /* \"contracts/FakeProdId.sol\":4439:4472  retailers[newRetailer.retailerId] */\n      0x00\n        /* \"contracts/FakeProdId.sol\":4449:4460  newRetailer */\n      dup4\n        /* \"contracts/FakeProdId.sol\":4449:4471  newRetailer.retailerId */\n      0x00\n      add\n      mload\n        /* \"contracts/FakeProdId.sol\":4439:4472  retailers[newRetailer.retailerId] */\n      dup2\n      mstore\n      0x20\n      add\n      swap1\n      dup2\n      mstore\n      0x20\n      add\n      0x00\n      keccak256\n        /* \"contracts/FakeProdId.sol\":4439:4486  retailers[newRetailer.retailerId] = newRetailer */\n      0x00\n      dup3\n      add\n      mload\n      dup2\n      0x00\n      add\n      sstore\n      0x20\n      dup3\n      add\n      mload\n      dup2\n      0x01\n      add\n      swap1\n      dup1\n      mload\n      swap1\n      0x20\n      add\n      swap1\n      tag_229\n      swap3\n      swap2\n      swap1\n      tag_115\n      jump\t// in\n    tag_229:\n      pop\n      0x40\n      dup3\n      add\n      mload\n      dup2\n      0x02\n      add\n      swap1\n      dup1\n      mload\n      swap1\n      0x20\n      add\n      swap1\n      tag_230\n      swap3\n      swap2\n      swap1\n      tag_118\n      jump\t// in\n    tag_230:\n      pop\n      swap1\n      pop\n      pop\n        /* \"contracts/FakeProdId.sol\":4502:4530  retailerDetails(newRetailer) */\n      0x3f3d80dc5c883417f8997fef692ba50e4f4f4762e620926e80d9aed3b08b89d0\n        /* \"contracts/FakeProdId.sol\":4518:4529  newRetailer */\n      dup2\n        /* \"contracts/FakeProdId.sol\":4502:4530  retailerDetails(newRetailer) */\n      mload(0x40)\n      tag_231\n      swap2\n      swap1\n      tag_96\n      jump\t// in\n    tag_231:\n      mload(0x40)\n      dup1\n      swap2\n      sub\n      swap1\n      log1\n        /* \"contracts/FakeProdId.sol\":4206:4538  {\r... */\n      pop\n        /* \"contracts/FakeProdId.sol\":4159:4538  function addRetailer(string memory name) public{\r... */\n      pop\n      jump\t// out\n        /* \"contracts/FakeProdId.sol\":5442:5890  function manufacturerToDistributor(uint productId,uint manufacturerId,uint distributorId) public{\r... */\n    tag_75:\n        /* \"contracts/FakeProdId.sol\":5549:5565  Product memory p */\n      0x00\n        /* \"contracts/FakeProdId.sol\":5568:5589  getProduct(productId) */\n      tag_233\n        /* \"contracts/FakeProdId.sol\":5579:5588  productId */\n      dup5\n        /* \"contracts/FakeProdId.sol\":5568:5578  getProduct */\n      tag_81\n        /* \"contracts/FakeProdId.sol\":5568:5589  getProduct(productId) */\n      jump\t// in\n    tag_233:\n        /* \"contracts/FakeProdId.sol\":5549:5589  Product memory p = getProduct(productId) */\n      swap1\n      pop\n        /* \"contracts/FakeProdId.sol\":5626:5640  manufacturerId */\n      dup3\n        /* \"contracts/FakeProdId.sol\":5610:5611  p */\n      dup2\n        /* \"contracts/FakeProdId.sol\":5610:5622  p.curOwnerId */\n      0xa0\n      add\n      mload\n        /* \"contracts/FakeProdId.sol\":5610:5640  p.curOwnerId == manufacturerId */\n      eq\n        /* \"contracts/FakeProdId.sol\":5602:5697  require(p.curOwnerId == manufacturerId, \"Manufacturer is not the current owner of the product\") */\n      tag_234\n      jumpi\n      mload(0x40)\n      0x08c379a000000000000000000000000000000000000000000000000000000000\n      dup2\n      mstore\n      0x04\n      add\n      tag_235\n      swap1\n      tag_236\n      jump\t// in\n    tag_235:\n      mload(0x40)\n      dup1\n      swap2\n      sub\n      swap1\n      revert\n    tag_234:\n        /* \"contracts/FakeProdId.sol\":5710:5730  Distributor memory d */\n      0x00\n        /* \"contracts/FakeProdId.sol\":5733:5769  getdistributorDetails(distributorId) */\n      tag_237\n        /* \"contracts/FakeProdId.sol\":5755:5768  distributorId */\n      dup4\n        /* \"contracts/FakeProdId.sol\":5733:5754  getdistributorDetails */\n      tag_32\n        /* \"contracts/FakeProdId.sol\":5733:5769  getdistributorDetails(distributorId) */\n      jump\t// in\n    tag_237:\n        /* \"contracts/FakeProdId.sol\":5710:5769  Distributor memory d = getdistributorDetails(distributorId) */\n      swap1\n      pop\n        /* \"contracts/FakeProdId.sol\":5795:5796  d */\n      dup1\n        /* \"contracts/FakeProdId.sol\":5795:5801  d.name */\n      0x40\n      add\n      mload\n        /* \"contracts/FakeProdId.sol\":5782:5783  p */\n      dup3\n        /* \"contracts/FakeProdId.sol\":5782:5792  p.curOwner */\n      0x80\n      add\n        /* \"contracts/FakeProdId.sol\":5782:5801  p.curOwner = d.name */\n      dup2\n      swap1\n      mstore\n      pop\n        /* \"contracts/FakeProdId.sol\":5827:5828  d */\n      dup1\n        /* \"contracts/FakeProdId.sol\":5827:5842  d.distributorId */\n      0x00\n      add\n      mload\n        /* \"contracts/FakeProdId.sol\":5812:5813  p */\n      dup3\n        /* \"contracts/FakeProdId.sol\":5812:5824  p.curOwnerId */\n      0xa0\n      add\n        /* \"contracts/FakeProdId.sol\":5812:5842  p.curOwnerId = d.distributorId */\n      dup2\n      dup2\n      mstore\n      pop\n      pop\n        /* \"contracts/FakeProdId.sol\":5860:5882  completeTransaction(p) */\n      0x59be542ca2db8c0eaeb99f755e7eab871d9cefc9b5e52b1f107b679c7295fae1\n        /* \"contracts/FakeProdId.sol\":5880:5881  p */\n      dup3\n        /* \"contracts/FakeProdId.sol\":5860:5882  completeTransaction(p) */\n      mload(0x40)\n      tag_238\n      swap2\n      swap1\n      tag_83\n      jump\t// in\n    tag_238:\n      mload(0x40)\n      dup1\n      swap2\n      sub\n      swap1\n      log1\n        /* \"contracts/FakeProdId.sol\":5538:5890  {\r... */\n      pop\n      pop\n        /* \"contracts/FakeProdId.sol\":5442:5890  function manufacturerToDistributor(uint productId,uint manufacturerId,uint distributorId) public{\r... */\n      pop\n      pop\n      pop\n      jump\t// out\n        /* \"contracts/FakeProdId.sol\":5898:6324  function distributorToRetailer(uint productId,uint distributorId,uint retailerId) public{\r... */\n    tag_78:\n        /* \"contracts/FakeProdId.sol\":5997:6013  Product memory p */\n      0x00\n        /* \"contracts/FakeProdId.sol\":6016:6037  getProduct(productId) */\n      tag_240\n        /* \"contracts/FakeProdId.sol\":6027:6036  productId */\n      dup5\n        /* \"contracts/FakeProdId.sol\":6016:6026  getProduct */\n      tag_81\n        /* \"contracts/FakeProdId.sol\":6016:6037  getProduct(productId) */\n      jump\t// in\n    tag_240:\n        /* \"contracts/FakeProdId.sol\":5997:6037  Product memory p = getProduct(productId) */\n      swap1\n      pop\n        /* \"contracts/FakeProdId.sol\":6074:6087  distributorId */\n      dup3\n        /* \"contracts/FakeProdId.sol\":6058:6059  p */\n      dup2\n        /* \"contracts/FakeProdId.sol\":6058:6070  p.curOwnerId */\n      0xa0\n      add\n      mload\n        /* \"contracts/FakeProdId.sol\":6058:6087  p.curOwnerId == distributorId */\n      eq\n        /* \"contracts/FakeProdId.sol\":6050:6143  require(p.curOwnerId == distributorId, \"Distributor is not the current owner of the product\") */\n      tag_241\n      jumpi\n      mload(0x40)\n      0x08c379a000000000000000000000000000000000000000000000000000000000\n      dup2\n      mstore\n      0x04\n      add\n      tag_242\n      swap1\n      tag_243\n      jump\t// in\n    tag_242:\n      mload(0x40)\n      dup1\n      swap2\n      sub\n      swap1\n      revert\n    tag_241:\n        /* \"contracts/FakeProdId.sol\":6156:6173  Retailer memory r */\n      0x00\n        /* \"contracts/FakeProdId.sol\":6176:6206  getretailerDetails(retailerId) */\n      tag_244\n        /* \"contracts/FakeProdId.sol\":6195:6205  retailerId */\n      dup4\n        /* \"contracts/FakeProdId.sol\":6176:6194  getretailerDetails */\n      tag_94\n        /* \"contracts/FakeProdId.sol\":6176:6206  getretailerDetails(retailerId) */\n      jump\t// in\n    tag_244:\n        /* \"contracts/FakeProdId.sol\":6156:6206  Retailer memory r = getretailerDetails(retailerId) */\n      swap1\n      pop\n        /* \"contracts/FakeProdId.sol\":6232:6233  r */\n      dup1\n        /* \"contracts/FakeProdId.sol\":6232:6238  r.name */\n      0x20\n      add\n      mload\n        /* \"contracts/FakeProdId.sol\":6219:6220  p */\n      dup3\n        /* \"contracts/FakeProdId.sol\":6219:6229  p.curOwner */\n      0x80\n      add\n        /* \"contracts/FakeProdId.sol\":6219:6238  p.curOwner = r.name */\n      dup2\n      swap1\n      mstore\n      pop\n        /* \"contracts/FakeProdId.sol\":6264:6265  r */\n      dup1\n        /* \"contracts/FakeProdId.sol\":6264:6276  r.retailerId */\n      0x00\n      add\n      mload\n        /* \"contracts/FakeProdId.sol\":6249:6250  p */\n      dup3\n        /* \"contracts/FakeProdId.sol\":6249:6261  p.curOwnerId */\n      0xa0\n      add\n        /* \"contracts/FakeProdId.sol\":6249:6276  p.curOwnerId = r.retailerId */\n      dup2\n      dup2\n      mstore\n      pop\n      pop\n        /* \"contracts/FakeProdId.sol\":6294:6316  completeTransaction(p) */\n      0x59be542ca2db8c0eaeb99f755e7eab871d9cefc9b5e52b1f107b679c7295fae1\n        /* \"contracts/FakeProdId.sol\":6314:6315  p */\n      dup3\n        /* \"contracts/FakeProdId.sol\":6294:6316  completeTransaction(p) */\n      mload(0x40)\n      tag_245\n      swap2\n      swap1\n      tag_83\n      jump\t// in\n    tag_245:\n      mload(0x40)\n      dup1\n      swap2\n      sub\n      swap1\n      log1\n        /* \"contracts/FakeProdId.sol\":5986:6324  {\r... */\n      pop\n      pop\n        /* \"contracts/FakeProdId.sol\":5898:6324  function distributorToRetailer(uint productId,uint distributorId,uint retailerId) public{\r... */\n      pop\n      pop\n      pop\n      jump\t// out\n        /* \"contracts/FakeProdId.sol\":2223:2340  function getProduct(uint productId) public view returns (Product memory){\r... */\n    tag_81:\n        /* \"contracts/FakeProdId.sol\":2280:2294  Product memory */\n      tag_246\n      tag_192\n      jump\t// in\n    tag_246:\n        /* \"contracts/FakeProdId.sol\":2313:2321  products */\n      0x01\n        /* \"contracts/FakeProdId.sol\":2313:2332  products[productId] */\n      0x00\n        /* \"contracts/FakeProdId.sol\":2322:2331  productId */\n      dup4\n        /* \"contracts/FakeProdId.sol\":2313:2332  products[productId] */\n      dup2\n      mstore\n      0x20\n      add\n      swap1\n      dup2\n      mstore\n      0x20\n      add\n      0x00\n      keccak256\n        /* \"contracts/FakeProdId.sol\":2306:2332  return products[productId] */\n      mload(0x40)\n      dup1\n      0xc0\n      add\n      0x40\n      mstore\n      swap1\n      dup2\n      0x00\n      dup3\n      add\n      sload\n      dup2\n      mstore\n      0x20\n      add\n      0x01\n      dup3\n      add\n      dup1\n      sload\n      tag_248\n      swap1\n      tag_124\n      jump\t// in\n    tag_248:\n      dup1\n      0x1f\n      add\n      0x20\n      dup1\n      swap2\n      div\n      mul\n      0x20\n      add\n      mload(0x40)\n      swap1\n      dup2\n      add\n      0x40\n      mstore\n      dup1\n      swap3\n      swap2\n      swap1\n      dup2\n      dup2\n      mstore\n      0x20\n      add\n      dup3\n      dup1\n      sload\n      tag_249\n      swap1\n      tag_124\n      jump\t// in\n    tag_249:\n      dup1\n      iszero\n      tag_250\n      jumpi\n      dup1\n      0x1f\n      lt\n      tag_251\n      jumpi\n      0x0100\n      dup1\n      dup4\n      sload\n      div\n      mul\n      dup4\n      mstore\n      swap2\n      0x20\n      add\n      swap2\n      jump(tag_250)\n    tag_251:\n      dup3\n      add\n      swap2\n      swap1\n      0x00\n      mstore\n      keccak256(0x00, 0x20)\n      swap1\n    tag_252:\n      dup2\n      sload\n      dup2\n      mstore\n      swap1\n      0x01\n      add\n      swap1\n      0x20\n      add\n      dup1\n      dup4\n      gt\n      tag_252\n      jumpi\n      dup3\n      swap1\n      sub\n      0x1f\n      and\n      dup3\n      add\n      swap2\n    tag_250:\n      pop\n      pop\n      pop\n      pop\n      pop\n      dup2\n      mstore\n      0x20\n      add\n      0x02\n      dup3\n      add\n      sload\n      dup2\n      mstore\n      0x20\n      add\n      0x03\n      dup3\n      add\n      dup1\n      sload\n      tag_253\n      swap1\n      tag_124\n      jump\t// in\n    tag_253:\n      dup1\n      0x1f\n      add\n      0x20\n      dup1\n      swap2\n      div\n      mul\n      0x20\n      add\n      mload(0x40)\n      swap1\n      dup2\n      add\n      0x40\n      mstore\n      dup1\n      swap3\n      swap2\n      swap1\n      dup2\n      dup2\n      mstore\n      0x20\n      add\n      dup3\n      dup1\n      sload\n      tag_254\n      swap1\n      tag_124\n      jump\t// in\n    tag_254:\n      dup1\n      iszero\n      tag_255\n      jumpi\n      dup1\n      0x1f\n      lt\n      tag_256\n      jumpi\n      0x0100\n      dup1\n      dup4\n      sload\n      div\n      mul\n      dup4\n      mstore\n      swap2\n      0x20\n      add\n      swap2\n      jump(tag_255)\n    tag_256:\n      dup3\n      add\n      swap2\n      swap1\n      0x00\n      mstore\n      keccak256(0x00, 0x20)\n      swap1\n    tag_257:\n      dup2\n      sload\n      dup2\n      mstore\n      swap1\n      0x01\n      add\n      swap1\n      0x20\n      add\n      dup1\n      dup4\n      gt\n      tag_257\n      jumpi\n      dup3\n      swap1\n      sub\n      0x1f\n      and\n      dup3\n      add\n      swap2\n    tag_255:\n      pop\n      pop\n      pop\n      pop\n      pop\n      dup2\n      mstore\n      0x20\n      add\n      0x04\n      dup3\n      add\n      dup1\n      sload\n      tag_258\n      swap1\n      tag_124\n      jump\t// in\n    tag_258:\n      dup1\n      0x1f\n      add\n      0x20\n      dup1\n      swap2\n      div\n      mul\n      0x20\n      add\n      mload(0x40)\n      swap1\n      dup2\n      add\n      0x40\n      mstore\n      dup1\n      swap3\n      swap2\n      swap1\n      dup2\n      dup2\n      mstore\n      0x20\n      add\n      dup3\n      dup1\n      sload\n      tag_259\n      swap1\n      tag_124\n      jump\t// in\n    tag_259:\n      dup1\n      iszero\n      tag_260\n      jumpi\n      dup1\n      0x1f\n      lt\n      tag_261\n      jumpi\n      0x0100\n      dup1\n      dup4\n      sload\n      div\n      mul\n      dup4\n      mstore\n      swap2\n      0x20\n      add\n      swap2\n      jump(tag_260)\n    tag_261:\n      dup3\n      add\n      swap2\n      swap1\n      0x00\n      mstore\n      keccak256(0x00, 0x20)\n      swap1\n    tag_262:\n      dup2\n      sload\n      dup2\n      mstore\n      swap1\n      0x01\n      add\n      swap1\n      0x20\n      add\n      dup1\n      dup4\n      gt\n      tag_262\n      jumpi\n      dup3\n      swap1\n      sub\n      0x1f\n      and\n      dup3\n      add\n      swap2\n    tag_260:\n      pop\n      pop\n      pop\n      pop\n      pop\n      dup2\n      mstore\n      0x20\n      add\n      0x05\n      dup3\n      add\n      sload\n      dup2\n      mstore\n      pop\n      pop\n      swap1\n      pop\n        /* \"contracts/FakeProdId.sol\":2223:2340  function getProduct(uint productId) public view returns (Product memory){\r... */\n      swap2\n      swap1\n      pop\n      jump\t// out\n        /* \"contracts/FakeProdId.sol\":4996:5434  function supplierToManufacturer(uint productId,uint supplierId,uint manufacturerId) public{\r... */\n    tag_86:\n        /* \"contracts/FakeProdId.sol\":5097:5113  Product memory p */\n      0x00\n        /* \"contracts/FakeProdId.sol\":5116:5137  getProduct(productId) */\n      tag_264\n        /* \"contracts/FakeProdId.sol\":5127:5136  productId */\n      dup5\n        /* \"contracts/FakeProdId.sol\":5116:5126  getProduct */\n      tag_81\n        /* \"contracts/FakeProdId.sol\":5116:5137  getProduct(productId) */\n      jump\t// in\n    tag_264:\n        /* \"contracts/FakeProdId.sol\":5097:5137  Product memory p = getProduct(productId) */\n      swap1\n      pop\n        /* \"contracts/FakeProdId.sol\":5174:5184  supplierId */\n      dup3\n        /* \"contracts/FakeProdId.sol\":5158:5159  p */\n      dup2\n        /* \"contracts/FakeProdId.sol\":5158:5170  p.curOwnerId */\n      0xa0\n      add\n      mload\n        /* \"contracts/FakeProdId.sol\":5158:5184  p.curOwnerId == supplierId */\n      eq\n        /* \"contracts/FakeProdId.sol\":5150:5237  require(p.curOwnerId == supplierId, \"Supplier is not the current owner of the product\") */\n      tag_265\n      jumpi\n      mload(0x40)\n      0x08c379a000000000000000000000000000000000000000000000000000000000\n      dup2\n      mstore\n      0x04\n      add\n      tag_266\n      swap1\n      tag_267\n      jump\t// in\n    tag_266:\n      mload(0x40)\n      dup1\n      swap2\n      sub\n      swap1\n      revert\n    tag_265:\n        /* \"contracts/FakeProdId.sol\":5250:5271  Manufacturer memory m */\n      0x00\n        /* \"contracts/FakeProdId.sol\":5274:5312  getmanufacturerDetails(manufacturerId) */\n      tag_268\n        /* \"contracts/FakeProdId.sol\":5297:5311  manufacturerId */\n      dup4\n        /* \"contracts/FakeProdId.sol\":5274:5296  getmanufacturerDetails */\n      tag_89\n        /* \"contracts/FakeProdId.sol\":5274:5312  getmanufacturerDetails(manufacturerId) */\n      jump\t// in\n    tag_268:\n        /* \"contracts/FakeProdId.sol\":5250:5312  Manufacturer memory m = getmanufacturerDetails(manufacturerId) */\n      swap1\n      pop\n        /* \"contracts/FakeProdId.sol\":5338:5339  m */\n      dup1\n        /* \"contracts/FakeProdId.sol\":5338:5344  m.name */\n      0x40\n      add\n      mload\n        /* \"contracts/FakeProdId.sol\":5325:5326  p */\n      dup3\n        /* \"contracts/FakeProdId.sol\":5325:5335  p.curOwner */\n      0x80\n      add\n        /* \"contracts/FakeProdId.sol\":5325:5344  p.curOwner = m.name */\n      dup2\n      swap1\n      mstore\n      pop\n        /* \"contracts/FakeProdId.sol\":5370:5371  m */\n      dup1\n        /* \"contracts/FakeProdId.sol\":5370:5386  m.manufacturerId */\n      0x00\n      add\n      mload\n        /* \"contracts/FakeProdId.sol\":5355:5356  p */\n      dup3\n        /* \"contracts/FakeProdId.sol\":5355:5367  p.curOwnerId */\n      0xa0\n      add\n        /* \"contracts/FakeProdId.sol\":5355:5386  p.curOwnerId = m.manufacturerId */\n      dup2\n      dup2\n      mstore\n      pop\n      pop\n        /* \"contracts/FakeProdId.sol\":5404:5426  completeTransaction(p) */\n      0x59be542ca2db8c0eaeb99f755e7eab871d9cefc9b5e52b1f107b679c7295fae1\n        /* \"contracts/FakeProdId.sol\":5424:5425  p */\n      dup3\n        /* \"contracts/FakeProdId.sol\":5404:5426  completeTransaction(p) */\n      mload(0x40)\n      tag_269\n      swap2\n      swap1\n      tag_83\n      jump\t// in\n    tag_269:\n      mload(0x40)\n      dup1\n      swap2\n      sub\n      swap1\n      log1\n        /* \"contracts/FakeProdId.sol\":5086:5434  {\r... */\n      pop\n      pop\n        /* \"contracts/FakeProdId.sol\":4996:5434  function supplierToManufacturer(uint productId,uint supplierId,uint manufacturerId) public{\r... */\n      pop\n      pop\n      pop\n      jump\t// out\n        /* \"contracts/FakeProdId.sol\":3383:3532  function getmanufacturerDetails(uint manufacturerId) public view returns (Manufacturer memory){\r... */\n    tag_89:\n        /* \"contracts/FakeProdId.sol\":3457:3476  Manufacturer memory */\n      tag_270\n      tag_203\n      jump\t// in\n    tag_270:\n        /* \"contracts/FakeProdId.sol\":3495:3508  manufacturers */\n      0x04\n        /* \"contracts/FakeProdId.sol\":3495:3524  manufacturers[manufacturerId] */\n      0x00\n        /* \"contracts/FakeProdId.sol\":3509:3523  manufacturerId */\n      dup4\n        /* \"contracts/FakeProdId.sol\":3495:3524  manufacturers[manufacturerId] */\n      dup2\n      mstore\n      0x20\n      add\n      swap1\n      dup2\n      mstore\n      0x20\n      add\n      0x00\n      keccak256\n        /* \"contracts/FakeProdId.sol\":3488:3524  return manufacturers[manufacturerId] */\n      mload(0x40)\n      dup1\n      0x80\n      add\n      0x40\n      mstore\n      swap1\n      dup2\n      0x00\n      dup3\n      add\n      sload\n      dup2\n      mstore\n      0x20\n      add\n      0x01\n      dup3\n      add\n      dup1\n      sload\n      tag_272\n      swap1\n      tag_124\n      jump\t// in\n    tag_272:\n      dup1\n      0x1f\n      add\n      0x20\n      dup1\n      swap2\n      div\n      mul\n      0x20\n      add\n      mload(0x40)\n      swap1\n      dup2\n      add\n      0x40\n      mstore\n      dup1\n      swap3\n      swap2\n      swap1\n      dup2\n      dup2\n      mstore\n      0x20\n      add\n      dup3\n      dup1\n      sload\n      tag_273\n      swap1\n      tag_124\n      jump\t// in\n    tag_273:\n      dup1\n      iszero\n      tag_274\n      jumpi\n      dup1\n      0x1f\n      lt\n      tag_275\n      jumpi\n      0x0100\n      dup1\n      dup4\n      sload\n      div\n      mul\n      dup4\n      mstore\n      swap2\n      0x20\n      add\n      swap2\n      jump(tag_274)\n    tag_275:\n      dup3\n      add\n      swap2\n      swap1\n      0x00\n      mstore\n      keccak256(0x00, 0x20)\n      swap1\n    tag_276:\n      dup2\n      sload\n      dup2\n      mstore\n      swap1\n      0x01\n      add\n      swap1\n      0x20\n      add\n      dup1\n      dup4\n      gt\n      tag_276\n      jumpi\n      dup3\n      swap1\n      sub\n      0x1f\n      and\n      dup3\n      add\n      swap2\n    tag_274:\n      pop\n      pop\n      pop\n      pop\n      pop\n      dup2\n      mstore\n      0x20\n      add\n      0x02\n      dup3\n      add\n      dup1\n      sload\n      tag_277\n      swap1\n      tag_124\n      jump\t// in\n    tag_277:\n      dup1\n      0x1f\n      add\n      0x20\n      dup1\n      swap2\n      div\n      mul\n      0x20\n      add\n      mload(0x40)\n      swap1\n      dup2\n      add\n      0x40\n      mstore\n      dup1\n      swap3\n      swap2\n      swap1\n      dup2\n      dup2\n      mstore\n      0x20\n      add\n      dup3\n      dup1\n      sload\n      tag_278\n      swap1\n      tag_124\n      jump\t// in\n    tag_278:\n      dup1\n      iszero\n      tag_279\n      jumpi\n      dup1\n      0x1f\n      lt\n      tag_280\n      jumpi\n      0x0100\n      dup1\n      dup4\n      sload\n      div\n      mul\n      dup4\n      mstore\n      swap2\n      0x20\n      add\n      swap2\n      jump(tag_279)\n    tag_280:\n      dup3\n      add\n      swap2\n      swap1\n      0x00\n      mstore\n      keccak256(0x00, 0x20)\n      swap1\n    tag_281:\n      dup2\n      sload\n      dup2\n      mstore\n      swap1\n      0x01\n      add\n      swap1\n      0x20\n      add\n      dup1\n      dup4\n      gt\n      tag_281\n      jumpi\n      dup3\n      swap1\n      sub\n      0x1f\n      and\n      dup3\n      add\n      swap2\n    tag_279:\n      pop\n      pop\n      pop\n      pop\n      pop\n      dup2\n      mstore\n      0x20\n      add\n      0x03\n      dup3\n      add\n      dup1\n      sload\n      dup1\n      0x20\n      mul\n      0x20\n      add\n      mload(0x40)\n      swap1\n      dup2\n      add\n      0x40\n      mstore\n      dup1\n      swap3\n      swap2\n      swap1\n      dup2\n      dup2\n      mstore\n      0x20\n      add\n      dup3\n      dup1\n      sload\n      dup1\n      iszero\n      tag_282\n      jumpi\n      0x20\n      mul\n      dup3\n      add\n      swap2\n      swap1\n      0x00\n      mstore\n      keccak256(0x00, 0x20)\n      swap1\n    tag_283:\n      dup2\n      sload\n      dup2\n      mstore\n      0x20\n      add\n      swap1\n      0x01\n      add\n      swap1\n      dup1\n      dup4\n      gt\n      tag_283\n      jumpi\n    tag_282:\n      pop\n      pop\n      pop\n      pop\n      pop\n      dup2\n      mstore\n      pop\n      pop\n      swap1\n      pop\n        /* \"contracts/FakeProdId.sol\":3383:3532  function getmanufacturerDetails(uint manufacturerId) public view returns (Manufacturer memory){\r... */\n      swap2\n      swap1\n      pop\n      jump\t// out\n        /* \"contracts/FakeProdId.sol\":4546:4675  function getretailerDetails(uint retailerId) public view returns (Retailer memory){\r... */\n    tag_94:\n        /* \"contracts/FakeProdId.sol\":4612:4627  Retailer memory */\n      tag_284\n      tag_224\n      jump\t// in\n    tag_284:\n        /* \"contracts/FakeProdId.sol\":4646:4655  retailers */\n      0x06\n        /* \"contracts/FakeProdId.sol\":4646:4667  retailers[retailerId] */\n      0x00\n        /* \"contracts/FakeProdId.sol\":4656:4666  retailerId */\n      dup4\n        /* \"contracts/FakeProdId.sol\":4646:4667  retailers[retailerId] */\n      dup2\n      mstore\n      0x20\n      add\n      swap1\n      dup2\n      mstore\n      0x20\n      add\n      0x00\n      keccak256\n        /* \"contracts/FakeProdId.sol\":4639:4667  return retailers[retailerId] */\n      mload(0x40)\n      dup1\n      0x60\n      add\n      0x40\n      mstore\n      swap1\n      dup2\n      0x00\n      dup3\n      add\n      sload\n      dup2\n      mstore\n      0x20\n      add\n      0x01\n      dup3\n      add\n      dup1\n      sload\n      tag_286\n      swap1\n      tag_124\n      jump\t// in\n    tag_286:\n      dup1\n      0x1f\n      add\n      0x20\n      dup1\n      swap2\n      div\n      mul\n      0x20\n      add\n      mload(0x40)\n      swap1\n      dup2\n      add\n      0x40\n      mstore\n      dup1\n      swap3\n      swap2\n      swap1\n      dup2\n      dup2\n      mstore\n      0x20\n      add\n      dup3\n      dup1\n      sload\n      tag_287\n      swap1\n      tag_124\n      jump\t// in\n    tag_287:\n      dup1\n      iszero\n      tag_288\n      jumpi\n      dup1\n      0x1f\n      lt\n      tag_289\n      jumpi\n      0x0100\n      dup1\n      dup4\n      sload\n      div\n      mul\n      dup4\n      mstore\n      swap2\n      0x20\n      add\n      swap2\n      jump(tag_288)\n    tag_289:\n      dup3\n      add\n      swap2\n      swap1\n      0x00\n      mstore\n      keccak256(0x00, 0x20)\n      swap1\n    tag_290:\n      dup2\n      sload\n      dup2\n      mstore\n      swap1\n      0x01\n      add\n      swap1\n      0x20\n      add\n      dup1\n      dup4\n      gt\n      tag_290\n      jumpi\n      dup3\n      swap1\n      sub\n      0x1f\n      and\n      dup3\n      add\n      swap2\n    tag_288:\n      pop\n      pop\n      pop\n      pop\n      pop\n      dup2\n      mstore\n      0x20\n      add\n      0x02\n      dup3\n      add\n      dup1\n      sload\n      dup1\n      0x20\n      mul\n      0x20\n      add\n      mload(0x40)\n      swap1\n      dup2\n      add\n      0x40\n      mstore\n      dup1\n      swap3\n      swap2\n      swap1\n      dup2\n      dup2\n      mstore\n      0x20\n      add\n      dup3\n      dup1\n      sload\n      dup1\n      iszero\n      tag_291\n      jumpi\n      0x20\n      mul\n      dup3\n      add\n      swap2\n      swap1\n      0x00\n      mstore\n      keccak256(0x00, 0x20)\n      swap1\n    tag_292:\n      dup2\n      sload\n      dup2\n      mstore\n      0x20\n      add\n      swap1\n      0x01\n      add\n      swap1\n      dup1\n      dup4\n      gt\n      tag_292\n      jumpi\n    tag_291:\n      pop\n      pop\n      pop\n      pop\n      pop\n      dup2\n      mstore\n      pop\n      pop\n      swap1\n      pop\n        /* \"contracts/FakeProdId.sol\":4546:4675  function getretailerDetails(uint retailerId) public view returns (Retailer memory){\r... */\n      swap2\n      swap1\n      pop\n      jump\t// out\n        /* \"contracts/FakeProdId.sol\":1346:1388  mapping(uint => Supplier) public suppliers */\n    tag_99:\n      mstore(0x20, 0x03)\n      dup1\n      0x00\n      mstore\n      keccak256(0x00, 0x40)\n      0x00\n      swap2\n      pop\n      swap1\n      pop\n      dup1\n      0x00\n      add\n      sload\n      swap1\n      dup1\n      0x01\n      add\n      dup1\n      sload\n      tag_293\n      swap1\n      tag_124\n      jump\t// in\n    tag_293:\n      dup1\n      0x1f\n      add\n      0x20\n      dup1\n      swap2\n      div\n      mul\n      0x20\n      add\n      mload(0x40)\n      swap1\n      dup2\n      add\n      0x40\n      mstore\n      dup1\n      swap3\n      swap2\n      swap1\n      dup2\n      dup2\n      mstore\n      0x20\n      add\n      dup3\n      dup1\n      sload\n      tag_294\n      swap1\n      tag_124\n      jump\t// in\n    tag_294:\n      dup1\n      iszero\n      tag_295\n      jumpi\n      dup1\n      0x1f\n      lt\n      tag_296\n      jumpi\n      0x0100\n      dup1\n      dup4\n      sload\n      div\n      mul\n      dup4\n      mstore\n      swap2\n      0x20\n      add\n      swap2\n      jump(tag_295)\n    tag_296:\n      dup3\n      add\n      swap2\n      swap1\n      0x00\n      mstore\n      keccak256(0x00, 0x20)\n      swap1\n    tag_297:\n      dup2\n      sload\n      dup2\n      mstore\n      swap1\n      0x01\n      add\n      swap1\n      0x20\n      add\n      dup1\n      dup4\n      gt\n      tag_297\n      jumpi\n      dup3\n      swap1\n      sub\n      0x1f\n      and\n      dup3\n      add\n      swap2\n    tag_295:\n      pop\n      pop\n      pop\n      pop\n      pop\n      swap1\n      dup1\n      0x02\n      add\n      dup1\n      sload\n      tag_298\n      swap1\n      tag_124\n      jump\t// in\n    tag_298:\n      dup1\n      0x1f\n      add\n      0x20\n      dup1\n      swap2\n      div\n      mul\n      0x20\n      add\n      mload(0x40)\n      swap1\n      dup2\n      add\n      0x40\n      mstore\n      dup1\n      swap3\n      swap2\n      swap1\n      dup2\n      dup2\n      mstore\n      0x20\n      add\n      dup3\n      dup1\n      sload\n      tag_299\n      swap1\n      tag_124\n      jump\t// in\n    tag_299:\n      dup1\n      iszero\n      tag_300\n      jumpi\n      dup1\n      0x1f\n      lt\n      tag_301\n      jumpi\n      0x0100\n      dup1\n      dup4\n      sload\n      div\n      mul\n      dup4\n      mstore\n      swap2\n      0x20\n      add\n      swap2\n      jump(tag_300)\n    tag_301:\n      dup3\n      add\n      swap2\n      swap1\n      0x00\n      mstore\n      keccak256(0x00, 0x20)\n      swap1\n    tag_302:\n      dup2\n      sload\n      dup2\n      mstore\n      swap1\n      0x01\n      add\n      swap1\n      0x20\n      add\n      dup1\n      dup4\n      gt\n      tag_302\n      jumpi\n      dup3\n      swap1\n      sub\n      0x1f\n      and\n      dup3\n      add\n      swap2\n    tag_300:\n      pop\n      pop\n      pop\n      pop\n      pop\n      swap1\n      pop\n      dup4\n      jump\t// out\n        /* \"contracts/FakeProdId.sol\":4683:4988  function supplierTransaction(uint productId,uint supplierId) public{\r... */\n    tag_104:\n        /* \"contracts/FakeProdId.sol\":4761:4778  Supplier memory s */\n      0x00\n        /* \"contracts/FakeProdId.sol\":4781:4811  getsupplierDetails(supplierId) */\n      tag_304\n        /* \"contracts/FakeProdId.sol\":4800:4810  supplierId */\n      dup3\n        /* \"contracts/FakeProdId.sol\":4781:4799  getsupplierDetails */\n      tag_37\n        /* \"contracts/FakeProdId.sol\":4781:4811  getsupplierDetails(supplierId) */\n      jump\t// in\n    tag_304:\n        /* \"contracts/FakeProdId.sol\":4761:4811  Supplier memory s = getsupplierDetails(supplierId) */\n      swap1\n      pop\n        /* \"contracts/FakeProdId.sol\":4822:4838  Product memory p */\n      0x00\n        /* \"contracts/FakeProdId.sol\":4841:4862  getProduct(productId) */\n      tag_305\n        /* \"contracts/FakeProdId.sol\":4852:4861  productId */\n      dup5\n        /* \"contracts/FakeProdId.sol\":4841:4851  getProduct */\n      tag_81\n        /* \"contracts/FakeProdId.sol\":4841:4862  getProduct(productId) */\n      jump\t// in\n    tag_305:\n        /* \"contracts/FakeProdId.sol\":4822:4862  Product memory p = getProduct(productId) */\n      swap1\n      pop\n        /* \"contracts/FakeProdId.sol\":4896:4897  s */\n      dup2\n        /* \"contracts/FakeProdId.sol\":4896:4902  s.name */\n      0x40\n      add\n      mload\n        /* \"contracts/FakeProdId.sol\":4883:4884  p */\n      dup2\n        /* \"contracts/FakeProdId.sol\":4883:4893  p.curOwner */\n      0x80\n      add\n        /* \"contracts/FakeProdId.sol\":4883:4902  p.curOwner = s.name */\n      dup2\n      swap1\n      mstore\n      pop\n        /* \"contracts/FakeProdId.sol\":4928:4929  s */\n      dup2\n        /* \"contracts/FakeProdId.sol\":4928:4940  s.supplierId */\n      0x00\n      add\n      mload\n        /* \"contracts/FakeProdId.sol\":4913:4914  p */\n      dup2\n        /* \"contracts/FakeProdId.sol\":4913:4925  p.curOwnerId */\n      0xa0\n      add\n        /* \"contracts/FakeProdId.sol\":4913:4940  p.curOwnerId = s.supplierId */\n      dup2\n      dup2\n      mstore\n      pop\n      pop\n        /* \"contracts/FakeProdId.sol\":4958:4980  completeTransaction(p) */\n      0x59be542ca2db8c0eaeb99f755e7eab871d9cefc9b5e52b1f107b679c7295fae1\n        /* \"contracts/FakeProdId.sol\":4978:4979  p */\n      dup2\n        /* \"contracts/FakeProdId.sol\":4958:4980  completeTransaction(p) */\n      mload(0x40)\n      tag_306\n      swap2\n      swap1\n      tag_83\n      jump\t// in\n    tag_306:\n      mload(0x40)\n      dup1\n      swap2\n      sub\n      swap1\n      log1\n        /* \"contracts/FakeProdId.sol\":4750:4988  {\r... */\n      pop\n      pop\n        /* \"contracts/FakeProdId.sol\":4683:4988  function supplierTransaction(uint productId,uint supplierId) public{\r... */\n      pop\n      pop\n      jump\t// out\n    tag_107:\n      mload(0x40)\n      dup1\n      0x80\n      add\n      0x40\n      mstore\n      dup1\n      0x00\n      dup2\n      mstore\n      0x20\n      add\n      0x60\n      dup2\n      mstore\n      0x20\n      add\n      0x60\n      dup2\n      mstore\n      0x20\n      add\n      0x60\n      dup2\n      mstore\n      pop\n      swap1\n      jump\t// out\n    tag_115:\n      dup3\n      dup1\n      sload\n      tag_307\n      swap1\n      tag_124\n      jump\t// in\n    tag_307:\n      swap1\n      0x00\n      mstore\n      keccak256(0x00, 0x20)\n      swap1\n      0x1f\n      add\n      0x20\n      swap1\n      div\n      dup2\n      add\n      swap3\n      dup3\n      tag_309\n      jumpi\n      0x00\n      dup6\n      sstore\n      jump(tag_308)\n    tag_309:\n      dup3\n      0x1f\n      lt\n      tag_310\n      jumpi\n      dup1\n      mload\n      not(0xff)\n      and\n      dup4\n      dup1\n      add\n      or\n      dup6\n      sstore\n      jump(tag_308)\n    tag_310:\n      dup3\n      dup1\n      add\n      0x01\n      add\n      dup6\n      sstore\n      dup3\n      iszero\n      tag_308\n      jumpi\n      swap2\n      dup3\n      add\n    tag_311:\n      dup3\n      dup2\n      gt\n      iszero\n      tag_312\n      jumpi\n      dup3\n      mload\n      dup3\n      sstore\n      swap2\n      0x20\n      add\n      swap2\n      swap1\n      0x01\n      add\n      swap1\n      jump(tag_311)\n    tag_312:\n    tag_308:\n      pop\n      swap1\n      pop\n      tag_313\n      swap2\n      swap1\n      tag_314\n      jump\t// in\n    tag_313:\n      pop\n      swap1\n      jump\t// out\n    tag_118:\n      dup3\n      dup1\n      sload\n      dup3\n      dup3\n      sstore\n      swap1\n      0x00\n      mstore\n      keccak256(0x00, 0x20)\n      swap1\n      dup2\n      add\n      swap3\n      dup3\n      iszero\n      tag_315\n      jumpi\n      swap2\n      0x20\n      mul\n      dup3\n      add\n    tag_316:\n      dup3\n      dup2\n      gt\n      iszero\n      tag_317\n      jumpi\n      dup3\n      mload\n      dup3\n      sstore\n      swap2\n      0x20\n      add\n      swap2\n      swap1\n      0x01\n      add\n      swap1\n      jump(tag_316)\n    tag_317:\n    tag_315:\n      pop\n      swap1\n      pop\n      tag_318\n      swap2\n      swap1\n      tag_314\n      jump\t// in\n    tag_318:\n      pop\n      swap1\n      jump\t// out\n    tag_121:\n      mload(0x40)\n      dup1\n      0x80\n      add\n      0x40\n      mstore\n      dup1\n      0x00\n      dup2\n      mstore\n      0x20\n      add\n      0x60\n      dup2\n      mstore\n      0x20\n      add\n      0x60\n      dup2\n      mstore\n      0x20\n      add\n      0x60\n      dup2\n      mstore\n      pop\n      swap1\n      jump\t// out\n    tag_192:\n      mload(0x40)\n      dup1\n      0xc0\n      add\n      0x40\n      mstore\n      dup1\n      0x00\n      dup2\n      mstore\n      0x20\n      add\n      0x60\n      dup2\n      mstore\n      0x20\n      add\n      0x00\n      dup2\n      mstore\n      0x20\n      add\n      0x60\n      dup2\n      mstore\n      0x20\n      add\n      0x60\n      dup2\n      mstore\n      0x20\n      add\n      0x00\n      dup2\n      mstore\n      pop\n      swap1\n      jump\t// out\n    tag_203:\n      mload(0x40)\n      dup1\n      0x80\n      add\n      0x40\n      mstore\n      dup1\n      0x00\n      dup2\n      mstore\n      0x20\n      add\n      0x60\n      dup2\n      mstore\n      0x20\n      add\n      0x60\n      dup2\n      mstore\n      0x20\n      add\n      0x60\n      dup2\n      mstore\n      pop\n      swap1\n      jump\t// out\n    tag_224:\n      mload(0x40)\n      dup1\n      0x60\n      add\n      0x40\n      mstore\n      dup1\n      0x00\n      dup2\n      mstore\n      0x20\n      add\n      0x60\n      dup2\n      mstore\n      0x20\n      add\n      0x60\n      dup2\n      mstore\n      pop\n      swap1\n      jump\t// out\n    tag_314:\n    tag_319:\n      dup1\n      dup3\n      gt\n      iszero\n      tag_320\n      jumpi\n      0x00\n      dup2\n      0x00\n      swap1\n      sstore\n      pop\n      0x01\n      add\n      jump(tag_319)\n    tag_320:\n      pop\n      swap1\n      jump\t// out\n        /* \"#utility.yul\":7:419   */\n    tag_322:\n        /* \"#utility.yul\":85:90   */\n      0x00\n        /* \"#utility.yul\":110:176   */\n      tag_324\n        /* \"#utility.yul\":126:175   */\n      tag_325\n        /* \"#utility.yul\":168:174   */\n      dup5\n        /* \"#utility.yul\":126:175   */\n      tag_326\n      jump\t// in\n    tag_325:\n        /* \"#utility.yul\":110:176   */\n      tag_327\n      jump\t// in\n    tag_324:\n        /* \"#utility.yul\":101:176   */\n      swap1\n      pop\n        /* \"#utility.yul\":199:205   */\n      dup3\n        /* \"#utility.yul\":192:197   */\n      dup2\n        /* \"#utility.yul\":185:206   */\n      mstore\n        /* \"#utility.yul\":237:241   */\n      0x20\n        /* \"#utility.yul\":230:235   */\n      dup2\n        /* \"#utility.yul\":226:242   */\n      add\n        /* \"#utility.yul\":275:278   */\n      dup5\n        /* \"#utility.yul\":266:272   */\n      dup5\n        /* \"#utility.yul\":261:264   */\n      dup5\n        /* \"#utility.yul\":257:273   */\n      add\n        /* \"#utility.yul\":254:279   */\n      gt\n        /* \"#utility.yul\":251:363   */\n      iszero\n      tag_328\n      jumpi\n        /* \"#utility.yul\":282:361   */\n      tag_329\n      tag_330\n      jump\t// in\n    tag_329:\n        /* \"#utility.yul\":251:363   */\n    tag_328:\n        /* \"#utility.yul\":372:413   */\n      tag_331\n        /* \"#utility.yul\":406:412   */\n      dup5\n        /* \"#utility.yul\":401:404   */\n      dup3\n        /* \"#utility.yul\":396:399   */\n      dup6\n        /* \"#utility.yul\":372:413   */\n      tag_332\n      jump\t// in\n    tag_331:\n        /* \"#utility.yul\":91:419   */\n      pop\n        /* \"#utility.yul\":7:419   */\n      swap4\n      swap3\n      pop\n      pop\n      pop\n      jump\t// out\n        /* \"#utility.yul\":439:779   */\n    tag_333:\n        /* \"#utility.yul\":495:500   */\n      0x00\n        /* \"#utility.yul\":544:547   */\n      dup3\n        /* \"#utility.yul\":537:541   */\n      0x1f\n        /* \"#utility.yul\":529:535   */\n      dup4\n        /* \"#utility.yul\":525:542   */\n      add\n        /* \"#utility.yul\":521:548   */\n      slt\n        /* \"#utility.yul\":511:633   */\n      tag_335\n      jumpi\n        /* \"#utility.yul\":552:631   */\n      tag_336\n      tag_337\n      jump\t// in\n    tag_336:\n        /* \"#utility.yul\":511:633   */\n    tag_335:\n        /* \"#utility.yul\":669:675   */\n      dup2\n        /* \"#utility.yul\":656:676   */\n      calldataload\n        /* \"#utility.yul\":694:773   */\n      tag_338\n        /* \"#utility.yul\":769:772   */\n      dup5\n        /* \"#utility.yul\":761:767   */\n      dup3\n        /* \"#utility.yul\":754:758   */\n      0x20\n        /* \"#utility.yul\":746:752   */\n      dup7\n        /* \"#utility.yul\":742:759   */\n      add\n        /* \"#utility.yul\":694:773   */\n      tag_322\n      jump\t// in\n    tag_338:\n        /* \"#utility.yul\":685:773   */\n      swap2\n      pop\n        /* \"#utility.yul\":501:779   */\n      pop\n        /* \"#utility.yul\":439:779   */\n      swap3\n      swap2\n      pop\n      pop\n      jump\t// out\n        /* \"#utility.yul\":785:924   */\n    tag_339:\n        /* \"#utility.yul\":831:836   */\n      0x00\n        /* \"#utility.yul\":869:875   */\n      dup2\n        /* \"#utility.yul\":856:876   */\n      calldataload\n        /* \"#utility.yul\":847:876   */\n      swap1\n      pop\n        /* \"#utility.yul\":885:918   */\n      tag_341\n        /* \"#utility.yul\":912:917   */\n      dup2\n        /* \"#utility.yul\":885:918   */\n      tag_342\n      jump\t// in\n    tag_341:\n        /* \"#utility.yul\":785:924   */\n      swap3\n      swap2\n      pop\n      pop\n      jump\t// out\n        /* \"#utility.yul\":930:1439   */\n    tag_27:\n        /* \"#utility.yul\":999:1005   */\n      0x00\n        /* \"#utility.yul\":1048:1050   */\n      0x20\n        /* \"#utility.yul\":1036:1045   */\n      dup3\n        /* \"#utility.yul\":1027:1034   */\n      dup5\n        /* \"#utility.yul\":1023:1046   */\n      sub\n        /* \"#utility.yul\":1019:1051   */\n      slt\n        /* \"#utility.yul\":1016:1135   */\n      iszero\n      tag_344\n      jumpi\n        /* \"#utility.yul\":1054:1133   */\n      tag_345\n      tag_346\n      jump\t// in\n    tag_345:\n        /* \"#utility.yul\":1016:1135   */\n    tag_344:\n        /* \"#utility.yul\":1202:1203   */\n      0x00\n        /* \"#utility.yul\":1191:1200   */\n      dup3\n        /* \"#utility.yul\":1187:1204   */\n      add\n        /* \"#utility.yul\":1174:1205   */\n      calldataload\n        /* \"#utility.yul\":1232:1250   */\n      0xffffffffffffffff\n        /* \"#utility.yul\":1224:1230   */\n      dup2\n        /* \"#utility.yul\":1221:1251   */\n      gt\n        /* \"#utility.yul\":1218:1335   */\n      iszero\n      tag_347\n      jumpi\n        /* \"#utility.yul\":1254:1333   */\n      tag_348\n      tag_349\n      jump\t// in\n    tag_348:\n        /* \"#utility.yul\":1218:1335   */\n    tag_347:\n        /* \"#utility.yul\":1359:1422   */\n      tag_350\n        /* \"#utility.yul\":1414:1421   */\n      dup5\n        /* \"#utility.yul\":1405:1411   */\n      dup3\n        /* \"#utility.yul\":1394:1403   */\n      dup6\n        /* \"#utility.yul\":1390:1412   */\n      add\n        /* \"#utility.yul\":1359:1422   */\n      tag_333\n      jump\t// in\n    tag_350:\n        /* \"#utility.yul\":1349:1422   */\n      swap2\n      pop\n        /* \"#utility.yul\":1145:1432   */\n      pop\n        /* \"#utility.yul\":930:1439   */\n      swap3\n      swap2\n      pop\n      pop\n      jump\t// out\n        /* \"#utility.yul\":1445:2424   */\n    tag_60:\n        /* \"#utility.yul\":1542:1548   */\n      0x00\n        /* \"#utility.yul\":1550:1556   */\n      dup1\n        /* \"#utility.yul\":1558:1564   */\n      0x00\n        /* \"#utility.yul\":1607:1609   */\n      0x60\n        /* \"#utility.yul\":1595:1604   */\n      dup5\n        /* \"#utility.yul\":1586:1593   */\n      dup7\n        /* \"#utility.yul\":1582:1605   */\n      sub\n        /* \"#utility.yul\":1578:1610   */\n      slt\n        /* \"#utility.yul\":1575:1694   */\n      iszero\n      tag_352\n      jumpi\n        /* \"#utility.yul\":1613:1692   */\n      tag_353\n      tag_346\n      jump\t// in\n    tag_353:\n        /* \"#utility.yul\":1575:1694   */\n    tag_352:\n        /* \"#utility.yul\":1761:1762   */\n      0x00\n        /* \"#utility.yul\":1750:1759   */\n      dup5\n        /* \"#utility.yul\":1746:1763   */\n      add\n        /* \"#utility.yul\":1733:1764   */\n      calldataload\n        /* \"#utility.yul\":1791:1809   */\n      0xffffffffffffffff\n        /* \"#utility.yul\":1783:1789   */\n      dup2\n        /* \"#utility.yul\":1780:1810   */\n      gt\n        /* \"#utility.yul\":1777:1894   */\n      iszero\n      tag_354\n      jumpi\n        /* \"#utility.yul\":1813:1892   */\n      tag_355\n      tag_349\n      jump\t// in\n    tag_355:\n        /* \"#utility.yul\":1777:1894   */\n    tag_354:\n        /* \"#utility.yul\":1918:1981   */\n      tag_356\n        /* \"#utility.yul\":1973:1980   */\n      dup7\n        /* \"#utility.yul\":1964:1970   */\n      dup3\n        /* \"#utility.yul\":1953:1962   */\n      dup8\n        /* \"#utility.yul\":1949:1971   */\n      add\n        /* \"#utility.yul\":1918:1981   */\n      tag_333\n      jump\t// in\n    tag_356:\n        /* \"#utility.yul\":1908:1981   */\n      swap4\n      pop\n        /* \"#utility.yul\":1704:1991   */\n      pop\n        /* \"#utility.yul\":2030:2032   */\n      0x20\n        /* \"#utility.yul\":2056:2109   */\n      tag_357\n        /* \"#utility.yul\":2101:2108   */\n      dup7\n        /* \"#utility.yul\":2092:2098   */\n      dup3\n        /* \"#utility.yul\":2081:2090   */\n      dup8\n        /* \"#utility.yul\":2077:2099   */\n      add\n        /* \"#utility.yul\":2056:2109   */\n      tag_339\n      jump\t// in\n    tag_357:\n        /* \"#utility.yul\":2046:2109   */\n      swap3\n      pop\n        /* \"#utility.yul\":2001:2119   */\n      pop\n        /* \"#utility.yul\":2186:2188   */\n      0x40\n        /* \"#utility.yul\":2175:2184   */\n      dup5\n        /* \"#utility.yul\":2171:2189   */\n      add\n        /* \"#utility.yul\":2158:2190   */\n      calldataload\n        /* \"#utility.yul\":2217:2235   */\n      0xffffffffffffffff\n        /* \"#utility.yul\":2209:2215   */\n      dup2\n        /* \"#utility.yul\":2206:2236   */\n      gt\n        /* \"#utility.yul\":2203:2320   */\n      iszero\n      tag_358\n      jumpi\n        /* \"#utility.yul\":2239:2318   */\n      tag_359\n      tag_349\n      jump\t// in\n    tag_359:\n        /* \"#utility.yul\":2203:2320   */\n    tag_358:\n        /* \"#utility.yul\":2344:2407   */\n      tag_360\n        /* \"#utility.yul\":2399:2406   */\n      dup7\n        /* \"#utility.yul\":2390:2396   */\n      dup3\n        /* \"#utility.yul\":2379:2388   */\n      dup8\n        /* \"#utility.yul\":2375:2397   */\n      add\n        /* \"#utility.yul\":2344:2407   */\n      tag_333\n      jump\t// in\n    tag_360:\n        /* \"#utility.yul\":2334:2407   */\n      swap2\n      pop\n        /* \"#utility.yul\":2129:2417   */\n      pop\n        /* \"#utility.yul\":1445:2424   */\n      swap3\n      pop\n      swap3\n      pop\n      swap3\n      jump\t// out\n        /* \"#utility.yul\":2430:2759   */\n    tag_31:\n        /* \"#utility.yul\":2489:2495   */\n      0x00\n        /* \"#utility.yul\":2538:2540   */\n      0x20\n        /* \"#utility.yul\":2526:2535   */\n      dup3\n        /* \"#utility.yul\":2517:2524   */\n      dup5\n        /* \"#utility.yul\":2513:2536   */\n      sub\n        /* \"#utility.yul\":2509:2541   */\n      slt\n        /* \"#utility.yul\":2506:2625   */\n      iszero\n      tag_362\n      jumpi\n        /* \"#utility.yul\":2544:2623   */\n      tag_363\n      tag_346\n      jump\t// in\n    tag_363:\n        /* \"#utility.yul\":2506:2625   */\n    tag_362:\n        /* \"#utility.yul\":2664:2665   */\n      0x00\n        /* \"#utility.yul\":2689:2742   */\n      tag_364\n        /* \"#utility.yul\":2734:2741   */\n      dup5\n        /* \"#utility.yul\":2725:2731   */\n      dup3\n        /* \"#utility.yul\":2714:2723   */\n      dup6\n        /* \"#utility.yul\":2710:2732   */\n      add\n        /* \"#utility.yul\":2689:2742   */\n      tag_339\n      jump\t// in\n    tag_364:\n        /* \"#utility.yul\":2679:2742   */\n      swap2\n      pop\n        /* \"#utility.yul\":2635:2752   */\n      pop\n        /* \"#utility.yul\":2430:2759   */\n      swap3\n      swap2\n      pop\n      pop\n      jump\t// out\n        /* \"#utility.yul\":2765:3239   */\n    tag_103:\n        /* \"#utility.yul\":2833:2839   */\n      0x00\n        /* \"#utility.yul\":2841:2847   */\n      dup1\n        /* \"#utility.yul\":2890:2892   */\n      0x40\n        /* \"#utility.yul\":2878:2887   */\n      dup4\n        /* \"#utility.yul\":2869:2876   */\n      dup6\n        /* \"#utility.yul\":2865:2888   */\n      sub\n        /* \"#utility.yul\":2861:2893   */\n      slt\n        /* \"#utility.yul\":2858:2977   */\n      iszero\n      tag_366\n      jumpi\n        /* \"#utility.yul\":2896:2975   */\n      tag_367\n      tag_346\n      jump\t// in\n    tag_367:\n        /* \"#utility.yul\":2858:2977   */\n    tag_366:\n        /* \"#utility.yul\":3016:3017   */\n      0x00\n        /* \"#utility.yul\":3041:3094   */\n      tag_368\n        /* \"#utility.yul\":3086:3093   */\n      dup6\n        /* \"#utility.yul\":3077:3083   */\n      dup3\n        /* \"#utility.yul\":3066:3075   */\n      dup7\n        /* \"#utility.yul\":3062:3084   */\n      add\n        /* \"#utility.yul\":3041:3094   */\n      tag_339\n      jump\t// in\n    tag_368:\n        /* \"#utility.yul\":3031:3094   */\n      swap3\n      pop\n        /* \"#utility.yul\":2987:3104   */\n      pop\n        /* \"#utility.yul\":3143:3145   */\n      0x20\n        /* \"#utility.yul\":3169:3222   */\n      tag_369\n        /* \"#utility.yul\":3214:3221   */\n      dup6\n        /* \"#utility.yul\":3205:3211   */\n      dup3\n        /* \"#utility.yul\":3194:3203   */\n      dup7\n        /* \"#utility.yul\":3190:3212   */\n      add\n        /* \"#utility.yul\":3169:3222   */\n      tag_339\n      jump\t// in\n    tag_369:\n        /* \"#utility.yul\":3159:3222   */\n      swap2\n      pop\n        /* \"#utility.yul\":3114:3232   */\n      pop\n        /* \"#utility.yul\":2765:3239   */\n      swap3\n      pop\n      swap3\n      swap1\n      pop\n      jump\t// out\n        /* \"#utility.yul\":3245:3864   */\n    tag_74:\n        /* \"#utility.yul\":3322:3328   */\n      0x00\n        /* \"#utility.yul\":3330:3336   */\n      dup1\n        /* \"#utility.yul\":3338:3344   */\n      0x00\n        /* \"#utility.yul\":3387:3389   */\n      0x60\n        /* \"#utility.yul\":3375:3384   */\n      dup5\n        /* \"#utility.yul\":3366:3373   */\n      dup7\n        /* \"#utility.yul\":3362:3385   */\n      sub\n        /* \"#utility.yul\":3358:3390   */\n      slt\n        /* \"#utility.yul\":3355:3474   */\n      iszero\n      tag_371\n      jumpi\n        /* \"#utility.yul\":3393:3472   */\n      tag_372\n      tag_346\n      jump\t// in\n    tag_372:\n        /* \"#utility.yul\":3355:3474   */\n    tag_371:\n        /* \"#utility.yul\":3513:3514   */\n      0x00\n        /* \"#utility.yul\":3538:3591   */\n      tag_373\n        /* \"#utility.yul\":3583:3590   */\n      dup7\n        /* \"#utility.yul\":3574:3580   */\n      dup3\n        /* \"#utility.yul\":3563:3572   */\n      dup8\n        /* \"#utility.yul\":3559:3581   */\n      add\n        /* \"#utility.yul\":3538:3591   */\n      tag_339\n      jump\t// in\n    tag_373:\n        /* \"#utility.yul\":3528:3591   */\n      swap4\n      pop\n        /* \"#utility.yul\":3484:3601   */\n      pop\n        /* \"#utility.yul\":3640:3642   */\n      0x20\n        /* \"#utility.yul\":3666:3719   */\n      tag_374\n        /* \"#utility.yul\":3711:3718   */\n      dup7\n        /* \"#utility.yul\":3702:3708   */\n      dup3\n        /* \"#utility.yul\":3691:3700   */\n      dup8\n        /* \"#utility.yul\":3687:3709   */\n      add\n        /* \"#utility.yul\":3666:3719   */\n      tag_339\n      jump\t// in\n    tag_374:\n        /* \"#utility.yul\":3656:3719   */\n      swap3\n      pop\n        /* \"#utility.yul\":3611:3729   */\n      pop\n        /* \"#utility.yul\":3768:3770   */\n      0x40\n        /* \"#utility.yul\":3794:3847   */\n      tag_375\n        /* \"#utility.yul\":3839:3846   */\n      dup7\n        /* \"#utility.yul\":3830:3836   */\n      dup3\n        /* \"#utility.yul\":3819:3828   */\n      dup8\n        /* \"#utility.yul\":3815:3837   */\n      add\n        /* \"#utility.yul\":3794:3847   */\n      tag_339\n      jump\t// in\n    tag_375:\n        /* \"#utility.yul\":3784:3847   */\n      swap2\n      pop\n        /* \"#utility.yul\":3739:3857   */\n      pop\n        /* \"#utility.yul\":3245:3864   */\n      swap3\n      pop\n      swap3\n      pop\n      swap3\n      jump\t// out\n        /* \"#utility.yul\":3870:4049   */\n    tag_376:\n        /* \"#utility.yul\":3939:3949   */\n      0x00\n        /* \"#utility.yul\":3960:4006   */\n      tag_378\n        /* \"#utility.yul\":4002:4005   */\n      dup4\n        /* \"#utility.yul\":3994:4000   */\n      dup4\n        /* \"#utility.yul\":3960:4006   */\n      tag_379\n      jump\t// in\n    tag_378:\n        /* \"#utility.yul\":4038:4042   */\n      0x20\n        /* \"#utility.yul\":4033:4036   */\n      dup4\n        /* \"#utility.yul\":4029:4043   */\n      add\n        /* \"#utility.yul\":4015:4043   */\n      swap1\n      pop\n        /* \"#utility.yul\":3870:4049   */\n      swap3\n      swap2\n      pop\n      pop\n      jump\t// out\n        /* \"#utility.yul\":4085:4797   */\n    tag_380:\n        /* \"#utility.yul\":4194:4197   */\n      0x00\n        /* \"#utility.yul\":4223:4277   */\n      tag_382\n        /* \"#utility.yul\":4271:4276   */\n      dup3\n        /* \"#utility.yul\":4223:4277   */\n      tag_383\n      jump\t// in\n    tag_382:\n        /* \"#utility.yul\":4293:4369   */\n      tag_384\n        /* \"#utility.yul\":4362:4368   */\n      dup2\n        /* \"#utility.yul\":4357:4360   */\n      dup6\n        /* \"#utility.yul\":4293:4369   */\n      tag_385\n      jump\t// in\n    tag_384:\n        /* \"#utility.yul\":4286:4369   */\n      swap4\n      pop\n        /* \"#utility.yul\":4393:4449   */\n      tag_386\n        /* \"#utility.yul\":4443:4448   */\n      dup4\n        /* \"#utility.yul\":4393:4449   */\n      tag_387\n      jump\t// in\n    tag_386:\n        /* \"#utility.yul\":4472:4479   */\n      dup1\n        /* \"#utility.yul\":4503:4504   */\n      0x00\n        /* \"#utility.yul\":4488:4772   */\n    tag_388:\n        /* \"#utility.yul\":4513:4519   */\n      dup4\n        /* \"#utility.yul\":4510:4511   */\n      dup2\n        /* \"#utility.yul\":4507:4520   */\n      lt\n        /* \"#utility.yul\":4488:4772   */\n      iszero\n      tag_390\n      jumpi\n        /* \"#utility.yul\":4589:4595   */\n      dup2\n        /* \"#utility.yul\":4583:4596   */\n      mload\n        /* \"#utility.yul\":4616:4679   */\n      tag_391\n        /* \"#utility.yul\":4675:4678   */\n      dup9\n        /* \"#utility.yul\":4660:4673   */\n      dup3\n        /* \"#utility.yul\":4616:4679   */\n      tag_376\n      jump\t// in\n    tag_391:\n        /* \"#utility.yul\":4609:4679   */\n      swap8\n      pop\n        /* \"#utility.yul\":4702:4762   */\n      tag_392\n        /* \"#utility.yul\":4755:4761   */\n      dup4\n        /* \"#utility.yul\":4702:4762   */\n      tag_393\n      jump\t// in\n    tag_392:\n        /* \"#utility.yul\":4692:4762   */\n      swap3\n      pop\n        /* \"#utility.yul\":4548:4772   */\n      pop\n        /* \"#utility.yul\":4535:4536   */\n      0x01\n        /* \"#utility.yul\":4532:4533   */\n      dup2\n        /* \"#utility.yul\":4528:4537   */\n      add\n        /* \"#utility.yul\":4523:4537   */\n      swap1\n      pop\n        /* \"#utility.yul\":4488:4772   */\n      jump(tag_388)\n    tag_390:\n        /* \"#utility.yul\":4492:4506   */\n      pop\n        /* \"#utility.yul\":4788:4791   */\n      dup6\n        /* \"#utility.yul\":4781:4791   */\n      swap4\n      pop\n        /* \"#utility.yul\":4199:4797   */\n      pop\n      pop\n      pop\n        /* \"#utility.yul\":4085:4797   */\n      swap3\n      swap2\n      pop\n      pop\n      jump\t// out\n        /* \"#utility.yul\":4803:5147   */\n    tag_394:\n        /* \"#utility.yul\":4881:4884   */\n      0x00\n        /* \"#utility.yul\":4909:4948   */\n      tag_396\n        /* \"#utility.yul\":4942:4947   */\n      dup3\n        /* \"#utility.yul\":4909:4948   */\n      tag_397\n      jump\t// in\n    tag_396:\n        /* \"#utility.yul\":4964:5025   */\n      tag_398\n        /* \"#utility.yul\":5018:5024   */\n      dup2\n        /* \"#utility.yul\":5013:5016   */\n      dup6\n        /* \"#utility.yul\":4964:5025   */\n      tag_399\n      jump\t// in\n    tag_398:\n        /* \"#utility.yul\":4957:5025   */\n      swap4\n      pop\n        /* \"#utility.yul\":5034:5086   */\n      tag_400\n        /* \"#utility.yul\":5079:5085   */\n      dup2\n        /* \"#utility.yul\":5074:5077   */\n      dup6\n        /* \"#utility.yul\":5067:5071   */\n      0x20\n        /* \"#utility.yul\":5060:5065   */\n      dup7\n        /* \"#utility.yul\":5056:5072   */\n      add\n        /* \"#utility.yul\":5034:5086   */\n      tag_401\n      jump\t// in\n    tag_400:\n        /* \"#utility.yul\":5111:5140   */\n      tag_402\n        /* \"#utility.yul\":5133:5139   */\n      dup2\n        /* \"#utility.yul\":5111:5140   */\n      tag_403\n      jump\t// in\n    tag_402:\n        /* \"#utility.yul\":5106:5109   */\n      dup5\n        /* \"#utility.yul\":5102:5141   */\n      add\n        /* \"#utility.yul\":5095:5141   */\n      swap2\n      pop\n        /* \"#utility.yul\":4885:5147   */\n      pop\n        /* \"#utility.yul\":4803:5147   */\n      swap3\n      swap2\n      pop\n      pop\n      jump\t// out\n        /* \"#utility.yul\":5153:5517   */\n    tag_404:\n        /* \"#utility.yul\":5241:5244   */\n      0x00\n        /* \"#utility.yul\":5269:5308   */\n      tag_406\n        /* \"#utility.yul\":5302:5307   */\n      dup3\n        /* \"#utility.yul\":5269:5308   */\n      tag_397\n      jump\t// in\n    tag_406:\n        /* \"#utility.yul\":5324:5395   */\n      tag_407\n        /* \"#utility.yul\":5388:5394   */\n      dup2\n        /* \"#utility.yul\":5383:5386   */\n      dup6\n        /* \"#utility.yul\":5324:5395   */\n      tag_408\n      jump\t// in\n    tag_407:\n        /* \"#utility.yul\":5317:5395   */\n      swap4\n      pop\n        /* \"#utility.yul\":5404:5456   */\n      tag_409\n        /* \"#utility.yul\":5449:5455   */\n      dup2\n        /* \"#utility.yul\":5444:5447   */\n      dup6\n        /* \"#utility.yul\":5437:5441   */\n      0x20\n        /* \"#utility.yul\":5430:5435   */\n      dup7\n        /* \"#utility.yul\":5426:5442   */\n      add\n        /* \"#utility.yul\":5404:5456   */\n      tag_401\n      jump\t// in\n    tag_409:\n        /* \"#utility.yul\":5481:5510   */\n      tag_410\n        /* \"#utility.yul\":5503:5509   */\n      dup2\n        /* \"#utility.yul\":5481:5510   */\n      tag_403\n      jump\t// in\n    tag_410:\n        /* \"#utility.yul\":5476:5479   */\n      dup5\n        /* \"#utility.yul\":5472:5511   */\n      add\n        /* \"#utility.yul\":5465:5511   */\n      swap2\n      pop\n        /* \"#utility.yul\":5245:5517   */\n      pop\n        /* \"#utility.yul\":5153:5517   */\n      swap3\n      swap2\n      pop\n      pop\n      jump\t// out\n        /* \"#utility.yul\":5523:5889   */\n    tag_411:\n        /* \"#utility.yul\":5665:5668   */\n      0x00\n        /* \"#utility.yul\":5686:5753   */\n      tag_413\n        /* \"#utility.yul\":5750:5752   */\n      0x34\n        /* \"#utility.yul\":5745:5748   */\n      dup4\n        /* \"#utility.yul\":5686:5753   */\n      tag_408\n      jump\t// in\n    tag_413:\n        /* \"#utility.yul\":5679:5753   */\n      swap2\n      pop\n        /* \"#utility.yul\":5762:5855   */\n      tag_414\n        /* \"#utility.yul\":5851:5854   */\n      dup3\n        /* \"#utility.yul\":5762:5855   */\n      tag_415\n      jump\t// in\n    tag_414:\n        /* \"#utility.yul\":5880:5882   */\n      0x40\n        /* \"#utility.yul\":5875:5878   */\n      dup3\n        /* \"#utility.yul\":5871:5883   */\n      add\n        /* \"#utility.yul\":5864:5883   */\n      swap1\n      pop\n        /* \"#utility.yul\":5523:5889   */\n      swap2\n      swap1\n      pop\n      jump\t// out\n        /* \"#utility.yul\":5895:6261   */\n    tag_416:\n        /* \"#utility.yul\":6037:6040   */\n      0x00\n        /* \"#utility.yul\":6058:6125   */\n      tag_418\n        /* \"#utility.yul\":6122:6124   */\n      0x33\n        /* \"#utility.yul\":6117:6120   */\n      dup4\n        /* \"#utility.yul\":6058:6125   */\n      tag_408\n      jump\t// in\n    tag_418:\n        /* \"#utility.yul\":6051:6125   */\n      swap2\n      pop\n        /* \"#utility.yul\":6134:6227   */\n      tag_419\n        /* \"#utility.yul\":6223:6226   */\n      dup3\n        /* \"#utility.yul\":6134:6227   */\n      tag_420\n      jump\t// in\n    tag_419:\n        /* \"#utility.yul\":6252:6254   */\n      0x40\n        /* \"#utility.yul\":6247:6250   */\n      dup3\n        /* \"#utility.yul\":6243:6255   */\n      add\n        /* \"#utility.yul\":6236:6255   */\n      swap1\n      pop\n        /* \"#utility.yul\":5895:6261   */\n      swap2\n      swap1\n      pop\n      jump\t// out\n        /* \"#utility.yul\":6267:6633   */\n    tag_421:\n        /* \"#utility.yul\":6409:6412   */\n      0x00\n        /* \"#utility.yul\":6430:6497   */\n      tag_423\n        /* \"#utility.yul\":6494:6496   */\n      0x30\n        /* \"#utility.yul\":6489:6492   */\n      dup4\n        /* \"#utility.yul\":6430:6497   */\n      tag_408\n      jump\t// in\n    tag_423:\n        /* \"#utility.yul\":6423:6497   */\n      swap2\n      pop\n        /* \"#utility.yul\":6506:6599   */\n      tag_424\n        /* \"#utility.yul\":6595:6598   */\n      dup3\n        /* \"#utility.yul\":6506:6599   */\n      tag_425\n      jump\t// in\n    tag_424:\n        /* \"#utility.yul\":6624:6626   */\n      0x40\n        /* \"#utility.yul\":6619:6622   */\n      dup3\n        /* \"#utility.yul\":6615:6627   */\n      add\n        /* \"#utility.yul\":6608:6627   */\n      swap1\n      pop\n        /* \"#utility.yul\":6267:6633   */\n      swap2\n      swap1\n      pop\n      jump\t// out\n        /* \"#utility.yul\":6709:7855   */\n    tag_426:\n        /* \"#utility.yul\":6832:6835   */\n      0x00\n        /* \"#utility.yul\":6868:6872   */\n      0x80\n        /* \"#utility.yul\":6863:6866   */\n      dup4\n        /* \"#utility.yul\":6859:6873   */\n      add\n        /* \"#utility.yul\":6964:6968   */\n      0x00\n        /* \"#utility.yul\":6957:6962   */\n      dup4\n        /* \"#utility.yul\":6953:6969   */\n      add\n        /* \"#utility.yul\":6947:6970   */\n      mload\n        /* \"#utility.yul\":6983:7046   */\n      tag_428\n        /* \"#utility.yul\":7040:7044   */\n      0x00\n        /* \"#utility.yul\":7035:7038   */\n      dup7\n        /* \"#utility.yul\":7031:7045   */\n      add\n        /* \"#utility.yul\":7017:7029   */\n      dup3\n        /* \"#utility.yul\":6983:7046   */\n      tag_379\n      jump\t// in\n    tag_428:\n        /* \"#utility.yul\":6883:7056   */\n      pop\n        /* \"#utility.yul\":7138:7142   */\n      0x20\n        /* \"#utility.yul\":7131:7136   */\n      dup4\n        /* \"#utility.yul\":7127:7143   */\n      add\n        /* \"#utility.yul\":7121:7144   */\n      mload\n        /* \"#utility.yul\":7191:7194   */\n      dup5\n        /* \"#utility.yul\":7185:7189   */\n      dup3\n        /* \"#utility.yul\":7181:7195   */\n      sub\n        /* \"#utility.yul\":7174:7178   */\n      0x20\n        /* \"#utility.yul\":7169:7172   */\n      dup7\n        /* \"#utility.yul\":7165:7179   */\n      add\n        /* \"#utility.yul\":7158:7196   */\n      mstore\n        /* \"#utility.yul\":7217:7290   */\n      tag_429\n        /* \"#utility.yul\":7285:7289   */\n      dup3\n        /* \"#utility.yul\":7271:7283   */\n      dup3\n        /* \"#utility.yul\":7217:7290   */\n      tag_394\n      jump\t// in\n    tag_429:\n        /* \"#utility.yul\":7209:7290   */\n      swap2\n      pop\n        /* \"#utility.yul\":7066:7301   */\n      pop\n        /* \"#utility.yul\":7383:7387   */\n      0x40\n        /* \"#utility.yul\":7376:7381   */\n      dup4\n        /* \"#utility.yul\":7372:7388   */\n      add\n        /* \"#utility.yul\":7366:7389   */\n      mload\n        /* \"#utility.yul\":7436:7439   */\n      dup5\n        /* \"#utility.yul\":7430:7434   */\n      dup3\n        /* \"#utility.yul\":7426:7440   */\n      sub\n        /* \"#utility.yul\":7419:7423   */\n      0x40\n        /* \"#utility.yul\":7414:7417   */\n      dup7\n        /* \"#utility.yul\":7410:7424   */\n      add\n        /* \"#utility.yul\":7403:7441   */\n      mstore\n        /* \"#utility.yul\":7462:7535   */\n      tag_430\n        /* \"#utility.yul\":7530:7534   */\n      dup3\n        /* \"#utility.yul\":7516:7528   */\n      dup3\n        /* \"#utility.yul\":7462:7535   */\n      tag_394\n      jump\t// in\n    tag_430:\n        /* \"#utility.yul\":7454:7535   */\n      swap2\n      pop\n        /* \"#utility.yul\":7311:7546   */\n      pop\n        /* \"#utility.yul\":7635:7639   */\n      0x60\n        /* \"#utility.yul\":7628:7633   */\n      dup4\n        /* \"#utility.yul\":7624:7640   */\n      add\n        /* \"#utility.yul\":7618:7641   */\n      mload\n        /* \"#utility.yul\":7688:7691   */\n      dup5\n        /* \"#utility.yul\":7682:7686   */\n      dup3\n        /* \"#utility.yul\":7678:7692   */\n      sub\n        /* \"#utility.yul\":7671:7675   */\n      0x60\n        /* \"#utility.yul\":7666:7669   */\n      dup7\n        /* \"#utility.yul\":7662:7676   */\n      add\n        /* \"#utility.yul\":7655:7693   */\n      mstore\n        /* \"#utility.yul\":7714:7817   */\n      tag_431\n        /* \"#utility.yul\":7812:7816   */\n      dup3\n        /* \"#utility.yul\":7798:7810   */\n      dup3\n        /* \"#utility.yul\":7714:7817   */\n      tag_380\n      jump\t// in\n    tag_431:\n        /* \"#utility.yul\":7706:7817   */\n      swap2\n      pop\n        /* \"#utility.yul\":7556:7828   */\n      pop\n        /* \"#utility.yul\":7845:7849   */\n      dup1\n        /* \"#utility.yul\":7838:7849   */\n      swap2\n      pop\n        /* \"#utility.yul\":6837:7855   */\n      pop\n        /* \"#utility.yul\":6709:7855   */\n      swap3\n      swap2\n      pop\n      pop\n      jump\t// out\n        /* \"#utility.yul\":7933:9082   */\n    tag_432:\n        /* \"#utility.yul\":8058:8061   */\n      0x00\n        /* \"#utility.yul\":8094:8098   */\n      0x80\n        /* \"#utility.yul\":8089:8092   */\n      dup4\n        /* \"#utility.yul\":8085:8099   */\n      add\n        /* \"#utility.yul\":8191:8195   */\n      0x00\n        /* \"#utility.yul\":8184:8189   */\n      dup4\n        /* \"#utility.yul\":8180:8196   */\n      add\n        /* \"#utility.yul\":8174:8197   */\n      mload\n        /* \"#utility.yul\":8210:8273   */\n      tag_434\n        /* \"#utility.yul\":8267:8271   */\n      0x00\n        /* \"#utility.yul\":8262:8265   */\n      dup7\n        /* \"#utility.yul\":8258:8272   */\n      add\n        /* \"#utility.yul\":8244:8256   */\n      dup3\n        /* \"#utility.yul\":8210:8273   */\n      tag_379\n      jump\t// in\n    tag_434:\n        /* \"#utility.yul\":8109:8283   */\n      pop\n        /* \"#utility.yul\":8365:8369   */\n      0x20\n        /* \"#utility.yul\":8358:8363   */\n      dup4\n        /* \"#utility.yul\":8354:8370   */\n      add\n        /* \"#utility.yul\":8348:8371   */\n      mload\n        /* \"#utility.yul\":8418:8421   */\n      dup5\n        /* \"#utility.yul\":8412:8416   */\n      dup3\n        /* \"#utility.yul\":8408:8422   */\n      sub\n        /* \"#utility.yul\":8401:8405   */\n      0x20\n        /* \"#utility.yul\":8396:8399   */\n      dup7\n        /* \"#utility.yul\":8392:8406   */\n      add\n        /* \"#utility.yul\":8385:8423   */\n      mstore\n        /* \"#utility.yul\":8444:8517   */\n      tag_435\n        /* \"#utility.yul\":8512:8516   */\n      dup3\n        /* \"#utility.yul\":8498:8510   */\n      dup3\n        /* \"#utility.yul\":8444:8517   */\n      tag_394\n      jump\t// in\n    tag_435:\n        /* \"#utility.yul\":8436:8517   */\n      swap2\n      pop\n        /* \"#utility.yul\":8293:8528   */\n      pop\n        /* \"#utility.yul\":8610:8614   */\n      0x40\n        /* \"#utility.yul\":8603:8608   */\n      dup4\n        /* \"#utility.yul\":8599:8615   */\n      add\n        /* \"#utility.yul\":8593:8616   */\n      mload\n        /* \"#utility.yul\":8663:8666   */\n      dup5\n        /* \"#utility.yul\":8657:8661   */\n      dup3\n        /* \"#utility.yul\":8653:8667   */\n      sub\n        /* \"#utility.yul\":8646:8650   */\n      0x40\n        /* \"#utility.yul\":8641:8644   */\n      dup7\n        /* \"#utility.yul\":8637:8651   */\n      add\n        /* \"#utility.yul\":8630:8668   */\n      mstore\n        /* \"#utility.yul\":8689:8762   */\n      tag_436\n        /* \"#utility.yul\":8757:8761   */\n      dup3\n        /* \"#utility.yul\":8743:8755   */\n      dup3\n        /* \"#utility.yul\":8689:8762   */\n      tag_394\n      jump\t// in\n    tag_436:\n        /* \"#utility.yul\":8681:8762   */\n      swap2\n      pop\n        /* \"#utility.yul\":8538:8773   */\n      pop\n        /* \"#utility.yul\":8862:8866   */\n      0x60\n        /* \"#utility.yul\":8855:8860   */\n      dup4\n        /* \"#utility.yul\":8851:8867   */\n      add\n        /* \"#utility.yul\":8845:8868   */\n      mload\n        /* \"#utility.yul\":8915:8918   */\n      dup5\n        /* \"#utility.yul\":8909:8913   */\n      dup3\n        /* \"#utility.yul\":8905:8919   */\n      sub\n        /* \"#utility.yul\":8898:8902   */\n      0x60\n        /* \"#utility.yul\":8893:8896   */\n      dup7\n        /* \"#utility.yul\":8889:8903   */\n      add\n        /* \"#utility.yul\":8882:8920   */\n      mstore\n        /* \"#utility.yul\":8941:9044   */\n      tag_437\n        /* \"#utility.yul\":9039:9043   */\n      dup3\n        /* \"#utility.yul\":9025:9037   */\n      dup3\n        /* \"#utility.yul\":8941:9044   */\n      tag_380\n      jump\t// in\n    tag_437:\n        /* \"#utility.yul\":8933:9044   */\n      swap2\n      pop\n        /* \"#utility.yul\":8783:9055   */\n      pop\n        /* \"#utility.yul\":9072:9076   */\n      dup1\n        /* \"#utility.yul\":9065:9076   */\n      swap2\n      pop\n        /* \"#utility.yul\":8063:9082   */\n      pop\n        /* \"#utility.yul\":7933:9082   */\n      swap3\n      swap2\n      pop\n      pop\n      jump\t// out\n        /* \"#utility.yul\":9150:10613   */\n    tag_438:\n        /* \"#utility.yul\":9265:9268   */\n      0x00\n        /* \"#utility.yul\":9301:9305   */\n      0xc0\n        /* \"#utility.yul\":9296:9299   */\n      dup4\n        /* \"#utility.yul\":9292:9306   */\n      add\n        /* \"#utility.yul\":9393:9397   */\n      0x00\n        /* \"#utility.yul\":9386:9391   */\n      dup4\n        /* \"#utility.yul\":9382:9398   */\n      add\n        /* \"#utility.yul\":9376:9399   */\n      mload\n        /* \"#utility.yul\":9412:9475   */\n      tag_440\n        /* \"#utility.yul\":9469:9473   */\n      0x00\n        /* \"#utility.yul\":9464:9467   */\n      dup7\n        /* \"#utility.yul\":9460:9474   */\n      add\n        /* \"#utility.yul\":9446:9458   */\n      dup3\n        /* \"#utility.yul\":9412:9475   */\n      tag_379\n      jump\t// in\n    tag_440:\n        /* \"#utility.yul\":9316:9485   */\n      pop\n        /* \"#utility.yul\":9567:9571   */\n      0x20\n        /* \"#utility.yul\":9560:9565   */\n      dup4\n        /* \"#utility.yul\":9556:9572   */\n      add\n        /* \"#utility.yul\":9550:9573   */\n      mload\n        /* \"#utility.yul\":9620:9623   */\n      dup5\n        /* \"#utility.yul\":9614:9618   */\n      dup3\n        /* \"#utility.yul\":9610:9624   */\n      sub\n        /* \"#utility.yul\":9603:9607   */\n      0x20\n        /* \"#utility.yul\":9598:9601   */\n      dup7\n        /* \"#utility.yul\":9594:9608   */\n      add\n        /* \"#utility.yul\":9587:9625   */\n      mstore\n        /* \"#utility.yul\":9646:9719   */\n      tag_441\n        /* \"#utility.yul\":9714:9718   */\n      dup3\n        /* \"#utility.yul\":9700:9712   */\n      dup3\n        /* \"#utility.yul\":9646:9719   */\n      tag_394\n      jump\t// in\n    tag_441:\n        /* \"#utility.yul\":9638:9719   */\n      swap2\n      pop\n        /* \"#utility.yul\":9495:9730   */\n      pop\n        /* \"#utility.yul\":9813:9817   */\n      0x40\n        /* \"#utility.yul\":9806:9811   */\n      dup4\n        /* \"#utility.yul\":9802:9818   */\n      add\n        /* \"#utility.yul\":9796:9819   */\n      mload\n        /* \"#utility.yul\":9832:9895   */\n      tag_442\n        /* \"#utility.yul\":9889:9893   */\n      0x40\n        /* \"#utility.yul\":9884:9887   */\n      dup7\n        /* \"#utility.yul\":9880:9894   */\n      add\n        /* \"#utility.yul\":9866:9878   */\n      dup3\n        /* \"#utility.yul\":9832:9895   */\n      tag_379\n      jump\t// in\n    tag_442:\n        /* \"#utility.yul\":9740:9905   */\n      pop\n        /* \"#utility.yul\":9994:9998   */\n      0x60\n        /* \"#utility.yul\":9987:9992   */\n      dup4\n        /* \"#utility.yul\":9983:9999   */\n      add\n        /* \"#utility.yul\":9977:10000   */\n      mload\n        /* \"#utility.yul\":10047:10050   */\n      dup5\n        /* \"#utility.yul\":10041:10045   */\n      dup3\n        /* \"#utility.yul\":10037:10051   */\n      sub\n        /* \"#utility.yul\":10030:10034   */\n      0x60\n        /* \"#utility.yul\":10025:10028   */\n      dup7\n        /* \"#utility.yul\":10021:10035   */\n      add\n        /* \"#utility.yul\":10014:10052   */\n      mstore\n        /* \"#utility.yul\":10073:10146   */\n      tag_443\n        /* \"#utility.yul\":10141:10145   */\n      dup3\n        /* \"#utility.yul\":10127:10139   */\n      dup3\n        /* \"#utility.yul\":10073:10146   */\n      tag_394\n      jump\t// in\n    tag_443:\n        /* \"#utility.yul\":10065:10146   */\n      swap2\n      pop\n        /* \"#utility.yul\":9915:10157   */\n      pop\n        /* \"#utility.yul\":10243:10247   */\n      0x80\n        /* \"#utility.yul\":10236:10241   */\n      dup4\n        /* \"#utility.yul\":10232:10248   */\n      add\n        /* \"#utility.yul\":10226:10249   */\n      mload\n        /* \"#utility.yul\":10296:10299   */\n      dup5\n        /* \"#utility.yul\":10290:10294   */\n      dup3\n        /* \"#utility.yul\":10286:10300   */\n      sub\n        /* \"#utility.yul\":10279:10283   */\n      0x80\n        /* \"#utility.yul\":10274:10277   */\n      dup7\n        /* \"#utility.yul\":10270:10284   */\n      add\n        /* \"#utility.yul\":10263:10301   */\n      mstore\n        /* \"#utility.yul\":10322:10395   */\n      tag_444\n        /* \"#utility.yul\":10390:10394   */\n      dup3\n        /* \"#utility.yul\":10376:10388   */\n      dup3\n        /* \"#utility.yul\":10322:10395   */\n      tag_394\n      jump\t// in\n    tag_444:\n        /* \"#utility.yul\":10314:10395   */\n      swap2\n      pop\n        /* \"#utility.yul\":10167:10406   */\n      pop\n        /* \"#utility.yul\":10494:10498   */\n      0xa0\n        /* \"#utility.yul\":10487:10492   */\n      dup4\n        /* \"#utility.yul\":10483:10499   */\n      add\n        /* \"#utility.yul\":10477:10500   */\n      mload\n        /* \"#utility.yul\":10513:10576   */\n      tag_445\n        /* \"#utility.yul\":10570:10574   */\n      0xa0\n        /* \"#utility.yul\":10565:10568   */\n      dup7\n        /* \"#utility.yul\":10561:10575   */\n      add\n        /* \"#utility.yul\":10547:10559   */\n      dup3\n        /* \"#utility.yul\":10513:10576   */\n      tag_379\n      jump\t// in\n    tag_445:\n        /* \"#utility.yul\":10416:10586   */\n      pop\n        /* \"#utility.yul\":10603:10607   */\n      dup1\n        /* \"#utility.yul\":10596:10607   */\n      swap2\n      pop\n        /* \"#utility.yul\":9270:10613   */\n      pop\n        /* \"#utility.yul\":9150:10613   */\n      swap3\n      swap2\n      pop\n      pop\n      jump\t// out\n        /* \"#utility.yul\":10683:11575   */\n    tag_446:\n        /* \"#utility.yul\":10800:10803   */\n      0x00\n        /* \"#utility.yul\":10836:10840   */\n      0x60\n        /* \"#utility.yul\":10831:10834   */\n      dup4\n        /* \"#utility.yul\":10827:10841   */\n      add\n        /* \"#utility.yul\":10929:10933   */\n      0x00\n        /* \"#utility.yul\":10922:10927   */\n      dup4\n        /* \"#utility.yul\":10918:10934   */\n      add\n        /* \"#utility.yul\":10912:10935   */\n      mload\n        /* \"#utility.yul\":10948:11011   */\n      tag_448\n        /* \"#utility.yul\":11005:11009   */\n      0x00\n        /* \"#utility.yul\":11000:11003   */\n      dup7\n        /* \"#utility.yul\":10996:11010   */\n      add\n        /* \"#utility.yul\":10982:10994   */\n      dup3\n        /* \"#utility.yul\":10948:11011   */\n      tag_379\n      jump\t// in\n    tag_448:\n        /* \"#utility.yul\":10851:11021   */\n      pop\n        /* \"#utility.yul\":11103:11107   */\n      0x20\n        /* \"#utility.yul\":11096:11101   */\n      dup4\n        /* \"#utility.yul\":11092:11108   */\n      add\n        /* \"#utility.yul\":11086:11109   */\n      mload\n        /* \"#utility.yul\":11156:11159   */\n      dup5\n        /* \"#utility.yul\":11150:11154   */\n      dup3\n        /* \"#utility.yul\":11146:11160   */\n      sub\n        /* \"#utility.yul\":11139:11143   */\n      0x20\n        /* \"#utility.yul\":11134:11137   */\n      dup7\n        /* \"#utility.yul\":11130:11144   */\n      add\n        /* \"#utility.yul\":11123:11161   */\n      mstore\n        /* \"#utility.yul\":11182:11255   */\n      tag_449\n        /* \"#utility.yul\":11250:11254   */\n      dup3\n        /* \"#utility.yul\":11236:11248   */\n      dup3\n        /* \"#utility.yul\":11182:11255   */\n      tag_394\n      jump\t// in\n    tag_449:\n        /* \"#utility.yul\":11174:11255   */\n      swap2\n      pop\n        /* \"#utility.yul\":11031:11266   */\n      pop\n        /* \"#utility.yul\":11355:11359   */\n      0x40\n        /* \"#utility.yul\":11348:11353   */\n      dup4\n        /* \"#utility.yul\":11344:11360   */\n      add\n        /* \"#utility.yul\":11338:11361   */\n      mload\n        /* \"#utility.yul\":11408:11411   */\n      dup5\n        /* \"#utility.yul\":11402:11406   */\n      dup3\n        /* \"#utility.yul\":11398:11412   */\n      sub\n        /* \"#utility.yul\":11391:11395   */\n      0x40\n        /* \"#utility.yul\":11386:11389   */\n      dup7\n        /* \"#utility.yul\":11382:11396   */\n      add\n        /* \"#utility.yul\":11375:11413   */\n      mstore\n        /* \"#utility.yul\":11434:11537   */\n      tag_450\n        /* \"#utility.yul\":11532:11536   */\n      dup3\n        /* \"#utility.yul\":11518:11530   */\n      dup3\n        /* \"#utility.yul\":11434:11537   */\n      tag_380\n      jump\t// in\n    tag_450:\n        /* \"#utility.yul\":11426:11537   */\n      swap2\n      pop\n        /* \"#utility.yul\":11276:11548   */\n      pop\n        /* \"#utility.yul\":11565:11569   */\n      dup1\n        /* \"#utility.yul\":11558:11569   */\n      swap2\n      pop\n        /* \"#utility.yul\":10805:11575   */\n      pop\n        /* \"#utility.yul\":10683:11575   */\n      swap3\n      swap2\n      pop\n      pop\n      jump\t// out\n        /* \"#utility.yul\":11645:12782   */\n    tag_451:\n        /* \"#utility.yul\":11762:11765   */\n      0x00\n        /* \"#utility.yul\":11798:11802   */\n      0x80\n        /* \"#utility.yul\":11793:11796   */\n      dup4\n        /* \"#utility.yul\":11789:11803   */\n      add\n        /* \"#utility.yul\":11891:11895   */\n      0x00\n        /* \"#utility.yul\":11884:11889   */\n      dup4\n        /* \"#utility.yul\":11880:11896   */\n      add\n        /* \"#utility.yul\":11874:11897   */\n      mload\n        /* \"#utility.yul\":11910:11973   */\n      tag_453\n        /* \"#utility.yul\":11967:11971   */\n      0x00\n        /* \"#utility.yul\":11962:11965   */\n      dup7\n        /* \"#utility.yul\":11958:11972   */\n      add\n        /* \"#utility.yul\":11944:11956   */\n      dup3\n        /* \"#utility.yul\":11910:11973   */\n      tag_379\n      jump\t// in\n    tag_453:\n        /* \"#utility.yul\":11813:11983   */\n      pop\n        /* \"#utility.yul\":12065:12069   */\n      0x20\n        /* \"#utility.yul\":12058:12063   */\n      dup4\n        /* \"#utility.yul\":12054:12070   */\n      add\n        /* \"#utility.yul\":12048:12071   */\n      mload\n        /* \"#utility.yul\":12118:12121   */\n      dup5\n        /* \"#utility.yul\":12112:12116   */\n      dup3\n        /* \"#utility.yul\":12108:12122   */\n      sub\n        /* \"#utility.yul\":12101:12105   */\n      0x20\n        /* \"#utility.yul\":12096:12099   */\n      dup7\n        /* \"#utility.yul\":12092:12106   */\n      add\n        /* \"#utility.yul\":12085:12123   */\n      mstore\n        /* \"#utility.yul\":12144:12217   */\n      tag_454\n        /* \"#utility.yul\":12212:12216   */\n      dup3\n        /* \"#utility.yul\":12198:12210   */\n      dup3\n        /* \"#utility.yul\":12144:12217   */\n      tag_394\n      jump\t// in\n    tag_454:\n        /* \"#utility.yul\":12136:12217   */\n      swap2\n      pop\n        /* \"#utility.yul\":11993:12228   */\n      pop\n        /* \"#utility.yul\":12310:12314   */\n      0x40\n        /* \"#utility.yul\":12303:12308   */\n      dup4\n        /* \"#utility.yul\":12299:12315   */\n      add\n        /* \"#utility.yul\":12293:12316   */\n      mload\n        /* \"#utility.yul\":12363:12366   */\n      dup5\n        /* \"#utility.yul\":12357:12361   */\n      dup3\n        /* \"#utility.yul\":12353:12367   */\n      sub\n        /* \"#utility.yul\":12346:12350   */\n      0x40\n        /* \"#utility.yul\":12341:12344   */\n      dup7\n        /* \"#utility.yul\":12337:12351   */\n      add\n        /* \"#utility.yul\":12330:12368   */\n      mstore\n        /* \"#utility.yul\":12389:12462   */\n      tag_455\n        /* \"#utility.yul\":12457:12461   */\n      dup3\n        /* \"#utility.yul\":12443:12455   */\n      dup3\n        /* \"#utility.yul\":12389:12462   */\n      tag_394\n      jump\t// in\n    tag_455:\n        /* \"#utility.yul\":12381:12462   */\n      swap2\n      pop\n        /* \"#utility.yul\":12238:12473   */\n      pop\n        /* \"#utility.yul\":12562:12566   */\n      0x60\n        /* \"#utility.yul\":12555:12560   */\n      dup4\n        /* \"#utility.yul\":12551:12567   */\n      add\n        /* \"#utility.yul\":12545:12568   */\n      mload\n        /* \"#utility.yul\":12615:12618   */\n      dup5\n        /* \"#utility.yul\":12609:12613   */\n      dup3\n        /* \"#utility.yul\":12605:12619   */\n      sub\n        /* \"#utility.yul\":12598:12602   */\n      0x60\n        /* \"#utility.yul\":12593:12596   */\n      dup7\n        /* \"#utility.yul\":12589:12603   */\n      add\n        /* \"#utility.yul\":12582:12620   */\n      mstore\n        /* \"#utility.yul\":12641:12744   */\n      tag_456\n        /* \"#utility.yul\":12739:12743   */\n      dup3\n        /* \"#utility.yul\":12725:12737   */\n      dup3\n        /* \"#utility.yul\":12641:12744   */\n      tag_380\n      jump\t// in\n    tag_456:\n        /* \"#utility.yul\":12633:12744   */\n      swap2\n      pop\n        /* \"#utility.yul\":12483:12755   */\n      pop\n        /* \"#utility.yul\":12772:12776   */\n      dup1\n        /* \"#utility.yul\":12765:12776   */\n      swap2\n      pop\n        /* \"#utility.yul\":11767:12782   */\n      pop\n        /* \"#utility.yul\":11645:12782   */\n      swap3\n      swap2\n      pop\n      pop\n      jump\t// out\n        /* \"#utility.yul\":12788:12896   */\n    tag_379:\n        /* \"#utility.yul\":12865:12889   */\n      tag_458\n        /* \"#utility.yul\":12883:12888   */\n      dup2\n        /* \"#utility.yul\":12865:12889   */\n      tag_459\n      jump\t// in\n    tag_458:\n        /* \"#utility.yul\":12860:12863   */\n      dup3\n        /* \"#utility.yul\":12853:12890   */\n      mstore\n        /* \"#utility.yul\":12788:12896   */\n      pop\n      pop\n      jump\t// out\n        /* \"#utility.yul\":12902:13020   */\n    tag_460:\n        /* \"#utility.yul\":12989:13013   */\n      tag_462\n        /* \"#utility.yul\":13007:13012   */\n      dup2\n        /* \"#utility.yul\":12989:13013   */\n      tag_459\n      jump\t// in\n    tag_462:\n        /* \"#utility.yul\":12984:12987   */\n      dup3\n        /* \"#utility.yul\":12977:13014   */\n      mstore\n        /* \"#utility.yul\":12902:13020   */\n      pop\n      pop\n      jump\t// out\n        /* \"#utility.yul\":13026:13559   */\n    tag_109:\n        /* \"#utility.yul\":13195:13199   */\n      0x00\n        /* \"#utility.yul\":13233:13235   */\n      0x60\n        /* \"#utility.yul\":13222:13231   */\n      dup3\n        /* \"#utility.yul\":13218:13236   */\n      add\n        /* \"#utility.yul\":13210:13236   */\n      swap1\n      pop\n        /* \"#utility.yul\":13282:13291   */\n      dup2\n        /* \"#utility.yul\":13276:13280   */\n      dup2\n        /* \"#utility.yul\":13272:13292   */\n      sub\n        /* \"#utility.yul\":13268:13269   */\n      0x00\n        /* \"#utility.yul\":13257:13266   */\n      dup4\n        /* \"#utility.yul\":13253:13270   */\n      add\n        /* \"#utility.yul\":13246:13293   */\n      mstore\n        /* \"#utility.yul\":13310:13388   */\n      tag_464\n        /* \"#utility.yul\":13383:13387   */\n      dup2\n        /* \"#utility.yul\":13374:13380   */\n      dup7\n        /* \"#utility.yul\":13310:13388   */\n      tag_404\n      jump\t// in\n    tag_464:\n        /* \"#utility.yul\":13302:13388   */\n      swap1\n      pop\n        /* \"#utility.yul\":13398:13470   */\n      tag_465\n        /* \"#utility.yul\":13466:13468   */\n      0x20\n        /* \"#utility.yul\":13455:13464   */\n      dup4\n        /* \"#utility.yul\":13451:13469   */\n      add\n        /* \"#utility.yul\":13442:13448   */\n      dup6\n        /* \"#utility.yul\":13398:13470   */\n      tag_460\n      jump\t// in\n    tag_465:\n        /* \"#utility.yul\":13480:13552   */\n      tag_466\n        /* \"#utility.yul\":13548:13550   */\n      0x40\n        /* \"#utility.yul\":13537:13546   */\n      dup4\n        /* \"#utility.yul\":13533:13551   */\n      add\n        /* \"#utility.yul\":13524:13530   */\n      dup5\n        /* \"#utility.yul\":13480:13552   */\n      tag_460\n      jump\t// in\n    tag_466:\n        /* \"#utility.yul\":13026:13559   */\n      swap5\n      swap4\n      pop\n      pop\n      pop\n      pop\n      jump\t// out\n        /* \"#utility.yul\":13565:13984   */\n    tag_236:\n        /* \"#utility.yul\":13731:13735   */\n      0x00\n        /* \"#utility.yul\":13769:13771   */\n      0x20\n        /* \"#utility.yul\":13758:13767   */\n      dup3\n        /* \"#utility.yul\":13754:13772   */\n      add\n        /* \"#utility.yul\":13746:13772   */\n      swap1\n      pop\n        /* \"#utility.yul\":13818:13827   */\n      dup2\n        /* \"#utility.yul\":13812:13816   */\n      dup2\n        /* \"#utility.yul\":13808:13828   */\n      sub\n        /* \"#utility.yul\":13804:13805   */\n      0x00\n        /* \"#utility.yul\":13793:13802   */\n      dup4\n        /* \"#utility.yul\":13789:13806   */\n      add\n        /* \"#utility.yul\":13782:13829   */\n      mstore\n        /* \"#utility.yul\":13846:13977   */\n      tag_468\n        /* \"#utility.yul\":13972:13976   */\n      dup2\n        /* \"#utility.yul\":13846:13977   */\n      tag_411\n      jump\t// in\n    tag_468:\n        /* \"#utility.yul\":13838:13977   */\n      swap1\n      pop\n        /* \"#utility.yul\":13565:13984   */\n      swap2\n      swap1\n      pop\n      jump\t// out\n        /* \"#utility.yul\":13990:14409   */\n    tag_243:\n        /* \"#utility.yul\":14156:14160   */\n      0x00\n        /* \"#utility.yul\":14194:14196   */\n      0x20\n        /* \"#utility.yul\":14183:14192   */\n      dup3\n        /* \"#utility.yul\":14179:14197   */\n      add\n        /* \"#utility.yul\":14171:14197   */\n      swap1\n      pop\n        /* \"#utility.yul\":14243:14252   */\n      dup2\n        /* \"#utility.yul\":14237:14241   */\n      dup2\n        /* \"#utility.yul\":14233:14253   */\n      sub\n        /* \"#utility.yul\":14229:14230   */\n      0x00\n        /* \"#utility.yul\":14218:14227   */\n      dup4\n        /* \"#utility.yul\":14214:14231   */\n      add\n        /* \"#utility.yul\":14207:14254   */\n      mstore\n        /* \"#utility.yul\":14271:14402   */\n      tag_470\n        /* \"#utility.yul\":14397:14401   */\n      dup2\n        /* \"#utility.yul\":14271:14402   */\n      tag_416\n      jump\t// in\n    tag_470:\n        /* \"#utility.yul\":14263:14402   */\n      swap1\n      pop\n        /* \"#utility.yul\":13990:14409   */\n      swap2\n      swap1\n      pop\n      jump\t// out\n        /* \"#utility.yul\":14415:14834   */\n    tag_267:\n        /* \"#utility.yul\":14581:14585   */\n      0x00\n        /* \"#utility.yul\":14619:14621   */\n      0x20\n        /* \"#utility.yul\":14608:14617   */\n      dup3\n        /* \"#utility.yul\":14604:14622   */\n      add\n        /* \"#utility.yul\":14596:14622   */\n      swap1\n      pop\n        /* \"#utility.yul\":14668:14677   */\n      dup2\n        /* \"#utility.yul\":14662:14666   */\n      dup2\n        /* \"#utility.yul\":14658:14678   */\n      sub\n        /* \"#utility.yul\":14654:14655   */\n      0x00\n        /* \"#utility.yul\":14643:14652   */\n      dup4\n        /* \"#utility.yul\":14639:14656   */\n      add\n        /* \"#utility.yul\":14632:14679   */\n      mstore\n        /* \"#utility.yul\":14696:14827   */\n      tag_472\n        /* \"#utility.yul\":14822:14826   */\n      dup2\n        /* \"#utility.yul\":14696:14827   */\n      tag_421\n      jump\t// in\n    tag_472:\n        /* \"#utility.yul\":14688:14827   */\n      swap1\n      pop\n        /* \"#utility.yul\":14415:14834   */\n      swap2\n      swap1\n      pop\n      jump\t// out\n        /* \"#utility.yul\":14840:15221   */\n    tag_34:\n        /* \"#utility.yul\":14987:14991   */\n      0x00\n        /* \"#utility.yul\":15025:15027   */\n      0x20\n        /* \"#utility.yul\":15014:15023   */\n      dup3\n        /* \"#utility.yul\":15010:15028   */\n      add\n        /* \"#utility.yul\":15002:15028   */\n      swap1\n      pop\n        /* \"#utility.yul\":15074:15083   */\n      dup2\n        /* \"#utility.yul\":15068:15072   */\n      dup2\n        /* \"#utility.yul\":15064:15084   */\n      sub\n        /* \"#utility.yul\":15060:15061   */\n      0x00\n        /* \"#utility.yul\":15049:15058   */\n      dup4\n        /* \"#utility.yul\":15045:15062   */\n      add\n        /* \"#utility.yul\":15038:15085   */\n      mstore\n        /* \"#utility.yul\":15102:15214   */\n      tag_474\n        /* \"#utility.yul\":15209:15213   */\n      dup2\n        /* \"#utility.yul\":15200:15206   */\n      dup5\n        /* \"#utility.yul\":15102:15214   */\n      tag_426\n      jump\t// in\n    tag_474:\n        /* \"#utility.yul\":15094:15214   */\n      swap1\n      pop\n        /* \"#utility.yul\":14840:15221   */\n      swap3\n      swap2\n      pop\n      pop\n      jump\t// out\n        /* \"#utility.yul\":15227:15612   */\n    tag_91:\n        /* \"#utility.yul\":15376:15380   */\n      0x00\n        /* \"#utility.yul\":15414:15416   */\n      0x20\n        /* \"#utility.yul\":15403:15412   */\n      dup3\n        /* \"#utility.yul\":15399:15417   */\n      add\n        /* \"#utility.yul\":15391:15417   */\n      swap1\n      pop\n        /* \"#utility.yul\":15463:15472   */\n      dup2\n        /* \"#utility.yul\":15457:15461   */\n      dup2\n        /* \"#utility.yul\":15453:15473   */\n      sub\n        /* \"#utility.yul\":15449:15450   */\n      0x00\n        /* \"#utility.yul\":15438:15447   */\n      dup4\n        /* \"#utility.yul\":15434:15451   */\n      add\n        /* \"#utility.yul\":15427:15474   */\n      mstore\n        /* \"#utility.yul\":15491:15605   */\n      tag_476\n        /* \"#utility.yul\":15600:15604   */\n      dup2\n        /* \"#utility.yul\":15591:15597   */\n      dup5\n        /* \"#utility.yul\":15491:15605   */\n      tag_432\n      jump\t// in\n    tag_476:\n        /* \"#utility.yul\":15483:15605   */\n      swap1\n      pop\n        /* \"#utility.yul\":15227:15612   */\n      swap3\n      swap2\n      pop\n      pop\n      jump\t// out\n        /* \"#utility.yul\":15618:15983   */\n    tag_83:\n        /* \"#utility.yul\":15757:15761   */\n      0x00\n        /* \"#utility.yul\":15795:15797   */\n      0x20\n        /* \"#utility.yul\":15784:15793   */\n      dup3\n        /* \"#utility.yul\":15780:15798   */\n      add\n        /* \"#utility.yul\":15772:15798   */\n      swap1\n      pop\n        /* \"#utility.yul\":15844:15853   */\n      dup2\n        /* \"#utility.yul\":15838:15842   */\n      dup2\n        /* \"#utility.yul\":15834:15854   */\n      sub\n        /* \"#utility.yul\":15830:15831   */\n      0x00\n        /* \"#utility.yul\":15819:15828   */\n      dup4\n        /* \"#utility.yul\":15815:15832   */\n      add\n        /* \"#utility.yul\":15808:15855   */\n      mstore\n        /* \"#utility.yul\":15872:15976   */\n      tag_478\n        /* \"#utility.yul\":15971:15975   */\n      dup2\n        /* \"#utility.yul\":15962:15968   */\n      dup5\n        /* \"#utility.yul\":15872:15976   */\n      tag_438\n      jump\t// in\n    tag_478:\n        /* \"#utility.yul\":15864:15976   */\n      swap1\n      pop\n        /* \"#utility.yul\":15618:15983   */\n      swap3\n      swap2\n      pop\n      pop\n      jump\t// out\n        /* \"#utility.yul\":15989:16464   */\n    tag_200:\n        /* \"#utility.yul\":16156:16160   */\n      0x00\n        /* \"#utility.yul\":16194:16196   */\n      0x40\n        /* \"#utility.yul\":16183:16192   */\n      dup3\n        /* \"#utility.yul\":16179:16197   */\n      add\n        /* \"#utility.yul\":16171:16197   */\n      swap1\n      pop\n        /* \"#utility.yul\":16243:16252   */\n      dup2\n        /* \"#utility.yul\":16237:16241   */\n      dup2\n        /* \"#utility.yul\":16233:16253   */\n      sub\n        /* \"#utility.yul\":16229:16230   */\n      0x00\n        /* \"#utility.yul\":16218:16227   */\n      dup4\n        /* \"#utility.yul\":16214:16231   */\n      add\n        /* \"#utility.yul\":16207:16254   */\n      mstore\n        /* \"#utility.yul\":16271:16375   */\n      tag_480\n        /* \"#utility.yul\":16370:16374   */\n      dup2\n        /* \"#utility.yul\":16361:16367   */\n      dup6\n        /* \"#utility.yul\":16271:16375   */\n      tag_438\n      jump\t// in\n    tag_480:\n        /* \"#utility.yul\":16263:16375   */\n      swap1\n      pop\n        /* \"#utility.yul\":16385:16457   */\n      tag_481\n        /* \"#utility.yul\":16453:16455   */\n      0x20\n        /* \"#utility.yul\":16442:16451   */\n      dup4\n        /* \"#utility.yul\":16438:16456   */\n      add\n        /* \"#utility.yul\":16429:16435   */\n      dup5\n        /* \"#utility.yul\":16385:16457   */\n      tag_460\n      jump\t// in\n    tag_481:\n        /* \"#utility.yul\":15989:16464   */\n      swap4\n      swap3\n      pop\n      pop\n      pop\n      jump\t// out\n        /* \"#utility.yul\":16470:16839   */\n    tag_96:\n        /* \"#utility.yul\":16611:16615   */\n      0x00\n        /* \"#utility.yul\":16649:16651   */\n      0x20\n        /* \"#utility.yul\":16638:16647   */\n      dup3\n        /* \"#utility.yul\":16634:16652   */\n      add\n        /* \"#utility.yul\":16626:16652   */\n      swap1\n      pop\n        /* \"#utility.yul\":16698:16707   */\n      dup2\n        /* \"#utility.yul\":16692:16696   */\n      dup2\n        /* \"#utility.yul\":16688:16708   */\n      sub\n        /* \"#utility.yul\":16684:16685   */\n      0x00\n        /* \"#utility.yul\":16673:16682   */\n      dup4\n        /* \"#utility.yul\":16669:16686   */\n      add\n        /* \"#utility.yul\":16662:16709   */\n      mstore\n        /* \"#utility.yul\":16726:16832   */\n      tag_483\n        /* \"#utility.yul\":16827:16831   */\n      dup2\n        /* \"#utility.yul\":16818:16824   */\n      dup5\n        /* \"#utility.yul\":16726:16832   */\n      tag_446\n      jump\t// in\n    tag_483:\n        /* \"#utility.yul\":16718:16832   */\n      swap1\n      pop\n        /* \"#utility.yul\":16470:16839   */\n      swap3\n      swap2\n      pop\n      pop\n      jump\t// out\n        /* \"#utility.yul\":16845:17214   */\n    tag_39:\n        /* \"#utility.yul\":16986:16990   */\n      0x00\n        /* \"#utility.yul\":17024:17026   */\n      0x20\n        /* \"#utility.yul\":17013:17022   */\n      dup3\n        /* \"#utility.yul\":17009:17027   */\n      add\n        /* \"#utility.yul\":17001:17027   */\n      swap1\n      pop\n        /* \"#utility.yul\":17073:17082   */\n      dup2\n        /* \"#utility.yul\":17067:17071   */\n      dup2\n        /* \"#utility.yul\":17063:17083   */\n      sub\n        /* \"#utility.yul\":17059:17060   */\n      0x00\n        /* \"#utility.yul\":17048:17057   */\n      dup4\n        /* \"#utility.yul\":17044:17061   */\n      add\n        /* \"#utility.yul\":17037:17084   */\n      mstore\n        /* \"#utility.yul\":17101:17207   */\n      tag_485\n        /* \"#utility.yul\":17202:17206   */\n      dup2\n        /* \"#utility.yul\":17193:17199   */\n      dup5\n        /* \"#utility.yul\":17101:17207   */\n      tag_451\n      jump\t// in\n    tag_485:\n        /* \"#utility.yul\":17093:17207   */\n      swap1\n      pop\n        /* \"#utility.yul\":16845:17214   */\n      swap3\n      swap2\n      pop\n      pop\n      jump\t// out\n        /* \"#utility.yul\":17220:17643   */\n    tag_57:\n        /* \"#utility.yul\":17361:17365   */\n      0x00\n        /* \"#utility.yul\":17399:17401   */\n      0x40\n        /* \"#utility.yul\":17388:17397   */\n      dup3\n        /* \"#utility.yul\":17384:17402   */\n      add\n        /* \"#utility.yul\":17376:17402   */\n      swap1\n      pop\n        /* \"#utility.yul\":17412:17483   */\n      tag_487\n        /* \"#utility.yul\":17480:17481   */\n      0x00\n        /* \"#utility.yul\":17469:17478   */\n      dup4\n        /* \"#utility.yul\":17465:17482   */\n      add\n        /* \"#utility.yul\":17456:17462   */\n      dup6\n        /* \"#utility.yul\":17412:17483   */\n      tag_460\n      jump\t// in\n    tag_487:\n        /* \"#utility.yul\":17530:17539   */\n      dup2\n        /* \"#utility.yul\":17524:17528   */\n      dup2\n        /* \"#utility.yul\":17520:17540   */\n      sub\n        /* \"#utility.yul\":17515:17517   */\n      0x20\n        /* \"#utility.yul\":17504:17513   */\n      dup4\n        /* \"#utility.yul\":17500:17518   */\n      add\n        /* \"#utility.yul\":17493:17541   */\n      mstore\n        /* \"#utility.yul\":17558:17636   */\n      tag_488\n        /* \"#utility.yul\":17631:17635   */\n      dup2\n        /* \"#utility.yul\":17622:17628   */\n      dup5\n        /* \"#utility.yul\":17558:17636   */\n      tag_404\n      jump\t// in\n    tag_488:\n        /* \"#utility.yul\":17550:17636   */\n      swap1\n      pop\n        /* \"#utility.yul\":17220:17643   */\n      swap4\n      swap3\n      pop\n      pop\n      pop\n      jump\t// out\n        /* \"#utility.yul\":17649:18273   */\n    tag_44:\n        /* \"#utility.yul\":17838:17842   */\n      0x00\n        /* \"#utility.yul\":17876:17878   */\n      0x60\n        /* \"#utility.yul\":17865:17874   */\n      dup3\n        /* \"#utility.yul\":17861:17879   */\n      add\n        /* \"#utility.yul\":17853:17879   */\n      swap1\n      pop\n        /* \"#utility.yul\":17889:17960   */\n      tag_490\n        /* \"#utility.yul\":17957:17958   */\n      0x00\n        /* \"#utility.yul\":17946:17955   */\n      dup4\n        /* \"#utility.yul\":17942:17959   */\n      add\n        /* \"#utility.yul\":17933:17939   */\n      dup7\n        /* \"#utility.yul\":17889:17960   */\n      tag_460\n      jump\t// in\n    tag_490:\n        /* \"#utility.yul\":18007:18016   */\n      dup2\n        /* \"#utility.yul\":18001:18005   */\n      dup2\n        /* \"#utility.yul\":17997:18017   */\n      sub\n        /* \"#utility.yul\":17992:17994   */\n      0x20\n        /* \"#utility.yul\":17981:17990   */\n      dup4\n        /* \"#utility.yul\":17977:17995   */\n      add\n        /* \"#utility.yul\":17970:18018   */\n      mstore\n        /* \"#utility.yul\":18035:18113   */\n      tag_491\n        /* \"#utility.yul\":18108:18112   */\n      dup2\n        /* \"#utility.yul\":18099:18105   */\n      dup6\n        /* \"#utility.yul\":18035:18113   */\n      tag_404\n      jump\t// in\n    tag_491:\n        /* \"#utility.yul\":18027:18113   */\n      swap1\n      pop\n        /* \"#utility.yul\":18160:18169   */\n      dup2\n        /* \"#utility.yul\":18154:18158   */\n      dup2\n        /* \"#utility.yul\":18150:18170   */\n      sub\n        /* \"#utility.yul\":18145:18147   */\n      0x40\n        /* \"#utility.yul\":18134:18143   */\n      dup4\n        /* \"#utility.yul\":18130:18148   */\n      add\n        /* \"#utility.yul\":18123:18171   */\n      mstore\n        /* \"#utility.yul\":18188:18266   */\n      tag_492\n        /* \"#utility.yul\":18261:18265   */\n      dup2\n        /* \"#utility.yul\":18252:18258   */\n      dup5\n        /* \"#utility.yul\":18188:18266   */\n      tag_404\n      jump\t// in\n    tag_492:\n        /* \"#utility.yul\":18180:18266   */\n      swap1\n      pop\n        /* \"#utility.yul\":17649:18273   */\n      swap5\n      swap4\n      pop\n      pop\n      pop\n      pop\n      jump\t// out\n        /* \"#utility.yul\":18279:19327   */\n    tag_49:\n        /* \"#utility.yul\":18572:18576   */\n      0x00\n        /* \"#utility.yul\":18610:18613   */\n      0xc0\n        /* \"#utility.yul\":18599:18608   */\n      dup3\n        /* \"#utility.yul\":18595:18614   */\n      add\n        /* \"#utility.yul\":18587:18614   */\n      swap1\n      pop\n        /* \"#utility.yul\":18624:18695   */\n      tag_494\n        /* \"#utility.yul\":18692:18693   */\n      0x00\n        /* \"#utility.yul\":18681:18690   */\n      dup4\n        /* \"#utility.yul\":18677:18694   */\n      add\n        /* \"#utility.yul\":18668:18674   */\n      dup10\n        /* \"#utility.yul\":18624:18695   */\n      tag_460\n      jump\t// in\n    tag_494:\n        /* \"#utility.yul\":18742:18751   */\n      dup2\n        /* \"#utility.yul\":18736:18740   */\n      dup2\n        /* \"#utility.yul\":18732:18752   */\n      sub\n        /* \"#utility.yul\":18727:18729   */\n      0x20\n        /* \"#utility.yul\":18716:18725   */\n      dup4\n        /* \"#utility.yul\":18712:18730   */\n      add\n        /* \"#utility.yul\":18705:18753   */\n      mstore\n        /* \"#utility.yul\":18770:18848   */\n      tag_495\n        /* \"#utility.yul\":18843:18847   */\n      dup2\n        /* \"#utility.yul\":18834:18840   */\n      dup9\n        /* \"#utility.yul\":18770:18848   */\n      tag_404\n      jump\t// in\n    tag_495:\n        /* \"#utility.yul\":18762:18848   */\n      swap1\n      pop\n        /* \"#utility.yul\":18858:18930   */\n      tag_496\n        /* \"#utility.yul\":18926:18928   */\n      0x40\n        /* \"#utility.yul\":18915:18924   */\n      dup4\n        /* \"#utility.yul\":18911:18929   */\n      add\n        /* \"#utility.yul\":18902:18908   */\n      dup8\n        /* \"#utility.yul\":18858:18930   */\n      tag_460\n      jump\t// in\n    tag_496:\n        /* \"#utility.yul\":18977:18986   */\n      dup2\n        /* \"#utility.yul\":18971:18975   */\n      dup2\n        /* \"#utility.yul\":18967:18987   */\n      sub\n        /* \"#utility.yul\":18962:18964   */\n      0x60\n        /* \"#utility.yul\":18951:18960   */\n      dup4\n        /* \"#utility.yul\":18947:18965   */\n      add\n        /* \"#utility.yul\":18940:18988   */\n      mstore\n        /* \"#utility.yul\":19005:19083   */\n      tag_497\n        /* \"#utility.yul\":19078:19082   */\n      dup2\n        /* \"#utility.yul\":19069:19075   */\n      dup7\n        /* \"#utility.yul\":19005:19083   */\n      tag_404\n      jump\t// in\n    tag_497:\n        /* \"#utility.yul\":18997:19083   */\n      swap1\n      pop\n        /* \"#utility.yul\":19131:19140   */\n      dup2\n        /* \"#utility.yul\":19125:19129   */\n      dup2\n        /* \"#utility.yul\":19121:19141   */\n      sub\n        /* \"#utility.yul\":19115:19118   */\n      0x80\n        /* \"#utility.yul\":19104:19113   */\n      dup4\n        /* \"#utility.yul\":19100:19119   */\n      add\n        /* \"#utility.yul\":19093:19142   */\n      mstore\n        /* \"#utility.yul\":19159:19237   */\n      tag_498\n        /* \"#utility.yul\":19232:19236   */\n      dup2\n        /* \"#utility.yul\":19223:19229   */\n      dup6\n        /* \"#utility.yul\":19159:19237   */\n      tag_404\n      jump\t// in\n    tag_498:\n        /* \"#utility.yul\":19151:19237   */\n      swap1\n      pop\n        /* \"#utility.yul\":19247:19320   */\n      tag_499\n        /* \"#utility.yul\":19315:19318   */\n      0xa0\n        /* \"#utility.yul\":19304:19313   */\n      dup4\n        /* \"#utility.yul\":19300:19319   */\n      add\n        /* \"#utility.yul\":19291:19297   */\n      dup5\n        /* \"#utility.yul\":19247:19320   */\n      tag_460\n      jump\t// in\n    tag_499:\n        /* \"#utility.yul\":18279:19327   */\n      swap8\n      swap7\n      pop\n      pop\n      pop\n      pop\n      pop\n      pop\n      pop\n      jump\t// out\n        /* \"#utility.yul\":19333:19462   */\n    tag_327:\n        /* \"#utility.yul\":19367:19373   */\n      0x00\n        /* \"#utility.yul\":19394:19414   */\n      tag_501\n      tag_502\n      jump\t// in\n    tag_501:\n        /* \"#utility.yul\":19384:19414   */\n      swap1\n      pop\n        /* \"#utility.yul\":19423:19456   */\n      tag_503\n        /* \"#utility.yul\":19451:19455   */\n      dup3\n        /* \"#utility.yul\":19443:19449   */\n      dup3\n        /* \"#utility.yul\":19423:19456   */\n      tag_504\n      jump\t// in\n    tag_503:\n        /* \"#utility.yul\":19333:19462   */\n      swap2\n      swap1\n      pop\n      jump\t// out\n        /* \"#utility.yul\":19468:19543   */\n    tag_502:\n        /* \"#utility.yul\":19501:19507   */\n      0x00\n        /* \"#utility.yul\":19534:19536   */\n      0x40\n        /* \"#utility.yul\":19528:19537   */\n      mload\n        /* \"#utility.yul\":19518:19537   */\n      swap1\n      pop\n        /* \"#utility.yul\":19468:19543   */\n      swap1\n      jump\t// out\n        /* \"#utility.yul\":19549:19857   */\n    tag_326:\n        /* \"#utility.yul\":19611:19615   */\n      0x00\n        /* \"#utility.yul\":19701:19719   */\n      0xffffffffffffffff\n        /* \"#utility.yul\":19693:19699   */\n      dup3\n        /* \"#utility.yul\":19690:19720   */\n      gt\n        /* \"#utility.yul\":19687:19743   */\n      iszero\n      tag_507\n      jumpi\n        /* \"#utility.yul\":19723:19741   */\n      tag_508\n      tag_112\n      jump\t// in\n    tag_508:\n        /* \"#utility.yul\":19687:19743   */\n    tag_507:\n        /* \"#utility.yul\":19761:19790   */\n      tag_509\n        /* \"#utility.yul\":19783:19789   */\n      dup3\n        /* \"#utility.yul\":19761:19790   */\n      tag_403\n      jump\t// in\n    tag_509:\n        /* \"#utility.yul\":19753:19790   */\n      swap1\n      pop\n        /* \"#utility.yul\":19845:19849   */\n      0x20\n        /* \"#utility.yul\":19839:19843   */\n      dup2\n        /* \"#utility.yul\":19835:19850   */\n      add\n        /* \"#utility.yul\":19827:19850   */\n      swap1\n      pop\n        /* \"#utility.yul\":19549:19857   */\n      swap2\n      swap1\n      pop\n      jump\t// out\n        /* \"#utility.yul\":19863:19995   */\n    tag_387:\n        /* \"#utility.yul\":19930:19934   */\n      0x00\n        /* \"#utility.yul\":19953:19956   */\n      dup2\n        /* \"#utility.yul\":19945:19956   */\n      swap1\n      pop\n        /* \"#utility.yul\":19983:19987   */\n      0x20\n        /* \"#utility.yul\":19978:19981   */\n      dup3\n        /* \"#utility.yul\":19974:19988   */\n      add\n        /* \"#utility.yul\":19966:19988   */\n      swap1\n      pop\n        /* \"#utility.yul\":19863:19995   */\n      swap2\n      swap1\n      pop\n      jump\t// out\n        /* \"#utility.yul\":20001:20115   */\n    tag_383:\n        /* \"#utility.yul\":20068:20074   */\n      0x00\n        /* \"#utility.yul\":20102:20107   */\n      dup2\n        /* \"#utility.yul\":20096:20108   */\n      mload\n        /* \"#utility.yul\":20086:20108   */\n      swap1\n      pop\n        /* \"#utility.yul\":20001:20115   */\n      swap2\n      swap1\n      pop\n      jump\t// out\n        /* \"#utility.yul\":20121:20220   */\n    tag_397:\n        /* \"#utility.yul\":20173:20179   */\n      0x00\n        /* \"#utility.yul\":20207:20212   */\n      dup2\n        /* \"#utility.yul\":20201:20213   */\n      mload\n        /* \"#utility.yul\":20191:20213   */\n      swap1\n      pop\n        /* \"#utility.yul\":20121:20220   */\n      swap2\n      swap1\n      pop\n      jump\t// out\n        /* \"#utility.yul\":20226:20339   */\n    tag_393:\n        /* \"#utility.yul\":20296:20300   */\n      0x00\n        /* \"#utility.yul\":20328:20332   */\n      0x20\n        /* \"#utility.yul\":20323:20326   */\n      dup3\n        /* \"#utility.yul\":20319:20333   */\n      add\n        /* \"#utility.yul\":20311:20333   */\n      swap1\n      pop\n        /* \"#utility.yul\":20226:20339   */\n      swap2\n      swap1\n      pop\n      jump\t// out\n        /* \"#utility.yul\":20345:20519   */\n    tag_385:\n        /* \"#utility.yul\":20434:20445   */\n      0x00\n        /* \"#utility.yul\":20468:20474   */\n      dup3\n        /* \"#utility.yul\":20463:20466   */\n      dup3\n        /* \"#utility.yul\":20456:20475   */\n      mstore\n        /* \"#utility.yul\":20508:20512   */\n      0x20\n        /* \"#utility.yul\":20503:20506   */\n      dup3\n        /* \"#utility.yul\":20499:20513   */\n      add\n        /* \"#utility.yul\":20484:20513   */\n      swap1\n      pop\n        /* \"#utility.yul\":20345:20519   */\n      swap3\n      swap2\n      pop\n      pop\n      jump\t// out\n        /* \"#utility.yul\":20525:20684   */\n    tag_399:\n        /* \"#utility.yul\":20599:20610   */\n      0x00\n        /* \"#utility.yul\":20633:20639   */\n      dup3\n        /* \"#utility.yul\":20628:20631   */\n      dup3\n        /* \"#utility.yul\":20621:20640   */\n      mstore\n        /* \"#utility.yul\":20673:20677   */\n      0x20\n        /* \"#utility.yul\":20668:20671   */\n      dup3\n        /* \"#utility.yul\":20664:20678   */\n      add\n        /* \"#utility.yul\":20649:20678   */\n      swap1\n      pop\n        /* \"#utility.yul\":20525:20684   */\n      swap3\n      swap2\n      pop\n      pop\n      jump\t// out\n        /* \"#utility.yul\":20690:20859   */\n    tag_408:\n        /* \"#utility.yul\":20774:20785   */\n      0x00\n        /* \"#utility.yul\":20808:20814   */\n      dup3\n        /* \"#utility.yul\":20803:20806   */\n      dup3\n        /* \"#utility.yul\":20796:20815   */\n      mstore\n        /* \"#utility.yul\":20848:20852   */\n      0x20\n        /* \"#utility.yul\":20843:20846   */\n      dup3\n        /* \"#utility.yul\":20839:20853   */\n      add\n        /* \"#utility.yul\":20824:20853   */\n      swap1\n      pop\n        /* \"#utility.yul\":20690:20859   */\n      swap3\n      swap2\n      pop\n      pop\n      jump\t// out\n        /* \"#utility.yul\":20865:20942   */\n    tag_459:\n        /* \"#utility.yul\":20902:20909   */\n      0x00\n        /* \"#utility.yul\":20931:20936   */\n      dup2\n        /* \"#utility.yul\":20920:20936   */\n      swap1\n      pop\n        /* \"#utility.yul\":20865:20942   */\n      swap2\n      swap1\n      pop\n      jump\t// out\n        /* \"#utility.yul\":20948:21102   */\n    tag_332:\n        /* \"#utility.yul\":21032:21038   */\n      dup3\n        /* \"#utility.yul\":21027:21030   */\n      dup2\n        /* \"#utility.yul\":21022:21025   */\n      dup4\n        /* \"#utility.yul\":21009:21039   */\n      calldatacopy\n        /* \"#utility.yul\":21094:21095   */\n      0x00\n        /* \"#utility.yul\":21085:21091   */\n      dup4\n        /* \"#utility.yul\":21080:21083   */\n      dup4\n        /* \"#utility.yul\":21076:21092   */\n      add\n        /* \"#utility.yul\":21069:21096   */\n      mstore\n        /* \"#utility.yul\":20948:21102   */\n      pop\n      pop\n      pop\n      jump\t// out\n        /* \"#utility.yul\":21108:21415   */\n    tag_401:\n        /* \"#utility.yul\":21176:21177   */\n      0x00\n        /* \"#utility.yul\":21186:21299   */\n    tag_520:\n        /* \"#utility.yul\":21200:21206   */\n      dup4\n        /* \"#utility.yul\":21197:21198   */\n      dup2\n        /* \"#utility.yul\":21194:21207   */\n      lt\n        /* \"#utility.yul\":21186:21299   */\n      iszero\n      tag_522\n      jumpi\n        /* \"#utility.yul\":21285:21286   */\n      dup1\n        /* \"#utility.yul\":21280:21283   */\n      dup3\n        /* \"#utility.yul\":21276:21287   */\n      add\n        /* \"#utility.yul\":21270:21288   */\n      mload\n        /* \"#utility.yul\":21266:21267   */\n      dup2\n        /* \"#utility.yul\":21261:21264   */\n      dup5\n        /* \"#utility.yul\":21257:21268   */\n      add\n        /* \"#utility.yul\":21250:21289   */\n      mstore\n        /* \"#utility.yul\":21222:21224   */\n      0x20\n        /* \"#utility.yul\":21219:21220   */\n      dup2\n        /* \"#utility.yul\":21215:21225   */\n      add\n        /* \"#utility.yul\":21210:21225   */\n      swap1\n      pop\n        /* \"#utility.yul\":21186:21299   */\n      jump(tag_520)\n    tag_522:\n        /* \"#utility.yul\":21317:21323   */\n      dup4\n        /* \"#utility.yul\":21314:21315   */\n      dup2\n        /* \"#utility.yul\":21311:21324   */\n      gt\n        /* \"#utility.yul\":21308:21409   */\n      iszero\n      tag_523\n      jumpi\n        /* \"#utility.yul\":21397:21398   */\n      0x00\n        /* \"#utility.yul\":21388:21394   */\n      dup5\n        /* \"#utility.yul\":21383:21386   */\n      dup5\n        /* \"#utility.yul\":21379:21395   */\n      add\n        /* \"#utility.yul\":21372:21399   */\n      mstore\n        /* \"#utility.yul\":21308:21409   */\n    tag_523:\n        /* \"#utility.yul\":21157:21415   */\n      pop\n        /* \"#utility.yul\":21108:21415   */\n      pop\n      pop\n      pop\n      jump\t// out\n        /* \"#utility.yul\":21421:21741   */\n    tag_124:\n        /* \"#utility.yul\":21465:21471   */\n      0x00\n        /* \"#utility.yul\":21502:21503   */\n      0x02\n        /* \"#utility.yul\":21496:21500   */\n      dup3\n        /* \"#utility.yul\":21492:21504   */\n      div\n        /* \"#utility.yul\":21482:21504   */\n      swap1\n      pop\n        /* \"#utility.yul\":21549:21550   */\n      0x01\n        /* \"#utility.yul\":21543:21547   */\n      dup3\n        /* \"#utility.yul\":21539:21551   */\n      and\n        /* \"#utility.yul\":21570:21588   */\n      dup1\n        /* \"#utility.yul\":21560:21641   */\n      tag_525\n      jumpi\n        /* \"#utility.yul\":21626:21630   */\n      0x7f\n        /* \"#utility.yul\":21618:21624   */\n      dup3\n        /* \"#utility.yul\":21614:21631   */\n      and\n        /* \"#utility.yul\":21604:21631   */\n      swap2\n      pop\n        /* \"#utility.yul\":21560:21641   */\n    tag_525:\n        /* \"#utility.yul\":21688:21690   */\n      0x20\n        /* \"#utility.yul\":21680:21686   */\n      dup3\n        /* \"#utility.yul\":21677:21691   */\n      lt\n        /* \"#utility.yul\":21657:21675   */\n      dup2\n        /* \"#utility.yul\":21654:21692   */\n      eq\n        /* \"#utility.yul\":21651:21735   */\n      iszero\n      tag_526\n      jumpi\n        /* \"#utility.yul\":21707:21725   */\n      tag_527\n      tag_528\n      jump\t// in\n    tag_527:\n        /* \"#utility.yul\":21651:21735   */\n    tag_526:\n        /* \"#utility.yul\":21472:21741   */\n      pop\n        /* \"#utility.yul\":21421:21741   */\n      swap2\n      swap1\n      pop\n      jump\t// out\n        /* \"#utility.yul\":21747:22028   */\n    tag_504:\n        /* \"#utility.yul\":21830:21857   */\n      tag_530\n        /* \"#utility.yul\":21852:21856   */\n      dup3\n        /* \"#utility.yul\":21830:21857   */\n      tag_403\n      jump\t// in\n    tag_530:\n        /* \"#utility.yul\":21822:21828   */\n      dup2\n        /* \"#utility.yul\":21818:21858   */\n      add\n        /* \"#utility.yul\":21960:21966   */\n      dup2\n        /* \"#utility.yul\":21948:21958   */\n      dup2\n        /* \"#utility.yul\":21945:21967   */\n      lt\n        /* \"#utility.yul\":21924:21942   */\n      0xffffffffffffffff\n        /* \"#utility.yul\":21912:21922   */\n      dup3\n        /* \"#utility.yul\":21909:21943   */\n      gt\n        /* \"#utility.yul\":21906:21968   */\n      or\n        /* \"#utility.yul\":21903:21991   */\n      iszero\n      tag_531\n      jumpi\n        /* \"#utility.yul\":21971:21989   */\n      tag_532\n      tag_112\n      jump\t// in\n    tag_532:\n        /* \"#utility.yul\":21903:21991   */\n    tag_531:\n        /* \"#utility.yul\":22011:22021   */\n      dup1\n        /* \"#utility.yul\":22007:22009   */\n      0x40\n        /* \"#utility.yul\":22000:22022   */\n      mstore\n        /* \"#utility.yul\":21790:22028   */\n      pop\n        /* \"#utility.yul\":21747:22028   */\n      pop\n      pop\n      jump\t// out\n        /* \"#utility.yul\":22034:22267   */\n    tag_198:\n        /* \"#utility.yul\":22073:22076   */\n      0x00\n        /* \"#utility.yul\":22096:22120   */\n      tag_534\n        /* \"#utility.yul\":22114:22119   */\n      dup3\n        /* \"#utility.yul\":22096:22120   */\n      tag_459\n      jump\t// in\n    tag_534:\n        /* \"#utility.yul\":22087:22120   */\n      swap2\n      pop\n        /* \"#utility.yul\":22142:22208   */\n      0xffffffffffffffffffffffffffffffffffffffffffffffffffffffffffffffff\n        /* \"#utility.yul\":22135:22140   */\n      dup3\n        /* \"#utility.yul\":22132:22209   */\n      eq\n        /* \"#utility.yul\":22129:22232   */\n      iszero\n      tag_535\n      jumpi\n        /* \"#utility.yul\":22212:22230   */\n      tag_536\n      tag_537\n      jump\t// in\n    tag_536:\n        /* \"#utility.yul\":22129:22232   */\n    tag_535:\n        /* \"#utility.yul\":22259:22260   */\n      0x01\n        /* \"#utility.yul\":22252:22257   */\n      dup3\n        /* \"#utility.yul\":22248:22261   */\n      add\n        /* \"#utility.yul\":22241:22261   */\n      swap1\n      pop\n        /* \"#utility.yul\":22034:22267   */\n      swap2\n      swap1\n      pop\n      jump\t// out\n        /* \"#utility.yul\":22273:22453   */\n    tag_537:\n        /* \"#utility.yul\":22321:22398   */\n      0x4e487b7100000000000000000000000000000000000000000000000000000000\n        /* \"#utility.yul\":22318:22319   */\n      0x00\n        /* \"#utility.yul\":22311:22399   */\n      mstore\n        /* \"#utility.yul\":22418:22422   */\n      0x11\n        /* \"#utility.yul\":22415:22416   */\n      0x04\n        /* \"#utility.yul\":22408:22423   */\n      mstore\n        /* \"#utility.yul\":22442:22446   */\n      0x24\n        /* \"#utility.yul\":22439:22440   */\n      0x00\n        /* \"#utility.yul\":22432:22447   */\n      revert\n        /* \"#utility.yul\":22459:22639   */\n    tag_528:\n        /* \"#utility.yul\":22507:22584   */\n      0x4e487b7100000000000000000000000000000000000000000000000000000000\n        /* \"#utility.yul\":22504:22505   */\n      0x00\n        /* \"#utility.yul\":22497:22585   */\n      mstore\n        /* \"#utility.yul\":22604:22608   */\n      0x22\n        /* \"#utility.yul\":22601:22602   */\n      0x04\n        /* \"#utility.yul\":22594:22609   */\n      mstore\n        /* \"#utility.yul\":22628:22632   */\n      0x24\n        /* \"#utility.yul\":22625:22626   */\n      0x00\n        /* \"#utility.yul\":22618:22633   */\n      revert\n        /* \"#utility.yul\":22645:22825   */\n    tag_112:\n        /* \"#utility.yul\":22693:22770   */\n      0x4e487b7100000000000000000000000000000000000000000000000000000000\n        /* \"#utility.yul\":22690:22691   */\n      0x00\n        /* \"#utility.yul\":22683:22771   */\n      mstore\n        /* \"#utility.yul\":22790:22794   */\n      0x41\n        /* \"#utility.yul\":22787:22788   */\n      0x04\n        /* \"#utility.yul\":22780:22795   */\n      mstore\n        /* \"#utility.yul\":22814:22818   */\n      0x24\n        /* \"#utility.yul\":22811:22812   */\n      0x00\n        /* \"#utility.yul\":22804:22819   */\n      revert\n        /* \"#utility.yul\":22831:22948   */\n    tag_337:\n        /* \"#utility.yul\":22940:22941   */\n      0x00\n        /* \"#utility.yul\":22937:22938   */\n      dup1\n        /* \"#utility.yul\":22930:22942   */\n      revert\n        /* \"#utility.yul\":22954:23071   */\n    tag_330:\n        /* \"#utility.yul\":23063:23064   */\n      0x00\n        /* \"#utility.yul\":23060:23061   */\n      dup1\n        /* \"#utility.yul\":23053:23065   */\n      revert\n        /* \"#utility.yul\":23077:23194   */\n    tag_349:\n        /* \"#utility.yul\":23186:23187   */\n      0x00\n        /* \"#utility.yul\":23183:23184   */\n      dup1\n        /* \"#utility.yul\":23176:23188   */\n      revert\n        /* \"#utility.yul\":23200:23317   */\n    tag_346:\n        /* \"#utility.yul\":23309:23310   */\n      0x00\n        /* \"#utility.yul\":23306:23307   */\n      dup1\n        /* \"#utility.yul\":23299:23311   */\n      revert\n        /* \"#utility.yul\":23323:23425   */\n    tag_403:\n        /* \"#utility.yul\":23364:23370   */\n      0x00\n        /* \"#utility.yul\":23415:23417   */\n      0x1f\n        /* \"#utility.yul\":23411:23418   */\n      not\n        /* \"#utility.yul\":23406:23408   */\n      0x1f\n        /* \"#utility.yul\":23399:23404   */\n      dup4\n        /* \"#utility.yul\":23395:23409   */\n      add\n        /* \"#utility.yul\":23391:23419   */\n      and\n        /* \"#utility.yul\":23381:23419   */\n      swap1\n      pop\n        /* \"#utility.yul\":23323:23425   */\n      swap2\n      swap1\n      pop\n      jump\t// out\n        /* \"#utility.yul\":23431:23670   */\n    tag_415:\n        /* \"#utility.yul\":23571:23605   */\n      0x4d616e756661637475726572206973206e6f74207468652063757272656e7420\n        /* \"#utility.yul\":23567:23568   */\n      0x00\n        /* \"#utility.yul\":23559:23565   */\n      dup3\n        /* \"#utility.yul\":23555:23569   */\n      add\n        /* \"#utility.yul\":23548:23606   */\n      mstore\n        /* \"#utility.yul\":23640:23662   */\n      0x6f776e6572206f66207468652070726f64756374000000000000000000000000\n        /* \"#utility.yul\":23635:23637   */\n      0x20\n        /* \"#utility.yul\":23627:23633   */\n      dup3\n        /* \"#utility.yul\":23623:23638   */\n      add\n        /* \"#utility.yul\":23616:23663   */\n      mstore\n        /* \"#utility.yul\":23431:23670   */\n      pop\n      jump\t// out\n        /* \"#utility.yul\":23676:23914   */\n    tag_420:\n        /* \"#utility.yul\":23816:23850   */\n      0x4469737472696275746f72206973206e6f74207468652063757272656e74206f\n        /* \"#utility.yul\":23812:23813   */\n      0x00\n        /* \"#utility.yul\":23804:23810   */\n      dup3\n        /* \"#utility.yul\":23800:23814   */\n      add\n        /* \"#utility.yul\":23793:23851   */\n      mstore\n        /* \"#utility.yul\":23885:23906   */\n      0x776e6572206f66207468652070726f6475637400000000000000000000000000\n        /* \"#utility.yul\":23880:23882   */\n      0x20\n        /* \"#utility.yul\":23872:23878   */\n      dup3\n        /* \"#utility.yul\":23868:23883   */\n      add\n        /* \"#utility.yul\":23861:23907   */\n      mstore\n        /* \"#utility.yul\":23676:23914   */\n      pop\n      jump\t// out\n        /* \"#utility.yul\":23920:24155   */\n    tag_425:\n        /* \"#utility.yul\":24060:24094   */\n      0x537570706c696572206973206e6f74207468652063757272656e74206f776e65\n        /* \"#utility.yul\":24056:24057   */\n      0x00\n        /* \"#utility.yul\":24048:24054   */\n      dup3\n        /* \"#utility.yul\":24044:24058   */\n      add\n        /* \"#utility.yul\":24037:24095   */\n      mstore\n        /* \"#utility.yul\":24129:24147   */\n      0x72206f66207468652070726f6475637400000000000000000000000000000000\n        /* \"#utility.yul\":24124:24126   */\n      0x20\n        /* \"#utility.yul\":24116:24122   */\n      dup3\n        /* \"#utility.yul\":24112:24127   */\n      add\n        /* \"#utility.yul\":24105:24148   */\n      mstore\n        /* \"#utility.yul\":23920:24155   */\n      pop\n      jump\t// out\n        /* \"#utility.yul\":24161:24283   */\n    tag_342:\n        /* \"#utility.yul\":24234:24258   */\n      tag_550\n        /* \"#utility.yul\":24252:24257   */\n      dup2\n        /* \"#utility.yul\":24234:24258   */\n      tag_459\n      jump\t// in\n    tag_550:\n        /* \"#utility.yul\":24227:24232   */\n      dup2\n        /* \"#utility.yul\":24224:24259   */\n      eq\n        /* \"#utility.yul\":24214:24277   */\n      tag_551\n      jumpi\n        /* \"#utility.yul\":24273:24274   */\n      0x00\n        /* \"#utility.yul\":24270:24271   */\n      dup1\n        /* \"#utility.yul\":24263:24275   */\n      revert\n        /* \"#utility.yul\":24214:24277   */\n    tag_551:\n        /* \"#utility.yul\":24161:24283   */\n      pop\n      jump\t// out\n\n    auxdata: 0xa26469706673582212205216c9dfa18c2a3b91e7dbb1bb1fb1e5d8bdb75741da4ee18c1ed263dc01867c64736f6c63430008070033\n}\n",
				"bytecode": {
					"linkReferences": {},
					"object": "6080604052336000806101000a81548173ffffffffffffffffffffffffffffffffffffffff021916908373ffffffffffffffffffffffffffffffffffffffff160217905550600060025534801561005557600080fd5b506129e7806100656000396000f3fe608060405234801561001057600080fd5b50600436106101215760003560e01c806390175af1116100ad578063bbb7b0c311610071578063bbb7b0c314610344578063cb80c41914610360578063cda5e4a514610390578063cea23121146103c0578063d8459464146103f257610121565b806390175af11461028e57806395d00407146102c0578063ae2ce444146102dc578063b55be240146102f8578063b9db15b41461031457610121565b80637acc0b20116100f45780637acc0b20146101d457806381d9def214610209578063897ec7df146102255780638f29695a146102565780638f5ae7991461027257610121565b806315533a2714610126578063333f3dd0146101425780633779643f1461017257806350b492ba146101a2575b600080fd5b610140600480360381019061013b9190611ea0565b61040e565b005b61015c60048036038101906101579190611f74565b61059d565b6040516101699190612482565b60405180910390f35b61018c60048036038101906101879190611f74565b610750565b604051610199919061253a565b60405180910390f35b6101bc60048036038101906101b79190611f74565b610903565b6040516101cb9392919061258c565b60405180910390f35b6101ee60048036038101906101e99190611f74565b610a3d565b604051610200969594939291906125d1565b60405180910390f35b610223600480360381019061021e9190611ea0565b610c11565b005b61023f600480360381019061023a9190611f74565b610da0565b60405161024d92919061255c565b60405180910390f35b610270600480360381019061026b9190611ee9565b610e4c565b005b61028c60048036038101906102879190611ea0565b610fb3565b005b6102a860048036038101906102a39190611f74565b611142565b6040516102b79392919061258c565b60405180910390f35b6102da60048036038101906102d59190611ea0565b61127c565b005b6102f660048036038101906102f19190611fe1565b6113b0565b005b610312600480360381019061030d9190611fe1565b611469565b005b61032e60048036038101906103299190611f74565b611522565b60405161033b91906124c6565b60405180910390f35b61035e60048036038101906103599190611fe1565b611723565b005b61037a60048036038101906103759190611f74565b6117dc565b60405161038791906124a4565b60405180910390f35b6103aa60048036038101906103a59190611f74565b61198f565b6040516103b79190612518565b60405180910390f35b6103da60048036038101906103d59190611f74565b611ab0565b6040516103e99392919061258c565b60405180910390f35b61040c60048036038101906104079190611fa1565b611bea565b005b610416611c5c565b81424460405160200161042b939291906123e4565b6040516020818303038152906040528051906020012060001c8160000181815250506040518060400160405280600281526020017f53550000000000000000000000000000000000000000000000000000000000008152508160200181905250818160400181905250600067ffffffffffffffff8111156104af576104ae612859565b5b6040519080825280602002602001820160405280156104dd5781602001602082028036833780820191505090505b508160600181905250806003600083600001518152602001908152602001600020600082015181600001556020820151816001019080519060200190610524929190611c84565b506040820151816002019080519060200190610541929190611c84565b50606082015181600301908051906020019061055e929190611d0a565b509050507f0e2879159e80c92c57341e91920c4b1af102eebab99c1eca0e8a3c081fbf95ba81604051610591919061253a565b60405180910390a15050565b6105a5611d57565b60056000838152602001908152602001600020604051806080016040529081600082015481526020016001820180546105dd9061274f565b80601f01602080910402602001604051908101604052809291908181526020018280546106099061274f565b80156106565780601f1061062b57610100808354040283529160200191610656565b820191906000526020600020905b81548152906001019060200180831161063957829003601f168201915b5050505050815260200160028201805461066f9061274f565b80601f016020809104026020016040519081016040528092919081815260200182805461069b9061274f565b80156106e85780601f106106bd576101008083540402835291602001916106e8565b820191906000526020600020905b8154815290600101906020018083116106cb57829003601f168201915b505050505081526020016003820180548060200260200160405190810160405280929190818152602001828054801561074057602002820191906000526020600020905b81548152602001906001019080831161072c575b5050505050815250509050919050565b610758611c5c565b60036000838152602001908152602001600020604051806080016040529081600082015481526020016001820180546107909061274f565b80601f01602080910402602001604051908101604052809291908181526020018280546107bc9061274f565b80156108095780601f106107de57610100808354040283529160200191610809565b820191906000526020600020905b8154815290600101906020018083116107ec57829003601f168201915b505050505081526020016002820180546108229061274f565b80601f016020809104026020016040519081016040528092919081815260200182805461084e9061274f565b801561089b5780601f106108705761010080835404028352916020019161089b565b820191906000526020600020905b81548152906001019060200180831161087e57829003601f168201915b50505050508152602001600382018054806020026020016040519081016040528092919081815260200182805480156108f357602002820191906000526020600020905b8154815260200190600101908083116108df575b5050505050815250509050919050565b600560205280600052604060002060009150905080600001549080600101805461092c9061274f565b80601f01602080910402602001604051908101604052809291908181526020018280546109589061274f565b80156109a55780601f1061097a576101008083540402835291602001916109a5565b820191906000526020600020905b81548152906001019060200180831161098857829003601f168201915b5050505050908060020180546109ba9061274f565b80601f01602080910402602001604051908101604052809291908181526020018280546109e69061274f565b8015610a335780601f10610a0857610100808354040283529160200191610a33565b820191906000526020600020905b815481529060010190602001808311610a1657829003601f168201915b5050505050905083565b6001602052806000526040600020600091509050806000015490806001018054610a669061274f565b80601f0160208091040260200160405190810160405280929190818152602001828054610a929061274f565b8015610adf5780601f10610ab457610100808354040283529160200191610adf565b820191906000526020600020905b815481529060010190602001808311610ac257829003601f168201915b505050505090806002015490806003018054610afa9061274f565b80601f0160208091040260200160405190810160405280929190818152602001828054610b269061274f565b8015610b735780601f10610b4857610100808354040283529160200191610b73565b820191906000526020600020905b815481529060010190602001808311610b5657829003601f168201915b505050505090806004018054610b889061274f565b80601f0160208091040260200160405190810160405280929190818152602001828054610bb49061274f565b8015610c015780601f10610bd657610100808354040283529160200191610c01565b820191906000526020600020905b815481529060010190602001808311610be457829003601f168201915b5050505050908060050154905086565b610c19611d57565b814244604051602001610c2e939291906123e4565b6040516020818303038152906040528051906020012060001c8160000181815250506040518060400160405280600281526020017f44490000000000000000000000000000000000000000000000000000000000008152508160200181905250818160400181905250600067ffffffffffffffff811115610cb257610cb1612859565b5b604051908082528060200260200182016040528015610ce05781602001602082028036833780820191505090505b508160600181905250806005600083600001518152602001908152602001600020600082015181600001556020820151816001019080519060200190610d27929190611c84565b506040820151816002019080519060200190610d44929190611c84565b506060820151816003019080519060200190610d61929190611d0a565b509050507f4fbe23d5058e501d2ac74e9b5146f125d6c6ae6c3475d9431498262e998ee8e081604051610d949190612482565b60405180910390a15050565b6006602052806000526040600020600091509050806000015490806001018054610dc99061274f565b80601f0160208091040260200160405190810160405280929190818152602001828054610df59061274f565b8015610e425780601f10610e1757610100808354040283529160200191610e42565b820191906000526020600020905b815481529060010190602001808311610e2557829003601f168201915b5050505050905082565b610e54611d7f565b834244604051602001610e69939291906123e4565b6040516020818303038152906040528051906020012060001c8160000181815250508381602001819052508281604001818152505081816060018190525060405180602001604052806000815250816080018190525060008160a0018181525050806001600083600001518152602001908152602001600020600082015181600001556020820151816001019080519060200190610f08929190611c84565b50604082015181600201556060820151816003019080519060200190610f2f929190611c84565b506080820151816004019080519060200190610f4c929190611c84565b5060a0820151816005015590505060026000815480929190610f6d906127b2565b91905055507f0b9650a646eaf16194343a0e5cf05c4a99cfbffbf2a7630c4eaf6f3263a931d881600254604051610fa59291906124e8565b60405180910390a150505050565b610fbb611db5565b814244604051602001610fd0939291906123e4565b6040516020818303038152906040528051906020012060001c8160000181815250506040518060400160405280600281526020017f4d410000000000000000000000000000000000000000000000000000000000008152508160200181905250818160400181905250600067ffffffffffffffff81111561105457611053612859565b5b6040519080825280602002602001820160405280156110825781602001602082028036833780820191505090505b5081606001819052508060046000836000015181526020019081526020016000206000820151816000015560208201518160010190805190602001906110c9929190611c84565b5060408201518160020190805190602001906110e6929190611c84565b506060820151816003019080519060200190611103929190611d0a565b509050507fc127163e194edd469d13210787466a0adb629f336e45d1fc7bc4e2797805615e8160405161113691906124a4565b60405180910390a15050565b600460205280600052604060002060009150905080600001549080600101805461116b9061274f565b80601f01602080910402602001604051908101604052809291908181526020018280546111979061274f565b80156111e45780601f106111b9576101008083540402835291602001916111e4565b820191906000526020600020905b8154815290600101906020018083116111c757829003601f168201915b5050505050908060020180546111f99061274f565b80601f01602080910402602001604051908101604052809291908181526020018280546112259061274f565b80156112725780601f1061124757610100808354040283529160200191611272565b820191906000526020600020905b81548152906001019060200180831161125557829003601f168201915b5050505050905083565b611284611ddd565b814244604051602001611299939291906123e4565b6040516020818303038152906040528051906020012060001c816000018181525050818160200181905250600067ffffffffffffffff8111156112df576112de612859565b5b60405190808252806020026020018201604052801561130d5781602001602082028036833780820191505090505b508160400181905250806006600083600001518152602001908152602001600020600082015181600001556020820151816001019080519060200190611354929190611c84565b506040820151816002019080519060200190611371929190611d0a565b509050507f3f3d80dc5c883417f8997fef692ba50e4f4f4762e620926e80d9aed3b08b89d0816040516113a49190612518565b60405180910390a15050565b60006113bb84611522565b9050828160a0015114611403576040517f08c379a00000000000000000000000000000000000000000000000000000000081526004016113fa90612422565b60405180910390fd5b600061140e8361059d565b90508060400151826080018190525080600001518260a00181815250507f59be542ca2db8c0eaeb99f755e7eab871d9cefc9b5e52b1f107b679c7295fae18260405161145a91906124c6565b60405180910390a15050505050565b600061147484611522565b9050828160a00151146114bc576040517f08c379a00000000000000000000000000000000000000000000000000000000081526004016114b390612442565b60405180910390fd5b60006114c78361198f565b90508060200151826080018190525080600001518260a00181815250507f59be542ca2db8c0eaeb99f755e7eab871d9cefc9b5e52b1f107b679c7295fae18260405161151391906124c6565b60405180910390a15050505050565b61152a611d7f565b600160008381526020019081526020016000206040518060c0016040529081600082015481526020016001820180546115629061274f565b80601f016020809104026020016040519081016040528092919081815260200182805461158e9061274f565b80156115db5780601f106115b0576101008083540402835291602001916115db565b820191906000526020600020905b8154815290600101906020018083116115be57829003601f168201915b50505050508152602001600282015481526020016003820180546115fe9061274f565b80601f016020809104026020016040519081016040528092919081815260200182805461162a9061274f565b80156116775780601f1061164c57610100808354040283529160200191611677565b820191906000526020600020905b81548152906001019060200180831161165a57829003601f168201915b505050505081526020016004820180546116909061274f565b80601f01602080910402602001604051908101604052809291908181526020018280546116bc9061274f565b80156117095780601f106116de57610100808354040283529160200191611709565b820191906000526020600020905b8154815290600101906020018083116116ec57829003601f168201915b505050505081526020016005820154815250509050919050565b600061172e84611522565b9050828160a0015114611776576040517f08c379a000000000000000000000000000000000000000000000000000000000815260040161176d90612462565b60405180910390fd5b6000611781836117dc565b90508060400151826080018190525080600001518260a00181815250507f59be542ca2db8c0eaeb99f755e7eab871d9cefc9b5e52b1f107b679c7295fae1826040516117cd91906124c6565b60405180910390a15050505050565b6117e4611db5565b600460008381526020019081526020016000206040518060800160405290816000820154815260200160018201805461181c9061274f565b80601f01602080910402602001604051908101604052809291908181526020018280546118489061274f565b80156118955780601f1061186a57610100808354040283529160200191611895565b820191906000526020600020905b81548152906001019060200180831161187857829003601f168201915b505050505081526020016002820180546118ae9061274f565b80601f01602080910402602001604051908101604052809291908181526020018280546118da9061274f565b80156119275780601f106118fc57610100808354040283529160200191611927565b820191906000526020600020905b81548152906001019060200180831161190a57829003601f168201915b505050505081526020016003820180548060200260200160405190810160405280929190818152602001828054801561197f57602002820191906000526020600020905b81548152602001906001019080831161196b575b5050505050815250509050919050565b611997611ddd565b60066000838152602001908152602001600020604051806060016040529081600082015481526020016001820180546119cf9061274f565b80601f01602080910402602001604051908101604052809291908181526020018280546119fb9061274f565b8015611a485780601f10611a1d57610100808354040283529160200191611a48565b820191906000526020600020905b815481529060010190602001808311611a2b57829003601f168201915b5050505050815260200160028201805480602002602001604051908101604052809291908181526020018280548015611aa057602002820191906000526020600020905b815481526020019060010190808311611a8c575b5050505050815250509050919050565b6003602052806000526040600020600091509050806000015490806001018054611ad99061274f565b80601f0160208091040260200160405190810160405280929190818152602001828054611b059061274f565b8015611b525780601f10611b2757610100808354040283529160200191611b52565b820191906000526020600020905b815481529060010190602001808311611b3557829003601f168201915b505050505090806002018054611b679061274f565b80601f0160208091040260200160405190810160405280929190818152602001828054611b939061274f565b8015611be05780601f10611bb557610100808354040283529160200191611be0565b820191906000526020600020905b815481529060010190602001808311611bc357829003601f168201915b5050505050905083565b6000611bf582610750565b90506000611c0284611522565b90508160400151816080018190525081600001518160a00181815250507f59be542ca2db8c0eaeb99f755e7eab871d9cefc9b5e52b1f107b679c7295fae181604051611c4e91906124c6565b60405180910390a150505050565b6040518060800160405280600081526020016060815260200160608152602001606081525090565b828054611c909061274f565b90600052602060002090601f016020900481019282611cb25760008555611cf9565b82601f10611ccb57805160ff1916838001178555611cf9565b82800160010185558215611cf9579182015b82811115611cf8578251825591602001919060010190611cdd565b5b509050611d069190611dfe565b5090565b828054828255906000526020600020908101928215611d46579160200282015b82811115611d45578251825591602001919060010190611d2a565b5b509050611d539190611dfe565b5090565b6040518060800160405280600081526020016060815260200160608152602001606081525090565b6040518060c001604052806000815260200160608152602001600081526020016060815260200160608152602001600081525090565b6040518060800160405280600081526020016060815260200160608152602001606081525090565b60405180606001604052806000815260200160608152602001606081525090565b5b80821115611e17576000816000905550600101611dff565b5090565b6000611e2e611e298461266c565b612647565b905082815260208101848484011115611e4a57611e4961288d565b5b611e5584828561270d565b509392505050565b600082601f830112611e7257611e71612888565b5b8135611e82848260208601611e1b565b91505092915050565b600081359050611e9a8161299a565b92915050565b600060208284031215611eb657611eb5612897565b5b600082013567ffffffffffffffff811115611ed457611ed3612892565b5b611ee084828501611e5d565b91505092915050565b600080600060608486031215611f0257611f01612897565b5b600084013567ffffffffffffffff811115611f2057611f1f612892565b5b611f2c86828701611e5d565b9350506020611f3d86828701611e8b565b925050604084013567ffffffffffffffff811115611f5e57611f5d612892565b5b611f6a86828701611e5d565b9150509250925092565b600060208284031215611f8a57611f89612897565b5b6000611f9884828501611e8b565b91505092915050565b60008060408385031215611fb857611fb7612897565b5b6000611fc685828601611e8b565b9250506020611fd785828601611e8b565b9150509250929050565b600080600060608486031215611ffa57611ff9612897565b5b600061200886828701611e8b565b935050602061201986828701611e8b565b925050604061202a86828701611e8b565b9150509250925092565b600061204083836123c6565b60208301905092915050565b6000612057826126ad565b61206181856126d0565b935061206c8361269d565b8060005b8381101561209d5781516120848882612034565b975061208f836126c3565b925050600181019050612070565b5085935050505092915050565b60006120b5826126b8565b6120bf81856126e1565b93506120cf81856020860161271c565b6120d88161289c565b840191505092915050565b60006120ee826126b8565b6120f881856126f2565b935061210881856020860161271c565b6121118161289c565b840191505092915050565b60006121296034836126f2565b9150612134826128ad565b604082019050919050565b600061214c6033836126f2565b9150612157826128fc565b604082019050919050565b600061216f6030836126f2565b915061217a8261294b565b604082019050919050565b600060808301600083015161219d60008601826123c6565b50602083015184820360208601526121b582826120aa565b915050604083015184820360408601526121cf82826120aa565b915050606083015184820360608601526121e9828261204c565b9150508091505092915050565b600060808301600083015161220e60008601826123c6565b506020830151848203602086015261222682826120aa565b9150506040830151848203604086015261224082826120aa565b9150506060830151848203606086015261225a828261204c565b9150508091505092915050565b600060c08301600083015161227f60008601826123c6565b506020830151848203602086015261229782826120aa565b91505060408301516122ac60408601826123c6565b50606083015184820360608601526122c482826120aa565b915050608083015184820360808601526122de82826120aa565b91505060a08301516122f360a08601826123c6565b508091505092915050565b600060608301600083015161231660008601826123c6565b506020830151848203602086015261232e82826120aa565b91505060408301518482036040860152612348828261204c565b9150508091505092915050565b600060808301600083015161236d60008601826123c6565b506020830151848203602086015261238582826120aa565b9150506040830151848203604086015261239f82826120aa565b915050606083015184820360608601526123b9828261204c565b9150508091505092915050565b6123cf81612703565b82525050565b6123de81612703565b82525050565b600060608201905081810360008301526123fe81866120e3565b905061240d60208301856123d5565b61241a60408301846123d5565b949350505050565b6000602082019050818103600083015261243b8161211c565b9050919050565b6000602082019050818103600083015261245b8161213f565b9050919050565b6000602082019050818103600083015261247b81612162565b9050919050565b6000602082019050818103600083015261249c8184612185565b905092915050565b600060208201905081810360008301526124be81846121f6565b905092915050565b600060208201905081810360008301526124e08184612267565b905092915050565b600060408201905081810360008301526125028185612267565b905061251160208301846123d5565b9392505050565b6000602082019050818103600083015261253281846122fe565b905092915050565b600060208201905081810360008301526125548184612355565b905092915050565b600060408201905061257160008301856123d5565b818103602083015261258381846120e3565b90509392505050565b60006060820190506125a160008301866123d5565b81810360208301526125b381856120e3565b905081810360408301526125c781846120e3565b9050949350505050565b600060c0820190506125e660008301896123d5565b81810360208301526125f881886120e3565b905061260760408301876123d5565b818103606083015261261981866120e3565b9050818103608083015261262d81856120e3565b905061263c60a08301846123d5565b979650505050505050565b6000612651612662565b905061265d8282612781565b919050565b6000604051905090565b600067ffffffffffffffff82111561268757612686612859565b5b6126908261289c565b9050602081019050919050565b6000819050602082019050919050565b600081519050919050565b600081519050919050565b6000602082019050919050565b600082825260208201905092915050565b600082825260208201905092915050565b600082825260208201905092915050565b6000819050919050565b82818337600083830152505050565b60005b8381101561273a57808201518184015260208101905061271f565b83811115612749576000848401525b50505050565b6000600282049050600182168061276757607f821691505b6020821081141561277b5761277a61282a565b5b50919050565b61278a8261289c565b810181811067ffffffffffffffff821117156127a9576127a8612859565b5b80604052505050565b60006127bd82612703565b91507fffffffffffffffffffffffffffffffffffffffffffffffffffffffffffffffff8214156127f0576127ef6127fb565b5b600182019050919050565b7f4e487b7100000000000000000000000000000000000000000000000000000000600052601160045260246000fd5b7f4e487b7100000000000000000000000000000000000000000000000000000000600052602260045260246000fd5b7f4e487b7100000000000000000000000000000000000000000000000000000000600052604160045260246000fd5b600080fd5b600080fd5b600080fd5b600080fd5b6000601f19601f8301169050919050565b7f4d616e756661637475726572206973206e6f74207468652063757272656e742060008201527f6f776e6572206f66207468652070726f64756374000000000000000000000000602082015250565b7f4469737472696275746f72206973206e6f74207468652063757272656e74206f60008201527f776e6572206f66207468652070726f6475637400000000000000000000000000602082015250565b7f537570706c696572206973206e6f74207468652063757272656e74206f776e6560008201527f72206f66207468652070726f6475637400000000000000000000000000000000602082015250565b6129a381612703565b81146129ae57600080fd5b5056fea26469706673582212205216c9dfa18c2a3b91e7dbb1bb1fb1e5d8bdb75741da4ee18c1ed263dc01867c64736f6c63430008070033",
					"opcodes": "PUSH1 0x80 PUSH1 0x40 MSTORE CALLER PUSH1 0x0 DUP1 PUSH2 0x100 EXP DUP2 SLOAD DUP2 PUSH20 0xFFFFFFFFFFFFFFFFFFFFFFFFFFFFFFFFFFFFFFFF MUL NOT AND SWAP1 DUP4 PUSH20 0xFFFFFFFFFFFFFFFFFFFFFFFFFFFFFFFFFFFFFFFF AND MUL OR SWAP1 SSTORE POP PUSH1 0x0 PUSH1 0x2 SSTORE CALLVALUE DUP1 ISZERO PUSH2 0x55 JUMPI PUSH1 0x0 DUP1 REVERT JUMPDEST POP PUSH2 0x29E7 DUP1 PUSH2 0x65 PUSH1 0x0 CODECOPY PUSH1 0x0 RETURN INVALID PUSH1 0x80 PUSH1 0x40 MSTORE CALLVALUE DUP1 ISZERO PUSH2 0x10 JUMPI PUSH1 0x0 DUP1 REVERT JUMPDEST POP PUSH1 0x4 CALLDATASIZE LT PUSH2 0x121 JUMPI PUSH1 0x0 CALLDATALOAD PUSH1 0xE0 SHR DUP1 PUSH4 0x90175AF1 GT PUSH2 0xAD JUMPI DUP1 PUSH4 0xBBB7B0C3 GT PUSH2 0x71 JUMPI DUP1 PUSH4 0xBBB7B0C3 EQ PUSH2 0x344 JUMPI DUP1 PUSH4 0xCB80C419 EQ PUSH2 0x360 JUMPI DUP1 PUSH4 0xCDA5E4A5 EQ PUSH2 0x390 JUMPI DUP1 PUSH4 0xCEA23121 EQ PUSH2 0x3C0 JUMPI DUP1 PUSH4 0xD8459464 EQ PUSH2 0x3F2 JUMPI PUSH2 0x121 JUMP JUMPDEST DUP1 PUSH4 0x90175AF1 EQ PUSH2 0x28E JUMPI DUP1 PUSH4 0x95D00407 EQ PUSH2 0x2C0 JUMPI DUP1 PUSH4 0xAE2CE444 EQ PUSH2 0x2DC JUMPI DUP1 PUSH4 0xB55BE240 EQ PUSH2 0x2F8 JUMPI DUP1 PUSH4 0xB9DB15B4 EQ PUSH2 0x314 JUMPI PUSH2 0x121 JUMP JUMPDEST DUP1 PUSH4 0x7ACC0B20 GT PUSH2 0xF4 JUMPI DUP1 PUSH4 0x7ACC0B20 EQ PUSH2 0x1D4 JUMPI DUP1 PUSH4 0x81D9DEF2 EQ PUSH2 0x209 JUMPI DUP1 PUSH4 0x897EC7DF EQ PUSH2 0x225 JUMPI DUP1 PUSH4 0x8F29695A EQ PUSH2 0x256 JUMPI DUP1 PUSH4 0x8F5AE799 EQ PUSH2 0x272 JUMPI PUSH2 0x121 JUMP JUMPDEST DUP1 PUSH4 0x15533A27 EQ PUSH2 0x126 JUMPI DUP1 PUSH4 0x333F3DD0 EQ PUSH2 0x142 JUMPI DUP1 PUSH4 0x3779643F EQ PUSH2 0x172 JUMPI DUP1 PUSH4 0x50B492BA EQ PUSH2 0x1A2 JUMPI JUMPDEST PUSH1 0x0 DUP1 REVERT JUMPDEST PUSH2 0x140 PUSH1 0x4 DUP1 CALLDATASIZE SUB DUP2 ADD SWAP1 PUSH2 0x13B SWAP2 SWAP1 PUSH2 0x1EA0 JUMP JUMPDEST PUSH2 0x40E JUMP JUMPDEST STOP JUMPDEST PUSH2 0x15C PUSH1 0x4 DUP1 CALLDATASIZE SUB DUP2 ADD SWAP1 PUSH2 0x157 SWAP2 SWAP1 PUSH2 0x1F74 JUMP JUMPDEST PUSH2 0x59D JUMP JUMPDEST PUSH1 0x40 MLOAD PUSH2 0x169 SWAP2 SWAP1 PUSH2 0x2482 JUMP JUMPDEST PUSH1 0x40 MLOAD DUP1 SWAP2 SUB SWAP1 RETURN JUMPDEST PUSH2 0x18C PUSH1 0x4 DUP1 CALLDATASIZE SUB DUP2 ADD SWAP1 PUSH2 0x187 SWAP2 SWAP1 PUSH2 0x1F74 JUMP JUMPDEST PUSH2 0x750 JUMP JUMPDEST PUSH1 0x40 MLOAD PUSH2 0x199 SWAP2 SWAP1 PUSH2 0x253A JUMP JUMPDEST PUSH1 0x40 MLOAD DUP1 SWAP2 SUB SWAP1 RETURN JUMPDEST PUSH2 0x1BC PUSH1 0x4 DUP1 CALLDATASIZE SUB DUP2 ADD SWAP1 PUSH2 0x1B7 SWAP2 SWAP1 PUSH2 0x1F74 JUMP JUMPDEST PUSH2 0x903 JUMP JUMPDEST PUSH1 0x40 MLOAD PUSH2 0x1CB SWAP4 SWAP3 SWAP2 SWAP1 PUSH2 0x258C JUMP JUMPDEST PUSH1 0x40 MLOAD DUP1 SWAP2 SUB SWAP1 RETURN JUMPDEST PUSH2 0x1EE PUSH1 0x4 DUP1 CALLDATASIZE SUB DUP2 ADD SWAP1 PUSH2 0x1E9 SWAP2 SWAP1 PUSH2 0x1F74 JUMP JUMPDEST PUSH2 0xA3D JUMP JUMPDEST PUSH1 0x40 MLOAD PUSH2 0x200 SWAP7 SWAP6 SWAP5 SWAP4 SWAP3 SWAP2 SWAP1 PUSH2 0x25D1 JUMP JUMPDEST PUSH1 0x40 MLOAD DUP1 SWAP2 SUB SWAP1 RETURN JUMPDEST PUSH2 0x223 PUSH1 0x4 DUP1 CALLDATASIZE SUB DUP2 ADD SWAP1 PUSH2 0x21E SWAP2 SWAP1 PUSH2 0x1EA0 JUMP JUMPDEST PUSH2 0xC11 JUMP JUMPDEST STOP JUMPDEST PUSH2 0x23F PUSH1 0x4 DUP1 CALLDATASIZE SUB DUP2 ADD SWAP1 PUSH2 0x23A SWAP2 SWAP1 PUSH2 0x1F74 JUMP JUMPDEST PUSH2 0xDA0 JUMP JUMPDEST PUSH1 0x40 MLOAD PUSH2 0x24D SWAP3 SWAP2 SWAP1 PUSH2 0x255C JUMP JUMPDEST PUSH1 0x40 MLOAD DUP1 SWAP2 SUB SWAP1 RETURN JUMPDEST PUSH2 0x270 PUSH1 0x4 DUP1 CALLDATASIZE SUB DUP2 ADD SWAP1 PUSH2 0x26B SWAP2 SWAP1 PUSH2 0x1EE9 JUMP JUMPDEST PUSH2 0xE4C JUMP JUMPDEST STOP JUMPDEST PUSH2 0x28C PUSH1 0x4 DUP1 CALLDATASIZE SUB DUP2 ADD SWAP1 PUSH2 0x287 SWAP2 SWAP1 PUSH2 0x1EA0 JUMP JUMPDEST PUSH2 0xFB3 JUMP JUMPDEST STOP JUMPDEST PUSH2 0x2A8 PUSH1 0x4 DUP1 CALLDATASIZE SUB DUP2 ADD SWAP1 PUSH2 0x2A3 SWAP2 SWAP1 PUSH2 0x1F74 JUMP JUMPDEST PUSH2 0x1142 JUMP JUMPDEST PUSH1 0x40 MLOAD PUSH2 0x2B7 SWAP4 SWAP3 SWAP2 SWAP1 PUSH2 0x258C JUMP JUMPDEST PUSH1 0x40 MLOAD DUP1 SWAP2 SUB SWAP1 RETURN JUMPDEST PUSH2 0x2DA PUSH1 0x4 DUP1 CALLDATASIZE SUB DUP2 ADD SWAP1 PUSH2 0x2D5 SWAP2 SWAP1 PUSH2 0x1EA0 JUMP JUMPDEST PUSH2 0x127C JUMP JUMPDEST STOP JUMPDEST PUSH2 0x2F6 PUSH1 0x4 DUP1 CALLDATASIZE SUB DUP2 ADD SWAP1 PUSH2 0x2F1 SWAP2 SWAP1 PUSH2 0x1FE1 JUMP JUMPDEST PUSH2 0x13B0 JUMP JUMPDEST STOP JUMPDEST PUSH2 0x312 PUSH1 0x4 DUP1 CALLDATASIZE SUB DUP2 ADD SWAP1 PUSH2 0x30D SWAP2 SWAP1 PUSH2 0x1FE1 JUMP JUMPDEST PUSH2 0x1469 JUMP JUMPDEST STOP JUMPDEST PUSH2 0x32E PUSH1 0x4 DUP1 CALLDATASIZE SUB DUP2 ADD SWAP1 PUSH2 0x329 SWAP2 SWAP1 PUSH2 0x1F74 JUMP JUMPDEST PUSH2 0x1522 JUMP JUMPDEST PUSH1 0x40 MLOAD PUSH2 0x33B SWAP2 SWAP1 PUSH2 0x24C6 JUMP JUMPDEST PUSH1 0x40 MLOAD DUP1 SWAP2 SUB SWAP1 RETURN JUMPDEST PUSH2 0x35E PUSH1 0x4 DUP1 CALLDATASIZE SUB DUP2 ADD SWAP1 PUSH2 0x359 SWAP2 SWAP1 PUSH2 0x1FE1 JUMP JUMPDEST PUSH2 0x1723 JUMP JUMPDEST STOP JUMPDEST PUSH2 0x37A PUSH1 0x4 DUP1 CALLDATASIZE SUB DUP2 ADD SWAP1 PUSH2 0x375 SWAP2 SWAP1 PUSH2 0x1F74 JUMP JUMPDEST PUSH2 0x17DC JUMP JUMPDEST PUSH1 0x40 MLOAD PUSH2 0x387 SWAP2 SWAP1 PUSH2 0x24A4 JUMP JUMPDEST PUSH1 0x40 MLOAD DUP1 SWAP2 SUB SWAP1 RETURN JUMPDEST PUSH2 0x3AA PUSH1 0x4 DUP1 CALLDATASIZE SUB DUP2 ADD SWAP1 PUSH2 0x3A5 SWAP2 SWAP1 PUSH2 0x1F74 JUMP JUMPDEST PUSH2 0x198F JUMP JUMPDEST PUSH1 0x40 MLOAD PUSH2 0x3B7 SWAP2 SWAP1 PUSH2 0x2518 JUMP JUMPDEST PUSH1 0x40 MLOAD DUP1 SWAP2 SUB SWAP1 RETURN JUMPDEST PUSH2 0x3DA PUSH1 0x4 DUP1 CALLDATASIZE SUB DUP2 ADD SWAP1 PUSH2 0x3D5 SWAP2 SWAP1 PUSH2 0x1F74 JUMP JUMPDEST PUSH2 0x1AB0 JUMP JUMPDEST PUSH1 0x40 MLOAD PUSH2 0x3E9 SWAP4 SWAP3 SWAP2 SWAP1 PUSH2 0x258C JUMP JUMPDEST PUSH1 0x40 MLOAD DUP1 SWAP2 SUB SWAP1 RETURN JUMPDEST PUSH2 0x40C PUSH1 0x4 DUP1 CALLDATASIZE SUB DUP2 ADD SWAP1 PUSH2 0x407 SWAP2 SWAP1 PUSH2 0x1FA1 JUMP JUMPDEST PUSH2 0x1BEA JUMP JUMPDEST STOP JUMPDEST PUSH2 0x416 PUSH2 0x1C5C JUMP JUMPDEST DUP2 TIMESTAMP DIFFICULTY PUSH1 0x40 MLOAD PUSH1 0x20 ADD PUSH2 0x42B SWAP4 SWAP3 SWAP2 SWAP1 PUSH2 0x23E4 JUMP JUMPDEST PUSH1 0x40 MLOAD PUSH1 0x20 DUP2 DUP4 SUB SUB DUP2 MSTORE SWAP1 PUSH1 0x40 MSTORE DUP1 MLOAD SWAP1 PUSH1 0x20 ADD KECCAK256 PUSH1 0x0 SHR DUP2 PUSH1 0x0 ADD DUP2 DUP2 MSTORE POP POP PUSH1 0x40 MLOAD DUP1 PUSH1 0x40 ADD PUSH1 0x40 MSTORE DUP1 PUSH1 0x2 DUP2 MSTORE PUSH1 0x20 ADD PUSH32 0x5355000000000000000000000000000000000000000000000000000000000000 DUP2 MSTORE POP DUP2 PUSH1 0x20 ADD DUP2 SWAP1 MSTORE POP DUP2 DUP2 PUSH1 0x40 ADD DUP2 SWAP1 MSTORE POP PUSH1 0x0 PUSH8 0xFFFFFFFFFFFFFFFF DUP2 GT ISZERO PUSH2 0x4AF JUMPI PUSH2 0x4AE PUSH2 0x2859 JUMP JUMPDEST JUMPDEST PUSH1 0x40 MLOAD SWAP1 DUP1 DUP3 MSTORE DUP1 PUSH1 0x20 MUL PUSH1 0x20 ADD DUP3 ADD PUSH1 0x40 MSTORE DUP1 ISZERO PUSH2 0x4DD JUMPI DUP2 PUSH1 0x20 ADD PUSH1 0x20 DUP3 MUL DUP1 CALLDATASIZE DUP4 CALLDATACOPY DUP1 DUP3 ADD SWAP2 POP POP SWAP1 POP JUMPDEST POP DUP2 PUSH1 0x60 ADD DUP2 SWAP1 MSTORE POP DUP1 PUSH1 0x3 PUSH1 0x0 DUP4 PUSH1 0x0 ADD MLOAD DUP2 MSTORE PUSH1 0x20 ADD SWAP1 DUP2 MSTORE PUSH1 0x20 ADD PUSH1 0x0 KECCAK256 PUSH1 0x0 DUP3 ADD MLOAD DUP2 PUSH1 0x0 ADD SSTORE PUSH1 0x20 DUP3 ADD MLOAD DUP2 PUSH1 0x1 ADD SWAP1 DUP1 MLOAD SWAP1 PUSH1 0x20 ADD SWAP1 PUSH2 0x524 SWAP3 SWAP2 SWAP1 PUSH2 0x1C84 JUMP JUMPDEST POP PUSH1 0x40 DUP3 ADD MLOAD DUP2 PUSH1 0x2 ADD SWAP1 DUP1 MLOAD SWAP1 PUSH1 0x20 ADD SWAP1 PUSH2 0x541 SWAP3 SWAP2 SWAP1 PUSH2 0x1C84 JUMP JUMPDEST POP PUSH1 0x60 DUP3 ADD MLOAD DUP2 PUSH1 0x3 ADD SWAP1 DUP1 MLOAD SWAP1 PUSH1 0x20 ADD SWAP1 PUSH2 0x55E SWAP3 SWAP2 SWAP1 PUSH2 0x1D0A JUMP JUMPDEST POP SWAP1 POP POP PUSH32 0xE2879159E80C92C57341E91920C4B1AF102EEBAB99C1ECA0E8A3C081FBF95BA DUP2 PUSH1 0x40 MLOAD PUSH2 0x591 SWAP2 SWAP1 PUSH2 0x253A JUMP JUMPDEST PUSH1 0x40 MLOAD DUP1 SWAP2 SUB SWAP1 LOG1 POP POP JUMP JUMPDEST PUSH2 0x5A5 PUSH2 0x1D57 JUMP JUMPDEST PUSH1 0x5 PUSH1 0x0 DUP4 DUP2 MSTORE PUSH1 0x20 ADD SWAP1 DUP2 MSTORE PUSH1 0x20 ADD PUSH1 0x0 KECCAK256 PUSH1 0x40 MLOAD DUP1 PUSH1 0x80 ADD PUSH1 0x40 MSTORE SWAP1 DUP2 PUSH1 0x0 DUP3 ADD SLOAD DUP2 MSTORE PUSH1 0x20 ADD PUSH1 0x1 DUP3 ADD DUP1 SLOAD PUSH2 0x5DD SWAP1 PUSH2 0x274F JUMP JUMPDEST DUP1 PUSH1 0x1F ADD PUSH1 0x20 DUP1 SWAP2 DIV MUL PUSH1 0x20 ADD PUSH1 0x40 MLOAD SWAP1 DUP2 ADD PUSH1 0x40 MSTORE DUP1 SWAP3 SWAP2 SWAP1 DUP2 DUP2 MSTORE PUSH1 0x20 ADD DUP3 DUP1 SLOAD PUSH2 0x609 SWAP1 PUSH2 0x274F JUMP JUMPDEST DUP1 ISZERO PUSH2 0x656 JUMPI DUP1 PUSH1 0x1F LT PUSH2 0x62B JUMPI PUSH2 0x100 DUP1 DUP4 SLOAD DIV MUL DUP4 MSTORE SWAP2 PUSH1 0x20 ADD SWAP2 PUSH2 0x656 JUMP JUMPDEST DUP3 ADD SWAP2 SWAP1 PUSH1 0x0 MSTORE PUSH1 0x20 PUSH1 0x0 KECCAK256 SWAP1 JUMPDEST DUP2 SLOAD DUP2 MSTORE SWAP1 PUSH1 0x1 ADD SWAP1 PUSH1 0x20 ADD DUP1 DUP4 GT PUSH2 0x639 JUMPI DUP3 SWAP1 SUB PUSH1 0x1F AND DUP3 ADD SWAP2 JUMPDEST POP POP POP POP POP DUP2 MSTORE PUSH1 0x20 ADD PUSH1 0x2 DUP3 ADD DUP1 SLOAD PUSH2 0x66F SWAP1 PUSH2 0x274F JUMP JUMPDEST DUP1 PUSH1 0x1F ADD PUSH1 0x20 DUP1 SWAP2 DIV MUL PUSH1 0x20 ADD PUSH1 0x40 MLOAD SWAP1 DUP2 ADD PUSH1 0x40 MSTORE DUP1 SWAP3 SWAP2 SWAP1 DUP2 DUP2 MSTORE PUSH1 0x20 ADD DUP3 DUP1 SLOAD PUSH2 0x69B SWAP1 PUSH2 0x274F JUMP JUMPDEST DUP1 ISZERO PUSH2 0x6E8 JUMPI DUP1 PUSH1 0x1F LT PUSH2 0x6BD JUMPI PUSH2 0x100 DUP1 DUP4 SLOAD DIV MUL DUP4 MSTORE SWAP2 PUSH1 0x20 ADD SWAP2 PUSH2 0x6E8 JUMP JUMPDEST DUP3 ADD SWAP2 SWAP1 PUSH1 0x0 MSTORE PUSH1 0x20 PUSH1 0x0 KECCAK256 SWAP1 JUMPDEST DUP2 SLOAD DUP2 MSTORE SWAP1 PUSH1 0x1 ADD SWAP1 PUSH1 0x20 ADD DUP1 DUP4 GT PUSH2 0x6CB JUMPI DUP3 SWAP1 SUB PUSH1 0x1F AND DUP3 ADD SWAP2 JUMPDEST POP POP POP POP POP DUP2 MSTORE PUSH1 0x20 ADD PUSH1 0x3 DUP3 ADD DUP1 SLOAD DUP1 PUSH1 0x20 MUL PUSH1 0x20 ADD PUSH1 0x40 MLOAD SWAP1 DUP2 ADD PUSH1 0x40 MSTORE DUP1 SWAP3 SWAP2 SWAP1 DUP2 DUP2 MSTORE PUSH1 0x20 ADD DUP3 DUP1 SLOAD DUP1 ISZERO PUSH2 0x740 JUMPI PUSH1 0x20 MUL DUP3 ADD SWAP2 SWAP1 PUSH1 0x0 MSTORE PUSH1 0x20 PUSH1 0x0 KECCAK256 SWAP1 JUMPDEST DUP2 SLOAD DUP2 MSTORE PUSH1 0x20 ADD SWAP1 PUSH1 0x1 ADD SWAP1 DUP1 DUP4 GT PUSH2 0x72C JUMPI JUMPDEST POP POP POP POP POP DUP2 MSTORE POP POP SWAP1 POP SWAP2 SWAP1 POP JUMP JUMPDEST PUSH2 0x758 PUSH2 0x1C5C JUMP JUMPDEST PUSH1 0x3 PUSH1 0x0 DUP4 DUP2 MSTORE PUSH1 0x20 ADD SWAP1 DUP2 MSTORE PUSH1 0x20 ADD PUSH1 0x0 KECCAK256 PUSH1 0x40 MLOAD DUP1 PUSH1 0x80 ADD PUSH1 0x40 MSTORE SWAP1 DUP2 PUSH1 0x0 DUP3 ADD SLOAD DUP2 MSTORE PUSH1 0x20 ADD PUSH1 0x1 DUP3 ADD DUP1 SLOAD PUSH2 0x790 SWAP1 PUSH2 0x274F JUMP JUMPDEST DUP1 PUSH1 0x1F ADD PUSH1 0x20 DUP1 SWAP2 DIV MUL PUSH1 0x20 ADD PUSH1 0x40 MLOAD SWAP1 DUP2 ADD PUSH1 0x40 MSTORE DUP1 SWAP3 SWAP2 SWAP1 DUP2 DUP2 MSTORE PUSH1 0x20 ADD DUP3 DUP1 SLOAD PUSH2 0x7BC SWAP1 PUSH2 0x274F JUMP JUMPDEST DUP1 ISZERO PUSH2 0x809 JUMPI DUP1 PUSH1 0x1F LT PUSH2 0x7DE JUMPI PUSH2 0x100 DUP1 DUP4 SLOAD DIV MUL DUP4 MSTORE SWAP2 PUSH1 0x20 ADD SWAP2 PUSH2 0x809 JUMP JUMPDEST DUP3 ADD SWAP2 SWAP1 PUSH1 0x0 MSTORE PUSH1 0x20 PUSH1 0x0 KECCAK256 SWAP1 JUMPDEST DUP2 SLOAD DUP2 MSTORE SWAP1 PUSH1 0x1 ADD SWAP1 PUSH1 0x20 ADD DUP1 DUP4 GT PUSH2 0x7EC JUMPI DUP3 SWAP1 SUB PUSH1 0x1F AND DUP3 ADD SWAP2 JUMPDEST POP POP POP POP POP DUP2 MSTORE PUSH1 0x20 ADD PUSH1 0x2 DUP3 ADD DUP1 SLOAD PUSH2 0x822 SWAP1 PUSH2 0x274F JUMP JUMPDEST DUP1 PUSH1 0x1F ADD PUSH1 0x20 DUP1 SWAP2 DIV MUL PUSH1 0x20 ADD PUSH1 0x40 MLOAD SWAP1 DUP2 ADD PUSH1 0x40 MSTORE DUP1 SWAP3 SWAP2 SWAP1 DUP2 DUP2 MSTORE PUSH1 0x20 ADD DUP3 DUP1 SLOAD PUSH2 0x84E SWAP1 PUSH2 0x274F JUMP JUMPDEST DUP1 ISZERO PUSH2 0x89B JUMPI DUP1 PUSH1 0x1F LT PUSH2 0x870 JUMPI PUSH2 0x100 DUP1 DUP4 SLOAD DIV MUL DUP4 MSTORE SWAP2 PUSH1 0x20 ADD SWAP2 PUSH2 0x89B JUMP JUMPDEST DUP3 ADD SWAP2 SWAP1 PUSH1 0x0 MSTORE PUSH1 0x20 PUSH1 0x0 KECCAK256 SWAP1 JUMPDEST DUP2 SLOAD DUP2 MSTORE SWAP1 PUSH1 0x1 ADD SWAP1 PUSH1 0x20 ADD DUP1 DUP4 GT PUSH2 0x87E JUMPI DUP3 SWAP1 SUB PUSH1 0x1F AND DUP3 ADD SWAP2 JUMPDEST POP POP POP POP POP DUP2 MSTORE PUSH1 0x20 ADD PUSH1 0x3 DUP3 ADD DUP1 SLOAD DUP1 PUSH1 0x20 MUL PUSH1 0x20 ADD PUSH1 0x40 MLOAD SWAP1 DUP2 ADD PUSH1 0x40 MSTORE DUP1 SWAP3 SWAP2 SWAP1 DUP2 DUP2 MSTORE PUSH1 0x20 ADD DUP3 DUP1 SLOAD DUP1 ISZERO PUSH2 0x8F3 JUMPI PUSH1 0x20 MUL DUP3 ADD SWAP2 SWAP1 PUSH1 0x0 MSTORE PUSH1 0x20 PUSH1 0x0 KECCAK256 SWAP1 JUMPDEST DUP2 SLOAD DUP2 MSTORE PUSH1 0x20 ADD SWAP1 PUSH1 0x1 ADD SWAP1 DUP1 DUP4 GT PUSH2 0x8DF JUMPI JUMPDEST POP POP POP POP POP DUP2 MSTORE POP POP SWAP1 POP SWAP2 SWAP1 POP JUMP JUMPDEST PUSH1 0x5 PUSH1 0x20 MSTORE DUP1 PUSH1 0x0 MSTORE PUSH1 0x40 PUSH1 0x0 KECCAK256 PUSH1 0x0 SWAP2 POP SWAP1 POP DUP1 PUSH1 0x0 ADD SLOAD SWAP1 DUP1 PUSH1 0x1 ADD DUP1 SLOAD PUSH2 0x92C SWAP1 PUSH2 0x274F JUMP JUMPDEST DUP1 PUSH1 0x1F ADD PUSH1 0x20 DUP1 SWAP2 DIV MUL PUSH1 0x20 ADD PUSH1 0x40 MLOAD SWAP1 DUP2 ADD PUSH1 0x40 MSTORE DUP1 SWAP3 SWAP2 SWAP1 DUP2 DUP2 MSTORE PUSH1 0x20 ADD DUP3 DUP1 SLOAD PUSH2 0x958 SWAP1 PUSH2 0x274F JUMP JUMPDEST DUP1 ISZERO PUSH2 0x9A5 JUMPI DUP1 PUSH1 0x1F LT PUSH2 0x97A JUMPI PUSH2 0x100 DUP1 DUP4 SLOAD DIV MUL DUP4 MSTORE SWAP2 PUSH1 0x20 ADD SWAP2 PUSH2 0x9A5 JUMP JUMPDEST DUP3 ADD SWAP2 SWAP1 PUSH1 0x0 MSTORE PUSH1 0x20 PUSH1 0x0 KECCAK256 SWAP1 JUMPDEST DUP2 SLOAD DUP2 MSTORE SWAP1 PUSH1 0x1 ADD SWAP1 PUSH1 0x20 ADD DUP1 DUP4 GT PUSH2 0x988 JUMPI DUP3 SWAP1 SUB PUSH1 0x1F AND DUP3 ADD SWAP2 JUMPDEST POP POP POP POP POP SWAP1 DUP1 PUSH1 0x2 ADD DUP1 SLOAD PUSH2 0x9BA SWAP1 PUSH2 0x274F JUMP JUMPDEST DUP1 PUSH1 0x1F ADD PUSH1 0x20 DUP1 SWAP2 DIV MUL PUSH1 0x20 ADD PUSH1 0x40 MLOAD SWAP1 DUP2 ADD PUSH1 0x40 MSTORE DUP1 SWAP3 SWAP2 SWAP1 DUP2 DUP2 MSTORE PUSH1 0x20 ADD DUP3 DUP1 SLOAD PUSH2 0x9E6 SWAP1 PUSH2 0x274F JUMP JUMPDEST DUP1 ISZERO PUSH2 0xA33 JUMPI DUP1 PUSH1 0x1F LT PUSH2 0xA08 JUMPI PUSH2 0x100 DUP1 DUP4 SLOAD DIV MUL DUP4 MSTORE SWAP2 PUSH1 0x20 ADD SWAP2 PUSH2 0xA33 JUMP JUMPDEST DUP3 ADD SWAP2 SWAP1 PUSH1 0x0 MSTORE PUSH1 0x20 PUSH1 0x0 KECCAK256 SWAP1 JUMPDEST DUP2 SLOAD DUP2 MSTORE SWAP1 PUSH1 0x1 ADD SWAP1 PUSH1 0x20 ADD DUP1 DUP4 GT PUSH2 0xA16 JUMPI DUP3 SWAP1 SUB PUSH1 0x1F AND DUP3 ADD SWAP2 JUMPDEST POP POP POP POP POP SWAP1 POP DUP4 JUMP JUMPDEST PUSH1 0x1 PUSH1 0x20 MSTORE DUP1 PUSH1 0x0 MSTORE PUSH1 0x40 PUSH1 0x0 KECCAK256 PUSH1 0x0 SWAP2 POP SWAP1 POP DUP1 PUSH1 0x0 ADD SLOAD SWAP1 DUP1 PUSH1 0x1 ADD DUP1 SLOAD PUSH2 0xA66 SWAP1 PUSH2 0x274F JUMP JUMPDEST DUP1 PUSH1 0x1F ADD PUSH1 0x20 DUP1 SWAP2 DIV MUL PUSH1 0x20 ADD PUSH1 0x40 MLOAD SWAP1 DUP2 ADD PUSH1 0x40 MSTORE DUP1 SWAP3 SWAP2 SWAP1 DUP2 DUP2 MSTORE PUSH1 0x20 ADD DUP3 DUP1 SLOAD PUSH2 0xA92 SWAP1 PUSH2 0x274F JUMP JUMPDEST DUP1 ISZERO PUSH2 0xADF JUMPI DUP1 PUSH1 0x1F LT PUSH2 0xAB4 JUMPI PUSH2 0x100 DUP1 DUP4 SLOAD DIV MUL DUP4 MSTORE SWAP2 PUSH1 0x20 ADD SWAP2 PUSH2 0xADF JUMP JUMPDEST DUP3 ADD SWAP2 SWAP1 PUSH1 0x0 MSTORE PUSH1 0x20 PUSH1 0x0 KECCAK256 SWAP1 JUMPDEST DUP2 SLOAD DUP2 MSTORE SWAP1 PUSH1 0x1 ADD SWAP1 PUSH1 0x20 ADD DUP1 DUP4 GT PUSH2 0xAC2 JUMPI DUP3 SWAP1 SUB PUSH1 0x1F AND DUP3 ADD SWAP2 JUMPDEST POP POP POP POP POP SWAP1 DUP1 PUSH1 0x2 ADD SLOAD SWAP1 DUP1 PUSH1 0x3 ADD DUP1 SLOAD PUSH2 0xAFA SWAP1 PUSH2 0x274F JUMP JUMPDEST DUP1 PUSH1 0x1F ADD PUSH1 0x20 DUP1 SWAP2 DIV MUL PUSH1 0x20 ADD PUSH1 0x40 MLOAD SWAP1 DUP2 ADD PUSH1 0x40 MSTORE DUP1 SWAP3 SWAP2 SWAP1 DUP2 DUP2 MSTORE PUSH1 0x20 ADD DUP3 DUP1 SLOAD PUSH2 0xB26 SWAP1 PUSH2 0x274F JUMP JUMPDEST DUP1 ISZERO PUSH2 0xB73 JUMPI DUP1 PUSH1 0x1F LT PUSH2 0xB48 JUMPI PUSH2 0x100 DUP1 DUP4 SLOAD DIV MUL DUP4 MSTORE SWAP2 PUSH1 0x20 ADD SWAP2 PUSH2 0xB73 JUMP JUMPDEST DUP3 ADD SWAP2 SWAP1 PUSH1 0x0 MSTORE PUSH1 0x20 PUSH1 0x0 KECCAK256 SWAP1 JUMPDEST DUP2 SLOAD DUP2 MSTORE SWAP1 PUSH1 0x1 ADD SWAP1 PUSH1 0x20 ADD DUP1 DUP4 GT PUSH2 0xB56 JUMPI DUP3 SWAP1 SUB PUSH1 0x1F AND DUP3 ADD SWAP2 JUMPDEST POP POP POP POP POP SWAP1 DUP1 PUSH1 0x4 ADD DUP1 SLOAD PUSH2 0xB88 SWAP1 PUSH2 0x274F JUMP JUMPDEST DUP1 PUSH1 0x1F ADD PUSH1 0x20 DUP1 SWAP2 DIV MUL PUSH1 0x20 ADD PUSH1 0x40 MLOAD SWAP1 DUP2 ADD PUSH1 0x40 MSTORE DUP1 SWAP3 SWAP2 SWAP1 DUP2 DUP2 MSTORE PUSH1 0x20 ADD DUP3 DUP1 SLOAD PUSH2 0xBB4 SWAP1 PUSH2 0x274F JUMP JUMPDEST DUP1 ISZERO PUSH2 0xC01 JUMPI DUP1 PUSH1 0x1F LT PUSH2 0xBD6 JUMPI PUSH2 0x100 DUP1 DUP4 SLOAD DIV MUL DUP4 MSTORE SWAP2 PUSH1 0x20 ADD SWAP2 PUSH2 0xC01 JUMP JUMPDEST DUP3 ADD SWAP2 SWAP1 PUSH1 0x0 MSTORE PUSH1 0x20 PUSH1 0x0 KECCAK256 SWAP1 JUMPDEST DUP2 SLOAD DUP2 MSTORE SWAP1 PUSH1 0x1 ADD SWAP1 PUSH1 0x20 ADD DUP1 DUP4 GT PUSH2 0xBE4 JUMPI DUP3 SWAP1 SUB PUSH1 0x1F AND DUP3 ADD SWAP2 JUMPDEST POP POP POP POP POP SWAP1 DUP1 PUSH1 0x5 ADD SLOAD SWAP1 POP DUP7 JUMP JUMPDEST PUSH2 0xC19 PUSH2 0x1D57 JUMP JUMPDEST DUP2 TIMESTAMP DIFFICULTY PUSH1 0x40 MLOAD PUSH1 0x20 ADD PUSH2 0xC2E SWAP4 SWAP3 SWAP2 SWAP1 PUSH2 0x23E4 JUMP JUMPDEST PUSH1 0x40 MLOAD PUSH1 0x20 DUP2 DUP4 SUB SUB DUP2 MSTORE SWAP1 PUSH1 0x40 MSTORE DUP1 MLOAD SWAP1 PUSH1 0x20 ADD KECCAK256 PUSH1 0x0 SHR DUP2 PUSH1 0x0 ADD DUP2 DUP2 MSTORE POP POP PUSH1 0x40 MLOAD DUP1 PUSH1 0x40 ADD PUSH1 0x40 MSTORE DUP1 PUSH1 0x2 DUP2 MSTORE PUSH1 0x20 ADD PUSH32 0x4449000000000000000000000000000000000000000000000000000000000000 DUP2 MSTORE POP DUP2 PUSH1 0x20 ADD DUP2 SWAP1 MSTORE POP DUP2 DUP2 PUSH1 0x40 ADD DUP2 SWAP1 MSTORE POP PUSH1 0x0 PUSH8 0xFFFFFFFFFFFFFFFF DUP2 GT ISZERO PUSH2 0xCB2 JUMPI PUSH2 0xCB1 PUSH2 0x2859 JUMP JUMPDEST JUMPDEST PUSH1 0x40 MLOAD SWAP1 DUP1 DUP3 MSTORE DUP1 PUSH1 0x20 MUL PUSH1 0x20 ADD DUP3 ADD PUSH1 0x40 MSTORE DUP1 ISZERO PUSH2 0xCE0 JUMPI DUP2 PUSH1 0x20 ADD PUSH1 0x20 DUP3 MUL DUP1 CALLDATASIZE DUP4 CALLDATACOPY DUP1 DUP3 ADD SWAP2 POP POP SWAP1 POP JUMPDEST POP DUP2 PUSH1 0x60 ADD DUP2 SWAP1 MSTORE POP DUP1 PUSH1 0x5 PUSH1 0x0 DUP4 PUSH1 0x0 ADD MLOAD DUP2 MSTORE PUSH1 0x20 ADD SWAP1 DUP2 MSTORE PUSH1 0x20 ADD PUSH1 0x0 KECCAK256 PUSH1 0x0 DUP3 ADD MLOAD DUP2 PUSH1 0x0 ADD SSTORE PUSH1 0x20 DUP3 ADD MLOAD DUP2 PUSH1 0x1 ADD SWAP1 DUP1 MLOAD SWAP1 PUSH1 0x20 ADD SWAP1 PUSH2 0xD27 SWAP3 SWAP2 SWAP1 PUSH2 0x1C84 JUMP JUMPDEST POP PUSH1 0x40 DUP3 ADD MLOAD DUP2 PUSH1 0x2 ADD SWAP1 DUP1 MLOAD SWAP1 PUSH1 0x20 ADD SWAP1 PUSH2 0xD44 SWAP3 SWAP2 SWAP1 PUSH2 0x1C84 JUMP JUMPDEST POP PUSH1 0x60 DUP3 ADD MLOAD DUP2 PUSH1 0x3 ADD SWAP1 DUP1 MLOAD SWAP1 PUSH1 0x20 ADD SWAP1 PUSH2 0xD61 SWAP3 SWAP2 SWAP1 PUSH2 0x1D0A JUMP JUMPDEST POP SWAP1 POP POP PUSH32 0x4FBE23D5058E501D2AC74E9B5146F125D6C6AE6C3475D9431498262E998EE8E0 DUP2 PUSH1 0x40 MLOAD PUSH2 0xD94 SWAP2 SWAP1 PUSH2 0x2482 JUMP JUMPDEST PUSH1 0x40 MLOAD DUP1 SWAP2 SUB SWAP1 LOG1 POP POP JUMP JUMPDEST PUSH1 0x6 PUSH1 0x20 MSTORE DUP1 PUSH1 0x0 MSTORE PUSH1 0x40 PUSH1 0x0 KECCAK256 PUSH1 0x0 SWAP2 POP SWAP1 POP DUP1 PUSH1 0x0 ADD SLOAD SWAP1 DUP1 PUSH1 0x1 ADD DUP1 SLOAD PUSH2 0xDC9 SWAP1 PUSH2 0x274F JUMP JUMPDEST DUP1 PUSH1 0x1F ADD PUSH1 0x20 DUP1 SWAP2 DIV MUL PUSH1 0x20 ADD PUSH1 0x40 MLOAD SWAP1 DUP2 ADD PUSH1 0x40 MSTORE DUP1 SWAP3 SWAP2 SWAP1 DUP2 DUP2 MSTORE PUSH1 0x20 ADD DUP3 DUP1 SLOAD PUSH2 0xDF5 SWAP1 PUSH2 0x274F JUMP JUMPDEST DUP1 ISZERO PUSH2 0xE42 JUMPI DUP1 PUSH1 0x1F LT PUSH2 0xE17 JUMPI PUSH2 0x100 DUP1 DUP4 SLOAD DIV MUL DUP4 MSTORE SWAP2 PUSH1 0x20 ADD SWAP2 PUSH2 0xE42 JUMP JUMPDEST DUP3 ADD SWAP2 SWAP1 PUSH1 0x0 MSTORE PUSH1 0x20 PUSH1 0x0 KECCAK256 SWAP1 JUMPDEST DUP2 SLOAD DUP2 MSTORE SWAP1 PUSH1 0x1 ADD SWAP1 PUSH1 0x20 ADD DUP1 DUP4 GT PUSH2 0xE25 JUMPI DUP3 SWAP1 SUB PUSH1 0x1F AND DUP3 ADD SWAP2 JUMPDEST POP POP POP POP POP SWAP1 POP DUP3 JUMP JUMPDEST PUSH2 0xE54 PUSH2 0x1D7F JUMP JUMPDEST DUP4 TIMESTAMP DIFFICULTY PUSH1 0x40 MLOAD PUSH1 0x20 ADD PUSH2 0xE69 SWAP4 SWAP3 SWAP2 SWAP1 PUSH2 0x23E4 JUMP JUMPDEST PUSH1 0x40 MLOAD PUSH1 0x20 DUP2 DUP4 SUB SUB DUP2 MSTORE SWAP1 PUSH1 0x40 MSTORE DUP1 MLOAD SWAP1 PUSH1 0x20 ADD KECCAK256 PUSH1 0x0 SHR DUP2 PUSH1 0x0 ADD DUP2 DUP2 MSTORE POP POP DUP4 DUP2 PUSH1 0x20 ADD DUP2 SWAP1 MSTORE POP DUP3 DUP2 PUSH1 0x40 ADD DUP2 DUP2 MSTORE POP POP DUP2 DUP2 PUSH1 0x60 ADD DUP2 SWAP1 MSTORE POP PUSH1 0x40 MLOAD DUP1 PUSH1 0x20 ADD PUSH1 0x40 MSTORE DUP1 PUSH1 0x0 DUP2 MSTORE POP DUP2 PUSH1 0x80 ADD DUP2 SWAP1 MSTORE POP PUSH1 0x0 DUP2 PUSH1 0xA0 ADD DUP2 DUP2 MSTORE POP POP DUP1 PUSH1 0x1 PUSH1 0x0 DUP4 PUSH1 0x0 ADD MLOAD DUP2 MSTORE PUSH1 0x20 ADD SWAP1 DUP2 MSTORE PUSH1 0x20 ADD PUSH1 0x0 KECCAK256 PUSH1 0x0 DUP3 ADD MLOAD DUP2 PUSH1 0x0 ADD SSTORE PUSH1 0x20 DUP3 ADD MLOAD DUP2 PUSH1 0x1 ADD SWAP1 DUP1 MLOAD SWAP1 PUSH1 0x20 ADD SWAP1 PUSH2 0xF08 SWAP3 SWAP2 SWAP1 PUSH2 0x1C84 JUMP JUMPDEST POP PUSH1 0x40 DUP3 ADD MLOAD DUP2 PUSH1 0x2 ADD SSTORE PUSH1 0x60 DUP3 ADD MLOAD DUP2 PUSH1 0x3 ADD SWAP1 DUP1 MLOAD SWAP1 PUSH1 0x20 ADD SWAP1 PUSH2 0xF2F SWAP3 SWAP2 SWAP1 PUSH2 0x1C84 JUMP JUMPDEST POP PUSH1 0x80 DUP3 ADD MLOAD DUP2 PUSH1 0x4 ADD SWAP1 DUP1 MLOAD SWAP1 PUSH1 0x20 ADD SWAP1 PUSH2 0xF4C SWAP3 SWAP2 SWAP1 PUSH2 0x1C84 JUMP JUMPDEST POP PUSH1 0xA0 DUP3 ADD MLOAD DUP2 PUSH1 0x5 ADD SSTORE SWAP1 POP POP PUSH1 0x2 PUSH1 0x0 DUP2 SLOAD DUP1 SWAP3 SWAP2 SWAP1 PUSH2 0xF6D SWAP1 PUSH2 0x27B2 JUMP JUMPDEST SWAP2 SWAP1 POP SSTORE POP PUSH32 0xB9650A646EAF16194343A0E5CF05C4A99CFBFFBF2A7630C4EAF6F3263A931D8 DUP2 PUSH1 0x2 SLOAD PUSH1 0x40 MLOAD PUSH2 0xFA5 SWAP3 SWAP2 SWAP1 PUSH2 0x24E8 JUMP JUMPDEST PUSH1 0x40 MLOAD DUP1 SWAP2 SUB SWAP1 LOG1 POP POP POP POP JUMP JUMPDEST PUSH2 0xFBB PUSH2 0x1DB5 JUMP JUMPDEST DUP2 TIMESTAMP DIFFICULTY PUSH1 0x40 MLOAD PUSH1 0x20 ADD PUSH2 0xFD0 SWAP4 SWAP3 SWAP2 SWAP1 PUSH2 0x23E4 JUMP JUMPDEST PUSH1 0x40 MLOAD PUSH1 0x20 DUP2 DUP4 SUB SUB DUP2 MSTORE SWAP1 PUSH1 0x40 MSTORE DUP1 MLOAD SWAP1 PUSH1 0x20 ADD KECCAK256 PUSH1 0x0 SHR DUP2 PUSH1 0x0 ADD DUP2 DUP2 MSTORE POP POP PUSH1 0x40 MLOAD DUP1 PUSH1 0x40 ADD PUSH1 0x40 MSTORE DUP1 PUSH1 0x2 DUP2 MSTORE PUSH1 0x20 ADD PUSH32 0x4D41000000000000000000000000000000000000000000000000000000000000 DUP2 MSTORE POP DUP2 PUSH1 0x20 ADD DUP2 SWAP1 MSTORE POP DUP2 DUP2 PUSH1 0x40 ADD DUP2 SWAP1 MSTORE POP PUSH1 0x0 PUSH8 0xFFFFFFFFFFFFFFFF DUP2 GT ISZERO PUSH2 0x1054 JUMPI PUSH2 0x1053 PUSH2 0x2859 JUMP JUMPDEST JUMPDEST PUSH1 0x40 MLOAD SWAP1 DUP1 DUP3 MSTORE DUP1 PUSH1 0x20 MUL PUSH1 0x20 ADD DUP3 ADD PUSH1 0x40 MSTORE DUP1 ISZERO PUSH2 0x1082 JUMPI DUP2 PUSH1 0x20 ADD PUSH1 0x20 DUP3 MUL DUP1 CALLDATASIZE DUP4 CALLDATACOPY DUP1 DUP3 ADD SWAP2 POP POP SWAP1 POP JUMPDEST POP DUP2 PUSH1 0x60 ADD DUP2 SWAP1 MSTORE POP DUP1 PUSH1 0x4 PUSH1 0x0 DUP4 PUSH1 0x0 ADD MLOAD DUP2 MSTORE PUSH1 0x20 ADD SWAP1 DUP2 MSTORE PUSH1 0x20 ADD PUSH1 0x0 KECCAK256 PUSH1 0x0 DUP3 ADD MLOAD DUP2 PUSH1 0x0 ADD SSTORE PUSH1 0x20 DUP3 ADD MLOAD DUP2 PUSH1 0x1 ADD SWAP1 DUP1 MLOAD SWAP1 PUSH1 0x20 ADD SWAP1 PUSH2 0x10C9 SWAP3 SWAP2 SWAP1 PUSH2 0x1C84 JUMP JUMPDEST POP PUSH1 0x40 DUP3 ADD MLOAD DUP2 PUSH1 0x2 ADD SWAP1 DUP1 MLOAD SWAP1 PUSH1 0x20 ADD SWAP1 PUSH2 0x10E6 SWAP3 SWAP2 SWAP1 PUSH2 0x1C84 JUMP JUMPDEST POP PUSH1 0x60 DUP3 ADD MLOAD DUP2 PUSH1 0x3 ADD SWAP1 DUP1 MLOAD SWAP1 PUSH1 0x20 ADD SWAP1 PUSH2 0x1103 SWAP3 SWAP2 SWAP1 PUSH2 0x1D0A JUMP JUMPDEST POP SWAP1 POP POP PUSH32 0xC127163E194EDD469D13210787466A0ADB629F336E45D1FC7BC4E2797805615E DUP2 PUSH1 0x40 MLOAD PUSH2 0x1136 SWAP2 SWAP1 PUSH2 0x24A4 JUMP JUMPDEST PUSH1 0x40 MLOAD DUP1 SWAP2 SUB SWAP1 LOG1 POP POP JUMP JUMPDEST PUSH1 0x4 PUSH1 0x20 MSTORE DUP1 PUSH1 0x0 MSTORE PUSH1 0x40 PUSH1 0x0 KECCAK256 PUSH1 0x0 SWAP2 POP SWAP1 POP DUP1 PUSH1 0x0 ADD SLOAD SWAP1 DUP1 PUSH1 0x1 ADD DUP1 SLOAD PUSH2 0x116B SWAP1 PUSH2 0x274F JUMP JUMPDEST DUP1 PUSH1 0x1F ADD PUSH1 0x20 DUP1 SWAP2 DIV MUL PUSH1 0x20 ADD PUSH1 0x40 MLOAD SWAP1 DUP2 ADD PUSH1 0x40 MSTORE DUP1 SWAP3 SWAP2 SWAP1 DUP2 DUP2 MSTORE PUSH1 0x20 ADD DUP3 DUP1 SLOAD PUSH2 0x1197 SWAP1 PUSH2 0x274F JUMP JUMPDEST DUP1 ISZERO PUSH2 0x11E4 JUMPI DUP1 PUSH1 0x1F LT PUSH2 0x11B9 JUMPI PUSH2 0x100 DUP1 DUP4 SLOAD DIV MUL DUP4 MSTORE SWAP2 PUSH1 0x20 ADD SWAP2 PUSH2 0x11E4 JUMP JUMPDEST DUP3 ADD SWAP2 SWAP1 PUSH1 0x0 MSTORE PUSH1 0x20 PUSH1 0x0 KECCAK256 SWAP1 JUMPDEST DUP2 SLOAD DUP2 MSTORE SWAP1 PUSH1 0x1 ADD SWAP1 PUSH1 0x20 ADD DUP1 DUP4 GT PUSH2 0x11C7 JUMPI DUP3 SWAP1 SUB PUSH1 0x1F AND DUP3 ADD SWAP2 JUMPDEST POP POP POP POP POP SWAP1 DUP1 PUSH1 0x2 ADD DUP1 SLOAD PUSH2 0x11F9 SWAP1 PUSH2 0x274F JUMP JUMPDEST DUP1 PUSH1 0x1F ADD PUSH1 0x20 DUP1 SWAP2 DIV MUL PUSH1 0x20 ADD PUSH1 0x40 MLOAD SWAP1 DUP2 ADD PUSH1 0x40 MSTORE DUP1 SWAP3 SWAP2 SWAP1 DUP2 DUP2 MSTORE PUSH1 0x20 ADD DUP3 DUP1 SLOAD PUSH2 0x1225 SWAP1 PUSH2 0x274F JUMP JUMPDEST DUP1 ISZERO PUSH2 0x1272 JUMPI DUP1 PUSH1 0x1F LT PUSH2 0x1247 JUMPI PUSH2 0x100 DUP1 DUP4 SLOAD DIV MUL DUP4 MSTORE SWAP2 PUSH1 0x20 ADD SWAP2 PUSH2 0x1272 JUMP JUMPDEST DUP3 ADD SWAP2 SWAP1 PUSH1 0x0 MSTORE PUSH1 0x20 PUSH1 0x0 KECCAK256 SWAP1 JUMPDEST DUP2 SLOAD DUP2 MSTORE SWAP1 PUSH1 0x1 ADD SWAP1 PUSH1 0x20 ADD DUP1 DUP4 GT PUSH2 0x1255 JUMPI DUP3 SWAP1 SUB PUSH1 0x1F AND DUP3 ADD SWAP2 JUMPDEST POP POP POP POP POP SWAP1 POP DUP4 JUMP JUMPDEST PUSH2 0x1284 PUSH2 0x1DDD JUMP JUMPDEST DUP2 TIMESTAMP DIFFICULTY PUSH1 0x40 MLOAD PUSH1 0x20 ADD PUSH2 0x1299 SWAP4 SWAP3 SWAP2 SWAP1 PUSH2 0x23E4 JUMP JUMPDEST PUSH1 0x40 MLOAD PUSH1 0x20 DUP2 DUP4 SUB SUB DUP2 MSTORE SWAP1 PUSH1 0x40 MSTORE DUP1 MLOAD SWAP1 PUSH1 0x20 ADD KECCAK256 PUSH1 0x0 SHR DUP2 PUSH1 0x0 ADD DUP2 DUP2 MSTORE POP POP DUP2 DUP2 PUSH1 0x20 ADD DUP2 SWAP1 MSTORE POP PUSH1 0x0 PUSH8 0xFFFFFFFFFFFFFFFF DUP2 GT ISZERO PUSH2 0x12DF JUMPI PUSH2 0x12DE PUSH2 0x2859 JUMP JUMPDEST JUMPDEST PUSH1 0x40 MLOAD SWAP1 DUP1 DUP3 MSTORE DUP1 PUSH1 0x20 MUL PUSH1 0x20 ADD DUP3 ADD PUSH1 0x40 MSTORE DUP1 ISZERO PUSH2 0x130D JUMPI DUP2 PUSH1 0x20 ADD PUSH1 0x20 DUP3 MUL DUP1 CALLDATASIZE DUP4 CALLDATACOPY DUP1 DUP3 ADD SWAP2 POP POP SWAP1 POP JUMPDEST POP DUP2 PUSH1 0x40 ADD DUP2 SWAP1 MSTORE POP DUP1 PUSH1 0x6 PUSH1 0x0 DUP4 PUSH1 0x0 ADD MLOAD DUP2 MSTORE PUSH1 0x20 ADD SWAP1 DUP2 MSTORE PUSH1 0x20 ADD PUSH1 0x0 KECCAK256 PUSH1 0x0 DUP3 ADD MLOAD DUP2 PUSH1 0x0 ADD SSTORE PUSH1 0x20 DUP3 ADD MLOAD DUP2 PUSH1 0x1 ADD SWAP1 DUP1 MLOAD SWAP1 PUSH1 0x20 ADD SWAP1 PUSH2 0x1354 SWAP3 SWAP2 SWAP1 PUSH2 0x1C84 JUMP JUMPDEST POP PUSH1 0x40 DUP3 ADD MLOAD DUP2 PUSH1 0x2 ADD SWAP1 DUP1 MLOAD SWAP1 PUSH1 0x20 ADD SWAP1 PUSH2 0x1371 SWAP3 SWAP2 SWAP1 PUSH2 0x1D0A JUMP JUMPDEST POP SWAP1 POP POP PUSH32 0x3F3D80DC5C883417F8997FEF692BA50E4F4F4762E620926E80D9AED3B08B89D0 DUP2 PUSH1 0x40 MLOAD PUSH2 0x13A4 SWAP2 SWAP1 PUSH2 0x2518 JUMP JUMPDEST PUSH1 0x40 MLOAD DUP1 SWAP2 SUB SWAP1 LOG1 POP POP JUMP JUMPDEST PUSH1 0x0 PUSH2 0x13BB DUP5 PUSH2 0x1522 JUMP JUMPDEST SWAP1 POP DUP3 DUP2 PUSH1 0xA0 ADD MLOAD EQ PUSH2 0x1403 JUMPI PUSH1 0x40 MLOAD PUSH32 0x8C379A000000000000000000000000000000000000000000000000000000000 DUP2 MSTORE PUSH1 0x4 ADD PUSH2 0x13FA SWAP1 PUSH2 0x2422 JUMP JUMPDEST PUSH1 0x40 MLOAD DUP1 SWAP2 SUB SWAP1 REVERT JUMPDEST PUSH1 0x0 PUSH2 0x140E DUP4 PUSH2 0x59D JUMP JUMPDEST SWAP1 POP DUP1 PUSH1 0x40 ADD MLOAD DUP3 PUSH1 0x80 ADD DUP2 SWAP1 MSTORE POP DUP1 PUSH1 0x0 ADD MLOAD DUP3 PUSH1 0xA0 ADD DUP2 DUP2 MSTORE POP POP PUSH32 0x59BE542CA2DB8C0EAEB99F755E7EAB871D9CEFC9B5E52B1F107B679C7295FAE1 DUP3 PUSH1 0x40 MLOAD PUSH2 0x145A SWAP2 SWAP1 PUSH2 0x24C6 JUMP JUMPDEST PUSH1 0x40 MLOAD DUP1 SWAP2 SUB SWAP1 LOG1 POP POP POP POP POP JUMP JUMPDEST PUSH1 0x0 PUSH2 0x1474 DUP5 PUSH2 0x1522 JUMP JUMPDEST SWAP1 POP DUP3 DUP2 PUSH1 0xA0 ADD MLOAD EQ PUSH2 0x14BC JUMPI PUSH1 0x40 MLOAD PUSH32 0x8C379A000000000000000000000000000000000000000000000000000000000 DUP2 MSTORE PUSH1 0x4 ADD PUSH2 0x14B3 SWAP1 PUSH2 0x2442 JUMP JUMPDEST PUSH1 0x40 MLOAD DUP1 SWAP2 SUB SWAP1 REVERT JUMPDEST PUSH1 0x0 PUSH2 0x14C7 DUP4 PUSH2 0x198F JUMP JUMPDEST SWAP1 POP DUP1 PUSH1 0x20 ADD MLOAD DUP3 PUSH1 0x80 ADD DUP2 SWAP1 MSTORE POP DUP1 PUSH1 0x0 ADD MLOAD DUP3 PUSH1 0xA0 ADD DUP2 DUP2 MSTORE POP POP PUSH32 0x59BE542CA2DB8C0EAEB99F755E7EAB871D9CEFC9B5E52B1F107B679C7295FAE1 DUP3 PUSH1 0x40 MLOAD PUSH2 0x1513 SWAP2 SWAP1 PUSH2 0x24C6 JUMP JUMPDEST PUSH1 0x40 MLOAD DUP1 SWAP2 SUB SWAP1 LOG1 POP POP POP POP POP JUMP JUMPDEST PUSH2 0x152A PUSH2 0x1D7F JUMP JUMPDEST PUSH1 0x1 PUSH1 0x0 DUP4 DUP2 MSTORE PUSH1 0x20 ADD SWAP1 DUP2 MSTORE PUSH1 0x20 ADD PUSH1 0x0 KECCAK256 PUSH1 0x40 MLOAD DUP1 PUSH1 0xC0 ADD PUSH1 0x40 MSTORE SWAP1 DUP2 PUSH1 0x0 DUP3 ADD SLOAD DUP2 MSTORE PUSH1 0x20 ADD PUSH1 0x1 DUP3 ADD DUP1 SLOAD PUSH2 0x1562 SWAP1 PUSH2 0x274F JUMP JUMPDEST DUP1 PUSH1 0x1F ADD PUSH1 0x20 DUP1 SWAP2 DIV MUL PUSH1 0x20 ADD PUSH1 0x40 MLOAD SWAP1 DUP2 ADD PUSH1 0x40 MSTORE DUP1 SWAP3 SWAP2 SWAP1 DUP2 DUP2 MSTORE PUSH1 0x20 ADD DUP3 DUP1 SLOAD PUSH2 0x158E SWAP1 PUSH2 0x274F JUMP JUMPDEST DUP1 ISZERO PUSH2 0x15DB JUMPI DUP1 PUSH1 0x1F LT PUSH2 0x15B0 JUMPI PUSH2 0x100 DUP1 DUP4 SLOAD DIV MUL DUP4 MSTORE SWAP2 PUSH1 0x20 ADD SWAP2 PUSH2 0x15DB JUMP JUMPDEST DUP3 ADD SWAP2 SWAP1 PUSH1 0x0 MSTORE PUSH1 0x20 PUSH1 0x0 KECCAK256 SWAP1 JUMPDEST DUP2 SLOAD DUP2 MSTORE SWAP1 PUSH1 0x1 ADD SWAP1 PUSH1 0x20 ADD DUP1 DUP4 GT PUSH2 0x15BE JUMPI DUP3 SWAP1 SUB PUSH1 0x1F AND DUP3 ADD SWAP2 JUMPDEST POP POP POP POP POP DUP2 MSTORE PUSH1 0x20 ADD PUSH1 0x2 DUP3 ADD SLOAD DUP2 MSTORE PUSH1 0x20 ADD PUSH1 0x3 DUP3 ADD DUP1 SLOAD PUSH2 0x15FE SWAP1 PUSH2 0x274F JUMP JUMPDEST DUP1 PUSH1 0x1F ADD PUSH1 0x20 DUP1 SWAP2 DIV MUL PUSH1 0x20 ADD PUSH1 0x40 MLOAD SWAP1 DUP2 ADD PUSH1 0x40 MSTORE DUP1 SWAP3 SWAP2 SWAP1 DUP2 DUP2 MSTORE PUSH1 0x20 ADD DUP3 DUP1 SLOAD PUSH2 0x162A SWAP1 PUSH2 0x274F JUMP JUMPDEST DUP1 ISZERO PUSH2 0x1677 JUMPI DUP1 PUSH1 0x1F LT PUSH2 0x164C JUMPI PUSH2 0x100 DUP1 DUP4 SLOAD DIV MUL DUP4 MSTORE SWAP2 PUSH1 0x20 ADD SWAP2 PUSH2 0x1677 JUMP JUMPDEST DUP3 ADD SWAP2 SWAP1 PUSH1 0x0 MSTORE PUSH1 0x20 PUSH1 0x0 KECCAK256 SWAP1 JUMPDEST DUP2 SLOAD DUP2 MSTORE SWAP1 PUSH1 0x1 ADD SWAP1 PUSH1 0x20 ADD DUP1 DUP4 GT PUSH2 0x165A JUMPI DUP3 SWAP1 SUB PUSH1 0x1F AND DUP3 ADD SWAP2 JUMPDEST POP POP POP POP POP DUP2 MSTORE PUSH1 0x20 ADD PUSH1 0x4 DUP3 ADD DUP1 SLOAD PUSH2 0x1690 SWAP1 PUSH2 0x274F JUMP JUMPDEST DUP1 PUSH1 0x1F ADD PUSH1 0x20 DUP1 SWAP2 DIV MUL PUSH1 0x20 ADD PUSH1 0x40 MLOAD SWAP1 DUP2 ADD PUSH1 0x40 MSTORE DUP1 SWAP3 SWAP2 SWAP1 DUP2 DUP2 MSTORE PUSH1 0x20 ADD DUP3 DUP1 SLOAD PUSH2 0x16BC SWAP1 PUSH2 0x274F JUMP JUMPDEST DUP1 ISZERO PUSH2 0x1709 JUMPI DUP1 PUSH1 0x1F LT PUSH2 0x16DE JUMPI PUSH2 0x100 DUP1 DUP4 SLOAD DIV MUL DUP4 MSTORE SWAP2 PUSH1 0x20 ADD SWAP2 PUSH2 0x1709 JUMP JUMPDEST DUP3 ADD SWAP2 SWAP1 PUSH1 0x0 MSTORE PUSH1 0x20 PUSH1 0x0 KECCAK256 SWAP1 JUMPDEST DUP2 SLOAD DUP2 MSTORE SWAP1 PUSH1 0x1 ADD SWAP1 PUSH1 0x20 ADD DUP1 DUP4 GT PUSH2 0x16EC JUMPI DUP3 SWAP1 SUB PUSH1 0x1F AND DUP3 ADD SWAP2 JUMPDEST POP POP POP POP POP DUP2 MSTORE PUSH1 0x20 ADD PUSH1 0x5 DUP3 ADD SLOAD DUP2 MSTORE POP POP SWAP1 POP SWAP2 SWAP1 POP JUMP JUMPDEST PUSH1 0x0 PUSH2 0x172E DUP5 PUSH2 0x1522 JUMP JUMPDEST SWAP1 POP DUP3 DUP2 PUSH1 0xA0 ADD MLOAD EQ PUSH2 0x1776 JUMPI PUSH1 0x40 MLOAD PUSH32 0x8C379A000000000000000000000000000000000000000000000000000000000 DUP2 MSTORE PUSH1 0x4 ADD PUSH2 0x176D SWAP1 PUSH2 0x2462 JUMP JUMPDEST PUSH1 0x40 MLOAD DUP1 SWAP2 SUB SWAP1 REVERT JUMPDEST PUSH1 0x0 PUSH2 0x1781 DUP4 PUSH2 0x17DC JUMP JUMPDEST SWAP1 POP DUP1 PUSH1 0x40 ADD MLOAD DUP3 PUSH1 0x80 ADD DUP2 SWAP1 MSTORE POP DUP1 PUSH1 0x0 ADD MLOAD DUP3 PUSH1 0xA0 ADD DUP2 DUP2 MSTORE POP POP PUSH32 0x59BE542CA2DB8C0EAEB99F755E7EAB871D9CEFC9B5E52B1F107B679C7295FAE1 DUP3 PUSH1 0x40 MLOAD PUSH2 0x17CD SWAP2 SWAP1 PUSH2 0x24C6 JUMP JUMPDEST PUSH1 0x40 MLOAD DUP1 SWAP2 SUB SWAP1 LOG1 POP POP POP POP POP JUMP JUMPDEST PUSH2 0x17E4 PUSH2 0x1DB5 JUMP JUMPDEST PUSH1 0x4 PUSH1 0x0 DUP4 DUP2 MSTORE PUSH1 0x20 ADD SWAP1 DUP2 MSTORE PUSH1 0x20 ADD PUSH1 0x0 KECCAK256 PUSH1 0x40 MLOAD DUP1 PUSH1 0x80 ADD PUSH1 0x40 MSTORE SWAP1 DUP2 PUSH1 0x0 DUP3 ADD SLOAD DUP2 MSTORE PUSH1 0x20 ADD PUSH1 0x1 DUP3 ADD DUP1 SLOAD PUSH2 0x181C SWAP1 PUSH2 0x274F JUMP JUMPDEST DUP1 PUSH1 0x1F ADD PUSH1 0x20 DUP1 SWAP2 DIV MUL PUSH1 0x20 ADD PUSH1 0x40 MLOAD SWAP1 DUP2 ADD PUSH1 0x40 MSTORE DUP1 SWAP3 SWAP2 SWAP1 DUP2 DUP2 MSTORE PUSH1 0x20 ADD DUP3 DUP1 SLOAD PUSH2 0x1848 SWAP1 PUSH2 0x274F JUMP JUMPDEST DUP1 ISZERO PUSH2 0x1895 JUMPI DUP1 PUSH1 0x1F LT PUSH2 0x186A JUMPI PUSH2 0x100 DUP1 DUP4 SLOAD DIV MUL DUP4 MSTORE SWAP2 PUSH1 0x20 ADD SWAP2 PUSH2 0x1895 JUMP JUMPDEST DUP3 ADD SWAP2 SWAP1 PUSH1 0x0 MSTORE PUSH1 0x20 PUSH1 0x0 KECCAK256 SWAP1 JUMPDEST DUP2 SLOAD DUP2 MSTORE SWAP1 PUSH1 0x1 ADD SWAP1 PUSH1 0x20 ADD DUP1 DUP4 GT PUSH2 0x1878 JUMPI DUP3 SWAP1 SUB PUSH1 0x1F AND DUP3 ADD SWAP2 JUMPDEST POP POP POP POP POP DUP2 MSTORE PUSH1 0x20 ADD PUSH1 0x2 DUP3 ADD DUP1 SLOAD PUSH2 0x18AE SWAP1 PUSH2 0x274F JUMP JUMPDEST DUP1 PUSH1 0x1F ADD PUSH1 0x20 DUP1 SWAP2 DIV MUL PUSH1 0x20 ADD PUSH1 0x40 MLOAD SWAP1 DUP2 ADD PUSH1 0x40 MSTORE DUP1 SWAP3 SWAP2 SWAP1 DUP2 DUP2 MSTORE PUSH1 0x20 ADD DUP3 DUP1 SLOAD PUSH2 0x18DA SWAP1 PUSH2 0x274F JUMP JUMPDEST DUP1 ISZERO PUSH2 0x1927 JUMPI DUP1 PUSH1 0x1F LT PUSH2 0x18FC JUMPI PUSH2 0x100 DUP1 DUP4 SLOAD DIV MUL DUP4 MSTORE SWAP2 PUSH1 0x20 ADD SWAP2 PUSH2 0x1927 JUMP JUMPDEST DUP3 ADD SWAP2 SWAP1 PUSH1 0x0 MSTORE PUSH1 0x20 PUSH1 0x0 KECCAK256 SWAP1 JUMPDEST DUP2 SLOAD DUP2 MSTORE SWAP1 PUSH1 0x1 ADD SWAP1 PUSH1 0x20 ADD DUP1 DUP4 GT PUSH2 0x190A JUMPI DUP3 SWAP1 SUB PUSH1 0x1F AND DUP3 ADD SWAP2 JUMPDEST POP POP POP POP POP DUP2 MSTORE PUSH1 0x20 ADD PUSH1 0x3 DUP3 ADD DUP1 SLOAD DUP1 PUSH1 0x20 MUL PUSH1 0x20 ADD PUSH1 0x40 MLOAD SWAP1 DUP2 ADD PUSH1 0x40 MSTORE DUP1 SWAP3 SWAP2 SWAP1 DUP2 DUP2 MSTORE PUSH1 0x20 ADD DUP3 DUP1 SLOAD DUP1 ISZERO PUSH2 0x197F JUMPI PUSH1 0x20 MUL DUP3 ADD SWAP2 SWAP1 PUSH1 0x0 MSTORE PUSH1 0x20 PUSH1 0x0 KECCAK256 SWAP1 JUMPDEST DUP2 SLOAD DUP2 MSTORE PUSH1 0x20 ADD SWAP1 PUSH1 0x1 ADD SWAP1 DUP1 DUP4 GT PUSH2 0x196B JUMPI JUMPDEST POP POP POP POP POP DUP2 MSTORE POP POP SWAP1 POP SWAP2 SWAP1 POP JUMP JUMPDEST PUSH2 0x1997 PUSH2 0x1DDD JUMP JUMPDEST PUSH1 0x6 PUSH1 0x0 DUP4 DUP2 MSTORE PUSH1 0x20 ADD SWAP1 DUP2 MSTORE PUSH1 0x20 ADD PUSH1 0x0 KECCAK256 PUSH1 0x40 MLOAD DUP1 PUSH1 0x60 ADD PUSH1 0x40 MSTORE SWAP1 DUP2 PUSH1 0x0 DUP3 ADD SLOAD DUP2 MSTORE PUSH1 0x20 ADD PUSH1 0x1 DUP3 ADD DUP1 SLOAD PUSH2 0x19CF SWAP1 PUSH2 0x274F JUMP JUMPDEST DUP1 PUSH1 0x1F ADD PUSH1 0x20 DUP1 SWAP2 DIV MUL PUSH1 0x20 ADD PUSH1 0x40 MLOAD SWAP1 DUP2 ADD PUSH1 0x40 MSTORE DUP1 SWAP3 SWAP2 SWAP1 DUP2 DUP2 MSTORE PUSH1 0x20 ADD DUP3 DUP1 SLOAD PUSH2 0x19FB SWAP1 PUSH2 0x274F JUMP JUMPDEST DUP1 ISZERO PUSH2 0x1A48 JUMPI DUP1 PUSH1 0x1F LT PUSH2 0x1A1D JUMPI PUSH2 0x100 DUP1 DUP4 SLOAD DIV MUL DUP4 MSTORE SWAP2 PUSH1 0x20 ADD SWAP2 PUSH2 0x1A48 JUMP JUMPDEST DUP3 ADD SWAP2 SWAP1 PUSH1 0x0 MSTORE PUSH1 0x20 PUSH1 0x0 KECCAK256 SWAP1 JUMPDEST DUP2 SLOAD DUP2 MSTORE SWAP1 PUSH1 0x1 ADD SWAP1 PUSH1 0x20 ADD DUP1 DUP4 GT PUSH2 0x1A2B JUMPI DUP3 SWAP1 SUB PUSH1 0x1F AND DUP3 ADD SWAP2 JUMPDEST POP POP POP POP POP DUP2 MSTORE PUSH1 0x20 ADD PUSH1 0x2 DUP3 ADD DUP1 SLOAD DUP1 PUSH1 0x20 MUL PUSH1 0x20 ADD PUSH1 0x40 MLOAD SWAP1 DUP2 ADD PUSH1 0x40 MSTORE DUP1 SWAP3 SWAP2 SWAP1 DUP2 DUP2 MSTORE PUSH1 0x20 ADD DUP3 DUP1 SLOAD DUP1 ISZERO PUSH2 0x1AA0 JUMPI PUSH1 0x20 MUL DUP3 ADD SWAP2 SWAP1 PUSH1 0x0 MSTORE PUSH1 0x20 PUSH1 0x0 KECCAK256 SWAP1 JUMPDEST DUP2 SLOAD DUP2 MSTORE PUSH1 0x20 ADD SWAP1 PUSH1 0x1 ADD SWAP1 DUP1 DUP4 GT PUSH2 0x1A8C JUMPI JUMPDEST POP POP POP POP POP DUP2 MSTORE POP POP SWAP1 POP SWAP2 SWAP1 POP JUMP JUMPDEST PUSH1 0x3 PUSH1 0x20 MSTORE DUP1 PUSH1 0x0 MSTORE PUSH1 0x40 PUSH1 0x0 KECCAK256 PUSH1 0x0 SWAP2 POP SWAP1 POP DUP1 PUSH1 0x0 ADD SLOAD SWAP1 DUP1 PUSH1 0x1 ADD DUP1 SLOAD PUSH2 0x1AD9 SWAP1 PUSH2 0x274F JUMP JUMPDEST DUP1 PUSH1 0x1F ADD PUSH1 0x20 DUP1 SWAP2 DIV MUL PUSH1 0x20 ADD PUSH1 0x40 MLOAD SWAP1 DUP2 ADD PUSH1 0x40 MSTORE DUP1 SWAP3 SWAP2 SWAP1 DUP2 DUP2 MSTORE PUSH1 0x20 ADD DUP3 DUP1 SLOAD PUSH2 0x1B05 SWAP1 PUSH2 0x274F JUMP JUMPDEST DUP1 ISZERO PUSH2 0x1B52 JUMPI DUP1 PUSH1 0x1F LT PUSH2 0x1B27 JUMPI PUSH2 0x100 DUP1 DUP4 SLOAD DIV MUL DUP4 MSTORE SWAP2 PUSH1 0x20 ADD SWAP2 PUSH2 0x1B52 JUMP JUMPDEST DUP3 ADD SWAP2 SWAP1 PUSH1 0x0 MSTORE PUSH1 0x20 PUSH1 0x0 KECCAK256 SWAP1 JUMPDEST DUP2 SLOAD DUP2 MSTORE SWAP1 PUSH1 0x1 ADD SWAP1 PUSH1 0x20 ADD DUP1 DUP4 GT PUSH2 0x1B35 JUMPI DUP3 SWAP1 SUB PUSH1 0x1F AND DUP3 ADD SWAP2 JUMPDEST POP POP POP POP POP SWAP1 DUP1 PUSH1 0x2 ADD DUP1 SLOAD PUSH2 0x1B67 SWAP1 PUSH2 0x274F JUMP JUMPDEST DUP1 PUSH1 0x1F ADD PUSH1 0x20 DUP1 SWAP2 DIV MUL PUSH1 0x20 ADD PUSH1 0x40 MLOAD SWAP1 DUP2 ADD PUSH1 0x40 MSTORE DUP1 SWAP3 SWAP2 SWAP1 DUP2 DUP2 MSTORE PUSH1 0x20 ADD DUP3 DUP1 SLOAD PUSH2 0x1B93 SWAP1 PUSH2 0x274F JUMP JUMPDEST DUP1 ISZERO PUSH2 0x1BE0 JUMPI DUP1 PUSH1 0x1F LT PUSH2 0x1BB5 JUMPI PUSH2 0x100 DUP1 DUP4 SLOAD DIV MUL DUP4 MSTORE SWAP2 PUSH1 0x20 ADD SWAP2 PUSH2 0x1BE0 JUMP JUMPDEST DUP3 ADD SWAP2 SWAP1 PUSH1 0x0 MSTORE PUSH1 0x20 PUSH1 0x0 KECCAK256 SWAP1 JUMPDEST DUP2 SLOAD DUP2 MSTORE SWAP1 PUSH1 0x1 ADD SWAP1 PUSH1 0x20 ADD DUP1 DUP4 GT PUSH2 0x1BC3 JUMPI DUP3 SWAP1 SUB PUSH1 0x1F AND DUP3 ADD SWAP2 JUMPDEST POP POP POP POP POP SWAP1 POP DUP4 JUMP JUMPDEST PUSH1 0x0 PUSH2 0x1BF5 DUP3 PUSH2 0x750 JUMP JUMPDEST SWAP1 POP PUSH1 0x0 PUSH2 0x1C02 DUP5 PUSH2 0x1522 JUMP JUMPDEST SWAP1 POP DUP2 PUSH1 0x40 ADD MLOAD DUP2 PUSH1 0x80 ADD DUP2 SWAP1 MSTORE POP DUP2 PUSH1 0x0 ADD MLOAD DUP2 PUSH1 0xA0 ADD DUP2 DUP2 MSTORE POP POP PUSH32 0x59BE542CA2DB8C0EAEB99F755E7EAB871D9CEFC9B5E52B1F107B679C7295FAE1 DUP2 PUSH1 0x40 MLOAD PUSH2 0x1C4E SWAP2 SWAP1 PUSH2 0x24C6 JUMP JUMPDEST PUSH1 0x40 MLOAD DUP1 SWAP2 SUB SWAP1 LOG1 POP POP POP POP JUMP JUMPDEST PUSH1 0x40 MLOAD DUP1 PUSH1 0x80 ADD PUSH1 0x40 MSTORE DUP1 PUSH1 0x0 DUP2 MSTORE PUSH1 0x20 ADD PUSH1 0x60 DUP2 MSTORE PUSH1 0x20 ADD PUSH1 0x60 DUP2 MSTORE PUSH1 0x20 ADD PUSH1 0x60 DUP2 MSTORE POP SWAP1 JUMP JUMPDEST DUP3 DUP1 SLOAD PUSH2 0x1C90 SWAP1 PUSH2 0x274F JUMP JUMPDEST SWAP1 PUSH1 0x0 MSTORE PUSH1 0x20 PUSH1 0x0 KECCAK256 SWAP1 PUSH1 0x1F ADD PUSH1 0x20 SWAP1 DIV DUP2 ADD SWAP3 DUP3 PUSH2 0x1CB2 JUMPI PUSH1 0x0 DUP6 SSTORE PUSH2 0x1CF9 JUMP JUMPDEST DUP3 PUSH1 0x1F LT PUSH2 0x1CCB JUMPI DUP1 MLOAD PUSH1 0xFF NOT AND DUP4 DUP1 ADD OR DUP6 SSTORE PUSH2 0x1CF9 JUMP JUMPDEST DUP3 DUP1 ADD PUSH1 0x1 ADD DUP6 SSTORE DUP3 ISZERO PUSH2 0x1CF9 JUMPI SWAP2 DUP3 ADD JUMPDEST DUP3 DUP2 GT ISZERO PUSH2 0x1CF8 JUMPI DUP3 MLOAD DUP3 SSTORE SWAP2 PUSH1 0x20 ADD SWAP2 SWAP1 PUSH1 0x1 ADD SWAP1 PUSH2 0x1CDD JUMP JUMPDEST JUMPDEST POP SWAP1 POP PUSH2 0x1D06 SWAP2 SWAP1 PUSH2 0x1DFE JUMP JUMPDEST POP SWAP1 JUMP JUMPDEST DUP3 DUP1 SLOAD DUP3 DUP3 SSTORE SWAP1 PUSH1 0x0 MSTORE PUSH1 0x20 PUSH1 0x0 KECCAK256 SWAP1 DUP2 ADD SWAP3 DUP3 ISZERO PUSH2 0x1D46 JUMPI SWAP2 PUSH1 0x20 MUL DUP3 ADD JUMPDEST DUP3 DUP2 GT ISZERO PUSH2 0x1D45 JUMPI DUP3 MLOAD DUP3 SSTORE SWAP2 PUSH1 0x20 ADD SWAP2 SWAP1 PUSH1 0x1 ADD SWAP1 PUSH2 0x1D2A JUMP JUMPDEST JUMPDEST POP SWAP1 POP PUSH2 0x1D53 SWAP2 SWAP1 PUSH2 0x1DFE JUMP JUMPDEST POP SWAP1 JUMP JUMPDEST PUSH1 0x40 MLOAD DUP1 PUSH1 0x80 ADD PUSH1 0x40 MSTORE DUP1 PUSH1 0x0 DUP2 MSTORE PUSH1 0x20 ADD PUSH1 0x60 DUP2 MSTORE PUSH1 0x20 ADD PUSH1 0x60 DUP2 MSTORE PUSH1 0x20 ADD PUSH1 0x60 DUP2 MSTORE POP SWAP1 JUMP JUMPDEST PUSH1 0x40 MLOAD DUP1 PUSH1 0xC0 ADD PUSH1 0x40 MSTORE DUP1 PUSH1 0x0 DUP2 MSTORE PUSH1 0x20 ADD PUSH1 0x60 DUP2 MSTORE PUSH1 0x20 ADD PUSH1 0x0 DUP2 MSTORE PUSH1 0x20 ADD PUSH1 0x60 DUP2 MSTORE PUSH1 0x20 ADD PUSH1 0x60 DUP2 MSTORE PUSH1 0x20 ADD PUSH1 0x0 DUP2 MSTORE POP SWAP1 JUMP JUMPDEST PUSH1 0x40 MLOAD DUP1 PUSH1 0x80 ADD PUSH1 0x40 MSTORE DUP1 PUSH1 0x0 DUP2 MSTORE PUSH1 0x20 ADD PUSH1 0x60 DUP2 MSTORE PUSH1 0x20 ADD PUSH1 0x60 DUP2 MSTORE PUSH1 0x20 ADD PUSH1 0x60 DUP2 MSTORE POP SWAP1 JUMP JUMPDEST PUSH1 0x40 MLOAD DUP1 PUSH1 0x60 ADD PUSH1 0x40 MSTORE DUP1 PUSH1 0x0 DUP2 MSTORE PUSH1 0x20 ADD PUSH1 0x60 DUP2 MSTORE PUSH1 0x20 ADD PUSH1 0x60 DUP2 MSTORE POP SWAP1 JUMP JUMPDEST JUMPDEST DUP1 DUP3 GT ISZERO PUSH2 0x1E17 JUMPI PUSH1 0x0 DUP2 PUSH1 0x0 SWAP1 SSTORE POP PUSH1 0x1 ADD PUSH2 0x1DFF JUMP JUMPDEST POP SWAP1 JUMP JUMPDEST PUSH1 0x0 PUSH2 0x1E2E PUSH2 0x1E29 DUP5 PUSH2 0x266C JUMP JUMPDEST PUSH2 0x2647 JUMP JUMPDEST SWAP1 POP DUP3 DUP2 MSTORE PUSH1 0x20 DUP2 ADD DUP5 DUP5 DUP5 ADD GT ISZERO PUSH2 0x1E4A JUMPI PUSH2 0x1E49 PUSH2 0x288D JUMP JUMPDEST JUMPDEST PUSH2 0x1E55 DUP5 DUP3 DUP6 PUSH2 0x270D JUMP JUMPDEST POP SWAP4 SWAP3 POP POP POP JUMP JUMPDEST PUSH1 0x0 DUP3 PUSH1 0x1F DUP4 ADD SLT PUSH2 0x1E72 JUMPI PUSH2 0x1E71 PUSH2 0x2888 JUMP JUMPDEST JUMPDEST DUP2 CALLDATALOAD PUSH2 0x1E82 DUP5 DUP3 PUSH1 0x20 DUP7 ADD PUSH2 0x1E1B JUMP JUMPDEST SWAP2 POP POP SWAP3 SWAP2 POP POP JUMP JUMPDEST PUSH1 0x0 DUP2 CALLDATALOAD SWAP1 POP PUSH2 0x1E9A DUP2 PUSH2 0x299A JUMP JUMPDEST SWAP3 SWAP2 POP POP JUMP JUMPDEST PUSH1 0x0 PUSH1 0x20 DUP3 DUP5 SUB SLT ISZERO PUSH2 0x1EB6 JUMPI PUSH2 0x1EB5 PUSH2 0x2897 JUMP JUMPDEST JUMPDEST PUSH1 0x0 DUP3 ADD CALLDATALOAD PUSH8 0xFFFFFFFFFFFFFFFF DUP2 GT ISZERO PUSH2 0x1ED4 JUMPI PUSH2 0x1ED3 PUSH2 0x2892 JUMP JUMPDEST JUMPDEST PUSH2 0x1EE0 DUP5 DUP3 DUP6 ADD PUSH2 0x1E5D JUMP JUMPDEST SWAP2 POP POP SWAP3 SWAP2 POP POP JUMP JUMPDEST PUSH1 0x0 DUP1 PUSH1 0x0 PUSH1 0x60 DUP5 DUP7 SUB SLT ISZERO PUSH2 0x1F02 JUMPI PUSH2 0x1F01 PUSH2 0x2897 JUMP JUMPDEST JUMPDEST PUSH1 0x0 DUP5 ADD CALLDATALOAD PUSH8 0xFFFFFFFFFFFFFFFF DUP2 GT ISZERO PUSH2 0x1F20 JUMPI PUSH2 0x1F1F PUSH2 0x2892 JUMP JUMPDEST JUMPDEST PUSH2 0x1F2C DUP7 DUP3 DUP8 ADD PUSH2 0x1E5D JUMP JUMPDEST SWAP4 POP POP PUSH1 0x20 PUSH2 0x1F3D DUP7 DUP3 DUP8 ADD PUSH2 0x1E8B JUMP JUMPDEST SWAP3 POP POP PUSH1 0x40 DUP5 ADD CALLDATALOAD PUSH8 0xFFFFFFFFFFFFFFFF DUP2 GT ISZERO PUSH2 0x1F5E JUMPI PUSH2 0x1F5D PUSH2 0x2892 JUMP JUMPDEST JUMPDEST PUSH2 0x1F6A DUP7 DUP3 DUP8 ADD PUSH2 0x1E5D JUMP JUMPDEST SWAP2 POP POP SWAP3 POP SWAP3 POP SWAP3 JUMP JUMPDEST PUSH1 0x0 PUSH1 0x20 DUP3 DUP5 SUB SLT ISZERO PUSH2 0x1F8A JUMPI PUSH2 0x1F89 PUSH2 0x2897 JUMP JUMPDEST JUMPDEST PUSH1 0x0 PUSH2 0x1F98 DUP5 DUP3 DUP6 ADD PUSH2 0x1E8B JUMP JUMPDEST SWAP2 POP POP SWAP3 SWAP2 POP POP JUMP JUMPDEST PUSH1 0x0 DUP1 PUSH1 0x40 DUP4 DUP6 SUB SLT ISZERO PUSH2 0x1FB8 JUMPI PUSH2 0x1FB7 PUSH2 0x2897 JUMP JUMPDEST JUMPDEST PUSH1 0x0 PUSH2 0x1FC6 DUP6 DUP3 DUP7 ADD PUSH2 0x1E8B JUMP JUMPDEST SWAP3 POP POP PUSH1 0x20 PUSH2 0x1FD7 DUP6 DUP3 DUP7 ADD PUSH2 0x1E8B JUMP JUMPDEST SWAP2 POP POP SWAP3 POP SWAP3 SWAP1 POP JUMP JUMPDEST PUSH1 0x0 DUP1 PUSH1 0x0 PUSH1 0x60 DUP5 DUP7 SUB SLT ISZERO PUSH2 0x1FFA JUMPI PUSH2 0x1FF9 PUSH2 0x2897 JUMP JUMPDEST JUMPDEST PUSH1 0x0 PUSH2 0x2008 DUP7 DUP3 DUP8 ADD PUSH2 0x1E8B JUMP JUMPDEST SWAP4 POP POP PUSH1 0x20 PUSH2 0x2019 DUP7 DUP3 DUP8 ADD PUSH2 0x1E8B JUMP JUMPDEST SWAP3 POP POP PUSH1 0x40 PUSH2 0x202A DUP7 DUP3 DUP8 ADD PUSH2 0x1E8B JUMP JUMPDEST SWAP2 POP POP SWAP3 POP SWAP3 POP SWAP3 JUMP JUMPDEST PUSH1 0x0 PUSH2 0x2040 DUP4 DUP4 PUSH2 0x23C6 JUMP JUMPDEST PUSH1 0x20 DUP4 ADD SWAP1 POP SWAP3 SWAP2 POP POP JUMP JUMPDEST PUSH1 0x0 PUSH2 0x2057 DUP3 PUSH2 0x26AD JUMP JUMPDEST PUSH2 0x2061 DUP2 DUP6 PUSH2 0x26D0 JUMP JUMPDEST SWAP4 POP PUSH2 0x206C DUP4 PUSH2 0x269D JUMP JUMPDEST DUP1 PUSH1 0x0 JUMPDEST DUP4 DUP2 LT ISZERO PUSH2 0x209D JUMPI DUP2 MLOAD PUSH2 0x2084 DUP9 DUP3 PUSH2 0x2034 JUMP JUMPDEST SWAP8 POP PUSH2 0x208F DUP4 PUSH2 0x26C3 JUMP JUMPDEST SWAP3 POP POP PUSH1 0x1 DUP2 ADD SWAP1 POP PUSH2 0x2070 JUMP JUMPDEST POP DUP6 SWAP4 POP POP POP POP SWAP3 SWAP2 POP POP JUMP JUMPDEST PUSH1 0x0 PUSH2 0x20B5 DUP3 PUSH2 0x26B8 JUMP JUMPDEST PUSH2 0x20BF DUP2 DUP6 PUSH2 0x26E1 JUMP JUMPDEST SWAP4 POP PUSH2 0x20CF DUP2 DUP6 PUSH1 0x20 DUP7 ADD PUSH2 0x271C JUMP JUMPDEST PUSH2 0x20D8 DUP2 PUSH2 0x289C JUMP JUMPDEST DUP5 ADD SWAP2 POP POP SWAP3 SWAP2 POP POP JUMP JUMPDEST PUSH1 0x0 PUSH2 0x20EE DUP3 PUSH2 0x26B8 JUMP JUMPDEST PUSH2 0x20F8 DUP2 DUP6 PUSH2 0x26F2 JUMP JUMPDEST SWAP4 POP PUSH2 0x2108 DUP2 DUP6 PUSH1 0x20 DUP7 ADD PUSH2 0x271C JUMP JUMPDEST PUSH2 0x2111 DUP2 PUSH2 0x289C JUMP JUMPDEST DUP5 ADD SWAP2 POP POP SWAP3 SWAP2 POP POP JUMP JUMPDEST PUSH1 0x0 PUSH2 0x2129 PUSH1 0x34 DUP4 PUSH2 0x26F2 JUMP JUMPDEST SWAP2 POP PUSH2 0x2134 DUP3 PUSH2 0x28AD JUMP JUMPDEST PUSH1 0x40 DUP3 ADD SWAP1 POP SWAP2 SWAP1 POP JUMP JUMPDEST PUSH1 0x0 PUSH2 0x214C PUSH1 0x33 DUP4 PUSH2 0x26F2 JUMP JUMPDEST SWAP2 POP PUSH2 0x2157 DUP3 PUSH2 0x28FC JUMP JUMPDEST PUSH1 0x40 DUP3 ADD SWAP1 POP SWAP2 SWAP1 POP JUMP JUMPDEST PUSH1 0x0 PUSH2 0x216F PUSH1 0x30 DUP4 PUSH2 0x26F2 JUMP JUMPDEST SWAP2 POP PUSH2 0x217A DUP3 PUSH2 0x294B JUMP JUMPDEST PUSH1 0x40 DUP3 ADD SWAP1 POP SWAP2 SWAP1 POP JUMP JUMPDEST PUSH1 0x0 PUSH1 0x80 DUP4 ADD PUSH1 0x0 DUP4 ADD MLOAD PUSH2 0x219D PUSH1 0x0 DUP7 ADD DUP3 PUSH2 0x23C6 JUMP JUMPDEST POP PUSH1 0x20 DUP4 ADD MLOAD DUP5 DUP3 SUB PUSH1 0x20 DUP7 ADD MSTORE PUSH2 0x21B5 DUP3 DUP3 PUSH2 0x20AA JUMP JUMPDEST SWAP2 POP POP PUSH1 0x40 DUP4 ADD MLOAD DUP5 DUP3 SUB PUSH1 0x40 DUP7 ADD MSTORE PUSH2 0x21CF DUP3 DUP3 PUSH2 0x20AA JUMP JUMPDEST SWAP2 POP POP PUSH1 0x60 DUP4 ADD MLOAD DUP5 DUP3 SUB PUSH1 0x60 DUP7 ADD MSTORE PUSH2 0x21E9 DUP3 DUP3 PUSH2 0x204C JUMP JUMPDEST SWAP2 POP POP DUP1 SWAP2 POP POP SWAP3 SWAP2 POP POP JUMP JUMPDEST PUSH1 0x0 PUSH1 0x80 DUP4 ADD PUSH1 0x0 DUP4 ADD MLOAD PUSH2 0x220E PUSH1 0x0 DUP7 ADD DUP3 PUSH2 0x23C6 JUMP JUMPDEST POP PUSH1 0x20 DUP4 ADD MLOAD DUP5 DUP3 SUB PUSH1 0x20 DUP7 ADD MSTORE PUSH2 0x2226 DUP3 DUP3 PUSH2 0x20AA JUMP JUMPDEST SWAP2 POP POP PUSH1 0x40 DUP4 ADD MLOAD DUP5 DUP3 SUB PUSH1 0x40 DUP7 ADD MSTORE PUSH2 0x2240 DUP3 DUP3 PUSH2 0x20AA JUMP JUMPDEST SWAP2 POP POP PUSH1 0x60 DUP4 ADD MLOAD DUP5 DUP3 SUB PUSH1 0x60 DUP7 ADD MSTORE PUSH2 0x225A DUP3 DUP3 PUSH2 0x204C JUMP JUMPDEST SWAP2 POP POP DUP1 SWAP2 POP POP SWAP3 SWAP2 POP POP JUMP JUMPDEST PUSH1 0x0 PUSH1 0xC0 DUP4 ADD PUSH1 0x0 DUP4 ADD MLOAD PUSH2 0x227F PUSH1 0x0 DUP7 ADD DUP3 PUSH2 0x23C6 JUMP JUMPDEST POP PUSH1 0x20 DUP4 ADD MLOAD DUP5 DUP3 SUB PUSH1 0x20 DUP7 ADD MSTORE PUSH2 0x2297 DUP3 DUP3 PUSH2 0x20AA JUMP JUMPDEST SWAP2 POP POP PUSH1 0x40 DUP4 ADD MLOAD PUSH2 0x22AC PUSH1 0x40 DUP7 ADD DUP3 PUSH2 0x23C6 JUMP JUMPDEST POP PUSH1 0x60 DUP4 ADD MLOAD DUP5 DUP3 SUB PUSH1 0x60 DUP7 ADD MSTORE PUSH2 0x22C4 DUP3 DUP3 PUSH2 0x20AA JUMP JUMPDEST SWAP2 POP POP PUSH1 0x80 DUP4 ADD MLOAD DUP5 DUP3 SUB PUSH1 0x80 DUP7 ADD MSTORE PUSH2 0x22DE DUP3 DUP3 PUSH2 0x20AA JUMP JUMPDEST SWAP2 POP POP PUSH1 0xA0 DUP4 ADD MLOAD PUSH2 0x22F3 PUSH1 0xA0 DUP7 ADD DUP3 PUSH2 0x23C6 JUMP JUMPDEST POP DUP1 SWAP2 POP POP SWAP3 SWAP2 POP POP JUMP JUMPDEST PUSH1 0x0 PUSH1 0x60 DUP4 ADD PUSH1 0x0 DUP4 ADD MLOAD PUSH2 0x2316 PUSH1 0x0 DUP7 ADD DUP3 PUSH2 0x23C6 JUMP JUMPDEST POP PUSH1 0x20 DUP4 ADD MLOAD DUP5 DUP3 SUB PUSH1 0x20 DUP7 ADD MSTORE PUSH2 0x232E DUP3 DUP3 PUSH2 0x20AA JUMP JUMPDEST SWAP2 POP POP PUSH1 0x40 DUP4 ADD MLOAD DUP5 DUP3 SUB PUSH1 0x40 DUP7 ADD MSTORE PUSH2 0x2348 DUP3 DUP3 PUSH2 0x204C JUMP JUMPDEST SWAP2 POP POP DUP1 SWAP2 POP POP SWAP3 SWAP2 POP POP JUMP JUMPDEST PUSH1 0x0 PUSH1 0x80 DUP4 ADD PUSH1 0x0 DUP4 ADD MLOAD PUSH2 0x236D PUSH1 0x0 DUP7 ADD DUP3 PUSH2 0x23C6 JUMP JUMPDEST POP PUSH1 0x20 DUP4 ADD MLOAD DUP5 DUP3 SUB PUSH1 0x20 DUP7 ADD MSTORE PUSH2 0x2385 DUP3 DUP3 PUSH2 0x20AA JUMP JUMPDEST SWAP2 POP POP PUSH1 0x40 DUP4 ADD MLOAD DUP5 DUP3 SUB PUSH1 0x40 DUP7 ADD MSTORE PUSH2 0x239F DUP3 DUP3 PUSH2 0x20AA JUMP JUMPDEST SWAP2 POP POP PUSH1 0x60 DUP4 ADD MLOAD DUP5 DUP3 SUB PUSH1 0x60 DUP7 ADD MSTORE PUSH2 0x23B9 DUP3 DUP3 PUSH2 0x204C JUMP JUMPDEST SWAP2 POP POP DUP1 SWAP2 POP POP SWAP3 SWAP2 POP POP JUMP JUMPDEST PUSH2 0x23CF DUP2 PUSH2 0x2703 JUMP JUMPDEST DUP3 MSTORE POP POP JUMP JUMPDEST PUSH2 0x23DE DUP2 PUSH2 0x2703 JUMP JUMPDEST DUP3 MSTORE POP POP JUMP JUMPDEST PUSH1 0x0 PUSH1 0x60 DUP3 ADD SWAP1 POP DUP2 DUP2 SUB PUSH1 0x0 DUP4 ADD MSTORE PUSH2 0x23FE DUP2 DUP7 PUSH2 0x20E3 JUMP JUMPDEST SWAP1 POP PUSH2 0x240D PUSH1 0x20 DUP4 ADD DUP6 PUSH2 0x23D5 JUMP JUMPDEST PUSH2 0x241A PUSH1 0x40 DUP4 ADD DUP5 PUSH2 0x23D5 JUMP JUMPDEST SWAP5 SWAP4 POP POP POP POP JUMP JUMPDEST PUSH1 0x0 PUSH1 0x20 DUP3 ADD SWAP1 POP DUP2 DUP2 SUB PUSH1 0x0 DUP4 ADD MSTORE PUSH2 0x243B DUP2 PUSH2 0x211C JUMP JUMPDEST SWAP1 POP SWAP2 SWAP1 POP JUMP JUMPDEST PUSH1 0x0 PUSH1 0x20 DUP3 ADD SWAP1 POP DUP2 DUP2 SUB PUSH1 0x0 DUP4 ADD MSTORE PUSH2 0x245B DUP2 PUSH2 0x213F JUMP JUMPDEST SWAP1 POP SWAP2 SWAP1 POP JUMP JUMPDEST PUSH1 0x0 PUSH1 0x20 DUP3 ADD SWAP1 POP DUP2 DUP2 SUB PUSH1 0x0 DUP4 ADD MSTORE PUSH2 0x247B DUP2 PUSH2 0x2162 JUMP JUMPDEST SWAP1 POP SWAP2 SWAP1 POP JUMP JUMPDEST PUSH1 0x0 PUSH1 0x20 DUP3 ADD SWAP1 POP DUP2 DUP2 SUB PUSH1 0x0 DUP4 ADD MSTORE PUSH2 0x249C DUP2 DUP5 PUSH2 0x2185 JUMP JUMPDEST SWAP1 POP SWAP3 SWAP2 POP POP JUMP JUMPDEST PUSH1 0x0 PUSH1 0x20 DUP3 ADD SWAP1 POP DUP2 DUP2 SUB PUSH1 0x0 DUP4 ADD MSTORE PUSH2 0x24BE DUP2 DUP5 PUSH2 0x21F6 JUMP JUMPDEST SWAP1 POP SWAP3 SWAP2 POP POP JUMP JUMPDEST PUSH1 0x0 PUSH1 0x20 DUP3 ADD SWAP1 POP DUP2 DUP2 SUB PUSH1 0x0 DUP4 ADD MSTORE PUSH2 0x24E0 DUP2 DUP5 PUSH2 0x2267 JUMP JUMPDEST SWAP1 POP SWAP3 SWAP2 POP POP JUMP JUMPDEST PUSH1 0x0 PUSH1 0x40 DUP3 ADD SWAP1 POP DUP2 DUP2 SUB PUSH1 0x0 DUP4 ADD MSTORE PUSH2 0x2502 DUP2 DUP6 PUSH2 0x2267 JUMP JUMPDEST SWAP1 POP PUSH2 0x2511 PUSH1 0x20 DUP4 ADD DUP5 PUSH2 0x23D5 JUMP JUMPDEST SWAP4 SWAP3 POP POP POP JUMP JUMPDEST PUSH1 0x0 PUSH1 0x20 DUP3 ADD SWAP1 POP DUP2 DUP2 SUB PUSH1 0x0 DUP4 ADD MSTORE PUSH2 0x2532 DUP2 DUP5 PUSH2 0x22FE JUMP JUMPDEST SWAP1 POP SWAP3 SWAP2 POP POP JUMP JUMPDEST PUSH1 0x0 PUSH1 0x20 DUP3 ADD SWAP1 POP DUP2 DUP2 SUB PUSH1 0x0 DUP4 ADD MSTORE PUSH2 0x2554 DUP2 DUP5 PUSH2 0x2355 JUMP JUMPDEST SWAP1 POP SWAP3 SWAP2 POP POP JUMP JUMPDEST PUSH1 0x0 PUSH1 0x40 DUP3 ADD SWAP1 POP PUSH2 0x2571 PUSH1 0x0 DUP4 ADD DUP6 PUSH2 0x23D5 JUMP JUMPDEST DUP2 DUP2 SUB PUSH1 0x20 DUP4 ADD MSTORE PUSH2 0x2583 DUP2 DUP5 PUSH2 0x20E3 JUMP JUMPDEST SWAP1 POP SWAP4 SWAP3 POP POP POP JUMP JUMPDEST PUSH1 0x0 PUSH1 0x60 DUP3 ADD SWAP1 POP PUSH2 0x25A1 PUSH1 0x0 DUP4 ADD DUP7 PUSH2 0x23D5 JUMP JUMPDEST DUP2 DUP2 SUB PUSH1 0x20 DUP4 ADD MSTORE PUSH2 0x25B3 DUP2 DUP6 PUSH2 0x20E3 JUMP JUMPDEST SWAP1 POP DUP2 DUP2 SUB PUSH1 0x40 DUP4 ADD MSTORE PUSH2 0x25C7 DUP2 DUP5 PUSH2 0x20E3 JUMP JUMPDEST SWAP1 POP SWAP5 SWAP4 POP POP POP POP JUMP JUMPDEST PUSH1 0x0 PUSH1 0xC0 DUP3 ADD SWAP1 POP PUSH2 0x25E6 PUSH1 0x0 DUP4 ADD DUP10 PUSH2 0x23D5 JUMP JUMPDEST DUP2 DUP2 SUB PUSH1 0x20 DUP4 ADD MSTORE PUSH2 0x25F8 DUP2 DUP9 PUSH2 0x20E3 JUMP JUMPDEST SWAP1 POP PUSH2 0x2607 PUSH1 0x40 DUP4 ADD DUP8 PUSH2 0x23D5 JUMP JUMPDEST DUP2 DUP2 SUB PUSH1 0x60 DUP4 ADD MSTORE PUSH2 0x2619 DUP2 DUP7 PUSH2 0x20E3 JUMP JUMPDEST SWAP1 POP DUP2 DUP2 SUB PUSH1 0x80 DUP4 ADD MSTORE PUSH2 0x262D DUP2 DUP6 PUSH2 0x20E3 JUMP JUMPDEST SWAP1 POP PUSH2 0x263C PUSH1 0xA0 DUP4 ADD DUP5 PUSH2 0x23D5 JUMP JUMPDEST SWAP8 SWAP7 POP POP POP POP POP POP POP JUMP JUMPDEST PUSH1 0x0 PUSH2 0x2651 PUSH2 0x2662 JUMP JUMPDEST SWAP1 POP PUSH2 0x265D DUP3 DUP3 PUSH2 0x2781 JUMP JUMPDEST SWAP2 SWAP1 POP JUMP JUMPDEST PUSH1 0x0 PUSH1 0x40 MLOAD SWAP1 POP SWAP1 JUMP JUMPDEST PUSH1 0x0 PUSH8 0xFFFFFFFFFFFFFFFF DUP3 GT ISZERO PUSH2 0x2687 JUMPI PUSH2 0x2686 PUSH2 0x2859 JUMP JUMPDEST JUMPDEST PUSH2 0x2690 DUP3 PUSH2 0x289C JUMP JUMPDEST SWAP1 POP PUSH1 0x20 DUP2 ADD SWAP1 POP SWAP2 SWAP1 POP JUMP JUMPDEST PUSH1 0x0 DUP2 SWAP1 POP PUSH1 0x20 DUP3 ADD SWAP1 POP SWAP2 SWAP1 POP JUMP JUMPDEST PUSH1 0x0 DUP2 MLOAD SWAP1 POP SWAP2 SWAP1 POP JUMP JUMPDEST PUSH1 0x0 DUP2 MLOAD SWAP1 POP SWAP2 SWAP1 POP JUMP JUMPDEST PUSH1 0x0 PUSH1 0x20 DUP3 ADD SWAP1 POP SWAP2 SWAP1 POP JUMP JUMPDEST PUSH1 0x0 DUP3 DUP3 MSTORE PUSH1 0x20 DUP3 ADD SWAP1 POP SWAP3 SWAP2 POP POP JUMP JUMPDEST PUSH1 0x0 DUP3 DUP3 MSTORE PUSH1 0x20 DUP3 ADD SWAP1 POP SWAP3 SWAP2 POP POP JUMP JUMPDEST PUSH1 0x0 DUP3 DUP3 MSTORE PUSH1 0x20 DUP3 ADD SWAP1 POP SWAP3 SWAP2 POP POP JUMP JUMPDEST PUSH1 0x0 DUP2 SWAP1 POP SWAP2 SWAP1 POP JUMP JUMPDEST DUP3 DUP2 DUP4 CALLDATACOPY PUSH1 0x0 DUP4 DUP4 ADD MSTORE POP POP POP JUMP JUMPDEST PUSH1 0x0 JUMPDEST DUP4 DUP2 LT ISZERO PUSH2 0x273A JUMPI DUP1 DUP3 ADD MLOAD DUP2 DUP5 ADD MSTORE PUSH1 0x20 DUP2 ADD SWAP1 POP PUSH2 0x271F JUMP JUMPDEST DUP4 DUP2 GT ISZERO PUSH2 0x2749 JUMPI PUSH1 0x0 DUP5 DUP5 ADD MSTORE JUMPDEST POP POP POP POP JUMP JUMPDEST PUSH1 0x0 PUSH1 0x2 DUP3 DIV SWAP1 POP PUSH1 0x1 DUP3 AND DUP1 PUSH2 0x2767 JUMPI PUSH1 0x7F DUP3 AND SWAP2 POP JUMPDEST PUSH1 0x20 DUP3 LT DUP2 EQ ISZERO PUSH2 0x277B JUMPI PUSH2 0x277A PUSH2 0x282A JUMP JUMPDEST JUMPDEST POP SWAP2 SWAP1 POP JUMP JUMPDEST PUSH2 0x278A DUP3 PUSH2 0x289C JUMP JUMPDEST DUP2 ADD DUP2 DUP2 LT PUSH8 0xFFFFFFFFFFFFFFFF DUP3 GT OR ISZERO PUSH2 0x27A9 JUMPI PUSH2 0x27A8 PUSH2 0x2859 JUMP JUMPDEST JUMPDEST DUP1 PUSH1 0x40 MSTORE POP POP POP JUMP JUMPDEST PUSH1 0x0 PUSH2 0x27BD DUP3 PUSH2 0x2703 JUMP JUMPDEST SWAP2 POP PUSH32 0xFFFFFFFFFFFFFFFFFFFFFFFFFFFFFFFFFFFFFFFFFFFFFFFFFFFFFFFFFFFFFFFF DUP3 EQ ISZERO PUSH2 0x27F0 JUMPI PUSH2 0x27EF PUSH2 0x27FB JUMP JUMPDEST JUMPDEST PUSH1 0x1 DUP3 ADD SWAP1 POP SWAP2 SWAP1 POP JUMP JUMPDEST PUSH32 0x4E487B7100000000000000000000000000000000000000000000000000000000 PUSH1 0x0 MSTORE PUSH1 0x11 PUSH1 0x4 MSTORE PUSH1 0x24 PUSH1 0x0 REVERT JUMPDEST PUSH32 0x4E487B7100000000000000000000000000000000000000000000000000000000 PUSH1 0x0 MSTORE PUSH1 0x22 PUSH1 0x4 MSTORE PUSH1 0x24 PUSH1 0x0 REVERT JUMPDEST PUSH32 0x4E487B7100000000000000000000000000000000000000000000000000000000 PUSH1 0x0 MSTORE PUSH1 0x41 PUSH1 0x4 MSTORE PUSH1 0x24 PUSH1 0x0 REVERT JUMPDEST PUSH1 0x0 DUP1 REVERT JUMPDEST PUSH1 0x0 DUP1 REVERT JUMPDEST PUSH1 0x0 DUP1 REVERT JUMPDEST PUSH1 0x0 DUP1 REVERT JUMPDEST PUSH1 0x0 PUSH1 0x1F NOT PUSH1 0x1F DUP4 ADD AND SWAP1 POP SWAP2 SWAP1 POP JUMP JUMPDEST PUSH32 0x4D616E756661637475726572206973206E6F74207468652063757272656E7420 PUSH1 0x0 DUP3 ADD MSTORE PUSH32 0x6F776E6572206F66207468652070726F64756374000000000000000000000000 PUSH1 0x20 DUP3 ADD MSTORE POP JUMP JUMPDEST PUSH32 0x4469737472696275746F72206973206E6F74207468652063757272656E74206F PUSH1 0x0 DUP3 ADD MSTORE PUSH32 0x776E6572206F66207468652070726F6475637400000000000000000000000000 PUSH1 0x20 DUP3 ADD MSTORE POP JUMP JUMPDEST PUSH32 0x537570706C696572206973206E6F74207468652063757272656E74206F776E65 PUSH1 0x0 DUP3 ADD MSTORE PUSH32 0x72206F66207468652070726F6475637400000000000000000000000000000000 PUSH1 0x20 DUP3 ADD MSTORE POP JUMP JUMPDEST PUSH2 0x29A3 DUP2 PUSH2 0x2703 JUMP JUMPDEST DUP2 EQ PUSH2 0x29AE JUMPI PUSH1 0x0 DUP1 REVERT JUMPDEST POP JUMP INVALID LOG2 PUSH5 0x6970667358 0x22 SLT KECCAK256 MSTORE AND 0xC9 0xDF LOG1 DUP13 0x2A EXTCODESIZE SWAP2 0xE7 0xDB 0xB1 0xBB 0x1F 0xB1 0xE5 0xD8 0xBD 0xB7 JUMPI COINBASE 0xDA 0x4E 0xE1 DUP13 0x1E 0xD2 PUSH4 0xDC01867C PUSH5 0x736F6C6343 STOP ADDMOD SMOD STOP CALLER "
				},
				"gasEstimates": {
					"creation": {
						"codeDepositCost": "2145400",
						"executionCost": "31559",
						"totalCost": "2176959"
					},
					"external": {
						"addDistributor(string)": "infinite",
						"addManufacturer(string)": "infinite",
						"addProduct(string,uint256,string)": "infinite",
						"addRetailer(string)": "infinite",
						"addSupplier(string)": "infinite",
						"distributorToRetailer(uint256,uint256,uint256)": "infinite",
						"distributors(uint256)": "infinite",
						"getProduct(uint256)": "infinite",
						"getdistributorDetails(uint256)": "infinite",
						"getmanufacturerDetails(uint256)": "infinite",
						"getretailerDetails(uint256)": "infinite",
						"getsupplierDetails(uint256)": "infinite",
						"manufacturerToDistributor(uint256,uint256,uint256)": "infinite",
						"manufacturers(uint256)": "infinite",
						"products(uint256)": "infinite",
						"retailers(uint256)": "infinite",
						"supplierToManufacturer(uint256,uint256,uint256)": "infinite",
						"supplierTransaction(uint256,uint256)": "infinite",
						"suppliers(uint256)": "infinite"
					}
				},
				"methodIdentifiers": {
					"addDistributor(string)": "81d9def2",
					"addManufacturer(string)": "8f5ae799",
					"addProduct(string,uint256,string)": "8f29695a",
					"addRetailer(string)": "95d00407",
					"addSupplier(string)": "15533a27",
					"distributorToRetailer(uint256,uint256,uint256)": "b55be240",
					"distributors(uint256)": "50b492ba",
					"getProduct(uint256)": "b9db15b4",
					"getdistributorDetails(uint256)": "333f3dd0",
					"getmanufacturerDetails(uint256)": "cb80c419",
					"getretailerDetails(uint256)": "cda5e4a5",
					"getsupplierDetails(uint256)": "3779643f",
					"manufacturerToDistributor(uint256,uint256,uint256)": "ae2ce444",
					"manufacturers(uint256)": "90175af1",
					"products(uint256)": "7acc0b20",
					"retailers(uint256)": "897ec7df",
					"supplierToManufacturer(uint256,uint256,uint256)": "bbb7b0c3",
					"supplierTransaction(uint256,uint256)": "d8459464",
					"suppliers(uint256)": "cea23121"
				}
			},
			"storageLayout": {
				"storage": [
					{
						"astId": 5,
						"contract": "contracts/FakeProdId.sol:FakeProdId",
						"label": "owner",
						"offset": 0,
						"slot": "0",
						"type": "t_address"
					},
					{
						"astId": 93,
						"contract": "contracts/FakeProdId.sol:FakeProdId",
						"label": "products",
						"offset": 0,
						"slot": "1",
						"type": "t_mapping(t_uint256,t_struct(Product)18_storage)"
					},
					{
						"astId": 96,
						"contract": "contracts/FakeProdId.sol:FakeProdId",
						"label": "productsSize",
						"offset": 0,
						"slot": "2",
						"type": "t_uint256"
					},
					{
						"astId": 101,
						"contract": "contracts/FakeProdId.sol:FakeProdId",
						"label": "suppliers",
						"offset": 0,
						"slot": "3",
						"type": "t_mapping(t_uint256,t_struct(Supplier)28_storage)"
					},
					{
						"astId": 106,
						"contract": "contracts/FakeProdId.sol:FakeProdId",
						"label": "manufacturers",
						"offset": 0,
						"slot": "4",
						"type": "t_mapping(t_uint256,t_struct(Manufacturer)38_storage)"
					},
					{
						"astId": 111,
						"contract": "contracts/FakeProdId.sol:FakeProdId",
						"label": "distributors",
						"offset": 0,
						"slot": "5",
						"type": "t_mapping(t_uint256,t_struct(Distributor)48_storage)"
					},
					{
						"astId": 116,
						"contract": "contracts/FakeProdId.sol:FakeProdId",
						"label": "retailers",
						"offset": 0,
						"slot": "6",
						"type": "t_mapping(t_uint256,t_struct(Retailer)56_storage)"
					}
				],
				"types": {
					"t_address": {
						"encoding": "inplace",
						"label": "address",
						"numberOfBytes": "20"
					},
					"t_array(t_uint256)dyn_storage": {
						"base": "t_uint256",
						"encoding": "dynamic_array",
						"label": "uint256[]",
						"numberOfBytes": "32"
					},
					"t_mapping(t_uint256,t_struct(Distributor)48_storage)": {
						"encoding": "mapping",
						"key": "t_uint256",
						"label": "mapping(uint256 => struct FakeProdId.Distributor)",
						"numberOfBytes": "32",
						"value": "t_struct(Distributor)48_storage"
					},
					"t_mapping(t_uint256,t_struct(Manufacturer)38_storage)": {
						"encoding": "mapping",
						"key": "t_uint256",
						"label": "mapping(uint256 => struct FakeProdId.Manufacturer)",
						"numberOfBytes": "32",
						"value": "t_struct(Manufacturer)38_storage"
					},
					"t_mapping(t_uint256,t_struct(Product)18_storage)": {
						"encoding": "mapping",
						"key": "t_uint256",
						"label": "mapping(uint256 => struct FakeProdId.Product)",
						"numberOfBytes": "32",
						"value": "t_struct(Product)18_storage"
					},
					"t_mapping(t_uint256,t_struct(Retailer)56_storage)": {
						"encoding": "mapping",
						"key": "t_uint256",
						"label": "mapping(uint256 => struct FakeProdId.Retailer)",
						"numberOfBytes": "32",
						"value": "t_struct(Retailer)56_storage"
					},
					"t_mapping(t_uint256,t_struct(Supplier)28_storage)": {
						"encoding": "mapping",
						"key": "t_uint256",
						"label": "mapping(uint256 => struct FakeProdId.Supplier)",
						"numberOfBytes": "32",
						"value": "t_struct(Supplier)28_storage"
					},
					"t_string_storage": {
						"encoding": "bytes",
						"label": "string",
						"numberOfBytes": "32"
					},
					"t_struct(Distributor)48_storage": {
						"encoding": "inplace",
						"label": "struct FakeProdId.Distributor",
						"members": [
							{
								"astId": 40,
								"contract": "contracts/FakeProdId.sol:FakeProdId",
								"label": "distributorId",
								"offset": 0,
								"slot": "0",
								"type": "t_uint256"
							},
							{
								"astId": 42,
								"contract": "contracts/FakeProdId.sol:FakeProdId",
								"label": "kind",
								"offset": 0,
								"slot": "1",
								"type": "t_string_storage"
							},
							{
								"astId": 44,
								"contract": "contracts/FakeProdId.sol:FakeProdId",
								"label": "name",
								"offset": 0,
								"slot": "2",
								"type": "t_string_storage"
							},
							{
								"astId": 47,
								"contract": "contracts/FakeProdId.sol:FakeProdId",
								"label": "productList",
								"offset": 0,
								"slot": "3",
								"type": "t_array(t_uint256)dyn_storage"
							}
						],
						"numberOfBytes": "128"
					},
					"t_struct(Manufacturer)38_storage": {
						"encoding": "inplace",
						"label": "struct FakeProdId.Manufacturer",
						"members": [
							{
								"astId": 30,
								"contract": "contracts/FakeProdId.sol:FakeProdId",
								"label": "manufacturerId",
								"offset": 0,
								"slot": "0",
								"type": "t_uint256"
							},
							{
								"astId": 32,
								"contract": "contracts/FakeProdId.sol:FakeProdId",
								"label": "kind",
								"offset": 0,
								"slot": "1",
								"type": "t_string_storage"
							},
							{
								"astId": 34,
								"contract": "contracts/FakeProdId.sol:FakeProdId",
								"label": "name",
								"offset": 0,
								"slot": "2",
								"type": "t_string_storage"
							},
							{
								"astId": 37,
								"contract": "contracts/FakeProdId.sol:FakeProdId",
								"label": "productList",
								"offset": 0,
								"slot": "3",
								"type": "t_array(t_uint256)dyn_storage"
							}
						],
						"numberOfBytes": "128"
					},
					"t_struct(Product)18_storage": {
						"encoding": "inplace",
						"label": "struct FakeProdId.Product",
						"members": [
							{
								"astId": 7,
								"contract": "contracts/FakeProdId.sol:FakeProdId",
								"label": "productId",
								"offset": 0,
								"slot": "0",
								"type": "t_uint256"
							},
							{
								"astId": 9,
								"contract": "contracts/FakeProdId.sol:FakeProdId",
								"label": "name",
								"offset": 0,
								"slot": "1",
								"type": "t_string_storage"
							},
							{
								"astId": 11,
								"contract": "contracts/FakeProdId.sol:FakeProdId",
								"label": "price",
								"offset": 0,
								"slot": "2",
								"type": "t_uint256"
							},
							{
								"astId": 13,
								"contract": "contracts/FakeProdId.sol:FakeProdId",
								"label": "description",
								"offset": 0,
								"slot": "3",
								"type": "t_string_storage"
							},
							{
								"astId": 15,
								"contract": "contracts/FakeProdId.sol:FakeProdId",
								"label": "curOwner",
								"offset": 0,
								"slot": "4",
								"type": "t_string_storage"
							},
							{
								"astId": 17,
								"contract": "contracts/FakeProdId.sol:FakeProdId",
								"label": "curOwnerId",
								"offset": 0,
								"slot": "5",
								"type": "t_uint256"
							}
						],
						"numberOfBytes": "192"
					},
					"t_struct(Retailer)56_storage": {
						"encoding": "inplace",
						"label": "struct FakeProdId.Retailer",
						"members": [
							{
								"astId": 50,
								"contract": "contracts/FakeProdId.sol:FakeProdId",
								"label": "retailerId",
								"offset": 0,
								"slot": "0",
								"type": "t_uint256"
							},
							{
								"astId": 52,
								"contract": "contracts/FakeProdId.sol:FakeProdId",
								"label": "name",
								"offset": 0,
								"slot": "1",
								"type": "t_string_storage"
							},
							{
								"astId": 55,
								"contract": "contracts/FakeProdId.sol:FakeProdId",
								"label": "productList",
								"offset": 0,
								"slot": "2",
								"type": "t_array(t_uint256)dyn_storage"
							}
						],
						"numberOfBytes": "96"
					},
					"t_struct(Supplier)28_storage": {
						"encoding": "inplace",
						"label": "struct FakeProdId.Supplier",
						"members": [
							{
								"astId": 20,
								"contract": "contracts/FakeProdId.sol:FakeProdId",
								"label": "supplierId",
								"offset": 0,
								"slot": "0",
								"type": "t_uint256"
							},
							{
								"astId": 22,
								"contract": "contracts/FakeProdId.sol:FakeProdId",
								"label": "kind",
								"offset": 0,
								"slot": "1",
								"type": "t_string_storage"
							},
							{
								"astId": 24,
								"contract": "contracts/FakeProdId.sol:FakeProdId",
								"label": "name",
								"offset": 0,
								"slot": "2",
								"type": "t_string_storage"
							},
							{
								"astId": 27,
								"contract": "contracts/FakeProdId.sol:FakeProdId",
								"label": "productList",
								"offset": 0,
								"slot": "3",
								"type": "t_array(t_uint256)dyn_storage"
							}
						],
						"numberOfBytes": "128"
					},
					"t_uint256": {
						"encoding": "inplace",
						"label": "uint256",
						"numberOfBytes": "32"
					}
				}
			},
			"userdoc": {
				"kind": "user",
				"methods": {},
				"version": 1
			}
		}
	}
}