{
	"contracts/FakeProdId.sol": {
		"FakeProdId": {
			"abi": [
				{
					"anonymous": false,
					"inputs": [
						{
							"components": [
								{
									"internalType": "uint256",
									"name": "productId",
									"type": "uint256"
								},
								{
									"internalType": "string",
									"name": "name",
									"type": "string"
								},
								{
									"internalType": "uint256",
									"name": "price",
									"type": "uint256"
								},
								{
									"internalType": "string",
									"name": "description",
									"type": "string"
								},
								{
									"internalType": "string",
									"name": "curOwner",
									"type": "string"
								},
								{
									"internalType": "uint256",
									"name": "curOwnerId",
									"type": "uint256"
								}
							],
							"indexed": false,
							"internalType": "struct FakeProdId.Product",
							"name": "prod",
							"type": "tuple"
						},
						{
							"indexed": false,
							"internalType": "uint256",
							"name": "productSize",
							"type": "uint256"
						}
					],
					"name": "prodDetails",
					"type": "event"
				},
				{
					"inputs": [
						{
							"internalType": "string",
							"name": "name",
							"type": "string"
						}
					],
					"name": "addDistributor",
					"outputs": [
						{
							"internalType": "uint256",
							"name": "",
							"type": "uint256"
						}
					],
					"stateMutability": "nonpayable",
					"type": "function"
				},
				{
					"inputs": [
						{
							"internalType": "string",
							"name": "name",
							"type": "string"
						}
					],
					"name": "addManufacturer",
					"outputs": [
						{
							"internalType": "uint256",
							"name": "",
							"type": "uint256"
						}
					],
					"stateMutability": "nonpayable",
					"type": "function"
				},
				{
					"inputs": [
						{
							"internalType": "string",
							"name": "name",
							"type": "string"
						},
						{
							"internalType": "uint256",
							"name": "price",
							"type": "uint256"
						},
						{
							"internalType": "string",
							"name": "description",
							"type": "string"
						}
					],
					"name": "addProduct",
					"outputs": [],
					"stateMutability": "nonpayable",
					"type": "function"
				},
				{
					"inputs": [
						{
							"internalType": "string",
							"name": "name",
							"type": "string"
						}
					],
					"name": "addRetailer",
					"outputs": [
						{
							"internalType": "uint256",
							"name": "",
							"type": "uint256"
						}
					],
					"stateMutability": "nonpayable",
					"type": "function"
				},
				{
					"inputs": [
						{
							"internalType": "string",
							"name": "name",
							"type": "string"
						}
					],
					"name": "addSupplier",
					"outputs": [
						{
							"internalType": "uint256",
							"name": "",
							"type": "uint256"
						}
					],
					"stateMutability": "nonpayable",
					"type": "function"
				},
				{
					"inputs": [
						{
							"internalType": "uint256",
							"name": "",
							"type": "uint256"
						}
					],
					"name": "distributors",
					"outputs": [
						{
							"internalType": "uint256",
							"name": "distributorId",
							"type": "uint256"
						},
						{
							"internalType": "string",
							"name": "kind",
							"type": "string"
						},
						{
							"internalType": "string",
							"name": "name",
							"type": "string"
						}
					],
					"stateMutability": "view",
					"type": "function"
				},
				{
					"inputs": [
						{
							"internalType": "uint256",
							"name": "productId",
							"type": "uint256"
						}
					],
					"name": "getProduct",
					"outputs": [
						{
							"components": [
								{
									"internalType": "uint256",
									"name": "productId",
									"type": "uint256"
								},
								{
									"internalType": "string",
									"name": "name",
									"type": "string"
								},
								{
									"internalType": "uint256",
									"name": "price",
									"type": "uint256"
								},
								{
									"internalType": "string",
									"name": "description",
									"type": "string"
								},
								{
									"internalType": "string",
									"name": "curOwner",
									"type": "string"
								},
								{
									"internalType": "uint256",
									"name": "curOwnerId",
									"type": "uint256"
								}
							],
							"internalType": "struct FakeProdId.Product",
							"name": "",
							"type": "tuple"
						}
					],
					"stateMutability": "view",
					"type": "function"
				},
				{
					"inputs": [
						{
							"internalType": "uint256",
							"name": "distributorId",
							"type": "uint256"
						}
					],
					"name": "getdistributorDetails",
					"outputs": [
						{
							"components": [
								{
									"internalType": "uint256",
									"name": "distributorId",
									"type": "uint256"
								},
								{
									"internalType": "string",
									"name": "kind",
									"type": "string"
								},
								{
									"internalType": "string",
									"name": "name",
									"type": "string"
								},
								{
									"internalType": "uint256[]",
									"name": "productList",
									"type": "uint256[]"
								}
							],
							"internalType": "struct FakeProdId.Distributor",
							"name": "",
							"type": "tuple"
						}
					],
					"stateMutability": "view",
					"type": "function"
				},
				{
					"inputs": [
						{
							"internalType": "uint256",
							"name": "manufacturerId",
							"type": "uint256"
						}
					],
					"name": "getmanufacturerDetails",
					"outputs": [
						{
							"components": [
								{
									"internalType": "uint256",
									"name": "manufacturerId",
									"type": "uint256"
								},
								{
									"internalType": "string",
									"name": "kind",
									"type": "string"
								},
								{
									"internalType": "string",
									"name": "name",
									"type": "string"
								},
								{
									"internalType": "uint256[]",
									"name": "productList",
									"type": "uint256[]"
								}
							],
							"internalType": "struct FakeProdId.Manufacturer",
							"name": "",
							"type": "tuple"
						}
					],
					"stateMutability": "view",
					"type": "function"
				},
				{
					"inputs": [
						{
							"internalType": "uint256",
							"name": "retailerId",
							"type": "uint256"
						}
					],
					"name": "getretailerDetails",
					"outputs": [
						{
							"components": [
								{
									"internalType": "uint256",
									"name": "retailerId",
									"type": "uint256"
								},
								{
									"internalType": "string",
									"name": "name",
									"type": "string"
								},
								{
									"internalType": "uint256[]",
									"name": "productList",
									"type": "uint256[]"
								}
							],
							"internalType": "struct FakeProdId.Retailer",
							"name": "",
							"type": "tuple"
						}
					],
					"stateMutability": "view",
					"type": "function"
				},
				{
					"inputs": [
						{
							"internalType": "uint256",
							"name": "supplierId",
							"type": "uint256"
						}
					],
					"name": "getsupplierDetails",
					"outputs": [
						{
							"components": [
								{
									"internalType": "uint256",
									"name": "supplierId",
									"type": "uint256"
								},
								{
									"internalType": "string",
									"name": "kind",
									"type": "string"
								},
								{
									"internalType": "string",
									"name": "name",
									"type": "string"
								},
								{
									"internalType": "uint256[]",
									"name": "productList",
									"type": "uint256[]"
								}
							],
							"internalType": "struct FakeProdId.Supplier",
							"name": "",
							"type": "tuple"
						}
					],
					"stateMutability": "view",
					"type": "function"
				},
				{
					"inputs": [
						{
							"internalType": "uint256",
							"name": "",
							"type": "uint256"
						}
					],
					"name": "manufacturers",
					"outputs": [
						{
							"internalType": "uint256",
							"name": "manufacturerId",
							"type": "uint256"
						},
						{
							"internalType": "string",
							"name": "kind",
							"type": "string"
						},
						{
							"internalType": "string",
							"name": "name",
							"type": "string"
						}
					],
					"stateMutability": "view",
					"type": "function"
				},
				{
					"inputs": [
						{
							"internalType": "uint256",
							"name": "",
							"type": "uint256"
						}
					],
					"name": "products",
					"outputs": [
						{
							"internalType": "uint256",
							"name": "productId",
							"type": "uint256"
						},
						{
							"internalType": "string",
							"name": "name",
							"type": "string"
						},
						{
							"internalType": "uint256",
							"name": "price",
							"type": "uint256"
						},
						{
							"internalType": "string",
							"name": "description",
							"type": "string"
						},
						{
							"internalType": "string",
							"name": "curOwner",
							"type": "string"
						},
						{
							"internalType": "uint256",
							"name": "curOwnerId",
							"type": "uint256"
						}
					],
					"stateMutability": "view",
					"type": "function"
				},
				{
					"inputs": [
						{
							"internalType": "uint256",
							"name": "",
							"type": "uint256"
						}
					],
					"name": "retailers",
					"outputs": [
						{
							"internalType": "uint256",
							"name": "retailerId",
							"type": "uint256"
						},
						{
							"internalType": "string",
							"name": "name",
							"type": "string"
						}
					],
					"stateMutability": "view",
					"type": "function"
				},
				{
					"inputs": [
						{
							"internalType": "uint256",
							"name": "",
							"type": "uint256"
						}
					],
					"name": "suppliers",
					"outputs": [
						{
							"internalType": "uint256",
							"name": "supplierId",
							"type": "uint256"
						},
						{
							"internalType": "string",
							"name": "kind",
							"type": "string"
						},
						{
							"internalType": "string",
							"name": "name",
							"type": "string"
						}
					],
					"stateMutability": "view",
					"type": "function"
				},
				{
					"inputs": [
						{
							"internalType": "uint256",
							"name": "ProductId",
							"type": "uint256"
						},
						{
							"internalType": "uint256",
							"name": "curOwnerId",
							"type": "uint256"
						},
						{
							"internalType": "uint256",
							"name": "newOwnerId",
							"type": "uint256"
						}
					],
					"name": "transferOwnership",
					"outputs": [],
					"stateMutability": "nonpayable",
					"type": "function"
				}
			],
			"devdoc": {
				"kind": "dev",
				"methods": {},
				"version": 1
			},
			"evm": {
				"assembly": "    /* \"contracts/FakeProdId.sol\":69:4436  contract FakeProdId {\r... */\n  mstore(0x40, 0x80)\n    /* \"contracts/FakeProdId.sol\":112:122  msg.sender */\n  caller\n    /* \"contracts/FakeProdId.sol\":96:122  address owner = msg.sender */\n  0x00\n  dup1\n  0x0100\n  exp\n  dup2\n  sload\n  dup2\n  0xffffffffffffffffffffffffffffffffffffffff\n  mul\n  not\n  and\n  swap1\n  dup4\n  0xffffffffffffffffffffffffffffffffffffffff\n  and\n  mul\n  or\n  swap1\n  sstore\n  pop\n    /* \"contracts/FakeProdId.sol\":974:975  0 */\n  0x00\n    /* \"contracts/FakeProdId.sol\":956:975  uint productsSize=0 */\n  0x02\n  sstore\n    /* \"contracts/FakeProdId.sol\":69:4436  contract FakeProdId {\r... */\n  callvalue\n  dup1\n  iszero\n  tag_1\n  jumpi\n  0x00\n  dup1\n  revert\ntag_1:\n  pop\n  dataSize(sub_0)\n  dup1\n  dataOffset(sub_0)\n  0x00\n  codecopy\n  0x00\n  return\nstop\n\nsub_0: assembly {\n        /* \"contracts/FakeProdId.sol\":69:4436  contract FakeProdId {\r... */\n      mstore(0x40, 0x80)\n      callvalue\n      dup1\n      iszero\n      tag_1\n      jumpi\n      0x00\n      dup1\n      revert\n    tag_1:\n      pop\n      jumpi(tag_2, lt(calldatasize, 0x04))\n      shr(0xe0, calldataload(0x00))\n      dup1\n      0x8f5ae799\n      gt\n      tag_19\n      jumpi\n      dup1\n      0xcb80c419\n      gt\n      tag_20\n      jumpi\n      dup1\n      0xcb80c419\n      eq\n      tag_15\n      jumpi\n      dup1\n      0xcda5e4a5\n      eq\n      tag_16\n      jumpi\n      dup1\n      0xcea23121\n      eq\n      tag_17\n      jumpi\n      dup1\n      0xf032edec\n      eq\n      tag_18\n      jumpi\n      jump(tag_2)\n    tag_20:\n      dup1\n      0x8f5ae799\n      eq\n      tag_11\n      jumpi\n      dup1\n      0x90175af1\n      eq\n      tag_12\n      jumpi\n      dup1\n      0x95d00407\n      eq\n      tag_13\n      jumpi\n      dup1\n      0xb9db15b4\n      eq\n      tag_14\n      jumpi\n      jump(tag_2)\n    tag_19:\n      dup1\n      0x7acc0b20\n      gt\n      tag_21\n      jumpi\n      dup1\n      0x7acc0b20\n      eq\n      tag_7\n      jumpi\n      dup1\n      0x81d9def2\n      eq\n      tag_8\n      jumpi\n      dup1\n      0x897ec7df\n      eq\n      tag_9\n      jumpi\n      dup1\n      0x8f29695a\n      eq\n      tag_10\n      jumpi\n      jump(tag_2)\n    tag_21:\n      dup1\n      0x15533a27\n      eq\n      tag_3\n      jumpi\n      dup1\n      0x333f3dd0\n      eq\n      tag_4\n      jumpi\n      dup1\n      0x3779643f\n      eq\n      tag_5\n      jumpi\n      dup1\n      0x50b492ba\n      eq\n      tag_6\n      jumpi\n    tag_2:\n      0x00\n      dup1\n      revert\n        /* \"contracts/FakeProdId.sol\":1869:2293  function addSupplier(string memory name) public returns (uint){\r... */\n    tag_3:\n      tag_22\n      0x04\n      dup1\n      calldatasize\n      sub\n      dup2\n      add\n      swap1\n      tag_23\n      swap2\n      swap1\n      tag_24\n      jump\t// in\n    tag_23:\n      tag_25\n      jump\t// in\n    tag_22:\n      mload(0x40)\n      tag_26\n      swap2\n      swap1\n      tag_27\n      jump\t// in\n    tag_26:\n      mload(0x40)\n      dup1\n      swap2\n      sub\n      swap1\n      return\n        /* \"contracts/FakeProdId.sol\":3561:3705  function getdistributorDetails(uint distributorId) public view returns (Distributor memory){\r... */\n    tag_4:\n      tag_28\n      0x04\n      dup1\n      calldatasize\n      sub\n      dup2\n      add\n      swap1\n      tag_29\n      swap2\n      swap1\n      tag_30\n      jump\t// in\n    tag_29:\n      tag_31\n      jump\t// in\n    tag_28:\n      mload(0x40)\n      tag_32\n      swap2\n      swap1\n      tag_33\n      jump\t// in\n    tag_32:\n      mload(0x40)\n      dup1\n      swap2\n      sub\n      swap1\n      return\n        /* \"contracts/FakeProdId.sol\":2301:2430  function getsupplierDetails(uint supplierId) public view returns (Supplier memory){\r... */\n    tag_5:\n      tag_34\n      0x04\n      dup1\n      calldatasize\n      sub\n      dup2\n      add\n      swap1\n      tag_35\n      swap2\n      swap1\n      tag_30\n      jump\t// in\n    tag_35:\n      tag_36\n      jump\t// in\n    tag_34:\n      mload(0x40)\n      tag_37\n      swap2\n      swap1\n      tag_38\n      jump\t// in\n    tag_37:\n      mload(0x40)\n      dup1\n      swap2\n      sub\n      swap1\n      return\n        /* \"contracts/FakeProdId.sol\":1088:1136  mapping(uint => Distributor) public distributors */\n    tag_6:\n      tag_39\n      0x04\n      dup1\n      calldatasize\n      sub\n      dup2\n      add\n      swap1\n      tag_40\n      swap2\n      swap1\n      tag_30\n      jump\t// in\n    tag_40:\n      tag_41\n      jump\t// in\n    tag_39:\n      mload(0x40)\n      tag_42\n      swap4\n      swap3\n      swap2\n      swap1\n      tag_43\n      jump\t// in\n    tag_42:\n      mload(0x40)\n      dup1\n      swap2\n      sub\n      swap1\n      return\n        /* \"contracts/FakeProdId.sol\":909:949  mapping(uint => Product) public products */\n    tag_7:\n      tag_44\n      0x04\n      dup1\n      calldatasize\n      sub\n      dup2\n      add\n      swap1\n      tag_45\n      swap2\n      swap1\n      tag_30\n      jump\t// in\n    tag_45:\n      tag_46\n      jump\t// in\n    tag_44:\n      mload(0x40)\n      tag_47\n      swap7\n      swap6\n      swap5\n      swap4\n      swap3\n      swap2\n      swap1\n      tag_48\n      jump\t// in\n    tag_47:\n      mload(0x40)\n      dup1\n      swap2\n      sub\n      swap1\n      return\n        /* \"contracts/FakeProdId.sol\":3083:3549  function addDistributor(string memory name) public returns (uint){\r... */\n    tag_8:\n      tag_49\n      0x04\n      dup1\n      calldatasize\n      sub\n      dup2\n      add\n      swap1\n      tag_50\n      swap2\n      swap1\n      tag_24\n      jump\t// in\n    tag_50:\n      tag_51\n      jump\t// in\n    tag_49:\n      mload(0x40)\n      tag_52\n      swap2\n      swap1\n      tag_27\n      jump\t// in\n    tag_52:\n      mload(0x40)\n      dup1\n      swap2\n      sub\n      swap1\n      return\n        /* \"contracts/FakeProdId.sol\":1143:1185  mapping(uint => Retailer) public retailers */\n    tag_9:\n      tag_53\n      0x04\n      dup1\n      calldatasize\n      sub\n      dup2\n      add\n      swap1\n      tag_54\n      swap2\n      swap1\n      tag_30\n      jump\t// in\n    tag_54:\n      tag_55\n      jump\t// in\n    tag_53:\n      mload(0x40)\n      tag_56\n      swap3\n      swap2\n      swap1\n      tag_57\n      jump\t// in\n    tag_56:\n      mload(0x40)\n      dup1\n      swap2\n      sub\n      swap1\n      return\n        /* \"contracts/FakeProdId.sol\":1194:1736  function addProduct(string memory name,uint price,string memory description) public{\r... */\n    tag_10:\n      tag_58\n      0x04\n      dup1\n      calldatasize\n      sub\n      dup2\n      add\n      swap1\n      tag_59\n      swap2\n      swap1\n      tag_60\n      jump\t// in\n    tag_59:\n      tag_61\n      jump\t// in\n    tag_58:\n      stop\n        /* \"contracts/FakeProdId.sol\":2438:2918  function addManufacturer(string memory name) public returns (uint){\r... */\n    tag_11:\n      tag_62\n      0x04\n      dup1\n      calldatasize\n      sub\n      dup2\n      add\n      swap1\n      tag_63\n      swap2\n      swap1\n      tag_24\n      jump\t// in\n    tag_63:\n      tag_64\n      jump\t// in\n    tag_62:\n      mload(0x40)\n      tag_65\n      swap2\n      swap1\n      tag_27\n      jump\t// in\n    tag_65:\n      mload(0x40)\n      dup1\n      swap2\n      sub\n      swap1\n      return\n        /* \"contracts/FakeProdId.sol\":1031:1081  mapping(uint => Manufacturer) public manufacturers */\n    tag_12:\n      tag_66\n      0x04\n      dup1\n      calldatasize\n      sub\n      dup2\n      add\n      swap1\n      tag_67\n      swap2\n      swap1\n      tag_30\n      jump\t// in\n    tag_67:\n      tag_68\n      jump\t// in\n    tag_66:\n      mload(0x40)\n      tag_69\n      swap4\n      swap3\n      swap2\n      swap1\n      tag_43\n      jump\t// in\n    tag_69:\n      mload(0x40)\n      dup1\n      swap2\n      sub\n      swap1\n      return\n        /* \"contracts/FakeProdId.sol\":3713:4103  function addRetailer(string memory name) public returns (uint){\r... */\n    tag_13:\n      tag_70\n      0x04\n      dup1\n      calldatasize\n      sub\n      dup2\n      add\n      swap1\n      tag_71\n      swap2\n      swap1\n      tag_24\n      jump\t// in\n    tag_71:\n      tag_72\n      jump\t// in\n    tag_70:\n      mload(0x40)\n      tag_73\n      swap2\n      swap1\n      tag_27\n      jump\t// in\n    tag_73:\n      mload(0x40)\n      dup1\n      swap2\n      sub\n      swap1\n      return\n        /* \"contracts/FakeProdId.sol\":1744:1861  function getProduct(uint productId) public view returns (Product memory){\r... */\n    tag_14:\n      tag_74\n      0x04\n      dup1\n      calldatasize\n      sub\n      dup2\n      add\n      swap1\n      tag_75\n      swap2\n      swap1\n      tag_30\n      jump\t// in\n    tag_75:\n      tag_76\n      jump\t// in\n    tag_74:\n      mload(0x40)\n      tag_77\n      swap2\n      swap1\n      tag_78\n      jump\t// in\n    tag_77:\n      mload(0x40)\n      dup1\n      swap2\n      sub\n      swap1\n      return\n        /* \"contracts/FakeProdId.sol\":2926:3075  function getmanufacturerDetails(uint manufacturerId) public view returns (Manufacturer memory){\r... */\n    tag_15:\n      tag_79\n      0x04\n      dup1\n      calldatasize\n      sub\n      dup2\n      add\n      swap1\n      tag_80\n      swap2\n      swap1\n      tag_30\n      jump\t// in\n    tag_80:\n      tag_81\n      jump\t// in\n    tag_79:\n      mload(0x40)\n      tag_82\n      swap2\n      swap1\n      tag_83\n      jump\t// in\n    tag_82:\n      mload(0x40)\n      dup1\n      swap2\n      sub\n      swap1\n      return\n        /* \"contracts/FakeProdId.sol\":4111:4240  function getretailerDetails(uint retailerId) public view returns (Retailer memory){\r... */\n    tag_16:\n      tag_84\n      0x04\n      dup1\n      calldatasize\n      sub\n      dup2\n      add\n      swap1\n      tag_85\n      swap2\n      swap1\n      tag_30\n      jump\t// in\n    tag_85:\n      tag_86\n      jump\t// in\n    tag_84:\n      mload(0x40)\n      tag_87\n      swap2\n      swap1\n      tag_88\n      jump\t// in\n    tag_87:\n      mload(0x40)\n      dup1\n      swap2\n      sub\n      swap1\n      return\n        /* \"contracts/FakeProdId.sol\":982:1024  mapping(uint => Supplier) public suppliers */\n    tag_17:\n      tag_89\n      0x04\n      dup1\n      calldatasize\n      sub\n      dup2\n      add\n      swap1\n      tag_90\n      swap2\n      swap1\n      tag_30\n      jump\t// in\n    tag_90:\n      tag_91\n      jump\t// in\n    tag_89:\n      mload(0x40)\n      tag_92\n      swap4\n      swap3\n      swap2\n      swap1\n      tag_43\n      jump\t// in\n    tag_92:\n      mload(0x40)\n      dup1\n      swap2\n      sub\n      swap1\n      return\n        /* \"contracts/FakeProdId.sol\":4248:4337  function transferOwnership(uint ProductId,uint curOwnerId,uint newOwnerId) public{\r... */\n    tag_18:\n      tag_93\n      0x04\n      dup1\n      calldatasize\n      sub\n      dup2\n      add\n      swap1\n      tag_94\n      swap2\n      swap1\n      tag_95\n      jump\t// in\n    tag_94:\n      tag_96\n      jump\t// in\n    tag_93:\n      stop\n        /* \"contracts/FakeProdId.sol\":1869:2293  function addSupplier(string memory name) public returns (uint){\r... */\n    tag_25:\n        /* \"contracts/FakeProdId.sol\":1926:1930  uint */\n      0x00\n        /* \"contracts/FakeProdId.sol\":1942:1969  Supplier memory newSupplier */\n      tag_98\n      tag_99\n      jump\t// in\n    tag_98:\n        /* \"contracts/FakeProdId.sol\":2029:2033  name */\n      dup3\n        /* \"contracts/FakeProdId.sol\":2034:2049  block.timestamp */\n      timestamp\n        /* \"contracts/FakeProdId.sol\":2050:2066  block.difficulty */\n      difficulty\n        /* \"contracts/FakeProdId.sol\":2018:2067  abi.encode(name,block.timestamp,block.difficulty) */\n      add(0x20, mload(0x40))\n      tag_100\n      swap4\n      swap3\n      swap2\n      swap1\n      tag_101\n      jump\t// in\n    tag_100:\n      mload(0x40)\n      0x20\n      dup2\n      dup4\n      sub\n      sub\n      dup2\n      mstore\n      swap1\n      0x40\n      mstore\n        /* \"contracts/FakeProdId.sol\":2008:2068  keccak256(abi.encode(name,block.timestamp,block.difficulty)) */\n      dup1\n      mload\n      swap1\n      0x20\n      add\n      keccak256\n        /* \"contracts/FakeProdId.sol\":2003:2069  uint(keccak256(abi.encode(name,block.timestamp,block.difficulty))) */\n      0x00\n      shr\n        /* \"contracts/FakeProdId.sol\":1980:1991  newSupplier */\n      dup2\n        /* \"contracts/FakeProdId.sol\":1980:2002  newSupplier.supplierId */\n      0x00\n      add\n        /* \"contracts/FakeProdId.sol\":1980:2069  newSupplier.supplierId=uint(keccak256(abi.encode(name,block.timestamp,block.difficulty))) */\n      dup2\n      dup2\n      mstore\n      pop\n      pop\n        /* \"contracts/FakeProdId.sol\":2080:2103  newSupplier.kind = \"SU\" */\n      mload(0x40)\n      dup1\n      0x40\n      add\n      0x40\n      mstore\n      dup1\n      0x02\n      dup2\n      mstore\n      0x20\n      add\n      0x5355000000000000000000000000000000000000000000000000000000000000\n      dup2\n      mstore\n      pop\n        /* \"contracts/FakeProdId.sol\":2080:2091  newSupplier */\n      dup2\n        /* \"contracts/FakeProdId.sol\":2080:2096  newSupplier.kind */\n      0x20\n      add\n        /* \"contracts/FakeProdId.sol\":2080:2103  newSupplier.kind = \"SU\" */\n      dup2\n      swap1\n      mstore\n      pop\n        /* \"contracts/FakeProdId.sol\":2133:2137  name */\n      dup3\n        /* \"contracts/FakeProdId.sol\":2114:2125  newSupplier */\n      dup2\n        /* \"contracts/FakeProdId.sol\":2114:2130  newSupplier.name */\n      0x40\n      add\n        /* \"contracts/FakeProdId.sol\":2114:2137  newSupplier.name = name */\n      dup2\n      swap1\n      mstore\n      pop\n        /* \"contracts/FakeProdId.sol\":2185:2186  0 */\n      0x00\n        /* \"contracts/FakeProdId.sol\":2174:2187  new uint[](0) */\n      0xffffffffffffffff\n      dup2\n      gt\n      iszero\n      tag_102\n      jumpi\n      tag_103\n      tag_104\n      jump\t// in\n    tag_103:\n    tag_102:\n      mload(0x40)\n      swap1\n      dup1\n      dup3\n      mstore\n      dup1\n      0x20\n      mul\n      0x20\n      add\n      dup3\n      add\n      0x40\n      mstore\n      dup1\n      iszero\n      tag_105\n      jumpi\n      dup2\n      0x20\n      add\n      0x20\n      dup3\n      mul\n      dup1\n      calldatasize\n      dup4\n      calldatacopy\n      dup1\n      dup3\n      add\n      swap2\n      pop\n      pop\n      swap1\n      pop\n    tag_105:\n      pop\n        /* \"contracts/FakeProdId.sol\":2148:2159  newSupplier */\n      dup2\n        /* \"contracts/FakeProdId.sol\":2148:2171  newSupplier.productList */\n      0x60\n      add\n        /* \"contracts/FakeProdId.sol\":2148:2187  newSupplier.productList = new uint[](0) */\n      dup2\n      swap1\n      mstore\n      pop\n        /* \"contracts/FakeProdId.sol\":2234:2245  newSupplier */\n      dup1\n        /* \"contracts/FakeProdId.sol\":2198:2207  suppliers */\n      0x03\n        /* \"contracts/FakeProdId.sol\":2198:2231  suppliers[newSupplier.supplierId] */\n      0x00\n        /* \"contracts/FakeProdId.sol\":2208:2219  newSupplier */\n      dup4\n        /* \"contracts/FakeProdId.sol\":2208:2230  newSupplier.supplierId */\n      0x00\n      add\n      mload\n        /* \"contracts/FakeProdId.sol\":2198:2231  suppliers[newSupplier.supplierId] */\n      dup2\n      mstore\n      0x20\n      add\n      swap1\n      dup2\n      mstore\n      0x20\n      add\n      0x00\n      keccak256\n        /* \"contracts/FakeProdId.sol\":2198:2245  suppliers[newSupplier.supplierId] = newSupplier */\n      0x00\n      dup3\n      add\n      mload\n      dup2\n      0x00\n      add\n      sstore\n      0x20\n      dup3\n      add\n      mload\n      dup2\n      0x01\n      add\n      swap1\n      dup1\n      mload\n      swap1\n      0x20\n      add\n      swap1\n      tag_106\n      swap3\n      swap2\n      swap1\n      tag_107\n      jump\t// in\n    tag_106:\n      pop\n      0x40\n      dup3\n      add\n      mload\n      dup2\n      0x02\n      add\n      swap1\n      dup1\n      mload\n      swap1\n      0x20\n      add\n      swap1\n      tag_108\n      swap3\n      swap2\n      swap1\n      tag_107\n      jump\t// in\n    tag_108:\n      pop\n      0x60\n      dup3\n      add\n      mload\n      dup2\n      0x03\n      add\n      swap1\n      dup1\n      mload\n      swap1\n      0x20\n      add\n      swap1\n      tag_109\n      swap3\n      swap2\n      swap1\n      tag_110\n      jump\t// in\n    tag_109:\n      pop\n      swap1\n      pop\n      pop\n        /* \"contracts/FakeProdId.sol\":2263:2274  newSupplier */\n      dup1\n        /* \"contracts/FakeProdId.sol\":2263:2285  newSupplier.supplierId */\n      0x00\n      add\n      mload\n        /* \"contracts/FakeProdId.sol\":2256:2285  return newSupplier.supplierId */\n      swap2\n      pop\n      pop\n        /* \"contracts/FakeProdId.sol\":1869:2293  function addSupplier(string memory name) public returns (uint){\r... */\n      swap2\n      swap1\n      pop\n      jump\t// out\n        /* \"contracts/FakeProdId.sol\":3561:3705  function getdistributorDetails(uint distributorId) public view returns (Distributor memory){\r... */\n    tag_31:\n        /* \"contracts/FakeProdId.sol\":3633:3651  Distributor memory */\n      tag_111\n      tag_112\n      jump\t// in\n    tag_111:\n        /* \"contracts/FakeProdId.sol\":3670:3682  distributors */\n      0x05\n        /* \"contracts/FakeProdId.sol\":3670:3697  distributors[distributorId] */\n      0x00\n        /* \"contracts/FakeProdId.sol\":3683:3696  distributorId */\n      dup4\n        /* \"contracts/FakeProdId.sol\":3670:3697  distributors[distributorId] */\n      dup2\n      mstore\n      0x20\n      add\n      swap1\n      dup2\n      mstore\n      0x20\n      add\n      0x00\n      keccak256\n        /* \"contracts/FakeProdId.sol\":3663:3697  return distributors[distributorId] */\n      mload(0x40)\n      dup1\n      0x80\n      add\n      0x40\n      mstore\n      swap1\n      dup2\n      0x00\n      dup3\n      add\n      sload\n      dup2\n      mstore\n      0x20\n      add\n      0x01\n      dup3\n      add\n      dup1\n      sload\n      tag_114\n      swap1\n      tag_115\n      jump\t// in\n    tag_114:\n      dup1\n      0x1f\n      add\n      0x20\n      dup1\n      swap2\n      div\n      mul\n      0x20\n      add\n      mload(0x40)\n      swap1\n      dup2\n      add\n      0x40\n      mstore\n      dup1\n      swap3\n      swap2\n      swap1\n      dup2\n      dup2\n      mstore\n      0x20\n      add\n      dup3\n      dup1\n      sload\n      tag_116\n      swap1\n      tag_115\n      jump\t// in\n    tag_116:\n      dup1\n      iszero\n      tag_117\n      jumpi\n      dup1\n      0x1f\n      lt\n      tag_118\n      jumpi\n      0x0100\n      dup1\n      dup4\n      sload\n      div\n      mul\n      dup4\n      mstore\n      swap2\n      0x20\n      add\n      swap2\n      jump(tag_117)\n    tag_118:\n      dup3\n      add\n      swap2\n      swap1\n      0x00\n      mstore\n      keccak256(0x00, 0x20)\n      swap1\n    tag_119:\n      dup2\n      sload\n      dup2\n      mstore\n      swap1\n      0x01\n      add\n      swap1\n      0x20\n      add\n      dup1\n      dup4\n      gt\n      tag_119\n      jumpi\n      dup3\n      swap1\n      sub\n      0x1f\n      and\n      dup3\n      add\n      swap2\n    tag_117:\n      pop\n      pop\n      pop\n      pop\n      pop\n      dup2\n      mstore\n      0x20\n      add\n      0x02\n      dup3\n      add\n      dup1\n      sload\n      tag_120\n      swap1\n      tag_115\n      jump\t// in\n    tag_120:\n      dup1\n      0x1f\n      add\n      0x20\n      dup1\n      swap2\n      div\n      mul\n      0x20\n      add\n      mload(0x40)\n      swap1\n      dup2\n      add\n      0x40\n      mstore\n      dup1\n      swap3\n      swap2\n      swap1\n      dup2\n      dup2\n      mstore\n      0x20\n      add\n      dup3\n      dup1\n      sload\n      tag_121\n      swap1\n      tag_115\n      jump\t// in\n    tag_121:\n      dup1\n      iszero\n      tag_122\n      jumpi\n      dup1\n      0x1f\n      lt\n      tag_123\n      jumpi\n      0x0100\n      dup1\n      dup4\n      sload\n      div\n      mul\n      dup4\n      mstore\n      swap2\n      0x20\n      add\n      swap2\n      jump(tag_122)\n    tag_123:\n      dup3\n      add\n      swap2\n      swap1\n      0x00\n      mstore\n      keccak256(0x00, 0x20)\n      swap1\n    tag_124:\n      dup2\n      sload\n      dup2\n      mstore\n      swap1\n      0x01\n      add\n      swap1\n      0x20\n      add\n      dup1\n      dup4\n      gt\n      tag_124\n      jumpi\n      dup3\n      swap1\n      sub\n      0x1f\n      and\n      dup3\n      add\n      swap2\n    tag_122:\n      pop\n      pop\n      pop\n      pop\n      pop\n      dup2\n      mstore\n      0x20\n      add\n      0x03\n      dup3\n      add\n      dup1\n      sload\n      dup1\n      0x20\n      mul\n      0x20\n      add\n      mload(0x40)\n      swap1\n      dup2\n      add\n      0x40\n      mstore\n      dup1\n      swap3\n      swap2\n      swap1\n      dup2\n      dup2\n      mstore\n      0x20\n      add\n      dup3\n      dup1\n      sload\n      dup1\n      iszero\n      tag_125\n      jumpi\n      0x20\n      mul\n      dup3\n      add\n      swap2\n      swap1\n      0x00\n      mstore\n      keccak256(0x00, 0x20)\n      swap1\n    tag_126:\n      dup2\n      sload\n      dup2\n      mstore\n      0x20\n      add\n      swap1\n      0x01\n      add\n      swap1\n      dup1\n      dup4\n      gt\n      tag_126\n      jumpi\n    tag_125:\n      pop\n      pop\n      pop\n      pop\n      pop\n      dup2\n      mstore\n      pop\n      pop\n      swap1\n      pop\n        /* \"contracts/FakeProdId.sol\":3561:3705  function getdistributorDetails(uint distributorId) public view returns (Distributor memory){\r... */\n      swap2\n      swap1\n      pop\n      jump\t// out\n        /* \"contracts/FakeProdId.sol\":2301:2430  function getsupplierDetails(uint supplierId) public view returns (Supplier memory){\r... */\n    tag_36:\n        /* \"contracts/FakeProdId.sol\":2367:2382  Supplier memory */\n      tag_127\n      tag_99\n      jump\t// in\n    tag_127:\n        /* \"contracts/FakeProdId.sol\":2401:2410  suppliers */\n      0x03\n        /* \"contracts/FakeProdId.sol\":2401:2422  suppliers[supplierId] */\n      0x00\n        /* \"contracts/FakeProdId.sol\":2411:2421  supplierId */\n      dup4\n        /* \"contracts/FakeProdId.sol\":2401:2422  suppliers[supplierId] */\n      dup2\n      mstore\n      0x20\n      add\n      swap1\n      dup2\n      mstore\n      0x20\n      add\n      0x00\n      keccak256\n        /* \"contracts/FakeProdId.sol\":2394:2422  return suppliers[supplierId] */\n      mload(0x40)\n      dup1\n      0x80\n      add\n      0x40\n      mstore\n      swap1\n      dup2\n      0x00\n      dup3\n      add\n      sload\n      dup2\n      mstore\n      0x20\n      add\n      0x01\n      dup3\n      add\n      dup1\n      sload\n      tag_129\n      swap1\n      tag_115\n      jump\t// in\n    tag_129:\n      dup1\n      0x1f\n      add\n      0x20\n      dup1\n      swap2\n      div\n      mul\n      0x20\n      add\n      mload(0x40)\n      swap1\n      dup2\n      add\n      0x40\n      mstore\n      dup1\n      swap3\n      swap2\n      swap1\n      dup2\n      dup2\n      mstore\n      0x20\n      add\n      dup3\n      dup1\n      sload\n      tag_130\n      swap1\n      tag_115\n      jump\t// in\n    tag_130:\n      dup1\n      iszero\n      tag_131\n      jumpi\n      dup1\n      0x1f\n      lt\n      tag_132\n      jumpi\n      0x0100\n      dup1\n      dup4\n      sload\n      div\n      mul\n      dup4\n      mstore\n      swap2\n      0x20\n      add\n      swap2\n      jump(tag_131)\n    tag_132:\n      dup3\n      add\n      swap2\n      swap1\n      0x00\n      mstore\n      keccak256(0x00, 0x20)\n      swap1\n    tag_133:\n      dup2\n      sload\n      dup2\n      mstore\n      swap1\n      0x01\n      add\n      swap1\n      0x20\n      add\n      dup1\n      dup4\n      gt\n      tag_133\n      jumpi\n      dup3\n      swap1\n      sub\n      0x1f\n      and\n      dup3\n      add\n      swap2\n    tag_131:\n      pop\n      pop\n      pop\n      pop\n      pop\n      dup2\n      mstore\n      0x20\n      add\n      0x02\n      dup3\n      add\n      dup1\n      sload\n      tag_134\n      swap1\n      tag_115\n      jump\t// in\n    tag_134:\n      dup1\n      0x1f\n      add\n      0x20\n      dup1\n      swap2\n      div\n      mul\n      0x20\n      add\n      mload(0x40)\n      swap1\n      dup2\n      add\n      0x40\n      mstore\n      dup1\n      swap3\n      swap2\n      swap1\n      dup2\n      dup2\n      mstore\n      0x20\n      add\n      dup3\n      dup1\n      sload\n      tag_135\n      swap1\n      tag_115\n      jump\t// in\n    tag_135:\n      dup1\n      iszero\n      tag_136\n      jumpi\n      dup1\n      0x1f\n      lt\n      tag_137\n      jumpi\n      0x0100\n      dup1\n      dup4\n      sload\n      div\n      mul\n      dup4\n      mstore\n      swap2\n      0x20\n      add\n      swap2\n      jump(tag_136)\n    tag_137:\n      dup3\n      add\n      swap2\n      swap1\n      0x00\n      mstore\n      keccak256(0x00, 0x20)\n      swap1\n    tag_138:\n      dup2\n      sload\n      dup2\n      mstore\n      swap1\n      0x01\n      add\n      swap1\n      0x20\n      add\n      dup1\n      dup4\n      gt\n      tag_138\n      jumpi\n      dup3\n      swap1\n      sub\n      0x1f\n      and\n      dup3\n      add\n      swap2\n    tag_136:\n      pop\n      pop\n      pop\n      pop\n      pop\n      dup2\n      mstore\n      0x20\n      add\n      0x03\n      dup3\n      add\n      dup1\n      sload\n      dup1\n      0x20\n      mul\n      0x20\n      add\n      mload(0x40)\n      swap1\n      dup2\n      add\n      0x40\n      mstore\n      dup1\n      swap3\n      swap2\n      swap1\n      dup2\n      dup2\n      mstore\n      0x20\n      add\n      dup3\n      dup1\n      sload\n      dup1\n      iszero\n      tag_139\n      jumpi\n      0x20\n      mul\n      dup3\n      add\n      swap2\n      swap1\n      0x00\n      mstore\n      keccak256(0x00, 0x20)\n      swap1\n    tag_140:\n      dup2\n      sload\n      dup2\n      mstore\n      0x20\n      add\n      swap1\n      0x01\n      add\n      swap1\n      dup1\n      dup4\n      gt\n      tag_140\n      jumpi\n    tag_139:\n      pop\n      pop\n      pop\n      pop\n      pop\n      dup2\n      mstore\n      pop\n      pop\n      swap1\n      pop\n        /* \"contracts/FakeProdId.sol\":2301:2430  function getsupplierDetails(uint supplierId) public view returns (Supplier memory){\r... */\n      swap2\n      swap1\n      pop\n      jump\t// out\n        /* \"contracts/FakeProdId.sol\":1088:1136  mapping(uint => Distributor) public distributors */\n    tag_41:\n      mstore(0x20, 0x05)\n      dup1\n      0x00\n      mstore\n      keccak256(0x00, 0x40)\n      0x00\n      swap2\n      pop\n      swap1\n      pop\n      dup1\n      0x00\n      add\n      sload\n      swap1\n      dup1\n      0x01\n      add\n      dup1\n      sload\n      tag_141\n      swap1\n      tag_115\n      jump\t// in\n    tag_141:\n      dup1\n      0x1f\n      add\n      0x20\n      dup1\n      swap2\n      div\n      mul\n      0x20\n      add\n      mload(0x40)\n      swap1\n      dup2\n      add\n      0x40\n      mstore\n      dup1\n      swap3\n      swap2\n      swap1\n      dup2\n      dup2\n      mstore\n      0x20\n      add\n      dup3\n      dup1\n      sload\n      tag_142\n      swap1\n      tag_115\n      jump\t// in\n    tag_142:\n      dup1\n      iszero\n      tag_143\n      jumpi\n      dup1\n      0x1f\n      lt\n      tag_144\n      jumpi\n      0x0100\n      dup1\n      dup4\n      sload\n      div\n      mul\n      dup4\n      mstore\n      swap2\n      0x20\n      add\n      swap2\n      jump(tag_143)\n    tag_144:\n      dup3\n      add\n      swap2\n      swap1\n      0x00\n      mstore\n      keccak256(0x00, 0x20)\n      swap1\n    tag_145:\n      dup2\n      sload\n      dup2\n      mstore\n      swap1\n      0x01\n      add\n      swap1\n      0x20\n      add\n      dup1\n      dup4\n      gt\n      tag_145\n      jumpi\n      dup3\n      swap1\n      sub\n      0x1f\n      and\n      dup3\n      add\n      swap2\n    tag_143:\n      pop\n      pop\n      pop\n      pop\n      pop\n      swap1\n      dup1\n      0x02\n      add\n      dup1\n      sload\n      tag_146\n      swap1\n      tag_115\n      jump\t// in\n    tag_146:\n      dup1\n      0x1f\n      add\n      0x20\n      dup1\n      swap2\n      div\n      mul\n      0x20\n      add\n      mload(0x40)\n      swap1\n      dup2\n      add\n      0x40\n      mstore\n      dup1\n      swap3\n      swap2\n      swap1\n      dup2\n      dup2\n      mstore\n      0x20\n      add\n      dup3\n      dup1\n      sload\n      tag_147\n      swap1\n      tag_115\n      jump\t// in\n    tag_147:\n      dup1\n      iszero\n      tag_148\n      jumpi\n      dup1\n      0x1f\n      lt\n      tag_149\n      jumpi\n      0x0100\n      dup1\n      dup4\n      sload\n      div\n      mul\n      dup4\n      mstore\n      swap2\n      0x20\n      add\n      swap2\n      jump(tag_148)\n    tag_149:\n      dup3\n      add\n      swap2\n      swap1\n      0x00\n      mstore\n      keccak256(0x00, 0x20)\n      swap1\n    tag_150:\n      dup2\n      sload\n      dup2\n      mstore\n      swap1\n      0x01\n      add\n      swap1\n      0x20\n      add\n      dup1\n      dup4\n      gt\n      tag_150\n      jumpi\n      dup3\n      swap1\n      sub\n      0x1f\n      and\n      dup3\n      add\n      swap2\n    tag_148:\n      pop\n      pop\n      pop\n      pop\n      pop\n      swap1\n      pop\n      dup4\n      jump\t// out\n        /* \"contracts/FakeProdId.sol\":909:949  mapping(uint => Product) public products */\n    tag_46:\n      mstore(0x20, 0x01)\n      dup1\n      0x00\n      mstore\n      keccak256(0x00, 0x40)\n      0x00\n      swap2\n      pop\n      swap1\n      pop\n      dup1\n      0x00\n      add\n      sload\n      swap1\n      dup1\n      0x01\n      add\n      dup1\n      sload\n      tag_151\n      swap1\n      tag_115\n      jump\t// in\n    tag_151:\n      dup1\n      0x1f\n      add\n      0x20\n      dup1\n      swap2\n      div\n      mul\n      0x20\n      add\n      mload(0x40)\n      swap1\n      dup2\n      add\n      0x40\n      mstore\n      dup1\n      swap3\n      swap2\n      swap1\n      dup2\n      dup2\n      mstore\n      0x20\n      add\n      dup3\n      dup1\n      sload\n      tag_152\n      swap1\n      tag_115\n      jump\t// in\n    tag_152:\n      dup1\n      iszero\n      tag_153\n      jumpi\n      dup1\n      0x1f\n      lt\n      tag_154\n      jumpi\n      0x0100\n      dup1\n      dup4\n      sload\n      div\n      mul\n      dup4\n      mstore\n      swap2\n      0x20\n      add\n      swap2\n      jump(tag_153)\n    tag_154:\n      dup3\n      add\n      swap2\n      swap1\n      0x00\n      mstore\n      keccak256(0x00, 0x20)\n      swap1\n    tag_155:\n      dup2\n      sload\n      dup2\n      mstore\n      swap1\n      0x01\n      add\n      swap1\n      0x20\n      add\n      dup1\n      dup4\n      gt\n      tag_155\n      jumpi\n      dup3\n      swap1\n      sub\n      0x1f\n      and\n      dup3\n      add\n      swap2\n    tag_153:\n      pop\n      pop\n      pop\n      pop\n      pop\n      swap1\n      dup1\n      0x02\n      add\n      sload\n      swap1\n      dup1\n      0x03\n      add\n      dup1\n      sload\n      tag_156\n      swap1\n      tag_115\n      jump\t// in\n    tag_156:\n      dup1\n      0x1f\n      add\n      0x20\n      dup1\n      swap2\n      div\n      mul\n      0x20\n      add\n      mload(0x40)\n      swap1\n      dup2\n      add\n      0x40\n      mstore\n      dup1\n      swap3\n      swap2\n      swap1\n      dup2\n      dup2\n      mstore\n      0x20\n      add\n      dup3\n      dup1\n      sload\n      tag_157\n      swap1\n      tag_115\n      jump\t// in\n    tag_157:\n      dup1\n      iszero\n      tag_158\n      jumpi\n      dup1\n      0x1f\n      lt\n      tag_159\n      jumpi\n      0x0100\n      dup1\n      dup4\n      sload\n      div\n      mul\n      dup4\n      mstore\n      swap2\n      0x20\n      add\n      swap2\n      jump(tag_158)\n    tag_159:\n      dup3\n      add\n      swap2\n      swap1\n      0x00\n      mstore\n      keccak256(0x00, 0x20)\n      swap1\n    tag_160:\n      dup2\n      sload\n      dup2\n      mstore\n      swap1\n      0x01\n      add\n      swap1\n      0x20\n      add\n      dup1\n      dup4\n      gt\n      tag_160\n      jumpi\n      dup3\n      swap1\n      sub\n      0x1f\n      and\n      dup3\n      add\n      swap2\n    tag_158:\n      pop\n      pop\n      pop\n      pop\n      pop\n      swap1\n      dup1\n      0x04\n      add\n      dup1\n      sload\n      tag_161\n      swap1\n      tag_115\n      jump\t// in\n    tag_161:\n      dup1\n      0x1f\n      add\n      0x20\n      dup1\n      swap2\n      div\n      mul\n      0x20\n      add\n      mload(0x40)\n      swap1\n      dup2\n      add\n      0x40\n      mstore\n      dup1\n      swap3\n      swap2\n      swap1\n      dup2\n      dup2\n      mstore\n      0x20\n      add\n      dup3\n      dup1\n      sload\n      tag_162\n      swap1\n      tag_115\n      jump\t// in\n    tag_162:\n      dup1\n      iszero\n      tag_163\n      jumpi\n      dup1\n      0x1f\n      lt\n      tag_164\n      jumpi\n      0x0100\n      dup1\n      dup4\n      sload\n      div\n      mul\n      dup4\n      mstore\n      swap2\n      0x20\n      add\n      swap2\n      jump(tag_163)\n    tag_164:\n      dup3\n      add\n      swap2\n      swap1\n      0x00\n      mstore\n      keccak256(0x00, 0x20)\n      swap1\n    tag_165:\n      dup2\n      sload\n      dup2\n      mstore\n      swap1\n      0x01\n      add\n      swap1\n      0x20\n      add\n      dup1\n      dup4\n      gt\n      tag_165\n      jumpi\n      dup3\n      swap1\n      sub\n      0x1f\n      and\n      dup3\n      add\n      swap2\n    tag_163:\n      pop\n      pop\n      pop\n      pop\n      pop\n      swap1\n      dup1\n      0x05\n      add\n      sload\n      swap1\n      pop\n      dup7\n      jump\t// out\n        /* \"contracts/FakeProdId.sol\":3083:3549  function addDistributor(string memory name) public returns (uint){\r... */\n    tag_51:\n        /* \"contracts/FakeProdId.sol\":3143:3147  uint */\n      0x00\n        /* \"contracts/FakeProdId.sol\":3159:3192  Distributor memory newDistributor */\n      tag_167\n      tag_112\n      jump\t// in\n    tag_167:\n        /* \"contracts/FakeProdId.sol\":3258:3262  name */\n      dup3\n        /* \"contracts/FakeProdId.sol\":3263:3278  block.timestamp */\n      timestamp\n        /* \"contracts/FakeProdId.sol\":3279:3295  block.difficulty */\n      difficulty\n        /* \"contracts/FakeProdId.sol\":3247:3296  abi.encode(name,block.timestamp,block.difficulty) */\n      add(0x20, mload(0x40))\n      tag_168\n      swap4\n      swap3\n      swap2\n      swap1\n      tag_101\n      jump\t// in\n    tag_168:\n      mload(0x40)\n      0x20\n      dup2\n      dup4\n      sub\n      sub\n      dup2\n      mstore\n      swap1\n      0x40\n      mstore\n        /* \"contracts/FakeProdId.sol\":3237:3297  keccak256(abi.encode(name,block.timestamp,block.difficulty)) */\n      dup1\n      mload\n      swap1\n      0x20\n      add\n      keccak256\n        /* \"contracts/FakeProdId.sol\":3232:3298  uint(keccak256(abi.encode(name,block.timestamp,block.difficulty))) */\n      0x00\n      shr\n        /* \"contracts/FakeProdId.sol\":3203:3217  newDistributor */\n      dup2\n        /* \"contracts/FakeProdId.sol\":3203:3231  newDistributor.distributorId */\n      0x00\n      add\n        /* \"contracts/FakeProdId.sol\":3203:3298  newDistributor.distributorId=uint(keccak256(abi.encode(name,block.timestamp,block.difficulty))) */\n      dup2\n      dup2\n      mstore\n      pop\n      pop\n        /* \"contracts/FakeProdId.sol\":3309:3335  newDistributor.kind = \"DI\" */\n      mload(0x40)\n      dup1\n      0x40\n      add\n      0x40\n      mstore\n      dup1\n      0x02\n      dup2\n      mstore\n      0x20\n      add\n      0x4449000000000000000000000000000000000000000000000000000000000000\n      dup2\n      mstore\n      pop\n        /* \"contracts/FakeProdId.sol\":3309:3323  newDistributor */\n      dup2\n        /* \"contracts/FakeProdId.sol\":3309:3328  newDistributor.kind */\n      0x20\n      add\n        /* \"contracts/FakeProdId.sol\":3309:3335  newDistributor.kind = \"DI\" */\n      dup2\n      swap1\n      mstore\n      pop\n        /* \"contracts/FakeProdId.sol\":3368:3372  name */\n      dup3\n        /* \"contracts/FakeProdId.sol\":3346:3360  newDistributor */\n      dup2\n        /* \"contracts/FakeProdId.sol\":3346:3365  newDistributor.name */\n      0x40\n      add\n        /* \"contracts/FakeProdId.sol\":3346:3372  newDistributor.name = name */\n      dup2\n      swap1\n      mstore\n      pop\n        /* \"contracts/FakeProdId.sol\":3423:3424  0 */\n      0x00\n        /* \"contracts/FakeProdId.sol\":3412:3425  new uint[](0) */\n      0xffffffffffffffff\n      dup2\n      gt\n      iszero\n      tag_169\n      jumpi\n      tag_170\n      tag_104\n      jump\t// in\n    tag_170:\n    tag_169:\n      mload(0x40)\n      swap1\n      dup1\n      dup3\n      mstore\n      dup1\n      0x20\n      mul\n      0x20\n      add\n      dup3\n      add\n      0x40\n      mstore\n      dup1\n      iszero\n      tag_171\n      jumpi\n      dup2\n      0x20\n      add\n      0x20\n      dup3\n      mul\n      dup1\n      calldatasize\n      dup4\n      calldatacopy\n      dup1\n      dup3\n      add\n      swap2\n      pop\n      pop\n      swap1\n      pop\n    tag_171:\n      pop\n        /* \"contracts/FakeProdId.sol\":3383:3397  newDistributor */\n      dup2\n        /* \"contracts/FakeProdId.sol\":3383:3409  newDistributor.productList */\n      0x60\n      add\n        /* \"contracts/FakeProdId.sol\":3383:3425  newDistributor.productList = new uint[](0) */\n      dup2\n      swap1\n      mstore\n      pop\n        /* \"contracts/FakeProdId.sol\":3481:3495  newDistributor */\n      dup1\n        /* \"contracts/FakeProdId.sol\":3436:3448  distributors */\n      0x05\n        /* \"contracts/FakeProdId.sol\":3436:3478  distributors[newDistributor.distributorId] */\n      0x00\n        /* \"contracts/FakeProdId.sol\":3449:3463  newDistributor */\n      dup4\n        /* \"contracts/FakeProdId.sol\":3449:3477  newDistributor.distributorId */\n      0x00\n      add\n      mload\n        /* \"contracts/FakeProdId.sol\":3436:3478  distributors[newDistributor.distributorId] */\n      dup2\n      mstore\n      0x20\n      add\n      swap1\n      dup2\n      mstore\n      0x20\n      add\n      0x00\n      keccak256\n        /* \"contracts/FakeProdId.sol\":3436:3495  distributors[newDistributor.distributorId] = newDistributor */\n      0x00\n      dup3\n      add\n      mload\n      dup2\n      0x00\n      add\n      sstore\n      0x20\n      dup3\n      add\n      mload\n      dup2\n      0x01\n      add\n      swap1\n      dup1\n      mload\n      swap1\n      0x20\n      add\n      swap1\n      tag_172\n      swap3\n      swap2\n      swap1\n      tag_107\n      jump\t// in\n    tag_172:\n      pop\n      0x40\n      dup3\n      add\n      mload\n      dup2\n      0x02\n      add\n      swap1\n      dup1\n      mload\n      swap1\n      0x20\n      add\n      swap1\n      tag_173\n      swap3\n      swap2\n      swap1\n      tag_107\n      jump\t// in\n    tag_173:\n      pop\n      0x60\n      dup3\n      add\n      mload\n      dup2\n      0x03\n      add\n      swap1\n      dup1\n      mload\n      swap1\n      0x20\n      add\n      swap1\n      tag_174\n      swap3\n      swap2\n      swap1\n      tag_110\n      jump\t// in\n    tag_174:\n      pop\n      swap1\n      pop\n      pop\n        /* \"contracts/FakeProdId.sol\":3513:3527  newDistributor */\n      dup1\n        /* \"contracts/FakeProdId.sol\":3513:3541  newDistributor.distributorId */\n      0x00\n      add\n      mload\n        /* \"contracts/FakeProdId.sol\":3506:3541  return newDistributor.distributorId */\n      swap2\n      pop\n      pop\n        /* \"contracts/FakeProdId.sol\":3083:3549  function addDistributor(string memory name) public returns (uint){\r... */\n      swap2\n      swap1\n      pop\n      jump\t// out\n        /* \"contracts/FakeProdId.sol\":1143:1185  mapping(uint => Retailer) public retailers */\n    tag_55:\n      mstore(0x20, 0x06)\n      dup1\n      0x00\n      mstore\n      keccak256(0x00, 0x40)\n      0x00\n      swap2\n      pop\n      swap1\n      pop\n      dup1\n      0x00\n      add\n      sload\n      swap1\n      dup1\n      0x01\n      add\n      dup1\n      sload\n      tag_175\n      swap1\n      tag_115\n      jump\t// in\n    tag_175:\n      dup1\n      0x1f\n      add\n      0x20\n      dup1\n      swap2\n      div\n      mul\n      0x20\n      add\n      mload(0x40)\n      swap1\n      dup2\n      add\n      0x40\n      mstore\n      dup1\n      swap3\n      swap2\n      swap1\n      dup2\n      dup2\n      mstore\n      0x20\n      add\n      dup3\n      dup1\n      sload\n      tag_176\n      swap1\n      tag_115\n      jump\t// in\n    tag_176:\n      dup1\n      iszero\n      tag_177\n      jumpi\n      dup1\n      0x1f\n      lt\n      tag_178\n      jumpi\n      0x0100\n      dup1\n      dup4\n      sload\n      div\n      mul\n      dup4\n      mstore\n      swap2\n      0x20\n      add\n      swap2\n      jump(tag_177)\n    tag_178:\n      dup3\n      add\n      swap2\n      swap1\n      0x00\n      mstore\n      keccak256(0x00, 0x20)\n      swap1\n    tag_179:\n      dup2\n      sload\n      dup2\n      mstore\n      swap1\n      0x01\n      add\n      swap1\n      0x20\n      add\n      dup1\n      dup4\n      gt\n      tag_179\n      jumpi\n      dup3\n      swap1\n      sub\n      0x1f\n      and\n      dup3\n      add\n      swap2\n    tag_177:\n      pop\n      pop\n      pop\n      pop\n      pop\n      swap1\n      pop\n      dup3\n      jump\t// out\n        /* \"contracts/FakeProdId.sol\":1194:1736  function addProduct(string memory name,uint price,string memory description) public{\r... */\n    tag_61:\n        /* \"contracts/FakeProdId.sol\":1288:1313  Product memory newProduct */\n      tag_181\n      tag_182\n      jump\t// in\n    tag_181:\n        /* \"contracts/FakeProdId.sol\":1371:1375  name */\n      dup4\n        /* \"contracts/FakeProdId.sol\":1376:1391  block.timestamp */\n      timestamp\n        /* \"contracts/FakeProdId.sol\":1392:1408  block.difficulty */\n      difficulty\n        /* \"contracts/FakeProdId.sol\":1360:1409  abi.encode(name,block.timestamp,block.difficulty) */\n      add(0x20, mload(0x40))\n      tag_183\n      swap4\n      swap3\n      swap2\n      swap1\n      tag_101\n      jump\t// in\n    tag_183:\n      mload(0x40)\n      0x20\n      dup2\n      dup4\n      sub\n      sub\n      dup2\n      mstore\n      swap1\n      0x40\n      mstore\n        /* \"contracts/FakeProdId.sol\":1350:1410  keccak256(abi.encode(name,block.timestamp,block.difficulty)) */\n      dup1\n      mload\n      swap1\n      0x20\n      add\n      keccak256\n        /* \"contracts/FakeProdId.sol\":1345:1411  uint(keccak256(abi.encode(name,block.timestamp,block.difficulty))) */\n      0x00\n      shr\n        /* \"contracts/FakeProdId.sol\":1324:1334  newProduct */\n      dup2\n        /* \"contracts/FakeProdId.sol\":1324:1344  newProduct.productId */\n      0x00\n      add\n        /* \"contracts/FakeProdId.sol\":1324:1411  newProduct.productId=uint(keccak256(abi.encode(name,block.timestamp,block.difficulty))) */\n      dup2\n      dup2\n      mstore\n      pop\n      pop\n        /* \"contracts/FakeProdId.sol\":1440:1444  name */\n      dup4\n        /* \"contracts/FakeProdId.sol\":1422:1432  newProduct */\n      dup2\n        /* \"contracts/FakeProdId.sol\":1422:1437  newProduct.name */\n      0x20\n      add\n        /* \"contracts/FakeProdId.sol\":1422:1444  newProduct.name = name */\n      dup2\n      swap1\n      mstore\n      pop\n        /* \"contracts/FakeProdId.sol\":1474:1479  price */\n      dup3\n        /* \"contracts/FakeProdId.sol\":1455:1465  newProduct */\n      dup2\n        /* \"contracts/FakeProdId.sol\":1455:1471  newProduct.price */\n      0x40\n      add\n        /* \"contracts/FakeProdId.sol\":1455:1479  newProduct.price = price */\n      dup2\n      dup2\n      mstore\n      pop\n      pop\n        /* \"contracts/FakeProdId.sol\":1515:1526  description */\n      dup2\n        /* \"contracts/FakeProdId.sol\":1490:1500  newProduct */\n      dup2\n        /* \"contracts/FakeProdId.sol\":1490:1512  newProduct.description */\n      0x60\n      add\n        /* \"contracts/FakeProdId.sol\":1490:1526  newProduct.description = description */\n      dup2\n      swap1\n      mstore\n      pop\n        /* \"contracts/FakeProdId.sol\":1537:1561  newProduct.curOwner = \"\" */\n      mload(0x40)\n      dup1\n      0x20\n      add\n      0x40\n      mstore\n      dup1\n      0x00\n      dup2\n      mstore\n      pop\n        /* \"contracts/FakeProdId.sol\":1537:1547  newProduct */\n      dup2\n        /* \"contracts/FakeProdId.sol\":1537:1556  newProduct.curOwner */\n      0x80\n      add\n        /* \"contracts/FakeProdId.sol\":1537:1561  newProduct.curOwner = \"\" */\n      dup2\n      swap1\n      mstore\n      pop\n        /* \"contracts/FakeProdId.sol\":1596:1597  0 */\n      0x00\n        /* \"contracts/FakeProdId.sol\":1572:1582  newProduct */\n      dup2\n        /* \"contracts/FakeProdId.sol\":1572:1593  newProduct.curOwnerId */\n      0xa0\n      add\n        /* \"contracts/FakeProdId.sol\":1572:1597  newProduct.curOwnerId = 0 */\n      dup2\n      dup2\n      mstore\n      pop\n      pop\n        /* \"contracts/FakeProdId.sol\":1641:1651  newProduct */\n      dup1\n        /* \"contracts/FakeProdId.sol\":1608:1616  products */\n      0x01\n        /* \"contracts/FakeProdId.sol\":1608:1638  products[newProduct.productId] */\n      0x00\n        /* \"contracts/FakeProdId.sol\":1617:1627  newProduct */\n      dup4\n        /* \"contracts/FakeProdId.sol\":1617:1637  newProduct.productId */\n      0x00\n      add\n      mload\n        /* \"contracts/FakeProdId.sol\":1608:1638  products[newProduct.productId] */\n      dup2\n      mstore\n      0x20\n      add\n      swap1\n      dup2\n      mstore\n      0x20\n      add\n      0x00\n      keccak256\n        /* \"contracts/FakeProdId.sol\":1608:1651  products[newProduct.productId] = newProduct */\n      0x00\n      dup3\n      add\n      mload\n      dup2\n      0x00\n      add\n      sstore\n      0x20\n      dup3\n      add\n      mload\n      dup2\n      0x01\n      add\n      swap1\n      dup1\n      mload\n      swap1\n      0x20\n      add\n      swap1\n      tag_184\n      swap3\n      swap2\n      swap1\n      tag_107\n      jump\t// in\n    tag_184:\n      pop\n      0x40\n      dup3\n      add\n      mload\n      dup2\n      0x02\n      add\n      sstore\n      0x60\n      dup3\n      add\n      mload\n      dup2\n      0x03\n      add\n      swap1\n      dup1\n      mload\n      swap1\n      0x20\n      add\n      swap1\n      tag_185\n      swap3\n      swap2\n      swap1\n      tag_107\n      jump\t// in\n    tag_185:\n      pop\n      0x80\n      dup3\n      add\n      mload\n      dup2\n      0x04\n      add\n      swap1\n      dup1\n      mload\n      swap1\n      0x20\n      add\n      swap1\n      tag_186\n      swap3\n      swap2\n      swap1\n      tag_107\n      jump\t// in\n    tag_186:\n      pop\n      0xa0\n      dup3\n      add\n      mload\n      dup2\n      0x05\n      add\n      sstore\n      swap1\n      pop\n      pop\n        /* \"contracts/FakeProdId.sol\":1662:1674  productsSize */\n      0x02\n      0x00\n        /* \"contracts/FakeProdId.sol\":1662:1676  productsSize++ */\n      dup2\n      sload\n      dup1\n      swap3\n      swap2\n      swap1\n      tag_187\n      swap1\n      tag_188\n      jump\t// in\n    tag_187:\n      swap2\n      swap1\n      pop\n      sstore\n      pop\n        /* \"contracts/FakeProdId.sol\":1692:1728  prodDetails(newProduct,productsSize) */\n      0x0b9650a646eaf16194343a0e5cf05c4a99cfbffbf2a7630c4eaf6f3263a931d8\n        /* \"contracts/FakeProdId.sol\":1704:1714  newProduct */\n      dup2\n        /* \"contracts/FakeProdId.sol\":1715:1727  productsSize */\n      sload(0x02)\n        /* \"contracts/FakeProdId.sol\":1692:1728  prodDetails(newProduct,productsSize) */\n      mload(0x40)\n      tag_189\n      swap3\n      swap2\n      swap1\n      tag_190\n      jump\t// in\n    tag_189:\n      mload(0x40)\n      dup1\n      swap2\n      sub\n      swap1\n      log1\n        /* \"contracts/FakeProdId.sol\":1277:1736  {\r... */\n      pop\n        /* \"contracts/FakeProdId.sol\":1194:1736  function addProduct(string memory name,uint price,string memory description) public{\r... */\n      pop\n      pop\n      pop\n      jump\t// out\n        /* \"contracts/FakeProdId.sol\":2438:2918  function addManufacturer(string memory name) public returns (uint){\r... */\n    tag_64:\n        /* \"contracts/FakeProdId.sol\":2499:2503  uint */\n      0x00\n        /* \"contracts/FakeProdId.sol\":2515:2550  Manufacturer memory newManufacturer */\n      tag_192\n      tag_193\n      jump\t// in\n    tag_192:\n        /* \"contracts/FakeProdId.sol\":2618:2622  name */\n      dup3\n        /* \"contracts/FakeProdId.sol\":2623:2638  block.timestamp */\n      timestamp\n        /* \"contracts/FakeProdId.sol\":2639:2655  block.difficulty */\n      difficulty\n        /* \"contracts/FakeProdId.sol\":2607:2656  abi.encode(name,block.timestamp,block.difficulty) */\n      add(0x20, mload(0x40))\n      tag_194\n      swap4\n      swap3\n      swap2\n      swap1\n      tag_101\n      jump\t// in\n    tag_194:\n      mload(0x40)\n      0x20\n      dup2\n      dup4\n      sub\n      sub\n      dup2\n      mstore\n      swap1\n      0x40\n      mstore\n        /* \"contracts/FakeProdId.sol\":2597:2657  keccak256(abi.encode(name,block.timestamp,block.difficulty)) */\n      dup1\n      mload\n      swap1\n      0x20\n      add\n      keccak256\n        /* \"contracts/FakeProdId.sol\":2592:2658  uint(keccak256(abi.encode(name,block.timestamp,block.difficulty))) */\n      0x00\n      shr\n        /* \"contracts/FakeProdId.sol\":2561:2576  newManufacturer */\n      dup2\n        /* \"contracts/FakeProdId.sol\":2561:2591  newManufacturer.manufacturerId */\n      0x00\n      add\n        /* \"contracts/FakeProdId.sol\":2561:2658  newManufacturer.manufacturerId=uint(keccak256(abi.encode(name,block.timestamp,block.difficulty))) */\n      dup2\n      dup2\n      mstore\n      pop\n      pop\n        /* \"contracts/FakeProdId.sol\":2669:2696  newManufacturer.kind = \"MA\" */\n      mload(0x40)\n      dup1\n      0x40\n      add\n      0x40\n      mstore\n      dup1\n      0x02\n      dup2\n      mstore\n      0x20\n      add\n      0x4d41000000000000000000000000000000000000000000000000000000000000\n      dup2\n      mstore\n      pop\n        /* \"contracts/FakeProdId.sol\":2669:2684  newManufacturer */\n      dup2\n        /* \"contracts/FakeProdId.sol\":2669:2689  newManufacturer.kind */\n      0x20\n      add\n        /* \"contracts/FakeProdId.sol\":2669:2696  newManufacturer.kind = \"MA\" */\n      dup2\n      swap1\n      mstore\n      pop\n        /* \"contracts/FakeProdId.sol\":2730:2734  name */\n      dup3\n        /* \"contracts/FakeProdId.sol\":2707:2722  newManufacturer */\n      dup2\n        /* \"contracts/FakeProdId.sol\":2707:2727  newManufacturer.name */\n      0x40\n      add\n        /* \"contracts/FakeProdId.sol\":2707:2734  newManufacturer.name = name */\n      dup2\n      swap1\n      mstore\n      pop\n        /* \"contracts/FakeProdId.sol\":2786:2787  0 */\n      0x00\n        /* \"contracts/FakeProdId.sol\":2775:2788  new uint[](0) */\n      0xffffffffffffffff\n      dup2\n      gt\n      iszero\n      tag_195\n      jumpi\n      tag_196\n      tag_104\n      jump\t// in\n    tag_196:\n    tag_195:\n      mload(0x40)\n      swap1\n      dup1\n      dup3\n      mstore\n      dup1\n      0x20\n      mul\n      0x20\n      add\n      dup3\n      add\n      0x40\n      mstore\n      dup1\n      iszero\n      tag_197\n      jumpi\n      dup2\n      0x20\n      add\n      0x20\n      dup3\n      mul\n      dup1\n      calldatasize\n      dup4\n      calldatacopy\n      dup1\n      dup3\n      add\n      swap2\n      pop\n      pop\n      swap1\n      pop\n    tag_197:\n      pop\n        /* \"contracts/FakeProdId.sol\":2745:2760  newManufacturer */\n      dup2\n        /* \"contracts/FakeProdId.sol\":2745:2772  newManufacturer.productList */\n      0x60\n      add\n        /* \"contracts/FakeProdId.sol\":2745:2788  newManufacturer.productList = new uint[](0) */\n      dup2\n      swap1\n      mstore\n      pop\n        /* \"contracts/FakeProdId.sol\":2847:2862  newManufacturer */\n      dup1\n        /* \"contracts/FakeProdId.sol\":2799:2812  manufacturers */\n      0x04\n        /* \"contracts/FakeProdId.sol\":2799:2844  manufacturers[newManufacturer.manufacturerId] */\n      0x00\n        /* \"contracts/FakeProdId.sol\":2813:2828  newManufacturer */\n      dup4\n        /* \"contracts/FakeProdId.sol\":2813:2843  newManufacturer.manufacturerId */\n      0x00\n      add\n      mload\n        /* \"contracts/FakeProdId.sol\":2799:2844  manufacturers[newManufacturer.manufacturerId] */\n      dup2\n      mstore\n      0x20\n      add\n      swap1\n      dup2\n      mstore\n      0x20\n      add\n      0x00\n      keccak256\n        /* \"contracts/FakeProdId.sol\":2799:2862  manufacturers[newManufacturer.manufacturerId] = newManufacturer */\n      0x00\n      dup3\n      add\n      mload\n      dup2\n      0x00\n      add\n      sstore\n      0x20\n      dup3\n      add\n      mload\n      dup2\n      0x01\n      add\n      swap1\n      dup1\n      mload\n      swap1\n      0x20\n      add\n      swap1\n      tag_198\n      swap3\n      swap2\n      swap1\n      tag_107\n      jump\t// in\n    tag_198:\n      pop\n      0x40\n      dup3\n      add\n      mload\n      dup2\n      0x02\n      add\n      swap1\n      dup1\n      mload\n      swap1\n      0x20\n      add\n      swap1\n      tag_199\n      swap3\n      swap2\n      swap1\n      tag_107\n      jump\t// in\n    tag_199:\n      pop\n      0x60\n      dup3\n      add\n      mload\n      dup2\n      0x03\n      add\n      swap1\n      dup1\n      mload\n      swap1\n      0x20\n      add\n      swap1\n      tag_200\n      swap3\n      swap2\n      swap1\n      tag_110\n      jump\t// in\n    tag_200:\n      pop\n      swap1\n      pop\n      pop\n        /* \"contracts/FakeProdId.sol\":2880:2895  newManufacturer */\n      dup1\n        /* \"contracts/FakeProdId.sol\":2880:2910  newManufacturer.manufacturerId */\n      0x00\n      add\n      mload\n        /* \"contracts/FakeProdId.sol\":2873:2910  return newManufacturer.manufacturerId */\n      swap2\n      pop\n      pop\n        /* \"contracts/FakeProdId.sol\":2438:2918  function addManufacturer(string memory name) public returns (uint){\r... */\n      swap2\n      swap1\n      pop\n      jump\t// out\n        /* \"contracts/FakeProdId.sol\":1031:1081  mapping(uint => Manufacturer) public manufacturers */\n    tag_68:\n      mstore(0x20, 0x04)\n      dup1\n      0x00\n      mstore\n      keccak256(0x00, 0x40)\n      0x00\n      swap2\n      pop\n      swap1\n      pop\n      dup1\n      0x00\n      add\n      sload\n      swap1\n      dup1\n      0x01\n      add\n      dup1\n      sload\n      tag_201\n      swap1\n      tag_115\n      jump\t// in\n    tag_201:\n      dup1\n      0x1f\n      add\n      0x20\n      dup1\n      swap2\n      div\n      mul\n      0x20\n      add\n      mload(0x40)\n      swap1\n      dup2\n      add\n      0x40\n      mstore\n      dup1\n      swap3\n      swap2\n      swap1\n      dup2\n      dup2\n      mstore\n      0x20\n      add\n      dup3\n      dup1\n      sload\n      tag_202\n      swap1\n      tag_115\n      jump\t// in\n    tag_202:\n      dup1\n      iszero\n      tag_203\n      jumpi\n      dup1\n      0x1f\n      lt\n      tag_204\n      jumpi\n      0x0100\n      dup1\n      dup4\n      sload\n      div\n      mul\n      dup4\n      mstore\n      swap2\n      0x20\n      add\n      swap2\n      jump(tag_203)\n    tag_204:\n      dup3\n      add\n      swap2\n      swap1\n      0x00\n      mstore\n      keccak256(0x00, 0x20)\n      swap1\n    tag_205:\n      dup2\n      sload\n      dup2\n      mstore\n      swap1\n      0x01\n      add\n      swap1\n      0x20\n      add\n      dup1\n      dup4\n      gt\n      tag_205\n      jumpi\n      dup3\n      swap1\n      sub\n      0x1f\n      and\n      dup3\n      add\n      swap2\n    tag_203:\n      pop\n      pop\n      pop\n      pop\n      pop\n      swap1\n      dup1\n      0x02\n      add\n      dup1\n      sload\n      tag_206\n      swap1\n      tag_115\n      jump\t// in\n    tag_206:\n      dup1\n      0x1f\n      add\n      0x20\n      dup1\n      swap2\n      div\n      mul\n      0x20\n      add\n      mload(0x40)\n      swap1\n      dup2\n      add\n      0x40\n      mstore\n      dup1\n      swap3\n      swap2\n      swap1\n      dup2\n      dup2\n      mstore\n      0x20\n      add\n      dup3\n      dup1\n      sload\n      tag_207\n      swap1\n      tag_115\n      jump\t// in\n    tag_207:\n      dup1\n      iszero\n      tag_208\n      jumpi\n      dup1\n      0x1f\n      lt\n      tag_209\n      jumpi\n      0x0100\n      dup1\n      dup4\n      sload\n      div\n      mul\n      dup4\n      mstore\n      swap2\n      0x20\n      add\n      swap2\n      jump(tag_208)\n    tag_209:\n      dup3\n      add\n      swap2\n      swap1\n      0x00\n      mstore\n      keccak256(0x00, 0x20)\n      swap1\n    tag_210:\n      dup2\n      sload\n      dup2\n      mstore\n      swap1\n      0x01\n      add\n      swap1\n      0x20\n      add\n      dup1\n      dup4\n      gt\n      tag_210\n      jumpi\n      dup3\n      swap1\n      sub\n      0x1f\n      and\n      dup3\n      add\n      swap2\n    tag_208:\n      pop\n      pop\n      pop\n      pop\n      pop\n      swap1\n      pop\n      dup4\n      jump\t// out\n        /* \"contracts/FakeProdId.sol\":3713:4103  function addRetailer(string memory name) public returns (uint){\r... */\n    tag_72:\n        /* \"contracts/FakeProdId.sol\":3770:3774  uint */\n      0x00\n        /* \"contracts/FakeProdId.sol\":3786:3813  Retailer memory newRetailer */\n      tag_212\n      tag_213\n      jump\t// in\n    tag_212:\n        /* \"contracts/FakeProdId.sol\":3873:3877  name */\n      dup3\n        /* \"contracts/FakeProdId.sol\":3878:3893  block.timestamp */\n      timestamp\n        /* \"contracts/FakeProdId.sol\":3894:3910  block.difficulty */\n      difficulty\n        /* \"contracts/FakeProdId.sol\":3862:3911  abi.encode(name,block.timestamp,block.difficulty) */\n      add(0x20, mload(0x40))\n      tag_214\n      swap4\n      swap3\n      swap2\n      swap1\n      tag_101\n      jump\t// in\n    tag_214:\n      mload(0x40)\n      0x20\n      dup2\n      dup4\n      sub\n      sub\n      dup2\n      mstore\n      swap1\n      0x40\n      mstore\n        /* \"contracts/FakeProdId.sol\":3852:3912  keccak256(abi.encode(name,block.timestamp,block.difficulty)) */\n      dup1\n      mload\n      swap1\n      0x20\n      add\n      keccak256\n        /* \"contracts/FakeProdId.sol\":3847:3913  uint(keccak256(abi.encode(name,block.timestamp,block.difficulty))) */\n      0x00\n      shr\n        /* \"contracts/FakeProdId.sol\":3824:3835  newRetailer */\n      dup2\n        /* \"contracts/FakeProdId.sol\":3824:3846  newRetailer.retailerId */\n      0x00\n      add\n        /* \"contracts/FakeProdId.sol\":3824:3913  newRetailer.retailerId=uint(keccak256(abi.encode(name,block.timestamp,block.difficulty))) */\n      dup2\n      dup2\n      mstore\n      pop\n      pop\n        /* \"contracts/FakeProdId.sol\":3943:3947  name */\n      dup3\n        /* \"contracts/FakeProdId.sol\":3924:3935  newRetailer */\n      dup2\n        /* \"contracts/FakeProdId.sol\":3924:3940  newRetailer.name */\n      0x20\n      add\n        /* \"contracts/FakeProdId.sol\":3924:3947  newRetailer.name = name */\n      dup2\n      swap1\n      mstore\n      pop\n        /* \"contracts/FakeProdId.sol\":3995:3996  0 */\n      0x00\n        /* \"contracts/FakeProdId.sol\":3984:3997  new uint[](0) */\n      0xffffffffffffffff\n      dup2\n      gt\n      iszero\n      tag_215\n      jumpi\n      tag_216\n      tag_104\n      jump\t// in\n    tag_216:\n    tag_215:\n      mload(0x40)\n      swap1\n      dup1\n      dup3\n      mstore\n      dup1\n      0x20\n      mul\n      0x20\n      add\n      dup3\n      add\n      0x40\n      mstore\n      dup1\n      iszero\n      tag_217\n      jumpi\n      dup2\n      0x20\n      add\n      0x20\n      dup3\n      mul\n      dup1\n      calldatasize\n      dup4\n      calldatacopy\n      dup1\n      dup3\n      add\n      swap2\n      pop\n      pop\n      swap1\n      pop\n    tag_217:\n      pop\n        /* \"contracts/FakeProdId.sol\":3958:3969  newRetailer */\n      dup2\n        /* \"contracts/FakeProdId.sol\":3958:3981  newRetailer.productList */\n      0x40\n      add\n        /* \"contracts/FakeProdId.sol\":3958:3997  newRetailer.productList = new uint[](0) */\n      dup2\n      swap1\n      mstore\n      pop\n        /* \"contracts/FakeProdId.sol\":4044:4055  newRetailer */\n      dup1\n        /* \"contracts/FakeProdId.sol\":4008:4017  retailers */\n      0x06\n        /* \"contracts/FakeProdId.sol\":4008:4041  retailers[newRetailer.retailerId] */\n      0x00\n        /* \"contracts/FakeProdId.sol\":4018:4029  newRetailer */\n      dup4\n        /* \"contracts/FakeProdId.sol\":4018:4040  newRetailer.retailerId */\n      0x00\n      add\n      mload\n        /* \"contracts/FakeProdId.sol\":4008:4041  retailers[newRetailer.retailerId] */\n      dup2\n      mstore\n      0x20\n      add\n      swap1\n      dup2\n      mstore\n      0x20\n      add\n      0x00\n      keccak256\n        /* \"contracts/FakeProdId.sol\":4008:4055  retailers[newRetailer.retailerId] = newRetailer */\n      0x00\n      dup3\n      add\n      mload\n      dup2\n      0x00\n      add\n      sstore\n      0x20\n      dup3\n      add\n      mload\n      dup2\n      0x01\n      add\n      swap1\n      dup1\n      mload\n      swap1\n      0x20\n      add\n      swap1\n      tag_218\n      swap3\n      swap2\n      swap1\n      tag_107\n      jump\t// in\n    tag_218:\n      pop\n      0x40\n      dup3\n      add\n      mload\n      dup2\n      0x02\n      add\n      swap1\n      dup1\n      mload\n      swap1\n      0x20\n      add\n      swap1\n      tag_219\n      swap3\n      swap2\n      swap1\n      tag_110\n      jump\t// in\n    tag_219:\n      pop\n      swap1\n      pop\n      pop\n        /* \"contracts/FakeProdId.sol\":4073:4084  newRetailer */\n      dup1\n        /* \"contracts/FakeProdId.sol\":4073:4095  newRetailer.retailerId */\n      0x00\n      add\n      mload\n        /* \"contracts/FakeProdId.sol\":4066:4095  return newRetailer.retailerId */\n      swap2\n      pop\n      pop\n        /* \"contracts/FakeProdId.sol\":3713:4103  function addRetailer(string memory name) public returns (uint){\r... */\n      swap2\n      swap1\n      pop\n      jump\t// out\n        /* \"contracts/FakeProdId.sol\":1744:1861  function getProduct(uint productId) public view returns (Product memory){\r... */\n    tag_76:\n        /* \"contracts/FakeProdId.sol\":1801:1815  Product memory */\n      tag_220\n      tag_182\n      jump\t// in\n    tag_220:\n        /* \"contracts/FakeProdId.sol\":1834:1842  products */\n      0x01\n        /* \"contracts/FakeProdId.sol\":1834:1853  products[productId] */\n      0x00\n        /* \"contracts/FakeProdId.sol\":1843:1852  productId */\n      dup4\n        /* \"contracts/FakeProdId.sol\":1834:1853  products[productId] */\n      dup2\n      mstore\n      0x20\n      add\n      swap1\n      dup2\n      mstore\n      0x20\n      add\n      0x00\n      keccak256\n        /* \"contracts/FakeProdId.sol\":1827:1853  return products[productId] */\n      mload(0x40)\n      dup1\n      0xc0\n      add\n      0x40\n      mstore\n      swap1\n      dup2\n      0x00\n      dup3\n      add\n      sload\n      dup2\n      mstore\n      0x20\n      add\n      0x01\n      dup3\n      add\n      dup1\n      sload\n      tag_222\n      swap1\n      tag_115\n      jump\t// in\n    tag_222:\n      dup1\n      0x1f\n      add\n      0x20\n      dup1\n      swap2\n      div\n      mul\n      0x20\n      add\n      mload(0x40)\n      swap1\n      dup2\n      add\n      0x40\n      mstore\n      dup1\n      swap3\n      swap2\n      swap1\n      dup2\n      dup2\n      mstore\n      0x20\n      add\n      dup3\n      dup1\n      sload\n      tag_223\n      swap1\n      tag_115\n      jump\t// in\n    tag_223:\n      dup1\n      iszero\n      tag_224\n      jumpi\n      dup1\n      0x1f\n      lt\n      tag_225\n      jumpi\n      0x0100\n      dup1\n      dup4\n      sload\n      div\n      mul\n      dup4\n      mstore\n      swap2\n      0x20\n      add\n      swap2\n      jump(tag_224)\n    tag_225:\n      dup3\n      add\n      swap2\n      swap1\n      0x00\n      mstore\n      keccak256(0x00, 0x20)\n      swap1\n    tag_226:\n      dup2\n      sload\n      dup2\n      mstore\n      swap1\n      0x01\n      add\n      swap1\n      0x20\n      add\n      dup1\n      dup4\n      gt\n      tag_226\n      jumpi\n      dup3\n      swap1\n      sub\n      0x1f\n      and\n      dup3\n      add\n      swap2\n    tag_224:\n      pop\n      pop\n      pop\n      pop\n      pop\n      dup2\n      mstore\n      0x20\n      add\n      0x02\n      dup3\n      add\n      sload\n      dup2\n      mstore\n      0x20\n      add\n      0x03\n      dup3\n      add\n      dup1\n      sload\n      tag_227\n      swap1\n      tag_115\n      jump\t// in\n    tag_227:\n      dup1\n      0x1f\n      add\n      0x20\n      dup1\n      swap2\n      div\n      mul\n      0x20\n      add\n      mload(0x40)\n      swap1\n      dup2\n      add\n      0x40\n      mstore\n      dup1\n      swap3\n      swap2\n      swap1\n      dup2\n      dup2\n      mstore\n      0x20\n      add\n      dup3\n      dup1\n      sload\n      tag_228\n      swap1\n      tag_115\n      jump\t// in\n    tag_228:\n      dup1\n      iszero\n      tag_229\n      jumpi\n      dup1\n      0x1f\n      lt\n      tag_230\n      jumpi\n      0x0100\n      dup1\n      dup4\n      sload\n      div\n      mul\n      dup4\n      mstore\n      swap2\n      0x20\n      add\n      swap2\n      jump(tag_229)\n    tag_230:\n      dup3\n      add\n      swap2\n      swap1\n      0x00\n      mstore\n      keccak256(0x00, 0x20)\n      swap1\n    tag_231:\n      dup2\n      sload\n      dup2\n      mstore\n      swap1\n      0x01\n      add\n      swap1\n      0x20\n      add\n      dup1\n      dup4\n      gt\n      tag_231\n      jumpi\n      dup3\n      swap1\n      sub\n      0x1f\n      and\n      dup3\n      add\n      swap2\n    tag_229:\n      pop\n      pop\n      pop\n      pop\n      pop\n      dup2\n      mstore\n      0x20\n      add\n      0x04\n      dup3\n      add\n      dup1\n      sload\n      tag_232\n      swap1\n      tag_115\n      jump\t// in\n    tag_232:\n      dup1\n      0x1f\n      add\n      0x20\n      dup1\n      swap2\n      div\n      mul\n      0x20\n      add\n      mload(0x40)\n      swap1\n      dup2\n      add\n      0x40\n      mstore\n      dup1\n      swap3\n      swap2\n      swap1\n      dup2\n      dup2\n      mstore\n      0x20\n      add\n      dup3\n      dup1\n      sload\n      tag_233\n      swap1\n      tag_115\n      jump\t// in\n    tag_233:\n      dup1\n      iszero\n      tag_234\n      jumpi\n      dup1\n      0x1f\n      lt\n      tag_235\n      jumpi\n      0x0100\n      dup1\n      dup4\n      sload\n      div\n      mul\n      dup4\n      mstore\n      swap2\n      0x20\n      add\n      swap2\n      jump(tag_234)\n    tag_235:\n      dup3\n      add\n      swap2\n      swap1\n      0x00\n      mstore\n      keccak256(0x00, 0x20)\n      swap1\n    tag_236:\n      dup2\n      sload\n      dup2\n      mstore\n      swap1\n      0x01\n      add\n      swap1\n      0x20\n      add\n      dup1\n      dup4\n      gt\n      tag_236\n      jumpi\n      dup3\n      swap1\n      sub\n      0x1f\n      and\n      dup3\n      add\n      swap2\n    tag_234:\n      pop\n      pop\n      pop\n      pop\n      pop\n      dup2\n      mstore\n      0x20\n      add\n      0x05\n      dup3\n      add\n      sload\n      dup2\n      mstore\n      pop\n      pop\n      swap1\n      pop\n        /* \"contracts/FakeProdId.sol\":1744:1861  function getProduct(uint productId) public view returns (Product memory){\r... */\n      swap2\n      swap1\n      pop\n      jump\t// out\n        /* \"contracts/FakeProdId.sol\":2926:3075  function getmanufacturerDetails(uint manufacturerId) public view returns (Manufacturer memory){\r... */\n    tag_81:\n        /* \"contracts/FakeProdId.sol\":3000:3019  Manufacturer memory */\n      tag_237\n      tag_193\n      jump\t// in\n    tag_237:\n        /* \"contracts/FakeProdId.sol\":3038:3051  manufacturers */\n      0x04\n        /* \"contracts/FakeProdId.sol\":3038:3067  manufacturers[manufacturerId] */\n      0x00\n        /* \"contracts/FakeProdId.sol\":3052:3066  manufacturerId */\n      dup4\n        /* \"contracts/FakeProdId.sol\":3038:3067  manufacturers[manufacturerId] */\n      dup2\n      mstore\n      0x20\n      add\n      swap1\n      dup2\n      mstore\n      0x20\n      add\n      0x00\n      keccak256\n        /* \"contracts/FakeProdId.sol\":3031:3067  return manufacturers[manufacturerId] */\n      mload(0x40)\n      dup1\n      0x80\n      add\n      0x40\n      mstore\n      swap1\n      dup2\n      0x00\n      dup3\n      add\n      sload\n      dup2\n      mstore\n      0x20\n      add\n      0x01\n      dup3\n      add\n      dup1\n      sload\n      tag_239\n      swap1\n      tag_115\n      jump\t// in\n    tag_239:\n      dup1\n      0x1f\n      add\n      0x20\n      dup1\n      swap2\n      div\n      mul\n      0x20\n      add\n      mload(0x40)\n      swap1\n      dup2\n      add\n      0x40\n      mstore\n      dup1\n      swap3\n      swap2\n      swap1\n      dup2\n      dup2\n      mstore\n      0x20\n      add\n      dup3\n      dup1\n      sload\n      tag_240\n      swap1\n      tag_115\n      jump\t// in\n    tag_240:\n      dup1\n      iszero\n      tag_241\n      jumpi\n      dup1\n      0x1f\n      lt\n      tag_242\n      jumpi\n      0x0100\n      dup1\n      dup4\n      sload\n      div\n      mul\n      dup4\n      mstore\n      swap2\n      0x20\n      add\n      swap2\n      jump(tag_241)\n    tag_242:\n      dup3\n      add\n      swap2\n      swap1\n      0x00\n      mstore\n      keccak256(0x00, 0x20)\n      swap1\n    tag_243:\n      dup2\n      sload\n      dup2\n      mstore\n      swap1\n      0x01\n      add\n      swap1\n      0x20\n      add\n      dup1\n      dup4\n      gt\n      tag_243\n      jumpi\n      dup3\n      swap1\n      sub\n      0x1f\n      and\n      dup3\n      add\n      swap2\n    tag_241:\n      pop\n      pop\n      pop\n      pop\n      pop\n      dup2\n      mstore\n      0x20\n      add\n      0x02\n      dup3\n      add\n      dup1\n      sload\n      tag_244\n      swap1\n      tag_115\n      jump\t// in\n    tag_244:\n      dup1\n      0x1f\n      add\n      0x20\n      dup1\n      swap2\n      div\n      mul\n      0x20\n      add\n      mload(0x40)\n      swap1\n      dup2\n      add\n      0x40\n      mstore\n      dup1\n      swap3\n      swap2\n      swap1\n      dup2\n      dup2\n      mstore\n      0x20\n      add\n      dup3\n      dup1\n      sload\n      tag_245\n      swap1\n      tag_115\n      jump\t// in\n    tag_245:\n      dup1\n      iszero\n      tag_246\n      jumpi\n      dup1\n      0x1f\n      lt\n      tag_247\n      jumpi\n      0x0100\n      dup1\n      dup4\n      sload\n      div\n      mul\n      dup4\n      mstore\n      swap2\n      0x20\n      add\n      swap2\n      jump(tag_246)\n    tag_247:\n      dup3\n      add\n      swap2\n      swap1\n      0x00\n      mstore\n      keccak256(0x00, 0x20)\n      swap1\n    tag_248:\n      dup2\n      sload\n      dup2\n      mstore\n      swap1\n      0x01\n      add\n      swap1\n      0x20\n      add\n      dup1\n      dup4\n      gt\n      tag_248\n      jumpi\n      dup3\n      swap1\n      sub\n      0x1f\n      and\n      dup3\n      add\n      swap2\n    tag_246:\n      pop\n      pop\n      pop\n      pop\n      pop\n      dup2\n      mstore\n      0x20\n      add\n      0x03\n      dup3\n      add\n      dup1\n      sload\n      dup1\n      0x20\n      mul\n      0x20\n      add\n      mload(0x40)\n      swap1\n      dup2\n      add\n      0x40\n      mstore\n      dup1\n      swap3\n      swap2\n      swap1\n      dup2\n      dup2\n      mstore\n      0x20\n      add\n      dup3\n      dup1\n      sload\n      dup1\n      iszero\n      tag_249\n      jumpi\n      0x20\n      mul\n      dup3\n      add\n      swap2\n      swap1\n      0x00\n      mstore\n      keccak256(0x00, 0x20)\n      swap1\n    tag_250:\n      dup2\n      sload\n      dup2\n      mstore\n      0x20\n      add\n      swap1\n      0x01\n      add\n      swap1\n      dup1\n      dup4\n      gt\n      tag_250\n      jumpi\n    tag_249:\n      pop\n      pop\n      pop\n      pop\n      pop\n      dup2\n      mstore\n      pop\n      pop\n      swap1\n      pop\n        /* \"contracts/FakeProdId.sol\":2926:3075  function getmanufacturerDetails(uint manufacturerId) public view returns (Manufacturer memory){\r... */\n      swap2\n      swap1\n      pop\n      jump\t// out\n        /* \"contracts/FakeProdId.sol\":4111:4240  function getretailerDetails(uint retailerId) public view returns (Retailer memory){\r... */\n    tag_86:\n        /* \"contracts/FakeProdId.sol\":4177:4192  Retailer memory */\n      tag_251\n      tag_213\n      jump\t// in\n    tag_251:\n        /* \"contracts/FakeProdId.sol\":4211:4220  retailers */\n      0x06\n        /* \"contracts/FakeProdId.sol\":4211:4232  retailers[retailerId] */\n      0x00\n        /* \"contracts/FakeProdId.sol\":4221:4231  retailerId */\n      dup4\n        /* \"contracts/FakeProdId.sol\":4211:4232  retailers[retailerId] */\n      dup2\n      mstore\n      0x20\n      add\n      swap1\n      dup2\n      mstore\n      0x20\n      add\n      0x00\n      keccak256\n        /* \"contracts/FakeProdId.sol\":4204:4232  return retailers[retailerId] */\n      mload(0x40)\n      dup1\n      0x60\n      add\n      0x40\n      mstore\n      swap1\n      dup2\n      0x00\n      dup3\n      add\n      sload\n      dup2\n      mstore\n      0x20\n      add\n      0x01\n      dup3\n      add\n      dup1\n      sload\n      tag_253\n      swap1\n      tag_115\n      jump\t// in\n    tag_253:\n      dup1\n      0x1f\n      add\n      0x20\n      dup1\n      swap2\n      div\n      mul\n      0x20\n      add\n      mload(0x40)\n      swap1\n      dup2\n      add\n      0x40\n      mstore\n      dup1\n      swap3\n      swap2\n      swap1\n      dup2\n      dup2\n      mstore\n      0x20\n      add\n      dup3\n      dup1\n      sload\n      tag_254\n      swap1\n      tag_115\n      jump\t// in\n    tag_254:\n      dup1\n      iszero\n      tag_255\n      jumpi\n      dup1\n      0x1f\n      lt\n      tag_256\n      jumpi\n      0x0100\n      dup1\n      dup4\n      sload\n      div\n      mul\n      dup4\n      mstore\n      swap2\n      0x20\n      add\n      swap2\n      jump(tag_255)\n    tag_256:\n      dup3\n      add\n      swap2\n      swap1\n      0x00\n      mstore\n      keccak256(0x00, 0x20)\n      swap1\n    tag_257:\n      dup2\n      sload\n      dup2\n      mstore\n      swap1\n      0x01\n      add\n      swap1\n      0x20\n      add\n      dup1\n      dup4\n      gt\n      tag_257\n      jumpi\n      dup3\n      swap1\n      sub\n      0x1f\n      and\n      dup3\n      add\n      swap2\n    tag_255:\n      pop\n      pop\n      pop\n      pop\n      pop\n      dup2\n      mstore\n      0x20\n      add\n      0x02\n      dup3\n      add\n      dup1\n      sload\n      dup1\n      0x20\n      mul\n      0x20\n      add\n      mload(0x40)\n      swap1\n      dup2\n      add\n      0x40\n      mstore\n      dup1\n      swap3\n      swap2\n      swap1\n      dup2\n      dup2\n      mstore\n      0x20\n      add\n      dup3\n      dup1\n      sload\n      dup1\n      iszero\n      tag_258\n      jumpi\n      0x20\n      mul\n      dup3\n      add\n      swap2\n      swap1\n      0x00\n      mstore\n      keccak256(0x00, 0x20)\n      swap1\n    tag_259:\n      dup2\n      sload\n      dup2\n      mstore\n      0x20\n      add\n      swap1\n      0x01\n      add\n      swap1\n      dup1\n      dup4\n      gt\n      tag_259\n      jumpi\n    tag_258:\n      pop\n      pop\n      pop\n      pop\n      pop\n      dup2\n      mstore\n      pop\n      pop\n      swap1\n      pop\n        /* \"contracts/FakeProdId.sol\":4111:4240  function getretailerDetails(uint retailerId) public view returns (Retailer memory){\r... */\n      swap2\n      swap1\n      pop\n      jump\t// out\n        /* \"contracts/FakeProdId.sol\":982:1024  mapping(uint => Supplier) public suppliers */\n    tag_91:\n      mstore(0x20, 0x03)\n      dup1\n      0x00\n      mstore\n      keccak256(0x00, 0x40)\n      0x00\n      swap2\n      pop\n      swap1\n      pop\n      dup1\n      0x00\n      add\n      sload\n      swap1\n      dup1\n      0x01\n      add\n      dup1\n      sload\n      tag_260\n      swap1\n      tag_115\n      jump\t// in\n    tag_260:\n      dup1\n      0x1f\n      add\n      0x20\n      dup1\n      swap2\n      div\n      mul\n      0x20\n      add\n      mload(0x40)\n      swap1\n      dup2\n      add\n      0x40\n      mstore\n      dup1\n      swap3\n      swap2\n      swap1\n      dup2\n      dup2\n      mstore\n      0x20\n      add\n      dup3\n      dup1\n      sload\n      tag_261\n      swap1\n      tag_115\n      jump\t// in\n    tag_261:\n      dup1\n      iszero\n      tag_262\n      jumpi\n      dup1\n      0x1f\n      lt\n      tag_263\n      jumpi\n      0x0100\n      dup1\n      dup4\n      sload\n      div\n      mul\n      dup4\n      mstore\n      swap2\n      0x20\n      add\n      swap2\n      jump(tag_262)\n    tag_263:\n      dup3\n      add\n      swap2\n      swap1\n      0x00\n      mstore\n      keccak256(0x00, 0x20)\n      swap1\n    tag_264:\n      dup2\n      sload\n      dup2\n      mstore\n      swap1\n      0x01\n      add\n      swap1\n      0x20\n      add\n      dup1\n      dup4\n      gt\n      tag_264\n      jumpi\n      dup3\n      swap1\n      sub\n      0x1f\n      and\n      dup3\n      add\n      swap2\n    tag_262:\n      pop\n      pop\n      pop\n      pop\n      pop\n      swap1\n      dup1\n      0x02\n      add\n      dup1\n      sload\n      tag_265\n      swap1\n      tag_115\n      jump\t// in\n    tag_265:\n      dup1\n      0x1f\n      add\n      0x20\n      dup1\n      swap2\n      div\n      mul\n      0x20\n      add\n      mload(0x40)\n      swap1\n      dup2\n      add\n      0x40\n      mstore\n      dup1\n      swap3\n      swap2\n      swap1\n      dup2\n      dup2\n      mstore\n      0x20\n      add\n      dup3\n      dup1\n      sload\n      tag_266\n      swap1\n      tag_115\n      jump\t// in\n    tag_266:\n      dup1\n      iszero\n      tag_267\n      jumpi\n      dup1\n      0x1f\n      lt\n      tag_268\n      jumpi\n      0x0100\n      dup1\n      dup4\n      sload\n      div\n      mul\n      dup4\n      mstore\n      swap2\n      0x20\n      add\n      swap2\n      jump(tag_267)\n    tag_268:\n      dup3\n      add\n      swap2\n      swap1\n      0x00\n      mstore\n      keccak256(0x00, 0x20)\n      swap1\n    tag_269:\n      dup2\n      sload\n      dup2\n      mstore\n      swap1\n      0x01\n      add\n      swap1\n      0x20\n      add\n      dup1\n      dup4\n      gt\n      tag_269\n      jumpi\n      dup3\n      swap1\n      sub\n      0x1f\n      and\n      dup3\n      add\n      swap2\n    tag_267:\n      pop\n      pop\n      pop\n      pop\n      pop\n      swap1\n      pop\n      dup4\n      jump\t// out\n        /* \"contracts/FakeProdId.sol\":4248:4337  function transferOwnership(uint ProductId,uint curOwnerId,uint newOwnerId) public{\r... */\n    tag_96:\n      pop\n      pop\n      pop\n      jump\t// out\n    tag_99:\n      mload(0x40)\n      dup1\n      0x80\n      add\n      0x40\n      mstore\n      dup1\n      0x00\n      dup2\n      mstore\n      0x20\n      add\n      0x60\n      dup2\n      mstore\n      0x20\n      add\n      0x60\n      dup2\n      mstore\n      0x20\n      add\n      0x60\n      dup2\n      mstore\n      pop\n      swap1\n      jump\t// out\n    tag_107:\n      dup3\n      dup1\n      sload\n      tag_271\n      swap1\n      tag_115\n      jump\t// in\n    tag_271:\n      swap1\n      0x00\n      mstore\n      keccak256(0x00, 0x20)\n      swap1\n      0x1f\n      add\n      0x20\n      swap1\n      div\n      dup2\n      add\n      swap3\n      dup3\n      tag_273\n      jumpi\n      0x00\n      dup6\n      sstore\n      jump(tag_272)\n    tag_273:\n      dup3\n      0x1f\n      lt\n      tag_274\n      jumpi\n      dup1\n      mload\n      not(0xff)\n      and\n      dup4\n      dup1\n      add\n      or\n      dup6\n      sstore\n      jump(tag_272)\n    tag_274:\n      dup3\n      dup1\n      add\n      0x01\n      add\n      dup6\n      sstore\n      dup3\n      iszero\n      tag_272\n      jumpi\n      swap2\n      dup3\n      add\n    tag_275:\n      dup3\n      dup2\n      gt\n      iszero\n      tag_276\n      jumpi\n      dup3\n      mload\n      dup3\n      sstore\n      swap2\n      0x20\n      add\n      swap2\n      swap1\n      0x01\n      add\n      swap1\n      jump(tag_275)\n    tag_276:\n    tag_272:\n      pop\n      swap1\n      pop\n      tag_277\n      swap2\n      swap1\n      tag_278\n      jump\t// in\n    tag_277:\n      pop\n      swap1\n      jump\t// out\n    tag_110:\n      dup3\n      dup1\n      sload\n      dup3\n      dup3\n      sstore\n      swap1\n      0x00\n      mstore\n      keccak256(0x00, 0x20)\n      swap1\n      dup2\n      add\n      swap3\n      dup3\n      iszero\n      tag_279\n      jumpi\n      swap2\n      0x20\n      mul\n      dup3\n      add\n    tag_280:\n      dup3\n      dup2\n      gt\n      iszero\n      tag_281\n      jumpi\n      dup3\n      mload\n      dup3\n      sstore\n      swap2\n      0x20\n      add\n      swap2\n      swap1\n      0x01\n      add\n      swap1\n      jump(tag_280)\n    tag_281:\n    tag_279:\n      pop\n      swap1\n      pop\n      tag_282\n      swap2\n      swap1\n      tag_278\n      jump\t// in\n    tag_282:\n      pop\n      swap1\n      jump\t// out\n    tag_112:\n      mload(0x40)\n      dup1\n      0x80\n      add\n      0x40\n      mstore\n      dup1\n      0x00\n      dup2\n      mstore\n      0x20\n      add\n      0x60\n      dup2\n      mstore\n      0x20\n      add\n      0x60\n      dup2\n      mstore\n      0x20\n      add\n      0x60\n      dup2\n      mstore\n      pop\n      swap1\n      jump\t// out\n    tag_182:\n      mload(0x40)\n      dup1\n      0xc0\n      add\n      0x40\n      mstore\n      dup1\n      0x00\n      dup2\n      mstore\n      0x20\n      add\n      0x60\n      dup2\n      mstore\n      0x20\n      add\n      0x00\n      dup2\n      mstore\n      0x20\n      add\n      0x60\n      dup2\n      mstore\n      0x20\n      add\n      0x60\n      dup2\n      mstore\n      0x20\n      add\n      0x00\n      dup2\n      mstore\n      pop\n      swap1\n      jump\t// out\n    tag_193:\n      mload(0x40)\n      dup1\n      0x80\n      add\n      0x40\n      mstore\n      dup1\n      0x00\n      dup2\n      mstore\n      0x20\n      add\n      0x60\n      dup2\n      mstore\n      0x20\n      add\n      0x60\n      dup2\n      mstore\n      0x20\n      add\n      0x60\n      dup2\n      mstore\n      pop\n      swap1\n      jump\t// out\n    tag_213:\n      mload(0x40)\n      dup1\n      0x60\n      add\n      0x40\n      mstore\n      dup1\n      0x00\n      dup2\n      mstore\n      0x20\n      add\n      0x60\n      dup2\n      mstore\n      0x20\n      add\n      0x60\n      dup2\n      mstore\n      pop\n      swap1\n      jump\t// out\n    tag_278:\n    tag_283:\n      dup1\n      dup3\n      gt\n      iszero\n      tag_284\n      jumpi\n      0x00\n      dup2\n      0x00\n      swap1\n      sstore\n      pop\n      0x01\n      add\n      jump(tag_283)\n    tag_284:\n      pop\n      swap1\n      jump\t// out\n        /* \"#utility.yul\":7:419   */\n    tag_286:\n        /* \"#utility.yul\":85:90   */\n      0x00\n        /* \"#utility.yul\":110:176   */\n      tag_288\n        /* \"#utility.yul\":126:175   */\n      tag_289\n        /* \"#utility.yul\":168:174   */\n      dup5\n        /* \"#utility.yul\":126:175   */\n      tag_290\n      jump\t// in\n    tag_289:\n        /* \"#utility.yul\":110:176   */\n      tag_291\n      jump\t// in\n    tag_288:\n        /* \"#utility.yul\":101:176   */\n      swap1\n      pop\n        /* \"#utility.yul\":199:205   */\n      dup3\n        /* \"#utility.yul\":192:197   */\n      dup2\n        /* \"#utility.yul\":185:206   */\n      mstore\n        /* \"#utility.yul\":237:241   */\n      0x20\n        /* \"#utility.yul\":230:235   */\n      dup2\n        /* \"#utility.yul\":226:242   */\n      add\n        /* \"#utility.yul\":275:278   */\n      dup5\n        /* \"#utility.yul\":266:272   */\n      dup5\n        /* \"#utility.yul\":261:264   */\n      dup5\n        /* \"#utility.yul\":257:273   */\n      add\n        /* \"#utility.yul\":254:279   */\n      gt\n        /* \"#utility.yul\":251:363   */\n      iszero\n      tag_292\n      jumpi\n        /* \"#utility.yul\":282:361   */\n      tag_293\n      tag_294\n      jump\t// in\n    tag_293:\n        /* \"#utility.yul\":251:363   */\n    tag_292:\n        /* \"#utility.yul\":372:413   */\n      tag_295\n        /* \"#utility.yul\":406:412   */\n      dup5\n        /* \"#utility.yul\":401:404   */\n      dup3\n        /* \"#utility.yul\":396:399   */\n      dup6\n        /* \"#utility.yul\":372:413   */\n      tag_296\n      jump\t// in\n    tag_295:\n        /* \"#utility.yul\":91:419   */\n      pop\n        /* \"#utility.yul\":7:419   */\n      swap4\n      swap3\n      pop\n      pop\n      pop\n      jump\t// out\n        /* \"#utility.yul\":439:779   */\n    tag_297:\n        /* \"#utility.yul\":495:500   */\n      0x00\n        /* \"#utility.yul\":544:547   */\n      dup3\n        /* \"#utility.yul\":537:541   */\n      0x1f\n        /* \"#utility.yul\":529:535   */\n      dup4\n        /* \"#utility.yul\":525:542   */\n      add\n        /* \"#utility.yul\":521:548   */\n      slt\n        /* \"#utility.yul\":511:633   */\n      tag_299\n      jumpi\n        /* \"#utility.yul\":552:631   */\n      tag_300\n      tag_301\n      jump\t// in\n    tag_300:\n        /* \"#utility.yul\":511:633   */\n    tag_299:\n        /* \"#utility.yul\":669:675   */\n      dup2\n        /* \"#utility.yul\":656:676   */\n      calldataload\n        /* \"#utility.yul\":694:773   */\n      tag_302\n        /* \"#utility.yul\":769:772   */\n      dup5\n        /* \"#utility.yul\":761:767   */\n      dup3\n        /* \"#utility.yul\":754:758   */\n      0x20\n        /* \"#utility.yul\":746:752   */\n      dup7\n        /* \"#utility.yul\":742:759   */\n      add\n        /* \"#utility.yul\":694:773   */\n      tag_286\n      jump\t// in\n    tag_302:\n        /* \"#utility.yul\":685:773   */\n      swap2\n      pop\n        /* \"#utility.yul\":501:779   */\n      pop\n        /* \"#utility.yul\":439:779   */\n      swap3\n      swap2\n      pop\n      pop\n      jump\t// out\n        /* \"#utility.yul\":785:924   */\n    tag_303:\n        /* \"#utility.yul\":831:836   */\n      0x00\n        /* \"#utility.yul\":869:875   */\n      dup2\n        /* \"#utility.yul\":856:876   */\n      calldataload\n        /* \"#utility.yul\":847:876   */\n      swap1\n      pop\n        /* \"#utility.yul\":885:918   */\n      tag_305\n        /* \"#utility.yul\":912:917   */\n      dup2\n        /* \"#utility.yul\":885:918   */\n      tag_306\n      jump\t// in\n    tag_305:\n        /* \"#utility.yul\":785:924   */\n      swap3\n      swap2\n      pop\n      pop\n      jump\t// out\n        /* \"#utility.yul\":930:1439   */\n    tag_24:\n        /* \"#utility.yul\":999:1005   */\n      0x00\n        /* \"#utility.yul\":1048:1050   */\n      0x20\n        /* \"#utility.yul\":1036:1045   */\n      dup3\n        /* \"#utility.yul\":1027:1034   */\n      dup5\n        /* \"#utility.yul\":1023:1046   */\n      sub\n        /* \"#utility.yul\":1019:1051   */\n      slt\n        /* \"#utility.yul\":1016:1135   */\n      iszero\n      tag_308\n      jumpi\n        /* \"#utility.yul\":1054:1133   */\n      tag_309\n      tag_310\n      jump\t// in\n    tag_309:\n        /* \"#utility.yul\":1016:1135   */\n    tag_308:\n        /* \"#utility.yul\":1202:1203   */\n      0x00\n        /* \"#utility.yul\":1191:1200   */\n      dup3\n        /* \"#utility.yul\":1187:1204   */\n      add\n        /* \"#utility.yul\":1174:1205   */\n      calldataload\n        /* \"#utility.yul\":1232:1250   */\n      0xffffffffffffffff\n        /* \"#utility.yul\":1224:1230   */\n      dup2\n        /* \"#utility.yul\":1221:1251   */\n      gt\n        /* \"#utility.yul\":1218:1335   */\n      iszero\n      tag_311\n      jumpi\n        /* \"#utility.yul\":1254:1333   */\n      tag_312\n      tag_313\n      jump\t// in\n    tag_312:\n        /* \"#utility.yul\":1218:1335   */\n    tag_311:\n        /* \"#utility.yul\":1359:1422   */\n      tag_314\n        /* \"#utility.yul\":1414:1421   */\n      dup5\n        /* \"#utility.yul\":1405:1411   */\n      dup3\n        /* \"#utility.yul\":1394:1403   */\n      dup6\n        /* \"#utility.yul\":1390:1412   */\n      add\n        /* \"#utility.yul\":1359:1422   */\n      tag_297\n      jump\t// in\n    tag_314:\n        /* \"#utility.yul\":1349:1422   */\n      swap2\n      pop\n        /* \"#utility.yul\":1145:1432   */\n      pop\n        /* \"#utility.yul\":930:1439   */\n      swap3\n      swap2\n      pop\n      pop\n      jump\t// out\n        /* \"#utility.yul\":1445:2424   */\n    tag_60:\n        /* \"#utility.yul\":1542:1548   */\n      0x00\n        /* \"#utility.yul\":1550:1556   */\n      dup1\n        /* \"#utility.yul\":1558:1564   */\n      0x00\n        /* \"#utility.yul\":1607:1609   */\n      0x60\n        /* \"#utility.yul\":1595:1604   */\n      dup5\n        /* \"#utility.yul\":1586:1593   */\n      dup7\n        /* \"#utility.yul\":1582:1605   */\n      sub\n        /* \"#utility.yul\":1578:1610   */\n      slt\n        /* \"#utility.yul\":1575:1694   */\n      iszero\n      tag_316\n      jumpi\n        /* \"#utility.yul\":1613:1692   */\n      tag_317\n      tag_310\n      jump\t// in\n    tag_317:\n        /* \"#utility.yul\":1575:1694   */\n    tag_316:\n        /* \"#utility.yul\":1761:1762   */\n      0x00\n        /* \"#utility.yul\":1750:1759   */\n      dup5\n        /* \"#utility.yul\":1746:1763   */\n      add\n        /* \"#utility.yul\":1733:1764   */\n      calldataload\n        /* \"#utility.yul\":1791:1809   */\n      0xffffffffffffffff\n        /* \"#utility.yul\":1783:1789   */\n      dup2\n        /* \"#utility.yul\":1780:1810   */\n      gt\n        /* \"#utility.yul\":1777:1894   */\n      iszero\n      tag_318\n      jumpi\n        /* \"#utility.yul\":1813:1892   */\n      tag_319\n      tag_313\n      jump\t// in\n    tag_319:\n        /* \"#utility.yul\":1777:1894   */\n    tag_318:\n        /* \"#utility.yul\":1918:1981   */\n      tag_320\n        /* \"#utility.yul\":1973:1980   */\n      dup7\n        /* \"#utility.yul\":1964:1970   */\n      dup3\n        /* \"#utility.yul\":1953:1962   */\n      dup8\n        /* \"#utility.yul\":1949:1971   */\n      add\n        /* \"#utility.yul\":1918:1981   */\n      tag_297\n      jump\t// in\n    tag_320:\n        /* \"#utility.yul\":1908:1981   */\n      swap4\n      pop\n        /* \"#utility.yul\":1704:1991   */\n      pop\n        /* \"#utility.yul\":2030:2032   */\n      0x20\n        /* \"#utility.yul\":2056:2109   */\n      tag_321\n        /* \"#utility.yul\":2101:2108   */\n      dup7\n        /* \"#utility.yul\":2092:2098   */\n      dup3\n        /* \"#utility.yul\":2081:2090   */\n      dup8\n        /* \"#utility.yul\":2077:2099   */\n      add\n        /* \"#utility.yul\":2056:2109   */\n      tag_303\n      jump\t// in\n    tag_321:\n        /* \"#utility.yul\":2046:2109   */\n      swap3\n      pop\n        /* \"#utility.yul\":2001:2119   */\n      pop\n        /* \"#utility.yul\":2186:2188   */\n      0x40\n        /* \"#utility.yul\":2175:2184   */\n      dup5\n        /* \"#utility.yul\":2171:2189   */\n      add\n        /* \"#utility.yul\":2158:2190   */\n      calldataload\n        /* \"#utility.yul\":2217:2235   */\n      0xffffffffffffffff\n        /* \"#utility.yul\":2209:2215   */\n      dup2\n        /* \"#utility.yul\":2206:2236   */\n      gt\n        /* \"#utility.yul\":2203:2320   */\n      iszero\n      tag_322\n      jumpi\n        /* \"#utility.yul\":2239:2318   */\n      tag_323\n      tag_313\n      jump\t// in\n    tag_323:\n        /* \"#utility.yul\":2203:2320   */\n    tag_322:\n        /* \"#utility.yul\":2344:2407   */\n      tag_324\n        /* \"#utility.yul\":2399:2406   */\n      dup7\n        /* \"#utility.yul\":2390:2396   */\n      dup3\n        /* \"#utility.yul\":2379:2388   */\n      dup8\n        /* \"#utility.yul\":2375:2397   */\n      add\n        /* \"#utility.yul\":2344:2407   */\n      tag_297\n      jump\t// in\n    tag_324:\n        /* \"#utility.yul\":2334:2407   */\n      swap2\n      pop\n        /* \"#utility.yul\":2129:2417   */\n      pop\n        /* \"#utility.yul\":1445:2424   */\n      swap3\n      pop\n      swap3\n      pop\n      swap3\n      jump\t// out\n        /* \"#utility.yul\":2430:2759   */\n    tag_30:\n        /* \"#utility.yul\":2489:2495   */\n      0x00\n        /* \"#utility.yul\":2538:2540   */\n      0x20\n        /* \"#utility.yul\":2526:2535   */\n      dup3\n        /* \"#utility.yul\":2517:2524   */\n      dup5\n        /* \"#utility.yul\":2513:2536   */\n      sub\n        /* \"#utility.yul\":2509:2541   */\n      slt\n        /* \"#utility.yul\":2506:2625   */\n      iszero\n      tag_326\n      jumpi\n        /* \"#utility.yul\":2544:2623   */\n      tag_327\n      tag_310\n      jump\t// in\n    tag_327:\n        /* \"#utility.yul\":2506:2625   */\n    tag_326:\n        /* \"#utility.yul\":2664:2665   */\n      0x00\n        /* \"#utility.yul\":2689:2742   */\n      tag_328\n        /* \"#utility.yul\":2734:2741   */\n      dup5\n        /* \"#utility.yul\":2725:2731   */\n      dup3\n        /* \"#utility.yul\":2714:2723   */\n      dup6\n        /* \"#utility.yul\":2710:2732   */\n      add\n        /* \"#utility.yul\":2689:2742   */\n      tag_303\n      jump\t// in\n    tag_328:\n        /* \"#utility.yul\":2679:2742   */\n      swap2\n      pop\n        /* \"#utility.yul\":2635:2752   */\n      pop\n        /* \"#utility.yul\":2430:2759   */\n      swap3\n      swap2\n      pop\n      pop\n      jump\t// out\n        /* \"#utility.yul\":2765:3384   */\n    tag_95:\n        /* \"#utility.yul\":2842:2848   */\n      0x00\n        /* \"#utility.yul\":2850:2856   */\n      dup1\n        /* \"#utility.yul\":2858:2864   */\n      0x00\n        /* \"#utility.yul\":2907:2909   */\n      0x60\n        /* \"#utility.yul\":2895:2904   */\n      dup5\n        /* \"#utility.yul\":2886:2893   */\n      dup7\n        /* \"#utility.yul\":2882:2905   */\n      sub\n        /* \"#utility.yul\":2878:2910   */\n      slt\n        /* \"#utility.yul\":2875:2994   */\n      iszero\n      tag_330\n      jumpi\n        /* \"#utility.yul\":2913:2992   */\n      tag_331\n      tag_310\n      jump\t// in\n    tag_331:\n        /* \"#utility.yul\":2875:2994   */\n    tag_330:\n        /* \"#utility.yul\":3033:3034   */\n      0x00\n        /* \"#utility.yul\":3058:3111   */\n      tag_332\n        /* \"#utility.yul\":3103:3110   */\n      dup7\n        /* \"#utility.yul\":3094:3100   */\n      dup3\n        /* \"#utility.yul\":3083:3092   */\n      dup8\n        /* \"#utility.yul\":3079:3101   */\n      add\n        /* \"#utility.yul\":3058:3111   */\n      tag_303\n      jump\t// in\n    tag_332:\n        /* \"#utility.yul\":3048:3111   */\n      swap4\n      pop\n        /* \"#utility.yul\":3004:3121   */\n      pop\n        /* \"#utility.yul\":3160:3162   */\n      0x20\n        /* \"#utility.yul\":3186:3239   */\n      tag_333\n        /* \"#utility.yul\":3231:3238   */\n      dup7\n        /* \"#utility.yul\":3222:3228   */\n      dup3\n        /* \"#utility.yul\":3211:3220   */\n      dup8\n        /* \"#utility.yul\":3207:3229   */\n      add\n        /* \"#utility.yul\":3186:3239   */\n      tag_303\n      jump\t// in\n    tag_333:\n        /* \"#utility.yul\":3176:3239   */\n      swap3\n      pop\n        /* \"#utility.yul\":3131:3249   */\n      pop\n        /* \"#utility.yul\":3288:3290   */\n      0x40\n        /* \"#utility.yul\":3314:3367   */\n      tag_334\n        /* \"#utility.yul\":3359:3366   */\n      dup7\n        /* \"#utility.yul\":3350:3356   */\n      dup3\n        /* \"#utility.yul\":3339:3348   */\n      dup8\n        /* \"#utility.yul\":3335:3357   */\n      add\n        /* \"#utility.yul\":3314:3367   */\n      tag_303\n      jump\t// in\n    tag_334:\n        /* \"#utility.yul\":3304:3367   */\n      swap2\n      pop\n        /* \"#utility.yul\":3259:3377   */\n      pop\n        /* \"#utility.yul\":2765:3384   */\n      swap3\n      pop\n      swap3\n      pop\n      swap3\n      jump\t// out\n        /* \"#utility.yul\":3390:3569   */\n    tag_335:\n        /* \"#utility.yul\":3459:3469   */\n      0x00\n        /* \"#utility.yul\":3480:3526   */\n      tag_337\n        /* \"#utility.yul\":3522:3525   */\n      dup4\n        /* \"#utility.yul\":3514:3520   */\n      dup4\n        /* \"#utility.yul\":3480:3526   */\n      tag_338\n      jump\t// in\n    tag_337:\n        /* \"#utility.yul\":3558:3562   */\n      0x20\n        /* \"#utility.yul\":3553:3556   */\n      dup4\n        /* \"#utility.yul\":3549:3563   */\n      add\n        /* \"#utility.yul\":3535:3563   */\n      swap1\n      pop\n        /* \"#utility.yul\":3390:3569   */\n      swap3\n      swap2\n      pop\n      pop\n      jump\t// out\n        /* \"#utility.yul\":3605:4317   */\n    tag_339:\n        /* \"#utility.yul\":3714:3717   */\n      0x00\n        /* \"#utility.yul\":3743:3797   */\n      tag_341\n        /* \"#utility.yul\":3791:3796   */\n      dup3\n        /* \"#utility.yul\":3743:3797   */\n      tag_342\n      jump\t// in\n    tag_341:\n        /* \"#utility.yul\":3813:3889   */\n      tag_343\n        /* \"#utility.yul\":3882:3888   */\n      dup2\n        /* \"#utility.yul\":3877:3880   */\n      dup6\n        /* \"#utility.yul\":3813:3889   */\n      tag_344\n      jump\t// in\n    tag_343:\n        /* \"#utility.yul\":3806:3889   */\n      swap4\n      pop\n        /* \"#utility.yul\":3913:3969   */\n      tag_345\n        /* \"#utility.yul\":3963:3968   */\n      dup4\n        /* \"#utility.yul\":3913:3969   */\n      tag_346\n      jump\t// in\n    tag_345:\n        /* \"#utility.yul\":3992:3999   */\n      dup1\n        /* \"#utility.yul\":4023:4024   */\n      0x00\n        /* \"#utility.yul\":4008:4292   */\n    tag_347:\n        /* \"#utility.yul\":4033:4039   */\n      dup4\n        /* \"#utility.yul\":4030:4031   */\n      dup2\n        /* \"#utility.yul\":4027:4040   */\n      lt\n        /* \"#utility.yul\":4008:4292   */\n      iszero\n      tag_349\n      jumpi\n        /* \"#utility.yul\":4109:4115   */\n      dup2\n        /* \"#utility.yul\":4103:4116   */\n      mload\n        /* \"#utility.yul\":4136:4199   */\n      tag_350\n        /* \"#utility.yul\":4195:4198   */\n      dup9\n        /* \"#utility.yul\":4180:4193   */\n      dup3\n        /* \"#utility.yul\":4136:4199   */\n      tag_335\n      jump\t// in\n    tag_350:\n        /* \"#utility.yul\":4129:4199   */\n      swap8\n      pop\n        /* \"#utility.yul\":4222:4282   */\n      tag_351\n        /* \"#utility.yul\":4275:4281   */\n      dup4\n        /* \"#utility.yul\":4222:4282   */\n      tag_352\n      jump\t// in\n    tag_351:\n        /* \"#utility.yul\":4212:4282   */\n      swap3\n      pop\n        /* \"#utility.yul\":4068:4292   */\n      pop\n        /* \"#utility.yul\":4055:4056   */\n      0x01\n        /* \"#utility.yul\":4052:4053   */\n      dup2\n        /* \"#utility.yul\":4048:4057   */\n      add\n        /* \"#utility.yul\":4043:4057   */\n      swap1\n      pop\n        /* \"#utility.yul\":4008:4292   */\n      jump(tag_347)\n    tag_349:\n        /* \"#utility.yul\":4012:4026   */\n      pop\n        /* \"#utility.yul\":4308:4311   */\n      dup6\n        /* \"#utility.yul\":4301:4311   */\n      swap4\n      pop\n        /* \"#utility.yul\":3719:4317   */\n      pop\n      pop\n      pop\n        /* \"#utility.yul\":3605:4317   */\n      swap3\n      swap2\n      pop\n      pop\n      jump\t// out\n        /* \"#utility.yul\":4323:4667   */\n    tag_353:\n        /* \"#utility.yul\":4401:4404   */\n      0x00\n        /* \"#utility.yul\":4429:4468   */\n      tag_355\n        /* \"#utility.yul\":4462:4467   */\n      dup3\n        /* \"#utility.yul\":4429:4468   */\n      tag_356\n      jump\t// in\n    tag_355:\n        /* \"#utility.yul\":4484:4545   */\n      tag_357\n        /* \"#utility.yul\":4538:4544   */\n      dup2\n        /* \"#utility.yul\":4533:4536   */\n      dup6\n        /* \"#utility.yul\":4484:4545   */\n      tag_358\n      jump\t// in\n    tag_357:\n        /* \"#utility.yul\":4477:4545   */\n      swap4\n      pop\n        /* \"#utility.yul\":4554:4606   */\n      tag_359\n        /* \"#utility.yul\":4599:4605   */\n      dup2\n        /* \"#utility.yul\":4594:4597   */\n      dup6\n        /* \"#utility.yul\":4587:4591   */\n      0x20\n        /* \"#utility.yul\":4580:4585   */\n      dup7\n        /* \"#utility.yul\":4576:4592   */\n      add\n        /* \"#utility.yul\":4554:4606   */\n      tag_360\n      jump\t// in\n    tag_359:\n        /* \"#utility.yul\":4631:4660   */\n      tag_361\n        /* \"#utility.yul\":4653:4659   */\n      dup2\n        /* \"#utility.yul\":4631:4660   */\n      tag_362\n      jump\t// in\n    tag_361:\n        /* \"#utility.yul\":4626:4629   */\n      dup5\n        /* \"#utility.yul\":4622:4661   */\n      add\n        /* \"#utility.yul\":4615:4661   */\n      swap2\n      pop\n        /* \"#utility.yul\":4405:4667   */\n      pop\n        /* \"#utility.yul\":4323:4667   */\n      swap3\n      swap2\n      pop\n      pop\n      jump\t// out\n        /* \"#utility.yul\":4673:5037   */\n    tag_363:\n        /* \"#utility.yul\":4761:4764   */\n      0x00\n        /* \"#utility.yul\":4789:4828   */\n      tag_365\n        /* \"#utility.yul\":4822:4827   */\n      dup3\n        /* \"#utility.yul\":4789:4828   */\n      tag_356\n      jump\t// in\n    tag_365:\n        /* \"#utility.yul\":4844:4915   */\n      tag_366\n        /* \"#utility.yul\":4908:4914   */\n      dup2\n        /* \"#utility.yul\":4903:4906   */\n      dup6\n        /* \"#utility.yul\":4844:4915   */\n      tag_367\n      jump\t// in\n    tag_366:\n        /* \"#utility.yul\":4837:4915   */\n      swap4\n      pop\n        /* \"#utility.yul\":4924:4976   */\n      tag_368\n        /* \"#utility.yul\":4969:4975   */\n      dup2\n        /* \"#utility.yul\":4964:4967   */\n      dup6\n        /* \"#utility.yul\":4957:4961   */\n      0x20\n        /* \"#utility.yul\":4950:4955   */\n      dup7\n        /* \"#utility.yul\":4946:4962   */\n      add\n        /* \"#utility.yul\":4924:4976   */\n      tag_360\n      jump\t// in\n    tag_368:\n        /* \"#utility.yul\":5001:5030   */\n      tag_369\n        /* \"#utility.yul\":5023:5029   */\n      dup2\n        /* \"#utility.yul\":5001:5030   */\n      tag_362\n      jump\t// in\n    tag_369:\n        /* \"#utility.yul\":4996:4999   */\n      dup5\n        /* \"#utility.yul\":4992:5031   */\n      add\n        /* \"#utility.yul\":4985:5031   */\n      swap2\n      pop\n        /* \"#utility.yul\":4765:5037   */\n      pop\n        /* \"#utility.yul\":4673:5037   */\n      swap3\n      swap2\n      pop\n      pop\n      jump\t// out\n        /* \"#utility.yul\":5113:6259   */\n    tag_370:\n        /* \"#utility.yul\":5236:5239   */\n      0x00\n        /* \"#utility.yul\":5272:5276   */\n      0x80\n        /* \"#utility.yul\":5267:5270   */\n      dup4\n        /* \"#utility.yul\":5263:5277   */\n      add\n        /* \"#utility.yul\":5368:5372   */\n      0x00\n        /* \"#utility.yul\":5361:5366   */\n      dup4\n        /* \"#utility.yul\":5357:5373   */\n      add\n        /* \"#utility.yul\":5351:5374   */\n      mload\n        /* \"#utility.yul\":5387:5450   */\n      tag_372\n        /* \"#utility.yul\":5444:5448   */\n      0x00\n        /* \"#utility.yul\":5439:5442   */\n      dup7\n        /* \"#utility.yul\":5435:5449   */\n      add\n        /* \"#utility.yul\":5421:5433   */\n      dup3\n        /* \"#utility.yul\":5387:5450   */\n      tag_338\n      jump\t// in\n    tag_372:\n        /* \"#utility.yul\":5287:5460   */\n      pop\n        /* \"#utility.yul\":5542:5546   */\n      0x20\n        /* \"#utility.yul\":5535:5540   */\n      dup4\n        /* \"#utility.yul\":5531:5547   */\n      add\n        /* \"#utility.yul\":5525:5548   */\n      mload\n        /* \"#utility.yul\":5595:5598   */\n      dup5\n        /* \"#utility.yul\":5589:5593   */\n      dup3\n        /* \"#utility.yul\":5585:5599   */\n      sub\n        /* \"#utility.yul\":5578:5582   */\n      0x20\n        /* \"#utility.yul\":5573:5576   */\n      dup7\n        /* \"#utility.yul\":5569:5583   */\n      add\n        /* \"#utility.yul\":5562:5600   */\n      mstore\n        /* \"#utility.yul\":5621:5694   */\n      tag_373\n        /* \"#utility.yul\":5689:5693   */\n      dup3\n        /* \"#utility.yul\":5675:5687   */\n      dup3\n        /* \"#utility.yul\":5621:5694   */\n      tag_353\n      jump\t// in\n    tag_373:\n        /* \"#utility.yul\":5613:5694   */\n      swap2\n      pop\n        /* \"#utility.yul\":5470:5705   */\n      pop\n        /* \"#utility.yul\":5787:5791   */\n      0x40\n        /* \"#utility.yul\":5780:5785   */\n      dup4\n        /* \"#utility.yul\":5776:5792   */\n      add\n        /* \"#utility.yul\":5770:5793   */\n      mload\n        /* \"#utility.yul\":5840:5843   */\n      dup5\n        /* \"#utility.yul\":5834:5838   */\n      dup3\n        /* \"#utility.yul\":5830:5844   */\n      sub\n        /* \"#utility.yul\":5823:5827   */\n      0x40\n        /* \"#utility.yul\":5818:5821   */\n      dup7\n        /* \"#utility.yul\":5814:5828   */\n      add\n        /* \"#utility.yul\":5807:5845   */\n      mstore\n        /* \"#utility.yul\":5866:5939   */\n      tag_374\n        /* \"#utility.yul\":5934:5938   */\n      dup3\n        /* \"#utility.yul\":5920:5932   */\n      dup3\n        /* \"#utility.yul\":5866:5939   */\n      tag_353\n      jump\t// in\n    tag_374:\n        /* \"#utility.yul\":5858:5939   */\n      swap2\n      pop\n        /* \"#utility.yul\":5715:5950   */\n      pop\n        /* \"#utility.yul\":6039:6043   */\n      0x60\n        /* \"#utility.yul\":6032:6037   */\n      dup4\n        /* \"#utility.yul\":6028:6044   */\n      add\n        /* \"#utility.yul\":6022:6045   */\n      mload\n        /* \"#utility.yul\":6092:6095   */\n      dup5\n        /* \"#utility.yul\":6086:6090   */\n      dup3\n        /* \"#utility.yul\":6082:6096   */\n      sub\n        /* \"#utility.yul\":6075:6079   */\n      0x60\n        /* \"#utility.yul\":6070:6073   */\n      dup7\n        /* \"#utility.yul\":6066:6080   */\n      add\n        /* \"#utility.yul\":6059:6097   */\n      mstore\n        /* \"#utility.yul\":6118:6221   */\n      tag_375\n        /* \"#utility.yul\":6216:6220   */\n      dup3\n        /* \"#utility.yul\":6202:6214   */\n      dup3\n        /* \"#utility.yul\":6118:6221   */\n      tag_339\n      jump\t// in\n    tag_375:\n        /* \"#utility.yul\":6110:6221   */\n      swap2\n      pop\n        /* \"#utility.yul\":5960:6232   */\n      pop\n        /* \"#utility.yul\":6249:6253   */\n      dup1\n        /* \"#utility.yul\":6242:6253   */\n      swap2\n      pop\n        /* \"#utility.yul\":5241:6259   */\n      pop\n        /* \"#utility.yul\":5113:6259   */\n      swap3\n      swap2\n      pop\n      pop\n      jump\t// out\n        /* \"#utility.yul\":6337:7486   */\n    tag_376:\n        /* \"#utility.yul\":6462:6465   */\n      0x00\n        /* \"#utility.yul\":6498:6502   */\n      0x80\n        /* \"#utility.yul\":6493:6496   */\n      dup4\n        /* \"#utility.yul\":6489:6503   */\n      add\n        /* \"#utility.yul\":6595:6599   */\n      0x00\n        /* \"#utility.yul\":6588:6593   */\n      dup4\n        /* \"#utility.yul\":6584:6600   */\n      add\n        /* \"#utility.yul\":6578:6601   */\n      mload\n        /* \"#utility.yul\":6614:6677   */\n      tag_378\n        /* \"#utility.yul\":6671:6675   */\n      0x00\n        /* \"#utility.yul\":6666:6669   */\n      dup7\n        /* \"#utility.yul\":6662:6676   */\n      add\n        /* \"#utility.yul\":6648:6660   */\n      dup3\n        /* \"#utility.yul\":6614:6677   */\n      tag_338\n      jump\t// in\n    tag_378:\n        /* \"#utility.yul\":6513:6687   */\n      pop\n        /* \"#utility.yul\":6769:6773   */\n      0x20\n        /* \"#utility.yul\":6762:6767   */\n      dup4\n        /* \"#utility.yul\":6758:6774   */\n      add\n        /* \"#utility.yul\":6752:6775   */\n      mload\n        /* \"#utility.yul\":6822:6825   */\n      dup5\n        /* \"#utility.yul\":6816:6820   */\n      dup3\n        /* \"#utility.yul\":6812:6826   */\n      sub\n        /* \"#utility.yul\":6805:6809   */\n      0x20\n        /* \"#utility.yul\":6800:6803   */\n      dup7\n        /* \"#utility.yul\":6796:6810   */\n      add\n        /* \"#utility.yul\":6789:6827   */\n      mstore\n        /* \"#utility.yul\":6848:6921   */\n      tag_379\n        /* \"#utility.yul\":6916:6920   */\n      dup3\n        /* \"#utility.yul\":6902:6914   */\n      dup3\n        /* \"#utility.yul\":6848:6921   */\n      tag_353\n      jump\t// in\n    tag_379:\n        /* \"#utility.yul\":6840:6921   */\n      swap2\n      pop\n        /* \"#utility.yul\":6697:6932   */\n      pop\n        /* \"#utility.yul\":7014:7018   */\n      0x40\n        /* \"#utility.yul\":7007:7012   */\n      dup4\n        /* \"#utility.yul\":7003:7019   */\n      add\n        /* \"#utility.yul\":6997:7020   */\n      mload\n        /* \"#utility.yul\":7067:7070   */\n      dup5\n        /* \"#utility.yul\":7061:7065   */\n      dup3\n        /* \"#utility.yul\":7057:7071   */\n      sub\n        /* \"#utility.yul\":7050:7054   */\n      0x40\n        /* \"#utility.yul\":7045:7048   */\n      dup7\n        /* \"#utility.yul\":7041:7055   */\n      add\n        /* \"#utility.yul\":7034:7072   */\n      mstore\n        /* \"#utility.yul\":7093:7166   */\n      tag_380\n        /* \"#utility.yul\":7161:7165   */\n      dup3\n        /* \"#utility.yul\":7147:7159   */\n      dup3\n        /* \"#utility.yul\":7093:7166   */\n      tag_353\n      jump\t// in\n    tag_380:\n        /* \"#utility.yul\":7085:7166   */\n      swap2\n      pop\n        /* \"#utility.yul\":6942:7177   */\n      pop\n        /* \"#utility.yul\":7266:7270   */\n      0x60\n        /* \"#utility.yul\":7259:7264   */\n      dup4\n        /* \"#utility.yul\":7255:7271   */\n      add\n        /* \"#utility.yul\":7249:7272   */\n      mload\n        /* \"#utility.yul\":7319:7322   */\n      dup5\n        /* \"#utility.yul\":7313:7317   */\n      dup3\n        /* \"#utility.yul\":7309:7323   */\n      sub\n        /* \"#utility.yul\":7302:7306   */\n      0x60\n        /* \"#utility.yul\":7297:7300   */\n      dup7\n        /* \"#utility.yul\":7293:7307   */\n      add\n        /* \"#utility.yul\":7286:7324   */\n      mstore\n        /* \"#utility.yul\":7345:7448   */\n      tag_381\n        /* \"#utility.yul\":7443:7447   */\n      dup3\n        /* \"#utility.yul\":7429:7441   */\n      dup3\n        /* \"#utility.yul\":7345:7448   */\n      tag_339\n      jump\t// in\n    tag_381:\n        /* \"#utility.yul\":7337:7448   */\n      swap2\n      pop\n        /* \"#utility.yul\":7187:7459   */\n      pop\n        /* \"#utility.yul\":7476:7480   */\n      dup1\n        /* \"#utility.yul\":7469:7480   */\n      swap2\n      pop\n        /* \"#utility.yul\":6467:7486   */\n      pop\n        /* \"#utility.yul\":6337:7486   */\n      swap3\n      swap2\n      pop\n      pop\n      jump\t// out\n        /* \"#utility.yul\":7554:9017   */\n    tag_382:\n        /* \"#utility.yul\":7669:7672   */\n      0x00\n        /* \"#utility.yul\":7705:7709   */\n      0xc0\n        /* \"#utility.yul\":7700:7703   */\n      dup4\n        /* \"#utility.yul\":7696:7710   */\n      add\n        /* \"#utility.yul\":7797:7801   */\n      0x00\n        /* \"#utility.yul\":7790:7795   */\n      dup4\n        /* \"#utility.yul\":7786:7802   */\n      add\n        /* \"#utility.yul\":7780:7803   */\n      mload\n        /* \"#utility.yul\":7816:7879   */\n      tag_384\n        /* \"#utility.yul\":7873:7877   */\n      0x00\n        /* \"#utility.yul\":7868:7871   */\n      dup7\n        /* \"#utility.yul\":7864:7878   */\n      add\n        /* \"#utility.yul\":7850:7862   */\n      dup3\n        /* \"#utility.yul\":7816:7879   */\n      tag_338\n      jump\t// in\n    tag_384:\n        /* \"#utility.yul\":7720:7889   */\n      pop\n        /* \"#utility.yul\":7971:7975   */\n      0x20\n        /* \"#utility.yul\":7964:7969   */\n      dup4\n        /* \"#utility.yul\":7960:7976   */\n      add\n        /* \"#utility.yul\":7954:7977   */\n      mload\n        /* \"#utility.yul\":8024:8027   */\n      dup5\n        /* \"#utility.yul\":8018:8022   */\n      dup3\n        /* \"#utility.yul\":8014:8028   */\n      sub\n        /* \"#utility.yul\":8007:8011   */\n      0x20\n        /* \"#utility.yul\":8002:8005   */\n      dup7\n        /* \"#utility.yul\":7998:8012   */\n      add\n        /* \"#utility.yul\":7991:8029   */\n      mstore\n        /* \"#utility.yul\":8050:8123   */\n      tag_385\n        /* \"#utility.yul\":8118:8122   */\n      dup3\n        /* \"#utility.yul\":8104:8116   */\n      dup3\n        /* \"#utility.yul\":8050:8123   */\n      tag_353\n      jump\t// in\n    tag_385:\n        /* \"#utility.yul\":8042:8123   */\n      swap2\n      pop\n        /* \"#utility.yul\":7899:8134   */\n      pop\n        /* \"#utility.yul\":8217:8221   */\n      0x40\n        /* \"#utility.yul\":8210:8215   */\n      dup4\n        /* \"#utility.yul\":8206:8222   */\n      add\n        /* \"#utility.yul\":8200:8223   */\n      mload\n        /* \"#utility.yul\":8236:8299   */\n      tag_386\n        /* \"#utility.yul\":8293:8297   */\n      0x40\n        /* \"#utility.yul\":8288:8291   */\n      dup7\n        /* \"#utility.yul\":8284:8298   */\n      add\n        /* \"#utility.yul\":8270:8282   */\n      dup3\n        /* \"#utility.yul\":8236:8299   */\n      tag_338\n      jump\t// in\n    tag_386:\n        /* \"#utility.yul\":8144:8309   */\n      pop\n        /* \"#utility.yul\":8398:8402   */\n      0x60\n        /* \"#utility.yul\":8391:8396   */\n      dup4\n        /* \"#utility.yul\":8387:8403   */\n      add\n        /* \"#utility.yul\":8381:8404   */\n      mload\n        /* \"#utility.yul\":8451:8454   */\n      dup5\n        /* \"#utility.yul\":8445:8449   */\n      dup3\n        /* \"#utility.yul\":8441:8455   */\n      sub\n        /* \"#utility.yul\":8434:8438   */\n      0x60\n        /* \"#utility.yul\":8429:8432   */\n      dup7\n        /* \"#utility.yul\":8425:8439   */\n      add\n        /* \"#utility.yul\":8418:8456   */\n      mstore\n        /* \"#utility.yul\":8477:8550   */\n      tag_387\n        /* \"#utility.yul\":8545:8549   */\n      dup3\n        /* \"#utility.yul\":8531:8543   */\n      dup3\n        /* \"#utility.yul\":8477:8550   */\n      tag_353\n      jump\t// in\n    tag_387:\n        /* \"#utility.yul\":8469:8550   */\n      swap2\n      pop\n        /* \"#utility.yul\":8319:8561   */\n      pop\n        /* \"#utility.yul\":8647:8651   */\n      0x80\n        /* \"#utility.yul\":8640:8645   */\n      dup4\n        /* \"#utility.yul\":8636:8652   */\n      add\n        /* \"#utility.yul\":8630:8653   */\n      mload\n        /* \"#utility.yul\":8700:8703   */\n      dup5\n        /* \"#utility.yul\":8694:8698   */\n      dup3\n        /* \"#utility.yul\":8690:8704   */\n      sub\n        /* \"#utility.yul\":8683:8687   */\n      0x80\n        /* \"#utility.yul\":8678:8681   */\n      dup7\n        /* \"#utility.yul\":8674:8688   */\n      add\n        /* \"#utility.yul\":8667:8705   */\n      mstore\n        /* \"#utility.yul\":8726:8799   */\n      tag_388\n        /* \"#utility.yul\":8794:8798   */\n      dup3\n        /* \"#utility.yul\":8780:8792   */\n      dup3\n        /* \"#utility.yul\":8726:8799   */\n      tag_353\n      jump\t// in\n    tag_388:\n        /* \"#utility.yul\":8718:8799   */\n      swap2\n      pop\n        /* \"#utility.yul\":8571:8810   */\n      pop\n        /* \"#utility.yul\":8898:8902   */\n      0xa0\n        /* \"#utility.yul\":8891:8896   */\n      dup4\n        /* \"#utility.yul\":8887:8903   */\n      add\n        /* \"#utility.yul\":8881:8904   */\n      mload\n        /* \"#utility.yul\":8917:8980   */\n      tag_389\n        /* \"#utility.yul\":8974:8978   */\n      0xa0\n        /* \"#utility.yul\":8969:8972   */\n      dup7\n        /* \"#utility.yul\":8965:8979   */\n      add\n        /* \"#utility.yul\":8951:8963   */\n      dup3\n        /* \"#utility.yul\":8917:8980   */\n      tag_338\n      jump\t// in\n    tag_389:\n        /* \"#utility.yul\":8820:8990   */\n      pop\n        /* \"#utility.yul\":9007:9011   */\n      dup1\n        /* \"#utility.yul\":9000:9011   */\n      swap2\n      pop\n        /* \"#utility.yul\":7674:9017   */\n      pop\n        /* \"#utility.yul\":7554:9017   */\n      swap3\n      swap2\n      pop\n      pop\n      jump\t// out\n        /* \"#utility.yul\":9087:9979   */\n    tag_390:\n        /* \"#utility.yul\":9204:9207   */\n      0x00\n        /* \"#utility.yul\":9240:9244   */\n      0x60\n        /* \"#utility.yul\":9235:9238   */\n      dup4\n        /* \"#utility.yul\":9231:9245   */\n      add\n        /* \"#utility.yul\":9333:9337   */\n      0x00\n        /* \"#utility.yul\":9326:9331   */\n      dup4\n        /* \"#utility.yul\":9322:9338   */\n      add\n        /* \"#utility.yul\":9316:9339   */\n      mload\n        /* \"#utility.yul\":9352:9415   */\n      tag_392\n        /* \"#utility.yul\":9409:9413   */\n      0x00\n        /* \"#utility.yul\":9404:9407   */\n      dup7\n        /* \"#utility.yul\":9400:9414   */\n      add\n        /* \"#utility.yul\":9386:9398   */\n      dup3\n        /* \"#utility.yul\":9352:9415   */\n      tag_338\n      jump\t// in\n    tag_392:\n        /* \"#utility.yul\":9255:9425   */\n      pop\n        /* \"#utility.yul\":9507:9511   */\n      0x20\n        /* \"#utility.yul\":9500:9505   */\n      dup4\n        /* \"#utility.yul\":9496:9512   */\n      add\n        /* \"#utility.yul\":9490:9513   */\n      mload\n        /* \"#utility.yul\":9560:9563   */\n      dup5\n        /* \"#utility.yul\":9554:9558   */\n      dup3\n        /* \"#utility.yul\":9550:9564   */\n      sub\n        /* \"#utility.yul\":9543:9547   */\n      0x20\n        /* \"#utility.yul\":9538:9541   */\n      dup7\n        /* \"#utility.yul\":9534:9548   */\n      add\n        /* \"#utility.yul\":9527:9565   */\n      mstore\n        /* \"#utility.yul\":9586:9659   */\n      tag_393\n        /* \"#utility.yul\":9654:9658   */\n      dup3\n        /* \"#utility.yul\":9640:9652   */\n      dup3\n        /* \"#utility.yul\":9586:9659   */\n      tag_353\n      jump\t// in\n    tag_393:\n        /* \"#utility.yul\":9578:9659   */\n      swap2\n      pop\n        /* \"#utility.yul\":9435:9670   */\n      pop\n        /* \"#utility.yul\":9759:9763   */\n      0x40\n        /* \"#utility.yul\":9752:9757   */\n      dup4\n        /* \"#utility.yul\":9748:9764   */\n      add\n        /* \"#utility.yul\":9742:9765   */\n      mload\n        /* \"#utility.yul\":9812:9815   */\n      dup5\n        /* \"#utility.yul\":9806:9810   */\n      dup3\n        /* \"#utility.yul\":9802:9816   */\n      sub\n        /* \"#utility.yul\":9795:9799   */\n      0x40\n        /* \"#utility.yul\":9790:9793   */\n      dup7\n        /* \"#utility.yul\":9786:9800   */\n      add\n        /* \"#utility.yul\":9779:9817   */\n      mstore\n        /* \"#utility.yul\":9838:9941   */\n      tag_394\n        /* \"#utility.yul\":9936:9940   */\n      dup3\n        /* \"#utility.yul\":9922:9934   */\n      dup3\n        /* \"#utility.yul\":9838:9941   */\n      tag_339\n      jump\t// in\n    tag_394:\n        /* \"#utility.yul\":9830:9941   */\n      swap2\n      pop\n        /* \"#utility.yul\":9680:9952   */\n      pop\n        /* \"#utility.yul\":9969:9973   */\n      dup1\n        /* \"#utility.yul\":9962:9973   */\n      swap2\n      pop\n        /* \"#utility.yul\":9209:9979   */\n      pop\n        /* \"#utility.yul\":9087:9979   */\n      swap3\n      swap2\n      pop\n      pop\n      jump\t// out\n        /* \"#utility.yul\":10049:11186   */\n    tag_395:\n        /* \"#utility.yul\":10166:10169   */\n      0x00\n        /* \"#utility.yul\":10202:10206   */\n      0x80\n        /* \"#utility.yul\":10197:10200   */\n      dup4\n        /* \"#utility.yul\":10193:10207   */\n      add\n        /* \"#utility.yul\":10295:10299   */\n      0x00\n        /* \"#utility.yul\":10288:10293   */\n      dup4\n        /* \"#utility.yul\":10284:10300   */\n      add\n        /* \"#utility.yul\":10278:10301   */\n      mload\n        /* \"#utility.yul\":10314:10377   */\n      tag_397\n        /* \"#utility.yul\":10371:10375   */\n      0x00\n        /* \"#utility.yul\":10366:10369   */\n      dup7\n        /* \"#utility.yul\":10362:10376   */\n      add\n        /* \"#utility.yul\":10348:10360   */\n      dup3\n        /* \"#utility.yul\":10314:10377   */\n      tag_338\n      jump\t// in\n    tag_397:\n        /* \"#utility.yul\":10217:10387   */\n      pop\n        /* \"#utility.yul\":10469:10473   */\n      0x20\n        /* \"#utility.yul\":10462:10467   */\n      dup4\n        /* \"#utility.yul\":10458:10474   */\n      add\n        /* \"#utility.yul\":10452:10475   */\n      mload\n        /* \"#utility.yul\":10522:10525   */\n      dup5\n        /* \"#utility.yul\":10516:10520   */\n      dup3\n        /* \"#utility.yul\":10512:10526   */\n      sub\n        /* \"#utility.yul\":10505:10509   */\n      0x20\n        /* \"#utility.yul\":10500:10503   */\n      dup7\n        /* \"#utility.yul\":10496:10510   */\n      add\n        /* \"#utility.yul\":10489:10527   */\n      mstore\n        /* \"#utility.yul\":10548:10621   */\n      tag_398\n        /* \"#utility.yul\":10616:10620   */\n      dup3\n        /* \"#utility.yul\":10602:10614   */\n      dup3\n        /* \"#utility.yul\":10548:10621   */\n      tag_353\n      jump\t// in\n    tag_398:\n        /* \"#utility.yul\":10540:10621   */\n      swap2\n      pop\n        /* \"#utility.yul\":10397:10632   */\n      pop\n        /* \"#utility.yul\":10714:10718   */\n      0x40\n        /* \"#utility.yul\":10707:10712   */\n      dup4\n        /* \"#utility.yul\":10703:10719   */\n      add\n        /* \"#utility.yul\":10697:10720   */\n      mload\n        /* \"#utility.yul\":10767:10770   */\n      dup5\n        /* \"#utility.yul\":10761:10765   */\n      dup3\n        /* \"#utility.yul\":10757:10771   */\n      sub\n        /* \"#utility.yul\":10750:10754   */\n      0x40\n        /* \"#utility.yul\":10745:10748   */\n      dup7\n        /* \"#utility.yul\":10741:10755   */\n      add\n        /* \"#utility.yul\":10734:10772   */\n      mstore\n        /* \"#utility.yul\":10793:10866   */\n      tag_399\n        /* \"#utility.yul\":10861:10865   */\n      dup3\n        /* \"#utility.yul\":10847:10859   */\n      dup3\n        /* \"#utility.yul\":10793:10866   */\n      tag_353\n      jump\t// in\n    tag_399:\n        /* \"#utility.yul\":10785:10866   */\n      swap2\n      pop\n        /* \"#utility.yul\":10642:10877   */\n      pop\n        /* \"#utility.yul\":10966:10970   */\n      0x60\n        /* \"#utility.yul\":10959:10964   */\n      dup4\n        /* \"#utility.yul\":10955:10971   */\n      add\n        /* \"#utility.yul\":10949:10972   */\n      mload\n        /* \"#utility.yul\":11019:11022   */\n      dup5\n        /* \"#utility.yul\":11013:11017   */\n      dup3\n        /* \"#utility.yul\":11009:11023   */\n      sub\n        /* \"#utility.yul\":11002:11006   */\n      0x60\n        /* \"#utility.yul\":10997:11000   */\n      dup7\n        /* \"#utility.yul\":10993:11007   */\n      add\n        /* \"#utility.yul\":10986:11024   */\n      mstore\n        /* \"#utility.yul\":11045:11148   */\n      tag_400\n        /* \"#utility.yul\":11143:11147   */\n      dup3\n        /* \"#utility.yul\":11129:11141   */\n      dup3\n        /* \"#utility.yul\":11045:11148   */\n      tag_339\n      jump\t// in\n    tag_400:\n        /* \"#utility.yul\":11037:11148   */\n      swap2\n      pop\n        /* \"#utility.yul\":10887:11159   */\n      pop\n        /* \"#utility.yul\":11176:11180   */\n      dup1\n        /* \"#utility.yul\":11169:11180   */\n      swap2\n      pop\n        /* \"#utility.yul\":10171:11186   */\n      pop\n        /* \"#utility.yul\":10049:11186   */\n      swap3\n      swap2\n      pop\n      pop\n      jump\t// out\n        /* \"#utility.yul\":11192:11300   */\n    tag_338:\n        /* \"#utility.yul\":11269:11293   */\n      tag_402\n        /* \"#utility.yul\":11287:11292   */\n      dup2\n        /* \"#utility.yul\":11269:11293   */\n      tag_403\n      jump\t// in\n    tag_402:\n        /* \"#utility.yul\":11264:11267   */\n      dup3\n        /* \"#utility.yul\":11257:11294   */\n      mstore\n        /* \"#utility.yul\":11192:11300   */\n      pop\n      pop\n      jump\t// out\n        /* \"#utility.yul\":11306:11424   */\n    tag_404:\n        /* \"#utility.yul\":11393:11417   */\n      tag_406\n        /* \"#utility.yul\":11411:11416   */\n      dup2\n        /* \"#utility.yul\":11393:11417   */\n      tag_403\n      jump\t// in\n    tag_406:\n        /* \"#utility.yul\":11388:11391   */\n      dup3\n        /* \"#utility.yul\":11381:11418   */\n      mstore\n        /* \"#utility.yul\":11306:11424   */\n      pop\n      pop\n      jump\t// out\n        /* \"#utility.yul\":11430:11963   */\n    tag_101:\n        /* \"#utility.yul\":11599:11603   */\n      0x00\n        /* \"#utility.yul\":11637:11639   */\n      0x60\n        /* \"#utility.yul\":11626:11635   */\n      dup3\n        /* \"#utility.yul\":11622:11640   */\n      add\n        /* \"#utility.yul\":11614:11640   */\n      swap1\n      pop\n        /* \"#utility.yul\":11686:11695   */\n      dup2\n        /* \"#utility.yul\":11680:11684   */\n      dup2\n        /* \"#utility.yul\":11676:11696   */\n      sub\n        /* \"#utility.yul\":11672:11673   */\n      0x00\n        /* \"#utility.yul\":11661:11670   */\n      dup4\n        /* \"#utility.yul\":11657:11674   */\n      add\n        /* \"#utility.yul\":11650:11697   */\n      mstore\n        /* \"#utility.yul\":11714:11792   */\n      tag_408\n        /* \"#utility.yul\":11787:11791   */\n      dup2\n        /* \"#utility.yul\":11778:11784   */\n      dup7\n        /* \"#utility.yul\":11714:11792   */\n      tag_363\n      jump\t// in\n    tag_408:\n        /* \"#utility.yul\":11706:11792   */\n      swap1\n      pop\n        /* \"#utility.yul\":11802:11874   */\n      tag_409\n        /* \"#utility.yul\":11870:11872   */\n      0x20\n        /* \"#utility.yul\":11859:11868   */\n      dup4\n        /* \"#utility.yul\":11855:11873   */\n      add\n        /* \"#utility.yul\":11846:11852   */\n      dup6\n        /* \"#utility.yul\":11802:11874   */\n      tag_404\n      jump\t// in\n    tag_409:\n        /* \"#utility.yul\":11884:11956   */\n      tag_410\n        /* \"#utility.yul\":11952:11954   */\n      0x40\n        /* \"#utility.yul\":11941:11950   */\n      dup4\n        /* \"#utility.yul\":11937:11955   */\n      add\n        /* \"#utility.yul\":11928:11934   */\n      dup5\n        /* \"#utility.yul\":11884:11956   */\n      tag_404\n      jump\t// in\n    tag_410:\n        /* \"#utility.yul\":11430:11963   */\n      swap5\n      swap4\n      pop\n      pop\n      pop\n      pop\n      jump\t// out\n        /* \"#utility.yul\":11969:12350   */\n    tag_33:\n        /* \"#utility.yul\":12116:12120   */\n      0x00\n        /* \"#utility.yul\":12154:12156   */\n      0x20\n        /* \"#utility.yul\":12143:12152   */\n      dup3\n        /* \"#utility.yul\":12139:12157   */\n      add\n        /* \"#utility.yul\":12131:12157   */\n      swap1\n      pop\n        /* \"#utility.yul\":12203:12212   */\n      dup2\n        /* \"#utility.yul\":12197:12201   */\n      dup2\n        /* \"#utility.yul\":12193:12213   */\n      sub\n        /* \"#utility.yul\":12189:12190   */\n      0x00\n        /* \"#utility.yul\":12178:12187   */\n      dup4\n        /* \"#utility.yul\":12174:12191   */\n      add\n        /* \"#utility.yul\":12167:12214   */\n      mstore\n        /* \"#utility.yul\":12231:12343   */\n      tag_412\n        /* \"#utility.yul\":12338:12342   */\n      dup2\n        /* \"#utility.yul\":12329:12335   */\n      dup5\n        /* \"#utility.yul\":12231:12343   */\n      tag_370\n      jump\t// in\n    tag_412:\n        /* \"#utility.yul\":12223:12343   */\n      swap1\n      pop\n        /* \"#utility.yul\":11969:12350   */\n      swap3\n      swap2\n      pop\n      pop\n      jump\t// out\n        /* \"#utility.yul\":12356:12741   */\n    tag_83:\n        /* \"#utility.yul\":12505:12509   */\n      0x00\n        /* \"#utility.yul\":12543:12545   */\n      0x20\n        /* \"#utility.yul\":12532:12541   */\n      dup3\n        /* \"#utility.yul\":12528:12546   */\n      add\n        /* \"#utility.yul\":12520:12546   */\n      swap1\n      pop\n        /* \"#utility.yul\":12592:12601   */\n      dup2\n        /* \"#utility.yul\":12586:12590   */\n      dup2\n        /* \"#utility.yul\":12582:12602   */\n      sub\n        /* \"#utility.yul\":12578:12579   */\n      0x00\n        /* \"#utility.yul\":12567:12576   */\n      dup4\n        /* \"#utility.yul\":12563:12580   */\n      add\n        /* \"#utility.yul\":12556:12603   */\n      mstore\n        /* \"#utility.yul\":12620:12734   */\n      tag_414\n        /* \"#utility.yul\":12729:12733   */\n      dup2\n        /* \"#utility.yul\":12720:12726   */\n      dup5\n        /* \"#utility.yul\":12620:12734   */\n      tag_376\n      jump\t// in\n    tag_414:\n        /* \"#utility.yul\":12612:12734   */\n      swap1\n      pop\n        /* \"#utility.yul\":12356:12741   */\n      swap3\n      swap2\n      pop\n      pop\n      jump\t// out\n        /* \"#utility.yul\":12747:13112   */\n    tag_78:\n        /* \"#utility.yul\":12886:12890   */\n      0x00\n        /* \"#utility.yul\":12924:12926   */\n      0x20\n        /* \"#utility.yul\":12913:12922   */\n      dup3\n        /* \"#utility.yul\":12909:12927   */\n      add\n        /* \"#utility.yul\":12901:12927   */\n      swap1\n      pop\n        /* \"#utility.yul\":12973:12982   */\n      dup2\n        /* \"#utility.yul\":12967:12971   */\n      dup2\n        /* \"#utility.yul\":12963:12983   */\n      sub\n        /* \"#utility.yul\":12959:12960   */\n      0x00\n        /* \"#utility.yul\":12948:12957   */\n      dup4\n        /* \"#utility.yul\":12944:12961   */\n      add\n        /* \"#utility.yul\":12937:12984   */\n      mstore\n        /* \"#utility.yul\":13001:13105   */\n      tag_416\n        /* \"#utility.yul\":13100:13104   */\n      dup2\n        /* \"#utility.yul\":13091:13097   */\n      dup5\n        /* \"#utility.yul\":13001:13105   */\n      tag_382\n      jump\t// in\n    tag_416:\n        /* \"#utility.yul\":12993:13105   */\n      swap1\n      pop\n        /* \"#utility.yul\":12747:13112   */\n      swap3\n      swap2\n      pop\n      pop\n      jump\t// out\n        /* \"#utility.yul\":13118:13593   */\n    tag_190:\n        /* \"#utility.yul\":13285:13289   */\n      0x00\n        /* \"#utility.yul\":13323:13325   */\n      0x40\n        /* \"#utility.yul\":13312:13321   */\n      dup3\n        /* \"#utility.yul\":13308:13326   */\n      add\n        /* \"#utility.yul\":13300:13326   */\n      swap1\n      pop\n        /* \"#utility.yul\":13372:13381   */\n      dup2\n        /* \"#utility.yul\":13366:13370   */\n      dup2\n        /* \"#utility.yul\":13362:13382   */\n      sub\n        /* \"#utility.yul\":13358:13359   */\n      0x00\n        /* \"#utility.yul\":13347:13356   */\n      dup4\n        /* \"#utility.yul\":13343:13360   */\n      add\n        /* \"#utility.yul\":13336:13383   */\n      mstore\n        /* \"#utility.yul\":13400:13504   */\n      tag_418\n        /* \"#utility.yul\":13499:13503   */\n      dup2\n        /* \"#utility.yul\":13490:13496   */\n      dup6\n        /* \"#utility.yul\":13400:13504   */\n      tag_382\n      jump\t// in\n    tag_418:\n        /* \"#utility.yul\":13392:13504   */\n      swap1\n      pop\n        /* \"#utility.yul\":13514:13586   */\n      tag_419\n        /* \"#utility.yul\":13582:13584   */\n      0x20\n        /* \"#utility.yul\":13571:13580   */\n      dup4\n        /* \"#utility.yul\":13567:13585   */\n      add\n        /* \"#utility.yul\":13558:13564   */\n      dup5\n        /* \"#utility.yul\":13514:13586   */\n      tag_404\n      jump\t// in\n    tag_419:\n        /* \"#utility.yul\":13118:13593   */\n      swap4\n      swap3\n      pop\n      pop\n      pop\n      jump\t// out\n        /* \"#utility.yul\":13599:13968   */\n    tag_88:\n        /* \"#utility.yul\":13740:13744   */\n      0x00\n        /* \"#utility.yul\":13778:13780   */\n      0x20\n        /* \"#utility.yul\":13767:13776   */\n      dup3\n        /* \"#utility.yul\":13763:13781   */\n      add\n        /* \"#utility.yul\":13755:13781   */\n      swap1\n      pop\n        /* \"#utility.yul\":13827:13836   */\n      dup2\n        /* \"#utility.yul\":13821:13825   */\n      dup2\n        /* \"#utility.yul\":13817:13837   */\n      sub\n        /* \"#utility.yul\":13813:13814   */\n      0x00\n        /* \"#utility.yul\":13802:13811   */\n      dup4\n        /* \"#utility.yul\":13798:13815   */\n      add\n        /* \"#utility.yul\":13791:13838   */\n      mstore\n        /* \"#utility.yul\":13855:13961   */\n      tag_421\n        /* \"#utility.yul\":13956:13960   */\n      dup2\n        /* \"#utility.yul\":13947:13953   */\n      dup5\n        /* \"#utility.yul\":13855:13961   */\n      tag_390\n      jump\t// in\n    tag_421:\n        /* \"#utility.yul\":13847:13961   */\n      swap1\n      pop\n        /* \"#utility.yul\":13599:13968   */\n      swap3\n      swap2\n      pop\n      pop\n      jump\t// out\n        /* \"#utility.yul\":13974:14343   */\n    tag_38:\n        /* \"#utility.yul\":14115:14119   */\n      0x00\n        /* \"#utility.yul\":14153:14155   */\n      0x20\n        /* \"#utility.yul\":14142:14151   */\n      dup3\n        /* \"#utility.yul\":14138:14156   */\n      add\n        /* \"#utility.yul\":14130:14156   */\n      swap1\n      pop\n        /* \"#utility.yul\":14202:14211   */\n      dup2\n        /* \"#utility.yul\":14196:14200   */\n      dup2\n        /* \"#utility.yul\":14192:14212   */\n      sub\n        /* \"#utility.yul\":14188:14189   */\n      0x00\n        /* \"#utility.yul\":14177:14186   */\n      dup4\n        /* \"#utility.yul\":14173:14190   */\n      add\n        /* \"#utility.yul\":14166:14213   */\n      mstore\n        /* \"#utility.yul\":14230:14336   */\n      tag_423\n        /* \"#utility.yul\":14331:14335   */\n      dup2\n        /* \"#utility.yul\":14322:14328   */\n      dup5\n        /* \"#utility.yul\":14230:14336   */\n      tag_395\n      jump\t// in\n    tag_423:\n        /* \"#utility.yul\":14222:14336   */\n      swap1\n      pop\n        /* \"#utility.yul\":13974:14343   */\n      swap3\n      swap2\n      pop\n      pop\n      jump\t// out\n        /* \"#utility.yul\":14349:14571   */\n    tag_27:\n        /* \"#utility.yul\":14442:14446   */\n      0x00\n        /* \"#utility.yul\":14480:14482   */\n      0x20\n        /* \"#utility.yul\":14469:14478   */\n      dup3\n        /* \"#utility.yul\":14465:14483   */\n      add\n        /* \"#utility.yul\":14457:14483   */\n      swap1\n      pop\n        /* \"#utility.yul\":14493:14564   */\n      tag_425\n        /* \"#utility.yul\":14561:14562   */\n      0x00\n        /* \"#utility.yul\":14550:14559   */\n      dup4\n        /* \"#utility.yul\":14546:14563   */\n      add\n        /* \"#utility.yul\":14537:14543   */\n      dup5\n        /* \"#utility.yul\":14493:14564   */\n      tag_404\n      jump\t// in\n    tag_425:\n        /* \"#utility.yul\":14349:14571   */\n      swap3\n      swap2\n      pop\n      pop\n      jump\t// out\n        /* \"#utility.yul\":14577:15000   */\n    tag_57:\n        /* \"#utility.yul\":14718:14722   */\n      0x00\n        /* \"#utility.yul\":14756:14758   */\n      0x40\n        /* \"#utility.yul\":14745:14754   */\n      dup3\n        /* \"#utility.yul\":14741:14759   */\n      add\n        /* \"#utility.yul\":14733:14759   */\n      swap1\n      pop\n        /* \"#utility.yul\":14769:14840   */\n      tag_427\n        /* \"#utility.yul\":14837:14838   */\n      0x00\n        /* \"#utility.yul\":14826:14835   */\n      dup4\n        /* \"#utility.yul\":14822:14839   */\n      add\n        /* \"#utility.yul\":14813:14819   */\n      dup6\n        /* \"#utility.yul\":14769:14840   */\n      tag_404\n      jump\t// in\n    tag_427:\n        /* \"#utility.yul\":14887:14896   */\n      dup2\n        /* \"#utility.yul\":14881:14885   */\n      dup2\n        /* \"#utility.yul\":14877:14897   */\n      sub\n        /* \"#utility.yul\":14872:14874   */\n      0x20\n        /* \"#utility.yul\":14861:14870   */\n      dup4\n        /* \"#utility.yul\":14857:14875   */\n      add\n        /* \"#utility.yul\":14850:14898   */\n      mstore\n        /* \"#utility.yul\":14915:14993   */\n      tag_428\n        /* \"#utility.yul\":14988:14992   */\n      dup2\n        /* \"#utility.yul\":14979:14985   */\n      dup5\n        /* \"#utility.yul\":14915:14993   */\n      tag_363\n      jump\t// in\n    tag_428:\n        /* \"#utility.yul\":14907:14993   */\n      swap1\n      pop\n        /* \"#utility.yul\":14577:15000   */\n      swap4\n      swap3\n      pop\n      pop\n      pop\n      jump\t// out\n        /* \"#utility.yul\":15006:15630   */\n    tag_43:\n        /* \"#utility.yul\":15195:15199   */\n      0x00\n        /* \"#utility.yul\":15233:15235   */\n      0x60\n        /* \"#utility.yul\":15222:15231   */\n      dup3\n        /* \"#utility.yul\":15218:15236   */\n      add\n        /* \"#utility.yul\":15210:15236   */\n      swap1\n      pop\n        /* \"#utility.yul\":15246:15317   */\n      tag_430\n        /* \"#utility.yul\":15314:15315   */\n      0x00\n        /* \"#utility.yul\":15303:15312   */\n      dup4\n        /* \"#utility.yul\":15299:15316   */\n      add\n        /* \"#utility.yul\":15290:15296   */\n      dup7\n        /* \"#utility.yul\":15246:15317   */\n      tag_404\n      jump\t// in\n    tag_430:\n        /* \"#utility.yul\":15364:15373   */\n      dup2\n        /* \"#utility.yul\":15358:15362   */\n      dup2\n        /* \"#utility.yul\":15354:15374   */\n      sub\n        /* \"#utility.yul\":15349:15351   */\n      0x20\n        /* \"#utility.yul\":15338:15347   */\n      dup4\n        /* \"#utility.yul\":15334:15352   */\n      add\n        /* \"#utility.yul\":15327:15375   */\n      mstore\n        /* \"#utility.yul\":15392:15470   */\n      tag_431\n        /* \"#utility.yul\":15465:15469   */\n      dup2\n        /* \"#utility.yul\":15456:15462   */\n      dup6\n        /* \"#utility.yul\":15392:15470   */\n      tag_363\n      jump\t// in\n    tag_431:\n        /* \"#utility.yul\":15384:15470   */\n      swap1\n      pop\n        /* \"#utility.yul\":15517:15526   */\n      dup2\n        /* \"#utility.yul\":15511:15515   */\n      dup2\n        /* \"#utility.yul\":15507:15527   */\n      sub\n        /* \"#utility.yul\":15502:15504   */\n      0x40\n        /* \"#utility.yul\":15491:15500   */\n      dup4\n        /* \"#utility.yul\":15487:15505   */\n      add\n        /* \"#utility.yul\":15480:15528   */\n      mstore\n        /* \"#utility.yul\":15545:15623   */\n      tag_432\n        /* \"#utility.yul\":15618:15622   */\n      dup2\n        /* \"#utility.yul\":15609:15615   */\n      dup5\n        /* \"#utility.yul\":15545:15623   */\n      tag_363\n      jump\t// in\n    tag_432:\n        /* \"#utility.yul\":15537:15623   */\n      swap1\n      pop\n        /* \"#utility.yul\":15006:15630   */\n      swap5\n      swap4\n      pop\n      pop\n      pop\n      pop\n      jump\t// out\n        /* \"#utility.yul\":15636:16684   */\n    tag_48:\n        /* \"#utility.yul\":15929:15933   */\n      0x00\n        /* \"#utility.yul\":15967:15970   */\n      0xc0\n        /* \"#utility.yul\":15956:15965   */\n      dup3\n        /* \"#utility.yul\":15952:15971   */\n      add\n        /* \"#utility.yul\":15944:15971   */\n      swap1\n      pop\n        /* \"#utility.yul\":15981:16052   */\n      tag_434\n        /* \"#utility.yul\":16049:16050   */\n      0x00\n        /* \"#utility.yul\":16038:16047   */\n      dup4\n        /* \"#utility.yul\":16034:16051   */\n      add\n        /* \"#utility.yul\":16025:16031   */\n      dup10\n        /* \"#utility.yul\":15981:16052   */\n      tag_404\n      jump\t// in\n    tag_434:\n        /* \"#utility.yul\":16099:16108   */\n      dup2\n        /* \"#utility.yul\":16093:16097   */\n      dup2\n        /* \"#utility.yul\":16089:16109   */\n      sub\n        /* \"#utility.yul\":16084:16086   */\n      0x20\n        /* \"#utility.yul\":16073:16082   */\n      dup4\n        /* \"#utility.yul\":16069:16087   */\n      add\n        /* \"#utility.yul\":16062:16110   */\n      mstore\n        /* \"#utility.yul\":16127:16205   */\n      tag_435\n        /* \"#utility.yul\":16200:16204   */\n      dup2\n        /* \"#utility.yul\":16191:16197   */\n      dup9\n        /* \"#utility.yul\":16127:16205   */\n      tag_363\n      jump\t// in\n    tag_435:\n        /* \"#utility.yul\":16119:16205   */\n      swap1\n      pop\n        /* \"#utility.yul\":16215:16287   */\n      tag_436\n        /* \"#utility.yul\":16283:16285   */\n      0x40\n        /* \"#utility.yul\":16272:16281   */\n      dup4\n        /* \"#utility.yul\":16268:16286   */\n      add\n        /* \"#utility.yul\":16259:16265   */\n      dup8\n        /* \"#utility.yul\":16215:16287   */\n      tag_404\n      jump\t// in\n    tag_436:\n        /* \"#utility.yul\":16334:16343   */\n      dup2\n        /* \"#utility.yul\":16328:16332   */\n      dup2\n        /* \"#utility.yul\":16324:16344   */\n      sub\n        /* \"#utility.yul\":16319:16321   */\n      0x60\n        /* \"#utility.yul\":16308:16317   */\n      dup4\n        /* \"#utility.yul\":16304:16322   */\n      add\n        /* \"#utility.yul\":16297:16345   */\n      mstore\n        /* \"#utility.yul\":16362:16440   */\n      tag_437\n        /* \"#utility.yul\":16435:16439   */\n      dup2\n        /* \"#utility.yul\":16426:16432   */\n      dup7\n        /* \"#utility.yul\":16362:16440   */\n      tag_363\n      jump\t// in\n    tag_437:\n        /* \"#utility.yul\":16354:16440   */\n      swap1\n      pop\n        /* \"#utility.yul\":16488:16497   */\n      dup2\n        /* \"#utility.yul\":16482:16486   */\n      dup2\n        /* \"#utility.yul\":16478:16498   */\n      sub\n        /* \"#utility.yul\":16472:16475   */\n      0x80\n        /* \"#utility.yul\":16461:16470   */\n      dup4\n        /* \"#utility.yul\":16457:16476   */\n      add\n        /* \"#utility.yul\":16450:16499   */\n      mstore\n        /* \"#utility.yul\":16516:16594   */\n      tag_438\n        /* \"#utility.yul\":16589:16593   */\n      dup2\n        /* \"#utility.yul\":16580:16586   */\n      dup6\n        /* \"#utility.yul\":16516:16594   */\n      tag_363\n      jump\t// in\n    tag_438:\n        /* \"#utility.yul\":16508:16594   */\n      swap1\n      pop\n        /* \"#utility.yul\":16604:16677   */\n      tag_439\n        /* \"#utility.yul\":16672:16675   */\n      0xa0\n        /* \"#utility.yul\":16661:16670   */\n      dup4\n        /* \"#utility.yul\":16657:16676   */\n      add\n        /* \"#utility.yul\":16648:16654   */\n      dup5\n        /* \"#utility.yul\":16604:16677   */\n      tag_404\n      jump\t// in\n    tag_439:\n        /* \"#utility.yul\":15636:16684   */\n      swap8\n      swap7\n      pop\n      pop\n      pop\n      pop\n      pop\n      pop\n      pop\n      jump\t// out\n        /* \"#utility.yul\":16690:16819   */\n    tag_291:\n        /* \"#utility.yul\":16724:16730   */\n      0x00\n        /* \"#utility.yul\":16751:16771   */\n      tag_441\n      tag_442\n      jump\t// in\n    tag_441:\n        /* \"#utility.yul\":16741:16771   */\n      swap1\n      pop\n        /* \"#utility.yul\":16780:16813   */\n      tag_443\n        /* \"#utility.yul\":16808:16812   */\n      dup3\n        /* \"#utility.yul\":16800:16806   */\n      dup3\n        /* \"#utility.yul\":16780:16813   */\n      tag_444\n      jump\t// in\n    tag_443:\n        /* \"#utility.yul\":16690:16819   */\n      swap2\n      swap1\n      pop\n      jump\t// out\n        /* \"#utility.yul\":16825:16900   */\n    tag_442:\n        /* \"#utility.yul\":16858:16864   */\n      0x00\n        /* \"#utility.yul\":16891:16893   */\n      0x40\n        /* \"#utility.yul\":16885:16894   */\n      mload\n        /* \"#utility.yul\":16875:16894   */\n      swap1\n      pop\n        /* \"#utility.yul\":16825:16900   */\n      swap1\n      jump\t// out\n        /* \"#utility.yul\":16906:17214   */\n    tag_290:\n        /* \"#utility.yul\":16968:16972   */\n      0x00\n        /* \"#utility.yul\":17058:17076   */\n      0xffffffffffffffff\n        /* \"#utility.yul\":17050:17056   */\n      dup3\n        /* \"#utility.yul\":17047:17077   */\n      gt\n        /* \"#utility.yul\":17044:17100   */\n      iszero\n      tag_447\n      jumpi\n        /* \"#utility.yul\":17080:17098   */\n      tag_448\n      tag_104\n      jump\t// in\n    tag_448:\n        /* \"#utility.yul\":17044:17100   */\n    tag_447:\n        /* \"#utility.yul\":17118:17147   */\n      tag_449\n        /* \"#utility.yul\":17140:17146   */\n      dup3\n        /* \"#utility.yul\":17118:17147   */\n      tag_362\n      jump\t// in\n    tag_449:\n        /* \"#utility.yul\":17110:17147   */\n      swap1\n      pop\n        /* \"#utility.yul\":17202:17206   */\n      0x20\n        /* \"#utility.yul\":17196:17200   */\n      dup2\n        /* \"#utility.yul\":17192:17207   */\n      add\n        /* \"#utility.yul\":17184:17207   */\n      swap1\n      pop\n        /* \"#utility.yul\":16906:17214   */\n      swap2\n      swap1\n      pop\n      jump\t// out\n        /* \"#utility.yul\":17220:17352   */\n    tag_346:\n        /* \"#utility.yul\":17287:17291   */\n      0x00\n        /* \"#utility.yul\":17310:17313   */\n      dup2\n        /* \"#utility.yul\":17302:17313   */\n      swap1\n      pop\n        /* \"#utility.yul\":17340:17344   */\n      0x20\n        /* \"#utility.yul\":17335:17338   */\n      dup3\n        /* \"#utility.yul\":17331:17345   */\n      add\n        /* \"#utility.yul\":17323:17345   */\n      swap1\n      pop\n        /* \"#utility.yul\":17220:17352   */\n      swap2\n      swap1\n      pop\n      jump\t// out\n        /* \"#utility.yul\":17358:17472   */\n    tag_342:\n        /* \"#utility.yul\":17425:17431   */\n      0x00\n        /* \"#utility.yul\":17459:17464   */\n      dup2\n        /* \"#utility.yul\":17453:17465   */\n      mload\n        /* \"#utility.yul\":17443:17465   */\n      swap1\n      pop\n        /* \"#utility.yul\":17358:17472   */\n      swap2\n      swap1\n      pop\n      jump\t// out\n        /* \"#utility.yul\":17478:17577   */\n    tag_356:\n        /* \"#utility.yul\":17530:17536   */\n      0x00\n        /* \"#utility.yul\":17564:17569   */\n      dup2\n        /* \"#utility.yul\":17558:17570   */\n      mload\n        /* \"#utility.yul\":17548:17570   */\n      swap1\n      pop\n        /* \"#utility.yul\":17478:17577   */\n      swap2\n      swap1\n      pop\n      jump\t// out\n        /* \"#utility.yul\":17583:17696   */\n    tag_352:\n        /* \"#utility.yul\":17653:17657   */\n      0x00\n        /* \"#utility.yul\":17685:17689   */\n      0x20\n        /* \"#utility.yul\":17680:17683   */\n      dup3\n        /* \"#utility.yul\":17676:17690   */\n      add\n        /* \"#utility.yul\":17668:17690   */\n      swap1\n      pop\n        /* \"#utility.yul\":17583:17696   */\n      swap2\n      swap1\n      pop\n      jump\t// out\n        /* \"#utility.yul\":17702:17876   */\n    tag_344:\n        /* \"#utility.yul\":17791:17802   */\n      0x00\n        /* \"#utility.yul\":17825:17831   */\n      dup3\n        /* \"#utility.yul\":17820:17823   */\n      dup3\n        /* \"#utility.yul\":17813:17832   */\n      mstore\n        /* \"#utility.yul\":17865:17869   */\n      0x20\n        /* \"#utility.yul\":17860:17863   */\n      dup3\n        /* \"#utility.yul\":17856:17870   */\n      add\n        /* \"#utility.yul\":17841:17870   */\n      swap1\n      pop\n        /* \"#utility.yul\":17702:17876   */\n      swap3\n      swap2\n      pop\n      pop\n      jump\t// out\n        /* \"#utility.yul\":17882:18041   */\n    tag_358:\n        /* \"#utility.yul\":17956:17967   */\n      0x00\n        /* \"#utility.yul\":17990:17996   */\n      dup3\n        /* \"#utility.yul\":17985:17988   */\n      dup3\n        /* \"#utility.yul\":17978:17997   */\n      mstore\n        /* \"#utility.yul\":18030:18034   */\n      0x20\n        /* \"#utility.yul\":18025:18028   */\n      dup3\n        /* \"#utility.yul\":18021:18035   */\n      add\n        /* \"#utility.yul\":18006:18035   */\n      swap1\n      pop\n        /* \"#utility.yul\":17882:18041   */\n      swap3\n      swap2\n      pop\n      pop\n      jump\t// out\n        /* \"#utility.yul\":18047:18216   */\n    tag_367:\n        /* \"#utility.yul\":18131:18142   */\n      0x00\n        /* \"#utility.yul\":18165:18171   */\n      dup3\n        /* \"#utility.yul\":18160:18163   */\n      dup3\n        /* \"#utility.yul\":18153:18172   */\n      mstore\n        /* \"#utility.yul\":18205:18209   */\n      0x20\n        /* \"#utility.yul\":18200:18203   */\n      dup3\n        /* \"#utility.yul\":18196:18210   */\n      add\n        /* \"#utility.yul\":18181:18210   */\n      swap1\n      pop\n        /* \"#utility.yul\":18047:18216   */\n      swap3\n      swap2\n      pop\n      pop\n      jump\t// out\n        /* \"#utility.yul\":18222:18299   */\n    tag_403:\n        /* \"#utility.yul\":18259:18266   */\n      0x00\n        /* \"#utility.yul\":18288:18293   */\n      dup2\n        /* \"#utility.yul\":18277:18293   */\n      swap1\n      pop\n        /* \"#utility.yul\":18222:18299   */\n      swap2\n      swap1\n      pop\n      jump\t// out\n        /* \"#utility.yul\":18305:18459   */\n    tag_296:\n        /* \"#utility.yul\":18389:18395   */\n      dup3\n        /* \"#utility.yul\":18384:18387   */\n      dup2\n        /* \"#utility.yul\":18379:18382   */\n      dup4\n        /* \"#utility.yul\":18366:18396   */\n      calldatacopy\n        /* \"#utility.yul\":18451:18452   */\n      0x00\n        /* \"#utility.yul\":18442:18448   */\n      dup4\n        /* \"#utility.yul\":18437:18440   */\n      dup4\n        /* \"#utility.yul\":18433:18449   */\n      add\n        /* \"#utility.yul\":18426:18453   */\n      mstore\n        /* \"#utility.yul\":18305:18459   */\n      pop\n      pop\n      pop\n      jump\t// out\n        /* \"#utility.yul\":18465:18772   */\n    tag_360:\n        /* \"#utility.yul\":18533:18534   */\n      0x00\n        /* \"#utility.yul\":18543:18656   */\n    tag_460:\n        /* \"#utility.yul\":18557:18563   */\n      dup4\n        /* \"#utility.yul\":18554:18555   */\n      dup2\n        /* \"#utility.yul\":18551:18564   */\n      lt\n        /* \"#utility.yul\":18543:18656   */\n      iszero\n      tag_462\n      jumpi\n        /* \"#utility.yul\":18642:18643   */\n      dup1\n        /* \"#utility.yul\":18637:18640   */\n      dup3\n        /* \"#utility.yul\":18633:18644   */\n      add\n        /* \"#utility.yul\":18627:18645   */\n      mload\n        /* \"#utility.yul\":18623:18624   */\n      dup2\n        /* \"#utility.yul\":18618:18621   */\n      dup5\n        /* \"#utility.yul\":18614:18625   */\n      add\n        /* \"#utility.yul\":18607:18646   */\n      mstore\n        /* \"#utility.yul\":18579:18581   */\n      0x20\n        /* \"#utility.yul\":18576:18577   */\n      dup2\n        /* \"#utility.yul\":18572:18582   */\n      add\n        /* \"#utility.yul\":18567:18582   */\n      swap1\n      pop\n        /* \"#utility.yul\":18543:18656   */\n      jump(tag_460)\n    tag_462:\n        /* \"#utility.yul\":18674:18680   */\n      dup4\n        /* \"#utility.yul\":18671:18672   */\n      dup2\n        /* \"#utility.yul\":18668:18681   */\n      gt\n        /* \"#utility.yul\":18665:18766   */\n      iszero\n      tag_463\n      jumpi\n        /* \"#utility.yul\":18754:18755   */\n      0x00\n        /* \"#utility.yul\":18745:18751   */\n      dup5\n        /* \"#utility.yul\":18740:18743   */\n      dup5\n        /* \"#utility.yul\":18736:18752   */\n      add\n        /* \"#utility.yul\":18729:18756   */\n      mstore\n        /* \"#utility.yul\":18665:18766   */\n    tag_463:\n        /* \"#utility.yul\":18514:18772   */\n      pop\n        /* \"#utility.yul\":18465:18772   */\n      pop\n      pop\n      pop\n      jump\t// out\n        /* \"#utility.yul\":18778:19098   */\n    tag_115:\n        /* \"#utility.yul\":18822:18828   */\n      0x00\n        /* \"#utility.yul\":18859:18860   */\n      0x02\n        /* \"#utility.yul\":18853:18857   */\n      dup3\n        /* \"#utility.yul\":18849:18861   */\n      div\n        /* \"#utility.yul\":18839:18861   */\n      swap1\n      pop\n        /* \"#utility.yul\":18906:18907   */\n      0x01\n        /* \"#utility.yul\":18900:18904   */\n      dup3\n        /* \"#utility.yul\":18896:18908   */\n      and\n        /* \"#utility.yul\":18927:18945   */\n      dup1\n        /* \"#utility.yul\":18917:18998   */\n      tag_465\n      jumpi\n        /* \"#utility.yul\":18983:18987   */\n      0x7f\n        /* \"#utility.yul\":18975:18981   */\n      dup3\n        /* \"#utility.yul\":18971:18988   */\n      and\n        /* \"#utility.yul\":18961:18988   */\n      swap2\n      pop\n        /* \"#utility.yul\":18917:18998   */\n    tag_465:\n        /* \"#utility.yul\":19045:19047   */\n      0x20\n        /* \"#utility.yul\":19037:19043   */\n      dup3\n        /* \"#utility.yul\":19034:19048   */\n      lt\n        /* \"#utility.yul\":19014:19032   */\n      dup2\n        /* \"#utility.yul\":19011:19049   */\n      eq\n        /* \"#utility.yul\":19008:19092   */\n      iszero\n      tag_466\n      jumpi\n        /* \"#utility.yul\":19064:19082   */\n      tag_467\n      tag_468\n      jump\t// in\n    tag_467:\n        /* \"#utility.yul\":19008:19092   */\n    tag_466:\n        /* \"#utility.yul\":18829:19098   */\n      pop\n        /* \"#utility.yul\":18778:19098   */\n      swap2\n      swap1\n      pop\n      jump\t// out\n        /* \"#utility.yul\":19104:19385   */\n    tag_444:\n        /* \"#utility.yul\":19187:19214   */\n      tag_470\n        /* \"#utility.yul\":19209:19213   */\n      dup3\n        /* \"#utility.yul\":19187:19214   */\n      tag_362\n      jump\t// in\n    tag_470:\n        /* \"#utility.yul\":19179:19185   */\n      dup2\n        /* \"#utility.yul\":19175:19215   */\n      add\n        /* \"#utility.yul\":19317:19323   */\n      dup2\n        /* \"#utility.yul\":19305:19315   */\n      dup2\n        /* \"#utility.yul\":19302:19324   */\n      lt\n        /* \"#utility.yul\":19281:19299   */\n      0xffffffffffffffff\n        /* \"#utility.yul\":19269:19279   */\n      dup3\n        /* \"#utility.yul\":19266:19300   */\n      gt\n        /* \"#utility.yul\":19263:19325   */\n      or\n        /* \"#utility.yul\":19260:19348   */\n      iszero\n      tag_471\n      jumpi\n        /* \"#utility.yul\":19328:19346   */\n      tag_472\n      tag_104\n      jump\t// in\n    tag_472:\n        /* \"#utility.yul\":19260:19348   */\n    tag_471:\n        /* \"#utility.yul\":19368:19378   */\n      dup1\n        /* \"#utility.yul\":19364:19366   */\n      0x40\n        /* \"#utility.yul\":19357:19379   */\n      mstore\n        /* \"#utility.yul\":19147:19385   */\n      pop\n        /* \"#utility.yul\":19104:19385   */\n      pop\n      pop\n      jump\t// out\n        /* \"#utility.yul\":19391:19624   */\n    tag_188:\n        /* \"#utility.yul\":19430:19433   */\n      0x00\n        /* \"#utility.yul\":19453:19477   */\n      tag_474\n        /* \"#utility.yul\":19471:19476   */\n      dup3\n        /* \"#utility.yul\":19453:19477   */\n      tag_403\n      jump\t// in\n    tag_474:\n        /* \"#utility.yul\":19444:19477   */\n      swap2\n      pop\n        /* \"#utility.yul\":19499:19565   */\n      0xffffffffffffffffffffffffffffffffffffffffffffffffffffffffffffffff\n        /* \"#utility.yul\":19492:19497   */\n      dup3\n        /* \"#utility.yul\":19489:19566   */\n      eq\n        /* \"#utility.yul\":19486:19589   */\n      iszero\n      tag_475\n      jumpi\n        /* \"#utility.yul\":19569:19587   */\n      tag_476\n      tag_477\n      jump\t// in\n    tag_476:\n        /* \"#utility.yul\":19486:19589   */\n    tag_475:\n        /* \"#utility.yul\":19616:19617   */\n      0x01\n        /* \"#utility.yul\":19609:19614   */\n      dup3\n        /* \"#utility.yul\":19605:19618   */\n      add\n        /* \"#utility.yul\":19598:19618   */\n      swap1\n      pop\n        /* \"#utility.yul\":19391:19624   */\n      swap2\n      swap1\n      pop\n      jump\t// out\n        /* \"#utility.yul\":19630:19810   */\n    tag_477:\n        /* \"#utility.yul\":19678:19755   */\n      0x4e487b7100000000000000000000000000000000000000000000000000000000\n        /* \"#utility.yul\":19675:19676   */\n      0x00\n        /* \"#utility.yul\":19668:19756   */\n      mstore\n        /* \"#utility.yul\":19775:19779   */\n      0x11\n        /* \"#utility.yul\":19772:19773   */\n      0x04\n        /* \"#utility.yul\":19765:19780   */\n      mstore\n        /* \"#utility.yul\":19799:19803   */\n      0x24\n        /* \"#utility.yul\":19796:19797   */\n      0x00\n        /* \"#utility.yul\":19789:19804   */\n      revert\n        /* \"#utility.yul\":19816:19996   */\n    tag_468:\n        /* \"#utility.yul\":19864:19941   */\n      0x4e487b7100000000000000000000000000000000000000000000000000000000\n        /* \"#utility.yul\":19861:19862   */\n      0x00\n        /* \"#utility.yul\":19854:19942   */\n      mstore\n        /* \"#utility.yul\":19961:19965   */\n      0x22\n        /* \"#utility.yul\":19958:19959   */\n      0x04\n        /* \"#utility.yul\":19951:19966   */\n      mstore\n        /* \"#utility.yul\":19985:19989   */\n      0x24\n        /* \"#utility.yul\":19982:19983   */\n      0x00\n        /* \"#utility.yul\":19975:19990   */\n      revert\n        /* \"#utility.yul\":20002:20182   */\n    tag_104:\n        /* \"#utility.yul\":20050:20127   */\n      0x4e487b7100000000000000000000000000000000000000000000000000000000\n        /* \"#utility.yul\":20047:20048   */\n      0x00\n        /* \"#utility.yul\":20040:20128   */\n      mstore\n        /* \"#utility.yul\":20147:20151   */\n      0x41\n        /* \"#utility.yul\":20144:20145   */\n      0x04\n        /* \"#utility.yul\":20137:20152   */\n      mstore\n        /* \"#utility.yul\":20171:20175   */\n      0x24\n        /* \"#utility.yul\":20168:20169   */\n      0x00\n        /* \"#utility.yul\":20161:20176   */\n      revert\n        /* \"#utility.yul\":20188:20305   */\n    tag_301:\n        /* \"#utility.yul\":20297:20298   */\n      0x00\n        /* \"#utility.yul\":20294:20295   */\n      dup1\n        /* \"#utility.yul\":20287:20299   */\n      revert\n        /* \"#utility.yul\":20311:20428   */\n    tag_294:\n        /* \"#utility.yul\":20420:20421   */\n      0x00\n        /* \"#utility.yul\":20417:20418   */\n      dup1\n        /* \"#utility.yul\":20410:20422   */\n      revert\n        /* \"#utility.yul\":20434:20551   */\n    tag_313:\n        /* \"#utility.yul\":20543:20544   */\n      0x00\n        /* \"#utility.yul\":20540:20541   */\n      dup1\n        /* \"#utility.yul\":20533:20545   */\n      revert\n        /* \"#utility.yul\":20557:20674   */\n    tag_310:\n        /* \"#utility.yul\":20666:20667   */\n      0x00\n        /* \"#utility.yul\":20663:20664   */\n      dup1\n        /* \"#utility.yul\":20656:20668   */\n      revert\n        /* \"#utility.yul\":20680:20782   */\n    tag_362:\n        /* \"#utility.yul\":20721:20727   */\n      0x00\n        /* \"#utility.yul\":20772:20774   */\n      0x1f\n        /* \"#utility.yul\":20768:20775   */\n      not\n        /* \"#utility.yul\":20763:20765   */\n      0x1f\n        /* \"#utility.yul\":20756:20761   */\n      dup4\n        /* \"#utility.yul\":20752:20766   */\n      add\n        /* \"#utility.yul\":20748:20776   */\n      and\n        /* \"#utility.yul\":20738:20776   */\n      swap1\n      pop\n        /* \"#utility.yul\":20680:20782   */\n      swap2\n      swap1\n      pop\n      jump\t// out\n        /* \"#utility.yul\":20788:20910   */\n    tag_306:\n        /* \"#utility.yul\":20861:20885   */\n      tag_487\n        /* \"#utility.yul\":20879:20884   */\n      dup2\n        /* \"#utility.yul\":20861:20885   */\n      tag_403\n      jump\t// in\n    tag_487:\n        /* \"#utility.yul\":20854:20859   */\n      dup2\n        /* \"#utility.yul\":20851:20886   */\n      eq\n        /* \"#utility.yul\":20841:20904   */\n      tag_488\n      jumpi\n        /* \"#utility.yul\":20900:20901   */\n      0x00\n        /* \"#utility.yul\":20897:20898   */\n      dup1\n        /* \"#utility.yul\":20890:20902   */\n      revert\n        /* \"#utility.yul\":20841:20904   */\n    tag_488:\n        /* \"#utility.yul\":20788:20910   */\n      pop\n      jump\t// out\n\n    auxdata: 0xa2646970667358221220a8f8ab3632585d8827067225fe3bd28120790aadb8b668083d3546e51fa259db64736f6c63430008070033\n}\n",
				"bytecode": {
					"linkReferences": {},
					"object": "6080604052336000806101000a81548173ffffffffffffffffffffffffffffffffffffffff021916908373ffffffffffffffffffffffffffffffffffffffff160217905550600060025534801561005557600080fd5b5061249f806100656000396000f3fe608060405234801561001057600080fd5b50600436106101005760003560e01c80638f5ae79911610097578063cb80c41911610066578063cb80c4191461033b578063cda5e4a51461036b578063cea231211461039b578063f032edec146103cd57610100565b80638f5ae7991461027957806390175af1146102a957806395d00407146102db578063b9db15b41461030b57610100565b80637acc0b20116100d35780637acc0b20146101c757806381d9def2146101fc578063897ec7df1461022c5780638f29695a1461025d57610100565b806315533a2714610105578063333f3dd0146101355780633779643f1461016557806350b492ba14610195575b600080fd5b61011f600480360381019061011a9190611b33565b6103e9565b60405161012c91906120e6565b60405180910390f35b61014f600480360381019061014a9190611c07565b61054c565b60405161015c919061200c565b60405180910390f35b61017f600480360381019061017a9190611c07565b6106ff565b60405161018c91906120c4565b60405180910390f35b6101af60048036038101906101aa9190611c07565b6108b2565b6040516101be93929190612131565b60405180910390f35b6101e160048036038101906101dc9190611c07565b6109ec565b6040516101f396959493929190612176565b60405180910390f35b61021660048036038101906102119190611b33565b610bc0565b60405161022391906120e6565b60405180910390f35b61024660048036038101906102419190611c07565b610d23565b604051610254929190612101565b60405180910390f35b61027760048036038101906102729190611b7c565b610dcf565b005b610293600480360381019061028e9190611b33565b610f36565b6040516102a091906120e6565b60405180910390f35b6102c360048036038101906102be9190611c07565b611099565b6040516102d293929190612131565b60405180910390f35b6102f560048036038101906102f09190611b33565b6111d3565b60405161030291906120e6565b60405180910390f35b61032560048036038101906103209190611c07565b6112db565b6040516103329190612050565b60405180910390f35b61035560048036038101906103509190611c07565b6114dc565b604051610362919061202e565b60405180910390f35b61038560048036038101906103809190611c07565b61168f565b60405161039291906120a2565b60405180910390f35b6103b560048036038101906103b09190611c07565b6117b0565b6040516103c493929190612131565b60405180910390f35b6103e760048036038101906103e29190611c34565b6118ea565b005b60006103f36118ef565b82424460405160200161040893929190611fce565b6040516020818303038152906040528051906020012060001c8160000181815250506040518060400160405280600281526020017f53550000000000000000000000000000000000000000000000000000000000008152508160200181905250828160400181905250600067ffffffffffffffff81111561048c5761048b6123fe565b5b6040519080825280602002602001820160405280156104ba5781602001602082028036833780820191505090505b508160600181905250806003600083600001518152602001908152602001600020600082015181600001556020820151816001019080519060200190610501929190611917565b50604082015181600201908051906020019061051e929190611917565b50606082015181600301908051906020019061053b92919061199d565b509050508060000151915050919050565b6105546119ea565b600560008381526020019081526020016000206040518060800160405290816000820154815260200160018201805461058c906122f4565b80601f01602080910402602001604051908101604052809291908181526020018280546105b8906122f4565b80156106055780601f106105da57610100808354040283529160200191610605565b820191906000526020600020905b8154815290600101906020018083116105e857829003601f168201915b5050505050815260200160028201805461061e906122f4565b80601f016020809104026020016040519081016040528092919081815260200182805461064a906122f4565b80156106975780601f1061066c57610100808354040283529160200191610697565b820191906000526020600020905b81548152906001019060200180831161067a57829003601f168201915b50505050508152602001600382018054806020026020016040519081016040528092919081815260200182805480156106ef57602002820191906000526020600020905b8154815260200190600101908083116106db575b5050505050815250509050919050565b6107076118ef565b600360008381526020019081526020016000206040518060800160405290816000820154815260200160018201805461073f906122f4565b80601f016020809104026020016040519081016040528092919081815260200182805461076b906122f4565b80156107b85780601f1061078d576101008083540402835291602001916107b8565b820191906000526020600020905b81548152906001019060200180831161079b57829003601f168201915b505050505081526020016002820180546107d1906122f4565b80601f01602080910402602001604051908101604052809291908181526020018280546107fd906122f4565b801561084a5780601f1061081f5761010080835404028352916020019161084a565b820191906000526020600020905b81548152906001019060200180831161082d57829003601f168201915b50505050508152602001600382018054806020026020016040519081016040528092919081815260200182805480156108a257602002820191906000526020600020905b81548152602001906001019080831161088e575b5050505050815250509050919050565b60056020528060005260406000206000915090508060000154908060010180546108db906122f4565b80601f0160208091040260200160405190810160405280929190818152602001828054610907906122f4565b80156109545780601f1061092957610100808354040283529160200191610954565b820191906000526020600020905b81548152906001019060200180831161093757829003601f168201915b505050505090806002018054610969906122f4565b80601f0160208091040260200160405190810160405280929190818152602001828054610995906122f4565b80156109e25780601f106109b7576101008083540402835291602001916109e2565b820191906000526020600020905b8154815290600101906020018083116109c557829003601f168201915b5050505050905083565b6001602052806000526040600020600091509050806000015490806001018054610a15906122f4565b80601f0160208091040260200160405190810160405280929190818152602001828054610a41906122f4565b8015610a8e5780601f10610a6357610100808354040283529160200191610a8e565b820191906000526020600020905b815481529060010190602001808311610a7157829003601f168201915b505050505090806002015490806003018054610aa9906122f4565b80601f0160208091040260200160405190810160405280929190818152602001828054610ad5906122f4565b8015610b225780601f10610af757610100808354040283529160200191610b22565b820191906000526020600020905b815481529060010190602001808311610b0557829003601f168201915b505050505090806004018054610b37906122f4565b80601f0160208091040260200160405190810160405280929190818152602001828054610b63906122f4565b8015610bb05780601f10610b8557610100808354040283529160200191610bb0565b820191906000526020600020905b815481529060010190602001808311610b9357829003601f168201915b5050505050908060050154905086565b6000610bca6119ea565b824244604051602001610bdf93929190611fce565b6040516020818303038152906040528051906020012060001c8160000181815250506040518060400160405280600281526020017f44490000000000000000000000000000000000000000000000000000000000008152508160200181905250828160400181905250600067ffffffffffffffff811115610c6357610c626123fe565b5b604051908082528060200260200182016040528015610c915781602001602082028036833780820191505090505b508160600181905250806005600083600001518152602001908152602001600020600082015181600001556020820151816001019080519060200190610cd8929190611917565b506040820151816002019080519060200190610cf5929190611917565b506060820151816003019080519060200190610d1292919061199d565b509050508060000151915050919050565b6006602052806000526040600020600091509050806000015490806001018054610d4c906122f4565b80601f0160208091040260200160405190810160405280929190818152602001828054610d78906122f4565b8015610dc55780601f10610d9a57610100808354040283529160200191610dc5565b820191906000526020600020905b815481529060010190602001808311610da857829003601f168201915b5050505050905082565b610dd7611a12565b834244604051602001610dec93929190611fce565b6040516020818303038152906040528051906020012060001c8160000181815250508381602001819052508281604001818152505081816060018190525060405180602001604052806000815250816080018190525060008160a0018181525050806001600083600001518152602001908152602001600020600082015181600001556020820151816001019080519060200190610e8b929190611917565b50604082015181600201556060820151816003019080519060200190610eb2929190611917565b506080820151816004019080519060200190610ecf929190611917565b5060a0820151816005015590505060026000815480929190610ef090612357565b91905055507f0b9650a646eaf16194343a0e5cf05c4a99cfbffbf2a7630c4eaf6f3263a931d881600254604051610f28929190612072565b60405180910390a150505050565b6000610f40611a48565b824244604051602001610f5593929190611fce565b6040516020818303038152906040528051906020012060001c8160000181815250506040518060400160405280600281526020017f4d410000000000000000000000000000000000000000000000000000000000008152508160200181905250828160400181905250600067ffffffffffffffff811115610fd957610fd86123fe565b5b6040519080825280602002602001820160405280156110075781602001602082028036833780820191505090505b50816060018190525080600460008360000151815260200190815260200160002060008201518160000155602082015181600101908051906020019061104e929190611917565b50604082015181600201908051906020019061106b929190611917565b50606082015181600301908051906020019061108892919061199d565b509050508060000151915050919050565b60046020528060005260406000206000915090508060000154908060010180546110c2906122f4565b80601f01602080910402602001604051908101604052809291908181526020018280546110ee906122f4565b801561113b5780601f106111105761010080835404028352916020019161113b565b820191906000526020600020905b81548152906001019060200180831161111e57829003601f168201915b505050505090806002018054611150906122f4565b80601f016020809104026020016040519081016040528092919081815260200182805461117c906122f4565b80156111c95780601f1061119e576101008083540402835291602001916111c9565b820191906000526020600020905b8154815290600101906020018083116111ac57829003601f168201915b5050505050905083565b60006111dd611a70565b8242446040516020016111f293929190611fce565b6040516020818303038152906040528051906020012060001c816000018181525050828160200181905250600067ffffffffffffffff811115611238576112376123fe565b5b6040519080825280602002602001820160405280156112665781602001602082028036833780820191505090505b5081604001819052508060066000836000015181526020019081526020016000206000820151816000015560208201518160010190805190602001906112ad929190611917565b5060408201518160020190805190602001906112ca92919061199d565b509050508060000151915050919050565b6112e3611a12565b600160008381526020019081526020016000206040518060c00160405290816000820154815260200160018201805461131b906122f4565b80601f0160208091040260200160405190810160405280929190818152602001828054611347906122f4565b80156113945780601f1061136957610100808354040283529160200191611394565b820191906000526020600020905b81548152906001019060200180831161137757829003601f168201915b50505050508152602001600282015481526020016003820180546113b7906122f4565b80601f01602080910402602001604051908101604052809291908181526020018280546113e3906122f4565b80156114305780601f1061140557610100808354040283529160200191611430565b820191906000526020600020905b81548152906001019060200180831161141357829003601f168201915b50505050508152602001600482018054611449906122f4565b80601f0160208091040260200160405190810160405280929190818152602001828054611475906122f4565b80156114c25780601f10611497576101008083540402835291602001916114c2565b820191906000526020600020905b8154815290600101906020018083116114a557829003601f168201915b505050505081526020016005820154815250509050919050565b6114e4611a48565b600460008381526020019081526020016000206040518060800160405290816000820154815260200160018201805461151c906122f4565b80601f0160208091040260200160405190810160405280929190818152602001828054611548906122f4565b80156115955780601f1061156a57610100808354040283529160200191611595565b820191906000526020600020905b81548152906001019060200180831161157857829003601f168201915b505050505081526020016002820180546115ae906122f4565b80601f01602080910402602001604051908101604052809291908181526020018280546115da906122f4565b80156116275780601f106115fc57610100808354040283529160200191611627565b820191906000526020600020905b81548152906001019060200180831161160a57829003601f168201915b505050505081526020016003820180548060200260200160405190810160405280929190818152602001828054801561167f57602002820191906000526020600020905b81548152602001906001019080831161166b575b5050505050815250509050919050565b611697611a70565b60066000838152602001908152602001600020604051806060016040529081600082015481526020016001820180546116cf906122f4565b80601f01602080910402602001604051908101604052809291908181526020018280546116fb906122f4565b80156117485780601f1061171d57610100808354040283529160200191611748565b820191906000526020600020905b81548152906001019060200180831161172b57829003601f168201915b50505050508152602001600282018054806020026020016040519081016040528092919081815260200182805480156117a057602002820191906000526020600020905b81548152602001906001019080831161178c575b5050505050815250509050919050565b60036020528060005260406000206000915090508060000154908060010180546117d9906122f4565b80601f0160208091040260200160405190810160405280929190818152602001828054611805906122f4565b80156118525780601f1061182757610100808354040283529160200191611852565b820191906000526020600020905b81548152906001019060200180831161183557829003601f168201915b505050505090806002018054611867906122f4565b80601f0160208091040260200160405190810160405280929190818152602001828054611893906122f4565b80156118e05780601f106118b5576101008083540402835291602001916118e0565b820191906000526020600020905b8154815290600101906020018083116118c357829003601f168201915b5050505050905083565b505050565b6040518060800160405280600081526020016060815260200160608152602001606081525090565b828054611923906122f4565b90600052602060002090601f016020900481019282611945576000855561198c565b82601f1061195e57805160ff191683800117855561198c565b8280016001018555821561198c579182015b8281111561198b578251825591602001919060010190611970565b5b5090506119999190611a91565b5090565b8280548282559060005260206000209081019282156119d9579160200282015b828111156119d85782518255916020019190600101906119bd565b5b5090506119e69190611a91565b5090565b6040518060800160405280600081526020016060815260200160608152602001606081525090565b6040518060c001604052806000815260200160608152602001600081526020016060815260200160608152602001600081525090565b6040518060800160405280600081526020016060815260200160608152602001606081525090565b60405180606001604052806000815260200160608152602001606081525090565b5b80821115611aaa576000816000905550600101611a92565b5090565b6000611ac1611abc84612211565b6121ec565b905082815260208101848484011115611add57611adc612432565b5b611ae88482856122b2565b509392505050565b600082601f830112611b0557611b0461242d565b5b8135611b15848260208601611aae565b91505092915050565b600081359050611b2d81612452565b92915050565b600060208284031215611b4957611b4861243c565b5b600082013567ffffffffffffffff811115611b6757611b66612437565b5b611b7384828501611af0565b91505092915050565b600080600060608486031215611b9557611b9461243c565b5b600084013567ffffffffffffffff811115611bb357611bb2612437565b5b611bbf86828701611af0565b9350506020611bd086828701611b1e565b925050604084013567ffffffffffffffff811115611bf157611bf0612437565b5b611bfd86828701611af0565b9150509250925092565b600060208284031215611c1d57611c1c61243c565b5b6000611c2b84828501611b1e565b91505092915050565b600080600060608486031215611c4d57611c4c61243c565b5b6000611c5b86828701611b1e565b9350506020611c6c86828701611b1e565b9250506040611c7d86828701611b1e565b9150509250925092565b6000611c938383611fb0565b60208301905092915050565b6000611caa82612252565b611cb48185612275565b9350611cbf83612242565b8060005b83811015611cf0578151611cd78882611c87565b9750611ce283612268565b925050600181019050611cc3565b5085935050505092915050565b6000611d088261225d565b611d128185612286565b9350611d228185602086016122c1565b611d2b81612441565b840191505092915050565b6000611d418261225d565b611d4b8185612297565b9350611d5b8185602086016122c1565b611d6481612441565b840191505092915050565b6000608083016000830151611d876000860182611fb0565b5060208301518482036020860152611d9f8282611cfd565b91505060408301518482036040860152611db98282611cfd565b91505060608301518482036060860152611dd38282611c9f565b9150508091505092915050565b6000608083016000830151611df86000860182611fb0565b5060208301518482036020860152611e108282611cfd565b91505060408301518482036040860152611e2a8282611cfd565b91505060608301518482036060860152611e448282611c9f565b9150508091505092915050565b600060c083016000830151611e696000860182611fb0565b5060208301518482036020860152611e818282611cfd565b9150506040830151611e966040860182611fb0565b5060608301518482036060860152611eae8282611cfd565b91505060808301518482036080860152611ec88282611cfd565b91505060a0830151611edd60a0860182611fb0565b508091505092915050565b6000606083016000830151611f006000860182611fb0565b5060208301518482036020860152611f188282611cfd565b91505060408301518482036040860152611f328282611c9f565b9150508091505092915050565b6000608083016000830151611f576000860182611fb0565b5060208301518482036020860152611f6f8282611cfd565b91505060408301518482036040860152611f898282611cfd565b91505060608301518482036060860152611fa38282611c9f565b9150508091505092915050565b611fb9816122a8565b82525050565b611fc8816122a8565b82525050565b60006060820190508181036000830152611fe88186611d36565b9050611ff76020830185611fbf565b6120046040830184611fbf565b949350505050565b600060208201905081810360008301526120268184611d6f565b905092915050565b600060208201905081810360008301526120488184611de0565b905092915050565b6000602082019050818103600083015261206a8184611e51565b905092915050565b6000604082019050818103600083015261208c8185611e51565b905061209b6020830184611fbf565b9392505050565b600060208201905081810360008301526120bc8184611ee8565b905092915050565b600060208201905081810360008301526120de8184611f3f565b905092915050565b60006020820190506120fb6000830184611fbf565b92915050565b60006040820190506121166000830185611fbf565b81810360208301526121288184611d36565b90509392505050565b60006060820190506121466000830186611fbf565b81810360208301526121588185611d36565b9050818103604083015261216c8184611d36565b9050949350505050565b600060c08201905061218b6000830189611fbf565b818103602083015261219d8188611d36565b90506121ac6040830187611fbf565b81810360608301526121be8186611d36565b905081810360808301526121d28185611d36565b90506121e160a0830184611fbf565b979650505050505050565b60006121f6612207565b90506122028282612326565b919050565b6000604051905090565b600067ffffffffffffffff82111561222c5761222b6123fe565b5b61223582612441565b9050602081019050919050565b6000819050602082019050919050565b600081519050919050565b600081519050919050565b6000602082019050919050565b600082825260208201905092915050565b600082825260208201905092915050565b600082825260208201905092915050565b6000819050919050565b82818337600083830152505050565b60005b838110156122df5780820151818401526020810190506122c4565b838111156122ee576000848401525b50505050565b6000600282049050600182168061230c57607f821691505b602082108114156123205761231f6123cf565b5b50919050565b61232f82612441565b810181811067ffffffffffffffff8211171561234e5761234d6123fe565b5b80604052505050565b6000612362826122a8565b91507fffffffffffffffffffffffffffffffffffffffffffffffffffffffffffffffff821415612395576123946123a0565b5b600182019050919050565b7f4e487b7100000000000000000000000000000000000000000000000000000000600052601160045260246000fd5b7f4e487b7100000000000000000000000000000000000000000000000000000000600052602260045260246000fd5b7f4e487b7100000000000000000000000000000000000000000000000000000000600052604160045260246000fd5b600080fd5b600080fd5b600080fd5b600080fd5b6000601f19601f8301169050919050565b61245b816122a8565b811461246657600080fd5b5056fea2646970667358221220a8f8ab3632585d8827067225fe3bd28120790aadb8b668083d3546e51fa259db64736f6c63430008070033",
					"opcodes": "PUSH1 0x80 PUSH1 0x40 MSTORE CALLER PUSH1 0x0 DUP1 PUSH2 0x100 EXP DUP2 SLOAD DUP2 PUSH20 0xFFFFFFFFFFFFFFFFFFFFFFFFFFFFFFFFFFFFFFFF MUL NOT AND SWAP1 DUP4 PUSH20 0xFFFFFFFFFFFFFFFFFFFFFFFFFFFFFFFFFFFFFFFF AND MUL OR SWAP1 SSTORE POP PUSH1 0x0 PUSH1 0x2 SSTORE CALLVALUE DUP1 ISZERO PUSH2 0x55 JUMPI PUSH1 0x0 DUP1 REVERT JUMPDEST POP PUSH2 0x249F DUP1 PUSH2 0x65 PUSH1 0x0 CODECOPY PUSH1 0x0 RETURN INVALID PUSH1 0x80 PUSH1 0x40 MSTORE CALLVALUE DUP1 ISZERO PUSH2 0x10 JUMPI PUSH1 0x0 DUP1 REVERT JUMPDEST POP PUSH1 0x4 CALLDATASIZE LT PUSH2 0x100 JUMPI PUSH1 0x0 CALLDATALOAD PUSH1 0xE0 SHR DUP1 PUSH4 0x8F5AE799 GT PUSH2 0x97 JUMPI DUP1 PUSH4 0xCB80C419 GT PUSH2 0x66 JUMPI DUP1 PUSH4 0xCB80C419 EQ PUSH2 0x33B JUMPI DUP1 PUSH4 0xCDA5E4A5 EQ PUSH2 0x36B JUMPI DUP1 PUSH4 0xCEA23121 EQ PUSH2 0x39B JUMPI DUP1 PUSH4 0xF032EDEC EQ PUSH2 0x3CD JUMPI PUSH2 0x100 JUMP JUMPDEST DUP1 PUSH4 0x8F5AE799 EQ PUSH2 0x279 JUMPI DUP1 PUSH4 0x90175AF1 EQ PUSH2 0x2A9 JUMPI DUP1 PUSH4 0x95D00407 EQ PUSH2 0x2DB JUMPI DUP1 PUSH4 0xB9DB15B4 EQ PUSH2 0x30B JUMPI PUSH2 0x100 JUMP JUMPDEST DUP1 PUSH4 0x7ACC0B20 GT PUSH2 0xD3 JUMPI DUP1 PUSH4 0x7ACC0B20 EQ PUSH2 0x1C7 JUMPI DUP1 PUSH4 0x81D9DEF2 EQ PUSH2 0x1FC JUMPI DUP1 PUSH4 0x897EC7DF EQ PUSH2 0x22C JUMPI DUP1 PUSH4 0x8F29695A EQ PUSH2 0x25D JUMPI PUSH2 0x100 JUMP JUMPDEST DUP1 PUSH4 0x15533A27 EQ PUSH2 0x105 JUMPI DUP1 PUSH4 0x333F3DD0 EQ PUSH2 0x135 JUMPI DUP1 PUSH4 0x3779643F EQ PUSH2 0x165 JUMPI DUP1 PUSH4 0x50B492BA EQ PUSH2 0x195 JUMPI JUMPDEST PUSH1 0x0 DUP1 REVERT JUMPDEST PUSH2 0x11F PUSH1 0x4 DUP1 CALLDATASIZE SUB DUP2 ADD SWAP1 PUSH2 0x11A SWAP2 SWAP1 PUSH2 0x1B33 JUMP JUMPDEST PUSH2 0x3E9 JUMP JUMPDEST PUSH1 0x40 MLOAD PUSH2 0x12C SWAP2 SWAP1 PUSH2 0x20E6 JUMP JUMPDEST PUSH1 0x40 MLOAD DUP1 SWAP2 SUB SWAP1 RETURN JUMPDEST PUSH2 0x14F PUSH1 0x4 DUP1 CALLDATASIZE SUB DUP2 ADD SWAP1 PUSH2 0x14A SWAP2 SWAP1 PUSH2 0x1C07 JUMP JUMPDEST PUSH2 0x54C JUMP JUMPDEST PUSH1 0x40 MLOAD PUSH2 0x15C SWAP2 SWAP1 PUSH2 0x200C JUMP JUMPDEST PUSH1 0x40 MLOAD DUP1 SWAP2 SUB SWAP1 RETURN JUMPDEST PUSH2 0x17F PUSH1 0x4 DUP1 CALLDATASIZE SUB DUP2 ADD SWAP1 PUSH2 0x17A SWAP2 SWAP1 PUSH2 0x1C07 JUMP JUMPDEST PUSH2 0x6FF JUMP JUMPDEST PUSH1 0x40 MLOAD PUSH2 0x18C SWAP2 SWAP1 PUSH2 0x20C4 JUMP JUMPDEST PUSH1 0x40 MLOAD DUP1 SWAP2 SUB SWAP1 RETURN JUMPDEST PUSH2 0x1AF PUSH1 0x4 DUP1 CALLDATASIZE SUB DUP2 ADD SWAP1 PUSH2 0x1AA SWAP2 SWAP1 PUSH2 0x1C07 JUMP JUMPDEST PUSH2 0x8B2 JUMP JUMPDEST PUSH1 0x40 MLOAD PUSH2 0x1BE SWAP4 SWAP3 SWAP2 SWAP1 PUSH2 0x2131 JUMP JUMPDEST PUSH1 0x40 MLOAD DUP1 SWAP2 SUB SWAP1 RETURN JUMPDEST PUSH2 0x1E1 PUSH1 0x4 DUP1 CALLDATASIZE SUB DUP2 ADD SWAP1 PUSH2 0x1DC SWAP2 SWAP1 PUSH2 0x1C07 JUMP JUMPDEST PUSH2 0x9EC JUMP JUMPDEST PUSH1 0x40 MLOAD PUSH2 0x1F3 SWAP7 SWAP6 SWAP5 SWAP4 SWAP3 SWAP2 SWAP1 PUSH2 0x2176 JUMP JUMPDEST PUSH1 0x40 MLOAD DUP1 SWAP2 SUB SWAP1 RETURN JUMPDEST PUSH2 0x216 PUSH1 0x4 DUP1 CALLDATASIZE SUB DUP2 ADD SWAP1 PUSH2 0x211 SWAP2 SWAP1 PUSH2 0x1B33 JUMP JUMPDEST PUSH2 0xBC0 JUMP JUMPDEST PUSH1 0x40 MLOAD PUSH2 0x223 SWAP2 SWAP1 PUSH2 0x20E6 JUMP JUMPDEST PUSH1 0x40 MLOAD DUP1 SWAP2 SUB SWAP1 RETURN JUMPDEST PUSH2 0x246 PUSH1 0x4 DUP1 CALLDATASIZE SUB DUP2 ADD SWAP1 PUSH2 0x241 SWAP2 SWAP1 PUSH2 0x1C07 JUMP JUMPDEST PUSH2 0xD23 JUMP JUMPDEST PUSH1 0x40 MLOAD PUSH2 0x254 SWAP3 SWAP2 SWAP1 PUSH2 0x2101 JUMP JUMPDEST PUSH1 0x40 MLOAD DUP1 SWAP2 SUB SWAP1 RETURN JUMPDEST PUSH2 0x277 PUSH1 0x4 DUP1 CALLDATASIZE SUB DUP2 ADD SWAP1 PUSH2 0x272 SWAP2 SWAP1 PUSH2 0x1B7C JUMP JUMPDEST PUSH2 0xDCF JUMP JUMPDEST STOP JUMPDEST PUSH2 0x293 PUSH1 0x4 DUP1 CALLDATASIZE SUB DUP2 ADD SWAP1 PUSH2 0x28E SWAP2 SWAP1 PUSH2 0x1B33 JUMP JUMPDEST PUSH2 0xF36 JUMP JUMPDEST PUSH1 0x40 MLOAD PUSH2 0x2A0 SWAP2 SWAP1 PUSH2 0x20E6 JUMP JUMPDEST PUSH1 0x40 MLOAD DUP1 SWAP2 SUB SWAP1 RETURN JUMPDEST PUSH2 0x2C3 PUSH1 0x4 DUP1 CALLDATASIZE SUB DUP2 ADD SWAP1 PUSH2 0x2BE SWAP2 SWAP1 PUSH2 0x1C07 JUMP JUMPDEST PUSH2 0x1099 JUMP JUMPDEST PUSH1 0x40 MLOAD PUSH2 0x2D2 SWAP4 SWAP3 SWAP2 SWAP1 PUSH2 0x2131 JUMP JUMPDEST PUSH1 0x40 MLOAD DUP1 SWAP2 SUB SWAP1 RETURN JUMPDEST PUSH2 0x2F5 PUSH1 0x4 DUP1 CALLDATASIZE SUB DUP2 ADD SWAP1 PUSH2 0x2F0 SWAP2 SWAP1 PUSH2 0x1B33 JUMP JUMPDEST PUSH2 0x11D3 JUMP JUMPDEST PUSH1 0x40 MLOAD PUSH2 0x302 SWAP2 SWAP1 PUSH2 0x20E6 JUMP JUMPDEST PUSH1 0x40 MLOAD DUP1 SWAP2 SUB SWAP1 RETURN JUMPDEST PUSH2 0x325 PUSH1 0x4 DUP1 CALLDATASIZE SUB DUP2 ADD SWAP1 PUSH2 0x320 SWAP2 SWAP1 PUSH2 0x1C07 JUMP JUMPDEST PUSH2 0x12DB JUMP JUMPDEST PUSH1 0x40 MLOAD PUSH2 0x332 SWAP2 SWAP1 PUSH2 0x2050 JUMP JUMPDEST PUSH1 0x40 MLOAD DUP1 SWAP2 SUB SWAP1 RETURN JUMPDEST PUSH2 0x355 PUSH1 0x4 DUP1 CALLDATASIZE SUB DUP2 ADD SWAP1 PUSH2 0x350 SWAP2 SWAP1 PUSH2 0x1C07 JUMP JUMPDEST PUSH2 0x14DC JUMP JUMPDEST PUSH1 0x40 MLOAD PUSH2 0x362 SWAP2 SWAP1 PUSH2 0x202E JUMP JUMPDEST PUSH1 0x40 MLOAD DUP1 SWAP2 SUB SWAP1 RETURN JUMPDEST PUSH2 0x385 PUSH1 0x4 DUP1 CALLDATASIZE SUB DUP2 ADD SWAP1 PUSH2 0x380 SWAP2 SWAP1 PUSH2 0x1C07 JUMP JUMPDEST PUSH2 0x168F JUMP JUMPDEST PUSH1 0x40 MLOAD PUSH2 0x392 SWAP2 SWAP1 PUSH2 0x20A2 JUMP JUMPDEST PUSH1 0x40 MLOAD DUP1 SWAP2 SUB SWAP1 RETURN JUMPDEST PUSH2 0x3B5 PUSH1 0x4 DUP1 CALLDATASIZE SUB DUP2 ADD SWAP1 PUSH2 0x3B0 SWAP2 SWAP1 PUSH2 0x1C07 JUMP JUMPDEST PUSH2 0x17B0 JUMP JUMPDEST PUSH1 0x40 MLOAD PUSH2 0x3C4 SWAP4 SWAP3 SWAP2 SWAP1 PUSH2 0x2131 JUMP JUMPDEST PUSH1 0x40 MLOAD DUP1 SWAP2 SUB SWAP1 RETURN JUMPDEST PUSH2 0x3E7 PUSH1 0x4 DUP1 CALLDATASIZE SUB DUP2 ADD SWAP1 PUSH2 0x3E2 SWAP2 SWAP1 PUSH2 0x1C34 JUMP JUMPDEST PUSH2 0x18EA JUMP JUMPDEST STOP JUMPDEST PUSH1 0x0 PUSH2 0x3F3 PUSH2 0x18EF JUMP JUMPDEST DUP3 TIMESTAMP DIFFICULTY PUSH1 0x40 MLOAD PUSH1 0x20 ADD PUSH2 0x408 SWAP4 SWAP3 SWAP2 SWAP1 PUSH2 0x1FCE JUMP JUMPDEST PUSH1 0x40 MLOAD PUSH1 0x20 DUP2 DUP4 SUB SUB DUP2 MSTORE SWAP1 PUSH1 0x40 MSTORE DUP1 MLOAD SWAP1 PUSH1 0x20 ADD KECCAK256 PUSH1 0x0 SHR DUP2 PUSH1 0x0 ADD DUP2 DUP2 MSTORE POP POP PUSH1 0x40 MLOAD DUP1 PUSH1 0x40 ADD PUSH1 0x40 MSTORE DUP1 PUSH1 0x2 DUP2 MSTORE PUSH1 0x20 ADD PUSH32 0x5355000000000000000000000000000000000000000000000000000000000000 DUP2 MSTORE POP DUP2 PUSH1 0x20 ADD DUP2 SWAP1 MSTORE POP DUP3 DUP2 PUSH1 0x40 ADD DUP2 SWAP1 MSTORE POP PUSH1 0x0 PUSH8 0xFFFFFFFFFFFFFFFF DUP2 GT ISZERO PUSH2 0x48C JUMPI PUSH2 0x48B PUSH2 0x23FE JUMP JUMPDEST JUMPDEST PUSH1 0x40 MLOAD SWAP1 DUP1 DUP3 MSTORE DUP1 PUSH1 0x20 MUL PUSH1 0x20 ADD DUP3 ADD PUSH1 0x40 MSTORE DUP1 ISZERO PUSH2 0x4BA JUMPI DUP2 PUSH1 0x20 ADD PUSH1 0x20 DUP3 MUL DUP1 CALLDATASIZE DUP4 CALLDATACOPY DUP1 DUP3 ADD SWAP2 POP POP SWAP1 POP JUMPDEST POP DUP2 PUSH1 0x60 ADD DUP2 SWAP1 MSTORE POP DUP1 PUSH1 0x3 PUSH1 0x0 DUP4 PUSH1 0x0 ADD MLOAD DUP2 MSTORE PUSH1 0x20 ADD SWAP1 DUP2 MSTORE PUSH1 0x20 ADD PUSH1 0x0 KECCAK256 PUSH1 0x0 DUP3 ADD MLOAD DUP2 PUSH1 0x0 ADD SSTORE PUSH1 0x20 DUP3 ADD MLOAD DUP2 PUSH1 0x1 ADD SWAP1 DUP1 MLOAD SWAP1 PUSH1 0x20 ADD SWAP1 PUSH2 0x501 SWAP3 SWAP2 SWAP1 PUSH2 0x1917 JUMP JUMPDEST POP PUSH1 0x40 DUP3 ADD MLOAD DUP2 PUSH1 0x2 ADD SWAP1 DUP1 MLOAD SWAP1 PUSH1 0x20 ADD SWAP1 PUSH2 0x51E SWAP3 SWAP2 SWAP1 PUSH2 0x1917 JUMP JUMPDEST POP PUSH1 0x60 DUP3 ADD MLOAD DUP2 PUSH1 0x3 ADD SWAP1 DUP1 MLOAD SWAP1 PUSH1 0x20 ADD SWAP1 PUSH2 0x53B SWAP3 SWAP2 SWAP1 PUSH2 0x199D JUMP JUMPDEST POP SWAP1 POP POP DUP1 PUSH1 0x0 ADD MLOAD SWAP2 POP POP SWAP2 SWAP1 POP JUMP JUMPDEST PUSH2 0x554 PUSH2 0x19EA JUMP JUMPDEST PUSH1 0x5 PUSH1 0x0 DUP4 DUP2 MSTORE PUSH1 0x20 ADD SWAP1 DUP2 MSTORE PUSH1 0x20 ADD PUSH1 0x0 KECCAK256 PUSH1 0x40 MLOAD DUP1 PUSH1 0x80 ADD PUSH1 0x40 MSTORE SWAP1 DUP2 PUSH1 0x0 DUP3 ADD SLOAD DUP2 MSTORE PUSH1 0x20 ADD PUSH1 0x1 DUP3 ADD DUP1 SLOAD PUSH2 0x58C SWAP1 PUSH2 0x22F4 JUMP JUMPDEST DUP1 PUSH1 0x1F ADD PUSH1 0x20 DUP1 SWAP2 DIV MUL PUSH1 0x20 ADD PUSH1 0x40 MLOAD SWAP1 DUP2 ADD PUSH1 0x40 MSTORE DUP1 SWAP3 SWAP2 SWAP1 DUP2 DUP2 MSTORE PUSH1 0x20 ADD DUP3 DUP1 SLOAD PUSH2 0x5B8 SWAP1 PUSH2 0x22F4 JUMP JUMPDEST DUP1 ISZERO PUSH2 0x605 JUMPI DUP1 PUSH1 0x1F LT PUSH2 0x5DA JUMPI PUSH2 0x100 DUP1 DUP4 SLOAD DIV MUL DUP4 MSTORE SWAP2 PUSH1 0x20 ADD SWAP2 PUSH2 0x605 JUMP JUMPDEST DUP3 ADD SWAP2 SWAP1 PUSH1 0x0 MSTORE PUSH1 0x20 PUSH1 0x0 KECCAK256 SWAP1 JUMPDEST DUP2 SLOAD DUP2 MSTORE SWAP1 PUSH1 0x1 ADD SWAP1 PUSH1 0x20 ADD DUP1 DUP4 GT PUSH2 0x5E8 JUMPI DUP3 SWAP1 SUB PUSH1 0x1F AND DUP3 ADD SWAP2 JUMPDEST POP POP POP POP POP DUP2 MSTORE PUSH1 0x20 ADD PUSH1 0x2 DUP3 ADD DUP1 SLOAD PUSH2 0x61E SWAP1 PUSH2 0x22F4 JUMP JUMPDEST DUP1 PUSH1 0x1F ADD PUSH1 0x20 DUP1 SWAP2 DIV MUL PUSH1 0x20 ADD PUSH1 0x40 MLOAD SWAP1 DUP2 ADD PUSH1 0x40 MSTORE DUP1 SWAP3 SWAP2 SWAP1 DUP2 DUP2 MSTORE PUSH1 0x20 ADD DUP3 DUP1 SLOAD PUSH2 0x64A SWAP1 PUSH2 0x22F4 JUMP JUMPDEST DUP1 ISZERO PUSH2 0x697 JUMPI DUP1 PUSH1 0x1F LT PUSH2 0x66C JUMPI PUSH2 0x100 DUP1 DUP4 SLOAD DIV MUL DUP4 MSTORE SWAP2 PUSH1 0x20 ADD SWAP2 PUSH2 0x697 JUMP JUMPDEST DUP3 ADD SWAP2 SWAP1 PUSH1 0x0 MSTORE PUSH1 0x20 PUSH1 0x0 KECCAK256 SWAP1 JUMPDEST DUP2 SLOAD DUP2 MSTORE SWAP1 PUSH1 0x1 ADD SWAP1 PUSH1 0x20 ADD DUP1 DUP4 GT PUSH2 0x67A JUMPI DUP3 SWAP1 SUB PUSH1 0x1F AND DUP3 ADD SWAP2 JUMPDEST POP POP POP POP POP DUP2 MSTORE PUSH1 0x20 ADD PUSH1 0x3 DUP3 ADD DUP1 SLOAD DUP1 PUSH1 0x20 MUL PUSH1 0x20 ADD PUSH1 0x40 MLOAD SWAP1 DUP2 ADD PUSH1 0x40 MSTORE DUP1 SWAP3 SWAP2 SWAP1 DUP2 DUP2 MSTORE PUSH1 0x20 ADD DUP3 DUP1 SLOAD DUP1 ISZERO PUSH2 0x6EF JUMPI PUSH1 0x20 MUL DUP3 ADD SWAP2 SWAP1 PUSH1 0x0 MSTORE PUSH1 0x20 PUSH1 0x0 KECCAK256 SWAP1 JUMPDEST DUP2 SLOAD DUP2 MSTORE PUSH1 0x20 ADD SWAP1 PUSH1 0x1 ADD SWAP1 DUP1 DUP4 GT PUSH2 0x6DB JUMPI JUMPDEST POP POP POP POP POP DUP2 MSTORE POP POP SWAP1 POP SWAP2 SWAP1 POP JUMP JUMPDEST PUSH2 0x707 PUSH2 0x18EF JUMP JUMPDEST PUSH1 0x3 PUSH1 0x0 DUP4 DUP2 MSTORE PUSH1 0x20 ADD SWAP1 DUP2 MSTORE PUSH1 0x20 ADD PUSH1 0x0 KECCAK256 PUSH1 0x40 MLOAD DUP1 PUSH1 0x80 ADD PUSH1 0x40 MSTORE SWAP1 DUP2 PUSH1 0x0 DUP3 ADD SLOAD DUP2 MSTORE PUSH1 0x20 ADD PUSH1 0x1 DUP3 ADD DUP1 SLOAD PUSH2 0x73F SWAP1 PUSH2 0x22F4 JUMP JUMPDEST DUP1 PUSH1 0x1F ADD PUSH1 0x20 DUP1 SWAP2 DIV MUL PUSH1 0x20 ADD PUSH1 0x40 MLOAD SWAP1 DUP2 ADD PUSH1 0x40 MSTORE DUP1 SWAP3 SWAP2 SWAP1 DUP2 DUP2 MSTORE PUSH1 0x20 ADD DUP3 DUP1 SLOAD PUSH2 0x76B SWAP1 PUSH2 0x22F4 JUMP JUMPDEST DUP1 ISZERO PUSH2 0x7B8 JUMPI DUP1 PUSH1 0x1F LT PUSH2 0x78D JUMPI PUSH2 0x100 DUP1 DUP4 SLOAD DIV MUL DUP4 MSTORE SWAP2 PUSH1 0x20 ADD SWAP2 PUSH2 0x7B8 JUMP JUMPDEST DUP3 ADD SWAP2 SWAP1 PUSH1 0x0 MSTORE PUSH1 0x20 PUSH1 0x0 KECCAK256 SWAP1 JUMPDEST DUP2 SLOAD DUP2 MSTORE SWAP1 PUSH1 0x1 ADD SWAP1 PUSH1 0x20 ADD DUP1 DUP4 GT PUSH2 0x79B JUMPI DUP3 SWAP1 SUB PUSH1 0x1F AND DUP3 ADD SWAP2 JUMPDEST POP POP POP POP POP DUP2 MSTORE PUSH1 0x20 ADD PUSH1 0x2 DUP3 ADD DUP1 SLOAD PUSH2 0x7D1 SWAP1 PUSH2 0x22F4 JUMP JUMPDEST DUP1 PUSH1 0x1F ADD PUSH1 0x20 DUP1 SWAP2 DIV MUL PUSH1 0x20 ADD PUSH1 0x40 MLOAD SWAP1 DUP2 ADD PUSH1 0x40 MSTORE DUP1 SWAP3 SWAP2 SWAP1 DUP2 DUP2 MSTORE PUSH1 0x20 ADD DUP3 DUP1 SLOAD PUSH2 0x7FD SWAP1 PUSH2 0x22F4 JUMP JUMPDEST DUP1 ISZERO PUSH2 0x84A JUMPI DUP1 PUSH1 0x1F LT PUSH2 0x81F JUMPI PUSH2 0x100 DUP1 DUP4 SLOAD DIV MUL DUP4 MSTORE SWAP2 PUSH1 0x20 ADD SWAP2 PUSH2 0x84A JUMP JUMPDEST DUP3 ADD SWAP2 SWAP1 PUSH1 0x0 MSTORE PUSH1 0x20 PUSH1 0x0 KECCAK256 SWAP1 JUMPDEST DUP2 SLOAD DUP2 MSTORE SWAP1 PUSH1 0x1 ADD SWAP1 PUSH1 0x20 ADD DUP1 DUP4 GT PUSH2 0x82D JUMPI DUP3 SWAP1 SUB PUSH1 0x1F AND DUP3 ADD SWAP2 JUMPDEST POP POP POP POP POP DUP2 MSTORE PUSH1 0x20 ADD PUSH1 0x3 DUP3 ADD DUP1 SLOAD DUP1 PUSH1 0x20 MUL PUSH1 0x20 ADD PUSH1 0x40 MLOAD SWAP1 DUP2 ADD PUSH1 0x40 MSTORE DUP1 SWAP3 SWAP2 SWAP1 DUP2 DUP2 MSTORE PUSH1 0x20 ADD DUP3 DUP1 SLOAD DUP1 ISZERO PUSH2 0x8A2 JUMPI PUSH1 0x20 MUL DUP3 ADD SWAP2 SWAP1 PUSH1 0x0 MSTORE PUSH1 0x20 PUSH1 0x0 KECCAK256 SWAP1 JUMPDEST DUP2 SLOAD DUP2 MSTORE PUSH1 0x20 ADD SWAP1 PUSH1 0x1 ADD SWAP1 DUP1 DUP4 GT PUSH2 0x88E JUMPI JUMPDEST POP POP POP POP POP DUP2 MSTORE POP POP SWAP1 POP SWAP2 SWAP1 POP JUMP JUMPDEST PUSH1 0x5 PUSH1 0x20 MSTORE DUP1 PUSH1 0x0 MSTORE PUSH1 0x40 PUSH1 0x0 KECCAK256 PUSH1 0x0 SWAP2 POP SWAP1 POP DUP1 PUSH1 0x0 ADD SLOAD SWAP1 DUP1 PUSH1 0x1 ADD DUP1 SLOAD PUSH2 0x8DB SWAP1 PUSH2 0x22F4 JUMP JUMPDEST DUP1 PUSH1 0x1F ADD PUSH1 0x20 DUP1 SWAP2 DIV MUL PUSH1 0x20 ADD PUSH1 0x40 MLOAD SWAP1 DUP2 ADD PUSH1 0x40 MSTORE DUP1 SWAP3 SWAP2 SWAP1 DUP2 DUP2 MSTORE PUSH1 0x20 ADD DUP3 DUP1 SLOAD PUSH2 0x907 SWAP1 PUSH2 0x22F4 JUMP JUMPDEST DUP1 ISZERO PUSH2 0x954 JUMPI DUP1 PUSH1 0x1F LT PUSH2 0x929 JUMPI PUSH2 0x100 DUP1 DUP4 SLOAD DIV MUL DUP4 MSTORE SWAP2 PUSH1 0x20 ADD SWAP2 PUSH2 0x954 JUMP JUMPDEST DUP3 ADD SWAP2 SWAP1 PUSH1 0x0 MSTORE PUSH1 0x20 PUSH1 0x0 KECCAK256 SWAP1 JUMPDEST DUP2 SLOAD DUP2 MSTORE SWAP1 PUSH1 0x1 ADD SWAP1 PUSH1 0x20 ADD DUP1 DUP4 GT PUSH2 0x937 JUMPI DUP3 SWAP1 SUB PUSH1 0x1F AND DUP3 ADD SWAP2 JUMPDEST POP POP POP POP POP SWAP1 DUP1 PUSH1 0x2 ADD DUP1 SLOAD PUSH2 0x969 SWAP1 PUSH2 0x22F4 JUMP JUMPDEST DUP1 PUSH1 0x1F ADD PUSH1 0x20 DUP1 SWAP2 DIV MUL PUSH1 0x20 ADD PUSH1 0x40 MLOAD SWAP1 DUP2 ADD PUSH1 0x40 MSTORE DUP1 SWAP3 SWAP2 SWAP1 DUP2 DUP2 MSTORE PUSH1 0x20 ADD DUP3 DUP1 SLOAD PUSH2 0x995 SWAP1 PUSH2 0x22F4 JUMP JUMPDEST DUP1 ISZERO PUSH2 0x9E2 JUMPI DUP1 PUSH1 0x1F LT PUSH2 0x9B7 JUMPI PUSH2 0x100 DUP1 DUP4 SLOAD DIV MUL DUP4 MSTORE SWAP2 PUSH1 0x20 ADD SWAP2 PUSH2 0x9E2 JUMP JUMPDEST DUP3 ADD SWAP2 SWAP1 PUSH1 0x0 MSTORE PUSH1 0x20 PUSH1 0x0 KECCAK256 SWAP1 JUMPDEST DUP2 SLOAD DUP2 MSTORE SWAP1 PUSH1 0x1 ADD SWAP1 PUSH1 0x20 ADD DUP1 DUP4 GT PUSH2 0x9C5 JUMPI DUP3 SWAP1 SUB PUSH1 0x1F AND DUP3 ADD SWAP2 JUMPDEST POP POP POP POP POP SWAP1 POP DUP4 JUMP JUMPDEST PUSH1 0x1 PUSH1 0x20 MSTORE DUP1 PUSH1 0x0 MSTORE PUSH1 0x40 PUSH1 0x0 KECCAK256 PUSH1 0x0 SWAP2 POP SWAP1 POP DUP1 PUSH1 0x0 ADD SLOAD SWAP1 DUP1 PUSH1 0x1 ADD DUP1 SLOAD PUSH2 0xA15 SWAP1 PUSH2 0x22F4 JUMP JUMPDEST DUP1 PUSH1 0x1F ADD PUSH1 0x20 DUP1 SWAP2 DIV MUL PUSH1 0x20 ADD PUSH1 0x40 MLOAD SWAP1 DUP2 ADD PUSH1 0x40 MSTORE DUP1 SWAP3 SWAP2 SWAP1 DUP2 DUP2 MSTORE PUSH1 0x20 ADD DUP3 DUP1 SLOAD PUSH2 0xA41 SWAP1 PUSH2 0x22F4 JUMP JUMPDEST DUP1 ISZERO PUSH2 0xA8E JUMPI DUP1 PUSH1 0x1F LT PUSH2 0xA63 JUMPI PUSH2 0x100 DUP1 DUP4 SLOAD DIV MUL DUP4 MSTORE SWAP2 PUSH1 0x20 ADD SWAP2 PUSH2 0xA8E JUMP JUMPDEST DUP3 ADD SWAP2 SWAP1 PUSH1 0x0 MSTORE PUSH1 0x20 PUSH1 0x0 KECCAK256 SWAP1 JUMPDEST DUP2 SLOAD DUP2 MSTORE SWAP1 PUSH1 0x1 ADD SWAP1 PUSH1 0x20 ADD DUP1 DUP4 GT PUSH2 0xA71 JUMPI DUP3 SWAP1 SUB PUSH1 0x1F AND DUP3 ADD SWAP2 JUMPDEST POP POP POP POP POP SWAP1 DUP1 PUSH1 0x2 ADD SLOAD SWAP1 DUP1 PUSH1 0x3 ADD DUP1 SLOAD PUSH2 0xAA9 SWAP1 PUSH2 0x22F4 JUMP JUMPDEST DUP1 PUSH1 0x1F ADD PUSH1 0x20 DUP1 SWAP2 DIV MUL PUSH1 0x20 ADD PUSH1 0x40 MLOAD SWAP1 DUP2 ADD PUSH1 0x40 MSTORE DUP1 SWAP3 SWAP2 SWAP1 DUP2 DUP2 MSTORE PUSH1 0x20 ADD DUP3 DUP1 SLOAD PUSH2 0xAD5 SWAP1 PUSH2 0x22F4 JUMP JUMPDEST DUP1 ISZERO PUSH2 0xB22 JUMPI DUP1 PUSH1 0x1F LT PUSH2 0xAF7 JUMPI PUSH2 0x100 DUP1 DUP4 SLOAD DIV MUL DUP4 MSTORE SWAP2 PUSH1 0x20 ADD SWAP2 PUSH2 0xB22 JUMP JUMPDEST DUP3 ADD SWAP2 SWAP1 PUSH1 0x0 MSTORE PUSH1 0x20 PUSH1 0x0 KECCAK256 SWAP1 JUMPDEST DUP2 SLOAD DUP2 MSTORE SWAP1 PUSH1 0x1 ADD SWAP1 PUSH1 0x20 ADD DUP1 DUP4 GT PUSH2 0xB05 JUMPI DUP3 SWAP1 SUB PUSH1 0x1F AND DUP3 ADD SWAP2 JUMPDEST POP POP POP POP POP SWAP1 DUP1 PUSH1 0x4 ADD DUP1 SLOAD PUSH2 0xB37 SWAP1 PUSH2 0x22F4 JUMP JUMPDEST DUP1 PUSH1 0x1F ADD PUSH1 0x20 DUP1 SWAP2 DIV MUL PUSH1 0x20 ADD PUSH1 0x40 MLOAD SWAP1 DUP2 ADD PUSH1 0x40 MSTORE DUP1 SWAP3 SWAP2 SWAP1 DUP2 DUP2 MSTORE PUSH1 0x20 ADD DUP3 DUP1 SLOAD PUSH2 0xB63 SWAP1 PUSH2 0x22F4 JUMP JUMPDEST DUP1 ISZERO PUSH2 0xBB0 JUMPI DUP1 PUSH1 0x1F LT PUSH2 0xB85 JUMPI PUSH2 0x100 DUP1 DUP4 SLOAD DIV MUL DUP4 MSTORE SWAP2 PUSH1 0x20 ADD SWAP2 PUSH2 0xBB0 JUMP JUMPDEST DUP3 ADD SWAP2 SWAP1 PUSH1 0x0 MSTORE PUSH1 0x20 PUSH1 0x0 KECCAK256 SWAP1 JUMPDEST DUP2 SLOAD DUP2 MSTORE SWAP1 PUSH1 0x1 ADD SWAP1 PUSH1 0x20 ADD DUP1 DUP4 GT PUSH2 0xB93 JUMPI DUP3 SWAP1 SUB PUSH1 0x1F AND DUP3 ADD SWAP2 JUMPDEST POP POP POP POP POP SWAP1 DUP1 PUSH1 0x5 ADD SLOAD SWAP1 POP DUP7 JUMP JUMPDEST PUSH1 0x0 PUSH2 0xBCA PUSH2 0x19EA JUMP JUMPDEST DUP3 TIMESTAMP DIFFICULTY PUSH1 0x40 MLOAD PUSH1 0x20 ADD PUSH2 0xBDF SWAP4 SWAP3 SWAP2 SWAP1 PUSH2 0x1FCE JUMP JUMPDEST PUSH1 0x40 MLOAD PUSH1 0x20 DUP2 DUP4 SUB SUB DUP2 MSTORE SWAP1 PUSH1 0x40 MSTORE DUP1 MLOAD SWAP1 PUSH1 0x20 ADD KECCAK256 PUSH1 0x0 SHR DUP2 PUSH1 0x0 ADD DUP2 DUP2 MSTORE POP POP PUSH1 0x40 MLOAD DUP1 PUSH1 0x40 ADD PUSH1 0x40 MSTORE DUP1 PUSH1 0x2 DUP2 MSTORE PUSH1 0x20 ADD PUSH32 0x4449000000000000000000000000000000000000000000000000000000000000 DUP2 MSTORE POP DUP2 PUSH1 0x20 ADD DUP2 SWAP1 MSTORE POP DUP3 DUP2 PUSH1 0x40 ADD DUP2 SWAP1 MSTORE POP PUSH1 0x0 PUSH8 0xFFFFFFFFFFFFFFFF DUP2 GT ISZERO PUSH2 0xC63 JUMPI PUSH2 0xC62 PUSH2 0x23FE JUMP JUMPDEST JUMPDEST PUSH1 0x40 MLOAD SWAP1 DUP1 DUP3 MSTORE DUP1 PUSH1 0x20 MUL PUSH1 0x20 ADD DUP3 ADD PUSH1 0x40 MSTORE DUP1 ISZERO PUSH2 0xC91 JUMPI DUP2 PUSH1 0x20 ADD PUSH1 0x20 DUP3 MUL DUP1 CALLDATASIZE DUP4 CALLDATACOPY DUP1 DUP3 ADD SWAP2 POP POP SWAP1 POP JUMPDEST POP DUP2 PUSH1 0x60 ADD DUP2 SWAP1 MSTORE POP DUP1 PUSH1 0x5 PUSH1 0x0 DUP4 PUSH1 0x0 ADD MLOAD DUP2 MSTORE PUSH1 0x20 ADD SWAP1 DUP2 MSTORE PUSH1 0x20 ADD PUSH1 0x0 KECCAK256 PUSH1 0x0 DUP3 ADD MLOAD DUP2 PUSH1 0x0 ADD SSTORE PUSH1 0x20 DUP3 ADD MLOAD DUP2 PUSH1 0x1 ADD SWAP1 DUP1 MLOAD SWAP1 PUSH1 0x20 ADD SWAP1 PUSH2 0xCD8 SWAP3 SWAP2 SWAP1 PUSH2 0x1917 JUMP JUMPDEST POP PUSH1 0x40 DUP3 ADD MLOAD DUP2 PUSH1 0x2 ADD SWAP1 DUP1 MLOAD SWAP1 PUSH1 0x20 ADD SWAP1 PUSH2 0xCF5 SWAP3 SWAP2 SWAP1 PUSH2 0x1917 JUMP JUMPDEST POP PUSH1 0x60 DUP3 ADD MLOAD DUP2 PUSH1 0x3 ADD SWAP1 DUP1 MLOAD SWAP1 PUSH1 0x20 ADD SWAP1 PUSH2 0xD12 SWAP3 SWAP2 SWAP1 PUSH2 0x199D JUMP JUMPDEST POP SWAP1 POP POP DUP1 PUSH1 0x0 ADD MLOAD SWAP2 POP POP SWAP2 SWAP1 POP JUMP JUMPDEST PUSH1 0x6 PUSH1 0x20 MSTORE DUP1 PUSH1 0x0 MSTORE PUSH1 0x40 PUSH1 0x0 KECCAK256 PUSH1 0x0 SWAP2 POP SWAP1 POP DUP1 PUSH1 0x0 ADD SLOAD SWAP1 DUP1 PUSH1 0x1 ADD DUP1 SLOAD PUSH2 0xD4C SWAP1 PUSH2 0x22F4 JUMP JUMPDEST DUP1 PUSH1 0x1F ADD PUSH1 0x20 DUP1 SWAP2 DIV MUL PUSH1 0x20 ADD PUSH1 0x40 MLOAD SWAP1 DUP2 ADD PUSH1 0x40 MSTORE DUP1 SWAP3 SWAP2 SWAP1 DUP2 DUP2 MSTORE PUSH1 0x20 ADD DUP3 DUP1 SLOAD PUSH2 0xD78 SWAP1 PUSH2 0x22F4 JUMP JUMPDEST DUP1 ISZERO PUSH2 0xDC5 JUMPI DUP1 PUSH1 0x1F LT PUSH2 0xD9A JUMPI PUSH2 0x100 DUP1 DUP4 SLOAD DIV MUL DUP4 MSTORE SWAP2 PUSH1 0x20 ADD SWAP2 PUSH2 0xDC5 JUMP JUMPDEST DUP3 ADD SWAP2 SWAP1 PUSH1 0x0 MSTORE PUSH1 0x20 PUSH1 0x0 KECCAK256 SWAP1 JUMPDEST DUP2 SLOAD DUP2 MSTORE SWAP1 PUSH1 0x1 ADD SWAP1 PUSH1 0x20 ADD DUP1 DUP4 GT PUSH2 0xDA8 JUMPI DUP3 SWAP1 SUB PUSH1 0x1F AND DUP3 ADD SWAP2 JUMPDEST POP POP POP POP POP SWAP1 POP DUP3 JUMP JUMPDEST PUSH2 0xDD7 PUSH2 0x1A12 JUMP JUMPDEST DUP4 TIMESTAMP DIFFICULTY PUSH1 0x40 MLOAD PUSH1 0x20 ADD PUSH2 0xDEC SWAP4 SWAP3 SWAP2 SWAP1 PUSH2 0x1FCE JUMP JUMPDEST PUSH1 0x40 MLOAD PUSH1 0x20 DUP2 DUP4 SUB SUB DUP2 MSTORE SWAP1 PUSH1 0x40 MSTORE DUP1 MLOAD SWAP1 PUSH1 0x20 ADD KECCAK256 PUSH1 0x0 SHR DUP2 PUSH1 0x0 ADD DUP2 DUP2 MSTORE POP POP DUP4 DUP2 PUSH1 0x20 ADD DUP2 SWAP1 MSTORE POP DUP3 DUP2 PUSH1 0x40 ADD DUP2 DUP2 MSTORE POP POP DUP2 DUP2 PUSH1 0x60 ADD DUP2 SWAP1 MSTORE POP PUSH1 0x40 MLOAD DUP1 PUSH1 0x20 ADD PUSH1 0x40 MSTORE DUP1 PUSH1 0x0 DUP2 MSTORE POP DUP2 PUSH1 0x80 ADD DUP2 SWAP1 MSTORE POP PUSH1 0x0 DUP2 PUSH1 0xA0 ADD DUP2 DUP2 MSTORE POP POP DUP1 PUSH1 0x1 PUSH1 0x0 DUP4 PUSH1 0x0 ADD MLOAD DUP2 MSTORE PUSH1 0x20 ADD SWAP1 DUP2 MSTORE PUSH1 0x20 ADD PUSH1 0x0 KECCAK256 PUSH1 0x0 DUP3 ADD MLOAD DUP2 PUSH1 0x0 ADD SSTORE PUSH1 0x20 DUP3 ADD MLOAD DUP2 PUSH1 0x1 ADD SWAP1 DUP1 MLOAD SWAP1 PUSH1 0x20 ADD SWAP1 PUSH2 0xE8B SWAP3 SWAP2 SWAP1 PUSH2 0x1917 JUMP JUMPDEST POP PUSH1 0x40 DUP3 ADD MLOAD DUP2 PUSH1 0x2 ADD SSTORE PUSH1 0x60 DUP3 ADD MLOAD DUP2 PUSH1 0x3 ADD SWAP1 DUP1 MLOAD SWAP1 PUSH1 0x20 ADD SWAP1 PUSH2 0xEB2 SWAP3 SWAP2 SWAP1 PUSH2 0x1917 JUMP JUMPDEST POP PUSH1 0x80 DUP3 ADD MLOAD DUP2 PUSH1 0x4 ADD SWAP1 DUP1 MLOAD SWAP1 PUSH1 0x20 ADD SWAP1 PUSH2 0xECF SWAP3 SWAP2 SWAP1 PUSH2 0x1917 JUMP JUMPDEST POP PUSH1 0xA0 DUP3 ADD MLOAD DUP2 PUSH1 0x5 ADD SSTORE SWAP1 POP POP PUSH1 0x2 PUSH1 0x0 DUP2 SLOAD DUP1 SWAP3 SWAP2 SWAP1 PUSH2 0xEF0 SWAP1 PUSH2 0x2357 JUMP JUMPDEST SWAP2 SWAP1 POP SSTORE POP PUSH32 0xB9650A646EAF16194343A0E5CF05C4A99CFBFFBF2A7630C4EAF6F3263A931D8 DUP2 PUSH1 0x2 SLOAD PUSH1 0x40 MLOAD PUSH2 0xF28 SWAP3 SWAP2 SWAP1 PUSH2 0x2072 JUMP JUMPDEST PUSH1 0x40 MLOAD DUP1 SWAP2 SUB SWAP1 LOG1 POP POP POP POP JUMP JUMPDEST PUSH1 0x0 PUSH2 0xF40 PUSH2 0x1A48 JUMP JUMPDEST DUP3 TIMESTAMP DIFFICULTY PUSH1 0x40 MLOAD PUSH1 0x20 ADD PUSH2 0xF55 SWAP4 SWAP3 SWAP2 SWAP1 PUSH2 0x1FCE JUMP JUMPDEST PUSH1 0x40 MLOAD PUSH1 0x20 DUP2 DUP4 SUB SUB DUP2 MSTORE SWAP1 PUSH1 0x40 MSTORE DUP1 MLOAD SWAP1 PUSH1 0x20 ADD KECCAK256 PUSH1 0x0 SHR DUP2 PUSH1 0x0 ADD DUP2 DUP2 MSTORE POP POP PUSH1 0x40 MLOAD DUP1 PUSH1 0x40 ADD PUSH1 0x40 MSTORE DUP1 PUSH1 0x2 DUP2 MSTORE PUSH1 0x20 ADD PUSH32 0x4D41000000000000000000000000000000000000000000000000000000000000 DUP2 MSTORE POP DUP2 PUSH1 0x20 ADD DUP2 SWAP1 MSTORE POP DUP3 DUP2 PUSH1 0x40 ADD DUP2 SWAP1 MSTORE POP PUSH1 0x0 PUSH8 0xFFFFFFFFFFFFFFFF DUP2 GT ISZERO PUSH2 0xFD9 JUMPI PUSH2 0xFD8 PUSH2 0x23FE JUMP JUMPDEST JUMPDEST PUSH1 0x40 MLOAD SWAP1 DUP1 DUP3 MSTORE DUP1 PUSH1 0x20 MUL PUSH1 0x20 ADD DUP3 ADD PUSH1 0x40 MSTORE DUP1 ISZERO PUSH2 0x1007 JUMPI DUP2 PUSH1 0x20 ADD PUSH1 0x20 DUP3 MUL DUP1 CALLDATASIZE DUP4 CALLDATACOPY DUP1 DUP3 ADD SWAP2 POP POP SWAP1 POP JUMPDEST POP DUP2 PUSH1 0x60 ADD DUP2 SWAP1 MSTORE POP DUP1 PUSH1 0x4 PUSH1 0x0 DUP4 PUSH1 0x0 ADD MLOAD DUP2 MSTORE PUSH1 0x20 ADD SWAP1 DUP2 MSTORE PUSH1 0x20 ADD PUSH1 0x0 KECCAK256 PUSH1 0x0 DUP3 ADD MLOAD DUP2 PUSH1 0x0 ADD SSTORE PUSH1 0x20 DUP3 ADD MLOAD DUP2 PUSH1 0x1 ADD SWAP1 DUP1 MLOAD SWAP1 PUSH1 0x20 ADD SWAP1 PUSH2 0x104E SWAP3 SWAP2 SWAP1 PUSH2 0x1917 JUMP JUMPDEST POP PUSH1 0x40 DUP3 ADD MLOAD DUP2 PUSH1 0x2 ADD SWAP1 DUP1 MLOAD SWAP1 PUSH1 0x20 ADD SWAP1 PUSH2 0x106B SWAP3 SWAP2 SWAP1 PUSH2 0x1917 JUMP JUMPDEST POP PUSH1 0x60 DUP3 ADD MLOAD DUP2 PUSH1 0x3 ADD SWAP1 DUP1 MLOAD SWAP1 PUSH1 0x20 ADD SWAP1 PUSH2 0x1088 SWAP3 SWAP2 SWAP1 PUSH2 0x199D JUMP JUMPDEST POP SWAP1 POP POP DUP1 PUSH1 0x0 ADD MLOAD SWAP2 POP POP SWAP2 SWAP1 POP JUMP JUMPDEST PUSH1 0x4 PUSH1 0x20 MSTORE DUP1 PUSH1 0x0 MSTORE PUSH1 0x40 PUSH1 0x0 KECCAK256 PUSH1 0x0 SWAP2 POP SWAP1 POP DUP1 PUSH1 0x0 ADD SLOAD SWAP1 DUP1 PUSH1 0x1 ADD DUP1 SLOAD PUSH2 0x10C2 SWAP1 PUSH2 0x22F4 JUMP JUMPDEST DUP1 PUSH1 0x1F ADD PUSH1 0x20 DUP1 SWAP2 DIV MUL PUSH1 0x20 ADD PUSH1 0x40 MLOAD SWAP1 DUP2 ADD PUSH1 0x40 MSTORE DUP1 SWAP3 SWAP2 SWAP1 DUP2 DUP2 MSTORE PUSH1 0x20 ADD DUP3 DUP1 SLOAD PUSH2 0x10EE SWAP1 PUSH2 0x22F4 JUMP JUMPDEST DUP1 ISZERO PUSH2 0x113B JUMPI DUP1 PUSH1 0x1F LT PUSH2 0x1110 JUMPI PUSH2 0x100 DUP1 DUP4 SLOAD DIV MUL DUP4 MSTORE SWAP2 PUSH1 0x20 ADD SWAP2 PUSH2 0x113B JUMP JUMPDEST DUP3 ADD SWAP2 SWAP1 PUSH1 0x0 MSTORE PUSH1 0x20 PUSH1 0x0 KECCAK256 SWAP1 JUMPDEST DUP2 SLOAD DUP2 MSTORE SWAP1 PUSH1 0x1 ADD SWAP1 PUSH1 0x20 ADD DUP1 DUP4 GT PUSH2 0x111E JUMPI DUP3 SWAP1 SUB PUSH1 0x1F AND DUP3 ADD SWAP2 JUMPDEST POP POP POP POP POP SWAP1 DUP1 PUSH1 0x2 ADD DUP1 SLOAD PUSH2 0x1150 SWAP1 PUSH2 0x22F4 JUMP JUMPDEST DUP1 PUSH1 0x1F ADD PUSH1 0x20 DUP1 SWAP2 DIV MUL PUSH1 0x20 ADD PUSH1 0x40 MLOAD SWAP1 DUP2 ADD PUSH1 0x40 MSTORE DUP1 SWAP3 SWAP2 SWAP1 DUP2 DUP2 MSTORE PUSH1 0x20 ADD DUP3 DUP1 SLOAD PUSH2 0x117C SWAP1 PUSH2 0x22F4 JUMP JUMPDEST DUP1 ISZERO PUSH2 0x11C9 JUMPI DUP1 PUSH1 0x1F LT PUSH2 0x119E JUMPI PUSH2 0x100 DUP1 DUP4 SLOAD DIV MUL DUP4 MSTORE SWAP2 PUSH1 0x20 ADD SWAP2 PUSH2 0x11C9 JUMP JUMPDEST DUP3 ADD SWAP2 SWAP1 PUSH1 0x0 MSTORE PUSH1 0x20 PUSH1 0x0 KECCAK256 SWAP1 JUMPDEST DUP2 SLOAD DUP2 MSTORE SWAP1 PUSH1 0x1 ADD SWAP1 PUSH1 0x20 ADD DUP1 DUP4 GT PUSH2 0x11AC JUMPI DUP3 SWAP1 SUB PUSH1 0x1F AND DUP3 ADD SWAP2 JUMPDEST POP POP POP POP POP SWAP1 POP DUP4 JUMP JUMPDEST PUSH1 0x0 PUSH2 0x11DD PUSH2 0x1A70 JUMP JUMPDEST DUP3 TIMESTAMP DIFFICULTY PUSH1 0x40 MLOAD PUSH1 0x20 ADD PUSH2 0x11F2 SWAP4 SWAP3 SWAP2 SWAP1 PUSH2 0x1FCE JUMP JUMPDEST PUSH1 0x40 MLOAD PUSH1 0x20 DUP2 DUP4 SUB SUB DUP2 MSTORE SWAP1 PUSH1 0x40 MSTORE DUP1 MLOAD SWAP1 PUSH1 0x20 ADD KECCAK256 PUSH1 0x0 SHR DUP2 PUSH1 0x0 ADD DUP2 DUP2 MSTORE POP POP DUP3 DUP2 PUSH1 0x20 ADD DUP2 SWAP1 MSTORE POP PUSH1 0x0 PUSH8 0xFFFFFFFFFFFFFFFF DUP2 GT ISZERO PUSH2 0x1238 JUMPI PUSH2 0x1237 PUSH2 0x23FE JUMP JUMPDEST JUMPDEST PUSH1 0x40 MLOAD SWAP1 DUP1 DUP3 MSTORE DUP1 PUSH1 0x20 MUL PUSH1 0x20 ADD DUP3 ADD PUSH1 0x40 MSTORE DUP1 ISZERO PUSH2 0x1266 JUMPI DUP2 PUSH1 0x20 ADD PUSH1 0x20 DUP3 MUL DUP1 CALLDATASIZE DUP4 CALLDATACOPY DUP1 DUP3 ADD SWAP2 POP POP SWAP1 POP JUMPDEST POP DUP2 PUSH1 0x40 ADD DUP2 SWAP1 MSTORE POP DUP1 PUSH1 0x6 PUSH1 0x0 DUP4 PUSH1 0x0 ADD MLOAD DUP2 MSTORE PUSH1 0x20 ADD SWAP1 DUP2 MSTORE PUSH1 0x20 ADD PUSH1 0x0 KECCAK256 PUSH1 0x0 DUP3 ADD MLOAD DUP2 PUSH1 0x0 ADD SSTORE PUSH1 0x20 DUP3 ADD MLOAD DUP2 PUSH1 0x1 ADD SWAP1 DUP1 MLOAD SWAP1 PUSH1 0x20 ADD SWAP1 PUSH2 0x12AD SWAP3 SWAP2 SWAP1 PUSH2 0x1917 JUMP JUMPDEST POP PUSH1 0x40 DUP3 ADD MLOAD DUP2 PUSH1 0x2 ADD SWAP1 DUP1 MLOAD SWAP1 PUSH1 0x20 ADD SWAP1 PUSH2 0x12CA SWAP3 SWAP2 SWAP1 PUSH2 0x199D JUMP JUMPDEST POP SWAP1 POP POP DUP1 PUSH1 0x0 ADD MLOAD SWAP2 POP POP SWAP2 SWAP1 POP JUMP JUMPDEST PUSH2 0x12E3 PUSH2 0x1A12 JUMP JUMPDEST PUSH1 0x1 PUSH1 0x0 DUP4 DUP2 MSTORE PUSH1 0x20 ADD SWAP1 DUP2 MSTORE PUSH1 0x20 ADD PUSH1 0x0 KECCAK256 PUSH1 0x40 MLOAD DUP1 PUSH1 0xC0 ADD PUSH1 0x40 MSTORE SWAP1 DUP2 PUSH1 0x0 DUP3 ADD SLOAD DUP2 MSTORE PUSH1 0x20 ADD PUSH1 0x1 DUP3 ADD DUP1 SLOAD PUSH2 0x131B SWAP1 PUSH2 0x22F4 JUMP JUMPDEST DUP1 PUSH1 0x1F ADD PUSH1 0x20 DUP1 SWAP2 DIV MUL PUSH1 0x20 ADD PUSH1 0x40 MLOAD SWAP1 DUP2 ADD PUSH1 0x40 MSTORE DUP1 SWAP3 SWAP2 SWAP1 DUP2 DUP2 MSTORE PUSH1 0x20 ADD DUP3 DUP1 SLOAD PUSH2 0x1347 SWAP1 PUSH2 0x22F4 JUMP JUMPDEST DUP1 ISZERO PUSH2 0x1394 JUMPI DUP1 PUSH1 0x1F LT PUSH2 0x1369 JUMPI PUSH2 0x100 DUP1 DUP4 SLOAD DIV MUL DUP4 MSTORE SWAP2 PUSH1 0x20 ADD SWAP2 PUSH2 0x1394 JUMP JUMPDEST DUP3 ADD SWAP2 SWAP1 PUSH1 0x0 MSTORE PUSH1 0x20 PUSH1 0x0 KECCAK256 SWAP1 JUMPDEST DUP2 SLOAD DUP2 MSTORE SWAP1 PUSH1 0x1 ADD SWAP1 PUSH1 0x20 ADD DUP1 DUP4 GT PUSH2 0x1377 JUMPI DUP3 SWAP1 SUB PUSH1 0x1F AND DUP3 ADD SWAP2 JUMPDEST POP POP POP POP POP DUP2 MSTORE PUSH1 0x20 ADD PUSH1 0x2 DUP3 ADD SLOAD DUP2 MSTORE PUSH1 0x20 ADD PUSH1 0x3 DUP3 ADD DUP1 SLOAD PUSH2 0x13B7 SWAP1 PUSH2 0x22F4 JUMP JUMPDEST DUP1 PUSH1 0x1F ADD PUSH1 0x20 DUP1 SWAP2 DIV MUL PUSH1 0x20 ADD PUSH1 0x40 MLOAD SWAP1 DUP2 ADD PUSH1 0x40 MSTORE DUP1 SWAP3 SWAP2 SWAP1 DUP2 DUP2 MSTORE PUSH1 0x20 ADD DUP3 DUP1 SLOAD PUSH2 0x13E3 SWAP1 PUSH2 0x22F4 JUMP JUMPDEST DUP1 ISZERO PUSH2 0x1430 JUMPI DUP1 PUSH1 0x1F LT PUSH2 0x1405 JUMPI PUSH2 0x100 DUP1 DUP4 SLOAD DIV MUL DUP4 MSTORE SWAP2 PUSH1 0x20 ADD SWAP2 PUSH2 0x1430 JUMP JUMPDEST DUP3 ADD SWAP2 SWAP1 PUSH1 0x0 MSTORE PUSH1 0x20 PUSH1 0x0 KECCAK256 SWAP1 JUMPDEST DUP2 SLOAD DUP2 MSTORE SWAP1 PUSH1 0x1 ADD SWAP1 PUSH1 0x20 ADD DUP1 DUP4 GT PUSH2 0x1413 JUMPI DUP3 SWAP1 SUB PUSH1 0x1F AND DUP3 ADD SWAP2 JUMPDEST POP POP POP POP POP DUP2 MSTORE PUSH1 0x20 ADD PUSH1 0x4 DUP3 ADD DUP1 SLOAD PUSH2 0x1449 SWAP1 PUSH2 0x22F4 JUMP JUMPDEST DUP1 PUSH1 0x1F ADD PUSH1 0x20 DUP1 SWAP2 DIV MUL PUSH1 0x20 ADD PUSH1 0x40 MLOAD SWAP1 DUP2 ADD PUSH1 0x40 MSTORE DUP1 SWAP3 SWAP2 SWAP1 DUP2 DUP2 MSTORE PUSH1 0x20 ADD DUP3 DUP1 SLOAD PUSH2 0x1475 SWAP1 PUSH2 0x22F4 JUMP JUMPDEST DUP1 ISZERO PUSH2 0x14C2 JUMPI DUP1 PUSH1 0x1F LT PUSH2 0x1497 JUMPI PUSH2 0x100 DUP1 DUP4 SLOAD DIV MUL DUP4 MSTORE SWAP2 PUSH1 0x20 ADD SWAP2 PUSH2 0x14C2 JUMP JUMPDEST DUP3 ADD SWAP2 SWAP1 PUSH1 0x0 MSTORE PUSH1 0x20 PUSH1 0x0 KECCAK256 SWAP1 JUMPDEST DUP2 SLOAD DUP2 MSTORE SWAP1 PUSH1 0x1 ADD SWAP1 PUSH1 0x20 ADD DUP1 DUP4 GT PUSH2 0x14A5 JUMPI DUP3 SWAP1 SUB PUSH1 0x1F AND DUP3 ADD SWAP2 JUMPDEST POP POP POP POP POP DUP2 MSTORE PUSH1 0x20 ADD PUSH1 0x5 DUP3 ADD SLOAD DUP2 MSTORE POP POP SWAP1 POP SWAP2 SWAP1 POP JUMP JUMPDEST PUSH2 0x14E4 PUSH2 0x1A48 JUMP JUMPDEST PUSH1 0x4 PUSH1 0x0 DUP4 DUP2 MSTORE PUSH1 0x20 ADD SWAP1 DUP2 MSTORE PUSH1 0x20 ADD PUSH1 0x0 KECCAK256 PUSH1 0x40 MLOAD DUP1 PUSH1 0x80 ADD PUSH1 0x40 MSTORE SWAP1 DUP2 PUSH1 0x0 DUP3 ADD SLOAD DUP2 MSTORE PUSH1 0x20 ADD PUSH1 0x1 DUP3 ADD DUP1 SLOAD PUSH2 0x151C SWAP1 PUSH2 0x22F4 JUMP JUMPDEST DUP1 PUSH1 0x1F ADD PUSH1 0x20 DUP1 SWAP2 DIV MUL PUSH1 0x20 ADD PUSH1 0x40 MLOAD SWAP1 DUP2 ADD PUSH1 0x40 MSTORE DUP1 SWAP3 SWAP2 SWAP1 DUP2 DUP2 MSTORE PUSH1 0x20 ADD DUP3 DUP1 SLOAD PUSH2 0x1548 SWAP1 PUSH2 0x22F4 JUMP JUMPDEST DUP1 ISZERO PUSH2 0x1595 JUMPI DUP1 PUSH1 0x1F LT PUSH2 0x156A JUMPI PUSH2 0x100 DUP1 DUP4 SLOAD DIV MUL DUP4 MSTORE SWAP2 PUSH1 0x20 ADD SWAP2 PUSH2 0x1595 JUMP JUMPDEST DUP3 ADD SWAP2 SWAP1 PUSH1 0x0 MSTORE PUSH1 0x20 PUSH1 0x0 KECCAK256 SWAP1 JUMPDEST DUP2 SLOAD DUP2 MSTORE SWAP1 PUSH1 0x1 ADD SWAP1 PUSH1 0x20 ADD DUP1 DUP4 GT PUSH2 0x1578 JUMPI DUP3 SWAP1 SUB PUSH1 0x1F AND DUP3 ADD SWAP2 JUMPDEST POP POP POP POP POP DUP2 MSTORE PUSH1 0x20 ADD PUSH1 0x2 DUP3 ADD DUP1 SLOAD PUSH2 0x15AE SWAP1 PUSH2 0x22F4 JUMP JUMPDEST DUP1 PUSH1 0x1F ADD PUSH1 0x20 DUP1 SWAP2 DIV MUL PUSH1 0x20 ADD PUSH1 0x40 MLOAD SWAP1 DUP2 ADD PUSH1 0x40 MSTORE DUP1 SWAP3 SWAP2 SWAP1 DUP2 DUP2 MSTORE PUSH1 0x20 ADD DUP3 DUP1 SLOAD PUSH2 0x15DA SWAP1 PUSH2 0x22F4 JUMP JUMPDEST DUP1 ISZERO PUSH2 0x1627 JUMPI DUP1 PUSH1 0x1F LT PUSH2 0x15FC JUMPI PUSH2 0x100 DUP1 DUP4 SLOAD DIV MUL DUP4 MSTORE SWAP2 PUSH1 0x20 ADD SWAP2 PUSH2 0x1627 JUMP JUMPDEST DUP3 ADD SWAP2 SWAP1 PUSH1 0x0 MSTORE PUSH1 0x20 PUSH1 0x0 KECCAK256 SWAP1 JUMPDEST DUP2 SLOAD DUP2 MSTORE SWAP1 PUSH1 0x1 ADD SWAP1 PUSH1 0x20 ADD DUP1 DUP4 GT PUSH2 0x160A JUMPI DUP3 SWAP1 SUB PUSH1 0x1F AND DUP3 ADD SWAP2 JUMPDEST POP POP POP POP POP DUP2 MSTORE PUSH1 0x20 ADD PUSH1 0x3 DUP3 ADD DUP1 SLOAD DUP1 PUSH1 0x20 MUL PUSH1 0x20 ADD PUSH1 0x40 MLOAD SWAP1 DUP2 ADD PUSH1 0x40 MSTORE DUP1 SWAP3 SWAP2 SWAP1 DUP2 DUP2 MSTORE PUSH1 0x20 ADD DUP3 DUP1 SLOAD DUP1 ISZERO PUSH2 0x167F JUMPI PUSH1 0x20 MUL DUP3 ADD SWAP2 SWAP1 PUSH1 0x0 MSTORE PUSH1 0x20 PUSH1 0x0 KECCAK256 SWAP1 JUMPDEST DUP2 SLOAD DUP2 MSTORE PUSH1 0x20 ADD SWAP1 PUSH1 0x1 ADD SWAP1 DUP1 DUP4 GT PUSH2 0x166B JUMPI JUMPDEST POP POP POP POP POP DUP2 MSTORE POP POP SWAP1 POP SWAP2 SWAP1 POP JUMP JUMPDEST PUSH2 0x1697 PUSH2 0x1A70 JUMP JUMPDEST PUSH1 0x6 PUSH1 0x0 DUP4 DUP2 MSTORE PUSH1 0x20 ADD SWAP1 DUP2 MSTORE PUSH1 0x20 ADD PUSH1 0x0 KECCAK256 PUSH1 0x40 MLOAD DUP1 PUSH1 0x60 ADD PUSH1 0x40 MSTORE SWAP1 DUP2 PUSH1 0x0 DUP3 ADD SLOAD DUP2 MSTORE PUSH1 0x20 ADD PUSH1 0x1 DUP3 ADD DUP1 SLOAD PUSH2 0x16CF SWAP1 PUSH2 0x22F4 JUMP JUMPDEST DUP1 PUSH1 0x1F ADD PUSH1 0x20 DUP1 SWAP2 DIV MUL PUSH1 0x20 ADD PUSH1 0x40 MLOAD SWAP1 DUP2 ADD PUSH1 0x40 MSTORE DUP1 SWAP3 SWAP2 SWAP1 DUP2 DUP2 MSTORE PUSH1 0x20 ADD DUP3 DUP1 SLOAD PUSH2 0x16FB SWAP1 PUSH2 0x22F4 JUMP JUMPDEST DUP1 ISZERO PUSH2 0x1748 JUMPI DUP1 PUSH1 0x1F LT PUSH2 0x171D JUMPI PUSH2 0x100 DUP1 DUP4 SLOAD DIV MUL DUP4 MSTORE SWAP2 PUSH1 0x20 ADD SWAP2 PUSH2 0x1748 JUMP JUMPDEST DUP3 ADD SWAP2 SWAP1 PUSH1 0x0 MSTORE PUSH1 0x20 PUSH1 0x0 KECCAK256 SWAP1 JUMPDEST DUP2 SLOAD DUP2 MSTORE SWAP1 PUSH1 0x1 ADD SWAP1 PUSH1 0x20 ADD DUP1 DUP4 GT PUSH2 0x172B JUMPI DUP3 SWAP1 SUB PUSH1 0x1F AND DUP3 ADD SWAP2 JUMPDEST POP POP POP POP POP DUP2 MSTORE PUSH1 0x20 ADD PUSH1 0x2 DUP3 ADD DUP1 SLOAD DUP1 PUSH1 0x20 MUL PUSH1 0x20 ADD PUSH1 0x40 MLOAD SWAP1 DUP2 ADD PUSH1 0x40 MSTORE DUP1 SWAP3 SWAP2 SWAP1 DUP2 DUP2 MSTORE PUSH1 0x20 ADD DUP3 DUP1 SLOAD DUP1 ISZERO PUSH2 0x17A0 JUMPI PUSH1 0x20 MUL DUP3 ADD SWAP2 SWAP1 PUSH1 0x0 MSTORE PUSH1 0x20 PUSH1 0x0 KECCAK256 SWAP1 JUMPDEST DUP2 SLOAD DUP2 MSTORE PUSH1 0x20 ADD SWAP1 PUSH1 0x1 ADD SWAP1 DUP1 DUP4 GT PUSH2 0x178C JUMPI JUMPDEST POP POP POP POP POP DUP2 MSTORE POP POP SWAP1 POP SWAP2 SWAP1 POP JUMP JUMPDEST PUSH1 0x3 PUSH1 0x20 MSTORE DUP1 PUSH1 0x0 MSTORE PUSH1 0x40 PUSH1 0x0 KECCAK256 PUSH1 0x0 SWAP2 POP SWAP1 POP DUP1 PUSH1 0x0 ADD SLOAD SWAP1 DUP1 PUSH1 0x1 ADD DUP1 SLOAD PUSH2 0x17D9 SWAP1 PUSH2 0x22F4 JUMP JUMPDEST DUP1 PUSH1 0x1F ADD PUSH1 0x20 DUP1 SWAP2 DIV MUL PUSH1 0x20 ADD PUSH1 0x40 MLOAD SWAP1 DUP2 ADD PUSH1 0x40 MSTORE DUP1 SWAP3 SWAP2 SWAP1 DUP2 DUP2 MSTORE PUSH1 0x20 ADD DUP3 DUP1 SLOAD PUSH2 0x1805 SWAP1 PUSH2 0x22F4 JUMP JUMPDEST DUP1 ISZERO PUSH2 0x1852 JUMPI DUP1 PUSH1 0x1F LT PUSH2 0x1827 JUMPI PUSH2 0x100 DUP1 DUP4 SLOAD DIV MUL DUP4 MSTORE SWAP2 PUSH1 0x20 ADD SWAP2 PUSH2 0x1852 JUMP JUMPDEST DUP3 ADD SWAP2 SWAP1 PUSH1 0x0 MSTORE PUSH1 0x20 PUSH1 0x0 KECCAK256 SWAP1 JUMPDEST DUP2 SLOAD DUP2 MSTORE SWAP1 PUSH1 0x1 ADD SWAP1 PUSH1 0x20 ADD DUP1 DUP4 GT PUSH2 0x1835 JUMPI DUP3 SWAP1 SUB PUSH1 0x1F AND DUP3 ADD SWAP2 JUMPDEST POP POP POP POP POP SWAP1 DUP1 PUSH1 0x2 ADD DUP1 SLOAD PUSH2 0x1867 SWAP1 PUSH2 0x22F4 JUMP JUMPDEST DUP1 PUSH1 0x1F ADD PUSH1 0x20 DUP1 SWAP2 DIV MUL PUSH1 0x20 ADD PUSH1 0x40 MLOAD SWAP1 DUP2 ADD PUSH1 0x40 MSTORE DUP1 SWAP3 SWAP2 SWAP1 DUP2 DUP2 MSTORE PUSH1 0x20 ADD DUP3 DUP1 SLOAD PUSH2 0x1893 SWAP1 PUSH2 0x22F4 JUMP JUMPDEST DUP1 ISZERO PUSH2 0x18E0 JUMPI DUP1 PUSH1 0x1F LT PUSH2 0x18B5 JUMPI PUSH2 0x100 DUP1 DUP4 SLOAD DIV MUL DUP4 MSTORE SWAP2 PUSH1 0x20 ADD SWAP2 PUSH2 0x18E0 JUMP JUMPDEST DUP3 ADD SWAP2 SWAP1 PUSH1 0x0 MSTORE PUSH1 0x20 PUSH1 0x0 KECCAK256 SWAP1 JUMPDEST DUP2 SLOAD DUP2 MSTORE SWAP1 PUSH1 0x1 ADD SWAP1 PUSH1 0x20 ADD DUP1 DUP4 GT PUSH2 0x18C3 JUMPI DUP3 SWAP1 SUB PUSH1 0x1F AND DUP3 ADD SWAP2 JUMPDEST POP POP POP POP POP SWAP1 POP DUP4 JUMP JUMPDEST POP POP POP JUMP JUMPDEST PUSH1 0x40 MLOAD DUP1 PUSH1 0x80 ADD PUSH1 0x40 MSTORE DUP1 PUSH1 0x0 DUP2 MSTORE PUSH1 0x20 ADD PUSH1 0x60 DUP2 MSTORE PUSH1 0x20 ADD PUSH1 0x60 DUP2 MSTORE PUSH1 0x20 ADD PUSH1 0x60 DUP2 MSTORE POP SWAP1 JUMP JUMPDEST DUP3 DUP1 SLOAD PUSH2 0x1923 SWAP1 PUSH2 0x22F4 JUMP JUMPDEST SWAP1 PUSH1 0x0 MSTORE PUSH1 0x20 PUSH1 0x0 KECCAK256 SWAP1 PUSH1 0x1F ADD PUSH1 0x20 SWAP1 DIV DUP2 ADD SWAP3 DUP3 PUSH2 0x1945 JUMPI PUSH1 0x0 DUP6 SSTORE PUSH2 0x198C JUMP JUMPDEST DUP3 PUSH1 0x1F LT PUSH2 0x195E JUMPI DUP1 MLOAD PUSH1 0xFF NOT AND DUP4 DUP1 ADD OR DUP6 SSTORE PUSH2 0x198C JUMP JUMPDEST DUP3 DUP1 ADD PUSH1 0x1 ADD DUP6 SSTORE DUP3 ISZERO PUSH2 0x198C JUMPI SWAP2 DUP3 ADD JUMPDEST DUP3 DUP2 GT ISZERO PUSH2 0x198B JUMPI DUP3 MLOAD DUP3 SSTORE SWAP2 PUSH1 0x20 ADD SWAP2 SWAP1 PUSH1 0x1 ADD SWAP1 PUSH2 0x1970 JUMP JUMPDEST JUMPDEST POP SWAP1 POP PUSH2 0x1999 SWAP2 SWAP1 PUSH2 0x1A91 JUMP JUMPDEST POP SWAP1 JUMP JUMPDEST DUP3 DUP1 SLOAD DUP3 DUP3 SSTORE SWAP1 PUSH1 0x0 MSTORE PUSH1 0x20 PUSH1 0x0 KECCAK256 SWAP1 DUP2 ADD SWAP3 DUP3 ISZERO PUSH2 0x19D9 JUMPI SWAP2 PUSH1 0x20 MUL DUP3 ADD JUMPDEST DUP3 DUP2 GT ISZERO PUSH2 0x19D8 JUMPI DUP3 MLOAD DUP3 SSTORE SWAP2 PUSH1 0x20 ADD SWAP2 SWAP1 PUSH1 0x1 ADD SWAP1 PUSH2 0x19BD JUMP JUMPDEST JUMPDEST POP SWAP1 POP PUSH2 0x19E6 SWAP2 SWAP1 PUSH2 0x1A91 JUMP JUMPDEST POP SWAP1 JUMP JUMPDEST PUSH1 0x40 MLOAD DUP1 PUSH1 0x80 ADD PUSH1 0x40 MSTORE DUP1 PUSH1 0x0 DUP2 MSTORE PUSH1 0x20 ADD PUSH1 0x60 DUP2 MSTORE PUSH1 0x20 ADD PUSH1 0x60 DUP2 MSTORE PUSH1 0x20 ADD PUSH1 0x60 DUP2 MSTORE POP SWAP1 JUMP JUMPDEST PUSH1 0x40 MLOAD DUP1 PUSH1 0xC0 ADD PUSH1 0x40 MSTORE DUP1 PUSH1 0x0 DUP2 MSTORE PUSH1 0x20 ADD PUSH1 0x60 DUP2 MSTORE PUSH1 0x20 ADD PUSH1 0x0 DUP2 MSTORE PUSH1 0x20 ADD PUSH1 0x60 DUP2 MSTORE PUSH1 0x20 ADD PUSH1 0x60 DUP2 MSTORE PUSH1 0x20 ADD PUSH1 0x0 DUP2 MSTORE POP SWAP1 JUMP JUMPDEST PUSH1 0x40 MLOAD DUP1 PUSH1 0x80 ADD PUSH1 0x40 MSTORE DUP1 PUSH1 0x0 DUP2 MSTORE PUSH1 0x20 ADD PUSH1 0x60 DUP2 MSTORE PUSH1 0x20 ADD PUSH1 0x60 DUP2 MSTORE PUSH1 0x20 ADD PUSH1 0x60 DUP2 MSTORE POP SWAP1 JUMP JUMPDEST PUSH1 0x40 MLOAD DUP1 PUSH1 0x60 ADD PUSH1 0x40 MSTORE DUP1 PUSH1 0x0 DUP2 MSTORE PUSH1 0x20 ADD PUSH1 0x60 DUP2 MSTORE PUSH1 0x20 ADD PUSH1 0x60 DUP2 MSTORE POP SWAP1 JUMP JUMPDEST JUMPDEST DUP1 DUP3 GT ISZERO PUSH2 0x1AAA JUMPI PUSH1 0x0 DUP2 PUSH1 0x0 SWAP1 SSTORE POP PUSH1 0x1 ADD PUSH2 0x1A92 JUMP JUMPDEST POP SWAP1 JUMP JUMPDEST PUSH1 0x0 PUSH2 0x1AC1 PUSH2 0x1ABC DUP5 PUSH2 0x2211 JUMP JUMPDEST PUSH2 0x21EC JUMP JUMPDEST SWAP1 POP DUP3 DUP2 MSTORE PUSH1 0x20 DUP2 ADD DUP5 DUP5 DUP5 ADD GT ISZERO PUSH2 0x1ADD JUMPI PUSH2 0x1ADC PUSH2 0x2432 JUMP JUMPDEST JUMPDEST PUSH2 0x1AE8 DUP5 DUP3 DUP6 PUSH2 0x22B2 JUMP JUMPDEST POP SWAP4 SWAP3 POP POP POP JUMP JUMPDEST PUSH1 0x0 DUP3 PUSH1 0x1F DUP4 ADD SLT PUSH2 0x1B05 JUMPI PUSH2 0x1B04 PUSH2 0x242D JUMP JUMPDEST JUMPDEST DUP2 CALLDATALOAD PUSH2 0x1B15 DUP5 DUP3 PUSH1 0x20 DUP7 ADD PUSH2 0x1AAE JUMP JUMPDEST SWAP2 POP POP SWAP3 SWAP2 POP POP JUMP JUMPDEST PUSH1 0x0 DUP2 CALLDATALOAD SWAP1 POP PUSH2 0x1B2D DUP2 PUSH2 0x2452 JUMP JUMPDEST SWAP3 SWAP2 POP POP JUMP JUMPDEST PUSH1 0x0 PUSH1 0x20 DUP3 DUP5 SUB SLT ISZERO PUSH2 0x1B49 JUMPI PUSH2 0x1B48 PUSH2 0x243C JUMP JUMPDEST JUMPDEST PUSH1 0x0 DUP3 ADD CALLDATALOAD PUSH8 0xFFFFFFFFFFFFFFFF DUP2 GT ISZERO PUSH2 0x1B67 JUMPI PUSH2 0x1B66 PUSH2 0x2437 JUMP JUMPDEST JUMPDEST PUSH2 0x1B73 DUP5 DUP3 DUP6 ADD PUSH2 0x1AF0 JUMP JUMPDEST SWAP2 POP POP SWAP3 SWAP2 POP POP JUMP JUMPDEST PUSH1 0x0 DUP1 PUSH1 0x0 PUSH1 0x60 DUP5 DUP7 SUB SLT ISZERO PUSH2 0x1B95 JUMPI PUSH2 0x1B94 PUSH2 0x243C JUMP JUMPDEST JUMPDEST PUSH1 0x0 DUP5 ADD CALLDATALOAD PUSH8 0xFFFFFFFFFFFFFFFF DUP2 GT ISZERO PUSH2 0x1BB3 JUMPI PUSH2 0x1BB2 PUSH2 0x2437 JUMP JUMPDEST JUMPDEST PUSH2 0x1BBF DUP7 DUP3 DUP8 ADD PUSH2 0x1AF0 JUMP JUMPDEST SWAP4 POP POP PUSH1 0x20 PUSH2 0x1BD0 DUP7 DUP3 DUP8 ADD PUSH2 0x1B1E JUMP JUMPDEST SWAP3 POP POP PUSH1 0x40 DUP5 ADD CALLDATALOAD PUSH8 0xFFFFFFFFFFFFFFFF DUP2 GT ISZERO PUSH2 0x1BF1 JUMPI PUSH2 0x1BF0 PUSH2 0x2437 JUMP JUMPDEST JUMPDEST PUSH2 0x1BFD DUP7 DUP3 DUP8 ADD PUSH2 0x1AF0 JUMP JUMPDEST SWAP2 POP POP SWAP3 POP SWAP3 POP SWAP3 JUMP JUMPDEST PUSH1 0x0 PUSH1 0x20 DUP3 DUP5 SUB SLT ISZERO PUSH2 0x1C1D JUMPI PUSH2 0x1C1C PUSH2 0x243C JUMP JUMPDEST JUMPDEST PUSH1 0x0 PUSH2 0x1C2B DUP5 DUP3 DUP6 ADD PUSH2 0x1B1E JUMP JUMPDEST SWAP2 POP POP SWAP3 SWAP2 POP POP JUMP JUMPDEST PUSH1 0x0 DUP1 PUSH1 0x0 PUSH1 0x60 DUP5 DUP7 SUB SLT ISZERO PUSH2 0x1C4D JUMPI PUSH2 0x1C4C PUSH2 0x243C JUMP JUMPDEST JUMPDEST PUSH1 0x0 PUSH2 0x1C5B DUP7 DUP3 DUP8 ADD PUSH2 0x1B1E JUMP JUMPDEST SWAP4 POP POP PUSH1 0x20 PUSH2 0x1C6C DUP7 DUP3 DUP8 ADD PUSH2 0x1B1E JUMP JUMPDEST SWAP3 POP POP PUSH1 0x40 PUSH2 0x1C7D DUP7 DUP3 DUP8 ADD PUSH2 0x1B1E JUMP JUMPDEST SWAP2 POP POP SWAP3 POP SWAP3 POP SWAP3 JUMP JUMPDEST PUSH1 0x0 PUSH2 0x1C93 DUP4 DUP4 PUSH2 0x1FB0 JUMP JUMPDEST PUSH1 0x20 DUP4 ADD SWAP1 POP SWAP3 SWAP2 POP POP JUMP JUMPDEST PUSH1 0x0 PUSH2 0x1CAA DUP3 PUSH2 0x2252 JUMP JUMPDEST PUSH2 0x1CB4 DUP2 DUP6 PUSH2 0x2275 JUMP JUMPDEST SWAP4 POP PUSH2 0x1CBF DUP4 PUSH2 0x2242 JUMP JUMPDEST DUP1 PUSH1 0x0 JUMPDEST DUP4 DUP2 LT ISZERO PUSH2 0x1CF0 JUMPI DUP2 MLOAD PUSH2 0x1CD7 DUP9 DUP3 PUSH2 0x1C87 JUMP JUMPDEST SWAP8 POP PUSH2 0x1CE2 DUP4 PUSH2 0x2268 JUMP JUMPDEST SWAP3 POP POP PUSH1 0x1 DUP2 ADD SWAP1 POP PUSH2 0x1CC3 JUMP JUMPDEST POP DUP6 SWAP4 POP POP POP POP SWAP3 SWAP2 POP POP JUMP JUMPDEST PUSH1 0x0 PUSH2 0x1D08 DUP3 PUSH2 0x225D JUMP JUMPDEST PUSH2 0x1D12 DUP2 DUP6 PUSH2 0x2286 JUMP JUMPDEST SWAP4 POP PUSH2 0x1D22 DUP2 DUP6 PUSH1 0x20 DUP7 ADD PUSH2 0x22C1 JUMP JUMPDEST PUSH2 0x1D2B DUP2 PUSH2 0x2441 JUMP JUMPDEST DUP5 ADD SWAP2 POP POP SWAP3 SWAP2 POP POP JUMP JUMPDEST PUSH1 0x0 PUSH2 0x1D41 DUP3 PUSH2 0x225D JUMP JUMPDEST PUSH2 0x1D4B DUP2 DUP6 PUSH2 0x2297 JUMP JUMPDEST SWAP4 POP PUSH2 0x1D5B DUP2 DUP6 PUSH1 0x20 DUP7 ADD PUSH2 0x22C1 JUMP JUMPDEST PUSH2 0x1D64 DUP2 PUSH2 0x2441 JUMP JUMPDEST DUP5 ADD SWAP2 POP POP SWAP3 SWAP2 POP POP JUMP JUMPDEST PUSH1 0x0 PUSH1 0x80 DUP4 ADD PUSH1 0x0 DUP4 ADD MLOAD PUSH2 0x1D87 PUSH1 0x0 DUP7 ADD DUP3 PUSH2 0x1FB0 JUMP JUMPDEST POP PUSH1 0x20 DUP4 ADD MLOAD DUP5 DUP3 SUB PUSH1 0x20 DUP7 ADD MSTORE PUSH2 0x1D9F DUP3 DUP3 PUSH2 0x1CFD JUMP JUMPDEST SWAP2 POP POP PUSH1 0x40 DUP4 ADD MLOAD DUP5 DUP3 SUB PUSH1 0x40 DUP7 ADD MSTORE PUSH2 0x1DB9 DUP3 DUP3 PUSH2 0x1CFD JUMP JUMPDEST SWAP2 POP POP PUSH1 0x60 DUP4 ADD MLOAD DUP5 DUP3 SUB PUSH1 0x60 DUP7 ADD MSTORE PUSH2 0x1DD3 DUP3 DUP3 PUSH2 0x1C9F JUMP JUMPDEST SWAP2 POP POP DUP1 SWAP2 POP POP SWAP3 SWAP2 POP POP JUMP JUMPDEST PUSH1 0x0 PUSH1 0x80 DUP4 ADD PUSH1 0x0 DUP4 ADD MLOAD PUSH2 0x1DF8 PUSH1 0x0 DUP7 ADD DUP3 PUSH2 0x1FB0 JUMP JUMPDEST POP PUSH1 0x20 DUP4 ADD MLOAD DUP5 DUP3 SUB PUSH1 0x20 DUP7 ADD MSTORE PUSH2 0x1E10 DUP3 DUP3 PUSH2 0x1CFD JUMP JUMPDEST SWAP2 POP POP PUSH1 0x40 DUP4 ADD MLOAD DUP5 DUP3 SUB PUSH1 0x40 DUP7 ADD MSTORE PUSH2 0x1E2A DUP3 DUP3 PUSH2 0x1CFD JUMP JUMPDEST SWAP2 POP POP PUSH1 0x60 DUP4 ADD MLOAD DUP5 DUP3 SUB PUSH1 0x60 DUP7 ADD MSTORE PUSH2 0x1E44 DUP3 DUP3 PUSH2 0x1C9F JUMP JUMPDEST SWAP2 POP POP DUP1 SWAP2 POP POP SWAP3 SWAP2 POP POP JUMP JUMPDEST PUSH1 0x0 PUSH1 0xC0 DUP4 ADD PUSH1 0x0 DUP4 ADD MLOAD PUSH2 0x1E69 PUSH1 0x0 DUP7 ADD DUP3 PUSH2 0x1FB0 JUMP JUMPDEST POP PUSH1 0x20 DUP4 ADD MLOAD DUP5 DUP3 SUB PUSH1 0x20 DUP7 ADD MSTORE PUSH2 0x1E81 DUP3 DUP3 PUSH2 0x1CFD JUMP JUMPDEST SWAP2 POP POP PUSH1 0x40 DUP4 ADD MLOAD PUSH2 0x1E96 PUSH1 0x40 DUP7 ADD DUP3 PUSH2 0x1FB0 JUMP JUMPDEST POP PUSH1 0x60 DUP4 ADD MLOAD DUP5 DUP3 SUB PUSH1 0x60 DUP7 ADD MSTORE PUSH2 0x1EAE DUP3 DUP3 PUSH2 0x1CFD JUMP JUMPDEST SWAP2 POP POP PUSH1 0x80 DUP4 ADD MLOAD DUP5 DUP3 SUB PUSH1 0x80 DUP7 ADD MSTORE PUSH2 0x1EC8 DUP3 DUP3 PUSH2 0x1CFD JUMP JUMPDEST SWAP2 POP POP PUSH1 0xA0 DUP4 ADD MLOAD PUSH2 0x1EDD PUSH1 0xA0 DUP7 ADD DUP3 PUSH2 0x1FB0 JUMP JUMPDEST POP DUP1 SWAP2 POP POP SWAP3 SWAP2 POP POP JUMP JUMPDEST PUSH1 0x0 PUSH1 0x60 DUP4 ADD PUSH1 0x0 DUP4 ADD MLOAD PUSH2 0x1F00 PUSH1 0x0 DUP7 ADD DUP3 PUSH2 0x1FB0 JUMP JUMPDEST POP PUSH1 0x20 DUP4 ADD MLOAD DUP5 DUP3 SUB PUSH1 0x20 DUP7 ADD MSTORE PUSH2 0x1F18 DUP3 DUP3 PUSH2 0x1CFD JUMP JUMPDEST SWAP2 POP POP PUSH1 0x40 DUP4 ADD MLOAD DUP5 DUP3 SUB PUSH1 0x40 DUP7 ADD MSTORE PUSH2 0x1F32 DUP3 DUP3 PUSH2 0x1C9F JUMP JUMPDEST SWAP2 POP POP DUP1 SWAP2 POP POP SWAP3 SWAP2 POP POP JUMP JUMPDEST PUSH1 0x0 PUSH1 0x80 DUP4 ADD PUSH1 0x0 DUP4 ADD MLOAD PUSH2 0x1F57 PUSH1 0x0 DUP7 ADD DUP3 PUSH2 0x1FB0 JUMP JUMPDEST POP PUSH1 0x20 DUP4 ADD MLOAD DUP5 DUP3 SUB PUSH1 0x20 DUP7 ADD MSTORE PUSH2 0x1F6F DUP3 DUP3 PUSH2 0x1CFD JUMP JUMPDEST SWAP2 POP POP PUSH1 0x40 DUP4 ADD MLOAD DUP5 DUP3 SUB PUSH1 0x40 DUP7 ADD MSTORE PUSH2 0x1F89 DUP3 DUP3 PUSH2 0x1CFD JUMP JUMPDEST SWAP2 POP POP PUSH1 0x60 DUP4 ADD MLOAD DUP5 DUP3 SUB PUSH1 0x60 DUP7 ADD MSTORE PUSH2 0x1FA3 DUP3 DUP3 PUSH2 0x1C9F JUMP JUMPDEST SWAP2 POP POP DUP1 SWAP2 POP POP SWAP3 SWAP2 POP POP JUMP JUMPDEST PUSH2 0x1FB9 DUP2 PUSH2 0x22A8 JUMP JUMPDEST DUP3 MSTORE POP POP JUMP JUMPDEST PUSH2 0x1FC8 DUP2 PUSH2 0x22A8 JUMP JUMPDEST DUP3 MSTORE POP POP JUMP JUMPDEST PUSH1 0x0 PUSH1 0x60 DUP3 ADD SWAP1 POP DUP2 DUP2 SUB PUSH1 0x0 DUP4 ADD MSTORE PUSH2 0x1FE8 DUP2 DUP7 PUSH2 0x1D36 JUMP JUMPDEST SWAP1 POP PUSH2 0x1FF7 PUSH1 0x20 DUP4 ADD DUP6 PUSH2 0x1FBF JUMP JUMPDEST PUSH2 0x2004 PUSH1 0x40 DUP4 ADD DUP5 PUSH2 0x1FBF JUMP JUMPDEST SWAP5 SWAP4 POP POP POP POP JUMP JUMPDEST PUSH1 0x0 PUSH1 0x20 DUP3 ADD SWAP1 POP DUP2 DUP2 SUB PUSH1 0x0 DUP4 ADD MSTORE PUSH2 0x2026 DUP2 DUP5 PUSH2 0x1D6F JUMP JUMPDEST SWAP1 POP SWAP3 SWAP2 POP POP JUMP JUMPDEST PUSH1 0x0 PUSH1 0x20 DUP3 ADD SWAP1 POP DUP2 DUP2 SUB PUSH1 0x0 DUP4 ADD MSTORE PUSH2 0x2048 DUP2 DUP5 PUSH2 0x1DE0 JUMP JUMPDEST SWAP1 POP SWAP3 SWAP2 POP POP JUMP JUMPDEST PUSH1 0x0 PUSH1 0x20 DUP3 ADD SWAP1 POP DUP2 DUP2 SUB PUSH1 0x0 DUP4 ADD MSTORE PUSH2 0x206A DUP2 DUP5 PUSH2 0x1E51 JUMP JUMPDEST SWAP1 POP SWAP3 SWAP2 POP POP JUMP JUMPDEST PUSH1 0x0 PUSH1 0x40 DUP3 ADD SWAP1 POP DUP2 DUP2 SUB PUSH1 0x0 DUP4 ADD MSTORE PUSH2 0x208C DUP2 DUP6 PUSH2 0x1E51 JUMP JUMPDEST SWAP1 POP PUSH2 0x209B PUSH1 0x20 DUP4 ADD DUP5 PUSH2 0x1FBF JUMP JUMPDEST SWAP4 SWAP3 POP POP POP JUMP JUMPDEST PUSH1 0x0 PUSH1 0x20 DUP3 ADD SWAP1 POP DUP2 DUP2 SUB PUSH1 0x0 DUP4 ADD MSTORE PUSH2 0x20BC DUP2 DUP5 PUSH2 0x1EE8 JUMP JUMPDEST SWAP1 POP SWAP3 SWAP2 POP POP JUMP JUMPDEST PUSH1 0x0 PUSH1 0x20 DUP3 ADD SWAP1 POP DUP2 DUP2 SUB PUSH1 0x0 DUP4 ADD MSTORE PUSH2 0x20DE DUP2 DUP5 PUSH2 0x1F3F JUMP JUMPDEST SWAP1 POP SWAP3 SWAP2 POP POP JUMP JUMPDEST PUSH1 0x0 PUSH1 0x20 DUP3 ADD SWAP1 POP PUSH2 0x20FB PUSH1 0x0 DUP4 ADD DUP5 PUSH2 0x1FBF JUMP JUMPDEST SWAP3 SWAP2 POP POP JUMP JUMPDEST PUSH1 0x0 PUSH1 0x40 DUP3 ADD SWAP1 POP PUSH2 0x2116 PUSH1 0x0 DUP4 ADD DUP6 PUSH2 0x1FBF JUMP JUMPDEST DUP2 DUP2 SUB PUSH1 0x20 DUP4 ADD MSTORE PUSH2 0x2128 DUP2 DUP5 PUSH2 0x1D36 JUMP JUMPDEST SWAP1 POP SWAP4 SWAP3 POP POP POP JUMP JUMPDEST PUSH1 0x0 PUSH1 0x60 DUP3 ADD SWAP1 POP PUSH2 0x2146 PUSH1 0x0 DUP4 ADD DUP7 PUSH2 0x1FBF JUMP JUMPDEST DUP2 DUP2 SUB PUSH1 0x20 DUP4 ADD MSTORE PUSH2 0x2158 DUP2 DUP6 PUSH2 0x1D36 JUMP JUMPDEST SWAP1 POP DUP2 DUP2 SUB PUSH1 0x40 DUP4 ADD MSTORE PUSH2 0x216C DUP2 DUP5 PUSH2 0x1D36 JUMP JUMPDEST SWAP1 POP SWAP5 SWAP4 POP POP POP POP JUMP JUMPDEST PUSH1 0x0 PUSH1 0xC0 DUP3 ADD SWAP1 POP PUSH2 0x218B PUSH1 0x0 DUP4 ADD DUP10 PUSH2 0x1FBF JUMP JUMPDEST DUP2 DUP2 SUB PUSH1 0x20 DUP4 ADD MSTORE PUSH2 0x219D DUP2 DUP9 PUSH2 0x1D36 JUMP JUMPDEST SWAP1 POP PUSH2 0x21AC PUSH1 0x40 DUP4 ADD DUP8 PUSH2 0x1FBF JUMP JUMPDEST DUP2 DUP2 SUB PUSH1 0x60 DUP4 ADD MSTORE PUSH2 0x21BE DUP2 DUP7 PUSH2 0x1D36 JUMP JUMPDEST SWAP1 POP DUP2 DUP2 SUB PUSH1 0x80 DUP4 ADD MSTORE PUSH2 0x21D2 DUP2 DUP6 PUSH2 0x1D36 JUMP JUMPDEST SWAP1 POP PUSH2 0x21E1 PUSH1 0xA0 DUP4 ADD DUP5 PUSH2 0x1FBF JUMP JUMPDEST SWAP8 SWAP7 POP POP POP POP POP POP POP JUMP JUMPDEST PUSH1 0x0 PUSH2 0x21F6 PUSH2 0x2207 JUMP JUMPDEST SWAP1 POP PUSH2 0x2202 DUP3 DUP3 PUSH2 0x2326 JUMP JUMPDEST SWAP2 SWAP1 POP JUMP JUMPDEST PUSH1 0x0 PUSH1 0x40 MLOAD SWAP1 POP SWAP1 JUMP JUMPDEST PUSH1 0x0 PUSH8 0xFFFFFFFFFFFFFFFF DUP3 GT ISZERO PUSH2 0x222C JUMPI PUSH2 0x222B PUSH2 0x23FE JUMP JUMPDEST JUMPDEST PUSH2 0x2235 DUP3 PUSH2 0x2441 JUMP JUMPDEST SWAP1 POP PUSH1 0x20 DUP2 ADD SWAP1 POP SWAP2 SWAP1 POP JUMP JUMPDEST PUSH1 0x0 DUP2 SWAP1 POP PUSH1 0x20 DUP3 ADD SWAP1 POP SWAP2 SWAP1 POP JUMP JUMPDEST PUSH1 0x0 DUP2 MLOAD SWAP1 POP SWAP2 SWAP1 POP JUMP JUMPDEST PUSH1 0x0 DUP2 MLOAD SWAP1 POP SWAP2 SWAP1 POP JUMP JUMPDEST PUSH1 0x0 PUSH1 0x20 DUP3 ADD SWAP1 POP SWAP2 SWAP1 POP JUMP JUMPDEST PUSH1 0x0 DUP3 DUP3 MSTORE PUSH1 0x20 DUP3 ADD SWAP1 POP SWAP3 SWAP2 POP POP JUMP JUMPDEST PUSH1 0x0 DUP3 DUP3 MSTORE PUSH1 0x20 DUP3 ADD SWAP1 POP SWAP3 SWAP2 POP POP JUMP JUMPDEST PUSH1 0x0 DUP3 DUP3 MSTORE PUSH1 0x20 DUP3 ADD SWAP1 POP SWAP3 SWAP2 POP POP JUMP JUMPDEST PUSH1 0x0 DUP2 SWAP1 POP SWAP2 SWAP1 POP JUMP JUMPDEST DUP3 DUP2 DUP4 CALLDATACOPY PUSH1 0x0 DUP4 DUP4 ADD MSTORE POP POP POP JUMP JUMPDEST PUSH1 0x0 JUMPDEST DUP4 DUP2 LT ISZERO PUSH2 0x22DF JUMPI DUP1 DUP3 ADD MLOAD DUP2 DUP5 ADD MSTORE PUSH1 0x20 DUP2 ADD SWAP1 POP PUSH2 0x22C4 JUMP JUMPDEST DUP4 DUP2 GT ISZERO PUSH2 0x22EE JUMPI PUSH1 0x0 DUP5 DUP5 ADD MSTORE JUMPDEST POP POP POP POP JUMP JUMPDEST PUSH1 0x0 PUSH1 0x2 DUP3 DIV SWAP1 POP PUSH1 0x1 DUP3 AND DUP1 PUSH2 0x230C JUMPI PUSH1 0x7F DUP3 AND SWAP2 POP JUMPDEST PUSH1 0x20 DUP3 LT DUP2 EQ ISZERO PUSH2 0x2320 JUMPI PUSH2 0x231F PUSH2 0x23CF JUMP JUMPDEST JUMPDEST POP SWAP2 SWAP1 POP JUMP JUMPDEST PUSH2 0x232F DUP3 PUSH2 0x2441 JUMP JUMPDEST DUP2 ADD DUP2 DUP2 LT PUSH8 0xFFFFFFFFFFFFFFFF DUP3 GT OR ISZERO PUSH2 0x234E JUMPI PUSH2 0x234D PUSH2 0x23FE JUMP JUMPDEST JUMPDEST DUP1 PUSH1 0x40 MSTORE POP POP POP JUMP JUMPDEST PUSH1 0x0 PUSH2 0x2362 DUP3 PUSH2 0x22A8 JUMP JUMPDEST SWAP2 POP PUSH32 0xFFFFFFFFFFFFFFFFFFFFFFFFFFFFFFFFFFFFFFFFFFFFFFFFFFFFFFFFFFFFFFFF DUP3 EQ ISZERO PUSH2 0x2395 JUMPI PUSH2 0x2394 PUSH2 0x23A0 JUMP JUMPDEST JUMPDEST PUSH1 0x1 DUP3 ADD SWAP1 POP SWAP2 SWAP1 POP JUMP JUMPDEST PUSH32 0x4E487B7100000000000000000000000000000000000000000000000000000000 PUSH1 0x0 MSTORE PUSH1 0x11 PUSH1 0x4 MSTORE PUSH1 0x24 PUSH1 0x0 REVERT JUMPDEST PUSH32 0x4E487B7100000000000000000000000000000000000000000000000000000000 PUSH1 0x0 MSTORE PUSH1 0x22 PUSH1 0x4 MSTORE PUSH1 0x24 PUSH1 0x0 REVERT JUMPDEST PUSH32 0x4E487B7100000000000000000000000000000000000000000000000000000000 PUSH1 0x0 MSTORE PUSH1 0x41 PUSH1 0x4 MSTORE PUSH1 0x24 PUSH1 0x0 REVERT JUMPDEST PUSH1 0x0 DUP1 REVERT JUMPDEST PUSH1 0x0 DUP1 REVERT JUMPDEST PUSH1 0x0 DUP1 REVERT JUMPDEST PUSH1 0x0 DUP1 REVERT JUMPDEST PUSH1 0x0 PUSH1 0x1F NOT PUSH1 0x1F DUP4 ADD AND SWAP1 POP SWAP2 SWAP1 POP JUMP JUMPDEST PUSH2 0x245B DUP2 PUSH2 0x22A8 JUMP JUMPDEST DUP2 EQ PUSH2 0x2466 JUMPI PUSH1 0x0 DUP1 REVERT JUMPDEST POP JUMP INVALID LOG2 PUSH5 0x6970667358 0x22 SLT KECCAK256 0xA8 0xF8 0xAB CALLDATASIZE ORIGIN PC 0x5D DUP9 0x27 MOD PUSH19 0x25FE3BD28120790AADB8B668083D3546E51FA2 MSIZE 0xDB PUSH5 0x736F6C6343 STOP ADDMOD SMOD STOP CALLER "
				},
				"gasEstimates": {
					"creation": {
						"codeDepositCost": "1875000",
						"executionCost": "31248",
						"totalCost": "1906248"
					},
					"external": {
						"addDistributor(string)": "infinite",
						"addManufacturer(string)": "infinite",
						"addProduct(string,uint256,string)": "infinite",
						"addRetailer(string)": "infinite",
						"addSupplier(string)": "infinite",
						"distributors(uint256)": "infinite",
						"getProduct(uint256)": "infinite",
						"getdistributorDetails(uint256)": "infinite",
						"getmanufacturerDetails(uint256)": "infinite",
						"getretailerDetails(uint256)": "infinite",
						"getsupplierDetails(uint256)": "infinite",
						"manufacturers(uint256)": "infinite",
						"products(uint256)": "infinite",
						"retailers(uint256)": "infinite",
						"suppliers(uint256)": "infinite",
						"transferOwnership(uint256,uint256,uint256)": "infinite"
					}
				},
				"methodIdentifiers": {
					"addDistributor(string)": "81d9def2",
					"addManufacturer(string)": "8f5ae799",
					"addProduct(string,uint256,string)": "8f29695a",
					"addRetailer(string)": "95d00407",
					"addSupplier(string)": "15533a27",
					"distributors(uint256)": "50b492ba",
					"getProduct(uint256)": "b9db15b4",
					"getdistributorDetails(uint256)": "333f3dd0",
					"getmanufacturerDetails(uint256)": "cb80c419",
					"getretailerDetails(uint256)": "cda5e4a5",
					"getsupplierDetails(uint256)": "3779643f",
					"manufacturers(uint256)": "90175af1",
					"products(uint256)": "7acc0b20",
					"retailers(uint256)": "897ec7df",
					"suppliers(uint256)": "cea23121",
					"transferOwnership(uint256,uint256,uint256)": "f032edec"
				}
			},
			"storageLayout": {
				"storage": [
					{
						"astId": 5,
						"contract": "contracts/FakeProdId.sol:FakeProdId",
						"label": "owner",
						"offset": 0,
						"slot": "0",
						"type": "t_address"
					},
					{
						"astId": 68,
						"contract": "contracts/FakeProdId.sol:FakeProdId",
						"label": "products",
						"offset": 0,
						"slot": "1",
						"type": "t_mapping(t_uint256,t_struct(Product)18_storage)"
					},
					{
						"astId": 71,
						"contract": "contracts/FakeProdId.sol:FakeProdId",
						"label": "productsSize",
						"offset": 0,
						"slot": "2",
						"type": "t_uint256"
					},
					{
						"astId": 76,
						"contract": "contracts/FakeProdId.sol:FakeProdId",
						"label": "suppliers",
						"offset": 0,
						"slot": "3",
						"type": "t_mapping(t_uint256,t_struct(Supplier)28_storage)"
					},
					{
						"astId": 81,
						"contract": "contracts/FakeProdId.sol:FakeProdId",
						"label": "manufacturers",
						"offset": 0,
						"slot": "4",
						"type": "t_mapping(t_uint256,t_struct(Manufacturer)38_storage)"
					},
					{
						"astId": 86,
						"contract": "contracts/FakeProdId.sol:FakeProdId",
						"label": "distributors",
						"offset": 0,
						"slot": "5",
						"type": "t_mapping(t_uint256,t_struct(Distributor)48_storage)"
					},
					{
						"astId": 91,
						"contract": "contracts/FakeProdId.sol:FakeProdId",
						"label": "retailers",
						"offset": 0,
						"slot": "6",
						"type": "t_mapping(t_uint256,t_struct(Retailer)56_storage)"
					}
				],
				"types": {
					"t_address": {
						"encoding": "inplace",
						"label": "address",
						"numberOfBytes": "20"
					},
					"t_array(t_uint256)dyn_storage": {
						"base": "t_uint256",
						"encoding": "dynamic_array",
						"label": "uint256[]",
						"numberOfBytes": "32"
					},
					"t_mapping(t_uint256,t_struct(Distributor)48_storage)": {
						"encoding": "mapping",
						"key": "t_uint256",
						"label": "mapping(uint256 => struct FakeProdId.Distributor)",
						"numberOfBytes": "32",
						"value": "t_struct(Distributor)48_storage"
					},
					"t_mapping(t_uint256,t_struct(Manufacturer)38_storage)": {
						"encoding": "mapping",
						"key": "t_uint256",
						"label": "mapping(uint256 => struct FakeProdId.Manufacturer)",
						"numberOfBytes": "32",
						"value": "t_struct(Manufacturer)38_storage"
					},
					"t_mapping(t_uint256,t_struct(Product)18_storage)": {
						"encoding": "mapping",
						"key": "t_uint256",
						"label": "mapping(uint256 => struct FakeProdId.Product)",
						"numberOfBytes": "32",
						"value": "t_struct(Product)18_storage"
					},
					"t_mapping(t_uint256,t_struct(Retailer)56_storage)": {
						"encoding": "mapping",
						"key": "t_uint256",
						"label": "mapping(uint256 => struct FakeProdId.Retailer)",
						"numberOfBytes": "32",
						"value": "t_struct(Retailer)56_storage"
					},
					"t_mapping(t_uint256,t_struct(Supplier)28_storage)": {
						"encoding": "mapping",
						"key": "t_uint256",
						"label": "mapping(uint256 => struct FakeProdId.Supplier)",
						"numberOfBytes": "32",
						"value": "t_struct(Supplier)28_storage"
					},
					"t_string_storage": {
						"encoding": "bytes",
						"label": "string",
						"numberOfBytes": "32"
					},
					"t_struct(Distributor)48_storage": {
						"encoding": "inplace",
						"label": "struct FakeProdId.Distributor",
						"members": [
							{
								"astId": 40,
								"contract": "contracts/FakeProdId.sol:FakeProdId",
								"label": "distributorId",
								"offset": 0,
								"slot": "0",
								"type": "t_uint256"
							},
							{
								"astId": 42,
								"contract": "contracts/FakeProdId.sol:FakeProdId",
								"label": "kind",
								"offset": 0,
								"slot": "1",
								"type": "t_string_storage"
							},
							{
								"astId": 44,
								"contract": "contracts/FakeProdId.sol:FakeProdId",
								"label": "name",
								"offset": 0,
								"slot": "2",
								"type": "t_string_storage"
							},
							{
								"astId": 47,
								"contract": "contracts/FakeProdId.sol:FakeProdId",
								"label": "productList",
								"offset": 0,
								"slot": "3",
								"type": "t_array(t_uint256)dyn_storage"
							}
						],
						"numberOfBytes": "128"
					},
					"t_struct(Manufacturer)38_storage": {
						"encoding": "inplace",
						"label": "struct FakeProdId.Manufacturer",
						"members": [
							{
								"astId": 30,
								"contract": "contracts/FakeProdId.sol:FakeProdId",
								"label": "manufacturerId",
								"offset": 0,
								"slot": "0",
								"type": "t_uint256"
							},
							{
								"astId": 32,
								"contract": "contracts/FakeProdId.sol:FakeProdId",
								"label": "kind",
								"offset": 0,
								"slot": "1",
								"type": "t_string_storage"
							},
							{
								"astId": 34,
								"contract": "contracts/FakeProdId.sol:FakeProdId",
								"label": "name",
								"offset": 0,
								"slot": "2",
								"type": "t_string_storage"
							},
							{
								"astId": 37,
								"contract": "contracts/FakeProdId.sol:FakeProdId",
								"label": "productList",
								"offset": 0,
								"slot": "3",
								"type": "t_array(t_uint256)dyn_storage"
							}
						],
						"numberOfBytes": "128"
					},
					"t_struct(Product)18_storage": {
						"encoding": "inplace",
						"label": "struct FakeProdId.Product",
						"members": [
							{
								"astId": 7,
								"contract": "contracts/FakeProdId.sol:FakeProdId",
								"label": "productId",
								"offset": 0,
								"slot": "0",
								"type": "t_uint256"
							},
							{
								"astId": 9,
								"contract": "contracts/FakeProdId.sol:FakeProdId",
								"label": "name",
								"offset": 0,
								"slot": "1",
								"type": "t_string_storage"
							},
							{
								"astId": 11,
								"contract": "contracts/FakeProdId.sol:FakeProdId",
								"label": "price",
								"offset": 0,
								"slot": "2",
								"type": "t_uint256"
							},
							{
								"astId": 13,
								"contract": "contracts/FakeProdId.sol:FakeProdId",
								"label": "description",
								"offset": 0,
								"slot": "3",
								"type": "t_string_storage"
							},
							{
								"astId": 15,
								"contract": "contracts/FakeProdId.sol:FakeProdId",
								"label": "curOwner",
								"offset": 0,
								"slot": "4",
								"type": "t_string_storage"
							},
							{
								"astId": 17,
								"contract": "contracts/FakeProdId.sol:FakeProdId",
								"label": "curOwnerId",
								"offset": 0,
								"slot": "5",
								"type": "t_uint256"
							}
						],
						"numberOfBytes": "192"
					},
					"t_struct(Retailer)56_storage": {
						"encoding": "inplace",
						"label": "struct FakeProdId.Retailer",
						"members": [
							{
								"astId": 50,
								"contract": "contracts/FakeProdId.sol:FakeProdId",
								"label": "retailerId",
								"offset": 0,
								"slot": "0",
								"type": "t_uint256"
							},
							{
								"astId": 52,
								"contract": "contracts/FakeProdId.sol:FakeProdId",
								"label": "name",
								"offset": 0,
								"slot": "1",
								"type": "t_string_storage"
							},
							{
								"astId": 55,
								"contract": "contracts/FakeProdId.sol:FakeProdId",
								"label": "productList",
								"offset": 0,
								"slot": "2",
								"type": "t_array(t_uint256)dyn_storage"
							}
						],
						"numberOfBytes": "96"
					},
					"t_struct(Supplier)28_storage": {
						"encoding": "inplace",
						"label": "struct FakeProdId.Supplier",
						"members": [
							{
								"astId": 20,
								"contract": "contracts/FakeProdId.sol:FakeProdId",
								"label": "supplierId",
								"offset": 0,
								"slot": "0",
								"type": "t_uint256"
							},
							{
								"astId": 22,
								"contract": "contracts/FakeProdId.sol:FakeProdId",
								"label": "kind",
								"offset": 0,
								"slot": "1",
								"type": "t_string_storage"
							},
							{
								"astId": 24,
								"contract": "contracts/FakeProdId.sol:FakeProdId",
								"label": "name",
								"offset": 0,
								"slot": "2",
								"type": "t_string_storage"
							},
							{
								"astId": 27,
								"contract": "contracts/FakeProdId.sol:FakeProdId",
								"label": "productList",
								"offset": 0,
								"slot": "3",
								"type": "t_array(t_uint256)dyn_storage"
							}
						],
						"numberOfBytes": "128"
					},
					"t_uint256": {
						"encoding": "inplace",
						"label": "uint256",
						"numberOfBytes": "32"
					}
				}
			},
			"userdoc": {
				"kind": "user",
				"methods": {},
				"version": 1
			}
		}
	}
}