{
	"contracts/FakeProdId.sol": {
		"FakeProdId": {
			"abi": [
				{
					"inputs": [
						{
							"internalType": "string",
							"name": "name",
							"type": "string"
						}
					],
					"name": "addDistributor",
					"outputs": [
						{
							"internalType": "uint256",
							"name": "",
							"type": "uint256"
						}
					],
					"stateMutability": "nonpayable",
					"type": "function"
				},
				{
					"inputs": [
						{
							"internalType": "string",
							"name": "name",
							"type": "string"
						}
					],
					"name": "addManufacturer",
					"outputs": [
						{
							"internalType": "uint256",
							"name": "",
							"type": "uint256"
						}
					],
					"stateMutability": "nonpayable",
					"type": "function"
				},
				{
					"inputs": [
						{
							"internalType": "string",
							"name": "name",
							"type": "string"
						},
						{
							"internalType": "uint256",
							"name": "price",
							"type": "uint256"
						},
						{
							"internalType": "string",
							"name": "description",
							"type": "string"
						}
					],
					"name": "addProduct",
					"outputs": [],
					"stateMutability": "nonpayable",
					"type": "function"
				},
				{
					"inputs": [
						{
							"internalType": "string",
							"name": "name",
							"type": "string"
						}
					],
					"name": "addRetailer",
					"outputs": [
						{
							"internalType": "uint256",
							"name": "",
							"type": "uint256"
						}
					],
					"stateMutability": "nonpayable",
					"type": "function"
				},
				{
					"inputs": [
						{
							"internalType": "string",
							"name": "name",
							"type": "string"
						}
					],
					"name": "addSupplier",
					"outputs": [
						{
							"internalType": "uint256",
							"name": "",
							"type": "uint256"
						}
					],
					"stateMutability": "nonpayable",
					"type": "function"
				},
				{
					"inputs": [
						{
							"internalType": "uint256",
							"name": "",
							"type": "uint256"
						}
					],
					"name": "distributors",
					"outputs": [
						{
							"internalType": "uint256",
							"name": "distributorId",
							"type": "uint256"
						},
						{
							"internalType": "string",
							"name": "kind",
							"type": "string"
						},
						{
							"internalType": "string",
							"name": "name",
							"type": "string"
						}
					],
					"stateMutability": "view",
					"type": "function"
				},
				{
					"inputs": [
						{
							"internalType": "uint256",
							"name": "productId",
							"type": "uint256"
						}
					],
					"name": "getProduct",
					"outputs": [
						{
							"components": [
								{
									"internalType": "uint256",
									"name": "productId",
									"type": "uint256"
								},
								{
									"internalType": "string",
									"name": "name",
									"type": "string"
								},
								{
									"internalType": "uint256",
									"name": "price",
									"type": "uint256"
								},
								{
									"internalType": "string",
									"name": "description",
									"type": "string"
								},
								{
									"internalType": "string",
									"name": "curOwner",
									"type": "string"
								},
								{
									"internalType": "uint256",
									"name": "curOwnerId",
									"type": "uint256"
								}
							],
							"internalType": "struct FakeProdId.Product",
							"name": "",
							"type": "tuple"
						}
					],
					"stateMutability": "view",
					"type": "function"
				},
				{
					"inputs": [
						{
							"internalType": "uint256",
							"name": "distributorId",
							"type": "uint256"
						}
					],
					"name": "getdistributorDetails",
					"outputs": [
						{
							"components": [
								{
									"internalType": "uint256",
									"name": "distributorId",
									"type": "uint256"
								},
								{
									"internalType": "string",
									"name": "kind",
									"type": "string"
								},
								{
									"internalType": "string",
									"name": "name",
									"type": "string"
								},
								{
									"internalType": "uint256[]",
									"name": "productList",
									"type": "uint256[]"
								}
							],
							"internalType": "struct FakeProdId.Distributor",
							"name": "",
							"type": "tuple"
						}
					],
					"stateMutability": "view",
					"type": "function"
				},
				{
					"inputs": [
						{
							"internalType": "uint256",
							"name": "manufacturerId",
							"type": "uint256"
						}
					],
					"name": "getmanufacturerDetails",
					"outputs": [
						{
							"components": [
								{
									"internalType": "uint256",
									"name": "manufacturerId",
									"type": "uint256"
								},
								{
									"internalType": "string",
									"name": "kind",
									"type": "string"
								},
								{
									"internalType": "string",
									"name": "name",
									"type": "string"
								},
								{
									"internalType": "uint256[]",
									"name": "productList",
									"type": "uint256[]"
								}
							],
							"internalType": "struct FakeProdId.Manufacturer",
							"name": "",
							"type": "tuple"
						}
					],
					"stateMutability": "view",
					"type": "function"
				},
				{
					"inputs": [
						{
							"internalType": "uint256",
							"name": "retailerId",
							"type": "uint256"
						}
					],
					"name": "getretailerDetails",
					"outputs": [
						{
							"components": [
								{
									"internalType": "uint256",
									"name": "retailerId",
									"type": "uint256"
								},
								{
									"internalType": "string",
									"name": "name",
									"type": "string"
								},
								{
									"internalType": "uint256[]",
									"name": "productList",
									"type": "uint256[]"
								}
							],
							"internalType": "struct FakeProdId.Retailer",
							"name": "",
							"type": "tuple"
						}
					],
					"stateMutability": "view",
					"type": "function"
				},
				{
					"inputs": [
						{
							"internalType": "uint256",
							"name": "supplierId",
							"type": "uint256"
						}
					],
					"name": "getsupplierDetails",
					"outputs": [
						{
							"components": [
								{
									"internalType": "uint256",
									"name": "supplierId",
									"type": "uint256"
								},
								{
									"internalType": "string",
									"name": "kind",
									"type": "string"
								},
								{
									"internalType": "string",
									"name": "name",
									"type": "string"
								},
								{
									"internalType": "uint256[]",
									"name": "productList",
									"type": "uint256[]"
								}
							],
							"internalType": "struct FakeProdId.Supplier",
							"name": "",
							"type": "tuple"
						}
					],
					"stateMutability": "view",
					"type": "function"
				},
				{
					"inputs": [
						{
							"internalType": "uint256",
							"name": "",
							"type": "uint256"
						}
					],
					"name": "manufacturers",
					"outputs": [
						{
							"internalType": "uint256",
							"name": "manufacturerId",
							"type": "uint256"
						},
						{
							"internalType": "string",
							"name": "kind",
							"type": "string"
						},
						{
							"internalType": "string",
							"name": "name",
							"type": "string"
						}
					],
					"stateMutability": "view",
					"type": "function"
				},
				{
					"inputs": [
						{
							"internalType": "uint256",
							"name": "",
							"type": "uint256"
						}
					],
					"name": "products",
					"outputs": [
						{
							"internalType": "uint256",
							"name": "productId",
							"type": "uint256"
						},
						{
							"internalType": "string",
							"name": "name",
							"type": "string"
						},
						{
							"internalType": "uint256",
							"name": "price",
							"type": "uint256"
						},
						{
							"internalType": "string",
							"name": "description",
							"type": "string"
						},
						{
							"internalType": "string",
							"name": "curOwner",
							"type": "string"
						},
						{
							"internalType": "uint256",
							"name": "curOwnerId",
							"type": "uint256"
						}
					],
					"stateMutability": "view",
					"type": "function"
				},
				{
					"inputs": [
						{
							"internalType": "uint256",
							"name": "",
							"type": "uint256"
						}
					],
					"name": "retailers",
					"outputs": [
						{
							"internalType": "uint256",
							"name": "retailerId",
							"type": "uint256"
						},
						{
							"internalType": "string",
							"name": "name",
							"type": "string"
						}
					],
					"stateMutability": "view",
					"type": "function"
				},
				{
					"inputs": [],
					"name": "returnProducts",
					"outputs": [
						{
							"components": [
								{
									"internalType": "uint256",
									"name": "productId",
									"type": "uint256"
								},
								{
									"internalType": "string",
									"name": "name",
									"type": "string"
								},
								{
									"internalType": "uint256",
									"name": "price",
									"type": "uint256"
								},
								{
									"internalType": "string",
									"name": "description",
									"type": "string"
								},
								{
									"internalType": "string",
									"name": "curOwner",
									"type": "string"
								},
								{
									"internalType": "uint256",
									"name": "curOwnerId",
									"type": "uint256"
								}
							],
							"internalType": "struct FakeProdId.Product[]",
							"name": "",
							"type": "tuple[]"
						}
					],
					"stateMutability": "view",
					"type": "function"
				},
				{
					"inputs": [
						{
							"internalType": "uint256",
							"name": "",
							"type": "uint256"
						}
					],
					"name": "suppliers",
					"outputs": [
						{
							"internalType": "uint256",
							"name": "supplierId",
							"type": "uint256"
						},
						{
							"internalType": "string",
							"name": "kind",
							"type": "string"
						},
						{
							"internalType": "string",
							"name": "name",
							"type": "string"
						}
					],
					"stateMutability": "view",
					"type": "function"
				},
				{
					"inputs": [
						{
							"internalType": "uint256",
							"name": "ProductId",
							"type": "uint256"
						},
						{
							"internalType": "uint256",
							"name": "curOwnerId",
							"type": "uint256"
						},
						{
							"internalType": "uint256",
							"name": "newOwnerId",
							"type": "uint256"
						}
					],
					"name": "transferOwnership",
					"outputs": [],
					"stateMutability": "nonpayable",
					"type": "function"
				}
			],
			"devdoc": {
				"kind": "dev",
				"methods": {},
				"version": 1
			},
			"evm": {
				"assembly": "    /* \"contracts/FakeProdId.sol\":105:4670  contract FakeProdId {\r... */\n  mstore(0x40, 0x80)\n    /* \"contracts/FakeProdId.sol\":148:158  msg.sender */\n  caller\n    /* \"contracts/FakeProdId.sol\":132:158  address owner = msg.sender */\n  0x00\n  dup1\n  0x0100\n  exp\n  dup2\n  sload\n  dup2\n  0xffffffffffffffffffffffffffffffffffffffff\n  mul\n  not\n  and\n  swap1\n  dup4\n  0xffffffffffffffffffffffffffffffffffffffff\n  and\n  mul\n  or\n  swap1\n  sstore\n  pop\n    /* \"contracts/FakeProdId.sol\":929:930  0 */\n  0x00\n    /* \"contracts/FakeProdId.sol\":911:930  uint productsSize=0 */\n  0x02\n  sstore\n    /* \"contracts/FakeProdId.sol\":105:4670  contract FakeProdId {\r... */\n  callvalue\n  dup1\n  iszero\n  tag_1\n  jumpi\n  0x00\n  dup1\n  revert\ntag_1:\n  pop\n  dataSize(sub_0)\n  dup1\n  dataOffset(sub_0)\n  0x00\n  codecopy\n  0x00\n  return\nstop\n\nsub_0: assembly {\n        /* \"contracts/FakeProdId.sol\":105:4670  contract FakeProdId {\r... */\n      mstore(0x40, 0x80)\n      callvalue\n      dup1\n      iszero\n      tag_1\n      jumpi\n      0x00\n      dup1\n      revert\n    tag_1:\n      pop\n      jumpi(tag_2, lt(calldatasize, 0x04))\n      shr(0xe0, calldataload(0x00))\n      dup1\n      0x8f5ae799\n      gt\n      tag_20\n      jumpi\n      dup1\n      0xcb80c419\n      gt\n      tag_21\n      jumpi\n      dup1\n      0xcb80c419\n      eq\n      tag_15\n      jumpi\n      dup1\n      0xcda5e4a5\n      eq\n      tag_16\n      jumpi\n      dup1\n      0xcea23121\n      eq\n      tag_17\n      jumpi\n      dup1\n      0xf032edec\n      eq\n      tag_18\n      jumpi\n      dup1\n      0xf4fd4cbb\n      eq\n      tag_19\n      jumpi\n      jump(tag_2)\n    tag_21:\n      dup1\n      0x8f5ae799\n      eq\n      tag_11\n      jumpi\n      dup1\n      0x90175af1\n      eq\n      tag_12\n      jumpi\n      dup1\n      0x95d00407\n      eq\n      tag_13\n      jumpi\n      dup1\n      0xb9db15b4\n      eq\n      tag_14\n      jumpi\n      jump(tag_2)\n    tag_20:\n      dup1\n      0x7acc0b20\n      gt\n      tag_22\n      jumpi\n      dup1\n      0x7acc0b20\n      eq\n      tag_7\n      jumpi\n      dup1\n      0x81d9def2\n      eq\n      tag_8\n      jumpi\n      dup1\n      0x897ec7df\n      eq\n      tag_9\n      jumpi\n      dup1\n      0x8f29695a\n      eq\n      tag_10\n      jumpi\n      jump(tag_2)\n    tag_22:\n      dup1\n      0x15533a27\n      eq\n      tag_3\n      jumpi\n      dup1\n      0x333f3dd0\n      eq\n      tag_4\n      jumpi\n      dup1\n      0x3779643f\n      eq\n      tag_5\n      jumpi\n      dup1\n      0x50b492ba\n      eq\n      tag_6\n      jumpi\n    tag_2:\n      0x00\n      dup1\n      revert\n        /* \"contracts/FakeProdId.sol\":2103:2527  function addSupplier(string memory name) public returns (uint){\r... */\n    tag_3:\n      tag_23\n      0x04\n      dup1\n      calldatasize\n      sub\n      dup2\n      add\n      swap1\n      tag_24\n      swap2\n      swap1\n      tag_25\n      jump\t// in\n    tag_24:\n      tag_26\n      jump\t// in\n    tag_23:\n      mload(0x40)\n      tag_27\n      swap2\n      swap1\n      tag_28\n      jump\t// in\n    tag_27:\n      mload(0x40)\n      dup1\n      swap2\n      sub\n      swap1\n      return\n        /* \"contracts/FakeProdId.sol\":3795:3939  function getdistributorDetails(uint distributorId) public view returns (Distributor memory){\r... */\n    tag_4:\n      tag_29\n      0x04\n      dup1\n      calldatasize\n      sub\n      dup2\n      add\n      swap1\n      tag_30\n      swap2\n      swap1\n      tag_31\n      jump\t// in\n    tag_30:\n      tag_32\n      jump\t// in\n    tag_29:\n      mload(0x40)\n      tag_33\n      swap2\n      swap1\n      tag_34\n      jump\t// in\n    tag_33:\n      mload(0x40)\n      dup1\n      swap2\n      sub\n      swap1\n      return\n        /* \"contracts/FakeProdId.sol\":2535:2664  function getsupplierDetails(uint supplierId) public view returns (Supplier memory){\r... */\n    tag_5:\n      tag_35\n      0x04\n      dup1\n      calldatasize\n      sub\n      dup2\n      add\n      swap1\n      tag_36\n      swap2\n      swap1\n      tag_31\n      jump\t// in\n    tag_36:\n      tag_37\n      jump\t// in\n    tag_35:\n      mload(0x40)\n      tag_38\n      swap2\n      swap1\n      tag_39\n      jump\t// in\n    tag_38:\n      mload(0x40)\n      dup1\n      swap2\n      sub\n      swap1\n      return\n        /* \"contracts/FakeProdId.sol\":1043:1091  mapping(uint => Distributor) public distributors */\n    tag_6:\n      tag_40\n      0x04\n      dup1\n      calldatasize\n      sub\n      dup2\n      add\n      swap1\n      tag_41\n      swap2\n      swap1\n      tag_31\n      jump\t// in\n    tag_41:\n      tag_42\n      jump\t// in\n    tag_40:\n      mload(0x40)\n      tag_43\n      swap4\n      swap3\n      swap2\n      swap1\n      tag_44\n      jump\t// in\n    tag_43:\n      mload(0x40)\n      dup1\n      swap2\n      sub\n      swap1\n      return\n        /* \"contracts/FakeProdId.sol\":864:904  mapping(uint => Product) public products */\n    tag_7:\n      tag_45\n      0x04\n      dup1\n      calldatasize\n      sub\n      dup2\n      add\n      swap1\n      tag_46\n      swap2\n      swap1\n      tag_31\n      jump\t// in\n    tag_46:\n      tag_47\n      jump\t// in\n    tag_45:\n      mload(0x40)\n      tag_48\n      swap7\n      swap6\n      swap5\n      swap4\n      swap3\n      swap2\n      swap1\n      tag_49\n      jump\t// in\n    tag_48:\n      mload(0x40)\n      dup1\n      swap2\n      sub\n      swap1\n      return\n        /* \"contracts/FakeProdId.sol\":3317:3783  function addDistributor(string memory name) public returns (uint){\r... */\n    tag_8:\n      tag_50\n      0x04\n      dup1\n      calldatasize\n      sub\n      dup2\n      add\n      swap1\n      tag_51\n      swap2\n      swap1\n      tag_25\n      jump\t// in\n    tag_51:\n      tag_52\n      jump\t// in\n    tag_50:\n      mload(0x40)\n      tag_53\n      swap2\n      swap1\n      tag_28\n      jump\t// in\n    tag_53:\n      mload(0x40)\n      dup1\n      swap2\n      sub\n      swap1\n      return\n        /* \"contracts/FakeProdId.sol\":1098:1140  mapping(uint => Retailer) public retailers */\n    tag_9:\n      tag_54\n      0x04\n      dup1\n      calldatasize\n      sub\n      dup2\n      add\n      swap1\n      tag_55\n      swap2\n      swap1\n      tag_31\n      jump\t// in\n    tag_55:\n      tag_56\n      jump\t// in\n    tag_54:\n      mload(0x40)\n      tag_57\n      swap3\n      swap2\n      swap1\n      tag_58\n      jump\t// in\n    tag_57:\n      mload(0x40)\n      dup1\n      swap2\n      sub\n      swap1\n      return\n        /* \"contracts/FakeProdId.sol\":1149:1705  function addProduct(string memory name,uint price,string memory description) public{\r... */\n    tag_10:\n      tag_59\n      0x04\n      dup1\n      calldatasize\n      sub\n      dup2\n      add\n      swap1\n      tag_60\n      swap2\n      swap1\n      tag_61\n      jump\t// in\n    tag_60:\n      tag_62\n      jump\t// in\n    tag_59:\n      stop\n        /* \"contracts/FakeProdId.sol\":2672:3152  function addManufacturer(string memory name) public returns (uint){\r... */\n    tag_11:\n      tag_63\n      0x04\n      dup1\n      calldatasize\n      sub\n      dup2\n      add\n      swap1\n      tag_64\n      swap2\n      swap1\n      tag_25\n      jump\t// in\n    tag_64:\n      tag_65\n      jump\t// in\n    tag_63:\n      mload(0x40)\n      tag_66\n      swap2\n      swap1\n      tag_28\n      jump\t// in\n    tag_66:\n      mload(0x40)\n      dup1\n      swap2\n      sub\n      swap1\n      return\n        /* \"contracts/FakeProdId.sol\":986:1036  mapping(uint => Manufacturer) public manufacturers */\n    tag_12:\n      tag_67\n      0x04\n      dup1\n      calldatasize\n      sub\n      dup2\n      add\n      swap1\n      tag_68\n      swap2\n      swap1\n      tag_31\n      jump\t// in\n    tag_68:\n      tag_69\n      jump\t// in\n    tag_67:\n      mload(0x40)\n      tag_70\n      swap4\n      swap3\n      swap2\n      swap1\n      tag_44\n      jump\t// in\n    tag_70:\n      mload(0x40)\n      dup1\n      swap2\n      sub\n      swap1\n      return\n        /* \"contracts/FakeProdId.sol\":3947:4337  function addRetailer(string memory name) public returns (uint){\r... */\n    tag_13:\n      tag_71\n      0x04\n      dup1\n      calldatasize\n      sub\n      dup2\n      add\n      swap1\n      tag_72\n      swap2\n      swap1\n      tag_25\n      jump\t// in\n    tag_72:\n      tag_73\n      jump\t// in\n    tag_71:\n      mload(0x40)\n      tag_74\n      swap2\n      swap1\n      tag_28\n      jump\t// in\n    tag_74:\n      mload(0x40)\n      dup1\n      swap2\n      sub\n      swap1\n      return\n        /* \"contracts/FakeProdId.sol\":1978:2095  function getProduct(uint productId) public view returns (Product memory){\r... */\n    tag_14:\n      tag_75\n      0x04\n      dup1\n      calldatasize\n      sub\n      dup2\n      add\n      swap1\n      tag_76\n      swap2\n      swap1\n      tag_31\n      jump\t// in\n    tag_76:\n      tag_77\n      jump\t// in\n    tag_75:\n      mload(0x40)\n      tag_78\n      swap2\n      swap1\n      tag_79\n      jump\t// in\n    tag_78:\n      mload(0x40)\n      dup1\n      swap2\n      sub\n      swap1\n      return\n        /* \"contracts/FakeProdId.sol\":3160:3309  function getmanufacturerDetails(uint manufacturerId) public view returns (Manufacturer memory){\r... */\n    tag_15:\n      tag_80\n      0x04\n      dup1\n      calldatasize\n      sub\n      dup2\n      add\n      swap1\n      tag_81\n      swap2\n      swap1\n      tag_31\n      jump\t// in\n    tag_81:\n      tag_82\n      jump\t// in\n    tag_80:\n      mload(0x40)\n      tag_83\n      swap2\n      swap1\n      tag_84\n      jump\t// in\n    tag_83:\n      mload(0x40)\n      dup1\n      swap2\n      sub\n      swap1\n      return\n        /* \"contracts/FakeProdId.sol\":4345:4474  function getretailerDetails(uint retailerId) public view returns (Retailer memory){\r... */\n    tag_16:\n      tag_85\n      0x04\n      dup1\n      calldatasize\n      sub\n      dup2\n      add\n      swap1\n      tag_86\n      swap2\n      swap1\n      tag_31\n      jump\t// in\n    tag_86:\n      tag_87\n      jump\t// in\n    tag_85:\n      mload(0x40)\n      tag_88\n      swap2\n      swap1\n      tag_89\n      jump\t// in\n    tag_88:\n      mload(0x40)\n      dup1\n      swap2\n      sub\n      swap1\n      return\n        /* \"contracts/FakeProdId.sol\":937:979  mapping(uint => Supplier) public suppliers */\n    tag_17:\n      tag_90\n      0x04\n      dup1\n      calldatasize\n      sub\n      dup2\n      add\n      swap1\n      tag_91\n      swap2\n      swap1\n      tag_31\n      jump\t// in\n    tag_91:\n      tag_92\n      jump\t// in\n    tag_90:\n      mload(0x40)\n      tag_93\n      swap4\n      swap3\n      swap2\n      swap1\n      tag_44\n      jump\t// in\n    tag_93:\n      mload(0x40)\n      dup1\n      swap2\n      sub\n      swap1\n      return\n        /* \"contracts/FakeProdId.sol\":4482:4571  function transferOwnership(uint ProductId,uint curOwnerId,uint newOwnerId) public{\r... */\n    tag_18:\n      tag_94\n      0x04\n      dup1\n      calldatasize\n      sub\n      dup2\n      add\n      swap1\n      tag_95\n      swap2\n      swap1\n      tag_96\n      jump\t// in\n    tag_95:\n      tag_97\n      jump\t// in\n    tag_94:\n      stop\n        /* \"contracts/FakeProdId.sol\":1713:1970  function returnProducts() public view returns(Product[] memory){\r... */\n    tag_19:\n      tag_98\n      tag_99\n      jump\t// in\n    tag_98:\n      mload(0x40)\n      tag_100\n      swap2\n      swap1\n      tag_101\n      jump\t// in\n    tag_100:\n      mload(0x40)\n      dup1\n      swap2\n      sub\n      swap1\n      return\n        /* \"contracts/FakeProdId.sol\":2103:2527  function addSupplier(string memory name) public returns (uint){\r... */\n    tag_26:\n        /* \"contracts/FakeProdId.sol\":2160:2164  uint */\n      0x00\n        /* \"contracts/FakeProdId.sol\":2176:2203  Supplier memory newSupplier */\n      tag_103\n      tag_104\n      jump\t// in\n    tag_103:\n        /* \"contracts/FakeProdId.sol\":2263:2267  name */\n      dup3\n        /* \"contracts/FakeProdId.sol\":2268:2283  block.timestamp */\n      timestamp\n        /* \"contracts/FakeProdId.sol\":2284:2300  block.difficulty */\n      difficulty\n        /* \"contracts/FakeProdId.sol\":2252:2301  abi.encode(name,block.timestamp,block.difficulty) */\n      add(0x20, mload(0x40))\n      tag_105\n      swap4\n      swap3\n      swap2\n      swap1\n      tag_106\n      jump\t// in\n    tag_105:\n      mload(0x40)\n      0x20\n      dup2\n      dup4\n      sub\n      sub\n      dup2\n      mstore\n      swap1\n      0x40\n      mstore\n        /* \"contracts/FakeProdId.sol\":2242:2302  keccak256(abi.encode(name,block.timestamp,block.difficulty)) */\n      dup1\n      mload\n      swap1\n      0x20\n      add\n      keccak256\n        /* \"contracts/FakeProdId.sol\":2237:2303  uint(keccak256(abi.encode(name,block.timestamp,block.difficulty))) */\n      0x00\n      shr\n        /* \"contracts/FakeProdId.sol\":2214:2225  newSupplier */\n      dup2\n        /* \"contracts/FakeProdId.sol\":2214:2236  newSupplier.supplierId */\n      0x00\n      add\n        /* \"contracts/FakeProdId.sol\":2214:2303  newSupplier.supplierId=uint(keccak256(abi.encode(name,block.timestamp,block.difficulty))) */\n      dup2\n      dup2\n      mstore\n      pop\n      pop\n        /* \"contracts/FakeProdId.sol\":2314:2337  newSupplier.kind = \"SU\" */\n      mload(0x40)\n      dup1\n      0x40\n      add\n      0x40\n      mstore\n      dup1\n      0x02\n      dup2\n      mstore\n      0x20\n      add\n      0x5355000000000000000000000000000000000000000000000000000000000000\n      dup2\n      mstore\n      pop\n        /* \"contracts/FakeProdId.sol\":2314:2325  newSupplier */\n      dup2\n        /* \"contracts/FakeProdId.sol\":2314:2330  newSupplier.kind */\n      0x20\n      add\n        /* \"contracts/FakeProdId.sol\":2314:2337  newSupplier.kind = \"SU\" */\n      dup2\n      swap1\n      mstore\n      pop\n        /* \"contracts/FakeProdId.sol\":2367:2371  name */\n      dup3\n        /* \"contracts/FakeProdId.sol\":2348:2359  newSupplier */\n      dup2\n        /* \"contracts/FakeProdId.sol\":2348:2364  newSupplier.name */\n      0x40\n      add\n        /* \"contracts/FakeProdId.sol\":2348:2371  newSupplier.name = name */\n      dup2\n      swap1\n      mstore\n      pop\n        /* \"contracts/FakeProdId.sol\":2419:2420  0 */\n      0x00\n        /* \"contracts/FakeProdId.sol\":2408:2421  new uint[](0) */\n      0xffffffffffffffff\n      dup2\n      gt\n      iszero\n      tag_107\n      jumpi\n      tag_108\n      tag_109\n      jump\t// in\n    tag_108:\n    tag_107:\n      mload(0x40)\n      swap1\n      dup1\n      dup3\n      mstore\n      dup1\n      0x20\n      mul\n      0x20\n      add\n      dup3\n      add\n      0x40\n      mstore\n      dup1\n      iszero\n      tag_110\n      jumpi\n      dup2\n      0x20\n      add\n      0x20\n      dup3\n      mul\n      dup1\n      calldatasize\n      dup4\n      calldatacopy\n      dup1\n      dup3\n      add\n      swap2\n      pop\n      pop\n      swap1\n      pop\n    tag_110:\n      pop\n        /* \"contracts/FakeProdId.sol\":2382:2393  newSupplier */\n      dup2\n        /* \"contracts/FakeProdId.sol\":2382:2405  newSupplier.productList */\n      0x60\n      add\n        /* \"contracts/FakeProdId.sol\":2382:2421  newSupplier.productList = new uint[](0) */\n      dup2\n      swap1\n      mstore\n      pop\n        /* \"contracts/FakeProdId.sol\":2468:2479  newSupplier */\n      dup1\n        /* \"contracts/FakeProdId.sol\":2432:2441  suppliers */\n      0x03\n        /* \"contracts/FakeProdId.sol\":2432:2465  suppliers[newSupplier.supplierId] */\n      0x00\n        /* \"contracts/FakeProdId.sol\":2442:2453  newSupplier */\n      dup4\n        /* \"contracts/FakeProdId.sol\":2442:2464  newSupplier.supplierId */\n      0x00\n      add\n      mload\n        /* \"contracts/FakeProdId.sol\":2432:2465  suppliers[newSupplier.supplierId] */\n      dup2\n      mstore\n      0x20\n      add\n      swap1\n      dup2\n      mstore\n      0x20\n      add\n      0x00\n      keccak256\n        /* \"contracts/FakeProdId.sol\":2432:2479  suppliers[newSupplier.supplierId] = newSupplier */\n      0x00\n      dup3\n      add\n      mload\n      dup2\n      0x00\n      add\n      sstore\n      0x20\n      dup3\n      add\n      mload\n      dup2\n      0x01\n      add\n      swap1\n      dup1\n      mload\n      swap1\n      0x20\n      add\n      swap1\n      tag_111\n      swap3\n      swap2\n      swap1\n      tag_112\n      jump\t// in\n    tag_111:\n      pop\n      0x40\n      dup3\n      add\n      mload\n      dup2\n      0x02\n      add\n      swap1\n      dup1\n      mload\n      swap1\n      0x20\n      add\n      swap1\n      tag_113\n      swap3\n      swap2\n      swap1\n      tag_112\n      jump\t// in\n    tag_113:\n      pop\n      0x60\n      dup3\n      add\n      mload\n      dup2\n      0x03\n      add\n      swap1\n      dup1\n      mload\n      swap1\n      0x20\n      add\n      swap1\n      tag_114\n      swap3\n      swap2\n      swap1\n      tag_115\n      jump\t// in\n    tag_114:\n      pop\n      swap1\n      pop\n      pop\n        /* \"contracts/FakeProdId.sol\":2497:2508  newSupplier */\n      dup1\n        /* \"contracts/FakeProdId.sol\":2497:2519  newSupplier.supplierId */\n      0x00\n      add\n      mload\n        /* \"contracts/FakeProdId.sol\":2490:2519  return newSupplier.supplierId */\n      swap2\n      pop\n      pop\n        /* \"contracts/FakeProdId.sol\":2103:2527  function addSupplier(string memory name) public returns (uint){\r... */\n      swap2\n      swap1\n      pop\n      jump\t// out\n        /* \"contracts/FakeProdId.sol\":3795:3939  function getdistributorDetails(uint distributorId) public view returns (Distributor memory){\r... */\n    tag_32:\n        /* \"contracts/FakeProdId.sol\":3867:3885  Distributor memory */\n      tag_116\n      tag_117\n      jump\t// in\n    tag_116:\n        /* \"contracts/FakeProdId.sol\":3904:3916  distributors */\n      0x05\n        /* \"contracts/FakeProdId.sol\":3904:3931  distributors[distributorId] */\n      0x00\n        /* \"contracts/FakeProdId.sol\":3917:3930  distributorId */\n      dup4\n        /* \"contracts/FakeProdId.sol\":3904:3931  distributors[distributorId] */\n      dup2\n      mstore\n      0x20\n      add\n      swap1\n      dup2\n      mstore\n      0x20\n      add\n      0x00\n      keccak256\n        /* \"contracts/FakeProdId.sol\":3897:3931  return distributors[distributorId] */\n      mload(0x40)\n      dup1\n      0x80\n      add\n      0x40\n      mstore\n      swap1\n      dup2\n      0x00\n      dup3\n      add\n      sload\n      dup2\n      mstore\n      0x20\n      add\n      0x01\n      dup3\n      add\n      dup1\n      sload\n      tag_119\n      swap1\n      tag_120\n      jump\t// in\n    tag_119:\n      dup1\n      0x1f\n      add\n      0x20\n      dup1\n      swap2\n      div\n      mul\n      0x20\n      add\n      mload(0x40)\n      swap1\n      dup2\n      add\n      0x40\n      mstore\n      dup1\n      swap3\n      swap2\n      swap1\n      dup2\n      dup2\n      mstore\n      0x20\n      add\n      dup3\n      dup1\n      sload\n      tag_121\n      swap1\n      tag_120\n      jump\t// in\n    tag_121:\n      dup1\n      iszero\n      tag_122\n      jumpi\n      dup1\n      0x1f\n      lt\n      tag_123\n      jumpi\n      0x0100\n      dup1\n      dup4\n      sload\n      div\n      mul\n      dup4\n      mstore\n      swap2\n      0x20\n      add\n      swap2\n      jump(tag_122)\n    tag_123:\n      dup3\n      add\n      swap2\n      swap1\n      0x00\n      mstore\n      keccak256(0x00, 0x20)\n      swap1\n    tag_124:\n      dup2\n      sload\n      dup2\n      mstore\n      swap1\n      0x01\n      add\n      swap1\n      0x20\n      add\n      dup1\n      dup4\n      gt\n      tag_124\n      jumpi\n      dup3\n      swap1\n      sub\n      0x1f\n      and\n      dup3\n      add\n      swap2\n    tag_122:\n      pop\n      pop\n      pop\n      pop\n      pop\n      dup2\n      mstore\n      0x20\n      add\n      0x02\n      dup3\n      add\n      dup1\n      sload\n      tag_125\n      swap1\n      tag_120\n      jump\t// in\n    tag_125:\n      dup1\n      0x1f\n      add\n      0x20\n      dup1\n      swap2\n      div\n      mul\n      0x20\n      add\n      mload(0x40)\n      swap1\n      dup2\n      add\n      0x40\n      mstore\n      dup1\n      swap3\n      swap2\n      swap1\n      dup2\n      dup2\n      mstore\n      0x20\n      add\n      dup3\n      dup1\n      sload\n      tag_126\n      swap1\n      tag_120\n      jump\t// in\n    tag_126:\n      dup1\n      iszero\n      tag_127\n      jumpi\n      dup1\n      0x1f\n      lt\n      tag_128\n      jumpi\n      0x0100\n      dup1\n      dup4\n      sload\n      div\n      mul\n      dup4\n      mstore\n      swap2\n      0x20\n      add\n      swap2\n      jump(tag_127)\n    tag_128:\n      dup3\n      add\n      swap2\n      swap1\n      0x00\n      mstore\n      keccak256(0x00, 0x20)\n      swap1\n    tag_129:\n      dup2\n      sload\n      dup2\n      mstore\n      swap1\n      0x01\n      add\n      swap1\n      0x20\n      add\n      dup1\n      dup4\n      gt\n      tag_129\n      jumpi\n      dup3\n      swap1\n      sub\n      0x1f\n      and\n      dup3\n      add\n      swap2\n    tag_127:\n      pop\n      pop\n      pop\n      pop\n      pop\n      dup2\n      mstore\n      0x20\n      add\n      0x03\n      dup3\n      add\n      dup1\n      sload\n      dup1\n      0x20\n      mul\n      0x20\n      add\n      mload(0x40)\n      swap1\n      dup2\n      add\n      0x40\n      mstore\n      dup1\n      swap3\n      swap2\n      swap1\n      dup2\n      dup2\n      mstore\n      0x20\n      add\n      dup3\n      dup1\n      sload\n      dup1\n      iszero\n      tag_130\n      jumpi\n      0x20\n      mul\n      dup3\n      add\n      swap2\n      swap1\n      0x00\n      mstore\n      keccak256(0x00, 0x20)\n      swap1\n    tag_131:\n      dup2\n      sload\n      dup2\n      mstore\n      0x20\n      add\n      swap1\n      0x01\n      add\n      swap1\n      dup1\n      dup4\n      gt\n      tag_131\n      jumpi\n    tag_130:\n      pop\n      pop\n      pop\n      pop\n      pop\n      dup2\n      mstore\n      pop\n      pop\n      swap1\n      pop\n        /* \"contracts/FakeProdId.sol\":3795:3939  function getdistributorDetails(uint distributorId) public view returns (Distributor memory){\r... */\n      swap2\n      swap1\n      pop\n      jump\t// out\n        /* \"contracts/FakeProdId.sol\":2535:2664  function getsupplierDetails(uint supplierId) public view returns (Supplier memory){\r... */\n    tag_37:\n        /* \"contracts/FakeProdId.sol\":2601:2616  Supplier memory */\n      tag_132\n      tag_104\n      jump\t// in\n    tag_132:\n        /* \"contracts/FakeProdId.sol\":2635:2644  suppliers */\n      0x03\n        /* \"contracts/FakeProdId.sol\":2635:2656  suppliers[supplierId] */\n      0x00\n        /* \"contracts/FakeProdId.sol\":2645:2655  supplierId */\n      dup4\n        /* \"contracts/FakeProdId.sol\":2635:2656  suppliers[supplierId] */\n      dup2\n      mstore\n      0x20\n      add\n      swap1\n      dup2\n      mstore\n      0x20\n      add\n      0x00\n      keccak256\n        /* \"contracts/FakeProdId.sol\":2628:2656  return suppliers[supplierId] */\n      mload(0x40)\n      dup1\n      0x80\n      add\n      0x40\n      mstore\n      swap1\n      dup2\n      0x00\n      dup3\n      add\n      sload\n      dup2\n      mstore\n      0x20\n      add\n      0x01\n      dup3\n      add\n      dup1\n      sload\n      tag_134\n      swap1\n      tag_120\n      jump\t// in\n    tag_134:\n      dup1\n      0x1f\n      add\n      0x20\n      dup1\n      swap2\n      div\n      mul\n      0x20\n      add\n      mload(0x40)\n      swap1\n      dup2\n      add\n      0x40\n      mstore\n      dup1\n      swap3\n      swap2\n      swap1\n      dup2\n      dup2\n      mstore\n      0x20\n      add\n      dup3\n      dup1\n      sload\n      tag_135\n      swap1\n      tag_120\n      jump\t// in\n    tag_135:\n      dup1\n      iszero\n      tag_136\n      jumpi\n      dup1\n      0x1f\n      lt\n      tag_137\n      jumpi\n      0x0100\n      dup1\n      dup4\n      sload\n      div\n      mul\n      dup4\n      mstore\n      swap2\n      0x20\n      add\n      swap2\n      jump(tag_136)\n    tag_137:\n      dup3\n      add\n      swap2\n      swap1\n      0x00\n      mstore\n      keccak256(0x00, 0x20)\n      swap1\n    tag_138:\n      dup2\n      sload\n      dup2\n      mstore\n      swap1\n      0x01\n      add\n      swap1\n      0x20\n      add\n      dup1\n      dup4\n      gt\n      tag_138\n      jumpi\n      dup3\n      swap1\n      sub\n      0x1f\n      and\n      dup3\n      add\n      swap2\n    tag_136:\n      pop\n      pop\n      pop\n      pop\n      pop\n      dup2\n      mstore\n      0x20\n      add\n      0x02\n      dup3\n      add\n      dup1\n      sload\n      tag_139\n      swap1\n      tag_120\n      jump\t// in\n    tag_139:\n      dup1\n      0x1f\n      add\n      0x20\n      dup1\n      swap2\n      div\n      mul\n      0x20\n      add\n      mload(0x40)\n      swap1\n      dup2\n      add\n      0x40\n      mstore\n      dup1\n      swap3\n      swap2\n      swap1\n      dup2\n      dup2\n      mstore\n      0x20\n      add\n      dup3\n      dup1\n      sload\n      tag_140\n      swap1\n      tag_120\n      jump\t// in\n    tag_140:\n      dup1\n      iszero\n      tag_141\n      jumpi\n      dup1\n      0x1f\n      lt\n      tag_142\n      jumpi\n      0x0100\n      dup1\n      dup4\n      sload\n      div\n      mul\n      dup4\n      mstore\n      swap2\n      0x20\n      add\n      swap2\n      jump(tag_141)\n    tag_142:\n      dup3\n      add\n      swap2\n      swap1\n      0x00\n      mstore\n      keccak256(0x00, 0x20)\n      swap1\n    tag_143:\n      dup2\n      sload\n      dup2\n      mstore\n      swap1\n      0x01\n      add\n      swap1\n      0x20\n      add\n      dup1\n      dup4\n      gt\n      tag_143\n      jumpi\n      dup3\n      swap1\n      sub\n      0x1f\n      and\n      dup3\n      add\n      swap2\n    tag_141:\n      pop\n      pop\n      pop\n      pop\n      pop\n      dup2\n      mstore\n      0x20\n      add\n      0x03\n      dup3\n      add\n      dup1\n      sload\n      dup1\n      0x20\n      mul\n      0x20\n      add\n      mload(0x40)\n      swap1\n      dup2\n      add\n      0x40\n      mstore\n      dup1\n      swap3\n      swap2\n      swap1\n      dup2\n      dup2\n      mstore\n      0x20\n      add\n      dup3\n      dup1\n      sload\n      dup1\n      iszero\n      tag_144\n      jumpi\n      0x20\n      mul\n      dup3\n      add\n      swap2\n      swap1\n      0x00\n      mstore\n      keccak256(0x00, 0x20)\n      swap1\n    tag_145:\n      dup2\n      sload\n      dup2\n      mstore\n      0x20\n      add\n      swap1\n      0x01\n      add\n      swap1\n      dup1\n      dup4\n      gt\n      tag_145\n      jumpi\n    tag_144:\n      pop\n      pop\n      pop\n      pop\n      pop\n      dup2\n      mstore\n      pop\n      pop\n      swap1\n      pop\n        /* \"contracts/FakeProdId.sol\":2535:2664  function getsupplierDetails(uint supplierId) public view returns (Supplier memory){\r... */\n      swap2\n      swap1\n      pop\n      jump\t// out\n        /* \"contracts/FakeProdId.sol\":1043:1091  mapping(uint => Distributor) public distributors */\n    tag_42:\n      mstore(0x20, 0x05)\n      dup1\n      0x00\n      mstore\n      keccak256(0x00, 0x40)\n      0x00\n      swap2\n      pop\n      swap1\n      pop\n      dup1\n      0x00\n      add\n      sload\n      swap1\n      dup1\n      0x01\n      add\n      dup1\n      sload\n      tag_146\n      swap1\n      tag_120\n      jump\t// in\n    tag_146:\n      dup1\n      0x1f\n      add\n      0x20\n      dup1\n      swap2\n      div\n      mul\n      0x20\n      add\n      mload(0x40)\n      swap1\n      dup2\n      add\n      0x40\n      mstore\n      dup1\n      swap3\n      swap2\n      swap1\n      dup2\n      dup2\n      mstore\n      0x20\n      add\n      dup3\n      dup1\n      sload\n      tag_147\n      swap1\n      tag_120\n      jump\t// in\n    tag_147:\n      dup1\n      iszero\n      tag_148\n      jumpi\n      dup1\n      0x1f\n      lt\n      tag_149\n      jumpi\n      0x0100\n      dup1\n      dup4\n      sload\n      div\n      mul\n      dup4\n      mstore\n      swap2\n      0x20\n      add\n      swap2\n      jump(tag_148)\n    tag_149:\n      dup3\n      add\n      swap2\n      swap1\n      0x00\n      mstore\n      keccak256(0x00, 0x20)\n      swap1\n    tag_150:\n      dup2\n      sload\n      dup2\n      mstore\n      swap1\n      0x01\n      add\n      swap1\n      0x20\n      add\n      dup1\n      dup4\n      gt\n      tag_150\n      jumpi\n      dup3\n      swap1\n      sub\n      0x1f\n      and\n      dup3\n      add\n      swap2\n    tag_148:\n      pop\n      pop\n      pop\n      pop\n      pop\n      swap1\n      dup1\n      0x02\n      add\n      dup1\n      sload\n      tag_151\n      swap1\n      tag_120\n      jump\t// in\n    tag_151:\n      dup1\n      0x1f\n      add\n      0x20\n      dup1\n      swap2\n      div\n      mul\n      0x20\n      add\n      mload(0x40)\n      swap1\n      dup2\n      add\n      0x40\n      mstore\n      dup1\n      swap3\n      swap2\n      swap1\n      dup2\n      dup2\n      mstore\n      0x20\n      add\n      dup3\n      dup1\n      sload\n      tag_152\n      swap1\n      tag_120\n      jump\t// in\n    tag_152:\n      dup1\n      iszero\n      tag_153\n      jumpi\n      dup1\n      0x1f\n      lt\n      tag_154\n      jumpi\n      0x0100\n      dup1\n      dup4\n      sload\n      div\n      mul\n      dup4\n      mstore\n      swap2\n      0x20\n      add\n      swap2\n      jump(tag_153)\n    tag_154:\n      dup3\n      add\n      swap2\n      swap1\n      0x00\n      mstore\n      keccak256(0x00, 0x20)\n      swap1\n    tag_155:\n      dup2\n      sload\n      dup2\n      mstore\n      swap1\n      0x01\n      add\n      swap1\n      0x20\n      add\n      dup1\n      dup4\n      gt\n      tag_155\n      jumpi\n      dup3\n      swap1\n      sub\n      0x1f\n      and\n      dup3\n      add\n      swap2\n    tag_153:\n      pop\n      pop\n      pop\n      pop\n      pop\n      swap1\n      pop\n      dup4\n      jump\t// out\n        /* \"contracts/FakeProdId.sol\":864:904  mapping(uint => Product) public products */\n    tag_47:\n      mstore(0x20, 0x01)\n      dup1\n      0x00\n      mstore\n      keccak256(0x00, 0x40)\n      0x00\n      swap2\n      pop\n      swap1\n      pop\n      dup1\n      0x00\n      add\n      sload\n      swap1\n      dup1\n      0x01\n      add\n      dup1\n      sload\n      tag_156\n      swap1\n      tag_120\n      jump\t// in\n    tag_156:\n      dup1\n      0x1f\n      add\n      0x20\n      dup1\n      swap2\n      div\n      mul\n      0x20\n      add\n      mload(0x40)\n      swap1\n      dup2\n      add\n      0x40\n      mstore\n      dup1\n      swap3\n      swap2\n      swap1\n      dup2\n      dup2\n      mstore\n      0x20\n      add\n      dup3\n      dup1\n      sload\n      tag_157\n      swap1\n      tag_120\n      jump\t// in\n    tag_157:\n      dup1\n      iszero\n      tag_158\n      jumpi\n      dup1\n      0x1f\n      lt\n      tag_159\n      jumpi\n      0x0100\n      dup1\n      dup4\n      sload\n      div\n      mul\n      dup4\n      mstore\n      swap2\n      0x20\n      add\n      swap2\n      jump(tag_158)\n    tag_159:\n      dup3\n      add\n      swap2\n      swap1\n      0x00\n      mstore\n      keccak256(0x00, 0x20)\n      swap1\n    tag_160:\n      dup2\n      sload\n      dup2\n      mstore\n      swap1\n      0x01\n      add\n      swap1\n      0x20\n      add\n      dup1\n      dup4\n      gt\n      tag_160\n      jumpi\n      dup3\n      swap1\n      sub\n      0x1f\n      and\n      dup3\n      add\n      swap2\n    tag_158:\n      pop\n      pop\n      pop\n      pop\n      pop\n      swap1\n      dup1\n      0x02\n      add\n      sload\n      swap1\n      dup1\n      0x03\n      add\n      dup1\n      sload\n      tag_161\n      swap1\n      tag_120\n      jump\t// in\n    tag_161:\n      dup1\n      0x1f\n      add\n      0x20\n      dup1\n      swap2\n      div\n      mul\n      0x20\n      add\n      mload(0x40)\n      swap1\n      dup2\n      add\n      0x40\n      mstore\n      dup1\n      swap3\n      swap2\n      swap1\n      dup2\n      dup2\n      mstore\n      0x20\n      add\n      dup3\n      dup1\n      sload\n      tag_162\n      swap1\n      tag_120\n      jump\t// in\n    tag_162:\n      dup1\n      iszero\n      tag_163\n      jumpi\n      dup1\n      0x1f\n      lt\n      tag_164\n      jumpi\n      0x0100\n      dup1\n      dup4\n      sload\n      div\n      mul\n      dup4\n      mstore\n      swap2\n      0x20\n      add\n      swap2\n      jump(tag_163)\n    tag_164:\n      dup3\n      add\n      swap2\n      swap1\n      0x00\n      mstore\n      keccak256(0x00, 0x20)\n      swap1\n    tag_165:\n      dup2\n      sload\n      dup2\n      mstore\n      swap1\n      0x01\n      add\n      swap1\n      0x20\n      add\n      dup1\n      dup4\n      gt\n      tag_165\n      jumpi\n      dup3\n      swap1\n      sub\n      0x1f\n      and\n      dup3\n      add\n      swap2\n    tag_163:\n      pop\n      pop\n      pop\n      pop\n      pop\n      swap1\n      dup1\n      0x04\n      add\n      dup1\n      sload\n      tag_166\n      swap1\n      tag_120\n      jump\t// in\n    tag_166:\n      dup1\n      0x1f\n      add\n      0x20\n      dup1\n      swap2\n      div\n      mul\n      0x20\n      add\n      mload(0x40)\n      swap1\n      dup2\n      add\n      0x40\n      mstore\n      dup1\n      swap3\n      swap2\n      swap1\n      dup2\n      dup2\n      mstore\n      0x20\n      add\n      dup3\n      dup1\n      sload\n      tag_167\n      swap1\n      tag_120\n      jump\t// in\n    tag_167:\n      dup1\n      iszero\n      tag_168\n      jumpi\n      dup1\n      0x1f\n      lt\n      tag_169\n      jumpi\n      0x0100\n      dup1\n      dup4\n      sload\n      div\n      mul\n      dup4\n      mstore\n      swap2\n      0x20\n      add\n      swap2\n      jump(tag_168)\n    tag_169:\n      dup3\n      add\n      swap2\n      swap1\n      0x00\n      mstore\n      keccak256(0x00, 0x20)\n      swap1\n    tag_170:\n      dup2\n      sload\n      dup2\n      mstore\n      swap1\n      0x01\n      add\n      swap1\n      0x20\n      add\n      dup1\n      dup4\n      gt\n      tag_170\n      jumpi\n      dup3\n      swap1\n      sub\n      0x1f\n      and\n      dup3\n      add\n      swap2\n    tag_168:\n      pop\n      pop\n      pop\n      pop\n      pop\n      swap1\n      dup1\n      0x05\n      add\n      sload\n      swap1\n      pop\n      dup7\n      jump\t// out\n        /* \"contracts/FakeProdId.sol\":3317:3783  function addDistributor(string memory name) public returns (uint){\r... */\n    tag_52:\n        /* \"contracts/FakeProdId.sol\":3377:3381  uint */\n      0x00\n        /* \"contracts/FakeProdId.sol\":3393:3426  Distributor memory newDistributor */\n      tag_172\n      tag_117\n      jump\t// in\n    tag_172:\n        /* \"contracts/FakeProdId.sol\":3492:3496  name */\n      dup3\n        /* \"contracts/FakeProdId.sol\":3497:3512  block.timestamp */\n      timestamp\n        /* \"contracts/FakeProdId.sol\":3513:3529  block.difficulty */\n      difficulty\n        /* \"contracts/FakeProdId.sol\":3481:3530  abi.encode(name,block.timestamp,block.difficulty) */\n      add(0x20, mload(0x40))\n      tag_173\n      swap4\n      swap3\n      swap2\n      swap1\n      tag_106\n      jump\t// in\n    tag_173:\n      mload(0x40)\n      0x20\n      dup2\n      dup4\n      sub\n      sub\n      dup2\n      mstore\n      swap1\n      0x40\n      mstore\n        /* \"contracts/FakeProdId.sol\":3471:3531  keccak256(abi.encode(name,block.timestamp,block.difficulty)) */\n      dup1\n      mload\n      swap1\n      0x20\n      add\n      keccak256\n        /* \"contracts/FakeProdId.sol\":3466:3532  uint(keccak256(abi.encode(name,block.timestamp,block.difficulty))) */\n      0x00\n      shr\n        /* \"contracts/FakeProdId.sol\":3437:3451  newDistributor */\n      dup2\n        /* \"contracts/FakeProdId.sol\":3437:3465  newDistributor.distributorId */\n      0x00\n      add\n        /* \"contracts/FakeProdId.sol\":3437:3532  newDistributor.distributorId=uint(keccak256(abi.encode(name,block.timestamp,block.difficulty))) */\n      dup2\n      dup2\n      mstore\n      pop\n      pop\n        /* \"contracts/FakeProdId.sol\":3543:3569  newDistributor.kind = \"DI\" */\n      mload(0x40)\n      dup1\n      0x40\n      add\n      0x40\n      mstore\n      dup1\n      0x02\n      dup2\n      mstore\n      0x20\n      add\n      0x4449000000000000000000000000000000000000000000000000000000000000\n      dup2\n      mstore\n      pop\n        /* \"contracts/FakeProdId.sol\":3543:3557  newDistributor */\n      dup2\n        /* \"contracts/FakeProdId.sol\":3543:3562  newDistributor.kind */\n      0x20\n      add\n        /* \"contracts/FakeProdId.sol\":3543:3569  newDistributor.kind = \"DI\" */\n      dup2\n      swap1\n      mstore\n      pop\n        /* \"contracts/FakeProdId.sol\":3602:3606  name */\n      dup3\n        /* \"contracts/FakeProdId.sol\":3580:3594  newDistributor */\n      dup2\n        /* \"contracts/FakeProdId.sol\":3580:3599  newDistributor.name */\n      0x40\n      add\n        /* \"contracts/FakeProdId.sol\":3580:3606  newDistributor.name = name */\n      dup2\n      swap1\n      mstore\n      pop\n        /* \"contracts/FakeProdId.sol\":3657:3658  0 */\n      0x00\n        /* \"contracts/FakeProdId.sol\":3646:3659  new uint[](0) */\n      0xffffffffffffffff\n      dup2\n      gt\n      iszero\n      tag_174\n      jumpi\n      tag_175\n      tag_109\n      jump\t// in\n    tag_175:\n    tag_174:\n      mload(0x40)\n      swap1\n      dup1\n      dup3\n      mstore\n      dup1\n      0x20\n      mul\n      0x20\n      add\n      dup3\n      add\n      0x40\n      mstore\n      dup1\n      iszero\n      tag_176\n      jumpi\n      dup2\n      0x20\n      add\n      0x20\n      dup3\n      mul\n      dup1\n      calldatasize\n      dup4\n      calldatacopy\n      dup1\n      dup3\n      add\n      swap2\n      pop\n      pop\n      swap1\n      pop\n    tag_176:\n      pop\n        /* \"contracts/FakeProdId.sol\":3617:3631  newDistributor */\n      dup2\n        /* \"contracts/FakeProdId.sol\":3617:3643  newDistributor.productList */\n      0x60\n      add\n        /* \"contracts/FakeProdId.sol\":3617:3659  newDistributor.productList = new uint[](0) */\n      dup2\n      swap1\n      mstore\n      pop\n        /* \"contracts/FakeProdId.sol\":3715:3729  newDistributor */\n      dup1\n        /* \"contracts/FakeProdId.sol\":3670:3682  distributors */\n      0x05\n        /* \"contracts/FakeProdId.sol\":3670:3712  distributors[newDistributor.distributorId] */\n      0x00\n        /* \"contracts/FakeProdId.sol\":3683:3697  newDistributor */\n      dup4\n        /* \"contracts/FakeProdId.sol\":3683:3711  newDistributor.distributorId */\n      0x00\n      add\n      mload\n        /* \"contracts/FakeProdId.sol\":3670:3712  distributors[newDistributor.distributorId] */\n      dup2\n      mstore\n      0x20\n      add\n      swap1\n      dup2\n      mstore\n      0x20\n      add\n      0x00\n      keccak256\n        /* \"contracts/FakeProdId.sol\":3670:3729  distributors[newDistributor.distributorId] = newDistributor */\n      0x00\n      dup3\n      add\n      mload\n      dup2\n      0x00\n      add\n      sstore\n      0x20\n      dup3\n      add\n      mload\n      dup2\n      0x01\n      add\n      swap1\n      dup1\n      mload\n      swap1\n      0x20\n      add\n      swap1\n      tag_177\n      swap3\n      swap2\n      swap1\n      tag_112\n      jump\t// in\n    tag_177:\n      pop\n      0x40\n      dup3\n      add\n      mload\n      dup2\n      0x02\n      add\n      swap1\n      dup1\n      mload\n      swap1\n      0x20\n      add\n      swap1\n      tag_178\n      swap3\n      swap2\n      swap1\n      tag_112\n      jump\t// in\n    tag_178:\n      pop\n      0x60\n      dup3\n      add\n      mload\n      dup2\n      0x03\n      add\n      swap1\n      dup1\n      mload\n      swap1\n      0x20\n      add\n      swap1\n      tag_179\n      swap3\n      swap2\n      swap1\n      tag_115\n      jump\t// in\n    tag_179:\n      pop\n      swap1\n      pop\n      pop\n        /* \"contracts/FakeProdId.sol\":3747:3761  newDistributor */\n      dup1\n        /* \"contracts/FakeProdId.sol\":3747:3775  newDistributor.distributorId */\n      0x00\n      add\n      mload\n        /* \"contracts/FakeProdId.sol\":3740:3775  return newDistributor.distributorId */\n      swap2\n      pop\n      pop\n        /* \"contracts/FakeProdId.sol\":3317:3783  function addDistributor(string memory name) public returns (uint){\r... */\n      swap2\n      swap1\n      pop\n      jump\t// out\n        /* \"contracts/FakeProdId.sol\":1098:1140  mapping(uint => Retailer) public retailers */\n    tag_56:\n      mstore(0x20, 0x06)\n      dup1\n      0x00\n      mstore\n      keccak256(0x00, 0x40)\n      0x00\n      swap2\n      pop\n      swap1\n      pop\n      dup1\n      0x00\n      add\n      sload\n      swap1\n      dup1\n      0x01\n      add\n      dup1\n      sload\n      tag_180\n      swap1\n      tag_120\n      jump\t// in\n    tag_180:\n      dup1\n      0x1f\n      add\n      0x20\n      dup1\n      swap2\n      div\n      mul\n      0x20\n      add\n      mload(0x40)\n      swap1\n      dup2\n      add\n      0x40\n      mstore\n      dup1\n      swap3\n      swap2\n      swap1\n      dup2\n      dup2\n      mstore\n      0x20\n      add\n      dup3\n      dup1\n      sload\n      tag_181\n      swap1\n      tag_120\n      jump\t// in\n    tag_181:\n      dup1\n      iszero\n      tag_182\n      jumpi\n      dup1\n      0x1f\n      lt\n      tag_183\n      jumpi\n      0x0100\n      dup1\n      dup4\n      sload\n      div\n      mul\n      dup4\n      mstore\n      swap2\n      0x20\n      add\n      swap2\n      jump(tag_182)\n    tag_183:\n      dup3\n      add\n      swap2\n      swap1\n      0x00\n      mstore\n      keccak256(0x00, 0x20)\n      swap1\n    tag_184:\n      dup2\n      sload\n      dup2\n      mstore\n      swap1\n      0x01\n      add\n      swap1\n      0x20\n      add\n      dup1\n      dup4\n      gt\n      tag_184\n      jumpi\n      dup3\n      swap1\n      sub\n      0x1f\n      and\n      dup3\n      add\n      swap2\n    tag_182:\n      pop\n      pop\n      pop\n      pop\n      pop\n      swap1\n      pop\n      dup3\n      jump\t// out\n        /* \"contracts/FakeProdId.sol\":1149:1705  function addProduct(string memory name,uint price,string memory description) public{\r... */\n    tag_62:\n        /* \"contracts/FakeProdId.sol\":1243:1268  Product memory newProduct */\n      tag_186\n      tag_187\n      jump\t// in\n    tag_186:\n        /* \"contracts/FakeProdId.sol\":1326:1330  name */\n      dup4\n        /* \"contracts/FakeProdId.sol\":1331:1346  block.timestamp */\n      timestamp\n        /* \"contracts/FakeProdId.sol\":1347:1363  block.difficulty */\n      difficulty\n        /* \"contracts/FakeProdId.sol\":1315:1364  abi.encode(name,block.timestamp,block.difficulty) */\n      add(0x20, mload(0x40))\n      tag_188\n      swap4\n      swap3\n      swap2\n      swap1\n      tag_106\n      jump\t// in\n    tag_188:\n      mload(0x40)\n      0x20\n      dup2\n      dup4\n      sub\n      sub\n      dup2\n      mstore\n      swap1\n      0x40\n      mstore\n        /* \"contracts/FakeProdId.sol\":1305:1365  keccak256(abi.encode(name,block.timestamp,block.difficulty)) */\n      dup1\n      mload\n      swap1\n      0x20\n      add\n      keccak256\n        /* \"contracts/FakeProdId.sol\":1300:1366  uint(keccak256(abi.encode(name,block.timestamp,block.difficulty))) */\n      0x00\n      shr\n        /* \"contracts/FakeProdId.sol\":1279:1289  newProduct */\n      dup2\n        /* \"contracts/FakeProdId.sol\":1279:1299  newProduct.productId */\n      0x00\n      add\n        /* \"contracts/FakeProdId.sol\":1279:1366  newProduct.productId=uint(keccak256(abi.encode(name,block.timestamp,block.difficulty))) */\n      dup2\n      dup2\n      mstore\n      pop\n      pop\n        /* \"contracts/FakeProdId.sol\":1395:1399  name */\n      dup4\n        /* \"contracts/FakeProdId.sol\":1377:1387  newProduct */\n      dup2\n        /* \"contracts/FakeProdId.sol\":1377:1392  newProduct.name */\n      0x20\n      add\n        /* \"contracts/FakeProdId.sol\":1377:1399  newProduct.name = name */\n      dup2\n      swap1\n      mstore\n      pop\n        /* \"contracts/FakeProdId.sol\":1429:1434  price */\n      dup3\n        /* \"contracts/FakeProdId.sol\":1410:1420  newProduct */\n      dup2\n        /* \"contracts/FakeProdId.sol\":1410:1426  newProduct.price */\n      0x40\n      add\n        /* \"contracts/FakeProdId.sol\":1410:1434  newProduct.price = price */\n      dup2\n      dup2\n      mstore\n      pop\n      pop\n        /* \"contracts/FakeProdId.sol\":1470:1481  description */\n      dup2\n        /* \"contracts/FakeProdId.sol\":1445:1455  newProduct */\n      dup2\n        /* \"contracts/FakeProdId.sol\":1445:1467  newProduct.description */\n      0x60\n      add\n        /* \"contracts/FakeProdId.sol\":1445:1481  newProduct.description = description */\n      dup2\n      swap1\n      mstore\n      pop\n        /* \"contracts/FakeProdId.sol\":1492:1516  newProduct.curOwner = \"\" */\n      mload(0x40)\n      dup1\n      0x20\n      add\n      0x40\n      mstore\n      dup1\n      0x00\n      dup2\n      mstore\n      pop\n        /* \"contracts/FakeProdId.sol\":1492:1502  newProduct */\n      dup2\n        /* \"contracts/FakeProdId.sol\":1492:1511  newProduct.curOwner */\n      0x80\n      add\n        /* \"contracts/FakeProdId.sol\":1492:1516  newProduct.curOwner = \"\" */\n      dup2\n      swap1\n      mstore\n      pop\n        /* \"contracts/FakeProdId.sol\":1551:1552  0 */\n      0x00\n        /* \"contracts/FakeProdId.sol\":1527:1537  newProduct */\n      dup2\n        /* \"contracts/FakeProdId.sol\":1527:1548  newProduct.curOwnerId */\n      0xa0\n      add\n        /* \"contracts/FakeProdId.sol\":1527:1552  newProduct.curOwnerId = 0 */\n      dup2\n      dup2\n      mstore\n      pop\n      pop\n        /* \"contracts/FakeProdId.sol\":1596:1606  newProduct */\n      dup1\n        /* \"contracts/FakeProdId.sol\":1563:1571  products */\n      0x01\n        /* \"contracts/FakeProdId.sol\":1563:1593  products[newProduct.productId] */\n      0x00\n        /* \"contracts/FakeProdId.sol\":1572:1582  newProduct */\n      dup4\n        /* \"contracts/FakeProdId.sol\":1572:1592  newProduct.productId */\n      0x00\n      add\n      mload\n        /* \"contracts/FakeProdId.sol\":1563:1593  products[newProduct.productId] */\n      dup2\n      mstore\n      0x20\n      add\n      swap1\n      dup2\n      mstore\n      0x20\n      add\n      0x00\n      keccak256\n        /* \"contracts/FakeProdId.sol\":1563:1606  products[newProduct.productId] = newProduct */\n      0x00\n      dup3\n      add\n      mload\n      dup2\n      0x00\n      add\n      sstore\n      0x20\n      dup3\n      add\n      mload\n      dup2\n      0x01\n      add\n      swap1\n      dup1\n      mload\n      swap1\n      0x20\n      add\n      swap1\n      tag_189\n      swap3\n      swap2\n      swap1\n      tag_112\n      jump\t// in\n    tag_189:\n      pop\n      0x40\n      dup3\n      add\n      mload\n      dup2\n      0x02\n      add\n      sstore\n      0x60\n      dup3\n      add\n      mload\n      dup2\n      0x03\n      add\n      swap1\n      dup1\n      mload\n      swap1\n      0x20\n      add\n      swap1\n      tag_190\n      swap3\n      swap2\n      swap1\n      tag_112\n      jump\t// in\n    tag_190:\n      pop\n      0x80\n      dup3\n      add\n      mload\n      dup2\n      0x04\n      add\n      swap1\n      dup1\n      mload\n      swap1\n      0x20\n      add\n      swap1\n      tag_191\n      swap3\n      swap2\n      swap1\n      tag_112\n      jump\t// in\n    tag_191:\n      pop\n      0xa0\n      dup3\n      add\n      mload\n      dup2\n      0x05\n      add\n      sstore\n      swap1\n      pop\n      pop\n        /* \"contracts/FakeProdId.sol\":1644:1656  productsSize */\n      0x02\n      0x00\n        /* \"contracts/FakeProdId.sol\":1644:1658  productsSize++ */\n      dup2\n      sload\n      dup1\n      swap3\n      swap2\n      swap1\n      tag_192\n      swap1\n      tag_193\n      jump\t// in\n    tag_192:\n      swap2\n      swap1\n      pop\n      sstore\n      pop\n        /* \"contracts/FakeProdId.sol\":1232:1705  {\r... */\n      pop\n        /* \"contracts/FakeProdId.sol\":1149:1705  function addProduct(string memory name,uint price,string memory description) public{\r... */\n      pop\n      pop\n      pop\n      jump\t// out\n        /* \"contracts/FakeProdId.sol\":2672:3152  function addManufacturer(string memory name) public returns (uint){\r... */\n    tag_65:\n        /* \"contracts/FakeProdId.sol\":2733:2737  uint */\n      0x00\n        /* \"contracts/FakeProdId.sol\":2749:2784  Manufacturer memory newManufacturer */\n      tag_195\n      tag_196\n      jump\t// in\n    tag_195:\n        /* \"contracts/FakeProdId.sol\":2852:2856  name */\n      dup3\n        /* \"contracts/FakeProdId.sol\":2857:2872  block.timestamp */\n      timestamp\n        /* \"contracts/FakeProdId.sol\":2873:2889  block.difficulty */\n      difficulty\n        /* \"contracts/FakeProdId.sol\":2841:2890  abi.encode(name,block.timestamp,block.difficulty) */\n      add(0x20, mload(0x40))\n      tag_197\n      swap4\n      swap3\n      swap2\n      swap1\n      tag_106\n      jump\t// in\n    tag_197:\n      mload(0x40)\n      0x20\n      dup2\n      dup4\n      sub\n      sub\n      dup2\n      mstore\n      swap1\n      0x40\n      mstore\n        /* \"contracts/FakeProdId.sol\":2831:2891  keccak256(abi.encode(name,block.timestamp,block.difficulty)) */\n      dup1\n      mload\n      swap1\n      0x20\n      add\n      keccak256\n        /* \"contracts/FakeProdId.sol\":2826:2892  uint(keccak256(abi.encode(name,block.timestamp,block.difficulty))) */\n      0x00\n      shr\n        /* \"contracts/FakeProdId.sol\":2795:2810  newManufacturer */\n      dup2\n        /* \"contracts/FakeProdId.sol\":2795:2825  newManufacturer.manufacturerId */\n      0x00\n      add\n        /* \"contracts/FakeProdId.sol\":2795:2892  newManufacturer.manufacturerId=uint(keccak256(abi.encode(name,block.timestamp,block.difficulty))) */\n      dup2\n      dup2\n      mstore\n      pop\n      pop\n        /* \"contracts/FakeProdId.sol\":2903:2930  newManufacturer.kind = \"MA\" */\n      mload(0x40)\n      dup1\n      0x40\n      add\n      0x40\n      mstore\n      dup1\n      0x02\n      dup2\n      mstore\n      0x20\n      add\n      0x4d41000000000000000000000000000000000000000000000000000000000000\n      dup2\n      mstore\n      pop\n        /* \"contracts/FakeProdId.sol\":2903:2918  newManufacturer */\n      dup2\n        /* \"contracts/FakeProdId.sol\":2903:2923  newManufacturer.kind */\n      0x20\n      add\n        /* \"contracts/FakeProdId.sol\":2903:2930  newManufacturer.kind = \"MA\" */\n      dup2\n      swap1\n      mstore\n      pop\n        /* \"contracts/FakeProdId.sol\":2964:2968  name */\n      dup3\n        /* \"contracts/FakeProdId.sol\":2941:2956  newManufacturer */\n      dup2\n        /* \"contracts/FakeProdId.sol\":2941:2961  newManufacturer.name */\n      0x40\n      add\n        /* \"contracts/FakeProdId.sol\":2941:2968  newManufacturer.name = name */\n      dup2\n      swap1\n      mstore\n      pop\n        /* \"contracts/FakeProdId.sol\":3020:3021  0 */\n      0x00\n        /* \"contracts/FakeProdId.sol\":3009:3022  new uint[](0) */\n      0xffffffffffffffff\n      dup2\n      gt\n      iszero\n      tag_198\n      jumpi\n      tag_199\n      tag_109\n      jump\t// in\n    tag_199:\n    tag_198:\n      mload(0x40)\n      swap1\n      dup1\n      dup3\n      mstore\n      dup1\n      0x20\n      mul\n      0x20\n      add\n      dup3\n      add\n      0x40\n      mstore\n      dup1\n      iszero\n      tag_200\n      jumpi\n      dup2\n      0x20\n      add\n      0x20\n      dup3\n      mul\n      dup1\n      calldatasize\n      dup4\n      calldatacopy\n      dup1\n      dup3\n      add\n      swap2\n      pop\n      pop\n      swap1\n      pop\n    tag_200:\n      pop\n        /* \"contracts/FakeProdId.sol\":2979:2994  newManufacturer */\n      dup2\n        /* \"contracts/FakeProdId.sol\":2979:3006  newManufacturer.productList */\n      0x60\n      add\n        /* \"contracts/FakeProdId.sol\":2979:3022  newManufacturer.productList = new uint[](0) */\n      dup2\n      swap1\n      mstore\n      pop\n        /* \"contracts/FakeProdId.sol\":3081:3096  newManufacturer */\n      dup1\n        /* \"contracts/FakeProdId.sol\":3033:3046  manufacturers */\n      0x04\n        /* \"contracts/FakeProdId.sol\":3033:3078  manufacturers[newManufacturer.manufacturerId] */\n      0x00\n        /* \"contracts/FakeProdId.sol\":3047:3062  newManufacturer */\n      dup4\n        /* \"contracts/FakeProdId.sol\":3047:3077  newManufacturer.manufacturerId */\n      0x00\n      add\n      mload\n        /* \"contracts/FakeProdId.sol\":3033:3078  manufacturers[newManufacturer.manufacturerId] */\n      dup2\n      mstore\n      0x20\n      add\n      swap1\n      dup2\n      mstore\n      0x20\n      add\n      0x00\n      keccak256\n        /* \"contracts/FakeProdId.sol\":3033:3096  manufacturers[newManufacturer.manufacturerId] = newManufacturer */\n      0x00\n      dup3\n      add\n      mload\n      dup2\n      0x00\n      add\n      sstore\n      0x20\n      dup3\n      add\n      mload\n      dup2\n      0x01\n      add\n      swap1\n      dup1\n      mload\n      swap1\n      0x20\n      add\n      swap1\n      tag_201\n      swap3\n      swap2\n      swap1\n      tag_112\n      jump\t// in\n    tag_201:\n      pop\n      0x40\n      dup3\n      add\n      mload\n      dup2\n      0x02\n      add\n      swap1\n      dup1\n      mload\n      swap1\n      0x20\n      add\n      swap1\n      tag_202\n      swap3\n      swap2\n      swap1\n      tag_112\n      jump\t// in\n    tag_202:\n      pop\n      0x60\n      dup3\n      add\n      mload\n      dup2\n      0x03\n      add\n      swap1\n      dup1\n      mload\n      swap1\n      0x20\n      add\n      swap1\n      tag_203\n      swap3\n      swap2\n      swap1\n      tag_115\n      jump\t// in\n    tag_203:\n      pop\n      swap1\n      pop\n      pop\n        /* \"contracts/FakeProdId.sol\":3114:3129  newManufacturer */\n      dup1\n        /* \"contracts/FakeProdId.sol\":3114:3144  newManufacturer.manufacturerId */\n      0x00\n      add\n      mload\n        /* \"contracts/FakeProdId.sol\":3107:3144  return newManufacturer.manufacturerId */\n      swap2\n      pop\n      pop\n        /* \"contracts/FakeProdId.sol\":2672:3152  function addManufacturer(string memory name) public returns (uint){\r... */\n      swap2\n      swap1\n      pop\n      jump\t// out\n        /* \"contracts/FakeProdId.sol\":986:1036  mapping(uint => Manufacturer) public manufacturers */\n    tag_69:\n      mstore(0x20, 0x04)\n      dup1\n      0x00\n      mstore\n      keccak256(0x00, 0x40)\n      0x00\n      swap2\n      pop\n      swap1\n      pop\n      dup1\n      0x00\n      add\n      sload\n      swap1\n      dup1\n      0x01\n      add\n      dup1\n      sload\n      tag_204\n      swap1\n      tag_120\n      jump\t// in\n    tag_204:\n      dup1\n      0x1f\n      add\n      0x20\n      dup1\n      swap2\n      div\n      mul\n      0x20\n      add\n      mload(0x40)\n      swap1\n      dup2\n      add\n      0x40\n      mstore\n      dup1\n      swap3\n      swap2\n      swap1\n      dup2\n      dup2\n      mstore\n      0x20\n      add\n      dup3\n      dup1\n      sload\n      tag_205\n      swap1\n      tag_120\n      jump\t// in\n    tag_205:\n      dup1\n      iszero\n      tag_206\n      jumpi\n      dup1\n      0x1f\n      lt\n      tag_207\n      jumpi\n      0x0100\n      dup1\n      dup4\n      sload\n      div\n      mul\n      dup4\n      mstore\n      swap2\n      0x20\n      add\n      swap2\n      jump(tag_206)\n    tag_207:\n      dup3\n      add\n      swap2\n      swap1\n      0x00\n      mstore\n      keccak256(0x00, 0x20)\n      swap1\n    tag_208:\n      dup2\n      sload\n      dup2\n      mstore\n      swap1\n      0x01\n      add\n      swap1\n      0x20\n      add\n      dup1\n      dup4\n      gt\n      tag_208\n      jumpi\n      dup3\n      swap1\n      sub\n      0x1f\n      and\n      dup3\n      add\n      swap2\n    tag_206:\n      pop\n      pop\n      pop\n      pop\n      pop\n      swap1\n      dup1\n      0x02\n      add\n      dup1\n      sload\n      tag_209\n      swap1\n      tag_120\n      jump\t// in\n    tag_209:\n      dup1\n      0x1f\n      add\n      0x20\n      dup1\n      swap2\n      div\n      mul\n      0x20\n      add\n      mload(0x40)\n      swap1\n      dup2\n      add\n      0x40\n      mstore\n      dup1\n      swap3\n      swap2\n      swap1\n      dup2\n      dup2\n      mstore\n      0x20\n      add\n      dup3\n      dup1\n      sload\n      tag_210\n      swap1\n      tag_120\n      jump\t// in\n    tag_210:\n      dup1\n      iszero\n      tag_211\n      jumpi\n      dup1\n      0x1f\n      lt\n      tag_212\n      jumpi\n      0x0100\n      dup1\n      dup4\n      sload\n      div\n      mul\n      dup4\n      mstore\n      swap2\n      0x20\n      add\n      swap2\n      jump(tag_211)\n    tag_212:\n      dup3\n      add\n      swap2\n      swap1\n      0x00\n      mstore\n      keccak256(0x00, 0x20)\n      swap1\n    tag_213:\n      dup2\n      sload\n      dup2\n      mstore\n      swap1\n      0x01\n      add\n      swap1\n      0x20\n      add\n      dup1\n      dup4\n      gt\n      tag_213\n      jumpi\n      dup3\n      swap1\n      sub\n      0x1f\n      and\n      dup3\n      add\n      swap2\n    tag_211:\n      pop\n      pop\n      pop\n      pop\n      pop\n      swap1\n      pop\n      dup4\n      jump\t// out\n        /* \"contracts/FakeProdId.sol\":3947:4337  function addRetailer(string memory name) public returns (uint){\r... */\n    tag_73:\n        /* \"contracts/FakeProdId.sol\":4004:4008  uint */\n      0x00\n        /* \"contracts/FakeProdId.sol\":4020:4047  Retailer memory newRetailer */\n      tag_215\n      tag_216\n      jump\t// in\n    tag_215:\n        /* \"contracts/FakeProdId.sol\":4107:4111  name */\n      dup3\n        /* \"contracts/FakeProdId.sol\":4112:4127  block.timestamp */\n      timestamp\n        /* \"contracts/FakeProdId.sol\":4128:4144  block.difficulty */\n      difficulty\n        /* \"contracts/FakeProdId.sol\":4096:4145  abi.encode(name,block.timestamp,block.difficulty) */\n      add(0x20, mload(0x40))\n      tag_217\n      swap4\n      swap3\n      swap2\n      swap1\n      tag_106\n      jump\t// in\n    tag_217:\n      mload(0x40)\n      0x20\n      dup2\n      dup4\n      sub\n      sub\n      dup2\n      mstore\n      swap1\n      0x40\n      mstore\n        /* \"contracts/FakeProdId.sol\":4086:4146  keccak256(abi.encode(name,block.timestamp,block.difficulty)) */\n      dup1\n      mload\n      swap1\n      0x20\n      add\n      keccak256\n        /* \"contracts/FakeProdId.sol\":4081:4147  uint(keccak256(abi.encode(name,block.timestamp,block.difficulty))) */\n      0x00\n      shr\n        /* \"contracts/FakeProdId.sol\":4058:4069  newRetailer */\n      dup2\n        /* \"contracts/FakeProdId.sol\":4058:4080  newRetailer.retailerId */\n      0x00\n      add\n        /* \"contracts/FakeProdId.sol\":4058:4147  newRetailer.retailerId=uint(keccak256(abi.encode(name,block.timestamp,block.difficulty))) */\n      dup2\n      dup2\n      mstore\n      pop\n      pop\n        /* \"contracts/FakeProdId.sol\":4177:4181  name */\n      dup3\n        /* \"contracts/FakeProdId.sol\":4158:4169  newRetailer */\n      dup2\n        /* \"contracts/FakeProdId.sol\":4158:4174  newRetailer.name */\n      0x20\n      add\n        /* \"contracts/FakeProdId.sol\":4158:4181  newRetailer.name = name */\n      dup2\n      swap1\n      mstore\n      pop\n        /* \"contracts/FakeProdId.sol\":4229:4230  0 */\n      0x00\n        /* \"contracts/FakeProdId.sol\":4218:4231  new uint[](0) */\n      0xffffffffffffffff\n      dup2\n      gt\n      iszero\n      tag_218\n      jumpi\n      tag_219\n      tag_109\n      jump\t// in\n    tag_219:\n    tag_218:\n      mload(0x40)\n      swap1\n      dup1\n      dup3\n      mstore\n      dup1\n      0x20\n      mul\n      0x20\n      add\n      dup3\n      add\n      0x40\n      mstore\n      dup1\n      iszero\n      tag_220\n      jumpi\n      dup2\n      0x20\n      add\n      0x20\n      dup3\n      mul\n      dup1\n      calldatasize\n      dup4\n      calldatacopy\n      dup1\n      dup3\n      add\n      swap2\n      pop\n      pop\n      swap1\n      pop\n    tag_220:\n      pop\n        /* \"contracts/FakeProdId.sol\":4192:4203  newRetailer */\n      dup2\n        /* \"contracts/FakeProdId.sol\":4192:4215  newRetailer.productList */\n      0x40\n      add\n        /* \"contracts/FakeProdId.sol\":4192:4231  newRetailer.productList = new uint[](0) */\n      dup2\n      swap1\n      mstore\n      pop\n        /* \"contracts/FakeProdId.sol\":4278:4289  newRetailer */\n      dup1\n        /* \"contracts/FakeProdId.sol\":4242:4251  retailers */\n      0x06\n        /* \"contracts/FakeProdId.sol\":4242:4275  retailers[newRetailer.retailerId] */\n      0x00\n        /* \"contracts/FakeProdId.sol\":4252:4263  newRetailer */\n      dup4\n        /* \"contracts/FakeProdId.sol\":4252:4274  newRetailer.retailerId */\n      0x00\n      add\n      mload\n        /* \"contracts/FakeProdId.sol\":4242:4275  retailers[newRetailer.retailerId] */\n      dup2\n      mstore\n      0x20\n      add\n      swap1\n      dup2\n      mstore\n      0x20\n      add\n      0x00\n      keccak256\n        /* \"contracts/FakeProdId.sol\":4242:4289  retailers[newRetailer.retailerId] = newRetailer */\n      0x00\n      dup3\n      add\n      mload\n      dup2\n      0x00\n      add\n      sstore\n      0x20\n      dup3\n      add\n      mload\n      dup2\n      0x01\n      add\n      swap1\n      dup1\n      mload\n      swap1\n      0x20\n      add\n      swap1\n      tag_221\n      swap3\n      swap2\n      swap1\n      tag_112\n      jump\t// in\n    tag_221:\n      pop\n      0x40\n      dup3\n      add\n      mload\n      dup2\n      0x02\n      add\n      swap1\n      dup1\n      mload\n      swap1\n      0x20\n      add\n      swap1\n      tag_222\n      swap3\n      swap2\n      swap1\n      tag_115\n      jump\t// in\n    tag_222:\n      pop\n      swap1\n      pop\n      pop\n        /* \"contracts/FakeProdId.sol\":4307:4318  newRetailer */\n      dup1\n        /* \"contracts/FakeProdId.sol\":4307:4329  newRetailer.retailerId */\n      0x00\n      add\n      mload\n        /* \"contracts/FakeProdId.sol\":4300:4329  return newRetailer.retailerId */\n      swap2\n      pop\n      pop\n        /* \"contracts/FakeProdId.sol\":3947:4337  function addRetailer(string memory name) public returns (uint){\r... */\n      swap2\n      swap1\n      pop\n      jump\t// out\n        /* \"contracts/FakeProdId.sol\":1978:2095  function getProduct(uint productId) public view returns (Product memory){\r... */\n    tag_77:\n        /* \"contracts/FakeProdId.sol\":2035:2049  Product memory */\n      tag_223\n      tag_187\n      jump\t// in\n    tag_223:\n        /* \"contracts/FakeProdId.sol\":2068:2076  products */\n      0x01\n        /* \"contracts/FakeProdId.sol\":2068:2087  products[productId] */\n      0x00\n        /* \"contracts/FakeProdId.sol\":2077:2086  productId */\n      dup4\n        /* \"contracts/FakeProdId.sol\":2068:2087  products[productId] */\n      dup2\n      mstore\n      0x20\n      add\n      swap1\n      dup2\n      mstore\n      0x20\n      add\n      0x00\n      keccak256\n        /* \"contracts/FakeProdId.sol\":2061:2087  return products[productId] */\n      mload(0x40)\n      dup1\n      0xc0\n      add\n      0x40\n      mstore\n      swap1\n      dup2\n      0x00\n      dup3\n      add\n      sload\n      dup2\n      mstore\n      0x20\n      add\n      0x01\n      dup3\n      add\n      dup1\n      sload\n      tag_225\n      swap1\n      tag_120\n      jump\t// in\n    tag_225:\n      dup1\n      0x1f\n      add\n      0x20\n      dup1\n      swap2\n      div\n      mul\n      0x20\n      add\n      mload(0x40)\n      swap1\n      dup2\n      add\n      0x40\n      mstore\n      dup1\n      swap3\n      swap2\n      swap1\n      dup2\n      dup2\n      mstore\n      0x20\n      add\n      dup3\n      dup1\n      sload\n      tag_226\n      swap1\n      tag_120\n      jump\t// in\n    tag_226:\n      dup1\n      iszero\n      tag_227\n      jumpi\n      dup1\n      0x1f\n      lt\n      tag_228\n      jumpi\n      0x0100\n      dup1\n      dup4\n      sload\n      div\n      mul\n      dup4\n      mstore\n      swap2\n      0x20\n      add\n      swap2\n      jump(tag_227)\n    tag_228:\n      dup3\n      add\n      swap2\n      swap1\n      0x00\n      mstore\n      keccak256(0x00, 0x20)\n      swap1\n    tag_229:\n      dup2\n      sload\n      dup2\n      mstore\n      swap1\n      0x01\n      add\n      swap1\n      0x20\n      add\n      dup1\n      dup4\n      gt\n      tag_229\n      jumpi\n      dup3\n      swap1\n      sub\n      0x1f\n      and\n      dup3\n      add\n      swap2\n    tag_227:\n      pop\n      pop\n      pop\n      pop\n      pop\n      dup2\n      mstore\n      0x20\n      add\n      0x02\n      dup3\n      add\n      sload\n      dup2\n      mstore\n      0x20\n      add\n      0x03\n      dup3\n      add\n      dup1\n      sload\n      tag_230\n      swap1\n      tag_120\n      jump\t// in\n    tag_230:\n      dup1\n      0x1f\n      add\n      0x20\n      dup1\n      swap2\n      div\n      mul\n      0x20\n      add\n      mload(0x40)\n      swap1\n      dup2\n      add\n      0x40\n      mstore\n      dup1\n      swap3\n      swap2\n      swap1\n      dup2\n      dup2\n      mstore\n      0x20\n      add\n      dup3\n      dup1\n      sload\n      tag_231\n      swap1\n      tag_120\n      jump\t// in\n    tag_231:\n      dup1\n      iszero\n      tag_232\n      jumpi\n      dup1\n      0x1f\n      lt\n      tag_233\n      jumpi\n      0x0100\n      dup1\n      dup4\n      sload\n      div\n      mul\n      dup4\n      mstore\n      swap2\n      0x20\n      add\n      swap2\n      jump(tag_232)\n    tag_233:\n      dup3\n      add\n      swap2\n      swap1\n      0x00\n      mstore\n      keccak256(0x00, 0x20)\n      swap1\n    tag_234:\n      dup2\n      sload\n      dup2\n      mstore\n      swap1\n      0x01\n      add\n      swap1\n      0x20\n      add\n      dup1\n      dup4\n      gt\n      tag_234\n      jumpi\n      dup3\n      swap1\n      sub\n      0x1f\n      and\n      dup3\n      add\n      swap2\n    tag_232:\n      pop\n      pop\n      pop\n      pop\n      pop\n      dup2\n      mstore\n      0x20\n      add\n      0x04\n      dup3\n      add\n      dup1\n      sload\n      tag_235\n      swap1\n      tag_120\n      jump\t// in\n    tag_235:\n      dup1\n      0x1f\n      add\n      0x20\n      dup1\n      swap2\n      div\n      mul\n      0x20\n      add\n      mload(0x40)\n      swap1\n      dup2\n      add\n      0x40\n      mstore\n      dup1\n      swap3\n      swap2\n      swap1\n      dup2\n      dup2\n      mstore\n      0x20\n      add\n      dup3\n      dup1\n      sload\n      tag_236\n      swap1\n      tag_120\n      jump\t// in\n    tag_236:\n      dup1\n      iszero\n      tag_237\n      jumpi\n      dup1\n      0x1f\n      lt\n      tag_238\n      jumpi\n      0x0100\n      dup1\n      dup4\n      sload\n      div\n      mul\n      dup4\n      mstore\n      swap2\n      0x20\n      add\n      swap2\n      jump(tag_237)\n    tag_238:\n      dup3\n      add\n      swap2\n      swap1\n      0x00\n      mstore\n      keccak256(0x00, 0x20)\n      swap1\n    tag_239:\n      dup2\n      sload\n      dup2\n      mstore\n      swap1\n      0x01\n      add\n      swap1\n      0x20\n      add\n      dup1\n      dup4\n      gt\n      tag_239\n      jumpi\n      dup3\n      swap1\n      sub\n      0x1f\n      and\n      dup3\n      add\n      swap2\n    tag_237:\n      pop\n      pop\n      pop\n      pop\n      pop\n      dup2\n      mstore\n      0x20\n      add\n      0x05\n      dup3\n      add\n      sload\n      dup2\n      mstore\n      pop\n      pop\n      swap1\n      pop\n        /* \"contracts/FakeProdId.sol\":1978:2095  function getProduct(uint productId) public view returns (Product memory){\r... */\n      swap2\n      swap1\n      pop\n      jump\t// out\n        /* \"contracts/FakeProdId.sol\":3160:3309  function getmanufacturerDetails(uint manufacturerId) public view returns (Manufacturer memory){\r... */\n    tag_82:\n        /* \"contracts/FakeProdId.sol\":3234:3253  Manufacturer memory */\n      tag_240\n      tag_196\n      jump\t// in\n    tag_240:\n        /* \"contracts/FakeProdId.sol\":3272:3285  manufacturers */\n      0x04\n        /* \"contracts/FakeProdId.sol\":3272:3301  manufacturers[manufacturerId] */\n      0x00\n        /* \"contracts/FakeProdId.sol\":3286:3300  manufacturerId */\n      dup4\n        /* \"contracts/FakeProdId.sol\":3272:3301  manufacturers[manufacturerId] */\n      dup2\n      mstore\n      0x20\n      add\n      swap1\n      dup2\n      mstore\n      0x20\n      add\n      0x00\n      keccak256\n        /* \"contracts/FakeProdId.sol\":3265:3301  return manufacturers[manufacturerId] */\n      mload(0x40)\n      dup1\n      0x80\n      add\n      0x40\n      mstore\n      swap1\n      dup2\n      0x00\n      dup3\n      add\n      sload\n      dup2\n      mstore\n      0x20\n      add\n      0x01\n      dup3\n      add\n      dup1\n      sload\n      tag_242\n      swap1\n      tag_120\n      jump\t// in\n    tag_242:\n      dup1\n      0x1f\n      add\n      0x20\n      dup1\n      swap2\n      div\n      mul\n      0x20\n      add\n      mload(0x40)\n      swap1\n      dup2\n      add\n      0x40\n      mstore\n      dup1\n      swap3\n      swap2\n      swap1\n      dup2\n      dup2\n      mstore\n      0x20\n      add\n      dup3\n      dup1\n      sload\n      tag_243\n      swap1\n      tag_120\n      jump\t// in\n    tag_243:\n      dup1\n      iszero\n      tag_244\n      jumpi\n      dup1\n      0x1f\n      lt\n      tag_245\n      jumpi\n      0x0100\n      dup1\n      dup4\n      sload\n      div\n      mul\n      dup4\n      mstore\n      swap2\n      0x20\n      add\n      swap2\n      jump(tag_244)\n    tag_245:\n      dup3\n      add\n      swap2\n      swap1\n      0x00\n      mstore\n      keccak256(0x00, 0x20)\n      swap1\n    tag_246:\n      dup2\n      sload\n      dup2\n      mstore\n      swap1\n      0x01\n      add\n      swap1\n      0x20\n      add\n      dup1\n      dup4\n      gt\n      tag_246\n      jumpi\n      dup3\n      swap1\n      sub\n      0x1f\n      and\n      dup3\n      add\n      swap2\n    tag_244:\n      pop\n      pop\n      pop\n      pop\n      pop\n      dup2\n      mstore\n      0x20\n      add\n      0x02\n      dup3\n      add\n      dup1\n      sload\n      tag_247\n      swap1\n      tag_120\n      jump\t// in\n    tag_247:\n      dup1\n      0x1f\n      add\n      0x20\n      dup1\n      swap2\n      div\n      mul\n      0x20\n      add\n      mload(0x40)\n      swap1\n      dup2\n      add\n      0x40\n      mstore\n      dup1\n      swap3\n      swap2\n      swap1\n      dup2\n      dup2\n      mstore\n      0x20\n      add\n      dup3\n      dup1\n      sload\n      tag_248\n      swap1\n      tag_120\n      jump\t// in\n    tag_248:\n      dup1\n      iszero\n      tag_249\n      jumpi\n      dup1\n      0x1f\n      lt\n      tag_250\n      jumpi\n      0x0100\n      dup1\n      dup4\n      sload\n      div\n      mul\n      dup4\n      mstore\n      swap2\n      0x20\n      add\n      swap2\n      jump(tag_249)\n    tag_250:\n      dup3\n      add\n      swap2\n      swap1\n      0x00\n      mstore\n      keccak256(0x00, 0x20)\n      swap1\n    tag_251:\n      dup2\n      sload\n      dup2\n      mstore\n      swap1\n      0x01\n      add\n      swap1\n      0x20\n      add\n      dup1\n      dup4\n      gt\n      tag_251\n      jumpi\n      dup3\n      swap1\n      sub\n      0x1f\n      and\n      dup3\n      add\n      swap2\n    tag_249:\n      pop\n      pop\n      pop\n      pop\n      pop\n      dup2\n      mstore\n      0x20\n      add\n      0x03\n      dup3\n      add\n      dup1\n      sload\n      dup1\n      0x20\n      mul\n      0x20\n      add\n      mload(0x40)\n      swap1\n      dup2\n      add\n      0x40\n      mstore\n      dup1\n      swap3\n      swap2\n      swap1\n      dup2\n      dup2\n      mstore\n      0x20\n      add\n      dup3\n      dup1\n      sload\n      dup1\n      iszero\n      tag_252\n      jumpi\n      0x20\n      mul\n      dup3\n      add\n      swap2\n      swap1\n      0x00\n      mstore\n      keccak256(0x00, 0x20)\n      swap1\n    tag_253:\n      dup2\n      sload\n      dup2\n      mstore\n      0x20\n      add\n      swap1\n      0x01\n      add\n      swap1\n      dup1\n      dup4\n      gt\n      tag_253\n      jumpi\n    tag_252:\n      pop\n      pop\n      pop\n      pop\n      pop\n      dup2\n      mstore\n      pop\n      pop\n      swap1\n      pop\n        /* \"contracts/FakeProdId.sol\":3160:3309  function getmanufacturerDetails(uint manufacturerId) public view returns (Manufacturer memory){\r... */\n      swap2\n      swap1\n      pop\n      jump\t// out\n        /* \"contracts/FakeProdId.sol\":4345:4474  function getretailerDetails(uint retailerId) public view returns (Retailer memory){\r... */\n    tag_87:\n        /* \"contracts/FakeProdId.sol\":4411:4426  Retailer memory */\n      tag_254\n      tag_216\n      jump\t// in\n    tag_254:\n        /* \"contracts/FakeProdId.sol\":4445:4454  retailers */\n      0x06\n        /* \"contracts/FakeProdId.sol\":4445:4466  retailers[retailerId] */\n      0x00\n        /* \"contracts/FakeProdId.sol\":4455:4465  retailerId */\n      dup4\n        /* \"contracts/FakeProdId.sol\":4445:4466  retailers[retailerId] */\n      dup2\n      mstore\n      0x20\n      add\n      swap1\n      dup2\n      mstore\n      0x20\n      add\n      0x00\n      keccak256\n        /* \"contracts/FakeProdId.sol\":4438:4466  return retailers[retailerId] */\n      mload(0x40)\n      dup1\n      0x60\n      add\n      0x40\n      mstore\n      swap1\n      dup2\n      0x00\n      dup3\n      add\n      sload\n      dup2\n      mstore\n      0x20\n      add\n      0x01\n      dup3\n      add\n      dup1\n      sload\n      tag_256\n      swap1\n      tag_120\n      jump\t// in\n    tag_256:\n      dup1\n      0x1f\n      add\n      0x20\n      dup1\n      swap2\n      div\n      mul\n      0x20\n      add\n      mload(0x40)\n      swap1\n      dup2\n      add\n      0x40\n      mstore\n      dup1\n      swap3\n      swap2\n      swap1\n      dup2\n      dup2\n      mstore\n      0x20\n      add\n      dup3\n      dup1\n      sload\n      tag_257\n      swap1\n      tag_120\n      jump\t// in\n    tag_257:\n      dup1\n      iszero\n      tag_258\n      jumpi\n      dup1\n      0x1f\n      lt\n      tag_259\n      jumpi\n      0x0100\n      dup1\n      dup4\n      sload\n      div\n      mul\n      dup4\n      mstore\n      swap2\n      0x20\n      add\n      swap2\n      jump(tag_258)\n    tag_259:\n      dup3\n      add\n      swap2\n      swap1\n      0x00\n      mstore\n      keccak256(0x00, 0x20)\n      swap1\n    tag_260:\n      dup2\n      sload\n      dup2\n      mstore\n      swap1\n      0x01\n      add\n      swap1\n      0x20\n      add\n      dup1\n      dup4\n      gt\n      tag_260\n      jumpi\n      dup3\n      swap1\n      sub\n      0x1f\n      and\n      dup3\n      add\n      swap2\n    tag_258:\n      pop\n      pop\n      pop\n      pop\n      pop\n      dup2\n      mstore\n      0x20\n      add\n      0x02\n      dup3\n      add\n      dup1\n      sload\n      dup1\n      0x20\n      mul\n      0x20\n      add\n      mload(0x40)\n      swap1\n      dup2\n      add\n      0x40\n      mstore\n      dup1\n      swap3\n      swap2\n      swap1\n      dup2\n      dup2\n      mstore\n      0x20\n      add\n      dup3\n      dup1\n      sload\n      dup1\n      iszero\n      tag_261\n      jumpi\n      0x20\n      mul\n      dup3\n      add\n      swap2\n      swap1\n      0x00\n      mstore\n      keccak256(0x00, 0x20)\n      swap1\n    tag_262:\n      dup2\n      sload\n      dup2\n      mstore\n      0x20\n      add\n      swap1\n      0x01\n      add\n      swap1\n      dup1\n      dup4\n      gt\n      tag_262\n      jumpi\n    tag_261:\n      pop\n      pop\n      pop\n      pop\n      pop\n      dup2\n      mstore\n      pop\n      pop\n      swap1\n      pop\n        /* \"contracts/FakeProdId.sol\":4345:4474  function getretailerDetails(uint retailerId) public view returns (Retailer memory){\r... */\n      swap2\n      swap1\n      pop\n      jump\t// out\n        /* \"contracts/FakeProdId.sol\":937:979  mapping(uint => Supplier) public suppliers */\n    tag_92:\n      mstore(0x20, 0x03)\n      dup1\n      0x00\n      mstore\n      keccak256(0x00, 0x40)\n      0x00\n      swap2\n      pop\n      swap1\n      pop\n      dup1\n      0x00\n      add\n      sload\n      swap1\n      dup1\n      0x01\n      add\n      dup1\n      sload\n      tag_263\n      swap1\n      tag_120\n      jump\t// in\n    tag_263:\n      dup1\n      0x1f\n      add\n      0x20\n      dup1\n      swap2\n      div\n      mul\n      0x20\n      add\n      mload(0x40)\n      swap1\n      dup2\n      add\n      0x40\n      mstore\n      dup1\n      swap3\n      swap2\n      swap1\n      dup2\n      dup2\n      mstore\n      0x20\n      add\n      dup3\n      dup1\n      sload\n      tag_264\n      swap1\n      tag_120\n      jump\t// in\n    tag_264:\n      dup1\n      iszero\n      tag_265\n      jumpi\n      dup1\n      0x1f\n      lt\n      tag_266\n      jumpi\n      0x0100\n      dup1\n      dup4\n      sload\n      div\n      mul\n      dup4\n      mstore\n      swap2\n      0x20\n      add\n      swap2\n      jump(tag_265)\n    tag_266:\n      dup3\n      add\n      swap2\n      swap1\n      0x00\n      mstore\n      keccak256(0x00, 0x20)\n      swap1\n    tag_267:\n      dup2\n      sload\n      dup2\n      mstore\n      swap1\n      0x01\n      add\n      swap1\n      0x20\n      add\n      dup1\n      dup4\n      gt\n      tag_267\n      jumpi\n      dup3\n      swap1\n      sub\n      0x1f\n      and\n      dup3\n      add\n      swap2\n    tag_265:\n      pop\n      pop\n      pop\n      pop\n      pop\n      swap1\n      dup1\n      0x02\n      add\n      dup1\n      sload\n      tag_268\n      swap1\n      tag_120\n      jump\t// in\n    tag_268:\n      dup1\n      0x1f\n      add\n      0x20\n      dup1\n      swap2\n      div\n      mul\n      0x20\n      add\n      mload(0x40)\n      swap1\n      dup2\n      add\n      0x40\n      mstore\n      dup1\n      swap3\n      swap2\n      swap1\n      dup2\n      dup2\n      mstore\n      0x20\n      add\n      dup3\n      dup1\n      sload\n      tag_269\n      swap1\n      tag_120\n      jump\t// in\n    tag_269:\n      dup1\n      iszero\n      tag_270\n      jumpi\n      dup1\n      0x1f\n      lt\n      tag_271\n      jumpi\n      0x0100\n      dup1\n      dup4\n      sload\n      div\n      mul\n      dup4\n      mstore\n      swap2\n      0x20\n      add\n      swap2\n      jump(tag_270)\n    tag_271:\n      dup3\n      add\n      swap2\n      swap1\n      0x00\n      mstore\n      keccak256(0x00, 0x20)\n      swap1\n    tag_272:\n      dup2\n      sload\n      dup2\n      mstore\n      swap1\n      0x01\n      add\n      swap1\n      0x20\n      add\n      dup1\n      dup4\n      gt\n      tag_272\n      jumpi\n      dup3\n      swap1\n      sub\n      0x1f\n      and\n      dup3\n      add\n      swap2\n    tag_270:\n      pop\n      pop\n      pop\n      pop\n      pop\n      swap1\n      pop\n      dup4\n      jump\t// out\n        /* \"contracts/FakeProdId.sol\":4482:4571  function transferOwnership(uint ProductId,uint curOwnerId,uint newOwnerId) public{\r... */\n    tag_97:\n      pop\n      pop\n      pop\n      jump\t// out\n        /* \"contracts/FakeProdId.sol\":1713:1970  function returnProducts() public view returns(Product[] memory){\r... */\n    tag_99:\n        /* \"contracts/FakeProdId.sol\":1759:1775  Product[] memory */\n      0x60\n        /* \"contracts/FakeProdId.sol\":1787:1807  Product[] memory ret */\n      dup1\n        /* \"contracts/FakeProdId.sol\":1818:1824  uint i */\n      0x00\n        /* \"contracts/FakeProdId.sol\":1843:1849  uint j */\n      dup1\n        /* \"contracts/FakeProdId.sol\":1839:1942  for(uint j = 0; j < productsSize; j++){\r... */\n    tag_275:\n        /* \"contracts/FakeProdId.sol\":1859:1871  productsSize */\n      sload(0x02)\n        /* \"contracts/FakeProdId.sol\":1855:1856  j */\n      dup2\n        /* \"contracts/FakeProdId.sol\":1855:1871  j < productsSize */\n      lt\n        /* \"contracts/FakeProdId.sol\":1839:1942  for(uint j = 0; j < productsSize; j++){\r... */\n      iszero\n      tag_276\n      jumpi\n        /* \"contracts/FakeProdId.sol\":1901:1909  products */\n      0x01\n        /* \"contracts/FakeProdId.sol\":1901:1912  products[j] */\n      0x00\n        /* \"contracts/FakeProdId.sol\":1910:1911  j */\n      dup3\n        /* \"contracts/FakeProdId.sol\":1901:1912  products[j] */\n      dup2\n      mstore\n      0x20\n      add\n      swap1\n      dup2\n      mstore\n      0x20\n      add\n      0x00\n      keccak256\n        /* \"contracts/FakeProdId.sol\":1892:1912  ret[i] = products[j] */\n      mload(0x40)\n      dup1\n      0xc0\n      add\n      0x40\n      mstore\n      swap1\n      dup2\n      0x00\n      dup3\n      add\n      sload\n      dup2\n      mstore\n      0x20\n      add\n      0x01\n      dup3\n      add\n      dup1\n      sload\n      tag_278\n      swap1\n      tag_120\n      jump\t// in\n    tag_278:\n      dup1\n      0x1f\n      add\n      0x20\n      dup1\n      swap2\n      div\n      mul\n      0x20\n      add\n      mload(0x40)\n      swap1\n      dup2\n      add\n      0x40\n      mstore\n      dup1\n      swap3\n      swap2\n      swap1\n      dup2\n      dup2\n      mstore\n      0x20\n      add\n      dup3\n      dup1\n      sload\n      tag_279\n      swap1\n      tag_120\n      jump\t// in\n    tag_279:\n      dup1\n      iszero\n      tag_280\n      jumpi\n      dup1\n      0x1f\n      lt\n      tag_281\n      jumpi\n      0x0100\n      dup1\n      dup4\n      sload\n      div\n      mul\n      dup4\n      mstore\n      swap2\n      0x20\n      add\n      swap2\n      jump(tag_280)\n    tag_281:\n      dup3\n      add\n      swap2\n      swap1\n      0x00\n      mstore\n      keccak256(0x00, 0x20)\n      swap1\n    tag_282:\n      dup2\n      sload\n      dup2\n      mstore\n      swap1\n      0x01\n      add\n      swap1\n      0x20\n      add\n      dup1\n      dup4\n      gt\n      tag_282\n      jumpi\n      dup3\n      swap1\n      sub\n      0x1f\n      and\n      dup3\n      add\n      swap2\n    tag_280:\n      pop\n      pop\n      pop\n      pop\n      pop\n      dup2\n      mstore\n      0x20\n      add\n      0x02\n      dup3\n      add\n      sload\n      dup2\n      mstore\n      0x20\n      add\n      0x03\n      dup3\n      add\n      dup1\n      sload\n      tag_283\n      swap1\n      tag_120\n      jump\t// in\n    tag_283:\n      dup1\n      0x1f\n      add\n      0x20\n      dup1\n      swap2\n      div\n      mul\n      0x20\n      add\n      mload(0x40)\n      swap1\n      dup2\n      add\n      0x40\n      mstore\n      dup1\n      swap3\n      swap2\n      swap1\n      dup2\n      dup2\n      mstore\n      0x20\n      add\n      dup3\n      dup1\n      sload\n      tag_284\n      swap1\n      tag_120\n      jump\t// in\n    tag_284:\n      dup1\n      iszero\n      tag_285\n      jumpi\n      dup1\n      0x1f\n      lt\n      tag_286\n      jumpi\n      0x0100\n      dup1\n      dup4\n      sload\n      div\n      mul\n      dup4\n      mstore\n      swap2\n      0x20\n      add\n      swap2\n      jump(tag_285)\n    tag_286:\n      dup3\n      add\n      swap2\n      swap1\n      0x00\n      mstore\n      keccak256(0x00, 0x20)\n      swap1\n    tag_287:\n      dup2\n      sload\n      dup2\n      mstore\n      swap1\n      0x01\n      add\n      swap1\n      0x20\n      add\n      dup1\n      dup4\n      gt\n      tag_287\n      jumpi\n      dup3\n      swap1\n      sub\n      0x1f\n      and\n      dup3\n      add\n      swap2\n    tag_285:\n      pop\n      pop\n      pop\n      pop\n      pop\n      dup2\n      mstore\n      0x20\n      add\n      0x04\n      dup3\n      add\n      dup1\n      sload\n      tag_288\n      swap1\n      tag_120\n      jump\t// in\n    tag_288:\n      dup1\n      0x1f\n      add\n      0x20\n      dup1\n      swap2\n      div\n      mul\n      0x20\n      add\n      mload(0x40)\n      swap1\n      dup2\n      add\n      0x40\n      mstore\n      dup1\n      swap3\n      swap2\n      swap1\n      dup2\n      dup2\n      mstore\n      0x20\n      add\n      dup3\n      dup1\n      sload\n      tag_289\n      swap1\n      tag_120\n      jump\t// in\n    tag_289:\n      dup1\n      iszero\n      tag_290\n      jumpi\n      dup1\n      0x1f\n      lt\n      tag_291\n      jumpi\n      0x0100\n      dup1\n      dup4\n      sload\n      div\n      mul\n      dup4\n      mstore\n      swap2\n      0x20\n      add\n      swap2\n      jump(tag_290)\n    tag_291:\n      dup3\n      add\n      swap2\n      swap1\n      0x00\n      mstore\n      keccak256(0x00, 0x20)\n      swap1\n    tag_292:\n      dup2\n      sload\n      dup2\n      mstore\n      swap1\n      0x01\n      add\n      swap1\n      0x20\n      add\n      dup1\n      dup4\n      gt\n      tag_292\n      jumpi\n      dup3\n      swap1\n      sub\n      0x1f\n      and\n      dup3\n      add\n      swap2\n    tag_290:\n      pop\n      pop\n      pop\n      pop\n      pop\n      dup2\n      mstore\n      0x20\n      add\n      0x05\n      dup3\n      add\n      sload\n      dup2\n      mstore\n      pop\n      pop\n        /* \"contracts/FakeProdId.sol\":1892:1895  ret */\n      dup4\n        /* \"contracts/FakeProdId.sol\":1896:1897  i */\n      dup4\n        /* \"contracts/FakeProdId.sol\":1892:1898  ret[i] */\n      dup2\n      mload\n      dup2\n      lt\n      tag_293\n      jumpi\n      tag_294\n      tag_295\n      jump\t// in\n    tag_294:\n    tag_293:\n      0x20\n      mul\n      0x20\n      add\n      add\n        /* \"contracts/FakeProdId.sol\":1892:1912  ret[i] = products[j] */\n      dup2\n      swap1\n      mstore\n      pop\n        /* \"contracts/FakeProdId.sol\":1927:1930  i++ */\n      dup2\n      dup1\n      tag_296\n      swap1\n      tag_193\n      jump\t// in\n    tag_296:\n      swap3\n      pop\n      pop\n        /* \"contracts/FakeProdId.sol\":1873:1876  j++ */\n      dup1\n      dup1\n      tag_297\n      swap1\n      tag_193\n      jump\t// in\n    tag_297:\n      swap2\n      pop\n      pop\n        /* \"contracts/FakeProdId.sol\":1839:1942  for(uint j = 0; j < productsSize; j++){\r... */\n      jump(tag_275)\n    tag_276:\n      pop\n        /* \"contracts/FakeProdId.sol\":1959:1962  ret */\n      dup2\n        /* \"contracts/FakeProdId.sol\":1952:1962  return ret */\n      swap3\n      pop\n      pop\n      pop\n        /* \"contracts/FakeProdId.sol\":1713:1970  function returnProducts() public view returns(Product[] memory){\r... */\n      swap1\n      jump\t// out\n    tag_104:\n      mload(0x40)\n      dup1\n      0x80\n      add\n      0x40\n      mstore\n      dup1\n      0x00\n      dup2\n      mstore\n      0x20\n      add\n      0x60\n      dup2\n      mstore\n      0x20\n      add\n      0x60\n      dup2\n      mstore\n      0x20\n      add\n      0x60\n      dup2\n      mstore\n      pop\n      swap1\n      jump\t// out\n    tag_112:\n      dup3\n      dup1\n      sload\n      tag_298\n      swap1\n      tag_120\n      jump\t// in\n    tag_298:\n      swap1\n      0x00\n      mstore\n      keccak256(0x00, 0x20)\n      swap1\n      0x1f\n      add\n      0x20\n      swap1\n      div\n      dup2\n      add\n      swap3\n      dup3\n      tag_300\n      jumpi\n      0x00\n      dup6\n      sstore\n      jump(tag_299)\n    tag_300:\n      dup3\n      0x1f\n      lt\n      tag_301\n      jumpi\n      dup1\n      mload\n      not(0xff)\n      and\n      dup4\n      dup1\n      add\n      or\n      dup6\n      sstore\n      jump(tag_299)\n    tag_301:\n      dup3\n      dup1\n      add\n      0x01\n      add\n      dup6\n      sstore\n      dup3\n      iszero\n      tag_299\n      jumpi\n      swap2\n      dup3\n      add\n    tag_302:\n      dup3\n      dup2\n      gt\n      iszero\n      tag_303\n      jumpi\n      dup3\n      mload\n      dup3\n      sstore\n      swap2\n      0x20\n      add\n      swap2\n      swap1\n      0x01\n      add\n      swap1\n      jump(tag_302)\n    tag_303:\n    tag_299:\n      pop\n      swap1\n      pop\n      tag_304\n      swap2\n      swap1\n      tag_305\n      jump\t// in\n    tag_304:\n      pop\n      swap1\n      jump\t// out\n    tag_115:\n      dup3\n      dup1\n      sload\n      dup3\n      dup3\n      sstore\n      swap1\n      0x00\n      mstore\n      keccak256(0x00, 0x20)\n      swap1\n      dup2\n      add\n      swap3\n      dup3\n      iszero\n      tag_306\n      jumpi\n      swap2\n      0x20\n      mul\n      dup3\n      add\n    tag_307:\n      dup3\n      dup2\n      gt\n      iszero\n      tag_308\n      jumpi\n      dup3\n      mload\n      dup3\n      sstore\n      swap2\n      0x20\n      add\n      swap2\n      swap1\n      0x01\n      add\n      swap1\n      jump(tag_307)\n    tag_308:\n    tag_306:\n      pop\n      swap1\n      pop\n      tag_309\n      swap2\n      swap1\n      tag_305\n      jump\t// in\n    tag_309:\n      pop\n      swap1\n      jump\t// out\n    tag_117:\n      mload(0x40)\n      dup1\n      0x80\n      add\n      0x40\n      mstore\n      dup1\n      0x00\n      dup2\n      mstore\n      0x20\n      add\n      0x60\n      dup2\n      mstore\n      0x20\n      add\n      0x60\n      dup2\n      mstore\n      0x20\n      add\n      0x60\n      dup2\n      mstore\n      pop\n      swap1\n      jump\t// out\n    tag_187:\n      mload(0x40)\n      dup1\n      0xc0\n      add\n      0x40\n      mstore\n      dup1\n      0x00\n      dup2\n      mstore\n      0x20\n      add\n      0x60\n      dup2\n      mstore\n      0x20\n      add\n      0x00\n      dup2\n      mstore\n      0x20\n      add\n      0x60\n      dup2\n      mstore\n      0x20\n      add\n      0x60\n      dup2\n      mstore\n      0x20\n      add\n      0x00\n      dup2\n      mstore\n      pop\n      swap1\n      jump\t// out\n    tag_196:\n      mload(0x40)\n      dup1\n      0x80\n      add\n      0x40\n      mstore\n      dup1\n      0x00\n      dup2\n      mstore\n      0x20\n      add\n      0x60\n      dup2\n      mstore\n      0x20\n      add\n      0x60\n      dup2\n      mstore\n      0x20\n      add\n      0x60\n      dup2\n      mstore\n      pop\n      swap1\n      jump\t// out\n    tag_216:\n      mload(0x40)\n      dup1\n      0x60\n      add\n      0x40\n      mstore\n      dup1\n      0x00\n      dup2\n      mstore\n      0x20\n      add\n      0x60\n      dup2\n      mstore\n      0x20\n      add\n      0x60\n      dup2\n      mstore\n      pop\n      swap1\n      jump\t// out\n    tag_305:\n    tag_310:\n      dup1\n      dup3\n      gt\n      iszero\n      tag_311\n      jumpi\n      0x00\n      dup2\n      0x00\n      swap1\n      sstore\n      pop\n      0x01\n      add\n      jump(tag_310)\n    tag_311:\n      pop\n      swap1\n      jump\t// out\n        /* \"#utility.yul\":7:419   */\n    tag_313:\n        /* \"#utility.yul\":85:90   */\n      0x00\n        /* \"#utility.yul\":110:176   */\n      tag_315\n        /* \"#utility.yul\":126:175   */\n      tag_316\n        /* \"#utility.yul\":168:174   */\n      dup5\n        /* \"#utility.yul\":126:175   */\n      tag_317\n      jump\t// in\n    tag_316:\n        /* \"#utility.yul\":110:176   */\n      tag_318\n      jump\t// in\n    tag_315:\n        /* \"#utility.yul\":101:176   */\n      swap1\n      pop\n        /* \"#utility.yul\":199:205   */\n      dup3\n        /* \"#utility.yul\":192:197   */\n      dup2\n        /* \"#utility.yul\":185:206   */\n      mstore\n        /* \"#utility.yul\":237:241   */\n      0x20\n        /* \"#utility.yul\":230:235   */\n      dup2\n        /* \"#utility.yul\":226:242   */\n      add\n        /* \"#utility.yul\":275:278   */\n      dup5\n        /* \"#utility.yul\":266:272   */\n      dup5\n        /* \"#utility.yul\":261:264   */\n      dup5\n        /* \"#utility.yul\":257:273   */\n      add\n        /* \"#utility.yul\":254:279   */\n      gt\n        /* \"#utility.yul\":251:363   */\n      iszero\n      tag_319\n      jumpi\n        /* \"#utility.yul\":282:361   */\n      tag_320\n      tag_321\n      jump\t// in\n    tag_320:\n        /* \"#utility.yul\":251:363   */\n    tag_319:\n        /* \"#utility.yul\":372:413   */\n      tag_322\n        /* \"#utility.yul\":406:412   */\n      dup5\n        /* \"#utility.yul\":401:404   */\n      dup3\n        /* \"#utility.yul\":396:399   */\n      dup6\n        /* \"#utility.yul\":372:413   */\n      tag_323\n      jump\t// in\n    tag_322:\n        /* \"#utility.yul\":91:419   */\n      pop\n        /* \"#utility.yul\":7:419   */\n      swap4\n      swap3\n      pop\n      pop\n      pop\n      jump\t// out\n        /* \"#utility.yul\":439:779   */\n    tag_324:\n        /* \"#utility.yul\":495:500   */\n      0x00\n        /* \"#utility.yul\":544:547   */\n      dup3\n        /* \"#utility.yul\":537:541   */\n      0x1f\n        /* \"#utility.yul\":529:535   */\n      dup4\n        /* \"#utility.yul\":525:542   */\n      add\n        /* \"#utility.yul\":521:548   */\n      slt\n        /* \"#utility.yul\":511:633   */\n      tag_326\n      jumpi\n        /* \"#utility.yul\":552:631   */\n      tag_327\n      tag_328\n      jump\t// in\n    tag_327:\n        /* \"#utility.yul\":511:633   */\n    tag_326:\n        /* \"#utility.yul\":669:675   */\n      dup2\n        /* \"#utility.yul\":656:676   */\n      calldataload\n        /* \"#utility.yul\":694:773   */\n      tag_329\n        /* \"#utility.yul\":769:772   */\n      dup5\n        /* \"#utility.yul\":761:767   */\n      dup3\n        /* \"#utility.yul\":754:758   */\n      0x20\n        /* \"#utility.yul\":746:752   */\n      dup7\n        /* \"#utility.yul\":742:759   */\n      add\n        /* \"#utility.yul\":694:773   */\n      tag_313\n      jump\t// in\n    tag_329:\n        /* \"#utility.yul\":685:773   */\n      swap2\n      pop\n        /* \"#utility.yul\":501:779   */\n      pop\n        /* \"#utility.yul\":439:779   */\n      swap3\n      swap2\n      pop\n      pop\n      jump\t// out\n        /* \"#utility.yul\":785:924   */\n    tag_330:\n        /* \"#utility.yul\":831:836   */\n      0x00\n        /* \"#utility.yul\":869:875   */\n      dup2\n        /* \"#utility.yul\":856:876   */\n      calldataload\n        /* \"#utility.yul\":847:876   */\n      swap1\n      pop\n        /* \"#utility.yul\":885:918   */\n      tag_332\n        /* \"#utility.yul\":912:917   */\n      dup2\n        /* \"#utility.yul\":885:918   */\n      tag_333\n      jump\t// in\n    tag_332:\n        /* \"#utility.yul\":785:924   */\n      swap3\n      swap2\n      pop\n      pop\n      jump\t// out\n        /* \"#utility.yul\":930:1439   */\n    tag_25:\n        /* \"#utility.yul\":999:1005   */\n      0x00\n        /* \"#utility.yul\":1048:1050   */\n      0x20\n        /* \"#utility.yul\":1036:1045   */\n      dup3\n        /* \"#utility.yul\":1027:1034   */\n      dup5\n        /* \"#utility.yul\":1023:1046   */\n      sub\n        /* \"#utility.yul\":1019:1051   */\n      slt\n        /* \"#utility.yul\":1016:1135   */\n      iszero\n      tag_335\n      jumpi\n        /* \"#utility.yul\":1054:1133   */\n      tag_336\n      tag_337\n      jump\t// in\n    tag_336:\n        /* \"#utility.yul\":1016:1135   */\n    tag_335:\n        /* \"#utility.yul\":1202:1203   */\n      0x00\n        /* \"#utility.yul\":1191:1200   */\n      dup3\n        /* \"#utility.yul\":1187:1204   */\n      add\n        /* \"#utility.yul\":1174:1205   */\n      calldataload\n        /* \"#utility.yul\":1232:1250   */\n      0xffffffffffffffff\n        /* \"#utility.yul\":1224:1230   */\n      dup2\n        /* \"#utility.yul\":1221:1251   */\n      gt\n        /* \"#utility.yul\":1218:1335   */\n      iszero\n      tag_338\n      jumpi\n        /* \"#utility.yul\":1254:1333   */\n      tag_339\n      tag_340\n      jump\t// in\n    tag_339:\n        /* \"#utility.yul\":1218:1335   */\n    tag_338:\n        /* \"#utility.yul\":1359:1422   */\n      tag_341\n        /* \"#utility.yul\":1414:1421   */\n      dup5\n        /* \"#utility.yul\":1405:1411   */\n      dup3\n        /* \"#utility.yul\":1394:1403   */\n      dup6\n        /* \"#utility.yul\":1390:1412   */\n      add\n        /* \"#utility.yul\":1359:1422   */\n      tag_324\n      jump\t// in\n    tag_341:\n        /* \"#utility.yul\":1349:1422   */\n      swap2\n      pop\n        /* \"#utility.yul\":1145:1432   */\n      pop\n        /* \"#utility.yul\":930:1439   */\n      swap3\n      swap2\n      pop\n      pop\n      jump\t// out\n        /* \"#utility.yul\":1445:2424   */\n    tag_61:\n        /* \"#utility.yul\":1542:1548   */\n      0x00\n        /* \"#utility.yul\":1550:1556   */\n      dup1\n        /* \"#utility.yul\":1558:1564   */\n      0x00\n        /* \"#utility.yul\":1607:1609   */\n      0x60\n        /* \"#utility.yul\":1595:1604   */\n      dup5\n        /* \"#utility.yul\":1586:1593   */\n      dup7\n        /* \"#utility.yul\":1582:1605   */\n      sub\n        /* \"#utility.yul\":1578:1610   */\n      slt\n        /* \"#utility.yul\":1575:1694   */\n      iszero\n      tag_343\n      jumpi\n        /* \"#utility.yul\":1613:1692   */\n      tag_344\n      tag_337\n      jump\t// in\n    tag_344:\n        /* \"#utility.yul\":1575:1694   */\n    tag_343:\n        /* \"#utility.yul\":1761:1762   */\n      0x00\n        /* \"#utility.yul\":1750:1759   */\n      dup5\n        /* \"#utility.yul\":1746:1763   */\n      add\n        /* \"#utility.yul\":1733:1764   */\n      calldataload\n        /* \"#utility.yul\":1791:1809   */\n      0xffffffffffffffff\n        /* \"#utility.yul\":1783:1789   */\n      dup2\n        /* \"#utility.yul\":1780:1810   */\n      gt\n        /* \"#utility.yul\":1777:1894   */\n      iszero\n      tag_345\n      jumpi\n        /* \"#utility.yul\":1813:1892   */\n      tag_346\n      tag_340\n      jump\t// in\n    tag_346:\n        /* \"#utility.yul\":1777:1894   */\n    tag_345:\n        /* \"#utility.yul\":1918:1981   */\n      tag_347\n        /* \"#utility.yul\":1973:1980   */\n      dup7\n        /* \"#utility.yul\":1964:1970   */\n      dup3\n        /* \"#utility.yul\":1953:1962   */\n      dup8\n        /* \"#utility.yul\":1949:1971   */\n      add\n        /* \"#utility.yul\":1918:1981   */\n      tag_324\n      jump\t// in\n    tag_347:\n        /* \"#utility.yul\":1908:1981   */\n      swap4\n      pop\n        /* \"#utility.yul\":1704:1991   */\n      pop\n        /* \"#utility.yul\":2030:2032   */\n      0x20\n        /* \"#utility.yul\":2056:2109   */\n      tag_348\n        /* \"#utility.yul\":2101:2108   */\n      dup7\n        /* \"#utility.yul\":2092:2098   */\n      dup3\n        /* \"#utility.yul\":2081:2090   */\n      dup8\n        /* \"#utility.yul\":2077:2099   */\n      add\n        /* \"#utility.yul\":2056:2109   */\n      tag_330\n      jump\t// in\n    tag_348:\n        /* \"#utility.yul\":2046:2109   */\n      swap3\n      pop\n        /* \"#utility.yul\":2001:2119   */\n      pop\n        /* \"#utility.yul\":2186:2188   */\n      0x40\n        /* \"#utility.yul\":2175:2184   */\n      dup5\n        /* \"#utility.yul\":2171:2189   */\n      add\n        /* \"#utility.yul\":2158:2190   */\n      calldataload\n        /* \"#utility.yul\":2217:2235   */\n      0xffffffffffffffff\n        /* \"#utility.yul\":2209:2215   */\n      dup2\n        /* \"#utility.yul\":2206:2236   */\n      gt\n        /* \"#utility.yul\":2203:2320   */\n      iszero\n      tag_349\n      jumpi\n        /* \"#utility.yul\":2239:2318   */\n      tag_350\n      tag_340\n      jump\t// in\n    tag_350:\n        /* \"#utility.yul\":2203:2320   */\n    tag_349:\n        /* \"#utility.yul\":2344:2407   */\n      tag_351\n        /* \"#utility.yul\":2399:2406   */\n      dup7\n        /* \"#utility.yul\":2390:2396   */\n      dup3\n        /* \"#utility.yul\":2379:2388   */\n      dup8\n        /* \"#utility.yul\":2375:2397   */\n      add\n        /* \"#utility.yul\":2344:2407   */\n      tag_324\n      jump\t// in\n    tag_351:\n        /* \"#utility.yul\":2334:2407   */\n      swap2\n      pop\n        /* \"#utility.yul\":2129:2417   */\n      pop\n        /* \"#utility.yul\":1445:2424   */\n      swap3\n      pop\n      swap3\n      pop\n      swap3\n      jump\t// out\n        /* \"#utility.yul\":2430:2759   */\n    tag_31:\n        /* \"#utility.yul\":2489:2495   */\n      0x00\n        /* \"#utility.yul\":2538:2540   */\n      0x20\n        /* \"#utility.yul\":2526:2535   */\n      dup3\n        /* \"#utility.yul\":2517:2524   */\n      dup5\n        /* \"#utility.yul\":2513:2536   */\n      sub\n        /* \"#utility.yul\":2509:2541   */\n      slt\n        /* \"#utility.yul\":2506:2625   */\n      iszero\n      tag_353\n      jumpi\n        /* \"#utility.yul\":2544:2623   */\n      tag_354\n      tag_337\n      jump\t// in\n    tag_354:\n        /* \"#utility.yul\":2506:2625   */\n    tag_353:\n        /* \"#utility.yul\":2664:2665   */\n      0x00\n        /* \"#utility.yul\":2689:2742   */\n      tag_355\n        /* \"#utility.yul\":2734:2741   */\n      dup5\n        /* \"#utility.yul\":2725:2731   */\n      dup3\n        /* \"#utility.yul\":2714:2723   */\n      dup6\n        /* \"#utility.yul\":2710:2732   */\n      add\n        /* \"#utility.yul\":2689:2742   */\n      tag_330\n      jump\t// in\n    tag_355:\n        /* \"#utility.yul\":2679:2742   */\n      swap2\n      pop\n        /* \"#utility.yul\":2635:2752   */\n      pop\n        /* \"#utility.yul\":2430:2759   */\n      swap3\n      swap2\n      pop\n      pop\n      jump\t// out\n        /* \"#utility.yul\":2765:3384   */\n    tag_96:\n        /* \"#utility.yul\":2842:2848   */\n      0x00\n        /* \"#utility.yul\":2850:2856   */\n      dup1\n        /* \"#utility.yul\":2858:2864   */\n      0x00\n        /* \"#utility.yul\":2907:2909   */\n      0x60\n        /* \"#utility.yul\":2895:2904   */\n      dup5\n        /* \"#utility.yul\":2886:2893   */\n      dup7\n        /* \"#utility.yul\":2882:2905   */\n      sub\n        /* \"#utility.yul\":2878:2910   */\n      slt\n        /* \"#utility.yul\":2875:2994   */\n      iszero\n      tag_357\n      jumpi\n        /* \"#utility.yul\":2913:2992   */\n      tag_358\n      tag_337\n      jump\t// in\n    tag_358:\n        /* \"#utility.yul\":2875:2994   */\n    tag_357:\n        /* \"#utility.yul\":3033:3034   */\n      0x00\n        /* \"#utility.yul\":3058:3111   */\n      tag_359\n        /* \"#utility.yul\":3103:3110   */\n      dup7\n        /* \"#utility.yul\":3094:3100   */\n      dup3\n        /* \"#utility.yul\":3083:3092   */\n      dup8\n        /* \"#utility.yul\":3079:3101   */\n      add\n        /* \"#utility.yul\":3058:3111   */\n      tag_330\n      jump\t// in\n    tag_359:\n        /* \"#utility.yul\":3048:3111   */\n      swap4\n      pop\n        /* \"#utility.yul\":3004:3121   */\n      pop\n        /* \"#utility.yul\":3160:3162   */\n      0x20\n        /* \"#utility.yul\":3186:3239   */\n      tag_360\n        /* \"#utility.yul\":3231:3238   */\n      dup7\n        /* \"#utility.yul\":3222:3228   */\n      dup3\n        /* \"#utility.yul\":3211:3220   */\n      dup8\n        /* \"#utility.yul\":3207:3229   */\n      add\n        /* \"#utility.yul\":3186:3239   */\n      tag_330\n      jump\t// in\n    tag_360:\n        /* \"#utility.yul\":3176:3239   */\n      swap3\n      pop\n        /* \"#utility.yul\":3131:3249   */\n      pop\n        /* \"#utility.yul\":3288:3290   */\n      0x40\n        /* \"#utility.yul\":3314:3367   */\n      tag_361\n        /* \"#utility.yul\":3359:3366   */\n      dup7\n        /* \"#utility.yul\":3350:3356   */\n      dup3\n        /* \"#utility.yul\":3339:3348   */\n      dup8\n        /* \"#utility.yul\":3335:3357   */\n      add\n        /* \"#utility.yul\":3314:3367   */\n      tag_330\n      jump\t// in\n    tag_361:\n        /* \"#utility.yul\":3304:3367   */\n      swap2\n      pop\n        /* \"#utility.yul\":3259:3377   */\n      pop\n        /* \"#utility.yul\":2765:3384   */\n      swap3\n      pop\n      swap3\n      pop\n      swap3\n      jump\t// out\n        /* \"#utility.yul\":3390:3638   */\n    tag_362:\n        /* \"#utility.yul\":3505:3515   */\n      0x00\n        /* \"#utility.yul\":3540:3632   */\n      tag_364\n        /* \"#utility.yul\":3628:3631   */\n      dup4\n        /* \"#utility.yul\":3620:3626   */\n      dup4\n        /* \"#utility.yul\":3540:3632   */\n      tag_365\n      jump\t// in\n    tag_364:\n        /* \"#utility.yul\":3526:3632   */\n      swap1\n      pop\n        /* \"#utility.yul\":3390:3638   */\n      swap3\n      swap2\n      pop\n      pop\n      jump\t// out\n        /* \"#utility.yul\":3644:3823   */\n    tag_366:\n        /* \"#utility.yul\":3713:3723   */\n      0x00\n        /* \"#utility.yul\":3734:3780   */\n      tag_368\n        /* \"#utility.yul\":3776:3779   */\n      dup4\n        /* \"#utility.yul\":3768:3774   */\n      dup4\n        /* \"#utility.yul\":3734:3780   */\n      tag_369\n      jump\t// in\n    tag_368:\n        /* \"#utility.yul\":3812:3816   */\n      0x20\n        /* \"#utility.yul\":3807:3810   */\n      dup4\n        /* \"#utility.yul\":3803:3817   */\n      add\n        /* \"#utility.yul\":3789:3817   */\n      swap1\n      pop\n        /* \"#utility.yul\":3644:3823   */\n      swap3\n      swap2\n      pop\n      pop\n      jump\t// out\n        /* \"#utility.yul\":3895:4990   */\n    tag_370:\n        /* \"#utility.yul\":4060:4063   */\n      0x00\n        /* \"#utility.yul\":4089:4166   */\n      tag_372\n        /* \"#utility.yul\":4160:4165   */\n      dup3\n        /* \"#utility.yul\":4089:4166   */\n      tag_373\n      jump\t// in\n    tag_372:\n        /* \"#utility.yul\":4182:4291   */\n      tag_374\n        /* \"#utility.yul\":4284:4290   */\n      dup2\n        /* \"#utility.yul\":4279:4282   */\n      dup6\n        /* \"#utility.yul\":4182:4291   */\n      tag_375\n      jump\t// in\n    tag_374:\n        /* \"#utility.yul\":4175:4291   */\n      swap4\n      pop\n        /* \"#utility.yul\":4317:4320   */\n      dup4\n        /* \"#utility.yul\":4362:4366   */\n      0x20\n        /* \"#utility.yul\":4354:4360   */\n      dup3\n        /* \"#utility.yul\":4350:4367   */\n      mul\n        /* \"#utility.yul\":4345:4348   */\n      dup6\n        /* \"#utility.yul\":4341:4368   */\n      add\n        /* \"#utility.yul\":4392:4471   */\n      tag_376\n        /* \"#utility.yul\":4465:4470   */\n      dup6\n        /* \"#utility.yul\":4392:4471   */\n      tag_377\n      jump\t// in\n    tag_376:\n        /* \"#utility.yul\":4494:4501   */\n      dup1\n        /* \"#utility.yul\":4525:4526   */\n      0x00\n        /* \"#utility.yul\":4510:4945   */\n    tag_378:\n        /* \"#utility.yul\":4535:4541   */\n      dup6\n        /* \"#utility.yul\":4532:4533   */\n      dup2\n        /* \"#utility.yul\":4529:4542   */\n      lt\n        /* \"#utility.yul\":4510:4945   */\n      iszero\n      tag_380\n      jumpi\n        /* \"#utility.yul\":4606:4615   */\n      dup5\n        /* \"#utility.yul\":4600:4604   */\n      dup5\n        /* \"#utility.yul\":4596:4616   */\n      sub\n        /* \"#utility.yul\":4591:4594   */\n      dup10\n        /* \"#utility.yul\":4584:4617   */\n      mstore\n        /* \"#utility.yul\":4657:4663   */\n      dup2\n        /* \"#utility.yul\":4651:4664   */\n      mload\n        /* \"#utility.yul\":4685:4795   */\n      tag_381\n        /* \"#utility.yul\":4790:4794   */\n      dup6\n        /* \"#utility.yul\":4775:4788   */\n      dup3\n        /* \"#utility.yul\":4685:4795   */\n      tag_362\n      jump\t// in\n    tag_381:\n        /* \"#utility.yul\":4677:4795   */\n      swap5\n      pop\n        /* \"#utility.yul\":4818:4901   */\n      tag_382\n        /* \"#utility.yul\":4894:4900   */\n      dup4\n        /* \"#utility.yul\":4818:4901   */\n      tag_383\n      jump\t// in\n    tag_382:\n        /* \"#utility.yul\":4808:4901   */\n      swap3\n      pop\n        /* \"#utility.yul\":4930:4934   */\n      0x20\n        /* \"#utility.yul\":4925:4928   */\n      dup11\n        /* \"#utility.yul\":4921:4935   */\n      add\n        /* \"#utility.yul\":4914:4935   */\n      swap10\n      pop\n        /* \"#utility.yul\":4570:4945   */\n      pop\n        /* \"#utility.yul\":4557:4558   */\n      0x01\n        /* \"#utility.yul\":4554:4555   */\n      dup2\n        /* \"#utility.yul\":4550:4559   */\n      add\n        /* \"#utility.yul\":4545:4559   */\n      swap1\n      pop\n        /* \"#utility.yul\":4510:4945   */\n      jump(tag_378)\n    tag_380:\n        /* \"#utility.yul\":4514:4528   */\n      pop\n        /* \"#utility.yul\":4961:4965   */\n      dup3\n        /* \"#utility.yul\":4954:4965   */\n      swap8\n      pop\n        /* \"#utility.yul\":4981:4984   */\n      dup8\n        /* \"#utility.yul\":4974:4984   */\n      swap6\n      pop\n        /* \"#utility.yul\":4065:4990   */\n      pop\n      pop\n      pop\n      pop\n      pop\n        /* \"#utility.yul\":3895:4990   */\n      swap3\n      swap2\n      pop\n      pop\n      jump\t// out\n        /* \"#utility.yul\":5026:5738   */\n    tag_384:\n        /* \"#utility.yul\":5135:5138   */\n      0x00\n        /* \"#utility.yul\":5164:5218   */\n      tag_386\n        /* \"#utility.yul\":5212:5217   */\n      dup3\n        /* \"#utility.yul\":5164:5218   */\n      tag_387\n      jump\t// in\n    tag_386:\n        /* \"#utility.yul\":5234:5310   */\n      tag_388\n        /* \"#utility.yul\":5303:5309   */\n      dup2\n        /* \"#utility.yul\":5298:5301   */\n      dup6\n        /* \"#utility.yul\":5234:5310   */\n      tag_389\n      jump\t// in\n    tag_388:\n        /* \"#utility.yul\":5227:5310   */\n      swap4\n      pop\n        /* \"#utility.yul\":5334:5390   */\n      tag_390\n        /* \"#utility.yul\":5384:5389   */\n      dup4\n        /* \"#utility.yul\":5334:5390   */\n      tag_391\n      jump\t// in\n    tag_390:\n        /* \"#utility.yul\":5413:5420   */\n      dup1\n        /* \"#utility.yul\":5444:5445   */\n      0x00\n        /* \"#utility.yul\":5429:5713   */\n    tag_392:\n        /* \"#utility.yul\":5454:5460   */\n      dup4\n        /* \"#utility.yul\":5451:5452   */\n      dup2\n        /* \"#utility.yul\":5448:5461   */\n      lt\n        /* \"#utility.yul\":5429:5713   */\n      iszero\n      tag_394\n      jumpi\n        /* \"#utility.yul\":5530:5536   */\n      dup2\n        /* \"#utility.yul\":5524:5537   */\n      mload\n        /* \"#utility.yul\":5557:5620   */\n      tag_395\n        /* \"#utility.yul\":5616:5619   */\n      dup9\n        /* \"#utility.yul\":5601:5614   */\n      dup3\n        /* \"#utility.yul\":5557:5620   */\n      tag_366\n      jump\t// in\n    tag_395:\n        /* \"#utility.yul\":5550:5620   */\n      swap8\n      pop\n        /* \"#utility.yul\":5643:5703   */\n      tag_396\n        /* \"#utility.yul\":5696:5702   */\n      dup4\n        /* \"#utility.yul\":5643:5703   */\n      tag_397\n      jump\t// in\n    tag_396:\n        /* \"#utility.yul\":5633:5703   */\n      swap3\n      pop\n        /* \"#utility.yul\":5489:5713   */\n      pop\n        /* \"#utility.yul\":5476:5477   */\n      0x01\n        /* \"#utility.yul\":5473:5474   */\n      dup2\n        /* \"#utility.yul\":5469:5478   */\n      add\n        /* \"#utility.yul\":5464:5478   */\n      swap1\n      pop\n        /* \"#utility.yul\":5429:5713   */\n      jump(tag_392)\n    tag_394:\n        /* \"#utility.yul\":5433:5447   */\n      pop\n        /* \"#utility.yul\":5729:5732   */\n      dup6\n        /* \"#utility.yul\":5722:5732   */\n      swap4\n      pop\n        /* \"#utility.yul\":5140:5738   */\n      pop\n      pop\n      pop\n        /* \"#utility.yul\":5026:5738   */\n      swap3\n      swap2\n      pop\n      pop\n      jump\t// out\n        /* \"#utility.yul\":5744:6088   */\n    tag_398:\n        /* \"#utility.yul\":5822:5825   */\n      0x00\n        /* \"#utility.yul\":5850:5889   */\n      tag_400\n        /* \"#utility.yul\":5883:5888   */\n      dup3\n        /* \"#utility.yul\":5850:5889   */\n      tag_401\n      jump\t// in\n    tag_400:\n        /* \"#utility.yul\":5905:5966   */\n      tag_402\n        /* \"#utility.yul\":5959:5965   */\n      dup2\n        /* \"#utility.yul\":5954:5957   */\n      dup6\n        /* \"#utility.yul\":5905:5966   */\n      tag_403\n      jump\t// in\n    tag_402:\n        /* \"#utility.yul\":5898:5966   */\n      swap4\n      pop\n        /* \"#utility.yul\":5975:6027   */\n      tag_404\n        /* \"#utility.yul\":6020:6026   */\n      dup2\n        /* \"#utility.yul\":6015:6018   */\n      dup6\n        /* \"#utility.yul\":6008:6012   */\n      0x20\n        /* \"#utility.yul\":6001:6006   */\n      dup7\n        /* \"#utility.yul\":5997:6013   */\n      add\n        /* \"#utility.yul\":5975:6027   */\n      tag_405\n      jump\t// in\n    tag_404:\n        /* \"#utility.yul\":6052:6081   */\n      tag_406\n        /* \"#utility.yul\":6074:6080   */\n      dup2\n        /* \"#utility.yul\":6052:6081   */\n      tag_407\n      jump\t// in\n    tag_406:\n        /* \"#utility.yul\":6047:6050   */\n      dup5\n        /* \"#utility.yul\":6043:6082   */\n      add\n        /* \"#utility.yul\":6036:6082   */\n      swap2\n      pop\n        /* \"#utility.yul\":5826:6088   */\n      pop\n        /* \"#utility.yul\":5744:6088   */\n      swap3\n      swap2\n      pop\n      pop\n      jump\t// out\n        /* \"#utility.yul\":6094:6458   */\n    tag_408:\n        /* \"#utility.yul\":6182:6185   */\n      0x00\n        /* \"#utility.yul\":6210:6249   */\n      tag_410\n        /* \"#utility.yul\":6243:6248   */\n      dup3\n        /* \"#utility.yul\":6210:6249   */\n      tag_401\n      jump\t// in\n    tag_410:\n        /* \"#utility.yul\":6265:6336   */\n      tag_411\n        /* \"#utility.yul\":6329:6335   */\n      dup2\n        /* \"#utility.yul\":6324:6327   */\n      dup6\n        /* \"#utility.yul\":6265:6336   */\n      tag_412\n      jump\t// in\n    tag_411:\n        /* \"#utility.yul\":6258:6336   */\n      swap4\n      pop\n        /* \"#utility.yul\":6345:6397   */\n      tag_413\n        /* \"#utility.yul\":6390:6396   */\n      dup2\n        /* \"#utility.yul\":6385:6388   */\n      dup6\n        /* \"#utility.yul\":6378:6382   */\n      0x20\n        /* \"#utility.yul\":6371:6376   */\n      dup7\n        /* \"#utility.yul\":6367:6383   */\n      add\n        /* \"#utility.yul\":6345:6397   */\n      tag_405\n      jump\t// in\n    tag_413:\n        /* \"#utility.yul\":6422:6451   */\n      tag_414\n        /* \"#utility.yul\":6444:6450   */\n      dup2\n        /* \"#utility.yul\":6422:6451   */\n      tag_407\n      jump\t// in\n    tag_414:\n        /* \"#utility.yul\":6417:6420   */\n      dup5\n        /* \"#utility.yul\":6413:6452   */\n      add\n        /* \"#utility.yul\":6406:6452   */\n      swap2\n      pop\n        /* \"#utility.yul\":6186:6458   */\n      pop\n        /* \"#utility.yul\":6094:6458   */\n      swap3\n      swap2\n      pop\n      pop\n      jump\t// out\n        /* \"#utility.yul\":6534:7680   */\n    tag_415:\n        /* \"#utility.yul\":6657:6660   */\n      0x00\n        /* \"#utility.yul\":6693:6697   */\n      0x80\n        /* \"#utility.yul\":6688:6691   */\n      dup4\n        /* \"#utility.yul\":6684:6698   */\n      add\n        /* \"#utility.yul\":6789:6793   */\n      0x00\n        /* \"#utility.yul\":6782:6787   */\n      dup4\n        /* \"#utility.yul\":6778:6794   */\n      add\n        /* \"#utility.yul\":6772:6795   */\n      mload\n        /* \"#utility.yul\":6808:6871   */\n      tag_417\n        /* \"#utility.yul\":6865:6869   */\n      0x00\n        /* \"#utility.yul\":6860:6863   */\n      dup7\n        /* \"#utility.yul\":6856:6870   */\n      add\n        /* \"#utility.yul\":6842:6854   */\n      dup3\n        /* \"#utility.yul\":6808:6871   */\n      tag_369\n      jump\t// in\n    tag_417:\n        /* \"#utility.yul\":6708:6881   */\n      pop\n        /* \"#utility.yul\":6963:6967   */\n      0x20\n        /* \"#utility.yul\":6956:6961   */\n      dup4\n        /* \"#utility.yul\":6952:6968   */\n      add\n        /* \"#utility.yul\":6946:6969   */\n      mload\n        /* \"#utility.yul\":7016:7019   */\n      dup5\n        /* \"#utility.yul\":7010:7014   */\n      dup3\n        /* \"#utility.yul\":7006:7020   */\n      sub\n        /* \"#utility.yul\":6999:7003   */\n      0x20\n        /* \"#utility.yul\":6994:6997   */\n      dup7\n        /* \"#utility.yul\":6990:7004   */\n      add\n        /* \"#utility.yul\":6983:7021   */\n      mstore\n        /* \"#utility.yul\":7042:7115   */\n      tag_418\n        /* \"#utility.yul\":7110:7114   */\n      dup3\n        /* \"#utility.yul\":7096:7108   */\n      dup3\n        /* \"#utility.yul\":7042:7115   */\n      tag_398\n      jump\t// in\n    tag_418:\n        /* \"#utility.yul\":7034:7115   */\n      swap2\n      pop\n        /* \"#utility.yul\":6891:7126   */\n      pop\n        /* \"#utility.yul\":7208:7212   */\n      0x40\n        /* \"#utility.yul\":7201:7206   */\n      dup4\n        /* \"#utility.yul\":7197:7213   */\n      add\n        /* \"#utility.yul\":7191:7214   */\n      mload\n        /* \"#utility.yul\":7261:7264   */\n      dup5\n        /* \"#utility.yul\":7255:7259   */\n      dup3\n        /* \"#utility.yul\":7251:7265   */\n      sub\n        /* \"#utility.yul\":7244:7248   */\n      0x40\n        /* \"#utility.yul\":7239:7242   */\n      dup7\n        /* \"#utility.yul\":7235:7249   */\n      add\n        /* \"#utility.yul\":7228:7266   */\n      mstore\n        /* \"#utility.yul\":7287:7360   */\n      tag_419\n        /* \"#utility.yul\":7355:7359   */\n      dup3\n        /* \"#utility.yul\":7341:7353   */\n      dup3\n        /* \"#utility.yul\":7287:7360   */\n      tag_398\n      jump\t// in\n    tag_419:\n        /* \"#utility.yul\":7279:7360   */\n      swap2\n      pop\n        /* \"#utility.yul\":7136:7371   */\n      pop\n        /* \"#utility.yul\":7460:7464   */\n      0x60\n        /* \"#utility.yul\":7453:7458   */\n      dup4\n        /* \"#utility.yul\":7449:7465   */\n      add\n        /* \"#utility.yul\":7443:7466   */\n      mload\n        /* \"#utility.yul\":7513:7516   */\n      dup5\n        /* \"#utility.yul\":7507:7511   */\n      dup3\n        /* \"#utility.yul\":7503:7517   */\n      sub\n        /* \"#utility.yul\":7496:7500   */\n      0x60\n        /* \"#utility.yul\":7491:7494   */\n      dup7\n        /* \"#utility.yul\":7487:7501   */\n      add\n        /* \"#utility.yul\":7480:7518   */\n      mstore\n        /* \"#utility.yul\":7539:7642   */\n      tag_420\n        /* \"#utility.yul\":7637:7641   */\n      dup3\n        /* \"#utility.yul\":7623:7635   */\n      dup3\n        /* \"#utility.yul\":7539:7642   */\n      tag_384\n      jump\t// in\n    tag_420:\n        /* \"#utility.yul\":7531:7642   */\n      swap2\n      pop\n        /* \"#utility.yul\":7381:7653   */\n      pop\n        /* \"#utility.yul\":7670:7674   */\n      dup1\n        /* \"#utility.yul\":7663:7674   */\n      swap2\n      pop\n        /* \"#utility.yul\":6662:7680   */\n      pop\n        /* \"#utility.yul\":6534:7680   */\n      swap3\n      swap2\n      pop\n      pop\n      jump\t// out\n        /* \"#utility.yul\":7758:8907   */\n    tag_421:\n        /* \"#utility.yul\":7883:7886   */\n      0x00\n        /* \"#utility.yul\":7919:7923   */\n      0x80\n        /* \"#utility.yul\":7914:7917   */\n      dup4\n        /* \"#utility.yul\":7910:7924   */\n      add\n        /* \"#utility.yul\":8016:8020   */\n      0x00\n        /* \"#utility.yul\":8009:8014   */\n      dup4\n        /* \"#utility.yul\":8005:8021   */\n      add\n        /* \"#utility.yul\":7999:8022   */\n      mload\n        /* \"#utility.yul\":8035:8098   */\n      tag_423\n        /* \"#utility.yul\":8092:8096   */\n      0x00\n        /* \"#utility.yul\":8087:8090   */\n      dup7\n        /* \"#utility.yul\":8083:8097   */\n      add\n        /* \"#utility.yul\":8069:8081   */\n      dup3\n        /* \"#utility.yul\":8035:8098   */\n      tag_369\n      jump\t// in\n    tag_423:\n        /* \"#utility.yul\":7934:8108   */\n      pop\n        /* \"#utility.yul\":8190:8194   */\n      0x20\n        /* \"#utility.yul\":8183:8188   */\n      dup4\n        /* \"#utility.yul\":8179:8195   */\n      add\n        /* \"#utility.yul\":8173:8196   */\n      mload\n        /* \"#utility.yul\":8243:8246   */\n      dup5\n        /* \"#utility.yul\":8237:8241   */\n      dup3\n        /* \"#utility.yul\":8233:8247   */\n      sub\n        /* \"#utility.yul\":8226:8230   */\n      0x20\n        /* \"#utility.yul\":8221:8224   */\n      dup7\n        /* \"#utility.yul\":8217:8231   */\n      add\n        /* \"#utility.yul\":8210:8248   */\n      mstore\n        /* \"#utility.yul\":8269:8342   */\n      tag_424\n        /* \"#utility.yul\":8337:8341   */\n      dup3\n        /* \"#utility.yul\":8323:8335   */\n      dup3\n        /* \"#utility.yul\":8269:8342   */\n      tag_398\n      jump\t// in\n    tag_424:\n        /* \"#utility.yul\":8261:8342   */\n      swap2\n      pop\n        /* \"#utility.yul\":8118:8353   */\n      pop\n        /* \"#utility.yul\":8435:8439   */\n      0x40\n        /* \"#utility.yul\":8428:8433   */\n      dup4\n        /* \"#utility.yul\":8424:8440   */\n      add\n        /* \"#utility.yul\":8418:8441   */\n      mload\n        /* \"#utility.yul\":8488:8491   */\n      dup5\n        /* \"#utility.yul\":8482:8486   */\n      dup3\n        /* \"#utility.yul\":8478:8492   */\n      sub\n        /* \"#utility.yul\":8471:8475   */\n      0x40\n        /* \"#utility.yul\":8466:8469   */\n      dup7\n        /* \"#utility.yul\":8462:8476   */\n      add\n        /* \"#utility.yul\":8455:8493   */\n      mstore\n        /* \"#utility.yul\":8514:8587   */\n      tag_425\n        /* \"#utility.yul\":8582:8586   */\n      dup3\n        /* \"#utility.yul\":8568:8580   */\n      dup3\n        /* \"#utility.yul\":8514:8587   */\n      tag_398\n      jump\t// in\n    tag_425:\n        /* \"#utility.yul\":8506:8587   */\n      swap2\n      pop\n        /* \"#utility.yul\":8363:8598   */\n      pop\n        /* \"#utility.yul\":8687:8691   */\n      0x60\n        /* \"#utility.yul\":8680:8685   */\n      dup4\n        /* \"#utility.yul\":8676:8692   */\n      add\n        /* \"#utility.yul\":8670:8693   */\n      mload\n        /* \"#utility.yul\":8740:8743   */\n      dup5\n        /* \"#utility.yul\":8734:8738   */\n      dup3\n        /* \"#utility.yul\":8730:8744   */\n      sub\n        /* \"#utility.yul\":8723:8727   */\n      0x60\n        /* \"#utility.yul\":8718:8721   */\n      dup7\n        /* \"#utility.yul\":8714:8728   */\n      add\n        /* \"#utility.yul\":8707:8745   */\n      mstore\n        /* \"#utility.yul\":8766:8869   */\n      tag_426\n        /* \"#utility.yul\":8864:8868   */\n      dup3\n        /* \"#utility.yul\":8850:8862   */\n      dup3\n        /* \"#utility.yul\":8766:8869   */\n      tag_384\n      jump\t// in\n    tag_426:\n        /* \"#utility.yul\":8758:8869   */\n      swap2\n      pop\n        /* \"#utility.yul\":8608:8880   */\n      pop\n        /* \"#utility.yul\":8897:8901   */\n      dup1\n        /* \"#utility.yul\":8890:8901   */\n      swap2\n      pop\n        /* \"#utility.yul\":7888:8907   */\n      pop\n        /* \"#utility.yul\":7758:8907   */\n      swap3\n      swap2\n      pop\n      pop\n      jump\t// out\n        /* \"#utility.yul\":8975:10428   */\n    tag_365:\n        /* \"#utility.yul\":9080:9083   */\n      0x00\n        /* \"#utility.yul\":9116:9120   */\n      0xc0\n        /* \"#utility.yul\":9111:9114   */\n      dup4\n        /* \"#utility.yul\":9107:9121   */\n      add\n        /* \"#utility.yul\":9208:9212   */\n      0x00\n        /* \"#utility.yul\":9201:9206   */\n      dup4\n        /* \"#utility.yul\":9197:9213   */\n      add\n        /* \"#utility.yul\":9191:9214   */\n      mload\n        /* \"#utility.yul\":9227:9290   */\n      tag_428\n        /* \"#utility.yul\":9284:9288   */\n      0x00\n        /* \"#utility.yul\":9279:9282   */\n      dup7\n        /* \"#utility.yul\":9275:9289   */\n      add\n        /* \"#utility.yul\":9261:9273   */\n      dup3\n        /* \"#utility.yul\":9227:9290   */\n      tag_369\n      jump\t// in\n    tag_428:\n        /* \"#utility.yul\":9131:9300   */\n      pop\n        /* \"#utility.yul\":9382:9386   */\n      0x20\n        /* \"#utility.yul\":9375:9380   */\n      dup4\n        /* \"#utility.yul\":9371:9387   */\n      add\n        /* \"#utility.yul\":9365:9388   */\n      mload\n        /* \"#utility.yul\":9435:9438   */\n      dup5\n        /* \"#utility.yul\":9429:9433   */\n      dup3\n        /* \"#utility.yul\":9425:9439   */\n      sub\n        /* \"#utility.yul\":9418:9422   */\n      0x20\n        /* \"#utility.yul\":9413:9416   */\n      dup7\n        /* \"#utility.yul\":9409:9423   */\n      add\n        /* \"#utility.yul\":9402:9440   */\n      mstore\n        /* \"#utility.yul\":9461:9534   */\n      tag_429\n        /* \"#utility.yul\":9529:9533   */\n      dup3\n        /* \"#utility.yul\":9515:9527   */\n      dup3\n        /* \"#utility.yul\":9461:9534   */\n      tag_398\n      jump\t// in\n    tag_429:\n        /* \"#utility.yul\":9453:9534   */\n      swap2\n      pop\n        /* \"#utility.yul\":9310:9545   */\n      pop\n        /* \"#utility.yul\":9628:9632   */\n      0x40\n        /* \"#utility.yul\":9621:9626   */\n      dup4\n        /* \"#utility.yul\":9617:9633   */\n      add\n        /* \"#utility.yul\":9611:9634   */\n      mload\n        /* \"#utility.yul\":9647:9710   */\n      tag_430\n        /* \"#utility.yul\":9704:9708   */\n      0x40\n        /* \"#utility.yul\":9699:9702   */\n      dup7\n        /* \"#utility.yul\":9695:9709   */\n      add\n        /* \"#utility.yul\":9681:9693   */\n      dup3\n        /* \"#utility.yul\":9647:9710   */\n      tag_369\n      jump\t// in\n    tag_430:\n        /* \"#utility.yul\":9555:9720   */\n      pop\n        /* \"#utility.yul\":9809:9813   */\n      0x60\n        /* \"#utility.yul\":9802:9807   */\n      dup4\n        /* \"#utility.yul\":9798:9814   */\n      add\n        /* \"#utility.yul\":9792:9815   */\n      mload\n        /* \"#utility.yul\":9862:9865   */\n      dup5\n        /* \"#utility.yul\":9856:9860   */\n      dup3\n        /* \"#utility.yul\":9852:9866   */\n      sub\n        /* \"#utility.yul\":9845:9849   */\n      0x60\n        /* \"#utility.yul\":9840:9843   */\n      dup7\n        /* \"#utility.yul\":9836:9850   */\n      add\n        /* \"#utility.yul\":9829:9867   */\n      mstore\n        /* \"#utility.yul\":9888:9961   */\n      tag_431\n        /* \"#utility.yul\":9956:9960   */\n      dup3\n        /* \"#utility.yul\":9942:9954   */\n      dup3\n        /* \"#utility.yul\":9888:9961   */\n      tag_398\n      jump\t// in\n    tag_431:\n        /* \"#utility.yul\":9880:9961   */\n      swap2\n      pop\n        /* \"#utility.yul\":9730:9972   */\n      pop\n        /* \"#utility.yul\":10058:10062   */\n      0x80\n        /* \"#utility.yul\":10051:10056   */\n      dup4\n        /* \"#utility.yul\":10047:10063   */\n      add\n        /* \"#utility.yul\":10041:10064   */\n      mload\n        /* \"#utility.yul\":10111:10114   */\n      dup5\n        /* \"#utility.yul\":10105:10109   */\n      dup3\n        /* \"#utility.yul\":10101:10115   */\n      sub\n        /* \"#utility.yul\":10094:10098   */\n      0x80\n        /* \"#utility.yul\":10089:10092   */\n      dup7\n        /* \"#utility.yul\":10085:10099   */\n      add\n        /* \"#utility.yul\":10078:10116   */\n      mstore\n        /* \"#utility.yul\":10137:10210   */\n      tag_432\n        /* \"#utility.yul\":10205:10209   */\n      dup3\n        /* \"#utility.yul\":10191:10203   */\n      dup3\n        /* \"#utility.yul\":10137:10210   */\n      tag_398\n      jump\t// in\n    tag_432:\n        /* \"#utility.yul\":10129:10210   */\n      swap2\n      pop\n        /* \"#utility.yul\":9982:10221   */\n      pop\n        /* \"#utility.yul\":10309:10313   */\n      0xa0\n        /* \"#utility.yul\":10302:10307   */\n      dup4\n        /* \"#utility.yul\":10298:10314   */\n      add\n        /* \"#utility.yul\":10292:10315   */\n      mload\n        /* \"#utility.yul\":10328:10391   */\n      tag_433\n        /* \"#utility.yul\":10385:10389   */\n      0xa0\n        /* \"#utility.yul\":10380:10383   */\n      dup7\n        /* \"#utility.yul\":10376:10390   */\n      add\n        /* \"#utility.yul\":10362:10374   */\n      dup3\n        /* \"#utility.yul\":10328:10391   */\n      tag_369\n      jump\t// in\n    tag_433:\n        /* \"#utility.yul\":10231:10401   */\n      pop\n        /* \"#utility.yul\":10418:10422   */\n      dup1\n        /* \"#utility.yul\":10411:10422   */\n      swap2\n      pop\n        /* \"#utility.yul\":9085:10428   */\n      pop\n        /* \"#utility.yul\":8975:10428   */\n      swap3\n      swap2\n      pop\n      pop\n      jump\t// out\n        /* \"#utility.yul\":10496:11959   */\n    tag_434:\n        /* \"#utility.yul\":10611:10614   */\n      0x00\n        /* \"#utility.yul\":10647:10651   */\n      0xc0\n        /* \"#utility.yul\":10642:10645   */\n      dup4\n        /* \"#utility.yul\":10638:10652   */\n      add\n        /* \"#utility.yul\":10739:10743   */\n      0x00\n        /* \"#utility.yul\":10732:10737   */\n      dup4\n        /* \"#utility.yul\":10728:10744   */\n      add\n        /* \"#utility.yul\":10722:10745   */\n      mload\n        /* \"#utility.yul\":10758:10821   */\n      tag_436\n        /* \"#utility.yul\":10815:10819   */\n      0x00\n        /* \"#utility.yul\":10810:10813   */\n      dup7\n        /* \"#utility.yul\":10806:10820   */\n      add\n        /* \"#utility.yul\":10792:10804   */\n      dup3\n        /* \"#utility.yul\":10758:10821   */\n      tag_369\n      jump\t// in\n    tag_436:\n        /* \"#utility.yul\":10662:10831   */\n      pop\n        /* \"#utility.yul\":10913:10917   */\n      0x20\n        /* \"#utility.yul\":10906:10911   */\n      dup4\n        /* \"#utility.yul\":10902:10918   */\n      add\n        /* \"#utility.yul\":10896:10919   */\n      mload\n        /* \"#utility.yul\":10966:10969   */\n      dup5\n        /* \"#utility.yul\":10960:10964   */\n      dup3\n        /* \"#utility.yul\":10956:10970   */\n      sub\n        /* \"#utility.yul\":10949:10953   */\n      0x20\n        /* \"#utility.yul\":10944:10947   */\n      dup7\n        /* \"#utility.yul\":10940:10954   */\n      add\n        /* \"#utility.yul\":10933:10971   */\n      mstore\n        /* \"#utility.yul\":10992:11065   */\n      tag_437\n        /* \"#utility.yul\":11060:11064   */\n      dup3\n        /* \"#utility.yul\":11046:11058   */\n      dup3\n        /* \"#utility.yul\":10992:11065   */\n      tag_398\n      jump\t// in\n    tag_437:\n        /* \"#utility.yul\":10984:11065   */\n      swap2\n      pop\n        /* \"#utility.yul\":10841:11076   */\n      pop\n        /* \"#utility.yul\":11159:11163   */\n      0x40\n        /* \"#utility.yul\":11152:11157   */\n      dup4\n        /* \"#utility.yul\":11148:11164   */\n      add\n        /* \"#utility.yul\":11142:11165   */\n      mload\n        /* \"#utility.yul\":11178:11241   */\n      tag_438\n        /* \"#utility.yul\":11235:11239   */\n      0x40\n        /* \"#utility.yul\":11230:11233   */\n      dup7\n        /* \"#utility.yul\":11226:11240   */\n      add\n        /* \"#utility.yul\":11212:11224   */\n      dup3\n        /* \"#utility.yul\":11178:11241   */\n      tag_369\n      jump\t// in\n    tag_438:\n        /* \"#utility.yul\":11086:11251   */\n      pop\n        /* \"#utility.yul\":11340:11344   */\n      0x60\n        /* \"#utility.yul\":11333:11338   */\n      dup4\n        /* \"#utility.yul\":11329:11345   */\n      add\n        /* \"#utility.yul\":11323:11346   */\n      mload\n        /* \"#utility.yul\":11393:11396   */\n      dup5\n        /* \"#utility.yul\":11387:11391   */\n      dup3\n        /* \"#utility.yul\":11383:11397   */\n      sub\n        /* \"#utility.yul\":11376:11380   */\n      0x60\n        /* \"#utility.yul\":11371:11374   */\n      dup7\n        /* \"#utility.yul\":11367:11381   */\n      add\n        /* \"#utility.yul\":11360:11398   */\n      mstore\n        /* \"#utility.yul\":11419:11492   */\n      tag_439\n        /* \"#utility.yul\":11487:11491   */\n      dup3\n        /* \"#utility.yul\":11473:11485   */\n      dup3\n        /* \"#utility.yul\":11419:11492   */\n      tag_398\n      jump\t// in\n    tag_439:\n        /* \"#utility.yul\":11411:11492   */\n      swap2\n      pop\n        /* \"#utility.yul\":11261:11503   */\n      pop\n        /* \"#utility.yul\":11589:11593   */\n      0x80\n        /* \"#utility.yul\":11582:11587   */\n      dup4\n        /* \"#utility.yul\":11578:11594   */\n      add\n        /* \"#utility.yul\":11572:11595   */\n      mload\n        /* \"#utility.yul\":11642:11645   */\n      dup5\n        /* \"#utility.yul\":11636:11640   */\n      dup3\n        /* \"#utility.yul\":11632:11646   */\n      sub\n        /* \"#utility.yul\":11625:11629   */\n      0x80\n        /* \"#utility.yul\":11620:11623   */\n      dup7\n        /* \"#utility.yul\":11616:11630   */\n      add\n        /* \"#utility.yul\":11609:11647   */\n      mstore\n        /* \"#utility.yul\":11668:11741   */\n      tag_440\n        /* \"#utility.yul\":11736:11740   */\n      dup3\n        /* \"#utility.yul\":11722:11734   */\n      dup3\n        /* \"#utility.yul\":11668:11741   */\n      tag_398\n      jump\t// in\n    tag_440:\n        /* \"#utility.yul\":11660:11741   */\n      swap2\n      pop\n        /* \"#utility.yul\":11513:11752   */\n      pop\n        /* \"#utility.yul\":11840:11844   */\n      0xa0\n        /* \"#utility.yul\":11833:11838   */\n      dup4\n        /* \"#utility.yul\":11829:11845   */\n      add\n        /* \"#utility.yul\":11823:11846   */\n      mload\n        /* \"#utility.yul\":11859:11922   */\n      tag_441\n        /* \"#utility.yul\":11916:11920   */\n      0xa0\n        /* \"#utility.yul\":11911:11914   */\n      dup7\n        /* \"#utility.yul\":11907:11921   */\n      add\n        /* \"#utility.yul\":11893:11905   */\n      dup3\n        /* \"#utility.yul\":11859:11922   */\n      tag_369\n      jump\t// in\n    tag_441:\n        /* \"#utility.yul\":11762:11932   */\n      pop\n        /* \"#utility.yul\":11949:11953   */\n      dup1\n        /* \"#utility.yul\":11942:11953   */\n      swap2\n      pop\n        /* \"#utility.yul\":10616:11959   */\n      pop\n        /* \"#utility.yul\":10496:11959   */\n      swap3\n      swap2\n      pop\n      pop\n      jump\t// out\n        /* \"#utility.yul\":12029:12921   */\n    tag_442:\n        /* \"#utility.yul\":12146:12149   */\n      0x00\n        /* \"#utility.yul\":12182:12186   */\n      0x60\n        /* \"#utility.yul\":12177:12180   */\n      dup4\n        /* \"#utility.yul\":12173:12187   */\n      add\n        /* \"#utility.yul\":12275:12279   */\n      0x00\n        /* \"#utility.yul\":12268:12273   */\n      dup4\n        /* \"#utility.yul\":12264:12280   */\n      add\n        /* \"#utility.yul\":12258:12281   */\n      mload\n        /* \"#utility.yul\":12294:12357   */\n      tag_444\n        /* \"#utility.yul\":12351:12355   */\n      0x00\n        /* \"#utility.yul\":12346:12349   */\n      dup7\n        /* \"#utility.yul\":12342:12356   */\n      add\n        /* \"#utility.yul\":12328:12340   */\n      dup3\n        /* \"#utility.yul\":12294:12357   */\n      tag_369\n      jump\t// in\n    tag_444:\n        /* \"#utility.yul\":12197:12367   */\n      pop\n        /* \"#utility.yul\":12449:12453   */\n      0x20\n        /* \"#utility.yul\":12442:12447   */\n      dup4\n        /* \"#utility.yul\":12438:12454   */\n      add\n        /* \"#utility.yul\":12432:12455   */\n      mload\n        /* \"#utility.yul\":12502:12505   */\n      dup5\n        /* \"#utility.yul\":12496:12500   */\n      dup3\n        /* \"#utility.yul\":12492:12506   */\n      sub\n        /* \"#utility.yul\":12485:12489   */\n      0x20\n        /* \"#utility.yul\":12480:12483   */\n      dup7\n        /* \"#utility.yul\":12476:12490   */\n      add\n        /* \"#utility.yul\":12469:12507   */\n      mstore\n        /* \"#utility.yul\":12528:12601   */\n      tag_445\n        /* \"#utility.yul\":12596:12600   */\n      dup3\n        /* \"#utility.yul\":12582:12594   */\n      dup3\n        /* \"#utility.yul\":12528:12601   */\n      tag_398\n      jump\t// in\n    tag_445:\n        /* \"#utility.yul\":12520:12601   */\n      swap2\n      pop\n        /* \"#utility.yul\":12377:12612   */\n      pop\n        /* \"#utility.yul\":12701:12705   */\n      0x40\n        /* \"#utility.yul\":12694:12699   */\n      dup4\n        /* \"#utility.yul\":12690:12706   */\n      add\n        /* \"#utility.yul\":12684:12707   */\n      mload\n        /* \"#utility.yul\":12754:12757   */\n      dup5\n        /* \"#utility.yul\":12748:12752   */\n      dup3\n        /* \"#utility.yul\":12744:12758   */\n      sub\n        /* \"#utility.yul\":12737:12741   */\n      0x40\n        /* \"#utility.yul\":12732:12735   */\n      dup7\n        /* \"#utility.yul\":12728:12742   */\n      add\n        /* \"#utility.yul\":12721:12759   */\n      mstore\n        /* \"#utility.yul\":12780:12883   */\n      tag_446\n        /* \"#utility.yul\":12878:12882   */\n      dup3\n        /* \"#utility.yul\":12864:12876   */\n      dup3\n        /* \"#utility.yul\":12780:12883   */\n      tag_384\n      jump\t// in\n    tag_446:\n        /* \"#utility.yul\":12772:12883   */\n      swap2\n      pop\n        /* \"#utility.yul\":12622:12894   */\n      pop\n        /* \"#utility.yul\":12911:12915   */\n      dup1\n        /* \"#utility.yul\":12904:12915   */\n      swap2\n      pop\n        /* \"#utility.yul\":12151:12921   */\n      pop\n        /* \"#utility.yul\":12029:12921   */\n      swap3\n      swap2\n      pop\n      pop\n      jump\t// out\n        /* \"#utility.yul\":12991:14128   */\n    tag_447:\n        /* \"#utility.yul\":13108:13111   */\n      0x00\n        /* \"#utility.yul\":13144:13148   */\n      0x80\n        /* \"#utility.yul\":13139:13142   */\n      dup4\n        /* \"#utility.yul\":13135:13149   */\n      add\n        /* \"#utility.yul\":13237:13241   */\n      0x00\n        /* \"#utility.yul\":13230:13235   */\n      dup4\n        /* \"#utility.yul\":13226:13242   */\n      add\n        /* \"#utility.yul\":13220:13243   */\n      mload\n        /* \"#utility.yul\":13256:13319   */\n      tag_449\n        /* \"#utility.yul\":13313:13317   */\n      0x00\n        /* \"#utility.yul\":13308:13311   */\n      dup7\n        /* \"#utility.yul\":13304:13318   */\n      add\n        /* \"#utility.yul\":13290:13302   */\n      dup3\n        /* \"#utility.yul\":13256:13319   */\n      tag_369\n      jump\t// in\n    tag_449:\n        /* \"#utility.yul\":13159:13329   */\n      pop\n        /* \"#utility.yul\":13411:13415   */\n      0x20\n        /* \"#utility.yul\":13404:13409   */\n      dup4\n        /* \"#utility.yul\":13400:13416   */\n      add\n        /* \"#utility.yul\":13394:13417   */\n      mload\n        /* \"#utility.yul\":13464:13467   */\n      dup5\n        /* \"#utility.yul\":13458:13462   */\n      dup3\n        /* \"#utility.yul\":13454:13468   */\n      sub\n        /* \"#utility.yul\":13447:13451   */\n      0x20\n        /* \"#utility.yul\":13442:13445   */\n      dup7\n        /* \"#utility.yul\":13438:13452   */\n      add\n        /* \"#utility.yul\":13431:13469   */\n      mstore\n        /* \"#utility.yul\":13490:13563   */\n      tag_450\n        /* \"#utility.yul\":13558:13562   */\n      dup3\n        /* \"#utility.yul\":13544:13556   */\n      dup3\n        /* \"#utility.yul\":13490:13563   */\n      tag_398\n      jump\t// in\n    tag_450:\n        /* \"#utility.yul\":13482:13563   */\n      swap2\n      pop\n        /* \"#utility.yul\":13339:13574   */\n      pop\n        /* \"#utility.yul\":13656:13660   */\n      0x40\n        /* \"#utility.yul\":13649:13654   */\n      dup4\n        /* \"#utility.yul\":13645:13661   */\n      add\n        /* \"#utility.yul\":13639:13662   */\n      mload\n        /* \"#utility.yul\":13709:13712   */\n      dup5\n        /* \"#utility.yul\":13703:13707   */\n      dup3\n        /* \"#utility.yul\":13699:13713   */\n      sub\n        /* \"#utility.yul\":13692:13696   */\n      0x40\n        /* \"#utility.yul\":13687:13690   */\n      dup7\n        /* \"#utility.yul\":13683:13697   */\n      add\n        /* \"#utility.yul\":13676:13714   */\n      mstore\n        /* \"#utility.yul\":13735:13808   */\n      tag_451\n        /* \"#utility.yul\":13803:13807   */\n      dup3\n        /* \"#utility.yul\":13789:13801   */\n      dup3\n        /* \"#utility.yul\":13735:13808   */\n      tag_398\n      jump\t// in\n    tag_451:\n        /* \"#utility.yul\":13727:13808   */\n      swap2\n      pop\n        /* \"#utility.yul\":13584:13819   */\n      pop\n        /* \"#utility.yul\":13908:13912   */\n      0x60\n        /* \"#utility.yul\":13901:13906   */\n      dup4\n        /* \"#utility.yul\":13897:13913   */\n      add\n        /* \"#utility.yul\":13891:13914   */\n      mload\n        /* \"#utility.yul\":13961:13964   */\n      dup5\n        /* \"#utility.yul\":13955:13959   */\n      dup3\n        /* \"#utility.yul\":13951:13965   */\n      sub\n        /* \"#utility.yul\":13944:13948   */\n      0x60\n        /* \"#utility.yul\":13939:13942   */\n      dup7\n        /* \"#utility.yul\":13935:13949   */\n      add\n        /* \"#utility.yul\":13928:13966   */\n      mstore\n        /* \"#utility.yul\":13987:14090   */\n      tag_452\n        /* \"#utility.yul\":14085:14089   */\n      dup3\n        /* \"#utility.yul\":14071:14083   */\n      dup3\n        /* \"#utility.yul\":13987:14090   */\n      tag_384\n      jump\t// in\n    tag_452:\n        /* \"#utility.yul\":13979:14090   */\n      swap2\n      pop\n        /* \"#utility.yul\":13829:14101   */\n      pop\n        /* \"#utility.yul\":14118:14122   */\n      dup1\n        /* \"#utility.yul\":14111:14122   */\n      swap2\n      pop\n        /* \"#utility.yul\":13113:14128   */\n      pop\n        /* \"#utility.yul\":12991:14128   */\n      swap3\n      swap2\n      pop\n      pop\n      jump\t// out\n        /* \"#utility.yul\":14134:14242   */\n    tag_369:\n        /* \"#utility.yul\":14211:14235   */\n      tag_454\n        /* \"#utility.yul\":14229:14234   */\n      dup2\n        /* \"#utility.yul\":14211:14235   */\n      tag_455\n      jump\t// in\n    tag_454:\n        /* \"#utility.yul\":14206:14209   */\n      dup3\n        /* \"#utility.yul\":14199:14236   */\n      mstore\n        /* \"#utility.yul\":14134:14242   */\n      pop\n      pop\n      jump\t// out\n        /* \"#utility.yul\":14248:14366   */\n    tag_456:\n        /* \"#utility.yul\":14335:14359   */\n      tag_458\n        /* \"#utility.yul\":14353:14358   */\n      dup2\n        /* \"#utility.yul\":14335:14359   */\n      tag_455\n      jump\t// in\n    tag_458:\n        /* \"#utility.yul\":14330:14333   */\n      dup3\n        /* \"#utility.yul\":14323:14360   */\n      mstore\n        /* \"#utility.yul\":14248:14366   */\n      pop\n      pop\n      jump\t// out\n        /* \"#utility.yul\":14372:14837   */\n    tag_101:\n        /* \"#utility.yul\":14561:14565   */\n      0x00\n        /* \"#utility.yul\":14599:14601   */\n      0x20\n        /* \"#utility.yul\":14588:14597   */\n      dup3\n        /* \"#utility.yul\":14584:14602   */\n      add\n        /* \"#utility.yul\":14576:14602   */\n      swap1\n      pop\n        /* \"#utility.yul\":14648:14657   */\n      dup2\n        /* \"#utility.yul\":14642:14646   */\n      dup2\n        /* \"#utility.yul\":14638:14658   */\n      sub\n        /* \"#utility.yul\":14634:14635   */\n      0x00\n        /* \"#utility.yul\":14623:14632   */\n      dup4\n        /* \"#utility.yul\":14619:14636   */\n      add\n        /* \"#utility.yul\":14612:14659   */\n      mstore\n        /* \"#utility.yul\":14676:14830   */\n      tag_460\n        /* \"#utility.yul\":14825:14829   */\n      dup2\n        /* \"#utility.yul\":14816:14822   */\n      dup5\n        /* \"#utility.yul\":14676:14830   */\n      tag_370\n      jump\t// in\n    tag_460:\n        /* \"#utility.yul\":14668:14830   */\n      swap1\n      pop\n        /* \"#utility.yul\":14372:14837   */\n      swap3\n      swap2\n      pop\n      pop\n      jump\t// out\n        /* \"#utility.yul\":14843:15376   */\n    tag_106:\n        /* \"#utility.yul\":15012:15016   */\n      0x00\n        /* \"#utility.yul\":15050:15052   */\n      0x60\n        /* \"#utility.yul\":15039:15048   */\n      dup3\n        /* \"#utility.yul\":15035:15053   */\n      add\n        /* \"#utility.yul\":15027:15053   */\n      swap1\n      pop\n        /* \"#utility.yul\":15099:15108   */\n      dup2\n        /* \"#utility.yul\":15093:15097   */\n      dup2\n        /* \"#utility.yul\":15089:15109   */\n      sub\n        /* \"#utility.yul\":15085:15086   */\n      0x00\n        /* \"#utility.yul\":15074:15083   */\n      dup4\n        /* \"#utility.yul\":15070:15087   */\n      add\n        /* \"#utility.yul\":15063:15110   */\n      mstore\n        /* \"#utility.yul\":15127:15205   */\n      tag_462\n        /* \"#utility.yul\":15200:15204   */\n      dup2\n        /* \"#utility.yul\":15191:15197   */\n      dup7\n        /* \"#utility.yul\":15127:15205   */\n      tag_408\n      jump\t// in\n    tag_462:\n        /* \"#utility.yul\":15119:15205   */\n      swap1\n      pop\n        /* \"#utility.yul\":15215:15287   */\n      tag_463\n        /* \"#utility.yul\":15283:15285   */\n      0x20\n        /* \"#utility.yul\":15272:15281   */\n      dup4\n        /* \"#utility.yul\":15268:15286   */\n      add\n        /* \"#utility.yul\":15259:15265   */\n      dup6\n        /* \"#utility.yul\":15215:15287   */\n      tag_456\n      jump\t// in\n    tag_463:\n        /* \"#utility.yul\":15297:15369   */\n      tag_464\n        /* \"#utility.yul\":15365:15367   */\n      0x40\n        /* \"#utility.yul\":15354:15363   */\n      dup4\n        /* \"#utility.yul\":15350:15368   */\n      add\n        /* \"#utility.yul\":15341:15347   */\n      dup5\n        /* \"#utility.yul\":15297:15369   */\n      tag_456\n      jump\t// in\n    tag_464:\n        /* \"#utility.yul\":14843:15376   */\n      swap5\n      swap4\n      pop\n      pop\n      pop\n      pop\n      jump\t// out\n        /* \"#utility.yul\":15382:15763   */\n    tag_34:\n        /* \"#utility.yul\":15529:15533   */\n      0x00\n        /* \"#utility.yul\":15567:15569   */\n      0x20\n        /* \"#utility.yul\":15556:15565   */\n      dup3\n        /* \"#utility.yul\":15552:15570   */\n      add\n        /* \"#utility.yul\":15544:15570   */\n      swap1\n      pop\n        /* \"#utility.yul\":15616:15625   */\n      dup2\n        /* \"#utility.yul\":15610:15614   */\n      dup2\n        /* \"#utility.yul\":15606:15626   */\n      sub\n        /* \"#utility.yul\":15602:15603   */\n      0x00\n        /* \"#utility.yul\":15591:15600   */\n      dup4\n        /* \"#utility.yul\":15587:15604   */\n      add\n        /* \"#utility.yul\":15580:15627   */\n      mstore\n        /* \"#utility.yul\":15644:15756   */\n      tag_466\n        /* \"#utility.yul\":15751:15755   */\n      dup2\n        /* \"#utility.yul\":15742:15748   */\n      dup5\n        /* \"#utility.yul\":15644:15756   */\n      tag_415\n      jump\t// in\n    tag_466:\n        /* \"#utility.yul\":15636:15756   */\n      swap1\n      pop\n        /* \"#utility.yul\":15382:15763   */\n      swap3\n      swap2\n      pop\n      pop\n      jump\t// out\n        /* \"#utility.yul\":15769:16154   */\n    tag_84:\n        /* \"#utility.yul\":15918:15922   */\n      0x00\n        /* \"#utility.yul\":15956:15958   */\n      0x20\n        /* \"#utility.yul\":15945:15954   */\n      dup3\n        /* \"#utility.yul\":15941:15959   */\n      add\n        /* \"#utility.yul\":15933:15959   */\n      swap1\n      pop\n        /* \"#utility.yul\":16005:16014   */\n      dup2\n        /* \"#utility.yul\":15999:16003   */\n      dup2\n        /* \"#utility.yul\":15995:16015   */\n      sub\n        /* \"#utility.yul\":15991:15992   */\n      0x00\n        /* \"#utility.yul\":15980:15989   */\n      dup4\n        /* \"#utility.yul\":15976:15993   */\n      add\n        /* \"#utility.yul\":15969:16016   */\n      mstore\n        /* \"#utility.yul\":16033:16147   */\n      tag_468\n        /* \"#utility.yul\":16142:16146   */\n      dup2\n        /* \"#utility.yul\":16133:16139   */\n      dup5\n        /* \"#utility.yul\":16033:16147   */\n      tag_421\n      jump\t// in\n    tag_468:\n        /* \"#utility.yul\":16025:16147   */\n      swap1\n      pop\n        /* \"#utility.yul\":15769:16154   */\n      swap3\n      swap2\n      pop\n      pop\n      jump\t// out\n        /* \"#utility.yul\":16160:16525   */\n    tag_79:\n        /* \"#utility.yul\":16299:16303   */\n      0x00\n        /* \"#utility.yul\":16337:16339   */\n      0x20\n        /* \"#utility.yul\":16326:16335   */\n      dup3\n        /* \"#utility.yul\":16322:16340   */\n      add\n        /* \"#utility.yul\":16314:16340   */\n      swap1\n      pop\n        /* \"#utility.yul\":16386:16395   */\n      dup2\n        /* \"#utility.yul\":16380:16384   */\n      dup2\n        /* \"#utility.yul\":16376:16396   */\n      sub\n        /* \"#utility.yul\":16372:16373   */\n      0x00\n        /* \"#utility.yul\":16361:16370   */\n      dup4\n        /* \"#utility.yul\":16357:16374   */\n      add\n        /* \"#utility.yul\":16350:16397   */\n      mstore\n        /* \"#utility.yul\":16414:16518   */\n      tag_470\n        /* \"#utility.yul\":16513:16517   */\n      dup2\n        /* \"#utility.yul\":16504:16510   */\n      dup5\n        /* \"#utility.yul\":16414:16518   */\n      tag_434\n      jump\t// in\n    tag_470:\n        /* \"#utility.yul\":16406:16518   */\n      swap1\n      pop\n        /* \"#utility.yul\":16160:16525   */\n      swap3\n      swap2\n      pop\n      pop\n      jump\t// out\n        /* \"#utility.yul\":16531:16900   */\n    tag_89:\n        /* \"#utility.yul\":16672:16676   */\n      0x00\n        /* \"#utility.yul\":16710:16712   */\n      0x20\n        /* \"#utility.yul\":16699:16708   */\n      dup3\n        /* \"#utility.yul\":16695:16713   */\n      add\n        /* \"#utility.yul\":16687:16713   */\n      swap1\n      pop\n        /* \"#utility.yul\":16759:16768   */\n      dup2\n        /* \"#utility.yul\":16753:16757   */\n      dup2\n        /* \"#utility.yul\":16749:16769   */\n      sub\n        /* \"#utility.yul\":16745:16746   */\n      0x00\n        /* \"#utility.yul\":16734:16743   */\n      dup4\n        /* \"#utility.yul\":16730:16747   */\n      add\n        /* \"#utility.yul\":16723:16770   */\n      mstore\n        /* \"#utility.yul\":16787:16893   */\n      tag_472\n        /* \"#utility.yul\":16888:16892   */\n      dup2\n        /* \"#utility.yul\":16879:16885   */\n      dup5\n        /* \"#utility.yul\":16787:16893   */\n      tag_442\n      jump\t// in\n    tag_472:\n        /* \"#utility.yul\":16779:16893   */\n      swap1\n      pop\n        /* \"#utility.yul\":16531:16900   */\n      swap3\n      swap2\n      pop\n      pop\n      jump\t// out\n        /* \"#utility.yul\":16906:17275   */\n    tag_39:\n        /* \"#utility.yul\":17047:17051   */\n      0x00\n        /* \"#utility.yul\":17085:17087   */\n      0x20\n        /* \"#utility.yul\":17074:17083   */\n      dup3\n        /* \"#utility.yul\":17070:17088   */\n      add\n        /* \"#utility.yul\":17062:17088   */\n      swap1\n      pop\n        /* \"#utility.yul\":17134:17143   */\n      dup2\n        /* \"#utility.yul\":17128:17132   */\n      dup2\n        /* \"#utility.yul\":17124:17144   */\n      sub\n        /* \"#utility.yul\":17120:17121   */\n      0x00\n        /* \"#utility.yul\":17109:17118   */\n      dup4\n        /* \"#utility.yul\":17105:17122   */\n      add\n        /* \"#utility.yul\":17098:17145   */\n      mstore\n        /* \"#utility.yul\":17162:17268   */\n      tag_474\n        /* \"#utility.yul\":17263:17267   */\n      dup2\n        /* \"#utility.yul\":17254:17260   */\n      dup5\n        /* \"#utility.yul\":17162:17268   */\n      tag_447\n      jump\t// in\n    tag_474:\n        /* \"#utility.yul\":17154:17268   */\n      swap1\n      pop\n        /* \"#utility.yul\":16906:17275   */\n      swap3\n      swap2\n      pop\n      pop\n      jump\t// out\n        /* \"#utility.yul\":17281:17503   */\n    tag_28:\n        /* \"#utility.yul\":17374:17378   */\n      0x00\n        /* \"#utility.yul\":17412:17414   */\n      0x20\n        /* \"#utility.yul\":17401:17410   */\n      dup3\n        /* \"#utility.yul\":17397:17415   */\n      add\n        /* \"#utility.yul\":17389:17415   */\n      swap1\n      pop\n        /* \"#utility.yul\":17425:17496   */\n      tag_476\n        /* \"#utility.yul\":17493:17494   */\n      0x00\n        /* \"#utility.yul\":17482:17491   */\n      dup4\n        /* \"#utility.yul\":17478:17495   */\n      add\n        /* \"#utility.yul\":17469:17475   */\n      dup5\n        /* \"#utility.yul\":17425:17496   */\n      tag_456\n      jump\t// in\n    tag_476:\n        /* \"#utility.yul\":17281:17503   */\n      swap3\n      swap2\n      pop\n      pop\n      jump\t// out\n        /* \"#utility.yul\":17509:17932   */\n    tag_58:\n        /* \"#utility.yul\":17650:17654   */\n      0x00\n        /* \"#utility.yul\":17688:17690   */\n      0x40\n        /* \"#utility.yul\":17677:17686   */\n      dup3\n        /* \"#utility.yul\":17673:17691   */\n      add\n        /* \"#utility.yul\":17665:17691   */\n      swap1\n      pop\n        /* \"#utility.yul\":17701:17772   */\n      tag_478\n        /* \"#utility.yul\":17769:17770   */\n      0x00\n        /* \"#utility.yul\":17758:17767   */\n      dup4\n        /* \"#utility.yul\":17754:17771   */\n      add\n        /* \"#utility.yul\":17745:17751   */\n      dup6\n        /* \"#utility.yul\":17701:17772   */\n      tag_456\n      jump\t// in\n    tag_478:\n        /* \"#utility.yul\":17819:17828   */\n      dup2\n        /* \"#utility.yul\":17813:17817   */\n      dup2\n        /* \"#utility.yul\":17809:17829   */\n      sub\n        /* \"#utility.yul\":17804:17806   */\n      0x20\n        /* \"#utility.yul\":17793:17802   */\n      dup4\n        /* \"#utility.yul\":17789:17807   */\n      add\n        /* \"#utility.yul\":17782:17830   */\n      mstore\n        /* \"#utility.yul\":17847:17925   */\n      tag_479\n        /* \"#utility.yul\":17920:17924   */\n      dup2\n        /* \"#utility.yul\":17911:17917   */\n      dup5\n        /* \"#utility.yul\":17847:17925   */\n      tag_408\n      jump\t// in\n    tag_479:\n        /* \"#utility.yul\":17839:17925   */\n      swap1\n      pop\n        /* \"#utility.yul\":17509:17932   */\n      swap4\n      swap3\n      pop\n      pop\n      pop\n      jump\t// out\n        /* \"#utility.yul\":17938:18562   */\n    tag_44:\n        /* \"#utility.yul\":18127:18131   */\n      0x00\n        /* \"#utility.yul\":18165:18167   */\n      0x60\n        /* \"#utility.yul\":18154:18163   */\n      dup3\n        /* \"#utility.yul\":18150:18168   */\n      add\n        /* \"#utility.yul\":18142:18168   */\n      swap1\n      pop\n        /* \"#utility.yul\":18178:18249   */\n      tag_481\n        /* \"#utility.yul\":18246:18247   */\n      0x00\n        /* \"#utility.yul\":18235:18244   */\n      dup4\n        /* \"#utility.yul\":18231:18248   */\n      add\n        /* \"#utility.yul\":18222:18228   */\n      dup7\n        /* \"#utility.yul\":18178:18249   */\n      tag_456\n      jump\t// in\n    tag_481:\n        /* \"#utility.yul\":18296:18305   */\n      dup2\n        /* \"#utility.yul\":18290:18294   */\n      dup2\n        /* \"#utility.yul\":18286:18306   */\n      sub\n        /* \"#utility.yul\":18281:18283   */\n      0x20\n        /* \"#utility.yul\":18270:18279   */\n      dup4\n        /* \"#utility.yul\":18266:18284   */\n      add\n        /* \"#utility.yul\":18259:18307   */\n      mstore\n        /* \"#utility.yul\":18324:18402   */\n      tag_482\n        /* \"#utility.yul\":18397:18401   */\n      dup2\n        /* \"#utility.yul\":18388:18394   */\n      dup6\n        /* \"#utility.yul\":18324:18402   */\n      tag_408\n      jump\t// in\n    tag_482:\n        /* \"#utility.yul\":18316:18402   */\n      swap1\n      pop\n        /* \"#utility.yul\":18449:18458   */\n      dup2\n        /* \"#utility.yul\":18443:18447   */\n      dup2\n        /* \"#utility.yul\":18439:18459   */\n      sub\n        /* \"#utility.yul\":18434:18436   */\n      0x40\n        /* \"#utility.yul\":18423:18432   */\n      dup4\n        /* \"#utility.yul\":18419:18437   */\n      add\n        /* \"#utility.yul\":18412:18460   */\n      mstore\n        /* \"#utility.yul\":18477:18555   */\n      tag_483\n        /* \"#utility.yul\":18550:18554   */\n      dup2\n        /* \"#utility.yul\":18541:18547   */\n      dup5\n        /* \"#utility.yul\":18477:18555   */\n      tag_408\n      jump\t// in\n    tag_483:\n        /* \"#utility.yul\":18469:18555   */\n      swap1\n      pop\n        /* \"#utility.yul\":17938:18562   */\n      swap5\n      swap4\n      pop\n      pop\n      pop\n      pop\n      jump\t// out\n        /* \"#utility.yul\":18568:19616   */\n    tag_49:\n        /* \"#utility.yul\":18861:18865   */\n      0x00\n        /* \"#utility.yul\":18899:18902   */\n      0xc0\n        /* \"#utility.yul\":18888:18897   */\n      dup3\n        /* \"#utility.yul\":18884:18903   */\n      add\n        /* \"#utility.yul\":18876:18903   */\n      swap1\n      pop\n        /* \"#utility.yul\":18913:18984   */\n      tag_485\n        /* \"#utility.yul\":18981:18982   */\n      0x00\n        /* \"#utility.yul\":18970:18979   */\n      dup4\n        /* \"#utility.yul\":18966:18983   */\n      add\n        /* \"#utility.yul\":18957:18963   */\n      dup10\n        /* \"#utility.yul\":18913:18984   */\n      tag_456\n      jump\t// in\n    tag_485:\n        /* \"#utility.yul\":19031:19040   */\n      dup2\n        /* \"#utility.yul\":19025:19029   */\n      dup2\n        /* \"#utility.yul\":19021:19041   */\n      sub\n        /* \"#utility.yul\":19016:19018   */\n      0x20\n        /* \"#utility.yul\":19005:19014   */\n      dup4\n        /* \"#utility.yul\":19001:19019   */\n      add\n        /* \"#utility.yul\":18994:19042   */\n      mstore\n        /* \"#utility.yul\":19059:19137   */\n      tag_486\n        /* \"#utility.yul\":19132:19136   */\n      dup2\n        /* \"#utility.yul\":19123:19129   */\n      dup9\n        /* \"#utility.yul\":19059:19137   */\n      tag_408\n      jump\t// in\n    tag_486:\n        /* \"#utility.yul\":19051:19137   */\n      swap1\n      pop\n        /* \"#utility.yul\":19147:19219   */\n      tag_487\n        /* \"#utility.yul\":19215:19217   */\n      0x40\n        /* \"#utility.yul\":19204:19213   */\n      dup4\n        /* \"#utility.yul\":19200:19218   */\n      add\n        /* \"#utility.yul\":19191:19197   */\n      dup8\n        /* \"#utility.yul\":19147:19219   */\n      tag_456\n      jump\t// in\n    tag_487:\n        /* \"#utility.yul\":19266:19275   */\n      dup2\n        /* \"#utility.yul\":19260:19264   */\n      dup2\n        /* \"#utility.yul\":19256:19276   */\n      sub\n        /* \"#utility.yul\":19251:19253   */\n      0x60\n        /* \"#utility.yul\":19240:19249   */\n      dup4\n        /* \"#utility.yul\":19236:19254   */\n      add\n        /* \"#utility.yul\":19229:19277   */\n      mstore\n        /* \"#utility.yul\":19294:19372   */\n      tag_488\n        /* \"#utility.yul\":19367:19371   */\n      dup2\n        /* \"#utility.yul\":19358:19364   */\n      dup7\n        /* \"#utility.yul\":19294:19372   */\n      tag_408\n      jump\t// in\n    tag_488:\n        /* \"#utility.yul\":19286:19372   */\n      swap1\n      pop\n        /* \"#utility.yul\":19420:19429   */\n      dup2\n        /* \"#utility.yul\":19414:19418   */\n      dup2\n        /* \"#utility.yul\":19410:19430   */\n      sub\n        /* \"#utility.yul\":19404:19407   */\n      0x80\n        /* \"#utility.yul\":19393:19402   */\n      dup4\n        /* \"#utility.yul\":19389:19408   */\n      add\n        /* \"#utility.yul\":19382:19431   */\n      mstore\n        /* \"#utility.yul\":19448:19526   */\n      tag_489\n        /* \"#utility.yul\":19521:19525   */\n      dup2\n        /* \"#utility.yul\":19512:19518   */\n      dup6\n        /* \"#utility.yul\":19448:19526   */\n      tag_408\n      jump\t// in\n    tag_489:\n        /* \"#utility.yul\":19440:19526   */\n      swap1\n      pop\n        /* \"#utility.yul\":19536:19609   */\n      tag_490\n        /* \"#utility.yul\":19604:19607   */\n      0xa0\n        /* \"#utility.yul\":19593:19602   */\n      dup4\n        /* \"#utility.yul\":19589:19608   */\n      add\n        /* \"#utility.yul\":19580:19586   */\n      dup5\n        /* \"#utility.yul\":19536:19609   */\n      tag_456\n      jump\t// in\n    tag_490:\n        /* \"#utility.yul\":18568:19616   */\n      swap8\n      swap7\n      pop\n      pop\n      pop\n      pop\n      pop\n      pop\n      pop\n      jump\t// out\n        /* \"#utility.yul\":19622:19751   */\n    tag_318:\n        /* \"#utility.yul\":19656:19662   */\n      0x00\n        /* \"#utility.yul\":19683:19703   */\n      tag_492\n      tag_493\n      jump\t// in\n    tag_492:\n        /* \"#utility.yul\":19673:19703   */\n      swap1\n      pop\n        /* \"#utility.yul\":19712:19745   */\n      tag_494\n        /* \"#utility.yul\":19740:19744   */\n      dup3\n        /* \"#utility.yul\":19732:19738   */\n      dup3\n        /* \"#utility.yul\":19712:19745   */\n      tag_495\n      jump\t// in\n    tag_494:\n        /* \"#utility.yul\":19622:19751   */\n      swap2\n      swap1\n      pop\n      jump\t// out\n        /* \"#utility.yul\":19757:19832   */\n    tag_493:\n        /* \"#utility.yul\":19790:19796   */\n      0x00\n        /* \"#utility.yul\":19823:19825   */\n      0x40\n        /* \"#utility.yul\":19817:19826   */\n      mload\n        /* \"#utility.yul\":19807:19826   */\n      swap1\n      pop\n        /* \"#utility.yul\":19757:19832   */\n      swap1\n      jump\t// out\n        /* \"#utility.yul\":19838:20146   */\n    tag_317:\n        /* \"#utility.yul\":19900:19904   */\n      0x00\n        /* \"#utility.yul\":19990:20008   */\n      0xffffffffffffffff\n        /* \"#utility.yul\":19982:19988   */\n      dup3\n        /* \"#utility.yul\":19979:20009   */\n      gt\n        /* \"#utility.yul\":19976:20032   */\n      iszero\n      tag_498\n      jumpi\n        /* \"#utility.yul\":20012:20030   */\n      tag_499\n      tag_109\n      jump\t// in\n    tag_499:\n        /* \"#utility.yul\":19976:20032   */\n    tag_498:\n        /* \"#utility.yul\":20050:20079   */\n      tag_500\n        /* \"#utility.yul\":20072:20078   */\n      dup3\n        /* \"#utility.yul\":20050:20079   */\n      tag_407\n      jump\t// in\n    tag_500:\n        /* \"#utility.yul\":20042:20079   */\n      swap1\n      pop\n        /* \"#utility.yul\":20134:20138   */\n      0x20\n        /* \"#utility.yul\":20128:20132   */\n      dup2\n        /* \"#utility.yul\":20124:20139   */\n      add\n        /* \"#utility.yul\":20116:20139   */\n      swap1\n      pop\n        /* \"#utility.yul\":19838:20146   */\n      swap2\n      swap1\n      pop\n      jump\t// out\n        /* \"#utility.yul\":20152:20307   */\n    tag_377:\n        /* \"#utility.yul\":20242:20246   */\n      0x00\n        /* \"#utility.yul\":20265:20268   */\n      dup2\n        /* \"#utility.yul\":20257:20268   */\n      swap1\n      pop\n        /* \"#utility.yul\":20295:20299   */\n      0x20\n        /* \"#utility.yul\":20290:20293   */\n      dup3\n        /* \"#utility.yul\":20286:20300   */\n      add\n        /* \"#utility.yul\":20278:20300   */\n      swap1\n      pop\n        /* \"#utility.yul\":20152:20307   */\n      swap2\n      swap1\n      pop\n      jump\t// out\n        /* \"#utility.yul\":20313:20445   */\n    tag_391:\n        /* \"#utility.yul\":20380:20384   */\n      0x00\n        /* \"#utility.yul\":20403:20406   */\n      dup2\n        /* \"#utility.yul\":20395:20406   */\n      swap1\n      pop\n        /* \"#utility.yul\":20433:20437   */\n      0x20\n        /* \"#utility.yul\":20428:20431   */\n      dup3\n        /* \"#utility.yul\":20424:20438   */\n      add\n        /* \"#utility.yul\":20416:20438   */\n      swap1\n      pop\n        /* \"#utility.yul\":20313:20445   */\n      swap2\n      swap1\n      pop\n      jump\t// out\n        /* \"#utility.yul\":20451:20588   */\n    tag_373:\n        /* \"#utility.yul\":20541:20547   */\n      0x00\n        /* \"#utility.yul\":20575:20580   */\n      dup2\n        /* \"#utility.yul\":20569:20581   */\n      mload\n        /* \"#utility.yul\":20559:20581   */\n      swap1\n      pop\n        /* \"#utility.yul\":20451:20588   */\n      swap2\n      swap1\n      pop\n      jump\t// out\n        /* \"#utility.yul\":20594:20708   */\n    tag_387:\n        /* \"#utility.yul\":20661:20667   */\n      0x00\n        /* \"#utility.yul\":20695:20700   */\n      dup2\n        /* \"#utility.yul\":20689:20701   */\n      mload\n        /* \"#utility.yul\":20679:20701   */\n      swap1\n      pop\n        /* \"#utility.yul\":20594:20708   */\n      swap2\n      swap1\n      pop\n      jump\t// out\n        /* \"#utility.yul\":20714:20813   */\n    tag_401:\n        /* \"#utility.yul\":20766:20772   */\n      0x00\n        /* \"#utility.yul\":20800:20805   */\n      dup2\n        /* \"#utility.yul\":20794:20806   */\n      mload\n        /* \"#utility.yul\":20784:20806   */\n      swap1\n      pop\n        /* \"#utility.yul\":20714:20813   */\n      swap2\n      swap1\n      pop\n      jump\t// out\n        /* \"#utility.yul\":20819:20955   */\n    tag_383:\n        /* \"#utility.yul\":20912:20916   */\n      0x00\n        /* \"#utility.yul\":20944:20948   */\n      0x20\n        /* \"#utility.yul\":20939:20942   */\n      dup3\n        /* \"#utility.yul\":20935:20949   */\n      add\n        /* \"#utility.yul\":20927:20949   */\n      swap1\n      pop\n        /* \"#utility.yul\":20819:20955   */\n      swap2\n      swap1\n      pop\n      jump\t// out\n        /* \"#utility.yul\":20961:21074   */\n    tag_397:\n        /* \"#utility.yul\":21031:21035   */\n      0x00\n        /* \"#utility.yul\":21063:21067   */\n      0x20\n        /* \"#utility.yul\":21058:21061   */\n      dup3\n        /* \"#utility.yul\":21054:21068   */\n      add\n        /* \"#utility.yul\":21046:21068   */\n      swap1\n      pop\n        /* \"#utility.yul\":20961:21074   */\n      swap2\n      swap1\n      pop\n      jump\t// out\n        /* \"#utility.yul\":21080:21287   */\n    tag_375:\n        /* \"#utility.yul\":21202:21213   */\n      0x00\n        /* \"#utility.yul\":21236:21242   */\n      dup3\n        /* \"#utility.yul\":21231:21234   */\n      dup3\n        /* \"#utility.yul\":21224:21243   */\n      mstore\n        /* \"#utility.yul\":21276:21280   */\n      0x20\n        /* \"#utility.yul\":21271:21274   */\n      dup3\n        /* \"#utility.yul\":21267:21281   */\n      add\n        /* \"#utility.yul\":21252:21281   */\n      swap1\n      pop\n        /* \"#utility.yul\":21080:21287   */\n      swap3\n      swap2\n      pop\n      pop\n      jump\t// out\n        /* \"#utility.yul\":21293:21467   */\n    tag_389:\n        /* \"#utility.yul\":21382:21393   */\n      0x00\n        /* \"#utility.yul\":21416:21422   */\n      dup3\n        /* \"#utility.yul\":21411:21414   */\n      dup3\n        /* \"#utility.yul\":21404:21423   */\n      mstore\n        /* \"#utility.yul\":21456:21460   */\n      0x20\n        /* \"#utility.yul\":21451:21454   */\n      dup3\n        /* \"#utility.yul\":21447:21461   */\n      add\n        /* \"#utility.yul\":21432:21461   */\n      swap1\n      pop\n        /* \"#utility.yul\":21293:21467   */\n      swap3\n      swap2\n      pop\n      pop\n      jump\t// out\n        /* \"#utility.yul\":21473:21632   */\n    tag_403:\n        /* \"#utility.yul\":21547:21558   */\n      0x00\n        /* \"#utility.yul\":21581:21587   */\n      dup3\n        /* \"#utility.yul\":21576:21579   */\n      dup3\n        /* \"#utility.yul\":21569:21588   */\n      mstore\n        /* \"#utility.yul\":21621:21625   */\n      0x20\n        /* \"#utility.yul\":21616:21619   */\n      dup3\n        /* \"#utility.yul\":21612:21626   */\n      add\n        /* \"#utility.yul\":21597:21626   */\n      swap1\n      pop\n        /* \"#utility.yul\":21473:21632   */\n      swap3\n      swap2\n      pop\n      pop\n      jump\t// out\n        /* \"#utility.yul\":21638:21807   */\n    tag_412:\n        /* \"#utility.yul\":21722:21733   */\n      0x00\n        /* \"#utility.yul\":21756:21762   */\n      dup3\n        /* \"#utility.yul\":21751:21754   */\n      dup3\n        /* \"#utility.yul\":21744:21763   */\n      mstore\n        /* \"#utility.yul\":21796:21800   */\n      0x20\n        /* \"#utility.yul\":21791:21794   */\n      dup3\n        /* \"#utility.yul\":21787:21801   */\n      add\n        /* \"#utility.yul\":21772:21801   */\n      swap1\n      pop\n        /* \"#utility.yul\":21638:21807   */\n      swap3\n      swap2\n      pop\n      pop\n      jump\t// out\n        /* \"#utility.yul\":21813:21890   */\n    tag_455:\n        /* \"#utility.yul\":21850:21857   */\n      0x00\n        /* \"#utility.yul\":21879:21884   */\n      dup2\n        /* \"#utility.yul\":21868:21884   */\n      swap1\n      pop\n        /* \"#utility.yul\":21813:21890   */\n      swap2\n      swap1\n      pop\n      jump\t// out\n        /* \"#utility.yul\":21896:22050   */\n    tag_323:\n        /* \"#utility.yul\":21980:21986   */\n      dup3\n        /* \"#utility.yul\":21975:21978   */\n      dup2\n        /* \"#utility.yul\":21970:21973   */\n      dup4\n        /* \"#utility.yul\":21957:21987   */\n      calldatacopy\n        /* \"#utility.yul\":22042:22043   */\n      0x00\n        /* \"#utility.yul\":22033:22039   */\n      dup4\n        /* \"#utility.yul\":22028:22031   */\n      dup4\n        /* \"#utility.yul\":22024:22040   */\n      add\n        /* \"#utility.yul\":22017:22044   */\n      mstore\n        /* \"#utility.yul\":21896:22050   */\n      pop\n      pop\n      pop\n      jump\t// out\n        /* \"#utility.yul\":22056:22363   */\n    tag_405:\n        /* \"#utility.yul\":22124:22125   */\n      0x00\n        /* \"#utility.yul\":22134:22247   */\n    tag_515:\n        /* \"#utility.yul\":22148:22154   */\n      dup4\n        /* \"#utility.yul\":22145:22146   */\n      dup2\n        /* \"#utility.yul\":22142:22155   */\n      lt\n        /* \"#utility.yul\":22134:22247   */\n      iszero\n      tag_517\n      jumpi\n        /* \"#utility.yul\":22233:22234   */\n      dup1\n        /* \"#utility.yul\":22228:22231   */\n      dup3\n        /* \"#utility.yul\":22224:22235   */\n      add\n        /* \"#utility.yul\":22218:22236   */\n      mload\n        /* \"#utility.yul\":22214:22215   */\n      dup2\n        /* \"#utility.yul\":22209:22212   */\n      dup5\n        /* \"#utility.yul\":22205:22216   */\n      add\n        /* \"#utility.yul\":22198:22237   */\n      mstore\n        /* \"#utility.yul\":22170:22172   */\n      0x20\n        /* \"#utility.yul\":22167:22168   */\n      dup2\n        /* \"#utility.yul\":22163:22173   */\n      add\n        /* \"#utility.yul\":22158:22173   */\n      swap1\n      pop\n        /* \"#utility.yul\":22134:22247   */\n      jump(tag_515)\n    tag_517:\n        /* \"#utility.yul\":22265:22271   */\n      dup4\n        /* \"#utility.yul\":22262:22263   */\n      dup2\n        /* \"#utility.yul\":22259:22272   */\n      gt\n        /* \"#utility.yul\":22256:22357   */\n      iszero\n      tag_518\n      jumpi\n        /* \"#utility.yul\":22345:22346   */\n      0x00\n        /* \"#utility.yul\":22336:22342   */\n      dup5\n        /* \"#utility.yul\":22331:22334   */\n      dup5\n        /* \"#utility.yul\":22327:22343   */\n      add\n        /* \"#utility.yul\":22320:22347   */\n      mstore\n        /* \"#utility.yul\":22256:22357   */\n    tag_518:\n        /* \"#utility.yul\":22105:22363   */\n      pop\n        /* \"#utility.yul\":22056:22363   */\n      pop\n      pop\n      pop\n      jump\t// out\n        /* \"#utility.yul\":22369:22689   */\n    tag_120:\n        /* \"#utility.yul\":22413:22419   */\n      0x00\n        /* \"#utility.yul\":22450:22451   */\n      0x02\n        /* \"#utility.yul\":22444:22448   */\n      dup3\n        /* \"#utility.yul\":22440:22452   */\n      div\n        /* \"#utility.yul\":22430:22452   */\n      swap1\n      pop\n        /* \"#utility.yul\":22497:22498   */\n      0x01\n        /* \"#utility.yul\":22491:22495   */\n      dup3\n        /* \"#utility.yul\":22487:22499   */\n      and\n        /* \"#utility.yul\":22518:22536   */\n      dup1\n        /* \"#utility.yul\":22508:22589   */\n      tag_520\n      jumpi\n        /* \"#utility.yul\":22574:22578   */\n      0x7f\n        /* \"#utility.yul\":22566:22572   */\n      dup3\n        /* \"#utility.yul\":22562:22579   */\n      and\n        /* \"#utility.yul\":22552:22579   */\n      swap2\n      pop\n        /* \"#utility.yul\":22508:22589   */\n    tag_520:\n        /* \"#utility.yul\":22636:22638   */\n      0x20\n        /* \"#utility.yul\":22628:22634   */\n      dup3\n        /* \"#utility.yul\":22625:22639   */\n      lt\n        /* \"#utility.yul\":22605:22623   */\n      dup2\n        /* \"#utility.yul\":22602:22640   */\n      eq\n        /* \"#utility.yul\":22599:22683   */\n      iszero\n      tag_521\n      jumpi\n        /* \"#utility.yul\":22655:22673   */\n      tag_522\n      tag_523\n      jump\t// in\n    tag_522:\n        /* \"#utility.yul\":22599:22683   */\n    tag_521:\n        /* \"#utility.yul\":22420:22689   */\n      pop\n        /* \"#utility.yul\":22369:22689   */\n      swap2\n      swap1\n      pop\n      jump\t// out\n        /* \"#utility.yul\":22695:22976   */\n    tag_495:\n        /* \"#utility.yul\":22778:22805   */\n      tag_525\n        /* \"#utility.yul\":22800:22804   */\n      dup3\n        /* \"#utility.yul\":22778:22805   */\n      tag_407\n      jump\t// in\n    tag_525:\n        /* \"#utility.yul\":22770:22776   */\n      dup2\n        /* \"#utility.yul\":22766:22806   */\n      add\n        /* \"#utility.yul\":22908:22914   */\n      dup2\n        /* \"#utility.yul\":22896:22906   */\n      dup2\n        /* \"#utility.yul\":22893:22915   */\n      lt\n        /* \"#utility.yul\":22872:22890   */\n      0xffffffffffffffff\n        /* \"#utility.yul\":22860:22870   */\n      dup3\n        /* \"#utility.yul\":22857:22891   */\n      gt\n        /* \"#utility.yul\":22854:22916   */\n      or\n        /* \"#utility.yul\":22851:22939   */\n      iszero\n      tag_526\n      jumpi\n        /* \"#utility.yul\":22919:22937   */\n      tag_527\n      tag_109\n      jump\t// in\n    tag_527:\n        /* \"#utility.yul\":22851:22939   */\n    tag_526:\n        /* \"#utility.yul\":22959:22969   */\n      dup1\n        /* \"#utility.yul\":22955:22957   */\n      0x40\n        /* \"#utility.yul\":22948:22970   */\n      mstore\n        /* \"#utility.yul\":22738:22976   */\n      pop\n        /* \"#utility.yul\":22695:22976   */\n      pop\n      pop\n      jump\t// out\n        /* \"#utility.yul\":22982:23215   */\n    tag_193:\n        /* \"#utility.yul\":23021:23024   */\n      0x00\n        /* \"#utility.yul\":23044:23068   */\n      tag_529\n        /* \"#utility.yul\":23062:23067   */\n      dup3\n        /* \"#utility.yul\":23044:23068   */\n      tag_455\n      jump\t// in\n    tag_529:\n        /* \"#utility.yul\":23035:23068   */\n      swap2\n      pop\n        /* \"#utility.yul\":23090:23156   */\n      0xffffffffffffffffffffffffffffffffffffffffffffffffffffffffffffffff\n        /* \"#utility.yul\":23083:23088   */\n      dup3\n        /* \"#utility.yul\":23080:23157   */\n      eq\n        /* \"#utility.yul\":23077:23180   */\n      iszero\n      tag_530\n      jumpi\n        /* \"#utility.yul\":23160:23178   */\n      tag_531\n      tag_532\n      jump\t// in\n    tag_531:\n        /* \"#utility.yul\":23077:23180   */\n    tag_530:\n        /* \"#utility.yul\":23207:23208   */\n      0x01\n        /* \"#utility.yul\":23200:23205   */\n      dup3\n        /* \"#utility.yul\":23196:23209   */\n      add\n        /* \"#utility.yul\":23189:23209   */\n      swap1\n      pop\n        /* \"#utility.yul\":22982:23215   */\n      swap2\n      swap1\n      pop\n      jump\t// out\n        /* \"#utility.yul\":23221:23401   */\n    tag_532:\n        /* \"#utility.yul\":23269:23346   */\n      0x4e487b7100000000000000000000000000000000000000000000000000000000\n        /* \"#utility.yul\":23266:23267   */\n      0x00\n        /* \"#utility.yul\":23259:23347   */\n      mstore\n        /* \"#utility.yul\":23366:23370   */\n      0x11\n        /* \"#utility.yul\":23363:23364   */\n      0x04\n        /* \"#utility.yul\":23356:23371   */\n      mstore\n        /* \"#utility.yul\":23390:23394   */\n      0x24\n        /* \"#utility.yul\":23387:23388   */\n      0x00\n        /* \"#utility.yul\":23380:23395   */\n      revert\n        /* \"#utility.yul\":23407:23587   */\n    tag_523:\n        /* \"#utility.yul\":23455:23532   */\n      0x4e487b7100000000000000000000000000000000000000000000000000000000\n        /* \"#utility.yul\":23452:23453   */\n      0x00\n        /* \"#utility.yul\":23445:23533   */\n      mstore\n        /* \"#utility.yul\":23552:23556   */\n      0x22\n        /* \"#utility.yul\":23549:23550   */\n      0x04\n        /* \"#utility.yul\":23542:23557   */\n      mstore\n        /* \"#utility.yul\":23576:23580   */\n      0x24\n        /* \"#utility.yul\":23573:23574   */\n      0x00\n        /* \"#utility.yul\":23566:23581   */\n      revert\n        /* \"#utility.yul\":23593:23773   */\n    tag_295:\n        /* \"#utility.yul\":23641:23718   */\n      0x4e487b7100000000000000000000000000000000000000000000000000000000\n        /* \"#utility.yul\":23638:23639   */\n      0x00\n        /* \"#utility.yul\":23631:23719   */\n      mstore\n        /* \"#utility.yul\":23738:23742   */\n      0x32\n        /* \"#utility.yul\":23735:23736   */\n      0x04\n        /* \"#utility.yul\":23728:23743   */\n      mstore\n        /* \"#utility.yul\":23762:23766   */\n      0x24\n        /* \"#utility.yul\":23759:23760   */\n      0x00\n        /* \"#utility.yul\":23752:23767   */\n      revert\n        /* \"#utility.yul\":23779:23959   */\n    tag_109:\n        /* \"#utility.yul\":23827:23904   */\n      0x4e487b7100000000000000000000000000000000000000000000000000000000\n        /* \"#utility.yul\":23824:23825   */\n      0x00\n        /* \"#utility.yul\":23817:23905   */\n      mstore\n        /* \"#utility.yul\":23924:23928   */\n      0x41\n        /* \"#utility.yul\":23921:23922   */\n      0x04\n        /* \"#utility.yul\":23914:23929   */\n      mstore\n        /* \"#utility.yul\":23948:23952   */\n      0x24\n        /* \"#utility.yul\":23945:23946   */\n      0x00\n        /* \"#utility.yul\":23938:23953   */\n      revert\n        /* \"#utility.yul\":23965:24082   */\n    tag_328:\n        /* \"#utility.yul\":24074:24075   */\n      0x00\n        /* \"#utility.yul\":24071:24072   */\n      dup1\n        /* \"#utility.yul\":24064:24076   */\n      revert\n        /* \"#utility.yul\":24088:24205   */\n    tag_321:\n        /* \"#utility.yul\":24197:24198   */\n      0x00\n        /* \"#utility.yul\":24194:24195   */\n      dup1\n        /* \"#utility.yul\":24187:24199   */\n      revert\n        /* \"#utility.yul\":24211:24328   */\n    tag_340:\n        /* \"#utility.yul\":24320:24321   */\n      0x00\n        /* \"#utility.yul\":24317:24318   */\n      dup1\n        /* \"#utility.yul\":24310:24322   */\n      revert\n        /* \"#utility.yul\":24334:24451   */\n    tag_337:\n        /* \"#utility.yul\":24443:24444   */\n      0x00\n        /* \"#utility.yul\":24440:24441   */\n      dup1\n        /* \"#utility.yul\":24433:24445   */\n      revert\n        /* \"#utility.yul\":24457:24559   */\n    tag_407:\n        /* \"#utility.yul\":24498:24504   */\n      0x00\n        /* \"#utility.yul\":24549:24551   */\n      0x1f\n        /* \"#utility.yul\":24545:24552   */\n      not\n        /* \"#utility.yul\":24540:24542   */\n      0x1f\n        /* \"#utility.yul\":24533:24538   */\n      dup4\n        /* \"#utility.yul\":24529:24543   */\n      add\n        /* \"#utility.yul\":24525:24553   */\n      and\n        /* \"#utility.yul\":24515:24553   */\n      swap1\n      pop\n        /* \"#utility.yul\":24457:24559   */\n      swap2\n      swap1\n      pop\n      jump\t// out\n        /* \"#utility.yul\":24565:24687   */\n    tag_333:\n        /* \"#utility.yul\":24638:24662   */\n      tag_543\n        /* \"#utility.yul\":24656:24661   */\n      dup2\n        /* \"#utility.yul\":24638:24662   */\n      tag_455\n      jump\t// in\n    tag_543:\n        /* \"#utility.yul\":24631:24636   */\n      dup2\n        /* \"#utility.yul\":24628:24663   */\n      eq\n        /* \"#utility.yul\":24618:24681   */\n      tag_544\n      jumpi\n        /* \"#utility.yul\":24677:24678   */\n      0x00\n        /* \"#utility.yul\":24674:24675   */\n      dup1\n        /* \"#utility.yul\":24667:24679   */\n      revert\n        /* \"#utility.yul\":24618:24681   */\n    tag_544:\n        /* \"#utility.yul\":24565:24687   */\n      pop\n      jump\t// out\n\n    auxdata: 0xa2646970667358221220f796127e44b64a2400dc9c9e445a71546813aab7998fd5d54141f0846a2ba48964736f6c63430008070033\n}\n",
				"bytecode": {
					"linkReferences": {},
					"object": "6080604052336000806101000a81548173ffffffffffffffffffffffffffffffffffffffff021916908373ffffffffffffffffffffffffffffffffffffffff160217905550600060025534801561005557600080fd5b50612852806100656000396000f3fe608060405234801561001057600080fd5b506004361061010b5760003560e01c80638f5ae799116100a2578063cb80c41911610071578063cb80c41914610346578063cda5e4a514610376578063cea23121146103a6578063f032edec146103d8578063f4fd4cbb146103f45761010b565b80638f5ae7991461028457806390175af1146102b457806395d00407146102e6578063b9db15b4146103165761010b565b80637acc0b20116100de5780637acc0b20146101d257806381d9def214610207578063897ec7df146102375780638f29695a146102685761010b565b806315533a2714610110578063333f3dd0146101405780633779643f1461017057806350b492ba146101a0575b600080fd5b61012a60048036038101906101259190611d6c565b610412565b6040516101379190612431565b60405180910390f35b61015a60048036038101906101559190611e40565b610575565b6040516101679190612387565b60405180910390f35b61018a60048036038101906101859190611e40565b610728565b604051610197919061240f565b60405180910390f35b6101ba60048036038101906101b59190611e40565b6108db565b6040516101c99392919061247c565b60405180910390f35b6101ec60048036038101906101e79190611e40565b610a15565b6040516101fe969594939291906124c1565b60405180910390f35b610221600480360381019061021c9190611d6c565b610be9565b60405161022e9190612431565b60405180910390f35b610251600480360381019061024c9190611e40565b610d4c565b60405161025f92919061244c565b60405180910390f35b610282600480360381019061027d9190611db5565b610df8565b005b61029e60048036038101906102999190611d6c565b610f24565b6040516102ab9190612431565b60405180910390f35b6102ce60048036038101906102c99190611e40565b611087565b6040516102dd9392919061247c565b60405180910390f35b61030060048036038101906102fb9190611d6c565b6111c1565b60405161030d9190612431565b60405180910390f35b610330600480360381019061032b9190611e40565b6112c9565b60405161033d91906123cb565b60405180910390f35b610360600480360381019061035b9190611e40565b6114ca565b60405161036d91906123a9565b60405180910390f35b610390600480360381019061038b9190611e40565b61167d565b60405161039d91906123ed565b60405180910390f35b6103c060048036038101906103bb9190611e40565b61179e565b6040516103cf9392919061247c565b60405180910390f35b6103f260048036038101906103ed9190611e6d565b6118d8565b005b6103fc6118dd565b6040516104099190612327565b60405180910390f35b600061041c611b28565b82424460405160200161043193929190612349565b6040516020818303038152906040528051906020012060001c8160000181815250506040518060400160405280600281526020017f53550000000000000000000000000000000000000000000000000000000000008152508160200181905250828160400181905250600067ffffffffffffffff8111156104b5576104b46127b1565b5b6040519080825280602002602001820160405280156104e35781602001602082028036833780820191505090505b50816060018190525080600360008360000151815260200190815260200160002060008201518160000155602082015181600101908051906020019061052a929190611b50565b506040820151816002019080519060200190610547929190611b50565b506060820151816003019080519060200190610564929190611bd6565b509050508060000151915050919050565b61057d611c23565b60056000838152602001908152602001600020604051806080016040529081600082015481526020016001820180546105b590612678565b80601f01602080910402602001604051908101604052809291908181526020018280546105e190612678565b801561062e5780601f106106035761010080835404028352916020019161062e565b820191906000526020600020905b81548152906001019060200180831161061157829003601f168201915b5050505050815260200160028201805461064790612678565b80601f016020809104026020016040519081016040528092919081815260200182805461067390612678565b80156106c05780601f10610695576101008083540402835291602001916106c0565b820191906000526020600020905b8154815290600101906020018083116106a357829003601f168201915b505050505081526020016003820180548060200260200160405190810160405280929190818152602001828054801561071857602002820191906000526020600020905b815481526020019060010190808311610704575b5050505050815250509050919050565b610730611b28565b600360008381526020019081526020016000206040518060800160405290816000820154815260200160018201805461076890612678565b80601f016020809104026020016040519081016040528092919081815260200182805461079490612678565b80156107e15780601f106107b6576101008083540402835291602001916107e1565b820191906000526020600020905b8154815290600101906020018083116107c457829003601f168201915b505050505081526020016002820180546107fa90612678565b80601f016020809104026020016040519081016040528092919081815260200182805461082690612678565b80156108735780601f1061084857610100808354040283529160200191610873565b820191906000526020600020905b81548152906001019060200180831161085657829003601f168201915b50505050508152602001600382018054806020026020016040519081016040528092919081815260200182805480156108cb57602002820191906000526020600020905b8154815260200190600101908083116108b7575b5050505050815250509050919050565b600560205280600052604060002060009150905080600001549080600101805461090490612678565b80601f016020809104026020016040519081016040528092919081815260200182805461093090612678565b801561097d5780601f106109525761010080835404028352916020019161097d565b820191906000526020600020905b81548152906001019060200180831161096057829003601f168201915b50505050509080600201805461099290612678565b80601f01602080910402602001604051908101604052809291908181526020018280546109be90612678565b8015610a0b5780601f106109e057610100808354040283529160200191610a0b565b820191906000526020600020905b8154815290600101906020018083116109ee57829003601f168201915b5050505050905083565b6001602052806000526040600020600091509050806000015490806001018054610a3e90612678565b80601f0160208091040260200160405190810160405280929190818152602001828054610a6a90612678565b8015610ab75780601f10610a8c57610100808354040283529160200191610ab7565b820191906000526020600020905b815481529060010190602001808311610a9a57829003601f168201915b505050505090806002015490806003018054610ad290612678565b80601f0160208091040260200160405190810160405280929190818152602001828054610afe90612678565b8015610b4b5780601f10610b2057610100808354040283529160200191610b4b565b820191906000526020600020905b815481529060010190602001808311610b2e57829003601f168201915b505050505090806004018054610b6090612678565b80601f0160208091040260200160405190810160405280929190818152602001828054610b8c90612678565b8015610bd95780601f10610bae57610100808354040283529160200191610bd9565b820191906000526020600020905b815481529060010190602001808311610bbc57829003601f168201915b5050505050908060050154905086565b6000610bf3611c23565b824244604051602001610c0893929190612349565b6040516020818303038152906040528051906020012060001c8160000181815250506040518060400160405280600281526020017f44490000000000000000000000000000000000000000000000000000000000008152508160200181905250828160400181905250600067ffffffffffffffff811115610c8c57610c8b6127b1565b5b604051908082528060200260200182016040528015610cba5781602001602082028036833780820191505090505b508160600181905250806005600083600001518152602001908152602001600020600082015181600001556020820151816001019080519060200190610d01929190611b50565b506040820151816002019080519060200190610d1e929190611b50565b506060820151816003019080519060200190610d3b929190611bd6565b509050508060000151915050919050565b6006602052806000526040600020600091509050806000015490806001018054610d7590612678565b80601f0160208091040260200160405190810160405280929190818152602001828054610da190612678565b8015610dee5780601f10610dc357610100808354040283529160200191610dee565b820191906000526020600020905b815481529060010190602001808311610dd157829003601f168201915b5050505050905082565b610e00611c4b565b834244604051602001610e1593929190612349565b6040516020818303038152906040528051906020012060001c8160000181815250508381602001819052508281604001818152505081816060018190525060405180602001604052806000815250816080018190525060008160a0018181525050806001600083600001518152602001908152602001600020600082015181600001556020820151816001019080519060200190610eb4929190611b50565b50604082015181600201556060820151816003019080519060200190610edb929190611b50565b506080820151816004019080519060200190610ef8929190611b50565b5060a0820151816005015590505060026000815480929190610f19906126db565b919050555050505050565b6000610f2e611c81565b824244604051602001610f4393929190612349565b6040516020818303038152906040528051906020012060001c8160000181815250506040518060400160405280600281526020017f4d410000000000000000000000000000000000000000000000000000000000008152508160200181905250828160400181905250600067ffffffffffffffff811115610fc757610fc66127b1565b5b604051908082528060200260200182016040528015610ff55781602001602082028036833780820191505090505b50816060018190525080600460008360000151815260200190815260200160002060008201518160000155602082015181600101908051906020019061103c929190611b50565b506040820151816002019080519060200190611059929190611b50565b506060820151816003019080519060200190611076929190611bd6565b509050508060000151915050919050565b60046020528060005260406000206000915090508060000154908060010180546110b090612678565b80601f01602080910402602001604051908101604052809291908181526020018280546110dc90612678565b80156111295780601f106110fe57610100808354040283529160200191611129565b820191906000526020600020905b81548152906001019060200180831161110c57829003601f168201915b50505050509080600201805461113e90612678565b80601f016020809104026020016040519081016040528092919081815260200182805461116a90612678565b80156111b75780601f1061118c576101008083540402835291602001916111b7565b820191906000526020600020905b81548152906001019060200180831161119a57829003601f168201915b5050505050905083565b60006111cb611ca9565b8242446040516020016111e093929190612349565b6040516020818303038152906040528051906020012060001c816000018181525050828160200181905250600067ffffffffffffffff811115611226576112256127b1565b5b6040519080825280602002602001820160405280156112545781602001602082028036833780820191505090505b50816040018190525080600660008360000151815260200190815260200160002060008201518160000155602082015181600101908051906020019061129b929190611b50565b5060408201518160020190805190602001906112b8929190611bd6565b509050508060000151915050919050565b6112d1611c4b565b600160008381526020019081526020016000206040518060c00160405290816000820154815260200160018201805461130990612678565b80601f016020809104026020016040519081016040528092919081815260200182805461133590612678565b80156113825780601f1061135757610100808354040283529160200191611382565b820191906000526020600020905b81548152906001019060200180831161136557829003601f168201915b50505050508152602001600282015481526020016003820180546113a590612678565b80601f01602080910402602001604051908101604052809291908181526020018280546113d190612678565b801561141e5780601f106113f35761010080835404028352916020019161141e565b820191906000526020600020905b81548152906001019060200180831161140157829003601f168201915b5050505050815260200160048201805461143790612678565b80601f016020809104026020016040519081016040528092919081815260200182805461146390612678565b80156114b05780601f10611485576101008083540402835291602001916114b0565b820191906000526020600020905b81548152906001019060200180831161149357829003601f168201915b505050505081526020016005820154815250509050919050565b6114d2611c81565b600460008381526020019081526020016000206040518060800160405290816000820154815260200160018201805461150a90612678565b80601f016020809104026020016040519081016040528092919081815260200182805461153690612678565b80156115835780601f1061155857610100808354040283529160200191611583565b820191906000526020600020905b81548152906001019060200180831161156657829003601f168201915b5050505050815260200160028201805461159c90612678565b80601f01602080910402602001604051908101604052809291908181526020018280546115c890612678565b80156116155780601f106115ea57610100808354040283529160200191611615565b820191906000526020600020905b8154815290600101906020018083116115f857829003601f168201915b505050505081526020016003820180548060200260200160405190810160405280929190818152602001828054801561166d57602002820191906000526020600020905b815481526020019060010190808311611659575b5050505050815250509050919050565b611685611ca9565b60066000838152602001908152602001600020604051806060016040529081600082015481526020016001820180546116bd90612678565b80601f01602080910402602001604051908101604052809291908181526020018280546116e990612678565b80156117365780601f1061170b57610100808354040283529160200191611736565b820191906000526020600020905b81548152906001019060200180831161171957829003601f168201915b505050505081526020016002820180548060200260200160405190810160405280929190818152602001828054801561178e57602002820191906000526020600020905b81548152602001906001019080831161177a575b5050505050815250509050919050565b60036020528060005260406000206000915090508060000154908060010180546117c790612678565b80601f01602080910402602001604051908101604052809291908181526020018280546117f390612678565b80156118405780601f1061181557610100808354040283529160200191611840565b820191906000526020600020905b81548152906001019060200180831161182357829003601f168201915b50505050509080600201805461185590612678565b80601f016020809104026020016040519081016040528092919081815260200182805461188190612678565b80156118ce5780601f106118a3576101008083540402835291602001916118ce565b820191906000526020600020905b8154815290600101906020018083116118b157829003601f168201915b5050505050905083565b505050565b6060806000805b600254811015611b1f57600160008281526020019081526020016000206040518060c00160405290816000820154815260200160018201805461192690612678565b80601f016020809104026020016040519081016040528092919081815260200182805461195290612678565b801561199f5780601f106119745761010080835404028352916020019161199f565b820191906000526020600020905b81548152906001019060200180831161198257829003601f168201915b50505050508152602001600282015481526020016003820180546119c290612678565b80601f01602080910402602001604051908101604052809291908181526020018280546119ee90612678565b8015611a3b5780601f10611a1057610100808354040283529160200191611a3b565b820191906000526020600020905b815481529060010190602001808311611a1e57829003601f168201915b50505050508152602001600482018054611a5490612678565b80601f0160208091040260200160405190810160405280929190818152602001828054611a8090612678565b8015611acd5780601f10611aa257610100808354040283529160200191611acd565b820191906000526020600020905b815481529060010190602001808311611ab057829003601f168201915b50505050508152602001600582015481525050838381518110611af357611af2612782565b5b60200260200101819052508180611b09906126db565b9250508080611b17906126db565b9150506118e4565b50819250505090565b6040518060800160405280600081526020016060815260200160608152602001606081525090565b828054611b5c90612678565b90600052602060002090601f016020900481019282611b7e5760008555611bc5565b82601f10611b9757805160ff1916838001178555611bc5565b82800160010185558215611bc5579182015b82811115611bc4578251825591602001919060010190611ba9565b5b509050611bd29190611cca565b5090565b828054828255906000526020600020908101928215611c12579160200282015b82811115611c11578251825591602001919060010190611bf6565b5b509050611c1f9190611cca565b5090565b6040518060800160405280600081526020016060815260200160608152602001606081525090565b6040518060c001604052806000815260200160608152602001600081526020016060815260200160608152602001600081525090565b6040518060800160405280600081526020016060815260200160608152602001606081525090565b60405180606001604052806000815260200160608152602001606081525090565b5b80821115611ce3576000816000905550600101611ccb565b5090565b6000611cfa611cf58461255c565b612537565b905082815260208101848484011115611d1657611d156127e5565b5b611d21848285612636565b509392505050565b600082601f830112611d3e57611d3d6127e0565b5b8135611d4e848260208601611ce7565b91505092915050565b600081359050611d6681612805565b92915050565b600060208284031215611d8257611d816127ef565b5b600082013567ffffffffffffffff811115611da057611d9f6127ea565b5b611dac84828501611d29565b91505092915050565b600080600060608486031215611dce57611dcd6127ef565b5b600084013567ffffffffffffffff811115611dec57611deb6127ea565b5b611df886828701611d29565b9350506020611e0986828701611d57565b925050604084013567ffffffffffffffff811115611e2a57611e296127ea565b5b611e3686828701611d29565b9150509250925092565b600060208284031215611e5657611e556127ef565b5b6000611e6484828501611d57565b91505092915050565b600080600060608486031215611e8657611e856127ef565b5b6000611e9486828701611d57565b9350506020611ea586828701611d57565b9250506040611eb686828701611d57565b9150509250925092565b6000611ecc8383612113565b905092915050565b6000611ee08383612309565b60208301905092915050565b6000611ef7826125ad565b611f0181856125e8565b935083602082028501611f138561258d565b8060005b85811015611f4f5784840389528151611f308582611ec0565b9450611f3b836125ce565b925060208a01995050600181019050611f17565b50829750879550505050505092915050565b6000611f6c826125b8565b611f7681856125f9565b9350611f818361259d565b8060005b83811015611fb2578151611f998882611ed4565b9750611fa4836125db565b925050600181019050611f85565b5085935050505092915050565b6000611fca826125c3565b611fd4818561260a565b9350611fe4818560208601612645565b611fed816127f4565b840191505092915050565b6000612003826125c3565b61200d818561261b565b935061201d818560208601612645565b612026816127f4565b840191505092915050565b60006080830160008301516120496000860182612309565b50602083015184820360208601526120618282611fbf565b9150506040830151848203604086015261207b8282611fbf565b915050606083015184820360608601526120958282611f61565b9150508091505092915050565b60006080830160008301516120ba6000860182612309565b50602083015184820360208601526120d28282611fbf565b915050604083015184820360408601526120ec8282611fbf565b915050606083015184820360608601526121068282611f61565b9150508091505092915050565b600060c08301600083015161212b6000860182612309565b50602083015184820360208601526121438282611fbf565b91505060408301516121586040860182612309565b50606083015184820360608601526121708282611fbf565b9150506080830151848203608086015261218a8282611fbf565b91505060a083015161219f60a0860182612309565b508091505092915050565b600060c0830160008301516121c26000860182612309565b50602083015184820360208601526121da8282611fbf565b91505060408301516121ef6040860182612309565b50606083015184820360608601526122078282611fbf565b915050608083015184820360808601526122218282611fbf565b91505060a083015161223660a0860182612309565b508091505092915050565b60006060830160008301516122596000860182612309565b50602083015184820360208601526122718282611fbf565b9150506040830151848203604086015261228b8282611f61565b9150508091505092915050565b60006080830160008301516122b06000860182612309565b50602083015184820360208601526122c88282611fbf565b915050604083015184820360408601526122e28282611fbf565b915050606083015184820360608601526122fc8282611f61565b9150508091505092915050565b6123128161262c565b82525050565b6123218161262c565b82525050565b600060208201905081810360008301526123418184611eec565b905092915050565b600060608201905081810360008301526123638186611ff8565b90506123726020830185612318565b61237f6040830184612318565b949350505050565b600060208201905081810360008301526123a18184612031565b905092915050565b600060208201905081810360008301526123c381846120a2565b905092915050565b600060208201905081810360008301526123e581846121aa565b905092915050565b600060208201905081810360008301526124078184612241565b905092915050565b600060208201905081810360008301526124298184612298565b905092915050565b60006020820190506124466000830184612318565b92915050565b60006040820190506124616000830185612318565b81810360208301526124738184611ff8565b90509392505050565b60006060820190506124916000830186612318565b81810360208301526124a38185611ff8565b905081810360408301526124b78184611ff8565b9050949350505050565b600060c0820190506124d66000830189612318565b81810360208301526124e88188611ff8565b90506124f76040830187612318565b81810360608301526125098186611ff8565b9050818103608083015261251d8185611ff8565b905061252c60a0830184612318565b979650505050505050565b6000612541612552565b905061254d82826126aa565b919050565b6000604051905090565b600067ffffffffffffffff821115612577576125766127b1565b5b612580826127f4565b9050602081019050919050565b6000819050602082019050919050565b6000819050602082019050919050565b600081519050919050565b600081519050919050565b600081519050919050565b6000602082019050919050565b6000602082019050919050565b600082825260208201905092915050565b600082825260208201905092915050565b600082825260208201905092915050565b600082825260208201905092915050565b6000819050919050565b82818337600083830152505050565b60005b83811015612663578082015181840152602081019050612648565b83811115612672576000848401525b50505050565b6000600282049050600182168061269057607f821691505b602082108114156126a4576126a3612753565b5b50919050565b6126b3826127f4565b810181811067ffffffffffffffff821117156126d2576126d16127b1565b5b80604052505050565b60006126e68261262c565b91507fffffffffffffffffffffffffffffffffffffffffffffffffffffffffffffffff82141561271957612718612724565b5b600182019050919050565b7f4e487b7100000000000000000000000000000000000000000000000000000000600052601160045260246000fd5b7f4e487b7100000000000000000000000000000000000000000000000000000000600052602260045260246000fd5b7f4e487b7100000000000000000000000000000000000000000000000000000000600052603260045260246000fd5b7f4e487b7100000000000000000000000000000000000000000000000000000000600052604160045260246000fd5b600080fd5b600080fd5b600080fd5b600080fd5b6000601f19601f8301169050919050565b61280e8161262c565b811461281957600080fd5b5056fea2646970667358221220f796127e44b64a2400dc9c9e445a71546813aab7998fd5d54141f0846a2ba48964736f6c63430008070033",
					"opcodes": "PUSH1 0x80 PUSH1 0x40 MSTORE CALLER PUSH1 0x0 DUP1 PUSH2 0x100 EXP DUP2 SLOAD DUP2 PUSH20 0xFFFFFFFFFFFFFFFFFFFFFFFFFFFFFFFFFFFFFFFF MUL NOT AND SWAP1 DUP4 PUSH20 0xFFFFFFFFFFFFFFFFFFFFFFFFFFFFFFFFFFFFFFFF AND MUL OR SWAP1 SSTORE POP PUSH1 0x0 PUSH1 0x2 SSTORE CALLVALUE DUP1 ISZERO PUSH2 0x55 JUMPI PUSH1 0x0 DUP1 REVERT JUMPDEST POP PUSH2 0x2852 DUP1 PUSH2 0x65 PUSH1 0x0 CODECOPY PUSH1 0x0 RETURN INVALID PUSH1 0x80 PUSH1 0x40 MSTORE CALLVALUE DUP1 ISZERO PUSH2 0x10 JUMPI PUSH1 0x0 DUP1 REVERT JUMPDEST POP PUSH1 0x4 CALLDATASIZE LT PUSH2 0x10B JUMPI PUSH1 0x0 CALLDATALOAD PUSH1 0xE0 SHR DUP1 PUSH4 0x8F5AE799 GT PUSH2 0xA2 JUMPI DUP1 PUSH4 0xCB80C419 GT PUSH2 0x71 JUMPI DUP1 PUSH4 0xCB80C419 EQ PUSH2 0x346 JUMPI DUP1 PUSH4 0xCDA5E4A5 EQ PUSH2 0x376 JUMPI DUP1 PUSH4 0xCEA23121 EQ PUSH2 0x3A6 JUMPI DUP1 PUSH4 0xF032EDEC EQ PUSH2 0x3D8 JUMPI DUP1 PUSH4 0xF4FD4CBB EQ PUSH2 0x3F4 JUMPI PUSH2 0x10B JUMP JUMPDEST DUP1 PUSH4 0x8F5AE799 EQ PUSH2 0x284 JUMPI DUP1 PUSH4 0x90175AF1 EQ PUSH2 0x2B4 JUMPI DUP1 PUSH4 0x95D00407 EQ PUSH2 0x2E6 JUMPI DUP1 PUSH4 0xB9DB15B4 EQ PUSH2 0x316 JUMPI PUSH2 0x10B JUMP JUMPDEST DUP1 PUSH4 0x7ACC0B20 GT PUSH2 0xDE JUMPI DUP1 PUSH4 0x7ACC0B20 EQ PUSH2 0x1D2 JUMPI DUP1 PUSH4 0x81D9DEF2 EQ PUSH2 0x207 JUMPI DUP1 PUSH4 0x897EC7DF EQ PUSH2 0x237 JUMPI DUP1 PUSH4 0x8F29695A EQ PUSH2 0x268 JUMPI PUSH2 0x10B JUMP JUMPDEST DUP1 PUSH4 0x15533A27 EQ PUSH2 0x110 JUMPI DUP1 PUSH4 0x333F3DD0 EQ PUSH2 0x140 JUMPI DUP1 PUSH4 0x3779643F EQ PUSH2 0x170 JUMPI DUP1 PUSH4 0x50B492BA EQ PUSH2 0x1A0 JUMPI JUMPDEST PUSH1 0x0 DUP1 REVERT JUMPDEST PUSH2 0x12A PUSH1 0x4 DUP1 CALLDATASIZE SUB DUP2 ADD SWAP1 PUSH2 0x125 SWAP2 SWAP1 PUSH2 0x1D6C JUMP JUMPDEST PUSH2 0x412 JUMP JUMPDEST PUSH1 0x40 MLOAD PUSH2 0x137 SWAP2 SWAP1 PUSH2 0x2431 JUMP JUMPDEST PUSH1 0x40 MLOAD DUP1 SWAP2 SUB SWAP1 RETURN JUMPDEST PUSH2 0x15A PUSH1 0x4 DUP1 CALLDATASIZE SUB DUP2 ADD SWAP1 PUSH2 0x155 SWAP2 SWAP1 PUSH2 0x1E40 JUMP JUMPDEST PUSH2 0x575 JUMP JUMPDEST PUSH1 0x40 MLOAD PUSH2 0x167 SWAP2 SWAP1 PUSH2 0x2387 JUMP JUMPDEST PUSH1 0x40 MLOAD DUP1 SWAP2 SUB SWAP1 RETURN JUMPDEST PUSH2 0x18A PUSH1 0x4 DUP1 CALLDATASIZE SUB DUP2 ADD SWAP1 PUSH2 0x185 SWAP2 SWAP1 PUSH2 0x1E40 JUMP JUMPDEST PUSH2 0x728 JUMP JUMPDEST PUSH1 0x40 MLOAD PUSH2 0x197 SWAP2 SWAP1 PUSH2 0x240F JUMP JUMPDEST PUSH1 0x40 MLOAD DUP1 SWAP2 SUB SWAP1 RETURN JUMPDEST PUSH2 0x1BA PUSH1 0x4 DUP1 CALLDATASIZE SUB DUP2 ADD SWAP1 PUSH2 0x1B5 SWAP2 SWAP1 PUSH2 0x1E40 JUMP JUMPDEST PUSH2 0x8DB JUMP JUMPDEST PUSH1 0x40 MLOAD PUSH2 0x1C9 SWAP4 SWAP3 SWAP2 SWAP1 PUSH2 0x247C JUMP JUMPDEST PUSH1 0x40 MLOAD DUP1 SWAP2 SUB SWAP1 RETURN JUMPDEST PUSH2 0x1EC PUSH1 0x4 DUP1 CALLDATASIZE SUB DUP2 ADD SWAP1 PUSH2 0x1E7 SWAP2 SWAP1 PUSH2 0x1E40 JUMP JUMPDEST PUSH2 0xA15 JUMP JUMPDEST PUSH1 0x40 MLOAD PUSH2 0x1FE SWAP7 SWAP6 SWAP5 SWAP4 SWAP3 SWAP2 SWAP1 PUSH2 0x24C1 JUMP JUMPDEST PUSH1 0x40 MLOAD DUP1 SWAP2 SUB SWAP1 RETURN JUMPDEST PUSH2 0x221 PUSH1 0x4 DUP1 CALLDATASIZE SUB DUP2 ADD SWAP1 PUSH2 0x21C SWAP2 SWAP1 PUSH2 0x1D6C JUMP JUMPDEST PUSH2 0xBE9 JUMP JUMPDEST PUSH1 0x40 MLOAD PUSH2 0x22E SWAP2 SWAP1 PUSH2 0x2431 JUMP JUMPDEST PUSH1 0x40 MLOAD DUP1 SWAP2 SUB SWAP1 RETURN JUMPDEST PUSH2 0x251 PUSH1 0x4 DUP1 CALLDATASIZE SUB DUP2 ADD SWAP1 PUSH2 0x24C SWAP2 SWAP1 PUSH2 0x1E40 JUMP JUMPDEST PUSH2 0xD4C JUMP JUMPDEST PUSH1 0x40 MLOAD PUSH2 0x25F SWAP3 SWAP2 SWAP1 PUSH2 0x244C JUMP JUMPDEST PUSH1 0x40 MLOAD DUP1 SWAP2 SUB SWAP1 RETURN JUMPDEST PUSH2 0x282 PUSH1 0x4 DUP1 CALLDATASIZE SUB DUP2 ADD SWAP1 PUSH2 0x27D SWAP2 SWAP1 PUSH2 0x1DB5 JUMP JUMPDEST PUSH2 0xDF8 JUMP JUMPDEST STOP JUMPDEST PUSH2 0x29E PUSH1 0x4 DUP1 CALLDATASIZE SUB DUP2 ADD SWAP1 PUSH2 0x299 SWAP2 SWAP1 PUSH2 0x1D6C JUMP JUMPDEST PUSH2 0xF24 JUMP JUMPDEST PUSH1 0x40 MLOAD PUSH2 0x2AB SWAP2 SWAP1 PUSH2 0x2431 JUMP JUMPDEST PUSH1 0x40 MLOAD DUP1 SWAP2 SUB SWAP1 RETURN JUMPDEST PUSH2 0x2CE PUSH1 0x4 DUP1 CALLDATASIZE SUB DUP2 ADD SWAP1 PUSH2 0x2C9 SWAP2 SWAP1 PUSH2 0x1E40 JUMP JUMPDEST PUSH2 0x1087 JUMP JUMPDEST PUSH1 0x40 MLOAD PUSH2 0x2DD SWAP4 SWAP3 SWAP2 SWAP1 PUSH2 0x247C JUMP JUMPDEST PUSH1 0x40 MLOAD DUP1 SWAP2 SUB SWAP1 RETURN JUMPDEST PUSH2 0x300 PUSH1 0x4 DUP1 CALLDATASIZE SUB DUP2 ADD SWAP1 PUSH2 0x2FB SWAP2 SWAP1 PUSH2 0x1D6C JUMP JUMPDEST PUSH2 0x11C1 JUMP JUMPDEST PUSH1 0x40 MLOAD PUSH2 0x30D SWAP2 SWAP1 PUSH2 0x2431 JUMP JUMPDEST PUSH1 0x40 MLOAD DUP1 SWAP2 SUB SWAP1 RETURN JUMPDEST PUSH2 0x330 PUSH1 0x4 DUP1 CALLDATASIZE SUB DUP2 ADD SWAP1 PUSH2 0x32B SWAP2 SWAP1 PUSH2 0x1E40 JUMP JUMPDEST PUSH2 0x12C9 JUMP JUMPDEST PUSH1 0x40 MLOAD PUSH2 0x33D SWAP2 SWAP1 PUSH2 0x23CB JUMP JUMPDEST PUSH1 0x40 MLOAD DUP1 SWAP2 SUB SWAP1 RETURN JUMPDEST PUSH2 0x360 PUSH1 0x4 DUP1 CALLDATASIZE SUB DUP2 ADD SWAP1 PUSH2 0x35B SWAP2 SWAP1 PUSH2 0x1E40 JUMP JUMPDEST PUSH2 0x14CA JUMP JUMPDEST PUSH1 0x40 MLOAD PUSH2 0x36D SWAP2 SWAP1 PUSH2 0x23A9 JUMP JUMPDEST PUSH1 0x40 MLOAD DUP1 SWAP2 SUB SWAP1 RETURN JUMPDEST PUSH2 0x390 PUSH1 0x4 DUP1 CALLDATASIZE SUB DUP2 ADD SWAP1 PUSH2 0x38B SWAP2 SWAP1 PUSH2 0x1E40 JUMP JUMPDEST PUSH2 0x167D JUMP JUMPDEST PUSH1 0x40 MLOAD PUSH2 0x39D SWAP2 SWAP1 PUSH2 0x23ED JUMP JUMPDEST PUSH1 0x40 MLOAD DUP1 SWAP2 SUB SWAP1 RETURN JUMPDEST PUSH2 0x3C0 PUSH1 0x4 DUP1 CALLDATASIZE SUB DUP2 ADD SWAP1 PUSH2 0x3BB SWAP2 SWAP1 PUSH2 0x1E40 JUMP JUMPDEST PUSH2 0x179E JUMP JUMPDEST PUSH1 0x40 MLOAD PUSH2 0x3CF SWAP4 SWAP3 SWAP2 SWAP1 PUSH2 0x247C JUMP JUMPDEST PUSH1 0x40 MLOAD DUP1 SWAP2 SUB SWAP1 RETURN JUMPDEST PUSH2 0x3F2 PUSH1 0x4 DUP1 CALLDATASIZE SUB DUP2 ADD SWAP1 PUSH2 0x3ED SWAP2 SWAP1 PUSH2 0x1E6D JUMP JUMPDEST PUSH2 0x18D8 JUMP JUMPDEST STOP JUMPDEST PUSH2 0x3FC PUSH2 0x18DD JUMP JUMPDEST PUSH1 0x40 MLOAD PUSH2 0x409 SWAP2 SWAP1 PUSH2 0x2327 JUMP JUMPDEST PUSH1 0x40 MLOAD DUP1 SWAP2 SUB SWAP1 RETURN JUMPDEST PUSH1 0x0 PUSH2 0x41C PUSH2 0x1B28 JUMP JUMPDEST DUP3 TIMESTAMP DIFFICULTY PUSH1 0x40 MLOAD PUSH1 0x20 ADD PUSH2 0x431 SWAP4 SWAP3 SWAP2 SWAP1 PUSH2 0x2349 JUMP JUMPDEST PUSH1 0x40 MLOAD PUSH1 0x20 DUP2 DUP4 SUB SUB DUP2 MSTORE SWAP1 PUSH1 0x40 MSTORE DUP1 MLOAD SWAP1 PUSH1 0x20 ADD KECCAK256 PUSH1 0x0 SHR DUP2 PUSH1 0x0 ADD DUP2 DUP2 MSTORE POP POP PUSH1 0x40 MLOAD DUP1 PUSH1 0x40 ADD PUSH1 0x40 MSTORE DUP1 PUSH1 0x2 DUP2 MSTORE PUSH1 0x20 ADD PUSH32 0x5355000000000000000000000000000000000000000000000000000000000000 DUP2 MSTORE POP DUP2 PUSH1 0x20 ADD DUP2 SWAP1 MSTORE POP DUP3 DUP2 PUSH1 0x40 ADD DUP2 SWAP1 MSTORE POP PUSH1 0x0 PUSH8 0xFFFFFFFFFFFFFFFF DUP2 GT ISZERO PUSH2 0x4B5 JUMPI PUSH2 0x4B4 PUSH2 0x27B1 JUMP JUMPDEST JUMPDEST PUSH1 0x40 MLOAD SWAP1 DUP1 DUP3 MSTORE DUP1 PUSH1 0x20 MUL PUSH1 0x20 ADD DUP3 ADD PUSH1 0x40 MSTORE DUP1 ISZERO PUSH2 0x4E3 JUMPI DUP2 PUSH1 0x20 ADD PUSH1 0x20 DUP3 MUL DUP1 CALLDATASIZE DUP4 CALLDATACOPY DUP1 DUP3 ADD SWAP2 POP POP SWAP1 POP JUMPDEST POP DUP2 PUSH1 0x60 ADD DUP2 SWAP1 MSTORE POP DUP1 PUSH1 0x3 PUSH1 0x0 DUP4 PUSH1 0x0 ADD MLOAD DUP2 MSTORE PUSH1 0x20 ADD SWAP1 DUP2 MSTORE PUSH1 0x20 ADD PUSH1 0x0 KECCAK256 PUSH1 0x0 DUP3 ADD MLOAD DUP2 PUSH1 0x0 ADD SSTORE PUSH1 0x20 DUP3 ADD MLOAD DUP2 PUSH1 0x1 ADD SWAP1 DUP1 MLOAD SWAP1 PUSH1 0x20 ADD SWAP1 PUSH2 0x52A SWAP3 SWAP2 SWAP1 PUSH2 0x1B50 JUMP JUMPDEST POP PUSH1 0x40 DUP3 ADD MLOAD DUP2 PUSH1 0x2 ADD SWAP1 DUP1 MLOAD SWAP1 PUSH1 0x20 ADD SWAP1 PUSH2 0x547 SWAP3 SWAP2 SWAP1 PUSH2 0x1B50 JUMP JUMPDEST POP PUSH1 0x60 DUP3 ADD MLOAD DUP2 PUSH1 0x3 ADD SWAP1 DUP1 MLOAD SWAP1 PUSH1 0x20 ADD SWAP1 PUSH2 0x564 SWAP3 SWAP2 SWAP1 PUSH2 0x1BD6 JUMP JUMPDEST POP SWAP1 POP POP DUP1 PUSH1 0x0 ADD MLOAD SWAP2 POP POP SWAP2 SWAP1 POP JUMP JUMPDEST PUSH2 0x57D PUSH2 0x1C23 JUMP JUMPDEST PUSH1 0x5 PUSH1 0x0 DUP4 DUP2 MSTORE PUSH1 0x20 ADD SWAP1 DUP2 MSTORE PUSH1 0x20 ADD PUSH1 0x0 KECCAK256 PUSH1 0x40 MLOAD DUP1 PUSH1 0x80 ADD PUSH1 0x40 MSTORE SWAP1 DUP2 PUSH1 0x0 DUP3 ADD SLOAD DUP2 MSTORE PUSH1 0x20 ADD PUSH1 0x1 DUP3 ADD DUP1 SLOAD PUSH2 0x5B5 SWAP1 PUSH2 0x2678 JUMP JUMPDEST DUP1 PUSH1 0x1F ADD PUSH1 0x20 DUP1 SWAP2 DIV MUL PUSH1 0x20 ADD PUSH1 0x40 MLOAD SWAP1 DUP2 ADD PUSH1 0x40 MSTORE DUP1 SWAP3 SWAP2 SWAP1 DUP2 DUP2 MSTORE PUSH1 0x20 ADD DUP3 DUP1 SLOAD PUSH2 0x5E1 SWAP1 PUSH2 0x2678 JUMP JUMPDEST DUP1 ISZERO PUSH2 0x62E JUMPI DUP1 PUSH1 0x1F LT PUSH2 0x603 JUMPI PUSH2 0x100 DUP1 DUP4 SLOAD DIV MUL DUP4 MSTORE SWAP2 PUSH1 0x20 ADD SWAP2 PUSH2 0x62E JUMP JUMPDEST DUP3 ADD SWAP2 SWAP1 PUSH1 0x0 MSTORE PUSH1 0x20 PUSH1 0x0 KECCAK256 SWAP1 JUMPDEST DUP2 SLOAD DUP2 MSTORE SWAP1 PUSH1 0x1 ADD SWAP1 PUSH1 0x20 ADD DUP1 DUP4 GT PUSH2 0x611 JUMPI DUP3 SWAP1 SUB PUSH1 0x1F AND DUP3 ADD SWAP2 JUMPDEST POP POP POP POP POP DUP2 MSTORE PUSH1 0x20 ADD PUSH1 0x2 DUP3 ADD DUP1 SLOAD PUSH2 0x647 SWAP1 PUSH2 0x2678 JUMP JUMPDEST DUP1 PUSH1 0x1F ADD PUSH1 0x20 DUP1 SWAP2 DIV MUL PUSH1 0x20 ADD PUSH1 0x40 MLOAD SWAP1 DUP2 ADD PUSH1 0x40 MSTORE DUP1 SWAP3 SWAP2 SWAP1 DUP2 DUP2 MSTORE PUSH1 0x20 ADD DUP3 DUP1 SLOAD PUSH2 0x673 SWAP1 PUSH2 0x2678 JUMP JUMPDEST DUP1 ISZERO PUSH2 0x6C0 JUMPI DUP1 PUSH1 0x1F LT PUSH2 0x695 JUMPI PUSH2 0x100 DUP1 DUP4 SLOAD DIV MUL DUP4 MSTORE SWAP2 PUSH1 0x20 ADD SWAP2 PUSH2 0x6C0 JUMP JUMPDEST DUP3 ADD SWAP2 SWAP1 PUSH1 0x0 MSTORE PUSH1 0x20 PUSH1 0x0 KECCAK256 SWAP1 JUMPDEST DUP2 SLOAD DUP2 MSTORE SWAP1 PUSH1 0x1 ADD SWAP1 PUSH1 0x20 ADD DUP1 DUP4 GT PUSH2 0x6A3 JUMPI DUP3 SWAP1 SUB PUSH1 0x1F AND DUP3 ADD SWAP2 JUMPDEST POP POP POP POP POP DUP2 MSTORE PUSH1 0x20 ADD PUSH1 0x3 DUP3 ADD DUP1 SLOAD DUP1 PUSH1 0x20 MUL PUSH1 0x20 ADD PUSH1 0x40 MLOAD SWAP1 DUP2 ADD PUSH1 0x40 MSTORE DUP1 SWAP3 SWAP2 SWAP1 DUP2 DUP2 MSTORE PUSH1 0x20 ADD DUP3 DUP1 SLOAD DUP1 ISZERO PUSH2 0x718 JUMPI PUSH1 0x20 MUL DUP3 ADD SWAP2 SWAP1 PUSH1 0x0 MSTORE PUSH1 0x20 PUSH1 0x0 KECCAK256 SWAP1 JUMPDEST DUP2 SLOAD DUP2 MSTORE PUSH1 0x20 ADD SWAP1 PUSH1 0x1 ADD SWAP1 DUP1 DUP4 GT PUSH2 0x704 JUMPI JUMPDEST POP POP POP POP POP DUP2 MSTORE POP POP SWAP1 POP SWAP2 SWAP1 POP JUMP JUMPDEST PUSH2 0x730 PUSH2 0x1B28 JUMP JUMPDEST PUSH1 0x3 PUSH1 0x0 DUP4 DUP2 MSTORE PUSH1 0x20 ADD SWAP1 DUP2 MSTORE PUSH1 0x20 ADD PUSH1 0x0 KECCAK256 PUSH1 0x40 MLOAD DUP1 PUSH1 0x80 ADD PUSH1 0x40 MSTORE SWAP1 DUP2 PUSH1 0x0 DUP3 ADD SLOAD DUP2 MSTORE PUSH1 0x20 ADD PUSH1 0x1 DUP3 ADD DUP1 SLOAD PUSH2 0x768 SWAP1 PUSH2 0x2678 JUMP JUMPDEST DUP1 PUSH1 0x1F ADD PUSH1 0x20 DUP1 SWAP2 DIV MUL PUSH1 0x20 ADD PUSH1 0x40 MLOAD SWAP1 DUP2 ADD PUSH1 0x40 MSTORE DUP1 SWAP3 SWAP2 SWAP1 DUP2 DUP2 MSTORE PUSH1 0x20 ADD DUP3 DUP1 SLOAD PUSH2 0x794 SWAP1 PUSH2 0x2678 JUMP JUMPDEST DUP1 ISZERO PUSH2 0x7E1 JUMPI DUP1 PUSH1 0x1F LT PUSH2 0x7B6 JUMPI PUSH2 0x100 DUP1 DUP4 SLOAD DIV MUL DUP4 MSTORE SWAP2 PUSH1 0x20 ADD SWAP2 PUSH2 0x7E1 JUMP JUMPDEST DUP3 ADD SWAP2 SWAP1 PUSH1 0x0 MSTORE PUSH1 0x20 PUSH1 0x0 KECCAK256 SWAP1 JUMPDEST DUP2 SLOAD DUP2 MSTORE SWAP1 PUSH1 0x1 ADD SWAP1 PUSH1 0x20 ADD DUP1 DUP4 GT PUSH2 0x7C4 JUMPI DUP3 SWAP1 SUB PUSH1 0x1F AND DUP3 ADD SWAP2 JUMPDEST POP POP POP POP POP DUP2 MSTORE PUSH1 0x20 ADD PUSH1 0x2 DUP3 ADD DUP1 SLOAD PUSH2 0x7FA SWAP1 PUSH2 0x2678 JUMP JUMPDEST DUP1 PUSH1 0x1F ADD PUSH1 0x20 DUP1 SWAP2 DIV MUL PUSH1 0x20 ADD PUSH1 0x40 MLOAD SWAP1 DUP2 ADD PUSH1 0x40 MSTORE DUP1 SWAP3 SWAP2 SWAP1 DUP2 DUP2 MSTORE PUSH1 0x20 ADD DUP3 DUP1 SLOAD PUSH2 0x826 SWAP1 PUSH2 0x2678 JUMP JUMPDEST DUP1 ISZERO PUSH2 0x873 JUMPI DUP1 PUSH1 0x1F LT PUSH2 0x848 JUMPI PUSH2 0x100 DUP1 DUP4 SLOAD DIV MUL DUP4 MSTORE SWAP2 PUSH1 0x20 ADD SWAP2 PUSH2 0x873 JUMP JUMPDEST DUP3 ADD SWAP2 SWAP1 PUSH1 0x0 MSTORE PUSH1 0x20 PUSH1 0x0 KECCAK256 SWAP1 JUMPDEST DUP2 SLOAD DUP2 MSTORE SWAP1 PUSH1 0x1 ADD SWAP1 PUSH1 0x20 ADD DUP1 DUP4 GT PUSH2 0x856 JUMPI DUP3 SWAP1 SUB PUSH1 0x1F AND DUP3 ADD SWAP2 JUMPDEST POP POP POP POP POP DUP2 MSTORE PUSH1 0x20 ADD PUSH1 0x3 DUP3 ADD DUP1 SLOAD DUP1 PUSH1 0x20 MUL PUSH1 0x20 ADD PUSH1 0x40 MLOAD SWAP1 DUP2 ADD PUSH1 0x40 MSTORE DUP1 SWAP3 SWAP2 SWAP1 DUP2 DUP2 MSTORE PUSH1 0x20 ADD DUP3 DUP1 SLOAD DUP1 ISZERO PUSH2 0x8CB JUMPI PUSH1 0x20 MUL DUP3 ADD SWAP2 SWAP1 PUSH1 0x0 MSTORE PUSH1 0x20 PUSH1 0x0 KECCAK256 SWAP1 JUMPDEST DUP2 SLOAD DUP2 MSTORE PUSH1 0x20 ADD SWAP1 PUSH1 0x1 ADD SWAP1 DUP1 DUP4 GT PUSH2 0x8B7 JUMPI JUMPDEST POP POP POP POP POP DUP2 MSTORE POP POP SWAP1 POP SWAP2 SWAP1 POP JUMP JUMPDEST PUSH1 0x5 PUSH1 0x20 MSTORE DUP1 PUSH1 0x0 MSTORE PUSH1 0x40 PUSH1 0x0 KECCAK256 PUSH1 0x0 SWAP2 POP SWAP1 POP DUP1 PUSH1 0x0 ADD SLOAD SWAP1 DUP1 PUSH1 0x1 ADD DUP1 SLOAD PUSH2 0x904 SWAP1 PUSH2 0x2678 JUMP JUMPDEST DUP1 PUSH1 0x1F ADD PUSH1 0x20 DUP1 SWAP2 DIV MUL PUSH1 0x20 ADD PUSH1 0x40 MLOAD SWAP1 DUP2 ADD PUSH1 0x40 MSTORE DUP1 SWAP3 SWAP2 SWAP1 DUP2 DUP2 MSTORE PUSH1 0x20 ADD DUP3 DUP1 SLOAD PUSH2 0x930 SWAP1 PUSH2 0x2678 JUMP JUMPDEST DUP1 ISZERO PUSH2 0x97D JUMPI DUP1 PUSH1 0x1F LT PUSH2 0x952 JUMPI PUSH2 0x100 DUP1 DUP4 SLOAD DIV MUL DUP4 MSTORE SWAP2 PUSH1 0x20 ADD SWAP2 PUSH2 0x97D JUMP JUMPDEST DUP3 ADD SWAP2 SWAP1 PUSH1 0x0 MSTORE PUSH1 0x20 PUSH1 0x0 KECCAK256 SWAP1 JUMPDEST DUP2 SLOAD DUP2 MSTORE SWAP1 PUSH1 0x1 ADD SWAP1 PUSH1 0x20 ADD DUP1 DUP4 GT PUSH2 0x960 JUMPI DUP3 SWAP1 SUB PUSH1 0x1F AND DUP3 ADD SWAP2 JUMPDEST POP POP POP POP POP SWAP1 DUP1 PUSH1 0x2 ADD DUP1 SLOAD PUSH2 0x992 SWAP1 PUSH2 0x2678 JUMP JUMPDEST DUP1 PUSH1 0x1F ADD PUSH1 0x20 DUP1 SWAP2 DIV MUL PUSH1 0x20 ADD PUSH1 0x40 MLOAD SWAP1 DUP2 ADD PUSH1 0x40 MSTORE DUP1 SWAP3 SWAP2 SWAP1 DUP2 DUP2 MSTORE PUSH1 0x20 ADD DUP3 DUP1 SLOAD PUSH2 0x9BE SWAP1 PUSH2 0x2678 JUMP JUMPDEST DUP1 ISZERO PUSH2 0xA0B JUMPI DUP1 PUSH1 0x1F LT PUSH2 0x9E0 JUMPI PUSH2 0x100 DUP1 DUP4 SLOAD DIV MUL DUP4 MSTORE SWAP2 PUSH1 0x20 ADD SWAP2 PUSH2 0xA0B JUMP JUMPDEST DUP3 ADD SWAP2 SWAP1 PUSH1 0x0 MSTORE PUSH1 0x20 PUSH1 0x0 KECCAK256 SWAP1 JUMPDEST DUP2 SLOAD DUP2 MSTORE SWAP1 PUSH1 0x1 ADD SWAP1 PUSH1 0x20 ADD DUP1 DUP4 GT PUSH2 0x9EE JUMPI DUP3 SWAP1 SUB PUSH1 0x1F AND DUP3 ADD SWAP2 JUMPDEST POP POP POP POP POP SWAP1 POP DUP4 JUMP JUMPDEST PUSH1 0x1 PUSH1 0x20 MSTORE DUP1 PUSH1 0x0 MSTORE PUSH1 0x40 PUSH1 0x0 KECCAK256 PUSH1 0x0 SWAP2 POP SWAP1 POP DUP1 PUSH1 0x0 ADD SLOAD SWAP1 DUP1 PUSH1 0x1 ADD DUP1 SLOAD PUSH2 0xA3E SWAP1 PUSH2 0x2678 JUMP JUMPDEST DUP1 PUSH1 0x1F ADD PUSH1 0x20 DUP1 SWAP2 DIV MUL PUSH1 0x20 ADD PUSH1 0x40 MLOAD SWAP1 DUP2 ADD PUSH1 0x40 MSTORE DUP1 SWAP3 SWAP2 SWAP1 DUP2 DUP2 MSTORE PUSH1 0x20 ADD DUP3 DUP1 SLOAD PUSH2 0xA6A SWAP1 PUSH2 0x2678 JUMP JUMPDEST DUP1 ISZERO PUSH2 0xAB7 JUMPI DUP1 PUSH1 0x1F LT PUSH2 0xA8C JUMPI PUSH2 0x100 DUP1 DUP4 SLOAD DIV MUL DUP4 MSTORE SWAP2 PUSH1 0x20 ADD SWAP2 PUSH2 0xAB7 JUMP JUMPDEST DUP3 ADD SWAP2 SWAP1 PUSH1 0x0 MSTORE PUSH1 0x20 PUSH1 0x0 KECCAK256 SWAP1 JUMPDEST DUP2 SLOAD DUP2 MSTORE SWAP1 PUSH1 0x1 ADD SWAP1 PUSH1 0x20 ADD DUP1 DUP4 GT PUSH2 0xA9A JUMPI DUP3 SWAP1 SUB PUSH1 0x1F AND DUP3 ADD SWAP2 JUMPDEST POP POP POP POP POP SWAP1 DUP1 PUSH1 0x2 ADD SLOAD SWAP1 DUP1 PUSH1 0x3 ADD DUP1 SLOAD PUSH2 0xAD2 SWAP1 PUSH2 0x2678 JUMP JUMPDEST DUP1 PUSH1 0x1F ADD PUSH1 0x20 DUP1 SWAP2 DIV MUL PUSH1 0x20 ADD PUSH1 0x40 MLOAD SWAP1 DUP2 ADD PUSH1 0x40 MSTORE DUP1 SWAP3 SWAP2 SWAP1 DUP2 DUP2 MSTORE PUSH1 0x20 ADD DUP3 DUP1 SLOAD PUSH2 0xAFE SWAP1 PUSH2 0x2678 JUMP JUMPDEST DUP1 ISZERO PUSH2 0xB4B JUMPI DUP1 PUSH1 0x1F LT PUSH2 0xB20 JUMPI PUSH2 0x100 DUP1 DUP4 SLOAD DIV MUL DUP4 MSTORE SWAP2 PUSH1 0x20 ADD SWAP2 PUSH2 0xB4B JUMP JUMPDEST DUP3 ADD SWAP2 SWAP1 PUSH1 0x0 MSTORE PUSH1 0x20 PUSH1 0x0 KECCAK256 SWAP1 JUMPDEST DUP2 SLOAD DUP2 MSTORE SWAP1 PUSH1 0x1 ADD SWAP1 PUSH1 0x20 ADD DUP1 DUP4 GT PUSH2 0xB2E JUMPI DUP3 SWAP1 SUB PUSH1 0x1F AND DUP3 ADD SWAP2 JUMPDEST POP POP POP POP POP SWAP1 DUP1 PUSH1 0x4 ADD DUP1 SLOAD PUSH2 0xB60 SWAP1 PUSH2 0x2678 JUMP JUMPDEST DUP1 PUSH1 0x1F ADD PUSH1 0x20 DUP1 SWAP2 DIV MUL PUSH1 0x20 ADD PUSH1 0x40 MLOAD SWAP1 DUP2 ADD PUSH1 0x40 MSTORE DUP1 SWAP3 SWAP2 SWAP1 DUP2 DUP2 MSTORE PUSH1 0x20 ADD DUP3 DUP1 SLOAD PUSH2 0xB8C SWAP1 PUSH2 0x2678 JUMP JUMPDEST DUP1 ISZERO PUSH2 0xBD9 JUMPI DUP1 PUSH1 0x1F LT PUSH2 0xBAE JUMPI PUSH2 0x100 DUP1 DUP4 SLOAD DIV MUL DUP4 MSTORE SWAP2 PUSH1 0x20 ADD SWAP2 PUSH2 0xBD9 JUMP JUMPDEST DUP3 ADD SWAP2 SWAP1 PUSH1 0x0 MSTORE PUSH1 0x20 PUSH1 0x0 KECCAK256 SWAP1 JUMPDEST DUP2 SLOAD DUP2 MSTORE SWAP1 PUSH1 0x1 ADD SWAP1 PUSH1 0x20 ADD DUP1 DUP4 GT PUSH2 0xBBC JUMPI DUP3 SWAP1 SUB PUSH1 0x1F AND DUP3 ADD SWAP2 JUMPDEST POP POP POP POP POP SWAP1 DUP1 PUSH1 0x5 ADD SLOAD SWAP1 POP DUP7 JUMP JUMPDEST PUSH1 0x0 PUSH2 0xBF3 PUSH2 0x1C23 JUMP JUMPDEST DUP3 TIMESTAMP DIFFICULTY PUSH1 0x40 MLOAD PUSH1 0x20 ADD PUSH2 0xC08 SWAP4 SWAP3 SWAP2 SWAP1 PUSH2 0x2349 JUMP JUMPDEST PUSH1 0x40 MLOAD PUSH1 0x20 DUP2 DUP4 SUB SUB DUP2 MSTORE SWAP1 PUSH1 0x40 MSTORE DUP1 MLOAD SWAP1 PUSH1 0x20 ADD KECCAK256 PUSH1 0x0 SHR DUP2 PUSH1 0x0 ADD DUP2 DUP2 MSTORE POP POP PUSH1 0x40 MLOAD DUP1 PUSH1 0x40 ADD PUSH1 0x40 MSTORE DUP1 PUSH1 0x2 DUP2 MSTORE PUSH1 0x20 ADD PUSH32 0x4449000000000000000000000000000000000000000000000000000000000000 DUP2 MSTORE POP DUP2 PUSH1 0x20 ADD DUP2 SWAP1 MSTORE POP DUP3 DUP2 PUSH1 0x40 ADD DUP2 SWAP1 MSTORE POP PUSH1 0x0 PUSH8 0xFFFFFFFFFFFFFFFF DUP2 GT ISZERO PUSH2 0xC8C JUMPI PUSH2 0xC8B PUSH2 0x27B1 JUMP JUMPDEST JUMPDEST PUSH1 0x40 MLOAD SWAP1 DUP1 DUP3 MSTORE DUP1 PUSH1 0x20 MUL PUSH1 0x20 ADD DUP3 ADD PUSH1 0x40 MSTORE DUP1 ISZERO PUSH2 0xCBA JUMPI DUP2 PUSH1 0x20 ADD PUSH1 0x20 DUP3 MUL DUP1 CALLDATASIZE DUP4 CALLDATACOPY DUP1 DUP3 ADD SWAP2 POP POP SWAP1 POP JUMPDEST POP DUP2 PUSH1 0x60 ADD DUP2 SWAP1 MSTORE POP DUP1 PUSH1 0x5 PUSH1 0x0 DUP4 PUSH1 0x0 ADD MLOAD DUP2 MSTORE PUSH1 0x20 ADD SWAP1 DUP2 MSTORE PUSH1 0x20 ADD PUSH1 0x0 KECCAK256 PUSH1 0x0 DUP3 ADD MLOAD DUP2 PUSH1 0x0 ADD SSTORE PUSH1 0x20 DUP3 ADD MLOAD DUP2 PUSH1 0x1 ADD SWAP1 DUP1 MLOAD SWAP1 PUSH1 0x20 ADD SWAP1 PUSH2 0xD01 SWAP3 SWAP2 SWAP1 PUSH2 0x1B50 JUMP JUMPDEST POP PUSH1 0x40 DUP3 ADD MLOAD DUP2 PUSH1 0x2 ADD SWAP1 DUP1 MLOAD SWAP1 PUSH1 0x20 ADD SWAP1 PUSH2 0xD1E SWAP3 SWAP2 SWAP1 PUSH2 0x1B50 JUMP JUMPDEST POP PUSH1 0x60 DUP3 ADD MLOAD DUP2 PUSH1 0x3 ADD SWAP1 DUP1 MLOAD SWAP1 PUSH1 0x20 ADD SWAP1 PUSH2 0xD3B SWAP3 SWAP2 SWAP1 PUSH2 0x1BD6 JUMP JUMPDEST POP SWAP1 POP POP DUP1 PUSH1 0x0 ADD MLOAD SWAP2 POP POP SWAP2 SWAP1 POP JUMP JUMPDEST PUSH1 0x6 PUSH1 0x20 MSTORE DUP1 PUSH1 0x0 MSTORE PUSH1 0x40 PUSH1 0x0 KECCAK256 PUSH1 0x0 SWAP2 POP SWAP1 POP DUP1 PUSH1 0x0 ADD SLOAD SWAP1 DUP1 PUSH1 0x1 ADD DUP1 SLOAD PUSH2 0xD75 SWAP1 PUSH2 0x2678 JUMP JUMPDEST DUP1 PUSH1 0x1F ADD PUSH1 0x20 DUP1 SWAP2 DIV MUL PUSH1 0x20 ADD PUSH1 0x40 MLOAD SWAP1 DUP2 ADD PUSH1 0x40 MSTORE DUP1 SWAP3 SWAP2 SWAP1 DUP2 DUP2 MSTORE PUSH1 0x20 ADD DUP3 DUP1 SLOAD PUSH2 0xDA1 SWAP1 PUSH2 0x2678 JUMP JUMPDEST DUP1 ISZERO PUSH2 0xDEE JUMPI DUP1 PUSH1 0x1F LT PUSH2 0xDC3 JUMPI PUSH2 0x100 DUP1 DUP4 SLOAD DIV MUL DUP4 MSTORE SWAP2 PUSH1 0x20 ADD SWAP2 PUSH2 0xDEE JUMP JUMPDEST DUP3 ADD SWAP2 SWAP1 PUSH1 0x0 MSTORE PUSH1 0x20 PUSH1 0x0 KECCAK256 SWAP1 JUMPDEST DUP2 SLOAD DUP2 MSTORE SWAP1 PUSH1 0x1 ADD SWAP1 PUSH1 0x20 ADD DUP1 DUP4 GT PUSH2 0xDD1 JUMPI DUP3 SWAP1 SUB PUSH1 0x1F AND DUP3 ADD SWAP2 JUMPDEST POP POP POP POP POP SWAP1 POP DUP3 JUMP JUMPDEST PUSH2 0xE00 PUSH2 0x1C4B JUMP JUMPDEST DUP4 TIMESTAMP DIFFICULTY PUSH1 0x40 MLOAD PUSH1 0x20 ADD PUSH2 0xE15 SWAP4 SWAP3 SWAP2 SWAP1 PUSH2 0x2349 JUMP JUMPDEST PUSH1 0x40 MLOAD PUSH1 0x20 DUP2 DUP4 SUB SUB DUP2 MSTORE SWAP1 PUSH1 0x40 MSTORE DUP1 MLOAD SWAP1 PUSH1 0x20 ADD KECCAK256 PUSH1 0x0 SHR DUP2 PUSH1 0x0 ADD DUP2 DUP2 MSTORE POP POP DUP4 DUP2 PUSH1 0x20 ADD DUP2 SWAP1 MSTORE POP DUP3 DUP2 PUSH1 0x40 ADD DUP2 DUP2 MSTORE POP POP DUP2 DUP2 PUSH1 0x60 ADD DUP2 SWAP1 MSTORE POP PUSH1 0x40 MLOAD DUP1 PUSH1 0x20 ADD PUSH1 0x40 MSTORE DUP1 PUSH1 0x0 DUP2 MSTORE POP DUP2 PUSH1 0x80 ADD DUP2 SWAP1 MSTORE POP PUSH1 0x0 DUP2 PUSH1 0xA0 ADD DUP2 DUP2 MSTORE POP POP DUP1 PUSH1 0x1 PUSH1 0x0 DUP4 PUSH1 0x0 ADD MLOAD DUP2 MSTORE PUSH1 0x20 ADD SWAP1 DUP2 MSTORE PUSH1 0x20 ADD PUSH1 0x0 KECCAK256 PUSH1 0x0 DUP3 ADD MLOAD DUP2 PUSH1 0x0 ADD SSTORE PUSH1 0x20 DUP3 ADD MLOAD DUP2 PUSH1 0x1 ADD SWAP1 DUP1 MLOAD SWAP1 PUSH1 0x20 ADD SWAP1 PUSH2 0xEB4 SWAP3 SWAP2 SWAP1 PUSH2 0x1B50 JUMP JUMPDEST POP PUSH1 0x40 DUP3 ADD MLOAD DUP2 PUSH1 0x2 ADD SSTORE PUSH1 0x60 DUP3 ADD MLOAD DUP2 PUSH1 0x3 ADD SWAP1 DUP1 MLOAD SWAP1 PUSH1 0x20 ADD SWAP1 PUSH2 0xEDB SWAP3 SWAP2 SWAP1 PUSH2 0x1B50 JUMP JUMPDEST POP PUSH1 0x80 DUP3 ADD MLOAD DUP2 PUSH1 0x4 ADD SWAP1 DUP1 MLOAD SWAP1 PUSH1 0x20 ADD SWAP1 PUSH2 0xEF8 SWAP3 SWAP2 SWAP1 PUSH2 0x1B50 JUMP JUMPDEST POP PUSH1 0xA0 DUP3 ADD MLOAD DUP2 PUSH1 0x5 ADD SSTORE SWAP1 POP POP PUSH1 0x2 PUSH1 0x0 DUP2 SLOAD DUP1 SWAP3 SWAP2 SWAP1 PUSH2 0xF19 SWAP1 PUSH2 0x26DB JUMP JUMPDEST SWAP2 SWAP1 POP SSTORE POP POP POP POP POP JUMP JUMPDEST PUSH1 0x0 PUSH2 0xF2E PUSH2 0x1C81 JUMP JUMPDEST DUP3 TIMESTAMP DIFFICULTY PUSH1 0x40 MLOAD PUSH1 0x20 ADD PUSH2 0xF43 SWAP4 SWAP3 SWAP2 SWAP1 PUSH2 0x2349 JUMP JUMPDEST PUSH1 0x40 MLOAD PUSH1 0x20 DUP2 DUP4 SUB SUB DUP2 MSTORE SWAP1 PUSH1 0x40 MSTORE DUP1 MLOAD SWAP1 PUSH1 0x20 ADD KECCAK256 PUSH1 0x0 SHR DUP2 PUSH1 0x0 ADD DUP2 DUP2 MSTORE POP POP PUSH1 0x40 MLOAD DUP1 PUSH1 0x40 ADD PUSH1 0x40 MSTORE DUP1 PUSH1 0x2 DUP2 MSTORE PUSH1 0x20 ADD PUSH32 0x4D41000000000000000000000000000000000000000000000000000000000000 DUP2 MSTORE POP DUP2 PUSH1 0x20 ADD DUP2 SWAP1 MSTORE POP DUP3 DUP2 PUSH1 0x40 ADD DUP2 SWAP1 MSTORE POP PUSH1 0x0 PUSH8 0xFFFFFFFFFFFFFFFF DUP2 GT ISZERO PUSH2 0xFC7 JUMPI PUSH2 0xFC6 PUSH2 0x27B1 JUMP JUMPDEST JUMPDEST PUSH1 0x40 MLOAD SWAP1 DUP1 DUP3 MSTORE DUP1 PUSH1 0x20 MUL PUSH1 0x20 ADD DUP3 ADD PUSH1 0x40 MSTORE DUP1 ISZERO PUSH2 0xFF5 JUMPI DUP2 PUSH1 0x20 ADD PUSH1 0x20 DUP3 MUL DUP1 CALLDATASIZE DUP4 CALLDATACOPY DUP1 DUP3 ADD SWAP2 POP POP SWAP1 POP JUMPDEST POP DUP2 PUSH1 0x60 ADD DUP2 SWAP1 MSTORE POP DUP1 PUSH1 0x4 PUSH1 0x0 DUP4 PUSH1 0x0 ADD MLOAD DUP2 MSTORE PUSH1 0x20 ADD SWAP1 DUP2 MSTORE PUSH1 0x20 ADD PUSH1 0x0 KECCAK256 PUSH1 0x0 DUP3 ADD MLOAD DUP2 PUSH1 0x0 ADD SSTORE PUSH1 0x20 DUP3 ADD MLOAD DUP2 PUSH1 0x1 ADD SWAP1 DUP1 MLOAD SWAP1 PUSH1 0x20 ADD SWAP1 PUSH2 0x103C SWAP3 SWAP2 SWAP1 PUSH2 0x1B50 JUMP JUMPDEST POP PUSH1 0x40 DUP3 ADD MLOAD DUP2 PUSH1 0x2 ADD SWAP1 DUP1 MLOAD SWAP1 PUSH1 0x20 ADD SWAP1 PUSH2 0x1059 SWAP3 SWAP2 SWAP1 PUSH2 0x1B50 JUMP JUMPDEST POP PUSH1 0x60 DUP3 ADD MLOAD DUP2 PUSH1 0x3 ADD SWAP1 DUP1 MLOAD SWAP1 PUSH1 0x20 ADD SWAP1 PUSH2 0x1076 SWAP3 SWAP2 SWAP1 PUSH2 0x1BD6 JUMP JUMPDEST POP SWAP1 POP POP DUP1 PUSH1 0x0 ADD MLOAD SWAP2 POP POP SWAP2 SWAP1 POP JUMP JUMPDEST PUSH1 0x4 PUSH1 0x20 MSTORE DUP1 PUSH1 0x0 MSTORE PUSH1 0x40 PUSH1 0x0 KECCAK256 PUSH1 0x0 SWAP2 POP SWAP1 POP DUP1 PUSH1 0x0 ADD SLOAD SWAP1 DUP1 PUSH1 0x1 ADD DUP1 SLOAD PUSH2 0x10B0 SWAP1 PUSH2 0x2678 JUMP JUMPDEST DUP1 PUSH1 0x1F ADD PUSH1 0x20 DUP1 SWAP2 DIV MUL PUSH1 0x20 ADD PUSH1 0x40 MLOAD SWAP1 DUP2 ADD PUSH1 0x40 MSTORE DUP1 SWAP3 SWAP2 SWAP1 DUP2 DUP2 MSTORE PUSH1 0x20 ADD DUP3 DUP1 SLOAD PUSH2 0x10DC SWAP1 PUSH2 0x2678 JUMP JUMPDEST DUP1 ISZERO PUSH2 0x1129 JUMPI DUP1 PUSH1 0x1F LT PUSH2 0x10FE JUMPI PUSH2 0x100 DUP1 DUP4 SLOAD DIV MUL DUP4 MSTORE SWAP2 PUSH1 0x20 ADD SWAP2 PUSH2 0x1129 JUMP JUMPDEST DUP3 ADD SWAP2 SWAP1 PUSH1 0x0 MSTORE PUSH1 0x20 PUSH1 0x0 KECCAK256 SWAP1 JUMPDEST DUP2 SLOAD DUP2 MSTORE SWAP1 PUSH1 0x1 ADD SWAP1 PUSH1 0x20 ADD DUP1 DUP4 GT PUSH2 0x110C JUMPI DUP3 SWAP1 SUB PUSH1 0x1F AND DUP3 ADD SWAP2 JUMPDEST POP POP POP POP POP SWAP1 DUP1 PUSH1 0x2 ADD DUP1 SLOAD PUSH2 0x113E SWAP1 PUSH2 0x2678 JUMP JUMPDEST DUP1 PUSH1 0x1F ADD PUSH1 0x20 DUP1 SWAP2 DIV MUL PUSH1 0x20 ADD PUSH1 0x40 MLOAD SWAP1 DUP2 ADD PUSH1 0x40 MSTORE DUP1 SWAP3 SWAP2 SWAP1 DUP2 DUP2 MSTORE PUSH1 0x20 ADD DUP3 DUP1 SLOAD PUSH2 0x116A SWAP1 PUSH2 0x2678 JUMP JUMPDEST DUP1 ISZERO PUSH2 0x11B7 JUMPI DUP1 PUSH1 0x1F LT PUSH2 0x118C JUMPI PUSH2 0x100 DUP1 DUP4 SLOAD DIV MUL DUP4 MSTORE SWAP2 PUSH1 0x20 ADD SWAP2 PUSH2 0x11B7 JUMP JUMPDEST DUP3 ADD SWAP2 SWAP1 PUSH1 0x0 MSTORE PUSH1 0x20 PUSH1 0x0 KECCAK256 SWAP1 JUMPDEST DUP2 SLOAD DUP2 MSTORE SWAP1 PUSH1 0x1 ADD SWAP1 PUSH1 0x20 ADD DUP1 DUP4 GT PUSH2 0x119A JUMPI DUP3 SWAP1 SUB PUSH1 0x1F AND DUP3 ADD SWAP2 JUMPDEST POP POP POP POP POP SWAP1 POP DUP4 JUMP JUMPDEST PUSH1 0x0 PUSH2 0x11CB PUSH2 0x1CA9 JUMP JUMPDEST DUP3 TIMESTAMP DIFFICULTY PUSH1 0x40 MLOAD PUSH1 0x20 ADD PUSH2 0x11E0 SWAP4 SWAP3 SWAP2 SWAP1 PUSH2 0x2349 JUMP JUMPDEST PUSH1 0x40 MLOAD PUSH1 0x20 DUP2 DUP4 SUB SUB DUP2 MSTORE SWAP1 PUSH1 0x40 MSTORE DUP1 MLOAD SWAP1 PUSH1 0x20 ADD KECCAK256 PUSH1 0x0 SHR DUP2 PUSH1 0x0 ADD DUP2 DUP2 MSTORE POP POP DUP3 DUP2 PUSH1 0x20 ADD DUP2 SWAP1 MSTORE POP PUSH1 0x0 PUSH8 0xFFFFFFFFFFFFFFFF DUP2 GT ISZERO PUSH2 0x1226 JUMPI PUSH2 0x1225 PUSH2 0x27B1 JUMP JUMPDEST JUMPDEST PUSH1 0x40 MLOAD SWAP1 DUP1 DUP3 MSTORE DUP1 PUSH1 0x20 MUL PUSH1 0x20 ADD DUP3 ADD PUSH1 0x40 MSTORE DUP1 ISZERO PUSH2 0x1254 JUMPI DUP2 PUSH1 0x20 ADD PUSH1 0x20 DUP3 MUL DUP1 CALLDATASIZE DUP4 CALLDATACOPY DUP1 DUP3 ADD SWAP2 POP POP SWAP1 POP JUMPDEST POP DUP2 PUSH1 0x40 ADD DUP2 SWAP1 MSTORE POP DUP1 PUSH1 0x6 PUSH1 0x0 DUP4 PUSH1 0x0 ADD MLOAD DUP2 MSTORE PUSH1 0x20 ADD SWAP1 DUP2 MSTORE PUSH1 0x20 ADD PUSH1 0x0 KECCAK256 PUSH1 0x0 DUP3 ADD MLOAD DUP2 PUSH1 0x0 ADD SSTORE PUSH1 0x20 DUP3 ADD MLOAD DUP2 PUSH1 0x1 ADD SWAP1 DUP1 MLOAD SWAP1 PUSH1 0x20 ADD SWAP1 PUSH2 0x129B SWAP3 SWAP2 SWAP1 PUSH2 0x1B50 JUMP JUMPDEST POP PUSH1 0x40 DUP3 ADD MLOAD DUP2 PUSH1 0x2 ADD SWAP1 DUP1 MLOAD SWAP1 PUSH1 0x20 ADD SWAP1 PUSH2 0x12B8 SWAP3 SWAP2 SWAP1 PUSH2 0x1BD6 JUMP JUMPDEST POP SWAP1 POP POP DUP1 PUSH1 0x0 ADD MLOAD SWAP2 POP POP SWAP2 SWAP1 POP JUMP JUMPDEST PUSH2 0x12D1 PUSH2 0x1C4B JUMP JUMPDEST PUSH1 0x1 PUSH1 0x0 DUP4 DUP2 MSTORE PUSH1 0x20 ADD SWAP1 DUP2 MSTORE PUSH1 0x20 ADD PUSH1 0x0 KECCAK256 PUSH1 0x40 MLOAD DUP1 PUSH1 0xC0 ADD PUSH1 0x40 MSTORE SWAP1 DUP2 PUSH1 0x0 DUP3 ADD SLOAD DUP2 MSTORE PUSH1 0x20 ADD PUSH1 0x1 DUP3 ADD DUP1 SLOAD PUSH2 0x1309 SWAP1 PUSH2 0x2678 JUMP JUMPDEST DUP1 PUSH1 0x1F ADD PUSH1 0x20 DUP1 SWAP2 DIV MUL PUSH1 0x20 ADD PUSH1 0x40 MLOAD SWAP1 DUP2 ADD PUSH1 0x40 MSTORE DUP1 SWAP3 SWAP2 SWAP1 DUP2 DUP2 MSTORE PUSH1 0x20 ADD DUP3 DUP1 SLOAD PUSH2 0x1335 SWAP1 PUSH2 0x2678 JUMP JUMPDEST DUP1 ISZERO PUSH2 0x1382 JUMPI DUP1 PUSH1 0x1F LT PUSH2 0x1357 JUMPI PUSH2 0x100 DUP1 DUP4 SLOAD DIV MUL DUP4 MSTORE SWAP2 PUSH1 0x20 ADD SWAP2 PUSH2 0x1382 JUMP JUMPDEST DUP3 ADD SWAP2 SWAP1 PUSH1 0x0 MSTORE PUSH1 0x20 PUSH1 0x0 KECCAK256 SWAP1 JUMPDEST DUP2 SLOAD DUP2 MSTORE SWAP1 PUSH1 0x1 ADD SWAP1 PUSH1 0x20 ADD DUP1 DUP4 GT PUSH2 0x1365 JUMPI DUP3 SWAP1 SUB PUSH1 0x1F AND DUP3 ADD SWAP2 JUMPDEST POP POP POP POP POP DUP2 MSTORE PUSH1 0x20 ADD PUSH1 0x2 DUP3 ADD SLOAD DUP2 MSTORE PUSH1 0x20 ADD PUSH1 0x3 DUP3 ADD DUP1 SLOAD PUSH2 0x13A5 SWAP1 PUSH2 0x2678 JUMP JUMPDEST DUP1 PUSH1 0x1F ADD PUSH1 0x20 DUP1 SWAP2 DIV MUL PUSH1 0x20 ADD PUSH1 0x40 MLOAD SWAP1 DUP2 ADD PUSH1 0x40 MSTORE DUP1 SWAP3 SWAP2 SWAP1 DUP2 DUP2 MSTORE PUSH1 0x20 ADD DUP3 DUP1 SLOAD PUSH2 0x13D1 SWAP1 PUSH2 0x2678 JUMP JUMPDEST DUP1 ISZERO PUSH2 0x141E JUMPI DUP1 PUSH1 0x1F LT PUSH2 0x13F3 JUMPI PUSH2 0x100 DUP1 DUP4 SLOAD DIV MUL DUP4 MSTORE SWAP2 PUSH1 0x20 ADD SWAP2 PUSH2 0x141E JUMP JUMPDEST DUP3 ADD SWAP2 SWAP1 PUSH1 0x0 MSTORE PUSH1 0x20 PUSH1 0x0 KECCAK256 SWAP1 JUMPDEST DUP2 SLOAD DUP2 MSTORE SWAP1 PUSH1 0x1 ADD SWAP1 PUSH1 0x20 ADD DUP1 DUP4 GT PUSH2 0x1401 JUMPI DUP3 SWAP1 SUB PUSH1 0x1F AND DUP3 ADD SWAP2 JUMPDEST POP POP POP POP POP DUP2 MSTORE PUSH1 0x20 ADD PUSH1 0x4 DUP3 ADD DUP1 SLOAD PUSH2 0x1437 SWAP1 PUSH2 0x2678 JUMP JUMPDEST DUP1 PUSH1 0x1F ADD PUSH1 0x20 DUP1 SWAP2 DIV MUL PUSH1 0x20 ADD PUSH1 0x40 MLOAD SWAP1 DUP2 ADD PUSH1 0x40 MSTORE DUP1 SWAP3 SWAP2 SWAP1 DUP2 DUP2 MSTORE PUSH1 0x20 ADD DUP3 DUP1 SLOAD PUSH2 0x1463 SWAP1 PUSH2 0x2678 JUMP JUMPDEST DUP1 ISZERO PUSH2 0x14B0 JUMPI DUP1 PUSH1 0x1F LT PUSH2 0x1485 JUMPI PUSH2 0x100 DUP1 DUP4 SLOAD DIV MUL DUP4 MSTORE SWAP2 PUSH1 0x20 ADD SWAP2 PUSH2 0x14B0 JUMP JUMPDEST DUP3 ADD SWAP2 SWAP1 PUSH1 0x0 MSTORE PUSH1 0x20 PUSH1 0x0 KECCAK256 SWAP1 JUMPDEST DUP2 SLOAD DUP2 MSTORE SWAP1 PUSH1 0x1 ADD SWAP1 PUSH1 0x20 ADD DUP1 DUP4 GT PUSH2 0x1493 JUMPI DUP3 SWAP1 SUB PUSH1 0x1F AND DUP3 ADD SWAP2 JUMPDEST POP POP POP POP POP DUP2 MSTORE PUSH1 0x20 ADD PUSH1 0x5 DUP3 ADD SLOAD DUP2 MSTORE POP POP SWAP1 POP SWAP2 SWAP1 POP JUMP JUMPDEST PUSH2 0x14D2 PUSH2 0x1C81 JUMP JUMPDEST PUSH1 0x4 PUSH1 0x0 DUP4 DUP2 MSTORE PUSH1 0x20 ADD SWAP1 DUP2 MSTORE PUSH1 0x20 ADD PUSH1 0x0 KECCAK256 PUSH1 0x40 MLOAD DUP1 PUSH1 0x80 ADD PUSH1 0x40 MSTORE SWAP1 DUP2 PUSH1 0x0 DUP3 ADD SLOAD DUP2 MSTORE PUSH1 0x20 ADD PUSH1 0x1 DUP3 ADD DUP1 SLOAD PUSH2 0x150A SWAP1 PUSH2 0x2678 JUMP JUMPDEST DUP1 PUSH1 0x1F ADD PUSH1 0x20 DUP1 SWAP2 DIV MUL PUSH1 0x20 ADD PUSH1 0x40 MLOAD SWAP1 DUP2 ADD PUSH1 0x40 MSTORE DUP1 SWAP3 SWAP2 SWAP1 DUP2 DUP2 MSTORE PUSH1 0x20 ADD DUP3 DUP1 SLOAD PUSH2 0x1536 SWAP1 PUSH2 0x2678 JUMP JUMPDEST DUP1 ISZERO PUSH2 0x1583 JUMPI DUP1 PUSH1 0x1F LT PUSH2 0x1558 JUMPI PUSH2 0x100 DUP1 DUP4 SLOAD DIV MUL DUP4 MSTORE SWAP2 PUSH1 0x20 ADD SWAP2 PUSH2 0x1583 JUMP JUMPDEST DUP3 ADD SWAP2 SWAP1 PUSH1 0x0 MSTORE PUSH1 0x20 PUSH1 0x0 KECCAK256 SWAP1 JUMPDEST DUP2 SLOAD DUP2 MSTORE SWAP1 PUSH1 0x1 ADD SWAP1 PUSH1 0x20 ADD DUP1 DUP4 GT PUSH2 0x1566 JUMPI DUP3 SWAP1 SUB PUSH1 0x1F AND DUP3 ADD SWAP2 JUMPDEST POP POP POP POP POP DUP2 MSTORE PUSH1 0x20 ADD PUSH1 0x2 DUP3 ADD DUP1 SLOAD PUSH2 0x159C SWAP1 PUSH2 0x2678 JUMP JUMPDEST DUP1 PUSH1 0x1F ADD PUSH1 0x20 DUP1 SWAP2 DIV MUL PUSH1 0x20 ADD PUSH1 0x40 MLOAD SWAP1 DUP2 ADD PUSH1 0x40 MSTORE DUP1 SWAP3 SWAP2 SWAP1 DUP2 DUP2 MSTORE PUSH1 0x20 ADD DUP3 DUP1 SLOAD PUSH2 0x15C8 SWAP1 PUSH2 0x2678 JUMP JUMPDEST DUP1 ISZERO PUSH2 0x1615 JUMPI DUP1 PUSH1 0x1F LT PUSH2 0x15EA JUMPI PUSH2 0x100 DUP1 DUP4 SLOAD DIV MUL DUP4 MSTORE SWAP2 PUSH1 0x20 ADD SWAP2 PUSH2 0x1615 JUMP JUMPDEST DUP3 ADD SWAP2 SWAP1 PUSH1 0x0 MSTORE PUSH1 0x20 PUSH1 0x0 KECCAK256 SWAP1 JUMPDEST DUP2 SLOAD DUP2 MSTORE SWAP1 PUSH1 0x1 ADD SWAP1 PUSH1 0x20 ADD DUP1 DUP4 GT PUSH2 0x15F8 JUMPI DUP3 SWAP1 SUB PUSH1 0x1F AND DUP3 ADD SWAP2 JUMPDEST POP POP POP POP POP DUP2 MSTORE PUSH1 0x20 ADD PUSH1 0x3 DUP3 ADD DUP1 SLOAD DUP1 PUSH1 0x20 MUL PUSH1 0x20 ADD PUSH1 0x40 MLOAD SWAP1 DUP2 ADD PUSH1 0x40 MSTORE DUP1 SWAP3 SWAP2 SWAP1 DUP2 DUP2 MSTORE PUSH1 0x20 ADD DUP3 DUP1 SLOAD DUP1 ISZERO PUSH2 0x166D JUMPI PUSH1 0x20 MUL DUP3 ADD SWAP2 SWAP1 PUSH1 0x0 MSTORE PUSH1 0x20 PUSH1 0x0 KECCAK256 SWAP1 JUMPDEST DUP2 SLOAD DUP2 MSTORE PUSH1 0x20 ADD SWAP1 PUSH1 0x1 ADD SWAP1 DUP1 DUP4 GT PUSH2 0x1659 JUMPI JUMPDEST POP POP POP POP POP DUP2 MSTORE POP POP SWAP1 POP SWAP2 SWAP1 POP JUMP JUMPDEST PUSH2 0x1685 PUSH2 0x1CA9 JUMP JUMPDEST PUSH1 0x6 PUSH1 0x0 DUP4 DUP2 MSTORE PUSH1 0x20 ADD SWAP1 DUP2 MSTORE PUSH1 0x20 ADD PUSH1 0x0 KECCAK256 PUSH1 0x40 MLOAD DUP1 PUSH1 0x60 ADD PUSH1 0x40 MSTORE SWAP1 DUP2 PUSH1 0x0 DUP3 ADD SLOAD DUP2 MSTORE PUSH1 0x20 ADD PUSH1 0x1 DUP3 ADD DUP1 SLOAD PUSH2 0x16BD SWAP1 PUSH2 0x2678 JUMP JUMPDEST DUP1 PUSH1 0x1F ADD PUSH1 0x20 DUP1 SWAP2 DIV MUL PUSH1 0x20 ADD PUSH1 0x40 MLOAD SWAP1 DUP2 ADD PUSH1 0x40 MSTORE DUP1 SWAP3 SWAP2 SWAP1 DUP2 DUP2 MSTORE PUSH1 0x20 ADD DUP3 DUP1 SLOAD PUSH2 0x16E9 SWAP1 PUSH2 0x2678 JUMP JUMPDEST DUP1 ISZERO PUSH2 0x1736 JUMPI DUP1 PUSH1 0x1F LT PUSH2 0x170B JUMPI PUSH2 0x100 DUP1 DUP4 SLOAD DIV MUL DUP4 MSTORE SWAP2 PUSH1 0x20 ADD SWAP2 PUSH2 0x1736 JUMP JUMPDEST DUP3 ADD SWAP2 SWAP1 PUSH1 0x0 MSTORE PUSH1 0x20 PUSH1 0x0 KECCAK256 SWAP1 JUMPDEST DUP2 SLOAD DUP2 MSTORE SWAP1 PUSH1 0x1 ADD SWAP1 PUSH1 0x20 ADD DUP1 DUP4 GT PUSH2 0x1719 JUMPI DUP3 SWAP1 SUB PUSH1 0x1F AND DUP3 ADD SWAP2 JUMPDEST POP POP POP POP POP DUP2 MSTORE PUSH1 0x20 ADD PUSH1 0x2 DUP3 ADD DUP1 SLOAD DUP1 PUSH1 0x20 MUL PUSH1 0x20 ADD PUSH1 0x40 MLOAD SWAP1 DUP2 ADD PUSH1 0x40 MSTORE DUP1 SWAP3 SWAP2 SWAP1 DUP2 DUP2 MSTORE PUSH1 0x20 ADD DUP3 DUP1 SLOAD DUP1 ISZERO PUSH2 0x178E JUMPI PUSH1 0x20 MUL DUP3 ADD SWAP2 SWAP1 PUSH1 0x0 MSTORE PUSH1 0x20 PUSH1 0x0 KECCAK256 SWAP1 JUMPDEST DUP2 SLOAD DUP2 MSTORE PUSH1 0x20 ADD SWAP1 PUSH1 0x1 ADD SWAP1 DUP1 DUP4 GT PUSH2 0x177A JUMPI JUMPDEST POP POP POP POP POP DUP2 MSTORE POP POP SWAP1 POP SWAP2 SWAP1 POP JUMP JUMPDEST PUSH1 0x3 PUSH1 0x20 MSTORE DUP1 PUSH1 0x0 MSTORE PUSH1 0x40 PUSH1 0x0 KECCAK256 PUSH1 0x0 SWAP2 POP SWAP1 POP DUP1 PUSH1 0x0 ADD SLOAD SWAP1 DUP1 PUSH1 0x1 ADD DUP1 SLOAD PUSH2 0x17C7 SWAP1 PUSH2 0x2678 JUMP JUMPDEST DUP1 PUSH1 0x1F ADD PUSH1 0x20 DUP1 SWAP2 DIV MUL PUSH1 0x20 ADD PUSH1 0x40 MLOAD SWAP1 DUP2 ADD PUSH1 0x40 MSTORE DUP1 SWAP3 SWAP2 SWAP1 DUP2 DUP2 MSTORE PUSH1 0x20 ADD DUP3 DUP1 SLOAD PUSH2 0x17F3 SWAP1 PUSH2 0x2678 JUMP JUMPDEST DUP1 ISZERO PUSH2 0x1840 JUMPI DUP1 PUSH1 0x1F LT PUSH2 0x1815 JUMPI PUSH2 0x100 DUP1 DUP4 SLOAD DIV MUL DUP4 MSTORE SWAP2 PUSH1 0x20 ADD SWAP2 PUSH2 0x1840 JUMP JUMPDEST DUP3 ADD SWAP2 SWAP1 PUSH1 0x0 MSTORE PUSH1 0x20 PUSH1 0x0 KECCAK256 SWAP1 JUMPDEST DUP2 SLOAD DUP2 MSTORE SWAP1 PUSH1 0x1 ADD SWAP1 PUSH1 0x20 ADD DUP1 DUP4 GT PUSH2 0x1823 JUMPI DUP3 SWAP1 SUB PUSH1 0x1F AND DUP3 ADD SWAP2 JUMPDEST POP POP POP POP POP SWAP1 DUP1 PUSH1 0x2 ADD DUP1 SLOAD PUSH2 0x1855 SWAP1 PUSH2 0x2678 JUMP JUMPDEST DUP1 PUSH1 0x1F ADD PUSH1 0x20 DUP1 SWAP2 DIV MUL PUSH1 0x20 ADD PUSH1 0x40 MLOAD SWAP1 DUP2 ADD PUSH1 0x40 MSTORE DUP1 SWAP3 SWAP2 SWAP1 DUP2 DUP2 MSTORE PUSH1 0x20 ADD DUP3 DUP1 SLOAD PUSH2 0x1881 SWAP1 PUSH2 0x2678 JUMP JUMPDEST DUP1 ISZERO PUSH2 0x18CE JUMPI DUP1 PUSH1 0x1F LT PUSH2 0x18A3 JUMPI PUSH2 0x100 DUP1 DUP4 SLOAD DIV MUL DUP4 MSTORE SWAP2 PUSH1 0x20 ADD SWAP2 PUSH2 0x18CE JUMP JUMPDEST DUP3 ADD SWAP2 SWAP1 PUSH1 0x0 MSTORE PUSH1 0x20 PUSH1 0x0 KECCAK256 SWAP1 JUMPDEST DUP2 SLOAD DUP2 MSTORE SWAP1 PUSH1 0x1 ADD SWAP1 PUSH1 0x20 ADD DUP1 DUP4 GT PUSH2 0x18B1 JUMPI DUP3 SWAP1 SUB PUSH1 0x1F AND DUP3 ADD SWAP2 JUMPDEST POP POP POP POP POP SWAP1 POP DUP4 JUMP JUMPDEST POP POP POP JUMP JUMPDEST PUSH1 0x60 DUP1 PUSH1 0x0 DUP1 JUMPDEST PUSH1 0x2 SLOAD DUP2 LT ISZERO PUSH2 0x1B1F JUMPI PUSH1 0x1 PUSH1 0x0 DUP3 DUP2 MSTORE PUSH1 0x20 ADD SWAP1 DUP2 MSTORE PUSH1 0x20 ADD PUSH1 0x0 KECCAK256 PUSH1 0x40 MLOAD DUP1 PUSH1 0xC0 ADD PUSH1 0x40 MSTORE SWAP1 DUP2 PUSH1 0x0 DUP3 ADD SLOAD DUP2 MSTORE PUSH1 0x20 ADD PUSH1 0x1 DUP3 ADD DUP1 SLOAD PUSH2 0x1926 SWAP1 PUSH2 0x2678 JUMP JUMPDEST DUP1 PUSH1 0x1F ADD PUSH1 0x20 DUP1 SWAP2 DIV MUL PUSH1 0x20 ADD PUSH1 0x40 MLOAD SWAP1 DUP2 ADD PUSH1 0x40 MSTORE DUP1 SWAP3 SWAP2 SWAP1 DUP2 DUP2 MSTORE PUSH1 0x20 ADD DUP3 DUP1 SLOAD PUSH2 0x1952 SWAP1 PUSH2 0x2678 JUMP JUMPDEST DUP1 ISZERO PUSH2 0x199F JUMPI DUP1 PUSH1 0x1F LT PUSH2 0x1974 JUMPI PUSH2 0x100 DUP1 DUP4 SLOAD DIV MUL DUP4 MSTORE SWAP2 PUSH1 0x20 ADD SWAP2 PUSH2 0x199F JUMP JUMPDEST DUP3 ADD SWAP2 SWAP1 PUSH1 0x0 MSTORE PUSH1 0x20 PUSH1 0x0 KECCAK256 SWAP1 JUMPDEST DUP2 SLOAD DUP2 MSTORE SWAP1 PUSH1 0x1 ADD SWAP1 PUSH1 0x20 ADD DUP1 DUP4 GT PUSH2 0x1982 JUMPI DUP3 SWAP1 SUB PUSH1 0x1F AND DUP3 ADD SWAP2 JUMPDEST POP POP POP POP POP DUP2 MSTORE PUSH1 0x20 ADD PUSH1 0x2 DUP3 ADD SLOAD DUP2 MSTORE PUSH1 0x20 ADD PUSH1 0x3 DUP3 ADD DUP1 SLOAD PUSH2 0x19C2 SWAP1 PUSH2 0x2678 JUMP JUMPDEST DUP1 PUSH1 0x1F ADD PUSH1 0x20 DUP1 SWAP2 DIV MUL PUSH1 0x20 ADD PUSH1 0x40 MLOAD SWAP1 DUP2 ADD PUSH1 0x40 MSTORE DUP1 SWAP3 SWAP2 SWAP1 DUP2 DUP2 MSTORE PUSH1 0x20 ADD DUP3 DUP1 SLOAD PUSH2 0x19EE SWAP1 PUSH2 0x2678 JUMP JUMPDEST DUP1 ISZERO PUSH2 0x1A3B JUMPI DUP1 PUSH1 0x1F LT PUSH2 0x1A10 JUMPI PUSH2 0x100 DUP1 DUP4 SLOAD DIV MUL DUP4 MSTORE SWAP2 PUSH1 0x20 ADD SWAP2 PUSH2 0x1A3B JUMP JUMPDEST DUP3 ADD SWAP2 SWAP1 PUSH1 0x0 MSTORE PUSH1 0x20 PUSH1 0x0 KECCAK256 SWAP1 JUMPDEST DUP2 SLOAD DUP2 MSTORE SWAP1 PUSH1 0x1 ADD SWAP1 PUSH1 0x20 ADD DUP1 DUP4 GT PUSH2 0x1A1E JUMPI DUP3 SWAP1 SUB PUSH1 0x1F AND DUP3 ADD SWAP2 JUMPDEST POP POP POP POP POP DUP2 MSTORE PUSH1 0x20 ADD PUSH1 0x4 DUP3 ADD DUP1 SLOAD PUSH2 0x1A54 SWAP1 PUSH2 0x2678 JUMP JUMPDEST DUP1 PUSH1 0x1F ADD PUSH1 0x20 DUP1 SWAP2 DIV MUL PUSH1 0x20 ADD PUSH1 0x40 MLOAD SWAP1 DUP2 ADD PUSH1 0x40 MSTORE DUP1 SWAP3 SWAP2 SWAP1 DUP2 DUP2 MSTORE PUSH1 0x20 ADD DUP3 DUP1 SLOAD PUSH2 0x1A80 SWAP1 PUSH2 0x2678 JUMP JUMPDEST DUP1 ISZERO PUSH2 0x1ACD JUMPI DUP1 PUSH1 0x1F LT PUSH2 0x1AA2 JUMPI PUSH2 0x100 DUP1 DUP4 SLOAD DIV MUL DUP4 MSTORE SWAP2 PUSH1 0x20 ADD SWAP2 PUSH2 0x1ACD JUMP JUMPDEST DUP3 ADD SWAP2 SWAP1 PUSH1 0x0 MSTORE PUSH1 0x20 PUSH1 0x0 KECCAK256 SWAP1 JUMPDEST DUP2 SLOAD DUP2 MSTORE SWAP1 PUSH1 0x1 ADD SWAP1 PUSH1 0x20 ADD DUP1 DUP4 GT PUSH2 0x1AB0 JUMPI DUP3 SWAP1 SUB PUSH1 0x1F AND DUP3 ADD SWAP2 JUMPDEST POP POP POP POP POP DUP2 MSTORE PUSH1 0x20 ADD PUSH1 0x5 DUP3 ADD SLOAD DUP2 MSTORE POP POP DUP4 DUP4 DUP2 MLOAD DUP2 LT PUSH2 0x1AF3 JUMPI PUSH2 0x1AF2 PUSH2 0x2782 JUMP JUMPDEST JUMPDEST PUSH1 0x20 MUL PUSH1 0x20 ADD ADD DUP2 SWAP1 MSTORE POP DUP2 DUP1 PUSH2 0x1B09 SWAP1 PUSH2 0x26DB JUMP JUMPDEST SWAP3 POP POP DUP1 DUP1 PUSH2 0x1B17 SWAP1 PUSH2 0x26DB JUMP JUMPDEST SWAP2 POP POP PUSH2 0x18E4 JUMP JUMPDEST POP DUP2 SWAP3 POP POP POP SWAP1 JUMP JUMPDEST PUSH1 0x40 MLOAD DUP1 PUSH1 0x80 ADD PUSH1 0x40 MSTORE DUP1 PUSH1 0x0 DUP2 MSTORE PUSH1 0x20 ADD PUSH1 0x60 DUP2 MSTORE PUSH1 0x20 ADD PUSH1 0x60 DUP2 MSTORE PUSH1 0x20 ADD PUSH1 0x60 DUP2 MSTORE POP SWAP1 JUMP JUMPDEST DUP3 DUP1 SLOAD PUSH2 0x1B5C SWAP1 PUSH2 0x2678 JUMP JUMPDEST SWAP1 PUSH1 0x0 MSTORE PUSH1 0x20 PUSH1 0x0 KECCAK256 SWAP1 PUSH1 0x1F ADD PUSH1 0x20 SWAP1 DIV DUP2 ADD SWAP3 DUP3 PUSH2 0x1B7E JUMPI PUSH1 0x0 DUP6 SSTORE PUSH2 0x1BC5 JUMP JUMPDEST DUP3 PUSH1 0x1F LT PUSH2 0x1B97 JUMPI DUP1 MLOAD PUSH1 0xFF NOT AND DUP4 DUP1 ADD OR DUP6 SSTORE PUSH2 0x1BC5 JUMP JUMPDEST DUP3 DUP1 ADD PUSH1 0x1 ADD DUP6 SSTORE DUP3 ISZERO PUSH2 0x1BC5 JUMPI SWAP2 DUP3 ADD JUMPDEST DUP3 DUP2 GT ISZERO PUSH2 0x1BC4 JUMPI DUP3 MLOAD DUP3 SSTORE SWAP2 PUSH1 0x20 ADD SWAP2 SWAP1 PUSH1 0x1 ADD SWAP1 PUSH2 0x1BA9 JUMP JUMPDEST JUMPDEST POP SWAP1 POP PUSH2 0x1BD2 SWAP2 SWAP1 PUSH2 0x1CCA JUMP JUMPDEST POP SWAP1 JUMP JUMPDEST DUP3 DUP1 SLOAD DUP3 DUP3 SSTORE SWAP1 PUSH1 0x0 MSTORE PUSH1 0x20 PUSH1 0x0 KECCAK256 SWAP1 DUP2 ADD SWAP3 DUP3 ISZERO PUSH2 0x1C12 JUMPI SWAP2 PUSH1 0x20 MUL DUP3 ADD JUMPDEST DUP3 DUP2 GT ISZERO PUSH2 0x1C11 JUMPI DUP3 MLOAD DUP3 SSTORE SWAP2 PUSH1 0x20 ADD SWAP2 SWAP1 PUSH1 0x1 ADD SWAP1 PUSH2 0x1BF6 JUMP JUMPDEST JUMPDEST POP SWAP1 POP PUSH2 0x1C1F SWAP2 SWAP1 PUSH2 0x1CCA JUMP JUMPDEST POP SWAP1 JUMP JUMPDEST PUSH1 0x40 MLOAD DUP1 PUSH1 0x80 ADD PUSH1 0x40 MSTORE DUP1 PUSH1 0x0 DUP2 MSTORE PUSH1 0x20 ADD PUSH1 0x60 DUP2 MSTORE PUSH1 0x20 ADD PUSH1 0x60 DUP2 MSTORE PUSH1 0x20 ADD PUSH1 0x60 DUP2 MSTORE POP SWAP1 JUMP JUMPDEST PUSH1 0x40 MLOAD DUP1 PUSH1 0xC0 ADD PUSH1 0x40 MSTORE DUP1 PUSH1 0x0 DUP2 MSTORE PUSH1 0x20 ADD PUSH1 0x60 DUP2 MSTORE PUSH1 0x20 ADD PUSH1 0x0 DUP2 MSTORE PUSH1 0x20 ADD PUSH1 0x60 DUP2 MSTORE PUSH1 0x20 ADD PUSH1 0x60 DUP2 MSTORE PUSH1 0x20 ADD PUSH1 0x0 DUP2 MSTORE POP SWAP1 JUMP JUMPDEST PUSH1 0x40 MLOAD DUP1 PUSH1 0x80 ADD PUSH1 0x40 MSTORE DUP1 PUSH1 0x0 DUP2 MSTORE PUSH1 0x20 ADD PUSH1 0x60 DUP2 MSTORE PUSH1 0x20 ADD PUSH1 0x60 DUP2 MSTORE PUSH1 0x20 ADD PUSH1 0x60 DUP2 MSTORE POP SWAP1 JUMP JUMPDEST PUSH1 0x40 MLOAD DUP1 PUSH1 0x60 ADD PUSH1 0x40 MSTORE DUP1 PUSH1 0x0 DUP2 MSTORE PUSH1 0x20 ADD PUSH1 0x60 DUP2 MSTORE PUSH1 0x20 ADD PUSH1 0x60 DUP2 MSTORE POP SWAP1 JUMP JUMPDEST JUMPDEST DUP1 DUP3 GT ISZERO PUSH2 0x1CE3 JUMPI PUSH1 0x0 DUP2 PUSH1 0x0 SWAP1 SSTORE POP PUSH1 0x1 ADD PUSH2 0x1CCB JUMP JUMPDEST POP SWAP1 JUMP JUMPDEST PUSH1 0x0 PUSH2 0x1CFA PUSH2 0x1CF5 DUP5 PUSH2 0x255C JUMP JUMPDEST PUSH2 0x2537 JUMP JUMPDEST SWAP1 POP DUP3 DUP2 MSTORE PUSH1 0x20 DUP2 ADD DUP5 DUP5 DUP5 ADD GT ISZERO PUSH2 0x1D16 JUMPI PUSH2 0x1D15 PUSH2 0x27E5 JUMP JUMPDEST JUMPDEST PUSH2 0x1D21 DUP5 DUP3 DUP6 PUSH2 0x2636 JUMP JUMPDEST POP SWAP4 SWAP3 POP POP POP JUMP JUMPDEST PUSH1 0x0 DUP3 PUSH1 0x1F DUP4 ADD SLT PUSH2 0x1D3E JUMPI PUSH2 0x1D3D PUSH2 0x27E0 JUMP JUMPDEST JUMPDEST DUP2 CALLDATALOAD PUSH2 0x1D4E DUP5 DUP3 PUSH1 0x20 DUP7 ADD PUSH2 0x1CE7 JUMP JUMPDEST SWAP2 POP POP SWAP3 SWAP2 POP POP JUMP JUMPDEST PUSH1 0x0 DUP2 CALLDATALOAD SWAP1 POP PUSH2 0x1D66 DUP2 PUSH2 0x2805 JUMP JUMPDEST SWAP3 SWAP2 POP POP JUMP JUMPDEST PUSH1 0x0 PUSH1 0x20 DUP3 DUP5 SUB SLT ISZERO PUSH2 0x1D82 JUMPI PUSH2 0x1D81 PUSH2 0x27EF JUMP JUMPDEST JUMPDEST PUSH1 0x0 DUP3 ADD CALLDATALOAD PUSH8 0xFFFFFFFFFFFFFFFF DUP2 GT ISZERO PUSH2 0x1DA0 JUMPI PUSH2 0x1D9F PUSH2 0x27EA JUMP JUMPDEST JUMPDEST PUSH2 0x1DAC DUP5 DUP3 DUP6 ADD PUSH2 0x1D29 JUMP JUMPDEST SWAP2 POP POP SWAP3 SWAP2 POP POP JUMP JUMPDEST PUSH1 0x0 DUP1 PUSH1 0x0 PUSH1 0x60 DUP5 DUP7 SUB SLT ISZERO PUSH2 0x1DCE JUMPI PUSH2 0x1DCD PUSH2 0x27EF JUMP JUMPDEST JUMPDEST PUSH1 0x0 DUP5 ADD CALLDATALOAD PUSH8 0xFFFFFFFFFFFFFFFF DUP2 GT ISZERO PUSH2 0x1DEC JUMPI PUSH2 0x1DEB PUSH2 0x27EA JUMP JUMPDEST JUMPDEST PUSH2 0x1DF8 DUP7 DUP3 DUP8 ADD PUSH2 0x1D29 JUMP JUMPDEST SWAP4 POP POP PUSH1 0x20 PUSH2 0x1E09 DUP7 DUP3 DUP8 ADD PUSH2 0x1D57 JUMP JUMPDEST SWAP3 POP POP PUSH1 0x40 DUP5 ADD CALLDATALOAD PUSH8 0xFFFFFFFFFFFFFFFF DUP2 GT ISZERO PUSH2 0x1E2A JUMPI PUSH2 0x1E29 PUSH2 0x27EA JUMP JUMPDEST JUMPDEST PUSH2 0x1E36 DUP7 DUP3 DUP8 ADD PUSH2 0x1D29 JUMP JUMPDEST SWAP2 POP POP SWAP3 POP SWAP3 POP SWAP3 JUMP JUMPDEST PUSH1 0x0 PUSH1 0x20 DUP3 DUP5 SUB SLT ISZERO PUSH2 0x1E56 JUMPI PUSH2 0x1E55 PUSH2 0x27EF JUMP JUMPDEST JUMPDEST PUSH1 0x0 PUSH2 0x1E64 DUP5 DUP3 DUP6 ADD PUSH2 0x1D57 JUMP JUMPDEST SWAP2 POP POP SWAP3 SWAP2 POP POP JUMP JUMPDEST PUSH1 0x0 DUP1 PUSH1 0x0 PUSH1 0x60 DUP5 DUP7 SUB SLT ISZERO PUSH2 0x1E86 JUMPI PUSH2 0x1E85 PUSH2 0x27EF JUMP JUMPDEST JUMPDEST PUSH1 0x0 PUSH2 0x1E94 DUP7 DUP3 DUP8 ADD PUSH2 0x1D57 JUMP JUMPDEST SWAP4 POP POP PUSH1 0x20 PUSH2 0x1EA5 DUP7 DUP3 DUP8 ADD PUSH2 0x1D57 JUMP JUMPDEST SWAP3 POP POP PUSH1 0x40 PUSH2 0x1EB6 DUP7 DUP3 DUP8 ADD PUSH2 0x1D57 JUMP JUMPDEST SWAP2 POP POP SWAP3 POP SWAP3 POP SWAP3 JUMP JUMPDEST PUSH1 0x0 PUSH2 0x1ECC DUP4 DUP4 PUSH2 0x2113 JUMP JUMPDEST SWAP1 POP SWAP3 SWAP2 POP POP JUMP JUMPDEST PUSH1 0x0 PUSH2 0x1EE0 DUP4 DUP4 PUSH2 0x2309 JUMP JUMPDEST PUSH1 0x20 DUP4 ADD SWAP1 POP SWAP3 SWAP2 POP POP JUMP JUMPDEST PUSH1 0x0 PUSH2 0x1EF7 DUP3 PUSH2 0x25AD JUMP JUMPDEST PUSH2 0x1F01 DUP2 DUP6 PUSH2 0x25E8 JUMP JUMPDEST SWAP4 POP DUP4 PUSH1 0x20 DUP3 MUL DUP6 ADD PUSH2 0x1F13 DUP6 PUSH2 0x258D JUMP JUMPDEST DUP1 PUSH1 0x0 JUMPDEST DUP6 DUP2 LT ISZERO PUSH2 0x1F4F JUMPI DUP5 DUP5 SUB DUP10 MSTORE DUP2 MLOAD PUSH2 0x1F30 DUP6 DUP3 PUSH2 0x1EC0 JUMP JUMPDEST SWAP5 POP PUSH2 0x1F3B DUP4 PUSH2 0x25CE JUMP JUMPDEST SWAP3 POP PUSH1 0x20 DUP11 ADD SWAP10 POP POP PUSH1 0x1 DUP2 ADD SWAP1 POP PUSH2 0x1F17 JUMP JUMPDEST POP DUP3 SWAP8 POP DUP8 SWAP6 POP POP POP POP POP POP SWAP3 SWAP2 POP POP JUMP JUMPDEST PUSH1 0x0 PUSH2 0x1F6C DUP3 PUSH2 0x25B8 JUMP JUMPDEST PUSH2 0x1F76 DUP2 DUP6 PUSH2 0x25F9 JUMP JUMPDEST SWAP4 POP PUSH2 0x1F81 DUP4 PUSH2 0x259D JUMP JUMPDEST DUP1 PUSH1 0x0 JUMPDEST DUP4 DUP2 LT ISZERO PUSH2 0x1FB2 JUMPI DUP2 MLOAD PUSH2 0x1F99 DUP9 DUP3 PUSH2 0x1ED4 JUMP JUMPDEST SWAP8 POP PUSH2 0x1FA4 DUP4 PUSH2 0x25DB JUMP JUMPDEST SWAP3 POP POP PUSH1 0x1 DUP2 ADD SWAP1 POP PUSH2 0x1F85 JUMP JUMPDEST POP DUP6 SWAP4 POP POP POP POP SWAP3 SWAP2 POP POP JUMP JUMPDEST PUSH1 0x0 PUSH2 0x1FCA DUP3 PUSH2 0x25C3 JUMP JUMPDEST PUSH2 0x1FD4 DUP2 DUP6 PUSH2 0x260A JUMP JUMPDEST SWAP4 POP PUSH2 0x1FE4 DUP2 DUP6 PUSH1 0x20 DUP7 ADD PUSH2 0x2645 JUMP JUMPDEST PUSH2 0x1FED DUP2 PUSH2 0x27F4 JUMP JUMPDEST DUP5 ADD SWAP2 POP POP SWAP3 SWAP2 POP POP JUMP JUMPDEST PUSH1 0x0 PUSH2 0x2003 DUP3 PUSH2 0x25C3 JUMP JUMPDEST PUSH2 0x200D DUP2 DUP6 PUSH2 0x261B JUMP JUMPDEST SWAP4 POP PUSH2 0x201D DUP2 DUP6 PUSH1 0x20 DUP7 ADD PUSH2 0x2645 JUMP JUMPDEST PUSH2 0x2026 DUP2 PUSH2 0x27F4 JUMP JUMPDEST DUP5 ADD SWAP2 POP POP SWAP3 SWAP2 POP POP JUMP JUMPDEST PUSH1 0x0 PUSH1 0x80 DUP4 ADD PUSH1 0x0 DUP4 ADD MLOAD PUSH2 0x2049 PUSH1 0x0 DUP7 ADD DUP3 PUSH2 0x2309 JUMP JUMPDEST POP PUSH1 0x20 DUP4 ADD MLOAD DUP5 DUP3 SUB PUSH1 0x20 DUP7 ADD MSTORE PUSH2 0x2061 DUP3 DUP3 PUSH2 0x1FBF JUMP JUMPDEST SWAP2 POP POP PUSH1 0x40 DUP4 ADD MLOAD DUP5 DUP3 SUB PUSH1 0x40 DUP7 ADD MSTORE PUSH2 0x207B DUP3 DUP3 PUSH2 0x1FBF JUMP JUMPDEST SWAP2 POP POP PUSH1 0x60 DUP4 ADD MLOAD DUP5 DUP3 SUB PUSH1 0x60 DUP7 ADD MSTORE PUSH2 0x2095 DUP3 DUP3 PUSH2 0x1F61 JUMP JUMPDEST SWAP2 POP POP DUP1 SWAP2 POP POP SWAP3 SWAP2 POP POP JUMP JUMPDEST PUSH1 0x0 PUSH1 0x80 DUP4 ADD PUSH1 0x0 DUP4 ADD MLOAD PUSH2 0x20BA PUSH1 0x0 DUP7 ADD DUP3 PUSH2 0x2309 JUMP JUMPDEST POP PUSH1 0x20 DUP4 ADD MLOAD DUP5 DUP3 SUB PUSH1 0x20 DUP7 ADD MSTORE PUSH2 0x20D2 DUP3 DUP3 PUSH2 0x1FBF JUMP JUMPDEST SWAP2 POP POP PUSH1 0x40 DUP4 ADD MLOAD DUP5 DUP3 SUB PUSH1 0x40 DUP7 ADD MSTORE PUSH2 0x20EC DUP3 DUP3 PUSH2 0x1FBF JUMP JUMPDEST SWAP2 POP POP PUSH1 0x60 DUP4 ADD MLOAD DUP5 DUP3 SUB PUSH1 0x60 DUP7 ADD MSTORE PUSH2 0x2106 DUP3 DUP3 PUSH2 0x1F61 JUMP JUMPDEST SWAP2 POP POP DUP1 SWAP2 POP POP SWAP3 SWAP2 POP POP JUMP JUMPDEST PUSH1 0x0 PUSH1 0xC0 DUP4 ADD PUSH1 0x0 DUP4 ADD MLOAD PUSH2 0x212B PUSH1 0x0 DUP7 ADD DUP3 PUSH2 0x2309 JUMP JUMPDEST POP PUSH1 0x20 DUP4 ADD MLOAD DUP5 DUP3 SUB PUSH1 0x20 DUP7 ADD MSTORE PUSH2 0x2143 DUP3 DUP3 PUSH2 0x1FBF JUMP JUMPDEST SWAP2 POP POP PUSH1 0x40 DUP4 ADD MLOAD PUSH2 0x2158 PUSH1 0x40 DUP7 ADD DUP3 PUSH2 0x2309 JUMP JUMPDEST POP PUSH1 0x60 DUP4 ADD MLOAD DUP5 DUP3 SUB PUSH1 0x60 DUP7 ADD MSTORE PUSH2 0x2170 DUP3 DUP3 PUSH2 0x1FBF JUMP JUMPDEST SWAP2 POP POP PUSH1 0x80 DUP4 ADD MLOAD DUP5 DUP3 SUB PUSH1 0x80 DUP7 ADD MSTORE PUSH2 0x218A DUP3 DUP3 PUSH2 0x1FBF JUMP JUMPDEST SWAP2 POP POP PUSH1 0xA0 DUP4 ADD MLOAD PUSH2 0x219F PUSH1 0xA0 DUP7 ADD DUP3 PUSH2 0x2309 JUMP JUMPDEST POP DUP1 SWAP2 POP POP SWAP3 SWAP2 POP POP JUMP JUMPDEST PUSH1 0x0 PUSH1 0xC0 DUP4 ADD PUSH1 0x0 DUP4 ADD MLOAD PUSH2 0x21C2 PUSH1 0x0 DUP7 ADD DUP3 PUSH2 0x2309 JUMP JUMPDEST POP PUSH1 0x20 DUP4 ADD MLOAD DUP5 DUP3 SUB PUSH1 0x20 DUP7 ADD MSTORE PUSH2 0x21DA DUP3 DUP3 PUSH2 0x1FBF JUMP JUMPDEST SWAP2 POP POP PUSH1 0x40 DUP4 ADD MLOAD PUSH2 0x21EF PUSH1 0x40 DUP7 ADD DUP3 PUSH2 0x2309 JUMP JUMPDEST POP PUSH1 0x60 DUP4 ADD MLOAD DUP5 DUP3 SUB PUSH1 0x60 DUP7 ADD MSTORE PUSH2 0x2207 DUP3 DUP3 PUSH2 0x1FBF JUMP JUMPDEST SWAP2 POP POP PUSH1 0x80 DUP4 ADD MLOAD DUP5 DUP3 SUB PUSH1 0x80 DUP7 ADD MSTORE PUSH2 0x2221 DUP3 DUP3 PUSH2 0x1FBF JUMP JUMPDEST SWAP2 POP POP PUSH1 0xA0 DUP4 ADD MLOAD PUSH2 0x2236 PUSH1 0xA0 DUP7 ADD DUP3 PUSH2 0x2309 JUMP JUMPDEST POP DUP1 SWAP2 POP POP SWAP3 SWAP2 POP POP JUMP JUMPDEST PUSH1 0x0 PUSH1 0x60 DUP4 ADD PUSH1 0x0 DUP4 ADD MLOAD PUSH2 0x2259 PUSH1 0x0 DUP7 ADD DUP3 PUSH2 0x2309 JUMP JUMPDEST POP PUSH1 0x20 DUP4 ADD MLOAD DUP5 DUP3 SUB PUSH1 0x20 DUP7 ADD MSTORE PUSH2 0x2271 DUP3 DUP3 PUSH2 0x1FBF JUMP JUMPDEST SWAP2 POP POP PUSH1 0x40 DUP4 ADD MLOAD DUP5 DUP3 SUB PUSH1 0x40 DUP7 ADD MSTORE PUSH2 0x228B DUP3 DUP3 PUSH2 0x1F61 JUMP JUMPDEST SWAP2 POP POP DUP1 SWAP2 POP POP SWAP3 SWAP2 POP POP JUMP JUMPDEST PUSH1 0x0 PUSH1 0x80 DUP4 ADD PUSH1 0x0 DUP4 ADD MLOAD PUSH2 0x22B0 PUSH1 0x0 DUP7 ADD DUP3 PUSH2 0x2309 JUMP JUMPDEST POP PUSH1 0x20 DUP4 ADD MLOAD DUP5 DUP3 SUB PUSH1 0x20 DUP7 ADD MSTORE PUSH2 0x22C8 DUP3 DUP3 PUSH2 0x1FBF JUMP JUMPDEST SWAP2 POP POP PUSH1 0x40 DUP4 ADD MLOAD DUP5 DUP3 SUB PUSH1 0x40 DUP7 ADD MSTORE PUSH2 0x22E2 DUP3 DUP3 PUSH2 0x1FBF JUMP JUMPDEST SWAP2 POP POP PUSH1 0x60 DUP4 ADD MLOAD DUP5 DUP3 SUB PUSH1 0x60 DUP7 ADD MSTORE PUSH2 0x22FC DUP3 DUP3 PUSH2 0x1F61 JUMP JUMPDEST SWAP2 POP POP DUP1 SWAP2 POP POP SWAP3 SWAP2 POP POP JUMP JUMPDEST PUSH2 0x2312 DUP2 PUSH2 0x262C JUMP JUMPDEST DUP3 MSTORE POP POP JUMP JUMPDEST PUSH2 0x2321 DUP2 PUSH2 0x262C JUMP JUMPDEST DUP3 MSTORE POP POP JUMP JUMPDEST PUSH1 0x0 PUSH1 0x20 DUP3 ADD SWAP1 POP DUP2 DUP2 SUB PUSH1 0x0 DUP4 ADD MSTORE PUSH2 0x2341 DUP2 DUP5 PUSH2 0x1EEC JUMP JUMPDEST SWAP1 POP SWAP3 SWAP2 POP POP JUMP JUMPDEST PUSH1 0x0 PUSH1 0x60 DUP3 ADD SWAP1 POP DUP2 DUP2 SUB PUSH1 0x0 DUP4 ADD MSTORE PUSH2 0x2363 DUP2 DUP7 PUSH2 0x1FF8 JUMP JUMPDEST SWAP1 POP PUSH2 0x2372 PUSH1 0x20 DUP4 ADD DUP6 PUSH2 0x2318 JUMP JUMPDEST PUSH2 0x237F PUSH1 0x40 DUP4 ADD DUP5 PUSH2 0x2318 JUMP JUMPDEST SWAP5 SWAP4 POP POP POP POP JUMP JUMPDEST PUSH1 0x0 PUSH1 0x20 DUP3 ADD SWAP1 POP DUP2 DUP2 SUB PUSH1 0x0 DUP4 ADD MSTORE PUSH2 0x23A1 DUP2 DUP5 PUSH2 0x2031 JUMP JUMPDEST SWAP1 POP SWAP3 SWAP2 POP POP JUMP JUMPDEST PUSH1 0x0 PUSH1 0x20 DUP3 ADD SWAP1 POP DUP2 DUP2 SUB PUSH1 0x0 DUP4 ADD MSTORE PUSH2 0x23C3 DUP2 DUP5 PUSH2 0x20A2 JUMP JUMPDEST SWAP1 POP SWAP3 SWAP2 POP POP JUMP JUMPDEST PUSH1 0x0 PUSH1 0x20 DUP3 ADD SWAP1 POP DUP2 DUP2 SUB PUSH1 0x0 DUP4 ADD MSTORE PUSH2 0x23E5 DUP2 DUP5 PUSH2 0x21AA JUMP JUMPDEST SWAP1 POP SWAP3 SWAP2 POP POP JUMP JUMPDEST PUSH1 0x0 PUSH1 0x20 DUP3 ADD SWAP1 POP DUP2 DUP2 SUB PUSH1 0x0 DUP4 ADD MSTORE PUSH2 0x2407 DUP2 DUP5 PUSH2 0x2241 JUMP JUMPDEST SWAP1 POP SWAP3 SWAP2 POP POP JUMP JUMPDEST PUSH1 0x0 PUSH1 0x20 DUP3 ADD SWAP1 POP DUP2 DUP2 SUB PUSH1 0x0 DUP4 ADD MSTORE PUSH2 0x2429 DUP2 DUP5 PUSH2 0x2298 JUMP JUMPDEST SWAP1 POP SWAP3 SWAP2 POP POP JUMP JUMPDEST PUSH1 0x0 PUSH1 0x20 DUP3 ADD SWAP1 POP PUSH2 0x2446 PUSH1 0x0 DUP4 ADD DUP5 PUSH2 0x2318 JUMP JUMPDEST SWAP3 SWAP2 POP POP JUMP JUMPDEST PUSH1 0x0 PUSH1 0x40 DUP3 ADD SWAP1 POP PUSH2 0x2461 PUSH1 0x0 DUP4 ADD DUP6 PUSH2 0x2318 JUMP JUMPDEST DUP2 DUP2 SUB PUSH1 0x20 DUP4 ADD MSTORE PUSH2 0x2473 DUP2 DUP5 PUSH2 0x1FF8 JUMP JUMPDEST SWAP1 POP SWAP4 SWAP3 POP POP POP JUMP JUMPDEST PUSH1 0x0 PUSH1 0x60 DUP3 ADD SWAP1 POP PUSH2 0x2491 PUSH1 0x0 DUP4 ADD DUP7 PUSH2 0x2318 JUMP JUMPDEST DUP2 DUP2 SUB PUSH1 0x20 DUP4 ADD MSTORE PUSH2 0x24A3 DUP2 DUP6 PUSH2 0x1FF8 JUMP JUMPDEST SWAP1 POP DUP2 DUP2 SUB PUSH1 0x40 DUP4 ADD MSTORE PUSH2 0x24B7 DUP2 DUP5 PUSH2 0x1FF8 JUMP JUMPDEST SWAP1 POP SWAP5 SWAP4 POP POP POP POP JUMP JUMPDEST PUSH1 0x0 PUSH1 0xC0 DUP3 ADD SWAP1 POP PUSH2 0x24D6 PUSH1 0x0 DUP4 ADD DUP10 PUSH2 0x2318 JUMP JUMPDEST DUP2 DUP2 SUB PUSH1 0x20 DUP4 ADD MSTORE PUSH2 0x24E8 DUP2 DUP9 PUSH2 0x1FF8 JUMP JUMPDEST SWAP1 POP PUSH2 0x24F7 PUSH1 0x40 DUP4 ADD DUP8 PUSH2 0x2318 JUMP JUMPDEST DUP2 DUP2 SUB PUSH1 0x60 DUP4 ADD MSTORE PUSH2 0x2509 DUP2 DUP7 PUSH2 0x1FF8 JUMP JUMPDEST SWAP1 POP DUP2 DUP2 SUB PUSH1 0x80 DUP4 ADD MSTORE PUSH2 0x251D DUP2 DUP6 PUSH2 0x1FF8 JUMP JUMPDEST SWAP1 POP PUSH2 0x252C PUSH1 0xA0 DUP4 ADD DUP5 PUSH2 0x2318 JUMP JUMPDEST SWAP8 SWAP7 POP POP POP POP POP POP POP JUMP JUMPDEST PUSH1 0x0 PUSH2 0x2541 PUSH2 0x2552 JUMP JUMPDEST SWAP1 POP PUSH2 0x254D DUP3 DUP3 PUSH2 0x26AA JUMP JUMPDEST SWAP2 SWAP1 POP JUMP JUMPDEST PUSH1 0x0 PUSH1 0x40 MLOAD SWAP1 POP SWAP1 JUMP JUMPDEST PUSH1 0x0 PUSH8 0xFFFFFFFFFFFFFFFF DUP3 GT ISZERO PUSH2 0x2577 JUMPI PUSH2 0x2576 PUSH2 0x27B1 JUMP JUMPDEST JUMPDEST PUSH2 0x2580 DUP3 PUSH2 0x27F4 JUMP JUMPDEST SWAP1 POP PUSH1 0x20 DUP2 ADD SWAP1 POP SWAP2 SWAP1 POP JUMP JUMPDEST PUSH1 0x0 DUP2 SWAP1 POP PUSH1 0x20 DUP3 ADD SWAP1 POP SWAP2 SWAP1 POP JUMP JUMPDEST PUSH1 0x0 DUP2 SWAP1 POP PUSH1 0x20 DUP3 ADD SWAP1 POP SWAP2 SWAP1 POP JUMP JUMPDEST PUSH1 0x0 DUP2 MLOAD SWAP1 POP SWAP2 SWAP1 POP JUMP JUMPDEST PUSH1 0x0 DUP2 MLOAD SWAP1 POP SWAP2 SWAP1 POP JUMP JUMPDEST PUSH1 0x0 DUP2 MLOAD SWAP1 POP SWAP2 SWAP1 POP JUMP JUMPDEST PUSH1 0x0 PUSH1 0x20 DUP3 ADD SWAP1 POP SWAP2 SWAP1 POP JUMP JUMPDEST PUSH1 0x0 PUSH1 0x20 DUP3 ADD SWAP1 POP SWAP2 SWAP1 POP JUMP JUMPDEST PUSH1 0x0 DUP3 DUP3 MSTORE PUSH1 0x20 DUP3 ADD SWAP1 POP SWAP3 SWAP2 POP POP JUMP JUMPDEST PUSH1 0x0 DUP3 DUP3 MSTORE PUSH1 0x20 DUP3 ADD SWAP1 POP SWAP3 SWAP2 POP POP JUMP JUMPDEST PUSH1 0x0 DUP3 DUP3 MSTORE PUSH1 0x20 DUP3 ADD SWAP1 POP SWAP3 SWAP2 POP POP JUMP JUMPDEST PUSH1 0x0 DUP3 DUP3 MSTORE PUSH1 0x20 DUP3 ADD SWAP1 POP SWAP3 SWAP2 POP POP JUMP JUMPDEST PUSH1 0x0 DUP2 SWAP1 POP SWAP2 SWAP1 POP JUMP JUMPDEST DUP3 DUP2 DUP4 CALLDATACOPY PUSH1 0x0 DUP4 DUP4 ADD MSTORE POP POP POP JUMP JUMPDEST PUSH1 0x0 JUMPDEST DUP4 DUP2 LT ISZERO PUSH2 0x2663 JUMPI DUP1 DUP3 ADD MLOAD DUP2 DUP5 ADD MSTORE PUSH1 0x20 DUP2 ADD SWAP1 POP PUSH2 0x2648 JUMP JUMPDEST DUP4 DUP2 GT ISZERO PUSH2 0x2672 JUMPI PUSH1 0x0 DUP5 DUP5 ADD MSTORE JUMPDEST POP POP POP POP JUMP JUMPDEST PUSH1 0x0 PUSH1 0x2 DUP3 DIV SWAP1 POP PUSH1 0x1 DUP3 AND DUP1 PUSH2 0x2690 JUMPI PUSH1 0x7F DUP3 AND SWAP2 POP JUMPDEST PUSH1 0x20 DUP3 LT DUP2 EQ ISZERO PUSH2 0x26A4 JUMPI PUSH2 0x26A3 PUSH2 0x2753 JUMP JUMPDEST JUMPDEST POP SWAP2 SWAP1 POP JUMP JUMPDEST PUSH2 0x26B3 DUP3 PUSH2 0x27F4 JUMP JUMPDEST DUP2 ADD DUP2 DUP2 LT PUSH8 0xFFFFFFFFFFFFFFFF DUP3 GT OR ISZERO PUSH2 0x26D2 JUMPI PUSH2 0x26D1 PUSH2 0x27B1 JUMP JUMPDEST JUMPDEST DUP1 PUSH1 0x40 MSTORE POP POP POP JUMP JUMPDEST PUSH1 0x0 PUSH2 0x26E6 DUP3 PUSH2 0x262C JUMP JUMPDEST SWAP2 POP PUSH32 0xFFFFFFFFFFFFFFFFFFFFFFFFFFFFFFFFFFFFFFFFFFFFFFFFFFFFFFFFFFFFFFFF DUP3 EQ ISZERO PUSH2 0x2719 JUMPI PUSH2 0x2718 PUSH2 0x2724 JUMP JUMPDEST JUMPDEST PUSH1 0x1 DUP3 ADD SWAP1 POP SWAP2 SWAP1 POP JUMP JUMPDEST PUSH32 0x4E487B7100000000000000000000000000000000000000000000000000000000 PUSH1 0x0 MSTORE PUSH1 0x11 PUSH1 0x4 MSTORE PUSH1 0x24 PUSH1 0x0 REVERT JUMPDEST PUSH32 0x4E487B7100000000000000000000000000000000000000000000000000000000 PUSH1 0x0 MSTORE PUSH1 0x22 PUSH1 0x4 MSTORE PUSH1 0x24 PUSH1 0x0 REVERT JUMPDEST PUSH32 0x4E487B7100000000000000000000000000000000000000000000000000000000 PUSH1 0x0 MSTORE PUSH1 0x32 PUSH1 0x4 MSTORE PUSH1 0x24 PUSH1 0x0 REVERT JUMPDEST PUSH32 0x4E487B7100000000000000000000000000000000000000000000000000000000 PUSH1 0x0 MSTORE PUSH1 0x41 PUSH1 0x4 MSTORE PUSH1 0x24 PUSH1 0x0 REVERT JUMPDEST PUSH1 0x0 DUP1 REVERT JUMPDEST PUSH1 0x0 DUP1 REVERT JUMPDEST PUSH1 0x0 DUP1 REVERT JUMPDEST PUSH1 0x0 DUP1 REVERT JUMPDEST PUSH1 0x0 PUSH1 0x1F NOT PUSH1 0x1F DUP4 ADD AND SWAP1 POP SWAP2 SWAP1 POP JUMP JUMPDEST PUSH2 0x280E DUP2 PUSH2 0x262C JUMP JUMPDEST DUP2 EQ PUSH2 0x2819 JUMPI PUSH1 0x0 DUP1 REVERT JUMPDEST POP JUMP INVALID LOG2 PUSH5 0x6970667358 0x22 SLT KECCAK256 0xF7 SWAP7 SLT PUSH31 0x44B64A2400DC9C9E445A71546813AAB7998FD5D54141F0846A2BA48964736F PUSH13 0x63430008070033000000000000 "
				},
				"gasEstimates": {
					"creation": {
						"codeDepositCost": "2064400",
						"executionCost": "31464",
						"totalCost": "2095864"
					},
					"external": {
						"addDistributor(string)": "infinite",
						"addManufacturer(string)": "infinite",
						"addProduct(string,uint256,string)": "infinite",
						"addRetailer(string)": "infinite",
						"addSupplier(string)": "infinite",
						"distributors(uint256)": "infinite",
						"getProduct(uint256)": "infinite",
						"getdistributorDetails(uint256)": "infinite",
						"getmanufacturerDetails(uint256)": "infinite",
						"getretailerDetails(uint256)": "infinite",
						"getsupplierDetails(uint256)": "infinite",
						"manufacturers(uint256)": "infinite",
						"products(uint256)": "infinite",
						"retailers(uint256)": "infinite",
						"returnProducts()": "infinite",
						"suppliers(uint256)": "infinite",
						"transferOwnership(uint256,uint256,uint256)": "infinite"
					}
				},
				"methodIdentifiers": {
					"addDistributor(string)": "81d9def2",
					"addManufacturer(string)": "8f5ae799",
					"addProduct(string,uint256,string)": "8f29695a",
					"addRetailer(string)": "95d00407",
					"addSupplier(string)": "15533a27",
					"distributors(uint256)": "50b492ba",
					"getProduct(uint256)": "b9db15b4",
					"getdistributorDetails(uint256)": "333f3dd0",
					"getmanufacturerDetails(uint256)": "cb80c419",
					"getretailerDetails(uint256)": "cda5e4a5",
					"getsupplierDetails(uint256)": "3779643f",
					"manufacturers(uint256)": "90175af1",
					"products(uint256)": "7acc0b20",
					"retailers(uint256)": "897ec7df",
					"returnProducts()": "f4fd4cbb",
					"suppliers(uint256)": "cea23121",
					"transferOwnership(uint256,uint256,uint256)": "f032edec"
				}
			},
			"storageLayout": {
				"storage": [
					{
						"astId": 5,
						"contract": "contracts/FakeProdId.sol:FakeProdId",
						"label": "owner",
						"offset": 0,
						"slot": "0",
						"type": "t_address"
					},
					{
						"astId": 61,
						"contract": "contracts/FakeProdId.sol:FakeProdId",
						"label": "products",
						"offset": 0,
						"slot": "1",
						"type": "t_mapping(t_uint256,t_struct(Product)18_storage)"
					},
					{
						"astId": 64,
						"contract": "contracts/FakeProdId.sol:FakeProdId",
						"label": "productsSize",
						"offset": 0,
						"slot": "2",
						"type": "t_uint256"
					},
					{
						"astId": 69,
						"contract": "contracts/FakeProdId.sol:FakeProdId",
						"label": "suppliers",
						"offset": 0,
						"slot": "3",
						"type": "t_mapping(t_uint256,t_struct(Supplier)28_storage)"
					},
					{
						"astId": 74,
						"contract": "contracts/FakeProdId.sol:FakeProdId",
						"label": "manufacturers",
						"offset": 0,
						"slot": "4",
						"type": "t_mapping(t_uint256,t_struct(Manufacturer)38_storage)"
					},
					{
						"astId": 79,
						"contract": "contracts/FakeProdId.sol:FakeProdId",
						"label": "distributors",
						"offset": 0,
						"slot": "5",
						"type": "t_mapping(t_uint256,t_struct(Distributor)48_storage)"
					},
					{
						"astId": 84,
						"contract": "contracts/FakeProdId.sol:FakeProdId",
						"label": "retailers",
						"offset": 0,
						"slot": "6",
						"type": "t_mapping(t_uint256,t_struct(Retailer)56_storage)"
					}
				],
				"types": {
					"t_address": {
						"encoding": "inplace",
						"label": "address",
						"numberOfBytes": "20"
					},
					"t_array(t_uint256)dyn_storage": {
						"base": "t_uint256",
						"encoding": "dynamic_array",
						"label": "uint256[]",
						"numberOfBytes": "32"
					},
					"t_mapping(t_uint256,t_struct(Distributor)48_storage)": {
						"encoding": "mapping",
						"key": "t_uint256",
						"label": "mapping(uint256 => struct FakeProdId.Distributor)",
						"numberOfBytes": "32",
						"value": "t_struct(Distributor)48_storage"
					},
					"t_mapping(t_uint256,t_struct(Manufacturer)38_storage)": {
						"encoding": "mapping",
						"key": "t_uint256",
						"label": "mapping(uint256 => struct FakeProdId.Manufacturer)",
						"numberOfBytes": "32",
						"value": "t_struct(Manufacturer)38_storage"
					},
					"t_mapping(t_uint256,t_struct(Product)18_storage)": {
						"encoding": "mapping",
						"key": "t_uint256",
						"label": "mapping(uint256 => struct FakeProdId.Product)",
						"numberOfBytes": "32",
						"value": "t_struct(Product)18_storage"
					},
					"t_mapping(t_uint256,t_struct(Retailer)56_storage)": {
						"encoding": "mapping",
						"key": "t_uint256",
						"label": "mapping(uint256 => struct FakeProdId.Retailer)",
						"numberOfBytes": "32",
						"value": "t_struct(Retailer)56_storage"
					},
					"t_mapping(t_uint256,t_struct(Supplier)28_storage)": {
						"encoding": "mapping",
						"key": "t_uint256",
						"label": "mapping(uint256 => struct FakeProdId.Supplier)",
						"numberOfBytes": "32",
						"value": "t_struct(Supplier)28_storage"
					},
					"t_string_storage": {
						"encoding": "bytes",
						"label": "string",
						"numberOfBytes": "32"
					},
					"t_struct(Distributor)48_storage": {
						"encoding": "inplace",
						"label": "struct FakeProdId.Distributor",
						"members": [
							{
								"astId": 40,
								"contract": "contracts/FakeProdId.sol:FakeProdId",
								"label": "distributorId",
								"offset": 0,
								"slot": "0",
								"type": "t_uint256"
							},
							{
								"astId": 42,
								"contract": "contracts/FakeProdId.sol:FakeProdId",
								"label": "kind",
								"offset": 0,
								"slot": "1",
								"type": "t_string_storage"
							},
							{
								"astId": 44,
								"contract": "contracts/FakeProdId.sol:FakeProdId",
								"label": "name",
								"offset": 0,
								"slot": "2",
								"type": "t_string_storage"
							},
							{
								"astId": 47,
								"contract": "contracts/FakeProdId.sol:FakeProdId",
								"label": "productList",
								"offset": 0,
								"slot": "3",
								"type": "t_array(t_uint256)dyn_storage"
							}
						],
						"numberOfBytes": "128"
					},
					"t_struct(Manufacturer)38_storage": {
						"encoding": "inplace",
						"label": "struct FakeProdId.Manufacturer",
						"members": [
							{
								"astId": 30,
								"contract": "contracts/FakeProdId.sol:FakeProdId",
								"label": "manufacturerId",
								"offset": 0,
								"slot": "0",
								"type": "t_uint256"
							},
							{
								"astId": 32,
								"contract": "contracts/FakeProdId.sol:FakeProdId",
								"label": "kind",
								"offset": 0,
								"slot": "1",
								"type": "t_string_storage"
							},
							{
								"astId": 34,
								"contract": "contracts/FakeProdId.sol:FakeProdId",
								"label": "name",
								"offset": 0,
								"slot": "2",
								"type": "t_string_storage"
							},
							{
								"astId": 37,
								"contract": "contracts/FakeProdId.sol:FakeProdId",
								"label": "productList",
								"offset": 0,
								"slot": "3",
								"type": "t_array(t_uint256)dyn_storage"
							}
						],
						"numberOfBytes": "128"
					},
					"t_struct(Product)18_storage": {
						"encoding": "inplace",
						"label": "struct FakeProdId.Product",
						"members": [
							{
								"astId": 7,
								"contract": "contracts/FakeProdId.sol:FakeProdId",
								"label": "productId",
								"offset": 0,
								"slot": "0",
								"type": "t_uint256"
							},
							{
								"astId": 9,
								"contract": "contracts/FakeProdId.sol:FakeProdId",
								"label": "name",
								"offset": 0,
								"slot": "1",
								"type": "t_string_storage"
							},
							{
								"astId": 11,
								"contract": "contracts/FakeProdId.sol:FakeProdId",
								"label": "price",
								"offset": 0,
								"slot": "2",
								"type": "t_uint256"
							},
							{
								"astId": 13,
								"contract": "contracts/FakeProdId.sol:FakeProdId",
								"label": "description",
								"offset": 0,
								"slot": "3",
								"type": "t_string_storage"
							},
							{
								"astId": 15,
								"contract": "contracts/FakeProdId.sol:FakeProdId",
								"label": "curOwner",
								"offset": 0,
								"slot": "4",
								"type": "t_string_storage"
							},
							{
								"astId": 17,
								"contract": "contracts/FakeProdId.sol:FakeProdId",
								"label": "curOwnerId",
								"offset": 0,
								"slot": "5",
								"type": "t_uint256"
							}
						],
						"numberOfBytes": "192"
					},
					"t_struct(Retailer)56_storage": {
						"encoding": "inplace",
						"label": "struct FakeProdId.Retailer",
						"members": [
							{
								"astId": 50,
								"contract": "contracts/FakeProdId.sol:FakeProdId",
								"label": "retailerId",
								"offset": 0,
								"slot": "0",
								"type": "t_uint256"
							},
							{
								"astId": 52,
								"contract": "contracts/FakeProdId.sol:FakeProdId",
								"label": "name",
								"offset": 0,
								"slot": "1",
								"type": "t_string_storage"
							},
							{
								"astId": 55,
								"contract": "contracts/FakeProdId.sol:FakeProdId",
								"label": "productList",
								"offset": 0,
								"slot": "2",
								"type": "t_array(t_uint256)dyn_storage"
							}
						],
						"numberOfBytes": "96"
					},
					"t_struct(Supplier)28_storage": {
						"encoding": "inplace",
						"label": "struct FakeProdId.Supplier",
						"members": [
							{
								"astId": 20,
								"contract": "contracts/FakeProdId.sol:FakeProdId",
								"label": "supplierId",
								"offset": 0,
								"slot": "0",
								"type": "t_uint256"
							},
							{
								"astId": 22,
								"contract": "contracts/FakeProdId.sol:FakeProdId",
								"label": "kind",
								"offset": 0,
								"slot": "1",
								"type": "t_string_storage"
							},
							{
								"astId": 24,
								"contract": "contracts/FakeProdId.sol:FakeProdId",
								"label": "name",
								"offset": 0,
								"slot": "2",
								"type": "t_string_storage"
							},
							{
								"astId": 27,
								"contract": "contracts/FakeProdId.sol:FakeProdId",
								"label": "productList",
								"offset": 0,
								"slot": "3",
								"type": "t_array(t_uint256)dyn_storage"
							}
						],
						"numberOfBytes": "128"
					},
					"t_uint256": {
						"encoding": "inplace",
						"label": "uint256",
						"numberOfBytes": "32"
					}
				}
			},
			"userdoc": {
				"kind": "user",
				"methods": {},
				"version": 1
			}
		}
	}
}